{
	"SmartEnergyToken/contracts/ICO.sol": {
		"ICO": {
			"abi": [
				{
					"inputs": [
						{
							"internalType": "address",
							"name": "_tokenAddress",
							"type": "address"
						},
						{
							"internalType": "uint256",
							"name": "_tokenPriceInWei",
							"type": "uint256"
						}
					],
					"stateMutability": "nonpayable",
					"type": "constructor"
				},
				{
					"inputs": [
						{
							"internalType": "address",
							"name": "owner",
							"type": "address"
						}
					],
					"name": "OwnableInvalidOwner",
					"type": "error"
				},
				{
					"inputs": [
						{
							"internalType": "address",
							"name": "account",
							"type": "address"
						}
					],
					"name": "OwnableUnauthorizedAccount",
					"type": "error"
				},
				{
					"anonymous": false,
					"inputs": [
						{
							"indexed": true,
							"internalType": "address",
							"name": "previousOwner",
							"type": "address"
						},
						{
							"indexed": true,
							"internalType": "address",
							"name": "newOwner",
							"type": "address"
						}
					],
					"name": "OwnershipTransferred",
					"type": "event"
				},
				{
					"anonymous": false,
					"inputs": [
						{
							"indexed": false,
							"internalType": "uint256",
							"name": "newPrice",
							"type": "uint256"
						}
					],
					"name": "PriceChanged",
					"type": "event"
				},
				{
					"anonymous": false,
					"inputs": [
						{
							"indexed": false,
							"internalType": "uint256",
							"name": "recoverToken",
							"type": "uint256"
						}
					],
					"name": "RecoveredToken",
					"type": "event"
				},
				{
					"anonymous": false,
					"inputs": [
						{
							"indexed": false,
							"internalType": "address",
							"name": "buyer",
							"type": "address"
						},
						{
							"indexed": false,
							"internalType": "uint256",
							"name": "amount",
							"type": "uint256"
						},
						{
							"indexed": false,
							"internalType": "uint256",
							"name": "ethAmount",
							"type": "uint256"
						}
					],
					"name": "TokensPurchased",
					"type": "event"
				},
				{
					"inputs": [],
					"name": "availableToken",
					"outputs": [
						{
							"internalType": "uint256",
							"name": "",
							"type": "uint256"
						}
					],
					"stateMutability": "view",
					"type": "function"
				},
				{
					"inputs": [],
					"name": "buyTokens",
					"outputs": [],
					"stateMutability": "payable",
					"type": "function"
				},
				{
					"inputs": [
						{
							"internalType": "uint256",
							"name": "amount",
							"type": "uint256"
						}
					],
					"name": "calculateTokenAmount",
					"outputs": [
						{
							"internalType": "uint256",
							"name": "",
							"type": "uint256"
						}
					],
					"stateMutability": "view",
					"type": "function"
				},
				{
					"inputs": [
						{
							"internalType": "uint256",
							"name": "price",
							"type": "uint256"
						}
					],
					"name": "changeTokenPrice",
					"outputs": [],
					"stateMutability": "nonpayable",
					"type": "function"
				},
				{
					"inputs": [],
					"name": "owner",
					"outputs": [
						{
							"internalType": "address",
							"name": "",
							"type": "address"
						}
					],
					"stateMutability": "view",
					"type": "function"
				},
				{
					"inputs": [],
					"name": "recoverToken",
					"outputs": [],
					"stateMutability": "nonpayable",
					"type": "function"
				},
				{
					"inputs": [],
					"name": "token",
					"outputs": [
						{
							"internalType": "contract IERC20",
							"name": "",
							"type": "address"
						}
					],
					"stateMutability": "view",
					"type": "function"
				},
				{
					"inputs": [],
					"name": "tokenPrice",
					"outputs": [
						{
							"internalType": "uint256",
							"name": "",
							"type": "uint256"
						}
					],
					"stateMutability": "view",
					"type": "function"
				},
				{
					"inputs": [
						{
							"internalType": "address",
							"name": "newOwner",
							"type": "address"
						}
					],
					"name": "transferOwnership",
					"outputs": [],
					"stateMutability": "nonpayable",
					"type": "function"
				}
			],
			"devdoc": {
				"errors": {
					"OwnableInvalidOwner(address)": [
						{
							"details": "The owner is not a valid owner account. (eg. `address(0)`)"
						}
					],
					"OwnableUnauthorizedAccount(address)": [
						{
							"details": "The caller account is not authorized to perform an operation."
						}
					]
				},
				"kind": "dev",
				"methods": {
					"availableToken()": {
						"details": "This function allows external callers to check the balance of tokens held by the ICO contract.",
						"returns": {
							"_0": "The number of tokens available in the ICO contract."
						}
					},
					"owner()": {
						"details": "Returns the address of the current owner."
					},
					"transferOwnership(address)": {
						"details": "Transfers ownership of the contract to a new account (`newOwner`). Can only be called by the current owner."
					}
				},
				"version": 1
			},
			"evm": {
				"assembly": "    /* \"SmartEnergyToken/contracts/ICO.sol\":2651:5562  contract ICO is Ownable{... */\n  mstore(0x40, 0x80)\n    /* \"SmartEnergyToken/contracts/ICO.sol\":3057:3226  constructor(address _tokenAddress, uint256 _tokenPriceInWei) Ownable(msg.sender) {... */\n  callvalue\n  dup1\n  iszero\n  tag_1\n  jumpi\n  0x00\n  dup1\n  revert\ntag_1:\n  pop\n  mload(0x40)\n  sub(codesize, bytecodeSize)\n  dup1\n  bytecodeSize\n  dup4\n  codecopy\n  dup2\n  add\n  0x40\n  dup2\n  swap1\n  mstore\n  tag_2\n  swap2\n  tag_3\n  jump\t// in\ntag_2:\n    /* \"SmartEnergyToken/contracts/ICO.sol\":3126:3136  msg.sender */\n  caller\n  dup1\n    /* \"SmartEnergyToken/contracts/ICO.sol\":1196:1293  if (initialOwner == address(0)) {... */\n  tag_7\n  jumpi\n    /* \"SmartEnergyToken/contracts/ICO.sol\":1250:1281  OwnableInvalidOwner(address(0)) */\n  mload(0x40)\n  shl(0xe0, 0x1e4fbdf7)\n  dup2\n  mstore\n    /* \"SmartEnergyToken/contracts/ICO.sol\":1278:1279  0 */\n  0x00\n    /* \"SmartEnergyToken/contracts/ICO.sol\":1250:1281  OwnableInvalidOwner(address(0)) */\n  0x04\n  dup3\n  add\n    /* \"#utility.yul\":516:567   */\n  mstore\n    /* \"#utility.yul\":489:507   */\n  0x24\n  add\n    /* \"SmartEnergyToken/contracts/ICO.sol\":1250:1281  OwnableInvalidOwner(address(0)) */\n  mload(0x40)\n  dup1\n  swap2\n  sub\n  swap1\n  revert\n    /* \"SmartEnergyToken/contracts/ICO.sol\":1196:1293  if (initialOwner == address(0)) {... */\ntag_7:\n    /* \"SmartEnergyToken/contracts/ICO.sol\":1303:1335  _transferOwnership(initialOwner) */\n  tag_10\n    /* \"SmartEnergyToken/contracts/ICO.sol\":1322:1334  initialOwner */\n  dup2\n    /* \"SmartEnergyToken/contracts/ICO.sol\":1303:1321  _transferOwnership */\n  tag_11\n    /* \"SmartEnergyToken/contracts/ICO.sol\":1303:1335  _transferOwnership(initialOwner) */\n  jump\t// in\ntag_10:\n  pop\n    /* \"SmartEnergyToken/contracts/ICO.sol\":3149:3154  token */\n  0x01\n    /* \"SmartEnergyToken/contracts/ICO.sol\":3149:3178  token = IERC20(_tokenAddress) */\n  dup1\n  sload\n  not(sub(shl(0xa0, 0x01), 0x01))\n  and\n  sub(shl(0xa0, 0x01), 0x01)\n  swap4\n  swap1\n  swap4\n  and\n  swap3\n  swap1\n  swap3\n  or\n  swap1\n  swap2\n  sstore\n    /* \"SmartEnergyToken/contracts/ICO.sol\":3189:3199  tokenPrice */\n  0x02\n    /* \"SmartEnergyToken/contracts/ICO.sol\":3189:3218  tokenPrice = _tokenPriceInWei */\n  sstore\n    /* \"SmartEnergyToken/contracts/ICO.sol\":2651:5562  contract ICO is Ownable{... */\n  jump(tag_15)\n    /* \"SmartEnergyToken/contracts/ICO.sol\":2453:2644  function _transferOwnership(address newOwner) internal virtual {... */\ntag_11:\n    /* \"SmartEnergyToken/contracts/ICO.sol\":2527:2543  address oldOwner */\n  0x00\n    /* \"SmartEnergyToken/contracts/ICO.sol\":2546:2552  _owner */\n  dup1\n  sload\n  sub(shl(0xa0, 0x01), 0x01)\n    /* \"SmartEnergyToken/contracts/ICO.sol\":2563:2580  _owner = newOwner */\n  dup4\n  dup2\n  and\n  not(sub(shl(0xa0, 0x01), 0x01))\n  dup4\n  and\n  dup2\n  or\n  dup5\n  sstore\n    /* \"SmartEnergyToken/contracts/ICO.sol\":2596:2636  OwnershipTransferred(oldOwner, newOwner) */\n  mload(0x40)\n    /* \"SmartEnergyToken/contracts/ICO.sol\":2546:2552  _owner */\n  swap2\n  swap1\n  swap3\n  and\n  swap3\n  dup4\n  swap2\n    /* \"SmartEnergyToken/contracts/ICO.sol\":2596:2636  OwnershipTransferred(oldOwner, newOwner) */\n  0x8be0079c531659141344cd1fd0a4f28419497f9722a3daafe3b4186f6b6457e0\n  swap2\n    /* \"SmartEnergyToken/contracts/ICO.sol\":2527:2543  address oldOwner */\n  swap1\n    /* \"SmartEnergyToken/contracts/ICO.sol\":2596:2636  OwnershipTransferred(oldOwner, newOwner) */\n  log3\n    /* \"SmartEnergyToken/contracts/ICO.sol\":2516:2644  {... */\n  pop\n    /* \"SmartEnergyToken/contracts/ICO.sol\":2453:2644  function _transferOwnership(address newOwner) internal virtual {... */\n  pop\n  jump\t// out\n    /* \"#utility.yul\":14:365   */\ntag_3:\n    /* \"#utility.yul\":93:99   */\n  0x00\n    /* \"#utility.yul\":101:107   */\n  dup1\n    /* \"#utility.yul\":154:156   */\n  0x40\n    /* \"#utility.yul\":142:151   */\n  dup4\n    /* \"#utility.yul\":133:140   */\n  dup6\n    /* \"#utility.yul\":129:152   */\n  sub\n    /* \"#utility.yul\":125:157   */\n  slt\n    /* \"#utility.yul\":122:174   */\n  iszero\n  tag_17\n  jumpi\n    /* \"#utility.yul\":170:171   */\n  0x00\n    /* \"#utility.yul\":167:168   */\n  dup1\n    /* \"#utility.yul\":160:172   */\n  revert\n    /* \"#utility.yul\":122:174   */\ntag_17:\n    /* \"#utility.yul\":196:212   */\n  dup3\n  mload\n  sub(shl(0xa0, 0x01), 0x01)\n    /* \"#utility.yul\":241:272   */\n  dup2\n  and\n    /* \"#utility.yul\":231:273   */\n  dup2\n  eq\n    /* \"#utility.yul\":221:291   */\n  tag_18\n  jumpi\n    /* \"#utility.yul\":287:288   */\n  0x00\n    /* \"#utility.yul\":284:285   */\n  dup1\n    /* \"#utility.yul\":277:289   */\n  revert\n    /* \"#utility.yul\":221:291   */\ntag_18:\n    /* \"#utility.yul\":355:357   */\n  0x20\n    /* \"#utility.yul\":340:358   */\n  swap4\n  swap1\n  swap4\n  add\n    /* \"#utility.yul\":334:359   */\n  mload\n    /* \"#utility.yul\":310:315   */\n  swap3\n  swap5\n    /* \"#utility.yul\":334:359   */\n  swap3\n  swap4\n  pop\n  pop\n  pop\n    /* \"#utility.yul\":14:365   */\n  jump\t// out\n    /* \"#utility.yul\":370:573   */\ntag_15:\n    /* \"SmartEnergyToken/contracts/ICO.sol\":2651:5562  contract ICO is Ownable{... */\n  dataSize(sub_0)\n  dup1\n  dataOffset(sub_0)\n  0x00\n  codecopy\n  0x00\n  return\nstop\n\nsub_0: assembly {\n        /* \"SmartEnergyToken/contracts/ICO.sol\":2651:5562  contract ICO is Ownable{... */\n      mstore(0x40, 0x80)\n      jumpi(tag_1, lt(calldatasize, 0x04))\n      shr(0xe0, calldataload(0x00))\n      dup1\n      0xa24bcf46\n      gt\n      tag_11\n      jumpi\n      dup1\n      0xa24bcf46\n      eq\n      tag_6\n      jumpi\n      dup1\n      0xd0febe4c\n      eq\n      tag_7\n      jumpi\n      dup1\n      0xf2fde38b\n      eq\n      tag_8\n      jumpi\n      dup1\n      0xfbc94f24\n      eq\n      tag_9\n      jumpi\n      dup1\n      0xfc0c546a\n      eq\n      tag_10\n      jumpi\n      0x00\n      dup1\n      revert\n    tag_11:\n      dup1\n      0x564b28a0\n      eq\n      tag_2\n      jumpi\n      dup1\n      0x5f867d4e\n      eq\n      tag_3\n      jumpi\n      dup1\n      0x7ff9b596\n      eq\n      tag_4\n      jumpi\n      dup1\n      0x8da5cb5b\n      eq\n      tag_5\n      jumpi\n    tag_1:\n      0x00\n      dup1\n      revert\n        /* \"SmartEnergyToken/contracts/ICO.sol\":5447:5559  function availableToken() external view returns(uint256){... */\n    tag_2:\n      callvalue\n      dup1\n      iszero\n      tag_12\n      jumpi\n      0x00\n      dup1\n      revert\n    tag_12:\n      pop\n      tag_13\n      tag_14\n      jump\t// in\n    tag_13:\n      mload(0x40)\n        /* \"#utility.yul\":160:185   */\n      swap1\n      dup2\n      mstore\n        /* \"#utility.yul\":148:150   */\n      0x20\n        /* \"#utility.yul\":133:151   */\n      add\n        /* \"SmartEnergyToken/contracts/ICO.sol\":5447:5559  function availableToken() external view returns(uint256){... */\n    tag_15:\n      mload(0x40)\n      dup1\n      swap2\n      sub\n      swap1\n      return\n        /* \"SmartEnergyToken/contracts/ICO.sol\":4678:4954  function recoverToken() external onlyOwner {... */\n    tag_3:\n      callvalue\n      dup1\n      iszero\n      tag_17\n      jumpi\n      0x00\n      dup1\n      revert\n    tag_17:\n      pop\n      tag_18\n      tag_19\n      jump\t// in\n    tag_18:\n      stop\n        /* \"SmartEnergyToken/contracts/ICO.sol\":2737:2762  uint256 public tokenPrice */\n    tag_4:\n      callvalue\n      dup1\n      iszero\n      tag_20\n      jumpi\n      0x00\n      dup1\n      revert\n    tag_20:\n      pop\n      tag_13\n      sload(0x02)\n      dup2\n      jump\n        /* \"SmartEnergyToken/contracts/ICO.sol\":1584:1671  function owner() public view virtual returns (address) {... */\n    tag_5:\n      callvalue\n      dup1\n      iszero\n      tag_24\n      jumpi\n      0x00\n      dup1\n      revert\n    tag_24:\n      pop\n        /* \"SmartEnergyToken/contracts/ICO.sol\":1630:1637  address */\n      0x00\n        /* \"SmartEnergyToken/contracts/ICO.sol\":1657:1663  _owner */\n      sload\n      sub(shl(0xa0, 0x01), 0x01)\n      and\n        /* \"SmartEnergyToken/contracts/ICO.sol\":1584:1671  function owner() public view virtual returns (address) {... */\n    tag_25:\n      mload(0x40)\n      sub(shl(0xa0, 0x01), 0x01)\n        /* \"#utility.yul\":360:392   */\n      swap1\n      swap2\n      and\n        /* \"#utility.yul\":342:393   */\n      dup2\n      mstore\n        /* \"#utility.yul\":330:332   */\n      0x20\n        /* \"#utility.yul\":315:333   */\n      add\n        /* \"SmartEnergyToken/contracts/ICO.sol\":1584:1671  function owner() public view virtual returns (address) {... */\n      tag_15\n        /* \"#utility.yul\":196:399   */\n      jump\n        /* \"SmartEnergyToken/contracts/ICO.sol\":4116:4248  function calculateTokenAmount(uint256 amount) public  view returns(uint256){... */\n    tag_6:\n      callvalue\n      dup1\n      iszero\n      tag_29\n      jumpi\n      0x00\n      dup1\n      revert\n    tag_29:\n      pop\n      tag_13\n      tag_31\n      calldatasize\n      0x04\n      tag_32\n      jump\t// in\n    tag_31:\n      tag_33\n      jump\t// in\n        /* \"SmartEnergyToken/contracts/ICO.sol\":3673:4016  function buyTokens() external payable {... */\n    tag_7:\n      tag_18\n      tag_36\n      jump\t// in\n        /* \"SmartEnergyToken/contracts/ICO.sol\":2072:2292  function transferOwnership(address newOwner) public virtual onlyOwner {... */\n    tag_8:\n      callvalue\n      dup1\n      iszero\n      tag_37\n      jumpi\n      0x00\n      dup1\n      revert\n    tag_37:\n      pop\n      tag_18\n      tag_39\n      calldatasize\n      0x04\n      tag_40\n      jump\t// in\n    tag_39:\n      tag_41\n      jump\t// in\n        /* \"SmartEnergyToken/contracts/ICO.sol\":5034:5173  function changeTokenPrice(uint256 price) external onlyOwner {... */\n    tag_9:\n      callvalue\n      dup1\n      iszero\n      tag_42\n      jumpi\n      0x00\n      dup1\n      revert\n    tag_42:\n      pop\n      tag_18\n      tag_44\n      calldatasize\n      0x04\n      tag_32\n      jump\t// in\n    tag_44:\n      tag_45\n      jump\t// in\n        /* \"SmartEnergyToken/contracts/ICO.sol\":2681:2700  IERC20 public token */\n    tag_10:\n      callvalue\n      dup1\n      iszero\n      tag_46\n      jumpi\n      0x00\n      dup1\n      revert\n    tag_46:\n      pop\n      sload(0x01)\n      tag_25\n      swap1\n      sub(shl(0xa0, 0x01), 0x01)\n      and\n      dup2\n      jump\n        /* \"SmartEnergyToken/contracts/ICO.sol\":5447:5559  function availableToken() external view returns(uint256){... */\n    tag_14:\n        /* \"SmartEnergyToken/contracts/ICO.sol\":5521:5526  token */\n      sload(0x01)\n        /* \"SmartEnergyToken/contracts/ICO.sol\":5521:5551  token.balanceOf(address(this)) */\n      mload(0x40)\n      shl(0xe0, 0x70a08231)\n      dup2\n      mstore\n        /* \"SmartEnergyToken/contracts/ICO.sol\":5545:5549  this */\n      address\n        /* \"SmartEnergyToken/contracts/ICO.sol\":5521:5551  token.balanceOf(address(this)) */\n      0x04\n      dup3\n      add\n        /* \"#utility.yul\":342:393   */\n      mstore\n        /* \"SmartEnergyToken/contracts/ICO.sol\":5495:5502  uint256 */\n      0x00\n      swap2\n      sub(shl(0xa0, 0x01), 0x01)\n        /* \"SmartEnergyToken/contracts/ICO.sol\":5521:5526  token */\n      and\n      swap1\n        /* \"SmartEnergyToken/contracts/ICO.sol\":5521:5536  token.balanceOf */\n      0x70a08231\n      swap1\n        /* \"#utility.yul\":315:333   */\n      0x24\n      add\n        /* \"SmartEnergyToken/contracts/ICO.sol\":5521:5551  token.balanceOf(address(this)) */\n      0x20\n      mload(0x40)\n      dup1\n      dup4\n      sub\n      dup2\n      dup7\n      gas\n      staticcall\n      iszero\n      dup1\n      iszero\n      tag_54\n      jumpi\n      returndatasize\n      0x00\n      dup1\n      returndatacopy\n      revert(0x00, returndatasize)\n    tag_54:\n      pop\n      pop\n      pop\n      pop\n      mload(0x40)\n      returndatasize\n      not(0x1f)\n      0x1f\n      dup3\n      add\n      and\n      dup3\n      add\n      dup1\n      0x40\n      mstore\n      pop\n      dup2\n      add\n      swap1\n      tag_55\n      swap2\n      swap1\n      tag_56\n      jump\t// in\n    tag_55:\n        /* \"SmartEnergyToken/contracts/ICO.sol\":5514:5551  return token.balanceOf(address(this)) */\n      swap1\n      pop\n        /* \"SmartEnergyToken/contracts/ICO.sol\":5447:5559  function availableToken() external view returns(uint256){... */\n      swap1\n      jump\t// out\n        /* \"SmartEnergyToken/contracts/ICO.sol\":4678:4954  function recoverToken() external onlyOwner {... */\n    tag_19:\n        /* \"SmartEnergyToken/contracts/ICO.sol\":1469:1482  _checkOwner() */\n      tag_58\n        /* \"SmartEnergyToken/contracts/ICO.sol\":1469:1480  _checkOwner */\n      tag_59\n        /* \"SmartEnergyToken/contracts/ICO.sol\":1469:1482  _checkOwner() */\n      jump\t// in\n    tag_58:\n        /* \"SmartEnergyToken/contracts/ICO.sol\":4755:4760  token */\n      sload(0x01)\n        /* \"SmartEnergyToken/contracts/ICO.sol\":4755:4785  token.balanceOf(address(this)) */\n      mload(0x40)\n      shl(0xe0, 0x70a08231)\n      dup2\n      mstore\n        /* \"SmartEnergyToken/contracts/ICO.sol\":4779:4783  this */\n      address\n        /* \"SmartEnergyToken/contracts/ICO.sol\":4755:4785  token.balanceOf(address(this)) */\n      0x04\n      dup3\n      add\n        /* \"#utility.yul\":342:393   */\n      mstore\n        /* \"SmartEnergyToken/contracts/ICO.sol\":4732:4752  uint256 tokenBalance */\n      0x00\n      swap2\n      sub(shl(0xa0, 0x01), 0x01)\n        /* \"SmartEnergyToken/contracts/ICO.sol\":4755:4760  token */\n      and\n      swap1\n        /* \"SmartEnergyToken/contracts/ICO.sol\":4755:4770  token.balanceOf */\n      0x70a08231\n      swap1\n        /* \"#utility.yul\":315:333   */\n      0x24\n      add\n        /* \"SmartEnergyToken/contracts/ICO.sol\":4755:4785  token.balanceOf(address(this)) */\n      0x20\n      mload(0x40)\n      dup1\n      dup4\n      sub\n      dup2\n      dup7\n      gas\n      staticcall\n      iszero\n      dup1\n      iszero\n      tag_63\n      jumpi\n      returndatasize\n      0x00\n      dup1\n      returndatacopy\n      revert(0x00, returndatasize)\n    tag_63:\n      pop\n      pop\n      pop\n      pop\n      mload(0x40)\n      returndatasize\n      not(0x1f)\n      0x1f\n      dup3\n      add\n      and\n      dup3\n      add\n      dup1\n      0x40\n      mstore\n      pop\n      dup2\n      add\n      swap1\n      tag_64\n      swap2\n      swap1\n      tag_56\n      jump\t// in\n    tag_64:\n        /* \"SmartEnergyToken/contracts/ICO.sol\":4732:4785  uint256 tokenBalance = token.balanceOf(address(this)) */\n      swap1\n      pop\n        /* \"SmartEnergyToken/contracts/ICO.sol\":4819:4820  0 */\n      0x00\n        /* \"SmartEnergyToken/contracts/ICO.sol\":4804:4816  tokenBalance */\n      dup2\n        /* \"SmartEnergyToken/contracts/ICO.sol\":4804:4820  tokenBalance > 0 */\n      gt\n        /* \"SmartEnergyToken/contracts/ICO.sol\":4796:4852  require(tokenBalance > 0,\"Not sufficient token balance\") */\n      tag_65\n      jumpi\n      mload(0x40)\n      shl(0xe5, 0x461bcd)\n      dup2\n      mstore\n        /* \"#utility.yul\":1492:1494   */\n      0x20\n        /* \"SmartEnergyToken/contracts/ICO.sol\":4796:4852  require(tokenBalance > 0,\"Not sufficient token balance\") */\n      0x04\n      dup3\n      add\n        /* \"#utility.yul\":1474:1495   */\n      mstore\n        /* \"#utility.yul\":1531:1533   */\n      0x1c\n        /* \"#utility.yul\":1511:1529   */\n      0x24\n      dup3\n      add\n        /* \"#utility.yul\":1504:1534   */\n      mstore\n        /* \"#utility.yul\":1570:1600   */\n      0x4e6f742073756666696369656e7420746f6b656e2062616c616e636500000000\n        /* \"#utility.yul\":1550:1568   */\n      0x44\n      dup3\n      add\n        /* \"#utility.yul\":1543:1601   */\n      mstore\n        /* \"#utility.yul\":1618:1636   */\n      0x64\n      add\n        /* \"SmartEnergyToken/contracts/ICO.sol\":4796:4852  require(tokenBalance > 0,\"Not sufficient token balance\") */\n    tag_66:\n      mload(0x40)\n      dup1\n      swap2\n      sub\n      swap1\n      revert\n    tag_65:\n        /* \"SmartEnergyToken/contracts/ICO.sol\":4863:4868  token */\n      and(sub(shl(0xa0, 0x01), 0x01), sload(0x01))\n        /* \"SmartEnergyToken/contracts/ICO.sol\":4863:4877  token.transfer */\n      0xa9059cbb\n        /* \"SmartEnergyToken/contracts/ICO.sol\":4879:4886  owner() */\n      tag_68\n        /* \"SmartEnergyToken/contracts/ICO.sol\":1630:1637  address */\n      0x00\n        /* \"SmartEnergyToken/contracts/ICO.sol\":1657:1663  _owner */\n      sload\n      sub(shl(0xa0, 0x01), 0x01)\n      and\n      swap1\n        /* \"SmartEnergyToken/contracts/ICO.sol\":1584:1671  function owner() public view virtual returns (address) {... */\n      jump\n        /* \"SmartEnergyToken/contracts/ICO.sol\":4879:4886  owner() */\n    tag_68:\n        /* \"SmartEnergyToken/contracts/ICO.sol\":4863:4902  token.transfer((owner()), tokenBalance) */\n      mload(0x40)\n      not(sub(shl(0xe0, 0x01), 0x01))\n      0xe0\n      dup5\n      swap1\n      shl\n      and\n      dup2\n      mstore\n      sub(shl(0xa0, 0x01), 0x01)\n        /* \"#utility.yul\":1839:1871   */\n      swap1\n      swap2\n      and\n        /* \"SmartEnergyToken/contracts/ICO.sol\":4863:4902  token.transfer((owner()), tokenBalance) */\n      0x04\n      dup3\n      add\n        /* \"#utility.yul\":1821:1872   */\n      mstore\n        /* \"#utility.yul\":1888:1906   */\n      0x24\n      dup2\n      add\n        /* \"#utility.yul\":1881:1915   */\n      dup5\n      swap1\n      mstore\n        /* \"#utility.yul\":1794:1812   */\n      0x44\n      add\n        /* \"SmartEnergyToken/contracts/ICO.sol\":4863:4902  token.transfer((owner()), tokenBalance) */\n      0x00\n      mload(0x40)\n      dup1\n      dup4\n      sub\n      dup2\n      0x00\n      dup8\n      dup1\n      extcodesize\n      iszero\n      dup1\n      iszero\n      tag_71\n      jumpi\n      0x00\n      dup1\n      revert\n    tag_71:\n      pop\n      gas\n      call\n      iszero\n      dup1\n      iszero\n      tag_73\n      jumpi\n      returndatasize\n      0x00\n      dup1\n      returndatacopy\n      revert(0x00, returndatasize)\n    tag_73:\n      pop\n      pop\n      pop\n      pop\n        /* \"SmartEnergyToken/contracts/ICO.sol\":4918:4946  RecoveredToken(tokenBalance) */\n      0x482b73dc05e4aeb0ef0aafad2e1e59f621222ab8f9e9dc866b47902334fd3e96\n        /* \"SmartEnergyToken/contracts/ICO.sol\":4933:4945  tokenBalance */\n      dup2\n        /* \"SmartEnergyToken/contracts/ICO.sol\":4918:4946  RecoveredToken(tokenBalance) */\n      mload(0x40)\n      tag_74\n      swap2\n        /* \"#utility.yul\":160:185   */\n      dup2\n      mstore\n        /* \"#utility.yul\":148:150   */\n      0x20\n        /* \"#utility.yul\":133:151   */\n      add\n      swap1\n        /* \"#utility.yul\":14:191   */\n      jump\n        /* \"SmartEnergyToken/contracts/ICO.sol\":4918:4946  RecoveredToken(tokenBalance) */\n    tag_74:\n      mload(0x40)\n      dup1\n      swap2\n      sub\n      swap1\n      log1\n        /* \"SmartEnergyToken/contracts/ICO.sol\":4721:4954  {... */\n      pop\n        /* \"SmartEnergyToken/contracts/ICO.sol\":4678:4954  function recoverToken() external onlyOwner {... */\n      jump\t// out\n        /* \"SmartEnergyToken/contracts/ICO.sol\":4116:4248  function calculateTokenAmount(uint256 amount) public  view returns(uint256){... */\n    tag_33:\n        /* \"SmartEnergyToken/contracts/ICO.sol\":4230:4240  tokenPrice */\n      sload(0x02)\n        /* \"SmartEnergyToken/contracts/ICO.sol\":4183:4190  uint256 */\n      0x00\n      swap1\n        /* \"SmartEnergyToken/contracts/ICO.sol\":4211:4226  amount * 10**18 */\n      tag_77\n        /* \"SmartEnergyToken/contracts/ICO.sol\":4211:4217  amount */\n      dup4\n        /* \"SmartEnergyToken/contracts/ICO.sol\":4220:4226  10**18 */\n      0x0de0b6b3a7640000\n        /* \"SmartEnergyToken/contracts/ICO.sol\":4211:4226  amount * 10**18 */\n      tag_78\n      jump\t// in\n    tag_77:\n        /* \"SmartEnergyToken/contracts/ICO.sol\":4210:4240  (amount * 10**18) / tokenPrice */\n      tag_79\n      swap2\n      swap1\n      tag_80\n      jump\t// in\n    tag_79:\n        /* \"SmartEnergyToken/contracts/ICO.sol\":4202:4240  return  (amount * 10**18) / tokenPrice */\n      swap3\n        /* \"SmartEnergyToken/contracts/ICO.sol\":4116:4248  function calculateTokenAmount(uint256 amount) public  view returns(uint256){... */\n      swap2\n      pop\n      pop\n      jump\t// out\n        /* \"SmartEnergyToken/contracts/ICO.sol\":3673:4016  function buyTokens() external payable {... */\n    tag_36:\n        /* \"SmartEnergyToken/contracts/ICO.sol\":3742:3743  0 */\n      0x00\n        /* \"SmartEnergyToken/contracts/ICO.sol\":3730:3739  msg.value */\n      callvalue\n        /* \"SmartEnergyToken/contracts/ICO.sol\":3730:3743  msg.value > 0 */\n      gt\n        /* \"SmartEnergyToken/contracts/ICO.sol\":3722:3780  require(msg.value > 0, \"Your are send zero ETH of amount\") */\n      tag_82\n      jumpi\n      mload(0x40)\n      shl(0xe5, 0x461bcd)\n      dup2\n      mstore\n        /* \"#utility.yul\":2620:2622   */\n      0x20\n        /* \"SmartEnergyToken/contracts/ICO.sol\":3722:3780  require(msg.value > 0, \"Your are send zero ETH of amount\") */\n      0x04\n      dup3\n      add\n        /* \"#utility.yul\":2602:2623   */\n      dup2\n      swap1\n      mstore\n        /* \"#utility.yul\":2639:2657   */\n      0x24\n      dup3\n      add\n        /* \"#utility.yul\":2632:2662   */\n      mstore\n        /* \"#utility.yul\":2698:2732   */\n      0x596f7572206172652073656e64207a65726f20455448206f6620616d6f756e74\n        /* \"#utility.yul\":2678:2696   */\n      0x44\n      dup3\n      add\n        /* \"#utility.yul\":2671:2733   */\n      mstore\n        /* \"#utility.yul\":2750:2768   */\n      0x64\n      add\n        /* \"SmartEnergyToken/contracts/ICO.sol\":3722:3780  require(msg.value > 0, \"Your are send zero ETH of amount\") */\n      tag_66\n        /* \"#utility.yul\":2418:2774   */\n      jump\n        /* \"SmartEnergyToken/contracts/ICO.sol\":3722:3780  require(msg.value > 0, \"Your are send zero ETH of amount\") */\n    tag_82:\n        /* \"SmartEnergyToken/contracts/ICO.sol\":3791:3810  uint256 tokenAmount */\n      0x00\n        /* \"SmartEnergyToken/contracts/ICO.sol\":3813:3844  calculateTokenAmount(msg.value) */\n      tag_85\n        /* \"SmartEnergyToken/contracts/ICO.sol\":3834:3843  msg.value */\n      callvalue\n        /* \"SmartEnergyToken/contracts/ICO.sol\":3813:3833  calculateTokenAmount */\n      tag_33\n        /* \"SmartEnergyToken/contracts/ICO.sol\":3813:3844  calculateTokenAmount(msg.value) */\n      jump\t// in\n    tag_85:\n        /* \"SmartEnergyToken/contracts/ICO.sol\":3855:3860  token */\n      sload(0x01)\n        /* \"SmartEnergyToken/contracts/ICO.sol\":3855:3894  token.transfer(msg.sender,tokenAmount ) */\n      mload(0x40)\n      shl(0xe0, 0xa9059cbb)\n      dup2\n      mstore\n        /* \"SmartEnergyToken/contracts/ICO.sol\":3870:3880  msg.sender */\n      caller\n        /* \"SmartEnergyToken/contracts/ICO.sol\":3855:3894  token.transfer(msg.sender,tokenAmount ) */\n      0x04\n      dup3\n      add\n        /* \"#utility.yul\":1821:1872   */\n      mstore\n        /* \"#utility.yul\":1888:1906   */\n      0x24\n      dup2\n      add\n        /* \"#utility.yul\":1881:1915   */\n      dup4\n      swap1\n      mstore\n        /* \"SmartEnergyToken/contracts/ICO.sol\":3791:3844  uint256 tokenAmount = calculateTokenAmount(msg.value) */\n      swap2\n      swap3\n      pop\n      sub(shl(0xa0, 0x01), 0x01)\n        /* \"SmartEnergyToken/contracts/ICO.sol\":3855:3860  token */\n      and\n      swap1\n        /* \"SmartEnergyToken/contracts/ICO.sol\":3855:3869  token.transfer */\n      0xa9059cbb\n      swap1\n        /* \"#utility.yul\":1794:1812   */\n      0x44\n      add\n        /* \"SmartEnergyToken/contracts/ICO.sol\":3855:3894  token.transfer(msg.sender,tokenAmount ) */\n      0x00\n      mload(0x40)\n      dup1\n      dup4\n      sub\n      dup2\n      0x00\n      dup8\n      dup1\n      extcodesize\n      iszero\n      dup1\n      iszero\n      tag_87\n      jumpi\n      0x00\n      dup1\n      revert\n    tag_87:\n      pop\n      gas\n      call\n      iszero\n      dup1\n      iszero\n      tag_89\n      jumpi\n      returndatasize\n      0x00\n      dup1\n      returndatacopy\n      revert(0x00, returndatasize)\n    tag_89:\n      pop\n      pop\n      pop\n      pop\n        /* \"SmartEnergyToken/contracts/ICO.sol\":3913:3920  owner() */\n      tag_90\n        /* \"SmartEnergyToken/contracts/ICO.sol\":1630:1637  address */\n      0x00\n        /* \"SmartEnergyToken/contracts/ICO.sol\":1657:1663  _owner */\n      sload\n      sub(shl(0xa0, 0x01), 0x01)\n      and\n      swap1\n        /* \"SmartEnergyToken/contracts/ICO.sol\":1584:1671  function owner() public view virtual returns (address) {... */\n      jump\n        /* \"SmartEnergyToken/contracts/ICO.sol\":3913:3920  owner() */\n    tag_90:\n      sub(shl(0xa0, 0x01), 0x01)\n        /* \"SmartEnergyToken/contracts/ICO.sol\":3905:3930  payable(owner()).transfer */\n      and\n        /* \"SmartEnergyToken/contracts/ICO.sol\":3905:3941  payable(owner()).transfer(msg.value) */\n      0x08fc\n        /* \"SmartEnergyToken/contracts/ICO.sol\":3931:3940  msg.value */\n      callvalue\n        /* \"SmartEnergyToken/contracts/ICO.sol\":3905:3941  payable(owner()).transfer(msg.value) */\n      swap1\n      dup2\n      iszero\n      mul\n      swap1\n      mload(0x40)\n      0x00\n      mload(0x40)\n      dup1\n      dup4\n      sub\n      dup2\n      dup6\n      dup9\n      dup9\n      call\n      swap4\n      pop\n      pop\n      pop\n      pop\n      iszero\n      dup1\n      iszero\n      tag_92\n      jumpi\n      returndatasize\n      0x00\n      dup1\n      returndatacopy\n      revert(0x00, returndatasize)\n    tag_92:\n      pop\n        /* \"SmartEnergyToken/contracts/ICO.sol\":3957:4008  TokensPurchased(msg.sender, tokenAmount, msg.value) */\n      0x40\n      dup1\n      mload\n        /* \"SmartEnergyToken/contracts/ICO.sol\":3973:3983  msg.sender */\n      caller\n        /* \"#utility.yul\":2981:3032   */\n      dup2\n      mstore\n        /* \"#utility.yul\":3063:3065   */\n      0x20\n        /* \"#utility.yul\":3048:3066   */\n      dup2\n      add\n        /* \"#utility.yul\":3041:3075   */\n      dup4\n      swap1\n      mstore\n        /* \"SmartEnergyToken/contracts/ICO.sol\":3998:4007  msg.value */\n      callvalue\n        /* \"#utility.yul\":3091:3109   */\n      swap2\n      dup2\n      add\n        /* \"#utility.yul\":3084:3118   */\n      swap2\n      swap1\n      swap2\n      mstore\n        /* \"SmartEnergyToken/contracts/ICO.sol\":3957:4008  TokensPurchased(msg.sender, tokenAmount, msg.value) */\n      0x8fafebcaf9d154343dad25669bfa277f4fbacd7ac6b0c4fed522580e040a0f33\n      swap1\n        /* \"#utility.yul\":2969:2971   */\n      0x60\n        /* \"#utility.yul\":2954:2972   */\n      add\n        /* \"SmartEnergyToken/contracts/ICO.sol\":3957:4008  TokensPurchased(msg.sender, tokenAmount, msg.value) */\n      tag_74\n        /* \"#utility.yul\":2779:3124   */\n      jump\n        /* \"SmartEnergyToken/contracts/ICO.sol\":2072:2292  function transferOwnership(address newOwner) public virtual onlyOwner {... */\n    tag_41:\n        /* \"SmartEnergyToken/contracts/ICO.sol\":1469:1482  _checkOwner() */\n      tag_96\n        /* \"SmartEnergyToken/contracts/ICO.sol\":1469:1480  _checkOwner */\n      tag_59\n        /* \"SmartEnergyToken/contracts/ICO.sol\":1469:1482  _checkOwner() */\n      jump\t// in\n    tag_96:\n      sub(shl(0xa0, 0x01), 0x01)\n        /* \"SmartEnergyToken/contracts/ICO.sol\":2157:2179  newOwner == address(0) */\n      dup2\n      and\n        /* \"SmartEnergyToken/contracts/ICO.sol\":2153:2246  if (newOwner == address(0)) {... */\n      tag_98\n      jumpi\n        /* \"SmartEnergyToken/contracts/ICO.sol\":2203:2234  OwnableInvalidOwner(address(0)) */\n      mload(0x40)\n      shl(0xe0, 0x1e4fbdf7)\n      dup2\n      mstore\n        /* \"SmartEnergyToken/contracts/ICO.sol\":2231:2232  0 */\n      0x00\n        /* \"SmartEnergyToken/contracts/ICO.sol\":2203:2234  OwnableInvalidOwner(address(0)) */\n      0x04\n      dup3\n      add\n        /* \"#utility.yul\":342:393   */\n      mstore\n        /* \"#utility.yul\":315:333   */\n      0x24\n      add\n        /* \"SmartEnergyToken/contracts/ICO.sol\":2203:2234  OwnableInvalidOwner(address(0)) */\n      tag_66\n        /* \"#utility.yul\":196:399   */\n      jump\n        /* \"SmartEnergyToken/contracts/ICO.sol\":2153:2246  if (newOwner == address(0)) {... */\n    tag_98:\n        /* \"SmartEnergyToken/contracts/ICO.sol\":2256:2284  _transferOwnership(newOwner) */\n      tag_100\n        /* \"SmartEnergyToken/contracts/ICO.sol\":2275:2283  newOwner */\n      dup2\n        /* \"SmartEnergyToken/contracts/ICO.sol\":2256:2274  _transferOwnership */\n      tag_101\n        /* \"SmartEnergyToken/contracts/ICO.sol\":2256:2284  _transferOwnership(newOwner) */\n      jump\t// in\n    tag_100:\n        /* \"SmartEnergyToken/contracts/ICO.sol\":2072:2292  function transferOwnership(address newOwner) public virtual onlyOwner {... */\n      pop\n      jump\t// out\n        /* \"SmartEnergyToken/contracts/ICO.sol\":5034:5173  function changeTokenPrice(uint256 price) external onlyOwner {... */\n    tag_45:\n        /* \"SmartEnergyToken/contracts/ICO.sol\":1469:1482  _checkOwner() */\n      tag_103\n        /* \"SmartEnergyToken/contracts/ICO.sol\":1469:1480  _checkOwner */\n      tag_59\n        /* \"SmartEnergyToken/contracts/ICO.sol\":1469:1482  _checkOwner() */\n      jump\t// in\n    tag_103:\n        /* \"SmartEnergyToken/contracts/ICO.sol\":5105:5115  tokenPrice */\n      0x02\n        /* \"SmartEnergyToken/contracts/ICO.sol\":5105:5123  tokenPrice = price */\n      dup2\n      swap1\n      sstore\n        /* \"SmartEnergyToken/contracts/ICO.sol\":5139:5163  PriceChanged(tokenPrice) */\n      mload(0x40)\n        /* \"#utility.yul\":160:185   */\n      dup2\n      dup2\n      mstore\n        /* \"SmartEnergyToken/contracts/ICO.sol\":5139:5163  PriceChanged(tokenPrice) */\n      0xa6dc15bdb68da224c66db4b3838d9a2b205138e8cff6774e57d0af91e196d622\n      swap1\n        /* \"#utility.yul\":148:150   */\n      0x20\n        /* \"#utility.yul\":133:151   */\n      add\n        /* \"SmartEnergyToken/contracts/ICO.sol\":5139:5163  PriceChanged(tokenPrice) */\n      tag_74\n        /* \"#utility.yul\":14:191   */\n      jump\n        /* \"SmartEnergyToken/contracts/ICO.sol\":1750:1916  function _checkOwner() internal view virtual {... */\n    tag_59:\n        /* \"SmartEnergyToken/contracts/ICO.sol\":1630:1637  address */\n      0x00\n        /* \"SmartEnergyToken/contracts/ICO.sol\":1657:1663  _owner */\n      sload\n      sub(shl(0xa0, 0x01), 0x01)\n      and\n        /* \"SmartEnergyToken/contracts/ICO.sol\":335:345  msg.sender */\n      caller\n        /* \"SmartEnergyToken/contracts/ICO.sol\":1810:1833  owner() != _msgSender() */\n      eq\n        /* \"SmartEnergyToken/contracts/ICO.sol\":1806:1909  if (owner() != _msgSender()) {... */\n      tag_110\n      jumpi\n        /* \"SmartEnergyToken/contracts/ICO.sol\":1857:1897  OwnableUnauthorizedAccount(_msgSender()) */\n      mload(0x40)\n      shl(0xe0, 0x118cdaa7)\n      dup2\n      mstore\n        /* \"SmartEnergyToken/contracts/ICO.sol\":335:345  msg.sender */\n      caller\n        /* \"SmartEnergyToken/contracts/ICO.sol\":1857:1897  OwnableUnauthorizedAccount(_msgSender()) */\n      0x04\n      dup3\n      add\n        /* \"#utility.yul\":342:393   */\n      mstore\n        /* \"#utility.yul\":315:333   */\n      0x24\n      add\n        /* \"SmartEnergyToken/contracts/ICO.sol\":1857:1897  OwnableUnauthorizedAccount(_msgSender()) */\n      tag_66\n        /* \"#utility.yul\":196:399   */\n      jump\n        /* \"SmartEnergyToken/contracts/ICO.sol\":1806:1909  if (owner() != _msgSender()) {... */\n    tag_110:\n        /* \"SmartEnergyToken/contracts/ICO.sol\":1750:1916  function _checkOwner() internal view virtual {... */\n      jump\t// out\n        /* \"SmartEnergyToken/contracts/ICO.sol\":2453:2644  function _transferOwnership(address newOwner) internal virtual {... */\n    tag_101:\n        /* \"SmartEnergyToken/contracts/ICO.sol\":2527:2543  address oldOwner */\n      0x00\n        /* \"SmartEnergyToken/contracts/ICO.sol\":2546:2552  _owner */\n      dup1\n      sload\n      sub(shl(0xa0, 0x01), 0x01)\n        /* \"SmartEnergyToken/contracts/ICO.sol\":2563:2580  _owner = newOwner */\n      dup4\n      dup2\n      and\n      not(sub(shl(0xa0, 0x01), 0x01))\n      dup4\n      and\n      dup2\n      or\n      dup5\n      sstore\n        /* \"SmartEnergyToken/contracts/ICO.sol\":2596:2636  OwnershipTransferred(oldOwner, newOwner) */\n      mload(0x40)\n        /* \"SmartEnergyToken/contracts/ICO.sol\":2546:2552  _owner */\n      swap2\n      swap1\n      swap3\n      and\n      swap3\n      dup4\n      swap2\n        /* \"SmartEnergyToken/contracts/ICO.sol\":2596:2636  OwnershipTransferred(oldOwner, newOwner) */\n      0x8be0079c531659141344cd1fd0a4f28419497f9722a3daafe3b4186f6b6457e0\n      swap2\n        /* \"SmartEnergyToken/contracts/ICO.sol\":2527:2543  address oldOwner */\n      swap1\n        /* \"SmartEnergyToken/contracts/ICO.sol\":2596:2636  OwnershipTransferred(oldOwner, newOwner) */\n      log3\n        /* \"SmartEnergyToken/contracts/ICO.sol\":2516:2644  {... */\n      pop\n        /* \"SmartEnergyToken/contracts/ICO.sol\":2453:2644  function _transferOwnership(address newOwner) internal virtual {... */\n      pop\n      jump\t// out\n        /* \"#utility.yul\":404:584   */\n    tag_32:\n        /* \"#utility.yul\":463:469   */\n      0x00\n        /* \"#utility.yul\":516:518   */\n      0x20\n        /* \"#utility.yul\":504:513   */\n      dup3\n        /* \"#utility.yul\":495:502   */\n      dup5\n        /* \"#utility.yul\":491:514   */\n      sub\n        /* \"#utility.yul\":487:519   */\n      slt\n        /* \"#utility.yul\":484:536   */\n      iszero\n      tag_119\n      jumpi\n        /* \"#utility.yul\":532:533   */\n      0x00\n        /* \"#utility.yul\":529:530   */\n      dup1\n        /* \"#utility.yul\":522:534   */\n      revert\n        /* \"#utility.yul\":484:536   */\n    tag_119:\n      pop\n        /* \"#utility.yul\":555:578   */\n      calldataload\n      swap2\n        /* \"#utility.yul\":404:584   */\n      swap1\n      pop\n      jump\t// out\n        /* \"#utility.yul\":589:875   */\n    tag_40:\n        /* \"#utility.yul\":648:654   */\n      0x00\n        /* \"#utility.yul\":701:703   */\n      0x20\n        /* \"#utility.yul\":689:698   */\n      dup3\n        /* \"#utility.yul\":680:687   */\n      dup5\n        /* \"#utility.yul\":676:699   */\n      sub\n        /* \"#utility.yul\":672:704   */\n      slt\n        /* \"#utility.yul\":669:721   */\n      iszero\n      tag_121\n      jumpi\n        /* \"#utility.yul\":717:718   */\n      0x00\n        /* \"#utility.yul\":714:715   */\n      dup1\n        /* \"#utility.yul\":707:719   */\n      revert\n        /* \"#utility.yul\":669:721   */\n    tag_121:\n        /* \"#utility.yul\":743:766   */\n      dup2\n      calldataload\n      sub(shl(0xa0, 0x01), 0x01)\n        /* \"#utility.yul\":795:826   */\n      dup2\n      and\n        /* \"#utility.yul\":785:827   */\n      dup2\n      eq\n        /* \"#utility.yul\":775:845   */\n      tag_122\n      jumpi\n        /* \"#utility.yul\":841:842   */\n      0x00\n        /* \"#utility.yul\":838:839   */\n      dup1\n        /* \"#utility.yul\":831:843   */\n      revert\n        /* \"#utility.yul\":775:845   */\n    tag_122:\n        /* \"#utility.yul\":864:869   */\n      swap4\n        /* \"#utility.yul\":589:875   */\n      swap3\n      pop\n      pop\n      pop\n      jump\t// out\n        /* \"#utility.yul\":1101:1285   */\n    tag_56:\n        /* \"#utility.yul\":1171:1177   */\n      0x00\n        /* \"#utility.yul\":1224:1226   */\n      0x20\n        /* \"#utility.yul\":1212:1221   */\n      dup3\n        /* \"#utility.yul\":1203:1210   */\n      dup5\n        /* \"#utility.yul\":1199:1222   */\n      sub\n        /* \"#utility.yul\":1195:1227   */\n      slt\n        /* \"#utility.yul\":1192:1244   */\n      iszero\n      tag_125\n      jumpi\n        /* \"#utility.yul\":1240:1241   */\n      0x00\n        /* \"#utility.yul\":1237:1238   */\n      dup1\n        /* \"#utility.yul\":1230:1242   */\n      revert\n        /* \"#utility.yul\":1192:1244   */\n    tag_125:\n      pop\n        /* \"#utility.yul\":1263:1279   */\n      mload\n      swap2\n        /* \"#utility.yul\":1101:1285   */\n      swap1\n      pop\n      jump\t// out\n        /* \"#utility.yul\":1926:2191   */\n    tag_78:\n        /* \"#utility.yul\":1999:2008   */\n      dup1\n      dup3\n      mul\n        /* \"#utility.yul\":2030:2039   */\n      dup2\n      iszero\n        /* \"#utility.yul\":2047:2062   */\n      dup3\n      dup3\n      div\n        /* \"#utility.yul\":2041:2063   */\n      dup5\n      eq\n        /* \"#utility.yul\":2027:2064   */\n      or\n        /* \"#utility.yul\":2017:2185   */\n      tag_79\n      jumpi\n        /* \"#utility.yul\":2107:2117   */\n      0x4e487b71\n        /* \"#utility.yul\":2102:2105   */\n      0xe0\n        /* \"#utility.yul\":2098:2118   */\n      shl\n        /* \"#utility.yul\":2095:2096   */\n      0x00\n        /* \"#utility.yul\":2088:2119   */\n      mstore\n        /* \"#utility.yul\":2142:2146   */\n      0x11\n        /* \"#utility.yul\":2139:2140   */\n      0x04\n        /* \"#utility.yul\":2132:2147   */\n      mstore\n        /* \"#utility.yul\":2170:2174   */\n      0x24\n        /* \"#utility.yul\":2167:2168   */\n      0x00\n        /* \"#utility.yul\":2160:2175   */\n      revert\n        /* \"#utility.yul\":2196:2413   */\n    tag_80:\n        /* \"#utility.yul\":2236:2237   */\n      0x00\n        /* \"#utility.yul\":2262:2263   */\n      dup3\n        /* \"#utility.yul\":2252:2384   */\n      tag_131\n      jumpi\n        /* \"#utility.yul\":2306:2316   */\n      0x4e487b71\n        /* \"#utility.yul\":2301:2304   */\n      0xe0\n        /* \"#utility.yul\":2297:2317   */\n      shl\n        /* \"#utility.yul\":2294:2295   */\n      0x00\n        /* \"#utility.yul\":2287:2318   */\n      mstore\n        /* \"#utility.yul\":2341:2345   */\n      0x12\n        /* \"#utility.yul\":2338:2339   */\n      0x04\n        /* \"#utility.yul\":2331:2346   */\n      mstore\n        /* \"#utility.yul\":2369:2373   */\n      0x24\n        /* \"#utility.yul\":2366:2367   */\n      0x00\n        /* \"#utility.yul\":2359:2374   */\n      revert\n        /* \"#utility.yul\":2252:2384   */\n    tag_131:\n      pop\n        /* \"#utility.yul\":2398:2407   */\n      div\n      swap1\n        /* \"#utility.yul\":2196:2413   */\n      jump\t// out\n\n    auxdata: 0xa264697066735822122004e25f0bfa648e3595ac6b9cf3dbc183bc1a045b84c34f17f101f2b547822c3f64736f6c63430008180033\n}\n",
				"bytecode": {
					"linkReferences": {},
					"object": "608060405234801561000f575f80fd5b506040516107c83803806107c883398101604081905261002e916100d5565b338061005357604051631e4fbdf760e01b81525f600482015260240160405180910390fd5b61005c81610086565b50600180546001600160a01b0319166001600160a01b03939093169290921790915560025561010c565b5f80546001600160a01b038381166001600160a01b0319831681178455604051919092169283917f8be0079c531659141344cd1fd0a4f28419497f9722a3daafe3b4186f6b6457e09190a35050565b5f80604083850312156100e6575f80fd5b82516001600160a01b03811681146100fc575f80fd5b6020939093015192949293505050565b6106af806101195f395ff3fe608060405260043610610084575f3560e01c8063a24bcf4611610057578063a24bcf461461010a578063d0febe4c14610129578063f2fde38b14610131578063fbc94f2414610150578063fc0c546a1461016f575f80fd5b8063564b28a0146100885780635f867d4e146100af5780637ff9b596146100c55780638da5cb5b146100da575b5f80fd5b348015610093575f80fd5b5061009c61018e565b6040519081526020015b60405180910390f35b3480156100ba575f80fd5b506100c36101fd565b005b3480156100d0575f80fd5b5061009c60025481565b3480156100e5575f80fd5b505f546001600160a01b03165b6040516001600160a01b0390911681526020016100a6565b348015610115575f80fd5b5061009c6101243660046105dc565b61037e565b6100c36103a5565b34801561013c575f80fd5b506100c361014b3660046105f3565b6104e5565b34801561015b575f80fd5b506100c361016a3660046105dc565b610522565b34801561017a575f80fd5b506001546100f2906001600160a01b031681565b6001546040516370a0823160e01b81523060048201525f916001600160a01b0316906370a0823190602401602060405180830381865afa1580156101d4573d5f803e3d5ffd5b505050506040513d601f19601f820116820180604052508101906101f89190610620565b905090565b61020561055f565b6001546040516370a0823160e01b81523060048201525f916001600160a01b0316906370a0823190602401602060405180830381865afa15801561024b573d5f803e3d5ffd5b505050506040513d601f19601f8201168201806040525081019061026f9190610620565b90505f81116102c55760405162461bcd60e51b815260206004820152601c60248201527f4e6f742073756666696369656e7420746f6b656e2062616c616e63650000000060448201526064015b60405180910390fd5b6001546001600160a01b031663a9059cbb6102e75f546001600160a01b031690565b6040516001600160e01b031960e084901b1681526001600160a01b039091166004820152602481018490526044015f604051808303815f87803b15801561032c575f80fd5b505af115801561033e573d5f803e3d5ffd5b505050507f482b73dc05e4aeb0ef0aafad2e1e59f621222ab8f9e9dc866b47902334fd3e968160405161037391815260200190565b60405180910390a150565b6002545f9061039583670de0b6b3a7640000610637565b61039f919061065a565b92915050565b5f34116103f45760405162461bcd60e51b815260206004820181905260248201527f596f7572206172652073656e64207a65726f20455448206f6620616d6f756e7460448201526064016102bc565b5f6103fe3461037e565b60015460405163a9059cbb60e01b8152336004820152602481018390529192506001600160a01b03169063a9059cbb906044015f604051808303815f87803b158015610448575f80fd5b505af115801561045a573d5f803e3d5ffd5b5050505061046f5f546001600160a01b031690565b6001600160a01b03166108fc3490811502906040515f60405180830381858888f193505050501580156104a4573d5f803e3d5ffd5b50604080513381526020810183905234918101919091527f8fafebcaf9d154343dad25669bfa277f4fbacd7ac6b0c4fed522580e040a0f3390606001610373565b6104ed61055f565b6001600160a01b03811661051657604051631e4fbdf760e01b81525f60048201526024016102bc565b61051f8161058d565b50565b61052a61055f565b60028190556040518181527fa6dc15bdb68da224c66db4b3838d9a2b205138e8cff6774e57d0af91e196d62290602001610373565b5f546001600160a01b0316331461058b5760405163118cdaa760e01b81523360048201526024016102bc565b565b5f80546001600160a01b038381166001600160a01b0319831681178455604051919092169283917f8be0079c531659141344cd1fd0a4f28419497f9722a3daafe3b4186f6b6457e09190a35050565b5f602082840312156105ec575f80fd5b5035919050565b5f60208284031215610603575f80fd5b81356001600160a01b0381168114610619575f80fd5b9392505050565b5f60208284031215610630575f80fd5b5051919050565b808202811582820484141761039f57634e487b7160e01b5f52601160045260245ffd5b5f8261067457634e487b7160e01b5f52601260045260245ffd5b50049056fea264697066735822122004e25f0bfa648e3595ac6b9cf3dbc183bc1a045b84c34f17f101f2b547822c3f64736f6c63430008180033",
					"opcodes": "PUSH1 0x80 PUSH1 0x40 MSTORE CALLVALUE DUP1 ISZERO PUSH2 0xF JUMPI PUSH0 DUP1 REVERT JUMPDEST POP PUSH1 0x40 MLOAD PUSH2 0x7C8 CODESIZE SUB DUP1 PUSH2 0x7C8 DUP4 CODECOPY DUP2 ADD PUSH1 0x40 DUP2 SWAP1 MSTORE PUSH2 0x2E SWAP2 PUSH2 0xD5 JUMP JUMPDEST CALLER DUP1 PUSH2 0x53 JUMPI PUSH1 0x40 MLOAD PUSH4 0x1E4FBDF7 PUSH1 0xE0 SHL DUP2 MSTORE PUSH0 PUSH1 0x4 DUP3 ADD MSTORE PUSH1 0x24 ADD PUSH1 0x40 MLOAD DUP1 SWAP2 SUB SWAP1 REVERT JUMPDEST PUSH2 0x5C DUP2 PUSH2 0x86 JUMP JUMPDEST POP PUSH1 0x1 DUP1 SLOAD PUSH1 0x1 PUSH1 0x1 PUSH1 0xA0 SHL SUB NOT AND PUSH1 0x1 PUSH1 0x1 PUSH1 0xA0 SHL SUB SWAP4 SWAP1 SWAP4 AND SWAP3 SWAP1 SWAP3 OR SWAP1 SWAP2 SSTORE PUSH1 0x2 SSTORE PUSH2 0x10C JUMP JUMPDEST PUSH0 DUP1 SLOAD PUSH1 0x1 PUSH1 0x1 PUSH1 0xA0 SHL SUB DUP4 DUP2 AND PUSH1 0x1 PUSH1 0x1 PUSH1 0xA0 SHL SUB NOT DUP4 AND DUP2 OR DUP5 SSTORE PUSH1 0x40 MLOAD SWAP2 SWAP1 SWAP3 AND SWAP3 DUP4 SWAP2 PUSH32 0x8BE0079C531659141344CD1FD0A4F28419497F9722A3DAAFE3B4186F6B6457E0 SWAP2 SWAP1 LOG3 POP POP JUMP JUMPDEST PUSH0 DUP1 PUSH1 0x40 DUP4 DUP6 SUB SLT ISZERO PUSH2 0xE6 JUMPI PUSH0 DUP1 REVERT JUMPDEST DUP3 MLOAD PUSH1 0x1 PUSH1 0x1 PUSH1 0xA0 SHL SUB DUP2 AND DUP2 EQ PUSH2 0xFC JUMPI PUSH0 DUP1 REVERT JUMPDEST PUSH1 0x20 SWAP4 SWAP1 SWAP4 ADD MLOAD SWAP3 SWAP5 SWAP3 SWAP4 POP POP POP JUMP JUMPDEST PUSH2 0x6AF DUP1 PUSH2 0x119 PUSH0 CODECOPY PUSH0 RETURN INVALID PUSH1 0x80 PUSH1 0x40 MSTORE PUSH1 0x4 CALLDATASIZE LT PUSH2 0x84 JUMPI PUSH0 CALLDATALOAD PUSH1 0xE0 SHR DUP1 PUSH4 0xA24BCF46 GT PUSH2 0x57 JUMPI DUP1 PUSH4 0xA24BCF46 EQ PUSH2 0x10A JUMPI DUP1 PUSH4 0xD0FEBE4C EQ PUSH2 0x129 JUMPI DUP1 PUSH4 0xF2FDE38B EQ PUSH2 0x131 JUMPI DUP1 PUSH4 0xFBC94F24 EQ PUSH2 0x150 JUMPI DUP1 PUSH4 0xFC0C546A EQ PUSH2 0x16F JUMPI PUSH0 DUP1 REVERT JUMPDEST DUP1 PUSH4 0x564B28A0 EQ PUSH2 0x88 JUMPI DUP1 PUSH4 0x5F867D4E EQ PUSH2 0xAF JUMPI DUP1 PUSH4 0x7FF9B596 EQ PUSH2 0xC5 JUMPI DUP1 PUSH4 0x8DA5CB5B EQ PUSH2 0xDA JUMPI JUMPDEST PUSH0 DUP1 REVERT JUMPDEST CALLVALUE DUP1 ISZERO PUSH2 0x93 JUMPI PUSH0 DUP1 REVERT JUMPDEST POP PUSH2 0x9C PUSH2 0x18E JUMP JUMPDEST PUSH1 0x40 MLOAD SWAP1 DUP2 MSTORE PUSH1 0x20 ADD JUMPDEST PUSH1 0x40 MLOAD DUP1 SWAP2 SUB SWAP1 RETURN JUMPDEST CALLVALUE DUP1 ISZERO PUSH2 0xBA JUMPI PUSH0 DUP1 REVERT JUMPDEST POP PUSH2 0xC3 PUSH2 0x1FD JUMP JUMPDEST STOP JUMPDEST CALLVALUE DUP1 ISZERO PUSH2 0xD0 JUMPI PUSH0 DUP1 REVERT JUMPDEST POP PUSH2 0x9C PUSH1 0x2 SLOAD DUP2 JUMP JUMPDEST CALLVALUE DUP1 ISZERO PUSH2 0xE5 JUMPI PUSH0 DUP1 REVERT JUMPDEST POP PUSH0 SLOAD PUSH1 0x1 PUSH1 0x1 PUSH1 0xA0 SHL SUB AND JUMPDEST PUSH1 0x40 MLOAD PUSH1 0x1 PUSH1 0x1 PUSH1 0xA0 SHL SUB SWAP1 SWAP2 AND DUP2 MSTORE PUSH1 0x20 ADD PUSH2 0xA6 JUMP JUMPDEST CALLVALUE DUP1 ISZERO PUSH2 0x115 JUMPI PUSH0 DUP1 REVERT JUMPDEST POP PUSH2 0x9C PUSH2 0x124 CALLDATASIZE PUSH1 0x4 PUSH2 0x5DC JUMP JUMPDEST PUSH2 0x37E JUMP JUMPDEST PUSH2 0xC3 PUSH2 0x3A5 JUMP JUMPDEST CALLVALUE DUP1 ISZERO PUSH2 0x13C JUMPI PUSH0 DUP1 REVERT JUMPDEST POP PUSH2 0xC3 PUSH2 0x14B CALLDATASIZE PUSH1 0x4 PUSH2 0x5F3 JUMP JUMPDEST PUSH2 0x4E5 JUMP JUMPDEST CALLVALUE DUP1 ISZERO PUSH2 0x15B JUMPI PUSH0 DUP1 REVERT JUMPDEST POP PUSH2 0xC3 PUSH2 0x16A CALLDATASIZE PUSH1 0x4 PUSH2 0x5DC JUMP JUMPDEST PUSH2 0x522 JUMP JUMPDEST CALLVALUE DUP1 ISZERO PUSH2 0x17A JUMPI PUSH0 DUP1 REVERT JUMPDEST POP PUSH1 0x1 SLOAD PUSH2 0xF2 SWAP1 PUSH1 0x1 PUSH1 0x1 PUSH1 0xA0 SHL SUB AND DUP2 JUMP JUMPDEST PUSH1 0x1 SLOAD PUSH1 0x40 MLOAD PUSH4 0x70A08231 PUSH1 0xE0 SHL DUP2 MSTORE ADDRESS PUSH1 0x4 DUP3 ADD MSTORE PUSH0 SWAP2 PUSH1 0x1 PUSH1 0x1 PUSH1 0xA0 SHL SUB AND SWAP1 PUSH4 0x70A08231 SWAP1 PUSH1 0x24 ADD PUSH1 0x20 PUSH1 0x40 MLOAD DUP1 DUP4 SUB DUP2 DUP7 GAS STATICCALL ISZERO DUP1 ISZERO PUSH2 0x1D4 JUMPI RETURNDATASIZE PUSH0 DUP1 RETURNDATACOPY RETURNDATASIZE PUSH0 REVERT JUMPDEST POP POP POP POP PUSH1 0x40 MLOAD RETURNDATASIZE PUSH1 0x1F NOT PUSH1 0x1F DUP3 ADD AND DUP3 ADD DUP1 PUSH1 0x40 MSTORE POP DUP2 ADD SWAP1 PUSH2 0x1F8 SWAP2 SWAP1 PUSH2 0x620 JUMP JUMPDEST SWAP1 POP SWAP1 JUMP JUMPDEST PUSH2 0x205 PUSH2 0x55F JUMP JUMPDEST PUSH1 0x1 SLOAD PUSH1 0x40 MLOAD PUSH4 0x70A08231 PUSH1 0xE0 SHL DUP2 MSTORE ADDRESS PUSH1 0x4 DUP3 ADD MSTORE PUSH0 SWAP2 PUSH1 0x1 PUSH1 0x1 PUSH1 0xA0 SHL SUB AND SWAP1 PUSH4 0x70A08231 SWAP1 PUSH1 0x24 ADD PUSH1 0x20 PUSH1 0x40 MLOAD DUP1 DUP4 SUB DUP2 DUP7 GAS STATICCALL ISZERO DUP1 ISZERO PUSH2 0x24B JUMPI RETURNDATASIZE PUSH0 DUP1 RETURNDATACOPY RETURNDATASIZE PUSH0 REVERT JUMPDEST POP POP POP POP PUSH1 0x40 MLOAD RETURNDATASIZE PUSH1 0x1F NOT PUSH1 0x1F DUP3 ADD AND DUP3 ADD DUP1 PUSH1 0x40 MSTORE POP DUP2 ADD SWAP1 PUSH2 0x26F SWAP2 SWAP1 PUSH2 0x620 JUMP JUMPDEST SWAP1 POP PUSH0 DUP2 GT PUSH2 0x2C5 JUMPI PUSH1 0x40 MLOAD PUSH3 0x461BCD PUSH1 0xE5 SHL DUP2 MSTORE PUSH1 0x20 PUSH1 0x4 DUP3 ADD MSTORE PUSH1 0x1C PUSH1 0x24 DUP3 ADD MSTORE PUSH32 0x4E6F742073756666696369656E7420746F6B656E2062616C616E636500000000 PUSH1 0x44 DUP3 ADD MSTORE PUSH1 0x64 ADD JUMPDEST PUSH1 0x40 MLOAD DUP1 SWAP2 SUB SWAP1 REVERT JUMPDEST PUSH1 0x1 SLOAD PUSH1 0x1 PUSH1 0x1 PUSH1 0xA0 SHL SUB AND PUSH4 0xA9059CBB PUSH2 0x2E7 PUSH0 SLOAD PUSH1 0x1 PUSH1 0x1 PUSH1 0xA0 SHL SUB AND SWAP1 JUMP JUMPDEST PUSH1 0x40 MLOAD PUSH1 0x1 PUSH1 0x1 PUSH1 0xE0 SHL SUB NOT PUSH1 0xE0 DUP5 SWAP1 SHL AND DUP2 MSTORE PUSH1 0x1 PUSH1 0x1 PUSH1 0xA0 SHL SUB SWAP1 SWAP2 AND PUSH1 0x4 DUP3 ADD MSTORE PUSH1 0x24 DUP2 ADD DUP5 SWAP1 MSTORE PUSH1 0x44 ADD PUSH0 PUSH1 0x40 MLOAD DUP1 DUP4 SUB DUP2 PUSH0 DUP8 DUP1 EXTCODESIZE ISZERO DUP1 ISZERO PUSH2 0x32C JUMPI PUSH0 DUP1 REVERT JUMPDEST POP GAS CALL ISZERO DUP1 ISZERO PUSH2 0x33E JUMPI RETURNDATASIZE PUSH0 DUP1 RETURNDATACOPY RETURNDATASIZE PUSH0 REVERT JUMPDEST POP POP POP POP PUSH32 0x482B73DC05E4AEB0EF0AAFAD2E1E59F621222AB8F9E9DC866B47902334FD3E96 DUP2 PUSH1 0x40 MLOAD PUSH2 0x373 SWAP2 DUP2 MSTORE PUSH1 0x20 ADD SWAP1 JUMP JUMPDEST PUSH1 0x40 MLOAD DUP1 SWAP2 SUB SWAP1 LOG1 POP JUMP JUMPDEST PUSH1 0x2 SLOAD PUSH0 SWAP1 PUSH2 0x395 DUP4 PUSH8 0xDE0B6B3A7640000 PUSH2 0x637 JUMP JUMPDEST PUSH2 0x39F SWAP2 SWAP1 PUSH2 0x65A JUMP JUMPDEST SWAP3 SWAP2 POP POP JUMP JUMPDEST PUSH0 CALLVALUE GT PUSH2 0x3F4 JUMPI PUSH1 0x40 MLOAD PUSH3 0x461BCD PUSH1 0xE5 SHL DUP2 MSTORE PUSH1 0x20 PUSH1 0x4 DUP3 ADD DUP2 SWAP1 MSTORE PUSH1 0x24 DUP3 ADD MSTORE PUSH32 0x596F7572206172652073656E64207A65726F20455448206F6620616D6F756E74 PUSH1 0x44 DUP3 ADD MSTORE PUSH1 0x64 ADD PUSH2 0x2BC JUMP JUMPDEST PUSH0 PUSH2 0x3FE CALLVALUE PUSH2 0x37E JUMP JUMPDEST PUSH1 0x1 SLOAD PUSH1 0x40 MLOAD PUSH4 0xA9059CBB PUSH1 0xE0 SHL DUP2 MSTORE CALLER PUSH1 0x4 DUP3 ADD MSTORE PUSH1 0x24 DUP2 ADD DUP4 SWAP1 MSTORE SWAP2 SWAP3 POP PUSH1 0x1 PUSH1 0x1 PUSH1 0xA0 SHL SUB AND SWAP1 PUSH4 0xA9059CBB SWAP1 PUSH1 0x44 ADD PUSH0 PUSH1 0x40 MLOAD DUP1 DUP4 SUB DUP2 PUSH0 DUP8 DUP1 EXTCODESIZE ISZERO DUP1 ISZERO PUSH2 0x448 JUMPI PUSH0 DUP1 REVERT JUMPDEST POP GAS CALL ISZERO DUP1 ISZERO PUSH2 0x45A JUMPI RETURNDATASIZE PUSH0 DUP1 RETURNDATACOPY RETURNDATASIZE PUSH0 REVERT JUMPDEST POP POP POP POP PUSH2 0x46F PUSH0 SLOAD PUSH1 0x1 PUSH1 0x1 PUSH1 0xA0 SHL SUB AND SWAP1 JUMP JUMPDEST PUSH1 0x1 PUSH1 0x1 PUSH1 0xA0 SHL SUB AND PUSH2 0x8FC CALLVALUE SWAP1 DUP2 ISZERO MUL SWAP1 PUSH1 0x40 MLOAD PUSH0 PUSH1 0x40 MLOAD DUP1 DUP4 SUB DUP2 DUP6 DUP9 DUP9 CALL SWAP4 POP POP POP POP ISZERO DUP1 ISZERO PUSH2 0x4A4 JUMPI RETURNDATASIZE PUSH0 DUP1 RETURNDATACOPY RETURNDATASIZE PUSH0 REVERT JUMPDEST POP PUSH1 0x40 DUP1 MLOAD CALLER DUP2 MSTORE PUSH1 0x20 DUP2 ADD DUP4 SWAP1 MSTORE CALLVALUE SWAP2 DUP2 ADD SWAP2 SWAP1 SWAP2 MSTORE PUSH32 0x8FAFEBCAF9D154343DAD25669BFA277F4FBACD7AC6B0C4FED522580E040A0F33 SWAP1 PUSH1 0x60 ADD PUSH2 0x373 JUMP JUMPDEST PUSH2 0x4ED PUSH2 0x55F JUMP JUMPDEST PUSH1 0x1 PUSH1 0x1 PUSH1 0xA0 SHL SUB DUP2 AND PUSH2 0x516 JUMPI PUSH1 0x40 MLOAD PUSH4 0x1E4FBDF7 PUSH1 0xE0 SHL DUP2 MSTORE PUSH0 PUSH1 0x4 DUP3 ADD MSTORE PUSH1 0x24 ADD PUSH2 0x2BC JUMP JUMPDEST PUSH2 0x51F DUP2 PUSH2 0x58D JUMP JUMPDEST POP JUMP JUMPDEST PUSH2 0x52A PUSH2 0x55F JUMP JUMPDEST PUSH1 0x2 DUP2 SWAP1 SSTORE PUSH1 0x40 MLOAD DUP2 DUP2 MSTORE PUSH32 0xA6DC15BDB68DA224C66DB4B3838D9A2B205138E8CFF6774E57D0AF91E196D622 SWAP1 PUSH1 0x20 ADD PUSH2 0x373 JUMP JUMPDEST PUSH0 SLOAD PUSH1 0x1 PUSH1 0x1 PUSH1 0xA0 SHL SUB AND CALLER EQ PUSH2 0x58B JUMPI PUSH1 0x40 MLOAD PUSH4 0x118CDAA7 PUSH1 0xE0 SHL DUP2 MSTORE CALLER PUSH1 0x4 DUP3 ADD MSTORE PUSH1 0x24 ADD PUSH2 0x2BC JUMP JUMPDEST JUMP JUMPDEST PUSH0 DUP1 SLOAD PUSH1 0x1 PUSH1 0x1 PUSH1 0xA0 SHL SUB DUP4 DUP2 AND PUSH1 0x1 PUSH1 0x1 PUSH1 0xA0 SHL SUB NOT DUP4 AND DUP2 OR DUP5 SSTORE PUSH1 0x40 MLOAD SWAP2 SWAP1 SWAP3 AND SWAP3 DUP4 SWAP2 PUSH32 0x8BE0079C531659141344CD1FD0A4F28419497F9722A3DAAFE3B4186F6B6457E0 SWAP2 SWAP1 LOG3 POP POP JUMP JUMPDEST PUSH0 PUSH1 0x20 DUP3 DUP5 SUB SLT ISZERO PUSH2 0x5EC JUMPI PUSH0 DUP1 REVERT JUMPDEST POP CALLDATALOAD SWAP2 SWAP1 POP JUMP JUMPDEST PUSH0 PUSH1 0x20 DUP3 DUP5 SUB SLT ISZERO PUSH2 0x603 JUMPI PUSH0 DUP1 REVERT JUMPDEST DUP2 CALLDATALOAD PUSH1 0x1 PUSH1 0x1 PUSH1 0xA0 SHL SUB DUP2 AND DUP2 EQ PUSH2 0x619 JUMPI PUSH0 DUP1 REVERT JUMPDEST SWAP4 SWAP3 POP POP POP JUMP JUMPDEST PUSH0 PUSH1 0x20 DUP3 DUP5 SUB SLT ISZERO PUSH2 0x630 JUMPI PUSH0 DUP1 REVERT JUMPDEST POP MLOAD SWAP2 SWAP1 POP JUMP JUMPDEST DUP1 DUP3 MUL DUP2 ISZERO DUP3 DUP3 DIV DUP5 EQ OR PUSH2 0x39F JUMPI PUSH4 0x4E487B71 PUSH1 0xE0 SHL PUSH0 MSTORE PUSH1 0x11 PUSH1 0x4 MSTORE PUSH1 0x24 PUSH0 REVERT JUMPDEST PUSH0 DUP3 PUSH2 0x674 JUMPI PUSH4 0x4E487B71 PUSH1 0xE0 SHL PUSH0 MSTORE PUSH1 0x12 PUSH1 0x4 MSTORE PUSH1 0x24 PUSH0 REVERT JUMPDEST POP DIV SWAP1 JUMP INVALID LOG2 PUSH5 0x6970667358 0x22 SLT KECCAK256 DIV 0xE2 PUSH0 SIGNEXTEND STATICCALL PUSH5 0x8E3595AC6B SWAP13 RETURN 0xDB 0xC1 DUP4 0xBC BYTE DIV JUMPDEST DUP5 0xC3 0x4F OR CALL ADD CALLCODE 0xB5 SELFBALANCE DUP3 0x2C EXTCODEHASH PUSH5 0x736F6C6343 STOP ADDMOD XOR STOP CALLER "
				},
				"gasEstimates": {
					"creation": {
						"codeDepositCost": "342200",
						"executionCost": "infinite",
						"totalCost": "infinite"
					},
					"external": {
						"availableToken()": "infinite",
						"buyTokens()": "infinite",
						"calculateTokenAmount(uint256)": "infinite",
						"changeTokenPrice(uint256)": "25628",
						"owner()": "2385",
						"recoverToken()": "infinite",
						"token()": "2424",
						"tokenPrice()": "2328",
						"transferOwnership(address)": "28338"
					}
				},
				"methodIdentifiers": {
					"availableToken()": "564b28a0",
					"buyTokens()": "d0febe4c",
					"calculateTokenAmount(uint256)": "a24bcf46",
					"changeTokenPrice(uint256)": "fbc94f24",
					"owner()": "8da5cb5b",
					"recoverToken()": "5f867d4e",
					"token()": "fc0c546a",
					"tokenPrice()": "7ff9b596",
					"transferOwnership(address)": "f2fde38b"
				}
			},
			"storageLayout": {
				"storage": [
					{
						"astId": 47,
						"contract": "SmartEnergyToken/contracts/ICO.sol:ICO",
						"label": "_owner",
						"offset": 0,
						"slot": "0",
						"type": "t_address"
					},
					{
						"astId": 177,
						"contract": "SmartEnergyToken/contracts/ICO.sol:ICO",
						"label": "token",
						"offset": 0,
						"slot": "1",
						"type": "t_contract(IERC20)16"
					},
					{
						"astId": 179,
						"contract": "SmartEnergyToken/contracts/ICO.sol:ICO",
						"label": "tokenPrice",
						"offset": 0,
						"slot": "2",
						"type": "t_uint256"
					}
				],
				"types": {
					"t_address": {
						"encoding": "inplace",
						"label": "address",
						"numberOfBytes": "20"
					},
					"t_contract(IERC20)16": {
						"encoding": "inplace",
						"label": "contract IERC20",
						"numberOfBytes": "20"
					},
					"t_uint256": {
						"encoding": "inplace",
						"label": "uint256",
						"numberOfBytes": "32"
					}
				}
			},
			"userdoc": {
				"kind": "user",
				"methods": {
					"availableToken()": {
						"notice": "Retrieves the number of tokens available in the ICO contract."
					}
				},
				"version": 1
			}
		}
	}
}