{
  "_format": "hh-sol-artifact-1",
  "contractName": "NFTCollection",
  "sourceName": "contracts/NFTCollection.sol",
  "abi": [
    {
      "inputs": [
        {
          "internalType": "string",
          "name": "name",
          "type": "string"
        },
        {
          "internalType": "string",
          "name": "symbol",
          "type": "string"
        },
        {
          "internalType": "uint256",
          "name": "_mintPrice",
          "type": "uint256"
        }
      ],
      "stateMutability": "nonpayable",
      "type": "constructor"
    },
    {
      "anonymous": false,
      "inputs": [
        {
          "indexed": true,
          "internalType": "address",
          "name": "owner",
          "type": "address"
        },
        {
          "indexed": true,
          "internalType": "address",
          "name": "approved",
          "type": "address"
        },
        {
          "indexed": true,
          "internalType": "uint256",
          "name": "tokenId",
          "type": "uint256"
        }
      ],
      "name": "Approval",
      "type": "event"
    },
    {
      "anonymous": false,
      "inputs": [
        {
          "indexed": true,
          "internalType": "address",
          "name": "owner",
          "type": "address"
        },
        {
          "indexed": true,
          "internalType": "address",
          "name": "operator",
          "type": "address"
        },
        {
          "indexed": false,
          "internalType": "bool",
          "name": "approved",
          "type": "bool"
        }
      ],
      "name": "ApprovalForAll",
      "type": "event"
    },
    {
      "anonymous": false,
      "inputs": [
        {
          "indexed": true,
          "internalType": "address",
          "name": "owner",
          "type": "address"
        },
        {
          "indexed": false,
          "internalType": "uint256[]",
          "name": "tokenIds",
          "type": "uint256[]"
        }
      ],
      "name": "BulkMint",
      "type": "event"
    },
    {
      "anonymous": false,
      "inputs": [
        {
          "indexed": true,
          "internalType": "address",
          "name": "previousOwner",
          "type": "address"
        },
        {
          "indexed": true,
          "internalType": "address",
          "name": "newOwner",
          "type": "address"
        }
      ],
      "name": "OwnershipTransferred",
      "type": "event"
    },
    {
      "anonymous": false,
      "inputs": [
        {
          "indexed": false,
          "internalType": "address",
          "name": "account",
          "type": "address"
        }
      ],
      "name": "Paused",
      "type": "event"
    },
    {
      "anonymous": false,
      "inputs": [
        {
          "indexed": true,
          "internalType": "address",
          "name": "minter",
          "type": "address"
        },
        {
          "indexed": true,
          "internalType": "uint256",
          "name": "tokenId",
          "type": "uint256"
        }
      ],
      "name": "PublicMint",
      "type": "event"
    },
    {
      "anonymous": false,
      "inputs": [
        {
          "indexed": true,
          "internalType": "address",
          "name": "from",
          "type": "address"
        },
        {
          "indexed": true,
          "internalType": "address",
          "name": "to",
          "type": "address"
        },
        {
          "indexed": true,
          "internalType": "uint256",
          "name": "tokenId",
          "type": "uint256"
        }
      ],
      "name": "Transfer",
      "type": "event"
    },
    {
      "anonymous": false,
      "inputs": [
        {
          "indexed": false,
          "internalType": "address",
          "name": "account",
          "type": "address"
        }
      ],
      "name": "Unpaused",
      "type": "event"
    },
    {
      "anonymous": false,
      "inputs": [
        {
          "indexed": true,
          "internalType": "address",
          "name": "minter",
          "type": "address"
        },
        {
          "indexed": true,
          "internalType": "uint256",
          "name": "tokenId",
          "type": "uint256"
        }
      ],
      "name": "WhitelistMint",
      "type": "event"
    },
    {
      "inputs": [
        {
          "internalType": "address",
          "name": "to",
          "type": "address"
        },
        {
          "internalType": "uint256",
          "name": "tokenId",
          "type": "uint256"
        }
      ],
      "name": "approve",
      "outputs": [],
      "stateMutability": "nonpayable",
      "type": "function"
    },
    {
      "inputs": [
        {
          "internalType": "address",
          "name": "owner",
          "type": "address"
        }
      ],
      "name": "balanceOf",
      "outputs": [
        {
          "internalType": "uint256",
          "name": "",
          "type": "uint256"
        }
      ],
      "stateMutability": "view",
      "type": "function"
    },
    {
      "inputs": [
        {
          "internalType": "string[]",
          "name": "ipfsHashes",
          "type": "string[]"
        }
      ],
      "name": "bulkMint",
      "outputs": [],
      "stateMutability": "nonpayable",
      "type": "function"
    },
    {
      "inputs": [
        {
          "internalType": "uint256",
          "name": "tokenId",
          "type": "uint256"
        }
      ],
      "name": "burn",
      "outputs": [],
      "stateMutability": "nonpayable",
      "type": "function"
    },
    {
      "inputs": [
        {
          "internalType": "uint256",
          "name": "tokenId",
          "type": "uint256"
        }
      ],
      "name": "getApproved",
      "outputs": [
        {
          "internalType": "address",
          "name": "",
          "type": "address"
        }
      ],
      "stateMutability": "view",
      "type": "function"
    },
    {
      "inputs": [
        {
          "internalType": "address",
          "name": "owner",
          "type": "address"
        },
        {
          "internalType": "address",
          "name": "operator",
          "type": "address"
        }
      ],
      "name": "isApprovedForAll",
      "outputs": [
        {
          "internalType": "bool",
          "name": "",
          "type": "bool"
        }
      ],
      "stateMutability": "view",
      "type": "function"
    },
    {
      "inputs": [],
      "name": "maxMintPerTx",
      "outputs": [
        {
          "internalType": "uint256",
          "name": "",
          "type": "uint256"
        }
      ],
      "stateMutability": "view",
      "type": "function"
    },
    {
      "inputs": [],
      "name": "maxMintPerWallet",
      "outputs": [
        {
          "internalType": "uint256",
          "name": "",
          "type": "uint256"
        }
      ],
      "stateMutability": "view",
      "type": "function"
    },
    {
      "inputs": [],
      "name": "maxSupply",
      "outputs": [
        {
          "internalType": "uint256",
          "name": "",
          "type": "uint256"
        }
      ],
      "stateMutability": "view",
      "type": "function"
    },
    {
      "inputs": [],
      "name": "mintPrice",
      "outputs": [
        {
          "internalType": "uint256",
          "name": "",
          "type": "uint256"
        }
      ],
      "stateMutability": "view",
      "type": "function"
    },
    {
      "inputs": [
        {
          "internalType": "address",
          "name": "",
          "type": "address"
        }
      ],
      "name": "mintedWallets",
      "outputs": [
        {
          "internalType": "uint256",
          "name": "",
          "type": "uint256"
        }
      ],
      "stateMutability": "view",
      "type": "function"
    },
    {
      "inputs": [],
      "name": "name",
      "outputs": [
        {
          "internalType": "string",
          "name": "",
          "type": "string"
        }
      ],
      "stateMutability": "view",
      "type": "function"
    },
    {
      "inputs": [],
      "name": "owner",
      "outputs": [
        {
          "internalType": "address",
          "name": "",
          "type": "address"
        }
      ],
      "stateMutability": "view",
      "type": "function"
    },
    {
      "inputs": [
        {
          "internalType": "uint256",
          "name": "tokenId",
          "type": "uint256"
        }
      ],
      "name": "ownerOf",
      "outputs": [
        {
          "internalType": "address",
          "name": "",
          "type": "address"
        }
      ],
      "stateMutability": "view",
      "type": "function"
    },
    {
      "inputs": [],
      "name": "pause",
      "outputs": [],
      "stateMutability": "nonpayable",
      "type": "function"
    },
    {
      "inputs": [],
      "name": "paused",
      "outputs": [
        {
          "internalType": "bool",
          "name": "",
          "type": "bool"
        }
      ],
      "stateMutability": "view",
      "type": "function"
    },
    {
      "inputs": [
        {
          "internalType": "uint256",
          "name": "quantity",
          "type": "uint256"
        },
        {
          "internalType": "string[]",
          "name": "ipfsHashes",
          "type": "string[]"
        }
      ],
      "name": "publicMint",
      "outputs": [],
      "stateMutability": "payable",
      "type": "function"
    },
    {
      "inputs": [],
      "name": "publicMintEnabled",
      "outputs": [
        {
          "internalType": "bool",
          "name": "",
          "type": "bool"
        }
      ],
      "stateMutability": "view",
      "type": "function"
    },
    {
      "inputs": [],
      "name": "renounceOwnership",
      "outputs": [],
      "stateMutability": "nonpayable",
      "type": "function"
    },
    {
      "inputs": [
        {
          "internalType": "address",
          "name": "from",
          "type": "address"
        },
        {
          "internalType": "address",
          "name": "to",
          "type": "address"
        },
        {
          "internalType": "uint256",
          "name": "tokenId",
          "type": "uint256"
        }
      ],
      "name": "safeTransferFrom",
      "outputs": [],
      "stateMutability": "nonpayable",
      "type": "function"
    },
    {
      "inputs": [
        {
          "internalType": "address",
          "name": "from",
          "type": "address"
        },
        {
          "internalType": "address",
          "name": "to",
          "type": "address"
        },
        {
          "internalType": "uint256",
          "name": "tokenId",
          "type": "uint256"
        },
        {
          "internalType": "bytes",
          "name": "data",
          "type": "bytes"
        }
      ],
      "name": "safeTransferFrom",
      "outputs": [],
      "stateMutability": "nonpayable",
      "type": "function"
    },
    {
      "inputs": [
        {
          "internalType": "address",
          "name": "operator",
          "type": "address"
        },
        {
          "internalType": "bool",
          "name": "approved",
          "type": "bool"
        }
      ],
      "name": "setApprovalForAll",
      "outputs": [],
      "stateMutability": "nonpayable",
      "type": "function"
    },
    {
      "inputs": [
        {
          "internalType": "string",
          "name": "uri",
          "type": "string"
        }
      ],
      "name": "setBaseURI",
      "outputs": [],
      "stateMutability": "nonpayable",
      "type": "function"
    },
    {
      "inputs": [
        {
          "internalType": "uint256",
          "name": "_maxSupply",
          "type": "uint256"
        }
      ],
      "name": "setMaxSupply",
      "outputs": [],
      "stateMutability": "nonpayable",
      "type": "function"
    },
    {
      "inputs": [
        {
          "internalType": "uint256",
          "name": "_maxPerTx",
          "type": "uint256"
        },
        {
          "internalType": "uint256",
          "name": "_maxPerWallet",
          "type": "uint256"
        }
      ],
      "name": "setMintLimits",
      "outputs": [],
      "stateMutability": "nonpayable",
      "type": "function"
    },
    {
      "inputs": [
        {
          "internalType": "bool",
          "name": "enabled",
          "type": "bool"
        }
      ],
      "name": "setPublicMintEnabled",
      "outputs": [],
      "stateMutability": "nonpayable",
      "type": "function"
    },
    {
      "inputs": [
        {
          "internalType": "bool",
          "name": "enabled",
          "type": "bool"
        }
      ],
      "name": "setWhitelistMintEnabled",
      "outputs": [],
      "stateMutability": "nonpayable",
      "type": "function"
    },
    {
      "inputs": [
        {
          "internalType": "address",
          "name": "user",
          "type": "address"
        },
        {
          "internalType": "bool",
          "name": "status",
          "type": "bool"
        }
      ],
      "name": "setWhitelistStatus",
      "outputs": [],
      "stateMutability": "nonpayable",
      "type": "function"
    },
    {
      "inputs": [
        {
          "internalType": "bytes4",
          "name": "interfaceId",
          "type": "bytes4"
        }
      ],
      "name": "supportsInterface",
      "outputs": [
        {
          "internalType": "bool",
          "name": "",
          "type": "bool"
        }
      ],
      "stateMutability": "view",
      "type": "function"
    },
    {
      "inputs": [],
      "name": "symbol",
      "outputs": [
        {
          "internalType": "string",
          "name": "",
          "type": "string"
        }
      ],
      "stateMutability": "view",
      "type": "function"
    },
    {
      "inputs": [
        {
          "internalType": "uint256",
          "name": "tokenId",
          "type": "uint256"
        }
      ],
      "name": "tokenURI",
      "outputs": [
        {
          "internalType": "string",
          "name": "",
          "type": "string"
        }
      ],
      "stateMutability": "view",
      "type": "function"
    },
    {
      "inputs": [
        {
          "internalType": "address",
          "name": "from",
          "type": "address"
        },
        {
          "internalType": "address",
          "name": "to",
          "type": "address"
        },
        {
          "internalType": "uint256",
          "name": "tokenId",
          "type": "uint256"
        }
      ],
      "name": "transferFrom",
      "outputs": [],
      "stateMutability": "nonpayable",
      "type": "function"
    },
    {
      "inputs": [
        {
          "internalType": "address",
          "name": "newOwner",
          "type": "address"
        }
      ],
      "name": "transferOwnership",
      "outputs": [],
      "stateMutability": "nonpayable",
      "type": "function"
    },
    {
      "inputs": [],
      "name": "unpause",
      "outputs": [],
      "stateMutability": "nonpayable",
      "type": "function"
    },
    {
      "inputs": [
        {
          "internalType": "uint256",
          "name": "quantity",
          "type": "uint256"
        },
        {
          "internalType": "string[]",
          "name": "ipfsHashes",
          "type": "string[]"
        }
      ],
      "name": "whitelistMint",
      "outputs": [],
      "stateMutability": "payable",
      "type": "function"
    },
    {
      "inputs": [],
      "name": "whitelistMintEnabled",
      "outputs": [
        {
          "internalType": "bool",
          "name": "",
          "type": "bool"
        }
      ],
      "stateMutability": "view",
      "type": "function"
    },
    {
      "inputs": [
        {
          "internalType": "address",
          "name": "",
          "type": "address"
        }
      ],
      "name": "whitelisted",
      "outputs": [
        {
          "internalType": "bool",
          "name": "",
          "type": "bool"
        }
      ],
      "stateMutability": "view",
      "type": "function"
    },
    {
      "inputs": [],
      "name": "withdraw",
      "outputs": [],
      "stateMutability": "nonpayable",
      "type": "function"
    },
    {
      "stateMutability": "payable",
      "type": "receive"
    }
  ],
  "bytecode": "0x60806040526009805461ffff191690556005600b55600a600c55620f4240600d553480156200002d57600080fd5b5060405162002af038038062002af08339810160408190526200005091620001c8565b82826000620000608382620002cc565b5060016200006f8282620002cc565b5050506200008c62000086620000aa60201b60201c565b620000ae565b6006805460ff60a01b191690556001600755600a5550620003989050565b3390565b600680546001600160a01b038381166001600160a01b0319831681179093556040519116919082907f8be0079c531659141344cd1fd0a4f28419497f9722a3daafe3b4186f6b6457e090600090a35050565b634e487b7160e01b600052604160045260246000fd5b600082601f8301126200012857600080fd5b81516001600160401b038082111562000145576200014562000100565b604051601f8301601f19908116603f0116810190828211818310171562000170576200017062000100565b81604052838152602092508660208588010111156200018e57600080fd5b600091505b83821015620001b2578582018301518183018401529082019062000193565b6000602085830101528094505050505092915050565b600080600060608486031215620001de57600080fd5b83516001600160401b0380821115620001f657600080fd5b620002048783880162000116565b945060208601519150808211156200021b57600080fd5b506200022a8682870162000116565b925050604084015190509250925092565b600181811c908216806200025057607f821691505b6020821081036200027157634e487b7160e01b600052602260045260246000fd5b50919050565b601f821115620002c7576000816000526020600020601f850160051c81016020861015620002a25750805b601f850160051c820191505b81811015620002c357828155600101620002ae565b5050505b505050565b81516001600160401b03811115620002e857620002e862000100565b6200030081620002f984546200023b565b8462000277565b602080601f8311600181146200033857600084156200031f5750858301515b600019600386901b1c1916600185901b178555620002c3565b600085815260208120601f198616915b82811015620003695788860151825594840194600190910190840162000348565b5085821015620003885787850151600019600388901b60f8161c191681555b5050505050600190811b01905550565b61274880620003a86000396000f3fe6080604052600436106102285760003560e01c806370a0823111610123578063ada7c4ed116100ab578063d5abeb011161006f578063d5abeb0114610631578063d936547e14610647578063de7fcb1d14610677578063e985e9c51461068d578063f2fde38b146106ad57600080fd5b8063ada7c4ed1461058e578063b228d925146105bb578063b767a098146105d1578063b88d4fde146105f1578063c87b56dd1461061157600080fd5b8063818668d7116100f2578063818668d7146105065780638456cb59146105265780638da5cb5b1461053b57806395d89b4114610559578063a22cb4651461056e57600080fd5b806370a0823114610491578063715018a6146104b15780637a91bd34146104c65780637e3cdcb2146104e657600080fd5b80633ccfd60b116101b15780635c975abb116101755780635c975abb146103ef5780636352211e1461040e5780636817c76c1461042e5780636caede3d146104525780636f8b44b01461047157600080fd5b80633ccfd60b146103655780633f4ba83a1461037a57806342842e0e1461038f57806342966c68146103af57806355f804b3146103cf57600080fd5b8063095ea7b3116101f8578063095ea7b3146102d85780630c424284146102f85780630f4161aa1461031857806323b872dd146103325780632fd95db51461035257600080fd5b8062347a991461023457806301ffc9a71461024957806306fdde031461027e578063081812fc146102a057600080fd5b3661022f57005b600080fd5b610247610242366004611e62565b6106cd565b005b34801561025557600080fd5b50610269610264366004611ec4565b610986565b60405190151581526020015b60405180910390f35b34801561028a57600080fd5b50610293610997565b6040516102759190611f2e565b3480156102ac57600080fd5b506102c06102bb366004611f41565b610a29565b6040516001600160a01b039091168152602001610275565b3480156102e457600080fd5b506102476102f3366004611f76565b610a50565b34801561030457600080fd5b50610247610313366004611fb0565b610b65565b34801561032457600080fd5b506009546102699060ff1681565b34801561033e57600080fd5b5061024761034d366004611fe3565b610b98565b610247610360366004611e62565b610bc9565b34801561037157600080fd5b50610247610e7b565b34801561038657600080fd5b50610247610ed1565b34801561039b57600080fd5b506102476103aa366004611fe3565b610ee1565b3480156103bb57600080fd5b506102476103ca366004611f41565b610efc565b3480156103db57600080fd5b506102476103ea3660046120ab565b610fc1565b3480156103fb57600080fd5b50600654600160a01b900460ff16610269565b34801561041a57600080fd5b506102c0610429366004611f41565b610fd9565b34801561043a57600080fd5b50610444600a5481565b604051908152602001610275565b34801561045e57600080fd5b5060095461026990610100900460ff1681565b34801561047d57600080fd5b5061024761048c366004611f41565b611039565b34801561049d57600080fd5b506104446104ac3660046120f4565b6110ad565b3480156104bd57600080fd5b50610247611133565b3480156104d257600080fd5b506102476104e136600461210f565b611145565b3480156104f257600080fd5b50610247610501366004612131565b611158565b34801561051257600080fd5b50610247610521366004612173565b6112b9565b34801561053257600080fd5b506102476112d4565b34801561054757600080fd5b506006546001600160a01b03166102c0565b34801561056557600080fd5b506102936112e4565b34801561057a57600080fd5b50610247610589366004611fb0565b6112f3565b34801561059a57600080fd5b506104446105a93660046120f4565b600f6020526000908152604090205481565b3480156105c757600080fd5b50610444600c5481565b3480156105dd57600080fd5b506102476105ec366004612173565b6112fe565b3480156105fd57600080fd5b5061024761060c36600461218e565b611320565b34801561061d57600080fd5b5061029361062c366004611f41565b611352565b34801561063d57600080fd5b50610444600d5481565b34801561065357600080fd5b506102696106623660046120f4565b60116020526000908152604090205460ff1681565b34801561068357600080fd5b50610444600b5481565b34801561069957600080fd5b506102696106a836600461220a565b6113e9565b3480156106b957600080fd5b506102476106c83660046120f4565b611417565b6106d561148d565b60095460ff1661072c5760405162461bcd60e51b815260206004820152601a60248201527f5075626c6963206d696e74696e672069732064697361626c656400000000000060448201526064015b60405180910390fd5b8281146107735760405162461bcd60e51b81526020600482015260156024820152744d69736d617463686564206861736820617272617960581b6044820152606401610723565b600b548311156107c55760405162461bcd60e51b815260206004820181905260248201527f45786365656473206d6178206d696e7420706572207472616e73616374696f6e6044820152606401610723565b600c54336000908152600f60205260409020546107e390859061224a565b11156108315760405162461bcd60e51b815260206004820152601b60248201527f45786365656473206d6178206d696e74207065722077616c6c657400000000006044820152606401610723565b82600a5461083f919061225d565b3410156108815760405162461bcd60e51b815260206004820152601060248201526f092dce6eaccccd2c6d2cadce8408aa8960831b6044820152606401610723565b600d548361088e60085490565b610898919061224a565b11156108b65760405162461bcd60e51b815260040161072390612274565b336000908152600f6020526040812080548592906108d590849061224a565b90915550600090505b83811015610980576108f4600880546001019055565b60006108ff60085490565b905061090b33826114da565b83838381811061091d5761091d6122a0565b905060200281019061092f91906122b6565b600083815260106020526040902091610949919083612387565b50604051819033907f748a2986091c2034d6e93b6f44f771a79f0e1d6acd8a60c68c17d4e1e2feaed290600090a3506001016108de565b50505050565b6000610991826114f4565b92915050565b6060600080546109a6906122fd565b80601f01602080910402602001604051908101604052809291908181526020018280546109d2906122fd565b8015610a1f5780601f106109f457610100808354040283529160200191610a1f565b820191906000526020600020905b815481529060010190602001808311610a0257829003601f168201915b5050505050905090565b6000610a3482611544565b506000908152600460205260409020546001600160a01b031690565b6000610a5b82610fd9565b9050806001600160a01b0316836001600160a01b031603610ac85760405162461bcd60e51b815260206004820152602160248201527f4552433732313a20617070726f76616c20746f2063757272656e74206f776e656044820152603960f91b6064820152608401610723565b336001600160a01b0382161480610ae45750610ae481336113e9565b610b565760405162461bcd60e51b815260206004820152603d60248201527f4552433732313a20617070726f76652063616c6c6572206973206e6f7420746f60448201527f6b656e206f776e6572206f7220617070726f76656420666f7220616c6c0000006064820152608401610723565b610b6083836115a3565b505050565b610b6d611611565b6001600160a01b03919091166000908152601160205260409020805460ff1916911515919091179055565b610ba2338261166b565b610bbe5760405162461bcd60e51b815260040161072390612448565b610b608383836116ca565b610bd161148d565b600954610100900460ff16610c285760405162461bcd60e51b815260206004820152601d60248201527f57686974656c697374206d696e74696e672069732064697361626c65640000006044820152606401610723565b3360009081526011602052604090205460ff16610c795760405162461bcd60e51b815260206004820152600f60248201526e139bdd081dda1a5d195b1a5cdd1959608a1b6044820152606401610723565b828114610cc05760405162461bcd60e51b81526020600482015260156024820152744d69736d617463686564206861736820617272617960581b6044820152606401610723565b600c54336000908152600f6020526040902054610cde90859061224a565b1115610d2c5760405162461bcd60e51b815260206004820152601760248201527f45786365656473206d61782077616c6c6574206d696e740000000000000000006044820152606401610723565b82600a54610d3a919061225d565b341015610d7c5760405162461bcd60e51b815260206004820152601060248201526f092dce6eaccccd2c6d2cadce8408aa8960831b6044820152606401610723565b600d5483610d8960085490565b610d93919061224a565b1115610db15760405162461bcd60e51b815260040161072390612274565b336000908152600f602052604081208054859290610dd090849061224a565b90915550600090505b8381101561098057610def600880546001019055565b6000610dfa60085490565b9050610e0633826114da565b838383818110610e1857610e186122a0565b9050602002810190610e2a91906122b6565b600083815260106020526040902091610e44919083612387565b50604051819033907f3175668c3bc41d83dd982a992932fc7512416b71850f41443845d2a4c2e3ec6390600090a350600101610dd9565b610e83611611565b610e8b61182e565b6006546040516001600160a01b03909116904780156108fc02916000818181858888f19350505050158015610ec4573d6000803e3d6000fd5b50610ecf6001600755565b565b610ed9611611565b610ecf611887565b610b6083838360405180602001604052806000815250611320565b610f04611611565b6000818152600260205260409020546001600160a01b0316610f5f5760405162461bcd60e51b8152602060048201526014602482015273151bdad95b88191bd95cc81b9bdd08195e1a5cdd60621b6044820152606401610723565b33610f6982610fd9565b6001600160a01b031614610fb55760405162461bcd60e51b81526020600482015260136024820152722737ba103a3432903a37b5b2b71037bbb732b960691b6044820152606401610723565b610fbe816118dc565b50565b610fc9611611565b600e610fd58282612495565b5050565b6000818152600260205260408120546001600160a01b0316806109915760405162461bcd60e51b8152602060048201526018602482015277115490cdcc8c4e881a5b9d985b1a59081d1bdad95b88125160421b6044820152606401610723565b611041611611565b6008548110156110a85760405162461bcd60e51b815260206004820152602c60248201527f4e6577206d6178206d7573742062652067726561746572207468616e2063757260448201526b3932b73a1039bab838363c9760a11b6064820152608401610723565b600d55565b60006001600160a01b0382166111175760405162461bcd60e51b815260206004820152602960248201527f4552433732313a2061646472657373207a65726f206973206e6f7420612076616044820152683634b21037bbb732b960b91b6064820152608401610723565b506001600160a01b031660009081526003602052604090205490565b61113b611611565b610ecf6000611971565b61114d611611565b600b91909155600c55565b611160611611565b600d548161116d60085490565b611177919061224a565b11156111955760405162461bcd60e51b815260040161072390612274565b60008167ffffffffffffffff8111156111b0576111b061201f565b6040519080825280602002602001820160405280156111d9578160200160208202803683370190505b50905060005b82811015611272576111f5600880546001019055565b600061120060085490565b905061120c33826114da565b84848381811061121e5761121e6122a0565b905060200281019061123091906122b6565b60008381526010602052604090209161124a919083612387565b508083838151811061125e5761125e6122a0565b6020908102919091010152506001016111df565b50336001600160a01b03167f40c6acc3388e785e5457977c58d74f6015393dcd124a9f8da8a66f371480d8cd826040516112ac9190612555565b60405180910390a2505050565b6112c1611611565b6009805460ff1916911515919091179055565b6112dc611611565b610ecf6119c3565b6060600180546109a6906122fd565b610fd5338383611a06565b611306611611565b600980549115156101000261ff0019909216919091179055565b61132a338361166b565b6113465760405162461bcd60e51b815260040161072390612448565b61098084848484611ad4565b6000818152600260205260409020546060906001600160a01b03166113ad5760405162461bcd60e51b81526020600482015260116024820152702737b732bc34b9ba32b73a103a37b5b2b760791b6044820152606401610723565b600e601060008481526020019081526020016000206040516020016113d392919061260c565b6040516020818303038152906040529050919050565b6001600160a01b03918216600090815260056020908152604080832093909416825291909152205460ff1690565b61141f611611565b6001600160a01b0381166114845760405162461bcd60e51b815260206004820152602660248201527f4f776e61626c653a206e6577206f776e657220697320746865207a65726f206160448201526564647265737360d01b6064820152608401610723565b610fbe81611971565b600654600160a01b900460ff1615610ecf5760405162461bcd60e51b815260206004820152601060248201526f14185d5cd8589b194e881c185d5cd95960821b6044820152606401610723565b610fd5828260405180602001604052806000815250611b07565b60006001600160e01b031982166380ac58cd60e01b148061152557506001600160e01b03198216635b5e139f60e01b145b8061099157506301ffc9a760e01b6001600160e01b0319831614610991565b6000818152600260205260409020546001600160a01b0316610fbe5760405162461bcd60e51b8152602060048201526018602482015277115490cdcc8c4e881a5b9d985b1a59081d1bdad95b88125160421b6044820152606401610723565b600081815260046020526040902080546001600160a01b0319166001600160a01b03841690811790915581906115d882610fd9565b6001600160a01b03167f8c5be1e5ebec7d5bd14f71427d1e84f3dd0314c0f7b2291e5b200ac8c7c3b92560405160405180910390a45050565b6006546001600160a01b03163314610ecf5760405162461bcd60e51b815260206004820181905260248201527f4f776e61626c653a2063616c6c6572206973206e6f7420746865206f776e65726044820152606401610723565b60008061167783610fd9565b9050806001600160a01b0316846001600160a01b0316148061169e575061169e81856113e9565b806116c25750836001600160a01b03166116b784610a29565b6001600160a01b0316145b949350505050565b826001600160a01b03166116dd82610fd9565b6001600160a01b0316146117035760405162461bcd60e51b815260040161072390612621565b6001600160a01b0382166117655760405162461bcd60e51b8152602060048201526024808201527f4552433732313a207472616e7366657220746f20746865207a65726f206164646044820152637265737360e01b6064820152608401610723565b826001600160a01b031661177882610fd9565b6001600160a01b03161461179e5760405162461bcd60e51b815260040161072390612621565b600081815260046020908152604080832080546001600160a01b03199081169091556001600160a01b0387811680865260038552838620805460001901905590871680865283862080546001019055868652600290945282852080549092168417909155905184937fddf252ad1be2c89b69c2b068fc378daa952ba7f163c4a11628f55a4df523b3ef91a4505050565b6002600754036118805760405162461bcd60e51b815260206004820152601f60248201527f5265656e7472616e637947756172643a207265656e7472616e742063616c6c006044820152606401610723565b6002600755565b61188f611b3a565b6006805460ff60a01b191690557f5db9ee0a495bf2e6ff9c91a7834c1ba4fdd244a5e8aa4e537bd38aeae4b073aa335b6040516001600160a01b03909116815260200160405180910390a1565b60006118e782610fd9565b90506118f282610fd9565b600083815260046020908152604080832080546001600160a01b03199081169091556001600160a01b0385168085526003845282852080546000190190558785526002909352818420805490911690555192935084927fddf252ad1be2c89b69c2b068fc378daa952ba7f163c4a11628f55a4df523b3ef908390a45050565b600680546001600160a01b038381166001600160a01b0319831681179093556040519116919082907f8be0079c531659141344cd1fd0a4f28419497f9722a3daafe3b4186f6b6457e090600090a35050565b6119cb61148d565b6006805460ff60a01b1916600160a01b1790557f62e78cea01bee320cd4e420270b5ea74000d11b0c9f74754ebdbfc544b05a2586118bf3390565b816001600160a01b0316836001600160a01b031603611a675760405162461bcd60e51b815260206004820152601960248201527f4552433732313a20617070726f766520746f2063616c6c6572000000000000006044820152606401610723565b6001600160a01b03838116600081815260056020908152604080832094871680845294825291829020805460ff191686151590811790915591519182527f17307eab39ab6107e8899845ad3d59bd9653f200f220920489ca2b5937696c31910160405180910390a3505050565b611adf8484846116ca565b611aeb84848484611b8a565b6109805760405162461bcd60e51b815260040161072390612666565b611b118383611c8b565b611b1e6000848484611b8a565b610b605760405162461bcd60e51b815260040161072390612666565b600654600160a01b900460ff16610ecf5760405162461bcd60e51b815260206004820152601460248201527314185d5cd8589b194e881b9bdd081c185d5cd95960621b6044820152606401610723565b60006001600160a01b0384163b15611c8057604051630a85bd0160e11b81526001600160a01b0385169063150b7a0290611bce9033908990889088906004016126b8565b6020604051808303816000875af1925050508015611c09575060408051601f3d908101601f19168201909252611c06918101906126f5565b60015b611c66573d808015611c37576040519150601f19603f3d011682016040523d82523d6000602084013e611c3c565b606091505b508051600003611c5e5760405162461bcd60e51b815260040161072390612666565b805181602001fd5b6001600160e01b031916630a85bd0160e11b1490506116c2565b506001949350505050565b6001600160a01b038216611ce15760405162461bcd60e51b815260206004820181905260248201527f4552433732313a206d696e7420746f20746865207a65726f20616464726573736044820152606401610723565b6000818152600260205260409020546001600160a01b031615611d465760405162461bcd60e51b815260206004820152601c60248201527f4552433732313a20746f6b656e20616c7265616479206d696e746564000000006044820152606401610723565b6000818152600260205260409020546001600160a01b031615611dab5760405162461bcd60e51b815260206004820152601c60248201527f4552433732313a20746f6b656e20616c7265616479206d696e746564000000006044820152606401610723565b6001600160a01b038216600081815260036020908152604080832080546001019055848352600290915280822080546001600160a01b0319168417905551839291907fddf252ad1be2c89b69c2b068fc378daa952ba7f163c4a11628f55a4df523b3ef908290a45050565b60008083601f840112611e2857600080fd5b50813567ffffffffffffffff811115611e4057600080fd5b6020830191508360208260051b8501011115611e5b57600080fd5b9250929050565b600080600060408486031215611e7757600080fd5b83359250602084013567ffffffffffffffff811115611e9557600080fd5b611ea186828701611e16565b9497909650939450505050565b6001600160e01b031981168114610fbe57600080fd5b600060208284031215611ed657600080fd5b8135611ee181611eae565b9392505050565b6000815180845260005b81811015611f0e57602081850181015186830182015201611ef2565b506000602082860101526020601f19601f83011685010191505092915050565b602081526000611ee16020830184611ee8565b600060208284031215611f5357600080fd5b5035919050565b80356001600160a01b0381168114611f7157600080fd5b919050565b60008060408385031215611f8957600080fd5b611f9283611f5a565b946020939093013593505050565b80358015158114611f7157600080fd5b60008060408385031215611fc357600080fd5b611fcc83611f5a565b9150611fda60208401611fa0565b90509250929050565b600080600060608486031215611ff857600080fd5b61200184611f5a565b925061200f60208501611f5a565b9150604084013590509250925092565b634e487b7160e01b600052604160045260246000fd5b600067ffffffffffffffff808411156120505761205061201f565b604051601f8501601f19908116603f011681019082821181831017156120785761207861201f565b8160405280935085815286868601111561209157600080fd5b858560208301376000602087830101525050509392505050565b6000602082840312156120bd57600080fd5b813567ffffffffffffffff8111156120d457600080fd5b8201601f810184136120e557600080fd5b6116c284823560208401612035565b60006020828403121561210657600080fd5b611ee182611f5a565b6000806040838503121561212257600080fd5b50508035926020909101359150565b6000806020838503121561214457600080fd5b823567ffffffffffffffff81111561215b57600080fd5b61216785828601611e16565b90969095509350505050565b60006020828403121561218557600080fd5b611ee182611fa0565b600080600080608085870312156121a457600080fd5b6121ad85611f5a565b93506121bb60208601611f5a565b925060408501359150606085013567ffffffffffffffff8111156121de57600080fd5b8501601f810187136121ef57600080fd5b6121fe87823560208401612035565b91505092959194509250565b6000806040838503121561221d57600080fd5b61222683611f5a565b9150611fda60208401611f5a565b634e487b7160e01b600052601160045260246000fd5b8082018082111561099157610991612234565b808202811582820484141761099157610991612234565b60208082526012908201527145786365656473206d617820737570706c7960701b604082015260600190565b634e487b7160e01b600052603260045260246000fd5b6000808335601e198436030181126122cd57600080fd5b83018035915067ffffffffffffffff8211156122e857600080fd5b602001915036819003821315611e5b57600080fd5b600181811c9082168061231157607f821691505b60208210810361233157634e487b7160e01b600052602260045260246000fd5b50919050565b601f821115610b60576000816000526020600020601f850160051c810160208610156123605750805b601f850160051c820191505b8181101561237f5782815560010161236c565b505050505050565b67ffffffffffffffff83111561239f5761239f61201f565b6123b3836123ad83546122fd565b83612337565b6000601f8411600181146123e757600085156123cf5750838201355b600019600387901b1c1916600186901b178355612441565b600083815260209020601f19861690835b8281101561241857868501358255602094850194600190920191016123f8565b50868210156124355760001960f88860031b161c19848701351681555b505060018560011b0183555b5050505050565b6020808252602d908201527f4552433732313a2063616c6c6572206973206e6f7420746f6b656e206f776e6560408201526c1c881bdc88185c1c1c9bdd9959609a1b606082015260800190565b815167ffffffffffffffff8111156124af576124af61201f565b6124c3816124bd84546122fd565b84612337565b602080601f8311600181146124f857600084156124e05750858301515b600019600386901b1c1916600185901b17855561237f565b600085815260208120601f198616915b8281101561252757888601518255948401946001909101908401612508565b50858210156125455787850151600019600388901b60f8161c191681555b5050505050600190811b01905550565b6020808252825182820181905260009190848201906040850190845b8181101561258d57835183529284019291840191600101612571565b50909695505050505050565b600081546125a6816122fd565b600182811680156125be57600181146125d357612602565b60ff1984168752821515830287019450612602565b8560005260208060002060005b858110156125f95781548a8201529084019082016125e0565b50505082870194505b5050505092915050565b60006116c261261b8386612599565b84612599565b60208082526025908201527f4552433732313a207472616e736665722066726f6d20696e636f72726563742060408201526437bbb732b960d91b606082015260800190565b60208082526032908201527f4552433732313a207472616e7366657220746f206e6f6e20455243373231526560408201527131b2b4bb32b91034b6b83632b6b2b73a32b960711b606082015260800190565b6001600160a01b03858116825284166020820152604081018390526080606082018190526000906126eb90830184611ee8565b9695505050505050565b60006020828403121561270757600080fd5b8151611ee181611eae56fea264697066735822122031d2f02a1592506e7ceecafe3126eae765d11cc18143c9ff6959a01fd41a274164736f6c63430008180033",
  "linkReferences": {},
  "deployedLinkReferences": {}
}