{
	"Token/ProxtAdmin(new).sol": {
		"ProxyDeployment": {
			"abi": [
				{
					"inputs": [],
					"stateMutability": "nonpayable",
					"type": "constructor"
				},
				{
					"inputs": [
						{
							"internalType": "address",
							"name": "owner",
							"type": "address"
						}
					],
					"name": "OwnableInvalidOwner",
					"type": "error"
				},
				{
					"inputs": [
						{
							"internalType": "address",
							"name": "account",
							"type": "address"
						}
					],
					"name": "OwnableUnauthorizedAccount",
					"type": "error"
				},
				{
					"anonymous": false,
					"inputs": [
						{
							"indexed": true,
							"internalType": "address",
							"name": "previousOwner",
							"type": "address"
						},
						{
							"indexed": true,
							"internalType": "address",
							"name": "newOwner",
							"type": "address"
						}
					],
					"name": "OwnershipTransferred",
					"type": "event"
				},
				{
					"inputs": [],
					"name": "UPGRADE_INTERFACE_VERSION",
					"outputs": [
						{
							"internalType": "string",
							"name": "",
							"type": "string"
						}
					],
					"stateMutability": "view",
					"type": "function"
				},
				{
					"inputs": [],
					"name": "owner",
					"outputs": [
						{
							"internalType": "address",
							"name": "",
							"type": "address"
						}
					],
					"stateMutability": "view",
					"type": "function"
				},
				{
					"inputs": [],
					"name": "renounceOwnership",
					"outputs": [],
					"stateMutability": "nonpayable",
					"type": "function"
				},
				{
					"inputs": [
						{
							"internalType": "address",
							"name": "newOwner",
							"type": "address"
						}
					],
					"name": "transferOwnership",
					"outputs": [],
					"stateMutability": "nonpayable",
					"type": "function"
				},
				{
					"inputs": [
						{
							"internalType": "contract ITransparentUpgradeableProxy",
							"name": "proxy",
							"type": "address"
						},
						{
							"internalType": "address",
							"name": "implementation",
							"type": "address"
						},
						{
							"internalType": "bytes",
							"name": "data",
							"type": "bytes"
						}
					],
					"name": "upgradeAndCall",
					"outputs": [],
					"stateMutability": "payable",
					"type": "function"
				}
			],
			"devdoc": {
				"errors": {
					"OwnableInvalidOwner(address)": [
						{
							"details": "The owner is not a valid owner account. (eg. `address(0)`)"
						}
					],
					"OwnableUnauthorizedAccount(address)": [
						{
							"details": "The caller account is not authorized to perform an operation."
						}
					]
				},
				"kind": "dev",
				"methods": {
					"owner()": {
						"details": "Returns the address of the current owner."
					},
					"renounceOwnership()": {
						"details": "Leaves the contract without owner. It will not be possible to call `onlyOwner` functions. Can only be called by the current owner. NOTE: Renouncing ownership will leave the contract without an owner, thereby disabling any functionality that is only available to the owner."
					},
					"transferOwnership(address)": {
						"details": "Transfers ownership of the contract to a new account (`newOwner`). Can only be called by the current owner."
					},
					"upgradeAndCall(address,address,bytes)": {
						"details": "Upgrades `proxy` to `implementation` and calls a function on the new implementation. See {TransparentUpgradeableProxy-_dispatchUpgradeToAndCall}. Requirements: - This contract must be the admin of `proxy`. - If `data` is empty, `msg.value` must be zero."
					}
				},
				"version": 1
			},
			"evm": {
				"assembly": "    /* \"Token/ProxtAdmin(new).sol\":458:545  contract ProxyDeployment is ProxyAdmin {... */\n  mstore(0x40, 0x80)\n    /* \"Token/ProxtAdmin(new).sol\":503:543  constructor() ProxyAdmin(msg.sender) { } */\n  callvalue\n  dup1\n  iszero\n  tag_1\n  jumpi\n  0x00\n  dup1\n  revert\ntag_1:\n  pop\n    /* \"Token/ProxtAdmin(new).sol\":528:538  msg.sender */\n  caller\n    /* \"@openzeppelin/contracts/proxy/transparent/ProxyAdmin.sol\":1351:1363  initialOwner */\n  dup1\n    /* \"@openzeppelin/contracts/access/Ownable.sol\":2087:2088  0 */\n  0x00\n    /* \"@openzeppelin/contracts/access/Ownable.sol\":2063:2089  initialOwner == address(0) */\n  0xffffffffffffffffffffffffffffffffffffffff\n  and\n    /* \"@openzeppelin/contracts/access/Ownable.sol\":2063:2075  initialOwner */\n  dup2\n    /* \"@openzeppelin/contracts/access/Ownable.sol\":2063:2089  initialOwner == address(0) */\n  0xffffffffffffffffffffffffffffffffffffffff\n  and\n  sub\n    /* \"@openzeppelin/contracts/access/Ownable.sol\":2059:2154  if (initialOwner == address(0)) {... */\n  tag_6\n  jumpi\n    /* \"@openzeppelin/contracts/access/Ownable.sol\":2140:2141  0 */\n  0x00\n    /* \"@openzeppelin/contracts/access/Ownable.sol\":2112:2143  OwnableInvalidOwner(address(0)) */\n  mload(0x40)\n  0x1e4fbdf700000000000000000000000000000000000000000000000000000000\n  dup2\n  mstore\n  0x04\n  add\n  tag_7\n  swap2\n  swap1\n  tag_8\n  jump\t// in\ntag_7:\n  mload(0x40)\n  dup1\n  swap2\n  sub\n  swap1\n  revert\n    /* \"@openzeppelin/contracts/access/Ownable.sol\":2059:2154  if (initialOwner == address(0)) {... */\ntag_6:\n    /* \"@openzeppelin/contracts/access/Ownable.sol\":2163:2195  _transferOwnership(initialOwner) */\n  tag_9\n    /* \"@openzeppelin/contracts/access/Ownable.sol\":2182:2194  initialOwner */\n  dup2\n    /* \"@openzeppelin/contracts/access/Ownable.sol\":2163:2181  _transferOwnership */\n  shl(0x20, tag_10)\n    /* \"@openzeppelin/contracts/access/Ownable.sol\":2163:2195  _transferOwnership(initialOwner) */\n  0x20\n  shr\n  jump\t// in\ntag_9:\n    /* \"@openzeppelin/contracts/access/Ownable.sol\":2015:2202  constructor(address initialOwner) {... */\n  pop\n    /* \"@openzeppelin/contracts/proxy/transparent/ProxyAdmin.sol\":1309:1367  constructor(address initialOwner) Ownable(initialOwner) {} */\n  pop\n    /* \"Token/ProxtAdmin(new).sol\":458:545  contract ProxyDeployment is ProxyAdmin {... */\n  jump(tag_13)\n    /* \"@openzeppelin/contracts/access/Ownable.sol\":3702:3889  function _transferOwnership(address newOwner) internal virtual {... */\ntag_10:\n    /* \"@openzeppelin/contracts/access/Ownable.sol\":3775:3791  address oldOwner */\n  0x00\n    /* \"@openzeppelin/contracts/access/Ownable.sol\":3794:3800  _owner */\n  dup1\n  0x00\n  swap1\n  sload\n  swap1\n  0x0100\n  exp\n  swap1\n  div\n  0xffffffffffffffffffffffffffffffffffffffff\n  and\n    /* \"@openzeppelin/contracts/access/Ownable.sol\":3775:3800  address oldOwner = _owner */\n  swap1\n  pop\n    /* \"@openzeppelin/contracts/access/Ownable.sol\":3819:3827  newOwner */\n  dup2\n    /* \"@openzeppelin/contracts/access/Ownable.sol\":3810:3816  _owner */\n  0x00\n  dup1\n    /* \"@openzeppelin/contracts/access/Ownable.sol\":3810:3827  _owner = newOwner */\n  0x0100\n  exp\n  dup2\n  sload\n  dup2\n  0xffffffffffffffffffffffffffffffffffffffff\n  mul\n  not\n  and\n  swap1\n  dup4\n  0xffffffffffffffffffffffffffffffffffffffff\n  and\n  mul\n  or\n  swap1\n  sstore\n  pop\n    /* \"@openzeppelin/contracts/access/Ownable.sol\":3873:3881  newOwner */\n  dup2\n    /* \"@openzeppelin/contracts/access/Ownable.sol\":3842:3882  OwnershipTransferred(oldOwner, newOwner) */\n  0xffffffffffffffffffffffffffffffffffffffff\n  and\n    /* \"@openzeppelin/contracts/access/Ownable.sol\":3863:3871  oldOwner */\n  dup2\n    /* \"@openzeppelin/contracts/access/Ownable.sol\":3842:3882  OwnershipTransferred(oldOwner, newOwner) */\n  0xffffffffffffffffffffffffffffffffffffffff\n  and\n  0x8be0079c531659141344cd1fd0a4f28419497f9722a3daafe3b4186f6b6457e0\n  mload(0x40)\n  mload(0x40)\n  dup1\n  swap2\n  sub\n  swap1\n  log3\n    /* \"@openzeppelin/contracts/access/Ownable.sol\":3765:3889  {... */\n  pop\n    /* \"@openzeppelin/contracts/access/Ownable.sol\":3702:3889  function _transferOwnership(address newOwner) internal virtual {... */\n  pop\n  jump\t// out\n    /* \"#utility.yul\":7:133   */\ntag_15:\n    /* \"#utility.yul\":44:51   */\n  0x00\n    /* \"#utility.yul\":84:126   */\n  0xffffffffffffffffffffffffffffffffffffffff\n    /* \"#utility.yul\":77:82   */\n  dup3\n    /* \"#utility.yul\":73:127   */\n  and\n    /* \"#utility.yul\":62:127   */\n  swap1\n  pop\n    /* \"#utility.yul\":7:133   */\n  swap2\n  swap1\n  pop\n  jump\t// out\n    /* \"#utility.yul\":139:235   */\ntag_16:\n    /* \"#utility.yul\":176:183   */\n  0x00\n    /* \"#utility.yul\":205:229   */\n  tag_21\n    /* \"#utility.yul\":223:228   */\n  dup3\n    /* \"#utility.yul\":205:229   */\n  tag_15\n  jump\t// in\ntag_21:\n    /* \"#utility.yul\":194:229   */\n  swap1\n  pop\n    /* \"#utility.yul\":139:235   */\n  swap2\n  swap1\n  pop\n  jump\t// out\n    /* \"#utility.yul\":241:359   */\ntag_17:\n    /* \"#utility.yul\":328:352   */\n  tag_23\n    /* \"#utility.yul\":346:351   */\n  dup2\n    /* \"#utility.yul\":328:352   */\n  tag_16\n  jump\t// in\ntag_23:\n    /* \"#utility.yul\":323:326   */\n  dup3\n    /* \"#utility.yul\":316:353   */\n  mstore\n    /* \"#utility.yul\":241:359   */\n  pop\n  pop\n  jump\t// out\n    /* \"#utility.yul\":365:587   */\ntag_8:\n    /* \"#utility.yul\":458:462   */\n  0x00\n    /* \"#utility.yul\":496:498   */\n  0x20\n    /* \"#utility.yul\":485:494   */\n  dup3\n    /* \"#utility.yul\":481:499   */\n  add\n    /* \"#utility.yul\":473:499   */\n  swap1\n  pop\n    /* \"#utility.yul\":509:580   */\n  tag_25\n    /* \"#utility.yul\":577:578   */\n  0x00\n    /* \"#utility.yul\":566:575   */\n  dup4\n    /* \"#utility.yul\":562:579   */\n  add\n    /* \"#utility.yul\":553:559   */\n  dup5\n    /* \"#utility.yul\":509:580   */\n  tag_17\n  jump\t// in\ntag_25:\n    /* \"#utility.yul\":365:587   */\n  swap3\n  swap2\n  pop\n  pop\n  jump\t// out\n    /* \"Token/ProxtAdmin(new).sol\":458:545  contract ProxyDeployment is ProxyAdmin {... */\ntag_13:\n  dataSize(sub_0)\n  dup1\n  dataOffset(sub_0)\n  0x00\n  codecopy\n  0x00\n  return\nstop\n\nsub_0: assembly {\n        /* \"Token/ProxtAdmin(new).sol\":458:545  contract ProxyDeployment is ProxyAdmin {... */\n      mstore(0x40, 0x80)\n      jumpi(tag_1, lt(calldatasize, 0x04))\n      shr(0xe0, calldataload(0x00))\n      dup1\n      0x715018a6\n      eq\n      tag_2\n      jumpi\n      dup1\n      0x8da5cb5b\n      eq\n      tag_3\n      jumpi\n      dup1\n      0x9623609d\n      eq\n      tag_4\n      jumpi\n      dup1\n      0xad3cb1cc\n      eq\n      tag_5\n      jumpi\n      dup1\n      0xf2fde38b\n      eq\n      tag_6\n      jumpi\n    tag_1:\n      0x00\n      dup1\n      revert\n        /* \"@openzeppelin/contracts/access/Ownable.sol\":3083:3184  function renounceOwnership() public virtual onlyOwner {... */\n    tag_2:\n      callvalue\n      dup1\n      iszero\n      tag_7\n      jumpi\n      0x00\n      dup1\n      revert\n    tag_7:\n      pop\n      tag_8\n      tag_9\n      jump\t// in\n    tag_8:\n      stop\n        /* \"@openzeppelin/contracts/access/Ownable.sol\":2428:2513  function owner() public view virtual returns (address) {... */\n    tag_3:\n      callvalue\n      dup1\n      iszero\n      tag_10\n      jumpi\n      0x00\n      dup1\n      revert\n    tag_10:\n      pop\n      tag_11\n      tag_12\n      jump\t// in\n    tag_11:\n      mload(0x40)\n      tag_13\n      swap2\n      swap1\n      tag_14\n      jump\t// in\n    tag_13:\n      mload(0x40)\n      dup1\n      swap2\n      sub\n      swap1\n      return\n        /* \"@openzeppelin/contracts/proxy/transparent/ProxyAdmin.sol\":1697:1942  function upgradeAndCall(... */\n    tag_4:\n      tag_15\n      0x04\n      dup1\n      calldatasize\n      sub\n      dup2\n      add\n      swap1\n      tag_16\n      swap2\n      swap1\n      tag_17\n      jump\t// in\n    tag_16:\n      tag_18\n      jump\t// in\n    tag_15:\n      stop\n        /* \"@openzeppelin/contracts/proxy/transparent/ProxyAdmin.sol\":1167:1225  string public constant UPGRADE_INTERFACE_VERSION = \"5.0.0\" */\n    tag_5:\n      callvalue\n      dup1\n      iszero\n      tag_19\n      jumpi\n      0x00\n      dup1\n      revert\n    tag_19:\n      pop\n      tag_20\n      tag_21\n      jump\t// in\n    tag_20:\n      mload(0x40)\n      tag_22\n      swap2\n      swap1\n      tag_23\n      jump\t// in\n    tag_22:\n      mload(0x40)\n      dup1\n      swap2\n      sub\n      swap1\n      return\n        /* \"@openzeppelin/contracts/access/Ownable.sol\":3333:3548  function transferOwnership(address newOwner) public virtual onlyOwner {... */\n    tag_6:\n      callvalue\n      dup1\n      iszero\n      tag_24\n      jumpi\n      0x00\n      dup1\n      revert\n    tag_24:\n      pop\n      tag_25\n      0x04\n      dup1\n      calldatasize\n      sub\n      dup2\n      add\n      swap1\n      tag_26\n      swap2\n      swap1\n      tag_27\n      jump\t// in\n    tag_26:\n      tag_28\n      jump\t// in\n    tag_25:\n      stop\n        /* \"@openzeppelin/contracts/access/Ownable.sol\":3083:3184  function renounceOwnership() public virtual onlyOwner {... */\n    tag_9:\n        /* \"@openzeppelin/contracts/access/Ownable.sol\":2321:2334  _checkOwner() */\n      tag_30\n        /* \"@openzeppelin/contracts/access/Ownable.sol\":2321:2332  _checkOwner */\n      tag_31\n        /* \"@openzeppelin/contracts/access/Ownable.sol\":2321:2334  _checkOwner() */\n      jump\t// in\n    tag_30:\n        /* \"@openzeppelin/contracts/access/Ownable.sol\":3147:3177  _transferOwnership(address(0)) */\n      tag_33\n        /* \"@openzeppelin/contracts/access/Ownable.sol\":3174:3175  0 */\n      0x00\n        /* \"@openzeppelin/contracts/access/Ownable.sol\":3147:3165  _transferOwnership */\n      tag_34\n        /* \"@openzeppelin/contracts/access/Ownable.sol\":3147:3177  _transferOwnership(address(0)) */\n      jump\t// in\n    tag_33:\n        /* \"@openzeppelin/contracts/access/Ownable.sol\":3083:3184  function renounceOwnership() public virtual onlyOwner {... */\n      jump\t// out\n        /* \"@openzeppelin/contracts/access/Ownable.sol\":2428:2513  function owner() public view virtual returns (address) {... */\n    tag_12:\n        /* \"@openzeppelin/contracts/access/Ownable.sol\":2474:2481  address */\n      0x00\n        /* \"@openzeppelin/contracts/access/Ownable.sol\":2500:2506  _owner */\n      dup1\n      0x00\n      swap1\n      sload\n      swap1\n      0x0100\n      exp\n      swap1\n      div\n      0xffffffffffffffffffffffffffffffffffffffff\n      and\n        /* \"@openzeppelin/contracts/access/Ownable.sol\":2493:2506  return _owner */\n      swap1\n      pop\n        /* \"@openzeppelin/contracts/access/Ownable.sol\":2428:2513  function owner() public view virtual returns (address) {... */\n      swap1\n      jump\t// out\n        /* \"@openzeppelin/contracts/proxy/transparent/ProxyAdmin.sol\":1697:1942  function upgradeAndCall(... */\n    tag_18:\n        /* \"@openzeppelin/contracts/access/Ownable.sol\":2321:2334  _checkOwner() */\n      tag_37\n        /* \"@openzeppelin/contracts/access/Ownable.sol\":2321:2332  _checkOwner */\n      tag_31\n        /* \"@openzeppelin/contracts/access/Ownable.sol\":2321:2334  _checkOwner() */\n      jump\t// in\n    tag_37:\n        /* \"@openzeppelin/contracts/proxy/transparent/ProxyAdmin.sol\":1873:1878  proxy */\n      dup3\n        /* \"@openzeppelin/contracts/proxy/transparent/ProxyAdmin.sol\":1873:1895  proxy.upgradeToAndCall */\n      0xffffffffffffffffffffffffffffffffffffffff\n      and\n      0x4f1ef286\n        /* \"@openzeppelin/contracts/proxy/transparent/ProxyAdmin.sol\":1903:1912  msg.value */\n      callvalue\n        /* \"@openzeppelin/contracts/proxy/transparent/ProxyAdmin.sol\":1914:1928  implementation */\n      dup5\n        /* \"@openzeppelin/contracts/proxy/transparent/ProxyAdmin.sol\":1930:1934  data */\n      dup5\n        /* \"@openzeppelin/contracts/proxy/transparent/ProxyAdmin.sol\":1873:1935  proxy.upgradeToAndCall{value: msg.value}(implementation, data) */\n      mload(0x40)\n      dup5\n      0xffffffff\n      and\n      0xe0\n      shl\n      dup2\n      mstore\n      0x04\n      add\n      tag_39\n      swap3\n      swap2\n      swap1\n      tag_40\n      jump\t// in\n    tag_39:\n      0x00\n      mload(0x40)\n      dup1\n      dup4\n      sub\n      dup2\n      dup6\n      dup9\n      dup1\n      extcodesize\n      iszero\n      dup1\n      iszero\n      tag_41\n      jumpi\n      0x00\n      dup1\n      revert\n    tag_41:\n      pop\n      gas\n      call\n      iszero\n      dup1\n      iszero\n      tag_43\n      jumpi\n      returndatasize\n      0x00\n      dup1\n      returndatacopy\n      revert(0x00, returndatasize)\n    tag_43:\n      pop\n      pop\n      pop\n      pop\n      pop\n        /* \"@openzeppelin/contracts/proxy/transparent/ProxyAdmin.sol\":1697:1942  function upgradeAndCall(... */\n      pop\n      pop\n      pop\n      jump\t// out\n        /* \"@openzeppelin/contracts/proxy/transparent/ProxyAdmin.sol\":1167:1225  string public constant UPGRADE_INTERFACE_VERSION = \"5.0.0\" */\n    tag_21:\n      mload(0x40)\n      dup1\n      0x40\n      add\n      0x40\n      mstore\n      dup1\n      0x05\n      dup2\n      mstore\n      0x20\n      add\n      0x352e302e30000000000000000000000000000000000000000000000000000000\n      dup2\n      mstore\n      pop\n      dup2\n      jump\t// out\n        /* \"@openzeppelin/contracts/access/Ownable.sol\":3333:3548  function transferOwnership(address newOwner) public virtual onlyOwner {... */\n    tag_28:\n        /* \"@openzeppelin/contracts/access/Ownable.sol\":2321:2334  _checkOwner() */\n      tag_45\n        /* \"@openzeppelin/contracts/access/Ownable.sol\":2321:2332  _checkOwner */\n      tag_31\n        /* \"@openzeppelin/contracts/access/Ownable.sol\":2321:2334  _checkOwner() */\n      jump\t// in\n    tag_45:\n        /* \"@openzeppelin/contracts/access/Ownable.sol\":3437:3438  0 */\n      0x00\n        /* \"@openzeppelin/contracts/access/Ownable.sol\":3417:3439  newOwner == address(0) */\n      0xffffffffffffffffffffffffffffffffffffffff\n      and\n        /* \"@openzeppelin/contracts/access/Ownable.sol\":3417:3425  newOwner */\n      dup2\n        /* \"@openzeppelin/contracts/access/Ownable.sol\":3417:3439  newOwner == address(0) */\n      0xffffffffffffffffffffffffffffffffffffffff\n      and\n      sub\n        /* \"@openzeppelin/contracts/access/Ownable.sol\":3413:3504  if (newOwner == address(0)) {... */\n      tag_47\n      jumpi\n        /* \"@openzeppelin/contracts/access/Ownable.sol\":3490:3491  0 */\n      0x00\n        /* \"@openzeppelin/contracts/access/Ownable.sol\":3462:3493  OwnableInvalidOwner(address(0)) */\n      mload(0x40)\n      0x1e4fbdf700000000000000000000000000000000000000000000000000000000\n      dup2\n      mstore\n      0x04\n      add\n      tag_48\n      swap2\n      swap1\n      tag_14\n      jump\t// in\n    tag_48:\n      mload(0x40)\n      dup1\n      swap2\n      sub\n      swap1\n      revert\n        /* \"@openzeppelin/contracts/access/Ownable.sol\":3413:3504  if (newOwner == address(0)) {... */\n    tag_47:\n        /* \"@openzeppelin/contracts/access/Ownable.sol\":3513:3541  _transferOwnership(newOwner) */\n      tag_49\n        /* \"@openzeppelin/contracts/access/Ownable.sol\":3532:3540  newOwner */\n      dup2\n        /* \"@openzeppelin/contracts/access/Ownable.sol\":3513:3531  _transferOwnership */\n      tag_34\n        /* \"@openzeppelin/contracts/access/Ownable.sol\":3513:3541  _transferOwnership(newOwner) */\n      jump\t// in\n    tag_49:\n        /* \"@openzeppelin/contracts/access/Ownable.sol\":3333:3548  function transferOwnership(address newOwner) public virtual onlyOwner {... */\n      pop\n      jump\t// out\n        /* \"@openzeppelin/contracts/access/Ownable.sol\":2586:2748  function _checkOwner() internal view virtual {... */\n    tag_31:\n        /* \"@openzeppelin/contracts/access/Ownable.sol\":2656:2668  _msgSender() */\n      tag_51\n        /* \"@openzeppelin/contracts/access/Ownable.sol\":2656:2666  _msgSender */\n      tag_52\n        /* \"@openzeppelin/contracts/access/Ownable.sol\":2656:2668  _msgSender() */\n      jump\t// in\n    tag_51:\n        /* \"@openzeppelin/contracts/access/Ownable.sol\":2645:2668  owner() != _msgSender() */\n      0xffffffffffffffffffffffffffffffffffffffff\n      and\n        /* \"@openzeppelin/contracts/access/Ownable.sol\":2645:2652  owner() */\n      tag_53\n        /* \"@openzeppelin/contracts/access/Ownable.sol\":2645:2650  owner */\n      tag_12\n        /* \"@openzeppelin/contracts/access/Ownable.sol\":2645:2652  owner() */\n      jump\t// in\n    tag_53:\n        /* \"@openzeppelin/contracts/access/Ownable.sol\":2645:2668  owner() != _msgSender() */\n      0xffffffffffffffffffffffffffffffffffffffff\n      and\n      eq\n        /* \"@openzeppelin/contracts/access/Ownable.sol\":2641:2742  if (owner() != _msgSender()) {... */\n      tag_54\n      jumpi\n        /* \"@openzeppelin/contracts/access/Ownable.sol\":2718:2730  _msgSender() */\n      tag_55\n        /* \"@openzeppelin/contracts/access/Ownable.sol\":2718:2728  _msgSender */\n      tag_52\n        /* \"@openzeppelin/contracts/access/Ownable.sol\":2718:2730  _msgSender() */\n      jump\t// in\n    tag_55:\n        /* \"@openzeppelin/contracts/access/Ownable.sol\":2691:2731  OwnableUnauthorizedAccount(_msgSender()) */\n      mload(0x40)\n      0x118cdaa700000000000000000000000000000000000000000000000000000000\n      dup2\n      mstore\n      0x04\n      add\n      tag_56\n      swap2\n      swap1\n      tag_14\n      jump\t// in\n    tag_56:\n      mload(0x40)\n      dup1\n      swap2\n      sub\n      swap1\n      revert\n        /* \"@openzeppelin/contracts/access/Ownable.sol\":2641:2742  if (owner() != _msgSender()) {... */\n    tag_54:\n        /* \"@openzeppelin/contracts/access/Ownable.sol\":2586:2748  function _checkOwner() internal view virtual {... */\n      jump\t// out\n        /* \"@openzeppelin/contracts/access/Ownable.sol\":3702:3889  function _transferOwnership(address newOwner) internal virtual {... */\n    tag_34:\n        /* \"@openzeppelin/contracts/access/Ownable.sol\":3775:3791  address oldOwner */\n      0x00\n        /* \"@openzeppelin/contracts/access/Ownable.sol\":3794:3800  _owner */\n      dup1\n      0x00\n      swap1\n      sload\n      swap1\n      0x0100\n      exp\n      swap1\n      div\n      0xffffffffffffffffffffffffffffffffffffffff\n      and\n        /* \"@openzeppelin/contracts/access/Ownable.sol\":3775:3800  address oldOwner = _owner */\n      swap1\n      pop\n        /* \"@openzeppelin/contracts/access/Ownable.sol\":3819:3827  newOwner */\n      dup2\n        /* \"@openzeppelin/contracts/access/Ownable.sol\":3810:3816  _owner */\n      0x00\n      dup1\n        /* \"@openzeppelin/contracts/access/Ownable.sol\":3810:3827  _owner = newOwner */\n      0x0100\n      exp\n      dup2\n      sload\n      dup2\n      0xffffffffffffffffffffffffffffffffffffffff\n      mul\n      not\n      and\n      swap1\n      dup4\n      0xffffffffffffffffffffffffffffffffffffffff\n      and\n      mul\n      or\n      swap1\n      sstore\n      pop\n        /* \"@openzeppelin/contracts/access/Ownable.sol\":3873:3881  newOwner */\n      dup2\n        /* \"@openzeppelin/contracts/access/Ownable.sol\":3842:3882  OwnershipTransferred(oldOwner, newOwner) */\n      0xffffffffffffffffffffffffffffffffffffffff\n      and\n        /* \"@openzeppelin/contracts/access/Ownable.sol\":3863:3871  oldOwner */\n      dup2\n        /* \"@openzeppelin/contracts/access/Ownable.sol\":3842:3882  OwnershipTransferred(oldOwner, newOwner) */\n      0xffffffffffffffffffffffffffffffffffffffff\n      and\n      0x8be0079c531659141344cd1fd0a4f28419497f9722a3daafe3b4186f6b6457e0\n      mload(0x40)\n      mload(0x40)\n      dup1\n      swap2\n      sub\n      swap1\n      log3\n        /* \"@openzeppelin/contracts/access/Ownable.sol\":3765:3889  {... */\n      pop\n        /* \"@openzeppelin/contracts/access/Ownable.sol\":3702:3889  function _transferOwnership(address newOwner) internal virtual {... */\n      pop\n      jump\t// out\n        /* \"@openzeppelin/contracts/access/Ownable.sol\":657:753  function _msgSender() internal view virtual returns (address) {... */\n    tag_52:\n        /* \"@openzeppelin/contracts/access/Ownable.sol\":710:717  address */\n      0x00\n        /* \"@openzeppelin/contracts/access/Ownable.sol\":736:746  msg.sender */\n      caller\n        /* \"@openzeppelin/contracts/access/Ownable.sol\":729:746  return msg.sender */\n      swap1\n      pop\n        /* \"@openzeppelin/contracts/access/Ownable.sol\":657:753  function _msgSender() internal view virtual returns (address) {... */\n      swap1\n      jump\t// out\n        /* \"#utility.yul\":7:133   */\n    tag_59:\n        /* \"#utility.yul\":44:51   */\n      0x00\n        /* \"#utility.yul\":84:126   */\n      0xffffffffffffffffffffffffffffffffffffffff\n        /* \"#utility.yul\":77:82   */\n      dup3\n        /* \"#utility.yul\":73:127   */\n      and\n        /* \"#utility.yul\":62:127   */\n      swap1\n      pop\n        /* \"#utility.yul\":7:133   */\n      swap2\n      swap1\n      pop\n      jump\t// out\n        /* \"#utility.yul\":139:235   */\n    tag_60:\n        /* \"#utility.yul\":176:183   */\n      0x00\n        /* \"#utility.yul\":205:229   */\n      tag_90\n        /* \"#utility.yul\":223:228   */\n      dup3\n        /* \"#utility.yul\":205:229   */\n      tag_59\n      jump\t// in\n    tag_90:\n        /* \"#utility.yul\":194:229   */\n      swap1\n      pop\n        /* \"#utility.yul\":139:235   */\n      swap2\n      swap1\n      pop\n      jump\t// out\n        /* \"#utility.yul\":241:359   */\n    tag_61:\n        /* \"#utility.yul\":328:352   */\n      tag_92\n        /* \"#utility.yul\":346:351   */\n      dup2\n        /* \"#utility.yul\":328:352   */\n      tag_60\n      jump\t// in\n    tag_92:\n        /* \"#utility.yul\":323:326   */\n      dup3\n        /* \"#utility.yul\":316:353   */\n      mstore\n        /* \"#utility.yul\":241:359   */\n      pop\n      pop\n      jump\t// out\n        /* \"#utility.yul\":365:587   */\n    tag_14:\n        /* \"#utility.yul\":458:462   */\n      0x00\n        /* \"#utility.yul\":496:498   */\n      0x20\n        /* \"#utility.yul\":485:494   */\n      dup3\n        /* \"#utility.yul\":481:499   */\n      add\n        /* \"#utility.yul\":473:499   */\n      swap1\n      pop\n        /* \"#utility.yul\":509:580   */\n      tag_94\n        /* \"#utility.yul\":577:578   */\n      0x00\n        /* \"#utility.yul\":566:575   */\n      dup4\n        /* \"#utility.yul\":562:579   */\n      add\n        /* \"#utility.yul\":553:559   */\n      dup5\n        /* \"#utility.yul\":509:580   */\n      tag_61\n      jump\t// in\n    tag_94:\n        /* \"#utility.yul\":365:587   */\n      swap3\n      swap2\n      pop\n      pop\n      jump\t// out\n        /* \"#utility.yul\":593:668   */\n    tag_62:\n        /* \"#utility.yul\":626:632   */\n      0x00\n        /* \"#utility.yul\":659:661   */\n      0x40\n        /* \"#utility.yul\":653:662   */\n      mload\n        /* \"#utility.yul\":643:662   */\n      swap1\n      pop\n        /* \"#utility.yul\":593:668   */\n      swap1\n      jump\t// out\n        /* \"#utility.yul\":674:791   */\n    tag_63:\n        /* \"#utility.yul\":783:784   */\n      0x00\n        /* \"#utility.yul\":780:781   */\n      dup1\n        /* \"#utility.yul\":773:785   */\n      revert\n        /* \"#utility.yul\":797:914   */\n    tag_64:\n        /* \"#utility.yul\":906:907   */\n      0x00\n        /* \"#utility.yul\":903:904   */\n      dup1\n        /* \"#utility.yul\":896:908   */\n      revert\n        /* \"#utility.yul\":920:1053   */\n    tag_65:\n        /* \"#utility.yul\":994:1001   */\n      0x00\n        /* \"#utility.yul\":1023:1047   */\n      tag_99\n        /* \"#utility.yul\":1041:1046   */\n      dup3\n        /* \"#utility.yul\":1023:1047   */\n      tag_60\n      jump\t// in\n    tag_99:\n        /* \"#utility.yul\":1012:1047   */\n      swap1\n      pop\n        /* \"#utility.yul\":920:1053   */\n      swap2\n      swap1\n      pop\n      jump\t// out\n        /* \"#utility.yul\":1059:1255   */\n    tag_66:\n        /* \"#utility.yul\":1169:1230   */\n      tag_101\n        /* \"#utility.yul\":1224:1229   */\n      dup2\n        /* \"#utility.yul\":1169:1230   */\n      tag_65\n      jump\t// in\n    tag_101:\n        /* \"#utility.yul\":1162:1167   */\n      dup2\n        /* \"#utility.yul\":1159:1231   */\n      eq\n        /* \"#utility.yul\":1149:1249   */\n      tag_102\n      jumpi\n        /* \"#utility.yul\":1245:1246   */\n      0x00\n        /* \"#utility.yul\":1242:1243   */\n      dup1\n        /* \"#utility.yul\":1235:1247   */\n      revert\n        /* \"#utility.yul\":1149:1249   */\n    tag_102:\n        /* \"#utility.yul\":1059:1255   */\n      pop\n      jump\t// out\n        /* \"#utility.yul\":1261:1474   */\n    tag_67:\n        /* \"#utility.yul\":1344:1349   */\n      0x00\n        /* \"#utility.yul\":1382:1388   */\n      dup2\n        /* \"#utility.yul\":1369:1389   */\n      calldataload\n        /* \"#utility.yul\":1360:1389   */\n      swap1\n      pop\n        /* \"#utility.yul\":1398:1468   */\n      tag_104\n        /* \"#utility.yul\":1462:1467   */\n      dup2\n        /* \"#utility.yul\":1398:1468   */\n      tag_66\n      jump\t// in\n    tag_104:\n        /* \"#utility.yul\":1261:1474   */\n      swap3\n      swap2\n      pop\n      pop\n      jump\t// out\n        /* \"#utility.yul\":1480:1602   */\n    tag_68:\n        /* \"#utility.yul\":1553:1577   */\n      tag_106\n        /* \"#utility.yul\":1571:1576   */\n      dup2\n        /* \"#utility.yul\":1553:1577   */\n      tag_60\n      jump\t// in\n    tag_106:\n        /* \"#utility.yul\":1546:1551   */\n      dup2\n        /* \"#utility.yul\":1543:1578   */\n      eq\n        /* \"#utility.yul\":1533:1596   */\n      tag_107\n      jumpi\n        /* \"#utility.yul\":1592:1593   */\n      0x00\n        /* \"#utility.yul\":1589:1590   */\n      dup1\n        /* \"#utility.yul\":1582:1594   */\n      revert\n        /* \"#utility.yul\":1533:1596   */\n    tag_107:\n        /* \"#utility.yul\":1480:1602   */\n      pop\n      jump\t// out\n        /* \"#utility.yul\":1608:1747   */\n    tag_69:\n        /* \"#utility.yul\":1654:1659   */\n      0x00\n        /* \"#utility.yul\":1692:1698   */\n      dup2\n        /* \"#utility.yul\":1679:1699   */\n      calldataload\n        /* \"#utility.yul\":1670:1699   */\n      swap1\n      pop\n        /* \"#utility.yul\":1708:1741   */\n      tag_109\n        /* \"#utility.yul\":1735:1740   */\n      dup2\n        /* \"#utility.yul\":1708:1741   */\n      tag_68\n      jump\t// in\n    tag_109:\n        /* \"#utility.yul\":1608:1747   */\n      swap3\n      swap2\n      pop\n      pop\n      jump\t// out\n        /* \"#utility.yul\":1753:1870   */\n    tag_70:\n        /* \"#utility.yul\":1862:1863   */\n      0x00\n        /* \"#utility.yul\":1859:1860   */\n      dup1\n        /* \"#utility.yul\":1852:1864   */\n      revert\n        /* \"#utility.yul\":1876:1993   */\n    tag_71:\n        /* \"#utility.yul\":1985:1986   */\n      0x00\n        /* \"#utility.yul\":1982:1983   */\n      dup1\n        /* \"#utility.yul\":1975:1987   */\n      revert\n        /* \"#utility.yul\":1999:2101   */\n    tag_72:\n        /* \"#utility.yul\":2040:2046   */\n      0x00\n        /* \"#utility.yul\":2091:2093   */\n      0x1f\n        /* \"#utility.yul\":2087:2094   */\n      not\n        /* \"#utility.yul\":2082:2084   */\n      0x1f\n        /* \"#utility.yul\":2075:2080   */\n      dup4\n        /* \"#utility.yul\":2071:2085   */\n      add\n        /* \"#utility.yul\":2067:2095   */\n      and\n        /* \"#utility.yul\":2057:2095   */\n      swap1\n      pop\n        /* \"#utility.yul\":1999:2101   */\n      swap2\n      swap1\n      pop\n      jump\t// out\n        /* \"#utility.yul\":2107:2287   */\n    tag_73:\n        /* \"#utility.yul\":2155:2232   */\n      0x4e487b7100000000000000000000000000000000000000000000000000000000\n        /* \"#utility.yul\":2152:2153   */\n      0x00\n        /* \"#utility.yul\":2145:2233   */\n      mstore\n        /* \"#utility.yul\":2252:2256   */\n      0x41\n        /* \"#utility.yul\":2249:2250   */\n      0x04\n        /* \"#utility.yul\":2242:2257   */\n      mstore\n        /* \"#utility.yul\":2276:2280   */\n      0x24\n        /* \"#utility.yul\":2273:2274   */\n      0x00\n        /* \"#utility.yul\":2266:2281   */\n      revert\n        /* \"#utility.yul\":2293:2574   */\n    tag_74:\n        /* \"#utility.yul\":2376:2403   */\n      tag_115\n        /* \"#utility.yul\":2398:2402   */\n      dup3\n        /* \"#utility.yul\":2376:2403   */\n      tag_72\n      jump\t// in\n    tag_115:\n        /* \"#utility.yul\":2368:2374   */\n      dup2\n        /* \"#utility.yul\":2364:2404   */\n      add\n        /* \"#utility.yul\":2506:2512   */\n      dup2\n        /* \"#utility.yul\":2494:2504   */\n      dup2\n        /* \"#utility.yul\":2491:2513   */\n      lt\n        /* \"#utility.yul\":2470:2488   */\n      0xffffffffffffffff\n        /* \"#utility.yul\":2458:2468   */\n      dup3\n        /* \"#utility.yul\":2455:2489   */\n      gt\n        /* \"#utility.yul\":2452:2514   */\n      or\n        /* \"#utility.yul\":2449:2537   */\n      iszero\n      tag_116\n      jumpi\n        /* \"#utility.yul\":2517:2535   */\n      tag_117\n      tag_73\n      jump\t// in\n    tag_117:\n        /* \"#utility.yul\":2449:2537   */\n    tag_116:\n        /* \"#utility.yul\":2557:2567   */\n      dup1\n        /* \"#utility.yul\":2553:2555   */\n      0x40\n        /* \"#utility.yul\":2546:2568   */\n      mstore\n        /* \"#utility.yul\":2336:2574   */\n      pop\n        /* \"#utility.yul\":2293:2574   */\n      pop\n      pop\n      jump\t// out\n        /* \"#utility.yul\":2580:2709   */\n    tag_75:\n        /* \"#utility.yul\":2614:2620   */\n      0x00\n        /* \"#utility.yul\":2641:2661   */\n      tag_119\n      tag_62\n      jump\t// in\n    tag_119:\n        /* \"#utility.yul\":2631:2661   */\n      swap1\n      pop\n        /* \"#utility.yul\":2670:2703   */\n      tag_120\n        /* \"#utility.yul\":2698:2702   */\n      dup3\n        /* \"#utility.yul\":2690:2696   */\n      dup3\n        /* \"#utility.yul\":2670:2703   */\n      tag_74\n      jump\t// in\n    tag_120:\n        /* \"#utility.yul\":2580:2709   */\n      swap2\n      swap1\n      pop\n      jump\t// out\n        /* \"#utility.yul\":2715:3022   */\n    tag_76:\n        /* \"#utility.yul\":2776:2780   */\n      0x00\n        /* \"#utility.yul\":2866:2884   */\n      0xffffffffffffffff\n        /* \"#utility.yul\":2858:2864   */\n      dup3\n        /* \"#utility.yul\":2855:2885   */\n      gt\n        /* \"#utility.yul\":2852:2908   */\n      iszero\n      tag_122\n      jumpi\n        /* \"#utility.yul\":2888:2906   */\n      tag_123\n      tag_73\n      jump\t// in\n    tag_123:\n        /* \"#utility.yul\":2852:2908   */\n    tag_122:\n        /* \"#utility.yul\":2926:2955   */\n      tag_124\n        /* \"#utility.yul\":2948:2954   */\n      dup3\n        /* \"#utility.yul\":2926:2955   */\n      tag_72\n      jump\t// in\n    tag_124:\n        /* \"#utility.yul\":2918:2955   */\n      swap1\n      pop\n        /* \"#utility.yul\":3010:3014   */\n      0x20\n        /* \"#utility.yul\":3004:3008   */\n      dup2\n        /* \"#utility.yul\":3000:3015   */\n      add\n        /* \"#utility.yul\":2992:3015   */\n      swap1\n      pop\n        /* \"#utility.yul\":2715:3022   */\n      swap2\n      swap1\n      pop\n      jump\t// out\n        /* \"#utility.yul\":3028:3174   */\n    tag_77:\n        /* \"#utility.yul\":3125:3131   */\n      dup3\n        /* \"#utility.yul\":3120:3123   */\n      dup2\n        /* \"#utility.yul\":3115:3118   */\n      dup4\n        /* \"#utility.yul\":3102:3132   */\n      calldatacopy\n        /* \"#utility.yul\":3166:3167   */\n      0x00\n        /* \"#utility.yul\":3157:3163   */\n      dup4\n        /* \"#utility.yul\":3152:3155   */\n      dup4\n        /* \"#utility.yul\":3148:3164   */\n      add\n        /* \"#utility.yul\":3141:3168   */\n      mstore\n        /* \"#utility.yul\":3028:3174   */\n      pop\n      pop\n      pop\n      jump\t// out\n        /* \"#utility.yul\":3180:3603   */\n    tag_78:\n        /* \"#utility.yul\":3257:3262   */\n      0x00\n        /* \"#utility.yul\":3282:3347   */\n      tag_127\n        /* \"#utility.yul\":3298:3346   */\n      tag_128\n        /* \"#utility.yul\":3339:3345   */\n      dup5\n        /* \"#utility.yul\":3298:3346   */\n      tag_76\n      jump\t// in\n    tag_128:\n        /* \"#utility.yul\":3282:3347   */\n      tag_75\n      jump\t// in\n    tag_127:\n        /* \"#utility.yul\":3273:3347   */\n      swap1\n      pop\n        /* \"#utility.yul\":3370:3376   */\n      dup3\n        /* \"#utility.yul\":3363:3368   */\n      dup2\n        /* \"#utility.yul\":3356:3377   */\n      mstore\n        /* \"#utility.yul\":3408:3412   */\n      0x20\n        /* \"#utility.yul\":3401:3406   */\n      dup2\n        /* \"#utility.yul\":3397:3413   */\n      add\n        /* \"#utility.yul\":3446:3449   */\n      dup5\n        /* \"#utility.yul\":3437:3443   */\n      dup5\n        /* \"#utility.yul\":3432:3435   */\n      dup5\n        /* \"#utility.yul\":3428:3444   */\n      add\n        /* \"#utility.yul\":3425:3450   */\n      gt\n        /* \"#utility.yul\":3422:3534   */\n      iszero\n      tag_129\n      jumpi\n        /* \"#utility.yul\":3453:3532   */\n      tag_130\n      tag_71\n      jump\t// in\n    tag_130:\n        /* \"#utility.yul\":3422:3534   */\n    tag_129:\n        /* \"#utility.yul\":3543:3597   */\n      tag_131\n        /* \"#utility.yul\":3590:3596   */\n      dup5\n        /* \"#utility.yul\":3585:3588   */\n      dup3\n        /* \"#utility.yul\":3580:3583   */\n      dup6\n        /* \"#utility.yul\":3543:3597   */\n      tag_77\n      jump\t// in\n    tag_131:\n        /* \"#utility.yul\":3263:3603   */\n      pop\n        /* \"#utility.yul\":3180:3603   */\n      swap4\n      swap3\n      pop\n      pop\n      pop\n      jump\t// out\n        /* \"#utility.yul\":3622:3960   */\n    tag_79:\n        /* \"#utility.yul\":3677:3682   */\n      0x00\n        /* \"#utility.yul\":3726:3729   */\n      dup3\n        /* \"#utility.yul\":3719:3723   */\n      0x1f\n        /* \"#utility.yul\":3711:3717   */\n      dup4\n        /* \"#utility.yul\":3707:3724   */\n      add\n        /* \"#utility.yul\":3703:3730   */\n      slt\n        /* \"#utility.yul\":3693:3815   */\n      tag_133\n      jumpi\n        /* \"#utility.yul\":3734:3813   */\n      tag_134\n      tag_70\n      jump\t// in\n    tag_134:\n        /* \"#utility.yul\":3693:3815   */\n    tag_133:\n        /* \"#utility.yul\":3851:3857   */\n      dup2\n        /* \"#utility.yul\":3838:3858   */\n      calldataload\n        /* \"#utility.yul\":3876:3954   */\n      tag_135\n        /* \"#utility.yul\":3950:3953   */\n      dup5\n        /* \"#utility.yul\":3942:3948   */\n      dup3\n        /* \"#utility.yul\":3935:3939   */\n      0x20\n        /* \"#utility.yul\":3927:3933   */\n      dup7\n        /* \"#utility.yul\":3923:3940   */\n      add\n        /* \"#utility.yul\":3876:3954   */\n      tag_78\n      jump\t// in\n    tag_135:\n        /* \"#utility.yul\":3867:3954   */\n      swap2\n      pop\n        /* \"#utility.yul\":3683:3960   */\n      pop\n        /* \"#utility.yul\":3622:3960   */\n      swap3\n      swap2\n      pop\n      pop\n      jump\t// out\n        /* \"#utility.yul\":3966:4837   */\n    tag_17:\n        /* \"#utility.yul\":4089:4095   */\n      0x00\n        /* \"#utility.yul\":4097:4103   */\n      dup1\n        /* \"#utility.yul\":4105:4111   */\n      0x00\n        /* \"#utility.yul\":4154:4156   */\n      0x60\n        /* \"#utility.yul\":4142:4151   */\n      dup5\n        /* \"#utility.yul\":4133:4140   */\n      dup7\n        /* \"#utility.yul\":4129:4152   */\n      sub\n        /* \"#utility.yul\":4125:4157   */\n      slt\n        /* \"#utility.yul\":4122:4241   */\n      iszero\n      tag_137\n      jumpi\n        /* \"#utility.yul\":4160:4239   */\n      tag_138\n      tag_63\n      jump\t// in\n    tag_138:\n        /* \"#utility.yul\":4122:4241   */\n    tag_137:\n        /* \"#utility.yul\":4280:4281   */\n      0x00\n        /* \"#utility.yul\":4305:4395   */\n      tag_139\n        /* \"#utility.yul\":4387:4394   */\n      dup7\n        /* \"#utility.yul\":4378:4384   */\n      dup3\n        /* \"#utility.yul\":4367:4376   */\n      dup8\n        /* \"#utility.yul\":4363:4385   */\n      add\n        /* \"#utility.yul\":4305:4395   */\n      tag_67\n      jump\t// in\n    tag_139:\n        /* \"#utility.yul\":4295:4395   */\n      swap4\n      pop\n        /* \"#utility.yul\":4251:4405   */\n      pop\n        /* \"#utility.yul\":4444:4446   */\n      0x20\n        /* \"#utility.yul\":4470:4523   */\n      tag_140\n        /* \"#utility.yul\":4515:4522   */\n      dup7\n        /* \"#utility.yul\":4506:4512   */\n      dup3\n        /* \"#utility.yul\":4495:4504   */\n      dup8\n        /* \"#utility.yul\":4491:4513   */\n      add\n        /* \"#utility.yul\":4470:4523   */\n      tag_69\n      jump\t// in\n    tag_140:\n        /* \"#utility.yul\":4460:4523   */\n      swap3\n      pop\n        /* \"#utility.yul\":4415:4533   */\n      pop\n        /* \"#utility.yul\":4600:4602   */\n      0x40\n        /* \"#utility.yul\":4589:4598   */\n      dup5\n        /* \"#utility.yul\":4585:4603   */\n      add\n        /* \"#utility.yul\":4572:4604   */\n      calldataload\n        /* \"#utility.yul\":4631:4649   */\n      0xffffffffffffffff\n        /* \"#utility.yul\":4623:4629   */\n      dup2\n        /* \"#utility.yul\":4620:4650   */\n      gt\n        /* \"#utility.yul\":4617:4734   */\n      iszero\n      tag_141\n      jumpi\n        /* \"#utility.yul\":4653:4732   */\n      tag_142\n      tag_64\n      jump\t// in\n    tag_142:\n        /* \"#utility.yul\":4617:4734   */\n    tag_141:\n        /* \"#utility.yul\":4758:4820   */\n      tag_143\n        /* \"#utility.yul\":4812:4819   */\n      dup7\n        /* \"#utility.yul\":4803:4809   */\n      dup3\n        /* \"#utility.yul\":4792:4801   */\n      dup8\n        /* \"#utility.yul\":4788:4810   */\n      add\n        /* \"#utility.yul\":4758:4820   */\n      tag_79\n      jump\t// in\n    tag_143:\n        /* \"#utility.yul\":4748:4820   */\n      swap2\n      pop\n        /* \"#utility.yul\":4543:4830   */\n      pop\n        /* \"#utility.yul\":3966:4837   */\n      swap3\n      pop\n      swap3\n      pop\n      swap3\n      jump\t// out\n        /* \"#utility.yul\":4843:4942   */\n    tag_80:\n        /* \"#utility.yul\":4895:4901   */\n      0x00\n        /* \"#utility.yul\":4929:4934   */\n      dup2\n        /* \"#utility.yul\":4923:4935   */\n      mload\n        /* \"#utility.yul\":4913:4935   */\n      swap1\n      pop\n        /* \"#utility.yul\":4843:4942   */\n      swap2\n      swap1\n      pop\n      jump\t// out\n        /* \"#utility.yul\":4948:5117   */\n    tag_81:\n        /* \"#utility.yul\":5032:5043   */\n      0x00\n        /* \"#utility.yul\":5066:5072   */\n      dup3\n        /* \"#utility.yul\":5061:5064   */\n      dup3\n        /* \"#utility.yul\":5054:5073   */\n      mstore\n        /* \"#utility.yul\":5106:5110   */\n      0x20\n        /* \"#utility.yul\":5101:5104   */\n      dup3\n        /* \"#utility.yul\":5097:5111   */\n      add\n        /* \"#utility.yul\":5082:5111   */\n      swap1\n      pop\n        /* \"#utility.yul\":4948:5117   */\n      swap3\n      swap2\n      pop\n      pop\n      jump\t// out\n        /* \"#utility.yul\":5123:5369   */\n    tag_82:\n        /* \"#utility.yul\":5204:5205   */\n      0x00\n        /* \"#utility.yul\":5214:5327   */\n    tag_147:\n        /* \"#utility.yul\":5228:5234   */\n      dup4\n        /* \"#utility.yul\":5225:5226   */\n      dup2\n        /* \"#utility.yul\":5222:5235   */\n      lt\n        /* \"#utility.yul\":5214:5327   */\n      iszero\n      tag_149\n      jumpi\n        /* \"#utility.yul\":5313:5314   */\n      dup1\n        /* \"#utility.yul\":5308:5311   */\n      dup3\n        /* \"#utility.yul\":5304:5315   */\n      add\n        /* \"#utility.yul\":5298:5316   */\n      mload\n        /* \"#utility.yul\":5294:5295   */\n      dup2\n        /* \"#utility.yul\":5289:5292   */\n      dup5\n        /* \"#utility.yul\":5285:5296   */\n      add\n        /* \"#utility.yul\":5278:5317   */\n      mstore\n        /* \"#utility.yul\":5250:5252   */\n      0x20\n        /* \"#utility.yul\":5247:5248   */\n      dup2\n        /* \"#utility.yul\":5243:5253   */\n      add\n        /* \"#utility.yul\":5238:5253   */\n      swap1\n      pop\n        /* \"#utility.yul\":5214:5327   */\n      jump(tag_147)\n    tag_149:\n        /* \"#utility.yul\":5361:5362   */\n      0x00\n        /* \"#utility.yul\":5352:5358   */\n      dup5\n        /* \"#utility.yul\":5347:5350   */\n      dup5\n        /* \"#utility.yul\":5343:5359   */\n      add\n        /* \"#utility.yul\":5336:5363   */\n      mstore\n        /* \"#utility.yul\":5185:5369   */\n      pop\n        /* \"#utility.yul\":5123:5369   */\n      pop\n      pop\n      pop\n      jump\t// out\n        /* \"#utility.yul\":5375:5752   */\n    tag_83:\n        /* \"#utility.yul\":5463:5466   */\n      0x00\n        /* \"#utility.yul\":5491:5530   */\n      tag_151\n        /* \"#utility.yul\":5524:5529   */\n      dup3\n        /* \"#utility.yul\":5491:5530   */\n      tag_80\n      jump\t// in\n    tag_151:\n        /* \"#utility.yul\":5546:5617   */\n      tag_152\n        /* \"#utility.yul\":5610:5616   */\n      dup2\n        /* \"#utility.yul\":5605:5608   */\n      dup6\n        /* \"#utility.yul\":5546:5617   */\n      tag_81\n      jump\t// in\n    tag_152:\n        /* \"#utility.yul\":5539:5617   */\n      swap4\n      pop\n        /* \"#utility.yul\":5626:5691   */\n      tag_153\n        /* \"#utility.yul\":5684:5690   */\n      dup2\n        /* \"#utility.yul\":5679:5682   */\n      dup6\n        /* \"#utility.yul\":5672:5676   */\n      0x20\n        /* \"#utility.yul\":5665:5670   */\n      dup7\n        /* \"#utility.yul\":5661:5677   */\n      add\n        /* \"#utility.yul\":5626:5691   */\n      tag_82\n      jump\t// in\n    tag_153:\n        /* \"#utility.yul\":5716:5745   */\n      tag_154\n        /* \"#utility.yul\":5738:5744   */\n      dup2\n        /* \"#utility.yul\":5716:5745   */\n      tag_72\n      jump\t// in\n    tag_154:\n        /* \"#utility.yul\":5711:5714   */\n      dup5\n        /* \"#utility.yul\":5707:5746   */\n      add\n        /* \"#utility.yul\":5700:5746   */\n      swap2\n      pop\n        /* \"#utility.yul\":5467:5752   */\n      pop\n        /* \"#utility.yul\":5375:5752   */\n      swap3\n      swap2\n      pop\n      pop\n      jump\t// out\n        /* \"#utility.yul\":5758:6071   */\n    tag_23:\n        /* \"#utility.yul\":5871:5875   */\n      0x00\n        /* \"#utility.yul\":5909:5911   */\n      0x20\n        /* \"#utility.yul\":5898:5907   */\n      dup3\n        /* \"#utility.yul\":5894:5912   */\n      add\n        /* \"#utility.yul\":5886:5912   */\n      swap1\n      pop\n        /* \"#utility.yul\":5958:5967   */\n      dup2\n        /* \"#utility.yul\":5952:5956   */\n      dup2\n        /* \"#utility.yul\":5948:5968   */\n      sub\n        /* \"#utility.yul\":5944:5945   */\n      0x00\n        /* \"#utility.yul\":5933:5942   */\n      dup4\n        /* \"#utility.yul\":5929:5946   */\n      add\n        /* \"#utility.yul\":5922:5969   */\n      mstore\n        /* \"#utility.yul\":5986:6064   */\n      tag_156\n        /* \"#utility.yul\":6059:6063   */\n      dup2\n        /* \"#utility.yul\":6050:6056   */\n      dup5\n        /* \"#utility.yul\":5986:6064   */\n      tag_83\n      jump\t// in\n    tag_156:\n        /* \"#utility.yul\":5978:6064   */\n      swap1\n      pop\n        /* \"#utility.yul\":5758:6071   */\n      swap3\n      swap2\n      pop\n      pop\n      jump\t// out\n        /* \"#utility.yul\":6077:6406   */\n    tag_27:\n        /* \"#utility.yul\":6136:6142   */\n      0x00\n        /* \"#utility.yul\":6185:6187   */\n      0x20\n        /* \"#utility.yul\":6173:6182   */\n      dup3\n        /* \"#utility.yul\":6164:6171   */\n      dup5\n        /* \"#utility.yul\":6160:6183   */\n      sub\n        /* \"#utility.yul\":6156:6188   */\n      slt\n        /* \"#utility.yul\":6153:6272   */\n      iszero\n      tag_158\n      jumpi\n        /* \"#utility.yul\":6191:6270   */\n      tag_159\n      tag_63\n      jump\t// in\n    tag_159:\n        /* \"#utility.yul\":6153:6272   */\n    tag_158:\n        /* \"#utility.yul\":6311:6312   */\n      0x00\n        /* \"#utility.yul\":6336:6389   */\n      tag_160\n        /* \"#utility.yul\":6381:6388   */\n      dup5\n        /* \"#utility.yul\":6372:6378   */\n      dup3\n        /* \"#utility.yul\":6361:6370   */\n      dup6\n        /* \"#utility.yul\":6357:6379   */\n      add\n        /* \"#utility.yul\":6336:6389   */\n      tag_69\n      jump\t// in\n    tag_160:\n        /* \"#utility.yul\":6326:6389   */\n      swap2\n      pop\n        /* \"#utility.yul\":6282:6399   */\n      pop\n        /* \"#utility.yul\":6077:6406   */\n      swap3\n      swap2\n      pop\n      pop\n      jump\t// out\n        /* \"#utility.yul\":6412:6510   */\n    tag_84:\n        /* \"#utility.yul\":6463:6469   */\n      0x00\n        /* \"#utility.yul\":6497:6502   */\n      dup2\n        /* \"#utility.yul\":6491:6503   */\n      mload\n        /* \"#utility.yul\":6481:6503   */\n      swap1\n      pop\n        /* \"#utility.yul\":6412:6510   */\n      swap2\n      swap1\n      pop\n      jump\t// out\n        /* \"#utility.yul\":6516:6684   */\n    tag_85:\n        /* \"#utility.yul\":6599:6610   */\n      0x00\n        /* \"#utility.yul\":6633:6639   */\n      dup3\n        /* \"#utility.yul\":6628:6631   */\n      dup3\n        /* \"#utility.yul\":6621:6640   */\n      mstore\n        /* \"#utility.yul\":6673:6677   */\n      0x20\n        /* \"#utility.yul\":6668:6671   */\n      dup3\n        /* \"#utility.yul\":6664:6678   */\n      add\n        /* \"#utility.yul\":6649:6678   */\n      swap1\n      pop\n        /* \"#utility.yul\":6516:6684   */\n      swap3\n      swap2\n      pop\n      pop\n      jump\t// out\n        /* \"#utility.yul\":6690:7063   */\n    tag_86:\n        /* \"#utility.yul\":6776:6779   */\n      0x00\n        /* \"#utility.yul\":6804:6842   */\n      tag_164\n        /* \"#utility.yul\":6836:6841   */\n      dup3\n        /* \"#utility.yul\":6804:6842   */\n      tag_84\n      jump\t// in\n    tag_164:\n        /* \"#utility.yul\":6858:6928   */\n      tag_165\n        /* \"#utility.yul\":6921:6927   */\n      dup2\n        /* \"#utility.yul\":6916:6919   */\n      dup6\n        /* \"#utility.yul\":6858:6928   */\n      tag_85\n      jump\t// in\n    tag_165:\n        /* \"#utility.yul\":6851:6928   */\n      swap4\n      pop\n        /* \"#utility.yul\":6937:7002   */\n      tag_166\n        /* \"#utility.yul\":6995:7001   */\n      dup2\n        /* \"#utility.yul\":6990:6993   */\n      dup6\n        /* \"#utility.yul\":6983:6987   */\n      0x20\n        /* \"#utility.yul\":6976:6981   */\n      dup7\n        /* \"#utility.yul\":6972:6988   */\n      add\n        /* \"#utility.yul\":6937:7002   */\n      tag_82\n      jump\t// in\n    tag_166:\n        /* \"#utility.yul\":7027:7056   */\n      tag_167\n        /* \"#utility.yul\":7049:7055   */\n      dup2\n        /* \"#utility.yul\":7027:7056   */\n      tag_72\n      jump\t// in\n    tag_167:\n        /* \"#utility.yul\":7022:7025   */\n      dup5\n        /* \"#utility.yul\":7018:7057   */\n      add\n        /* \"#utility.yul\":7011:7057   */\n      swap2\n      pop\n        /* \"#utility.yul\":6780:7063   */\n      pop\n        /* \"#utility.yul\":6690:7063   */\n      swap3\n      swap2\n      pop\n      pop\n      jump\t// out\n        /* \"#utility.yul\":7069:7488   */\n    tag_40:\n        /* \"#utility.yul\":7208:7212   */\n      0x00\n        /* \"#utility.yul\":7246:7248   */\n      0x40\n        /* \"#utility.yul\":7235:7244   */\n      dup3\n        /* \"#utility.yul\":7231:7249   */\n      add\n        /* \"#utility.yul\":7223:7249   */\n      swap1\n      pop\n        /* \"#utility.yul\":7259:7330   */\n      tag_169\n        /* \"#utility.yul\":7327:7328   */\n      0x00\n        /* \"#utility.yul\":7316:7325   */\n      dup4\n        /* \"#utility.yul\":7312:7329   */\n      add\n        /* \"#utility.yul\":7303:7309   */\n      dup6\n        /* \"#utility.yul\":7259:7330   */\n      tag_61\n      jump\t// in\n    tag_169:\n        /* \"#utility.yul\":7377:7386   */\n      dup2\n        /* \"#utility.yul\":7371:7375   */\n      dup2\n        /* \"#utility.yul\":7367:7387   */\n      sub\n        /* \"#utility.yul\":7362:7364   */\n      0x20\n        /* \"#utility.yul\":7351:7360   */\n      dup4\n        /* \"#utility.yul\":7347:7365   */\n      add\n        /* \"#utility.yul\":7340:7388   */\n      mstore\n        /* \"#utility.yul\":7405:7481   */\n      tag_170\n        /* \"#utility.yul\":7476:7480   */\n      dup2\n        /* \"#utility.yul\":7467:7473   */\n      dup5\n        /* \"#utility.yul\":7405:7481   */\n      tag_86\n      jump\t// in\n    tag_170:\n        /* \"#utility.yul\":7397:7481   */\n      swap1\n      pop\n        /* \"#utility.yul\":7069:7488   */\n      swap4\n      swap3\n      pop\n      pop\n      pop\n      jump\t// out\n\n    auxdata: 0xa2646970667358221220ea2b673860e1173bbf2a1a8a6eece0612bfc57c96715a5ef565b831b6efacd1364736f6c63430008140033\n}\n",
				"bytecode": {
					"linkReferences": {},
					"object": "608060405234801561000f575f80fd5b5033805f73ffffffffffffffffffffffffffffffffffffffff168173ffffffffffffffffffffffffffffffffffffffff1603610082575f6040517f1e4fbdf70000000000000000000000000000000000000000000000000000000081526004016100799190610198565b60405180910390fd5b6100918161009860201b60201c565b50506101b1565b5f805f9054906101000a900473ffffffffffffffffffffffffffffffffffffffff169050815f806101000a81548173ffffffffffffffffffffffffffffffffffffffff021916908373ffffffffffffffffffffffffffffffffffffffff1602179055508173ffffffffffffffffffffffffffffffffffffffff168173ffffffffffffffffffffffffffffffffffffffff167f8be0079c531659141344cd1fd0a4f28419497f9722a3daafe3b4186f6b6457e060405160405180910390a35050565b5f73ffffffffffffffffffffffffffffffffffffffff82169050919050565b5f61018282610159565b9050919050565b61019281610178565b82525050565b5f6020820190506101ab5f830184610189565b92915050565b6107a9806101be5f395ff3fe608060405260043610610049575f3560e01c8063715018a61461004d5780638da5cb5b146100635780639623609d1461008d578063ad3cb1cc146100a9578063f2fde38b146100d3575b5f80fd5b348015610058575f80fd5b506100616100fb565b005b34801561006e575f80fd5b5061007761010e565b60405161008491906103f7565b60405180910390f35b6100a760048036038101906100a291906105c2565b610135565b005b3480156100b4575f80fd5b506100bd6101ac565b6040516100ca91906106a8565b60405180910390f35b3480156100de575f80fd5b506100f960048036038101906100f491906106c8565b6101e5565b005b610103610269565b61010c5f6102f0565b565b5f805f9054906101000a900473ffffffffffffffffffffffffffffffffffffffff16905090565b61013d610269565b8273ffffffffffffffffffffffffffffffffffffffff16634f1ef2863484846040518463ffffffff1660e01b8152600401610179929190610745565b5f604051808303818588803b158015610190575f80fd5b505af11580156101a2573d5f803e3d5ffd5b5050505050505050565b6040518060400160405280600581526020017f352e302e3000000000000000000000000000000000000000000000000000000081525081565b6101ed610269565b5f73ffffffffffffffffffffffffffffffffffffffff168173ffffffffffffffffffffffffffffffffffffffff160361025d575f6040517f1e4fbdf700000000000000000000000000000000000000000000000000000000815260040161025491906103f7565b60405180910390fd5b610266816102f0565b50565b6102716103b1565b73ffffffffffffffffffffffffffffffffffffffff1661028f61010e565b73ffffffffffffffffffffffffffffffffffffffff16146102ee576102b26103b1565b6040517f118cdaa70000000000000000000000000000000000000000000000000000000081526004016102e591906103f7565b60405180910390fd5b565b5f805f9054906101000a900473ffffffffffffffffffffffffffffffffffffffff169050815f806101000a81548173ffffffffffffffffffffffffffffffffffffffff021916908373ffffffffffffffffffffffffffffffffffffffff1602179055508173ffffffffffffffffffffffffffffffffffffffff168173ffffffffffffffffffffffffffffffffffffffff167f8be0079c531659141344cd1fd0a4f28419497f9722a3daafe3b4186f6b6457e060405160405180910390a35050565b5f33905090565b5f73ffffffffffffffffffffffffffffffffffffffff82169050919050565b5f6103e1826103b8565b9050919050565b6103f1816103d7565b82525050565b5f60208201905061040a5f8301846103e8565b92915050565b5f604051905090565b5f80fd5b5f80fd5b5f61042b826103d7565b9050919050565b61043b81610421565b8114610445575f80fd5b50565b5f8135905061045681610432565b92915050565b610465816103d7565b811461046f575f80fd5b50565b5f813590506104808161045c565b92915050565b5f80fd5b5f80fd5b5f601f19601f8301169050919050565b7f4e487b71000000000000000000000000000000000000000000000000000000005f52604160045260245ffd5b6104d48261048e565b810181811067ffffffffffffffff821117156104f3576104f261049e565b5b80604052505050565b5f610505610410565b905061051182826104cb565b919050565b5f67ffffffffffffffff8211156105305761052f61049e565b5b6105398261048e565b9050602081019050919050565b828183375f83830152505050565b5f61056661056184610516565b6104fc565b9050828152602081018484840111156105825761058161048a565b5b61058d848285610546565b509392505050565b5f82601f8301126105a9576105a8610486565b5b81356105b9848260208601610554565b91505092915050565b5f805f606084860312156105d9576105d8610419565b5b5f6105e686828701610448565b93505060206105f786828701610472565b925050604084013567ffffffffffffffff8111156106185761061761041d565b5b61062486828701610595565b9150509250925092565b5f81519050919050565b5f82825260208201905092915050565b5f5b8381101561066557808201518184015260208101905061064a565b5f8484015250505050565b5f61067a8261062e565b6106848185610638565b9350610694818560208601610648565b61069d8161048e565b840191505092915050565b5f6020820190508181035f8301526106c08184610670565b905092915050565b5f602082840312156106dd576106dc610419565b5b5f6106ea84828501610472565b91505092915050565b5f81519050919050565b5f82825260208201905092915050565b5f610717826106f3565b61072181856106fd565b9350610731818560208601610648565b61073a8161048e565b840191505092915050565b5f6040820190506107585f8301856103e8565b818103602083015261076a818461070d565b9050939250505056fea2646970667358221220ea2b673860e1173bbf2a1a8a6eece0612bfc57c96715a5ef565b831b6efacd1364736f6c63430008140033",
					"opcodes": "PUSH1 0x80 PUSH1 0x40 MSTORE CALLVALUE DUP1 ISZERO PUSH2 0xF JUMPI PUSH0 DUP1 REVERT JUMPDEST POP CALLER DUP1 PUSH0 PUSH20 0xFFFFFFFFFFFFFFFFFFFFFFFFFFFFFFFFFFFFFFFF AND DUP2 PUSH20 0xFFFFFFFFFFFFFFFFFFFFFFFFFFFFFFFFFFFFFFFF AND SUB PUSH2 0x82 JUMPI PUSH0 PUSH1 0x40 MLOAD PUSH32 0x1E4FBDF700000000000000000000000000000000000000000000000000000000 DUP2 MSTORE PUSH1 0x4 ADD PUSH2 0x79 SWAP2 SWAP1 PUSH2 0x198 JUMP JUMPDEST PUSH1 0x40 MLOAD DUP1 SWAP2 SUB SWAP1 REVERT JUMPDEST PUSH2 0x91 DUP2 PUSH2 0x98 PUSH1 0x20 SHL PUSH1 0x20 SHR JUMP JUMPDEST POP POP PUSH2 0x1B1 JUMP JUMPDEST PUSH0 DUP1 PUSH0 SWAP1 SLOAD SWAP1 PUSH2 0x100 EXP SWAP1 DIV PUSH20 0xFFFFFFFFFFFFFFFFFFFFFFFFFFFFFFFFFFFFFFFF AND SWAP1 POP DUP2 PUSH0 DUP1 PUSH2 0x100 EXP DUP2 SLOAD DUP2 PUSH20 0xFFFFFFFFFFFFFFFFFFFFFFFFFFFFFFFFFFFFFFFF MUL NOT AND SWAP1 DUP4 PUSH20 0xFFFFFFFFFFFFFFFFFFFFFFFFFFFFFFFFFFFFFFFF AND MUL OR SWAP1 SSTORE POP DUP2 PUSH20 0xFFFFFFFFFFFFFFFFFFFFFFFFFFFFFFFFFFFFFFFF AND DUP2 PUSH20 0xFFFFFFFFFFFFFFFFFFFFFFFFFFFFFFFFFFFFFFFF AND PUSH32 0x8BE0079C531659141344CD1FD0A4F28419497F9722A3DAAFE3B4186F6B6457E0 PUSH1 0x40 MLOAD PUSH1 0x40 MLOAD DUP1 SWAP2 SUB SWAP1 LOG3 POP POP JUMP JUMPDEST PUSH0 PUSH20 0xFFFFFFFFFFFFFFFFFFFFFFFFFFFFFFFFFFFFFFFF DUP3 AND SWAP1 POP SWAP2 SWAP1 POP JUMP JUMPDEST PUSH0 PUSH2 0x182 DUP3 PUSH2 0x159 JUMP JUMPDEST SWAP1 POP SWAP2 SWAP1 POP JUMP JUMPDEST PUSH2 0x192 DUP2 PUSH2 0x178 JUMP JUMPDEST DUP3 MSTORE POP POP JUMP JUMPDEST PUSH0 PUSH1 0x20 DUP3 ADD SWAP1 POP PUSH2 0x1AB PUSH0 DUP4 ADD DUP5 PUSH2 0x189 JUMP JUMPDEST SWAP3 SWAP2 POP POP JUMP JUMPDEST PUSH2 0x7A9 DUP1 PUSH2 0x1BE PUSH0 CODECOPY PUSH0 RETURN INVALID PUSH1 0x80 PUSH1 0x40 MSTORE PUSH1 0x4 CALLDATASIZE LT PUSH2 0x49 JUMPI PUSH0 CALLDATALOAD PUSH1 0xE0 SHR DUP1 PUSH4 0x715018A6 EQ PUSH2 0x4D JUMPI DUP1 PUSH4 0x8DA5CB5B EQ PUSH2 0x63 JUMPI DUP1 PUSH4 0x9623609D EQ PUSH2 0x8D JUMPI DUP1 PUSH4 0xAD3CB1CC EQ PUSH2 0xA9 JUMPI DUP1 PUSH4 0xF2FDE38B EQ PUSH2 0xD3 JUMPI JUMPDEST PUSH0 DUP1 REVERT JUMPDEST CALLVALUE DUP1 ISZERO PUSH2 0x58 JUMPI PUSH0 DUP1 REVERT JUMPDEST POP PUSH2 0x61 PUSH2 0xFB JUMP JUMPDEST STOP JUMPDEST CALLVALUE DUP1 ISZERO PUSH2 0x6E JUMPI PUSH0 DUP1 REVERT JUMPDEST POP PUSH2 0x77 PUSH2 0x10E JUMP JUMPDEST PUSH1 0x40 MLOAD PUSH2 0x84 SWAP2 SWAP1 PUSH2 0x3F7 JUMP JUMPDEST PUSH1 0x40 MLOAD DUP1 SWAP2 SUB SWAP1 RETURN JUMPDEST PUSH2 0xA7 PUSH1 0x4 DUP1 CALLDATASIZE SUB DUP2 ADD SWAP1 PUSH2 0xA2 SWAP2 SWAP1 PUSH2 0x5C2 JUMP JUMPDEST PUSH2 0x135 JUMP JUMPDEST STOP JUMPDEST CALLVALUE DUP1 ISZERO PUSH2 0xB4 JUMPI PUSH0 DUP1 REVERT JUMPDEST POP PUSH2 0xBD PUSH2 0x1AC JUMP JUMPDEST PUSH1 0x40 MLOAD PUSH2 0xCA SWAP2 SWAP1 PUSH2 0x6A8 JUMP JUMPDEST PUSH1 0x40 MLOAD DUP1 SWAP2 SUB SWAP1 RETURN JUMPDEST CALLVALUE DUP1 ISZERO PUSH2 0xDE JUMPI PUSH0 DUP1 REVERT JUMPDEST POP PUSH2 0xF9 PUSH1 0x4 DUP1 CALLDATASIZE SUB DUP2 ADD SWAP1 PUSH2 0xF4 SWAP2 SWAP1 PUSH2 0x6C8 JUMP JUMPDEST PUSH2 0x1E5 JUMP JUMPDEST STOP JUMPDEST PUSH2 0x103 PUSH2 0x269 JUMP JUMPDEST PUSH2 0x10C PUSH0 PUSH2 0x2F0 JUMP JUMPDEST JUMP JUMPDEST PUSH0 DUP1 PUSH0 SWAP1 SLOAD SWAP1 PUSH2 0x100 EXP SWAP1 DIV PUSH20 0xFFFFFFFFFFFFFFFFFFFFFFFFFFFFFFFFFFFFFFFF AND SWAP1 POP SWAP1 JUMP JUMPDEST PUSH2 0x13D PUSH2 0x269 JUMP JUMPDEST DUP3 PUSH20 0xFFFFFFFFFFFFFFFFFFFFFFFFFFFFFFFFFFFFFFFF AND PUSH4 0x4F1EF286 CALLVALUE DUP5 DUP5 PUSH1 0x40 MLOAD DUP5 PUSH4 0xFFFFFFFF AND PUSH1 0xE0 SHL DUP2 MSTORE PUSH1 0x4 ADD PUSH2 0x179 SWAP3 SWAP2 SWAP1 PUSH2 0x745 JUMP JUMPDEST PUSH0 PUSH1 0x40 MLOAD DUP1 DUP4 SUB DUP2 DUP6 DUP9 DUP1 EXTCODESIZE ISZERO DUP1 ISZERO PUSH2 0x190 JUMPI PUSH0 DUP1 REVERT JUMPDEST POP GAS CALL ISZERO DUP1 ISZERO PUSH2 0x1A2 JUMPI RETURNDATASIZE PUSH0 DUP1 RETURNDATACOPY RETURNDATASIZE PUSH0 REVERT JUMPDEST POP POP POP POP POP POP POP POP JUMP JUMPDEST PUSH1 0x40 MLOAD DUP1 PUSH1 0x40 ADD PUSH1 0x40 MSTORE DUP1 PUSH1 0x5 DUP2 MSTORE PUSH1 0x20 ADD PUSH32 0x352E302E30000000000000000000000000000000000000000000000000000000 DUP2 MSTORE POP DUP2 JUMP JUMPDEST PUSH2 0x1ED PUSH2 0x269 JUMP JUMPDEST PUSH0 PUSH20 0xFFFFFFFFFFFFFFFFFFFFFFFFFFFFFFFFFFFFFFFF AND DUP2 PUSH20 0xFFFFFFFFFFFFFFFFFFFFFFFFFFFFFFFFFFFFFFFF AND SUB PUSH2 0x25D JUMPI PUSH0 PUSH1 0x40 MLOAD PUSH32 0x1E4FBDF700000000000000000000000000000000000000000000000000000000 DUP2 MSTORE PUSH1 0x4 ADD PUSH2 0x254 SWAP2 SWAP1 PUSH2 0x3F7 JUMP JUMPDEST PUSH1 0x40 MLOAD DUP1 SWAP2 SUB SWAP1 REVERT JUMPDEST PUSH2 0x266 DUP2 PUSH2 0x2F0 JUMP JUMPDEST POP JUMP JUMPDEST PUSH2 0x271 PUSH2 0x3B1 JUMP JUMPDEST PUSH20 0xFFFFFFFFFFFFFFFFFFFFFFFFFFFFFFFFFFFFFFFF AND PUSH2 0x28F PUSH2 0x10E JUMP JUMPDEST PUSH20 0xFFFFFFFFFFFFFFFFFFFFFFFFFFFFFFFFFFFFFFFF AND EQ PUSH2 0x2EE JUMPI PUSH2 0x2B2 PUSH2 0x3B1 JUMP JUMPDEST PUSH1 0x40 MLOAD PUSH32 0x118CDAA700000000000000000000000000000000000000000000000000000000 DUP2 MSTORE PUSH1 0x4 ADD PUSH2 0x2E5 SWAP2 SWAP1 PUSH2 0x3F7 JUMP JUMPDEST PUSH1 0x40 MLOAD DUP1 SWAP2 SUB SWAP1 REVERT JUMPDEST JUMP JUMPDEST PUSH0 DUP1 PUSH0 SWAP1 SLOAD SWAP1 PUSH2 0x100 EXP SWAP1 DIV PUSH20 0xFFFFFFFFFFFFFFFFFFFFFFFFFFFFFFFFFFFFFFFF AND SWAP1 POP DUP2 PUSH0 DUP1 PUSH2 0x100 EXP DUP2 SLOAD DUP2 PUSH20 0xFFFFFFFFFFFFFFFFFFFFFFFFFFFFFFFFFFFFFFFF MUL NOT AND SWAP1 DUP4 PUSH20 0xFFFFFFFFFFFFFFFFFFFFFFFFFFFFFFFFFFFFFFFF AND MUL OR SWAP1 SSTORE POP DUP2 PUSH20 0xFFFFFFFFFFFFFFFFFFFFFFFFFFFFFFFFFFFFFFFF AND DUP2 PUSH20 0xFFFFFFFFFFFFFFFFFFFFFFFFFFFFFFFFFFFFFFFF AND PUSH32 0x8BE0079C531659141344CD1FD0A4F28419497F9722A3DAAFE3B4186F6B6457E0 PUSH1 0x40 MLOAD PUSH1 0x40 MLOAD DUP1 SWAP2 SUB SWAP1 LOG3 POP POP JUMP JUMPDEST PUSH0 CALLER SWAP1 POP SWAP1 JUMP JUMPDEST PUSH0 PUSH20 0xFFFFFFFFFFFFFFFFFFFFFFFFFFFFFFFFFFFFFFFF DUP3 AND SWAP1 POP SWAP2 SWAP1 POP JUMP JUMPDEST PUSH0 PUSH2 0x3E1 DUP3 PUSH2 0x3B8 JUMP JUMPDEST SWAP1 POP SWAP2 SWAP1 POP JUMP JUMPDEST PUSH2 0x3F1 DUP2 PUSH2 0x3D7 JUMP JUMPDEST DUP3 MSTORE POP POP JUMP JUMPDEST PUSH0 PUSH1 0x20 DUP3 ADD SWAP1 POP PUSH2 0x40A PUSH0 DUP4 ADD DUP5 PUSH2 0x3E8 JUMP JUMPDEST SWAP3 SWAP2 POP POP JUMP JUMPDEST PUSH0 PUSH1 0x40 MLOAD SWAP1 POP SWAP1 JUMP JUMPDEST PUSH0 DUP1 REVERT JUMPDEST PUSH0 DUP1 REVERT JUMPDEST PUSH0 PUSH2 0x42B DUP3 PUSH2 0x3D7 JUMP JUMPDEST SWAP1 POP SWAP2 SWAP1 POP JUMP JUMPDEST PUSH2 0x43B DUP2 PUSH2 0x421 JUMP JUMPDEST DUP2 EQ PUSH2 0x445 JUMPI PUSH0 DUP1 REVERT JUMPDEST POP JUMP JUMPDEST PUSH0 DUP2 CALLDATALOAD SWAP1 POP PUSH2 0x456 DUP2 PUSH2 0x432 JUMP JUMPDEST SWAP3 SWAP2 POP POP JUMP JUMPDEST PUSH2 0x465 DUP2 PUSH2 0x3D7 JUMP JUMPDEST DUP2 EQ PUSH2 0x46F JUMPI PUSH0 DUP1 REVERT JUMPDEST POP JUMP JUMPDEST PUSH0 DUP2 CALLDATALOAD SWAP1 POP PUSH2 0x480 DUP2 PUSH2 0x45C JUMP JUMPDEST SWAP3 SWAP2 POP POP JUMP JUMPDEST PUSH0 DUP1 REVERT JUMPDEST PUSH0 DUP1 REVERT JUMPDEST PUSH0 PUSH1 0x1F NOT PUSH1 0x1F DUP4 ADD AND SWAP1 POP SWAP2 SWAP1 POP JUMP JUMPDEST PUSH32 0x4E487B7100000000000000000000000000000000000000000000000000000000 PUSH0 MSTORE PUSH1 0x41 PUSH1 0x4 MSTORE PUSH1 0x24 PUSH0 REVERT JUMPDEST PUSH2 0x4D4 DUP3 PUSH2 0x48E JUMP JUMPDEST DUP2 ADD DUP2 DUP2 LT PUSH8 0xFFFFFFFFFFFFFFFF DUP3 GT OR ISZERO PUSH2 0x4F3 JUMPI PUSH2 0x4F2 PUSH2 0x49E JUMP JUMPDEST JUMPDEST DUP1 PUSH1 0x40 MSTORE POP POP POP JUMP JUMPDEST PUSH0 PUSH2 0x505 PUSH2 0x410 JUMP JUMPDEST SWAP1 POP PUSH2 0x511 DUP3 DUP3 PUSH2 0x4CB JUMP JUMPDEST SWAP2 SWAP1 POP JUMP JUMPDEST PUSH0 PUSH8 0xFFFFFFFFFFFFFFFF DUP3 GT ISZERO PUSH2 0x530 JUMPI PUSH2 0x52F PUSH2 0x49E JUMP JUMPDEST JUMPDEST PUSH2 0x539 DUP3 PUSH2 0x48E JUMP JUMPDEST SWAP1 POP PUSH1 0x20 DUP2 ADD SWAP1 POP SWAP2 SWAP1 POP JUMP JUMPDEST DUP3 DUP2 DUP4 CALLDATACOPY PUSH0 DUP4 DUP4 ADD MSTORE POP POP POP JUMP JUMPDEST PUSH0 PUSH2 0x566 PUSH2 0x561 DUP5 PUSH2 0x516 JUMP JUMPDEST PUSH2 0x4FC JUMP JUMPDEST SWAP1 POP DUP3 DUP2 MSTORE PUSH1 0x20 DUP2 ADD DUP5 DUP5 DUP5 ADD GT ISZERO PUSH2 0x582 JUMPI PUSH2 0x581 PUSH2 0x48A JUMP JUMPDEST JUMPDEST PUSH2 0x58D DUP5 DUP3 DUP6 PUSH2 0x546 JUMP JUMPDEST POP SWAP4 SWAP3 POP POP POP JUMP JUMPDEST PUSH0 DUP3 PUSH1 0x1F DUP4 ADD SLT PUSH2 0x5A9 JUMPI PUSH2 0x5A8 PUSH2 0x486 JUMP JUMPDEST JUMPDEST DUP2 CALLDATALOAD PUSH2 0x5B9 DUP5 DUP3 PUSH1 0x20 DUP7 ADD PUSH2 0x554 JUMP JUMPDEST SWAP2 POP POP SWAP3 SWAP2 POP POP JUMP JUMPDEST PUSH0 DUP1 PUSH0 PUSH1 0x60 DUP5 DUP7 SUB SLT ISZERO PUSH2 0x5D9 JUMPI PUSH2 0x5D8 PUSH2 0x419 JUMP JUMPDEST JUMPDEST PUSH0 PUSH2 0x5E6 DUP7 DUP3 DUP8 ADD PUSH2 0x448 JUMP JUMPDEST SWAP4 POP POP PUSH1 0x20 PUSH2 0x5F7 DUP7 DUP3 DUP8 ADD PUSH2 0x472 JUMP JUMPDEST SWAP3 POP POP PUSH1 0x40 DUP5 ADD CALLDATALOAD PUSH8 0xFFFFFFFFFFFFFFFF DUP2 GT ISZERO PUSH2 0x618 JUMPI PUSH2 0x617 PUSH2 0x41D JUMP JUMPDEST JUMPDEST PUSH2 0x624 DUP7 DUP3 DUP8 ADD PUSH2 0x595 JUMP JUMPDEST SWAP2 POP POP SWAP3 POP SWAP3 POP SWAP3 JUMP JUMPDEST PUSH0 DUP2 MLOAD SWAP1 POP SWAP2 SWAP1 POP JUMP JUMPDEST PUSH0 DUP3 DUP3 MSTORE PUSH1 0x20 DUP3 ADD SWAP1 POP SWAP3 SWAP2 POP POP JUMP JUMPDEST PUSH0 JUMPDEST DUP4 DUP2 LT ISZERO PUSH2 0x665 JUMPI DUP1 DUP3 ADD MLOAD DUP2 DUP5 ADD MSTORE PUSH1 0x20 DUP2 ADD SWAP1 POP PUSH2 0x64A JUMP JUMPDEST PUSH0 DUP5 DUP5 ADD MSTORE POP POP POP POP JUMP JUMPDEST PUSH0 PUSH2 0x67A DUP3 PUSH2 0x62E JUMP JUMPDEST PUSH2 0x684 DUP2 DUP6 PUSH2 0x638 JUMP JUMPDEST SWAP4 POP PUSH2 0x694 DUP2 DUP6 PUSH1 0x20 DUP7 ADD PUSH2 0x648 JUMP JUMPDEST PUSH2 0x69D DUP2 PUSH2 0x48E JUMP JUMPDEST DUP5 ADD SWAP2 POP POP SWAP3 SWAP2 POP POP JUMP JUMPDEST PUSH0 PUSH1 0x20 DUP3 ADD SWAP1 POP DUP2 DUP2 SUB PUSH0 DUP4 ADD MSTORE PUSH2 0x6C0 DUP2 DUP5 PUSH2 0x670 JUMP JUMPDEST SWAP1 POP SWAP3 SWAP2 POP POP JUMP JUMPDEST PUSH0 PUSH1 0x20 DUP3 DUP5 SUB SLT ISZERO PUSH2 0x6DD JUMPI PUSH2 0x6DC PUSH2 0x419 JUMP JUMPDEST JUMPDEST PUSH0 PUSH2 0x6EA DUP5 DUP3 DUP6 ADD PUSH2 0x472 JUMP JUMPDEST SWAP2 POP POP SWAP3 SWAP2 POP POP JUMP JUMPDEST PUSH0 DUP2 MLOAD SWAP1 POP SWAP2 SWAP1 POP JUMP JUMPDEST PUSH0 DUP3 DUP3 MSTORE PUSH1 0x20 DUP3 ADD SWAP1 POP SWAP3 SWAP2 POP POP JUMP JUMPDEST PUSH0 PUSH2 0x717 DUP3 PUSH2 0x6F3 JUMP JUMPDEST PUSH2 0x721 DUP2 DUP6 PUSH2 0x6FD JUMP JUMPDEST SWAP4 POP PUSH2 0x731 DUP2 DUP6 PUSH1 0x20 DUP7 ADD PUSH2 0x648 JUMP JUMPDEST PUSH2 0x73A DUP2 PUSH2 0x48E JUMP JUMPDEST DUP5 ADD SWAP2 POP POP SWAP3 SWAP2 POP POP JUMP JUMPDEST PUSH0 PUSH1 0x40 DUP3 ADD SWAP1 POP PUSH2 0x758 PUSH0 DUP4 ADD DUP6 PUSH2 0x3E8 JUMP JUMPDEST DUP2 DUP2 SUB PUSH1 0x20 DUP4 ADD MSTORE PUSH2 0x76A DUP2 DUP5 PUSH2 0x70D JUMP JUMPDEST SWAP1 POP SWAP4 SWAP3 POP POP POP JUMP INVALID LOG2 PUSH5 0x6970667358 0x22 SLT KECCAK256 0xEA 0x2B PUSH8 0x3860E1173BBF2A1A DUP11 PUSH15 0xECE0612BFC57C96715A5EF565B831B PUSH15 0xFACD1364736F6C6343000814003300 "
				},
				"gasEstimates": {
					"creation": {
						"codeDepositCost": "392200",
						"executionCost": "infinite",
						"totalCost": "infinite"
					},
					"external": {
						"UPGRADE_INTERFACE_VERSION()": "infinite",
						"owner()": "2515",
						"renounceOwnership()": "infinite",
						"transferOwnership(address)": "infinite",
						"upgradeAndCall(address,address,bytes)": "infinite"
					}
				},
				"methodIdentifiers": {
					"UPGRADE_INTERFACE_VERSION()": "ad3cb1cc",
					"owner()": "8da5cb5b",
					"renounceOwnership()": "715018a6",
					"transferOwnership(address)": "f2fde38b",
					"upgradeAndCall(address,address,bytes)": "9623609d"
				}
			},
			"storageLayout": {
				"storage": [
					{
						"astId": 1094,
						"contract": "Token/ProxtAdmin(new).sol:ProxyDeployment",
						"label": "_owner",
						"offset": 0,
						"slot": "0",
						"type": "t_address"
					}
				],
				"types": {
					"t_address": {
						"encoding": "inplace",
						"label": "address",
						"numberOfBytes": "20"
					}
				}
			},
			"userdoc": {
				"kind": "user",
				"methods": {},
				"version": 1
			}
		}
	}
}