{
	"Token/123.sol": {
		"Trabajo24Token": {
			"abi": [
				{
					"inputs": [],
					"stateMutability": "nonpayable",
					"type": "constructor"
				},
				{
					"inputs": [
						{
							"internalType": "address",
							"name": "spender",
							"type": "address"
						},
						{
							"internalType": "uint256",
							"name": "allowance",
							"type": "uint256"
						},
						{
							"internalType": "uint256",
							"name": "needed",
							"type": "uint256"
						}
					],
					"name": "ERC20InsufficientAllowance",
					"type": "error"
				},
				{
					"inputs": [
						{
							"internalType": "address",
							"name": "sender",
							"type": "address"
						},
						{
							"internalType": "uint256",
							"name": "balance",
							"type": "uint256"
						},
						{
							"internalType": "uint256",
							"name": "needed",
							"type": "uint256"
						}
					],
					"name": "ERC20InsufficientBalance",
					"type": "error"
				},
				{
					"inputs": [
						{
							"internalType": "address",
							"name": "approver",
							"type": "address"
						}
					],
					"name": "ERC20InvalidApprover",
					"type": "error"
				},
				{
					"inputs": [
						{
							"internalType": "address",
							"name": "receiver",
							"type": "address"
						}
					],
					"name": "ERC20InvalidReceiver",
					"type": "error"
				},
				{
					"inputs": [
						{
							"internalType": "address",
							"name": "sender",
							"type": "address"
						}
					],
					"name": "ERC20InvalidSender",
					"type": "error"
				},
				{
					"inputs": [
						{
							"internalType": "address",
							"name": "spender",
							"type": "address"
						}
					],
					"name": "ERC20InvalidSpender",
					"type": "error"
				},
				{
					"inputs": [],
					"name": "InvalidInitialization",
					"type": "error"
				},
				{
					"inputs": [],
					"name": "NotInitializing",
					"type": "error"
				},
				{
					"inputs": [
						{
							"internalType": "address",
							"name": "owner",
							"type": "address"
						}
					],
					"name": "OwnableInvalidOwner",
					"type": "error"
				},
				{
					"inputs": [
						{
							"internalType": "address",
							"name": "account",
							"type": "address"
						}
					],
					"name": "OwnableUnauthorizedAccount",
					"type": "error"
				},
				{
					"anonymous": false,
					"inputs": [
						{
							"indexed": true,
							"internalType": "address",
							"name": "owner",
							"type": "address"
						},
						{
							"indexed": true,
							"internalType": "address",
							"name": "spender",
							"type": "address"
						},
						{
							"indexed": false,
							"internalType": "uint256",
							"name": "value",
							"type": "uint256"
						}
					],
					"name": "Approval",
					"type": "event"
				},
				{
					"anonymous": false,
					"inputs": [
						{
							"indexed": false,
							"internalType": "uint64",
							"name": "version",
							"type": "uint64"
						}
					],
					"name": "Initialized",
					"type": "event"
				},
				{
					"anonymous": false,
					"inputs": [
						{
							"indexed": true,
							"internalType": "address",
							"name": "previousOwner",
							"type": "address"
						},
						{
							"indexed": true,
							"internalType": "address",
							"name": "newOwner",
							"type": "address"
						}
					],
					"name": "OwnershipTransferred",
					"type": "event"
				},
				{
					"anonymous": false,
					"inputs": [
						{
							"indexed": true,
							"internalType": "address",
							"name": "from",
							"type": "address"
						},
						{
							"indexed": true,
							"internalType": "address",
							"name": "to",
							"type": "address"
						},
						{
							"indexed": false,
							"internalType": "uint256",
							"name": "value",
							"type": "uint256"
						}
					],
					"name": "Transfer",
					"type": "event"
				},
				{
					"anonymous": false,
					"inputs": [
						{
							"indexed": false,
							"internalType": "address",
							"name": "_updatedDevelopmentWallet",
							"type": "address"
						}
					],
					"name": "UpdatedDevelopmentWallet",
					"type": "event"
				},
				{
					"anonymous": false,
					"inputs": [
						{
							"indexed": false,
							"internalType": "address",
							"name": "_updatedMarketingWallet",
							"type": "address"
						}
					],
					"name": "UpdatedMarketingWallet",
					"type": "event"
				},
				{
					"anonymous": false,
					"inputs": [
						{
							"indexed": false,
							"internalType": "uint256",
							"name": "_updatedMarketingWalletTax",
							"type": "uint256"
						}
					],
					"name": "UpdatedMarketingWalletTax",
					"type": "event"
				},
				{
					"anonymous": false,
					"inputs": [
						{
							"indexed": false,
							"internalType": "uint256",
							"name": "_updatedMaxAmount",
							"type": "uint256"
						}
					],
					"name": "UpdatedMaxAmount",
					"type": "event"
				},
				{
					"anonymous": false,
					"inputs": [
						{
							"indexed": false,
							"internalType": "address",
							"name": "_updatedSustainabilityWallet",
							"type": "address"
						}
					],
					"name": "UpdatedSustainabilityWallet",
					"type": "event"
				},
				{
					"anonymous": false,
					"inputs": [
						{
							"indexed": false,
							"internalType": "uint256",
							"name": "_updatedtDevelopmentWalletTax",
							"type": "uint256"
						}
					],
					"name": "UpdatedtDevelopmentWalletTax",
					"type": "event"
				},
				{
					"anonymous": false,
					"inputs": [
						{
							"indexed": false,
							"internalType": "uint256",
							"name": "_updatedtSustainabilityWalletTax",
							"type": "uint256"
						}
					],
					"name": "UpdatedtSustainabilityWalletTax",
					"type": "event"
				},
				{
					"inputs": [
						{
							"internalType": "address",
							"name": "account",
							"type": "address"
						}
					],
					"name": "addToBlacklist",
					"outputs": [],
					"stateMutability": "nonpayable",
					"type": "function"
				},
				{
					"inputs": [
						{
							"internalType": "address",
							"name": "owner",
							"type": "address"
						},
						{
							"internalType": "address",
							"name": "spender",
							"type": "address"
						}
					],
					"name": "allowance",
					"outputs": [
						{
							"internalType": "uint256",
							"name": "",
							"type": "uint256"
						}
					],
					"stateMutability": "view",
					"type": "function"
				},
				{
					"inputs": [
						{
							"internalType": "address",
							"name": "spender",
							"type": "address"
						},
						{
							"internalType": "uint256",
							"name": "value",
							"type": "uint256"
						}
					],
					"name": "approve",
					"outputs": [
						{
							"internalType": "bool",
							"name": "",
							"type": "bool"
						}
					],
					"stateMutability": "nonpayable",
					"type": "function"
				},
				{
					"inputs": [
						{
							"internalType": "address",
							"name": "account",
							"type": "address"
						}
					],
					"name": "balanceOf",
					"outputs": [
						{
							"internalType": "uint256",
							"name": "",
							"type": "uint256"
						}
					],
					"stateMutability": "view",
					"type": "function"
				},
				{
					"inputs": [
						{
							"internalType": "uint256",
							"name": "value",
							"type": "uint256"
						}
					],
					"name": "burn",
					"outputs": [],
					"stateMutability": "nonpayable",
					"type": "function"
				},
				{
					"inputs": [
						{
							"internalType": "address",
							"name": "account",
							"type": "address"
						},
						{
							"internalType": "uint256",
							"name": "value",
							"type": "uint256"
						}
					],
					"name": "burnFrom",
					"outputs": [],
					"stateMutability": "nonpayable",
					"type": "function"
				},
				{
					"inputs": [],
					"name": "decimals",
					"outputs": [
						{
							"internalType": "uint8",
							"name": "",
							"type": "uint8"
						}
					],
					"stateMutability": "view",
					"type": "function"
				},
				{
					"inputs": [],
					"name": "developmentWallet",
					"outputs": [
						{
							"internalType": "address",
							"name": "",
							"type": "address"
						}
					],
					"stateMutability": "view",
					"type": "function"
				},
				{
					"inputs": [],
					"name": "developmentWalletTax",
					"outputs": [
						{
							"internalType": "uint256",
							"name": "",
							"type": "uint256"
						}
					],
					"stateMutability": "view",
					"type": "function"
				},
				{
					"inputs": [],
					"name": "initialize",
					"outputs": [],
					"stateMutability": "nonpayable",
					"type": "function"
				},
				{
					"inputs": [
						{
							"internalType": "address",
							"name": "account",
							"type": "address"
						}
					],
					"name": "isBlacklisted",
					"outputs": [
						{
							"internalType": "bool",
							"name": "",
							"type": "bool"
						}
					],
					"stateMutability": "view",
					"type": "function"
				},
				{
					"inputs": [],
					"name": "marketingWallet",
					"outputs": [
						{
							"internalType": "address",
							"name": "",
							"type": "address"
						}
					],
					"stateMutability": "view",
					"type": "function"
				},
				{
					"inputs": [],
					"name": "marketingWalletTax",
					"outputs": [
						{
							"internalType": "uint256",
							"name": "",
							"type": "uint256"
						}
					],
					"stateMutability": "view",
					"type": "function"
				},
				{
					"inputs": [],
					"name": "maxTransactionAmount",
					"outputs": [
						{
							"internalType": "uint256",
							"name": "",
							"type": "uint256"
						}
					],
					"stateMutability": "view",
					"type": "function"
				},
				{
					"inputs": [
						{
							"internalType": "address",
							"name": "to",
							"type": "address"
						},
						{
							"internalType": "uint256",
							"name": "amount",
							"type": "uint256"
						}
					],
					"name": "mint",
					"outputs": [],
					"stateMutability": "nonpayable",
					"type": "function"
				},
				{
					"inputs": [],
					"name": "name",
					"outputs": [
						{
							"internalType": "string",
							"name": "",
							"type": "string"
						}
					],
					"stateMutability": "view",
					"type": "function"
				},
				{
					"inputs": [],
					"name": "owner",
					"outputs": [
						{
							"internalType": "address",
							"name": "",
							"type": "address"
						}
					],
					"stateMutability": "view",
					"type": "function"
				},
				{
					"inputs": [
						{
							"internalType": "address",
							"name": "account",
							"type": "address"
						}
					],
					"name": "removeFromBlacklist",
					"outputs": [],
					"stateMutability": "nonpayable",
					"type": "function"
				},
				{
					"inputs": [],
					"name": "renounceOwnership",
					"outputs": [],
					"stateMutability": "nonpayable",
					"type": "function"
				},
				{
					"inputs": [
						{
							"internalType": "address",
							"name": "_wallet",
							"type": "address"
						}
					],
					"name": "setDevelopmentWallet",
					"outputs": [],
					"stateMutability": "nonpayable",
					"type": "function"
				},
				{
					"inputs": [
						{
							"internalType": "uint256",
							"name": "_taxPercentage",
							"type": "uint256"
						}
					],
					"name": "setDevelopmentWalletTax",
					"outputs": [],
					"stateMutability": "nonpayable",
					"type": "function"
				},
				{
					"inputs": [
						{
							"internalType": "address",
							"name": "_wallet",
							"type": "address"
						}
					],
					"name": "setMarketingWallet",
					"outputs": [],
					"stateMutability": "nonpayable",
					"type": "function"
				},
				{
					"inputs": [
						{
							"internalType": "uint256",
							"name": "_taxPercentage",
							"type": "uint256"
						}
					],
					"name": "setMarketingWalletTax",
					"outputs": [],
					"stateMutability": "nonpayable",
					"type": "function"
				},
				{
					"inputs": [
						{
							"internalType": "uint256",
							"name": "_amount",
							"type": "uint256"
						}
					],
					"name": "setMaxAmount",
					"outputs": [],
					"stateMutability": "nonpayable",
					"type": "function"
				},
				{
					"inputs": [
						{
							"internalType": "address",
							"name": "_wallet",
							"type": "address"
						}
					],
					"name": "setSustainabilityWallet",
					"outputs": [],
					"stateMutability": "nonpayable",
					"type": "function"
				},
				{
					"inputs": [
						{
							"internalType": "uint256",
							"name": "_taxPercentage",
							"type": "uint256"
						}
					],
					"name": "setSustainabilityWalletTax",
					"outputs": [],
					"stateMutability": "nonpayable",
					"type": "function"
				},
				{
					"inputs": [],
					"name": "sustainabilityWallet",
					"outputs": [
						{
							"internalType": "address",
							"name": "",
							"type": "address"
						}
					],
					"stateMutability": "view",
					"type": "function"
				},
				{
					"inputs": [],
					"name": "sustainabilityWalletTax",
					"outputs": [
						{
							"internalType": "uint256",
							"name": "",
							"type": "uint256"
						}
					],
					"stateMutability": "view",
					"type": "function"
				},
				{
					"inputs": [],
					"name": "symbol",
					"outputs": [
						{
							"internalType": "string",
							"name": "",
							"type": "string"
						}
					],
					"stateMutability": "view",
					"type": "function"
				},
				{
					"inputs": [],
					"name": "totalSupply",
					"outputs": [
						{
							"internalType": "uint256",
							"name": "",
							"type": "uint256"
						}
					],
					"stateMutability": "view",
					"type": "function"
				},
				{
					"inputs": [
						{
							"internalType": "address",
							"name": "to",
							"type": "address"
						},
						{
							"internalType": "uint256",
							"name": "value",
							"type": "uint256"
						}
					],
					"name": "transfer",
					"outputs": [
						{
							"internalType": "bool",
							"name": "",
							"type": "bool"
						}
					],
					"stateMutability": "nonpayable",
					"type": "function"
				},
				{
					"inputs": [
						{
							"internalType": "address",
							"name": "from",
							"type": "address"
						},
						{
							"internalType": "address",
							"name": "to",
							"type": "address"
						},
						{
							"internalType": "uint256",
							"name": "value",
							"type": "uint256"
						}
					],
					"name": "transferFrom",
					"outputs": [
						{
							"internalType": "bool",
							"name": "",
							"type": "bool"
						}
					],
					"stateMutability": "nonpayable",
					"type": "function"
				},
				{
					"inputs": [
						{
							"internalType": "address",
							"name": "newOwner",
							"type": "address"
						}
					],
					"name": "transferOwnership",
					"outputs": [],
					"stateMutability": "nonpayable",
					"type": "function"
				},
				{
					"inputs": [],
					"name": "uniswapPair",
					"outputs": [
						{
							"internalType": "address",
							"name": "",
							"type": "address"
						}
					],
					"stateMutability": "view",
					"type": "function"
				},
				{
					"inputs": [],
					"name": "uniswapV2Router",
					"outputs": [
						{
							"internalType": "contract IUniswapV2Router02",
							"name": "",
							"type": "address"
						}
					],
					"stateMutability": "view",
					"type": "function"
				}
			],
			"devdoc": {
				"errors": {
					"ERC20InsufficientAllowance(address,uint256,uint256)": [
						{
							"details": "Indicates a failure with the `spender`’s `allowance`. Used in transfers.",
							"params": {
								"allowance": "Amount of tokens a `spender` is allowed to operate with.",
								"needed": "Minimum amount required to perform a transfer.",
								"spender": "Address that may be allowed to operate on tokens without being their owner."
							}
						}
					],
					"ERC20InsufficientBalance(address,uint256,uint256)": [
						{
							"details": "Indicates an error related to the current `balance` of a `sender`. Used in transfers.",
							"params": {
								"balance": "Current balance for the interacting account.",
								"needed": "Minimum amount required to perform a transfer.",
								"sender": "Address whose tokens are being transferred."
							}
						}
					],
					"ERC20InvalidApprover(address)": [
						{
							"details": "Indicates a failure with the `approver` of a token to be approved. Used in approvals.",
							"params": {
								"approver": "Address initiating an approval operation."
							}
						}
					],
					"ERC20InvalidReceiver(address)": [
						{
							"details": "Indicates a failure with the token `receiver`. Used in transfers.",
							"params": {
								"receiver": "Address to which tokens are being transferred."
							}
						}
					],
					"ERC20InvalidSender(address)": [
						{
							"details": "Indicates a failure with the token `sender`. Used in transfers.",
							"params": {
								"sender": "Address whose tokens are being transferred."
							}
						}
					],
					"ERC20InvalidSpender(address)": [
						{
							"details": "Indicates a failure with the `spender` to be approved. Used in approvals.",
							"params": {
								"spender": "Address that may be allowed to operate on tokens without being their owner."
							}
						}
					],
					"InvalidInitialization()": [
						{
							"details": "The contract is already initialized."
						}
					],
					"NotInitializing()": [
						{
							"details": "The contract is not initializing."
						}
					],
					"OwnableInvalidOwner(address)": [
						{
							"details": "The owner is not a valid owner account. (eg. `address(0)`)"
						}
					],
					"OwnableUnauthorizedAccount(address)": [
						{
							"details": "The caller account is not authorized to perform an operation."
						}
					]
				},
				"events": {
					"Approval(address,address,uint256)": {
						"details": "Emitted when the allowance of a `spender` for an `owner` is set by a call to {approve}. `value` is the new allowance."
					},
					"Initialized(uint64)": {
						"details": "Triggered when the contract has been initialized or reinitialized."
					},
					"Transfer(address,address,uint256)": {
						"details": "Emitted when `value` tokens are moved from one account (`from`) to another (`to`). Note that `value` may be zero."
					}
				},
				"kind": "dev",
				"methods": {
					"addToBlacklist(address)": {
						"details": "Adds an account to the blacklist. This function allows the owner to blacklist an address, preventing it from  participating in transactions involving this token.",
						"params": {
							"account": "The address to be added to the blacklist. Must not be the owner's address."
						}
					},
					"allowance(address,address)": {
						"details": "See {IERC20-allowance}."
					},
					"approve(address,uint256)": {
						"details": "See {IERC20-approve}. NOTE: If `value` is the maximum `uint256`, the allowance is not updated on `transferFrom`. This is semantically equivalent to an infinite approval. Requirements: - `spender` cannot be the zero address."
					},
					"balanceOf(address)": {
						"details": "See {IERC20-balanceOf}."
					},
					"burn(uint256)": {
						"details": "Destroys a `value` amount of tokens from the caller. See {ERC20-_burn}."
					},
					"burnFrom(address,uint256)": {
						"details": "Destroys a `value` amount of tokens from `account`, deducting from the caller's allowance. See {ERC20-_burn} and {ERC20-allowance}. Requirements: - the caller must have allowance for ``accounts``'s tokens of at least `value`."
					},
					"constructor": {
						"custom:oz-upgrades-unsafe-allow": "constructor"
					},
					"decimals()": {
						"details": "Returns the number of decimals used to get its user representation. For example, if `decimals` equals `2`, a balance of `505` tokens should be displayed to a user as `5.05` (`505 / 10 ** 2`). Tokens usually opt for a value of 18, imitating the relationship between Ether and Wei. This is the default value returned by this function, unless it's overridden. NOTE: This information is only used for _display_ purposes: it in no way affects any of the arithmetic of the contract, including {IERC20-balanceOf} and {IERC20-transfer}."
					},
					"isBlacklisted(address)": {
						"details": "Checks if an address is blacklisted. This function allows anyone to check if a particular address is currently blacklisted, meaning it is restricted from participating in transactions involving this token.",
						"params": {
							"account": "The address to check the blacklist status of."
						},
						"returns": {
							"_0": "bool True if the account is blacklisted, false otherwise."
						}
					},
					"mint(address,uint256)": {
						"details": "Allows the owner to mint new tokens to a specified address. This function can be used to increase the total supply of tokens.",
						"params": {
							"amount": "The amount of tokens to mint.",
							"to": "The address to which the new tokens will be minted."
						}
					},
					"name()": {
						"details": "Returns the name of the token."
					},
					"owner()": {
						"details": "Returns the address of the current owner."
					},
					"removeFromBlacklist(address)": {
						"details": "Removes an account from the blacklist. This function allows the owner to remove an address from the blacklist, allowing it to participate in transactions involving this token again.",
						"params": {
							"account": "The address to be removed from the blacklist. Must be currently blacklisted."
						}
					},
					"renounceOwnership()": {
						"details": "Leaves the contract without owner. It will not be possible to call `onlyOwner` functions. Can only be called by the current owner. NOTE: Renouncing ownership will leave the contract without an owner, thereby disabling any functionality that is only available to the owner."
					},
					"setDevelopmentWallet(address)": {
						"details": "Sets the Development wallet address. This function allows the owner to update the address where Development-related funds or taxes will be sent.",
						"params": {
							"_wallet": "The new Development wallet address. Must not be the zero address."
						}
					},
					"setDevelopmentWalletTax(uint256)": {
						"details": "Sets the development wallet tax percentage. This function allows the owner to update the tax percentage that will be applied to development transactions.",
						"params": {
							"_taxPercentage": "The new tax percentage to be set. It is expected to be in basis points (i.e., 100 basis points = 1%). The maximum allowed value is 10000 basis points (100%)."
						}
					},
					"setMarketingWallet(address)": {
						"details": "Sets the marketing wallet address. This function allows the owner to update the address where marketing-related  funds or taxes will be sent.",
						"params": {
							"_wallet": "The new marketing wallet address. Must not be the zero address."
						}
					},
					"setMarketingWalletTax(uint256)": {
						"details": "Sets the marketing wallet tax percentage. This function allows the owner to update the tax percentage that will be applied to marketing transactions.",
						"params": {
							"_taxPercentage": "The new tax percentage to be set. It is expected to be in basis points (i.e., 100 basis points = 1%). The maximum allowed value is 10000 basis points (100%)."
						}
					},
					"setMaxAmount(uint256)": {
						"details": "Sets the maximum transaction amount. This function allows the owner to update the maximum amount of tokens that can be transferred in a single transaction.",
						"params": {
							"_amount": "The new maximum transaction amount. Must be greater than 0."
						}
					},
					"setSustainabilityWallet(address)": {
						"details": "Sets the sustainability wallet address. This function allows the owner to update the address where sustainability-related funds or taxes will be sent.",
						"params": {
							"_wallet": "The new sustainability wallet address. Must not be the zero address."
						}
					},
					"symbol()": {
						"details": "Returns the symbol of the token, usually a shorter version of the name."
					},
					"totalSupply()": {
						"details": "See {IERC20-totalSupply}."
					},
					"transfer(address,uint256)": {
						"details": "See {IERC20-transfer}. Requirements: - `to` cannot be the zero address. - the caller must have a balance of at least `value`."
					},
					"transferFrom(address,address,uint256)": {
						"details": "See {IERC20-transferFrom}. Emits an {Approval} event indicating the updated allowance. This is not required by the EIP. See the note at the beginning of {ERC20}. NOTE: Does not update the allowance if the current allowance is the maximum `uint256`. Requirements: - `from` and `to` cannot be the zero address. - `from` must have a balance of at least `value`. - the caller must have allowance for ``from``'s tokens of at least `value`."
					},
					"transferOwnership(address)": {
						"details": "Transfers ownership of the contract to a new account (`newOwner`). Can only be called by the current owner."
					}
				},
				"version": 1
			},
			"evm": {
				"assembly": "    /* \"Token/123.sol\":2426:14529  contract Trabajo24Token is Initializable, ERC20Upgradeable, ERC20BurnableUpgradeable, OwnableUpgradeable {... */\n  mstore(0x40, 0x80)\n    /* \"Token/123.sol\":2592:2647  constructor() {... */\n  callvalue\n  dup1\n  iszero\n  tag_1\n  jumpi\n  0x00\n  dup1\n  revert\ntag_1:\n  pop\n    /* \"Token/123.sol\":2617:2639  _disableInitializers() */\n  tag_4\n    /* \"Token/123.sol\":2617:2637  _disableInitializers */\n  shl(0x20, tag_5)\n    /* \"Token/123.sol\":2617:2639  _disableInitializers() */\n  0x20\n  shr\n  jump\t// in\ntag_4:\n    /* \"Token/123.sol\":2426:14529  contract Trabajo24Token is Initializable, ERC20Upgradeable, ERC20BurnableUpgradeable, OwnableUpgradeable {... */\n  jump(tag_6)\n    /* \"@openzeppelin/contracts-upgradeable/proxy/utils/Initializable.sol\":7711:8133  function _disableInitializers() internal virtual {... */\ntag_5:\n    /* \"@openzeppelin/contracts-upgradeable/proxy/utils/Initializable.sol\":7826:7856  InitializableStorage storage $ */\n  0x00\n    /* \"@openzeppelin/contracts-upgradeable/proxy/utils/Initializable.sol\":7859:7885  _getInitializableStorage() */\n  tag_8\n    /* \"@openzeppelin/contracts-upgradeable/proxy/utils/Initializable.sol\":7859:7883  _getInitializableStorage */\n  shl(0x20, tag_9)\n    /* \"@openzeppelin/contracts-upgradeable/proxy/utils/Initializable.sol\":7859:7885  _getInitializableStorage() */\n  0x20\n  shr\n  jump\t// in\ntag_8:\n    /* \"@openzeppelin/contracts-upgradeable/proxy/utils/Initializable.sol\":7826:7885  InitializableStorage storage $ = _getInitializableStorage() */\n  swap1\n  pop\n    /* \"@openzeppelin/contracts-upgradeable/proxy/utils/Initializable.sol\":7900:7901  $ */\n  dup1\n    /* \"@openzeppelin/contracts-upgradeable/proxy/utils/Initializable.sol\":7900:7915  $._initializing */\n  0x00\n  add\n  0x08\n  swap1\n  sload\n  swap1\n  0x0100\n  exp\n  swap1\n  div\n  0xff\n  and\n    /* \"@openzeppelin/contracts-upgradeable/proxy/utils/Initializable.sol\":7896:7972  if ($._initializing) {... */\n  iszero\n  tag_10\n  jumpi\n    /* \"@openzeppelin/contracts-upgradeable/proxy/utils/Initializable.sol\":7938:7961  InvalidInitialization() */\n  mload(0x40)\n  0xf92ee8a900000000000000000000000000000000000000000000000000000000\n  dup2\n  mstore\n  0x04\n  add\n  mload(0x40)\n  dup1\n  swap2\n  sub\n  swap1\n  revert\n    /* \"@openzeppelin/contracts-upgradeable/proxy/utils/Initializable.sol\":7896:7972  if ($._initializing) {... */\ntag_10:\n    /* \"@openzeppelin/contracts-upgradeable/proxy/utils/Initializable.sol\":8003:8019  type(uint64).max */\n  0xffffffffffffffff\n    /* \"@openzeppelin/contracts-upgradeable/proxy/utils/Initializable.sol\":7985:8019  $._initialized != type(uint64).max */\n  dup1\n  and\n    /* \"@openzeppelin/contracts-upgradeable/proxy/utils/Initializable.sol\":7985:7986  $ */\n  dup2\n    /* \"@openzeppelin/contracts-upgradeable/proxy/utils/Initializable.sol\":7985:7999  $._initialized */\n  0x00\n  add\n  0x00\n  swap1\n  sload\n  swap1\n  0x0100\n  exp\n  swap1\n  div\n  0xffffffffffffffff\n  and\n    /* \"@openzeppelin/contracts-upgradeable/proxy/utils/Initializable.sol\":7985:8019  $._initialized != type(uint64).max */\n  0xffffffffffffffff\n  and\n  eq\n    /* \"@openzeppelin/contracts-upgradeable/proxy/utils/Initializable.sol\":7981:8127  if ($._initialized != type(uint64).max) {... */\n  tag_11\n  jumpi\n    /* \"@openzeppelin/contracts-upgradeable/proxy/utils/Initializable.sol\":8052:8068  type(uint64).max */\n  0xffffffffffffffff\n    /* \"@openzeppelin/contracts-upgradeable/proxy/utils/Initializable.sol\":8035:8036  $ */\n  dup2\n    /* \"@openzeppelin/contracts-upgradeable/proxy/utils/Initializable.sol\":8035:8049  $._initialized */\n  0x00\n  add\n  0x00\n    /* \"@openzeppelin/contracts-upgradeable/proxy/utils/Initializable.sol\":8035:8068  $._initialized = type(uint64).max */\n  0x0100\n  exp\n  dup2\n  sload\n  dup2\n  0xffffffffffffffff\n  mul\n  not\n  and\n  swap1\n  dup4\n  0xffffffffffffffff\n  and\n  mul\n  or\n  swap1\n  sstore\n  pop\n    /* \"@openzeppelin/contracts-upgradeable/proxy/utils/Initializable.sol\":8087:8116  Initialized(type(uint64).max) */\n  0xc7f505b2f371ae2175ee4913f4499e1f2633a7b5936321eed1cdaeb6115181d2\n    /* \"@openzeppelin/contracts-upgradeable/proxy/utils/Initializable.sol\":8099:8115  type(uint64).max */\n  0xffffffffffffffff\n    /* \"@openzeppelin/contracts-upgradeable/proxy/utils/Initializable.sol\":8087:8116  Initialized(type(uint64).max) */\n  mload(0x40)\n  tag_12\n  swap2\n  swap1\n  tag_13\n  jump\t// in\ntag_12:\n  mload(0x40)\n  dup1\n  swap2\n  sub\n  swap1\n  log1\n    /* \"@openzeppelin/contracts-upgradeable/proxy/utils/Initializable.sol\":7981:8127  if ($._initialized != type(uint64).max) {... */\ntag_11:\n    /* \"@openzeppelin/contracts-upgradeable/proxy/utils/Initializable.sol\":7760:8133  {... */\n  pop\n    /* \"@openzeppelin/contracts-upgradeable/proxy/utils/Initializable.sol\":7711:8133  function _disableInitializers() internal virtual {... */\n  jump\t// out\n    /* \"@openzeppelin/contracts-upgradeable/proxy/utils/Initializable.sol\":8737:8907  function _getInitializableStorage() private pure returns (InitializableStorage storage $) {... */\ntag_9:\n    /* \"@openzeppelin/contracts-upgradeable/proxy/utils/Initializable.sol\":8795:8825  InitializableStorage storage $ */\n  0x00\n    /* \"@openzeppelin/contracts-upgradeable/proxy/utils/Initializable.sol\":8870:8891  INITIALIZABLE_STORAGE */\n  0xf0c57e16840df040f15088dc2f81fe391c3923bec73e23a9662efc9c229c6a00\n    /* \"@openzeppelin/contracts-upgradeable/proxy/utils/Initializable.sol\":8860:8891  $.slot := INITIALIZABLE_STORAGE */\n  swap1\n  pop\n    /* \"@openzeppelin/contracts-upgradeable/proxy/utils/Initializable.sol\":8737:8907  function _getInitializableStorage() private pure returns (InitializableStorage storage $) {... */\n  swap1\n  jump\t// out\n    /* \"#utility.yul\":7:108   */\ntag_15:\n    /* \"#utility.yul\":43:50   */\n  0x00\n    /* \"#utility.yul\":83:101   */\n  0xffffffffffffffff\n    /* \"#utility.yul\":76:81   */\n  dup3\n    /* \"#utility.yul\":72:102   */\n  and\n    /* \"#utility.yul\":61:102   */\n  swap1\n  pop\n    /* \"#utility.yul\":7:108   */\n  swap2\n  swap1\n  pop\n  jump\t// out\n    /* \"#utility.yul\":114:229   */\ntag_16:\n    /* \"#utility.yul\":199:222   */\n  tag_20\n    /* \"#utility.yul\":216:221   */\n  dup2\n    /* \"#utility.yul\":199:222   */\n  tag_15\n  jump\t// in\ntag_20:\n    /* \"#utility.yul\":194:197   */\n  dup3\n    /* \"#utility.yul\":187:223   */\n  mstore\n    /* \"#utility.yul\":114:229   */\n  pop\n  pop\n  jump\t// out\n    /* \"#utility.yul\":235:453   */\ntag_13:\n    /* \"#utility.yul\":326:330   */\n  0x00\n    /* \"#utility.yul\":364:366   */\n  0x20\n    /* \"#utility.yul\":353:362   */\n  dup3\n    /* \"#utility.yul\":349:367   */\n  add\n    /* \"#utility.yul\":341:367   */\n  swap1\n  pop\n    /* \"#utility.yul\":377:446   */\n  tag_22\n    /* \"#utility.yul\":443:444   */\n  0x00\n    /* \"#utility.yul\":432:441   */\n  dup4\n    /* \"#utility.yul\":428:445   */\n  add\n    /* \"#utility.yul\":419:425   */\n  dup5\n    /* \"#utility.yul\":377:446   */\n  tag_16\n  jump\t// in\ntag_22:\n    /* \"#utility.yul\":235:453   */\n  swap3\n  swap2\n  pop\n  pop\n  jump\t// out\n    /* \"Token/123.sol\":2426:14529  contract Trabajo24Token is Initializable, ERC20Upgradeable, ERC20BurnableUpgradeable, OwnableUpgradeable {... */\ntag_6:\n  dataSize(sub_0)\n  dup1\n  dataOffset(sub_0)\n  0x00\n  codecopy\n  0x00\n  return\nstop\n\nsub_0: assembly {\n        /* \"Token/123.sol\":2426:14529  contract Trabajo24Token is Initializable, ERC20Upgradeable, ERC20BurnableUpgradeable, OwnableUpgradeable {... */\n      mstore(0x40, 0x80)\n      callvalue\n      dup1\n      iszero\n      tag_1\n      jumpi\n      0x00\n      dup1\n      revert\n    tag_1:\n      pop\n      jumpi(tag_2, lt(calldatasize, 0x04))\n      shr(0xe0, calldataload(0x00))\n      dup1\n      0x75f0a874\n      gt\n      tag_38\n      jumpi\n      dup1\n      0xbe20b15d\n      gt\n      tag_39\n      jumpi\n      dup1\n      0xdd62ed3e\n      gt\n      tag_40\n      jumpi\n      dup1\n      0xdd62ed3e\n      eq\n      tag_33\n      jumpi\n      dup1\n      0xe7d88de5\n      eq\n      tag_34\n      jumpi\n      dup1\n      0xf2fde38b\n      eq\n      tag_35\n      jumpi\n      dup1\n      0xfe575a87\n      eq\n      tag_36\n      jumpi\n      dup1\n      0xfedcb861\n      eq\n      tag_37\n      jumpi\n      jump(tag_2)\n    tag_40:\n      dup1\n      0xbe20b15d\n      eq\n      tag_29\n      jumpi\n      dup1\n      0xc04a5414\n      eq\n      tag_30\n      jumpi\n      dup1\n      0xc816841b\n      eq\n      tag_31\n      jumpi\n      dup1\n      0xc8c8ebe4\n      eq\n      tag_32\n      jumpi\n      jump(tag_2)\n    tag_39:\n      dup1\n      0x85fbae56\n      gt\n      tag_41\n      jumpi\n      dup1\n      0x85fbae56\n      eq\n      tag_24\n      jumpi\n      dup1\n      0x88696f2f\n      eq\n      tag_25\n      jumpi\n      dup1\n      0x8da5cb5b\n      eq\n      tag_26\n      jumpi\n      dup1\n      0x95d89b41\n      eq\n      tag_27\n      jumpi\n      dup1\n      0xa9059cbb\n      eq\n      tag_28\n      jumpi\n      jump(tag_2)\n    tag_41:\n      dup1\n      0x75f0a874\n      eq\n      tag_20\n      jumpi\n      dup1\n      0x79cc6790\n      eq\n      tag_21\n      jumpi\n      dup1\n      0x8129fc1c\n      eq\n      tag_22\n      jumpi\n      dup1\n      0x8206cf5a\n      eq\n      tag_23\n      jumpi\n      jump(tag_2)\n    tag_38:\n      dup1\n      0x42966c68\n      gt\n      tag_42\n      jumpi\n      dup1\n      0x5d098b38\n      gt\n      tag_43\n      jumpi\n      dup1\n      0x5d098b38\n      eq\n      tag_15\n      jumpi\n      dup1\n      0x6ddfa4b4\n      eq\n      tag_16\n      jumpi\n      dup1\n      0x70a08231\n      eq\n      tag_17\n      jumpi\n      dup1\n      0x715018a6\n      eq\n      tag_18\n      jumpi\n      dup1\n      0x72ac2486\n      eq\n      tag_19\n      jumpi\n      jump(tag_2)\n    tag_43:\n      dup1\n      0x42966c68\n      eq\n      tag_11\n      jumpi\n      dup1\n      0x44337ea1\n      eq\n      tag_12\n      jumpi\n      dup1\n      0x4fe47f70\n      eq\n      tag_13\n      jumpi\n      dup1\n      0x537df3b6\n      eq\n      tag_14\n      jumpi\n      jump(tag_2)\n    tag_42:\n      dup1\n      0x18160ddd\n      gt\n      tag_44\n      jumpi\n      dup1\n      0x18160ddd\n      eq\n      tag_7\n      jumpi\n      dup1\n      0x23b872dd\n      eq\n      tag_8\n      jumpi\n      dup1\n      0x313ce567\n      eq\n      tag_9\n      jumpi\n      dup1\n      0x40c10f19\n      eq\n      tag_10\n      jumpi\n      jump(tag_2)\n    tag_44:\n      dup1\n      0x06fdde03\n      eq\n      tag_3\n      jumpi\n      dup1\n      0x095ea7b3\n      eq\n      tag_4\n      jumpi\n      dup1\n      0x11e91b84\n      eq\n      tag_5\n      jumpi\n      dup1\n      0x1694505e\n      eq\n      tag_6\n      jumpi\n    tag_2:\n      0x00\n      dup1\n      revert\n        /* \"@openzeppelin/contracts-upgradeable/token/ERC20/ERC20Upgradeable.sol\":3011:3155  function name() public view virtual returns (string memory) {... */\n    tag_3:\n      tag_45\n      tag_46\n      jump\t// in\n    tag_45:\n      mload(0x40)\n      tag_47\n      swap2\n      swap1\n      tag_48\n      jump\t// in\n    tag_47:\n      mload(0x40)\n      dup1\n      swap2\n      sub\n      swap1\n      return\n        /* \"@openzeppelin/contracts-upgradeable/token/ERC20/ERC20Upgradeable.sol\":5505:5691  function approve(address spender, uint256 value) public virtual returns (bool) {... */\n    tag_4:\n      tag_49\n      0x04\n      dup1\n      calldatasize\n      sub\n      dup2\n      add\n      swap1\n      tag_50\n      swap2\n      swap1\n      tag_51\n      jump\t// in\n    tag_50:\n      tag_52\n      jump\t// in\n    tag_49:\n      mload(0x40)\n      tag_53\n      swap2\n      swap1\n      tag_54\n      jump\t// in\n    tag_53:\n      mload(0x40)\n      dup1\n      swap2\n      sub\n      swap1\n      return\n        /* \"Token/123.sol\":2824:2860  uint256 public  developmentWalletTax */\n    tag_5:\n      tag_55\n      tag_56\n      jump\t// in\n    tag_55:\n      mload(0x40)\n      tag_57\n      swap2\n      swap1\n      tag_58\n      jump\t// in\n    tag_57:\n      mload(0x40)\n      dup1\n      swap2\n      sub\n      swap1\n      return\n        /* \"Token/123.sol\":3121:3162  IUniswapV2Router02 public uniswapV2Router */\n    tag_6:\n      tag_59\n      tag_60\n      jump\t// in\n    tag_59:\n      mload(0x40)\n      tag_61\n      swap2\n      swap1\n      tag_62\n      jump\t// in\n    tag_61:\n      mload(0x40)\n      dup1\n      swap2\n      sub\n      swap1\n      return\n        /* \"@openzeppelin/contracts-upgradeable/token/ERC20/ERC20Upgradeable.sol\":4191:4343  function totalSupply() public view virtual returns (uint256) {... */\n    tag_7:\n      tag_63\n      tag_64\n      jump\t// in\n    tag_63:\n      mload(0x40)\n      tag_65\n      swap2\n      swap1\n      tag_58\n      jump\t// in\n    tag_65:\n      mload(0x40)\n      dup1\n      swap2\n      sub\n      swap1\n      return\n        /* \"@openzeppelin/contracts-upgradeable/token/ERC20/ERC20Upgradeable.sol\":6251:6495  function transferFrom(address from, address to, uint256 value) public virtual returns (bool) {... */\n    tag_8:\n      tag_66\n      0x04\n      dup1\n      calldatasize\n      sub\n      dup2\n      add\n      swap1\n      tag_67\n      swap2\n      swap1\n      tag_68\n      jump\t// in\n    tag_67:\n      tag_69\n      jump\t// in\n    tag_66:\n      mload(0x40)\n      tag_70\n      swap2\n      swap1\n      tag_54\n      jump\t// in\n    tag_70:\n      mload(0x40)\n      dup1\n      swap2\n      sub\n      swap1\n      return\n        /* \"@openzeppelin/contracts-upgradeable/token/ERC20/ERC20Upgradeable.sol\":4049:4131  function decimals() public view virtual returns (uint8) {... */\n    tag_9:\n      tag_71\n      tag_72\n      jump\t// in\n    tag_71:\n      mload(0x40)\n      tag_73\n      swap2\n      swap1\n      tag_74\n      jump\t// in\n    tag_73:\n      mload(0x40)\n      dup1\n      swap2\n      sub\n      swap1\n      return\n        /* \"Token/123.sol\":6191:6286  function mint(address to, uint256 amount) public onlyOwner {... */\n    tag_10:\n      tag_75\n      0x04\n      dup1\n      calldatasize\n      sub\n      dup2\n      add\n      swap1\n      tag_76\n      swap2\n      swap1\n      tag_51\n      jump\t// in\n    tag_76:\n      tag_77\n      jump\t// in\n    tag_75:\n      stop\n        /* \"@openzeppelin/contracts-upgradeable/token/ERC20/extensions/ERC20BurnableUpgradeable.sol\":931:1018  function burn(uint256 value) public virtual {... */\n    tag_11:\n      tag_78\n      0x04\n      dup1\n      calldatasize\n      sub\n      dup2\n      add\n      swap1\n      tag_79\n      swap2\n      swap1\n      tag_80\n      jump\t// in\n    tag_79:\n      tag_81\n      jump\t// in\n    tag_78:\n      stop\n        /* \"Token/123.sol\":10334:10584  function addToBlacklist(address account) external onlyOwner{... */\n    tag_12:\n      tag_82\n      0x04\n      dup1\n      calldatasize\n      sub\n      dup2\n      add\n      swap1\n      tag_83\n      swap2\n      swap1\n      tag_84\n      jump\t// in\n    tag_83:\n      tag_85\n      jump\t// in\n    tag_82:\n      stop\n        /* \"Token/123.sol\":8202:8427  function setMaxAmount(uint256 _amount) external onlyOwner {... */\n    tag_13:\n      tag_86\n      0x04\n      dup1\n      calldatasize\n      sub\n      dup2\n      add\n      swap1\n      tag_87\n      swap2\n      swap1\n      tag_80\n      jump\t// in\n    tag_87:\n      tag_88\n      jump\t// in\n    tag_86:\n      stop\n        /* \"Token/123.sol\":10913:11176  function removeFromBlacklist(address account) external onlyOwner{... */\n    tag_14:\n      tag_89\n      0x04\n      dup1\n      calldatasize\n      sub\n      dup2\n      add\n      swap1\n      tag_90\n      swap2\n      swap1\n      tag_84\n      jump\t// in\n    tag_90:\n      tag_91\n      jump\t// in\n    tag_89:\n      stop\n        /* \"Token/123.sol\":8703:8946  function setMarketingWallet(address _wallet) external onlyOwner {... */\n    tag_15:\n      tag_92\n      0x04\n      dup1\n      calldatasize\n      sub\n      dup2\n      add\n      swap1\n      tag_93\n      swap2\n      swap1\n      tag_84\n      jump\t// in\n    tag_93:\n      tag_94\n      jump\t// in\n    tag_92:\n      stop\n        /* \"Token/123.sol\":7627:7916  function setSustainabilityWalletTax(uint256 _taxPercentage) external onlyOwner {... */\n    tag_16:\n      tag_95\n      0x04\n      dup1\n      calldatasize\n      sub\n      dup2\n      add\n      swap1\n      tag_96\n      swap2\n      swap1\n      tag_80\n      jump\t// in\n    tag_96:\n      tag_97\n      jump\t// in\n    tag_95:\n      stop\n        /* \"@openzeppelin/contracts-upgradeable/token/ERC20/ERC20Upgradeable.sol\":4401:4572  function balanceOf(address account) public view virtual returns (uint256) {... */\n    tag_17:\n      tag_98\n      0x04\n      dup1\n      calldatasize\n      sub\n      dup2\n      add\n      swap1\n      tag_99\n      swap2\n      swap1\n      tag_84\n      jump\t// in\n    tag_99:\n      tag_100\n      jump\t// in\n    tag_98:\n      mload(0x40)\n      tag_101\n      swap2\n      swap1\n      tag_58\n      jump\t// in\n    tag_101:\n      mload(0x40)\n      dup1\n      swap2\n      sub\n      swap1\n      return\n        /* \"@openzeppelin/contracts-upgradeable/access/OwnableUpgradeable.sol\":3155:3256  function renounceOwnership() public virtual onlyOwner {... */\n    tag_18:\n      tag_102\n      tag_103\n      jump\t// in\n    tag_102:\n      stop\n        /* \"Token/123.sol\":9227:9475  function setDevelopmentWallet(address _wallet) external onlyOwner {... */\n    tag_19:\n      tag_104\n      0x04\n      dup1\n      calldatasize\n      sub\n      dup2\n      add\n      swap1\n      tag_105\n      swap2\n      swap1\n      tag_84\n      jump\t// in\n    tag_105:\n      tag_106\n      jump\t// in\n    tag_104:\n      stop\n        /* \"Token/123.sol\":2655:2686  address public  marketingWallet */\n    tag_20:\n      tag_107\n      tag_108\n      jump\t// in\n    tag_107:\n      mload(0x40)\n      tag_109\n      swap2\n      swap1\n      tag_110\n      jump\t// in\n    tag_109:\n      mload(0x40)\n      dup1\n      swap2\n      sub\n      swap1\n      return\n        /* \"@openzeppelin/contracts-upgradeable/token/ERC20/extensions/ERC20BurnableUpgradeable.sol\":1334:1492  function burnFrom(address account, uint256 value) public virtual {... */\n    tag_21:\n      tag_111\n      0x04\n      dup1\n      calldatasize\n      sub\n      dup2\n      add\n      swap1\n      tag_112\n      swap2\n      swap1\n      tag_51\n      jump\t// in\n    tag_112:\n      tag_113\n      jump\t// in\n    tag_111:\n      stop\n        /* \"Token/123.sol\":4498:5901  function initialize() public initializer {... */\n    tag_22:\n      tag_114\n      tag_115\n      jump\t// in\n    tag_114:\n      stop\n        /* \"Token/123.sol\":2782:2816  uint256 public  marketingWalletTax */\n    tag_23:\n      tag_116\n      tag_117\n      jump\t// in\n    tag_116:\n      mload(0x40)\n      tag_118\n      swap2\n      swap1\n      tag_58\n      jump\t// in\n    tag_118:\n      mload(0x40)\n      dup1\n      swap2\n      sub\n      swap1\n      return\n        /* \"Token/123.sol\":7342:7619  function setDevelopmentWalletTax(uint256 _taxPercentage) external onlyOwner {... */\n    tag_24:\n      tag_119\n      0x04\n      dup1\n      calldatasize\n      sub\n      dup2\n      add\n      swap1\n      tag_120\n      swap2\n      swap1\n      tag_80\n      jump\t// in\n    tag_120:\n      tag_121\n      jump\t// in\n    tag_119:\n      stop\n        /* \"Token/123.sol\":6678:6946  function setMarketingWalletTax(uint256 _taxPercentage) external onlyOwner {... */\n    tag_25:\n      tag_122\n      0x04\n      dup1\n      calldatasize\n      sub\n      dup2\n      add\n      swap1\n      tag_123\n      swap2\n      swap1\n      tag_80\n      jump\t// in\n    tag_123:\n      tag_124\n      jump\t// in\n    tag_122:\n      stop\n        /* \"@openzeppelin/contracts-upgradeable/access/OwnableUpgradeable.sol\":2441:2585  function owner() public view virtual returns (address) {... */\n    tag_26:\n      tag_125\n      tag_126\n      jump\t// in\n    tag_125:\n      mload(0x40)\n      tag_127\n      swap2\n      swap1\n      tag_110\n      jump\t// in\n    tag_127:\n      mload(0x40)\n      dup1\n      swap2\n      sub\n      swap1\n      return\n        /* \"@openzeppelin/contracts-upgradeable/token/ERC20/ERC20Upgradeable.sol\":3268:3416  function symbol() public view virtual returns (string memory) {... */\n    tag_27:\n      tag_128\n      tag_129\n      jump\t// in\n    tag_128:\n      mload(0x40)\n      tag_130\n      swap2\n      swap1\n      tag_48\n      jump\t// in\n    tag_130:\n      mload(0x40)\n      dup1\n      swap2\n      sub\n      swap1\n      return\n        /* \"@openzeppelin/contracts-upgradeable/token/ERC20/ERC20Upgradeable.sol\":4767:4945  function transfer(address to, uint256 value) public virtual returns (bool) {... */\n    tag_28:\n      tag_131\n      0x04\n      dup1\n      calldatasize\n      sub\n      dup2\n      add\n      swap1\n      tag_132\n      swap2\n      swap1\n      tag_51\n      jump\t// in\n    tag_132:\n      tag_133\n      jump\t// in\n    tag_131:\n      mload(0x40)\n      tag_134\n      swap2\n      swap1\n      tag_54\n      jump\t// in\n    tag_134:\n      mload(0x40)\n      dup1\n      swap2\n      sub\n      swap1\n      return\n        /* \"Token/123.sol\":9761:10027  function setSustainabilityWallet(address _wallet) external onlyOwner {... */\n    tag_29:\n      tag_135\n      0x04\n      dup1\n      calldatasize\n      sub\n      dup2\n      add\n      swap1\n      tag_136\n      swap2\n      swap1\n      tag_84\n      jump\t// in\n    tag_136:\n      tag_137\n      jump\t// in\n    tag_135:\n      stop\n        /* \"Token/123.sol\":2693:2726  address public  developmentWallet */\n    tag_30:\n      tag_138\n      tag_139\n      jump\t// in\n    tag_138:\n      mload(0x40)\n      tag_140\n      swap2\n      swap1\n      tag_110\n      jump\t// in\n    tag_140:\n      mload(0x40)\n      dup1\n      swap2\n      sub\n      swap1\n      return\n        /* \"Token/123.sol\":3169:3195  address public uniswapPair */\n    tag_31:\n      tag_141\n      tag_142\n      jump\t// in\n    tag_141:\n      mload(0x40)\n      tag_143\n      swap2\n      swap1\n      tag_110\n      jump\t// in\n    tag_143:\n      mload(0x40)\n      dup1\n      swap2\n      sub\n      swap1\n      return\n        /* \"Token/123.sol\":2913:2949  uint256 public  maxTransactionAmount */\n    tag_32:\n      tag_144\n      tag_145\n      jump\t// in\n    tag_144:\n      mload(0x40)\n      tag_146\n      swap2\n      swap1\n      tag_58\n      jump\t// in\n    tag_146:\n      mload(0x40)\n      dup1\n      swap2\n      sub\n      swap1\n      return\n        /* \"@openzeppelin/contracts-upgradeable/token/ERC20/ERC20Upgradeable.sol\":5003:5198  function allowance(address owner, address spender) public view virtual returns (uint256) {... */\n    tag_33:\n      tag_147\n      0x04\n      dup1\n      calldatasize\n      sub\n      dup2\n      add\n      swap1\n      tag_148\n      swap2\n      swap1\n      tag_149\n      jump\t// in\n    tag_148:\n      tag_150\n      jump\t// in\n    tag_147:\n      mload(0x40)\n      tag_151\n      swap2\n      swap1\n      tag_58\n      jump\t// in\n    tag_151:\n      mload(0x40)\n      dup1\n      swap2\n      sub\n      swap1\n      return\n        /* \"Token/123.sol\":2867:2906  uint256 public  sustainabilityWalletTax */\n    tag_34:\n      tag_152\n      tag_153\n      jump\t// in\n    tag_152:\n      mload(0x40)\n      tag_154\n      swap2\n      swap1\n      tag_58\n      jump\t// in\n    tag_154:\n      mload(0x40)\n      dup1\n      swap2\n      sub\n      swap1\n      return\n        /* \"@openzeppelin/contracts-upgradeable/access/OwnableUpgradeable.sol\":3405:3620  function transferOwnership(address newOwner) public virtual onlyOwner {... */\n    tag_35:\n      tag_155\n      0x04\n      dup1\n      calldatasize\n      sub\n      dup2\n      add\n      swap1\n      tag_156\n      swap2\n      swap1\n      tag_84\n      jump\t// in\n    tag_156:\n      tag_157\n      jump\t// in\n    tag_155:\n      stop\n        /* \"Token/123.sol\":11574:11690  function isBlacklisted(address account) external view returns (bool) {... */\n    tag_36:\n      tag_158\n      0x04\n      dup1\n      calldatasize\n      sub\n      dup2\n      add\n      swap1\n      tag_159\n      swap2\n      swap1\n      tag_84\n      jump\t// in\n    tag_159:\n      tag_160\n      jump\t// in\n    tag_158:\n      mload(0x40)\n      tag_161\n      swap2\n      swap1\n      tag_54\n      jump\t// in\n    tag_161:\n      mload(0x40)\n      dup1\n      swap2\n      sub\n      swap1\n      return\n        /* \"Token/123.sol\":2733:2769  address public  sustainabilityWallet */\n    tag_37:\n      tag_162\n      tag_163\n      jump\t// in\n    tag_162:\n      mload(0x40)\n      tag_164\n      swap2\n      swap1\n      tag_110\n      jump\t// in\n    tag_164:\n      mload(0x40)\n      dup1\n      swap2\n      sub\n      swap1\n      return\n        /* \"@openzeppelin/contracts-upgradeable/token/ERC20/ERC20Upgradeable.sol\":3011:3155  function name() public view virtual returns (string memory) {... */\n    tag_46:\n        /* \"@openzeppelin/contracts-upgradeable/token/ERC20/ERC20Upgradeable.sol\":3056:3069  string memory */\n      0x60\n        /* \"@openzeppelin/contracts-upgradeable/token/ERC20/ERC20Upgradeable.sol\":3081:3103  ERC20Storage storage $ */\n      0x00\n        /* \"@openzeppelin/contracts-upgradeable/token/ERC20/ERC20Upgradeable.sol\":3106:3124  _getERC20Storage() */\n      tag_166\n        /* \"@openzeppelin/contracts-upgradeable/token/ERC20/ERC20Upgradeable.sol\":3106:3122  _getERC20Storage */\n      tag_167\n        /* \"@openzeppelin/contracts-upgradeable/token/ERC20/ERC20Upgradeable.sol\":3106:3124  _getERC20Storage() */\n      jump\t// in\n    tag_166:\n        /* \"@openzeppelin/contracts-upgradeable/token/ERC20/ERC20Upgradeable.sol\":3081:3124  ERC20Storage storage $ = _getERC20Storage() */\n      swap1\n      pop\n        /* \"@openzeppelin/contracts-upgradeable/token/ERC20/ERC20Upgradeable.sol\":3141:3142  $ */\n      dup1\n        /* \"@openzeppelin/contracts-upgradeable/token/ERC20/ERC20Upgradeable.sol\":3141:3148  $._name */\n      0x03\n      add\n        /* \"@openzeppelin/contracts-upgradeable/token/ERC20/ERC20Upgradeable.sol\":3134:3148  return $._name */\n      dup1\n      sload\n      tag_168\n      swap1\n      tag_169\n      jump\t// in\n    tag_168:\n      dup1\n      0x1f\n      add\n      0x20\n      dup1\n      swap2\n      div\n      mul\n      0x20\n      add\n      mload(0x40)\n      swap1\n      dup2\n      add\n      0x40\n      mstore\n      dup1\n      swap3\n      swap2\n      swap1\n      dup2\n      dup2\n      mstore\n      0x20\n      add\n      dup3\n      dup1\n      sload\n      tag_170\n      swap1\n      tag_169\n      jump\t// in\n    tag_170:\n      dup1\n      iszero\n      tag_171\n      jumpi\n      dup1\n      0x1f\n      lt\n      tag_172\n      jumpi\n      0x0100\n      dup1\n      dup4\n      sload\n      div\n      mul\n      dup4\n      mstore\n      swap2\n      0x20\n      add\n      swap2\n      jump(tag_171)\n    tag_172:\n      dup3\n      add\n      swap2\n      swap1\n      0x00\n      mstore\n      keccak256(0x00, 0x20)\n      swap1\n    tag_173:\n      dup2\n      sload\n      dup2\n      mstore\n      swap1\n      0x01\n      add\n      swap1\n      0x20\n      add\n      dup1\n      dup4\n      gt\n      tag_173\n      jumpi\n      dup3\n      swap1\n      sub\n      0x1f\n      and\n      dup3\n      add\n      swap2\n    tag_171:\n      pop\n      pop\n      pop\n      pop\n      pop\n      swap2\n      pop\n      pop\n        /* \"@openzeppelin/contracts-upgradeable/token/ERC20/ERC20Upgradeable.sol\":3011:3155  function name() public view virtual returns (string memory) {... */\n      swap1\n      jump\t// out\n        /* \"@openzeppelin/contracts-upgradeable/token/ERC20/ERC20Upgradeable.sol\":5505:5691  function approve(address spender, uint256 value) public virtual returns (bool) {... */\n    tag_52:\n        /* \"@openzeppelin/contracts-upgradeable/token/ERC20/ERC20Upgradeable.sol\":5578:5582  bool */\n      0x00\n        /* \"@openzeppelin/contracts-upgradeable/token/ERC20/ERC20Upgradeable.sol\":5594:5607  address owner */\n      dup1\n        /* \"@openzeppelin/contracts-upgradeable/token/ERC20/ERC20Upgradeable.sol\":5610:5622  _msgSender() */\n      tag_175\n        /* \"@openzeppelin/contracts-upgradeable/token/ERC20/ERC20Upgradeable.sol\":5610:5620  _msgSender */\n      tag_176\n        /* \"@openzeppelin/contracts-upgradeable/token/ERC20/ERC20Upgradeable.sol\":5610:5622  _msgSender() */\n      jump\t// in\n    tag_175:\n        /* \"@openzeppelin/contracts-upgradeable/token/ERC20/ERC20Upgradeable.sol\":5594:5622  address owner = _msgSender() */\n      swap1\n      pop\n        /* \"@openzeppelin/contracts-upgradeable/token/ERC20/ERC20Upgradeable.sol\":5632:5663  _approve(owner, spender, value) */\n      tag_177\n        /* \"@openzeppelin/contracts-upgradeable/token/ERC20/ERC20Upgradeable.sol\":5641:5646  owner */\n      dup2\n        /* \"@openzeppelin/contracts-upgradeable/token/ERC20/ERC20Upgradeable.sol\":5648:5655  spender */\n      dup6\n        /* \"@openzeppelin/contracts-upgradeable/token/ERC20/ERC20Upgradeable.sol\":5657:5662  value */\n      dup6\n        /* \"@openzeppelin/contracts-upgradeable/token/ERC20/ERC20Upgradeable.sol\":5632:5640  _approve */\n      tag_178\n        /* \"@openzeppelin/contracts-upgradeable/token/ERC20/ERC20Upgradeable.sol\":5632:5663  _approve(owner, spender, value) */\n      jump\t// in\n    tag_177:\n        /* \"@openzeppelin/contracts-upgradeable/token/ERC20/ERC20Upgradeable.sol\":5680:5684  true */\n      0x01\n        /* \"@openzeppelin/contracts-upgradeable/token/ERC20/ERC20Upgradeable.sol\":5673:5684  return true */\n      swap2\n      pop\n      pop\n        /* \"@openzeppelin/contracts-upgradeable/token/ERC20/ERC20Upgradeable.sol\":5505:5691  function approve(address spender, uint256 value) public virtual returns (bool) {... */\n      swap3\n      swap2\n      pop\n      pop\n      jump\t// out\n        /* \"Token/123.sol\":2824:2860  uint256 public  developmentWalletTax */\n    tag_56:\n      sload(0x04)\n      dup2\n      jump\t// out\n        /* \"Token/123.sol\":3121:3162  IUniswapV2Router02 public uniswapV2Router */\n    tag_60:\n      0x0a\n      0x00\n      swap1\n      sload\n      swap1\n      0x0100\n      exp\n      swap1\n      div\n      0xffffffffffffffffffffffffffffffffffffffff\n      and\n      dup2\n      jump\t// out\n        /* \"@openzeppelin/contracts-upgradeable/token/ERC20/ERC20Upgradeable.sol\":4191:4343  function totalSupply() public view virtual returns (uint256) {... */\n    tag_64:\n        /* \"@openzeppelin/contracts-upgradeable/token/ERC20/ERC20Upgradeable.sol\":4243:4250  uint256 */\n      0x00\n        /* \"@openzeppelin/contracts-upgradeable/token/ERC20/ERC20Upgradeable.sol\":4262:4284  ERC20Storage storage $ */\n      dup1\n        /* \"@openzeppelin/contracts-upgradeable/token/ERC20/ERC20Upgradeable.sol\":4287:4305  _getERC20Storage() */\n      tag_180\n        /* \"@openzeppelin/contracts-upgradeable/token/ERC20/ERC20Upgradeable.sol\":4287:4303  _getERC20Storage */\n      tag_167\n        /* \"@openzeppelin/contracts-upgradeable/token/ERC20/ERC20Upgradeable.sol\":4287:4305  _getERC20Storage() */\n      jump\t// in\n    tag_180:\n        /* \"@openzeppelin/contracts-upgradeable/token/ERC20/ERC20Upgradeable.sol\":4262:4305  ERC20Storage storage $ = _getERC20Storage() */\n      swap1\n      pop\n        /* \"@openzeppelin/contracts-upgradeable/token/ERC20/ERC20Upgradeable.sol\":4322:4323  $ */\n      dup1\n        /* \"@openzeppelin/contracts-upgradeable/token/ERC20/ERC20Upgradeable.sol\":4322:4336  $._totalSupply */\n      0x02\n      add\n      sload\n        /* \"@openzeppelin/contracts-upgradeable/token/ERC20/ERC20Upgradeable.sol\":4315:4336  return $._totalSupply */\n      swap2\n      pop\n      pop\n        /* \"@openzeppelin/contracts-upgradeable/token/ERC20/ERC20Upgradeable.sol\":4191:4343  function totalSupply() public view virtual returns (uint256) {... */\n      swap1\n      jump\t// out\n        /* \"@openzeppelin/contracts-upgradeable/token/ERC20/ERC20Upgradeable.sol\":6251:6495  function transferFrom(address from, address to, uint256 value) public virtual returns (bool) {... */\n    tag_69:\n        /* \"@openzeppelin/contracts-upgradeable/token/ERC20/ERC20Upgradeable.sol\":6338:6342  bool */\n      0x00\n        /* \"@openzeppelin/contracts-upgradeable/token/ERC20/ERC20Upgradeable.sol\":6354:6369  address spender */\n      dup1\n        /* \"@openzeppelin/contracts-upgradeable/token/ERC20/ERC20Upgradeable.sol\":6372:6384  _msgSender() */\n      tag_182\n        /* \"@openzeppelin/contracts-upgradeable/token/ERC20/ERC20Upgradeable.sol\":6372:6382  _msgSender */\n      tag_176\n        /* \"@openzeppelin/contracts-upgradeable/token/ERC20/ERC20Upgradeable.sol\":6372:6384  _msgSender() */\n      jump\t// in\n    tag_182:\n        /* \"@openzeppelin/contracts-upgradeable/token/ERC20/ERC20Upgradeable.sol\":6354:6384  address spender = _msgSender() */\n      swap1\n      pop\n        /* \"@openzeppelin/contracts-upgradeable/token/ERC20/ERC20Upgradeable.sol\":6394:6431  _spendAllowance(from, spender, value) */\n      tag_183\n        /* \"@openzeppelin/contracts-upgradeable/token/ERC20/ERC20Upgradeable.sol\":6410:6414  from */\n      dup6\n        /* \"@openzeppelin/contracts-upgradeable/token/ERC20/ERC20Upgradeable.sol\":6416:6423  spender */\n      dup3\n        /* \"@openzeppelin/contracts-upgradeable/token/ERC20/ERC20Upgradeable.sol\":6425:6430  value */\n      dup6\n        /* \"@openzeppelin/contracts-upgradeable/token/ERC20/ERC20Upgradeable.sol\":6394:6409  _spendAllowance */\n      tag_184\n        /* \"@openzeppelin/contracts-upgradeable/token/ERC20/ERC20Upgradeable.sol\":6394:6431  _spendAllowance(from, spender, value) */\n      jump\t// in\n    tag_183:\n        /* \"@openzeppelin/contracts-upgradeable/token/ERC20/ERC20Upgradeable.sol\":6441:6467  _transfer(from, to, value) */\n      tag_185\n        /* \"@openzeppelin/contracts-upgradeable/token/ERC20/ERC20Upgradeable.sol\":6451:6455  from */\n      dup6\n        /* \"@openzeppelin/contracts-upgradeable/token/ERC20/ERC20Upgradeable.sol\":6457:6459  to */\n      dup6\n        /* \"@openzeppelin/contracts-upgradeable/token/ERC20/ERC20Upgradeable.sol\":6461:6466  value */\n      dup6\n        /* \"@openzeppelin/contracts-upgradeable/token/ERC20/ERC20Upgradeable.sol\":6441:6450  _transfer */\n      tag_186\n        /* \"@openzeppelin/contracts-upgradeable/token/ERC20/ERC20Upgradeable.sol\":6441:6467  _transfer(from, to, value) */\n      jump\t// in\n    tag_185:\n        /* \"@openzeppelin/contracts-upgradeable/token/ERC20/ERC20Upgradeable.sol\":6484:6488  true */\n      0x01\n        /* \"@openzeppelin/contracts-upgradeable/token/ERC20/ERC20Upgradeable.sol\":6477:6488  return true */\n      swap2\n      pop\n      pop\n        /* \"@openzeppelin/contracts-upgradeable/token/ERC20/ERC20Upgradeable.sol\":6251:6495  function transferFrom(address from, address to, uint256 value) public virtual returns (bool) {... */\n      swap4\n      swap3\n      pop\n      pop\n      pop\n      jump\t// out\n        /* \"@openzeppelin/contracts-upgradeable/token/ERC20/ERC20Upgradeable.sol\":4049:4131  function decimals() public view virtual returns (uint8) {... */\n    tag_72:\n        /* \"@openzeppelin/contracts-upgradeable/token/ERC20/ERC20Upgradeable.sol\":4098:4103  uint8 */\n      0x00\n        /* \"@openzeppelin/contracts-upgradeable/token/ERC20/ERC20Upgradeable.sol\":4122:4124  18 */\n      0x12\n        /* \"@openzeppelin/contracts-upgradeable/token/ERC20/ERC20Upgradeable.sol\":4115:4124  return 18 */\n      swap1\n      pop\n        /* \"@openzeppelin/contracts-upgradeable/token/ERC20/ERC20Upgradeable.sol\":4049:4131  function decimals() public view virtual returns (uint8) {... */\n      swap1\n      jump\t// out\n        /* \"Token/123.sol\":6191:6286  function mint(address to, uint256 amount) public onlyOwner {... */\n    tag_77:\n        /* \"@openzeppelin/contracts-upgradeable/access/OwnableUpgradeable.sol\":2334:2347  _checkOwner() */\n      tag_189\n        /* \"@openzeppelin/contracts-upgradeable/access/OwnableUpgradeable.sol\":2334:2345  _checkOwner */\n      tag_190\n        /* \"@openzeppelin/contracts-upgradeable/access/OwnableUpgradeable.sol\":2334:2347  _checkOwner() */\n      jump\t// in\n    tag_189:\n        /* \"Token/123.sol\":6261:6278  _mint(to, amount) */\n      tag_192\n        /* \"Token/123.sol\":6267:6269  to */\n      dup3\n        /* \"Token/123.sol\":6271:6277  amount */\n      dup3\n        /* \"Token/123.sol\":6261:6266  _mint */\n      tag_193\n        /* \"Token/123.sol\":6261:6278  _mint(to, amount) */\n      jump\t// in\n    tag_192:\n        /* \"Token/123.sol\":6191:6286  function mint(address to, uint256 amount) public onlyOwner {... */\n      pop\n      pop\n      jump\t// out\n        /* \"@openzeppelin/contracts-upgradeable/token/ERC20/extensions/ERC20BurnableUpgradeable.sol\":931:1018  function burn(uint256 value) public virtual {... */\n    tag_81:\n        /* \"@openzeppelin/contracts-upgradeable/token/ERC20/extensions/ERC20BurnableUpgradeable.sol\":985:1011  _burn(_msgSender(), value) */\n      tag_195\n        /* \"@openzeppelin/contracts-upgradeable/token/ERC20/extensions/ERC20BurnableUpgradeable.sol\":991:1003  _msgSender() */\n      tag_196\n        /* \"@openzeppelin/contracts-upgradeable/token/ERC20/extensions/ERC20BurnableUpgradeable.sol\":991:1001  _msgSender */\n      tag_176\n        /* \"@openzeppelin/contracts-upgradeable/token/ERC20/extensions/ERC20BurnableUpgradeable.sol\":991:1003  _msgSender() */\n      jump\t// in\n    tag_196:\n        /* \"@openzeppelin/contracts-upgradeable/token/ERC20/extensions/ERC20BurnableUpgradeable.sol\":1005:1010  value */\n      dup3\n        /* \"@openzeppelin/contracts-upgradeable/token/ERC20/extensions/ERC20BurnableUpgradeable.sol\":985:990  _burn */\n      tag_197\n        /* \"@openzeppelin/contracts-upgradeable/token/ERC20/extensions/ERC20BurnableUpgradeable.sol\":985:1011  _burn(_msgSender(), value) */\n      jump\t// in\n    tag_195:\n        /* \"@openzeppelin/contracts-upgradeable/token/ERC20/extensions/ERC20BurnableUpgradeable.sol\":931:1018  function burn(uint256 value) public virtual {... */\n      pop\n      jump\t// out\n        /* \"Token/123.sol\":10334:10584  function addToBlacklist(address account) external onlyOwner{... */\n    tag_85:\n        /* \"@openzeppelin/contracts-upgradeable/access/OwnableUpgradeable.sol\":2334:2347  _checkOwner() */\n      tag_199\n        /* \"@openzeppelin/contracts-upgradeable/access/OwnableUpgradeable.sol\":2334:2345  _checkOwner */\n      tag_190\n        /* \"@openzeppelin/contracts-upgradeable/access/OwnableUpgradeable.sol\":2334:2347  _checkOwner() */\n      jump\t// in\n    tag_199:\n        /* \"Token/123.sol\":10413:10425  _blacklisted */\n      0x08\n        /* \"Token/123.sol\":10413:10434  _blacklisted[account] */\n      0x00\n        /* \"Token/123.sol\":10426:10433  account */\n      dup3\n        /* \"Token/123.sol\":10413:10434  _blacklisted[account] */\n      0xffffffffffffffffffffffffffffffffffffffff\n      and\n      0xffffffffffffffffffffffffffffffffffffffff\n      and\n      dup2\n      mstore\n      0x20\n      add\n      swap1\n      dup2\n      mstore\n      0x20\n      add\n      0x00\n      keccak256\n      0x00\n      swap1\n      sload\n      swap1\n      0x0100\n      exp\n      swap1\n      div\n      0xff\n      and\n        /* \"Token/123.sol\":10412:10434  !_blacklisted[account] */\n      iszero\n        /* \"Token/123.sol\":10404:10469  require(!_blacklisted[account], \"Account is already blacklisted\") */\n      tag_201\n      jumpi\n      mload(0x40)\n      0x08c379a000000000000000000000000000000000000000000000000000000000\n      dup2\n      mstore\n      0x04\n      add\n      tag_202\n      swap1\n      tag_203\n      jump\t// in\n    tag_202:\n      mload(0x40)\n      dup1\n      swap2\n      sub\n      swap1\n      revert\n    tag_201:\n        /* \"Token/123.sol\":10504:10511  account */\n      dup1\n        /* \"Token/123.sol\":10488:10511  _msgSender() != account */\n      0xffffffffffffffffffffffffffffffffffffffff\n      and\n        /* \"Token/123.sol\":10488:10500  _msgSender() */\n      tag_204\n        /* \"Token/123.sol\":10488:10498  _msgSender */\n      tag_176\n        /* \"Token/123.sol\":10488:10500  _msgSender() */\n      jump\t// in\n    tag_204:\n        /* \"Token/123.sol\":10488:10511  _msgSender() != account */\n      0xffffffffffffffffffffffffffffffffffffffff\n      and\n      sub\n        /* \"Token/123.sol\":10480:10537  require(_msgSender() != account, \"Cannot blacklist self\") */\n      tag_205\n      jumpi\n      mload(0x40)\n      0x08c379a000000000000000000000000000000000000000000000000000000000\n      dup2\n      mstore\n      0x04\n      add\n      tag_206\n      swap1\n      tag_207\n      jump\t// in\n    tag_206:\n      mload(0x40)\n      dup1\n      swap2\n      sub\n      swap1\n      revert\n    tag_205:\n        /* \"Token/123.sol\":10572:10576  true */\n      0x01\n        /* \"Token/123.sol\":10548:10560  _blacklisted */\n      0x08\n        /* \"Token/123.sol\":10548:10569  _blacklisted[account] */\n      0x00\n        /* \"Token/123.sol\":10561:10568  account */\n      dup4\n        /* \"Token/123.sol\":10548:10569  _blacklisted[account] */\n      0xffffffffffffffffffffffffffffffffffffffff\n      and\n      0xffffffffffffffffffffffffffffffffffffffff\n      and\n      dup2\n      mstore\n      0x20\n      add\n      swap1\n      dup2\n      mstore\n      0x20\n      add\n      0x00\n      keccak256\n      0x00\n        /* \"Token/123.sol\":10548:10576  _blacklisted[account] = true */\n      0x0100\n      exp\n      dup2\n      sload\n      dup2\n      0xff\n      mul\n      not\n      and\n      swap1\n      dup4\n      iszero\n      iszero\n      mul\n      or\n      swap1\n      sstore\n      pop\n        /* \"Token/123.sol\":10334:10584  function addToBlacklist(address account) external onlyOwner{... */\n      pop\n      jump\t// out\n        /* \"Token/123.sol\":8202:8427  function setMaxAmount(uint256 _amount) external onlyOwner {... */\n    tag_88:\n        /* \"@openzeppelin/contracts-upgradeable/access/OwnableUpgradeable.sol\":2334:2347  _checkOwner() */\n      tag_209\n        /* \"@openzeppelin/contracts-upgradeable/access/OwnableUpgradeable.sol\":2334:2345  _checkOwner */\n      tag_190\n        /* \"@openzeppelin/contracts-upgradeable/access/OwnableUpgradeable.sol\":2334:2347  _checkOwner() */\n      jump\t// in\n    tag_209:\n        /* \"Token/123.sol\":8289:8290  0 */\n      0x00\n        /* \"Token/123.sol\":8279:8286  _amount */\n      dup2\n        /* \"Token/123.sol\":8279:8290  _amount > 0 */\n      gt\n        /* \"Token/123.sol\":8271:8324  require(_amount > 0,\"amount should be greate than 0\") */\n      tag_211\n      jumpi\n      mload(0x40)\n      0x08c379a000000000000000000000000000000000000000000000000000000000\n      dup2\n      mstore\n      0x04\n      add\n      tag_212\n      swap1\n      tag_213\n      jump\t// in\n    tag_212:\n      mload(0x40)\n      dup1\n      swap2\n      sub\n      swap1\n      revert\n    tag_211:\n        /* \"Token/123.sol\":8358:8365  _amount */\n      dup1\n        /* \"Token/123.sol\":8335:8355  maxTransactionAmount */\n      0x06\n        /* \"Token/123.sol\":8335:8365  maxTransactionAmount = _amount */\n      dup2\n      swap1\n      sstore\n      pop\n        /* \"Token/123.sol\":8381:8419  UpdatedMaxAmount(maxTransactionAmount) */\n      0x44d540c6079791f805bc9b5d5a643dbf1f545ec260212b2b2478ef9d9ed0768e\n        /* \"Token/123.sol\":8398:8418  maxTransactionAmount */\n      sload(0x06)\n        /* \"Token/123.sol\":8381:8419  UpdatedMaxAmount(maxTransactionAmount) */\n      mload(0x40)\n      tag_214\n      swap2\n      swap1\n      tag_58\n      jump\t// in\n    tag_214:\n      mload(0x40)\n      dup1\n      swap2\n      sub\n      swap1\n      log1\n        /* \"Token/123.sol\":8202:8427  function setMaxAmount(uint256 _amount) external onlyOwner {... */\n      pop\n      jump\t// out\n        /* \"Token/123.sol\":10913:11176  function removeFromBlacklist(address account) external onlyOwner{... */\n    tag_91:\n        /* \"@openzeppelin/contracts-upgradeable/access/OwnableUpgradeable.sol\":2334:2347  _checkOwner() */\n      tag_216\n        /* \"@openzeppelin/contracts-upgradeable/access/OwnableUpgradeable.sol\":2334:2345  _checkOwner */\n      tag_190\n        /* \"@openzeppelin/contracts-upgradeable/access/OwnableUpgradeable.sol\":2334:2347  _checkOwner() */\n      jump\t// in\n    tag_216:\n        /* \"Token/123.sol\":10996:11008  _blacklisted */\n      0x08\n        /* \"Token/123.sol\":10996:11017  _blacklisted[account] */\n      0x00\n        /* \"Token/123.sol\":11009:11016  account */\n      dup3\n        /* \"Token/123.sol\":10996:11017  _blacklisted[account] */\n      0xffffffffffffffffffffffffffffffffffffffff\n      and\n      0xffffffffffffffffffffffffffffffffffffffff\n      and\n      dup2\n      mstore\n      0x20\n      add\n      swap1\n      dup2\n      mstore\n      0x20\n      add\n      0x00\n      keccak256\n      0x00\n      swap1\n      sload\n      swap1\n      0x0100\n      exp\n      swap1\n      div\n      0xff\n      and\n        /* \"Token/123.sol\":10988:11048  require(_blacklisted[account], \"Account is not blacklisted\") */\n      tag_218\n      jumpi\n      mload(0x40)\n      0x08c379a000000000000000000000000000000000000000000000000000000000\n      dup2\n      mstore\n      0x04\n      add\n      tag_219\n      swap1\n      tag_220\n      jump\t// in\n    tag_219:\n      mload(0x40)\n      dup1\n      swap2\n      sub\n      swap1\n      revert\n    tag_218:\n        /* \"Token/123.sol\":11083:11090  account */\n      dup1\n        /* \"Token/123.sol\":11067:11090  _msgSender() != account */\n      0xffffffffffffffffffffffffffffffffffffffff\n      and\n        /* \"Token/123.sol\":11067:11079  _msgSender() */\n      tag_221\n        /* \"Token/123.sol\":11067:11077  _msgSender */\n      tag_176\n        /* \"Token/123.sol\":11067:11079  _msgSender() */\n      jump\t// in\n    tag_221:\n        /* \"Token/123.sol\":11067:11090  _msgSender() != account */\n      0xffffffffffffffffffffffffffffffffffffffff\n      and\n      sub\n        /* \"Token/123.sol\":11059:11128  require(_msgSender() != account, \"Cannot remove self from blacklist\") */\n      tag_222\n      jumpi\n      mload(0x40)\n      0x08c379a000000000000000000000000000000000000000000000000000000000\n      dup2\n      mstore\n      0x04\n      add\n      tag_223\n      swap1\n      tag_224\n      jump\t// in\n    tag_223:\n      mload(0x40)\n      dup1\n      swap2\n      sub\n      swap1\n      revert\n    tag_222:\n        /* \"Token/123.sol\":11163:11168  false */\n      0x00\n        /* \"Token/123.sol\":11139:11151  _blacklisted */\n      0x08\n        /* \"Token/123.sol\":11139:11160  _blacklisted[account] */\n      0x00\n        /* \"Token/123.sol\":11152:11159  account */\n      dup4\n        /* \"Token/123.sol\":11139:11160  _blacklisted[account] */\n      0xffffffffffffffffffffffffffffffffffffffff\n      and\n      0xffffffffffffffffffffffffffffffffffffffff\n      and\n      dup2\n      mstore\n      0x20\n      add\n      swap1\n      dup2\n      mstore\n      0x20\n      add\n      0x00\n      keccak256\n      0x00\n        /* \"Token/123.sol\":11139:11168  _blacklisted[account] = false */\n      0x0100\n      exp\n      dup2\n      sload\n      dup2\n      0xff\n      mul\n      not\n      and\n      swap1\n      dup4\n      iszero\n      iszero\n      mul\n      or\n      swap1\n      sstore\n      pop\n        /* \"Token/123.sol\":10913:11176  function removeFromBlacklist(address account) external onlyOwner{... */\n      pop\n      jump\t// out\n        /* \"Token/123.sol\":8703:8946  function setMarketingWallet(address _wallet) external onlyOwner {... */\n    tag_94:\n        /* \"@openzeppelin/contracts-upgradeable/access/OwnableUpgradeable.sol\":2334:2347  _checkOwner() */\n      tag_226\n        /* \"@openzeppelin/contracts-upgradeable/access/OwnableUpgradeable.sol\":2334:2345  _checkOwner */\n      tag_190\n        /* \"@openzeppelin/contracts-upgradeable/access/OwnableUpgradeable.sol\":2334:2347  _checkOwner() */\n      jump\t// in\n    tag_226:\n        /* \"Token/123.sol\":8804:8805  0 */\n      0x00\n        /* \"Token/123.sol\":8785:8806  _wallet != address(0) */\n      0xffffffffffffffffffffffffffffffffffffffff\n      and\n        /* \"Token/123.sol\":8785:8792  _wallet */\n      dup2\n        /* \"Token/123.sol\":8785:8806  _wallet != address(0) */\n      0xffffffffffffffffffffffffffffffffffffffff\n      and\n      sub\n        /* \"Token/123.sol\":8777:8849  require(_wallet != address(0),\"Marketing wallet cannot be zero address\") */\n      tag_228\n      jumpi\n      mload(0x40)\n      0x08c379a000000000000000000000000000000000000000000000000000000000\n      dup2\n      mstore\n      0x04\n      add\n      tag_229\n      swap1\n      tag_230\n      jump\t// in\n    tag_229:\n      mload(0x40)\n      dup1\n      swap2\n      sub\n      swap1\n      revert\n    tag_228:\n        /* \"Token/123.sol\":8877:8884  _wallet */\n      dup1\n        /* \"Token/123.sol\":8859:8874  marketingWallet */\n      0x00\n      dup1\n        /* \"Token/123.sol\":8859:8884  marketingWallet = _wallet */\n      0x0100\n      exp\n      dup2\n      sload\n      dup2\n      0xffffffffffffffffffffffffffffffffffffffff\n      mul\n      not\n      and\n      swap1\n      dup4\n      0xffffffffffffffffffffffffffffffffffffffff\n      and\n      mul\n      or\n      swap1\n      sstore\n      pop\n        /* \"Token/123.sol\":8899:8938  UpdatedMarketingWallet(marketingWallet) */\n      0x2026f0b479f097ea9d4c74dac26e5271ba4d59931603970da5458ea8aa3dcf37\n        /* \"Token/123.sol\":8922:8937  marketingWallet */\n      0x00\n      dup1\n      sload\n      swap1\n      0x0100\n      exp\n      swap1\n      div\n      0xffffffffffffffffffffffffffffffffffffffff\n      and\n        /* \"Token/123.sol\":8899:8938  UpdatedMarketingWallet(marketingWallet) */\n      mload(0x40)\n      tag_231\n      swap2\n      swap1\n      tag_110\n      jump\t// in\n    tag_231:\n      mload(0x40)\n      dup1\n      swap2\n      sub\n      swap1\n      log1\n        /* \"Token/123.sol\":8703:8946  function setMarketingWallet(address _wallet) external onlyOwner {... */\n      pop\n      jump\t// out\n        /* \"Token/123.sol\":7627:7916  function setSustainabilityWalletTax(uint256 _taxPercentage) external onlyOwner {... */\n    tag_97:\n        /* \"@openzeppelin/contracts-upgradeable/access/OwnableUpgradeable.sol\":2334:2347  _checkOwner() */\n      tag_233\n        /* \"@openzeppelin/contracts-upgradeable/access/OwnableUpgradeable.sol\":2334:2345  _checkOwner */\n      tag_190\n        /* \"@openzeppelin/contracts-upgradeable/access/OwnableUpgradeable.sol\":2334:2347  _checkOwner() */\n      jump\t// in\n    tag_233:\n        /* \"Token/123.sol\":7743:7748  10000 */\n      0x2710\n        /* \"Token/123.sol\":7725:7739  _taxPercentage */\n      dup2\n        /* \"Token/123.sol\":7725:7748  _taxPercentage <= 10000 */\n      gt\n      iszero\n        /* \"Token/123.sol\":7717:7785  require(_taxPercentage <= 10000,\"Tax percentage cannot exceed 100%\") */\n      tag_235\n      jumpi\n      mload(0x40)\n      0x08c379a000000000000000000000000000000000000000000000000000000000\n      dup2\n      mstore\n      0x04\n      add\n      tag_236\n      swap1\n      tag_237\n      jump\t// in\n    tag_236:\n      mload(0x40)\n      dup1\n      swap2\n      sub\n      swap1\n      revert\n    tag_235:\n        /* \"Token/123.sol\":7822:7836  _taxPercentage */\n      dup1\n        /* \"Token/123.sol\":7796:7819  sustainabilityWalletTax */\n      0x05\n        /* \"Token/123.sol\":7796:7836  sustainabilityWalletTax = _taxPercentage */\n      dup2\n      swap1\n      sstore\n      pop\n        /* \"Token/123.sol\":7852:7908  UpdatedtSustainabilityWalletTax(sustainabilityWalletTax) */\n      0x28ad5f14a54b644d089d89d6140175fbbf7199a6fa1275e827904c157f491546\n        /* \"Token/123.sol\":7884:7907  sustainabilityWalletTax */\n      sload(0x05)\n        /* \"Token/123.sol\":7852:7908  UpdatedtSustainabilityWalletTax(sustainabilityWalletTax) */\n      mload(0x40)\n      tag_238\n      swap2\n      swap1\n      tag_58\n      jump\t// in\n    tag_238:\n      mload(0x40)\n      dup1\n      swap2\n      sub\n      swap1\n      log1\n        /* \"Token/123.sol\":7627:7916  function setSustainabilityWalletTax(uint256 _taxPercentage) external onlyOwner {... */\n      pop\n      jump\t// out\n        /* \"@openzeppelin/contracts-upgradeable/token/ERC20/ERC20Upgradeable.sol\":4401:4572  function balanceOf(address account) public view virtual returns (uint256) {... */\n    tag_100:\n        /* \"@openzeppelin/contracts-upgradeable/token/ERC20/ERC20Upgradeable.sol\":4466:4473  uint256 */\n      0x00\n        /* \"@openzeppelin/contracts-upgradeable/token/ERC20/ERC20Upgradeable.sol\":4485:4507  ERC20Storage storage $ */\n      dup1\n        /* \"@openzeppelin/contracts-upgradeable/token/ERC20/ERC20Upgradeable.sol\":4510:4528  _getERC20Storage() */\n      tag_240\n        /* \"@openzeppelin/contracts-upgradeable/token/ERC20/ERC20Upgradeable.sol\":4510:4526  _getERC20Storage */\n      tag_167\n        /* \"@openzeppelin/contracts-upgradeable/token/ERC20/ERC20Upgradeable.sol\":4510:4528  _getERC20Storage() */\n      jump\t// in\n    tag_240:\n        /* \"@openzeppelin/contracts-upgradeable/token/ERC20/ERC20Upgradeable.sol\":4485:4528  ERC20Storage storage $ = _getERC20Storage() */\n      swap1\n      pop\n        /* \"@openzeppelin/contracts-upgradeable/token/ERC20/ERC20Upgradeable.sol\":4545:4546  $ */\n      dup1\n        /* \"@openzeppelin/contracts-upgradeable/token/ERC20/ERC20Upgradeable.sol\":4545:4556  $._balances */\n      0x00\n      add\n        /* \"@openzeppelin/contracts-upgradeable/token/ERC20/ERC20Upgradeable.sol\":4545:4565  $._balances[account] */\n      0x00\n        /* \"@openzeppelin/contracts-upgradeable/token/ERC20/ERC20Upgradeable.sol\":4557:4564  account */\n      dup5\n        /* \"@openzeppelin/contracts-upgradeable/token/ERC20/ERC20Upgradeable.sol\":4545:4565  $._balances[account] */\n      0xffffffffffffffffffffffffffffffffffffffff\n      and\n      0xffffffffffffffffffffffffffffffffffffffff\n      and\n      dup2\n      mstore\n      0x20\n      add\n      swap1\n      dup2\n      mstore\n      0x20\n      add\n      0x00\n      keccak256\n      sload\n        /* \"@openzeppelin/contracts-upgradeable/token/ERC20/ERC20Upgradeable.sol\":4538:4565  return $._balances[account] */\n      swap2\n      pop\n      pop\n        /* \"@openzeppelin/contracts-upgradeable/token/ERC20/ERC20Upgradeable.sol\":4401:4572  function balanceOf(address account) public view virtual returns (uint256) {... */\n      swap2\n      swap1\n      pop\n      jump\t// out\n        /* \"@openzeppelin/contracts-upgradeable/access/OwnableUpgradeable.sol\":3155:3256  function renounceOwnership() public virtual onlyOwner {... */\n    tag_103:\n        /* \"@openzeppelin/contracts-upgradeable/access/OwnableUpgradeable.sol\":2334:2347  _checkOwner() */\n      tag_242\n        /* \"@openzeppelin/contracts-upgradeable/access/OwnableUpgradeable.sol\":2334:2345  _checkOwner */\n      tag_190\n        /* \"@openzeppelin/contracts-upgradeable/access/OwnableUpgradeable.sol\":2334:2347  _checkOwner() */\n      jump\t// in\n    tag_242:\n        /* \"@openzeppelin/contracts-upgradeable/access/OwnableUpgradeable.sol\":3219:3249  _transferOwnership(address(0)) */\n      tag_244\n        /* \"@openzeppelin/contracts-upgradeable/access/OwnableUpgradeable.sol\":3246:3247  0 */\n      0x00\n        /* \"@openzeppelin/contracts-upgradeable/access/OwnableUpgradeable.sol\":3219:3237  _transferOwnership */\n      tag_245\n        /* \"@openzeppelin/contracts-upgradeable/access/OwnableUpgradeable.sol\":3219:3249  _transferOwnership(address(0)) */\n      jump\t// in\n    tag_244:\n        /* \"@openzeppelin/contracts-upgradeable/access/OwnableUpgradeable.sol\":3155:3256  function renounceOwnership() public virtual onlyOwner {... */\n      jump\t// out\n        /* \"Token/123.sol\":9227:9475  function setDevelopmentWallet(address _wallet) external onlyOwner {... */\n    tag_106:\n        /* \"@openzeppelin/contracts-upgradeable/access/OwnableUpgradeable.sol\":2334:2347  _checkOwner() */\n      tag_247\n        /* \"@openzeppelin/contracts-upgradeable/access/OwnableUpgradeable.sol\":2334:2345  _checkOwner */\n      tag_190\n        /* \"@openzeppelin/contracts-upgradeable/access/OwnableUpgradeable.sol\":2334:2347  _checkOwner() */\n      jump\t// in\n    tag_247:\n        /* \"Token/123.sol\":9331:9332  0 */\n      0x00\n        /* \"Token/123.sol\":9312:9333  _wallet != address(0) */\n      0xffffffffffffffffffffffffffffffffffffffff\n      and\n        /* \"Token/123.sol\":9312:9319  _wallet */\n      dup2\n        /* \"Token/123.sol\":9312:9333  _wallet != address(0) */\n      0xffffffffffffffffffffffffffffffffffffffff\n      and\n      sub\n        /* \"Token/123.sol\":9304:9370  require(_wallet != address(0),\"Dev wallet cannot be zero address\") */\n      tag_249\n      jumpi\n      mload(0x40)\n      0x08c379a000000000000000000000000000000000000000000000000000000000\n      dup2\n      mstore\n      0x04\n      add\n      tag_250\n      swap1\n      tag_251\n      jump\t// in\n    tag_250:\n      mload(0x40)\n      dup1\n      swap2\n      sub\n      swap1\n      revert\n    tag_249:\n        /* \"Token/123.sol\":9401:9408  _wallet */\n      dup1\n        /* \"Token/123.sol\":9381:9398  developmentWallet */\n      0x01\n      0x00\n        /* \"Token/123.sol\":9381:9408  developmentWallet = _wallet */\n      0x0100\n      exp\n      dup2\n      sload\n      dup2\n      0xffffffffffffffffffffffffffffffffffffffff\n      mul\n      not\n      and\n      swap1\n      dup4\n      0xffffffffffffffffffffffffffffffffffffffff\n      and\n      mul\n      or\n      swap1\n      sstore\n      pop\n        /* \"Token/123.sol\":9424:9467  UpdatedDevelopmentWallet(developmentWallet) */\n      0x7404946ba3969d72cc11e8a0c21a8ab3b8dddeb41e78f235dfad9ffcda3f617c\n        /* \"Token/123.sol\":9449:9466  developmentWallet */\n      0x01\n      0x00\n      swap1\n      sload\n      swap1\n      0x0100\n      exp\n      swap1\n      div\n      0xffffffffffffffffffffffffffffffffffffffff\n      and\n        /* \"Token/123.sol\":9424:9467  UpdatedDevelopmentWallet(developmentWallet) */\n      mload(0x40)\n      tag_252\n      swap2\n      swap1\n      tag_110\n      jump\t// in\n    tag_252:\n      mload(0x40)\n      dup1\n      swap2\n      sub\n      swap1\n      log1\n        /* \"Token/123.sol\":9227:9475  function setDevelopmentWallet(address _wallet) external onlyOwner {... */\n      pop\n      jump\t// out\n        /* \"Token/123.sol\":2655:2686  address public  marketingWallet */\n    tag_108:\n      0x00\n      dup1\n      sload\n      swap1\n      0x0100\n      exp\n      swap1\n      div\n      0xffffffffffffffffffffffffffffffffffffffff\n      and\n      dup2\n      jump\t// out\n        /* \"@openzeppelin/contracts-upgradeable/token/ERC20/extensions/ERC20BurnableUpgradeable.sol\":1334:1492  function burnFrom(address account, uint256 value) public virtual {... */\n    tag_113:\n        /* \"@openzeppelin/contracts-upgradeable/token/ERC20/extensions/ERC20BurnableUpgradeable.sol\":1409:1454  _spendAllowance(account, _msgSender(), value) */\n      tag_254\n        /* \"@openzeppelin/contracts-upgradeable/token/ERC20/extensions/ERC20BurnableUpgradeable.sol\":1425:1432  account */\n      dup3\n        /* \"@openzeppelin/contracts-upgradeable/token/ERC20/extensions/ERC20BurnableUpgradeable.sol\":1434:1446  _msgSender() */\n      tag_255\n        /* \"@openzeppelin/contracts-upgradeable/token/ERC20/extensions/ERC20BurnableUpgradeable.sol\":1434:1444  _msgSender */\n      tag_176\n        /* \"@openzeppelin/contracts-upgradeable/token/ERC20/extensions/ERC20BurnableUpgradeable.sol\":1434:1446  _msgSender() */\n      jump\t// in\n    tag_255:\n        /* \"@openzeppelin/contracts-upgradeable/token/ERC20/extensions/ERC20BurnableUpgradeable.sol\":1448:1453  value */\n      dup4\n        /* \"@openzeppelin/contracts-upgradeable/token/ERC20/extensions/ERC20BurnableUpgradeable.sol\":1409:1424  _spendAllowance */\n      tag_184\n        /* \"@openzeppelin/contracts-upgradeable/token/ERC20/extensions/ERC20BurnableUpgradeable.sol\":1409:1454  _spendAllowance(account, _msgSender(), value) */\n      jump\t// in\n    tag_254:\n        /* \"@openzeppelin/contracts-upgradeable/token/ERC20/extensions/ERC20BurnableUpgradeable.sol\":1464:1485  _burn(account, value) */\n      tag_256\n        /* \"@openzeppelin/contracts-upgradeable/token/ERC20/extensions/ERC20BurnableUpgradeable.sol\":1470:1477  account */\n      dup3\n        /* \"@openzeppelin/contracts-upgradeable/token/ERC20/extensions/ERC20BurnableUpgradeable.sol\":1479:1484  value */\n      dup3\n        /* \"@openzeppelin/contracts-upgradeable/token/ERC20/extensions/ERC20BurnableUpgradeable.sol\":1464:1469  _burn */\n      tag_197\n        /* \"@openzeppelin/contracts-upgradeable/token/ERC20/extensions/ERC20BurnableUpgradeable.sol\":1464:1485  _burn(account, value) */\n      jump\t// in\n    tag_256:\n        /* \"@openzeppelin/contracts-upgradeable/token/ERC20/extensions/ERC20BurnableUpgradeable.sol\":1334:1492  function burnFrom(address account, uint256 value) public virtual {... */\n      pop\n      pop\n      jump\t// out\n        /* \"Token/123.sol\":4498:5901  function initialize() public initializer {... */\n    tag_115:\n        /* \"@openzeppelin/contracts-upgradeable/proxy/utils/Initializable.sol\":4158:4188  InitializableStorage storage $ */\n      0x00\n        /* \"@openzeppelin/contracts-upgradeable/proxy/utils/Initializable.sol\":4191:4217  _getInitializableStorage() */\n      tag_258\n        /* \"@openzeppelin/contracts-upgradeable/proxy/utils/Initializable.sol\":4191:4215  _getInitializableStorage */\n      tag_259\n        /* \"@openzeppelin/contracts-upgradeable/proxy/utils/Initializable.sol\":4191:4217  _getInitializableStorage() */\n      jump\t// in\n    tag_258:\n        /* \"@openzeppelin/contracts-upgradeable/proxy/utils/Initializable.sol\":4158:4217  InitializableStorage storage $ = _getInitializableStorage() */\n      swap1\n      pop\n        /* \"@openzeppelin/contracts-upgradeable/proxy/utils/Initializable.sol\":4279:4298  bool isTopLevelCall */\n      0x00\n        /* \"@openzeppelin/contracts-upgradeable/proxy/utils/Initializable.sol\":4302:4303  $ */\n      dup2\n        /* \"@openzeppelin/contracts-upgradeable/proxy/utils/Initializable.sol\":4302:4317  $._initializing */\n      0x00\n      add\n      0x08\n      swap1\n      sload\n      swap1\n      0x0100\n      exp\n      swap1\n      div\n      0xff\n      and\n        /* \"@openzeppelin/contracts-upgradeable/proxy/utils/Initializable.sol\":4301:4317  !$._initializing */\n      iszero\n        /* \"@openzeppelin/contracts-upgradeable/proxy/utils/Initializable.sol\":4279:4317  bool isTopLevelCall = !$._initializing */\n      swap1\n      pop\n        /* \"@openzeppelin/contracts-upgradeable/proxy/utils/Initializable.sol\":4327:4345  uint64 initialized */\n      0x00\n        /* \"@openzeppelin/contracts-upgradeable/proxy/utils/Initializable.sol\":4348:4349  $ */\n      dup3\n        /* \"@openzeppelin/contracts-upgradeable/proxy/utils/Initializable.sol\":4348:4362  $._initialized */\n      0x00\n      add\n      0x00\n      swap1\n      sload\n      swap1\n      0x0100\n      exp\n      swap1\n      div\n      0xffffffffffffffff\n      and\n        /* \"@openzeppelin/contracts-upgradeable/proxy/utils/Initializable.sol\":4327:4362  uint64 initialized = $._initialized */\n      swap1\n      pop\n        /* \"@openzeppelin/contracts-upgradeable/proxy/utils/Initializable.sol\":4706:4723  bool initialSetup */\n      0x00\n        /* \"@openzeppelin/contracts-upgradeable/proxy/utils/Initializable.sol\":4741:4742  0 */\n      dup1\n        /* \"@openzeppelin/contracts-upgradeable/proxy/utils/Initializable.sol\":4726:4737  initialized */\n      dup3\n        /* \"@openzeppelin/contracts-upgradeable/proxy/utils/Initializable.sol\":4726:4742  initialized == 0 */\n      0xffffffffffffffff\n      and\n      eq\n        /* \"@openzeppelin/contracts-upgradeable/proxy/utils/Initializable.sol\":4726:4760  initialized == 0 && isTopLevelCall */\n      dup1\n      iszero\n      tag_260\n      jumpi\n      pop\n        /* \"@openzeppelin/contracts-upgradeable/proxy/utils/Initializable.sol\":4746:4760  isTopLevelCall */\n      dup3\n        /* \"@openzeppelin/contracts-upgradeable/proxy/utils/Initializable.sol\":4726:4760  initialized == 0 && isTopLevelCall */\n    tag_260:\n        /* \"@openzeppelin/contracts-upgradeable/proxy/utils/Initializable.sol\":4706:4760  bool initialSetup = initialized == 0 && isTopLevelCall */\n      swap1\n      pop\n        /* \"@openzeppelin/contracts-upgradeable/proxy/utils/Initializable.sol\":4770:4787  bool construction */\n      0x00\n        /* \"@openzeppelin/contracts-upgradeable/proxy/utils/Initializable.sol\":4805:4806  1 */\n      0x01\n        /* \"@openzeppelin/contracts-upgradeable/proxy/utils/Initializable.sol\":4790:4801  initialized */\n      dup4\n        /* \"@openzeppelin/contracts-upgradeable/proxy/utils/Initializable.sol\":4790:4806  initialized == 1 */\n      0xffffffffffffffff\n      and\n      eq\n        /* \"@openzeppelin/contracts-upgradeable/proxy/utils/Initializable.sol\":4790:4840  initialized == 1 && address(this).code.length == 0 */\n      dup1\n      iszero\n      tag_261\n      jumpi\n      pop\n        /* \"@openzeppelin/contracts-upgradeable/proxy/utils/Initializable.sol\":4839:4840  0 */\n      0x00\n        /* \"@openzeppelin/contracts-upgradeable/proxy/utils/Initializable.sol\":4818:4822  this */\n      address\n        /* \"@openzeppelin/contracts-upgradeable/proxy/utils/Initializable.sol\":4810:4835  address(this).code.length */\n      0xffffffffffffffffffffffffffffffffffffffff\n      and\n      extcodesize\n        /* \"@openzeppelin/contracts-upgradeable/proxy/utils/Initializable.sol\":4810:4840  address(this).code.length == 0 */\n      eq\n        /* \"@openzeppelin/contracts-upgradeable/proxy/utils/Initializable.sol\":4790:4840  initialized == 1 && address(this).code.length == 0 */\n    tag_261:\n        /* \"@openzeppelin/contracts-upgradeable/proxy/utils/Initializable.sol\":4770:4840  bool construction = initialized == 1 && address(this).code.length == 0 */\n      swap1\n      pop\n        /* \"@openzeppelin/contracts-upgradeable/proxy/utils/Initializable.sol\":4856:4868  initialSetup */\n      dup2\n        /* \"@openzeppelin/contracts-upgradeable/proxy/utils/Initializable.sol\":4855:4868  !initialSetup */\n      iszero\n        /* \"@openzeppelin/contracts-upgradeable/proxy/utils/Initializable.sol\":4855:4885  !initialSetup && !construction */\n      dup1\n      iszero\n      tag_262\n      jumpi\n      pop\n        /* \"@openzeppelin/contracts-upgradeable/proxy/utils/Initializable.sol\":4873:4885  construction */\n      dup1\n        /* \"@openzeppelin/contracts-upgradeable/proxy/utils/Initializable.sol\":4872:4885  !construction */\n      iszero\n        /* \"@openzeppelin/contracts-upgradeable/proxy/utils/Initializable.sol\":4855:4885  !initialSetup && !construction */\n    tag_262:\n        /* \"@openzeppelin/contracts-upgradeable/proxy/utils/Initializable.sol\":4851:4942  if (!initialSetup && !construction) {... */\n      iszero\n      tag_263\n      jumpi\n        /* \"@openzeppelin/contracts-upgradeable/proxy/utils/Initializable.sol\":4908:4931  InvalidInitialization() */\n      mload(0x40)\n      0xf92ee8a900000000000000000000000000000000000000000000000000000000\n      dup2\n      mstore\n      0x04\n      add\n      mload(0x40)\n      dup1\n      swap2\n      sub\n      swap1\n      revert\n        /* \"@openzeppelin/contracts-upgradeable/proxy/utils/Initializable.sol\":4851:4942  if (!initialSetup && !construction) {... */\n    tag_263:\n        /* \"@openzeppelin/contracts-upgradeable/proxy/utils/Initializable.sol\":4968:4969  1 */\n      0x01\n        /* \"@openzeppelin/contracts-upgradeable/proxy/utils/Initializable.sol\":4951:4952  $ */\n      dup6\n        /* \"@openzeppelin/contracts-upgradeable/proxy/utils/Initializable.sol\":4951:4965  $._initialized */\n      0x00\n      add\n      0x00\n        /* \"@openzeppelin/contracts-upgradeable/proxy/utils/Initializable.sol\":4951:4969  $._initialized = 1 */\n      0x0100\n      exp\n      dup2\n      sload\n      dup2\n      0xffffffffffffffff\n      mul\n      not\n      and\n      swap1\n      dup4\n      0xffffffffffffffff\n      and\n      mul\n      or\n      swap1\n      sstore\n      pop\n        /* \"@openzeppelin/contracts-upgradeable/proxy/utils/Initializable.sol\":4983:4997  isTopLevelCall */\n      dup4\n        /* \"@openzeppelin/contracts-upgradeable/proxy/utils/Initializable.sol\":4979:5046  if (isTopLevelCall) {... */\n      iszero\n      tag_264\n      jumpi\n        /* \"@openzeppelin/contracts-upgradeable/proxy/utils/Initializable.sol\":5031:5035  true */\n      0x01\n        /* \"@openzeppelin/contracts-upgradeable/proxy/utils/Initializable.sol\":5013:5014  $ */\n      dup6\n        /* \"@openzeppelin/contracts-upgradeable/proxy/utils/Initializable.sol\":5013:5028  $._initializing */\n      0x00\n      add\n      0x08\n        /* \"@openzeppelin/contracts-upgradeable/proxy/utils/Initializable.sol\":5013:5035  $._initializing = true */\n      0x0100\n      exp\n      dup2\n      sload\n      dup2\n      0xff\n      mul\n      not\n      and\n      swap1\n      dup4\n      iszero\n      iszero\n      mul\n      or\n      swap1\n      sstore\n      pop\n        /* \"@openzeppelin/contracts-upgradeable/proxy/utils/Initializable.sol\":4979:5046  if (isTopLevelCall) {... */\n    tag_264:\n        /* \"Token/123.sol\":4550:4576  __Ownable_init(msg.sender) */\n      tag_266\n        /* \"Token/123.sol\":4565:4575  msg.sender */\n      caller\n        /* \"Token/123.sol\":4550:4564  __Ownable_init */\n      tag_267\n        /* \"Token/123.sol\":4550:4576  __Ownable_init(msg.sender) */\n      jump\t// in\n    tag_266:\n        /* \"Token/123.sol\":4587:4609  __ERC20Burnable_init() */\n      tag_268\n        /* \"Token/123.sol\":4587:4607  __ERC20Burnable_init */\n      tag_269\n        /* \"Token/123.sol\":4587:4609  __ERC20Burnable_init() */\n      jump\t// in\n    tag_268:\n        /* \"Token/123.sol\":4620:4651  __ERC20_init(\"Trabajo24\",\"T24\") */\n      tag_270\n      mload(0x40)\n      dup1\n      0x40\n      add\n      0x40\n      mstore\n      dup1\n      0x09\n      dup2\n      mstore\n      0x20\n      add\n      0x54726162616a6f32340000000000000000000000000000000000000000000000\n      dup2\n      mstore\n      pop\n      mload(0x40)\n      dup1\n      0x40\n      add\n      0x40\n      mstore\n      dup1\n      0x03\n      dup2\n      mstore\n      0x20\n      add\n      0x5432340000000000000000000000000000000000000000000000000000000000\n      dup2\n      mstore\n      pop\n        /* \"Token/123.sol\":4620:4632  __ERC20_init */\n      tag_271\n        /* \"Token/123.sol\":4620:4651  __ERC20_init(\"Trabajo24\",\"T24\") */\n      jump\t// in\n    tag_270:\n        /* \"Token/123.sol\":4679:4721  0x07e43d33cE3eBe06a0BfaFfc04Aca37c4AcbD3A5 */\n      0x07e43d33ce3ebe06a0bfaffc04aca37c4acbd3a5\n        /* \"Token/123.sol\":4662:4677  marketingWallet */\n      0x00\n      dup1\n        /* \"Token/123.sol\":4662:4721  marketingWallet= 0x07e43d33cE3eBe06a0BfaFfc04Aca37c4AcbD3A5 */\n      0x0100\n      exp\n      dup2\n      sload\n      dup2\n      0xffffffffffffffffffffffffffffffffffffffff\n      mul\n      not\n      and\n      swap1\n      dup4\n      0xffffffffffffffffffffffffffffffffffffffff\n      and\n      mul\n      or\n      swap1\n      sstore\n      pop\n        /* \"Token/123.sol\":4771:4813  0x5ED81F9bC2402a2bbD78e381C9AA1edd99B90A55 */\n      0x5ed81f9bc2402a2bbd78e381c9aa1edd99b90a55\n        /* \"Token/123.sol\":4751:4768  developmentWallet */\n      0x01\n      0x00\n        /* \"Token/123.sol\":4751:4813  developmentWallet = 0x5ED81F9bC2402a2bbD78e381C9AA1edd99B90A55 */\n      0x0100\n      exp\n      dup2\n      sload\n      dup2\n      0xffffffffffffffffffffffffffffffffffffffff\n      mul\n      not\n      and\n      swap1\n      dup4\n      0xffffffffffffffffffffffffffffffffffffffff\n      and\n      mul\n      or\n      swap1\n      sstore\n      pop\n        /* \"Token/123.sol\":4868:4910  0xD436c10d791c7a9558950A251a049871811bB070 */\n      0xd436c10d791c7a9558950a251a049871811bb070\n        /* \"Token/123.sol\":4845:4865  sustainabilityWallet */\n      0x02\n      0x00\n        /* \"Token/123.sol\":4845:4910  sustainabilityWallet = 0xD436c10d791c7a9558950A251a049871811bB070 */\n      0x0100\n      exp\n      dup2\n      sload\n      dup2\n      0xffffffffffffffffffffffffffffffffffffffff\n      mul\n      not\n      and\n      swap1\n      dup4\n      0xffffffffffffffffffffffffffffffffffffffff\n      and\n      mul\n      or\n      swap1\n      sstore\n      pop\n        /* \"Token/123.sol\":4978:4988  decimals() */\n      tag_272\n        /* \"Token/123.sol\":4978:4986  decimals */\n      tag_72\n        /* \"Token/123.sol\":4978:4988  decimals() */\n      jump\t// in\n    tag_272:\n        /* \"Token/123.sol\":4972:4974  10 */\n      0x0a\n        /* \"Token/123.sol\":4972:4988  10 ** decimals() */\n      tag_273\n      swap2\n      swap1\n      tag_274\n      jump\t// in\n    tag_273:\n        /* \"Token/123.sol\":4960:4969  100000000 */\n      0x05f5e100\n        /* \"Token/123.sol\":4960:4988  100000000 * 10 ** decimals() */\n      tag_275\n      swap2\n      swap1\n      tag_276\n      jump\t// in\n    tag_275:\n        /* \"Token/123.sol\":4945:4957  _totalSupply */\n      0x07\n        /* \"Token/123.sol\":4945:4988  _totalSupply = 100000000 * 10 ** decimals() */\n      dup2\n      swap1\n      sstore\n      pop\n        /* \"Token/123.sol\":5020:5022  10 */\n      0x0a\n        /* \"Token/123.sol\":4999:5017  marketingWalletTax */\n      0x03\n        /* \"Token/123.sol\":4999:5022  marketingWalletTax = 10 */\n      dup2\n      swap1\n      sstore\n      pop\n        /* \"Token/123.sol\":5065:5067  20 */\n      0x14\n        /* \"Token/123.sol\":5042:5062  developmentWalletTax */\n      0x04\n        /* \"Token/123.sol\":5042:5067  developmentWalletTax = 20 */\n      dup2\n      swap1\n      sstore\n      pop\n        /* \"Token/123.sol\":5112:5115  150 */\n      0x96\n        /* \"Token/123.sol\":5087:5110  sustainabilityWalletTax */\n      0x05\n        /* \"Token/123.sol\":5087:5115  sustainabilityWalletTax =150 */\n      dup2\n      swap1\n      sstore\n      pop\n        /* \"Token/123.sol\":5229:5239  decimals() */\n      tag_277\n        /* \"Token/123.sol\":5229:5237  decimals */\n      tag_72\n        /* \"Token/123.sol\":5229:5239  decimals() */\n      jump\t// in\n    tag_277:\n        /* \"Token/123.sol\":5221:5240  uint256(decimals()) */\n      0xff\n      and\n        /* \"Token/123.sol\":5215:5217  10 */\n      0x0a\n        /* \"Token/123.sol\":5215:5240  10 ** uint256(decimals()) */\n      tag_278\n      swap2\n      swap1\n      tag_279\n      jump\t// in\n    tag_278:\n        /* \"Token/123.sol\":5204:5212  20000000 */\n      0x01312d00\n        /* \"Token/123.sol\":5204:5240  20000000 * 10 ** uint256(decimals()) */\n      tag_280\n      swap2\n      swap1\n      tag_276\n      jump\t// in\n    tag_280:\n        /* \"Token/123.sol\":5181:5201  maxTransactionAmount */\n      0x06\n        /* \"Token/123.sol\":5181:5240  maxTransactionAmount = 20000000 * 10 ** uint256(decimals()) */\n      dup2\n      swap1\n      sstore\n      pop\n        /* \"Token/123.sol\":5283:5313  _mint(msg.sender,_totalSupply) */\n      tag_281\n        /* \"Token/123.sol\":5289:5299  msg.sender */\n      caller\n        /* \"Token/123.sol\":5300:5312  _totalSupply */\n      sload(0x07)\n        /* \"Token/123.sol\":5283:5288  _mint */\n      tag_193\n        /* \"Token/123.sol\":5283:5313  _mint(msg.sender,_totalSupply) */\n      jump\t// in\n    tag_281:\n        /* \"Token/123.sol\":5326:5361  IUniswapV2Router02 _uniswapV2Router */\n      0x00\n        /* \"Token/123.sol\":5396:5438  0xD99D1c33F9fC3444f8101754aBC46c52416550D1 */\n      0xd99d1c33f9fc3444f8101754abc46c52416550d1\n        /* \"Token/123.sol\":5326:5464  IUniswapV2Router02 _uniswapV2Router = IUniswapV2Router02(... */\n      swap1\n      pop\n        /* \"Token/123.sol\":5496:5512  _uniswapV2Router */\n      dup1\n        /* \"Token/123.sol\":5478:5493  uniswapV2Router */\n      0x0a\n      0x00\n        /* \"Token/123.sol\":5478:5512  uniswapV2Router = _uniswapV2Router */\n      0x0100\n      exp\n      dup2\n      sload\n      dup2\n      0xffffffffffffffffffffffffffffffffffffffff\n      mul\n      not\n      and\n      swap1\n      dup4\n      0xffffffffffffffffffffffffffffffffffffffff\n      and\n      mul\n      or\n      swap1\n      sstore\n      pop\n        /* \"Token/123.sol\":5555:5571  _uniswapV2Router */\n      dup1\n        /* \"Token/123.sol\":5555:5579  _uniswapV2Router.factory */\n      0xffffffffffffffffffffffffffffffffffffffff\n      and\n      0xc45a0155\n        /* \"Token/123.sol\":5555:5581  _uniswapV2Router.factory() */\n      mload(0x40)\n      dup2\n      0xffffffff\n      and\n      0xe0\n      shl\n      dup2\n      mstore\n      0x04\n      add\n      0x20\n      mload(0x40)\n      dup1\n      dup4\n      sub\n      dup2\n      dup7\n      gas\n      staticcall\n      iszero\n      dup1\n      iszero\n      tag_283\n      jumpi\n      returndatasize\n      0x00\n      dup1\n      returndatacopy\n      revert(0x00, returndatasize)\n    tag_283:\n      pop\n      pop\n      pop\n      pop\n      mload(0x40)\n      returndatasize\n      not(0x1f)\n      0x1f\n      dup3\n      add\n      and\n      dup3\n      add\n      dup1\n      0x40\n      mstore\n      pop\n      dup2\n      add\n      swap1\n      tag_284\n      swap2\n      swap1\n      tag_285\n      jump\t// in\n    tag_284:\n        /* \"Token/123.sol\":5537:5593  IUniswapV2Factory(_uniswapV2Router.factory()).createPair */\n      0xffffffffffffffffffffffffffffffffffffffff\n      and\n      0xc9c65396\n        /* \"Token/123.sol\":5616:5620  this */\n      address\n        /* \"Token/123.sol\":5636:5652  _uniswapV2Router */\n      dup4\n        /* \"Token/123.sol\":5636:5657  _uniswapV2Router.WETH */\n      0xffffffffffffffffffffffffffffffffffffffff\n      and\n      0xad5c4648\n        /* \"Token/123.sol\":5636:5659  _uniswapV2Router.WETH() */\n      mload(0x40)\n      dup2\n      0xffffffff\n      and\n      0xe0\n      shl\n      dup2\n      mstore\n      0x04\n      add\n      0x20\n      mload(0x40)\n      dup1\n      dup4\n      sub\n      dup2\n      dup7\n      gas\n      staticcall\n      iszero\n      dup1\n      iszero\n      tag_287\n      jumpi\n      returndatasize\n      0x00\n      dup1\n      returndatacopy\n      revert(0x00, returndatasize)\n    tag_287:\n      pop\n      pop\n      pop\n      pop\n      mload(0x40)\n      returndatasize\n      not(0x1f)\n      0x1f\n      dup3\n      add\n      and\n      dup3\n      add\n      dup1\n      0x40\n      mstore\n      pop\n      dup2\n      add\n      swap1\n      tag_288\n      swap2\n      swap1\n      tag_285\n      jump\t// in\n    tag_288:\n        /* \"Token/123.sol\":5537:5670  IUniswapV2Factory(_uniswapV2Router.factory()).createPair(... */\n      mload(0x40)\n      dup4\n      0xffffffff\n      and\n      0xe0\n      shl\n      dup2\n      mstore\n      0x04\n      add\n      tag_289\n      swap3\n      swap2\n      swap1\n      tag_290\n      jump\t// in\n    tag_289:\n      0x20\n      mload(0x40)\n      dup1\n      dup4\n      sub\n      dup2\n      0x00\n      dup8\n      gas\n      call\n      iszero\n      dup1\n      iszero\n      tag_292\n      jumpi\n      returndatasize\n      0x00\n      dup1\n      returndatacopy\n      revert(0x00, returndatasize)\n    tag_292:\n      pop\n      pop\n      pop\n      pop\n      mload(0x40)\n      returndatasize\n      not(0x1f)\n      0x1f\n      dup3\n      add\n      and\n      dup3\n      add\n      dup1\n      0x40\n      mstore\n      pop\n      dup2\n      add\n      swap1\n      tag_293\n      swap2\n      swap1\n      tag_285\n      jump\t// in\n    tag_293:\n        /* \"Token/123.sol\":5523:5534  uniswapPair */\n      0x0b\n      0x00\n        /* \"Token/123.sol\":5523:5670  uniswapPair = IUniswapV2Factory(_uniswapV2Router.factory()).createPair(... */\n      0x0100\n      exp\n      dup2\n      sload\n      dup2\n      0xffffffffffffffffffffffffffffffffffffffff\n      mul\n      not\n      and\n      swap1\n      dup4\n      0xffffffffffffffffffffffffffffffffffffffff\n      and\n      mul\n      or\n      swap1\n      sstore\n      pop\n        /* \"Token/123.sol\":5684:5749  _approve(msg.sender, address(uniswapV2Router), type(uint256).max) */\n      tag_294\n        /* \"Token/123.sol\":5693:5703  msg.sender */\n      caller\n        /* \"Token/123.sol\":5713:5728  uniswapV2Router */\n      0x0a\n      0x00\n      swap1\n      sload\n      swap1\n      0x0100\n      exp\n      swap1\n      div\n      0xffffffffffffffffffffffffffffffffffffffff\n      and\n        /* \"Token/123.sol\":5731:5748  type(uint256).max */\n      0xffffffffffffffffffffffffffffffffffffffffffffffffffffffffffffffff\n        /* \"Token/123.sol\":5684:5692  _approve */\n      tag_178\n        /* \"Token/123.sol\":5684:5749  _approve(msg.sender, address(uniswapV2Router), type(uint256).max) */\n      jump\t// in\n    tag_294:\n        /* \"Token/123.sol\":5760:5828  _approve(address(this), address(uniswapV2Router), type(uint256).max) */\n      tag_295\n        /* \"Token/123.sol\":5777:5781  this */\n      address\n        /* \"Token/123.sol\":5792:5807  uniswapV2Router */\n      0x0a\n      0x00\n      swap1\n      sload\n      swap1\n      0x0100\n      exp\n      swap1\n      div\n      0xffffffffffffffffffffffffffffffffffffffff\n      and\n        /* \"Token/123.sol\":5810:5827  type(uint256).max */\n      0xffffffffffffffffffffffffffffffffffffffffffffffffffffffffffffffff\n        /* \"Token/123.sol\":5760:5768  _approve */\n      tag_178\n        /* \"Token/123.sol\":5760:5828  _approve(address(this), address(uniswapV2Router), type(uint256).max) */\n      jump\t// in\n    tag_295:\n        /* \"Token/123.sol\":5868:5878  msg.sender */\n      caller\n        /* \"Token/123.sol\":5847:5893  Transfer(address(0), msg.sender, _totalSupply) */\n      0xffffffffffffffffffffffffffffffffffffffff\n      and\n        /* \"Token/123.sol\":5864:5865  0 */\n      0x00\n        /* \"Token/123.sol\":5847:5893  Transfer(address(0), msg.sender, _totalSupply) */\n      0xffffffffffffffffffffffffffffffffffffffff\n      and\n      0xddf252ad1be2c89b69c2b068fc378daa952ba7f163c4a11628f55a4df523b3ef\n        /* \"Token/123.sol\":5880:5892  _totalSupply */\n      sload(0x07)\n        /* \"Token/123.sol\":5847:5893  Transfer(address(0), msg.sender, _totalSupply) */\n      mload(0x40)\n      tag_296\n      swap2\n      swap1\n      tag_58\n      jump\t// in\n    tag_296:\n      mload(0x40)\n      dup1\n      swap2\n      sub\n      swap1\n      log3\n        /* \"Token/123.sol\":4539:5901  {... */\n      pop\n        /* \"@openzeppelin/contracts-upgradeable/proxy/utils/Initializable.sol\":5070:5084  isTopLevelCall */\n      dup4\n        /* \"@openzeppelin/contracts-upgradeable/proxy/utils/Initializable.sol\":5066:5167  if (isTopLevelCall) {... */\n      iszero\n      tag_297\n      jumpi\n        /* \"@openzeppelin/contracts-upgradeable/proxy/utils/Initializable.sol\":5118:5123  false */\n      0x00\n        /* \"@openzeppelin/contracts-upgradeable/proxy/utils/Initializable.sol\":5100:5101  $ */\n      dup6\n        /* \"@openzeppelin/contracts-upgradeable/proxy/utils/Initializable.sol\":5100:5115  $._initializing */\n      0x00\n      add\n      0x08\n        /* \"@openzeppelin/contracts-upgradeable/proxy/utils/Initializable.sol\":5100:5123  $._initializing = false */\n      0x0100\n      exp\n      dup2\n      sload\n      dup2\n      0xff\n      mul\n      not\n      and\n      swap1\n      dup4\n      iszero\n      iszero\n      mul\n      or\n      swap1\n      sstore\n      pop\n        /* \"@openzeppelin/contracts-upgradeable/proxy/utils/Initializable.sol\":5142:5156  Initialized(1) */\n      0xc7f505b2f371ae2175ee4913f4499e1f2633a7b5936321eed1cdaeb6115181d2\n        /* \"@openzeppelin/contracts-upgradeable/proxy/utils/Initializable.sol\":5154:5155  1 */\n      0x01\n        /* \"@openzeppelin/contracts-upgradeable/proxy/utils/Initializable.sol\":5142:5156  Initialized(1) */\n      mload(0x40)\n      tag_298\n      swap2\n      swap1\n      tag_299\n      jump\t// in\n    tag_298:\n      mload(0x40)\n      dup1\n      swap2\n      sub\n      swap1\n      log1\n        /* \"@openzeppelin/contracts-upgradeable/proxy/utils/Initializable.sol\":5066:5167  if (isTopLevelCall) {... */\n    tag_297:\n        /* \"@openzeppelin/contracts-upgradeable/proxy/utils/Initializable.sol\":4092:5173  {... */\n      pop\n      pop\n      pop\n      pop\n      pop\n        /* \"Token/123.sol\":4498:5901  function initialize() public initializer {... */\n      jump\t// out\n        /* \"Token/123.sol\":2782:2816  uint256 public  marketingWalletTax */\n    tag_117:\n      sload(0x03)\n      dup2\n      jump\t// out\n        /* \"Token/123.sol\":7342:7619  function setDevelopmentWalletTax(uint256 _taxPercentage) external onlyOwner {... */\n    tag_121:\n        /* \"@openzeppelin/contracts-upgradeable/access/OwnableUpgradeable.sol\":2334:2347  _checkOwner() */\n      tag_301\n        /* \"@openzeppelin/contracts-upgradeable/access/OwnableUpgradeable.sol\":2334:2345  _checkOwner */\n      tag_190\n        /* \"@openzeppelin/contracts-upgradeable/access/OwnableUpgradeable.sol\":2334:2347  _checkOwner() */\n      jump\t// in\n    tag_301:\n        /* \"Token/123.sol\":7455:7460  10000 */\n      0x2710\n        /* \"Token/123.sol\":7437:7451  _taxPercentage */\n      dup2\n        /* \"Token/123.sol\":7437:7460  _taxPercentage <= 10000 */\n      gt\n      iszero\n        /* \"Token/123.sol\":7429:7497  require(_taxPercentage <= 10000,\"Tax percentage cannot exceed 100%\") */\n      tag_303\n      jumpi\n      mload(0x40)\n      0x08c379a000000000000000000000000000000000000000000000000000000000\n      dup2\n      mstore\n      0x04\n      add\n      tag_304\n      swap1\n      tag_237\n      jump\t// in\n    tag_304:\n      mload(0x40)\n      dup1\n      swap2\n      sub\n      swap1\n      revert\n    tag_303:\n        /* \"Token/123.sol\":7531:7545  _taxPercentage */\n      dup1\n        /* \"Token/123.sol\":7508:7528  developmentWalletTax */\n      0x04\n        /* \"Token/123.sol\":7508:7545  developmentWalletTax = _taxPercentage */\n      dup2\n      swap1\n      sstore\n      pop\n        /* \"Token/123.sol\":7561:7611  UpdatedtDevelopmentWalletTax(developmentWalletTax) */\n      0xd3f51aabcf3bcbd05f9260c8ccec9728da097c538dd797a90f527e255ae30838\n        /* \"Token/123.sol\":7590:7610  developmentWalletTax */\n      sload(0x04)\n        /* \"Token/123.sol\":7561:7611  UpdatedtDevelopmentWalletTax(developmentWalletTax) */\n      mload(0x40)\n      tag_305\n      swap2\n      swap1\n      tag_58\n      jump\t// in\n    tag_305:\n      mload(0x40)\n      dup1\n      swap2\n      sub\n      swap1\n      log1\n        /* \"Token/123.sol\":7342:7619  function setDevelopmentWalletTax(uint256 _taxPercentage) external onlyOwner {... */\n      pop\n      jump\t// out\n        /* \"Token/123.sol\":6678:6946  function setMarketingWalletTax(uint256 _taxPercentage) external onlyOwner {... */\n    tag_124:\n        /* \"@openzeppelin/contracts-upgradeable/access/OwnableUpgradeable.sol\":2334:2347  _checkOwner() */\n      tag_307\n        /* \"@openzeppelin/contracts-upgradeable/access/OwnableUpgradeable.sol\":2334:2345  _checkOwner */\n      tag_190\n        /* \"@openzeppelin/contracts-upgradeable/access/OwnableUpgradeable.sol\":2334:2347  _checkOwner() */\n      jump\t// in\n    tag_307:\n        /* \"Token/123.sol\":6789:6794  10000 */\n      0x2710\n        /* \"Token/123.sol\":6771:6785  _taxPercentage */\n      dup2\n        /* \"Token/123.sol\":6771:6794  _taxPercentage <= 10000 */\n      gt\n      iszero\n        /* \"Token/123.sol\":6763:6831  require(_taxPercentage <= 10000,\"Tax percentage cannot exceed 100%\") */\n      tag_309\n      jumpi\n      mload(0x40)\n      0x08c379a000000000000000000000000000000000000000000000000000000000\n      dup2\n      mstore\n      0x04\n      add\n      tag_310\n      swap1\n      tag_237\n      jump\t// in\n    tag_310:\n      mload(0x40)\n      dup1\n      swap2\n      sub\n      swap1\n      revert\n    tag_309:\n        /* \"Token/123.sol\":6863:6877  _taxPercentage */\n      dup1\n        /* \"Token/123.sol\":6842:6860  marketingWalletTax */\n      0x03\n        /* \"Token/123.sol\":6842:6877  marketingWalletTax = _taxPercentage */\n      dup2\n      swap1\n      sstore\n      pop\n        /* \"Token/123.sol\":6893:6938  UpdatedMarketingWalletTax(marketingWalletTax) */\n      0x153e5299255e24f1fd2ceee40599bfdc41290fd92340ff6173fc24efd6c299a6\n        /* \"Token/123.sol\":6919:6937  marketingWalletTax */\n      sload(0x03)\n        /* \"Token/123.sol\":6893:6938  UpdatedMarketingWalletTax(marketingWalletTax) */\n      mload(0x40)\n      tag_311\n      swap2\n      swap1\n      tag_58\n      jump\t// in\n    tag_311:\n      mload(0x40)\n      dup1\n      swap2\n      sub\n      swap1\n      log1\n        /* \"Token/123.sol\":6678:6946  function setMarketingWalletTax(uint256 _taxPercentage) external onlyOwner {... */\n      pop\n      jump\t// out\n        /* \"@openzeppelin/contracts-upgradeable/access/OwnableUpgradeable.sol\":2441:2585  function owner() public view virtual returns (address) {... */\n    tag_126:\n        /* \"@openzeppelin/contracts-upgradeable/access/OwnableUpgradeable.sol\":2487:2494  address */\n      0x00\n        /* \"@openzeppelin/contracts-upgradeable/access/OwnableUpgradeable.sol\":2506:2530  OwnableStorage storage $ */\n      dup1\n        /* \"@openzeppelin/contracts-upgradeable/access/OwnableUpgradeable.sol\":2533:2553  _getOwnableStorage() */\n      tag_313\n        /* \"@openzeppelin/contracts-upgradeable/access/OwnableUpgradeable.sol\":2533:2551  _getOwnableStorage */\n      tag_314\n        /* \"@openzeppelin/contracts-upgradeable/access/OwnableUpgradeable.sol\":2533:2553  _getOwnableStorage() */\n      jump\t// in\n    tag_313:\n        /* \"@openzeppelin/contracts-upgradeable/access/OwnableUpgradeable.sol\":2506:2553  OwnableStorage storage $ = _getOwnableStorage() */\n      swap1\n      pop\n        /* \"@openzeppelin/contracts-upgradeable/access/OwnableUpgradeable.sol\":2570:2571  $ */\n      dup1\n        /* \"@openzeppelin/contracts-upgradeable/access/OwnableUpgradeable.sol\":2570:2578  $._owner */\n      0x00\n      add\n      0x00\n      swap1\n      sload\n      swap1\n      0x0100\n      exp\n      swap1\n      div\n      0xffffffffffffffffffffffffffffffffffffffff\n      and\n        /* \"@openzeppelin/contracts-upgradeable/access/OwnableUpgradeable.sol\":2563:2578  return $._owner */\n      swap2\n      pop\n      pop\n        /* \"@openzeppelin/contracts-upgradeable/access/OwnableUpgradeable.sol\":2441:2585  function owner() public view virtual returns (address) {... */\n      swap1\n      jump\t// out\n        /* \"@openzeppelin/contracts-upgradeable/token/ERC20/ERC20Upgradeable.sol\":3268:3416  function symbol() public view virtual returns (string memory) {... */\n    tag_129:\n        /* \"@openzeppelin/contracts-upgradeable/token/ERC20/ERC20Upgradeable.sol\":3315:3328  string memory */\n      0x60\n        /* \"@openzeppelin/contracts-upgradeable/token/ERC20/ERC20Upgradeable.sol\":3340:3362  ERC20Storage storage $ */\n      0x00\n        /* \"@openzeppelin/contracts-upgradeable/token/ERC20/ERC20Upgradeable.sol\":3365:3383  _getERC20Storage() */\n      tag_316\n        /* \"@openzeppelin/contracts-upgradeable/token/ERC20/ERC20Upgradeable.sol\":3365:3381  _getERC20Storage */\n      tag_167\n        /* \"@openzeppelin/contracts-upgradeable/token/ERC20/ERC20Upgradeable.sol\":3365:3383  _getERC20Storage() */\n      jump\t// in\n    tag_316:\n        /* \"@openzeppelin/contracts-upgradeable/token/ERC20/ERC20Upgradeable.sol\":3340:3383  ERC20Storage storage $ = _getERC20Storage() */\n      swap1\n      pop\n        /* \"@openzeppelin/contracts-upgradeable/token/ERC20/ERC20Upgradeable.sol\":3400:3401  $ */\n      dup1\n        /* \"@openzeppelin/contracts-upgradeable/token/ERC20/ERC20Upgradeable.sol\":3400:3409  $._symbol */\n      0x04\n      add\n        /* \"@openzeppelin/contracts-upgradeable/token/ERC20/ERC20Upgradeable.sol\":3393:3409  return $._symbol */\n      dup1\n      sload\n      tag_317\n      swap1\n      tag_169\n      jump\t// in\n    tag_317:\n      dup1\n      0x1f\n      add\n      0x20\n      dup1\n      swap2\n      div\n      mul\n      0x20\n      add\n      mload(0x40)\n      swap1\n      dup2\n      add\n      0x40\n      mstore\n      dup1\n      swap3\n      swap2\n      swap1\n      dup2\n      dup2\n      mstore\n      0x20\n      add\n      dup3\n      dup1\n      sload\n      tag_318\n      swap1\n      tag_169\n      jump\t// in\n    tag_318:\n      dup1\n      iszero\n      tag_319\n      jumpi\n      dup1\n      0x1f\n      lt\n      tag_320\n      jumpi\n      0x0100\n      dup1\n      dup4\n      sload\n      div\n      mul\n      dup4\n      mstore\n      swap2\n      0x20\n      add\n      swap2\n      jump(tag_319)\n    tag_320:\n      dup3\n      add\n      swap2\n      swap1\n      0x00\n      mstore\n      keccak256(0x00, 0x20)\n      swap1\n    tag_321:\n      dup2\n      sload\n      dup2\n      mstore\n      swap1\n      0x01\n      add\n      swap1\n      0x20\n      add\n      dup1\n      dup4\n      gt\n      tag_321\n      jumpi\n      dup3\n      swap1\n      sub\n      0x1f\n      and\n      dup3\n      add\n      swap2\n    tag_319:\n      pop\n      pop\n      pop\n      pop\n      pop\n      swap2\n      pop\n      pop\n        /* \"@openzeppelin/contracts-upgradeable/token/ERC20/ERC20Upgradeable.sol\":3268:3416  function symbol() public view virtual returns (string memory) {... */\n      swap1\n      jump\t// out\n        /* \"@openzeppelin/contracts-upgradeable/token/ERC20/ERC20Upgradeable.sol\":4767:4945  function transfer(address to, uint256 value) public virtual returns (bool) {... */\n    tag_133:\n        /* \"@openzeppelin/contracts-upgradeable/token/ERC20/ERC20Upgradeable.sol\":4836:4840  bool */\n      0x00\n        /* \"@openzeppelin/contracts-upgradeable/token/ERC20/ERC20Upgradeable.sol\":4852:4865  address owner */\n      dup1\n        /* \"@openzeppelin/contracts-upgradeable/token/ERC20/ERC20Upgradeable.sol\":4868:4880  _msgSender() */\n      tag_323\n        /* \"@openzeppelin/contracts-upgradeable/token/ERC20/ERC20Upgradeable.sol\":4868:4878  _msgSender */\n      tag_176\n        /* \"@openzeppelin/contracts-upgradeable/token/ERC20/ERC20Upgradeable.sol\":4868:4880  _msgSender() */\n      jump\t// in\n    tag_323:\n        /* \"@openzeppelin/contracts-upgradeable/token/ERC20/ERC20Upgradeable.sol\":4852:4880  address owner = _msgSender() */\n      swap1\n      pop\n        /* \"@openzeppelin/contracts-upgradeable/token/ERC20/ERC20Upgradeable.sol\":4890:4917  _transfer(owner, to, value) */\n      tag_324\n        /* \"@openzeppelin/contracts-upgradeable/token/ERC20/ERC20Upgradeable.sol\":4900:4905  owner */\n      dup2\n        /* \"@openzeppelin/contracts-upgradeable/token/ERC20/ERC20Upgradeable.sol\":4907:4909  to */\n      dup6\n        /* \"@openzeppelin/contracts-upgradeable/token/ERC20/ERC20Upgradeable.sol\":4911:4916  value */\n      dup6\n        /* \"@openzeppelin/contracts-upgradeable/token/ERC20/ERC20Upgradeable.sol\":4890:4899  _transfer */\n      tag_186\n        /* \"@openzeppelin/contracts-upgradeable/token/ERC20/ERC20Upgradeable.sol\":4890:4917  _transfer(owner, to, value) */\n      jump\t// in\n    tag_324:\n        /* \"@openzeppelin/contracts-upgradeable/token/ERC20/ERC20Upgradeable.sol\":4934:4938  true */\n      0x01\n        /* \"@openzeppelin/contracts-upgradeable/token/ERC20/ERC20Upgradeable.sol\":4927:4938  return true */\n      swap2\n      pop\n      pop\n        /* \"@openzeppelin/contracts-upgradeable/token/ERC20/ERC20Upgradeable.sol\":4767:4945  function transfer(address to, uint256 value) public virtual returns (bool) {... */\n      swap3\n      swap2\n      pop\n      pop\n      jump\t// out\n        /* \"Token/123.sol\":9761:10027  function setSustainabilityWallet(address _wallet) external onlyOwner {... */\n    tag_137:\n        /* \"@openzeppelin/contracts-upgradeable/access/OwnableUpgradeable.sol\":2334:2347  _checkOwner() */\n      tag_326\n        /* \"@openzeppelin/contracts-upgradeable/access/OwnableUpgradeable.sol\":2334:2345  _checkOwner */\n      tag_190\n        /* \"@openzeppelin/contracts-upgradeable/access/OwnableUpgradeable.sol\":2334:2347  _checkOwner() */\n      jump\t// in\n    tag_326:\n        /* \"Token/123.sol\":9867:9868  0 */\n      0x00\n        /* \"Token/123.sol\":9848:9869  _wallet != address(0) */\n      0xffffffffffffffffffffffffffffffffffffffff\n      and\n        /* \"Token/123.sol\":9848:9855  _wallet */\n      dup2\n        /* \"Token/123.sol\":9848:9869  _wallet != address(0) */\n      0xffffffffffffffffffffffffffffffffffffffff\n      and\n      sub\n        /* \"Token/123.sol\":9840:9915  require(_wallet != address(0),\"stainability wallet cannot be zero address\") */\n      tag_328\n      jumpi\n      mload(0x40)\n      0x08c379a000000000000000000000000000000000000000000000000000000000\n      dup2\n      mstore\n      0x04\n      add\n      tag_329\n      swap1\n      tag_330\n      jump\t// in\n    tag_329:\n      mload(0x40)\n      dup1\n      swap2\n      sub\n      swap1\n      revert\n    tag_328:\n        /* \"Token/123.sol\":9948:9955  _wallet */\n      dup1\n        /* \"Token/123.sol\":9925:9945  sustainabilityWallet */\n      0x02\n      0x00\n        /* \"Token/123.sol\":9925:9955  sustainabilityWallet = _wallet */\n      0x0100\n      exp\n      dup2\n      sload\n      dup2\n      0xffffffffffffffffffffffffffffffffffffffff\n      mul\n      not\n      and\n      swap1\n      dup4\n      0xffffffffffffffffffffffffffffffffffffffff\n      and\n      mul\n      or\n      swap1\n      sstore\n      pop\n        /* \"Token/123.sol\":9970:10019  UpdatedSustainabilityWallet(sustainabilityWallet) */\n      0x5d4a0c152f269a59530b6c3a84f5a90ac341c463c9e6d5d0d04cf75596776e4f\n        /* \"Token/123.sol\":9998:10018  sustainabilityWallet */\n      0x02\n      0x00\n      swap1\n      sload\n      swap1\n      0x0100\n      exp\n      swap1\n      div\n      0xffffffffffffffffffffffffffffffffffffffff\n      and\n        /* \"Token/123.sol\":9970:10019  UpdatedSustainabilityWallet(sustainabilityWallet) */\n      mload(0x40)\n      tag_331\n      swap2\n      swap1\n      tag_110\n      jump\t// in\n    tag_331:\n      mload(0x40)\n      dup1\n      swap2\n      sub\n      swap1\n      log1\n        /* \"Token/123.sol\":9761:10027  function setSustainabilityWallet(address _wallet) external onlyOwner {... */\n      pop\n      jump\t// out\n        /* \"Token/123.sol\":2693:2726  address public  developmentWallet */\n    tag_139:\n      0x01\n      0x00\n      swap1\n      sload\n      swap1\n      0x0100\n      exp\n      swap1\n      div\n      0xffffffffffffffffffffffffffffffffffffffff\n      and\n      dup2\n      jump\t// out\n        /* \"Token/123.sol\":3169:3195  address public uniswapPair */\n    tag_142:\n      0x0b\n      0x00\n      swap1\n      sload\n      swap1\n      0x0100\n      exp\n      swap1\n      div\n      0xffffffffffffffffffffffffffffffffffffffff\n      and\n      dup2\n      jump\t// out\n        /* \"Token/123.sol\":2913:2949  uint256 public  maxTransactionAmount */\n    tag_145:\n      sload(0x06)\n      dup2\n      jump\t// out\n        /* \"@openzeppelin/contracts-upgradeable/token/ERC20/ERC20Upgradeable.sol\":5003:5198  function allowance(address owner, address spender) public view virtual returns (uint256) {... */\n    tag_150:\n        /* \"@openzeppelin/contracts-upgradeable/token/ERC20/ERC20Upgradeable.sol\":5083:5090  uint256 */\n      0x00\n        /* \"@openzeppelin/contracts-upgradeable/token/ERC20/ERC20Upgradeable.sol\":5102:5124  ERC20Storage storage $ */\n      dup1\n        /* \"@openzeppelin/contracts-upgradeable/token/ERC20/ERC20Upgradeable.sol\":5127:5145  _getERC20Storage() */\n      tag_333\n        /* \"@openzeppelin/contracts-upgradeable/token/ERC20/ERC20Upgradeable.sol\":5127:5143  _getERC20Storage */\n      tag_167\n        /* \"@openzeppelin/contracts-upgradeable/token/ERC20/ERC20Upgradeable.sol\":5127:5145  _getERC20Storage() */\n      jump\t// in\n    tag_333:\n        /* \"@openzeppelin/contracts-upgradeable/token/ERC20/ERC20Upgradeable.sol\":5102:5145  ERC20Storage storage $ = _getERC20Storage() */\n      swap1\n      pop\n        /* \"@openzeppelin/contracts-upgradeable/token/ERC20/ERC20Upgradeable.sol\":5162:5163  $ */\n      dup1\n        /* \"@openzeppelin/contracts-upgradeable/token/ERC20/ERC20Upgradeable.sol\":5162:5175  $._allowances */\n      0x01\n      add\n        /* \"@openzeppelin/contracts-upgradeable/token/ERC20/ERC20Upgradeable.sol\":5162:5182  $._allowances[owner] */\n      0x00\n        /* \"@openzeppelin/contracts-upgradeable/token/ERC20/ERC20Upgradeable.sol\":5176:5181  owner */\n      dup6\n        /* \"@openzeppelin/contracts-upgradeable/token/ERC20/ERC20Upgradeable.sol\":5162:5182  $._allowances[owner] */\n      0xffffffffffffffffffffffffffffffffffffffff\n      and\n      0xffffffffffffffffffffffffffffffffffffffff\n      and\n      dup2\n      mstore\n      0x20\n      add\n      swap1\n      dup2\n      mstore\n      0x20\n      add\n      0x00\n      keccak256\n        /* \"@openzeppelin/contracts-upgradeable/token/ERC20/ERC20Upgradeable.sol\":5162:5191  $._allowances[owner][spender] */\n      0x00\n        /* \"@openzeppelin/contracts-upgradeable/token/ERC20/ERC20Upgradeable.sol\":5183:5190  spender */\n      dup5\n        /* \"@openzeppelin/contracts-upgradeable/token/ERC20/ERC20Upgradeable.sol\":5162:5191  $._allowances[owner][spender] */\n      0xffffffffffffffffffffffffffffffffffffffff\n      and\n      0xffffffffffffffffffffffffffffffffffffffff\n      and\n      dup2\n      mstore\n      0x20\n      add\n      swap1\n      dup2\n      mstore\n      0x20\n      add\n      0x00\n      keccak256\n      sload\n        /* \"@openzeppelin/contracts-upgradeable/token/ERC20/ERC20Upgradeable.sol\":5155:5191  return $._allowances[owner][spender] */\n      swap2\n      pop\n      pop\n        /* \"@openzeppelin/contracts-upgradeable/token/ERC20/ERC20Upgradeable.sol\":5003:5198  function allowance(address owner, address spender) public view virtual returns (uint256) {... */\n      swap3\n      swap2\n      pop\n      pop\n      jump\t// out\n        /* \"Token/123.sol\":2867:2906  uint256 public  sustainabilityWalletTax */\n    tag_153:\n      sload(0x05)\n      dup2\n      jump\t// out\n        /* \"@openzeppelin/contracts-upgradeable/access/OwnableUpgradeable.sol\":3405:3620  function transferOwnership(address newOwner) public virtual onlyOwner {... */\n    tag_157:\n        /* \"@openzeppelin/contracts-upgradeable/access/OwnableUpgradeable.sol\":2334:2347  _checkOwner() */\n      tag_335\n        /* \"@openzeppelin/contracts-upgradeable/access/OwnableUpgradeable.sol\":2334:2345  _checkOwner */\n      tag_190\n        /* \"@openzeppelin/contracts-upgradeable/access/OwnableUpgradeable.sol\":2334:2347  _checkOwner() */\n      jump\t// in\n    tag_335:\n        /* \"@openzeppelin/contracts-upgradeable/access/OwnableUpgradeable.sol\":3509:3510  0 */\n      0x00\n        /* \"@openzeppelin/contracts-upgradeable/access/OwnableUpgradeable.sol\":3489:3511  newOwner == address(0) */\n      0xffffffffffffffffffffffffffffffffffffffff\n      and\n        /* \"@openzeppelin/contracts-upgradeable/access/OwnableUpgradeable.sol\":3489:3497  newOwner */\n      dup2\n        /* \"@openzeppelin/contracts-upgradeable/access/OwnableUpgradeable.sol\":3489:3511  newOwner == address(0) */\n      0xffffffffffffffffffffffffffffffffffffffff\n      and\n      sub\n        /* \"@openzeppelin/contracts-upgradeable/access/OwnableUpgradeable.sol\":3485:3576  if (newOwner == address(0)) {... */\n      tag_337\n      jumpi\n        /* \"@openzeppelin/contracts-upgradeable/access/OwnableUpgradeable.sol\":3562:3563  0 */\n      0x00\n        /* \"@openzeppelin/contracts-upgradeable/access/OwnableUpgradeable.sol\":3534:3565  OwnableInvalidOwner(address(0)) */\n      mload(0x40)\n      0x1e4fbdf700000000000000000000000000000000000000000000000000000000\n      dup2\n      mstore\n      0x04\n      add\n      tag_338\n      swap2\n      swap1\n      tag_110\n      jump\t// in\n    tag_338:\n      mload(0x40)\n      dup1\n      swap2\n      sub\n      swap1\n      revert\n        /* \"@openzeppelin/contracts-upgradeable/access/OwnableUpgradeable.sol\":3485:3576  if (newOwner == address(0)) {... */\n    tag_337:\n        /* \"@openzeppelin/contracts-upgradeable/access/OwnableUpgradeable.sol\":3585:3613  _transferOwnership(newOwner) */\n      tag_339\n        /* \"@openzeppelin/contracts-upgradeable/access/OwnableUpgradeable.sol\":3604:3612  newOwner */\n      dup2\n        /* \"@openzeppelin/contracts-upgradeable/access/OwnableUpgradeable.sol\":3585:3603  _transferOwnership */\n      tag_245\n        /* \"@openzeppelin/contracts-upgradeable/access/OwnableUpgradeable.sol\":3585:3613  _transferOwnership(newOwner) */\n      jump\t// in\n    tag_339:\n        /* \"@openzeppelin/contracts-upgradeable/access/OwnableUpgradeable.sol\":3405:3620  function transferOwnership(address newOwner) public virtual onlyOwner {... */\n      pop\n      jump\t// out\n        /* \"Token/123.sol\":11574:11690  function isBlacklisted(address account) external view returns (bool) {... */\n    tag_160:\n        /* \"Token/123.sol\":11637:11641  bool */\n      0x00\n        /* \"Token/123.sol\":11661:11673  _blacklisted */\n      0x08\n        /* \"Token/123.sol\":11661:11682  _blacklisted[account] */\n      0x00\n        /* \"Token/123.sol\":11674:11681  account */\n      dup4\n        /* \"Token/123.sol\":11661:11682  _blacklisted[account] */\n      0xffffffffffffffffffffffffffffffffffffffff\n      and\n      0xffffffffffffffffffffffffffffffffffffffff\n      and\n      dup2\n      mstore\n      0x20\n      add\n      swap1\n      dup2\n      mstore\n      0x20\n      add\n      0x00\n      keccak256\n      0x00\n      swap1\n      sload\n      swap1\n      0x0100\n      exp\n      swap1\n      div\n      0xff\n      and\n        /* \"Token/123.sol\":11654:11682  return _blacklisted[account] */\n      swap1\n      pop\n        /* \"Token/123.sol\":11574:11690  function isBlacklisted(address account) external view returns (bool) {... */\n      swap2\n      swap1\n      pop\n      jump\t// out\n        /* \"Token/123.sol\":2733:2769  address public  sustainabilityWallet */\n    tag_163:\n      0x02\n      0x00\n      swap1\n      sload\n      swap1\n      0x0100\n      exp\n      swap1\n      div\n      0xffffffffffffffffffffffffffffffffffffffff\n      and\n      dup2\n      jump\t// out\n        /* \"@openzeppelin/contracts-upgradeable/token/ERC20/ERC20Upgradeable.sol\":2242:2395  function _getERC20Storage() private pure returns (ERC20Storage storage $) {... */\n    tag_167:\n        /* \"@openzeppelin/contracts-upgradeable/token/ERC20/ERC20Upgradeable.sol\":2292:2314  ERC20Storage storage $ */\n      0x00\n        /* \"@openzeppelin/contracts-upgradeable/token/ERC20/ERC20Upgradeable.sol\":2359:2379  ERC20StorageLocation */\n      0x52c63247e1f47db19d5ce0460030c497f067ca4cebf71ba98eeadabe20bace00\n        /* \"@openzeppelin/contracts-upgradeable/token/ERC20/ERC20Upgradeable.sol\":2349:2379  $.slot := ERC20StorageLocation */\n      swap1\n      pop\n        /* \"@openzeppelin/contracts-upgradeable/token/ERC20/ERC20Upgradeable.sol\":2242:2395  function _getERC20Storage() private pure returns (ERC20Storage storage $) {... */\n      swap1\n      jump\t// out\n        /* \"@openzeppelin/contracts-upgradeable/utils/ContextUpgradeable.sol\":887:983  function _msgSender() internal view virtual returns (address) {... */\n    tag_176:\n        /* \"@openzeppelin/contracts-upgradeable/utils/ContextUpgradeable.sol\":940:947  address */\n      0x00\n        /* \"@openzeppelin/contracts-upgradeable/utils/ContextUpgradeable.sol\":966:976  msg.sender */\n      caller\n        /* \"@openzeppelin/contracts-upgradeable/utils/ContextUpgradeable.sol\":959:976  return msg.sender */\n      swap1\n      pop\n        /* \"@openzeppelin/contracts-upgradeable/utils/ContextUpgradeable.sol\":887:983  function _msgSender() internal view virtual returns (address) {... */\n      swap1\n      jump\t// out\n        /* \"@openzeppelin/contracts-upgradeable/token/ERC20/ERC20Upgradeable.sol\":10266:10394  function _approve(address owner, address spender, uint256 value) internal {... */\n    tag_178:\n        /* \"@openzeppelin/contracts-upgradeable/token/ERC20/ERC20Upgradeable.sol\":10350:10387  _approve(owner, spender, value, true) */\n      tag_344\n        /* \"@openzeppelin/contracts-upgradeable/token/ERC20/ERC20Upgradeable.sol\":10359:10364  owner */\n      dup4\n        /* \"@openzeppelin/contracts-upgradeable/token/ERC20/ERC20Upgradeable.sol\":10366:10373  spender */\n      dup4\n        /* \"@openzeppelin/contracts-upgradeable/token/ERC20/ERC20Upgradeable.sol\":10375:10380  value */\n      dup4\n        /* \"@openzeppelin/contracts-upgradeable/token/ERC20/ERC20Upgradeable.sol\":10382:10386  true */\n      0x01\n        /* \"@openzeppelin/contracts-upgradeable/token/ERC20/ERC20Upgradeable.sol\":10350:10358  _approve */\n      tag_345\n        /* \"@openzeppelin/contracts-upgradeable/token/ERC20/ERC20Upgradeable.sol\":10350:10387  _approve(owner, spender, value, true) */\n      jump\t// in\n    tag_344:\n        /* \"@openzeppelin/contracts-upgradeable/token/ERC20/ERC20Upgradeable.sol\":10266:10394  function _approve(address owner, address spender, uint256 value) internal {... */\n      pop\n      pop\n      pop\n      jump\t// out\n        /* \"@openzeppelin/contracts-upgradeable/token/ERC20/ERC20Upgradeable.sol\":11995:12472  function _spendAllowance(address owner, address spender, uint256 value) internal virtual {... */\n    tag_184:\n        /* \"@openzeppelin/contracts-upgradeable/token/ERC20/ERC20Upgradeable.sol\":12094:12118  uint256 currentAllowance */\n      0x00\n        /* \"@openzeppelin/contracts-upgradeable/token/ERC20/ERC20Upgradeable.sol\":12121:12146  allowance(owner, spender) */\n      tag_347\n        /* \"@openzeppelin/contracts-upgradeable/token/ERC20/ERC20Upgradeable.sol\":12131:12136  owner */\n      dup5\n        /* \"@openzeppelin/contracts-upgradeable/token/ERC20/ERC20Upgradeable.sol\":12138:12145  spender */\n      dup5\n        /* \"@openzeppelin/contracts-upgradeable/token/ERC20/ERC20Upgradeable.sol\":12121:12130  allowance */\n      tag_150\n        /* \"@openzeppelin/contracts-upgradeable/token/ERC20/ERC20Upgradeable.sol\":12121:12146  allowance(owner, spender) */\n      jump\t// in\n    tag_347:\n        /* \"@openzeppelin/contracts-upgradeable/token/ERC20/ERC20Upgradeable.sol\":12094:12146  uint256 currentAllowance = allowance(owner, spender) */\n      swap1\n      pop\n        /* \"@openzeppelin/contracts-upgradeable/token/ERC20/ERC20Upgradeable.sol\":12180:12197  type(uint256).max */\n      0xffffffffffffffffffffffffffffffffffffffffffffffffffffffffffffffff\n        /* \"@openzeppelin/contracts-upgradeable/token/ERC20/ERC20Upgradeable.sol\":12160:12176  currentAllowance */\n      dup2\n        /* \"@openzeppelin/contracts-upgradeable/token/ERC20/ERC20Upgradeable.sol\":12160:12197  currentAllowance != type(uint256).max */\n      eq\n        /* \"@openzeppelin/contracts-upgradeable/token/ERC20/ERC20Upgradeable.sol\":12156:12466  if (currentAllowance != type(uint256).max) {... */\n      tag_348\n      jumpi\n        /* \"@openzeppelin/contracts-upgradeable/token/ERC20/ERC20Upgradeable.sol\":12236:12241  value */\n      dup2\n        /* \"@openzeppelin/contracts-upgradeable/token/ERC20/ERC20Upgradeable.sol\":12217:12233  currentAllowance */\n      dup2\n        /* \"@openzeppelin/contracts-upgradeable/token/ERC20/ERC20Upgradeable.sol\":12217:12241  currentAllowance < value */\n      lt\n        /* \"@openzeppelin/contracts-upgradeable/token/ERC20/ERC20Upgradeable.sol\":12213:12343  if (currentAllowance < value) {... */\n      iszero\n      tag_349\n      jumpi\n        /* \"@openzeppelin/contracts-upgradeable/token/ERC20/ERC20Upgradeable.sol\":12295:12302  spender */\n      dup3\n        /* \"@openzeppelin/contracts-upgradeable/token/ERC20/ERC20Upgradeable.sol\":12304:12320  currentAllowance */\n      dup2\n        /* \"@openzeppelin/contracts-upgradeable/token/ERC20/ERC20Upgradeable.sol\":12322:12327  value */\n      dup4\n        /* \"@openzeppelin/contracts-upgradeable/token/ERC20/ERC20Upgradeable.sol\":12268:12328  ERC20InsufficientAllowance(spender, currentAllowance, value) */\n      mload(0x40)\n      0xfb8f41b200000000000000000000000000000000000000000000000000000000\n      dup2\n      mstore\n      0x04\n      add\n      tag_350\n      swap4\n      swap3\n      swap2\n      swap1\n      tag_351\n      jump\t// in\n    tag_350:\n      mload(0x40)\n      dup1\n      swap2\n      sub\n      swap1\n      revert\n        /* \"@openzeppelin/contracts-upgradeable/token/ERC20/ERC20Upgradeable.sol\":12213:12343  if (currentAllowance < value) {... */\n    tag_349:\n        /* \"@openzeppelin/contracts-upgradeable/token/ERC20/ERC20Upgradeable.sol\":12384:12441  _approve(owner, spender, currentAllowance - value, false) */\n      tag_352\n        /* \"@openzeppelin/contracts-upgradeable/token/ERC20/ERC20Upgradeable.sol\":12393:12398  owner */\n      dup5\n        /* \"@openzeppelin/contracts-upgradeable/token/ERC20/ERC20Upgradeable.sol\":12400:12407  spender */\n      dup5\n        /* \"@openzeppelin/contracts-upgradeable/token/ERC20/ERC20Upgradeable.sol\":12428:12433  value */\n      dup5\n        /* \"@openzeppelin/contracts-upgradeable/token/ERC20/ERC20Upgradeable.sol\":12409:12425  currentAllowance */\n      dup5\n        /* \"@openzeppelin/contracts-upgradeable/token/ERC20/ERC20Upgradeable.sol\":12409:12433  currentAllowance - value */\n      sub\n        /* \"@openzeppelin/contracts-upgradeable/token/ERC20/ERC20Upgradeable.sol\":12435:12440  false */\n      0x00\n        /* \"@openzeppelin/contracts-upgradeable/token/ERC20/ERC20Upgradeable.sol\":12384:12392  _approve */\n      tag_345\n        /* \"@openzeppelin/contracts-upgradeable/token/ERC20/ERC20Upgradeable.sol\":12384:12441  _approve(owner, spender, currentAllowance - value, false) */\n      jump\t// in\n    tag_352:\n        /* \"@openzeppelin/contracts-upgradeable/token/ERC20/ERC20Upgradeable.sol\":12156:12466  if (currentAllowance != type(uint256).max) {... */\n    tag_348:\n        /* \"@openzeppelin/contracts-upgradeable/token/ERC20/ERC20Upgradeable.sol\":12084:12472  {... */\n      pop\n        /* \"@openzeppelin/contracts-upgradeable/token/ERC20/ERC20Upgradeable.sol\":11995:12472  function _spendAllowance(address owner, address spender, uint256 value) internal virtual {... */\n      pop\n      pop\n      pop\n      jump\t// out\n        /* \"@openzeppelin/contracts-upgradeable/token/ERC20/ERC20Upgradeable.sol\":6868:7170  function _transfer(address from, address to, uint256 value) internal   {... */\n    tag_186:\n        /* \"@openzeppelin/contracts-upgradeable/token/ERC20/ERC20Upgradeable.sol\":6969:6970  0 */\n      0x00\n        /* \"@openzeppelin/contracts-upgradeable/token/ERC20/ERC20Upgradeable.sol\":6953:6971  from == address(0) */\n      0xffffffffffffffffffffffffffffffffffffffff\n      and\n        /* \"@openzeppelin/contracts-upgradeable/token/ERC20/ERC20Upgradeable.sol\":6953:6957  from */\n      dup4\n        /* \"@openzeppelin/contracts-upgradeable/token/ERC20/ERC20Upgradeable.sol\":6953:6971  from == address(0) */\n      0xffffffffffffffffffffffffffffffffffffffff\n      and\n      sub\n        /* \"@openzeppelin/contracts-upgradeable/token/ERC20/ERC20Upgradeable.sol\":6949:7035  if (from == address(0)) {... */\n      tag_354\n      jumpi\n        /* \"@openzeppelin/contracts-upgradeable/token/ERC20/ERC20Upgradeable.sol\":7021:7022  0 */\n      0x00\n        /* \"@openzeppelin/contracts-upgradeable/token/ERC20/ERC20Upgradeable.sol\":6994:7024  ERC20InvalidSender(address(0)) */\n      mload(0x40)\n      0x96c6fd1e00000000000000000000000000000000000000000000000000000000\n      dup2\n      mstore\n      0x04\n      add\n      tag_355\n      swap2\n      swap1\n      tag_110\n      jump\t// in\n    tag_355:\n      mload(0x40)\n      dup1\n      swap2\n      sub\n      swap1\n      revert\n        /* \"@openzeppelin/contracts-upgradeable/token/ERC20/ERC20Upgradeable.sol\":6949:7035  if (from == address(0)) {... */\n    tag_354:\n        /* \"@openzeppelin/contracts-upgradeable/token/ERC20/ERC20Upgradeable.sol\":7062:7063  0 */\n      0x00\n        /* \"@openzeppelin/contracts-upgradeable/token/ERC20/ERC20Upgradeable.sol\":7048:7064  to == address(0) */\n      0xffffffffffffffffffffffffffffffffffffffff\n      and\n        /* \"@openzeppelin/contracts-upgradeable/token/ERC20/ERC20Upgradeable.sol\":7048:7050  to */\n      dup3\n        /* \"@openzeppelin/contracts-upgradeable/token/ERC20/ERC20Upgradeable.sol\":7048:7064  to == address(0) */\n      0xffffffffffffffffffffffffffffffffffffffff\n      and\n      sub\n        /* \"@openzeppelin/contracts-upgradeable/token/ERC20/ERC20Upgradeable.sol\":7044:7130  if (to == address(0)) {... */\n      tag_356\n      jumpi\n        /* \"@openzeppelin/contracts-upgradeable/token/ERC20/ERC20Upgradeable.sol\":7116:7117  0 */\n      0x00\n        /* \"@openzeppelin/contracts-upgradeable/token/ERC20/ERC20Upgradeable.sol\":7087:7119  ERC20InvalidReceiver(address(0)) */\n      mload(0x40)\n      0xec442f0500000000000000000000000000000000000000000000000000000000\n      dup2\n      mstore\n      0x04\n      add\n      tag_357\n      swap2\n      swap1\n      tag_110\n      jump\t// in\n    tag_357:\n      mload(0x40)\n      dup1\n      swap2\n      sub\n      swap1\n      revert\n        /* \"@openzeppelin/contracts-upgradeable/token/ERC20/ERC20Upgradeable.sol\":7044:7130  if (to == address(0)) {... */\n    tag_356:\n        /* \"@openzeppelin/contracts-upgradeable/token/ERC20/ERC20Upgradeable.sol\":7139:7163  _update(from, to, value) */\n      tag_358\n        /* \"@openzeppelin/contracts-upgradeable/token/ERC20/ERC20Upgradeable.sol\":7147:7151  from */\n      dup4\n        /* \"@openzeppelin/contracts-upgradeable/token/ERC20/ERC20Upgradeable.sol\":7153:7155  to */\n      dup4\n        /* \"@openzeppelin/contracts-upgradeable/token/ERC20/ERC20Upgradeable.sol\":7157:7162  value */\n      dup4\n        /* \"@openzeppelin/contracts-upgradeable/token/ERC20/ERC20Upgradeable.sol\":7139:7146  _update */\n      tag_359\n        /* \"@openzeppelin/contracts-upgradeable/token/ERC20/ERC20Upgradeable.sol\":7139:7163  _update(from, to, value) */\n      jump\t// in\n    tag_358:\n        /* \"@openzeppelin/contracts-upgradeable/token/ERC20/ERC20Upgradeable.sol\":6868:7170  function _transfer(address from, address to, uint256 value) internal   {... */\n      pop\n      pop\n      pop\n      jump\t// out\n        /* \"@openzeppelin/contracts-upgradeable/access/OwnableUpgradeable.sol\":2658:2820  function _checkOwner() internal view virtual {... */\n    tag_190:\n        /* \"@openzeppelin/contracts-upgradeable/access/OwnableUpgradeable.sol\":2728:2740  _msgSender() */\n      tag_361\n        /* \"@openzeppelin/contracts-upgradeable/access/OwnableUpgradeable.sol\":2728:2738  _msgSender */\n      tag_176\n        /* \"@openzeppelin/contracts-upgradeable/access/OwnableUpgradeable.sol\":2728:2740  _msgSender() */\n      jump\t// in\n    tag_361:\n        /* \"@openzeppelin/contracts-upgradeable/access/OwnableUpgradeable.sol\":2717:2740  owner() != _msgSender() */\n      0xffffffffffffffffffffffffffffffffffffffff\n      and\n        /* \"@openzeppelin/contracts-upgradeable/access/OwnableUpgradeable.sol\":2717:2724  owner() */\n      tag_362\n        /* \"@openzeppelin/contracts-upgradeable/access/OwnableUpgradeable.sol\":2717:2722  owner */\n      tag_126\n        /* \"@openzeppelin/contracts-upgradeable/access/OwnableUpgradeable.sol\":2717:2724  owner() */\n      jump\t// in\n    tag_362:\n        /* \"@openzeppelin/contracts-upgradeable/access/OwnableUpgradeable.sol\":2717:2740  owner() != _msgSender() */\n      0xffffffffffffffffffffffffffffffffffffffff\n      and\n      eq\n        /* \"@openzeppelin/contracts-upgradeable/access/OwnableUpgradeable.sol\":2713:2814  if (owner() != _msgSender()) {... */\n      tag_363\n      jumpi\n        /* \"@openzeppelin/contracts-upgradeable/access/OwnableUpgradeable.sol\":2790:2802  _msgSender() */\n      tag_364\n        /* \"@openzeppelin/contracts-upgradeable/access/OwnableUpgradeable.sol\":2790:2800  _msgSender */\n      tag_176\n        /* \"@openzeppelin/contracts-upgradeable/access/OwnableUpgradeable.sol\":2790:2802  _msgSender() */\n      jump\t// in\n    tag_364:\n        /* \"@openzeppelin/contracts-upgradeable/access/OwnableUpgradeable.sol\":2763:2803  OwnableUnauthorizedAccount(_msgSender()) */\n      mload(0x40)\n      0x118cdaa700000000000000000000000000000000000000000000000000000000\n      dup2\n      mstore\n      0x04\n      add\n      tag_365\n      swap2\n      swap1\n      tag_110\n      jump\t// in\n    tag_365:\n      mload(0x40)\n      dup1\n      swap2\n      sub\n      swap1\n      revert\n        /* \"@openzeppelin/contracts-upgradeable/access/OwnableUpgradeable.sol\":2713:2814  if (owner() != _msgSender()) {... */\n    tag_363:\n        /* \"@openzeppelin/contracts-upgradeable/access/OwnableUpgradeable.sol\":2658:2820  function _checkOwner() internal view virtual {... */\n      jump\t// out\n        /* \"@openzeppelin/contracts-upgradeable/token/ERC20/ERC20Upgradeable.sol\":8998:9206  function _mint(address account, uint256 value) internal {... */\n    tag_193:\n        /* \"@openzeppelin/contracts-upgradeable/token/ERC20/ERC20Upgradeable.sol\":9087:9088  0 */\n      0x00\n        /* \"@openzeppelin/contracts-upgradeable/token/ERC20/ERC20Upgradeable.sol\":9068:9089  account == address(0) */\n      0xffffffffffffffffffffffffffffffffffffffff\n      and\n        /* \"@openzeppelin/contracts-upgradeable/token/ERC20/ERC20Upgradeable.sol\":9068:9075  account */\n      dup3\n        /* \"@openzeppelin/contracts-upgradeable/token/ERC20/ERC20Upgradeable.sol\":9068:9089  account == address(0) */\n      0xffffffffffffffffffffffffffffffffffffffff\n      and\n      sub\n        /* \"@openzeppelin/contracts-upgradeable/token/ERC20/ERC20Upgradeable.sol\":9064:9155  if (account == address(0)) {... */\n      tag_367\n      jumpi\n        /* \"@openzeppelin/contracts-upgradeable/token/ERC20/ERC20Upgradeable.sol\":9141:9142  0 */\n      0x00\n        /* \"@openzeppelin/contracts-upgradeable/token/ERC20/ERC20Upgradeable.sol\":9112:9144  ERC20InvalidReceiver(address(0)) */\n      mload(0x40)\n      0xec442f0500000000000000000000000000000000000000000000000000000000\n      dup2\n      mstore\n      0x04\n      add\n      tag_368\n      swap2\n      swap1\n      tag_110\n      jump\t// in\n    tag_368:\n      mload(0x40)\n      dup1\n      swap2\n      sub\n      swap1\n      revert\n        /* \"@openzeppelin/contracts-upgradeable/token/ERC20/ERC20Upgradeable.sol\":9064:9155  if (account == address(0)) {... */\n    tag_367:\n        /* \"@openzeppelin/contracts-upgradeable/token/ERC20/ERC20Upgradeable.sol\":9164:9199  _update(address(0), account, value) */\n      tag_369\n        /* \"@openzeppelin/contracts-upgradeable/token/ERC20/ERC20Upgradeable.sol\":9180:9181  0 */\n      0x00\n        /* \"@openzeppelin/contracts-upgradeable/token/ERC20/ERC20Upgradeable.sol\":9184:9191  account */\n      dup4\n        /* \"@openzeppelin/contracts-upgradeable/token/ERC20/ERC20Upgradeable.sol\":9193:9198  value */\n      dup4\n        /* \"@openzeppelin/contracts-upgradeable/token/ERC20/ERC20Upgradeable.sol\":9164:9171  _update */\n      tag_359\n        /* \"@openzeppelin/contracts-upgradeable/token/ERC20/ERC20Upgradeable.sol\":9164:9199  _update(address(0), account, value) */\n      jump\t// in\n    tag_369:\n        /* \"@openzeppelin/contracts-upgradeable/token/ERC20/ERC20Upgradeable.sol\":8998:9206  function _mint(address account, uint256 value) internal {... */\n      pop\n      pop\n      jump\t// out\n        /* \"@openzeppelin/contracts-upgradeable/token/ERC20/ERC20Upgradeable.sol\":9524:9730  function _burn(address account, uint256 value) internal {... */\n    tag_197:\n        /* \"@openzeppelin/contracts-upgradeable/token/ERC20/ERC20Upgradeable.sol\":9613:9614  0 */\n      0x00\n        /* \"@openzeppelin/contracts-upgradeable/token/ERC20/ERC20Upgradeable.sol\":9594:9615  account == address(0) */\n      0xffffffffffffffffffffffffffffffffffffffff\n      and\n        /* \"@openzeppelin/contracts-upgradeable/token/ERC20/ERC20Upgradeable.sol\":9594:9601  account */\n      dup3\n        /* \"@openzeppelin/contracts-upgradeable/token/ERC20/ERC20Upgradeable.sol\":9594:9615  account == address(0) */\n      0xffffffffffffffffffffffffffffffffffffffff\n      and\n      sub\n        /* \"@openzeppelin/contracts-upgradeable/token/ERC20/ERC20Upgradeable.sol\":9590:9679  if (account == address(0)) {... */\n      tag_371\n      jumpi\n        /* \"@openzeppelin/contracts-upgradeable/token/ERC20/ERC20Upgradeable.sol\":9665:9666  0 */\n      0x00\n        /* \"@openzeppelin/contracts-upgradeable/token/ERC20/ERC20Upgradeable.sol\":9638:9668  ERC20InvalidSender(address(0)) */\n      mload(0x40)\n      0x96c6fd1e00000000000000000000000000000000000000000000000000000000\n      dup2\n      mstore\n      0x04\n      add\n      tag_372\n      swap2\n      swap1\n      tag_110\n      jump\t// in\n    tag_372:\n      mload(0x40)\n      dup1\n      swap2\n      sub\n      swap1\n      revert\n        /* \"@openzeppelin/contracts-upgradeable/token/ERC20/ERC20Upgradeable.sol\":9590:9679  if (account == address(0)) {... */\n    tag_371:\n        /* \"@openzeppelin/contracts-upgradeable/token/ERC20/ERC20Upgradeable.sol\":9688:9723  _update(account, address(0), value) */\n      tag_373\n        /* \"@openzeppelin/contracts-upgradeable/token/ERC20/ERC20Upgradeable.sol\":9696:9703  account */\n      dup3\n        /* \"@openzeppelin/contracts-upgradeable/token/ERC20/ERC20Upgradeable.sol\":9713:9714  0 */\n      0x00\n        /* \"@openzeppelin/contracts-upgradeable/token/ERC20/ERC20Upgradeable.sol\":9717:9722  value */\n      dup4\n        /* \"@openzeppelin/contracts-upgradeable/token/ERC20/ERC20Upgradeable.sol\":9688:9695  _update */\n      tag_359\n        /* \"@openzeppelin/contracts-upgradeable/token/ERC20/ERC20Upgradeable.sol\":9688:9723  _update(account, address(0), value) */\n      jump\t// in\n    tag_373:\n        /* \"@openzeppelin/contracts-upgradeable/token/ERC20/ERC20Upgradeable.sol\":9524:9730  function _burn(address account, uint256 value) internal {... */\n      pop\n      pop\n      jump\t// out\n        /* \"@openzeppelin/contracts-upgradeable/access/OwnableUpgradeable.sol\":3774:4022  function _transferOwnership(address newOwner) internal virtual {... */\n    tag_245:\n        /* \"@openzeppelin/contracts-upgradeable/access/OwnableUpgradeable.sol\":3847:3871  OwnableStorage storage $ */\n      0x00\n        /* \"@openzeppelin/contracts-upgradeable/access/OwnableUpgradeable.sol\":3874:3894  _getOwnableStorage() */\n      tag_375\n        /* \"@openzeppelin/contracts-upgradeable/access/OwnableUpgradeable.sol\":3874:3892  _getOwnableStorage */\n      tag_314\n        /* \"@openzeppelin/contracts-upgradeable/access/OwnableUpgradeable.sol\":3874:3894  _getOwnableStorage() */\n      jump\t// in\n    tag_375:\n        /* \"@openzeppelin/contracts-upgradeable/access/OwnableUpgradeable.sol\":3847:3894  OwnableStorage storage $ = _getOwnableStorage() */\n      swap1\n      pop\n        /* \"@openzeppelin/contracts-upgradeable/access/OwnableUpgradeable.sol\":3904:3920  address oldOwner */\n      0x00\n        /* \"@openzeppelin/contracts-upgradeable/access/OwnableUpgradeable.sol\":3923:3924  $ */\n      dup2\n        /* \"@openzeppelin/contracts-upgradeable/access/OwnableUpgradeable.sol\":3923:3931  $._owner */\n      0x00\n      add\n      0x00\n      swap1\n      sload\n      swap1\n      0x0100\n      exp\n      swap1\n      div\n      0xffffffffffffffffffffffffffffffffffffffff\n      and\n        /* \"@openzeppelin/contracts-upgradeable/access/OwnableUpgradeable.sol\":3904:3931  address oldOwner = $._owner */\n      swap1\n      pop\n        /* \"@openzeppelin/contracts-upgradeable/access/OwnableUpgradeable.sol\":3952:3960  newOwner */\n      dup3\n        /* \"@openzeppelin/contracts-upgradeable/access/OwnableUpgradeable.sol\":3941:3942  $ */\n      dup3\n        /* \"@openzeppelin/contracts-upgradeable/access/OwnableUpgradeable.sol\":3941:3949  $._owner */\n      0x00\n      add\n      0x00\n        /* \"@openzeppelin/contracts-upgradeable/access/OwnableUpgradeable.sol\":3941:3960  $._owner = newOwner */\n      0x0100\n      exp\n      dup2\n      sload\n      dup2\n      0xffffffffffffffffffffffffffffffffffffffff\n      mul\n      not\n      and\n      swap1\n      dup4\n      0xffffffffffffffffffffffffffffffffffffffff\n      and\n      mul\n      or\n      swap1\n      sstore\n      pop\n        /* \"@openzeppelin/contracts-upgradeable/access/OwnableUpgradeable.sol\":4006:4014  newOwner */\n      dup3\n        /* \"@openzeppelin/contracts-upgradeable/access/OwnableUpgradeable.sol\":3975:4015  OwnershipTransferred(oldOwner, newOwner) */\n      0xffffffffffffffffffffffffffffffffffffffff\n      and\n        /* \"@openzeppelin/contracts-upgradeable/access/OwnableUpgradeable.sol\":3996:4004  oldOwner */\n      dup2\n        /* \"@openzeppelin/contracts-upgradeable/access/OwnableUpgradeable.sol\":3975:4015  OwnershipTransferred(oldOwner, newOwner) */\n      0xffffffffffffffffffffffffffffffffffffffff\n      and\n      0x8be0079c531659141344cd1fd0a4f28419497f9722a3daafe3b4186f6b6457e0\n      mload(0x40)\n      mload(0x40)\n      dup1\n      swap2\n      sub\n      swap1\n      log3\n        /* \"@openzeppelin/contracts-upgradeable/access/OwnableUpgradeable.sol\":3837:4022  {... */\n      pop\n      pop\n        /* \"@openzeppelin/contracts-upgradeable/access/OwnableUpgradeable.sol\":3774:4022  function _transferOwnership(address newOwner) internal virtual {... */\n      pop\n      jump\t// out\n        /* \"@openzeppelin/contracts-upgradeable/proxy/utils/Initializable.sol\":8737:8907  function _getInitializableStorage() private pure returns (InitializableStorage storage $) {... */\n    tag_259:\n        /* \"@openzeppelin/contracts-upgradeable/proxy/utils/Initializable.sol\":8795:8825  InitializableStorage storage $ */\n      0x00\n        /* \"@openzeppelin/contracts-upgradeable/proxy/utils/Initializable.sol\":8870:8891  INITIALIZABLE_STORAGE */\n      0xf0c57e16840df040f15088dc2f81fe391c3923bec73e23a9662efc9c229c6a00\n        /* \"@openzeppelin/contracts-upgradeable/proxy/utils/Initializable.sol\":8860:8891  $.slot := INITIALIZABLE_STORAGE */\n      swap1\n      pop\n        /* \"@openzeppelin/contracts-upgradeable/proxy/utils/Initializable.sol\":8737:8907  function _getInitializableStorage() private pure returns (InitializableStorage storage $) {... */\n      swap1\n      jump\t// out\n        /* \"@openzeppelin/contracts-upgradeable/access/OwnableUpgradeable.sol\":1847:1974  function __Ownable_init(address initialOwner) internal onlyInitializing {... */\n    tag_267:\n        /* \"@openzeppelin/contracts-upgradeable/proxy/utils/Initializable.sol\":6931:6951  _checkInitializing() */\n      tag_378\n        /* \"@openzeppelin/contracts-upgradeable/proxy/utils/Initializable.sol\":6931:6949  _checkInitializing */\n      tag_379\n        /* \"@openzeppelin/contracts-upgradeable/proxy/utils/Initializable.sol\":6931:6951  _checkInitializing() */\n      jump\t// in\n    tag_378:\n        /* \"@openzeppelin/contracts-upgradeable/access/OwnableUpgradeable.sol\":1929:1967  __Ownable_init_unchained(initialOwner) */\n      tag_381\n        /* \"@openzeppelin/contracts-upgradeable/access/OwnableUpgradeable.sol\":1954:1966  initialOwner */\n      dup2\n        /* \"@openzeppelin/contracts-upgradeable/access/OwnableUpgradeable.sol\":1929:1953  __Ownable_init_unchained */\n      tag_382\n        /* \"@openzeppelin/contracts-upgradeable/access/OwnableUpgradeable.sol\":1929:1967  __Ownable_init_unchained(initialOwner) */\n      jump\t// in\n    tag_381:\n        /* \"@openzeppelin/contracts-upgradeable/access/OwnableUpgradeable.sol\":1847:1974  function __Ownable_init(address initialOwner) internal onlyInitializing {... */\n      pop\n      jump\t// out\n        /* \"@openzeppelin/contracts-upgradeable/token/ERC20/extensions/ERC20BurnableUpgradeable.sol\":666:731  function __ERC20Burnable_init() internal onlyInitializing {... */\n    tag_269:\n        /* \"@openzeppelin/contracts-upgradeable/proxy/utils/Initializable.sol\":6931:6951  _checkInitializing() */\n      tag_384\n        /* \"@openzeppelin/contracts-upgradeable/proxy/utils/Initializable.sol\":6931:6949  _checkInitializing */\n      tag_379\n        /* \"@openzeppelin/contracts-upgradeable/proxy/utils/Initializable.sol\":6931:6951  _checkInitializing() */\n      jump\t// in\n    tag_384:\n        /* \"@openzeppelin/contracts-upgradeable/token/ERC20/extensions/ERC20BurnableUpgradeable.sol\":666:731  function __ERC20Burnable_init() internal onlyInitializing {... */\n      jump\t// out\n        /* \"@openzeppelin/contracts-upgradeable/token/ERC20/ERC20Upgradeable.sol\":2577:2724  function __ERC20_init(string memory name_, string memory symbol_) internal onlyInitializing {... */\n    tag_271:\n        /* \"@openzeppelin/contracts-upgradeable/proxy/utils/Initializable.sol\":6931:6951  _checkInitializing() */\n      tag_387\n        /* \"@openzeppelin/contracts-upgradeable/proxy/utils/Initializable.sol\":6931:6949  _checkInitializing */\n      tag_379\n        /* \"@openzeppelin/contracts-upgradeable/proxy/utils/Initializable.sol\":6931:6951  _checkInitializing() */\n      jump\t// in\n    tag_387:\n        /* \"@openzeppelin/contracts-upgradeable/token/ERC20/ERC20Upgradeable.sol\":2679:2717  __ERC20_init_unchained(name_, symbol_) */\n      tag_389\n        /* \"@openzeppelin/contracts-upgradeable/token/ERC20/ERC20Upgradeable.sol\":2702:2707  name_ */\n      dup3\n        /* \"@openzeppelin/contracts-upgradeable/token/ERC20/ERC20Upgradeable.sol\":2709:2716  symbol_ */\n      dup3\n        /* \"@openzeppelin/contracts-upgradeable/token/ERC20/ERC20Upgradeable.sol\":2679:2701  __ERC20_init_unchained */\n      tag_390\n        /* \"@openzeppelin/contracts-upgradeable/token/ERC20/ERC20Upgradeable.sol\":2679:2717  __ERC20_init_unchained(name_, symbol_) */\n      jump\t// in\n    tag_389:\n        /* \"@openzeppelin/contracts-upgradeable/token/ERC20/ERC20Upgradeable.sol\":2577:2724  function __ERC20_init(string memory name_, string memory symbol_) internal onlyInitializing {... */\n      pop\n      pop\n      jump\t// out\n        /* \"@openzeppelin/contracts-upgradeable/access/OwnableUpgradeable.sol\":1192:1351  function _getOwnableStorage() private pure returns (OwnableStorage storage $) {... */\n    tag_314:\n        /* \"@openzeppelin/contracts-upgradeable/access/OwnableUpgradeable.sol\":1244:1268  OwnableStorage storage $ */\n      0x00\n        /* \"@openzeppelin/contracts-upgradeable/access/OwnableUpgradeable.sol\":1313:1335  OwnableStorageLocation */\n      0x9016d09d72d40fdae2fd8ceac6b6234c7706214fd39c1cd1e609a0528c199300\n        /* \"@openzeppelin/contracts-upgradeable/access/OwnableUpgradeable.sol\":1303:1335  $.slot := OwnableStorageLocation */\n      swap1\n      pop\n        /* \"@openzeppelin/contracts-upgradeable/access/OwnableUpgradeable.sol\":1192:1351  function _getOwnableStorage() private pure returns (OwnableStorage storage $) {... */\n      swap1\n      jump\t// out\n        /* \"@openzeppelin/contracts-upgradeable/token/ERC20/ERC20Upgradeable.sol\":11226:11713  function _approve(address owner, address spender, uint256 value, bool emitEvent) internal virtual {... */\n    tag_345:\n        /* \"@openzeppelin/contracts-upgradeable/token/ERC20/ERC20Upgradeable.sol\":11334:11356  ERC20Storage storage $ */\n      0x00\n        /* \"@openzeppelin/contracts-upgradeable/token/ERC20/ERC20Upgradeable.sol\":11359:11377  _getERC20Storage() */\n      tag_393\n        /* \"@openzeppelin/contracts-upgradeable/token/ERC20/ERC20Upgradeable.sol\":11359:11375  _getERC20Storage */\n      tag_167\n        /* \"@openzeppelin/contracts-upgradeable/token/ERC20/ERC20Upgradeable.sol\":11359:11377  _getERC20Storage() */\n      jump\t// in\n    tag_393:\n        /* \"@openzeppelin/contracts-upgradeable/token/ERC20/ERC20Upgradeable.sol\":11334:11377  ERC20Storage storage $ = _getERC20Storage() */\n      swap1\n      pop\n        /* \"@openzeppelin/contracts-upgradeable/token/ERC20/ERC20Upgradeable.sol\":11408:11409  0 */\n      0x00\n        /* \"@openzeppelin/contracts-upgradeable/token/ERC20/ERC20Upgradeable.sol\":11391:11410  owner == address(0) */\n      0xffffffffffffffffffffffffffffffffffffffff\n      and\n        /* \"@openzeppelin/contracts-upgradeable/token/ERC20/ERC20Upgradeable.sol\":11391:11396  owner */\n      dup6\n        /* \"@openzeppelin/contracts-upgradeable/token/ERC20/ERC20Upgradeable.sol\":11391:11410  owner == address(0) */\n      0xffffffffffffffffffffffffffffffffffffffff\n      and\n      sub\n        /* \"@openzeppelin/contracts-upgradeable/token/ERC20/ERC20Upgradeable.sol\":11387:11476  if (owner == address(0)) {... */\n      tag_394\n      jumpi\n        /* \"@openzeppelin/contracts-upgradeable/token/ERC20/ERC20Upgradeable.sol\":11462:11463  0 */\n      0x00\n        /* \"@openzeppelin/contracts-upgradeable/token/ERC20/ERC20Upgradeable.sol\":11433:11465  ERC20InvalidApprover(address(0)) */\n      mload(0x40)\n      0xe602df0500000000000000000000000000000000000000000000000000000000\n      dup2\n      mstore\n      0x04\n      add\n      tag_395\n      swap2\n      swap1\n      tag_110\n      jump\t// in\n    tag_395:\n      mload(0x40)\n      dup1\n      swap2\n      sub\n      swap1\n      revert\n        /* \"@openzeppelin/contracts-upgradeable/token/ERC20/ERC20Upgradeable.sol\":11387:11476  if (owner == address(0)) {... */\n    tag_394:\n        /* \"@openzeppelin/contracts-upgradeable/token/ERC20/ERC20Upgradeable.sol\":11508:11509  0 */\n      0x00\n        /* \"@openzeppelin/contracts-upgradeable/token/ERC20/ERC20Upgradeable.sol\":11489:11510  spender == address(0) */\n      0xffffffffffffffffffffffffffffffffffffffff\n      and\n        /* \"@openzeppelin/contracts-upgradeable/token/ERC20/ERC20Upgradeable.sol\":11489:11496  spender */\n      dup5\n        /* \"@openzeppelin/contracts-upgradeable/token/ERC20/ERC20Upgradeable.sol\":11489:11510  spender == address(0) */\n      0xffffffffffffffffffffffffffffffffffffffff\n      and\n      sub\n        /* \"@openzeppelin/contracts-upgradeable/token/ERC20/ERC20Upgradeable.sol\":11485:11575  if (spender == address(0)) {... */\n      tag_396\n      jumpi\n        /* \"@openzeppelin/contracts-upgradeable/token/ERC20/ERC20Upgradeable.sol\":11561:11562  0 */\n      0x00\n        /* \"@openzeppelin/contracts-upgradeable/token/ERC20/ERC20Upgradeable.sol\":11533:11564  ERC20InvalidSpender(address(0)) */\n      mload(0x40)\n      0x94280d6200000000000000000000000000000000000000000000000000000000\n      dup2\n      mstore\n      0x04\n      add\n      tag_397\n      swap2\n      swap1\n      tag_110\n      jump\t// in\n    tag_397:\n      mload(0x40)\n      dup1\n      swap2\n      sub\n      swap1\n      revert\n        /* \"@openzeppelin/contracts-upgradeable/token/ERC20/ERC20Upgradeable.sol\":11485:11575  if (spender == address(0)) {... */\n    tag_396:\n        /* \"@openzeppelin/contracts-upgradeable/token/ERC20/ERC20Upgradeable.sol\":11616:11621  value */\n      dup3\n        /* \"@openzeppelin/contracts-upgradeable/token/ERC20/ERC20Upgradeable.sol\":11584:11585  $ */\n      dup2\n        /* \"@openzeppelin/contracts-upgradeable/token/ERC20/ERC20Upgradeable.sol\":11584:11597  $._allowances */\n      0x01\n      add\n        /* \"@openzeppelin/contracts-upgradeable/token/ERC20/ERC20Upgradeable.sol\":11584:11604  $._allowances[owner] */\n      0x00\n        /* \"@openzeppelin/contracts-upgradeable/token/ERC20/ERC20Upgradeable.sol\":11598:11603  owner */\n      dup8\n        /* \"@openzeppelin/contracts-upgradeable/token/ERC20/ERC20Upgradeable.sol\":11584:11604  $._allowances[owner] */\n      0xffffffffffffffffffffffffffffffffffffffff\n      and\n      0xffffffffffffffffffffffffffffffffffffffff\n      and\n      dup2\n      mstore\n      0x20\n      add\n      swap1\n      dup2\n      mstore\n      0x20\n      add\n      0x00\n      keccak256\n        /* \"@openzeppelin/contracts-upgradeable/token/ERC20/ERC20Upgradeable.sol\":11584:11613  $._allowances[owner][spender] */\n      0x00\n        /* \"@openzeppelin/contracts-upgradeable/token/ERC20/ERC20Upgradeable.sol\":11605:11612  spender */\n      dup7\n        /* \"@openzeppelin/contracts-upgradeable/token/ERC20/ERC20Upgradeable.sol\":11584:11613  $._allowances[owner][spender] */\n      0xffffffffffffffffffffffffffffffffffffffff\n      and\n      0xffffffffffffffffffffffffffffffffffffffff\n      and\n      dup2\n      mstore\n      0x20\n      add\n      swap1\n      dup2\n      mstore\n      0x20\n      add\n      0x00\n      keccak256\n        /* \"@openzeppelin/contracts-upgradeable/token/ERC20/ERC20Upgradeable.sol\":11584:11621  $._allowances[owner][spender] = value */\n      dup2\n      swap1\n      sstore\n      pop\n        /* \"@openzeppelin/contracts-upgradeable/token/ERC20/ERC20Upgradeable.sol\":11635:11644  emitEvent */\n      dup2\n        /* \"@openzeppelin/contracts-upgradeable/token/ERC20/ERC20Upgradeable.sol\":11631:11707  if (emitEvent) {... */\n      iszero\n      tag_398\n      jumpi\n        /* \"@openzeppelin/contracts-upgradeable/token/ERC20/ERC20Upgradeable.sol\":11681:11688  spender */\n      dup4\n        /* \"@openzeppelin/contracts-upgradeable/token/ERC20/ERC20Upgradeable.sol\":11665:11696  Approval(owner, spender, value) */\n      0xffffffffffffffffffffffffffffffffffffffff\n      and\n        /* \"@openzeppelin/contracts-upgradeable/token/ERC20/ERC20Upgradeable.sol\":11674:11679  owner */\n      dup6\n        /* \"@openzeppelin/contracts-upgradeable/token/ERC20/ERC20Upgradeable.sol\":11665:11696  Approval(owner, spender, value) */\n      0xffffffffffffffffffffffffffffffffffffffff\n      and\n      0x8c5be1e5ebec7d5bd14f71427d1e84f3dd0314c0f7b2291e5b200ac8c7c3b925\n        /* \"@openzeppelin/contracts-upgradeable/token/ERC20/ERC20Upgradeable.sol\":11690:11695  value */\n      dup6\n        /* \"@openzeppelin/contracts-upgradeable/token/ERC20/ERC20Upgradeable.sol\":11665:11696  Approval(owner, spender, value) */\n      mload(0x40)\n      tag_399\n      swap2\n      swap1\n      tag_58\n      jump\t// in\n    tag_399:\n      mload(0x40)\n      dup1\n      swap2\n      sub\n      swap1\n      log3\n        /* \"@openzeppelin/contracts-upgradeable/token/ERC20/ERC20Upgradeable.sol\":11631:11707  if (emitEvent) {... */\n    tag_398:\n        /* \"@openzeppelin/contracts-upgradeable/token/ERC20/ERC20Upgradeable.sol\":11324:11713  {... */\n      pop\n        /* \"@openzeppelin/contracts-upgradeable/token/ERC20/ERC20Upgradeable.sol\":11226:11713  function _approve(address owner, address spender, uint256 value, bool emitEvent) internal virtual {... */\n      pop\n      pop\n      pop\n      pop\n      jump\t// out\n        /* \"Token/123.sol\":12258:13859  function _update(address sender, address recipient, uint256 amount) internal override{... */\n    tag_359:\n        /* \"Token/123.sol\":12380:12381  0 */\n      0x00\n        /* \"Token/123.sol\":12362:12382  sender != address(0) */\n      0xffffffffffffffffffffffffffffffffffffffff\n      and\n        /* \"Token/123.sol\":12362:12368  sender */\n      dup4\n        /* \"Token/123.sol\":12362:12382  sender != address(0) */\n      0xffffffffffffffffffffffffffffffffffffffff\n      and\n      sub\n        /* \"Token/123.sol\":12354:12424  require(sender != address(0), \"ERC20: transfer from the zero address\") */\n      tag_401\n      jumpi\n      mload(0x40)\n      0x08c379a000000000000000000000000000000000000000000000000000000000\n      dup2\n      mstore\n      0x04\n      add\n      tag_402\n      swap1\n      tag_403\n      jump\t// in\n    tag_402:\n      mload(0x40)\n      dup1\n      swap2\n      sub\n      swap1\n      revert\n    tag_401:\n        /* \"Token/123.sol\":12464:12465  0 */\n      0x00\n        /* \"Token/123.sol\":12443:12466  recipient != address(0) */\n      0xffffffffffffffffffffffffffffffffffffffff\n      and\n        /* \"Token/123.sol\":12443:12452  recipient */\n      dup3\n        /* \"Token/123.sol\":12443:12466  recipient != address(0) */\n      0xffffffffffffffffffffffffffffffffffffffff\n      and\n      sub\n        /* \"Token/123.sol\":12435:12506  require(recipient != address(0), \"ERC20: transfer to the zero address\") */\n      tag_404\n      jumpi\n      mload(0x40)\n      0x08c379a000000000000000000000000000000000000000000000000000000000\n      dup2\n      mstore\n      0x04\n      add\n      tag_405\n      swap1\n      tag_406\n      jump\t// in\n    tag_405:\n      mload(0x40)\n      dup1\n      swap2\n      sub\n      swap1\n      revert\n    tag_404:\n        /* \"Token/123.sol\":12534:12535  0 */\n      0x00\n        /* \"Token/123.sol\":12525:12531  amount */\n      dup2\n        /* \"Token/123.sol\":12525:12535  amount > 0 */\n      gt\n        /* \"Token/123.sol\":12517:12581  require(amount > 0, \"Transfer amount must be greater than zero\") */\n      tag_407\n      jumpi\n      mload(0x40)\n      0x08c379a000000000000000000000000000000000000000000000000000000000\n      dup2\n      mstore\n      0x04\n      add\n      tag_408\n      swap1\n      tag_409\n      jump\t// in\n    tag_408:\n      mload(0x40)\n      dup1\n      swap2\n      sub\n      swap1\n      revert\n    tag_407:\n        /* \"Token/123.sol\":12603:12615  _blacklisted */\n      0x08\n        /* \"Token/123.sol\":12603:12623  _blacklisted[sender] */\n      0x00\n        /* \"Token/123.sol\":12616:12622  sender */\n      dup5\n        /* \"Token/123.sol\":12603:12623  _blacklisted[sender] */\n      0xffffffffffffffffffffffffffffffffffffffff\n      and\n      0xffffffffffffffffffffffffffffffffffffffff\n      and\n      dup2\n      mstore\n      0x20\n      add\n      swap1\n      dup2\n      mstore\n      0x20\n      add\n      0x00\n      keccak256\n      0x00\n      swap1\n      sload\n      swap1\n      0x0100\n      exp\n      swap1\n      div\n      0xff\n      and\n        /* \"Token/123.sol\":12602:12623  !_blacklisted[sender] */\n      iszero\n        /* \"Token/123.sol\":12594:12649  require(!_blacklisted[sender], \"Sender is blacklisted\") */\n      tag_410\n      jumpi\n      mload(0x40)\n      0x08c379a000000000000000000000000000000000000000000000000000000000\n      dup2\n      mstore\n      0x04\n      add\n      tag_411\n      swap1\n      tag_412\n      jump\t// in\n    tag_411:\n      mload(0x40)\n      dup1\n      swap2\n      sub\n      swap1\n      revert\n    tag_410:\n        /* \"Token/123.sol\":12669:12681  _blacklisted */\n      0x08\n        /* \"Token/123.sol\":12669:12692  _blacklisted[recipient] */\n      0x00\n        /* \"Token/123.sol\":12682:12691  recipient */\n      dup4\n        /* \"Token/123.sol\":12669:12692  _blacklisted[recipient] */\n      0xffffffffffffffffffffffffffffffffffffffff\n      and\n      0xffffffffffffffffffffffffffffffffffffffff\n      and\n      dup2\n      mstore\n      0x20\n      add\n      swap1\n      dup2\n      mstore\n      0x20\n      add\n      0x00\n      keccak256\n      0x00\n      swap1\n      sload\n      swap1\n      0x0100\n      exp\n      swap1\n      div\n      0xff\n      and\n        /* \"Token/123.sol\":12668:12692  !_blacklisted[recipient] */\n      iszero\n        /* \"Token/123.sol\":12660:12721  require(!_blacklisted[recipient], \"Recipient is blacklisted\") */\n      tag_413\n      jumpi\n      mload(0x40)\n      0x08c379a000000000000000000000000000000000000000000000000000000000\n      dup2\n      mstore\n      0x04\n      add\n      tag_414\n      swap1\n      tag_415\n      jump\t// in\n    tag_414:\n      mload(0x40)\n      dup1\n      swap2\n      sub\n      swap1\n      revert\n    tag_413:\n        /* \"Token/123.sol\":12800:12807  owner() */\n      tag_416\n        /* \"Token/123.sol\":12800:12805  owner */\n      tag_126\n        /* \"Token/123.sol\":12800:12807  owner() */\n      jump\t// in\n    tag_416:\n        /* \"Token/123.sol\":12790:12807  sender == owner() */\n      0xffffffffffffffffffffffffffffffffffffffff\n      and\n        /* \"Token/123.sol\":12790:12796  sender */\n      dup4\n        /* \"Token/123.sol\":12790:12807  sender == owner() */\n      0xffffffffffffffffffffffffffffffffffffffff\n      and\n      eq\n        /* \"Token/123.sol\":12790:12831  sender == owner() || recipient == owner() */\n      dup1\n      tag_417\n      jumpi\n      pop\n        /* \"Token/123.sol\":12824:12831  owner() */\n      tag_418\n        /* \"Token/123.sol\":12824:12829  owner */\n      tag_126\n        /* \"Token/123.sol\":12824:12831  owner() */\n      jump\t// in\n    tag_418:\n        /* \"Token/123.sol\":12811:12831  recipient == owner() */\n      0xffffffffffffffffffffffffffffffffffffffff\n      and\n        /* \"Token/123.sol\":12811:12820  recipient */\n      dup3\n        /* \"Token/123.sol\":12811:12831  recipient == owner() */\n      0xffffffffffffffffffffffffffffffffffffffff\n      and\n      eq\n        /* \"Token/123.sol\":12790:12831  sender == owner() || recipient == owner() */\n    tag_417:\n        /* \"Token/123.sol\":12790:12858  sender == owner() || recipient == owner() || sender == address(this) */\n      dup1\n      tag_419\n      jumpi\n      pop\n        /* \"Token/123.sol\":12853:12857  this */\n      address\n        /* \"Token/123.sol\":12835:12858  sender == address(this) */\n      0xffffffffffffffffffffffffffffffffffffffff\n      and\n        /* \"Token/123.sol\":12835:12841  sender */\n      dup4\n        /* \"Token/123.sol\":12835:12858  sender == address(this) */\n      0xffffffffffffffffffffffffffffffffffffffff\n      and\n      eq\n        /* \"Token/123.sol\":12790:12858  sender == owner() || recipient == owner() || sender == address(this) */\n    tag_419:\n        /* \"Token/123.sol\":12786:12947  if (sender == owner() || recipient == owner() || sender == address(this)) {... */\n      iszero\n      tag_420\n      jumpi\n        /* \"Token/123.sol\":12874:12914  super._update(sender, recipient, amount) */\n      tag_421\n        /* \"Token/123.sol\":12888:12894  sender */\n      dup4\n        /* \"Token/123.sol\":12896:12905  recipient */\n      dup4\n        /* \"Token/123.sol\":12907:12913  amount */\n      dup4\n        /* \"Token/123.sol\":12874:12887  super._update */\n      tag_422\n        /* \"Token/123.sol\":12874:12914  super._update(sender, recipient, amount) */\n      jump\t// in\n    tag_421:\n        /* \"Token/123.sol\":12929:12936  return; */\n      jump(tag_400)\n        /* \"Token/123.sol\":12786:12947  if (sender == owner() || recipient == owner() || sender == address(this)) {... */\n    tag_420:\n        /* \"Token/123.sol\":12959:12969  bool isBuy */\n      0x00\n        /* \"Token/123.sol\":12982:12993  uniswapPair */\n      0x0b\n      0x00\n      swap1\n      sload\n      swap1\n      0x0100\n      exp\n      swap1\n      div\n      0xffffffffffffffffffffffffffffffffffffffff\n      and\n        /* \"Token/123.sol\":12972:12993  sender == uniswapPair */\n      0xffffffffffffffffffffffffffffffffffffffff\n      and\n        /* \"Token/123.sol\":12972:12978  sender */\n      dup5\n        /* \"Token/123.sol\":12972:12993  sender == uniswapPair */\n      0xffffffffffffffffffffffffffffffffffffffff\n      and\n      eq\n        /* \"Token/123.sol\":12959:12993  bool isBuy = sender == uniswapPair */\n      swap1\n      pop\n        /* \"Token/123.sol\":13004:13015  bool isSell */\n      0x00\n        /* \"Token/123.sol\":13031:13042  uniswapPair */\n      0x0b\n      0x00\n      swap1\n      sload\n      swap1\n      0x0100\n      exp\n      swap1\n      div\n      0xffffffffffffffffffffffffffffffffffffffff\n      and\n        /* \"Token/123.sol\":13018:13042  recipient == uniswapPair */\n      0xffffffffffffffffffffffffffffffffffffffff\n      and\n        /* \"Token/123.sol\":13018:13027  recipient */\n      dup5\n        /* \"Token/123.sol\":13018:13042  recipient == uniswapPair */\n      0xffffffffffffffffffffffffffffffffffffffff\n      and\n      eq\n        /* \"Token/123.sol\":13004:13042  bool isSell = recipient == uniswapPair */\n      swap1\n      pop\n        /* \"Token/123.sol\":13055:13075  uint256 marketingTax */\n      0x00\n        /* \"Token/123.sol\":13086:13108  uint256 developmentTax */\n      dup1\n        /* \"Token/123.sol\":13119:13144  uint256 sustainabilityTax */\n      0x00\n        /* \"Token/123.sol\":13160:13165  isBuy */\n      dup5\n        /* \"Token/123.sol\":13160:13175  isBuy || isSell */\n      dup1\n      tag_423\n      jumpi\n      pop\n        /* \"Token/123.sol\":13169:13175  isSell */\n      dup4\n        /* \"Token/123.sol\":13160:13175  isBuy || isSell */\n    tag_423:\n        /* \"Token/123.sol\":13157:13723  if(isBuy || isSell){... */\n      iszero\n      tag_424\n      jumpi\n        /* \"Token/123.sol\":13210:13230  maxTransactionAmount */\n      sload(0x06)\n        /* \"Token/123.sol\":13200:13206  amount */\n      dup7\n        /* \"Token/123.sol\":13200:13230  amount <= maxTransactionAmount */\n      gt\n      iszero\n        /* \"Token/123.sol\":13191:13272  require (amount <= maxTransactionAmount, \"Cannot buy & sell more than max limit\") */\n      tag_425\n      jumpi\n      mload(0x40)\n      0x08c379a000000000000000000000000000000000000000000000000000000000\n      dup2\n      mstore\n      0x04\n      add\n      tag_426\n      swap1\n      tag_427\n      jump\t// in\n    tag_426:\n      mload(0x40)\n      dup1\n      swap2\n      sub\n      swap1\n      revert\n    tag_425:\n        /* \"Token/123.sol\":13302:13342  _calculateTax(amount,marketingWalletTax) */\n      tag_428\n        /* \"Token/123.sol\":13316:13322  amount */\n      dup7\n        /* \"Token/123.sol\":13323:13341  marketingWalletTax */\n      sload(0x03)\n        /* \"Token/123.sol\":13302:13315  _calculateTax */\n      tag_429\n        /* \"Token/123.sol\":13302:13342  _calculateTax(amount,marketingWalletTax) */\n      jump\t// in\n    tag_428:\n        /* \"Token/123.sol\":13287:13342  marketingTax = _calculateTax(amount,marketingWalletTax) */\n      swap3\n      pop\n        /* \"Token/123.sol\":13374:13416  _calculateTax(amount,developmentWalletTax) */\n      tag_430\n        /* \"Token/123.sol\":13388:13394  amount */\n      dup7\n        /* \"Token/123.sol\":13395:13415  developmentWalletTax */\n      sload(0x04)\n        /* \"Token/123.sol\":13374:13387  _calculateTax */\n      tag_429\n        /* \"Token/123.sol\":13374:13416  _calculateTax(amount,developmentWalletTax) */\n      jump\t// in\n    tag_430:\n        /* \"Token/123.sol\":13357:13416  developmentTax = _calculateTax(amount,developmentWalletTax) */\n      swap2\n      pop\n        /* \"Token/123.sol\":13451:13496  _calculateTax(amount,sustainabilityWalletTax) */\n      tag_431\n        /* \"Token/123.sol\":13465:13471  amount */\n      dup7\n        /* \"Token/123.sol\":13472:13495  sustainabilityWalletTax */\n      sload(0x05)\n        /* \"Token/123.sol\":13451:13464  _calculateTax */\n      tag_429\n        /* \"Token/123.sol\":13451:13496  _calculateTax(amount,sustainabilityWalletTax) */\n      jump\t// in\n    tag_431:\n        /* \"Token/123.sol\":13431:13496  sustainabilityTax = _calculateTax(amount,sustainabilityWalletTax) */\n      swap1\n      pop\n        /* \"Token/123.sol\":13513:13565  super._update(sender, marketingWallet, marketingTax) */\n      tag_432\n        /* \"Token/123.sol\":13527:13533  sender */\n      dup9\n        /* \"Token/123.sol\":13535:13550  marketingWallet */\n      0x00\n      dup1\n      sload\n      swap1\n      0x0100\n      exp\n      swap1\n      div\n      0xffffffffffffffffffffffffffffffffffffffff\n      and\n        /* \"Token/123.sol\":13552:13564  marketingTax */\n      dup6\n        /* \"Token/123.sol\":13513:13526  super._update */\n      tag_422\n        /* \"Token/123.sol\":13513:13565  super._update(sender, marketingWallet, marketingTax) */\n      jump\t// in\n    tag_432:\n        /* \"Token/123.sol\":13579:13635  super._update(sender, developmentWallet, developmentTax) */\n      tag_433\n        /* \"Token/123.sol\":13593:13599  sender */\n      dup9\n        /* \"Token/123.sol\":13601:13618  developmentWallet */\n      0x01\n      0x00\n      swap1\n      sload\n      swap1\n      0x0100\n      exp\n      swap1\n      div\n      0xffffffffffffffffffffffffffffffffffffffff\n      and\n        /* \"Token/123.sol\":13620:13634  developmentTax */\n      dup5\n        /* \"Token/123.sol\":13579:13592  super._update */\n      tag_422\n        /* \"Token/123.sol\":13579:13635  super._update(sender, developmentWallet, developmentTax) */\n      jump\t// in\n    tag_433:\n        /* \"Token/123.sol\":13649:13711  super._update(sender, sustainabilityWallet, sustainabilityTax) */\n      tag_434\n        /* \"Token/123.sol\":13663:13669  sender */\n      dup9\n        /* \"Token/123.sol\":13671:13691  sustainabilityWallet */\n      0x02\n      0x00\n      swap1\n      sload\n      swap1\n      0x0100\n      exp\n      swap1\n      div\n      0xffffffffffffffffffffffffffffffffffffffff\n      and\n        /* \"Token/123.sol\":13693:13710  sustainabilityTax */\n      dup4\n        /* \"Token/123.sol\":13649:13662  super._update */\n      tag_422\n        /* \"Token/123.sol\":13649:13711  super._update(sender, sustainabilityWallet, sustainabilityTax) */\n      jump\t// in\n    tag_434:\n        /* \"Token/123.sol\":13157:13723  if(isBuy || isSell){... */\n    tag_424:\n        /* \"Token/123.sol\":13779:13796  sustainabilityTax */\n      dup1\n        /* \"Token/123.sol\":13762:13776  developmentTax */\n      dup3\n        /* \"Token/123.sol\":13747:13759  marketingTax */\n      dup5\n        /* \"Token/123.sol\":13747:13776  marketingTax + developmentTax */\n      tag_435\n      swap2\n      swap1\n      tag_436\n      jump\t// in\n    tag_435:\n        /* \"Token/123.sol\":13747:13796  marketingTax + developmentTax + sustainabilityTax */\n      tag_437\n      swap2\n      swap1\n      tag_436\n      jump\t// in\n    tag_437:\n        /* \"Token/123.sol\":13736:13797  amount -= (marketingTax + developmentTax + sustainabilityTax) */\n      dup7\n      tag_438\n      swap2\n      swap1\n      tag_439\n      jump\t// in\n    tag_438:\n      swap6\n      pop\n        /* \"Token/123.sol\":13809:13849  super._update(sender, recipient, amount) */\n      tag_440\n        /* \"Token/123.sol\":13823:13829  sender */\n      dup9\n        /* \"Token/123.sol\":13831:13840  recipient */\n      dup9\n        /* \"Token/123.sol\":13842:13848  amount */\n      dup9\n        /* \"Token/123.sol\":13809:13822  super._update */\n      tag_422\n        /* \"Token/123.sol\":13809:13849  super._update(sender, recipient, amount) */\n      jump\t// in\n    tag_440:\n        /* \"Token/123.sol\":12343:13859  {... */\n      pop\n      pop\n      pop\n      pop\n      pop\n        /* \"Token/123.sol\":12258:13859  function _update(address sender, address recipient, uint256 amount) internal override{... */\n    tag_400:\n      pop\n      pop\n      pop\n      jump\t// out\n        /* \"@openzeppelin/contracts-upgradeable/proxy/utils/Initializable.sol\":7084:7225  function _checkInitializing() internal view virtual {... */\n    tag_379:\n        /* \"@openzeppelin/contracts-upgradeable/proxy/utils/Initializable.sol\":7151:7168  _isInitializing() */\n      tag_442\n        /* \"@openzeppelin/contracts-upgradeable/proxy/utils/Initializable.sol\":7151:7166  _isInitializing */\n      tag_443\n        /* \"@openzeppelin/contracts-upgradeable/proxy/utils/Initializable.sol\":7151:7168  _isInitializing() */\n      jump\t// in\n    tag_442:\n        /* \"@openzeppelin/contracts-upgradeable/proxy/utils/Initializable.sol\":7146:7219  if (!_isInitializing()) {... */\n      tag_444\n      jumpi\n        /* \"@openzeppelin/contracts-upgradeable/proxy/utils/Initializable.sol\":7191:7208  NotInitializing() */\n      mload(0x40)\n      0xd7e6bcf800000000000000000000000000000000000000000000000000000000\n      dup2\n      mstore\n      0x04\n      add\n      mload(0x40)\n      dup1\n      swap2\n      sub\n      swap1\n      revert\n        /* \"@openzeppelin/contracts-upgradeable/proxy/utils/Initializable.sol\":7146:7219  if (!_isInitializing()) {... */\n    tag_444:\n        /* \"@openzeppelin/contracts-upgradeable/proxy/utils/Initializable.sol\":7084:7225  function _checkInitializing() internal view virtual {... */\n      jump\t// out\n        /* \"@openzeppelin/contracts-upgradeable/access/OwnableUpgradeable.sol\":1980:2215  function __Ownable_init_unchained(address initialOwner) internal onlyInitializing {... */\n    tag_382:\n        /* \"@openzeppelin/contracts-upgradeable/proxy/utils/Initializable.sol\":6931:6951  _checkInitializing() */\n      tag_446\n        /* \"@openzeppelin/contracts-upgradeable/proxy/utils/Initializable.sol\":6931:6949  _checkInitializing */\n      tag_379\n        /* \"@openzeppelin/contracts-upgradeable/proxy/utils/Initializable.sol\":6931:6951  _checkInitializing() */\n      jump\t// in\n    tag_446:\n        /* \"@openzeppelin/contracts-upgradeable/access/OwnableUpgradeable.sol\":2100:2101  0 */\n      0x00\n        /* \"@openzeppelin/contracts-upgradeable/access/OwnableUpgradeable.sol\":2076:2102  initialOwner == address(0) */\n      0xffffffffffffffffffffffffffffffffffffffff\n      and\n        /* \"@openzeppelin/contracts-upgradeable/access/OwnableUpgradeable.sol\":2076:2088  initialOwner */\n      dup2\n        /* \"@openzeppelin/contracts-upgradeable/access/OwnableUpgradeable.sol\":2076:2102  initialOwner == address(0) */\n      0xffffffffffffffffffffffffffffffffffffffff\n      and\n      sub\n        /* \"@openzeppelin/contracts-upgradeable/access/OwnableUpgradeable.sol\":2072:2167  if (initialOwner == address(0)) {... */\n      tag_448\n      jumpi\n        /* \"@openzeppelin/contracts-upgradeable/access/OwnableUpgradeable.sol\":2153:2154  0 */\n      0x00\n        /* \"@openzeppelin/contracts-upgradeable/access/OwnableUpgradeable.sol\":2125:2156  OwnableInvalidOwner(address(0)) */\n      mload(0x40)\n      0x1e4fbdf700000000000000000000000000000000000000000000000000000000\n      dup2\n      mstore\n      0x04\n      add\n      tag_449\n      swap2\n      swap1\n      tag_110\n      jump\t// in\n    tag_449:\n      mload(0x40)\n      dup1\n      swap2\n      sub\n      swap1\n      revert\n        /* \"@openzeppelin/contracts-upgradeable/access/OwnableUpgradeable.sol\":2072:2167  if (initialOwner == address(0)) {... */\n    tag_448:\n        /* \"@openzeppelin/contracts-upgradeable/access/OwnableUpgradeable.sol\":2176:2208  _transferOwnership(initialOwner) */\n      tag_450\n        /* \"@openzeppelin/contracts-upgradeable/access/OwnableUpgradeable.sol\":2195:2207  initialOwner */\n      dup2\n        /* \"@openzeppelin/contracts-upgradeable/access/OwnableUpgradeable.sol\":2176:2194  _transferOwnership */\n      tag_245\n        /* \"@openzeppelin/contracts-upgradeable/access/OwnableUpgradeable.sol\":2176:2208  _transferOwnership(initialOwner) */\n      jump\t// in\n    tag_450:\n        /* \"@openzeppelin/contracts-upgradeable/access/OwnableUpgradeable.sol\":1980:2215  function __Ownable_init_unchained(address initialOwner) internal onlyInitializing {... */\n      pop\n      jump\t// out\n        /* \"@openzeppelin/contracts-upgradeable/token/ERC20/ERC20Upgradeable.sol\":2730:2946  function __ERC20_init_unchained(string memory name_, string memory symbol_) internal onlyInitializing {... */\n    tag_390:\n        /* \"@openzeppelin/contracts-upgradeable/proxy/utils/Initializable.sol\":6931:6951  _checkInitializing() */\n      tag_452\n        /* \"@openzeppelin/contracts-upgradeable/proxy/utils/Initializable.sol\":6931:6949  _checkInitializing */\n      tag_379\n        /* \"@openzeppelin/contracts-upgradeable/proxy/utils/Initializable.sol\":6931:6951  _checkInitializing() */\n      jump\t// in\n    tag_452:\n        /* \"@openzeppelin/contracts-upgradeable/token/ERC20/ERC20Upgradeable.sol\":2842:2864  ERC20Storage storage $ */\n      0x00\n        /* \"@openzeppelin/contracts-upgradeable/token/ERC20/ERC20Upgradeable.sol\":2867:2885  _getERC20Storage() */\n      tag_454\n        /* \"@openzeppelin/contracts-upgradeable/token/ERC20/ERC20Upgradeable.sol\":2867:2883  _getERC20Storage */\n      tag_167\n        /* \"@openzeppelin/contracts-upgradeable/token/ERC20/ERC20Upgradeable.sol\":2867:2885  _getERC20Storage() */\n      jump\t// in\n    tag_454:\n        /* \"@openzeppelin/contracts-upgradeable/token/ERC20/ERC20Upgradeable.sol\":2842:2885  ERC20Storage storage $ = _getERC20Storage() */\n      swap1\n      pop\n        /* \"@openzeppelin/contracts-upgradeable/token/ERC20/ERC20Upgradeable.sol\":2905:2910  name_ */\n      dup3\n        /* \"@openzeppelin/contracts-upgradeable/token/ERC20/ERC20Upgradeable.sol\":2895:2896  $ */\n      dup2\n        /* \"@openzeppelin/contracts-upgradeable/token/ERC20/ERC20Upgradeable.sol\":2895:2902  $._name */\n      0x03\n      add\n        /* \"@openzeppelin/contracts-upgradeable/token/ERC20/ERC20Upgradeable.sol\":2895:2910  $._name = name_ */\n      swap1\n      dup2\n      tag_455\n      swap2\n      swap1\n      tag_456\n      jump\t// in\n    tag_455:\n      pop\n        /* \"@openzeppelin/contracts-upgradeable/token/ERC20/ERC20Upgradeable.sol\":2932:2939  symbol_ */\n      dup2\n        /* \"@openzeppelin/contracts-upgradeable/token/ERC20/ERC20Upgradeable.sol\":2920:2921  $ */\n      dup2\n        /* \"@openzeppelin/contracts-upgradeable/token/ERC20/ERC20Upgradeable.sol\":2920:2929  $._symbol */\n      0x04\n      add\n        /* \"@openzeppelin/contracts-upgradeable/token/ERC20/ERC20Upgradeable.sol\":2920:2939  $._symbol = symbol_ */\n      swap1\n      dup2\n      tag_457\n      swap2\n      swap1\n      tag_456\n      jump\t// in\n    tag_457:\n      pop\n        /* \"@openzeppelin/contracts-upgradeable/token/ERC20/ERC20Upgradeable.sol\":2832:2946  {... */\n      pop\n        /* \"@openzeppelin/contracts-upgradeable/token/ERC20/ERC20Upgradeable.sol\":2730:2946  function __ERC20_init_unchained(string memory name_, string memory symbol_) internal onlyInitializing {... */\n      pop\n      pop\n      jump\t// out\n        /* \"@openzeppelin/contracts-upgradeable/token/ERC20/ERC20Upgradeable.sol\":7485:8655  function _update(address from, address to, uint256 value) internal virtual {... */\n    tag_422:\n        /* \"@openzeppelin/contracts-upgradeable/token/ERC20/ERC20Upgradeable.sol\":7570:7592  ERC20Storage storage $ */\n      0x00\n        /* \"@openzeppelin/contracts-upgradeable/token/ERC20/ERC20Upgradeable.sol\":7595:7613  _getERC20Storage() */\n      tag_459\n        /* \"@openzeppelin/contracts-upgradeable/token/ERC20/ERC20Upgradeable.sol\":7595:7611  _getERC20Storage */\n      tag_167\n        /* \"@openzeppelin/contracts-upgradeable/token/ERC20/ERC20Upgradeable.sol\":7595:7613  _getERC20Storage() */\n      jump\t// in\n    tag_459:\n        /* \"@openzeppelin/contracts-upgradeable/token/ERC20/ERC20Upgradeable.sol\":7570:7613  ERC20Storage storage $ = _getERC20Storage() */\n      swap1\n      pop\n        /* \"@openzeppelin/contracts-upgradeable/token/ERC20/ERC20Upgradeable.sol\":7643:7644  0 */\n      0x00\n        /* \"@openzeppelin/contracts-upgradeable/token/ERC20/ERC20Upgradeable.sol\":7627:7645  from == address(0) */\n      0xffffffffffffffffffffffffffffffffffffffff\n      and\n        /* \"@openzeppelin/contracts-upgradeable/token/ERC20/ERC20Upgradeable.sol\":7627:7631  from */\n      dup5\n        /* \"@openzeppelin/contracts-upgradeable/token/ERC20/ERC20Upgradeable.sol\":7627:7645  from == address(0) */\n      0xffffffffffffffffffffffffffffffffffffffff\n      and\n      sub\n        /* \"@openzeppelin/contracts-upgradeable/token/ERC20/ERC20Upgradeable.sol\":7623:8169  if (from == address(0)) {... */\n      tag_460\n      jumpi\n        /* \"@openzeppelin/contracts-upgradeable/token/ERC20/ERC20Upgradeable.sol\":7781:7786  value */\n      dup2\n        /* \"@openzeppelin/contracts-upgradeable/token/ERC20/ERC20Upgradeable.sol\":7763:7764  $ */\n      dup2\n        /* \"@openzeppelin/contracts-upgradeable/token/ERC20/ERC20Upgradeable.sol\":7763:7777  $._totalSupply */\n      0x02\n      add\n      0x00\n        /* \"@openzeppelin/contracts-upgradeable/token/ERC20/ERC20Upgradeable.sol\":7763:7786  $._totalSupply += value */\n      dup3\n      dup3\n      sload\n      tag_461\n      swap2\n      swap1\n      tag_436\n      jump\t// in\n    tag_461:\n      swap3\n      pop\n      pop\n      dup2\n      swap1\n      sstore\n      pop\n        /* \"@openzeppelin/contracts-upgradeable/token/ERC20/ERC20Upgradeable.sol\":7623:8169  if (from == address(0)) {... */\n      jump(tag_462)\n    tag_460:\n        /* \"@openzeppelin/contracts-upgradeable/token/ERC20/ERC20Upgradeable.sol\":7817:7836  uint256 fromBalance */\n      0x00\n        /* \"@openzeppelin/contracts-upgradeable/token/ERC20/ERC20Upgradeable.sol\":7839:7840  $ */\n      dup2\n        /* \"@openzeppelin/contracts-upgradeable/token/ERC20/ERC20Upgradeable.sol\":7839:7850  $._balances */\n      0x00\n      add\n        /* \"@openzeppelin/contracts-upgradeable/token/ERC20/ERC20Upgradeable.sol\":7839:7856  $._balances[from] */\n      0x00\n        /* \"@openzeppelin/contracts-upgradeable/token/ERC20/ERC20Upgradeable.sol\":7851:7855  from */\n      dup7\n        /* \"@openzeppelin/contracts-upgradeable/token/ERC20/ERC20Upgradeable.sol\":7839:7856  $._balances[from] */\n      0xffffffffffffffffffffffffffffffffffffffff\n      and\n      0xffffffffffffffffffffffffffffffffffffffff\n      and\n      dup2\n      mstore\n      0x20\n      add\n      swap1\n      dup2\n      mstore\n      0x20\n      add\n      0x00\n      keccak256\n      sload\n        /* \"@openzeppelin/contracts-upgradeable/token/ERC20/ERC20Upgradeable.sol\":7817:7856  uint256 fromBalance = $._balances[from] */\n      swap1\n      pop\n        /* \"@openzeppelin/contracts-upgradeable/token/ERC20/ERC20Upgradeable.sol\":7888:7893  value */\n      dup3\n        /* \"@openzeppelin/contracts-upgradeable/token/ERC20/ERC20Upgradeable.sol\":7874:7885  fromBalance */\n      dup2\n        /* \"@openzeppelin/contracts-upgradeable/token/ERC20/ERC20Upgradeable.sol\":7874:7893  fromBalance < value */\n      lt\n        /* \"@openzeppelin/contracts-upgradeable/token/ERC20/ERC20Upgradeable.sol\":7870:7985  if (fromBalance < value) {... */\n      iszero\n      tag_463\n      jumpi\n        /* \"@openzeppelin/contracts-upgradeable/token/ERC20/ERC20Upgradeable.sol\":7945:7949  from */\n      dup5\n        /* \"@openzeppelin/contracts-upgradeable/token/ERC20/ERC20Upgradeable.sol\":7951:7962  fromBalance */\n      dup2\n        /* \"@openzeppelin/contracts-upgradeable/token/ERC20/ERC20Upgradeable.sol\":7964:7969  value */\n      dup5\n        /* \"@openzeppelin/contracts-upgradeable/token/ERC20/ERC20Upgradeable.sol\":7920:7970  ERC20InsufficientBalance(from, fromBalance, value) */\n      mload(0x40)\n      0xe450d38c00000000000000000000000000000000000000000000000000000000\n      dup2\n      mstore\n      0x04\n      add\n      tag_464\n      swap4\n      swap3\n      swap2\n      swap1\n      tag_351\n      jump\t// in\n    tag_464:\n      mload(0x40)\n      dup1\n      swap2\n      sub\n      swap1\n      revert\n        /* \"@openzeppelin/contracts-upgradeable/token/ERC20/ERC20Upgradeable.sol\":7870:7985  if (fromBalance < value) {... */\n    tag_463:\n        /* \"@openzeppelin/contracts-upgradeable/token/ERC20/ERC20Upgradeable.sol\":8139:8144  value */\n      dup3\n        /* \"@openzeppelin/contracts-upgradeable/token/ERC20/ERC20Upgradeable.sol\":8125:8136  fromBalance */\n      dup2\n        /* \"@openzeppelin/contracts-upgradeable/token/ERC20/ERC20Upgradeable.sol\":8125:8144  fromBalance - value */\n      sub\n        /* \"@openzeppelin/contracts-upgradeable/token/ERC20/ERC20Upgradeable.sol\":8105:8106  $ */\n      dup3\n        /* \"@openzeppelin/contracts-upgradeable/token/ERC20/ERC20Upgradeable.sol\":8105:8116  $._balances */\n      0x00\n      add\n        /* \"@openzeppelin/contracts-upgradeable/token/ERC20/ERC20Upgradeable.sol\":8105:8122  $._balances[from] */\n      0x00\n        /* \"@openzeppelin/contracts-upgradeable/token/ERC20/ERC20Upgradeable.sol\":8117:8121  from */\n      dup8\n        /* \"@openzeppelin/contracts-upgradeable/token/ERC20/ERC20Upgradeable.sol\":8105:8122  $._balances[from] */\n      0xffffffffffffffffffffffffffffffffffffffff\n      and\n      0xffffffffffffffffffffffffffffffffffffffff\n      and\n      dup2\n      mstore\n      0x20\n      add\n      swap1\n      dup2\n      mstore\n      0x20\n      add\n      0x00\n      keccak256\n        /* \"@openzeppelin/contracts-upgradeable/token/ERC20/ERC20Upgradeable.sol\":8105:8144  $._balances[from] = fromBalance - value */\n      dup2\n      swap1\n      sstore\n      pop\n        /* \"@openzeppelin/contracts-upgradeable/token/ERC20/ERC20Upgradeable.sol\":7803:8169  {... */\n      pop\n        /* \"@openzeppelin/contracts-upgradeable/token/ERC20/ERC20Upgradeable.sol\":7623:8169  if (from == address(0)) {... */\n    tag_462:\n        /* \"@openzeppelin/contracts-upgradeable/token/ERC20/ERC20Upgradeable.sol\":8197:8198  0 */\n      0x00\n        /* \"@openzeppelin/contracts-upgradeable/token/ERC20/ERC20Upgradeable.sol\":8183:8199  to == address(0) */\n      0xffffffffffffffffffffffffffffffffffffffff\n      and\n        /* \"@openzeppelin/contracts-upgradeable/token/ERC20/ERC20Upgradeable.sol\":8183:8185  to */\n      dup4\n        /* \"@openzeppelin/contracts-upgradeable/token/ERC20/ERC20Upgradeable.sol\":8183:8199  to == address(0) */\n      0xffffffffffffffffffffffffffffffffffffffff\n      and\n      sub\n        /* \"@openzeppelin/contracts-upgradeable/token/ERC20/ERC20Upgradeable.sol\":8179:8608  if (to == address(0)) {... */\n      tag_465\n      jumpi\n        /* \"@openzeppelin/contracts-upgradeable/token/ERC20/ERC20Upgradeable.sol\":8364:8369  value */\n      dup2\n        /* \"@openzeppelin/contracts-upgradeable/token/ERC20/ERC20Upgradeable.sol\":8346:8347  $ */\n      dup2\n        /* \"@openzeppelin/contracts-upgradeable/token/ERC20/ERC20Upgradeable.sol\":8346:8360  $._totalSupply */\n      0x02\n      add\n      0x00\n        /* \"@openzeppelin/contracts-upgradeable/token/ERC20/ERC20Upgradeable.sol\":8346:8369  $._totalSupply -= value */\n      dup3\n      dup3\n      sload\n      sub\n      swap3\n      pop\n      pop\n      dup2\n      swap1\n      sstore\n      pop\n        /* \"@openzeppelin/contracts-upgradeable/token/ERC20/ERC20Upgradeable.sol\":8179:8608  if (to == address(0)) {... */\n      jump(tag_466)\n    tag_465:\n        /* \"@openzeppelin/contracts-upgradeable/token/ERC20/ERC20Upgradeable.sol\":8578:8583  value */\n      dup2\n        /* \"@openzeppelin/contracts-upgradeable/token/ERC20/ERC20Upgradeable.sol\":8559:8560  $ */\n      dup2\n        /* \"@openzeppelin/contracts-upgradeable/token/ERC20/ERC20Upgradeable.sol\":8559:8570  $._balances */\n      0x00\n      add\n        /* \"@openzeppelin/contracts-upgradeable/token/ERC20/ERC20Upgradeable.sol\":8559:8574  $._balances[to] */\n      0x00\n        /* \"@openzeppelin/contracts-upgradeable/token/ERC20/ERC20Upgradeable.sol\":8571:8573  to */\n      dup6\n        /* \"@openzeppelin/contracts-upgradeable/token/ERC20/ERC20Upgradeable.sol\":8559:8574  $._balances[to] */\n      0xffffffffffffffffffffffffffffffffffffffff\n      and\n      0xffffffffffffffffffffffffffffffffffffffff\n      and\n      dup2\n      mstore\n      0x20\n      add\n      swap1\n      dup2\n      mstore\n      0x20\n      add\n      0x00\n      keccak256\n      0x00\n        /* \"@openzeppelin/contracts-upgradeable/token/ERC20/ERC20Upgradeable.sol\":8559:8583  $._balances[to] += value */\n      dup3\n      dup3\n      sload\n      add\n      swap3\n      pop\n      pop\n      dup2\n      swap1\n      sstore\n      pop\n        /* \"@openzeppelin/contracts-upgradeable/token/ERC20/ERC20Upgradeable.sol\":8179:8608  if (to == address(0)) {... */\n    tag_466:\n        /* \"@openzeppelin/contracts-upgradeable/token/ERC20/ERC20Upgradeable.sol\":8638:8640  to */\n      dup3\n        /* \"@openzeppelin/contracts-upgradeable/token/ERC20/ERC20Upgradeable.sol\":8623:8648  Transfer(from, to, value) */\n      0xffffffffffffffffffffffffffffffffffffffff\n      and\n        /* \"@openzeppelin/contracts-upgradeable/token/ERC20/ERC20Upgradeable.sol\":8632:8636  from */\n      dup5\n        /* \"@openzeppelin/contracts-upgradeable/token/ERC20/ERC20Upgradeable.sol\":8623:8648  Transfer(from, to, value) */\n      0xffffffffffffffffffffffffffffffffffffffff\n      and\n      0xddf252ad1be2c89b69c2b068fc378daa952ba7f163c4a11628f55a4df523b3ef\n        /* \"@openzeppelin/contracts-upgradeable/token/ERC20/ERC20Upgradeable.sol\":8642:8647  value */\n      dup5\n        /* \"@openzeppelin/contracts-upgradeable/token/ERC20/ERC20Upgradeable.sol\":8623:8648  Transfer(from, to, value) */\n      mload(0x40)\n      tag_467\n      swap2\n      swap1\n      tag_58\n      jump\t// in\n    tag_467:\n      mload(0x40)\n      dup1\n      swap2\n      sub\n      swap1\n      log3\n        /* \"@openzeppelin/contracts-upgradeable/token/ERC20/ERC20Upgradeable.sol\":7560:8655  {... */\n      pop\n        /* \"@openzeppelin/contracts-upgradeable/token/ERC20/ERC20Upgradeable.sol\":7485:8655  function _update(address from, address to, uint256 value) internal virtual {... */\n      pop\n      pop\n      pop\n      jump\t// out\n        /* \"Token/123.sol\":14372:14526  function _calculateTax(uint256 amount, uint256 taxPercentage) internal pure returns (uint256) {... */\n    tag_429:\n        /* \"Token/123.sol\":14457:14464  uint256 */\n      0x00\n        /* \"Token/123.sol\":14512:14517  10000 */\n      0x2710\n        /* \"Token/123.sol\":14494:14507  taxPercentage */\n      dup3\n        /* \"Token/123.sol\":14484:14490  amount */\n      dup5\n        /* \"Token/123.sol\":14484:14508  amount * (taxPercentage) */\n      tag_469\n      swap2\n      swap1\n      tag_276\n      jump\t// in\n    tag_469:\n        /* \"Token/123.sol\":14484:14518  amount * (taxPercentage) / (10000) */\n      tag_470\n      swap2\n      swap1\n      tag_471\n      jump\t// in\n    tag_470:\n        /* \"Token/123.sol\":14477:14518  return amount * (taxPercentage) / (10000) */\n      swap1\n      pop\n        /* \"Token/123.sol\":14372:14526  function _calculateTax(uint256 amount, uint256 taxPercentage) internal pure returns (uint256) {... */\n      swap3\n      swap2\n      pop\n      pop\n      jump\t// out\n        /* \"@openzeppelin/contracts-upgradeable/proxy/utils/Initializable.sol\":8487:8607  function _isInitializing() internal view returns (bool) {... */\n    tag_443:\n        /* \"@openzeppelin/contracts-upgradeable/proxy/utils/Initializable.sol\":8537:8541  bool */\n      0x00\n        /* \"@openzeppelin/contracts-upgradeable/proxy/utils/Initializable.sol\":8560:8586  _getInitializableStorage() */\n      tag_473\n        /* \"@openzeppelin/contracts-upgradeable/proxy/utils/Initializable.sol\":8560:8584  _getInitializableStorage */\n      tag_259\n        /* \"@openzeppelin/contracts-upgradeable/proxy/utils/Initializable.sol\":8560:8586  _getInitializableStorage() */\n      jump\t// in\n    tag_473:\n        /* \"@openzeppelin/contracts-upgradeable/proxy/utils/Initializable.sol\":8560:8600  _getInitializableStorage()._initializing */\n      0x00\n      add\n      0x08\n      swap1\n      sload\n      swap1\n      0x0100\n      exp\n      swap1\n      div\n      0xff\n      and\n        /* \"@openzeppelin/contracts-upgradeable/proxy/utils/Initializable.sol\":8553:8600  return _getInitializableStorage()._initializing */\n      swap1\n      pop\n        /* \"@openzeppelin/contracts-upgradeable/proxy/utils/Initializable.sol\":8487:8607  function _isInitializing() internal view returns (bool) {... */\n      swap1\n      jump\t// out\n        /* \"#utility.yul\":7:106   */\n    tag_474:\n        /* \"#utility.yul\":59:65   */\n      0x00\n        /* \"#utility.yul\":93:98   */\n      dup2\n        /* \"#utility.yul\":87:99   */\n      mload\n        /* \"#utility.yul\":77:99   */\n      swap1\n      pop\n        /* \"#utility.yul\":7:106   */\n      swap2\n      swap1\n      pop\n      jump\t// out\n        /* \"#utility.yul\":112:281   */\n    tag_475:\n        /* \"#utility.yul\":196:207   */\n      0x00\n        /* \"#utility.yul\":230:236   */\n      dup3\n        /* \"#utility.yul\":225:228   */\n      dup3\n        /* \"#utility.yul\":218:237   */\n      mstore\n        /* \"#utility.yul\":270:274   */\n      0x20\n        /* \"#utility.yul\":265:268   */\n      dup3\n        /* \"#utility.yul\":261:275   */\n      add\n        /* \"#utility.yul\":246:275   */\n      swap1\n      pop\n        /* \"#utility.yul\":112:281   */\n      swap3\n      swap2\n      pop\n      pop\n      jump\t// out\n        /* \"#utility.yul\":287:533   */\n    tag_476:\n        /* \"#utility.yul\":368:369   */\n      0x00\n        /* \"#utility.yul\":378:491   */\n    tag_560:\n        /* \"#utility.yul\":392:398   */\n      dup4\n        /* \"#utility.yul\":389:390   */\n      dup2\n        /* \"#utility.yul\":386:399   */\n      lt\n        /* \"#utility.yul\":378:491   */\n      iszero\n      tag_562\n      jumpi\n        /* \"#utility.yul\":477:478   */\n      dup1\n        /* \"#utility.yul\":472:475   */\n      dup3\n        /* \"#utility.yul\":468:479   */\n      add\n        /* \"#utility.yul\":462:480   */\n      mload\n        /* \"#utility.yul\":458:459   */\n      dup2\n        /* \"#utility.yul\":453:456   */\n      dup5\n        /* \"#utility.yul\":449:460   */\n      add\n        /* \"#utility.yul\":442:481   */\n      mstore\n        /* \"#utility.yul\":414:416   */\n      0x20\n        /* \"#utility.yul\":411:412   */\n      dup2\n        /* \"#utility.yul\":407:417   */\n      add\n        /* \"#utility.yul\":402:417   */\n      swap1\n      pop\n        /* \"#utility.yul\":378:491   */\n      jump(tag_560)\n    tag_562:\n        /* \"#utility.yul\":525:526   */\n      0x00\n        /* \"#utility.yul\":516:522   */\n      dup5\n        /* \"#utility.yul\":511:514   */\n      dup5\n        /* \"#utility.yul\":507:523   */\n      add\n        /* \"#utility.yul\":500:527   */\n      mstore\n        /* \"#utility.yul\":349:533   */\n      pop\n        /* \"#utility.yul\":287:533   */\n      pop\n      pop\n      pop\n      jump\t// out\n        /* \"#utility.yul\":539:641   */\n    tag_477:\n        /* \"#utility.yul\":580:586   */\n      0x00\n        /* \"#utility.yul\":631:633   */\n      0x1f\n        /* \"#utility.yul\":627:634   */\n      not\n        /* \"#utility.yul\":622:624   */\n      0x1f\n        /* \"#utility.yul\":615:620   */\n      dup4\n        /* \"#utility.yul\":611:625   */\n      add\n        /* \"#utility.yul\":607:635   */\n      and\n        /* \"#utility.yul\":597:635   */\n      swap1\n      pop\n        /* \"#utility.yul\":539:641   */\n      swap2\n      swap1\n      pop\n      jump\t// out\n        /* \"#utility.yul\":647:1024   */\n    tag_478:\n        /* \"#utility.yul\":735:738   */\n      0x00\n        /* \"#utility.yul\":763:802   */\n      tag_565\n        /* \"#utility.yul\":796:801   */\n      dup3\n        /* \"#utility.yul\":763:802   */\n      tag_474\n      jump\t// in\n    tag_565:\n        /* \"#utility.yul\":818:889   */\n      tag_566\n        /* \"#utility.yul\":882:888   */\n      dup2\n        /* \"#utility.yul\":877:880   */\n      dup6\n        /* \"#utility.yul\":818:889   */\n      tag_475\n      jump\t// in\n    tag_566:\n        /* \"#utility.yul\":811:889   */\n      swap4\n      pop\n        /* \"#utility.yul\":898:963   */\n      tag_567\n        /* \"#utility.yul\":956:962   */\n      dup2\n        /* \"#utility.yul\":951:954   */\n      dup6\n        /* \"#utility.yul\":944:948   */\n      0x20\n        /* \"#utility.yul\":937:942   */\n      dup7\n        /* \"#utility.yul\":933:949   */\n      add\n        /* \"#utility.yul\":898:963   */\n      tag_476\n      jump\t// in\n    tag_567:\n        /* \"#utility.yul\":988:1017   */\n      tag_568\n        /* \"#utility.yul\":1010:1016   */\n      dup2\n        /* \"#utility.yul\":988:1017   */\n      tag_477\n      jump\t// in\n    tag_568:\n        /* \"#utility.yul\":983:986   */\n      dup5\n        /* \"#utility.yul\":979:1018   */\n      add\n        /* \"#utility.yul\":972:1018   */\n      swap2\n      pop\n        /* \"#utility.yul\":739:1024   */\n      pop\n        /* \"#utility.yul\":647:1024   */\n      swap3\n      swap2\n      pop\n      pop\n      jump\t// out\n        /* \"#utility.yul\":1030:1343   */\n    tag_48:\n        /* \"#utility.yul\":1143:1147   */\n      0x00\n        /* \"#utility.yul\":1181:1183   */\n      0x20\n        /* \"#utility.yul\":1170:1179   */\n      dup3\n        /* \"#utility.yul\":1166:1184   */\n      add\n        /* \"#utility.yul\":1158:1184   */\n      swap1\n      pop\n        /* \"#utility.yul\":1230:1239   */\n      dup2\n        /* \"#utility.yul\":1224:1228   */\n      dup2\n        /* \"#utility.yul\":1220:1240   */\n      sub\n        /* \"#utility.yul\":1216:1217   */\n      0x00\n        /* \"#utility.yul\":1205:1214   */\n      dup4\n        /* \"#utility.yul\":1201:1218   */\n      add\n        /* \"#utility.yul\":1194:1241   */\n      mstore\n        /* \"#utility.yul\":1258:1336   */\n      tag_570\n        /* \"#utility.yul\":1331:1335   */\n      dup2\n        /* \"#utility.yul\":1322:1328   */\n      dup5\n        /* \"#utility.yul\":1258:1336   */\n      tag_478\n      jump\t// in\n    tag_570:\n        /* \"#utility.yul\":1250:1336   */\n      swap1\n      pop\n        /* \"#utility.yul\":1030:1343   */\n      swap3\n      swap2\n      pop\n      pop\n      jump\t// out\n        /* \"#utility.yul\":1430:1547   */\n    tag_480:\n        /* \"#utility.yul\":1539:1540   */\n      0x00\n        /* \"#utility.yul\":1536:1537   */\n      dup1\n        /* \"#utility.yul\":1529:1541   */\n      revert\n        /* \"#utility.yul\":1676:1802   */\n    tag_482:\n        /* \"#utility.yul\":1713:1720   */\n      0x00\n        /* \"#utility.yul\":1753:1795   */\n      0xffffffffffffffffffffffffffffffffffffffff\n        /* \"#utility.yul\":1746:1751   */\n      dup3\n        /* \"#utility.yul\":1742:1796   */\n      and\n        /* \"#utility.yul\":1731:1796   */\n      swap1\n      pop\n        /* \"#utility.yul\":1676:1802   */\n      swap2\n      swap1\n      pop\n      jump\t// out\n        /* \"#utility.yul\":1808:1904   */\n    tag_483:\n        /* \"#utility.yul\":1845:1852   */\n      0x00\n        /* \"#utility.yul\":1874:1898   */\n      tag_576\n        /* \"#utility.yul\":1892:1897   */\n      dup3\n        /* \"#utility.yul\":1874:1898   */\n      tag_482\n      jump\t// in\n    tag_576:\n        /* \"#utility.yul\":1863:1898   */\n      swap1\n      pop\n        /* \"#utility.yul\":1808:1904   */\n      swap2\n      swap1\n      pop\n      jump\t// out\n        /* \"#utility.yul\":1910:2032   */\n    tag_484:\n        /* \"#utility.yul\":1983:2007   */\n      tag_578\n        /* \"#utility.yul\":2001:2006   */\n      dup2\n        /* \"#utility.yul\":1983:2007   */\n      tag_483\n      jump\t// in\n    tag_578:\n        /* \"#utility.yul\":1976:1981   */\n      dup2\n        /* \"#utility.yul\":1973:2008   */\n      eq\n        /* \"#utility.yul\":1963:2026   */\n      tag_579\n      jumpi\n        /* \"#utility.yul\":2022:2023   */\n      0x00\n        /* \"#utility.yul\":2019:2020   */\n      dup1\n        /* \"#utility.yul\":2012:2024   */\n      revert\n        /* \"#utility.yul\":1963:2026   */\n    tag_579:\n        /* \"#utility.yul\":1910:2032   */\n      pop\n      jump\t// out\n        /* \"#utility.yul\":2038:2177   */\n    tag_485:\n        /* \"#utility.yul\":2084:2089   */\n      0x00\n        /* \"#utility.yul\":2122:2128   */\n      dup2\n        /* \"#utility.yul\":2109:2129   */\n      calldataload\n        /* \"#utility.yul\":2100:2129   */\n      swap1\n      pop\n        /* \"#utility.yul\":2138:2171   */\n      tag_581\n        /* \"#utility.yul\":2165:2170   */\n      dup2\n        /* \"#utility.yul\":2138:2171   */\n      tag_484\n      jump\t// in\n    tag_581:\n        /* \"#utility.yul\":2038:2177   */\n      swap3\n      swap2\n      pop\n      pop\n      jump\t// out\n        /* \"#utility.yul\":2183:2260   */\n    tag_486:\n        /* \"#utility.yul\":2220:2227   */\n      0x00\n        /* \"#utility.yul\":2249:2254   */\n      dup2\n        /* \"#utility.yul\":2238:2254   */\n      swap1\n      pop\n        /* \"#utility.yul\":2183:2260   */\n      swap2\n      swap1\n      pop\n      jump\t// out\n        /* \"#utility.yul\":2266:2388   */\n    tag_487:\n        /* \"#utility.yul\":2339:2363   */\n      tag_584\n        /* \"#utility.yul\":2357:2362   */\n      dup2\n        /* \"#utility.yul\":2339:2363   */\n      tag_486\n      jump\t// in\n    tag_584:\n        /* \"#utility.yul\":2332:2337   */\n      dup2\n        /* \"#utility.yul\":2329:2364   */\n      eq\n        /* \"#utility.yul\":2319:2382   */\n      tag_585\n      jumpi\n        /* \"#utility.yul\":2378:2379   */\n      0x00\n        /* \"#utility.yul\":2375:2376   */\n      dup1\n        /* \"#utility.yul\":2368:2380   */\n      revert\n        /* \"#utility.yul\":2319:2382   */\n    tag_585:\n        /* \"#utility.yul\":2266:2388   */\n      pop\n      jump\t// out\n        /* \"#utility.yul\":2394:2533   */\n    tag_488:\n        /* \"#utility.yul\":2440:2445   */\n      0x00\n        /* \"#utility.yul\":2478:2484   */\n      dup2\n        /* \"#utility.yul\":2465:2485   */\n      calldataload\n        /* \"#utility.yul\":2456:2485   */\n      swap1\n      pop\n        /* \"#utility.yul\":2494:2527   */\n      tag_587\n        /* \"#utility.yul\":2521:2526   */\n      dup2\n        /* \"#utility.yul\":2494:2527   */\n      tag_487\n      jump\t// in\n    tag_587:\n        /* \"#utility.yul\":2394:2533   */\n      swap3\n      swap2\n      pop\n      pop\n      jump\t// out\n        /* \"#utility.yul\":2539:3013   */\n    tag_51:\n        /* \"#utility.yul\":2607:2613   */\n      0x00\n        /* \"#utility.yul\":2615:2621   */\n      dup1\n        /* \"#utility.yul\":2664:2666   */\n      0x40\n        /* \"#utility.yul\":2652:2661   */\n      dup4\n        /* \"#utility.yul\":2643:2650   */\n      dup6\n        /* \"#utility.yul\":2639:2662   */\n      sub\n        /* \"#utility.yul\":2635:2667   */\n      slt\n        /* \"#utility.yul\":2632:2751   */\n      iszero\n      tag_589\n      jumpi\n        /* \"#utility.yul\":2670:2749   */\n      tag_590\n      tag_480\n      jump\t// in\n    tag_590:\n        /* \"#utility.yul\":2632:2751   */\n    tag_589:\n        /* \"#utility.yul\":2790:2791   */\n      0x00\n        /* \"#utility.yul\":2815:2868   */\n      tag_591\n        /* \"#utility.yul\":2860:2867   */\n      dup6\n        /* \"#utility.yul\":2851:2857   */\n      dup3\n        /* \"#utility.yul\":2840:2849   */\n      dup7\n        /* \"#utility.yul\":2836:2858   */\n      add\n        /* \"#utility.yul\":2815:2868   */\n      tag_485\n      jump\t// in\n    tag_591:\n        /* \"#utility.yul\":2805:2868   */\n      swap3\n      pop\n        /* \"#utility.yul\":2761:2878   */\n      pop\n        /* \"#utility.yul\":2917:2919   */\n      0x20\n        /* \"#utility.yul\":2943:2996   */\n      tag_592\n        /* \"#utility.yul\":2988:2995   */\n      dup6\n        /* \"#utility.yul\":2979:2985   */\n      dup3\n        /* \"#utility.yul\":2968:2977   */\n      dup7\n        /* \"#utility.yul\":2964:2986   */\n      add\n        /* \"#utility.yul\":2943:2996   */\n      tag_488\n      jump\t// in\n    tag_592:\n        /* \"#utility.yul\":2933:2996   */\n      swap2\n      pop\n        /* \"#utility.yul\":2888:3006   */\n      pop\n        /* \"#utility.yul\":2539:3013   */\n      swap3\n      pop\n      swap3\n      swap1\n      pop\n      jump\t// out\n        /* \"#utility.yul\":3019:3109   */\n    tag_489:\n        /* \"#utility.yul\":3053:3060   */\n      0x00\n        /* \"#utility.yul\":3096:3101   */\n      dup2\n        /* \"#utility.yul\":3089:3102   */\n      iszero\n        /* \"#utility.yul\":3082:3103   */\n      iszero\n        /* \"#utility.yul\":3071:3103   */\n      swap1\n      pop\n        /* \"#utility.yul\":3019:3109   */\n      swap2\n      swap1\n      pop\n      jump\t// out\n        /* \"#utility.yul\":3115:3224   */\n    tag_490:\n        /* \"#utility.yul\":3196:3217   */\n      tag_595\n        /* \"#utility.yul\":3211:3216   */\n      dup2\n        /* \"#utility.yul\":3196:3217   */\n      tag_489\n      jump\t// in\n    tag_595:\n        /* \"#utility.yul\":3191:3194   */\n      dup3\n        /* \"#utility.yul\":3184:3218   */\n      mstore\n        /* \"#utility.yul\":3115:3224   */\n      pop\n      pop\n      jump\t// out\n        /* \"#utility.yul\":3230:3440   */\n    tag_54:\n        /* \"#utility.yul\":3317:3321   */\n      0x00\n        /* \"#utility.yul\":3355:3357   */\n      0x20\n        /* \"#utility.yul\":3344:3353   */\n      dup3\n        /* \"#utility.yul\":3340:3358   */\n      add\n        /* \"#utility.yul\":3332:3358   */\n      swap1\n      pop\n        /* \"#utility.yul\":3368:3433   */\n      tag_597\n        /* \"#utility.yul\":3430:3431   */\n      0x00\n        /* \"#utility.yul\":3419:3428   */\n      dup4\n        /* \"#utility.yul\":3415:3432   */\n      add\n        /* \"#utility.yul\":3406:3412   */\n      dup5\n        /* \"#utility.yul\":3368:3433   */\n      tag_490\n      jump\t// in\n    tag_597:\n        /* \"#utility.yul\":3230:3440   */\n      swap3\n      swap2\n      pop\n      pop\n      jump\t// out\n        /* \"#utility.yul\":3446:3564   */\n    tag_491:\n        /* \"#utility.yul\":3533:3557   */\n      tag_599\n        /* \"#utility.yul\":3551:3556   */\n      dup2\n        /* \"#utility.yul\":3533:3557   */\n      tag_486\n      jump\t// in\n    tag_599:\n        /* \"#utility.yul\":3528:3531   */\n      dup3\n        /* \"#utility.yul\":3521:3558   */\n      mstore\n        /* \"#utility.yul\":3446:3564   */\n      pop\n      pop\n      jump\t// out\n        /* \"#utility.yul\":3570:3792   */\n    tag_58:\n        /* \"#utility.yul\":3663:3667   */\n      0x00\n        /* \"#utility.yul\":3701:3703   */\n      0x20\n        /* \"#utility.yul\":3690:3699   */\n      dup3\n        /* \"#utility.yul\":3686:3704   */\n      add\n        /* \"#utility.yul\":3678:3704   */\n      swap1\n      pop\n        /* \"#utility.yul\":3714:3785   */\n      tag_601\n        /* \"#utility.yul\":3782:3783   */\n      0x00\n        /* \"#utility.yul\":3771:3780   */\n      dup4\n        /* \"#utility.yul\":3767:3784   */\n      add\n        /* \"#utility.yul\":3758:3764   */\n      dup5\n        /* \"#utility.yul\":3714:3785   */\n      tag_491\n      jump\t// in\n    tag_601:\n        /* \"#utility.yul\":3570:3792   */\n      swap3\n      swap2\n      pop\n      pop\n      jump\t// out\n        /* \"#utility.yul\":3798:3858   */\n    tag_492:\n        /* \"#utility.yul\":3826:3829   */\n      0x00\n        /* \"#utility.yul\":3847:3852   */\n      dup2\n        /* \"#utility.yul\":3840:3852   */\n      swap1\n      pop\n        /* \"#utility.yul\":3798:3858   */\n      swap2\n      swap1\n      pop\n      jump\t// out\n        /* \"#utility.yul\":3864:4006   */\n    tag_493:\n        /* \"#utility.yul\":3914:3923   */\n      0x00\n        /* \"#utility.yul\":3947:4000   */\n      tag_604\n        /* \"#utility.yul\":3965:3999   */\n      tag_605\n        /* \"#utility.yul\":3974:3998   */\n      tag_606\n        /* \"#utility.yul\":3992:3997   */\n      dup5\n        /* \"#utility.yul\":3974:3998   */\n      tag_482\n      jump\t// in\n    tag_606:\n        /* \"#utility.yul\":3965:3999   */\n      tag_492\n      jump\t// in\n    tag_605:\n        /* \"#utility.yul\":3947:4000   */\n      tag_482\n      jump\t// in\n    tag_604:\n        /* \"#utility.yul\":3934:4000   */\n      swap1\n      pop\n        /* \"#utility.yul\":3864:4006   */\n      swap2\n      swap1\n      pop\n      jump\t// out\n        /* \"#utility.yul\":4012:4138   */\n    tag_494:\n        /* \"#utility.yul\":4062:4071   */\n      0x00\n        /* \"#utility.yul\":4095:4132   */\n      tag_608\n        /* \"#utility.yul\":4126:4131   */\n      dup3\n        /* \"#utility.yul\":4095:4132   */\n      tag_493\n      jump\t// in\n    tag_608:\n        /* \"#utility.yul\":4082:4132   */\n      swap1\n      pop\n        /* \"#utility.yul\":4012:4138   */\n      swap2\n      swap1\n      pop\n      jump\t// out\n        /* \"#utility.yul\":4144:4297   */\n    tag_495:\n        /* \"#utility.yul\":4221:4230   */\n      0x00\n        /* \"#utility.yul\":4254:4291   */\n      tag_610\n        /* \"#utility.yul\":4285:4290   */\n      dup3\n        /* \"#utility.yul\":4254:4291   */\n      tag_494\n      jump\t// in\n    tag_610:\n        /* \"#utility.yul\":4241:4291   */\n      swap1\n      pop\n        /* \"#utility.yul\":4144:4297   */\n      swap2\n      swap1\n      pop\n      jump\t// out\n        /* \"#utility.yul\":4303:4488   */\n    tag_496:\n        /* \"#utility.yul\":4417:4481   */\n      tag_612\n        /* \"#utility.yul\":4475:4480   */\n      dup2\n        /* \"#utility.yul\":4417:4481   */\n      tag_495\n      jump\t// in\n    tag_612:\n        /* \"#utility.yul\":4412:4415   */\n      dup3\n        /* \"#utility.yul\":4405:4482   */\n      mstore\n        /* \"#utility.yul\":4303:4488   */\n      pop\n      pop\n      jump\t// out\n        /* \"#utility.yul\":4494:4770   */\n    tag_62:\n        /* \"#utility.yul\":4614:4618   */\n      0x00\n        /* \"#utility.yul\":4652:4654   */\n      0x20\n        /* \"#utility.yul\":4641:4650   */\n      dup3\n        /* \"#utility.yul\":4637:4655   */\n      add\n        /* \"#utility.yul\":4629:4655   */\n      swap1\n      pop\n        /* \"#utility.yul\":4665:4763   */\n      tag_614\n        /* \"#utility.yul\":4760:4761   */\n      0x00\n        /* \"#utility.yul\":4749:4758   */\n      dup4\n        /* \"#utility.yul\":4745:4762   */\n      add\n        /* \"#utility.yul\":4736:4742   */\n      dup5\n        /* \"#utility.yul\":4665:4763   */\n      tag_496\n      jump\t// in\n    tag_614:\n        /* \"#utility.yul\":4494:4770   */\n      swap3\n      swap2\n      pop\n      pop\n      jump\t// out\n        /* \"#utility.yul\":4776:5395   */\n    tag_68:\n        /* \"#utility.yul\":4853:4859   */\n      0x00\n        /* \"#utility.yul\":4861:4867   */\n      dup1\n        /* \"#utility.yul\":4869:4875   */\n      0x00\n        /* \"#utility.yul\":4918:4920   */\n      0x60\n        /* \"#utility.yul\":4906:4915   */\n      dup5\n        /* \"#utility.yul\":4897:4904   */\n      dup7\n        /* \"#utility.yul\":4893:4916   */\n      sub\n        /* \"#utility.yul\":4889:4921   */\n      slt\n        /* \"#utility.yul\":4886:5005   */\n      iszero\n      tag_616\n      jumpi\n        /* \"#utility.yul\":4924:5003   */\n      tag_617\n      tag_480\n      jump\t// in\n    tag_617:\n        /* \"#utility.yul\":4886:5005   */\n    tag_616:\n        /* \"#utility.yul\":5044:5045   */\n      0x00\n        /* \"#utility.yul\":5069:5122   */\n      tag_618\n        /* \"#utility.yul\":5114:5121   */\n      dup7\n        /* \"#utility.yul\":5105:5111   */\n      dup3\n        /* \"#utility.yul\":5094:5103   */\n      dup8\n        /* \"#utility.yul\":5090:5112   */\n      add\n        /* \"#utility.yul\":5069:5122   */\n      tag_485\n      jump\t// in\n    tag_618:\n        /* \"#utility.yul\":5059:5122   */\n      swap4\n      pop\n        /* \"#utility.yul\":5015:5132   */\n      pop\n        /* \"#utility.yul\":5171:5173   */\n      0x20\n        /* \"#utility.yul\":5197:5250   */\n      tag_619\n        /* \"#utility.yul\":5242:5249   */\n      dup7\n        /* \"#utility.yul\":5233:5239   */\n      dup3\n        /* \"#utility.yul\":5222:5231   */\n      dup8\n        /* \"#utility.yul\":5218:5240   */\n      add\n        /* \"#utility.yul\":5197:5250   */\n      tag_485\n      jump\t// in\n    tag_619:\n        /* \"#utility.yul\":5187:5250   */\n      swap3\n      pop\n        /* \"#utility.yul\":5142:5260   */\n      pop\n        /* \"#utility.yul\":5299:5301   */\n      0x40\n        /* \"#utility.yul\":5325:5378   */\n      tag_620\n        /* \"#utility.yul\":5370:5377   */\n      dup7\n        /* \"#utility.yul\":5361:5367   */\n      dup3\n        /* \"#utility.yul\":5350:5359   */\n      dup8\n        /* \"#utility.yul\":5346:5368   */\n      add\n        /* \"#utility.yul\":5325:5378   */\n      tag_488\n      jump\t// in\n    tag_620:\n        /* \"#utility.yul\":5315:5378   */\n      swap2\n      pop\n        /* \"#utility.yul\":5270:5388   */\n      pop\n        /* \"#utility.yul\":4776:5395   */\n      swap3\n      pop\n      swap3\n      pop\n      swap3\n      jump\t// out\n        /* \"#utility.yul\":5401:5487   */\n    tag_497:\n        /* \"#utility.yul\":5436:5443   */\n      0x00\n        /* \"#utility.yul\":5476:5480   */\n      0xff\n        /* \"#utility.yul\":5469:5474   */\n      dup3\n        /* \"#utility.yul\":5465:5481   */\n      and\n        /* \"#utility.yul\":5454:5481   */\n      swap1\n      pop\n        /* \"#utility.yul\":5401:5487   */\n      swap2\n      swap1\n      pop\n      jump\t// out\n        /* \"#utility.yul\":5493:5605   */\n    tag_498:\n        /* \"#utility.yul\":5576:5598   */\n      tag_623\n        /* \"#utility.yul\":5592:5597   */\n      dup2\n        /* \"#utility.yul\":5576:5598   */\n      tag_497\n      jump\t// in\n    tag_623:\n        /* \"#utility.yul\":5571:5574   */\n      dup3\n        /* \"#utility.yul\":5564:5599   */\n      mstore\n        /* \"#utility.yul\":5493:5605   */\n      pop\n      pop\n      jump\t// out\n        /* \"#utility.yul\":5611:5825   */\n    tag_74:\n        /* \"#utility.yul\":5700:5704   */\n      0x00\n        /* \"#utility.yul\":5738:5740   */\n      0x20\n        /* \"#utility.yul\":5727:5736   */\n      dup3\n        /* \"#utility.yul\":5723:5741   */\n      add\n        /* \"#utility.yul\":5715:5741   */\n      swap1\n      pop\n        /* \"#utility.yul\":5751:5818   */\n      tag_625\n        /* \"#utility.yul\":5815:5816   */\n      0x00\n        /* \"#utility.yul\":5804:5813   */\n      dup4\n        /* \"#utility.yul\":5800:5817   */\n      add\n        /* \"#utility.yul\":5791:5797   */\n      dup5\n        /* \"#utility.yul\":5751:5818   */\n      tag_498\n      jump\t// in\n    tag_625:\n        /* \"#utility.yul\":5611:5825   */\n      swap3\n      swap2\n      pop\n      pop\n      jump\t// out\n        /* \"#utility.yul\":5831:6160   */\n    tag_80:\n        /* \"#utility.yul\":5890:5896   */\n      0x00\n        /* \"#utility.yul\":5939:5941   */\n      0x20\n        /* \"#utility.yul\":5927:5936   */\n      dup3\n        /* \"#utility.yul\":5918:5925   */\n      dup5\n        /* \"#utility.yul\":5914:5937   */\n      sub\n        /* \"#utility.yul\":5910:5942   */\n      slt\n        /* \"#utility.yul\":5907:6026   */\n      iszero\n      tag_627\n      jumpi\n        /* \"#utility.yul\":5945:6024   */\n      tag_628\n      tag_480\n      jump\t// in\n    tag_628:\n        /* \"#utility.yul\":5907:6026   */\n    tag_627:\n        /* \"#utility.yul\":6065:6066   */\n      0x00\n        /* \"#utility.yul\":6090:6143   */\n      tag_629\n        /* \"#utility.yul\":6135:6142   */\n      dup5\n        /* \"#utility.yul\":6126:6132   */\n      dup3\n        /* \"#utility.yul\":6115:6124   */\n      dup6\n        /* \"#utility.yul\":6111:6133   */\n      add\n        /* \"#utility.yul\":6090:6143   */\n      tag_488\n      jump\t// in\n    tag_629:\n        /* \"#utility.yul\":6080:6143   */\n      swap2\n      pop\n        /* \"#utility.yul\":6036:6153   */\n      pop\n        /* \"#utility.yul\":5831:6160   */\n      swap3\n      swap2\n      pop\n      pop\n      jump\t// out\n        /* \"#utility.yul\":6166:6495   */\n    tag_84:\n        /* \"#utility.yul\":6225:6231   */\n      0x00\n        /* \"#utility.yul\":6274:6276   */\n      0x20\n        /* \"#utility.yul\":6262:6271   */\n      dup3\n        /* \"#utility.yul\":6253:6260   */\n      dup5\n        /* \"#utility.yul\":6249:6272   */\n      sub\n        /* \"#utility.yul\":6245:6277   */\n      slt\n        /* \"#utility.yul\":6242:6361   */\n      iszero\n      tag_631\n      jumpi\n        /* \"#utility.yul\":6280:6359   */\n      tag_632\n      tag_480\n      jump\t// in\n    tag_632:\n        /* \"#utility.yul\":6242:6361   */\n    tag_631:\n        /* \"#utility.yul\":6400:6401   */\n      0x00\n        /* \"#utility.yul\":6425:6478   */\n      tag_633\n        /* \"#utility.yul\":6470:6477   */\n      dup5\n        /* \"#utility.yul\":6461:6467   */\n      dup3\n        /* \"#utility.yul\":6450:6459   */\n      dup6\n        /* \"#utility.yul\":6446:6468   */\n      add\n        /* \"#utility.yul\":6425:6478   */\n      tag_485\n      jump\t// in\n    tag_633:\n        /* \"#utility.yul\":6415:6478   */\n      swap2\n      pop\n        /* \"#utility.yul\":6371:6488   */\n      pop\n        /* \"#utility.yul\":6166:6495   */\n      swap3\n      swap2\n      pop\n      pop\n      jump\t// out\n        /* \"#utility.yul\":6501:6619   */\n    tag_499:\n        /* \"#utility.yul\":6588:6612   */\n      tag_635\n        /* \"#utility.yul\":6606:6611   */\n      dup2\n        /* \"#utility.yul\":6588:6612   */\n      tag_483\n      jump\t// in\n    tag_635:\n        /* \"#utility.yul\":6583:6586   */\n      dup3\n        /* \"#utility.yul\":6576:6613   */\n      mstore\n        /* \"#utility.yul\":6501:6619   */\n      pop\n      pop\n      jump\t// out\n        /* \"#utility.yul\":6625:6847   */\n    tag_110:\n        /* \"#utility.yul\":6718:6722   */\n      0x00\n        /* \"#utility.yul\":6756:6758   */\n      0x20\n        /* \"#utility.yul\":6745:6754   */\n      dup3\n        /* \"#utility.yul\":6741:6759   */\n      add\n        /* \"#utility.yul\":6733:6759   */\n      swap1\n      pop\n        /* \"#utility.yul\":6769:6840   */\n      tag_637\n        /* \"#utility.yul\":6837:6838   */\n      0x00\n        /* \"#utility.yul\":6826:6835   */\n      dup4\n        /* \"#utility.yul\":6822:6839   */\n      add\n        /* \"#utility.yul\":6813:6819   */\n      dup5\n        /* \"#utility.yul\":6769:6840   */\n      tag_499\n      jump\t// in\n    tag_637:\n        /* \"#utility.yul\":6625:6847   */\n      swap3\n      swap2\n      pop\n      pop\n      jump\t// out\n        /* \"#utility.yul\":6853:7327   */\n    tag_149:\n        /* \"#utility.yul\":6921:6927   */\n      0x00\n        /* \"#utility.yul\":6929:6935   */\n      dup1\n        /* \"#utility.yul\":6978:6980   */\n      0x40\n        /* \"#utility.yul\":6966:6975   */\n      dup4\n        /* \"#utility.yul\":6957:6964   */\n      dup6\n        /* \"#utility.yul\":6953:6976   */\n      sub\n        /* \"#utility.yul\":6949:6981   */\n      slt\n        /* \"#utility.yul\":6946:7065   */\n      iszero\n      tag_639\n      jumpi\n        /* \"#utility.yul\":6984:7063   */\n      tag_640\n      tag_480\n      jump\t// in\n    tag_640:\n        /* \"#utility.yul\":6946:7065   */\n    tag_639:\n        /* \"#utility.yul\":7104:7105   */\n      0x00\n        /* \"#utility.yul\":7129:7182   */\n      tag_641\n        /* \"#utility.yul\":7174:7181   */\n      dup6\n        /* \"#utility.yul\":7165:7171   */\n      dup3\n        /* \"#utility.yul\":7154:7163   */\n      dup7\n        /* \"#utility.yul\":7150:7172   */\n      add\n        /* \"#utility.yul\":7129:7182   */\n      tag_485\n      jump\t// in\n    tag_641:\n        /* \"#utility.yul\":7119:7182   */\n      swap3\n      pop\n        /* \"#utility.yul\":7075:7192   */\n      pop\n        /* \"#utility.yul\":7231:7233   */\n      0x20\n        /* \"#utility.yul\":7257:7310   */\n      tag_642\n        /* \"#utility.yul\":7302:7309   */\n      dup6\n        /* \"#utility.yul\":7293:7299   */\n      dup3\n        /* \"#utility.yul\":7282:7291   */\n      dup7\n        /* \"#utility.yul\":7278:7300   */\n      add\n        /* \"#utility.yul\":7257:7310   */\n      tag_485\n      jump\t// in\n    tag_642:\n        /* \"#utility.yul\":7247:7310   */\n      swap2\n      pop\n        /* \"#utility.yul\":7202:7320   */\n      pop\n        /* \"#utility.yul\":6853:7327   */\n      swap3\n      pop\n      swap3\n      swap1\n      pop\n      jump\t// out\n        /* \"#utility.yul\":7333:7513   */\n    tag_500:\n        /* \"#utility.yul\":7381:7458   */\n      0x4e487b7100000000000000000000000000000000000000000000000000000000\n        /* \"#utility.yul\":7378:7379   */\n      0x00\n        /* \"#utility.yul\":7371:7459   */\n      mstore\n        /* \"#utility.yul\":7478:7482   */\n      0x22\n        /* \"#utility.yul\":7475:7476   */\n      0x04\n        /* \"#utility.yul\":7468:7483   */\n      mstore\n        /* \"#utility.yul\":7502:7506   */\n      0x24\n        /* \"#utility.yul\":7499:7500   */\n      0x00\n        /* \"#utility.yul\":7492:7507   */\n      revert\n        /* \"#utility.yul\":7519:7839   */\n    tag_169:\n        /* \"#utility.yul\":7563:7569   */\n      0x00\n        /* \"#utility.yul\":7600:7601   */\n      0x02\n        /* \"#utility.yul\":7594:7598   */\n      dup3\n        /* \"#utility.yul\":7590:7602   */\n      div\n        /* \"#utility.yul\":7580:7602   */\n      swap1\n      pop\n        /* \"#utility.yul\":7647:7648   */\n      0x01\n        /* \"#utility.yul\":7641:7645   */\n      dup3\n        /* \"#utility.yul\":7637:7649   */\n      and\n        /* \"#utility.yul\":7668:7686   */\n      dup1\n        /* \"#utility.yul\":7658:7739   */\n      tag_645\n      jumpi\n        /* \"#utility.yul\":7724:7728   */\n      0x7f\n        /* \"#utility.yul\":7716:7722   */\n      dup3\n        /* \"#utility.yul\":7712:7729   */\n      and\n        /* \"#utility.yul\":7702:7729   */\n      swap2\n      pop\n        /* \"#utility.yul\":7658:7739   */\n    tag_645:\n        /* \"#utility.yul\":7786:7788   */\n      0x20\n        /* \"#utility.yul\":7778:7784   */\n      dup3\n        /* \"#utility.yul\":7775:7789   */\n      lt\n        /* \"#utility.yul\":7755:7773   */\n      dup2\n        /* \"#utility.yul\":7752:7790   */\n      sub\n        /* \"#utility.yul\":7749:7833   */\n      tag_646\n      jumpi\n        /* \"#utility.yul\":7805:7823   */\n      tag_647\n      tag_500\n      jump\t// in\n    tag_647:\n        /* \"#utility.yul\":7749:7833   */\n    tag_646:\n        /* \"#utility.yul\":7570:7839   */\n      pop\n        /* \"#utility.yul\":7519:7839   */\n      swap2\n      swap1\n      pop\n      jump\t// out\n        /* \"#utility.yul\":7845:8025   */\n    tag_501:\n        /* \"#utility.yul\":7985:8017   */\n      0x4163636f756e7420697320616c726561647920626c61636b6c69737465640000\n        /* \"#utility.yul\":7981:7982   */\n      0x00\n        /* \"#utility.yul\":7973:7979   */\n      dup3\n        /* \"#utility.yul\":7969:7983   */\n      add\n        /* \"#utility.yul\":7962:8018   */\n      mstore\n        /* \"#utility.yul\":7845:8025   */\n      pop\n      jump\t// out\n        /* \"#utility.yul\":8031:8397   */\n    tag_502:\n        /* \"#utility.yul\":8173:8176   */\n      0x00\n        /* \"#utility.yul\":8194:8261   */\n      tag_650\n        /* \"#utility.yul\":8258:8260   */\n      0x1e\n        /* \"#utility.yul\":8253:8256   */\n      dup4\n        /* \"#utility.yul\":8194:8261   */\n      tag_475\n      jump\t// in\n    tag_650:\n        /* \"#utility.yul\":8187:8261   */\n      swap2\n      pop\n        /* \"#utility.yul\":8270:8363   */\n      tag_651\n        /* \"#utility.yul\":8359:8362   */\n      dup3\n        /* \"#utility.yul\":8270:8363   */\n      tag_501\n      jump\t// in\n    tag_651:\n        /* \"#utility.yul\":8388:8390   */\n      0x20\n        /* \"#utility.yul\":8383:8386   */\n      dup3\n        /* \"#utility.yul\":8379:8391   */\n      add\n        /* \"#utility.yul\":8372:8391   */\n      swap1\n      pop\n        /* \"#utility.yul\":8031:8397   */\n      swap2\n      swap1\n      pop\n      jump\t// out\n        /* \"#utility.yul\":8403:8822   */\n    tag_203:\n        /* \"#utility.yul\":8569:8573   */\n      0x00\n        /* \"#utility.yul\":8607:8609   */\n      0x20\n        /* \"#utility.yul\":8596:8605   */\n      dup3\n        /* \"#utility.yul\":8592:8610   */\n      add\n        /* \"#utility.yul\":8584:8610   */\n      swap1\n      pop\n        /* \"#utility.yul\":8656:8665   */\n      dup2\n        /* \"#utility.yul\":8650:8654   */\n      dup2\n        /* \"#utility.yul\":8646:8666   */\n      sub\n        /* \"#utility.yul\":8642:8643   */\n      0x00\n        /* \"#utility.yul\":8631:8640   */\n      dup4\n        /* \"#utility.yul\":8627:8644   */\n      add\n        /* \"#utility.yul\":8620:8667   */\n      mstore\n        /* \"#utility.yul\":8684:8815   */\n      tag_653\n        /* \"#utility.yul\":8810:8814   */\n      dup2\n        /* \"#utility.yul\":8684:8815   */\n      tag_502\n      jump\t// in\n    tag_653:\n        /* \"#utility.yul\":8676:8815   */\n      swap1\n      pop\n        /* \"#utility.yul\":8403:8822   */\n      swap2\n      swap1\n      pop\n      jump\t// out\n        /* \"#utility.yul\":8828:8999   */\n    tag_503:\n        /* \"#utility.yul\":8968:8991   */\n      0x43616e6e6f7420626c61636b6c6973742073656c660000000000000000000000\n        /* \"#utility.yul\":8964:8965   */\n      0x00\n        /* \"#utility.yul\":8956:8962   */\n      dup3\n        /* \"#utility.yul\":8952:8966   */\n      add\n        /* \"#utility.yul\":8945:8992   */\n      mstore\n        /* \"#utility.yul\":8828:8999   */\n      pop\n      jump\t// out\n        /* \"#utility.yul\":9005:9371   */\n    tag_504:\n        /* \"#utility.yul\":9147:9150   */\n      0x00\n        /* \"#utility.yul\":9168:9235   */\n      tag_656\n        /* \"#utility.yul\":9232:9234   */\n      0x15\n        /* \"#utility.yul\":9227:9230   */\n      dup4\n        /* \"#utility.yul\":9168:9235   */\n      tag_475\n      jump\t// in\n    tag_656:\n        /* \"#utility.yul\":9161:9235   */\n      swap2\n      pop\n        /* \"#utility.yul\":9244:9337   */\n      tag_657\n        /* \"#utility.yul\":9333:9336   */\n      dup3\n        /* \"#utility.yul\":9244:9337   */\n      tag_503\n      jump\t// in\n    tag_657:\n        /* \"#utility.yul\":9362:9364   */\n      0x20\n        /* \"#utility.yul\":9357:9360   */\n      dup3\n        /* \"#utility.yul\":9353:9365   */\n      add\n        /* \"#utility.yul\":9346:9365   */\n      swap1\n      pop\n        /* \"#utility.yul\":9005:9371   */\n      swap2\n      swap1\n      pop\n      jump\t// out\n        /* \"#utility.yul\":9377:9796   */\n    tag_207:\n        /* \"#utility.yul\":9543:9547   */\n      0x00\n        /* \"#utility.yul\":9581:9583   */\n      0x20\n        /* \"#utility.yul\":9570:9579   */\n      dup3\n        /* \"#utility.yul\":9566:9584   */\n      add\n        /* \"#utility.yul\":9558:9584   */\n      swap1\n      pop\n        /* \"#utility.yul\":9630:9639   */\n      dup2\n        /* \"#utility.yul\":9624:9628   */\n      dup2\n        /* \"#utility.yul\":9620:9640   */\n      sub\n        /* \"#utility.yul\":9616:9617   */\n      0x00\n        /* \"#utility.yul\":9605:9614   */\n      dup4\n        /* \"#utility.yul\":9601:9618   */\n      add\n        /* \"#utility.yul\":9594:9641   */\n      mstore\n        /* \"#utility.yul\":9658:9789   */\n      tag_659\n        /* \"#utility.yul\":9784:9788   */\n      dup2\n        /* \"#utility.yul\":9658:9789   */\n      tag_504\n      jump\t// in\n    tag_659:\n        /* \"#utility.yul\":9650:9789   */\n      swap1\n      pop\n        /* \"#utility.yul\":9377:9796   */\n      swap2\n      swap1\n      pop\n      jump\t// out\n        /* \"#utility.yul\":9802:9982   */\n    tag_505:\n        /* \"#utility.yul\":9942:9974   */\n      0x616d6f756e742073686f756c6420626520677265617465207468616e20300000\n        /* \"#utility.yul\":9938:9939   */\n      0x00\n        /* \"#utility.yul\":9930:9936   */\n      dup3\n        /* \"#utility.yul\":9926:9940   */\n      add\n        /* \"#utility.yul\":9919:9975   */\n      mstore\n        /* \"#utility.yul\":9802:9982   */\n      pop\n      jump\t// out\n        /* \"#utility.yul\":9988:10354   */\n    tag_506:\n        /* \"#utility.yul\":10130:10133   */\n      0x00\n        /* \"#utility.yul\":10151:10218   */\n      tag_662\n        /* \"#utility.yul\":10215:10217   */\n      0x1e\n        /* \"#utility.yul\":10210:10213   */\n      dup4\n        /* \"#utility.yul\":10151:10218   */\n      tag_475\n      jump\t// in\n    tag_662:\n        /* \"#utility.yul\":10144:10218   */\n      swap2\n      pop\n        /* \"#utility.yul\":10227:10320   */\n      tag_663\n        /* \"#utility.yul\":10316:10319   */\n      dup3\n        /* \"#utility.yul\":10227:10320   */\n      tag_505\n      jump\t// in\n    tag_663:\n        /* \"#utility.yul\":10345:10347   */\n      0x20\n        /* \"#utility.yul\":10340:10343   */\n      dup3\n        /* \"#utility.yul\":10336:10348   */\n      add\n        /* \"#utility.yul\":10329:10348   */\n      swap1\n      pop\n        /* \"#utility.yul\":9988:10354   */\n      swap2\n      swap1\n      pop\n      jump\t// out\n        /* \"#utility.yul\":10360:10779   */\n    tag_213:\n        /* \"#utility.yul\":10526:10530   */\n      0x00\n        /* \"#utility.yul\":10564:10566   */\n      0x20\n        /* \"#utility.yul\":10553:10562   */\n      dup3\n        /* \"#utility.yul\":10549:10567   */\n      add\n        /* \"#utility.yul\":10541:10567   */\n      swap1\n      pop\n        /* \"#utility.yul\":10613:10622   */\n      dup2\n        /* \"#utility.yul\":10607:10611   */\n      dup2\n        /* \"#utility.yul\":10603:10623   */\n      sub\n        /* \"#utility.yul\":10599:10600   */\n      0x00\n        /* \"#utility.yul\":10588:10597   */\n      dup4\n        /* \"#utility.yul\":10584:10601   */\n      add\n        /* \"#utility.yul\":10577:10624   */\n      mstore\n        /* \"#utility.yul\":10641:10772   */\n      tag_665\n        /* \"#utility.yul\":10767:10771   */\n      dup2\n        /* \"#utility.yul\":10641:10772   */\n      tag_506\n      jump\t// in\n    tag_665:\n        /* \"#utility.yul\":10633:10772   */\n      swap1\n      pop\n        /* \"#utility.yul\":10360:10779   */\n      swap2\n      swap1\n      pop\n      jump\t// out\n        /* \"#utility.yul\":10785:10961   */\n    tag_507:\n        /* \"#utility.yul\":10925:10953   */\n      0x4163636f756e74206973206e6f7420626c61636b6c6973746564000000000000\n        /* \"#utility.yul\":10921:10922   */\n      0x00\n        /* \"#utility.yul\":10913:10919   */\n      dup3\n        /* \"#utility.yul\":10909:10923   */\n      add\n        /* \"#utility.yul\":10902:10954   */\n      mstore\n        /* \"#utility.yul\":10785:10961   */\n      pop\n      jump\t// out\n        /* \"#utility.yul\":10967:11333   */\n    tag_508:\n        /* \"#utility.yul\":11109:11112   */\n      0x00\n        /* \"#utility.yul\":11130:11197   */\n      tag_668\n        /* \"#utility.yul\":11194:11196   */\n      0x1a\n        /* \"#utility.yul\":11189:11192   */\n      dup4\n        /* \"#utility.yul\":11130:11197   */\n      tag_475\n      jump\t// in\n    tag_668:\n        /* \"#utility.yul\":11123:11197   */\n      swap2\n      pop\n        /* \"#utility.yul\":11206:11299   */\n      tag_669\n        /* \"#utility.yul\":11295:11298   */\n      dup3\n        /* \"#utility.yul\":11206:11299   */\n      tag_507\n      jump\t// in\n    tag_669:\n        /* \"#utility.yul\":11324:11326   */\n      0x20\n        /* \"#utility.yul\":11319:11322   */\n      dup3\n        /* \"#utility.yul\":11315:11327   */\n      add\n        /* \"#utility.yul\":11308:11327   */\n      swap1\n      pop\n        /* \"#utility.yul\":10967:11333   */\n      swap2\n      swap1\n      pop\n      jump\t// out\n        /* \"#utility.yul\":11339:11758   */\n    tag_220:\n        /* \"#utility.yul\":11505:11509   */\n      0x00\n        /* \"#utility.yul\":11543:11545   */\n      0x20\n        /* \"#utility.yul\":11532:11541   */\n      dup3\n        /* \"#utility.yul\":11528:11546   */\n      add\n        /* \"#utility.yul\":11520:11546   */\n      swap1\n      pop\n        /* \"#utility.yul\":11592:11601   */\n      dup2\n        /* \"#utility.yul\":11586:11590   */\n      dup2\n        /* \"#utility.yul\":11582:11602   */\n      sub\n        /* \"#utility.yul\":11578:11579   */\n      0x00\n        /* \"#utility.yul\":11567:11576   */\n      dup4\n        /* \"#utility.yul\":11563:11580   */\n      add\n        /* \"#utility.yul\":11556:11603   */\n      mstore\n        /* \"#utility.yul\":11620:11751   */\n      tag_671\n        /* \"#utility.yul\":11746:11750   */\n      dup2\n        /* \"#utility.yul\":11620:11751   */\n      tag_508\n      jump\t// in\n    tag_671:\n        /* \"#utility.yul\":11612:11751   */\n      swap1\n      pop\n        /* \"#utility.yul\":11339:11758   */\n      swap2\n      swap1\n      pop\n      jump\t// out\n        /* \"#utility.yul\":11764:11984   */\n    tag_509:\n        /* \"#utility.yul\":11904:11938   */\n      0x43616e6e6f742072656d6f76652073656c662066726f6d20626c61636b6c6973\n        /* \"#utility.yul\":11900:11901   */\n      0x00\n        /* \"#utility.yul\":11892:11898   */\n      dup3\n        /* \"#utility.yul\":11888:11902   */\n      add\n        /* \"#utility.yul\":11881:11939   */\n      mstore\n        /* \"#utility.yul\":11973:11976   */\n      0x7400000000000000000000000000000000000000000000000000000000000000\n        /* \"#utility.yul\":11968:11970   */\n      0x20\n        /* \"#utility.yul\":11960:11966   */\n      dup3\n        /* \"#utility.yul\":11956:11971   */\n      add\n        /* \"#utility.yul\":11949:11977   */\n      mstore\n        /* \"#utility.yul\":11764:11984   */\n      pop\n      jump\t// out\n        /* \"#utility.yul\":11990:12356   */\n    tag_510:\n        /* \"#utility.yul\":12132:12135   */\n      0x00\n        /* \"#utility.yul\":12153:12220   */\n      tag_674\n        /* \"#utility.yul\":12217:12219   */\n      0x21\n        /* \"#utility.yul\":12212:12215   */\n      dup4\n        /* \"#utility.yul\":12153:12220   */\n      tag_475\n      jump\t// in\n    tag_674:\n        /* \"#utility.yul\":12146:12220   */\n      swap2\n      pop\n        /* \"#utility.yul\":12229:12322   */\n      tag_675\n        /* \"#utility.yul\":12318:12321   */\n      dup3\n        /* \"#utility.yul\":12229:12322   */\n      tag_509\n      jump\t// in\n    tag_675:\n        /* \"#utility.yul\":12347:12349   */\n      0x40\n        /* \"#utility.yul\":12342:12345   */\n      dup3\n        /* \"#utility.yul\":12338:12350   */\n      add\n        /* \"#utility.yul\":12331:12350   */\n      swap1\n      pop\n        /* \"#utility.yul\":11990:12356   */\n      swap2\n      swap1\n      pop\n      jump\t// out\n        /* \"#utility.yul\":12362:12781   */\n    tag_224:\n        /* \"#utility.yul\":12528:12532   */\n      0x00\n        /* \"#utility.yul\":12566:12568   */\n      0x20\n        /* \"#utility.yul\":12555:12564   */\n      dup3\n        /* \"#utility.yul\":12551:12569   */\n      add\n        /* \"#utility.yul\":12543:12569   */\n      swap1\n      pop\n        /* \"#utility.yul\":12615:12624   */\n      dup2\n        /* \"#utility.yul\":12609:12613   */\n      dup2\n        /* \"#utility.yul\":12605:12625   */\n      sub\n        /* \"#utility.yul\":12601:12602   */\n      0x00\n        /* \"#utility.yul\":12590:12599   */\n      dup4\n        /* \"#utility.yul\":12586:12603   */\n      add\n        /* \"#utility.yul\":12579:12626   */\n      mstore\n        /* \"#utility.yul\":12643:12774   */\n      tag_677\n        /* \"#utility.yul\":12769:12773   */\n      dup2\n        /* \"#utility.yul\":12643:12774   */\n      tag_510\n      jump\t// in\n    tag_677:\n        /* \"#utility.yul\":12635:12774   */\n      swap1\n      pop\n        /* \"#utility.yul\":12362:12781   */\n      swap2\n      swap1\n      pop\n      jump\t// out\n        /* \"#utility.yul\":12787:13013   */\n    tag_511:\n        /* \"#utility.yul\":12927:12961   */\n      0x4d61726b6574696e672077616c6c65742063616e6e6f74206265207a65726f20\n        /* \"#utility.yul\":12923:12924   */\n      0x00\n        /* \"#utility.yul\":12915:12921   */\n      dup3\n        /* \"#utility.yul\":12911:12925   */\n      add\n        /* \"#utility.yul\":12904:12962   */\n      mstore\n        /* \"#utility.yul\":12996:13005   */\n      0x6164647265737300000000000000000000000000000000000000000000000000\n        /* \"#utility.yul\":12991:12993   */\n      0x20\n        /* \"#utility.yul\":12983:12989   */\n      dup3\n        /* \"#utility.yul\":12979:12994   */\n      add\n        /* \"#utility.yul\":12972:13006   */\n      mstore\n        /* \"#utility.yul\":12787:13013   */\n      pop\n      jump\t// out\n        /* \"#utility.yul\":13019:13385   */\n    tag_512:\n        /* \"#utility.yul\":13161:13164   */\n      0x00\n        /* \"#utility.yul\":13182:13249   */\n      tag_680\n        /* \"#utility.yul\":13246:13248   */\n      0x27\n        /* \"#utility.yul\":13241:13244   */\n      dup4\n        /* \"#utility.yul\":13182:13249   */\n      tag_475\n      jump\t// in\n    tag_680:\n        /* \"#utility.yul\":13175:13249   */\n      swap2\n      pop\n        /* \"#utility.yul\":13258:13351   */\n      tag_681\n        /* \"#utility.yul\":13347:13350   */\n      dup3\n        /* \"#utility.yul\":13258:13351   */\n      tag_511\n      jump\t// in\n    tag_681:\n        /* \"#utility.yul\":13376:13378   */\n      0x40\n        /* \"#utility.yul\":13371:13374   */\n      dup3\n        /* \"#utility.yul\":13367:13379   */\n      add\n        /* \"#utility.yul\":13360:13379   */\n      swap1\n      pop\n        /* \"#utility.yul\":13019:13385   */\n      swap2\n      swap1\n      pop\n      jump\t// out\n        /* \"#utility.yul\":13391:13810   */\n    tag_230:\n        /* \"#utility.yul\":13557:13561   */\n      0x00\n        /* \"#utility.yul\":13595:13597   */\n      0x20\n        /* \"#utility.yul\":13584:13593   */\n      dup3\n        /* \"#utility.yul\":13580:13598   */\n      add\n        /* \"#utility.yul\":13572:13598   */\n      swap1\n      pop\n        /* \"#utility.yul\":13644:13653   */\n      dup2\n        /* \"#utility.yul\":13638:13642   */\n      dup2\n        /* \"#utility.yul\":13634:13654   */\n      sub\n        /* \"#utility.yul\":13630:13631   */\n      0x00\n        /* \"#utility.yul\":13619:13628   */\n      dup4\n        /* \"#utility.yul\":13615:13632   */\n      add\n        /* \"#utility.yul\":13608:13655   */\n      mstore\n        /* \"#utility.yul\":13672:13803   */\n      tag_683\n        /* \"#utility.yul\":13798:13802   */\n      dup2\n        /* \"#utility.yul\":13672:13803   */\n      tag_512\n      jump\t// in\n    tag_683:\n        /* \"#utility.yul\":13664:13803   */\n      swap1\n      pop\n        /* \"#utility.yul\":13391:13810   */\n      swap2\n      swap1\n      pop\n      jump\t// out\n        /* \"#utility.yul\":13816:14036   */\n    tag_513:\n        /* \"#utility.yul\":13956:13990   */\n      0x5461782070657263656e746167652063616e6e6f742065786365656420313030\n        /* \"#utility.yul\":13952:13953   */\n      0x00\n        /* \"#utility.yul\":13944:13950   */\n      dup3\n        /* \"#utility.yul\":13940:13954   */\n      add\n        /* \"#utility.yul\":13933:13991   */\n      mstore\n        /* \"#utility.yul\":14025:14028   */\n      0x2500000000000000000000000000000000000000000000000000000000000000\n        /* \"#utility.yul\":14020:14022   */\n      0x20\n        /* \"#utility.yul\":14012:14018   */\n      dup3\n        /* \"#utility.yul\":14008:14023   */\n      add\n        /* \"#utility.yul\":14001:14029   */\n      mstore\n        /* \"#utility.yul\":13816:14036   */\n      pop\n      jump\t// out\n        /* \"#utility.yul\":14042:14408   */\n    tag_514:\n        /* \"#utility.yul\":14184:14187   */\n      0x00\n        /* \"#utility.yul\":14205:14272   */\n      tag_686\n        /* \"#utility.yul\":14269:14271   */\n      0x21\n        /* \"#utility.yul\":14264:14267   */\n      dup4\n        /* \"#utility.yul\":14205:14272   */\n      tag_475\n      jump\t// in\n    tag_686:\n        /* \"#utility.yul\":14198:14272   */\n      swap2\n      pop\n        /* \"#utility.yul\":14281:14374   */\n      tag_687\n        /* \"#utility.yul\":14370:14373   */\n      dup3\n        /* \"#utility.yul\":14281:14374   */\n      tag_513\n      jump\t// in\n    tag_687:\n        /* \"#utility.yul\":14399:14401   */\n      0x40\n        /* \"#utility.yul\":14394:14397   */\n      dup3\n        /* \"#utility.yul\":14390:14402   */\n      add\n        /* \"#utility.yul\":14383:14402   */\n      swap1\n      pop\n        /* \"#utility.yul\":14042:14408   */\n      swap2\n      swap1\n      pop\n      jump\t// out\n        /* \"#utility.yul\":14414:14833   */\n    tag_237:\n        /* \"#utility.yul\":14580:14584   */\n      0x00\n        /* \"#utility.yul\":14618:14620   */\n      0x20\n        /* \"#utility.yul\":14607:14616   */\n      dup3\n        /* \"#utility.yul\":14603:14621   */\n      add\n        /* \"#utility.yul\":14595:14621   */\n      swap1\n      pop\n        /* \"#utility.yul\":14667:14676   */\n      dup2\n        /* \"#utility.yul\":14661:14665   */\n      dup2\n        /* \"#utility.yul\":14657:14677   */\n      sub\n        /* \"#utility.yul\":14653:14654   */\n      0x00\n        /* \"#utility.yul\":14642:14651   */\n      dup4\n        /* \"#utility.yul\":14638:14655   */\n      add\n        /* \"#utility.yul\":14631:14678   */\n      mstore\n        /* \"#utility.yul\":14695:14826   */\n      tag_689\n        /* \"#utility.yul\":14821:14825   */\n      dup2\n        /* \"#utility.yul\":14695:14826   */\n      tag_514\n      jump\t// in\n    tag_689:\n        /* \"#utility.yul\":14687:14826   */\n      swap1\n      pop\n        /* \"#utility.yul\":14414:14833   */\n      swap2\n      swap1\n      pop\n      jump\t// out\n        /* \"#utility.yul\":14839:15059   */\n    tag_515:\n        /* \"#utility.yul\":14979:15013   */\n      0x4465762077616c6c65742063616e6e6f74206265207a65726f20616464726573\n        /* \"#utility.yul\":14975:14976   */\n      0x00\n        /* \"#utility.yul\":14967:14973   */\n      dup3\n        /* \"#utility.yul\":14963:14977   */\n      add\n        /* \"#utility.yul\":14956:15014   */\n      mstore\n        /* \"#utility.yul\":15048:15051   */\n      0x7300000000000000000000000000000000000000000000000000000000000000\n        /* \"#utility.yul\":15043:15045   */\n      0x20\n        /* \"#utility.yul\":15035:15041   */\n      dup3\n        /* \"#utility.yul\":15031:15046   */\n      add\n        /* \"#utility.yul\":15024:15052   */\n      mstore\n        /* \"#utility.yul\":14839:15059   */\n      pop\n      jump\t// out\n        /* \"#utility.yul\":15065:15431   */\n    tag_516:\n        /* \"#utility.yul\":15207:15210   */\n      0x00\n        /* \"#utility.yul\":15228:15295   */\n      tag_692\n        /* \"#utility.yul\":15292:15294   */\n      0x21\n        /* \"#utility.yul\":15287:15290   */\n      dup4\n        /* \"#utility.yul\":15228:15295   */\n      tag_475\n      jump\t// in\n    tag_692:\n        /* \"#utility.yul\":15221:15295   */\n      swap2\n      pop\n        /* \"#utility.yul\":15304:15397   */\n      tag_693\n        /* \"#utility.yul\":15393:15396   */\n      dup3\n        /* \"#utility.yul\":15304:15397   */\n      tag_515\n      jump\t// in\n    tag_693:\n        /* \"#utility.yul\":15422:15424   */\n      0x40\n        /* \"#utility.yul\":15417:15420   */\n      dup3\n        /* \"#utility.yul\":15413:15425   */\n      add\n        /* \"#utility.yul\":15406:15425   */\n      swap1\n      pop\n        /* \"#utility.yul\":15065:15431   */\n      swap2\n      swap1\n      pop\n      jump\t// out\n        /* \"#utility.yul\":15437:15856   */\n    tag_251:\n        /* \"#utility.yul\":15603:15607   */\n      0x00\n        /* \"#utility.yul\":15641:15643   */\n      0x20\n        /* \"#utility.yul\":15630:15639   */\n      dup3\n        /* \"#utility.yul\":15626:15644   */\n      add\n        /* \"#utility.yul\":15618:15644   */\n      swap1\n      pop\n        /* \"#utility.yul\":15690:15699   */\n      dup2\n        /* \"#utility.yul\":15684:15688   */\n      dup2\n        /* \"#utility.yul\":15680:15700   */\n      sub\n        /* \"#utility.yul\":15676:15677   */\n      0x00\n        /* \"#utility.yul\":15665:15674   */\n      dup4\n        /* \"#utility.yul\":15661:15678   */\n      add\n        /* \"#utility.yul\":15654:15701   */\n      mstore\n        /* \"#utility.yul\":15718:15849   */\n      tag_695\n        /* \"#utility.yul\":15844:15848   */\n      dup2\n        /* \"#utility.yul\":15718:15849   */\n      tag_516\n      jump\t// in\n    tag_695:\n        /* \"#utility.yul\":15710:15849   */\n      swap1\n      pop\n        /* \"#utility.yul\":15437:15856   */\n      swap2\n      swap1\n      pop\n      jump\t// out\n        /* \"#utility.yul\":15862:16042   */\n    tag_517:\n        /* \"#utility.yul\":15910:15987   */\n      0x4e487b7100000000000000000000000000000000000000000000000000000000\n        /* \"#utility.yul\":15907:15908   */\n      0x00\n        /* \"#utility.yul\":15900:15988   */\n      mstore\n        /* \"#utility.yul\":16007:16011   */\n      0x11\n        /* \"#utility.yul\":16004:16005   */\n      0x04\n        /* \"#utility.yul\":15997:16012   */\n      mstore\n        /* \"#utility.yul\":16031:16035   */\n      0x24\n        /* \"#utility.yul\":16028:16029   */\n      0x00\n        /* \"#utility.yul\":16021:16036   */\n      revert\n        /* \"#utility.yul\":16048:16150   */\n    tag_518:\n        /* \"#utility.yul\":16090:16098   */\n      0x00\n        /* \"#utility.yul\":16137:16142   */\n      dup2\n        /* \"#utility.yul\":16134:16135   */\n      0x01\n        /* \"#utility.yul\":16130:16143   */\n      shr\n        /* \"#utility.yul\":16109:16143   */\n      swap1\n      pop\n        /* \"#utility.yul\":16048:16150   */\n      swap2\n      swap1\n      pop\n      jump\t// out\n        /* \"#utility.yul\":16156:17004   */\n    tag_519:\n        /* \"#utility.yul\":16217:16222   */\n      0x00\n        /* \"#utility.yul\":16224:16228   */\n      dup1\n        /* \"#utility.yul\":16248:16254   */\n      dup3\n        /* \"#utility.yul\":16239:16254   */\n      swap2\n      pop\n        /* \"#utility.yul\":16272:16277   */\n      dup4\n        /* \"#utility.yul\":16263:16277   */\n      swap1\n      pop\n        /* \"#utility.yul\":16286:16998   */\n    tag_699:\n        /* \"#utility.yul\":16307:16308   */\n      0x01\n        /* \"#utility.yul\":16297:16305   */\n      dup6\n        /* \"#utility.yul\":16294:16309   */\n      gt\n        /* \"#utility.yul\":16286:16998   */\n      iszero\n      tag_701\n      jumpi\n        /* \"#utility.yul\":16402:16406   */\n      dup1\n        /* \"#utility.yul\":16397:16400   */\n      dup7\n        /* \"#utility.yul\":16393:16407   */\n      div\n        /* \"#utility.yul\":16387:16391   */\n      dup2\n        /* \"#utility.yul\":16384:16408   */\n      gt\n        /* \"#utility.yul\":16381:16431   */\n      iszero\n      tag_702\n      jumpi\n        /* \"#utility.yul\":16411:16429   */\n      tag_703\n      tag_517\n      jump\t// in\n    tag_703:\n        /* \"#utility.yul\":16381:16431   */\n    tag_702:\n        /* \"#utility.yul\":16461:16462   */\n      0x01\n        /* \"#utility.yul\":16451:16459   */\n      dup6\n        /* \"#utility.yul\":16447:16463   */\n      and\n        /* \"#utility.yul\":16444:16895   */\n      iszero\n      tag_704\n      jumpi\n        /* \"#utility.yul\":16876:16880   */\n      dup1\n        /* \"#utility.yul\":16869:16874   */\n      dup3\n        /* \"#utility.yul\":16865:16881   */\n      mul\n        /* \"#utility.yul\":16856:16881   */\n      swap2\n      pop\n        /* \"#utility.yul\":16444:16895   */\n    tag_704:\n        /* \"#utility.yul\":16926:16930   */\n      dup1\n        /* \"#utility.yul\":16920:16924   */\n      dup2\n        /* \"#utility.yul\":16916:16931   */\n      mul\n        /* \"#utility.yul\":16908:16931   */\n      swap1\n      pop\n        /* \"#utility.yul\":16956:16988   */\n      tag_705\n        /* \"#utility.yul\":16979:16987   */\n      dup6\n        /* \"#utility.yul\":16956:16988   */\n      tag_518\n      jump\t// in\n    tag_705:\n        /* \"#utility.yul\":16944:16988   */\n      swap5\n      pop\n        /* \"#utility.yul\":16286:16998   */\n      jump(tag_699)\n    tag_701:\n        /* \"#utility.yul\":16156:17004   */\n      swap5\n      pop\n      swap5\n      swap3\n      pop\n      pop\n      pop\n      jump\t// out\n        /* \"#utility.yul\":17010:18083   */\n    tag_520:\n        /* \"#utility.yul\":17064:17069   */\n      0x00\n        /* \"#utility.yul\":17255:17263   */\n      dup3\n        /* \"#utility.yul\":17245:17285   */\n      tag_707\n      jumpi\n        /* \"#utility.yul\":17276:17277   */\n      0x01\n        /* \"#utility.yul\":17267:17277   */\n      swap1\n      pop\n        /* \"#utility.yul\":17278:17283   */\n      jump(tag_706)\n        /* \"#utility.yul\":17245:17285   */\n    tag_707:\n        /* \"#utility.yul\":17304:17308   */\n      dup2\n        /* \"#utility.yul\":17294:17330   */\n      tag_708\n      jumpi\n        /* \"#utility.yul\":17321:17322   */\n      0x00\n        /* \"#utility.yul\":17312:17322   */\n      swap1\n      pop\n        /* \"#utility.yul\":17323:17328   */\n      jump(tag_706)\n        /* \"#utility.yul\":17294:17330   */\n    tag_708:\n        /* \"#utility.yul\":17390:17394   */\n      dup2\n        /* \"#utility.yul\":17438:17439   */\n      0x01\n        /* \"#utility.yul\":17433:17460   */\n      dup2\n      eq\n      tag_710\n      jumpi\n        /* \"#utility.yul\":17474:17475   */\n      0x02\n        /* \"#utility.yul\":17469:17660   */\n      dup2\n      eq\n      tag_711\n      jumpi\n        /* \"#utility.yul\":17383:17660   */\n      jump(tag_709)\n        /* \"#utility.yul\":17433:17460   */\n    tag_710:\n        /* \"#utility.yul\":17451:17452   */\n      0x01\n        /* \"#utility.yul\":17442:17452   */\n      swap2\n      pop\n        /* \"#utility.yul\":17453:17458   */\n      pop\n      jump(tag_706)\n        /* \"#utility.yul\":17469:17660   */\n    tag_711:\n        /* \"#utility.yul\":17514:17517   */\n      0xff\n        /* \"#utility.yul\":17504:17512   */\n      dup5\n        /* \"#utility.yul\":17501:17518   */\n      gt\n        /* \"#utility.yul\":17498:17541   */\n      iszero\n      tag_712\n      jumpi\n        /* \"#utility.yul\":17521:17539   */\n      tag_713\n      tag_517\n      jump\t// in\n    tag_713:\n        /* \"#utility.yul\":17498:17541   */\n    tag_712:\n        /* \"#utility.yul\":17570:17578   */\n      dup4\n        /* \"#utility.yul\":17567:17568   */\n      0x02\n        /* \"#utility.yul\":17563:17579   */\n      exp\n        /* \"#utility.yul\":17554:17579   */\n      swap2\n      pop\n        /* \"#utility.yul\":17605:17608   */\n      dup5\n        /* \"#utility.yul\":17598:17603   */\n      dup3\n        /* \"#utility.yul\":17595:17609   */\n      gt\n        /* \"#utility.yul\":17592:17632   */\n      iszero\n      tag_714\n      jumpi\n        /* \"#utility.yul\":17612:17630   */\n      tag_715\n      tag_517\n      jump\t// in\n    tag_715:\n        /* \"#utility.yul\":17592:17632   */\n    tag_714:\n        /* \"#utility.yul\":17645:17650   */\n      pop\n      jump(tag_706)\n        /* \"#utility.yul\":17383:17660   */\n    tag_709:\n      pop\n        /* \"#utility.yul\":17769:17771   */\n      0x20\n        /* \"#utility.yul\":17759:17767   */\n      dup4\n        /* \"#utility.yul\":17756:17772   */\n      lt\n        /* \"#utility.yul\":17750:17753   */\n      0x0133\n        /* \"#utility.yul\":17744:17748   */\n      dup4\n        /* \"#utility.yul\":17741:17754   */\n      lt\n        /* \"#utility.yul\":17737:17773   */\n      and\n        /* \"#utility.yul\":17719:17721   */\n      0x4e\n        /* \"#utility.yul\":17709:17717   */\n      dup5\n        /* \"#utility.yul\":17706:17722   */\n      lt\n        /* \"#utility.yul\":17701:17703   */\n      0x0b\n        /* \"#utility.yul\":17695:17699   */\n      dup5\n        /* \"#utility.yul\":17692:17704   */\n      lt\n        /* \"#utility.yul\":17688:17723   */\n      and\n        /* \"#utility.yul\":17672:17783   */\n      or\n        /* \"#utility.yul\":17669:17915   */\n      iszero\n      tag_716\n      jumpi\n        /* \"#utility.yul\":17825:17833   */\n      dup3\n        /* \"#utility.yul\":17819:17823   */\n      dup3\n        /* \"#utility.yul\":17815:17834   */\n      exp\n        /* \"#utility.yul\":17806:17834   */\n      swap1\n      pop\n        /* \"#utility.yul\":17860:17863   */\n      dup4\n        /* \"#utility.yul\":17853:17858   */\n      dup2\n        /* \"#utility.yul\":17850:17864   */\n      gt\n        /* \"#utility.yul\":17847:17887   */\n      iszero\n      tag_717\n      jumpi\n        /* \"#utility.yul\":17867:17885   */\n      tag_718\n      tag_517\n      jump\t// in\n    tag_718:\n        /* \"#utility.yul\":17847:17887   */\n    tag_717:\n        /* \"#utility.yul\":17900:17905   */\n      jump(tag_706)\n        /* \"#utility.yul\":17669:17915   */\n    tag_716:\n        /* \"#utility.yul\":17940:17982   */\n      tag_719\n        /* \"#utility.yul\":17978:17981   */\n      dup5\n        /* \"#utility.yul\":17968:17976   */\n      dup5\n        /* \"#utility.yul\":17962:17966   */\n      dup5\n        /* \"#utility.yul\":17959:17960   */\n      0x01\n        /* \"#utility.yul\":17940:17982   */\n      tag_519\n      jump\t// in\n    tag_719:\n        /* \"#utility.yul\":17925:17982   */\n      swap3\n      pop\n      swap1\n      pop\n        /* \"#utility.yul\":18014:18018   */\n      dup2\n        /* \"#utility.yul\":18009:18012   */\n      dup5\n        /* \"#utility.yul\":18005:18019   */\n      div\n        /* \"#utility.yul\":17998:18003   */\n      dup2\n        /* \"#utility.yul\":17995:18020   */\n      gt\n        /* \"#utility.yul\":17992:18043   */\n      iszero\n      tag_720\n      jumpi\n        /* \"#utility.yul\":18023:18041   */\n      tag_721\n      tag_517\n      jump\t// in\n    tag_721:\n        /* \"#utility.yul\":17992:18043   */\n    tag_720:\n        /* \"#utility.yul\":18072:18076   */\n      dup2\n        /* \"#utility.yul\":18065:18070   */\n      dup2\n        /* \"#utility.yul\":18061:18077   */\n      mul\n        /* \"#utility.yul\":18052:18077   */\n      swap1\n      pop\n        /* \"#utility.yul\":17010:18083   */\n    tag_706:\n      swap4\n      swap3\n      pop\n      pop\n      pop\n      jump\t// out\n        /* \"#utility.yul\":18089:18370   */\n    tag_274:\n        /* \"#utility.yul\":18147:18152   */\n      0x00\n        /* \"#utility.yul\":18171:18194   */\n      tag_723\n        /* \"#utility.yul\":18189:18193   */\n      dup3\n        /* \"#utility.yul\":18171:18194   */\n      tag_486\n      jump\t// in\n    tag_723:\n        /* \"#utility.yul\":18163:18194   */\n      swap2\n      pop\n        /* \"#utility.yul\":18215:18240   */\n      tag_724\n        /* \"#utility.yul\":18231:18239   */\n      dup4\n        /* \"#utility.yul\":18215:18240   */\n      tag_497\n      jump\t// in\n    tag_724:\n        /* \"#utility.yul\":18203:18240   */\n      swap3\n      pop\n        /* \"#utility.yul\":18259:18363   */\n      tag_725\n        /* \"#utility.yul\":18296:18362   */\n      0xffffffffffffffffffffffffffffffffffffffffffffffffffffffffffffffff\n        /* \"#utility.yul\":18286:18294   */\n      dup5\n        /* \"#utility.yul\":18280:18284   */\n      dup5\n        /* \"#utility.yul\":18259:18363   */\n      tag_520\n      jump\t// in\n    tag_725:\n        /* \"#utility.yul\":18250:18363   */\n      swap1\n      pop\n        /* \"#utility.yul\":18089:18370   */\n      swap3\n      swap2\n      pop\n      pop\n      jump\t// out\n        /* \"#utility.yul\":18376:18786   */\n    tag_276:\n        /* \"#utility.yul\":18416:18423   */\n      0x00\n        /* \"#utility.yul\":18439:18459   */\n      tag_727\n        /* \"#utility.yul\":18457:18458   */\n      dup3\n        /* \"#utility.yul\":18439:18459   */\n      tag_486\n      jump\t// in\n    tag_727:\n        /* \"#utility.yul\":18434:18459   */\n      swap2\n      pop\n        /* \"#utility.yul\":18473:18493   */\n      tag_728\n        /* \"#utility.yul\":18491:18492   */\n      dup4\n        /* \"#utility.yul\":18473:18493   */\n      tag_486\n      jump\t// in\n    tag_728:\n        /* \"#utility.yul\":18468:18493   */\n      swap3\n      pop\n        /* \"#utility.yul\":18528:18529   */\n      dup3\n        /* \"#utility.yul\":18525:18526   */\n      dup3\n        /* \"#utility.yul\":18521:18530   */\n      mul\n        /* \"#utility.yul\":18550:18580   */\n      tag_729\n        /* \"#utility.yul\":18568:18579   */\n      dup2\n        /* \"#utility.yul\":18550:18580   */\n      tag_486\n      jump\t// in\n    tag_729:\n        /* \"#utility.yul\":18539:18580   */\n      swap2\n      pop\n        /* \"#utility.yul\":18729:18730   */\n      dup3\n        /* \"#utility.yul\":18720:18727   */\n      dup3\n        /* \"#utility.yul\":18716:18731   */\n      div\n        /* \"#utility.yul\":18713:18714   */\n      dup5\n        /* \"#utility.yul\":18710:18732   */\n      eq\n        /* \"#utility.yul\":18690:18691   */\n      dup4\n        /* \"#utility.yul\":18683:18692   */\n      iszero\n        /* \"#utility.yul\":18663:18746   */\n      or\n        /* \"#utility.yul\":18640:18779   */\n      tag_730\n      jumpi\n        /* \"#utility.yul\":18759:18777   */\n      tag_731\n      tag_517\n      jump\t// in\n    tag_731:\n        /* \"#utility.yul\":18640:18779   */\n    tag_730:\n        /* \"#utility.yul\":18424:18786   */\n      pop\n        /* \"#utility.yul\":18376:18786   */\n      swap3\n      swap2\n      pop\n      pop\n      jump\t// out\n        /* \"#utility.yul\":18792:19077   */\n    tag_279:\n        /* \"#utility.yul\":18852:18857   */\n      0x00\n        /* \"#utility.yul\":18876:18899   */\n      tag_733\n        /* \"#utility.yul\":18894:18898   */\n      dup3\n        /* \"#utility.yul\":18876:18899   */\n      tag_486\n      jump\t// in\n    tag_733:\n        /* \"#utility.yul\":18868:18899   */\n      swap2\n      pop\n        /* \"#utility.yul\":18920:18947   */\n      tag_734\n        /* \"#utility.yul\":18938:18946   */\n      dup4\n        /* \"#utility.yul\":18920:18947   */\n      tag_486\n      jump\t// in\n    tag_734:\n        /* \"#utility.yul\":18908:18947   */\n      swap3\n      pop\n        /* \"#utility.yul\":18966:19070   */\n      tag_735\n        /* \"#utility.yul\":19003:19069   */\n      0xffffffffffffffffffffffffffffffffffffffffffffffffffffffffffffffff\n        /* \"#utility.yul\":18993:19001   */\n      dup5\n        /* \"#utility.yul\":18987:18991   */\n      dup5\n        /* \"#utility.yul\":18966:19070   */\n      tag_520\n      jump\t// in\n    tag_735:\n        /* \"#utility.yul\":18957:19070   */\n      swap1\n      pop\n        /* \"#utility.yul\":18792:19077   */\n      swap3\n      swap2\n      pop\n      pop\n      jump\t// out\n        /* \"#utility.yul\":19083:19226   */\n    tag_521:\n        /* \"#utility.yul\":19140:19145   */\n      0x00\n        /* \"#utility.yul\":19171:19177   */\n      dup2\n        /* \"#utility.yul\":19165:19178   */\n      mload\n        /* \"#utility.yul\":19156:19178   */\n      swap1\n      pop\n        /* \"#utility.yul\":19187:19220   */\n      tag_737\n        /* \"#utility.yul\":19214:19219   */\n      dup2\n        /* \"#utility.yul\":19187:19220   */\n      tag_484\n      jump\t// in\n    tag_737:\n        /* \"#utility.yul\":19083:19226   */\n      swap3\n      swap2\n      pop\n      pop\n      jump\t// out\n        /* \"#utility.yul\":19232:19583   */\n    tag_285:\n        /* \"#utility.yul\":19302:19308   */\n      0x00\n        /* \"#utility.yul\":19351:19353   */\n      0x20\n        /* \"#utility.yul\":19339:19348   */\n      dup3\n        /* \"#utility.yul\":19330:19337   */\n      dup5\n        /* \"#utility.yul\":19326:19349   */\n      sub\n        /* \"#utility.yul\":19322:19354   */\n      slt\n        /* \"#utility.yul\":19319:19438   */\n      iszero\n      tag_739\n      jumpi\n        /* \"#utility.yul\":19357:19436   */\n      tag_740\n      tag_480\n      jump\t// in\n    tag_740:\n        /* \"#utility.yul\":19319:19438   */\n    tag_739:\n        /* \"#utility.yul\":19477:19478   */\n      0x00\n        /* \"#utility.yul\":19502:19566   */\n      tag_741\n        /* \"#utility.yul\":19558:19565   */\n      dup5\n        /* \"#utility.yul\":19549:19555   */\n      dup3\n        /* \"#utility.yul\":19538:19547   */\n      dup6\n        /* \"#utility.yul\":19534:19556   */\n      add\n        /* \"#utility.yul\":19502:19566   */\n      tag_521\n      jump\t// in\n    tag_741:\n        /* \"#utility.yul\":19492:19566   */\n      swap2\n      pop\n        /* \"#utility.yul\":19448:19576   */\n      pop\n        /* \"#utility.yul\":19232:19583   */\n      swap3\n      swap2\n      pop\n      pop\n      jump\t// out\n        /* \"#utility.yul\":19589:19921   */\n    tag_290:\n        /* \"#utility.yul\":19710:19714   */\n      0x00\n        /* \"#utility.yul\":19748:19750   */\n      0x40\n        /* \"#utility.yul\":19737:19746   */\n      dup3\n        /* \"#utility.yul\":19733:19751   */\n      add\n        /* \"#utility.yul\":19725:19751   */\n      swap1\n      pop\n        /* \"#utility.yul\":19761:19832   */\n      tag_743\n        /* \"#utility.yul\":19829:19830   */\n      0x00\n        /* \"#utility.yul\":19818:19827   */\n      dup4\n        /* \"#utility.yul\":19814:19831   */\n      add\n        /* \"#utility.yul\":19805:19811   */\n      dup6\n        /* \"#utility.yul\":19761:19832   */\n      tag_499\n      jump\t// in\n    tag_743:\n        /* \"#utility.yul\":19842:19914   */\n      tag_744\n        /* \"#utility.yul\":19910:19912   */\n      0x20\n        /* \"#utility.yul\":19899:19908   */\n      dup4\n        /* \"#utility.yul\":19895:19913   */\n      add\n        /* \"#utility.yul\":19886:19892   */\n      dup5\n        /* \"#utility.yul\":19842:19914   */\n      tag_499\n      jump\t// in\n    tag_744:\n        /* \"#utility.yul\":19589:19921   */\n      swap4\n      swap3\n      pop\n      pop\n      pop\n      jump\t// out\n        /* \"#utility.yul\":19927:20012   */\n    tag_522:\n        /* \"#utility.yul\":19972:19979   */\n      0x00\n        /* \"#utility.yul\":20001:20006   */\n      dup2\n        /* \"#utility.yul\":19990:20006   */\n      swap1\n      pop\n        /* \"#utility.yul\":19927:20012   */\n      swap2\n      swap1\n      pop\n      jump\t// out\n        /* \"#utility.yul\":20018:20119   */\n    tag_523:\n        /* \"#utility.yul\":20054:20061   */\n      0x00\n        /* \"#utility.yul\":20094:20112   */\n      0xffffffffffffffff\n        /* \"#utility.yul\":20087:20092   */\n      dup3\n        /* \"#utility.yul\":20083:20113   */\n      and\n        /* \"#utility.yul\":20072:20113   */\n      swap1\n      pop\n        /* \"#utility.yul\":20018:20119   */\n      swap2\n      swap1\n      pop\n      jump\t// out\n        /* \"#utility.yul\":20125:20281   */\n    tag_524:\n        /* \"#utility.yul\":20182:20191   */\n      0x00\n        /* \"#utility.yul\":20215:20275   */\n      tag_748\n        /* \"#utility.yul\":20232:20274   */\n      tag_749\n        /* \"#utility.yul\":20241:20273   */\n      tag_750\n        /* \"#utility.yul\":20267:20272   */\n      dup5\n        /* \"#utility.yul\":20241:20273   */\n      tag_522\n      jump\t// in\n    tag_750:\n        /* \"#utility.yul\":20232:20274   */\n      tag_492\n      jump\t// in\n    tag_749:\n        /* \"#utility.yul\":20215:20275   */\n      tag_523\n      jump\t// in\n    tag_748:\n        /* \"#utility.yul\":20202:20275   */\n      swap1\n      pop\n        /* \"#utility.yul\":20125:20281   */\n      swap2\n      swap1\n      pop\n      jump\t// out\n        /* \"#utility.yul\":20287:20432   */\n    tag_525:\n        /* \"#utility.yul\":20381:20425   */\n      tag_752\n        /* \"#utility.yul\":20419:20424   */\n      dup2\n        /* \"#utility.yul\":20381:20425   */\n      tag_524\n      jump\t// in\n    tag_752:\n        /* \"#utility.yul\":20376:20379   */\n      dup3\n        /* \"#utility.yul\":20369:20426   */\n      mstore\n        /* \"#utility.yul\":20287:20432   */\n      pop\n      pop\n      jump\t// out\n        /* \"#utility.yul\":20438:20674   */\n    tag_299:\n        /* \"#utility.yul\":20538:20542   */\n      0x00\n        /* \"#utility.yul\":20576:20578   */\n      0x20\n        /* \"#utility.yul\":20565:20574   */\n      dup3\n        /* \"#utility.yul\":20561:20579   */\n      add\n        /* \"#utility.yul\":20553:20579   */\n      swap1\n      pop\n        /* \"#utility.yul\":20589:20667   */\n      tag_754\n        /* \"#utility.yul\":20664:20665   */\n      0x00\n        /* \"#utility.yul\":20653:20662   */\n      dup4\n        /* \"#utility.yul\":20649:20666   */\n      add\n        /* \"#utility.yul\":20640:20646   */\n      dup5\n        /* \"#utility.yul\":20589:20667   */\n      tag_525\n      jump\t// in\n    tag_754:\n        /* \"#utility.yul\":20438:20674   */\n      swap3\n      swap2\n      pop\n      pop\n      jump\t// out\n        /* \"#utility.yul\":20680:20909   */\n    tag_526:\n        /* \"#utility.yul\":20820:20854   */\n      0x737461696e6162696c6974792077616c6c65742063616e6e6f74206265207a65\n        /* \"#utility.yul\":20816:20817   */\n      0x00\n        /* \"#utility.yul\":20808:20814   */\n      dup3\n        /* \"#utility.yul\":20804:20818   */\n      add\n        /* \"#utility.yul\":20797:20855   */\n      mstore\n        /* \"#utility.yul\":20889:20901   */\n      0x726f206164647265737300000000000000000000000000000000000000000000\n        /* \"#utility.yul\":20884:20886   */\n      0x20\n        /* \"#utility.yul\":20876:20882   */\n      dup3\n        /* \"#utility.yul\":20872:20887   */\n      add\n        /* \"#utility.yul\":20865:20902   */\n      mstore\n        /* \"#utility.yul\":20680:20909   */\n      pop\n      jump\t// out\n        /* \"#utility.yul\":20915:21281   */\n    tag_527:\n        /* \"#utility.yul\":21057:21060   */\n      0x00\n        /* \"#utility.yul\":21078:21145   */\n      tag_757\n        /* \"#utility.yul\":21142:21144   */\n      0x2a\n        /* \"#utility.yul\":21137:21140   */\n      dup4\n        /* \"#utility.yul\":21078:21145   */\n      tag_475\n      jump\t// in\n    tag_757:\n        /* \"#utility.yul\":21071:21145   */\n      swap2\n      pop\n        /* \"#utility.yul\":21154:21247   */\n      tag_758\n        /* \"#utility.yul\":21243:21246   */\n      dup3\n        /* \"#utility.yul\":21154:21247   */\n      tag_526\n      jump\t// in\n    tag_758:\n        /* \"#utility.yul\":21272:21274   */\n      0x40\n        /* \"#utility.yul\":21267:21270   */\n      dup3\n        /* \"#utility.yul\":21263:21275   */\n      add\n        /* \"#utility.yul\":21256:21275   */\n      swap1\n      pop\n        /* \"#utility.yul\":20915:21281   */\n      swap2\n      swap1\n      pop\n      jump\t// out\n        /* \"#utility.yul\":21287:21706   */\n    tag_330:\n        /* \"#utility.yul\":21453:21457   */\n      0x00\n        /* \"#utility.yul\":21491:21493   */\n      0x20\n        /* \"#utility.yul\":21480:21489   */\n      dup3\n        /* \"#utility.yul\":21476:21494   */\n      add\n        /* \"#utility.yul\":21468:21494   */\n      swap1\n      pop\n        /* \"#utility.yul\":21540:21549   */\n      dup2\n        /* \"#utility.yul\":21534:21538   */\n      dup2\n        /* \"#utility.yul\":21530:21550   */\n      sub\n        /* \"#utility.yul\":21526:21527   */\n      0x00\n        /* \"#utility.yul\":21515:21524   */\n      dup4\n        /* \"#utility.yul\":21511:21528   */\n      add\n        /* \"#utility.yul\":21504:21551   */\n      mstore\n        /* \"#utility.yul\":21568:21699   */\n      tag_760\n        /* \"#utility.yul\":21694:21698   */\n      dup2\n        /* \"#utility.yul\":21568:21699   */\n      tag_527\n      jump\t// in\n    tag_760:\n        /* \"#utility.yul\":21560:21699   */\n      swap1\n      pop\n        /* \"#utility.yul\":21287:21706   */\n      swap2\n      swap1\n      pop\n      jump\t// out\n        /* \"#utility.yul\":21712:22154   */\n    tag_351:\n        /* \"#utility.yul\":21861:21865   */\n      0x00\n        /* \"#utility.yul\":21899:21901   */\n      0x60\n        /* \"#utility.yul\":21888:21897   */\n      dup3\n        /* \"#utility.yul\":21884:21902   */\n      add\n        /* \"#utility.yul\":21876:21902   */\n      swap1\n      pop\n        /* \"#utility.yul\":21912:21983   */\n      tag_762\n        /* \"#utility.yul\":21980:21981   */\n      0x00\n        /* \"#utility.yul\":21969:21978   */\n      dup4\n        /* \"#utility.yul\":21965:21982   */\n      add\n        /* \"#utility.yul\":21956:21962   */\n      dup7\n        /* \"#utility.yul\":21912:21983   */\n      tag_499\n      jump\t// in\n    tag_762:\n        /* \"#utility.yul\":21993:22065   */\n      tag_763\n        /* \"#utility.yul\":22061:22063   */\n      0x20\n        /* \"#utility.yul\":22050:22059   */\n      dup4\n        /* \"#utility.yul\":22046:22064   */\n      add\n        /* \"#utility.yul\":22037:22043   */\n      dup6\n        /* \"#utility.yul\":21993:22065   */\n      tag_491\n      jump\t// in\n    tag_763:\n        /* \"#utility.yul\":22075:22147   */\n      tag_764\n        /* \"#utility.yul\":22143:22145   */\n      0x40\n        /* \"#utility.yul\":22132:22141   */\n      dup4\n        /* \"#utility.yul\":22128:22146   */\n      add\n        /* \"#utility.yul\":22119:22125   */\n      dup5\n        /* \"#utility.yul\":22075:22147   */\n      tag_491\n      jump\t// in\n    tag_764:\n        /* \"#utility.yul\":21712:22154   */\n      swap5\n      swap4\n      pop\n      pop\n      pop\n      pop\n      jump\t// out\n        /* \"#utility.yul\":22160:22384   */\n    tag_528:\n        /* \"#utility.yul\":22300:22334   */\n      0x45524332303a207472616e736665722066726f6d20746865207a65726f206164\n        /* \"#utility.yul\":22296:22297   */\n      0x00\n        /* \"#utility.yul\":22288:22294   */\n      dup3\n        /* \"#utility.yul\":22284:22298   */\n      add\n        /* \"#utility.yul\":22277:22335   */\n      mstore\n        /* \"#utility.yul\":22369:22376   */\n      0x6472657373000000000000000000000000000000000000000000000000000000\n        /* \"#utility.yul\":22364:22366   */\n      0x20\n        /* \"#utility.yul\":22356:22362   */\n      dup3\n        /* \"#utility.yul\":22352:22367   */\n      add\n        /* \"#utility.yul\":22345:22377   */\n      mstore\n        /* \"#utility.yul\":22160:22384   */\n      pop\n      jump\t// out\n        /* \"#utility.yul\":22390:22756   */\n    tag_529:\n        /* \"#utility.yul\":22532:22535   */\n      0x00\n        /* \"#utility.yul\":22553:22620   */\n      tag_767\n        /* \"#utility.yul\":22617:22619   */\n      0x25\n        /* \"#utility.yul\":22612:22615   */\n      dup4\n        /* \"#utility.yul\":22553:22620   */\n      tag_475\n      jump\t// in\n    tag_767:\n        /* \"#utility.yul\":22546:22620   */\n      swap2\n      pop\n        /* \"#utility.yul\":22629:22722   */\n      tag_768\n        /* \"#utility.yul\":22718:22721   */\n      dup3\n        /* \"#utility.yul\":22629:22722   */\n      tag_528\n      jump\t// in\n    tag_768:\n        /* \"#utility.yul\":22747:22749   */\n      0x40\n        /* \"#utility.yul\":22742:22745   */\n      dup3\n        /* \"#utility.yul\":22738:22750   */\n      add\n        /* \"#utility.yul\":22731:22750   */\n      swap1\n      pop\n        /* \"#utility.yul\":22390:22756   */\n      swap2\n      swap1\n      pop\n      jump\t// out\n        /* \"#utility.yul\":22762:23181   */\n    tag_403:\n        /* \"#utility.yul\":22928:22932   */\n      0x00\n        /* \"#utility.yul\":22966:22968   */\n      0x20\n        /* \"#utility.yul\":22955:22964   */\n      dup3\n        /* \"#utility.yul\":22951:22969   */\n      add\n        /* \"#utility.yul\":22943:22969   */\n      swap1\n      pop\n        /* \"#utility.yul\":23015:23024   */\n      dup2\n        /* \"#utility.yul\":23009:23013   */\n      dup2\n        /* \"#utility.yul\":23005:23025   */\n      sub\n        /* \"#utility.yul\":23001:23002   */\n      0x00\n        /* \"#utility.yul\":22990:22999   */\n      dup4\n        /* \"#utility.yul\":22986:23003   */\n      add\n        /* \"#utility.yul\":22979:23026   */\n      mstore\n        /* \"#utility.yul\":23043:23174   */\n      tag_770\n        /* \"#utility.yul\":23169:23173   */\n      dup2\n        /* \"#utility.yul\":23043:23174   */\n      tag_529\n      jump\t// in\n    tag_770:\n        /* \"#utility.yul\":23035:23174   */\n      swap1\n      pop\n        /* \"#utility.yul\":22762:23181   */\n      swap2\n      swap1\n      pop\n      jump\t// out\n        /* \"#utility.yul\":23187:23409   */\n    tag_530:\n        /* \"#utility.yul\":23327:23361   */\n      0x45524332303a207472616e7366657220746f20746865207a65726f2061646472\n        /* \"#utility.yul\":23323:23324   */\n      0x00\n        /* \"#utility.yul\":23315:23321   */\n      dup3\n        /* \"#utility.yul\":23311:23325   */\n      add\n        /* \"#utility.yul\":23304:23362   */\n      mstore\n        /* \"#utility.yul\":23396:23401   */\n      0x6573730000000000000000000000000000000000000000000000000000000000\n        /* \"#utility.yul\":23391:23393   */\n      0x20\n        /* \"#utility.yul\":23383:23389   */\n      dup3\n        /* \"#utility.yul\":23379:23394   */\n      add\n        /* \"#utility.yul\":23372:23402   */\n      mstore\n        /* \"#utility.yul\":23187:23409   */\n      pop\n      jump\t// out\n        /* \"#utility.yul\":23415:23781   */\n    tag_531:\n        /* \"#utility.yul\":23557:23560   */\n      0x00\n        /* \"#utility.yul\":23578:23645   */\n      tag_773\n        /* \"#utility.yul\":23642:23644   */\n      0x23\n        /* \"#utility.yul\":23637:23640   */\n      dup4\n        /* \"#utility.yul\":23578:23645   */\n      tag_475\n      jump\t// in\n    tag_773:\n        /* \"#utility.yul\":23571:23645   */\n      swap2\n      pop\n        /* \"#utility.yul\":23654:23747   */\n      tag_774\n        /* \"#utility.yul\":23743:23746   */\n      dup3\n        /* \"#utility.yul\":23654:23747   */\n      tag_530\n      jump\t// in\n    tag_774:\n        /* \"#utility.yul\":23772:23774   */\n      0x40\n        /* \"#utility.yul\":23767:23770   */\n      dup3\n        /* \"#utility.yul\":23763:23775   */\n      add\n        /* \"#utility.yul\":23756:23775   */\n      swap1\n      pop\n        /* \"#utility.yul\":23415:23781   */\n      swap2\n      swap1\n      pop\n      jump\t// out\n        /* \"#utility.yul\":23787:24206   */\n    tag_406:\n        /* \"#utility.yul\":23953:23957   */\n      0x00\n        /* \"#utility.yul\":23991:23993   */\n      0x20\n        /* \"#utility.yul\":23980:23989   */\n      dup3\n        /* \"#utility.yul\":23976:23994   */\n      add\n        /* \"#utility.yul\":23968:23994   */\n      swap1\n      pop\n        /* \"#utility.yul\":24040:24049   */\n      dup2\n        /* \"#utility.yul\":24034:24038   */\n      dup2\n        /* \"#utility.yul\":24030:24050   */\n      sub\n        /* \"#utility.yul\":24026:24027   */\n      0x00\n        /* \"#utility.yul\":24015:24024   */\n      dup4\n        /* \"#utility.yul\":24011:24028   */\n      add\n        /* \"#utility.yul\":24004:24051   */\n      mstore\n        /* \"#utility.yul\":24068:24199   */\n      tag_776\n        /* \"#utility.yul\":24194:24198   */\n      dup2\n        /* \"#utility.yul\":24068:24199   */\n      tag_531\n      jump\t// in\n    tag_776:\n        /* \"#utility.yul\":24060:24199   */\n      swap1\n      pop\n        /* \"#utility.yul\":23787:24206   */\n      swap2\n      swap1\n      pop\n      jump\t// out\n        /* \"#utility.yul\":24212:24440   */\n    tag_532:\n        /* \"#utility.yul\":24352:24386   */\n      0x5472616e7366657220616d6f756e74206d757374206265206772656174657220\n        /* \"#utility.yul\":24348:24349   */\n      0x00\n        /* \"#utility.yul\":24340:24346   */\n      dup3\n        /* \"#utility.yul\":24336:24350   */\n      add\n        /* \"#utility.yul\":24329:24387   */\n      mstore\n        /* \"#utility.yul\":24421:24432   */\n      0x7468616e207a65726f0000000000000000000000000000000000000000000000\n        /* \"#utility.yul\":24416:24418   */\n      0x20\n        /* \"#utility.yul\":24408:24414   */\n      dup3\n        /* \"#utility.yul\":24404:24419   */\n      add\n        /* \"#utility.yul\":24397:24433   */\n      mstore\n        /* \"#utility.yul\":24212:24440   */\n      pop\n      jump\t// out\n        /* \"#utility.yul\":24446:24812   */\n    tag_533:\n        /* \"#utility.yul\":24588:24591   */\n      0x00\n        /* \"#utility.yul\":24609:24676   */\n      tag_779\n        /* \"#utility.yul\":24673:24675   */\n      0x29\n        /* \"#utility.yul\":24668:24671   */\n      dup4\n        /* \"#utility.yul\":24609:24676   */\n      tag_475\n      jump\t// in\n    tag_779:\n        /* \"#utility.yul\":24602:24676   */\n      swap2\n      pop\n        /* \"#utility.yul\":24685:24778   */\n      tag_780\n        /* \"#utility.yul\":24774:24777   */\n      dup3\n        /* \"#utility.yul\":24685:24778   */\n      tag_532\n      jump\t// in\n    tag_780:\n        /* \"#utility.yul\":24803:24805   */\n      0x40\n        /* \"#utility.yul\":24798:24801   */\n      dup3\n        /* \"#utility.yul\":24794:24806   */\n      add\n        /* \"#utility.yul\":24787:24806   */\n      swap1\n      pop\n        /* \"#utility.yul\":24446:24812   */\n      swap2\n      swap1\n      pop\n      jump\t// out\n        /* \"#utility.yul\":24818:25237   */\n    tag_409:\n        /* \"#utility.yul\":24984:24988   */\n      0x00\n        /* \"#utility.yul\":25022:25024   */\n      0x20\n        /* \"#utility.yul\":25011:25020   */\n      dup3\n        /* \"#utility.yul\":25007:25025   */\n      add\n        /* \"#utility.yul\":24999:25025   */\n      swap1\n      pop\n        /* \"#utility.yul\":25071:25080   */\n      dup2\n        /* \"#utility.yul\":25065:25069   */\n      dup2\n        /* \"#utility.yul\":25061:25081   */\n      sub\n        /* \"#utility.yul\":25057:25058   */\n      0x00\n        /* \"#utility.yul\":25046:25055   */\n      dup4\n        /* \"#utility.yul\":25042:25059   */\n      add\n        /* \"#utility.yul\":25035:25082   */\n      mstore\n        /* \"#utility.yul\":25099:25230   */\n      tag_782\n        /* \"#utility.yul\":25225:25229   */\n      dup2\n        /* \"#utility.yul\":25099:25230   */\n      tag_533\n      jump\t// in\n    tag_782:\n        /* \"#utility.yul\":25091:25230   */\n      swap1\n      pop\n        /* \"#utility.yul\":24818:25237   */\n      swap2\n      swap1\n      pop\n      jump\t// out\n        /* \"#utility.yul\":25243:25414   */\n    tag_534:\n        /* \"#utility.yul\":25383:25406   */\n      0x53656e64657220697320626c61636b6c69737465640000000000000000000000\n        /* \"#utility.yul\":25379:25380   */\n      0x00\n        /* \"#utility.yul\":25371:25377   */\n      dup3\n        /* \"#utility.yul\":25367:25381   */\n      add\n        /* \"#utility.yul\":25360:25407   */\n      mstore\n        /* \"#utility.yul\":25243:25414   */\n      pop\n      jump\t// out\n        /* \"#utility.yul\":25420:25786   */\n    tag_535:\n        /* \"#utility.yul\":25562:25565   */\n      0x00\n        /* \"#utility.yul\":25583:25650   */\n      tag_785\n        /* \"#utility.yul\":25647:25649   */\n      0x15\n        /* \"#utility.yul\":25642:25645   */\n      dup4\n        /* \"#utility.yul\":25583:25650   */\n      tag_475\n      jump\t// in\n    tag_785:\n        /* \"#utility.yul\":25576:25650   */\n      swap2\n      pop\n        /* \"#utility.yul\":25659:25752   */\n      tag_786\n        /* \"#utility.yul\":25748:25751   */\n      dup3\n        /* \"#utility.yul\":25659:25752   */\n      tag_534\n      jump\t// in\n    tag_786:\n        /* \"#utility.yul\":25777:25779   */\n      0x20\n        /* \"#utility.yul\":25772:25775   */\n      dup3\n        /* \"#utility.yul\":25768:25780   */\n      add\n        /* \"#utility.yul\":25761:25780   */\n      swap1\n      pop\n        /* \"#utility.yul\":25420:25786   */\n      swap2\n      swap1\n      pop\n      jump\t// out\n        /* \"#utility.yul\":25792:26211   */\n    tag_412:\n        /* \"#utility.yul\":25958:25962   */\n      0x00\n        /* \"#utility.yul\":25996:25998   */\n      0x20\n        /* \"#utility.yul\":25985:25994   */\n      dup3\n        /* \"#utility.yul\":25981:25999   */\n      add\n        /* \"#utility.yul\":25973:25999   */\n      swap1\n      pop\n        /* \"#utility.yul\":26045:26054   */\n      dup2\n        /* \"#utility.yul\":26039:26043   */\n      dup2\n        /* \"#utility.yul\":26035:26055   */\n      sub\n        /* \"#utility.yul\":26031:26032   */\n      0x00\n        /* \"#utility.yul\":26020:26029   */\n      dup4\n        /* \"#utility.yul\":26016:26033   */\n      add\n        /* \"#utility.yul\":26009:26056   */\n      mstore\n        /* \"#utility.yul\":26073:26204   */\n      tag_788\n        /* \"#utility.yul\":26199:26203   */\n      dup2\n        /* \"#utility.yul\":26073:26204   */\n      tag_535\n      jump\t// in\n    tag_788:\n        /* \"#utility.yul\":26065:26204   */\n      swap1\n      pop\n        /* \"#utility.yul\":25792:26211   */\n      swap2\n      swap1\n      pop\n      jump\t// out\n        /* \"#utility.yul\":26217:26391   */\n    tag_536:\n        /* \"#utility.yul\":26357:26383   */\n      0x526563697069656e7420697320626c61636b6c69737465640000000000000000\n        /* \"#utility.yul\":26353:26354   */\n      0x00\n        /* \"#utility.yul\":26345:26351   */\n      dup3\n        /* \"#utility.yul\":26341:26355   */\n      add\n        /* \"#utility.yul\":26334:26384   */\n      mstore\n        /* \"#utility.yul\":26217:26391   */\n      pop\n      jump\t// out\n        /* \"#utility.yul\":26397:26763   */\n    tag_537:\n        /* \"#utility.yul\":26539:26542   */\n      0x00\n        /* \"#utility.yul\":26560:26627   */\n      tag_791\n        /* \"#utility.yul\":26624:26626   */\n      0x18\n        /* \"#utility.yul\":26619:26622   */\n      dup4\n        /* \"#utility.yul\":26560:26627   */\n      tag_475\n      jump\t// in\n    tag_791:\n        /* \"#utility.yul\":26553:26627   */\n      swap2\n      pop\n        /* \"#utility.yul\":26636:26729   */\n      tag_792\n        /* \"#utility.yul\":26725:26728   */\n      dup3\n        /* \"#utility.yul\":26636:26729   */\n      tag_536\n      jump\t// in\n    tag_792:\n        /* \"#utility.yul\":26754:26756   */\n      0x20\n        /* \"#utility.yul\":26749:26752   */\n      dup3\n        /* \"#utility.yul\":26745:26757   */\n      add\n        /* \"#utility.yul\":26738:26757   */\n      swap1\n      pop\n        /* \"#utility.yul\":26397:26763   */\n      swap2\n      swap1\n      pop\n      jump\t// out\n        /* \"#utility.yul\":26769:27188   */\n    tag_415:\n        /* \"#utility.yul\":26935:26939   */\n      0x00\n        /* \"#utility.yul\":26973:26975   */\n      0x20\n        /* \"#utility.yul\":26962:26971   */\n      dup3\n        /* \"#utility.yul\":26958:26976   */\n      add\n        /* \"#utility.yul\":26950:26976   */\n      swap1\n      pop\n        /* \"#utility.yul\":27022:27031   */\n      dup2\n        /* \"#utility.yul\":27016:27020   */\n      dup2\n        /* \"#utility.yul\":27012:27032   */\n      sub\n        /* \"#utility.yul\":27008:27009   */\n      0x00\n        /* \"#utility.yul\":26997:27006   */\n      dup4\n        /* \"#utility.yul\":26993:27010   */\n      add\n        /* \"#utility.yul\":26986:27033   */\n      mstore\n        /* \"#utility.yul\":27050:27181   */\n      tag_794\n        /* \"#utility.yul\":27176:27180   */\n      dup2\n        /* \"#utility.yul\":27050:27181   */\n      tag_537\n      jump\t// in\n    tag_794:\n        /* \"#utility.yul\":27042:27181   */\n      swap1\n      pop\n        /* \"#utility.yul\":26769:27188   */\n      swap2\n      swap1\n      pop\n      jump\t// out\n        /* \"#utility.yul\":27194:27418   */\n    tag_538:\n        /* \"#utility.yul\":27334:27368   */\n      0x43616e6e6f742062757920262073656c6c206d6f7265207468616e206d617820\n        /* \"#utility.yul\":27330:27331   */\n      0x00\n        /* \"#utility.yul\":27322:27328   */\n      dup3\n        /* \"#utility.yul\":27318:27332   */\n      add\n        /* \"#utility.yul\":27311:27369   */\n      mstore\n        /* \"#utility.yul\":27403:27410   */\n      0x6c696d6974000000000000000000000000000000000000000000000000000000\n        /* \"#utility.yul\":27398:27400   */\n      0x20\n        /* \"#utility.yul\":27390:27396   */\n      dup3\n        /* \"#utility.yul\":27386:27401   */\n      add\n        /* \"#utility.yul\":27379:27411   */\n      mstore\n        /* \"#utility.yul\":27194:27418   */\n      pop\n      jump\t// out\n        /* \"#utility.yul\":27424:27790   */\n    tag_539:\n        /* \"#utility.yul\":27566:27569   */\n      0x00\n        /* \"#utility.yul\":27587:27654   */\n      tag_797\n        /* \"#utility.yul\":27651:27653   */\n      0x25\n        /* \"#utility.yul\":27646:27649   */\n      dup4\n        /* \"#utility.yul\":27587:27654   */\n      tag_475\n      jump\t// in\n    tag_797:\n        /* \"#utility.yul\":27580:27654   */\n      swap2\n      pop\n        /* \"#utility.yul\":27663:27756   */\n      tag_798\n        /* \"#utility.yul\":27752:27755   */\n      dup3\n        /* \"#utility.yul\":27663:27756   */\n      tag_538\n      jump\t// in\n    tag_798:\n        /* \"#utility.yul\":27781:27783   */\n      0x40\n        /* \"#utility.yul\":27776:27779   */\n      dup3\n        /* \"#utility.yul\":27772:27784   */\n      add\n        /* \"#utility.yul\":27765:27784   */\n      swap1\n      pop\n        /* \"#utility.yul\":27424:27790   */\n      swap2\n      swap1\n      pop\n      jump\t// out\n        /* \"#utility.yul\":27796:28215   */\n    tag_427:\n        /* \"#utility.yul\":27962:27966   */\n      0x00\n        /* \"#utility.yul\":28000:28002   */\n      0x20\n        /* \"#utility.yul\":27989:27998   */\n      dup3\n        /* \"#utility.yul\":27985:28003   */\n      add\n        /* \"#utility.yul\":27977:28003   */\n      swap1\n      pop\n        /* \"#utility.yul\":28049:28058   */\n      dup2\n        /* \"#utility.yul\":28043:28047   */\n      dup2\n        /* \"#utility.yul\":28039:28059   */\n      sub\n        /* \"#utility.yul\":28035:28036   */\n      0x00\n        /* \"#utility.yul\":28024:28033   */\n      dup4\n        /* \"#utility.yul\":28020:28037   */\n      add\n        /* \"#utility.yul\":28013:28060   */\n      mstore\n        /* \"#utility.yul\":28077:28208   */\n      tag_800\n        /* \"#utility.yul\":28203:28207   */\n      dup2\n        /* \"#utility.yul\":28077:28208   */\n      tag_539\n      jump\t// in\n    tag_800:\n        /* \"#utility.yul\":28069:28208   */\n      swap1\n      pop\n        /* \"#utility.yul\":27796:28215   */\n      swap2\n      swap1\n      pop\n      jump\t// out\n        /* \"#utility.yul\":28221:28412   */\n    tag_436:\n        /* \"#utility.yul\":28261:28264   */\n      0x00\n        /* \"#utility.yul\":28280:28300   */\n      tag_802\n        /* \"#utility.yul\":28298:28299   */\n      dup3\n        /* \"#utility.yul\":28280:28300   */\n      tag_486\n      jump\t// in\n    tag_802:\n        /* \"#utility.yul\":28275:28300   */\n      swap2\n      pop\n        /* \"#utility.yul\":28314:28334   */\n      tag_803\n        /* \"#utility.yul\":28332:28333   */\n      dup4\n        /* \"#utility.yul\":28314:28334   */\n      tag_486\n      jump\t// in\n    tag_803:\n        /* \"#utility.yul\":28309:28334   */\n      swap3\n      pop\n        /* \"#utility.yul\":28357:28358   */\n      dup3\n        /* \"#utility.yul\":28354:28355   */\n      dup3\n        /* \"#utility.yul\":28350:28359   */\n      add\n        /* \"#utility.yul\":28343:28359   */\n      swap1\n      pop\n        /* \"#utility.yul\":28378:28381   */\n      dup1\n        /* \"#utility.yul\":28375:28376   */\n      dup3\n        /* \"#utility.yul\":28372:28382   */\n      gt\n        /* \"#utility.yul\":28369:28405   */\n      iszero\n      tag_804\n      jumpi\n        /* \"#utility.yul\":28385:28403   */\n      tag_805\n      tag_517\n      jump\t// in\n    tag_805:\n        /* \"#utility.yul\":28369:28405   */\n    tag_804:\n        /* \"#utility.yul\":28221:28412   */\n      swap3\n      swap2\n      pop\n      pop\n      jump\t// out\n        /* \"#utility.yul\":28418:28612   */\n    tag_439:\n        /* \"#utility.yul\":28458:28462   */\n      0x00\n        /* \"#utility.yul\":28478:28498   */\n      tag_807\n        /* \"#utility.yul\":28496:28497   */\n      dup3\n        /* \"#utility.yul\":28478:28498   */\n      tag_486\n      jump\t// in\n    tag_807:\n        /* \"#utility.yul\":28473:28498   */\n      swap2\n      pop\n        /* \"#utility.yul\":28512:28532   */\n      tag_808\n        /* \"#utility.yul\":28530:28531   */\n      dup4\n        /* \"#utility.yul\":28512:28532   */\n      tag_486\n      jump\t// in\n    tag_808:\n        /* \"#utility.yul\":28507:28532   */\n      swap3\n      pop\n        /* \"#utility.yul\":28556:28557   */\n      dup3\n        /* \"#utility.yul\":28553:28554   */\n      dup3\n        /* \"#utility.yul\":28549:28558   */\n      sub\n        /* \"#utility.yul\":28541:28558   */\n      swap1\n      pop\n        /* \"#utility.yul\":28580:28581   */\n      dup2\n        /* \"#utility.yul\":28574:28578   */\n      dup2\n        /* \"#utility.yul\":28571:28582   */\n      gt\n        /* \"#utility.yul\":28568:28605   */\n      iszero\n      tag_809\n      jumpi\n        /* \"#utility.yul\":28585:28603   */\n      tag_810\n      tag_517\n      jump\t// in\n    tag_810:\n        /* \"#utility.yul\":28568:28605   */\n    tag_809:\n        /* \"#utility.yul\":28418:28612   */\n      swap3\n      swap2\n      pop\n      pop\n      jump\t// out\n        /* \"#utility.yul\":28618:28798   */\n    tag_540:\n        /* \"#utility.yul\":28666:28743   */\n      0x4e487b7100000000000000000000000000000000000000000000000000000000\n        /* \"#utility.yul\":28663:28664   */\n      0x00\n        /* \"#utility.yul\":28656:28744   */\n      mstore\n        /* \"#utility.yul\":28763:28767   */\n      0x41\n        /* \"#utility.yul\":28760:28761   */\n      0x04\n        /* \"#utility.yul\":28753:28768   */\n      mstore\n        /* \"#utility.yul\":28787:28791   */\n      0x24\n        /* \"#utility.yul\":28784:28785   */\n      0x00\n        /* \"#utility.yul\":28777:28792   */\n      revert\n        /* \"#utility.yul\":28804:28945   */\n    tag_541:\n        /* \"#utility.yul\":28853:28857   */\n      0x00\n        /* \"#utility.yul\":28876:28879   */\n      dup2\n        /* \"#utility.yul\":28868:28879   */\n      swap1\n      pop\n        /* \"#utility.yul\":28899:28902   */\n      dup2\n        /* \"#utility.yul\":28896:28897   */\n      0x00\n        /* \"#utility.yul\":28889:28903   */\n      mstore\n        /* \"#utility.yul\":28933:28937   */\n      0x20\n        /* \"#utility.yul\":28930:28931   */\n      0x00\n        /* \"#utility.yul\":28920:28938   */\n      keccak256\n        /* \"#utility.yul\":28912:28938   */\n      swap1\n      pop\n        /* \"#utility.yul\":28804:28945   */\n      swap2\n      swap1\n      pop\n      jump\t// out\n        /* \"#utility.yul\":28951:29044   */\n    tag_542:\n        /* \"#utility.yul\":28988:28994   */\n      0x00\n        /* \"#utility.yul\":29035:29037   */\n      0x20\n        /* \"#utility.yul\":29030:29032   */\n      0x1f\n        /* \"#utility.yul\":29023:29028   */\n      dup4\n        /* \"#utility.yul\":29019:29033   */\n      add\n        /* \"#utility.yul\":29015:29038   */\n      div\n        /* \"#utility.yul\":29005:29038   */\n      swap1\n      pop\n        /* \"#utility.yul\":28951:29044   */\n      swap2\n      swap1\n      pop\n      jump\t// out\n        /* \"#utility.yul\":29050:29157   */\n    tag_543:\n        /* \"#utility.yul\":29094:29102   */\n      0x00\n        /* \"#utility.yul\":29144:29149   */\n      dup3\n        /* \"#utility.yul\":29138:29142   */\n      dup3\n        /* \"#utility.yul\":29134:29150   */\n      shl\n        /* \"#utility.yul\":29113:29150   */\n      swap1\n      pop\n        /* \"#utility.yul\":29050:29157   */\n      swap3\n      swap2\n      pop\n      pop\n      jump\t// out\n        /* \"#utility.yul\":29163:29556   */\n    tag_544:\n        /* \"#utility.yul\":29232:29238   */\n      0x00\n        /* \"#utility.yul\":29282:29283   */\n      0x08\n        /* \"#utility.yul\":29270:29280   */\n      dup4\n        /* \"#utility.yul\":29266:29284   */\n      mul\n        /* \"#utility.yul\":29305:29402   */\n      tag_816\n        /* \"#utility.yul\":29335:29401   */\n      0xffffffffffffffffffffffffffffffffffffffffffffffffffffffffffffffff\n        /* \"#utility.yul\":29324:29333   */\n      dup3\n        /* \"#utility.yul\":29305:29402   */\n      tag_543\n      jump\t// in\n    tag_816:\n        /* \"#utility.yul\":29423:29462   */\n      tag_817\n        /* \"#utility.yul\":29453:29461   */\n      dup7\n        /* \"#utility.yul\":29442:29451   */\n      dup4\n        /* \"#utility.yul\":29423:29462   */\n      tag_543\n      jump\t// in\n    tag_817:\n        /* \"#utility.yul\":29411:29462   */\n      swap6\n      pop\n        /* \"#utility.yul\":29495:29499   */\n      dup1\n        /* \"#utility.yul\":29491:29500   */\n      not\n        /* \"#utility.yul\":29484:29489   */\n      dup5\n        /* \"#utility.yul\":29480:29501   */\n      and\n        /* \"#utility.yul\":29471:29501   */\n      swap4\n      pop\n        /* \"#utility.yul\":29544:29548   */\n      dup1\n        /* \"#utility.yul\":29534:29542   */\n      dup7\n        /* \"#utility.yul\":29530:29549   */\n      and\n        /* \"#utility.yul\":29523:29528   */\n      dup5\n        /* \"#utility.yul\":29520:29550   */\n      or\n        /* \"#utility.yul\":29510:29550   */\n      swap3\n      pop\n        /* \"#utility.yul\":29239:29556   */\n      pop\n      pop\n        /* \"#utility.yul\":29163:29556   */\n      swap4\n      swap3\n      pop\n      pop\n      pop\n      jump\t// out\n        /* \"#utility.yul\":29562:29704   */\n    tag_545:\n        /* \"#utility.yul\":29612:29621   */\n      0x00\n        /* \"#utility.yul\":29645:29698   */\n      tag_819\n        /* \"#utility.yul\":29663:29697   */\n      tag_820\n        /* \"#utility.yul\":29672:29696   */\n      tag_821\n        /* \"#utility.yul\":29690:29695   */\n      dup5\n        /* \"#utility.yul\":29672:29696   */\n      tag_486\n      jump\t// in\n    tag_821:\n        /* \"#utility.yul\":29663:29697   */\n      tag_492\n      jump\t// in\n    tag_820:\n        /* \"#utility.yul\":29645:29698   */\n      tag_486\n      jump\t// in\n    tag_819:\n        /* \"#utility.yul\":29632:29698   */\n      swap1\n      pop\n        /* \"#utility.yul\":29562:29704   */\n      swap2\n      swap1\n      pop\n      jump\t// out\n        /* \"#utility.yul\":29710:29785   */\n    tag_546:\n        /* \"#utility.yul\":29753:29756   */\n      0x00\n        /* \"#utility.yul\":29774:29779   */\n      dup2\n        /* \"#utility.yul\":29767:29779   */\n      swap1\n      pop\n        /* \"#utility.yul\":29710:29785   */\n      swap2\n      swap1\n      pop\n      jump\t// out\n        /* \"#utility.yul\":29791:30060   */\n    tag_547:\n        /* \"#utility.yul\":29901:29940   */\n      tag_824\n        /* \"#utility.yul\":29932:29939   */\n      dup4\n        /* \"#utility.yul\":29901:29940   */\n      tag_545\n      jump\t// in\n    tag_824:\n        /* \"#utility.yul\":29962:30053   */\n      tag_825\n        /* \"#utility.yul\":30011:30052   */\n      tag_826\n        /* \"#utility.yul\":30035:30051   */\n      dup3\n        /* \"#utility.yul\":30011:30052   */\n      tag_546\n      jump\t// in\n    tag_826:\n        /* \"#utility.yul\":30003:30009   */\n      dup5\n        /* \"#utility.yul\":29996:30000   */\n      dup5\n        /* \"#utility.yul\":29990:30001   */\n      sload\n        /* \"#utility.yul\":29962:30053   */\n      tag_544\n      jump\t// in\n    tag_825:\n        /* \"#utility.yul\":29956:29960   */\n      dup3\n        /* \"#utility.yul\":29949:30054   */\n      sstore\n        /* \"#utility.yul\":29867:30060   */\n      pop\n        /* \"#utility.yul\":29791:30060   */\n      pop\n      pop\n      pop\n      jump\t// out\n        /* \"#utility.yul\":30066:30139   */\n    tag_548:\n        /* \"#utility.yul\":30111:30114   */\n      0x00\n        /* \"#utility.yul\":30066:30139   */\n      swap1\n      jump\t// out\n        /* \"#utility.yul\":30145:30334   */\n    tag_549:\n        /* \"#utility.yul\":30222:30254   */\n      tag_829\n      tag_548\n      jump\t// in\n    tag_829:\n        /* \"#utility.yul\":30263:30328   */\n      tag_830\n        /* \"#utility.yul\":30321:30327   */\n      dup2\n        /* \"#utility.yul\":30313:30319   */\n      dup5\n        /* \"#utility.yul\":30307:30311   */\n      dup5\n        /* \"#utility.yul\":30263:30328   */\n      tag_547\n      jump\t// in\n    tag_830:\n        /* \"#utility.yul\":30198:30334   */\n      pop\n        /* \"#utility.yul\":30145:30334   */\n      pop\n      pop\n      jump\t// out\n        /* \"#utility.yul\":30340:30526   */\n    tag_550:\n        /* \"#utility.yul\":30400:30520   */\n    tag_832:\n        /* \"#utility.yul\":30417:30420   */\n      dup2\n        /* \"#utility.yul\":30410:30415   */\n      dup2\n        /* \"#utility.yul\":30407:30421   */\n      lt\n        /* \"#utility.yul\":30400:30520   */\n      iszero\n      tag_834\n      jumpi\n        /* \"#utility.yul\":30471:30510   */\n      tag_835\n        /* \"#utility.yul\":30508:30509   */\n      0x00\n        /* \"#utility.yul\":30501:30506   */\n      dup3\n        /* \"#utility.yul\":30471:30510   */\n      tag_549\n      jump\t// in\n    tag_835:\n        /* \"#utility.yul\":30444:30445   */\n      0x01\n        /* \"#utility.yul\":30437:30442   */\n      dup2\n        /* \"#utility.yul\":30433:30446   */\n      add\n        /* \"#utility.yul\":30424:30446   */\n      swap1\n      pop\n        /* \"#utility.yul\":30400:30520   */\n      jump(tag_832)\n    tag_834:\n        /* \"#utility.yul\":30340:30526   */\n      pop\n      pop\n      jump\t// out\n        /* \"#utility.yul\":30532:31075   */\n    tag_551:\n        /* \"#utility.yul\":30633:30635   */\n      0x1f\n        /* \"#utility.yul\":30628:30631   */\n      dup3\n        /* \"#utility.yul\":30625:30636   */\n      gt\n        /* \"#utility.yul\":30622:31068   */\n      iszero\n      tag_837\n      jumpi\n        /* \"#utility.yul\":30667:30705   */\n      tag_838\n        /* \"#utility.yul\":30699:30704   */\n      dup2\n        /* \"#utility.yul\":30667:30705   */\n      tag_541\n      jump\t// in\n    tag_838:\n        /* \"#utility.yul\":30751:30780   */\n      tag_839\n        /* \"#utility.yul\":30769:30779   */\n      dup5\n        /* \"#utility.yul\":30751:30780   */\n      tag_542\n      jump\t// in\n    tag_839:\n        /* \"#utility.yul\":30741:30749   */\n      dup2\n        /* \"#utility.yul\":30737:30781   */\n      add\n        /* \"#utility.yul\":30934:30936   */\n      0x20\n        /* \"#utility.yul\":30922:30932   */\n      dup6\n        /* \"#utility.yul\":30919:30937   */\n      lt\n        /* \"#utility.yul\":30916:30965   */\n      iszero\n      tag_840\n      jumpi\n        /* \"#utility.yul\":30955:30963   */\n      dup2\n        /* \"#utility.yul\":30940:30963   */\n      swap1\n      pop\n        /* \"#utility.yul\":30916:30965   */\n    tag_840:\n        /* \"#utility.yul\":30978:31058   */\n      tag_841\n        /* \"#utility.yul\":31034:31056   */\n      tag_842\n        /* \"#utility.yul\":31052:31055   */\n      dup6\n        /* \"#utility.yul\":31034:31056   */\n      tag_542\n      jump\t// in\n    tag_842:\n        /* \"#utility.yul\":31024:31032   */\n      dup4\n        /* \"#utility.yul\":31020:31057   */\n      add\n        /* \"#utility.yul\":31007:31018   */\n      dup3\n        /* \"#utility.yul\":30978:31058   */\n      tag_550\n      jump\t// in\n    tag_841:\n        /* \"#utility.yul\":30637:31068   */\n      pop\n      pop\n        /* \"#utility.yul\":30622:31068   */\n    tag_837:\n        /* \"#utility.yul\":30532:31075   */\n      pop\n      pop\n      pop\n      jump\t// out\n        /* \"#utility.yul\":31081:31198   */\n    tag_552:\n        /* \"#utility.yul\":31135:31143   */\n      0x00\n        /* \"#utility.yul\":31185:31190   */\n      dup3\n        /* \"#utility.yul\":31179:31183   */\n      dup3\n        /* \"#utility.yul\":31175:31191   */\n      shr\n        /* \"#utility.yul\":31154:31191   */\n      swap1\n      pop\n        /* \"#utility.yul\":31081:31198   */\n      swap3\n      swap2\n      pop\n      pop\n      jump\t// out\n        /* \"#utility.yul\":31204:31373   */\n    tag_553:\n        /* \"#utility.yul\":31248:31254   */\n      0x00\n        /* \"#utility.yul\":31281:31332   */\n      tag_845\n        /* \"#utility.yul\":31329:31330   */\n      0x00\n        /* \"#utility.yul\":31325:31331   */\n      not\n        /* \"#utility.yul\":31317:31322   */\n      dup5\n        /* \"#utility.yul\":31314:31315   */\n      0x08\n        /* \"#utility.yul\":31310:31323   */\n      mul\n        /* \"#utility.yul\":31281:31332   */\n      tag_552\n      jump\t// in\n    tag_845:\n        /* \"#utility.yul\":31277:31333   */\n      not\n        /* \"#utility.yul\":31362:31366   */\n      dup1\n        /* \"#utility.yul\":31356:31360   */\n      dup4\n        /* \"#utility.yul\":31352:31367   */\n      and\n        /* \"#utility.yul\":31342:31367   */\n      swap2\n      pop\n        /* \"#utility.yul\":31255:31373   */\n      pop\n        /* \"#utility.yul\":31204:31373   */\n      swap3\n      swap2\n      pop\n      pop\n      jump\t// out\n        /* \"#utility.yul\":31378:31673   */\n    tag_554:\n        /* \"#utility.yul\":31454:31458   */\n      0x00\n        /* \"#utility.yul\":31600:31629   */\n      tag_847\n        /* \"#utility.yul\":31625:31628   */\n      dup4\n        /* \"#utility.yul\":31619:31623   */\n      dup4\n        /* \"#utility.yul\":31600:31629   */\n      tag_553\n      jump\t// in\n    tag_847:\n        /* \"#utility.yul\":31592:31629   */\n      swap2\n      pop\n        /* \"#utility.yul\":31662:31665   */\n      dup3\n        /* \"#utility.yul\":31659:31660   */\n      0x02\n        /* \"#utility.yul\":31655:31666   */\n      mul\n        /* \"#utility.yul\":31649:31653   */\n      dup3\n        /* \"#utility.yul\":31646:31667   */\n      or\n        /* \"#utility.yul\":31638:31667   */\n      swap1\n      pop\n        /* \"#utility.yul\":31378:31673   */\n      swap3\n      swap2\n      pop\n      pop\n      jump\t// out\n        /* \"#utility.yul\":31678:33073   */\n    tag_456:\n        /* \"#utility.yul\":31795:31832   */\n      tag_849\n        /* \"#utility.yul\":31828:31831   */\n      dup3\n        /* \"#utility.yul\":31795:31832   */\n      tag_474\n      jump\t// in\n    tag_849:\n        /* \"#utility.yul\":31897:31915   */\n      0xffffffffffffffff\n        /* \"#utility.yul\":31889:31895   */\n      dup2\n        /* \"#utility.yul\":31886:31916   */\n      gt\n        /* \"#utility.yul\":31883:31939   */\n      iszero\n      tag_850\n      jumpi\n        /* \"#utility.yul\":31919:31937   */\n      tag_851\n      tag_540\n      jump\t// in\n    tag_851:\n        /* \"#utility.yul\":31883:31939   */\n    tag_850:\n        /* \"#utility.yul\":31963:32001   */\n      tag_852\n        /* \"#utility.yul\":31995:31999   */\n      dup3\n        /* \"#utility.yul\":31989:32000   */\n      sload\n        /* \"#utility.yul\":31963:32001   */\n      tag_169\n      jump\t// in\n    tag_852:\n        /* \"#utility.yul\":32048:32115   */\n      tag_853\n        /* \"#utility.yul\":32108:32114   */\n      dup3\n        /* \"#utility.yul\":32100:32106   */\n      dup3\n        /* \"#utility.yul\":32094:32098   */\n      dup6\n        /* \"#utility.yul\":32048:32115   */\n      tag_551\n      jump\t// in\n    tag_853:\n        /* \"#utility.yul\":32142:32143   */\n      0x00\n        /* \"#utility.yul\":32166:32170   */\n      0x20\n        /* \"#utility.yul\":32153:32170   */\n      swap1\n      pop\n        /* \"#utility.yul\":32198:32200   */\n      0x1f\n        /* \"#utility.yul\":32190:32196   */\n      dup4\n        /* \"#utility.yul\":32187:32201   */\n      gt\n        /* \"#utility.yul\":32215:32216   */\n      0x01\n        /* \"#utility.yul\":32210:32828   */\n      dup2\n      eq\n      tag_855\n      jumpi\n        /* \"#utility.yul\":32872:32873   */\n      0x00\n        /* \"#utility.yul\":32889:32895   */\n      dup5\n        /* \"#utility.yul\":32886:32963   */\n      iszero\n      tag_856\n      jumpi\n        /* \"#utility.yul\":32938:32947   */\n      dup3\n        /* \"#utility.yul\":32933:32936   */\n      dup8\n        /* \"#utility.yul\":32929:32948   */\n      add\n        /* \"#utility.yul\":32923:32949   */\n      mload\n        /* \"#utility.yul\":32914:32949   */\n      swap1\n      pop\n        /* \"#utility.yul\":32886:32963   */\n    tag_856:\n        /* \"#utility.yul\":32989:33056   */\n      tag_857\n        /* \"#utility.yul\":33049:33055   */\n      dup6\n        /* \"#utility.yul\":33042:33047   */\n      dup3\n        /* \"#utility.yul\":32989:33056   */\n      tag_554\n      jump\t// in\n    tag_857:\n        /* \"#utility.yul\":32983:32987   */\n      dup7\n        /* \"#utility.yul\":32976:33057   */\n      sstore\n        /* \"#utility.yul\":32845:33067   */\n      pop\n        /* \"#utility.yul\":32180:33067   */\n      jump(tag_854)\n        /* \"#utility.yul\":32210:32828   */\n    tag_855:\n        /* \"#utility.yul\":32262:32266   */\n      0x1f\n        /* \"#utility.yul\":32258:32267   */\n      not\n        /* \"#utility.yul\":32250:32256   */\n      dup5\n        /* \"#utility.yul\":32246:32268   */\n      and\n        /* \"#utility.yul\":32296:32333   */\n      tag_858\n        /* \"#utility.yul\":32328:32332   */\n      dup7\n        /* \"#utility.yul\":32296:32333   */\n      tag_541\n      jump\t// in\n    tag_858:\n        /* \"#utility.yul\":32355:32356   */\n      0x00\n        /* \"#utility.yul\":32369:32577   */\n    tag_859:\n        /* \"#utility.yul\":32383:32390   */\n      dup3\n        /* \"#utility.yul\":32380:32381   */\n      dup2\n        /* \"#utility.yul\":32377:32391   */\n      lt\n        /* \"#utility.yul\":32369:32577   */\n      iszero\n      tag_861\n      jumpi\n        /* \"#utility.yul\":32462:32471   */\n      dup5\n        /* \"#utility.yul\":32457:32460   */\n      dup10\n        /* \"#utility.yul\":32453:32472   */\n      add\n        /* \"#utility.yul\":32447:32473   */\n      mload\n        /* \"#utility.yul\":32439:32445   */\n      dup3\n        /* \"#utility.yul\":32432:32474   */\n      sstore\n        /* \"#utility.yul\":32513:32514   */\n      0x01\n        /* \"#utility.yul\":32505:32511   */\n      dup3\n        /* \"#utility.yul\":32501:32515   */\n      add\n        /* \"#utility.yul\":32491:32515   */\n      swap2\n      pop\n        /* \"#utility.yul\":32560:32562   */\n      0x20\n        /* \"#utility.yul\":32549:32558   */\n      dup6\n        /* \"#utility.yul\":32545:32563   */\n      add\n        /* \"#utility.yul\":32532:32563   */\n      swap5\n      pop\n        /* \"#utility.yul\":32406:32410   */\n      0x20\n        /* \"#utility.yul\":32403:32404   */\n      dup2\n        /* \"#utility.yul\":32399:32411   */\n      add\n        /* \"#utility.yul\":32394:32411   */\n      swap1\n      pop\n        /* \"#utility.yul\":32369:32577   */\n      jump(tag_859)\n    tag_861:\n        /* \"#utility.yul\":32605:32611   */\n      dup7\n        /* \"#utility.yul\":32596:32603   */\n      dup4\n        /* \"#utility.yul\":32593:32612   */\n      lt\n        /* \"#utility.yul\":32590:32769   */\n      iszero\n      tag_862\n      jumpi\n        /* \"#utility.yul\":32663:32672   */\n      dup5\n        /* \"#utility.yul\":32658:32661   */\n      dup10\n        /* \"#utility.yul\":32654:32673   */\n      add\n        /* \"#utility.yul\":32648:32674   */\n      mload\n        /* \"#utility.yul\":32706:32754   */\n      tag_863\n        /* \"#utility.yul\":32748:32752   */\n      0x1f\n        /* \"#utility.yul\":32740:32746   */\n      dup10\n        /* \"#utility.yul\":32736:32753   */\n      and\n        /* \"#utility.yul\":32725:32734   */\n      dup3\n        /* \"#utility.yul\":32706:32754   */\n      tag_553\n      jump\t// in\n    tag_863:\n        /* \"#utility.yul\":32698:32704   */\n      dup4\n        /* \"#utility.yul\":32691:32755   */\n      sstore\n        /* \"#utility.yul\":32613:32769   */\n      pop\n        /* \"#utility.yul\":32590:32769   */\n    tag_862:\n        /* \"#utility.yul\":32815:32816   */\n      0x01\n        /* \"#utility.yul\":32811:32812   */\n      0x02\n        /* \"#utility.yul\":32803:32809   */\n      dup9\n        /* \"#utility.yul\":32799:32813   */\n      mul\n        /* \"#utility.yul\":32795:32817   */\n      add\n        /* \"#utility.yul\":32789:32793   */\n      dup9\n        /* \"#utility.yul\":32782:32818   */\n      sstore\n        /* \"#utility.yul\":32217:32828   */\n      pop\n      pop\n      pop\n        /* \"#utility.yul\":32180:33067   */\n    tag_854:\n      pop\n        /* \"#utility.yul\":31770:33073   */\n      pop\n      pop\n      pop\n        /* \"#utility.yul\":31678:33073   */\n      pop\n      pop\n      jump\t// out\n        /* \"#utility.yul\":33079:33259   */\n    tag_555:\n        /* \"#utility.yul\":33127:33204   */\n      0x4e487b7100000000000000000000000000000000000000000000000000000000\n        /* \"#utility.yul\":33124:33125   */\n      0x00\n        /* \"#utility.yul\":33117:33205   */\n      mstore\n        /* \"#utility.yul\":33224:33228   */\n      0x12\n        /* \"#utility.yul\":33221:33222   */\n      0x04\n        /* \"#utility.yul\":33214:33229   */\n      mstore\n        /* \"#utility.yul\":33248:33252   */\n      0x24\n        /* \"#utility.yul\":33245:33246   */\n      0x00\n        /* \"#utility.yul\":33238:33253   */\n      revert\n        /* \"#utility.yul\":33265:33450   */\n    tag_471:\n        /* \"#utility.yul\":33305:33306   */\n      0x00\n        /* \"#utility.yul\":33322:33342   */\n      tag_866\n        /* \"#utility.yul\":33340:33341   */\n      dup3\n        /* \"#utility.yul\":33322:33342   */\n      tag_486\n      jump\t// in\n    tag_866:\n        /* \"#utility.yul\":33317:33342   */\n      swap2\n      pop\n        /* \"#utility.yul\":33356:33376   */\n      tag_867\n        /* \"#utility.yul\":33374:33375   */\n      dup4\n        /* \"#utility.yul\":33356:33376   */\n      tag_486\n      jump\t// in\n    tag_867:\n        /* \"#utility.yul\":33351:33376   */\n      swap3\n      pop\n        /* \"#utility.yul\":33395:33396   */\n      dup3\n        /* \"#utility.yul\":33385:33420   */\n      tag_868\n      jumpi\n        /* \"#utility.yul\":33400:33418   */\n      tag_869\n      tag_555\n      jump\t// in\n    tag_869:\n        /* \"#utility.yul\":33385:33420   */\n    tag_868:\n        /* \"#utility.yul\":33442:33443   */\n      dup3\n        /* \"#utility.yul\":33439:33440   */\n      dup3\n        /* \"#utility.yul\":33435:33444   */\n      div\n        /* \"#utility.yul\":33430:33444   */\n      swap1\n      pop\n        /* \"#utility.yul\":33265:33450   */\n      swap3\n      swap2\n      pop\n      pop\n      jump\t// out\n\n    auxdata: 0xa2646970667358221220a80e2191841344856faefab25e64a0e91ed1218c25f5d7b50a76234abf059cc164736f6c63430008140033\n}\n",
				"bytecode": {
					"linkReferences": {},
					"object": "608060405234801562000010575f80fd5b50620000216200002760201b60201c565b62000191565b5f620000386200012b60201b60201c565b9050805f0160089054906101000a900460ff161562000083576040517ff92ee8a900000000000000000000000000000000000000000000000000000000815260040160405180910390fd5b67ffffffffffffffff8016815f015f9054906101000a900467ffffffffffffffff1667ffffffffffffffff1614620001285767ffffffffffffffff815f015f6101000a81548167ffffffffffffffff021916908367ffffffffffffffff1602179055507fc7f505b2f371ae2175ee4913f4499e1f2633a7b5936321eed1cdaeb6115181d267ffffffffffffffff6040516200011f919062000176565b60405180910390a15b50565b5f7ff0c57e16840df040f15088dc2f81fe391c3923bec73e23a9662efc9c229c6a00905090565b5f67ffffffffffffffff82169050919050565b620001708162000152565b82525050565b5f6020820190506200018b5f83018462000165565b92915050565b613a87806200019f5f395ff3fe608060405234801561000f575f80fd5b506004361061020f575f3560e01c806375f0a87411610123578063be20b15d116100ab578063dd62ed3e1161007a578063dd62ed3e1461059f578063e7d88de5146105cf578063f2fde38b146105ed578063fe575a8714610609578063fedcb861146106395761020f565b8063be20b15d14610529578063c04a541414610545578063c816841b14610563578063c8c8ebe4146105815761020f565b806385fbae56116100f257806385fbae561461048557806388696f2f146104a15780638da5cb5b146104bd57806395d89b41146104db578063a9059cbb146104f95761020f565b806375f0a8741461042357806379cc6790146104415780638129fc1c1461045d5780638206cf5a146104675761020f565b806342966c68116101a65780635d098b38116101755780635d098b38146103955780636ddfa4b4146103b157806370a08231146103cd578063715018a6146103fd57806372ac2486146104075761020f565b806342966c681461032557806344337ea1146103415780634fe47f701461035d578063537df3b6146103795761020f565b806318160ddd116101e257806318160ddd1461029d57806323b872dd146102bb578063313ce567146102eb57806340c10f19146103095761020f565b806306fdde0314610213578063095ea7b31461023157806311e91b84146102615780631694505e1461027f575b5f80fd5b61021b610657565b6040516102289190612904565b60405180910390f35b61024b600480360381019061024691906129b5565b6106f5565b6040516102589190612a0d565b60405180910390f35b610269610717565b6040516102769190612a35565b60405180910390f35b61028761071d565b6040516102949190612aa9565b60405180910390f35b6102a5610742565b6040516102b29190612a35565b60405180910390f35b6102d560048036038101906102d09190612ac2565b610759565b6040516102e29190612a0d565b60405180910390f35b6102f3610787565b6040516103009190612b2d565b60405180910390f35b610323600480360381019061031e91906129b5565b61078f565b005b61033f600480360381019061033a9190612b46565b6107a5565b005b61035b60048036038101906103569190612b71565b6107b9565b005b61037760048036038101906103729190612b46565b610918565b005b610393600480360381019061038e9190612b71565b6109a5565b005b6103af60048036038101906103aa9190612b71565b610b02565b005b6103cb60048036038101906103c69190612b46565b610c10565b005b6103e760048036038101906103e29190612b71565b610ca0565b6040516103f49190612a35565b60405180910390f35b610405610cf3565b005b610421600480360381019061041c9190612b71565b610d06565b005b61042b610e17565b6040516104389190612bab565b60405180910390f35b61045b600480360381019061045691906129b5565b610e3a565b005b610465610e5a565b005b61046f6114b4565b60405161047c9190612a35565b60405180910390f35b61049f600480360381019061049a9190612b46565b6114ba565b005b6104bb60048036038101906104b69190612b46565b61154a565b005b6104c56115da565b6040516104d29190612bab565b60405180910390f35b6104e361160f565b6040516104f09190612904565b60405180910390f35b610513600480360381019061050e91906129b5565b6116ad565b6040516105209190612a0d565b60405180910390f35b610543600480360381019061053e9190612b71565b6116cf565b005b61054d6117e0565b60405161055a9190612bab565b60405180910390f35b61056b611805565b6040516105789190612bab565b60405180910390f35b61058961182a565b6040516105969190612a35565b60405180910390f35b6105b960048036038101906105b49190612bc4565b611830565b6040516105c69190612a35565b60405180910390f35b6105d76118c0565b6040516105e49190612a35565b60405180910390f35b61060760048036038101906106029190612b71565b6118c6565b005b610623600480360381019061061e9190612b71565b61194a565b6040516106309190612a0d565b60405180910390f35b61064161199c565b60405161064e9190612bab565b60405180910390f35b60605f6106626119c1565b905080600301805461067390612c2f565b80601f016020809104026020016040519081016040528092919081815260200182805461069f90612c2f565b80156106ea5780601f106106c1576101008083540402835291602001916106ea565b820191905f5260205f20905b8154815290600101906020018083116106cd57829003601f168201915b505050505091505090565b5f806106ff6119e8565b905061070c8185856119ef565b600191505092915050565b60045481565b600a5f9054906101000a900473ffffffffffffffffffffffffffffffffffffffff1681565b5f8061074c6119c1565b9050806002015491505090565b5f806107636119e8565b9050610770858285611a01565b61077b858585611a93565b60019150509392505050565b5f6012905090565b610797611b83565b6107a18282611c0a565b5050565b6107b66107b06119e8565b82611c89565b50565b6107c1611b83565b60085f8273ffffffffffffffffffffffffffffffffffffffff1673ffffffffffffffffffffffffffffffffffffffff1681526020019081526020015f205f9054906101000a900460ff161561084b576040517f08c379a000000000000000000000000000000000000000000000000000000000815260040161084290612ca9565b60405180910390fd5b8073ffffffffffffffffffffffffffffffffffffffff1661086a6119e8565b73ffffffffffffffffffffffffffffffffffffffff16036108c0576040517f08c379a00000000000000000000000000000000000000000000000000000000081526004016108b790612d11565b60405180910390fd5b600160085f8373ffffffffffffffffffffffffffffffffffffffff1673ffffffffffffffffffffffffffffffffffffffff1681526020019081526020015f205f6101000a81548160ff02191690831515021790555050565b610920611b83565b5f8111610962576040517f08c379a000000000000000000000000000000000000000000000000000000000815260040161095990612d79565b60405180910390fd5b806006819055507f44d540c6079791f805bc9b5d5a643dbf1f545ec260212b2b2478ef9d9ed0768e60065460405161099a9190612a35565b60405180910390a150565b6109ad611b83565b60085f8273ffffffffffffffffffffffffffffffffffffffff1673ffffffffffffffffffffffffffffffffffffffff1681526020019081526020015f205f9054906101000a900460ff16610a36576040517f08c379a0000000000000000000000000000000000000000000000000000000008152600401610a2d90612de1565b60405180910390fd5b8073ffffffffffffffffffffffffffffffffffffffff16610a556119e8565b73ffffffffffffffffffffffffffffffffffffffff1603610aab576040517f08c379a0000000000000000000000000000000000000000000000000000000008152600401610aa290612e6f565b60405180910390fd5b5f60085f8373ffffffffffffffffffffffffffffffffffffffff1673ffffffffffffffffffffffffffffffffffffffff1681526020019081526020015f205f6101000a81548160ff02191690831515021790555050565b610b0a611b83565b5f73ffffffffffffffffffffffffffffffffffffffff168173ffffffffffffffffffffffffffffffffffffffff1603610b78576040517f08c379a0000000000000000000000000000000000000000000000000000000008152600401610b6f90612efd565b60405180910390fd5b805f806101000a81548173ffffffffffffffffffffffffffffffffffffffff021916908373ffffffffffffffffffffffffffffffffffffffff1602179055507f2026f0b479f097ea9d4c74dac26e5271ba4d59931603970da5458ea8aa3dcf375f8054906101000a900473ffffffffffffffffffffffffffffffffffffffff16604051610c059190612bab565b60405180910390a150565b610c18611b83565b612710811115610c5d576040517f08c379a0000000000000000000000000000000000000000000000000000000008152600401610c5490612f8b565b60405180910390fd5b806005819055507f28ad5f14a54b644d089d89d6140175fbbf7199a6fa1275e827904c157f491546600554604051610c959190612a35565b60405180910390a150565b5f80610caa6119c1565b9050805f015f8473ffffffffffffffffffffffffffffffffffffffff1673ffffffffffffffffffffffffffffffffffffffff1681526020019081526020015f2054915050919050565b610cfb611b83565b610d045f611d08565b565b610d0e611b83565b5f73ffffffffffffffffffffffffffffffffffffffff168173ffffffffffffffffffffffffffffffffffffffff1603610d7c576040517f08c379a0000000000000000000000000000000000000000000000000000000008152600401610d7390613019565b60405180910390fd5b8060015f6101000a81548173ffffffffffffffffffffffffffffffffffffffff021916908373ffffffffffffffffffffffffffffffffffffffff1602179055507f7404946ba3969d72cc11e8a0c21a8ab3b8dddeb41e78f235dfad9ffcda3f617c60015f9054906101000a900473ffffffffffffffffffffffffffffffffffffffff16604051610e0c9190612bab565b60405180910390a150565b5f8054906101000a900473ffffffffffffffffffffffffffffffffffffffff1681565b610e4c82610e466119e8565b83611a01565b610e568282611c89565b5050565b5f610e63611dd9565b90505f815f0160089054906101000a900460ff161590505f825f015f9054906101000a900467ffffffffffffffff1690505f808267ffffffffffffffff16148015610eab5750825b90505f60018367ffffffffffffffff16148015610ede57505f3073ffffffffffffffffffffffffffffffffffffffff163b145b905081158015610eec575080155b15610f23576040517ff92ee8a900000000000000000000000000000000000000000000000000000000815260040160405180910390fd5b6001855f015f6101000a81548167ffffffffffffffff021916908367ffffffffffffffff1602179055508315610f70576001855f0160086101000a81548160ff0219169083151502179055505b610f7933611e00565b610f81611e14565b610ff56040518060400160405280600981526020017f54726162616a6f323400000000000000000000000000000000000000000000008152506040518060400160405280600381526020017f5432340000000000000000000000000000000000000000000000000000000000815250611e1e565b7307e43d33ce3ebe06a0bfaffc04aca37c4acbd3a55f806101000a81548173ffffffffffffffffffffffffffffffffffffffff021916908373ffffffffffffffffffffffffffffffffffffffff160217905550735ed81f9bc2402a2bbd78e381c9aa1edd99b90a5560015f6101000a81548173ffffffffffffffffffffffffffffffffffffffff021916908373ffffffffffffffffffffffffffffffffffffffff16021790555073d436c10d791c7a9558950a251a049871811bb07060025f6101000a81548173ffffffffffffffffffffffffffffffffffffffff021916908373ffffffffffffffffffffffffffffffffffffffff1602179055506110f8610787565b600a6111049190613193565b6305f5e10061111391906131dd565b600781905550600a60038190555060146004819055506096600581905550611139610787565b60ff16600a611148919061321e565b6301312d0061115791906131dd565b60068190555061116933600754611c0a565b5f73d99d1c33f9fc3444f8101754abc46c52416550d1905080600a5f6101000a81548173ffffffffffffffffffffffffffffffffffffffff021916908373ffffffffffffffffffffffffffffffffffffffff1602179055508073ffffffffffffffffffffffffffffffffffffffff1663c45a01556040518163ffffffff1660e01b8152600401602060405180830381865afa15801561120a573d5f803e3d5ffd5b505050506040513d601f19601f8201168201806040525081019061122e919061327c565b73ffffffffffffffffffffffffffffffffffffffff1663c9c65396308373ffffffffffffffffffffffffffffffffffffffff1663ad5c46486040518163ffffffff1660e01b8152600401602060405180830381865afa158015611293573d5f803e3d5ffd5b505050506040513d601f19601f820116820180604052508101906112b7919061327c565b6040518363ffffffff1660e01b81526004016112d49291906132a7565b6020604051808303815f875af11580156112f0573d5f803e3d5ffd5b505050506040513d601f19601f82011682018060405250810190611314919061327c565b600b5f6101000a81548173ffffffffffffffffffffffffffffffffffffffff021916908373ffffffffffffffffffffffffffffffffffffffff16021790555061139f33600a5f9054906101000a900473ffffffffffffffffffffffffffffffffffffffff167fffffffffffffffffffffffffffffffffffffffffffffffffffffffffffffffff6119ef565b6113eb30600a5f9054906101000a900473ffffffffffffffffffffffffffffffffffffffff167fffffffffffffffffffffffffffffffffffffffffffffffffffffffffffffffff6119ef565b3373ffffffffffffffffffffffffffffffffffffffff165f73ffffffffffffffffffffffffffffffffffffffff167fddf252ad1be2c89b69c2b068fc378daa952ba7f163c4a11628f55a4df523b3ef60075460405161144a9190612a35565b60405180910390a35083156114ad575f855f0160086101000a81548160ff0219169083151502179055507fc7f505b2f371ae2175ee4913f4499e1f2633a7b5936321eed1cdaeb6115181d260016040516114a4919061331a565b60405180910390a15b5050505050565b60035481565b6114c2611b83565b612710811115611507576040517f08c379a00000000000000000000000000000000000000000000000000000000081526004016114fe90612f8b565b60405180910390fd5b806004819055507fd3f51aabcf3bcbd05f9260c8ccec9728da097c538dd797a90f527e255ae3083860045460405161153f9190612a35565b60405180910390a150565b611552611b83565b612710811115611597576040517f08c379a000000000000000000000000000000000000000000000000000000000815260040161158e90612f8b565b60405180910390fd5b806003819055507f153e5299255e24f1fd2ceee40599bfdc41290fd92340ff6173fc24efd6c299a66003546040516115cf9190612a35565b60405180910390a150565b5f806115e4611e34565b9050805f015f9054906101000a900473ffffffffffffffffffffffffffffffffffffffff1691505090565b60605f61161a6119c1565b905080600401805461162b90612c2f565b80601f016020809104026020016040519081016040528092919081815260200182805461165790612c2f565b80156116a25780601f10611679576101008083540402835291602001916116a2565b820191905f5260205f20905b81548152906001019060200180831161168557829003601f168201915b505050505091505090565b5f806116b76119e8565b90506116c4818585611a93565b600191505092915050565b6116d7611b83565b5f73ffffffffffffffffffffffffffffffffffffffff168173ffffffffffffffffffffffffffffffffffffffff1603611745576040517f08c379a000000000000000000000000000000000000000000000000000000000815260040161173c906133a3565b60405180910390fd5b8060025f6101000a81548173ffffffffffffffffffffffffffffffffffffffff021916908373ffffffffffffffffffffffffffffffffffffffff1602179055507f5d4a0c152f269a59530b6c3a84f5a90ac341c463c9e6d5d0d04cf75596776e4f60025f9054906101000a900473ffffffffffffffffffffffffffffffffffffffff166040516117d59190612bab565b60405180910390a150565b60015f9054906101000a900473ffffffffffffffffffffffffffffffffffffffff1681565b600b5f9054906101000a900473ffffffffffffffffffffffffffffffffffffffff1681565b60065481565b5f8061183a6119c1565b9050806001015f8573ffffffffffffffffffffffffffffffffffffffff1673ffffffffffffffffffffffffffffffffffffffff1681526020019081526020015f205f8473ffffffffffffffffffffffffffffffffffffffff1673ffffffffffffffffffffffffffffffffffffffff1681526020019081526020015f205491505092915050565b60055481565b6118ce611b83565b5f73ffffffffffffffffffffffffffffffffffffffff168173ffffffffffffffffffffffffffffffffffffffff160361193e575f6040517f1e4fbdf70000000000000000000000000000000000000000000000000000000081526004016119359190612bab565b60405180910390fd5b61194781611d08565b50565b5f60085f8373ffffffffffffffffffffffffffffffffffffffff1673ffffffffffffffffffffffffffffffffffffffff1681526020019081526020015f205f9054906101000a900460ff169050919050565b60025f9054906101000a900473ffffffffffffffffffffffffffffffffffffffff1681565b5f7f52c63247e1f47db19d5ce0460030c497f067ca4cebf71ba98eeadabe20bace00905090565b5f33905090565b6119fc8383836001611e5b565b505050565b5f611a0c8484611830565b90507fffffffffffffffffffffffffffffffffffffffffffffffffffffffffffffffff8114611a8d5781811015611a7e578281836040517ffb8f41b2000000000000000000000000000000000000000000000000000000008152600401611a75939291906133c1565b60405180910390fd5b611a8c84848484035f611e5b565b5b50505050565b5f73ffffffffffffffffffffffffffffffffffffffff168373ffffffffffffffffffffffffffffffffffffffff1603611b03575f6040517f96c6fd1e000000000000000000000000000000000000000000000000000000008152600401611afa9190612bab565b60405180910390fd5b5f73ffffffffffffffffffffffffffffffffffffffff168273ffffffffffffffffffffffffffffffffffffffff1603611b73575f6040517fec442f05000000000000000000000000000000000000000000000000000000008152600401611b6a9190612bab565b60405180910390fd5b611b7e838383612038565b505050565b611b8b6119e8565b73ffffffffffffffffffffffffffffffffffffffff16611ba96115da565b73ffffffffffffffffffffffffffffffffffffffff1614611c0857611bcc6119e8565b6040517f118cdaa7000000000000000000000000000000000000000000000000000000008152600401611bff9190612bab565b60405180910390fd5b565b5f73ffffffffffffffffffffffffffffffffffffffff168273ffffffffffffffffffffffffffffffffffffffff1603611c7a575f6040517fec442f05000000000000000000000000000000000000000000000000000000008152600401611c719190612bab565b60405180910390fd5b611c855f8383612038565b5050565b5f73ffffffffffffffffffffffffffffffffffffffff168273ffffffffffffffffffffffffffffffffffffffff1603611cf9575f6040517f96c6fd1e000000000000000000000000000000000000000000000000000000008152600401611cf09190612bab565b60405180910390fd5b611d04825f83612038565b5050565b5f611d11611e34565b90505f815f015f9054906101000a900473ffffffffffffffffffffffffffffffffffffffff16905082825f015f6101000a81548173ffffffffffffffffffffffffffffffffffffffff021916908373ffffffffffffffffffffffffffffffffffffffff1602179055508273ffffffffffffffffffffffffffffffffffffffff168173ffffffffffffffffffffffffffffffffffffffff167f8be0079c531659141344cd1fd0a4f28419497f9722a3daafe3b4186f6b6457e060405160405180910390a3505050565b5f7ff0c57e16840df040f15088dc2f81fe391c3923bec73e23a9662efc9c229c6a00905090565b611e0861250b565b611e118161254b565b50565b611e1c61250b565b565b611e2661250b565b611e3082826125cf565b5050565b5f7f9016d09d72d40fdae2fd8ceac6b6234c7706214fd39c1cd1e609a0528c199300905090565b5f611e646119c1565b90505f73ffffffffffffffffffffffffffffffffffffffff168573ffffffffffffffffffffffffffffffffffffffff1603611ed6575f6040517fe602df05000000000000000000000000000000000000000000000000000000008152600401611ecd9190612bab565b60405180910390fd5b5f73ffffffffffffffffffffffffffffffffffffffff168473ffffffffffffffffffffffffffffffffffffffff1603611f46575f6040517f94280d62000000000000000000000000000000000000000000000000000000008152600401611f3d9190612bab565b60405180910390fd5b82816001015f8773ffffffffffffffffffffffffffffffffffffffff1673ffffffffffffffffffffffffffffffffffffffff1681526020019081526020015f205f8673ffffffffffffffffffffffffffffffffffffffff1673ffffffffffffffffffffffffffffffffffffffff1681526020019081526020015f20819055508115612031578373ffffffffffffffffffffffffffffffffffffffff168573ffffffffffffffffffffffffffffffffffffffff167f8c5be1e5ebec7d5bd14f71427d1e84f3dd0314c0f7b2291e5b200ac8c7c3b925856040516120289190612a35565b60405180910390a35b5050505050565b5f73ffffffffffffffffffffffffffffffffffffffff168373ffffffffffffffffffffffffffffffffffffffff16036120a6576040517f08c379a000000000000000000000000000000000000000000000000000000000815260040161209d90613466565b60405180910390fd5b5f73ffffffffffffffffffffffffffffffffffffffff168273ffffffffffffffffffffffffffffffffffffffff1603612114576040517f08c379a000000000000000000000000000000000000000000000000000000000815260040161210b906134f4565b60405180910390fd5b5f8111612156576040517f08c379a000000000000000000000000000000000000000000000000000000000815260040161214d90613582565b60405180910390fd5b60085f8473ffffffffffffffffffffffffffffffffffffffff1673ffffffffffffffffffffffffffffffffffffffff1681526020019081526020015f205f9054906101000a900460ff16156121e0576040517f08c379a00000000000000000000000000000000000000000000000000000000081526004016121d7906135ea565b60405180910390fd5b60085f8373ffffffffffffffffffffffffffffffffffffffff1673ffffffffffffffffffffffffffffffffffffffff1681526020019081526020015f205f9054906101000a900460ff161561226a576040517f08c379a000000000000000000000000000000000000000000000000000000000815260040161226190613652565b60405180910390fd5b6122726115da565b73ffffffffffffffffffffffffffffffffffffffff168373ffffffffffffffffffffffffffffffffffffffff1614806122dd57506122ae6115da565b73ffffffffffffffffffffffffffffffffffffffff168273ffffffffffffffffffffffffffffffffffffffff16145b8061231357503073ffffffffffffffffffffffffffffffffffffffff168373ffffffffffffffffffffffffffffffffffffffff16145b156123285761232383838361260b565b612506565b5f600b5f9054906101000a900473ffffffffffffffffffffffffffffffffffffffff1673ffffffffffffffffffffffffffffffffffffffff168473ffffffffffffffffffffffffffffffffffffffff161490505f600b5f9054906101000a900473ffffffffffffffffffffffffffffffffffffffff1673ffffffffffffffffffffffffffffffffffffffff168473ffffffffffffffffffffffffffffffffffffffff161490505f805f84806123da5750835b156124d157600654861115612424576040517f08c379a000000000000000000000000000000000000000000000000000000000815260040161241b906136e0565b60405180910390fd5b6124308660035461283a565b925061243e8660045461283a565b915061244c8660055461283a565b9050612478885f8054906101000a900473ffffffffffffffffffffffffffffffffffffffff168561260b565b6124a48860015f9054906101000a900473ffffffffffffffffffffffffffffffffffffffff168461260b565b6124d08860025f9054906101000a900473ffffffffffffffffffffffffffffffffffffffff168361260b565b5b8082846124de91906136fe565b6124e891906136fe565b866124f39190613731565b955061250088888861260b565b50505050505b505050565b61251361285c565b612549576040517fd7e6bcf800000000000000000000000000000000000000000000000000000000815260040160405180910390fd5b565b61255361250b565b5f73ffffffffffffffffffffffffffffffffffffffff168173ffffffffffffffffffffffffffffffffffffffff16036125c3575f6040517f1e4fbdf70000000000000000000000000000000000000000000000000000000081526004016125ba9190612bab565b60405180910390fd5b6125cc81611d08565b50565b6125d761250b565b5f6125e06119c1565b9050828160030190816125f39190613925565b50818160040190816126059190613925565b50505050565b5f6126146119c1565b90505f73ffffffffffffffffffffffffffffffffffffffff168473ffffffffffffffffffffffffffffffffffffffff16036126685781816002015f82825461265c91906136fe565b9250508190555061273a565b5f815f015f8673ffffffffffffffffffffffffffffffffffffffff1673ffffffffffffffffffffffffffffffffffffffff1681526020019081526020015f20549050828110156126f3578481846040517fe450d38c0000000000000000000000000000000000000000000000000000000081526004016126ea939291906133c1565b60405180910390fd5b828103825f015f8773ffffffffffffffffffffffffffffffffffffffff1673ffffffffffffffffffffffffffffffffffffffff1681526020019081526020015f2081905550505b5f73ffffffffffffffffffffffffffffffffffffffff168373ffffffffffffffffffffffffffffffffffffffff16036127835781816002015f82825403925050819055506127cf565b81815f015f8573ffffffffffffffffffffffffffffffffffffffff1673ffffffffffffffffffffffffffffffffffffffff1681526020019081526020015f205f82825401925050819055505b8273ffffffffffffffffffffffffffffffffffffffff168473ffffffffffffffffffffffffffffffffffffffff167fddf252ad1be2c89b69c2b068fc378daa952ba7f163c4a11628f55a4df523b3ef8460405161282c9190612a35565b60405180910390a350505050565b5f612710828461284a91906131dd565b6128549190613a21565b905092915050565b5f612865611dd9565b5f0160089054906101000a900460ff16905090565b5f81519050919050565b5f82825260208201905092915050565b5f5b838110156128b1578082015181840152602081019050612896565b5f8484015250505050565b5f601f19601f8301169050919050565b5f6128d68261287a565b6128e08185612884565b93506128f0818560208601612894565b6128f9816128bc565b840191505092915050565b5f6020820190508181035f83015261291c81846128cc565b905092915050565b5f80fd5b5f73ffffffffffffffffffffffffffffffffffffffff82169050919050565b5f61295182612928565b9050919050565b61296181612947565b811461296b575f80fd5b50565b5f8135905061297c81612958565b92915050565b5f819050919050565b61299481612982565b811461299e575f80fd5b50565b5f813590506129af8161298b565b92915050565b5f80604083850312156129cb576129ca612924565b5b5f6129d88582860161296e565b92505060206129e9858286016129a1565b9150509250929050565b5f8115159050919050565b612a07816129f3565b82525050565b5f602082019050612a205f8301846129fe565b92915050565b612a2f81612982565b82525050565b5f602082019050612a485f830184612a26565b92915050565b5f819050919050565b5f612a71612a6c612a6784612928565b612a4e565b612928565b9050919050565b5f612a8282612a57565b9050919050565b5f612a9382612a78565b9050919050565b612aa381612a89565b82525050565b5f602082019050612abc5f830184612a9a565b92915050565b5f805f60608486031215612ad957612ad8612924565b5b5f612ae68682870161296e565b9350506020612af78682870161296e565b9250506040612b08868287016129a1565b9150509250925092565b5f60ff82169050919050565b612b2781612b12565b82525050565b5f602082019050612b405f830184612b1e565b92915050565b5f60208284031215612b5b57612b5a612924565b5b5f612b68848285016129a1565b91505092915050565b5f60208284031215612b8657612b85612924565b5b5f612b938482850161296e565b91505092915050565b612ba581612947565b82525050565b5f602082019050612bbe5f830184612b9c565b92915050565b5f8060408385031215612bda57612bd9612924565b5b5f612be78582860161296e565b9250506020612bf88582860161296e565b9150509250929050565b7f4e487b71000000000000000000000000000000000000000000000000000000005f52602260045260245ffd5b5f6002820490506001821680612c4657607f821691505b602082108103612c5957612c58612c02565b5b50919050565b7f4163636f756e7420697320616c726561647920626c61636b6c697374656400005f82015250565b5f612c93601e83612884565b9150612c9e82612c5f565b602082019050919050565b5f6020820190508181035f830152612cc081612c87565b9050919050565b7f43616e6e6f7420626c61636b6c6973742073656c6600000000000000000000005f82015250565b5f612cfb601583612884565b9150612d0682612cc7565b602082019050919050565b5f6020820190508181035f830152612d2881612cef565b9050919050565b7f616d6f756e742073686f756c6420626520677265617465207468616e203000005f82015250565b5f612d63601e83612884565b9150612d6e82612d2f565b602082019050919050565b5f6020820190508181035f830152612d9081612d57565b9050919050565b7f4163636f756e74206973206e6f7420626c61636b6c69737465640000000000005f82015250565b5f612dcb601a83612884565b9150612dd682612d97565b602082019050919050565b5f6020820190508181035f830152612df881612dbf565b9050919050565b7f43616e6e6f742072656d6f76652073656c662066726f6d20626c61636b6c69735f8201527f7400000000000000000000000000000000000000000000000000000000000000602082015250565b5f612e59602183612884565b9150612e6482612dff565b604082019050919050565b5f6020820190508181035f830152612e8681612e4d565b9050919050565b7f4d61726b6574696e672077616c6c65742063616e6e6f74206265207a65726f205f8201527f6164647265737300000000000000000000000000000000000000000000000000602082015250565b5f612ee7602783612884565b9150612ef282612e8d565b604082019050919050565b5f6020820190508181035f830152612f1481612edb565b9050919050565b7f5461782070657263656e746167652063616e6e6f7420657863656564203130305f8201527f2500000000000000000000000000000000000000000000000000000000000000602082015250565b5f612f75602183612884565b9150612f8082612f1b565b604082019050919050565b5f6020820190508181035f830152612fa281612f69565b9050919050565b7f4465762077616c6c65742063616e6e6f74206265207a65726f206164647265735f8201527f7300000000000000000000000000000000000000000000000000000000000000602082015250565b5f613003602183612884565b915061300e82612fa9565b604082019050919050565b5f6020820190508181035f83015261303081612ff7565b9050919050565b7f4e487b71000000000000000000000000000000000000000000000000000000005f52601160045260245ffd5b5f8160011c9050919050565b5f808291508390505b60018511156130b95780860481111561309557613094613037565b5b60018516156130a45780820291505b80810290506130b285613064565b9450613079565b94509492505050565b5f826130d1576001905061318c565b816130de575f905061318c565b81600181146130f457600281146130fe5761312d565b600191505061318c565b60ff8411156131105761310f613037565b5b8360020a91508482111561312757613126613037565b5b5061318c565b5060208310610133831016604e8410600b84101617156131625782820a90508381111561315d5761315c613037565b5b61318c565b61316f8484846001613070565b9250905081840481111561318657613185613037565b5b81810290505b9392505050565b5f61319d82612982565b91506131a883612b12565b92506131d57fffffffffffffffffffffffffffffffffffffffffffffffffffffffffffffffff84846130c2565b905092915050565b5f6131e782612982565b91506131f283612982565b925082820261320081612982565b9150828204841483151761321757613216613037565b5b5092915050565b5f61322882612982565b915061323383612982565b92506132607fffffffffffffffffffffffffffffffffffffffffffffffffffffffffffffffff84846130c2565b905092915050565b5f8151905061327681612958565b92915050565b5f6020828403121561329157613290612924565b5b5f61329e84828501613268565b91505092915050565b5f6040820190506132ba5f830185612b9c565b6132c76020830184612b9c565b9392505050565b5f819050919050565b5f67ffffffffffffffff82169050919050565b5f6133046132ff6132fa846132ce565b612a4e565b6132d7565b9050919050565b613314816132ea565b82525050565b5f60208201905061332d5f83018461330b565b92915050565b7f737461696e6162696c6974792077616c6c65742063616e6e6f74206265207a655f8201527f726f206164647265737300000000000000000000000000000000000000000000602082015250565b5f61338d602a83612884565b915061339882613333565b604082019050919050565b5f6020820190508181035f8301526133ba81613381565b9050919050565b5f6060820190506133d45f830186612b9c565b6133e16020830185612a26565b6133ee6040830184612a26565b949350505050565b7f45524332303a207472616e736665722066726f6d20746865207a65726f2061645f8201527f6472657373000000000000000000000000000000000000000000000000000000602082015250565b5f613450602583612884565b915061345b826133f6565b604082019050919050565b5f6020820190508181035f83015261347d81613444565b9050919050565b7f45524332303a207472616e7366657220746f20746865207a65726f20616464725f8201527f6573730000000000000000000000000000000000000000000000000000000000602082015250565b5f6134de602383612884565b91506134e982613484565b604082019050919050565b5f6020820190508181035f83015261350b816134d2565b9050919050565b7f5472616e7366657220616d6f756e74206d7573742062652067726561746572205f8201527f7468616e207a65726f0000000000000000000000000000000000000000000000602082015250565b5f61356c602983612884565b915061357782613512565b604082019050919050565b5f6020820190508181035f83015261359981613560565b9050919050565b7f53656e64657220697320626c61636b6c697374656400000000000000000000005f82015250565b5f6135d4601583612884565b91506135df826135a0565b602082019050919050565b5f6020820190508181035f830152613601816135c8565b9050919050565b7f526563697069656e7420697320626c61636b6c697374656400000000000000005f82015250565b5f61363c601883612884565b915061364782613608565b602082019050919050565b5f6020820190508181035f83015261366981613630565b9050919050565b7f43616e6e6f742062757920262073656c6c206d6f7265207468616e206d6178205f8201527f6c696d6974000000000000000000000000000000000000000000000000000000602082015250565b5f6136ca602583612884565b91506136d582613670565b604082019050919050565b5f6020820190508181035f8301526136f7816136be565b9050919050565b5f61370882612982565b915061371383612982565b925082820190508082111561372b5761372a613037565b5b92915050565b5f61373b82612982565b915061374683612982565b925082820390508181111561375e5761375d613037565b5b92915050565b7f4e487b71000000000000000000000000000000000000000000000000000000005f52604160045260245ffd5b5f819050815f5260205f209050919050565b5f6020601f8301049050919050565b5f82821b905092915050565b5f600883026137ed7fffffffffffffffffffffffffffffffffffffffffffffffffffffffffffffffff826137b2565b6137f786836137b2565b95508019841693508086168417925050509392505050565b5f61382961382461381f84612982565b612a4e565b612982565b9050919050565b5f819050919050565b6138428361380f565b61385661384e82613830565b8484546137be565b825550505050565b5f90565b61386a61385e565b613875818484613839565b505050565b5b818110156138985761388d5f82613862565b60018101905061387b565b5050565b601f8211156138dd576138ae81613791565b6138b7846137a3565b810160208510156138c6578190505b6138da6138d2856137a3565b83018261387a565b50505b505050565b5f82821c905092915050565b5f6138fd5f19846008026138e2565b1980831691505092915050565b5f61391583836138ee565b9150826002028217905092915050565b61392e8261287a565b67ffffffffffffffff81111561394757613946613764565b5b6139518254612c2f565b61395c82828561389c565b5f60209050601f83116001811461398d575f841561397b578287015190505b613985858261390a565b8655506139ec565b601f19841661399b86613791565b5f5b828110156139c25784890151825560018201915060208501945060208101905061399d565b868310156139df57848901516139db601f8916826138ee565b8355505b6001600288020188555050505b505050505050565b7f4e487b71000000000000000000000000000000000000000000000000000000005f52601260045260245ffd5b5f613a2b82612982565b9150613a3683612982565b925082613a4657613a456139f4565b5b82820490509291505056fea2646970667358221220a80e2191841344856faefab25e64a0e91ed1218c25f5d7b50a76234abf059cc164736f6c63430008140033",
					"opcodes": "PUSH1 0x80 PUSH1 0x40 MSTORE CALLVALUE DUP1 ISZERO PUSH3 0x10 JUMPI PUSH0 DUP1 REVERT JUMPDEST POP PUSH3 0x21 PUSH3 0x27 PUSH1 0x20 SHL PUSH1 0x20 SHR JUMP JUMPDEST PUSH3 0x191 JUMP JUMPDEST PUSH0 PUSH3 0x38 PUSH3 0x12B PUSH1 0x20 SHL PUSH1 0x20 SHR JUMP JUMPDEST SWAP1 POP DUP1 PUSH0 ADD PUSH1 0x8 SWAP1 SLOAD SWAP1 PUSH2 0x100 EXP SWAP1 DIV PUSH1 0xFF AND ISZERO PUSH3 0x83 JUMPI PUSH1 0x40 MLOAD PUSH32 0xF92EE8A900000000000000000000000000000000000000000000000000000000 DUP2 MSTORE PUSH1 0x4 ADD PUSH1 0x40 MLOAD DUP1 SWAP2 SUB SWAP1 REVERT JUMPDEST PUSH8 0xFFFFFFFFFFFFFFFF DUP1 AND DUP2 PUSH0 ADD PUSH0 SWAP1 SLOAD SWAP1 PUSH2 0x100 EXP SWAP1 DIV PUSH8 0xFFFFFFFFFFFFFFFF AND PUSH8 0xFFFFFFFFFFFFFFFF AND EQ PUSH3 0x128 JUMPI PUSH8 0xFFFFFFFFFFFFFFFF DUP2 PUSH0 ADD PUSH0 PUSH2 0x100 EXP DUP2 SLOAD DUP2 PUSH8 0xFFFFFFFFFFFFFFFF MUL NOT AND SWAP1 DUP4 PUSH8 0xFFFFFFFFFFFFFFFF AND MUL OR SWAP1 SSTORE POP PUSH32 0xC7F505B2F371AE2175EE4913F4499E1F2633A7B5936321EED1CDAEB6115181D2 PUSH8 0xFFFFFFFFFFFFFFFF PUSH1 0x40 MLOAD PUSH3 0x11F SWAP2 SWAP1 PUSH3 0x176 JUMP JUMPDEST PUSH1 0x40 MLOAD DUP1 SWAP2 SUB SWAP1 LOG1 JUMPDEST POP JUMP JUMPDEST PUSH0 PUSH32 0xF0C57E16840DF040F15088DC2F81FE391C3923BEC73E23A9662EFC9C229C6A00 SWAP1 POP SWAP1 JUMP JUMPDEST PUSH0 PUSH8 0xFFFFFFFFFFFFFFFF DUP3 AND SWAP1 POP SWAP2 SWAP1 POP JUMP JUMPDEST PUSH3 0x170 DUP2 PUSH3 0x152 JUMP JUMPDEST DUP3 MSTORE POP POP JUMP JUMPDEST PUSH0 PUSH1 0x20 DUP3 ADD SWAP1 POP PUSH3 0x18B PUSH0 DUP4 ADD DUP5 PUSH3 0x165 JUMP JUMPDEST SWAP3 SWAP2 POP POP JUMP JUMPDEST PUSH2 0x3A87 DUP1 PUSH3 0x19F PUSH0 CODECOPY PUSH0 RETURN INVALID PUSH1 0x80 PUSH1 0x40 MSTORE CALLVALUE DUP1 ISZERO PUSH2 0xF JUMPI PUSH0 DUP1 REVERT JUMPDEST POP PUSH1 0x4 CALLDATASIZE LT PUSH2 0x20F JUMPI PUSH0 CALLDATALOAD PUSH1 0xE0 SHR DUP1 PUSH4 0x75F0A874 GT PUSH2 0x123 JUMPI DUP1 PUSH4 0xBE20B15D GT PUSH2 0xAB JUMPI DUP1 PUSH4 0xDD62ED3E GT PUSH2 0x7A JUMPI DUP1 PUSH4 0xDD62ED3E EQ PUSH2 0x59F JUMPI DUP1 PUSH4 0xE7D88DE5 EQ PUSH2 0x5CF JUMPI DUP1 PUSH4 0xF2FDE38B EQ PUSH2 0x5ED JUMPI DUP1 PUSH4 0xFE575A87 EQ PUSH2 0x609 JUMPI DUP1 PUSH4 0xFEDCB861 EQ PUSH2 0x639 JUMPI PUSH2 0x20F JUMP JUMPDEST DUP1 PUSH4 0xBE20B15D EQ PUSH2 0x529 JUMPI DUP1 PUSH4 0xC04A5414 EQ PUSH2 0x545 JUMPI DUP1 PUSH4 0xC816841B EQ PUSH2 0x563 JUMPI DUP1 PUSH4 0xC8C8EBE4 EQ PUSH2 0x581 JUMPI PUSH2 0x20F JUMP JUMPDEST DUP1 PUSH4 0x85FBAE56 GT PUSH2 0xF2 JUMPI DUP1 PUSH4 0x85FBAE56 EQ PUSH2 0x485 JUMPI DUP1 PUSH4 0x88696F2F EQ PUSH2 0x4A1 JUMPI DUP1 PUSH4 0x8DA5CB5B EQ PUSH2 0x4BD JUMPI DUP1 PUSH4 0x95D89B41 EQ PUSH2 0x4DB JUMPI DUP1 PUSH4 0xA9059CBB EQ PUSH2 0x4F9 JUMPI PUSH2 0x20F JUMP JUMPDEST DUP1 PUSH4 0x75F0A874 EQ PUSH2 0x423 JUMPI DUP1 PUSH4 0x79CC6790 EQ PUSH2 0x441 JUMPI DUP1 PUSH4 0x8129FC1C EQ PUSH2 0x45D JUMPI DUP1 PUSH4 0x8206CF5A EQ PUSH2 0x467 JUMPI PUSH2 0x20F JUMP JUMPDEST DUP1 PUSH4 0x42966C68 GT PUSH2 0x1A6 JUMPI DUP1 PUSH4 0x5D098B38 GT PUSH2 0x175 JUMPI DUP1 PUSH4 0x5D098B38 EQ PUSH2 0x395 JUMPI DUP1 PUSH4 0x6DDFA4B4 EQ PUSH2 0x3B1 JUMPI DUP1 PUSH4 0x70A08231 EQ PUSH2 0x3CD JUMPI DUP1 PUSH4 0x715018A6 EQ PUSH2 0x3FD JUMPI DUP1 PUSH4 0x72AC2486 EQ PUSH2 0x407 JUMPI PUSH2 0x20F JUMP JUMPDEST DUP1 PUSH4 0x42966C68 EQ PUSH2 0x325 JUMPI DUP1 PUSH4 0x44337EA1 EQ PUSH2 0x341 JUMPI DUP1 PUSH4 0x4FE47F70 EQ PUSH2 0x35D JUMPI DUP1 PUSH4 0x537DF3B6 EQ PUSH2 0x379 JUMPI PUSH2 0x20F JUMP JUMPDEST DUP1 PUSH4 0x18160DDD GT PUSH2 0x1E2 JUMPI DUP1 PUSH4 0x18160DDD EQ PUSH2 0x29D JUMPI DUP1 PUSH4 0x23B872DD EQ PUSH2 0x2BB JUMPI DUP1 PUSH4 0x313CE567 EQ PUSH2 0x2EB JUMPI DUP1 PUSH4 0x40C10F19 EQ PUSH2 0x309 JUMPI PUSH2 0x20F JUMP JUMPDEST DUP1 PUSH4 0x6FDDE03 EQ PUSH2 0x213 JUMPI DUP1 PUSH4 0x95EA7B3 EQ PUSH2 0x231 JUMPI DUP1 PUSH4 0x11E91B84 EQ PUSH2 0x261 JUMPI DUP1 PUSH4 0x1694505E EQ PUSH2 0x27F JUMPI JUMPDEST PUSH0 DUP1 REVERT JUMPDEST PUSH2 0x21B PUSH2 0x657 JUMP JUMPDEST PUSH1 0x40 MLOAD PUSH2 0x228 SWAP2 SWAP1 PUSH2 0x2904 JUMP JUMPDEST PUSH1 0x40 MLOAD DUP1 SWAP2 SUB SWAP1 RETURN JUMPDEST PUSH2 0x24B PUSH1 0x4 DUP1 CALLDATASIZE SUB DUP2 ADD SWAP1 PUSH2 0x246 SWAP2 SWAP1 PUSH2 0x29B5 JUMP JUMPDEST PUSH2 0x6F5 JUMP JUMPDEST PUSH1 0x40 MLOAD PUSH2 0x258 SWAP2 SWAP1 PUSH2 0x2A0D JUMP JUMPDEST PUSH1 0x40 MLOAD DUP1 SWAP2 SUB SWAP1 RETURN JUMPDEST PUSH2 0x269 PUSH2 0x717 JUMP JUMPDEST PUSH1 0x40 MLOAD PUSH2 0x276 SWAP2 SWAP1 PUSH2 0x2A35 JUMP JUMPDEST PUSH1 0x40 MLOAD DUP1 SWAP2 SUB SWAP1 RETURN JUMPDEST PUSH2 0x287 PUSH2 0x71D JUMP JUMPDEST PUSH1 0x40 MLOAD PUSH2 0x294 SWAP2 SWAP1 PUSH2 0x2AA9 JUMP JUMPDEST PUSH1 0x40 MLOAD DUP1 SWAP2 SUB SWAP1 RETURN JUMPDEST PUSH2 0x2A5 PUSH2 0x742 JUMP JUMPDEST PUSH1 0x40 MLOAD PUSH2 0x2B2 SWAP2 SWAP1 PUSH2 0x2A35 JUMP JUMPDEST PUSH1 0x40 MLOAD DUP1 SWAP2 SUB SWAP1 RETURN JUMPDEST PUSH2 0x2D5 PUSH1 0x4 DUP1 CALLDATASIZE SUB DUP2 ADD SWAP1 PUSH2 0x2D0 SWAP2 SWAP1 PUSH2 0x2AC2 JUMP JUMPDEST PUSH2 0x759 JUMP JUMPDEST PUSH1 0x40 MLOAD PUSH2 0x2E2 SWAP2 SWAP1 PUSH2 0x2A0D JUMP JUMPDEST PUSH1 0x40 MLOAD DUP1 SWAP2 SUB SWAP1 RETURN JUMPDEST PUSH2 0x2F3 PUSH2 0x787 JUMP JUMPDEST PUSH1 0x40 MLOAD PUSH2 0x300 SWAP2 SWAP1 PUSH2 0x2B2D JUMP JUMPDEST PUSH1 0x40 MLOAD DUP1 SWAP2 SUB SWAP1 RETURN JUMPDEST PUSH2 0x323 PUSH1 0x4 DUP1 CALLDATASIZE SUB DUP2 ADD SWAP1 PUSH2 0x31E SWAP2 SWAP1 PUSH2 0x29B5 JUMP JUMPDEST PUSH2 0x78F JUMP JUMPDEST STOP JUMPDEST PUSH2 0x33F PUSH1 0x4 DUP1 CALLDATASIZE SUB DUP2 ADD SWAP1 PUSH2 0x33A SWAP2 SWAP1 PUSH2 0x2B46 JUMP JUMPDEST PUSH2 0x7A5 JUMP JUMPDEST STOP JUMPDEST PUSH2 0x35B PUSH1 0x4 DUP1 CALLDATASIZE SUB DUP2 ADD SWAP1 PUSH2 0x356 SWAP2 SWAP1 PUSH2 0x2B71 JUMP JUMPDEST PUSH2 0x7B9 JUMP JUMPDEST STOP JUMPDEST PUSH2 0x377 PUSH1 0x4 DUP1 CALLDATASIZE SUB DUP2 ADD SWAP1 PUSH2 0x372 SWAP2 SWAP1 PUSH2 0x2B46 JUMP JUMPDEST PUSH2 0x918 JUMP JUMPDEST STOP JUMPDEST PUSH2 0x393 PUSH1 0x4 DUP1 CALLDATASIZE SUB DUP2 ADD SWAP1 PUSH2 0x38E SWAP2 SWAP1 PUSH2 0x2B71 JUMP JUMPDEST PUSH2 0x9A5 JUMP JUMPDEST STOP JUMPDEST PUSH2 0x3AF PUSH1 0x4 DUP1 CALLDATASIZE SUB DUP2 ADD SWAP1 PUSH2 0x3AA SWAP2 SWAP1 PUSH2 0x2B71 JUMP JUMPDEST PUSH2 0xB02 JUMP JUMPDEST STOP JUMPDEST PUSH2 0x3CB PUSH1 0x4 DUP1 CALLDATASIZE SUB DUP2 ADD SWAP1 PUSH2 0x3C6 SWAP2 SWAP1 PUSH2 0x2B46 JUMP JUMPDEST PUSH2 0xC10 JUMP JUMPDEST STOP JUMPDEST PUSH2 0x3E7 PUSH1 0x4 DUP1 CALLDATASIZE SUB DUP2 ADD SWAP1 PUSH2 0x3E2 SWAP2 SWAP1 PUSH2 0x2B71 JUMP JUMPDEST PUSH2 0xCA0 JUMP JUMPDEST PUSH1 0x40 MLOAD PUSH2 0x3F4 SWAP2 SWAP1 PUSH2 0x2A35 JUMP JUMPDEST PUSH1 0x40 MLOAD DUP1 SWAP2 SUB SWAP1 RETURN JUMPDEST PUSH2 0x405 PUSH2 0xCF3 JUMP JUMPDEST STOP JUMPDEST PUSH2 0x421 PUSH1 0x4 DUP1 CALLDATASIZE SUB DUP2 ADD SWAP1 PUSH2 0x41C SWAP2 SWAP1 PUSH2 0x2B71 JUMP JUMPDEST PUSH2 0xD06 JUMP JUMPDEST STOP JUMPDEST PUSH2 0x42B PUSH2 0xE17 JUMP JUMPDEST PUSH1 0x40 MLOAD PUSH2 0x438 SWAP2 SWAP1 PUSH2 0x2BAB JUMP JUMPDEST PUSH1 0x40 MLOAD DUP1 SWAP2 SUB SWAP1 RETURN JUMPDEST PUSH2 0x45B PUSH1 0x4 DUP1 CALLDATASIZE SUB DUP2 ADD SWAP1 PUSH2 0x456 SWAP2 SWAP1 PUSH2 0x29B5 JUMP JUMPDEST PUSH2 0xE3A JUMP JUMPDEST STOP JUMPDEST PUSH2 0x465 PUSH2 0xE5A JUMP JUMPDEST STOP JUMPDEST PUSH2 0x46F PUSH2 0x14B4 JUMP JUMPDEST PUSH1 0x40 MLOAD PUSH2 0x47C SWAP2 SWAP1 PUSH2 0x2A35 JUMP JUMPDEST PUSH1 0x40 MLOAD DUP1 SWAP2 SUB SWAP1 RETURN JUMPDEST PUSH2 0x49F PUSH1 0x4 DUP1 CALLDATASIZE SUB DUP2 ADD SWAP1 PUSH2 0x49A SWAP2 SWAP1 PUSH2 0x2B46 JUMP JUMPDEST PUSH2 0x14BA JUMP JUMPDEST STOP JUMPDEST PUSH2 0x4BB PUSH1 0x4 DUP1 CALLDATASIZE SUB DUP2 ADD SWAP1 PUSH2 0x4B6 SWAP2 SWAP1 PUSH2 0x2B46 JUMP JUMPDEST PUSH2 0x154A JUMP JUMPDEST STOP JUMPDEST PUSH2 0x4C5 PUSH2 0x15DA JUMP JUMPDEST PUSH1 0x40 MLOAD PUSH2 0x4D2 SWAP2 SWAP1 PUSH2 0x2BAB JUMP JUMPDEST PUSH1 0x40 MLOAD DUP1 SWAP2 SUB SWAP1 RETURN JUMPDEST PUSH2 0x4E3 PUSH2 0x160F JUMP JUMPDEST PUSH1 0x40 MLOAD PUSH2 0x4F0 SWAP2 SWAP1 PUSH2 0x2904 JUMP JUMPDEST PUSH1 0x40 MLOAD DUP1 SWAP2 SUB SWAP1 RETURN JUMPDEST PUSH2 0x513 PUSH1 0x4 DUP1 CALLDATASIZE SUB DUP2 ADD SWAP1 PUSH2 0x50E SWAP2 SWAP1 PUSH2 0x29B5 JUMP JUMPDEST PUSH2 0x16AD JUMP JUMPDEST PUSH1 0x40 MLOAD PUSH2 0x520 SWAP2 SWAP1 PUSH2 0x2A0D JUMP JUMPDEST PUSH1 0x40 MLOAD DUP1 SWAP2 SUB SWAP1 RETURN JUMPDEST PUSH2 0x543 PUSH1 0x4 DUP1 CALLDATASIZE SUB DUP2 ADD SWAP1 PUSH2 0x53E SWAP2 SWAP1 PUSH2 0x2B71 JUMP JUMPDEST PUSH2 0x16CF JUMP JUMPDEST STOP JUMPDEST PUSH2 0x54D PUSH2 0x17E0 JUMP JUMPDEST PUSH1 0x40 MLOAD PUSH2 0x55A SWAP2 SWAP1 PUSH2 0x2BAB JUMP JUMPDEST PUSH1 0x40 MLOAD DUP1 SWAP2 SUB SWAP1 RETURN JUMPDEST PUSH2 0x56B PUSH2 0x1805 JUMP JUMPDEST PUSH1 0x40 MLOAD PUSH2 0x578 SWAP2 SWAP1 PUSH2 0x2BAB JUMP JUMPDEST PUSH1 0x40 MLOAD DUP1 SWAP2 SUB SWAP1 RETURN JUMPDEST PUSH2 0x589 PUSH2 0x182A JUMP JUMPDEST PUSH1 0x40 MLOAD PUSH2 0x596 SWAP2 SWAP1 PUSH2 0x2A35 JUMP JUMPDEST PUSH1 0x40 MLOAD DUP1 SWAP2 SUB SWAP1 RETURN JUMPDEST PUSH2 0x5B9 PUSH1 0x4 DUP1 CALLDATASIZE SUB DUP2 ADD SWAP1 PUSH2 0x5B4 SWAP2 SWAP1 PUSH2 0x2BC4 JUMP JUMPDEST PUSH2 0x1830 JUMP JUMPDEST PUSH1 0x40 MLOAD PUSH2 0x5C6 SWAP2 SWAP1 PUSH2 0x2A35 JUMP JUMPDEST PUSH1 0x40 MLOAD DUP1 SWAP2 SUB SWAP1 RETURN JUMPDEST PUSH2 0x5D7 PUSH2 0x18C0 JUMP JUMPDEST PUSH1 0x40 MLOAD PUSH2 0x5E4 SWAP2 SWAP1 PUSH2 0x2A35 JUMP JUMPDEST PUSH1 0x40 MLOAD DUP1 SWAP2 SUB SWAP1 RETURN JUMPDEST PUSH2 0x607 PUSH1 0x4 DUP1 CALLDATASIZE SUB DUP2 ADD SWAP1 PUSH2 0x602 SWAP2 SWAP1 PUSH2 0x2B71 JUMP JUMPDEST PUSH2 0x18C6 JUMP JUMPDEST STOP JUMPDEST PUSH2 0x623 PUSH1 0x4 DUP1 CALLDATASIZE SUB DUP2 ADD SWAP1 PUSH2 0x61E SWAP2 SWAP1 PUSH2 0x2B71 JUMP JUMPDEST PUSH2 0x194A JUMP JUMPDEST PUSH1 0x40 MLOAD PUSH2 0x630 SWAP2 SWAP1 PUSH2 0x2A0D JUMP JUMPDEST PUSH1 0x40 MLOAD DUP1 SWAP2 SUB SWAP1 RETURN JUMPDEST PUSH2 0x641 PUSH2 0x199C JUMP JUMPDEST PUSH1 0x40 MLOAD PUSH2 0x64E SWAP2 SWAP1 PUSH2 0x2BAB JUMP JUMPDEST PUSH1 0x40 MLOAD DUP1 SWAP2 SUB SWAP1 RETURN JUMPDEST PUSH1 0x60 PUSH0 PUSH2 0x662 PUSH2 0x19C1 JUMP JUMPDEST SWAP1 POP DUP1 PUSH1 0x3 ADD DUP1 SLOAD PUSH2 0x673 SWAP1 PUSH2 0x2C2F JUMP JUMPDEST DUP1 PUSH1 0x1F ADD PUSH1 0x20 DUP1 SWAP2 DIV MUL PUSH1 0x20 ADD PUSH1 0x40 MLOAD SWAP1 DUP2 ADD PUSH1 0x40 MSTORE DUP1 SWAP3 SWAP2 SWAP1 DUP2 DUP2 MSTORE PUSH1 0x20 ADD DUP3 DUP1 SLOAD PUSH2 0x69F SWAP1 PUSH2 0x2C2F JUMP JUMPDEST DUP1 ISZERO PUSH2 0x6EA JUMPI DUP1 PUSH1 0x1F LT PUSH2 0x6C1 JUMPI PUSH2 0x100 DUP1 DUP4 SLOAD DIV MUL DUP4 MSTORE SWAP2 PUSH1 0x20 ADD SWAP2 PUSH2 0x6EA JUMP JUMPDEST DUP3 ADD SWAP2 SWAP1 PUSH0 MSTORE PUSH1 0x20 PUSH0 KECCAK256 SWAP1 JUMPDEST DUP2 SLOAD DUP2 MSTORE SWAP1 PUSH1 0x1 ADD SWAP1 PUSH1 0x20 ADD DUP1 DUP4 GT PUSH2 0x6CD JUMPI DUP3 SWAP1 SUB PUSH1 0x1F AND DUP3 ADD SWAP2 JUMPDEST POP POP POP POP POP SWAP2 POP POP SWAP1 JUMP JUMPDEST PUSH0 DUP1 PUSH2 0x6FF PUSH2 0x19E8 JUMP JUMPDEST SWAP1 POP PUSH2 0x70C DUP2 DUP6 DUP6 PUSH2 0x19EF JUMP JUMPDEST PUSH1 0x1 SWAP2 POP POP SWAP3 SWAP2 POP POP JUMP JUMPDEST PUSH1 0x4 SLOAD DUP2 JUMP JUMPDEST PUSH1 0xA PUSH0 SWAP1 SLOAD SWAP1 PUSH2 0x100 EXP SWAP1 DIV PUSH20 0xFFFFFFFFFFFFFFFFFFFFFFFFFFFFFFFFFFFFFFFF AND DUP2 JUMP JUMPDEST PUSH0 DUP1 PUSH2 0x74C PUSH2 0x19C1 JUMP JUMPDEST SWAP1 POP DUP1 PUSH1 0x2 ADD SLOAD SWAP2 POP POP SWAP1 JUMP JUMPDEST PUSH0 DUP1 PUSH2 0x763 PUSH2 0x19E8 JUMP JUMPDEST SWAP1 POP PUSH2 0x770 DUP6 DUP3 DUP6 PUSH2 0x1A01 JUMP JUMPDEST PUSH2 0x77B DUP6 DUP6 DUP6 PUSH2 0x1A93 JUMP JUMPDEST PUSH1 0x1 SWAP2 POP POP SWAP4 SWAP3 POP POP POP JUMP JUMPDEST PUSH0 PUSH1 0x12 SWAP1 POP SWAP1 JUMP JUMPDEST PUSH2 0x797 PUSH2 0x1B83 JUMP JUMPDEST PUSH2 0x7A1 DUP3 DUP3 PUSH2 0x1C0A JUMP JUMPDEST POP POP JUMP JUMPDEST PUSH2 0x7B6 PUSH2 0x7B0 PUSH2 0x19E8 JUMP JUMPDEST DUP3 PUSH2 0x1C89 JUMP JUMPDEST POP JUMP JUMPDEST PUSH2 0x7C1 PUSH2 0x1B83 JUMP JUMPDEST PUSH1 0x8 PUSH0 DUP3 PUSH20 0xFFFFFFFFFFFFFFFFFFFFFFFFFFFFFFFFFFFFFFFF AND PUSH20 0xFFFFFFFFFFFFFFFFFFFFFFFFFFFFFFFFFFFFFFFF AND DUP2 MSTORE PUSH1 0x20 ADD SWAP1 DUP2 MSTORE PUSH1 0x20 ADD PUSH0 KECCAK256 PUSH0 SWAP1 SLOAD SWAP1 PUSH2 0x100 EXP SWAP1 DIV PUSH1 0xFF AND ISZERO PUSH2 0x84B JUMPI PUSH1 0x40 MLOAD PUSH32 0x8C379A000000000000000000000000000000000000000000000000000000000 DUP2 MSTORE PUSH1 0x4 ADD PUSH2 0x842 SWAP1 PUSH2 0x2CA9 JUMP JUMPDEST PUSH1 0x40 MLOAD DUP1 SWAP2 SUB SWAP1 REVERT JUMPDEST DUP1 PUSH20 0xFFFFFFFFFFFFFFFFFFFFFFFFFFFFFFFFFFFFFFFF AND PUSH2 0x86A PUSH2 0x19E8 JUMP JUMPDEST PUSH20 0xFFFFFFFFFFFFFFFFFFFFFFFFFFFFFFFFFFFFFFFF AND SUB PUSH2 0x8C0 JUMPI PUSH1 0x40 MLOAD PUSH32 0x8C379A000000000000000000000000000000000000000000000000000000000 DUP2 MSTORE PUSH1 0x4 ADD PUSH2 0x8B7 SWAP1 PUSH2 0x2D11 JUMP JUMPDEST PUSH1 0x40 MLOAD DUP1 SWAP2 SUB SWAP1 REVERT JUMPDEST PUSH1 0x1 PUSH1 0x8 PUSH0 DUP4 PUSH20 0xFFFFFFFFFFFFFFFFFFFFFFFFFFFFFFFFFFFFFFFF AND PUSH20 0xFFFFFFFFFFFFFFFFFFFFFFFFFFFFFFFFFFFFFFFF AND DUP2 MSTORE PUSH1 0x20 ADD SWAP1 DUP2 MSTORE PUSH1 0x20 ADD PUSH0 KECCAK256 PUSH0 PUSH2 0x100 EXP DUP2 SLOAD DUP2 PUSH1 0xFF MUL NOT AND SWAP1 DUP4 ISZERO ISZERO MUL OR SWAP1 SSTORE POP POP JUMP JUMPDEST PUSH2 0x920 PUSH2 0x1B83 JUMP JUMPDEST PUSH0 DUP2 GT PUSH2 0x962 JUMPI PUSH1 0x40 MLOAD PUSH32 0x8C379A000000000000000000000000000000000000000000000000000000000 DUP2 MSTORE PUSH1 0x4 ADD PUSH2 0x959 SWAP1 PUSH2 0x2D79 JUMP JUMPDEST PUSH1 0x40 MLOAD DUP1 SWAP2 SUB SWAP1 REVERT JUMPDEST DUP1 PUSH1 0x6 DUP2 SWAP1 SSTORE POP PUSH32 0x44D540C6079791F805BC9B5D5A643DBF1F545EC260212B2B2478EF9D9ED0768E PUSH1 0x6 SLOAD PUSH1 0x40 MLOAD PUSH2 0x99A SWAP2 SWAP1 PUSH2 0x2A35 JUMP JUMPDEST PUSH1 0x40 MLOAD DUP1 SWAP2 SUB SWAP1 LOG1 POP JUMP JUMPDEST PUSH2 0x9AD PUSH2 0x1B83 JUMP JUMPDEST PUSH1 0x8 PUSH0 DUP3 PUSH20 0xFFFFFFFFFFFFFFFFFFFFFFFFFFFFFFFFFFFFFFFF AND PUSH20 0xFFFFFFFFFFFFFFFFFFFFFFFFFFFFFFFFFFFFFFFF AND DUP2 MSTORE PUSH1 0x20 ADD SWAP1 DUP2 MSTORE PUSH1 0x20 ADD PUSH0 KECCAK256 PUSH0 SWAP1 SLOAD SWAP1 PUSH2 0x100 EXP SWAP1 DIV PUSH1 0xFF AND PUSH2 0xA36 JUMPI PUSH1 0x40 MLOAD PUSH32 0x8C379A000000000000000000000000000000000000000000000000000000000 DUP2 MSTORE PUSH1 0x4 ADD PUSH2 0xA2D SWAP1 PUSH2 0x2DE1 JUMP JUMPDEST PUSH1 0x40 MLOAD DUP1 SWAP2 SUB SWAP1 REVERT JUMPDEST DUP1 PUSH20 0xFFFFFFFFFFFFFFFFFFFFFFFFFFFFFFFFFFFFFFFF AND PUSH2 0xA55 PUSH2 0x19E8 JUMP JUMPDEST PUSH20 0xFFFFFFFFFFFFFFFFFFFFFFFFFFFFFFFFFFFFFFFF AND SUB PUSH2 0xAAB JUMPI PUSH1 0x40 MLOAD PUSH32 0x8C379A000000000000000000000000000000000000000000000000000000000 DUP2 MSTORE PUSH1 0x4 ADD PUSH2 0xAA2 SWAP1 PUSH2 0x2E6F JUMP JUMPDEST PUSH1 0x40 MLOAD DUP1 SWAP2 SUB SWAP1 REVERT JUMPDEST PUSH0 PUSH1 0x8 PUSH0 DUP4 PUSH20 0xFFFFFFFFFFFFFFFFFFFFFFFFFFFFFFFFFFFFFFFF AND PUSH20 0xFFFFFFFFFFFFFFFFFFFFFFFFFFFFFFFFFFFFFFFF AND DUP2 MSTORE PUSH1 0x20 ADD SWAP1 DUP2 MSTORE PUSH1 0x20 ADD PUSH0 KECCAK256 PUSH0 PUSH2 0x100 EXP DUP2 SLOAD DUP2 PUSH1 0xFF MUL NOT AND SWAP1 DUP4 ISZERO ISZERO MUL OR SWAP1 SSTORE POP POP JUMP JUMPDEST PUSH2 0xB0A PUSH2 0x1B83 JUMP JUMPDEST PUSH0 PUSH20 0xFFFFFFFFFFFFFFFFFFFFFFFFFFFFFFFFFFFFFFFF AND DUP2 PUSH20 0xFFFFFFFFFFFFFFFFFFFFFFFFFFFFFFFFFFFFFFFF AND SUB PUSH2 0xB78 JUMPI PUSH1 0x40 MLOAD PUSH32 0x8C379A000000000000000000000000000000000000000000000000000000000 DUP2 MSTORE PUSH1 0x4 ADD PUSH2 0xB6F SWAP1 PUSH2 0x2EFD JUMP JUMPDEST PUSH1 0x40 MLOAD DUP1 SWAP2 SUB SWAP1 REVERT JUMPDEST DUP1 PUSH0 DUP1 PUSH2 0x100 EXP DUP2 SLOAD DUP2 PUSH20 0xFFFFFFFFFFFFFFFFFFFFFFFFFFFFFFFFFFFFFFFF MUL NOT AND SWAP1 DUP4 PUSH20 0xFFFFFFFFFFFFFFFFFFFFFFFFFFFFFFFFFFFFFFFF AND MUL OR SWAP1 SSTORE POP PUSH32 0x2026F0B479F097EA9D4C74DAC26E5271BA4D59931603970DA5458EA8AA3DCF37 PUSH0 DUP1 SLOAD SWAP1 PUSH2 0x100 EXP SWAP1 DIV PUSH20 0xFFFFFFFFFFFFFFFFFFFFFFFFFFFFFFFFFFFFFFFF AND PUSH1 0x40 MLOAD PUSH2 0xC05 SWAP2 SWAP1 PUSH2 0x2BAB JUMP JUMPDEST PUSH1 0x40 MLOAD DUP1 SWAP2 SUB SWAP1 LOG1 POP JUMP JUMPDEST PUSH2 0xC18 PUSH2 0x1B83 JUMP JUMPDEST PUSH2 0x2710 DUP2 GT ISZERO PUSH2 0xC5D JUMPI PUSH1 0x40 MLOAD PUSH32 0x8C379A000000000000000000000000000000000000000000000000000000000 DUP2 MSTORE PUSH1 0x4 ADD PUSH2 0xC54 SWAP1 PUSH2 0x2F8B JUMP JUMPDEST PUSH1 0x40 MLOAD DUP1 SWAP2 SUB SWAP1 REVERT JUMPDEST DUP1 PUSH1 0x5 DUP2 SWAP1 SSTORE POP PUSH32 0x28AD5F14A54B644D089D89D6140175FBBF7199A6FA1275E827904C157F491546 PUSH1 0x5 SLOAD PUSH1 0x40 MLOAD PUSH2 0xC95 SWAP2 SWAP1 PUSH2 0x2A35 JUMP JUMPDEST PUSH1 0x40 MLOAD DUP1 SWAP2 SUB SWAP1 LOG1 POP JUMP JUMPDEST PUSH0 DUP1 PUSH2 0xCAA PUSH2 0x19C1 JUMP JUMPDEST SWAP1 POP DUP1 PUSH0 ADD PUSH0 DUP5 PUSH20 0xFFFFFFFFFFFFFFFFFFFFFFFFFFFFFFFFFFFFFFFF AND PUSH20 0xFFFFFFFFFFFFFFFFFFFFFFFFFFFFFFFFFFFFFFFF AND DUP2 MSTORE PUSH1 0x20 ADD SWAP1 DUP2 MSTORE PUSH1 0x20 ADD PUSH0 KECCAK256 SLOAD SWAP2 POP POP SWAP2 SWAP1 POP JUMP JUMPDEST PUSH2 0xCFB PUSH2 0x1B83 JUMP JUMPDEST PUSH2 0xD04 PUSH0 PUSH2 0x1D08 JUMP JUMPDEST JUMP JUMPDEST PUSH2 0xD0E PUSH2 0x1B83 JUMP JUMPDEST PUSH0 PUSH20 0xFFFFFFFFFFFFFFFFFFFFFFFFFFFFFFFFFFFFFFFF AND DUP2 PUSH20 0xFFFFFFFFFFFFFFFFFFFFFFFFFFFFFFFFFFFFFFFF AND SUB PUSH2 0xD7C JUMPI PUSH1 0x40 MLOAD PUSH32 0x8C379A000000000000000000000000000000000000000000000000000000000 DUP2 MSTORE PUSH1 0x4 ADD PUSH2 0xD73 SWAP1 PUSH2 0x3019 JUMP JUMPDEST PUSH1 0x40 MLOAD DUP1 SWAP2 SUB SWAP1 REVERT JUMPDEST DUP1 PUSH1 0x1 PUSH0 PUSH2 0x100 EXP DUP2 SLOAD DUP2 PUSH20 0xFFFFFFFFFFFFFFFFFFFFFFFFFFFFFFFFFFFFFFFF MUL NOT AND SWAP1 DUP4 PUSH20 0xFFFFFFFFFFFFFFFFFFFFFFFFFFFFFFFFFFFFFFFF AND MUL OR SWAP1 SSTORE POP PUSH32 0x7404946BA3969D72CC11E8A0C21A8AB3B8DDDEB41E78F235DFAD9FFCDA3F617C PUSH1 0x1 PUSH0 SWAP1 SLOAD SWAP1 PUSH2 0x100 EXP SWAP1 DIV PUSH20 0xFFFFFFFFFFFFFFFFFFFFFFFFFFFFFFFFFFFFFFFF AND PUSH1 0x40 MLOAD PUSH2 0xE0C SWAP2 SWAP1 PUSH2 0x2BAB JUMP JUMPDEST PUSH1 0x40 MLOAD DUP1 SWAP2 SUB SWAP1 LOG1 POP JUMP JUMPDEST PUSH0 DUP1 SLOAD SWAP1 PUSH2 0x100 EXP SWAP1 DIV PUSH20 0xFFFFFFFFFFFFFFFFFFFFFFFFFFFFFFFFFFFFFFFF AND DUP2 JUMP JUMPDEST PUSH2 0xE4C DUP3 PUSH2 0xE46 PUSH2 0x19E8 JUMP JUMPDEST DUP4 PUSH2 0x1A01 JUMP JUMPDEST PUSH2 0xE56 DUP3 DUP3 PUSH2 0x1C89 JUMP JUMPDEST POP POP JUMP JUMPDEST PUSH0 PUSH2 0xE63 PUSH2 0x1DD9 JUMP JUMPDEST SWAP1 POP PUSH0 DUP2 PUSH0 ADD PUSH1 0x8 SWAP1 SLOAD SWAP1 PUSH2 0x100 EXP SWAP1 DIV PUSH1 0xFF AND ISZERO SWAP1 POP PUSH0 DUP3 PUSH0 ADD PUSH0 SWAP1 SLOAD SWAP1 PUSH2 0x100 EXP SWAP1 DIV PUSH8 0xFFFFFFFFFFFFFFFF AND SWAP1 POP PUSH0 DUP1 DUP3 PUSH8 0xFFFFFFFFFFFFFFFF AND EQ DUP1 ISZERO PUSH2 0xEAB JUMPI POP DUP3 JUMPDEST SWAP1 POP PUSH0 PUSH1 0x1 DUP4 PUSH8 0xFFFFFFFFFFFFFFFF AND EQ DUP1 ISZERO PUSH2 0xEDE JUMPI POP PUSH0 ADDRESS PUSH20 0xFFFFFFFFFFFFFFFFFFFFFFFFFFFFFFFFFFFFFFFF AND EXTCODESIZE EQ JUMPDEST SWAP1 POP DUP2 ISZERO DUP1 ISZERO PUSH2 0xEEC JUMPI POP DUP1 ISZERO JUMPDEST ISZERO PUSH2 0xF23 JUMPI PUSH1 0x40 MLOAD PUSH32 0xF92EE8A900000000000000000000000000000000000000000000000000000000 DUP2 MSTORE PUSH1 0x4 ADD PUSH1 0x40 MLOAD DUP1 SWAP2 SUB SWAP1 REVERT JUMPDEST PUSH1 0x1 DUP6 PUSH0 ADD PUSH0 PUSH2 0x100 EXP DUP2 SLOAD DUP2 PUSH8 0xFFFFFFFFFFFFFFFF MUL NOT AND SWAP1 DUP4 PUSH8 0xFFFFFFFFFFFFFFFF AND MUL OR SWAP1 SSTORE POP DUP4 ISZERO PUSH2 0xF70 JUMPI PUSH1 0x1 DUP6 PUSH0 ADD PUSH1 0x8 PUSH2 0x100 EXP DUP2 SLOAD DUP2 PUSH1 0xFF MUL NOT AND SWAP1 DUP4 ISZERO ISZERO MUL OR SWAP1 SSTORE POP JUMPDEST PUSH2 0xF79 CALLER PUSH2 0x1E00 JUMP JUMPDEST PUSH2 0xF81 PUSH2 0x1E14 JUMP JUMPDEST PUSH2 0xFF5 PUSH1 0x40 MLOAD DUP1 PUSH1 0x40 ADD PUSH1 0x40 MSTORE DUP1 PUSH1 0x9 DUP2 MSTORE PUSH1 0x20 ADD PUSH32 0x54726162616A6F32340000000000000000000000000000000000000000000000 DUP2 MSTORE POP PUSH1 0x40 MLOAD DUP1 PUSH1 0x40 ADD PUSH1 0x40 MSTORE DUP1 PUSH1 0x3 DUP2 MSTORE PUSH1 0x20 ADD PUSH32 0x5432340000000000000000000000000000000000000000000000000000000000 DUP2 MSTORE POP PUSH2 0x1E1E JUMP JUMPDEST PUSH20 0x7E43D33CE3EBE06A0BFAFFC04ACA37C4ACBD3A5 PUSH0 DUP1 PUSH2 0x100 EXP DUP2 SLOAD DUP2 PUSH20 0xFFFFFFFFFFFFFFFFFFFFFFFFFFFFFFFFFFFFFFFF MUL NOT AND SWAP1 DUP4 PUSH20 0xFFFFFFFFFFFFFFFFFFFFFFFFFFFFFFFFFFFFFFFF AND MUL OR SWAP1 SSTORE POP PUSH20 0x5ED81F9BC2402A2BBD78E381C9AA1EDD99B90A55 PUSH1 0x1 PUSH0 PUSH2 0x100 EXP DUP2 SLOAD DUP2 PUSH20 0xFFFFFFFFFFFFFFFFFFFFFFFFFFFFFFFFFFFFFFFF MUL NOT AND SWAP1 DUP4 PUSH20 0xFFFFFFFFFFFFFFFFFFFFFFFFFFFFFFFFFFFFFFFF AND MUL OR SWAP1 SSTORE POP PUSH20 0xD436C10D791C7A9558950A251A049871811BB070 PUSH1 0x2 PUSH0 PUSH2 0x100 EXP DUP2 SLOAD DUP2 PUSH20 0xFFFFFFFFFFFFFFFFFFFFFFFFFFFFFFFFFFFFFFFF MUL NOT AND SWAP1 DUP4 PUSH20 0xFFFFFFFFFFFFFFFFFFFFFFFFFFFFFFFFFFFFFFFF AND MUL OR SWAP1 SSTORE POP PUSH2 0x10F8 PUSH2 0x787 JUMP JUMPDEST PUSH1 0xA PUSH2 0x1104 SWAP2 SWAP1 PUSH2 0x3193 JUMP JUMPDEST PUSH4 0x5F5E100 PUSH2 0x1113 SWAP2 SWAP1 PUSH2 0x31DD JUMP JUMPDEST PUSH1 0x7 DUP2 SWAP1 SSTORE POP PUSH1 0xA PUSH1 0x3 DUP2 SWAP1 SSTORE POP PUSH1 0x14 PUSH1 0x4 DUP2 SWAP1 SSTORE POP PUSH1 0x96 PUSH1 0x5 DUP2 SWAP1 SSTORE POP PUSH2 0x1139 PUSH2 0x787 JUMP JUMPDEST PUSH1 0xFF AND PUSH1 0xA PUSH2 0x1148 SWAP2 SWAP1 PUSH2 0x321E JUMP JUMPDEST PUSH4 0x1312D00 PUSH2 0x1157 SWAP2 SWAP1 PUSH2 0x31DD JUMP JUMPDEST PUSH1 0x6 DUP2 SWAP1 SSTORE POP PUSH2 0x1169 CALLER PUSH1 0x7 SLOAD PUSH2 0x1C0A JUMP JUMPDEST PUSH0 PUSH20 0xD99D1C33F9FC3444F8101754ABC46C52416550D1 SWAP1 POP DUP1 PUSH1 0xA PUSH0 PUSH2 0x100 EXP DUP2 SLOAD DUP2 PUSH20 0xFFFFFFFFFFFFFFFFFFFFFFFFFFFFFFFFFFFFFFFF MUL NOT AND SWAP1 DUP4 PUSH20 0xFFFFFFFFFFFFFFFFFFFFFFFFFFFFFFFFFFFFFFFF AND MUL OR SWAP1 SSTORE POP DUP1 PUSH20 0xFFFFFFFFFFFFFFFFFFFFFFFFFFFFFFFFFFFFFFFF AND PUSH4 0xC45A0155 PUSH1 0x40 MLOAD DUP2 PUSH4 0xFFFFFFFF AND PUSH1 0xE0 SHL DUP2 MSTORE PUSH1 0x4 ADD PUSH1 0x20 PUSH1 0x40 MLOAD DUP1 DUP4 SUB DUP2 DUP7 GAS STATICCALL ISZERO DUP1 ISZERO PUSH2 0x120A JUMPI RETURNDATASIZE PUSH0 DUP1 RETURNDATACOPY RETURNDATASIZE PUSH0 REVERT JUMPDEST POP POP POP POP PUSH1 0x40 MLOAD RETURNDATASIZE PUSH1 0x1F NOT PUSH1 0x1F DUP3 ADD AND DUP3 ADD DUP1 PUSH1 0x40 MSTORE POP DUP2 ADD SWAP1 PUSH2 0x122E SWAP2 SWAP1 PUSH2 0x327C JUMP JUMPDEST PUSH20 0xFFFFFFFFFFFFFFFFFFFFFFFFFFFFFFFFFFFFFFFF AND PUSH4 0xC9C65396 ADDRESS DUP4 PUSH20 0xFFFFFFFFFFFFFFFFFFFFFFFFFFFFFFFFFFFFFFFF AND PUSH4 0xAD5C4648 PUSH1 0x40 MLOAD DUP2 PUSH4 0xFFFFFFFF AND PUSH1 0xE0 SHL DUP2 MSTORE PUSH1 0x4 ADD PUSH1 0x20 PUSH1 0x40 MLOAD DUP1 DUP4 SUB DUP2 DUP7 GAS STATICCALL ISZERO DUP1 ISZERO PUSH2 0x1293 JUMPI RETURNDATASIZE PUSH0 DUP1 RETURNDATACOPY RETURNDATASIZE PUSH0 REVERT JUMPDEST POP POP POP POP PUSH1 0x40 MLOAD RETURNDATASIZE PUSH1 0x1F NOT PUSH1 0x1F DUP3 ADD AND DUP3 ADD DUP1 PUSH1 0x40 MSTORE POP DUP2 ADD SWAP1 PUSH2 0x12B7 SWAP2 SWAP1 PUSH2 0x327C JUMP JUMPDEST PUSH1 0x40 MLOAD DUP4 PUSH4 0xFFFFFFFF AND PUSH1 0xE0 SHL DUP2 MSTORE PUSH1 0x4 ADD PUSH2 0x12D4 SWAP3 SWAP2 SWAP1 PUSH2 0x32A7 JUMP JUMPDEST PUSH1 0x20 PUSH1 0x40 MLOAD DUP1 DUP4 SUB DUP2 PUSH0 DUP8 GAS CALL ISZERO DUP1 ISZERO PUSH2 0x12F0 JUMPI RETURNDATASIZE PUSH0 DUP1 RETURNDATACOPY RETURNDATASIZE PUSH0 REVERT JUMPDEST POP POP POP POP PUSH1 0x40 MLOAD RETURNDATASIZE PUSH1 0x1F NOT PUSH1 0x1F DUP3 ADD AND DUP3 ADD DUP1 PUSH1 0x40 MSTORE POP DUP2 ADD SWAP1 PUSH2 0x1314 SWAP2 SWAP1 PUSH2 0x327C JUMP JUMPDEST PUSH1 0xB PUSH0 PUSH2 0x100 EXP DUP2 SLOAD DUP2 PUSH20 0xFFFFFFFFFFFFFFFFFFFFFFFFFFFFFFFFFFFFFFFF MUL NOT AND SWAP1 DUP4 PUSH20 0xFFFFFFFFFFFFFFFFFFFFFFFFFFFFFFFFFFFFFFFF AND MUL OR SWAP1 SSTORE POP PUSH2 0x139F CALLER PUSH1 0xA PUSH0 SWAP1 SLOAD SWAP1 PUSH2 0x100 EXP SWAP1 DIV PUSH20 0xFFFFFFFFFFFFFFFFFFFFFFFFFFFFFFFFFFFFFFFF AND PUSH32 0xFFFFFFFFFFFFFFFFFFFFFFFFFFFFFFFFFFFFFFFFFFFFFFFFFFFFFFFFFFFFFFFF PUSH2 0x19EF JUMP JUMPDEST PUSH2 0x13EB ADDRESS PUSH1 0xA PUSH0 SWAP1 SLOAD SWAP1 PUSH2 0x100 EXP SWAP1 DIV PUSH20 0xFFFFFFFFFFFFFFFFFFFFFFFFFFFFFFFFFFFFFFFF AND PUSH32 0xFFFFFFFFFFFFFFFFFFFFFFFFFFFFFFFFFFFFFFFFFFFFFFFFFFFFFFFFFFFFFFFF PUSH2 0x19EF JUMP JUMPDEST CALLER PUSH20 0xFFFFFFFFFFFFFFFFFFFFFFFFFFFFFFFFFFFFFFFF AND PUSH0 PUSH20 0xFFFFFFFFFFFFFFFFFFFFFFFFFFFFFFFFFFFFFFFF AND PUSH32 0xDDF252AD1BE2C89B69C2B068FC378DAA952BA7F163C4A11628F55A4DF523B3EF PUSH1 0x7 SLOAD PUSH1 0x40 MLOAD PUSH2 0x144A SWAP2 SWAP1 PUSH2 0x2A35 JUMP JUMPDEST PUSH1 0x40 MLOAD DUP1 SWAP2 SUB SWAP1 LOG3 POP DUP4 ISZERO PUSH2 0x14AD JUMPI PUSH0 DUP6 PUSH0 ADD PUSH1 0x8 PUSH2 0x100 EXP DUP2 SLOAD DUP2 PUSH1 0xFF MUL NOT AND SWAP1 DUP4 ISZERO ISZERO MUL OR SWAP1 SSTORE POP PUSH32 0xC7F505B2F371AE2175EE4913F4499E1F2633A7B5936321EED1CDAEB6115181D2 PUSH1 0x1 PUSH1 0x40 MLOAD PUSH2 0x14A4 SWAP2 SWAP1 PUSH2 0x331A JUMP JUMPDEST PUSH1 0x40 MLOAD DUP1 SWAP2 SUB SWAP1 LOG1 JUMPDEST POP POP POP POP POP JUMP JUMPDEST PUSH1 0x3 SLOAD DUP2 JUMP JUMPDEST PUSH2 0x14C2 PUSH2 0x1B83 JUMP JUMPDEST PUSH2 0x2710 DUP2 GT ISZERO PUSH2 0x1507 JUMPI PUSH1 0x40 MLOAD PUSH32 0x8C379A000000000000000000000000000000000000000000000000000000000 DUP2 MSTORE PUSH1 0x4 ADD PUSH2 0x14FE SWAP1 PUSH2 0x2F8B JUMP JUMPDEST PUSH1 0x40 MLOAD DUP1 SWAP2 SUB SWAP1 REVERT JUMPDEST DUP1 PUSH1 0x4 DUP2 SWAP1 SSTORE POP PUSH32 0xD3F51AABCF3BCBD05F9260C8CCEC9728DA097C538DD797A90F527E255AE30838 PUSH1 0x4 SLOAD PUSH1 0x40 MLOAD PUSH2 0x153F SWAP2 SWAP1 PUSH2 0x2A35 JUMP JUMPDEST PUSH1 0x40 MLOAD DUP1 SWAP2 SUB SWAP1 LOG1 POP JUMP JUMPDEST PUSH2 0x1552 PUSH2 0x1B83 JUMP JUMPDEST PUSH2 0x2710 DUP2 GT ISZERO PUSH2 0x1597 JUMPI PUSH1 0x40 MLOAD PUSH32 0x8C379A000000000000000000000000000000000000000000000000000000000 DUP2 MSTORE PUSH1 0x4 ADD PUSH2 0x158E SWAP1 PUSH2 0x2F8B JUMP JUMPDEST PUSH1 0x40 MLOAD DUP1 SWAP2 SUB SWAP1 REVERT JUMPDEST DUP1 PUSH1 0x3 DUP2 SWAP1 SSTORE POP PUSH32 0x153E5299255E24F1FD2CEEE40599BFDC41290FD92340FF6173FC24EFD6C299A6 PUSH1 0x3 SLOAD PUSH1 0x40 MLOAD PUSH2 0x15CF SWAP2 SWAP1 PUSH2 0x2A35 JUMP JUMPDEST PUSH1 0x40 MLOAD DUP1 SWAP2 SUB SWAP1 LOG1 POP JUMP JUMPDEST PUSH0 DUP1 PUSH2 0x15E4 PUSH2 0x1E34 JUMP JUMPDEST SWAP1 POP DUP1 PUSH0 ADD PUSH0 SWAP1 SLOAD SWAP1 PUSH2 0x100 EXP SWAP1 DIV PUSH20 0xFFFFFFFFFFFFFFFFFFFFFFFFFFFFFFFFFFFFFFFF AND SWAP2 POP POP SWAP1 JUMP JUMPDEST PUSH1 0x60 PUSH0 PUSH2 0x161A PUSH2 0x19C1 JUMP JUMPDEST SWAP1 POP DUP1 PUSH1 0x4 ADD DUP1 SLOAD PUSH2 0x162B SWAP1 PUSH2 0x2C2F JUMP JUMPDEST DUP1 PUSH1 0x1F ADD PUSH1 0x20 DUP1 SWAP2 DIV MUL PUSH1 0x20 ADD PUSH1 0x40 MLOAD SWAP1 DUP2 ADD PUSH1 0x40 MSTORE DUP1 SWAP3 SWAP2 SWAP1 DUP2 DUP2 MSTORE PUSH1 0x20 ADD DUP3 DUP1 SLOAD PUSH2 0x1657 SWAP1 PUSH2 0x2C2F JUMP JUMPDEST DUP1 ISZERO PUSH2 0x16A2 JUMPI DUP1 PUSH1 0x1F LT PUSH2 0x1679 JUMPI PUSH2 0x100 DUP1 DUP4 SLOAD DIV MUL DUP4 MSTORE SWAP2 PUSH1 0x20 ADD SWAP2 PUSH2 0x16A2 JUMP JUMPDEST DUP3 ADD SWAP2 SWAP1 PUSH0 MSTORE PUSH1 0x20 PUSH0 KECCAK256 SWAP1 JUMPDEST DUP2 SLOAD DUP2 MSTORE SWAP1 PUSH1 0x1 ADD SWAP1 PUSH1 0x20 ADD DUP1 DUP4 GT PUSH2 0x1685 JUMPI DUP3 SWAP1 SUB PUSH1 0x1F AND DUP3 ADD SWAP2 JUMPDEST POP POP POP POP POP SWAP2 POP POP SWAP1 JUMP JUMPDEST PUSH0 DUP1 PUSH2 0x16B7 PUSH2 0x19E8 JUMP JUMPDEST SWAP1 POP PUSH2 0x16C4 DUP2 DUP6 DUP6 PUSH2 0x1A93 JUMP JUMPDEST PUSH1 0x1 SWAP2 POP POP SWAP3 SWAP2 POP POP JUMP JUMPDEST PUSH2 0x16D7 PUSH2 0x1B83 JUMP JUMPDEST PUSH0 PUSH20 0xFFFFFFFFFFFFFFFFFFFFFFFFFFFFFFFFFFFFFFFF AND DUP2 PUSH20 0xFFFFFFFFFFFFFFFFFFFFFFFFFFFFFFFFFFFFFFFF AND SUB PUSH2 0x1745 JUMPI PUSH1 0x40 MLOAD PUSH32 0x8C379A000000000000000000000000000000000000000000000000000000000 DUP2 MSTORE PUSH1 0x4 ADD PUSH2 0x173C SWAP1 PUSH2 0x33A3 JUMP JUMPDEST PUSH1 0x40 MLOAD DUP1 SWAP2 SUB SWAP1 REVERT JUMPDEST DUP1 PUSH1 0x2 PUSH0 PUSH2 0x100 EXP DUP2 SLOAD DUP2 PUSH20 0xFFFFFFFFFFFFFFFFFFFFFFFFFFFFFFFFFFFFFFFF MUL NOT AND SWAP1 DUP4 PUSH20 0xFFFFFFFFFFFFFFFFFFFFFFFFFFFFFFFFFFFFFFFF AND MUL OR SWAP1 SSTORE POP PUSH32 0x5D4A0C152F269A59530B6C3A84F5A90AC341C463C9E6D5D0D04CF75596776E4F PUSH1 0x2 PUSH0 SWAP1 SLOAD SWAP1 PUSH2 0x100 EXP SWAP1 DIV PUSH20 0xFFFFFFFFFFFFFFFFFFFFFFFFFFFFFFFFFFFFFFFF AND PUSH1 0x40 MLOAD PUSH2 0x17D5 SWAP2 SWAP1 PUSH2 0x2BAB JUMP JUMPDEST PUSH1 0x40 MLOAD DUP1 SWAP2 SUB SWAP1 LOG1 POP JUMP JUMPDEST PUSH1 0x1 PUSH0 SWAP1 SLOAD SWAP1 PUSH2 0x100 EXP SWAP1 DIV PUSH20 0xFFFFFFFFFFFFFFFFFFFFFFFFFFFFFFFFFFFFFFFF AND DUP2 JUMP JUMPDEST PUSH1 0xB PUSH0 SWAP1 SLOAD SWAP1 PUSH2 0x100 EXP SWAP1 DIV PUSH20 0xFFFFFFFFFFFFFFFFFFFFFFFFFFFFFFFFFFFFFFFF AND DUP2 JUMP JUMPDEST PUSH1 0x6 SLOAD DUP2 JUMP JUMPDEST PUSH0 DUP1 PUSH2 0x183A PUSH2 0x19C1 JUMP JUMPDEST SWAP1 POP DUP1 PUSH1 0x1 ADD PUSH0 DUP6 PUSH20 0xFFFFFFFFFFFFFFFFFFFFFFFFFFFFFFFFFFFFFFFF AND PUSH20 0xFFFFFFFFFFFFFFFFFFFFFFFFFFFFFFFFFFFFFFFF AND DUP2 MSTORE PUSH1 0x20 ADD SWAP1 DUP2 MSTORE PUSH1 0x20 ADD PUSH0 KECCAK256 PUSH0 DUP5 PUSH20 0xFFFFFFFFFFFFFFFFFFFFFFFFFFFFFFFFFFFFFFFF AND PUSH20 0xFFFFFFFFFFFFFFFFFFFFFFFFFFFFFFFFFFFFFFFF AND DUP2 MSTORE PUSH1 0x20 ADD SWAP1 DUP2 MSTORE PUSH1 0x20 ADD PUSH0 KECCAK256 SLOAD SWAP2 POP POP SWAP3 SWAP2 POP POP JUMP JUMPDEST PUSH1 0x5 SLOAD DUP2 JUMP JUMPDEST PUSH2 0x18CE PUSH2 0x1B83 JUMP JUMPDEST PUSH0 PUSH20 0xFFFFFFFFFFFFFFFFFFFFFFFFFFFFFFFFFFFFFFFF AND DUP2 PUSH20 0xFFFFFFFFFFFFFFFFFFFFFFFFFFFFFFFFFFFFFFFF AND SUB PUSH2 0x193E JUMPI PUSH0 PUSH1 0x40 MLOAD PUSH32 0x1E4FBDF700000000000000000000000000000000000000000000000000000000 DUP2 MSTORE PUSH1 0x4 ADD PUSH2 0x1935 SWAP2 SWAP1 PUSH2 0x2BAB JUMP JUMPDEST PUSH1 0x40 MLOAD DUP1 SWAP2 SUB SWAP1 REVERT JUMPDEST PUSH2 0x1947 DUP2 PUSH2 0x1D08 JUMP JUMPDEST POP JUMP JUMPDEST PUSH0 PUSH1 0x8 PUSH0 DUP4 PUSH20 0xFFFFFFFFFFFFFFFFFFFFFFFFFFFFFFFFFFFFFFFF AND PUSH20 0xFFFFFFFFFFFFFFFFFFFFFFFFFFFFFFFFFFFFFFFF AND DUP2 MSTORE PUSH1 0x20 ADD SWAP1 DUP2 MSTORE PUSH1 0x20 ADD PUSH0 KECCAK256 PUSH0 SWAP1 SLOAD SWAP1 PUSH2 0x100 EXP SWAP1 DIV PUSH1 0xFF AND SWAP1 POP SWAP2 SWAP1 POP JUMP JUMPDEST PUSH1 0x2 PUSH0 SWAP1 SLOAD SWAP1 PUSH2 0x100 EXP SWAP1 DIV PUSH20 0xFFFFFFFFFFFFFFFFFFFFFFFFFFFFFFFFFFFFFFFF AND DUP2 JUMP JUMPDEST PUSH0 PUSH32 0x52C63247E1F47DB19D5CE0460030C497F067CA4CEBF71BA98EEADABE20BACE00 SWAP1 POP SWAP1 JUMP JUMPDEST PUSH0 CALLER SWAP1 POP SWAP1 JUMP JUMPDEST PUSH2 0x19FC DUP4 DUP4 DUP4 PUSH1 0x1 PUSH2 0x1E5B JUMP JUMPDEST POP POP POP JUMP JUMPDEST PUSH0 PUSH2 0x1A0C DUP5 DUP5 PUSH2 0x1830 JUMP JUMPDEST SWAP1 POP PUSH32 0xFFFFFFFFFFFFFFFFFFFFFFFFFFFFFFFFFFFFFFFFFFFFFFFFFFFFFFFFFFFFFFFF DUP2 EQ PUSH2 0x1A8D JUMPI DUP2 DUP2 LT ISZERO PUSH2 0x1A7E JUMPI DUP3 DUP2 DUP4 PUSH1 0x40 MLOAD PUSH32 0xFB8F41B200000000000000000000000000000000000000000000000000000000 DUP2 MSTORE PUSH1 0x4 ADD PUSH2 0x1A75 SWAP4 SWAP3 SWAP2 SWAP1 PUSH2 0x33C1 JUMP JUMPDEST PUSH1 0x40 MLOAD DUP1 SWAP2 SUB SWAP1 REVERT JUMPDEST PUSH2 0x1A8C DUP5 DUP5 DUP5 DUP5 SUB PUSH0 PUSH2 0x1E5B JUMP JUMPDEST JUMPDEST POP POP POP POP JUMP JUMPDEST PUSH0 PUSH20 0xFFFFFFFFFFFFFFFFFFFFFFFFFFFFFFFFFFFFFFFF AND DUP4 PUSH20 0xFFFFFFFFFFFFFFFFFFFFFFFFFFFFFFFFFFFFFFFF AND SUB PUSH2 0x1B03 JUMPI PUSH0 PUSH1 0x40 MLOAD PUSH32 0x96C6FD1E00000000000000000000000000000000000000000000000000000000 DUP2 MSTORE PUSH1 0x4 ADD PUSH2 0x1AFA SWAP2 SWAP1 PUSH2 0x2BAB JUMP JUMPDEST PUSH1 0x40 MLOAD DUP1 SWAP2 SUB SWAP1 REVERT JUMPDEST PUSH0 PUSH20 0xFFFFFFFFFFFFFFFFFFFFFFFFFFFFFFFFFFFFFFFF AND DUP3 PUSH20 0xFFFFFFFFFFFFFFFFFFFFFFFFFFFFFFFFFFFFFFFF AND SUB PUSH2 0x1B73 JUMPI PUSH0 PUSH1 0x40 MLOAD PUSH32 0xEC442F0500000000000000000000000000000000000000000000000000000000 DUP2 MSTORE PUSH1 0x4 ADD PUSH2 0x1B6A SWAP2 SWAP1 PUSH2 0x2BAB JUMP JUMPDEST PUSH1 0x40 MLOAD DUP1 SWAP2 SUB SWAP1 REVERT JUMPDEST PUSH2 0x1B7E DUP4 DUP4 DUP4 PUSH2 0x2038 JUMP JUMPDEST POP POP POP JUMP JUMPDEST PUSH2 0x1B8B PUSH2 0x19E8 JUMP JUMPDEST PUSH20 0xFFFFFFFFFFFFFFFFFFFFFFFFFFFFFFFFFFFFFFFF AND PUSH2 0x1BA9 PUSH2 0x15DA JUMP JUMPDEST PUSH20 0xFFFFFFFFFFFFFFFFFFFFFFFFFFFFFFFFFFFFFFFF AND EQ PUSH2 0x1C08 JUMPI PUSH2 0x1BCC PUSH2 0x19E8 JUMP JUMPDEST PUSH1 0x40 MLOAD PUSH32 0x118CDAA700000000000000000000000000000000000000000000000000000000 DUP2 MSTORE PUSH1 0x4 ADD PUSH2 0x1BFF SWAP2 SWAP1 PUSH2 0x2BAB JUMP JUMPDEST PUSH1 0x40 MLOAD DUP1 SWAP2 SUB SWAP1 REVERT JUMPDEST JUMP JUMPDEST PUSH0 PUSH20 0xFFFFFFFFFFFFFFFFFFFFFFFFFFFFFFFFFFFFFFFF AND DUP3 PUSH20 0xFFFFFFFFFFFFFFFFFFFFFFFFFFFFFFFFFFFFFFFF AND SUB PUSH2 0x1C7A JUMPI PUSH0 PUSH1 0x40 MLOAD PUSH32 0xEC442F0500000000000000000000000000000000000000000000000000000000 DUP2 MSTORE PUSH1 0x4 ADD PUSH2 0x1C71 SWAP2 SWAP1 PUSH2 0x2BAB JUMP JUMPDEST PUSH1 0x40 MLOAD DUP1 SWAP2 SUB SWAP1 REVERT JUMPDEST PUSH2 0x1C85 PUSH0 DUP4 DUP4 PUSH2 0x2038 JUMP JUMPDEST POP POP JUMP JUMPDEST PUSH0 PUSH20 0xFFFFFFFFFFFFFFFFFFFFFFFFFFFFFFFFFFFFFFFF AND DUP3 PUSH20 0xFFFFFFFFFFFFFFFFFFFFFFFFFFFFFFFFFFFFFFFF AND SUB PUSH2 0x1CF9 JUMPI PUSH0 PUSH1 0x40 MLOAD PUSH32 0x96C6FD1E00000000000000000000000000000000000000000000000000000000 DUP2 MSTORE PUSH1 0x4 ADD PUSH2 0x1CF0 SWAP2 SWAP1 PUSH2 0x2BAB JUMP JUMPDEST PUSH1 0x40 MLOAD DUP1 SWAP2 SUB SWAP1 REVERT JUMPDEST PUSH2 0x1D04 DUP3 PUSH0 DUP4 PUSH2 0x2038 JUMP JUMPDEST POP POP JUMP JUMPDEST PUSH0 PUSH2 0x1D11 PUSH2 0x1E34 JUMP JUMPDEST SWAP1 POP PUSH0 DUP2 PUSH0 ADD PUSH0 SWAP1 SLOAD SWAP1 PUSH2 0x100 EXP SWAP1 DIV PUSH20 0xFFFFFFFFFFFFFFFFFFFFFFFFFFFFFFFFFFFFFFFF AND SWAP1 POP DUP3 DUP3 PUSH0 ADD PUSH0 PUSH2 0x100 EXP DUP2 SLOAD DUP2 PUSH20 0xFFFFFFFFFFFFFFFFFFFFFFFFFFFFFFFFFFFFFFFF MUL NOT AND SWAP1 DUP4 PUSH20 0xFFFFFFFFFFFFFFFFFFFFFFFFFFFFFFFFFFFFFFFF AND MUL OR SWAP1 SSTORE POP DUP3 PUSH20 0xFFFFFFFFFFFFFFFFFFFFFFFFFFFFFFFFFFFFFFFF AND DUP2 PUSH20 0xFFFFFFFFFFFFFFFFFFFFFFFFFFFFFFFFFFFFFFFF AND PUSH32 0x8BE0079C531659141344CD1FD0A4F28419497F9722A3DAAFE3B4186F6B6457E0 PUSH1 0x40 MLOAD PUSH1 0x40 MLOAD DUP1 SWAP2 SUB SWAP1 LOG3 POP POP POP JUMP JUMPDEST PUSH0 PUSH32 0xF0C57E16840DF040F15088DC2F81FE391C3923BEC73E23A9662EFC9C229C6A00 SWAP1 POP SWAP1 JUMP JUMPDEST PUSH2 0x1E08 PUSH2 0x250B JUMP JUMPDEST PUSH2 0x1E11 DUP2 PUSH2 0x254B JUMP JUMPDEST POP JUMP JUMPDEST PUSH2 0x1E1C PUSH2 0x250B JUMP JUMPDEST JUMP JUMPDEST PUSH2 0x1E26 PUSH2 0x250B JUMP JUMPDEST PUSH2 0x1E30 DUP3 DUP3 PUSH2 0x25CF JUMP JUMPDEST POP POP JUMP JUMPDEST PUSH0 PUSH32 0x9016D09D72D40FDAE2FD8CEAC6B6234C7706214FD39C1CD1E609A0528C199300 SWAP1 POP SWAP1 JUMP JUMPDEST PUSH0 PUSH2 0x1E64 PUSH2 0x19C1 JUMP JUMPDEST SWAP1 POP PUSH0 PUSH20 0xFFFFFFFFFFFFFFFFFFFFFFFFFFFFFFFFFFFFFFFF AND DUP6 PUSH20 0xFFFFFFFFFFFFFFFFFFFFFFFFFFFFFFFFFFFFFFFF AND SUB PUSH2 0x1ED6 JUMPI PUSH0 PUSH1 0x40 MLOAD PUSH32 0xE602DF0500000000000000000000000000000000000000000000000000000000 DUP2 MSTORE PUSH1 0x4 ADD PUSH2 0x1ECD SWAP2 SWAP1 PUSH2 0x2BAB JUMP JUMPDEST PUSH1 0x40 MLOAD DUP1 SWAP2 SUB SWAP1 REVERT JUMPDEST PUSH0 PUSH20 0xFFFFFFFFFFFFFFFFFFFFFFFFFFFFFFFFFFFFFFFF AND DUP5 PUSH20 0xFFFFFFFFFFFFFFFFFFFFFFFFFFFFFFFFFFFFFFFF AND SUB PUSH2 0x1F46 JUMPI PUSH0 PUSH1 0x40 MLOAD PUSH32 0x94280D6200000000000000000000000000000000000000000000000000000000 DUP2 MSTORE PUSH1 0x4 ADD PUSH2 0x1F3D SWAP2 SWAP1 PUSH2 0x2BAB JUMP JUMPDEST PUSH1 0x40 MLOAD DUP1 SWAP2 SUB SWAP1 REVERT JUMPDEST DUP3 DUP2 PUSH1 0x1 ADD PUSH0 DUP8 PUSH20 0xFFFFFFFFFFFFFFFFFFFFFFFFFFFFFFFFFFFFFFFF AND PUSH20 0xFFFFFFFFFFFFFFFFFFFFFFFFFFFFFFFFFFFFFFFF AND DUP2 MSTORE PUSH1 0x20 ADD SWAP1 DUP2 MSTORE PUSH1 0x20 ADD PUSH0 KECCAK256 PUSH0 DUP7 PUSH20 0xFFFFFFFFFFFFFFFFFFFFFFFFFFFFFFFFFFFFFFFF AND PUSH20 0xFFFFFFFFFFFFFFFFFFFFFFFFFFFFFFFFFFFFFFFF AND DUP2 MSTORE PUSH1 0x20 ADD SWAP1 DUP2 MSTORE PUSH1 0x20 ADD PUSH0 KECCAK256 DUP2 SWAP1 SSTORE POP DUP2 ISZERO PUSH2 0x2031 JUMPI DUP4 PUSH20 0xFFFFFFFFFFFFFFFFFFFFFFFFFFFFFFFFFFFFFFFF AND DUP6 PUSH20 0xFFFFFFFFFFFFFFFFFFFFFFFFFFFFFFFFFFFFFFFF AND PUSH32 0x8C5BE1E5EBEC7D5BD14F71427D1E84F3DD0314C0F7B2291E5B200AC8C7C3B925 DUP6 PUSH1 0x40 MLOAD PUSH2 0x2028 SWAP2 SWAP1 PUSH2 0x2A35 JUMP JUMPDEST PUSH1 0x40 MLOAD DUP1 SWAP2 SUB SWAP1 LOG3 JUMPDEST POP POP POP POP POP JUMP JUMPDEST PUSH0 PUSH20 0xFFFFFFFFFFFFFFFFFFFFFFFFFFFFFFFFFFFFFFFF AND DUP4 PUSH20 0xFFFFFFFFFFFFFFFFFFFFFFFFFFFFFFFFFFFFFFFF AND SUB PUSH2 0x20A6 JUMPI PUSH1 0x40 MLOAD PUSH32 0x8C379A000000000000000000000000000000000000000000000000000000000 DUP2 MSTORE PUSH1 0x4 ADD PUSH2 0x209D SWAP1 PUSH2 0x3466 JUMP JUMPDEST PUSH1 0x40 MLOAD DUP1 SWAP2 SUB SWAP1 REVERT JUMPDEST PUSH0 PUSH20 0xFFFFFFFFFFFFFFFFFFFFFFFFFFFFFFFFFFFFFFFF AND DUP3 PUSH20 0xFFFFFFFFFFFFFFFFFFFFFFFFFFFFFFFFFFFFFFFF AND SUB PUSH2 0x2114 JUMPI PUSH1 0x40 MLOAD PUSH32 0x8C379A000000000000000000000000000000000000000000000000000000000 DUP2 MSTORE PUSH1 0x4 ADD PUSH2 0x210B SWAP1 PUSH2 0x34F4 JUMP JUMPDEST PUSH1 0x40 MLOAD DUP1 SWAP2 SUB SWAP1 REVERT JUMPDEST PUSH0 DUP2 GT PUSH2 0x2156 JUMPI PUSH1 0x40 MLOAD PUSH32 0x8C379A000000000000000000000000000000000000000000000000000000000 DUP2 MSTORE PUSH1 0x4 ADD PUSH2 0x214D SWAP1 PUSH2 0x3582 JUMP JUMPDEST PUSH1 0x40 MLOAD DUP1 SWAP2 SUB SWAP1 REVERT JUMPDEST PUSH1 0x8 PUSH0 DUP5 PUSH20 0xFFFFFFFFFFFFFFFFFFFFFFFFFFFFFFFFFFFFFFFF AND PUSH20 0xFFFFFFFFFFFFFFFFFFFFFFFFFFFFFFFFFFFFFFFF AND DUP2 MSTORE PUSH1 0x20 ADD SWAP1 DUP2 MSTORE PUSH1 0x20 ADD PUSH0 KECCAK256 PUSH0 SWAP1 SLOAD SWAP1 PUSH2 0x100 EXP SWAP1 DIV PUSH1 0xFF AND ISZERO PUSH2 0x21E0 JUMPI PUSH1 0x40 MLOAD PUSH32 0x8C379A000000000000000000000000000000000000000000000000000000000 DUP2 MSTORE PUSH1 0x4 ADD PUSH2 0x21D7 SWAP1 PUSH2 0x35EA JUMP JUMPDEST PUSH1 0x40 MLOAD DUP1 SWAP2 SUB SWAP1 REVERT JUMPDEST PUSH1 0x8 PUSH0 DUP4 PUSH20 0xFFFFFFFFFFFFFFFFFFFFFFFFFFFFFFFFFFFFFFFF AND PUSH20 0xFFFFFFFFFFFFFFFFFFFFFFFFFFFFFFFFFFFFFFFF AND DUP2 MSTORE PUSH1 0x20 ADD SWAP1 DUP2 MSTORE PUSH1 0x20 ADD PUSH0 KECCAK256 PUSH0 SWAP1 SLOAD SWAP1 PUSH2 0x100 EXP SWAP1 DIV PUSH1 0xFF AND ISZERO PUSH2 0x226A JUMPI PUSH1 0x40 MLOAD PUSH32 0x8C379A000000000000000000000000000000000000000000000000000000000 DUP2 MSTORE PUSH1 0x4 ADD PUSH2 0x2261 SWAP1 PUSH2 0x3652 JUMP JUMPDEST PUSH1 0x40 MLOAD DUP1 SWAP2 SUB SWAP1 REVERT JUMPDEST PUSH2 0x2272 PUSH2 0x15DA JUMP JUMPDEST PUSH20 0xFFFFFFFFFFFFFFFFFFFFFFFFFFFFFFFFFFFFFFFF AND DUP4 PUSH20 0xFFFFFFFFFFFFFFFFFFFFFFFFFFFFFFFFFFFFFFFF AND EQ DUP1 PUSH2 0x22DD JUMPI POP PUSH2 0x22AE PUSH2 0x15DA JUMP JUMPDEST PUSH20 0xFFFFFFFFFFFFFFFFFFFFFFFFFFFFFFFFFFFFFFFF AND DUP3 PUSH20 0xFFFFFFFFFFFFFFFFFFFFFFFFFFFFFFFFFFFFFFFF AND EQ JUMPDEST DUP1 PUSH2 0x2313 JUMPI POP ADDRESS PUSH20 0xFFFFFFFFFFFFFFFFFFFFFFFFFFFFFFFFFFFFFFFF AND DUP4 PUSH20 0xFFFFFFFFFFFFFFFFFFFFFFFFFFFFFFFFFFFFFFFF AND EQ JUMPDEST ISZERO PUSH2 0x2328 JUMPI PUSH2 0x2323 DUP4 DUP4 DUP4 PUSH2 0x260B JUMP JUMPDEST PUSH2 0x2506 JUMP JUMPDEST PUSH0 PUSH1 0xB PUSH0 SWAP1 SLOAD SWAP1 PUSH2 0x100 EXP SWAP1 DIV PUSH20 0xFFFFFFFFFFFFFFFFFFFFFFFFFFFFFFFFFFFFFFFF AND PUSH20 0xFFFFFFFFFFFFFFFFFFFFFFFFFFFFFFFFFFFFFFFF AND DUP5 PUSH20 0xFFFFFFFFFFFFFFFFFFFFFFFFFFFFFFFFFFFFFFFF AND EQ SWAP1 POP PUSH0 PUSH1 0xB PUSH0 SWAP1 SLOAD SWAP1 PUSH2 0x100 EXP SWAP1 DIV PUSH20 0xFFFFFFFFFFFFFFFFFFFFFFFFFFFFFFFFFFFFFFFF AND PUSH20 0xFFFFFFFFFFFFFFFFFFFFFFFFFFFFFFFFFFFFFFFF AND DUP5 PUSH20 0xFFFFFFFFFFFFFFFFFFFFFFFFFFFFFFFFFFFFFFFF AND EQ SWAP1 POP PUSH0 DUP1 PUSH0 DUP5 DUP1 PUSH2 0x23DA JUMPI POP DUP4 JUMPDEST ISZERO PUSH2 0x24D1 JUMPI PUSH1 0x6 SLOAD DUP7 GT ISZERO PUSH2 0x2424 JUMPI PUSH1 0x40 MLOAD PUSH32 0x8C379A000000000000000000000000000000000000000000000000000000000 DUP2 MSTORE PUSH1 0x4 ADD PUSH2 0x241B SWAP1 PUSH2 0x36E0 JUMP JUMPDEST PUSH1 0x40 MLOAD DUP1 SWAP2 SUB SWAP1 REVERT JUMPDEST PUSH2 0x2430 DUP7 PUSH1 0x3 SLOAD PUSH2 0x283A JUMP JUMPDEST SWAP3 POP PUSH2 0x243E DUP7 PUSH1 0x4 SLOAD PUSH2 0x283A JUMP JUMPDEST SWAP2 POP PUSH2 0x244C DUP7 PUSH1 0x5 SLOAD PUSH2 0x283A JUMP JUMPDEST SWAP1 POP PUSH2 0x2478 DUP9 PUSH0 DUP1 SLOAD SWAP1 PUSH2 0x100 EXP SWAP1 DIV PUSH20 0xFFFFFFFFFFFFFFFFFFFFFFFFFFFFFFFFFFFFFFFF AND DUP6 PUSH2 0x260B JUMP JUMPDEST PUSH2 0x24A4 DUP9 PUSH1 0x1 PUSH0 SWAP1 SLOAD SWAP1 PUSH2 0x100 EXP SWAP1 DIV PUSH20 0xFFFFFFFFFFFFFFFFFFFFFFFFFFFFFFFFFFFFFFFF AND DUP5 PUSH2 0x260B JUMP JUMPDEST PUSH2 0x24D0 DUP9 PUSH1 0x2 PUSH0 SWAP1 SLOAD SWAP1 PUSH2 0x100 EXP SWAP1 DIV PUSH20 0xFFFFFFFFFFFFFFFFFFFFFFFFFFFFFFFFFFFFFFFF AND DUP4 PUSH2 0x260B JUMP JUMPDEST JUMPDEST DUP1 DUP3 DUP5 PUSH2 0x24DE SWAP2 SWAP1 PUSH2 0x36FE JUMP JUMPDEST PUSH2 0x24E8 SWAP2 SWAP1 PUSH2 0x36FE JUMP JUMPDEST DUP7 PUSH2 0x24F3 SWAP2 SWAP1 PUSH2 0x3731 JUMP JUMPDEST SWAP6 POP PUSH2 0x2500 DUP9 DUP9 DUP9 PUSH2 0x260B JUMP JUMPDEST POP POP POP POP POP JUMPDEST POP POP POP JUMP JUMPDEST PUSH2 0x2513 PUSH2 0x285C JUMP JUMPDEST PUSH2 0x2549 JUMPI PUSH1 0x40 MLOAD PUSH32 0xD7E6BCF800000000000000000000000000000000000000000000000000000000 DUP2 MSTORE PUSH1 0x4 ADD PUSH1 0x40 MLOAD DUP1 SWAP2 SUB SWAP1 REVERT JUMPDEST JUMP JUMPDEST PUSH2 0x2553 PUSH2 0x250B JUMP JUMPDEST PUSH0 PUSH20 0xFFFFFFFFFFFFFFFFFFFFFFFFFFFFFFFFFFFFFFFF AND DUP2 PUSH20 0xFFFFFFFFFFFFFFFFFFFFFFFFFFFFFFFFFFFFFFFF AND SUB PUSH2 0x25C3 JUMPI PUSH0 PUSH1 0x40 MLOAD PUSH32 0x1E4FBDF700000000000000000000000000000000000000000000000000000000 DUP2 MSTORE PUSH1 0x4 ADD PUSH2 0x25BA SWAP2 SWAP1 PUSH2 0x2BAB JUMP JUMPDEST PUSH1 0x40 MLOAD DUP1 SWAP2 SUB SWAP1 REVERT JUMPDEST PUSH2 0x25CC DUP2 PUSH2 0x1D08 JUMP JUMPDEST POP JUMP JUMPDEST PUSH2 0x25D7 PUSH2 0x250B JUMP JUMPDEST PUSH0 PUSH2 0x25E0 PUSH2 0x19C1 JUMP JUMPDEST SWAP1 POP DUP3 DUP2 PUSH1 0x3 ADD SWAP1 DUP2 PUSH2 0x25F3 SWAP2 SWAP1 PUSH2 0x3925 JUMP JUMPDEST POP DUP2 DUP2 PUSH1 0x4 ADD SWAP1 DUP2 PUSH2 0x2605 SWAP2 SWAP1 PUSH2 0x3925 JUMP JUMPDEST POP POP POP POP JUMP JUMPDEST PUSH0 PUSH2 0x2614 PUSH2 0x19C1 JUMP JUMPDEST SWAP1 POP PUSH0 PUSH20 0xFFFFFFFFFFFFFFFFFFFFFFFFFFFFFFFFFFFFFFFF AND DUP5 PUSH20 0xFFFFFFFFFFFFFFFFFFFFFFFFFFFFFFFFFFFFFFFF AND SUB PUSH2 0x2668 JUMPI DUP2 DUP2 PUSH1 0x2 ADD PUSH0 DUP3 DUP3 SLOAD PUSH2 0x265C SWAP2 SWAP1 PUSH2 0x36FE JUMP JUMPDEST SWAP3 POP POP DUP2 SWAP1 SSTORE POP PUSH2 0x273A JUMP JUMPDEST PUSH0 DUP2 PUSH0 ADD PUSH0 DUP7 PUSH20 0xFFFFFFFFFFFFFFFFFFFFFFFFFFFFFFFFFFFFFFFF AND PUSH20 0xFFFFFFFFFFFFFFFFFFFFFFFFFFFFFFFFFFFFFFFF AND DUP2 MSTORE PUSH1 0x20 ADD SWAP1 DUP2 MSTORE PUSH1 0x20 ADD PUSH0 KECCAK256 SLOAD SWAP1 POP DUP3 DUP2 LT ISZERO PUSH2 0x26F3 JUMPI DUP5 DUP2 DUP5 PUSH1 0x40 MLOAD PUSH32 0xE450D38C00000000000000000000000000000000000000000000000000000000 DUP2 MSTORE PUSH1 0x4 ADD PUSH2 0x26EA SWAP4 SWAP3 SWAP2 SWAP1 PUSH2 0x33C1 JUMP JUMPDEST PUSH1 0x40 MLOAD DUP1 SWAP2 SUB SWAP1 REVERT JUMPDEST DUP3 DUP2 SUB DUP3 PUSH0 ADD PUSH0 DUP8 PUSH20 0xFFFFFFFFFFFFFFFFFFFFFFFFFFFFFFFFFFFFFFFF AND PUSH20 0xFFFFFFFFFFFFFFFFFFFFFFFFFFFFFFFFFFFFFFFF AND DUP2 MSTORE PUSH1 0x20 ADD SWAP1 DUP2 MSTORE PUSH1 0x20 ADD PUSH0 KECCAK256 DUP2 SWAP1 SSTORE POP POP JUMPDEST PUSH0 PUSH20 0xFFFFFFFFFFFFFFFFFFFFFFFFFFFFFFFFFFFFFFFF AND DUP4 PUSH20 0xFFFFFFFFFFFFFFFFFFFFFFFFFFFFFFFFFFFFFFFF AND SUB PUSH2 0x2783 JUMPI DUP2 DUP2 PUSH1 0x2 ADD PUSH0 DUP3 DUP3 SLOAD SUB SWAP3 POP POP DUP2 SWAP1 SSTORE POP PUSH2 0x27CF JUMP JUMPDEST DUP2 DUP2 PUSH0 ADD PUSH0 DUP6 PUSH20 0xFFFFFFFFFFFFFFFFFFFFFFFFFFFFFFFFFFFFFFFF AND PUSH20 0xFFFFFFFFFFFFFFFFFFFFFFFFFFFFFFFFFFFFFFFF AND DUP2 MSTORE PUSH1 0x20 ADD SWAP1 DUP2 MSTORE PUSH1 0x20 ADD PUSH0 KECCAK256 PUSH0 DUP3 DUP3 SLOAD ADD SWAP3 POP POP DUP2 SWAP1 SSTORE POP JUMPDEST DUP3 PUSH20 0xFFFFFFFFFFFFFFFFFFFFFFFFFFFFFFFFFFFFFFFF AND DUP5 PUSH20 0xFFFFFFFFFFFFFFFFFFFFFFFFFFFFFFFFFFFFFFFF AND PUSH32 0xDDF252AD1BE2C89B69C2B068FC378DAA952BA7F163C4A11628F55A4DF523B3EF DUP5 PUSH1 0x40 MLOAD PUSH2 0x282C SWAP2 SWAP1 PUSH2 0x2A35 JUMP JUMPDEST PUSH1 0x40 MLOAD DUP1 SWAP2 SUB SWAP1 LOG3 POP POP POP POP JUMP JUMPDEST PUSH0 PUSH2 0x2710 DUP3 DUP5 PUSH2 0x284A SWAP2 SWAP1 PUSH2 0x31DD JUMP JUMPDEST PUSH2 0x2854 SWAP2 SWAP1 PUSH2 0x3A21 JUMP JUMPDEST SWAP1 POP SWAP3 SWAP2 POP POP JUMP JUMPDEST PUSH0 PUSH2 0x2865 PUSH2 0x1DD9 JUMP JUMPDEST PUSH0 ADD PUSH1 0x8 SWAP1 SLOAD SWAP1 PUSH2 0x100 EXP SWAP1 DIV PUSH1 0xFF AND SWAP1 POP SWAP1 JUMP JUMPDEST PUSH0 DUP2 MLOAD SWAP1 POP SWAP2 SWAP1 POP JUMP JUMPDEST PUSH0 DUP3 DUP3 MSTORE PUSH1 0x20 DUP3 ADD SWAP1 POP SWAP3 SWAP2 POP POP JUMP JUMPDEST PUSH0 JUMPDEST DUP4 DUP2 LT ISZERO PUSH2 0x28B1 JUMPI DUP1 DUP3 ADD MLOAD DUP2 DUP5 ADD MSTORE PUSH1 0x20 DUP2 ADD SWAP1 POP PUSH2 0x2896 JUMP JUMPDEST PUSH0 DUP5 DUP5 ADD MSTORE POP POP POP POP JUMP JUMPDEST PUSH0 PUSH1 0x1F NOT PUSH1 0x1F DUP4 ADD AND SWAP1 POP SWAP2 SWAP1 POP JUMP JUMPDEST PUSH0 PUSH2 0x28D6 DUP3 PUSH2 0x287A JUMP JUMPDEST PUSH2 0x28E0 DUP2 DUP6 PUSH2 0x2884 JUMP JUMPDEST SWAP4 POP PUSH2 0x28F0 DUP2 DUP6 PUSH1 0x20 DUP7 ADD PUSH2 0x2894 JUMP JUMPDEST PUSH2 0x28F9 DUP2 PUSH2 0x28BC JUMP JUMPDEST DUP5 ADD SWAP2 POP POP SWAP3 SWAP2 POP POP JUMP JUMPDEST PUSH0 PUSH1 0x20 DUP3 ADD SWAP1 POP DUP2 DUP2 SUB PUSH0 DUP4 ADD MSTORE PUSH2 0x291C DUP2 DUP5 PUSH2 0x28CC JUMP JUMPDEST SWAP1 POP SWAP3 SWAP2 POP POP JUMP JUMPDEST PUSH0 DUP1 REVERT JUMPDEST PUSH0 PUSH20 0xFFFFFFFFFFFFFFFFFFFFFFFFFFFFFFFFFFFFFFFF DUP3 AND SWAP1 POP SWAP2 SWAP1 POP JUMP JUMPDEST PUSH0 PUSH2 0x2951 DUP3 PUSH2 0x2928 JUMP JUMPDEST SWAP1 POP SWAP2 SWAP1 POP JUMP JUMPDEST PUSH2 0x2961 DUP2 PUSH2 0x2947 JUMP JUMPDEST DUP2 EQ PUSH2 0x296B JUMPI PUSH0 DUP1 REVERT JUMPDEST POP JUMP JUMPDEST PUSH0 DUP2 CALLDATALOAD SWAP1 POP PUSH2 0x297C DUP2 PUSH2 0x2958 JUMP JUMPDEST SWAP3 SWAP2 POP POP JUMP JUMPDEST PUSH0 DUP2 SWAP1 POP SWAP2 SWAP1 POP JUMP JUMPDEST PUSH2 0x2994 DUP2 PUSH2 0x2982 JUMP JUMPDEST DUP2 EQ PUSH2 0x299E JUMPI PUSH0 DUP1 REVERT JUMPDEST POP JUMP JUMPDEST PUSH0 DUP2 CALLDATALOAD SWAP1 POP PUSH2 0x29AF DUP2 PUSH2 0x298B JUMP JUMPDEST SWAP3 SWAP2 POP POP JUMP JUMPDEST PUSH0 DUP1 PUSH1 0x40 DUP4 DUP6 SUB SLT ISZERO PUSH2 0x29CB JUMPI PUSH2 0x29CA PUSH2 0x2924 JUMP JUMPDEST JUMPDEST PUSH0 PUSH2 0x29D8 DUP6 DUP3 DUP7 ADD PUSH2 0x296E JUMP JUMPDEST SWAP3 POP POP PUSH1 0x20 PUSH2 0x29E9 DUP6 DUP3 DUP7 ADD PUSH2 0x29A1 JUMP JUMPDEST SWAP2 POP POP SWAP3 POP SWAP3 SWAP1 POP JUMP JUMPDEST PUSH0 DUP2 ISZERO ISZERO SWAP1 POP SWAP2 SWAP1 POP JUMP JUMPDEST PUSH2 0x2A07 DUP2 PUSH2 0x29F3 JUMP JUMPDEST DUP3 MSTORE POP POP JUMP JUMPDEST PUSH0 PUSH1 0x20 DUP3 ADD SWAP1 POP PUSH2 0x2A20 PUSH0 DUP4 ADD DUP5 PUSH2 0x29FE JUMP JUMPDEST SWAP3 SWAP2 POP POP JUMP JUMPDEST PUSH2 0x2A2F DUP2 PUSH2 0x2982 JUMP JUMPDEST DUP3 MSTORE POP POP JUMP JUMPDEST PUSH0 PUSH1 0x20 DUP3 ADD SWAP1 POP PUSH2 0x2A48 PUSH0 DUP4 ADD DUP5 PUSH2 0x2A26 JUMP JUMPDEST SWAP3 SWAP2 POP POP JUMP JUMPDEST PUSH0 DUP2 SWAP1 POP SWAP2 SWAP1 POP JUMP JUMPDEST PUSH0 PUSH2 0x2A71 PUSH2 0x2A6C PUSH2 0x2A67 DUP5 PUSH2 0x2928 JUMP JUMPDEST PUSH2 0x2A4E JUMP JUMPDEST PUSH2 0x2928 JUMP JUMPDEST SWAP1 POP SWAP2 SWAP1 POP JUMP JUMPDEST PUSH0 PUSH2 0x2A82 DUP3 PUSH2 0x2A57 JUMP JUMPDEST SWAP1 POP SWAP2 SWAP1 POP JUMP JUMPDEST PUSH0 PUSH2 0x2A93 DUP3 PUSH2 0x2A78 JUMP JUMPDEST SWAP1 POP SWAP2 SWAP1 POP JUMP JUMPDEST PUSH2 0x2AA3 DUP2 PUSH2 0x2A89 JUMP JUMPDEST DUP3 MSTORE POP POP JUMP JUMPDEST PUSH0 PUSH1 0x20 DUP3 ADD SWAP1 POP PUSH2 0x2ABC PUSH0 DUP4 ADD DUP5 PUSH2 0x2A9A JUMP JUMPDEST SWAP3 SWAP2 POP POP JUMP JUMPDEST PUSH0 DUP1 PUSH0 PUSH1 0x60 DUP5 DUP7 SUB SLT ISZERO PUSH2 0x2AD9 JUMPI PUSH2 0x2AD8 PUSH2 0x2924 JUMP JUMPDEST JUMPDEST PUSH0 PUSH2 0x2AE6 DUP7 DUP3 DUP8 ADD PUSH2 0x296E JUMP JUMPDEST SWAP4 POP POP PUSH1 0x20 PUSH2 0x2AF7 DUP7 DUP3 DUP8 ADD PUSH2 0x296E JUMP JUMPDEST SWAP3 POP POP PUSH1 0x40 PUSH2 0x2B08 DUP7 DUP3 DUP8 ADD PUSH2 0x29A1 JUMP JUMPDEST SWAP2 POP POP SWAP3 POP SWAP3 POP SWAP3 JUMP JUMPDEST PUSH0 PUSH1 0xFF DUP3 AND SWAP1 POP SWAP2 SWAP1 POP JUMP JUMPDEST PUSH2 0x2B27 DUP2 PUSH2 0x2B12 JUMP JUMPDEST DUP3 MSTORE POP POP JUMP JUMPDEST PUSH0 PUSH1 0x20 DUP3 ADD SWAP1 POP PUSH2 0x2B40 PUSH0 DUP4 ADD DUP5 PUSH2 0x2B1E JUMP JUMPDEST SWAP3 SWAP2 POP POP JUMP JUMPDEST PUSH0 PUSH1 0x20 DUP3 DUP5 SUB SLT ISZERO PUSH2 0x2B5B JUMPI PUSH2 0x2B5A PUSH2 0x2924 JUMP JUMPDEST JUMPDEST PUSH0 PUSH2 0x2B68 DUP5 DUP3 DUP6 ADD PUSH2 0x29A1 JUMP JUMPDEST SWAP2 POP POP SWAP3 SWAP2 POP POP JUMP JUMPDEST PUSH0 PUSH1 0x20 DUP3 DUP5 SUB SLT ISZERO PUSH2 0x2B86 JUMPI PUSH2 0x2B85 PUSH2 0x2924 JUMP JUMPDEST JUMPDEST PUSH0 PUSH2 0x2B93 DUP5 DUP3 DUP6 ADD PUSH2 0x296E JUMP JUMPDEST SWAP2 POP POP SWAP3 SWAP2 POP POP JUMP JUMPDEST PUSH2 0x2BA5 DUP2 PUSH2 0x2947 JUMP JUMPDEST DUP3 MSTORE POP POP JUMP JUMPDEST PUSH0 PUSH1 0x20 DUP3 ADD SWAP1 POP PUSH2 0x2BBE PUSH0 DUP4 ADD DUP5 PUSH2 0x2B9C JUMP JUMPDEST SWAP3 SWAP2 POP POP JUMP JUMPDEST PUSH0 DUP1 PUSH1 0x40 DUP4 DUP6 SUB SLT ISZERO PUSH2 0x2BDA JUMPI PUSH2 0x2BD9 PUSH2 0x2924 JUMP JUMPDEST JUMPDEST PUSH0 PUSH2 0x2BE7 DUP6 DUP3 DUP7 ADD PUSH2 0x296E JUMP JUMPDEST SWAP3 POP POP PUSH1 0x20 PUSH2 0x2BF8 DUP6 DUP3 DUP7 ADD PUSH2 0x296E JUMP JUMPDEST SWAP2 POP POP SWAP3 POP SWAP3 SWAP1 POP JUMP JUMPDEST PUSH32 0x4E487B7100000000000000000000000000000000000000000000000000000000 PUSH0 MSTORE PUSH1 0x22 PUSH1 0x4 MSTORE PUSH1 0x24 PUSH0 REVERT JUMPDEST PUSH0 PUSH1 0x2 DUP3 DIV SWAP1 POP PUSH1 0x1 DUP3 AND DUP1 PUSH2 0x2C46 JUMPI PUSH1 0x7F DUP3 AND SWAP2 POP JUMPDEST PUSH1 0x20 DUP3 LT DUP2 SUB PUSH2 0x2C59 JUMPI PUSH2 0x2C58 PUSH2 0x2C02 JUMP JUMPDEST JUMPDEST POP SWAP2 SWAP1 POP JUMP JUMPDEST PUSH32 0x4163636F756E7420697320616C726561647920626C61636B6C69737465640000 PUSH0 DUP3 ADD MSTORE POP JUMP JUMPDEST PUSH0 PUSH2 0x2C93 PUSH1 0x1E DUP4 PUSH2 0x2884 JUMP JUMPDEST SWAP2 POP PUSH2 0x2C9E DUP3 PUSH2 0x2C5F JUMP JUMPDEST PUSH1 0x20 DUP3 ADD SWAP1 POP SWAP2 SWAP1 POP JUMP JUMPDEST PUSH0 PUSH1 0x20 DUP3 ADD SWAP1 POP DUP2 DUP2 SUB PUSH0 DUP4 ADD MSTORE PUSH2 0x2CC0 DUP2 PUSH2 0x2C87 JUMP JUMPDEST SWAP1 POP SWAP2 SWAP1 POP JUMP JUMPDEST PUSH32 0x43616E6E6F7420626C61636B6C6973742073656C660000000000000000000000 PUSH0 DUP3 ADD MSTORE POP JUMP JUMPDEST PUSH0 PUSH2 0x2CFB PUSH1 0x15 DUP4 PUSH2 0x2884 JUMP JUMPDEST SWAP2 POP PUSH2 0x2D06 DUP3 PUSH2 0x2CC7 JUMP JUMPDEST PUSH1 0x20 DUP3 ADD SWAP1 POP SWAP2 SWAP1 POP JUMP JUMPDEST PUSH0 PUSH1 0x20 DUP3 ADD SWAP1 POP DUP2 DUP2 SUB PUSH0 DUP4 ADD MSTORE PUSH2 0x2D28 DUP2 PUSH2 0x2CEF JUMP JUMPDEST SWAP1 POP SWAP2 SWAP1 POP JUMP JUMPDEST PUSH32 0x616D6F756E742073686F756C6420626520677265617465207468616E20300000 PUSH0 DUP3 ADD MSTORE POP JUMP JUMPDEST PUSH0 PUSH2 0x2D63 PUSH1 0x1E DUP4 PUSH2 0x2884 JUMP JUMPDEST SWAP2 POP PUSH2 0x2D6E DUP3 PUSH2 0x2D2F JUMP JUMPDEST PUSH1 0x20 DUP3 ADD SWAP1 POP SWAP2 SWAP1 POP JUMP JUMPDEST PUSH0 PUSH1 0x20 DUP3 ADD SWAP1 POP DUP2 DUP2 SUB PUSH0 DUP4 ADD MSTORE PUSH2 0x2D90 DUP2 PUSH2 0x2D57 JUMP JUMPDEST SWAP1 POP SWAP2 SWAP1 POP JUMP JUMPDEST PUSH32 0x4163636F756E74206973206E6F7420626C61636B6C6973746564000000000000 PUSH0 DUP3 ADD MSTORE POP JUMP JUMPDEST PUSH0 PUSH2 0x2DCB PUSH1 0x1A DUP4 PUSH2 0x2884 JUMP JUMPDEST SWAP2 POP PUSH2 0x2DD6 DUP3 PUSH2 0x2D97 JUMP JUMPDEST PUSH1 0x20 DUP3 ADD SWAP1 POP SWAP2 SWAP1 POP JUMP JUMPDEST PUSH0 PUSH1 0x20 DUP3 ADD SWAP1 POP DUP2 DUP2 SUB PUSH0 DUP4 ADD MSTORE PUSH2 0x2DF8 DUP2 PUSH2 0x2DBF JUMP JUMPDEST SWAP1 POP SWAP2 SWAP1 POP JUMP JUMPDEST PUSH32 0x43616E6E6F742072656D6F76652073656C662066726F6D20626C61636B6C6973 PUSH0 DUP3 ADD MSTORE PUSH32 0x7400000000000000000000000000000000000000000000000000000000000000 PUSH1 0x20 DUP3 ADD MSTORE POP JUMP JUMPDEST PUSH0 PUSH2 0x2E59 PUSH1 0x21 DUP4 PUSH2 0x2884 JUMP JUMPDEST SWAP2 POP PUSH2 0x2E64 DUP3 PUSH2 0x2DFF JUMP JUMPDEST PUSH1 0x40 DUP3 ADD SWAP1 POP SWAP2 SWAP1 POP JUMP JUMPDEST PUSH0 PUSH1 0x20 DUP3 ADD SWAP1 POP DUP2 DUP2 SUB PUSH0 DUP4 ADD MSTORE PUSH2 0x2E86 DUP2 PUSH2 0x2E4D JUMP JUMPDEST SWAP1 POP SWAP2 SWAP1 POP JUMP JUMPDEST PUSH32 0x4D61726B6574696E672077616C6C65742063616E6E6F74206265207A65726F20 PUSH0 DUP3 ADD MSTORE PUSH32 0x6164647265737300000000000000000000000000000000000000000000000000 PUSH1 0x20 DUP3 ADD MSTORE POP JUMP JUMPDEST PUSH0 PUSH2 0x2EE7 PUSH1 0x27 DUP4 PUSH2 0x2884 JUMP JUMPDEST SWAP2 POP PUSH2 0x2EF2 DUP3 PUSH2 0x2E8D JUMP JUMPDEST PUSH1 0x40 DUP3 ADD SWAP1 POP SWAP2 SWAP1 POP JUMP JUMPDEST PUSH0 PUSH1 0x20 DUP3 ADD SWAP1 POP DUP2 DUP2 SUB PUSH0 DUP4 ADD MSTORE PUSH2 0x2F14 DUP2 PUSH2 0x2EDB JUMP JUMPDEST SWAP1 POP SWAP2 SWAP1 POP JUMP JUMPDEST PUSH32 0x5461782070657263656E746167652063616E6E6F742065786365656420313030 PUSH0 DUP3 ADD MSTORE PUSH32 0x2500000000000000000000000000000000000000000000000000000000000000 PUSH1 0x20 DUP3 ADD MSTORE POP JUMP JUMPDEST PUSH0 PUSH2 0x2F75 PUSH1 0x21 DUP4 PUSH2 0x2884 JUMP JUMPDEST SWAP2 POP PUSH2 0x2F80 DUP3 PUSH2 0x2F1B JUMP JUMPDEST PUSH1 0x40 DUP3 ADD SWAP1 POP SWAP2 SWAP1 POP JUMP JUMPDEST PUSH0 PUSH1 0x20 DUP3 ADD SWAP1 POP DUP2 DUP2 SUB PUSH0 DUP4 ADD MSTORE PUSH2 0x2FA2 DUP2 PUSH2 0x2F69 JUMP JUMPDEST SWAP1 POP SWAP2 SWAP1 POP JUMP JUMPDEST PUSH32 0x4465762077616C6C65742063616E6E6F74206265207A65726F20616464726573 PUSH0 DUP3 ADD MSTORE PUSH32 0x7300000000000000000000000000000000000000000000000000000000000000 PUSH1 0x20 DUP3 ADD MSTORE POP JUMP JUMPDEST PUSH0 PUSH2 0x3003 PUSH1 0x21 DUP4 PUSH2 0x2884 JUMP JUMPDEST SWAP2 POP PUSH2 0x300E DUP3 PUSH2 0x2FA9 JUMP JUMPDEST PUSH1 0x40 DUP3 ADD SWAP1 POP SWAP2 SWAP1 POP JUMP JUMPDEST PUSH0 PUSH1 0x20 DUP3 ADD SWAP1 POP DUP2 DUP2 SUB PUSH0 DUP4 ADD MSTORE PUSH2 0x3030 DUP2 PUSH2 0x2FF7 JUMP JUMPDEST SWAP1 POP SWAP2 SWAP1 POP JUMP JUMPDEST PUSH32 0x4E487B7100000000000000000000000000000000000000000000000000000000 PUSH0 MSTORE PUSH1 0x11 PUSH1 0x4 MSTORE PUSH1 0x24 PUSH0 REVERT JUMPDEST PUSH0 DUP2 PUSH1 0x1 SHR SWAP1 POP SWAP2 SWAP1 POP JUMP JUMPDEST PUSH0 DUP1 DUP3 SWAP2 POP DUP4 SWAP1 POP JUMPDEST PUSH1 0x1 DUP6 GT ISZERO PUSH2 0x30B9 JUMPI DUP1 DUP7 DIV DUP2 GT ISZERO PUSH2 0x3095 JUMPI PUSH2 0x3094 PUSH2 0x3037 JUMP JUMPDEST JUMPDEST PUSH1 0x1 DUP6 AND ISZERO PUSH2 0x30A4 JUMPI DUP1 DUP3 MUL SWAP2 POP JUMPDEST DUP1 DUP2 MUL SWAP1 POP PUSH2 0x30B2 DUP6 PUSH2 0x3064 JUMP JUMPDEST SWAP5 POP PUSH2 0x3079 JUMP JUMPDEST SWAP5 POP SWAP5 SWAP3 POP POP POP JUMP JUMPDEST PUSH0 DUP3 PUSH2 0x30D1 JUMPI PUSH1 0x1 SWAP1 POP PUSH2 0x318C JUMP JUMPDEST DUP2 PUSH2 0x30DE JUMPI PUSH0 SWAP1 POP PUSH2 0x318C JUMP JUMPDEST DUP2 PUSH1 0x1 DUP2 EQ PUSH2 0x30F4 JUMPI PUSH1 0x2 DUP2 EQ PUSH2 0x30FE JUMPI PUSH2 0x312D JUMP JUMPDEST PUSH1 0x1 SWAP2 POP POP PUSH2 0x318C JUMP JUMPDEST PUSH1 0xFF DUP5 GT ISZERO PUSH2 0x3110 JUMPI PUSH2 0x310F PUSH2 0x3037 JUMP JUMPDEST JUMPDEST DUP4 PUSH1 0x2 EXP SWAP2 POP DUP5 DUP3 GT ISZERO PUSH2 0x3127 JUMPI PUSH2 0x3126 PUSH2 0x3037 JUMP JUMPDEST JUMPDEST POP PUSH2 0x318C JUMP JUMPDEST POP PUSH1 0x20 DUP4 LT PUSH2 0x133 DUP4 LT AND PUSH1 0x4E DUP5 LT PUSH1 0xB DUP5 LT AND OR ISZERO PUSH2 0x3162 JUMPI DUP3 DUP3 EXP SWAP1 POP DUP4 DUP2 GT ISZERO PUSH2 0x315D JUMPI PUSH2 0x315C PUSH2 0x3037 JUMP JUMPDEST JUMPDEST PUSH2 0x318C JUMP JUMPDEST PUSH2 0x316F DUP5 DUP5 DUP5 PUSH1 0x1 PUSH2 0x3070 JUMP JUMPDEST SWAP3 POP SWAP1 POP DUP2 DUP5 DIV DUP2 GT ISZERO PUSH2 0x3186 JUMPI PUSH2 0x3185 PUSH2 0x3037 JUMP JUMPDEST JUMPDEST DUP2 DUP2 MUL SWAP1 POP JUMPDEST SWAP4 SWAP3 POP POP POP JUMP JUMPDEST PUSH0 PUSH2 0x319D DUP3 PUSH2 0x2982 JUMP JUMPDEST SWAP2 POP PUSH2 0x31A8 DUP4 PUSH2 0x2B12 JUMP JUMPDEST SWAP3 POP PUSH2 0x31D5 PUSH32 0xFFFFFFFFFFFFFFFFFFFFFFFFFFFFFFFFFFFFFFFFFFFFFFFFFFFFFFFFFFFFFFFF DUP5 DUP5 PUSH2 0x30C2 JUMP JUMPDEST SWAP1 POP SWAP3 SWAP2 POP POP JUMP JUMPDEST PUSH0 PUSH2 0x31E7 DUP3 PUSH2 0x2982 JUMP JUMPDEST SWAP2 POP PUSH2 0x31F2 DUP4 PUSH2 0x2982 JUMP JUMPDEST SWAP3 POP DUP3 DUP3 MUL PUSH2 0x3200 DUP2 PUSH2 0x2982 JUMP JUMPDEST SWAP2 POP DUP3 DUP3 DIV DUP5 EQ DUP4 ISZERO OR PUSH2 0x3217 JUMPI PUSH2 0x3216 PUSH2 0x3037 JUMP JUMPDEST JUMPDEST POP SWAP3 SWAP2 POP POP JUMP JUMPDEST PUSH0 PUSH2 0x3228 DUP3 PUSH2 0x2982 JUMP JUMPDEST SWAP2 POP PUSH2 0x3233 DUP4 PUSH2 0x2982 JUMP JUMPDEST SWAP3 POP PUSH2 0x3260 PUSH32 0xFFFFFFFFFFFFFFFFFFFFFFFFFFFFFFFFFFFFFFFFFFFFFFFFFFFFFFFFFFFFFFFF DUP5 DUP5 PUSH2 0x30C2 JUMP JUMPDEST SWAP1 POP SWAP3 SWAP2 POP POP JUMP JUMPDEST PUSH0 DUP2 MLOAD SWAP1 POP PUSH2 0x3276 DUP2 PUSH2 0x2958 JUMP JUMPDEST SWAP3 SWAP2 POP POP JUMP JUMPDEST PUSH0 PUSH1 0x20 DUP3 DUP5 SUB SLT ISZERO PUSH2 0x3291 JUMPI PUSH2 0x3290 PUSH2 0x2924 JUMP JUMPDEST JUMPDEST PUSH0 PUSH2 0x329E DUP5 DUP3 DUP6 ADD PUSH2 0x3268 JUMP JUMPDEST SWAP2 POP POP SWAP3 SWAP2 POP POP JUMP JUMPDEST PUSH0 PUSH1 0x40 DUP3 ADD SWAP1 POP PUSH2 0x32BA PUSH0 DUP4 ADD DUP6 PUSH2 0x2B9C JUMP JUMPDEST PUSH2 0x32C7 PUSH1 0x20 DUP4 ADD DUP5 PUSH2 0x2B9C JUMP JUMPDEST SWAP4 SWAP3 POP POP POP JUMP JUMPDEST PUSH0 DUP2 SWAP1 POP SWAP2 SWAP1 POP JUMP JUMPDEST PUSH0 PUSH8 0xFFFFFFFFFFFFFFFF DUP3 AND SWAP1 POP SWAP2 SWAP1 POP JUMP JUMPDEST PUSH0 PUSH2 0x3304 PUSH2 0x32FF PUSH2 0x32FA DUP5 PUSH2 0x32CE JUMP JUMPDEST PUSH2 0x2A4E JUMP JUMPDEST PUSH2 0x32D7 JUMP JUMPDEST SWAP1 POP SWAP2 SWAP1 POP JUMP JUMPDEST PUSH2 0x3314 DUP2 PUSH2 0x32EA JUMP JUMPDEST DUP3 MSTORE POP POP JUMP JUMPDEST PUSH0 PUSH1 0x20 DUP3 ADD SWAP1 POP PUSH2 0x332D PUSH0 DUP4 ADD DUP5 PUSH2 0x330B JUMP JUMPDEST SWAP3 SWAP2 POP POP JUMP JUMPDEST PUSH32 0x737461696E6162696C6974792077616C6C65742063616E6E6F74206265207A65 PUSH0 DUP3 ADD MSTORE PUSH32 0x726F206164647265737300000000000000000000000000000000000000000000 PUSH1 0x20 DUP3 ADD MSTORE POP JUMP JUMPDEST PUSH0 PUSH2 0x338D PUSH1 0x2A DUP4 PUSH2 0x2884 JUMP JUMPDEST SWAP2 POP PUSH2 0x3398 DUP3 PUSH2 0x3333 JUMP JUMPDEST PUSH1 0x40 DUP3 ADD SWAP1 POP SWAP2 SWAP1 POP JUMP JUMPDEST PUSH0 PUSH1 0x20 DUP3 ADD SWAP1 POP DUP2 DUP2 SUB PUSH0 DUP4 ADD MSTORE PUSH2 0x33BA DUP2 PUSH2 0x3381 JUMP JUMPDEST SWAP1 POP SWAP2 SWAP1 POP JUMP JUMPDEST PUSH0 PUSH1 0x60 DUP3 ADD SWAP1 POP PUSH2 0x33D4 PUSH0 DUP4 ADD DUP7 PUSH2 0x2B9C JUMP JUMPDEST PUSH2 0x33E1 PUSH1 0x20 DUP4 ADD DUP6 PUSH2 0x2A26 JUMP JUMPDEST PUSH2 0x33EE PUSH1 0x40 DUP4 ADD DUP5 PUSH2 0x2A26 JUMP JUMPDEST SWAP5 SWAP4 POP POP POP POP JUMP JUMPDEST PUSH32 0x45524332303A207472616E736665722066726F6D20746865207A65726F206164 PUSH0 DUP3 ADD MSTORE PUSH32 0x6472657373000000000000000000000000000000000000000000000000000000 PUSH1 0x20 DUP3 ADD MSTORE POP JUMP JUMPDEST PUSH0 PUSH2 0x3450 PUSH1 0x25 DUP4 PUSH2 0x2884 JUMP JUMPDEST SWAP2 POP PUSH2 0x345B DUP3 PUSH2 0x33F6 JUMP JUMPDEST PUSH1 0x40 DUP3 ADD SWAP1 POP SWAP2 SWAP1 POP JUMP JUMPDEST PUSH0 PUSH1 0x20 DUP3 ADD SWAP1 POP DUP2 DUP2 SUB PUSH0 DUP4 ADD MSTORE PUSH2 0x347D DUP2 PUSH2 0x3444 JUMP JUMPDEST SWAP1 POP SWAP2 SWAP1 POP JUMP JUMPDEST PUSH32 0x45524332303A207472616E7366657220746F20746865207A65726F2061646472 PUSH0 DUP3 ADD MSTORE PUSH32 0x6573730000000000000000000000000000000000000000000000000000000000 PUSH1 0x20 DUP3 ADD MSTORE POP JUMP JUMPDEST PUSH0 PUSH2 0x34DE PUSH1 0x23 DUP4 PUSH2 0x2884 JUMP JUMPDEST SWAP2 POP PUSH2 0x34E9 DUP3 PUSH2 0x3484 JUMP JUMPDEST PUSH1 0x40 DUP3 ADD SWAP1 POP SWAP2 SWAP1 POP JUMP JUMPDEST PUSH0 PUSH1 0x20 DUP3 ADD SWAP1 POP DUP2 DUP2 SUB PUSH0 DUP4 ADD MSTORE PUSH2 0x350B DUP2 PUSH2 0x34D2 JUMP JUMPDEST SWAP1 POP SWAP2 SWAP1 POP JUMP JUMPDEST PUSH32 0x5472616E7366657220616D6F756E74206D757374206265206772656174657220 PUSH0 DUP3 ADD MSTORE PUSH32 0x7468616E207A65726F0000000000000000000000000000000000000000000000 PUSH1 0x20 DUP3 ADD MSTORE POP JUMP JUMPDEST PUSH0 PUSH2 0x356C PUSH1 0x29 DUP4 PUSH2 0x2884 JUMP JUMPDEST SWAP2 POP PUSH2 0x3577 DUP3 PUSH2 0x3512 JUMP JUMPDEST PUSH1 0x40 DUP3 ADD SWAP1 POP SWAP2 SWAP1 POP JUMP JUMPDEST PUSH0 PUSH1 0x20 DUP3 ADD SWAP1 POP DUP2 DUP2 SUB PUSH0 DUP4 ADD MSTORE PUSH2 0x3599 DUP2 PUSH2 0x3560 JUMP JUMPDEST SWAP1 POP SWAP2 SWAP1 POP JUMP JUMPDEST PUSH32 0x53656E64657220697320626C61636B6C69737465640000000000000000000000 PUSH0 DUP3 ADD MSTORE POP JUMP JUMPDEST PUSH0 PUSH2 0x35D4 PUSH1 0x15 DUP4 PUSH2 0x2884 JUMP JUMPDEST SWAP2 POP PUSH2 0x35DF DUP3 PUSH2 0x35A0 JUMP JUMPDEST PUSH1 0x20 DUP3 ADD SWAP1 POP SWAP2 SWAP1 POP JUMP JUMPDEST PUSH0 PUSH1 0x20 DUP3 ADD SWAP1 POP DUP2 DUP2 SUB PUSH0 DUP4 ADD MSTORE PUSH2 0x3601 DUP2 PUSH2 0x35C8 JUMP JUMPDEST SWAP1 POP SWAP2 SWAP1 POP JUMP JUMPDEST PUSH32 0x526563697069656E7420697320626C61636B6C69737465640000000000000000 PUSH0 DUP3 ADD MSTORE POP JUMP JUMPDEST PUSH0 PUSH2 0x363C PUSH1 0x18 DUP4 PUSH2 0x2884 JUMP JUMPDEST SWAP2 POP PUSH2 0x3647 DUP3 PUSH2 0x3608 JUMP JUMPDEST PUSH1 0x20 DUP3 ADD SWAP1 POP SWAP2 SWAP1 POP JUMP JUMPDEST PUSH0 PUSH1 0x20 DUP3 ADD SWAP1 POP DUP2 DUP2 SUB PUSH0 DUP4 ADD MSTORE PUSH2 0x3669 DUP2 PUSH2 0x3630 JUMP JUMPDEST SWAP1 POP SWAP2 SWAP1 POP JUMP JUMPDEST PUSH32 0x43616E6E6F742062757920262073656C6C206D6F7265207468616E206D617820 PUSH0 DUP3 ADD MSTORE PUSH32 0x6C696D6974000000000000000000000000000000000000000000000000000000 PUSH1 0x20 DUP3 ADD MSTORE POP JUMP JUMPDEST PUSH0 PUSH2 0x36CA PUSH1 0x25 DUP4 PUSH2 0x2884 JUMP JUMPDEST SWAP2 POP PUSH2 0x36D5 DUP3 PUSH2 0x3670 JUMP JUMPDEST PUSH1 0x40 DUP3 ADD SWAP1 POP SWAP2 SWAP1 POP JUMP JUMPDEST PUSH0 PUSH1 0x20 DUP3 ADD SWAP1 POP DUP2 DUP2 SUB PUSH0 DUP4 ADD MSTORE PUSH2 0x36F7 DUP2 PUSH2 0x36BE JUMP JUMPDEST SWAP1 POP SWAP2 SWAP1 POP JUMP JUMPDEST PUSH0 PUSH2 0x3708 DUP3 PUSH2 0x2982 JUMP JUMPDEST SWAP2 POP PUSH2 0x3713 DUP4 PUSH2 0x2982 JUMP JUMPDEST SWAP3 POP DUP3 DUP3 ADD SWAP1 POP DUP1 DUP3 GT ISZERO PUSH2 0x372B JUMPI PUSH2 0x372A PUSH2 0x3037 JUMP JUMPDEST JUMPDEST SWAP3 SWAP2 POP POP JUMP JUMPDEST PUSH0 PUSH2 0x373B DUP3 PUSH2 0x2982 JUMP JUMPDEST SWAP2 POP PUSH2 0x3746 DUP4 PUSH2 0x2982 JUMP JUMPDEST SWAP3 POP DUP3 DUP3 SUB SWAP1 POP DUP2 DUP2 GT ISZERO PUSH2 0x375E JUMPI PUSH2 0x375D PUSH2 0x3037 JUMP JUMPDEST JUMPDEST SWAP3 SWAP2 POP POP JUMP JUMPDEST PUSH32 0x4E487B7100000000000000000000000000000000000000000000000000000000 PUSH0 MSTORE PUSH1 0x41 PUSH1 0x4 MSTORE PUSH1 0x24 PUSH0 REVERT JUMPDEST PUSH0 DUP2 SWAP1 POP DUP2 PUSH0 MSTORE PUSH1 0x20 PUSH0 KECCAK256 SWAP1 POP SWAP2 SWAP1 POP JUMP JUMPDEST PUSH0 PUSH1 0x20 PUSH1 0x1F DUP4 ADD DIV SWAP1 POP SWAP2 SWAP1 POP JUMP JUMPDEST PUSH0 DUP3 DUP3 SHL SWAP1 POP SWAP3 SWAP2 POP POP JUMP JUMPDEST PUSH0 PUSH1 0x8 DUP4 MUL PUSH2 0x37ED PUSH32 0xFFFFFFFFFFFFFFFFFFFFFFFFFFFFFFFFFFFFFFFFFFFFFFFFFFFFFFFFFFFFFFFF DUP3 PUSH2 0x37B2 JUMP JUMPDEST PUSH2 0x37F7 DUP7 DUP4 PUSH2 0x37B2 JUMP JUMPDEST SWAP6 POP DUP1 NOT DUP5 AND SWAP4 POP DUP1 DUP7 AND DUP5 OR SWAP3 POP POP POP SWAP4 SWAP3 POP POP POP JUMP JUMPDEST PUSH0 PUSH2 0x3829 PUSH2 0x3824 PUSH2 0x381F DUP5 PUSH2 0x2982 JUMP JUMPDEST PUSH2 0x2A4E JUMP JUMPDEST PUSH2 0x2982 JUMP JUMPDEST SWAP1 POP SWAP2 SWAP1 POP JUMP JUMPDEST PUSH0 DUP2 SWAP1 POP SWAP2 SWAP1 POP JUMP JUMPDEST PUSH2 0x3842 DUP4 PUSH2 0x380F JUMP JUMPDEST PUSH2 0x3856 PUSH2 0x384E DUP3 PUSH2 0x3830 JUMP JUMPDEST DUP5 DUP5 SLOAD PUSH2 0x37BE JUMP JUMPDEST DUP3 SSTORE POP POP POP POP JUMP JUMPDEST PUSH0 SWAP1 JUMP JUMPDEST PUSH2 0x386A PUSH2 0x385E JUMP JUMPDEST PUSH2 0x3875 DUP2 DUP5 DUP5 PUSH2 0x3839 JUMP JUMPDEST POP POP POP JUMP JUMPDEST JUMPDEST DUP2 DUP2 LT ISZERO PUSH2 0x3898 JUMPI PUSH2 0x388D PUSH0 DUP3 PUSH2 0x3862 JUMP JUMPDEST PUSH1 0x1 DUP2 ADD SWAP1 POP PUSH2 0x387B JUMP JUMPDEST POP POP JUMP JUMPDEST PUSH1 0x1F DUP3 GT ISZERO PUSH2 0x38DD JUMPI PUSH2 0x38AE DUP2 PUSH2 0x3791 JUMP JUMPDEST PUSH2 0x38B7 DUP5 PUSH2 0x37A3 JUMP JUMPDEST DUP2 ADD PUSH1 0x20 DUP6 LT ISZERO PUSH2 0x38C6 JUMPI DUP2 SWAP1 POP JUMPDEST PUSH2 0x38DA PUSH2 0x38D2 DUP6 PUSH2 0x37A3 JUMP JUMPDEST DUP4 ADD DUP3 PUSH2 0x387A JUMP JUMPDEST POP POP JUMPDEST POP POP POP JUMP JUMPDEST PUSH0 DUP3 DUP3 SHR SWAP1 POP SWAP3 SWAP2 POP POP JUMP JUMPDEST PUSH0 PUSH2 0x38FD PUSH0 NOT DUP5 PUSH1 0x8 MUL PUSH2 0x38E2 JUMP JUMPDEST NOT DUP1 DUP4 AND SWAP2 POP POP SWAP3 SWAP2 POP POP JUMP JUMPDEST PUSH0 PUSH2 0x3915 DUP4 DUP4 PUSH2 0x38EE JUMP JUMPDEST SWAP2 POP DUP3 PUSH1 0x2 MUL DUP3 OR SWAP1 POP SWAP3 SWAP2 POP POP JUMP JUMPDEST PUSH2 0x392E DUP3 PUSH2 0x287A JUMP JUMPDEST PUSH8 0xFFFFFFFFFFFFFFFF DUP2 GT ISZERO PUSH2 0x3947 JUMPI PUSH2 0x3946 PUSH2 0x3764 JUMP JUMPDEST JUMPDEST PUSH2 0x3951 DUP3 SLOAD PUSH2 0x2C2F JUMP JUMPDEST PUSH2 0x395C DUP3 DUP3 DUP6 PUSH2 0x389C JUMP JUMPDEST PUSH0 PUSH1 0x20 SWAP1 POP PUSH1 0x1F DUP4 GT PUSH1 0x1 DUP2 EQ PUSH2 0x398D JUMPI PUSH0 DUP5 ISZERO PUSH2 0x397B JUMPI DUP3 DUP8 ADD MLOAD SWAP1 POP JUMPDEST PUSH2 0x3985 DUP6 DUP3 PUSH2 0x390A JUMP JUMPDEST DUP7 SSTORE POP PUSH2 0x39EC JUMP JUMPDEST PUSH1 0x1F NOT DUP5 AND PUSH2 0x399B DUP7 PUSH2 0x3791 JUMP JUMPDEST PUSH0 JUMPDEST DUP3 DUP2 LT ISZERO PUSH2 0x39C2 JUMPI DUP5 DUP10 ADD MLOAD DUP3 SSTORE PUSH1 0x1 DUP3 ADD SWAP2 POP PUSH1 0x20 DUP6 ADD SWAP5 POP PUSH1 0x20 DUP2 ADD SWAP1 POP PUSH2 0x399D JUMP JUMPDEST DUP7 DUP4 LT ISZERO PUSH2 0x39DF JUMPI DUP5 DUP10 ADD MLOAD PUSH2 0x39DB PUSH1 0x1F DUP10 AND DUP3 PUSH2 0x38EE JUMP JUMPDEST DUP4 SSTORE POP JUMPDEST PUSH1 0x1 PUSH1 0x2 DUP9 MUL ADD DUP9 SSTORE POP POP POP JUMPDEST POP POP POP POP POP POP JUMP JUMPDEST PUSH32 0x4E487B7100000000000000000000000000000000000000000000000000000000 PUSH0 MSTORE PUSH1 0x12 PUSH1 0x4 MSTORE PUSH1 0x24 PUSH0 REVERT JUMPDEST PUSH0 PUSH2 0x3A2B DUP3 PUSH2 0x2982 JUMP JUMPDEST SWAP2 POP PUSH2 0x3A36 DUP4 PUSH2 0x2982 JUMP JUMPDEST SWAP3 POP DUP3 PUSH2 0x3A46 JUMPI PUSH2 0x3A45 PUSH2 0x39F4 JUMP JUMPDEST JUMPDEST DUP3 DUP3 DIV SWAP1 POP SWAP3 SWAP2 POP POP JUMP INVALID LOG2 PUSH5 0x6970667358 0x22 SLT KECCAK256 0xA8 0xE 0x21 SWAP2 DUP5 SGT PREVRANDAO DUP6 PUSH16 0xAEFAB25E64A0E91ED1218C25F5D7B50A PUSH23 0x234ABF059CC164736F6C63430008140033000000000000 "
				},
				"gasEstimates": {
					"creation": {
						"codeDepositCost": "2996600",
						"executionCost": "infinite",
						"totalCost": "infinite"
					},
					"external": {
						"addToBlacklist(address)": "infinite",
						"allowance(address,address)": "infinite",
						"approve(address,uint256)": "infinite",
						"balanceOf(address)": "2970",
						"burn(uint256)": "926",
						"burnFrom(address,uint256)": "infinite",
						"decimals()": "428",
						"developmentWallet()": "2575",
						"developmentWalletTax()": "2516",
						"initialize()": "infinite",
						"isBlacklisted(address)": "2980",
						"marketingWallet()": "2551",
						"marketingWalletTax()": "2537",
						"maxTransactionAmount()": "2536",
						"mint(address,uint256)": "infinite",
						"name()": "infinite",
						"owner()": "2656",
						"removeFromBlacklist(address)": "infinite",
						"renounceOwnership()": "infinite",
						"setDevelopmentWallet(address)": "infinite",
						"setDevelopmentWalletTax(uint256)": "infinite",
						"setMarketingWallet(address)": "infinite",
						"setMarketingWalletTax(uint256)": "infinite",
						"setMaxAmount(uint256)": "infinite",
						"setSustainabilityWallet(address)": "infinite",
						"setSustainabilityWalletTax(uint256)": "infinite",
						"sustainabilityWallet()": "2640",
						"sustainabilityWalletTax()": "2491",
						"symbol()": "infinite",
						"totalSupply()": "2531",
						"transfer(address,uint256)": "infinite",
						"transferFrom(address,address,uint256)": "infinite",
						"transferOwnership(address)": "infinite",
						"uniswapPair()": "2597",
						"uniswapV2Router()": "infinite"
					},
					"internal": {
						"_calculateTax(uint256,uint256)": "infinite",
						"_update(address,address,uint256)": "infinite"
					}
				},
				"methodIdentifiers": {
					"addToBlacklist(address)": "44337ea1",
					"allowance(address,address)": "dd62ed3e",
					"approve(address,uint256)": "095ea7b3",
					"balanceOf(address)": "70a08231",
					"burn(uint256)": "42966c68",
					"burnFrom(address,uint256)": "79cc6790",
					"decimals()": "313ce567",
					"developmentWallet()": "c04a5414",
					"developmentWalletTax()": "11e91b84",
					"initialize()": "8129fc1c",
					"isBlacklisted(address)": "fe575a87",
					"marketingWallet()": "75f0a874",
					"marketingWalletTax()": "8206cf5a",
					"maxTransactionAmount()": "c8c8ebe4",
					"mint(address,uint256)": "40c10f19",
					"name()": "06fdde03",
					"owner()": "8da5cb5b",
					"removeFromBlacklist(address)": "537df3b6",
					"renounceOwnership()": "715018a6",
					"setDevelopmentWallet(address)": "72ac2486",
					"setDevelopmentWalletTax(uint256)": "85fbae56",
					"setMarketingWallet(address)": "5d098b38",
					"setMarketingWalletTax(uint256)": "88696f2f",
					"setMaxAmount(uint256)": "4fe47f70",
					"setSustainabilityWallet(address)": "be20b15d",
					"setSustainabilityWalletTax(uint256)": "6ddfa4b4",
					"sustainabilityWallet()": "fedcb861",
					"sustainabilityWalletTax()": "e7d88de5",
					"symbol()": "95d89b41",
					"totalSupply()": "18160ddd",
					"transfer(address,uint256)": "a9059cbb",
					"transferFrom(address,address,uint256)": "23b872dd",
					"transferOwnership(address)": "f2fde38b",
					"uniswapPair()": "c816841b",
					"uniswapV2Router()": "1694505e"
				}
			},
			"storageLayout": {
				"storage": [
					{
						"astId": 1441,
						"contract": "Token/123.sol:Trabajo24Token",
						"label": "marketingWallet",
						"offset": 0,
						"slot": "0",
						"type": "t_address"
					},
					{
						"astId": 1443,
						"contract": "Token/123.sol:Trabajo24Token",
						"label": "developmentWallet",
						"offset": 0,
						"slot": "1",
						"type": "t_address"
					},
					{
						"astId": 1445,
						"contract": "Token/123.sol:Trabajo24Token",
						"label": "sustainabilityWallet",
						"offset": 0,
						"slot": "2",
						"type": "t_address"
					},
					{
						"astId": 1447,
						"contract": "Token/123.sol:Trabajo24Token",
						"label": "marketingWalletTax",
						"offset": 0,
						"slot": "3",
						"type": "t_uint256"
					},
					{
						"astId": 1449,
						"contract": "Token/123.sol:Trabajo24Token",
						"label": "developmentWalletTax",
						"offset": 0,
						"slot": "4",
						"type": "t_uint256"
					},
					{
						"astId": 1451,
						"contract": "Token/123.sol:Trabajo24Token",
						"label": "sustainabilityWalletTax",
						"offset": 0,
						"slot": "5",
						"type": "t_uint256"
					},
					{
						"astId": 1453,
						"contract": "Token/123.sol:Trabajo24Token",
						"label": "maxTransactionAmount",
						"offset": 0,
						"slot": "6",
						"type": "t_uint256"
					},
					{
						"astId": 1455,
						"contract": "Token/123.sol:Trabajo24Token",
						"label": "_totalSupply",
						"offset": 0,
						"slot": "7",
						"type": "t_uint256"
					},
					{
						"astId": 1459,
						"contract": "Token/123.sol:Trabajo24Token",
						"label": "_blacklisted",
						"offset": 0,
						"slot": "8",
						"type": "t_mapping(t_address,t_bool)"
					},
					{
						"astId": 1465,
						"contract": "Token/123.sol:Trabajo24Token",
						"label": "_allowances",
						"offset": 0,
						"slot": "9",
						"type": "t_mapping(t_address,t_mapping(t_address,t_uint256))"
					},
					{
						"astId": 1468,
						"contract": "Token/123.sol:Trabajo24Token",
						"label": "uniswapV2Router",
						"offset": 0,
						"slot": "10",
						"type": "t_contract(IUniswapV2Router02)2800"
					},
					{
						"astId": 1470,
						"contract": "Token/123.sol:Trabajo24Token",
						"label": "uniswapPair",
						"offset": 0,
						"slot": "11",
						"type": "t_address"
					}
				],
				"types": {
					"t_address": {
						"encoding": "inplace",
						"label": "address",
						"numberOfBytes": "20"
					},
					"t_bool": {
						"encoding": "inplace",
						"label": "bool",
						"numberOfBytes": "1"
					},
					"t_contract(IUniswapV2Router02)2800": {
						"encoding": "inplace",
						"label": "contract IUniswapV2Router02",
						"numberOfBytes": "20"
					},
					"t_mapping(t_address,t_bool)": {
						"encoding": "mapping",
						"key": "t_address",
						"label": "mapping(address => bool)",
						"numberOfBytes": "32",
						"value": "t_bool"
					},
					"t_mapping(t_address,t_mapping(t_address,t_uint256))": {
						"encoding": "mapping",
						"key": "t_address",
						"label": "mapping(address => mapping(address => uint256))",
						"numberOfBytes": "32",
						"value": "t_mapping(t_address,t_uint256)"
					},
					"t_mapping(t_address,t_uint256)": {
						"encoding": "mapping",
						"key": "t_address",
						"label": "mapping(address => uint256)",
						"numberOfBytes": "32",
						"value": "t_uint256"
					},
					"t_uint256": {
						"encoding": "inplace",
						"label": "uint256",
						"numberOfBytes": "32"
					}
				}
			},
			"userdoc": {
				"kind": "user",
				"methods": {},
				"version": 1
			}
		}
	}
}