{
  "_format": "hh-sol-artifact-1",
  "contractName": "NFTERC721A",
  "sourceName": "contracts/NFTERC721A.sol",
  "abi": [
    {
      "inputs": [
        {
          "internalType": "string",
          "name": "name",
          "type": "string"
        },
        {
          "internalType": "string",
          "name": "symbol",
          "type": "string"
        },
        {
          "internalType": "uint256",
          "name": "_mintPrice",
          "type": "uint256"
        }
      ],
      "stateMutability": "nonpayable",
      "type": "constructor"
    },
    {
      "inputs": [],
      "name": "ApprovalCallerNotOwnerNorApproved",
      "type": "error"
    },
    {
      "inputs": [],
      "name": "ApprovalQueryForNonexistentToken",
      "type": "error"
    },
    {
      "inputs": [],
      "name": "BalanceQueryForZeroAddress",
      "type": "error"
    },
    {
      "inputs": [],
      "name": "MintERC2309QuantityExceedsLimit",
      "type": "error"
    },
    {
      "inputs": [],
      "name": "MintToZeroAddress",
      "type": "error"
    },
    {
      "inputs": [],
      "name": "MintZeroQuantity",
      "type": "error"
    },
    {
      "inputs": [],
      "name": "NotCompatibleWithSpotMints",
      "type": "error"
    },
    {
      "inputs": [],
      "name": "OwnerQueryForNonexistentToken",
      "type": "error"
    },
    {
      "inputs": [],
      "name": "OwnershipNotInitializedForExtraData",
      "type": "error"
    },
    {
      "inputs": [],
      "name": "SequentialMintExceedsLimit",
      "type": "error"
    },
    {
      "inputs": [],
      "name": "SequentialUpToTooSmall",
      "type": "error"
    },
    {
      "inputs": [],
      "name": "SpotMintTokenIdTooSmall",
      "type": "error"
    },
    {
      "inputs": [],
      "name": "TokenAlreadyExists",
      "type": "error"
    },
    {
      "inputs": [],
      "name": "TransferCallerNotOwnerNorApproved",
      "type": "error"
    },
    {
      "inputs": [],
      "name": "TransferFromIncorrectOwner",
      "type": "error"
    },
    {
      "inputs": [],
      "name": "TransferToNonERC721ReceiverImplementer",
      "type": "error"
    },
    {
      "inputs": [],
      "name": "TransferToZeroAddress",
      "type": "error"
    },
    {
      "inputs": [],
      "name": "URIQueryForNonexistentToken",
      "type": "error"
    },
    {
      "anonymous": false,
      "inputs": [
        {
          "indexed": true,
          "internalType": "address",
          "name": "owner",
          "type": "address"
        },
        {
          "indexed": true,
          "internalType": "address",
          "name": "approved",
          "type": "address"
        },
        {
          "indexed": true,
          "internalType": "uint256",
          "name": "tokenId",
          "type": "uint256"
        }
      ],
      "name": "Approval",
      "type": "event"
    },
    {
      "anonymous": false,
      "inputs": [
        {
          "indexed": true,
          "internalType": "address",
          "name": "owner",
          "type": "address"
        },
        {
          "indexed": true,
          "internalType": "address",
          "name": "operator",
          "type": "address"
        },
        {
          "indexed": false,
          "internalType": "bool",
          "name": "approved",
          "type": "bool"
        }
      ],
      "name": "ApprovalForAll",
      "type": "event"
    },
    {
      "anonymous": false,
      "inputs": [
        {
          "indexed": true,
          "internalType": "uint256",
          "name": "fromTokenId",
          "type": "uint256"
        },
        {
          "indexed": false,
          "internalType": "uint256",
          "name": "toTokenId",
          "type": "uint256"
        },
        {
          "indexed": true,
          "internalType": "address",
          "name": "from",
          "type": "address"
        },
        {
          "indexed": true,
          "internalType": "address",
          "name": "to",
          "type": "address"
        }
      ],
      "name": "ConsecutiveTransfer",
      "type": "event"
    },
    {
      "anonymous": false,
      "inputs": [
        {
          "indexed": true,
          "internalType": "address",
          "name": "previousOwner",
          "type": "address"
        },
        {
          "indexed": true,
          "internalType": "address",
          "name": "newOwner",
          "type": "address"
        }
      ],
      "name": "OwnershipTransferred",
      "type": "event"
    },
    {
      "anonymous": false,
      "inputs": [
        {
          "indexed": true,
          "internalType": "address",
          "name": "from",
          "type": "address"
        },
        {
          "indexed": true,
          "internalType": "address",
          "name": "to",
          "type": "address"
        },
        {
          "indexed": true,
          "internalType": "uint256",
          "name": "tokenId",
          "type": "uint256"
        }
      ],
      "name": "Transfer",
      "type": "event"
    },
    {
      "inputs": [
        {
          "internalType": "address",
          "name": "to",
          "type": "address"
        },
        {
          "internalType": "uint256",
          "name": "tokenId",
          "type": "uint256"
        }
      ],
      "name": "approve",
      "outputs": [],
      "stateMutability": "payable",
      "type": "function"
    },
    {
      "inputs": [
        {
          "internalType": "address",
          "name": "owner",
          "type": "address"
        }
      ],
      "name": "balanceOf",
      "outputs": [
        {
          "internalType": "uint256",
          "name": "",
          "type": "uint256"
        }
      ],
      "stateMutability": "view",
      "type": "function"
    },
    {
      "inputs": [
        {
          "internalType": "uint256",
          "name": "tokenId",
          "type": "uint256"
        }
      ],
      "name": "burn",
      "outputs": [],
      "stateMutability": "nonpayable",
      "type": "function"
    },
    {
      "inputs": [
        {
          "internalType": "uint256",
          "name": "tokenId",
          "type": "uint256"
        }
      ],
      "name": "getApproved",
      "outputs": [
        {
          "internalType": "address",
          "name": "",
          "type": "address"
        }
      ],
      "stateMutability": "view",
      "type": "function"
    },
    {
      "inputs": [
        {
          "internalType": "address",
          "name": "owner",
          "type": "address"
        },
        {
          "internalType": "address",
          "name": "operator",
          "type": "address"
        }
      ],
      "name": "isApprovedForAll",
      "outputs": [
        {
          "internalType": "bool",
          "name": "",
          "type": "bool"
        }
      ],
      "stateMutability": "view",
      "type": "function"
    },
    {
      "inputs": [],
      "name": "maxPerTx",
      "outputs": [
        {
          "internalType": "uint256",
          "name": "",
          "type": "uint256"
        }
      ],
      "stateMutability": "view",
      "type": "function"
    },
    {
      "inputs": [],
      "name": "maxPerWallet",
      "outputs": [
        {
          "internalType": "uint256",
          "name": "",
          "type": "uint256"
        }
      ],
      "stateMutability": "view",
      "type": "function"
    },
    {
      "inputs": [],
      "name": "maxSupply",
      "outputs": [
        {
          "internalType": "uint256",
          "name": "",
          "type": "uint256"
        }
      ],
      "stateMutability": "view",
      "type": "function"
    },
    {
      "inputs": [],
      "name": "mintPrice",
      "outputs": [
        {
          "internalType": "uint256",
          "name": "",
          "type": "uint256"
        }
      ],
      "stateMutability": "view",
      "type": "function"
    },
    {
      "inputs": [
        {
          "internalType": "address",
          "name": "",
          "type": "address"
        }
      ],
      "name": "mintedPerWallet",
      "outputs": [
        {
          "internalType": "uint256",
          "name": "",
          "type": "uint256"
        }
      ],
      "stateMutability": "view",
      "type": "function"
    },
    {
      "inputs": [],
      "name": "name",
      "outputs": [
        {
          "internalType": "string",
          "name": "",
          "type": "string"
        }
      ],
      "stateMutability": "view",
      "type": "function"
    },
    {
      "inputs": [],
      "name": "owner",
      "outputs": [
        {
          "internalType": "address",
          "name": "",
          "type": "address"
        }
      ],
      "stateMutability": "view",
      "type": "function"
    },
    {
      "inputs": [
        {
          "internalType": "address",
          "name": "to",
          "type": "address"
        },
        {
          "internalType": "uint256",
          "name": "quantity",
          "type": "uint256"
        }
      ],
      "name": "ownerMint",
      "outputs": [],
      "stateMutability": "nonpayable",
      "type": "function"
    },
    {
      "inputs": [
        {
          "internalType": "uint256",
          "name": "tokenId",
          "type": "uint256"
        }
      ],
      "name": "ownerOf",
      "outputs": [
        {
          "internalType": "address",
          "name": "",
          "type": "address"
        }
      ],
      "stateMutability": "view",
      "type": "function"
    },
    {
      "inputs": [
        {
          "internalType": "uint256",
          "name": "quantity",
          "type": "uint256"
        }
      ],
      "name": "publicMint",
      "outputs": [],
      "stateMutability": "payable",
      "type": "function"
    },
    {
      "inputs": [],
      "name": "publicMintEnabled",
      "outputs": [
        {
          "internalType": "bool",
          "name": "",
          "type": "bool"
        }
      ],
      "stateMutability": "view",
      "type": "function"
    },
    {
      "inputs": [],
      "name": "renounceOwnership",
      "outputs": [],
      "stateMutability": "nonpayable",
      "type": "function"
    },
    {
      "inputs": [
        {
          "internalType": "address",
          "name": "from",
          "type": "address"
        },
        {
          "internalType": "address",
          "name": "to",
          "type": "address"
        },
        {
          "internalType": "uint256",
          "name": "tokenId",
          "type": "uint256"
        }
      ],
      "name": "safeTransferFrom",
      "outputs": [],
      "stateMutability": "payable",
      "type": "function"
    },
    {
      "inputs": [
        {
          "internalType": "address",
          "name": "from",
          "type": "address"
        },
        {
          "internalType": "address",
          "name": "to",
          "type": "address"
        },
        {
          "internalType": "uint256",
          "name": "tokenId",
          "type": "uint256"
        },
        {
          "internalType": "bytes",
          "name": "_data",
          "type": "bytes"
        }
      ],
      "name": "safeTransferFrom",
      "outputs": [],
      "stateMutability": "payable",
      "type": "function"
    },
    {
      "inputs": [
        {
          "internalType": "address",
          "name": "operator",
          "type": "address"
        },
        {
          "internalType": "bool",
          "name": "approved",
          "type": "bool"
        }
      ],
      "name": "setApprovalForAll",
      "outputs": [],
      "stateMutability": "nonpayable",
      "type": "function"
    },
    {
      "inputs": [
        {
          "internalType": "uint256",
          "name": "_maxSupply",
          "type": "uint256"
        }
      ],
      "name": "setMaxSupply",
      "outputs": [],
      "stateMutability": "nonpayable",
      "type": "function"
    },
    {
      "inputs": [
        {
          "internalType": "uint256",
          "name": "_maxPerTx",
          "type": "uint256"
        },
        {
          "internalType": "uint256",
          "name": "_maxPerWallet",
          "type": "uint256"
        }
      ],
      "name": "setMintLimits",
      "outputs": [],
      "stateMutability": "nonpayable",
      "type": "function"
    },
    {
      "inputs": [
        {
          "internalType": "uint256",
          "name": "_price",
          "type": "uint256"
        }
      ],
      "name": "setMintPrice",
      "outputs": [],
      "stateMutability": "nonpayable",
      "type": "function"
    },
    {
      "inputs": [
        {
          "internalType": "address",
          "name": "user",
          "type": "address"
        },
        {
          "internalType": "bool",
          "name": "status",
          "type": "bool"
        }
      ],
      "name": "setWhitelistStatus",
      "outputs": [],
      "stateMutability": "nonpayable",
      "type": "function"
    },
    {
      "inputs": [
        {
          "internalType": "bytes4",
          "name": "interfaceId",
          "type": "bytes4"
        }
      ],
      "name": "supportsInterface",
      "outputs": [
        {
          "internalType": "bool",
          "name": "",
          "type": "bool"
        }
      ],
      "stateMutability": "view",
      "type": "function"
    },
    {
      "inputs": [],
      "name": "symbol",
      "outputs": [
        {
          "internalType": "string",
          "name": "",
          "type": "string"
        }
      ],
      "stateMutability": "view",
      "type": "function"
    },
    {
      "inputs": [
        {
          "internalType": "bool",
          "name": "enabled",
          "type": "bool"
        }
      ],
      "name": "togglePublicMint",
      "outputs": [],
      "stateMutability": "nonpayable",
      "type": "function"
    },
    {
      "inputs": [
        {
          "internalType": "bool",
          "name": "enabled",
          "type": "bool"
        }
      ],
      "name": "toggleWhitelistMint",
      "outputs": [],
      "stateMutability": "nonpayable",
      "type": "function"
    },
    {
      "inputs": [
        {
          "internalType": "uint256",
          "name": "tokenId",
          "type": "uint256"
        }
      ],
      "name": "tokenURI",
      "outputs": [
        {
          "internalType": "string",
          "name": "",
          "type": "string"
        }
      ],
      "stateMutability": "view",
      "type": "function"
    },
    {
      "inputs": [],
      "name": "totalSupply",
      "outputs": [
        {
          "internalType": "uint256",
          "name": "result",
          "type": "uint256"
        }
      ],
      "stateMutability": "view",
      "type": "function"
    },
    {
      "inputs": [
        {
          "internalType": "address",
          "name": "from",
          "type": "address"
        },
        {
          "internalType": "address",
          "name": "to",
          "type": "address"
        },
        {
          "internalType": "uint256",
          "name": "tokenId",
          "type": "uint256"
        }
      ],
      "name": "transferFrom",
      "outputs": [],
      "stateMutability": "payable",
      "type": "function"
    },
    {
      "inputs": [
        {
          "internalType": "address",
          "name": "newOwner",
          "type": "address"
        }
      ],
      "name": "transferOwnership",
      "outputs": [],
      "stateMutability": "nonpayable",
      "type": "function"
    },
    {
      "inputs": [
        {
          "internalType": "uint256",
          "name": "quantity",
          "type": "uint256"
        }
      ],
      "name": "whitelistMint",
      "outputs": [],
      "stateMutability": "payable",
      "type": "function"
    },
    {
      "inputs": [],
      "name": "whitelistMintEnabled",
      "outputs": [
        {
          "internalType": "bool",
          "name": "",
          "type": "bool"
        }
      ],
      "stateMutability": "view",
      "type": "function"
    },
    {
      "inputs": [
        {
          "internalType": "address",
          "name": "",
          "type": "address"
        }
      ],
      "name": "whitelisted",
      "outputs": [
        {
          "internalType": "bool",
          "name": "",
          "type": "bool"
        }
      ],
      "stateMutability": "view",
      "type": "function"
    },
    {
      "inputs": [],
      "name": "withdraw",
      "outputs": [],
      "stateMutability": "nonpayable",
      "type": "function"
    }
  ],
  "bytecode": "0x6080604052620f4240600b556005600c55600a600d553480156200002257600080fd5b5060405162001d1c38038062001d1c83398101604081905262000045916200019c565b82826002620000558382620002a0565b506003620000648282620002a0565b50506000805550620000763362000082565b600a55506200036c9050565b600980546001600160a01b038381166001600160a01b0319831681179093556040519116919082907f8be0079c531659141344cd1fd0a4f28419497f9722a3daafe3b4186f6b6457e090600090a35050565b634e487b7160e01b600052604160045260246000fd5b600082601f830112620000fc57600080fd5b81516001600160401b0380821115620001195762000119620000d4565b604051601f8301601f19908116603f01168101908282118183101715620001445762000144620000d4565b81604052838152602092508660208588010111156200016257600080fd5b600091505b8382101562000186578582018301518183018401529082019062000167565b6000602085830101528094505050505092915050565b600080600060608486031215620001b257600080fd5b83516001600160401b0380821115620001ca57600080fd5b620001d887838801620000ea565b94506020860151915080821115620001ef57600080fd5b50620001fe86828701620000ea565b925050604084015190509250925092565b600181811c908216806200022457607f821691505b6020821081036200024557634e487b7160e01b600052602260045260246000fd5b50919050565b601f8211156200029b576000816000526020600020601f850160051c81016020861015620002765750805b601f850160051c820191505b81811015620002975782815560010162000282565b5050505b505050565b81516001600160401b03811115620002bc57620002bc620000d4565b620002d481620002cd84546200020f565b846200024b565b602080601f8311600181146200030c5760008415620002f35750858301515b600019600386901b1c1916600185901b17855562000297565b600085815260208120601f198616915b828110156200033d578886015182559484019460019091019084016200031c565b50858210156200035c5787850151600019600388901b60f8161c191681555b5050505050600190811b01905550565b6119a0806200037c6000396000f3fe60806040526004361061020f5760003560e01c80636f8b44b011610118578063b88d4fde116100a0578063d936547e1161006f578063d936547e1461059f578063e985e9c5146105cf578063f2fde38b146105ef578063f4a0a5281461060f578063f968adbe1461062f57600080fd5b8063b88d4fde14610536578063c87b56dd14610549578063d2f902cf14610569578063d5abeb011461058957600080fd5b8063868ff4a2116100e7578063868ff4a2146104b05780638da5cb5b146104c357806395d89b41146104e15780639b7c1c83146104f6578063a22cb4651461051657600080fd5b80636f8b44b01461043b57806370a082311461045b578063715018a61461047b5780637a91bd341461049057600080fd5b80633a602b4d1161019b578063453c23101161016a578063453c2310146103b0578063484b973c146103c65780636352211e146103e65780636817c76c146104065780636caede3d1461041c57600080fd5b80633a602b4d1461033b5780633ccfd60b1461036857806342842e0e1461037d57806342966c681461039057600080fd5b80630c424284116101e25780630c424284146102b85780630f4161aa146102d857806318160ddd146102f257806323b872dd146103155780632db115441461032857600080fd5b806301ffc9a71461021457806306fdde0314610249578063081812fc1461026b578063095ea7b3146102a3575b600080fd5b34801561022057600080fd5b5061023461022f366004611583565b610645565b60405190151581526020015b60405180910390f35b34801561025557600080fd5b5061025e610697565b60405161024091906115f0565b34801561027757600080fd5b5061028b610286366004611603565b610729565b6040516001600160a01b039091168152602001610240565b6102b66102b1366004611633565b610764565b005b3480156102c457600080fd5b506102b66102d336600461166d565b610774565b3480156102e457600080fd5b50600e546102349060ff1681565b3480156102fe57600080fd5b50600154600054035b604051908152602001610240565b6102b66103233660046116a0565b6107a7565b6102b6610336366004611603565b610916565b34801561034757600080fd5b506103076103563660046116dc565b60106020526000908152604090205481565b34801561037457600080fd5b506102b6610b01565b6102b661038b3660046116a0565b610b42565b34801561039c57600080fd5b506102b66103ab366004611603565b610b62565b3480156103bc57600080fd5b50610307600d5481565b3480156103d257600080fd5b506102b66103e1366004611633565b610bbb565b3480156103f257600080fd5b5061028b610401366004611603565b610c2b565b34801561041257600080fd5b50610307600a5481565b34801561042857600080fd5b50600e5461023490610100900460ff1681565b34801561044757600080fd5b506102b6610456366004611603565b610c36565b34801561046757600080fd5b506103076104763660046116dc565b610c43565b34801561048757600080fd5b506102b6610c89565b34801561049c57600080fd5b506102b66104ab3660046116f7565b610c9d565b6102b66104be366004611603565b610cb0565b3480156104cf57600080fd5b506009546001600160a01b031661028b565b3480156104ed57600080fd5b5061025e610d58565b34801561050257600080fd5b506102b6610511366004611719565b610d67565b34801561052257600080fd5b506102b661053136600461166d565b610d82565b6102b661054436600461174a565b610dee565b34801561055557600080fd5b5061025e610564366004611603565b610e2f565b34801561057557600080fd5b506102b6610584366004611719565b610eb7565b34801561059557600080fd5b50610307600b5481565b3480156105ab57600080fd5b506102346105ba3660046116dc565b600f6020526000908152604090205460ff1681565b3480156105db57600080fd5b506102346105ea366004611826565b610ed9565b3480156105fb57600080fd5b506102b661060a3660046116dc565b610f07565b34801561061b57600080fd5b506102b661062a366004611603565b610f7d565b34801561063b57600080fd5b50610307600c5481565b60006301ffc9a760e01b6001600160e01b03198316148061067657506380ac58cd60e01b6001600160e01b03198316145b806106915750635b5e139f60e01b6001600160e01b03198316145b92915050565b6060600280546106a690611850565b80601f01602080910402602001604051908101604052809291908181526020018280546106d290611850565b801561071f5780601f106106f45761010080835404028352916020019161071f565b820191906000526020600020905b81548152906001019060200180831161070257829003601f168201915b5050505050905090565b600061073482610f8a565b610748576107486333d1c03960e21b610fcf565b506000908152600660205260409020546001600160a01b031690565b61077082826001610fd9565b5050565b61077c61107c565b6001600160a01b03919091166000908152600f60205260409020805460ff1916911515919091179055565b60006107b2826110d6565b6001600160a01b0394851694909150811684146107d8576107d862a1148160e81b610fcf565b600082815260066020526040902080546108048187335b6001600160a01b039081169116811491141790565b610826576108128633610ed9565b61082657610826632ce44b5f60e11b610fcf565b801561083157600082555b6001600160a01b038681166000908152600560205260408082208054600019019055918716808252919020805460010190554260a01b17600160e11b17600085815260046020526040812091909155600160e11b841690036108c3576001840160008181526004602052604081205490036108c15760005481146108c15760008181526004602052604090208490555b505b6001600160a01b0385168481887fddf252ad1be2c89b69c2b068fc378daa952ba7f163c4a11628f55a4df523b3ef600080a48060000361090d5761090d633a954ecd60e21b610fcf565b50505050505050565b600e5460ff1661096d5760405162461bcd60e51b815260206004820152601760248201527f5075626c6963206d696e74206e6f7420656e61626c656400000000000000000060448201526064015b60405180910390fd5b60008111801561097f5750600c548111155b6109be5760405162461bcd60e51b815260206004820152601060248201526f496e76616c6964207175616e7469747960801b6044820152606401610964565b600b54816109cf6001546000540390565b6109d991906118a0565b1115610a1c5760405162461bcd60e51b815260206004820152601260248201527113585e081cdd5c1c1b1e481c995858da195960721b6044820152606401610964565b600d5433600090815260106020526040902054610a3a9083906118a0565b1115610a7f5760405162461bcd60e51b815260206004820152601460248201527315d85b1b195d081b1a5b5a5d081c995858da195960621b6044820152606401610964565b80600a54610a8d91906118b3565b341015610acf5760405162461bcd60e51b815260206004820152601060248201526f092dce6eaccccd2c6d2cadce8408aa8960831b6044820152606401610964565b3360009081526010602052604081208054839290610aee9084906118a0565b90915550610afe9050338261116c565b50565b610b0961107c565b6009546040516001600160a01b03909116904780156108fc02916000818181858888f19350505050158015610afe573d6000803e3d6000fd5b610b5d83838360405180602001604052806000815250610dee565b505050565b33610b6c82610c2b565b6001600160a01b031614610bb25760405162461bcd60e51b815260206004820152600d60248201526c2737ba103a34329037bbb732b960991b6044820152606401610964565b610afe81611186565b610bc361107c565b600b5481610bd46001546000540390565b610bde91906118a0565b1115610c215760405162461bcd60e51b815260206004820152601260248201527113585e081cdd5c1c1b1e481c995858da195960721b6044820152606401610964565b610770828261116c565b6000610691826110d6565b610c3e61107c565b600b55565b60006001600160a01b038216610c6357610c636323d3ad8160e21b610fcf565b506001600160a01b031660009081526005602052604090205467ffffffffffffffff1690565b610c9161107c565b610c9b6000611191565b565b610ca561107c565b600c91909155600d55565b600e54610100900460ff16610d075760405162461bcd60e51b815260206004820152601a60248201527f57686974656c697374206d696e74206e6f7420656e61626c65640000000000006044820152606401610964565b336000908152600f602052604090205460ff1661096d5760405162461bcd60e51b815260206004820152600f60248201526e139bdd081dda1a5d195b1a5cdd1959608a1b6044820152606401610964565b6060600380546106a690611850565b610d6f61107c565b600e805460ff1916911515919091179055565b3360008181526007602090815260408083206001600160a01b03871680855290835292819020805460ff191686151590811790915590519081529192917f17307eab39ab6107e8899845ad3d59bd9653f200f220920489ca2b5937696c31910160405180910390a35050565b610df98484846107a7565b6001600160a01b0383163b15610e2957610e15848484846111e3565b610e2957610e296368d2bf6b60e11b610fcf565b50505050565b6060610e3a82610f8a565b610e4e57610e4e630a14c4b560e41b610fcf565b6000610e6560408051602081019091526000815290565b90508051600003610e855760405180602001604052806000815250610eb0565b80610e8f846112c5565b604051602001610ea09291906118ca565b6040516020818303038152906040525b9392505050565b610ebf61107c565b600e80549115156101000261ff0019909216919091179055565b6001600160a01b03918216600090815260076020908152604080832093909416825291909152205460ff1690565b610f0f61107c565b6001600160a01b038116610f745760405162461bcd60e51b815260206004820152602660248201527f4f776e61626c653a206e6577206f776e657220697320746865207a65726f206160448201526564647265737360d01b6064820152608401610964565b610afe81611191565b610f8561107c565b600a55565b60008054821015610fca5760005b5060008281526004602052604081205490819003610fc057610fb9836118f9565b9250610f98565b600160e01b161590505b919050565b8060005260046000fd5b6000610fe483610c2b565b9050818015610ffc5750336001600160a01b03821614155b1561101f5761100b8133610ed9565b61101f5761101f6367d9dca160e11b610fcf565b60008381526006602052604080822080546001600160a01b0319166001600160a01b0388811691821790925591518693918516917f8c5be1e5ebec7d5bd14f71427d1e84f3dd0314c0f7b2291e5b200ac8c7c3b92591a450505050565b6009546001600160a01b03163314610c9b5760405162461bcd60e51b815260206004820181905260248201527f4f776e61626c653a2063616c6c6572206973206e6f7420746865206f776e65726044820152606401610964565b6000818152600460205260409020548060000361114957600054821061110657611106636f96cda160e11b610fcf565b5b5060001901600081815260046020526040902054801561110757600160e01b811660000361113457919050565b611144636f96cda160e11b610fcf565b611107565b600160e01b811660000361115c57919050565b610fca636f96cda160e11b610fcf565b610770828260405180602001604052806000815250611309565b610afe81600061136d565b600980546001600160a01b038381166001600160a01b0319831681179093556040519116919082907f8be0079c531659141344cd1fd0a4f28419497f9722a3daafe3b4186f6b6457e090600090a35050565b604051630a85bd0160e11b81526000906001600160a01b0385169063150b7a0290611218903390899088908890600401611910565b6020604051808303816000875af1925050508015611253575060408051601f3d908101601f191682019092526112509181019061194d565b60015b6112a8573d808015611281576040519150601f19603f3d011682016040523d82523d6000602084013e611286565b606091505b5080516000036112a0576112a06368d2bf6b60e11b610fcf565b805181602001fd5b6001600160e01b031916630a85bd0160e11b149050949350505050565b606060a06040510180604052602081039150506000815280825b600183039250600a81066030018353600a9004806112df5750819003601f19909101908152919050565b61131383836114ae565b6001600160a01b0383163b15610b5d576000548281035b61133d60008683806001019450866111e3565b611351576113516368d2bf6b60e11b610fcf565b81811061132a57816000541461136657600080fd5b5050505050565b6000611378836110d6565b90508060008061139686600090815260066020526040902080549091565b9150915084156113cd576113ab8184336107ef565b6113cd576113b98333610ed9565b6113cd576113cd632ce44b5f60e11b610fcf565b80156113d857600082555b6001600160a01b038316600081815260056020526040902080546fffffffffffffffffffffffffffffffff0190554260a01b17600360e01b17600087815260046020526040812091909155600160e11b85169003611466576001860160008181526004602052604081205490036114645760005481146114645760008181526004602052604090208590555b505b60405186906000906001600160a01b038616907fddf252ad1be2c89b69c2b068fc378daa952ba7f163c4a11628f55a4df523b3ef908390a45050600180548101905550505050565b60008054908290036114ca576114ca63b562e8dd60e01b610fcf565b60008181526004602090815260408083206001600160a01b0387164260a01b6001881460e11b1781179091558084526005909252822080546801000000000000000186020190559081900361152857611528622e076360e81b610fcf565b818301825b808360007fddf252ad1be2c89b69c2b068fc378daa952ba7f163c4a11628f55a4df523b3ef600080a481816001019150810361152d575060005550505050565b6001600160e01b031981168114610afe57600080fd5b60006020828403121561159557600080fd5b8135610eb08161156d565b60005b838110156115bb5781810151838201526020016115a3565b50506000910152565b600081518084526115dc8160208601602086016115a0565b601f01601f19169290920160200192915050565b602081526000610eb060208301846115c4565b60006020828403121561161557600080fd5b5035919050565b80356001600160a01b0381168114610fca57600080fd5b6000806040838503121561164657600080fd5b61164f8361161c565b946020939093013593505050565b80358015158114610fca57600080fd5b6000806040838503121561168057600080fd5b6116898361161c565b91506116976020840161165d565b90509250929050565b6000806000606084860312156116b557600080fd5b6116be8461161c565b92506116cc6020850161161c565b9150604084013590509250925092565b6000602082840312156116ee57600080fd5b610eb08261161c565b6000806040838503121561170a57600080fd5b50508035926020909101359150565b60006020828403121561172b57600080fd5b610eb08261165d565b634e487b7160e01b600052604160045260246000fd5b6000806000806080858703121561176057600080fd5b6117698561161c565b93506117776020860161161c565b925060408501359150606085013567ffffffffffffffff8082111561179b57600080fd5b818701915087601f8301126117af57600080fd5b8135818111156117c1576117c1611734565b604051601f8201601f19908116603f011681019083821181831017156117e9576117e9611734565b816040528281528a602084870101111561180257600080fd5b82602086016020830137600060208483010152809550505050505092959194509250565b6000806040838503121561183957600080fd5b6118428361161c565b91506116976020840161161c565b600181811c9082168061186457607f821691505b60208210810361188457634e487b7160e01b600052602260045260246000fd5b50919050565b634e487b7160e01b600052601160045260246000fd5b808201808211156106915761069161188a565b80820281158282048414176106915761069161188a565b600083516118dc8184602088016115a0565b8351908301906118f08183602088016115a0565b01949350505050565b6000816119085761190861188a565b506000190190565b6001600160a01b0385811682528416602082015260408101839052608060608201819052600090611943908301846115c4565b9695505050505050565b60006020828403121561195f57600080fd5b8151610eb08161156d56fea264697066735822122040d6f9b059331b2c7c262f0d63498cff6a22ddc4e68610f3b1af4d0d5c37e7b064736f6c63430008180033",
  "linkReferences": {},
  "deployedLinkReferences": {}
}