{
	"data": {
		"bytecode": {
			"linkReferences": {},
			"object": "60c06040526a52b7d2dcc80cd2e4000000600981905562000022905f196200038f565b6200002f905f19620003af565b600a55600c805461ff00191661010017905568056bc75e2d63100000600d5560016012819055601381905560148190555f60155560026016819055601782905560185560195534801562000081575f80fd5b506040516200348038038062003480833981016040819052620000a491620003d5565b5f80546001600160a01b031916339081178255604051909182917f8be0079c531659141344cd1fd0a4f28419497f9722a3daafe3b4186f6b6457e0908290a3506001600160a01b0381166200013f5760405162461bcd60e51b815260206004820152601b60248201527f46756e642077616c6c65742063616e206e6f74206265207a65726f0000000000604482015260640160405180910390fd5b600a54335f9081526002602090815260409182902092909255601a80546001600160a01b0319166001600160a01b038516179055805163c45a015560e01b8152905173d99d1c33f9fc3444f8101754abc46c52416550d192839263c45a015592600480830193928290030181865afa158015620001be573d5f803e3d5ffd5b505050506040513d601f19601f82011682018060405250810190620001e49190620003d5565b6001600160a01b031663c9c6539630836001600160a01b031663ad5c46486040518163ffffffff1660e01b8152600401602060405180830381865afa15801562000230573d5f803e3d5ffd5b505050506040513d601f19601f82011682018060405250810190620002569190620003d5565b6040516001600160e01b031960e085901b1681526001600160a01b039283166004820152911660248201526044016020604051808303815f875af1158015620002a1573d5f803e3d5ffd5b505050506040513d601f19601f82011682018060405250810190620002c79190620003d5565b6001600160a01b0390811660a0528116608052600160065f620002f15f546001600160a01b031690565b6001600160a01b0316815260208082019290925260409081015f908120805494151560ff199586161790553081526006909252902080549091166001179055620003383390565b6001600160a01b03165f6001600160a01b03167fddf252ad1be2c89b69c2b068fc378daa952ba7f163c4a11628f55a4df523b3ef6009546040516200037f91815260200190565b60405180910390a3505062000404565b5f82620003aa57634e487b7160e01b5f52601260045260245ffd5b500690565b81810381811115620003cf57634e487b7160e01b5f52601160045260245ffd5b92915050565b5f60208284031215620003e6575f80fd5b81516001600160a01b0381168114620003fd575f80fd5b9392505050565b60805160a051613029620004575f395f81816104d601528181611db801526120e701525f818161032e0152818161270d015281816127c4015281816128000152818161286c015261289301526130295ff3fe608060405260043610610283575f3560e01c8063664a1ad611610155578063c49b9a80116100be578063e1eaf3bb11610078578063e1eaf3bb14610804578063ea20463614610819578063ea2f0b371461082e578063ea7db9e51461084d578063eb91e6511461086c578063f2fde38b1461088b575f80fd5b8063c49b9a8014610720578063d621e8131461073f578063d7d7442f1461075e578063dbac26e91461077d578063dd62ed3e146107ab578063e1662ed3146107ef575f80fd5b806395d89b411161010f57806395d89b41146106645780639cfe42da1461068f578063a457c2d7146106ae578063a9059cbb146106cd578063b618a70d146106ec578063bdf024ec1461070b575f80fd5b8063664a1ad6146105a057806367243482146105bf57806370a08231146105de578063715018a6146105fd57806388f82020146106115780638da5cb5b14610648575f80fd5b80633685d419116101f757806349bd5a5e116101b157806349bd5a5e146104c55780634a74bb02146104f857806352390c02146105165780635252a228146105355780635342acb41461054a57806355ce3b9a14610581575f80fd5b80633685d4191461041557806339509351146104345780633bd5d17314610453578063437823ec146104725780634549b03914610491578063463db7dd146104b0575f80fd5b806323b872dd1161024857806323b872dd1461037c578063281d9a7a1461039b578063293230b8146103b05780632d5624ed146103c65780632d838119146103db578063313ce567146103fa575f80fd5b806306fdde031461028e578063095ea7b3146102d057806313114a9d146102ff5780631694505e1461031d57806318160ddd14610368575f80fd5b3661028a57005b5f80fd5b348015610299575f80fd5b506040805180820190915260088152674561676c6520414960c01b60208201525b6040516102c79190612c06565b60405180910390f35b3480156102db575f80fd5b506102ef6102ea366004612c69565b6108aa565b60405190151581526020016102c7565b34801561030a575f80fd5b50600b545b6040519081526020016102c7565b348015610328575f80fd5b506103507f000000000000000000000000000000000000000000000000000000000000000081565b6040516001600160a01b0390911681526020016102c7565b348015610373575f80fd5b5060095461030f565b348015610387575f80fd5b506102ef610396366004612c93565b6108c0565b3480156103a6575f80fd5b5061030f60155481565b3480156103bb575f80fd5b506103c4610910565b005b3480156103d1575f80fd5b5061030f60195481565b3480156103e6575f80fd5b5061030f6103f5366004612cd1565b6109f2565b348015610405575f80fd5b50604051601281526020016102c7565b348015610420575f80fd5b506103c461042f366004612ce8565b610a74565b34801561043f575f80fd5b506102ef61044e366004612c69565b610c18565b34801561045e575f80fd5b506103c461046d366004612cd1565b610c4e565b34801561047d575f80fd5b506103c461048c366004612ce8565b610d32565b34801561049c575f80fd5b5061030f6104ab366004612d17565b610de6565b3480156104bb575f80fd5b5061030f60175481565b3480156104d0575f80fd5b506103507f000000000000000000000000000000000000000000000000000000000000000081565b348015610503575f80fd5b50600c546102ef90610100900460ff1681565b348015610521575f80fd5b506103c4610530366004612ce8565b610e66565b348015610540575f80fd5b5061030f60125481565b348015610555575f80fd5b506102ef610564366004612ce8565b6001600160a01b03165f9081526006602052604090205460ff1690565b34801561058c575f80fd5b506103c461059b366004612ce8565b610fb3565b3480156105ab575f80fd5b50601a54610350906001600160a01b031681565b3480156105ca575f80fd5b506103c46105d9366004612d89565b611087565b3480156105e9575f80fd5b5061030f6105f8366004612ce8565b611210565b348015610608575f80fd5b506103c461126c565b34801561061c575f80fd5b506102ef61062b366004612ce8565b6001600160a01b03165f9081526007602052604090205460ff1690565b348015610653575f80fd5b505f546001600160a01b0316610350565b34801561066f575f80fd5b5060408051808201909152600381526245414960e81b60208201526102ba565b34801561069a575f80fd5b506103c46106a9366004612ce8565b6112dd565b3480156106b9575f80fd5b506102ef6106c8366004612c69565b6113c1565b3480156106d8575f80fd5b506102ef6106e7366004612c69565b6113f7565b3480156106f7575f80fd5b506103c4610706366004612df0565b611403565b348015610716575f80fd5b5061030f60185481565b34801561072b575f80fd5b506103c461073a366004612e1f565b611514565b34801561074a575f80fd5b50600c546102ef9062010000900460ff1681565b348015610769575f80fd5b506103c4610778366004612cd1565b611586565b348015610788575f80fd5b506102ef610797366004612ce8565b60056020525f908152604090205460ff1681565b3480156107b6575f80fd5b5061030f6107c5366004612e38565b6001600160a01b039182165f90815260046020908152604080832093909416825291909152205490565b3480156107fa575f80fd5b5061030f60165481565b34801561080f575f80fd5b5061030f60135481565b348015610824575f80fd5b5061030f60145481565b348015610839575f80fd5b506103c4610848366004612ce8565b61166f565b348015610858575f80fd5b506103c4610867366004612df0565b611718565b348015610877575f80fd5b506103c4610886366004612ce8565b61181d565b348015610896575f80fd5b506103c46108a5366004612ce8565b6118fd565b5f6108b63384846119e4565b5060015b92915050565b5f6108cc848484611b07565b6001600160a01b0384165f90815260046020908152604080832033808552925290912054610906918691610901908690612e83565b6119e4565b5060019392505050565b5f546001600160a01b031633146109425760405162461bcd60e51b815260040161093990612e96565b60405180910390fd5b600c5462010000900460ff161561099b5760405162461bcd60e51b815260206004820152601760248201527f54726164696e6720616c726561647920737461727465640000000000000000006044820152606401610939565b600c805462ff0000191662010000908117918290556040517f7d7f00509dd73ac4449f698ae75ccc797895eff5fa9d446d3df387598a26e735926109e892900460ff161515815260200190565b60405180910390a1565b5f600a54821115610a585760405162461bcd60e51b815260206004820152602a60248201527f416d6f756e74206d757374206265206c657373207468616e20746f74616c207260448201526965666c656374696f6e7360b01b6064820152608401610939565b5f610a61611e77565b9050610a6d8184612ecb565b9392505050565b5f546001600160a01b03163314610a9d5760405162461bcd60e51b815260040161093990612e96565b6001600160a01b0381165f9081526007602052604090205460ff16610b045760405162461bcd60e51b815260206004820152601b60248201527f4163636f756e7420697320616c726561647920496e636c7564656400000000006044820152606401610939565b5f5b600854811015610c1457816001600160a01b031660088281548110610b2d57610b2d612eea565b5f918252602090912001546001600160a01b031603610c0c5760088054610b5690600190612e83565b81548110610b6657610b66612eea565b5f91825260209091200154600880546001600160a01b039092169183908110610b9157610b91612eea565b5f91825260208083209190910180546001600160a01b0319166001600160a01b039485161790559184168152600382526040808220829055600790925220805460ff191690556008805480610be857610be8612efe565b5f8281526020902081015f1990810180546001600160a01b03191690550190555050565b600101610b06565b5050565b335f8181526004602090815260408083206001600160a01b038716845290915281205490916108b6918590610901908690612f12565b335f8181526007602052604090205460ff1615610cc25760405162461bcd60e51b815260206004820152602c60248201527f4578636c75646564206164647265737365732063616e6e6f742063616c6c207460448201526b3434b990333ab731ba34b7b760a11b6064820152608401610939565b5f610ccc83611e98565b506001600160a01b0383165f90815260026020526040902054909150610cf3908290612e83565b6001600160a01b0383165f90815260026020526040902055600a54610d19908290612e83565b600a55600b54610d2a908490612f12565b600b55505050565b5f546001600160a01b03163314610d5b5760405162461bcd60e51b815260040161093990612e96565b6001600160a01b0381165f9081526006602052604090205460ff1615610dc35760405162461bcd60e51b815260206004820152601860248201527f416c72656179206578636c756465642066726f6d2066656500000000000000006044820152606401610939565b6001600160a01b03165f908152600660205260409020805460ff19166001179055565b5f600954831115610e395760405162461bcd60e51b815260206004820152601f60248201527f416d6f756e74206d757374206265206c657373207468616e20737570706c79006044820152606401610939565b81610e52575f610e4884611e98565b5091506108ba9050565b5f610e5c84611e98565b92506108ba915050565b5f546001600160a01b03163314610e8f5760405162461bcd60e51b815260040161093990612e96565b6001600160a01b0381165f9081526007602052604090205460ff1615610ef75760405162461bcd60e51b815260206004820152601b60248201527f4163636f756e7420697320616c7265616479206578636c7564656400000000006044820152606401610939565b6001600160a01b0381165f9081526002602052604090205415610f4e576001600160a01b0381165f90815260026020526040902054610f35906109f2565b6001600160a01b0382165f908152600360205260409020555b6001600160a01b03165f818152600760205260408120805460ff191660019081179091556008805491820181559091527ff3f7a9fe364faab93b216da50a3214154f22a0a2b415b23a84c8169e8b636ee30180546001600160a01b0319169091179055565b5f546001600160a01b03163314610fdc5760405162461bcd60e51b815260040161093990612e96565b6001600160a01b0381166110325760405162461bcd60e51b815260206004820152601b60248201527f46756e642077616c6c65742063616e206e6f74206265207a65726f00000000006044820152606401610939565b601a80546001600160a01b0319166001600160a01b0383169081179091556040519081527f4cb53cdee53f2d4e4e60769add356f6cbd911505806fd6c1eee38f5a6b8a2574906020015b60405180910390a150565b5f546001600160a01b031633146110b05760405162461bcd60e51b815260040161093990612e96565b5f8382146111115760405162461bcd60e51b815260206004820152602860248201527f4d69736d61746368206265747765656e204164647265737320616e6420746f6b604482015267195b8818dbdd5b9d60c21b6064820152608401610939565b5f5b8481101561114e575f84848381811061112e5761112e612eea565b90506020020135905080836111439190612f12565b925050600101611113565b508061115933611210565b10156111a75760405162461bcd60e51b815260206004820152601c60248201527f4e6f7420656e6f75676820746f6b656e7320746f2061697264726f70000000006044820152606401610939565b5f5b84811015611208575f8484838181106111c4576111c4612eea565b9050602002013590506111ff338888858181106111e3576111e3612eea565b90506020020160208101906111f89190612ce8565b835f611ed0565b506001016111a9565b505050505050565b6001600160a01b0381165f9081526007602052604081205460ff161561124b57506001600160a01b03165f9081526003602052604090205490565b6001600160a01b0382165f908152600260205260409020546108ba906109f2565b5f546001600160a01b031633146112955760405162461bcd60e51b815260040161093990612e96565b5f80546040516001600160a01b03909116907f8be0079c531659141344cd1fd0a4f28419497f9722a3daafe3b4186f6b6457e0908390a35f80546001600160a01b0319169055565b5f546001600160a01b031633146113065760405162461bcd60e51b815260040161093990612e96565b6001600160a01b0381165f9081526005602052604090205460ff161561136e5760405162461bcd60e51b815260206004820152601b60248201527f4163636f756e7420616c726561647920626c61636b6c697374656400000000006044820152606401610939565b6001600160a01b0381165f81815260056020908152604091829020805460ff1916600117905590519182527f4e63251189d11de41cff7396332e25ed3c84d6c08ef82ed74ba63a95edf8e3ef910161107c565b335f8181526004602090815260408083206001600160a01b038716845290915281205490916108b6918590610901908690612e83565b5f6108b6338484611b07565b5f546001600160a01b0316331461142c5760405162461bcd60e51b815260040161093990612e96565b5f81836114398688612f12565b6114439190612f12565b61144d9190612f12565b905060648111156114b05760405162461bcd60e51b815260206004820152602760248201527f596f752063616e206e6f74207365742073656c6c20746178206d6f7265207468604482015266656e203130302560c81b6064820152608401610939565b60168590556017849055601883905560198290556040805186815260208101869052908101849052606081018390527fa987db89f31df6351bb1ad3d58f4e5ef54e52c1e3389622f2b38adcf43a086ae906080015b60405180910390a15050505050565b5f546001600160a01b0316331461153d5760405162461bcd60e51b815260040161093990612e96565b600c80548215156101000261ff00199091161790556040517f53726dfcaf90650aa7eb35524f4d3220f07413c8d6cb404cc8c18bf5591bc1599061107c90831515815260200190565b5f546001600160a01b031633146115af5760405162461bcd60e51b815260040161093990612e96565b5f811180156115c857506969e10de76676d08000008111155b61163a5760405162461bcd60e51b815260206004820152603960248201527f416d6f756e742073686f756c64206265206d6f7265207468616e207a65726f2060448201527f616e64206c657373207468616e203530306b20746f6b656e73000000000000006064820152608401610939565b600d8190556040518181527fadfa8ecb21b6962ebcd0adbd9ab985b7b4c5b5eb3b0dead683171565c7bfe1719060200161107c565b5f546001600160a01b031633146116985760405162461bcd60e51b815260040161093990612e96565b6001600160a01b0381165f9081526006602052604090205460ff166116f85760405162461bcd60e51b8152602060048201526016602482015275416c7265617920696e636c7564656420696e2066656560501b6044820152606401610939565b6001600160a01b03165f908152600660205260409020805460ff19169055565b5f546001600160a01b031633146117415760405162461bcd60e51b815260040161093990612e96565b5f818361174e8688612f12565b6117589190612f12565b6117629190612f12565b905060648111156117c45760405162461bcd60e51b815260206004820152602660248201527f596f752063616e206e6f74207365742062757920746178206d6f7265207468656044820152656e203130302560d01b6064820152608401610939565b60128590556013849055601483905560158290556040805186815260208101869052908101849052606081018390527f39dd28ec6ca271c82451a8ef3e1422d281febc1d63701dd827a8573ed55bd48590608001611505565b5f546001600160a01b031633146118465760405162461bcd60e51b815260040161093990612e96565b6001600160a01b0381165f9081526005602052604090205460ff166118ad5760405162461bcd60e51b815260206004820152601760248201527f4163636f756e74206e6f7420626c61636b6c69737465640000000000000000006044820152606401610939565b6001600160a01b0381165f81815260056020908152604091829020805460ff1916905590519182527f2b6bf71b58b3583add364b3d9060ebf8019650f65f5be35f5464b9cb3e4ba2d4910161107c565b5f546001600160a01b031633146119265760405162461bcd60e51b815260040161093990612e96565b6001600160a01b03811661198b5760405162461bcd60e51b815260206004820152602660248201527f4f776e61626c653a206e6577206f776e657220697320746865207a65726f206160448201526564647265737360d01b6064820152608401610939565b5f80546040516001600160a01b03808516939216917f8be0079c531659141344cd1fd0a4f28419497f9722a3daafe3b4186f6b6457e091a35f80546001600160a01b0319166001600160a01b0392909216919091179055565b6001600160a01b038316611a465760405162461bcd60e51b8152602060048201526024808201527f45524332303a20617070726f76652066726f6d20746865207a65726f206164646044820152637265737360e01b6064820152608401610939565b6001600160a01b038216611aa75760405162461bcd60e51b815260206004820152602260248201527f45524332303a20617070726f766520746f20746865207a65726f206164647265604482015261737360f01b6064820152608401610939565b6001600160a01b038381165f8181526004602090815260408083209487168084529482529182902085905590518481527f8c5be1e5ebec7d5bd14f71427d1e84f3dd0314c0f7b2291e5b200ac8c7c3b925910160405180910390a3505050565b6001600160a01b038316611b6b5760405162461bcd60e51b815260206004820152602560248201527f45524332303a207472616e736665722066726f6d20746865207a65726f206164604482015264647265737360d81b6064820152608401610939565b6001600160a01b038216611bcd5760405162461bcd60e51b815260206004820152602360248201527f45524332303a207472616e7366657220746f20746865207a65726f206164647260448201526265737360e81b6064820152608401610939565b5f8111611c2e5760405162461bcd60e51b815260206004820152602960248201527f5472616e7366657220616d6f756e74206d7573742062652067726561746572206044820152687468616e207a65726f60b81b6064820152608401610939565b6001600160a01b0383165f9081526005602052604090205460ff1615611c8e5760405162461bcd60e51b815260206004820152601560248201527414d95b99195c881a5cc8189b1858dadb1a5cdd1959605a1b6044820152606401610939565b6001600160a01b0382165f9081526005602052604090205460ff1615611cf65760405162461bcd60e51b815260206004820152601860248201527f526563697069656e7420697320626c61636b6c697374656400000000000000006044820152606401610939565b5f546001600160a01b0384811691161480611d1d57505f546001600160a01b038381169116145b15611d3357611d2e8383835f611ed0565b505050565b600c5462010000900460ff16611d8b5760405162461bcd60e51b815260206004820152601760248201527f54726164696e67206e6f742073746172746564207965740000000000000000006044820152606401610939565b5f611d9530611210565b600d5490915081108015908190611daf5750600c5460ff16155b8015611ded57507f00000000000000000000000000000000000000000000000000000000000000006001600160a01b0316856001600160a01b031614155b8015611e005750600c54610100900460ff165b15611e1357600d549150611e138261203f565b6001600160a01b0385165f9081526006602052604090205460019060ff1680611e5357506001600160a01b0385165f9081526006602052604090205460ff165b15611e5b57505f5b8015611e6b57611e6b86866120da565b61120886868684611ed0565b5f805f611e8261216d565b9092509050611e918183612ecb565b9250505090565b5f805f805f80611ea7876122dd565b9450945094509450505f80611ebf8987878787612354565b50909a909950975050505050505050565b80611eed57611eed5f600e819055600f8190556010819055601155565b6001600160a01b0384165f9081526007602052604090205460ff168015611f2c57506001600160a01b0383165f9081526007602052604090205460ff16155b15611f4157611f3c8484846123eb565b612039565b6001600160a01b0384165f9081526007602052604090205460ff16158015611f8057506001600160a01b0383165f9081526007602052604090205460ff165b15611f9057611f3c84848461252b565b6001600160a01b0384165f9081526007602052604090205460ff16158015611fd057506001600160a01b0383165f9081526007602052604090205460ff16155b15611fe057611f3c8484846125e3565b6001600160a01b0384165f9081526007602052604090205460ff16801561201e57506001600160a01b0383165f9081526007602052604090205460ff165b1561202e57611f3c848484612636565b6120398484846125e3565b50505050565b600c805460ff191660011790555f612058600283612ecb565b90505f6120658284612e83565b905047612071836126b8565b5f61207c8247612e83565b90506120888382612866565b60408051858152602081018390529081018490527f17bbfb9a6069321b6ded73bd96327c9e6b7212a5cd51ff219cd61370acafb5619060600160405180910390a15050600c805460ff19169055505050565b6001600160a01b038281167f0000000000000000000000000000000000000000000000000000000000000000821690811491831614811561213257601254600e55601354600f55601454601055601554601155612039565b801561215557601654600e55601754600f55601854601055601954601155612039565b6120395f600e819055600f8190556010819055601155565b600a546009545f918291825b6008548110156122ac578260025f6008848154811061219a5761219a612eea565b5f9182526020808320909101546001600160a01b03168352820192909252604001902054118061220257508160035f600884815481106121dc576121dc612eea565b5f9182526020808320909101546001600160a01b03168352820192909252604001902054115b1561221857600a54600954945094505050509091565b60025f6008838154811061222e5761222e612eea565b5f9182526020808320909101546001600160a01b0316835282019290925260400190205461225c9084612e83565b925060035f6008838154811061227457612274612eea565b5f9182526020808320909101546001600160a01b031683528201929092526040019020546122a29083612e83565b9150600101612179565b50600954600a546122bd9190612ecb565b8210156122d457600a546009549350935050509091565b90939092509050565b5f805f805f806122ec87612968565b90505f6122f888612983565b90505f61230489612994565b90505f6123108a6129a5565b90505f818361231f8688612f12565b6123299190612f12565b6123339190612f12565b90505f612340828d612e83565b9c959b509399509197509550919350505050565b5f805f80612360611e77565b90505f61236d828b612f25565b90505f61237a838b612f25565b90505f612387848a612f25565b90505f612394858a612f25565b90505f6123a1868d612f25565b90505f81836123b08688612f12565b6123ba9190612f12565b6123c49190612f12565b90505f6123d18288612e83565b969a50959850939650505050505050955095509592505050565b5f805f805f6123f9866129b6565b945094509450945094505f805f6124138988888888612354565b6001600160a01b038e165f90815260036020526040902054929550909350915061243e908a90612e83565b6001600160a01b038c165f9081526003602090815260408083209390935560029052205461246d908490612e83565b6001600160a01b03808d165f9081526002602052604080822093909355908c168152205461249c908390612f12565b6001600160a01b038b165f908152600260205260409020556124bd866129e0565b6124c8818886612a99565b6124d185612b1f565b896001600160a01b03168b6001600160a01b03167fddf252ad1be2c89b69c2b068fc378daa952ba7f163c4a11628f55a4df523b3ef8a60405161251691815260200190565b60405180910390a35050505050505050505050565b5f805f805f612539866129b6565b945094509450945094505f805f6125538988888888612354565b6001600160a01b038e165f90815260026020526040902054929550909350915061257e908490612e83565b6001600160a01b03808d165f90815260026020908152604080832094909455918d168152600390915220546125b4908990612f12565b6001600160a01b038b165f9081526003602090815260408083209390935560029052205461249c908390612f12565b5f805f805f6125f1866129b6565b945094509450945094505f805f61260b8988888888612354565b6001600160a01b038e165f90815260026020526040902054929550909350915061246d908490612e83565b5f805f805f612644866129b6565b945094509450945094505f805f61265e8988888888612354565b6001600160a01b038e165f908152600360205260409020549295509093509150612689908a90612e83565b6001600160a01b038c165f9081526003602090815260408083209390935560029052205461257e908490612e83565b6040805160028082526060820183525f9260208301908036833701905050905030815f815181106126eb576126eb612eea565b60200260200101906001600160a01b031690816001600160a01b0316815250507f00000000000000000000000000000000000000000000000000000000000000006001600160a01b031663ad5c46486040518163ffffffff1660e01b8152600401602060405180830381865afa158015612767573d5f803e3d5ffd5b505050506040513d601f19601f8201168201806040525081019061278b9190612f3c565b8160018151811061279e5761279e612eea565b60200260200101906001600160a01b031690816001600160a01b0316815250506127e9307f0000000000000000000000000000000000000000000000000000000000000000846119e4565b60405163791ac94760e01b81526001600160a01b037f0000000000000000000000000000000000000000000000000000000000000000169063791ac9479061283d9085905f90869030904290600401612f57565b5f604051808303815f87803b158015612854575f80fd5b505af1158015611208573d5f803e3d5ffd5b612891307f0000000000000000000000000000000000000000000000000000000000000000846119e4565b7f00000000000000000000000000000000000000000000000000000000000000006001600160a01b031663f305d7198230855f806128d65f546001600160a01b031690565b60405160e088901b6001600160e01b03191681526001600160a01b03958616600482015260248101949094526044840192909252606483015290911660848201524260a482015260c40160606040518083038185885af115801561293c573d5f803e3d5ffd5b50505050506040513d601f19601f820116820180604052508101906129619190612fc8565b5050505050565b5f6064600e54836129799190612f25565b6108ba9190612ecb565b5f6064601054836129799190612f25565b5f6064600f54836129799190612f25565b5f6064601154836129799190612f25565b5f805f805f805f805f806129c98b6122dd565b939f929e50909c509a509098509650505050505050565b5f6129e9611e77565b90505f6129f68284612f25565b305f90815260026020526040902054909150612a13908290612f12565b305f9081526002602090815260408083209390935560079052205460ff1615612a6057305f90815260036020526040902054612a50908490612f12565b305f908152600360205260409020555b6040518381527f3a8ab79f6d1537e459a1a8379f48a77e1ffd07dda4b16ea97074fdab5dd8bf34906020015b60405180910390a1505050565b5f612aa2611e77565b90505f612aaf8284612f25565b90508085600a54612ac09190612e83565b612aca9190612e83565b600a55600b54612adb908590612f12565b600b55600954612aec908490612e83565b6009556040518481527f56b5df500587465b57d8ce799cc562a294f136b75a13718c574d9d36bd82805890602001611505565b5f612b28611e77565b90505f612b358284612f25565b601a546001600160a01b03165f90815260026020526040902054909150612b5d908290612f12565b601a80546001600160a01b039081165f90815260026020908152604080832095909555925490911681526007909152205460ff1615612bd657601a546001600160a01b03165f90815260036020526040902054612bbb908490612f12565b601a546001600160a01b03165f908152600360205260409020555b6040518381527f7a934c407238277f8cf36df7a2f4b5ef2eb3aa6190eeb615e32c02075a5730b090602001612a8c565b5f602080835283518060208501525f5b81811015612c3257858101830151858201604001528201612c16565b505f604082860101526040601f19601f8301168501019250505092915050565b6001600160a01b0381168114612c66575f80fd5b50565b5f8060408385031215612c7a575f80fd5b8235612c8581612c52565b946020939093013593505050565b5f805f60608486031215612ca5575f80fd5b8335612cb081612c52565b92506020840135612cc081612c52565b929592945050506040919091013590565b5f60208284031215612ce1575f80fd5b5035919050565b5f60208284031215612cf8575f80fd5b8135610a6d81612c52565b80358015158114612d12575f80fd5b919050565b5f8060408385031215612d28575f80fd5b82359150612d3860208401612d03565b90509250929050565b5f8083601f840112612d51575f80fd5b50813567ffffffffffffffff811115612d68575f80fd5b6020830191508360208260051b8501011115612d82575f80fd5b9250929050565b5f805f8060408587031215612d9c575f80fd5b843567ffffffffffffffff80821115612db3575f80fd5b612dbf88838901612d41565b90965094506020870135915080821115612dd7575f80fd5b50612de487828801612d41565b95989497509550505050565b5f805f8060808587031215612e03575f80fd5b5050823594602084013594506040840135936060013592509050565b5f60208284031215612e2f575f80fd5b610a6d82612d03565b5f8060408385031215612e49575f80fd5b8235612e5481612c52565b91506020830135612e6481612c52565b809150509250929050565b634e487b7160e01b5f52601160045260245ffd5b818103818111156108ba576108ba612e6f565b6020808252818101527f4f776e61626c653a2063616c6c6572206973206e6f7420746865206f776e6572604082015260600190565b5f82612ee557634e487b7160e01b5f52601260045260245ffd5b500490565b634e487b7160e01b5f52603260045260245ffd5b634e487b7160e01b5f52603160045260245ffd5b808201808211156108ba576108ba612e6f565b80820281158282048414176108ba576108ba612e6f565b5f60208284031215612f4c575f80fd5b8151610a6d81612c52565b5f60a08201878352602087602085015260a0604085015281875180845260c0860191506020890193505f5b81811015612fa75784516001600160a01b031683529383019391830191600101612f82565b50506001600160a01b03969096166060850152505050608001529392505050565b5f805f60608486031215612fda575f80fd5b835192506020840151915060408401519050925092509256fea264697066735822122028a3135a8b164c24be533f7fa2064290132efb365d20bc8c5e8bf0a1bece40a364736f6c63430008180033",
			"opcodes": "PUSH1 0xC0 PUSH1 0x40 MSTORE PUSH11 0x52B7D2DCC80CD2E4000000 PUSH1 0x9 DUP2 SWAP1 SSTORE PUSH3 0x22 SWAP1 PUSH0 NOT PUSH3 0x38F JUMP JUMPDEST PUSH3 0x2F SWAP1 PUSH0 NOT PUSH3 0x3AF JUMP JUMPDEST PUSH1 0xA SSTORE PUSH1 0xC DUP1 SLOAD PUSH2 0xFF00 NOT AND PUSH2 0x100 OR SWAP1 SSTORE PUSH9 0x56BC75E2D63100000 PUSH1 0xD SSTORE PUSH1 0x1 PUSH1 0x12 DUP2 SWAP1 SSTORE PUSH1 0x13 DUP2 SWAP1 SSTORE PUSH1 0x14 DUP2 SWAP1 SSTORE PUSH0 PUSH1 0x15 SSTORE PUSH1 0x2 PUSH1 0x16 DUP2 SWAP1 SSTORE PUSH1 0x17 DUP3 SWAP1 SSTORE PUSH1 0x18 SSTORE PUSH1 0x19 SSTORE CALLVALUE DUP1 ISZERO PUSH3 0x81 JUMPI PUSH0 DUP1 REVERT JUMPDEST POP PUSH1 0x40 MLOAD PUSH3 0x3480 CODESIZE SUB DUP1 PUSH3 0x3480 DUP4 CODECOPY DUP2 ADD PUSH1 0x40 DUP2 SWAP1 MSTORE PUSH3 0xA4 SWAP2 PUSH3 0x3D5 JUMP JUMPDEST PUSH0 DUP1 SLOAD PUSH1 0x1 PUSH1 0x1 PUSH1 0xA0 SHL SUB NOT AND CALLER SWAP1 DUP2 OR DUP3 SSTORE PUSH1 0x40 MLOAD SWAP1 SWAP2 DUP3 SWAP2 PUSH32 0x8BE0079C531659141344CD1FD0A4F28419497F9722A3DAAFE3B4186F6B6457E0 SWAP1 DUP3 SWAP1 LOG3 POP PUSH1 0x1 PUSH1 0x1 PUSH1 0xA0 SHL SUB DUP2 AND PUSH3 0x13F JUMPI PUSH1 0x40 MLOAD PUSH3 0x461BCD PUSH1 0xE5 SHL DUP2 MSTORE PUSH1 0x20 PUSH1 0x4 DUP3 ADD MSTORE PUSH1 0x1B PUSH1 0x24 DUP3 ADD MSTORE PUSH32 0x46756E642077616C6C65742063616E206E6F74206265207A65726F0000000000 PUSH1 0x44 DUP3 ADD MSTORE PUSH1 0x64 ADD PUSH1 0x40 MLOAD DUP1 SWAP2 SUB SWAP1 REVERT JUMPDEST PUSH1 0xA SLOAD CALLER PUSH0 SWAP1 DUP2 MSTORE PUSH1 0x2 PUSH1 0x20 SWAP1 DUP2 MSTORE PUSH1 0x40 SWAP2 DUP3 SWAP1 KECCAK256 SWAP3 SWAP1 SWAP3 SSTORE PUSH1 0x1A DUP1 SLOAD PUSH1 0x1 PUSH1 0x1 PUSH1 0xA0 SHL SUB NOT AND PUSH1 0x1 PUSH1 0x1 PUSH1 0xA0 SHL SUB DUP6 AND OR SWAP1 SSTORE DUP1 MLOAD PUSH4 0xC45A0155 PUSH1 0xE0 SHL DUP2 MSTORE SWAP1 MLOAD PUSH20 0xD99D1C33F9FC3444F8101754ABC46C52416550D1 SWAP3 DUP4 SWAP3 PUSH4 0xC45A0155 SWAP3 PUSH1 0x4 DUP1 DUP4 ADD SWAP4 SWAP3 DUP3 SWAP1 SUB ADD DUP2 DUP7 GAS STATICCALL ISZERO DUP1 ISZERO PUSH3 0x1BE JUMPI RETURNDATASIZE PUSH0 DUP1 RETURNDATACOPY RETURNDATASIZE PUSH0 REVERT JUMPDEST POP POP POP POP PUSH1 0x40 MLOAD RETURNDATASIZE PUSH1 0x1F NOT PUSH1 0x1F DUP3 ADD AND DUP3 ADD DUP1 PUSH1 0x40 MSTORE POP DUP2 ADD SWAP1 PUSH3 0x1E4 SWAP2 SWAP1 PUSH3 0x3D5 JUMP JUMPDEST PUSH1 0x1 PUSH1 0x1 PUSH1 0xA0 SHL SUB AND PUSH4 0xC9C65396 ADDRESS DUP4 PUSH1 0x1 PUSH1 0x1 PUSH1 0xA0 SHL SUB AND PUSH4 0xAD5C4648 PUSH1 0x40 MLOAD DUP2 PUSH4 0xFFFFFFFF AND PUSH1 0xE0 SHL DUP2 MSTORE PUSH1 0x4 ADD PUSH1 0x20 PUSH1 0x40 MLOAD DUP1 DUP4 SUB DUP2 DUP7 GAS STATICCALL ISZERO DUP1 ISZERO PUSH3 0x230 JUMPI RETURNDATASIZE PUSH0 DUP1 RETURNDATACOPY RETURNDATASIZE PUSH0 REVERT JUMPDEST POP POP POP POP PUSH1 0x40 MLOAD RETURNDATASIZE PUSH1 0x1F NOT PUSH1 0x1F DUP3 ADD AND DUP3 ADD DUP1 PUSH1 0x40 MSTORE POP DUP2 ADD SWAP1 PUSH3 0x256 SWAP2 SWAP1 PUSH3 0x3D5 JUMP JUMPDEST PUSH1 0x40 MLOAD PUSH1 0x1 PUSH1 0x1 PUSH1 0xE0 SHL SUB NOT PUSH1 0xE0 DUP6 SWAP1 SHL AND DUP2 MSTORE PUSH1 0x1 PUSH1 0x1 PUSH1 0xA0 SHL SUB SWAP3 DUP4 AND PUSH1 0x4 DUP3 ADD MSTORE SWAP2 AND PUSH1 0x24 DUP3 ADD MSTORE PUSH1 0x44 ADD PUSH1 0x20 PUSH1 0x40 MLOAD DUP1 DUP4 SUB DUP2 PUSH0 DUP8 GAS CALL ISZERO DUP1 ISZERO PUSH3 0x2A1 JUMPI RETURNDATASIZE PUSH0 DUP1 RETURNDATACOPY RETURNDATASIZE PUSH0 REVERT JUMPDEST POP POP POP POP PUSH1 0x40 MLOAD RETURNDATASIZE PUSH1 0x1F NOT PUSH1 0x1F DUP3 ADD AND DUP3 ADD DUP1 PUSH1 0x40 MSTORE POP DUP2 ADD SWAP1 PUSH3 0x2C7 SWAP2 SWAP1 PUSH3 0x3D5 JUMP JUMPDEST PUSH1 0x1 PUSH1 0x1 PUSH1 0xA0 SHL SUB SWAP1 DUP2 AND PUSH1 0xA0 MSTORE DUP2 AND PUSH1 0x80 MSTORE PUSH1 0x1 PUSH1 0x6 PUSH0 PUSH3 0x2F1 PUSH0 SLOAD PUSH1 0x1 PUSH1 0x1 PUSH1 0xA0 SHL SUB AND SWAP1 JUMP JUMPDEST PUSH1 0x1 PUSH1 0x1 PUSH1 0xA0 SHL SUB AND DUP2 MSTORE PUSH1 0x20 DUP1 DUP3 ADD SWAP3 SWAP1 SWAP3 MSTORE PUSH1 0x40 SWAP1 DUP2 ADD PUSH0 SWAP1 DUP2 KECCAK256 DUP1 SLOAD SWAP5 ISZERO ISZERO PUSH1 0xFF NOT SWAP6 DUP7 AND OR SWAP1 SSTORE ADDRESS DUP2 MSTORE PUSH1 0x6 SWAP1 SWAP3 MSTORE SWAP1 KECCAK256 DUP1 SLOAD SWAP1 SWAP2 AND PUSH1 0x1 OR SWAP1 SSTORE PUSH3 0x338 CALLER SWAP1 JUMP JUMPDEST PUSH1 0x1 PUSH1 0x1 PUSH1 0xA0 SHL SUB AND PUSH0 PUSH1 0x1 PUSH1 0x1 PUSH1 0xA0 SHL SUB AND PUSH32 0xDDF252AD1BE2C89B69C2B068FC378DAA952BA7F163C4A11628F55A4DF523B3EF PUSH1 0x9 SLOAD PUSH1 0x40 MLOAD PUSH3 0x37F SWAP2 DUP2 MSTORE PUSH1 0x20 ADD SWAP1 JUMP JUMPDEST PUSH1 0x40 MLOAD DUP1 SWAP2 SUB SWAP1 LOG3 POP POP PUSH3 0x404 JUMP JUMPDEST PUSH0 DUP3 PUSH3 0x3AA JUMPI PUSH4 0x4E487B71 PUSH1 0xE0 SHL PUSH0 MSTORE PUSH1 0x12 PUSH1 0x4 MSTORE PUSH1 0x24 PUSH0 REVERT JUMPDEST POP MOD SWAP1 JUMP JUMPDEST DUP2 DUP2 SUB DUP2 DUP2 GT ISZERO PUSH3 0x3CF JUMPI PUSH4 0x4E487B71 PUSH1 0xE0 SHL PUSH0 MSTORE PUSH1 0x11 PUSH1 0x4 MSTORE PUSH1 0x24 PUSH0 REVERT JUMPDEST SWAP3 SWAP2 POP POP JUMP JUMPDEST PUSH0 PUSH1 0x20 DUP3 DUP5 SUB SLT ISZERO PUSH3 0x3E6 JUMPI PUSH0 DUP1 REVERT JUMPDEST DUP2 MLOAD PUSH1 0x1 PUSH1 0x1 PUSH1 0xA0 SHL SUB DUP2 AND DUP2 EQ PUSH3 0x3FD JUMPI PUSH0 DUP1 REVERT JUMPDEST SWAP4 SWAP3 POP POP POP JUMP JUMPDEST PUSH1 0x80 MLOAD PUSH1 0xA0 MLOAD PUSH2 0x3029 PUSH3 0x457 PUSH0 CODECOPY PUSH0 DUP2 DUP2 PUSH2 0x4D6 ADD MSTORE DUP2 DUP2 PUSH2 0x1DB8 ADD MSTORE PUSH2 0x20E7 ADD MSTORE PUSH0 DUP2 DUP2 PUSH2 0x32E ADD MSTORE DUP2 DUP2 PUSH2 0x270D ADD MSTORE DUP2 DUP2 PUSH2 0x27C4 ADD MSTORE DUP2 DUP2 PUSH2 0x2800 ADD MSTORE DUP2 DUP2 PUSH2 0x286C ADD MSTORE PUSH2 0x2893 ADD MSTORE PUSH2 0x3029 PUSH0 RETURN INVALID PUSH1 0x80 PUSH1 0x40 MSTORE PUSH1 0x4 CALLDATASIZE LT PUSH2 0x283 JUMPI PUSH0 CALLDATALOAD PUSH1 0xE0 SHR DUP1 PUSH4 0x664A1AD6 GT PUSH2 0x155 JUMPI DUP1 PUSH4 0xC49B9A80 GT PUSH2 0xBE JUMPI DUP1 PUSH4 0xE1EAF3BB GT PUSH2 0x78 JUMPI DUP1 PUSH4 0xE1EAF3BB EQ PUSH2 0x804 JUMPI DUP1 PUSH4 0xEA204636 EQ PUSH2 0x819 JUMPI DUP1 PUSH4 0xEA2F0B37 EQ PUSH2 0x82E JUMPI DUP1 PUSH4 0xEA7DB9E5 EQ PUSH2 0x84D JUMPI DUP1 PUSH4 0xEB91E651 EQ PUSH2 0x86C JUMPI DUP1 PUSH4 0xF2FDE38B EQ PUSH2 0x88B JUMPI PUSH0 DUP1 REVERT JUMPDEST DUP1 PUSH4 0xC49B9A80 EQ PUSH2 0x720 JUMPI DUP1 PUSH4 0xD621E813 EQ PUSH2 0x73F JUMPI DUP1 PUSH4 0xD7D7442F EQ PUSH2 0x75E JUMPI DUP1 PUSH4 0xDBAC26E9 EQ PUSH2 0x77D JUMPI DUP1 PUSH4 0xDD62ED3E EQ PUSH2 0x7AB JUMPI DUP1 PUSH4 0xE1662ED3 EQ PUSH2 0x7EF JUMPI PUSH0 DUP1 REVERT JUMPDEST DUP1 PUSH4 0x95D89B41 GT PUSH2 0x10F JUMPI DUP1 PUSH4 0x95D89B41 EQ PUSH2 0x664 JUMPI DUP1 PUSH4 0x9CFE42DA EQ PUSH2 0x68F JUMPI DUP1 PUSH4 0xA457C2D7 EQ PUSH2 0x6AE JUMPI DUP1 PUSH4 0xA9059CBB EQ PUSH2 0x6CD JUMPI DUP1 PUSH4 0xB618A70D EQ PUSH2 0x6EC JUMPI DUP1 PUSH4 0xBDF024EC EQ PUSH2 0x70B JUMPI PUSH0 DUP1 REVERT JUMPDEST DUP1 PUSH4 0x664A1AD6 EQ PUSH2 0x5A0 JUMPI DUP1 PUSH4 0x67243482 EQ PUSH2 0x5BF JUMPI DUP1 PUSH4 0x70A08231 EQ PUSH2 0x5DE JUMPI DUP1 PUSH4 0x715018A6 EQ PUSH2 0x5FD JUMPI DUP1 PUSH4 0x88F82020 EQ PUSH2 0x611 JUMPI DUP1 PUSH4 0x8DA5CB5B EQ PUSH2 0x648 JUMPI PUSH0 DUP1 REVERT JUMPDEST DUP1 PUSH4 0x3685D419 GT PUSH2 0x1F7 JUMPI DUP1 PUSH4 0x49BD5A5E GT PUSH2 0x1B1 JUMPI DUP1 PUSH4 0x49BD5A5E EQ PUSH2 0x4C5 JUMPI DUP1 PUSH4 0x4A74BB02 EQ PUSH2 0x4F8 JUMPI DUP1 PUSH4 0x52390C02 EQ PUSH2 0x516 JUMPI DUP1 PUSH4 0x5252A228 EQ PUSH2 0x535 JUMPI DUP1 PUSH4 0x5342ACB4 EQ PUSH2 0x54A JUMPI DUP1 PUSH4 0x55CE3B9A EQ PUSH2 0x581 JUMPI PUSH0 DUP1 REVERT JUMPDEST DUP1 PUSH4 0x3685D419 EQ PUSH2 0x415 JUMPI DUP1 PUSH4 0x39509351 EQ PUSH2 0x434 JUMPI DUP1 PUSH4 0x3BD5D173 EQ PUSH2 0x453 JUMPI DUP1 PUSH4 0x437823EC EQ PUSH2 0x472 JUMPI DUP1 PUSH4 0x4549B039 EQ PUSH2 0x491 JUMPI DUP1 PUSH4 0x463DB7DD EQ PUSH2 0x4B0 JUMPI PUSH0 DUP1 REVERT JUMPDEST DUP1 PUSH4 0x23B872DD GT PUSH2 0x248 JUMPI DUP1 PUSH4 0x23B872DD EQ PUSH2 0x37C JUMPI DUP1 PUSH4 0x281D9A7A EQ PUSH2 0x39B JUMPI DUP1 PUSH4 0x293230B8 EQ PUSH2 0x3B0 JUMPI DUP1 PUSH4 0x2D5624ED EQ PUSH2 0x3C6 JUMPI DUP1 PUSH4 0x2D838119 EQ PUSH2 0x3DB JUMPI DUP1 PUSH4 0x313CE567 EQ PUSH2 0x3FA JUMPI PUSH0 DUP1 REVERT JUMPDEST DUP1 PUSH4 0x6FDDE03 EQ PUSH2 0x28E JUMPI DUP1 PUSH4 0x95EA7B3 EQ PUSH2 0x2D0 JUMPI DUP1 PUSH4 0x13114A9D EQ PUSH2 0x2FF JUMPI DUP1 PUSH4 0x1694505E EQ PUSH2 0x31D JUMPI DUP1 PUSH4 0x18160DDD EQ PUSH2 0x368 JUMPI PUSH0 DUP1 REVERT JUMPDEST CALLDATASIZE PUSH2 0x28A JUMPI STOP JUMPDEST PUSH0 DUP1 REVERT JUMPDEST CALLVALUE DUP1 ISZERO PUSH2 0x299 JUMPI PUSH0 DUP1 REVERT JUMPDEST POP PUSH1 0x40 DUP1 MLOAD DUP1 DUP3 ADD SWAP1 SWAP2 MSTORE PUSH1 0x8 DUP2 MSTORE PUSH8 0x4561676C65204149 PUSH1 0xC0 SHL PUSH1 0x20 DUP3 ADD MSTORE JUMPDEST PUSH1 0x40 MLOAD PUSH2 0x2C7 SWAP2 SWAP1 PUSH2 0x2C06 JUMP JUMPDEST PUSH1 0x40 MLOAD DUP1 SWAP2 SUB SWAP1 RETURN JUMPDEST CALLVALUE DUP1 ISZERO PUSH2 0x2DB JUMPI PUSH0 DUP1 REVERT JUMPDEST POP PUSH2 0x2EF PUSH2 0x2EA CALLDATASIZE PUSH1 0x4 PUSH2 0x2C69 JUMP JUMPDEST PUSH2 0x8AA JUMP JUMPDEST PUSH1 0x40 MLOAD SWAP1 ISZERO ISZERO DUP2 MSTORE PUSH1 0x20 ADD PUSH2 0x2C7 JUMP JUMPDEST CALLVALUE DUP1 ISZERO PUSH2 0x30A JUMPI PUSH0 DUP1 REVERT JUMPDEST POP PUSH1 0xB SLOAD JUMPDEST PUSH1 0x40 MLOAD SWAP1 DUP2 MSTORE PUSH1 0x20 ADD PUSH2 0x2C7 JUMP JUMPDEST CALLVALUE DUP1 ISZERO PUSH2 0x328 JUMPI PUSH0 DUP1 REVERT JUMPDEST POP PUSH2 0x350 PUSH32 0x0 DUP2 JUMP JUMPDEST PUSH1 0x40 MLOAD PUSH1 0x1 PUSH1 0x1 PUSH1 0xA0 SHL SUB SWAP1 SWAP2 AND DUP2 MSTORE PUSH1 0x20 ADD PUSH2 0x2C7 JUMP JUMPDEST CALLVALUE DUP1 ISZERO PUSH2 0x373 JUMPI PUSH0 DUP1 REVERT JUMPDEST POP PUSH1 0x9 SLOAD PUSH2 0x30F JUMP JUMPDEST CALLVALUE DUP1 ISZERO PUSH2 0x387 JUMPI PUSH0 DUP1 REVERT JUMPDEST POP PUSH2 0x2EF PUSH2 0x396 CALLDATASIZE PUSH1 0x4 PUSH2 0x2C93 JUMP JUMPDEST PUSH2 0x8C0 JUMP JUMPDEST CALLVALUE DUP1 ISZERO PUSH2 0x3A6 JUMPI PUSH0 DUP1 REVERT JUMPDEST POP PUSH2 0x30F PUSH1 0x15 SLOAD DUP2 JUMP JUMPDEST CALLVALUE DUP1 ISZERO PUSH2 0x3BB JUMPI PUSH0 DUP1 REVERT JUMPDEST POP PUSH2 0x3C4 PUSH2 0x910 JUMP JUMPDEST STOP JUMPDEST CALLVALUE DUP1 ISZERO PUSH2 0x3D1 JUMPI PUSH0 DUP1 REVERT JUMPDEST POP PUSH2 0x30F PUSH1 0x19 SLOAD DUP2 JUMP JUMPDEST CALLVALUE DUP1 ISZERO PUSH2 0x3E6 JUMPI PUSH0 DUP1 REVERT JUMPDEST POP PUSH2 0x30F PUSH2 0x3F5 CALLDATASIZE PUSH1 0x4 PUSH2 0x2CD1 JUMP JUMPDEST PUSH2 0x9F2 JUMP JUMPDEST CALLVALUE DUP1 ISZERO PUSH2 0x405 JUMPI PUSH0 DUP1 REVERT JUMPDEST POP PUSH1 0x40 MLOAD PUSH1 0x12 DUP2 MSTORE PUSH1 0x20 ADD PUSH2 0x2C7 JUMP JUMPDEST CALLVALUE DUP1 ISZERO PUSH2 0x420 JUMPI PUSH0 DUP1 REVERT JUMPDEST POP PUSH2 0x3C4 PUSH2 0x42F CALLDATASIZE PUSH1 0x4 PUSH2 0x2CE8 JUMP JUMPDEST PUSH2 0xA74 JUMP JUMPDEST CALLVALUE DUP1 ISZERO PUSH2 0x43F JUMPI PUSH0 DUP1 REVERT JUMPDEST POP PUSH2 0x2EF PUSH2 0x44E CALLDATASIZE PUSH1 0x4 PUSH2 0x2C69 JUMP JUMPDEST PUSH2 0xC18 JUMP JUMPDEST CALLVALUE DUP1 ISZERO PUSH2 0x45E JUMPI PUSH0 DUP1 REVERT JUMPDEST POP PUSH2 0x3C4 PUSH2 0x46D CALLDATASIZE PUSH1 0x4 PUSH2 0x2CD1 JUMP JUMPDEST PUSH2 0xC4E JUMP JUMPDEST CALLVALUE DUP1 ISZERO PUSH2 0x47D JUMPI PUSH0 DUP1 REVERT JUMPDEST POP PUSH2 0x3C4 PUSH2 0x48C CALLDATASIZE PUSH1 0x4 PUSH2 0x2CE8 JUMP JUMPDEST PUSH2 0xD32 JUMP JUMPDEST CALLVALUE DUP1 ISZERO PUSH2 0x49C JUMPI PUSH0 DUP1 REVERT JUMPDEST POP PUSH2 0x30F PUSH2 0x4AB CALLDATASIZE PUSH1 0x4 PUSH2 0x2D17 JUMP JUMPDEST PUSH2 0xDE6 JUMP JUMPDEST CALLVALUE DUP1 ISZERO PUSH2 0x4BB JUMPI PUSH0 DUP1 REVERT JUMPDEST POP PUSH2 0x30F PUSH1 0x17 SLOAD DUP2 JUMP JUMPDEST CALLVALUE DUP1 ISZERO PUSH2 0x4D0 JUMPI PUSH0 DUP1 REVERT JUMPDEST POP PUSH2 0x350 PUSH32 0x0 DUP2 JUMP JUMPDEST CALLVALUE DUP1 ISZERO PUSH2 0x503 JUMPI PUSH0 DUP1 REVERT JUMPDEST POP PUSH1 0xC SLOAD PUSH2 0x2EF SWAP1 PUSH2 0x100 SWAP1 DIV PUSH1 0xFF AND DUP2 JUMP JUMPDEST CALLVALUE DUP1 ISZERO PUSH2 0x521 JUMPI PUSH0 DUP1 REVERT JUMPDEST POP PUSH2 0x3C4 PUSH2 0x530 CALLDATASIZE PUSH1 0x4 PUSH2 0x2CE8 JUMP JUMPDEST PUSH2 0xE66 JUMP JUMPDEST CALLVALUE DUP1 ISZERO PUSH2 0x540 JUMPI PUSH0 DUP1 REVERT JUMPDEST POP PUSH2 0x30F PUSH1 0x12 SLOAD DUP2 JUMP JUMPDEST CALLVALUE DUP1 ISZERO PUSH2 0x555 JUMPI PUSH0 DUP1 REVERT JUMPDEST POP PUSH2 0x2EF PUSH2 0x564 CALLDATASIZE PUSH1 0x4 PUSH2 0x2CE8 JUMP JUMPDEST PUSH1 0x1 PUSH1 0x1 PUSH1 0xA0 SHL SUB AND PUSH0 SWAP1 DUP2 MSTORE PUSH1 0x6 PUSH1 0x20 MSTORE PUSH1 0x40 SWAP1 KECCAK256 SLOAD PUSH1 0xFF AND SWAP1 JUMP JUMPDEST CALLVALUE DUP1 ISZERO PUSH2 0x58C JUMPI PUSH0 DUP1 REVERT JUMPDEST POP PUSH2 0x3C4 PUSH2 0x59B CALLDATASIZE PUSH1 0x4 PUSH2 0x2CE8 JUMP JUMPDEST PUSH2 0xFB3 JUMP JUMPDEST CALLVALUE DUP1 ISZERO PUSH2 0x5AB JUMPI PUSH0 DUP1 REVERT JUMPDEST POP PUSH1 0x1A SLOAD PUSH2 0x350 SWAP1 PUSH1 0x1 PUSH1 0x1 PUSH1 0xA0 SHL SUB AND DUP2 JUMP JUMPDEST CALLVALUE DUP1 ISZERO PUSH2 0x5CA JUMPI PUSH0 DUP1 REVERT JUMPDEST POP PUSH2 0x3C4 PUSH2 0x5D9 CALLDATASIZE PUSH1 0x4 PUSH2 0x2D89 JUMP JUMPDEST PUSH2 0x1087 JUMP JUMPDEST CALLVALUE DUP1 ISZERO PUSH2 0x5E9 JUMPI PUSH0 DUP1 REVERT JUMPDEST POP PUSH2 0x30F PUSH2 0x5F8 CALLDATASIZE PUSH1 0x4 PUSH2 0x2CE8 JUMP JUMPDEST PUSH2 0x1210 JUMP JUMPDEST CALLVALUE DUP1 ISZERO PUSH2 0x608 JUMPI PUSH0 DUP1 REVERT JUMPDEST POP PUSH2 0x3C4 PUSH2 0x126C JUMP JUMPDEST CALLVALUE DUP1 ISZERO PUSH2 0x61C JUMPI PUSH0 DUP1 REVERT JUMPDEST POP PUSH2 0x2EF PUSH2 0x62B CALLDATASIZE PUSH1 0x4 PUSH2 0x2CE8 JUMP JUMPDEST PUSH1 0x1 PUSH1 0x1 PUSH1 0xA0 SHL SUB AND PUSH0 SWAP1 DUP2 MSTORE PUSH1 0x7 PUSH1 0x20 MSTORE PUSH1 0x40 SWAP1 KECCAK256 SLOAD PUSH1 0xFF AND SWAP1 JUMP JUMPDEST CALLVALUE DUP1 ISZERO PUSH2 0x653 JUMPI PUSH0 DUP1 REVERT JUMPDEST POP PUSH0 SLOAD PUSH1 0x1 PUSH1 0x1 PUSH1 0xA0 SHL SUB AND PUSH2 0x350 JUMP JUMPDEST CALLVALUE DUP1 ISZERO PUSH2 0x66F JUMPI PUSH0 DUP1 REVERT JUMPDEST POP PUSH1 0x40 DUP1 MLOAD DUP1 DUP3 ADD SWAP1 SWAP2 MSTORE PUSH1 0x3 DUP2 MSTORE PUSH3 0x454149 PUSH1 0xE8 SHL PUSH1 0x20 DUP3 ADD MSTORE PUSH2 0x2BA JUMP JUMPDEST CALLVALUE DUP1 ISZERO PUSH2 0x69A JUMPI PUSH0 DUP1 REVERT JUMPDEST POP PUSH2 0x3C4 PUSH2 0x6A9 CALLDATASIZE PUSH1 0x4 PUSH2 0x2CE8 JUMP JUMPDEST PUSH2 0x12DD JUMP JUMPDEST CALLVALUE DUP1 ISZERO PUSH2 0x6B9 JUMPI PUSH0 DUP1 REVERT JUMPDEST POP PUSH2 0x2EF PUSH2 0x6C8 CALLDATASIZE PUSH1 0x4 PUSH2 0x2C69 JUMP JUMPDEST PUSH2 0x13C1 JUMP JUMPDEST CALLVALUE DUP1 ISZERO PUSH2 0x6D8 JUMPI PUSH0 DUP1 REVERT JUMPDEST POP PUSH2 0x2EF PUSH2 0x6E7 CALLDATASIZE PUSH1 0x4 PUSH2 0x2C69 JUMP JUMPDEST PUSH2 0x13F7 JUMP JUMPDEST CALLVALUE DUP1 ISZERO PUSH2 0x6F7 JUMPI PUSH0 DUP1 REVERT JUMPDEST POP PUSH2 0x3C4 PUSH2 0x706 CALLDATASIZE PUSH1 0x4 PUSH2 0x2DF0 JUMP JUMPDEST PUSH2 0x1403 JUMP JUMPDEST CALLVALUE DUP1 ISZERO PUSH2 0x716 JUMPI PUSH0 DUP1 REVERT JUMPDEST POP PUSH2 0x30F PUSH1 0x18 SLOAD DUP2 JUMP JUMPDEST CALLVALUE DUP1 ISZERO PUSH2 0x72B JUMPI PUSH0 DUP1 REVERT JUMPDEST POP PUSH2 0x3C4 PUSH2 0x73A CALLDATASIZE PUSH1 0x4 PUSH2 0x2E1F JUMP JUMPDEST PUSH2 0x1514 JUMP JUMPDEST CALLVALUE DUP1 ISZERO PUSH2 0x74A JUMPI PUSH0 DUP1 REVERT JUMPDEST POP PUSH1 0xC SLOAD PUSH2 0x2EF SWAP1 PUSH3 0x10000 SWAP1 DIV PUSH1 0xFF AND DUP2 JUMP JUMPDEST CALLVALUE DUP1 ISZERO PUSH2 0x769 JUMPI PUSH0 DUP1 REVERT JUMPDEST POP PUSH2 0x3C4 PUSH2 0x778 CALLDATASIZE PUSH1 0x4 PUSH2 0x2CD1 JUMP JUMPDEST PUSH2 0x1586 JUMP JUMPDEST CALLVALUE DUP1 ISZERO PUSH2 0x788 JUMPI PUSH0 DUP1 REVERT JUMPDEST POP PUSH2 0x2EF PUSH2 0x797 CALLDATASIZE PUSH1 0x4 PUSH2 0x2CE8 JUMP JUMPDEST PUSH1 0x5 PUSH1 0x20 MSTORE PUSH0 SWAP1 DUP2 MSTORE PUSH1 0x40 SWAP1 KECCAK256 SLOAD PUSH1 0xFF AND DUP2 JUMP JUMPDEST CALLVALUE DUP1 ISZERO PUSH2 0x7B6 JUMPI PUSH0 DUP1 REVERT JUMPDEST POP PUSH2 0x30F PUSH2 0x7C5 CALLDATASIZE PUSH1 0x4 PUSH2 0x2E38 JUMP JUMPDEST PUSH1 0x1 PUSH1 0x1 PUSH1 0xA0 SHL SUB SWAP2 DUP3 AND PUSH0 SWAP1 DUP2 MSTORE PUSH1 0x4 PUSH1 0x20 SWAP1 DUP2 MSTORE PUSH1 0x40 DUP1 DUP4 KECCAK256 SWAP4 SWAP1 SWAP5 AND DUP3 MSTORE SWAP2 SWAP1 SWAP2 MSTORE KECCAK256 SLOAD SWAP1 JUMP JUMPDEST CALLVALUE DUP1 ISZERO PUSH2 0x7FA JUMPI PUSH0 DUP1 REVERT JUMPDEST POP PUSH2 0x30F PUSH1 0x16 SLOAD DUP2 JUMP JUMPDEST CALLVALUE DUP1 ISZERO PUSH2 0x80F JUMPI PUSH0 DUP1 REVERT JUMPDEST POP PUSH2 0x30F PUSH1 0x13 SLOAD DUP2 JUMP JUMPDEST CALLVALUE DUP1 ISZERO PUSH2 0x824 JUMPI PUSH0 DUP1 REVERT JUMPDEST POP PUSH2 0x30F PUSH1 0x14 SLOAD DUP2 JUMP JUMPDEST CALLVALUE DUP1 ISZERO PUSH2 0x839 JUMPI PUSH0 DUP1 REVERT JUMPDEST POP PUSH2 0x3C4 PUSH2 0x848 CALLDATASIZE PUSH1 0x4 PUSH2 0x2CE8 JUMP JUMPDEST PUSH2 0x166F JUMP JUMPDEST CALLVALUE DUP1 ISZERO PUSH2 0x858 JUMPI PUSH0 DUP1 REVERT JUMPDEST POP PUSH2 0x3C4 PUSH2 0x867 CALLDATASIZE PUSH1 0x4 PUSH2 0x2DF0 JUMP JUMPDEST PUSH2 0x1718 JUMP JUMPDEST CALLVALUE DUP1 ISZERO PUSH2 0x877 JUMPI PUSH0 DUP1 REVERT JUMPDEST POP PUSH2 0x3C4 PUSH2 0x886 CALLDATASIZE PUSH1 0x4 PUSH2 0x2CE8 JUMP JUMPDEST PUSH2 0x181D JUMP JUMPDEST CALLVALUE DUP1 ISZERO PUSH2 0x896 JUMPI PUSH0 DUP1 REVERT JUMPDEST POP PUSH2 0x3C4 PUSH2 0x8A5 CALLDATASIZE PUSH1 0x4 PUSH2 0x2CE8 JUMP JUMPDEST PUSH2 0x18FD JUMP JUMPDEST PUSH0 PUSH2 0x8B6 CALLER DUP5 DUP5 PUSH2 0x19E4 JUMP JUMPDEST POP PUSH1 0x1 JUMPDEST SWAP3 SWAP2 POP POP JUMP JUMPDEST PUSH0 PUSH2 0x8CC DUP5 DUP5 DUP5 PUSH2 0x1B07 JUMP JUMPDEST PUSH1 0x1 PUSH1 0x1 PUSH1 0xA0 SHL SUB DUP5 AND PUSH0 SWAP1 DUP2 MSTORE PUSH1 0x4 PUSH1 0x20 SWAP1 DUP2 MSTORE PUSH1 0x40 DUP1 DUP4 KECCAK256 CALLER DUP1 DUP6 MSTORE SWAP3 MSTORE SWAP1 SWAP2 KECCAK256 SLOAD PUSH2 0x906 SWAP2 DUP7 SWAP2 PUSH2 0x901 SWAP1 DUP7 SWAP1 PUSH2 0x2E83 JUMP JUMPDEST PUSH2 0x19E4 JUMP JUMPDEST POP PUSH1 0x1 SWAP4 SWAP3 POP POP POP JUMP JUMPDEST PUSH0 SLOAD PUSH1 0x1 PUSH1 0x1 PUSH1 0xA0 SHL SUB AND CALLER EQ PUSH2 0x942 JUMPI PUSH1 0x40 MLOAD PUSH3 0x461BCD PUSH1 0xE5 SHL DUP2 MSTORE PUSH1 0x4 ADD PUSH2 0x939 SWAP1 PUSH2 0x2E96 JUMP JUMPDEST PUSH1 0x40 MLOAD DUP1 SWAP2 SUB SWAP1 REVERT JUMPDEST PUSH1 0xC SLOAD PUSH3 0x10000 SWAP1 DIV PUSH1 0xFF AND ISZERO PUSH2 0x99B JUMPI PUSH1 0x40 MLOAD PUSH3 0x461BCD PUSH1 0xE5 SHL DUP2 MSTORE PUSH1 0x20 PUSH1 0x4 DUP3 ADD MSTORE PUSH1 0x17 PUSH1 0x24 DUP3 ADD MSTORE PUSH32 0x54726164696E6720616C72656164792073746172746564000000000000000000 PUSH1 0x44 DUP3 ADD MSTORE PUSH1 0x64 ADD PUSH2 0x939 JUMP JUMPDEST PUSH1 0xC DUP1 SLOAD PUSH3 0xFF0000 NOT AND PUSH3 0x10000 SWAP1 DUP2 OR SWAP2 DUP3 SWAP1 SSTORE PUSH1 0x40 MLOAD PUSH32 0x7D7F00509DD73AC4449F698AE75CCC797895EFF5FA9D446D3DF387598A26E735 SWAP3 PUSH2 0x9E8 SWAP3 SWAP1 DIV PUSH1 0xFF AND ISZERO ISZERO DUP2 MSTORE PUSH1 0x20 ADD SWAP1 JUMP JUMPDEST PUSH1 0x40 MLOAD DUP1 SWAP2 SUB SWAP1 LOG1 JUMP JUMPDEST PUSH0 PUSH1 0xA SLOAD DUP3 GT ISZERO PUSH2 0xA58 JUMPI PUSH1 0x40 MLOAD PUSH3 0x461BCD PUSH1 0xE5 SHL DUP2 MSTORE PUSH1 0x20 PUSH1 0x4 DUP3 ADD MSTORE PUSH1 0x2A PUSH1 0x24 DUP3 ADD MSTORE PUSH32 0x416D6F756E74206D757374206265206C657373207468616E20746F74616C2072 PUSH1 0x44 DUP3 ADD MSTORE PUSH10 0x65666C656374696F6E73 PUSH1 0xB0 SHL PUSH1 0x64 DUP3 ADD MSTORE PUSH1 0x84 ADD PUSH2 0x939 JUMP JUMPDEST PUSH0 PUSH2 0xA61 PUSH2 0x1E77 JUMP JUMPDEST SWAP1 POP PUSH2 0xA6D DUP2 DUP5 PUSH2 0x2ECB JUMP JUMPDEST SWAP4 SWAP3 POP POP POP JUMP JUMPDEST PUSH0 SLOAD PUSH1 0x1 PUSH1 0x1 PUSH1 0xA0 SHL SUB AND CALLER EQ PUSH2 0xA9D JUMPI PUSH1 0x40 MLOAD PUSH3 0x461BCD PUSH1 0xE5 SHL DUP2 MSTORE PUSH1 0x4 ADD PUSH2 0x939 SWAP1 PUSH2 0x2E96 JUMP JUMPDEST PUSH1 0x1 PUSH1 0x1 PUSH1 0xA0 SHL SUB DUP2 AND PUSH0 SWAP1 DUP2 MSTORE PUSH1 0x7 PUSH1 0x20 MSTORE PUSH1 0x40 SWAP1 KECCAK256 SLOAD PUSH1 0xFF AND PUSH2 0xB04 JUMPI PUSH1 0x40 MLOAD PUSH3 0x461BCD PUSH1 0xE5 SHL DUP2 MSTORE PUSH1 0x20 PUSH1 0x4 DUP3 ADD MSTORE PUSH1 0x1B PUSH1 0x24 DUP3 ADD MSTORE PUSH32 0x4163636F756E7420697320616C726561647920496E636C756465640000000000 PUSH1 0x44 DUP3 ADD MSTORE PUSH1 0x64 ADD PUSH2 0x939 JUMP JUMPDEST PUSH0 JUMPDEST PUSH1 0x8 SLOAD DUP2 LT ISZERO PUSH2 0xC14 JUMPI DUP2 PUSH1 0x1 PUSH1 0x1 PUSH1 0xA0 SHL SUB AND PUSH1 0x8 DUP3 DUP2 SLOAD DUP2 LT PUSH2 0xB2D JUMPI PUSH2 0xB2D PUSH2 0x2EEA JUMP JUMPDEST PUSH0 SWAP2 DUP3 MSTORE PUSH1 0x20 SWAP1 SWAP2 KECCAK256 ADD SLOAD PUSH1 0x1 PUSH1 0x1 PUSH1 0xA0 SHL SUB AND SUB PUSH2 0xC0C JUMPI PUSH1 0x8 DUP1 SLOAD PUSH2 0xB56 SWAP1 PUSH1 0x1 SWAP1 PUSH2 0x2E83 JUMP JUMPDEST DUP2 SLOAD DUP2 LT PUSH2 0xB66 JUMPI PUSH2 0xB66 PUSH2 0x2EEA JUMP JUMPDEST PUSH0 SWAP2 DUP3 MSTORE PUSH1 0x20 SWAP1 SWAP2 KECCAK256 ADD SLOAD PUSH1 0x8 DUP1 SLOAD PUSH1 0x1 PUSH1 0x1 PUSH1 0xA0 SHL SUB SWAP1 SWAP3 AND SWAP2 DUP4 SWAP1 DUP2 LT PUSH2 0xB91 JUMPI PUSH2 0xB91 PUSH2 0x2EEA JUMP JUMPDEST PUSH0 SWAP2 DUP3 MSTORE PUSH1 0x20 DUP1 DUP4 KECCAK256 SWAP2 SWAP1 SWAP2 ADD DUP1 SLOAD PUSH1 0x1 PUSH1 0x1 PUSH1 0xA0 SHL SUB NOT AND PUSH1 0x1 PUSH1 0x1 PUSH1 0xA0 SHL SUB SWAP5 DUP6 AND OR SWAP1 SSTORE SWAP2 DUP5 AND DUP2 MSTORE PUSH1 0x3 DUP3 MSTORE PUSH1 0x40 DUP1 DUP3 KECCAK256 DUP3 SWAP1 SSTORE PUSH1 0x7 SWAP1 SWAP3 MSTORE KECCAK256 DUP1 SLOAD PUSH1 0xFF NOT AND SWAP1 SSTORE PUSH1 0x8 DUP1 SLOAD DUP1 PUSH2 0xBE8 JUMPI PUSH2 0xBE8 PUSH2 0x2EFE JUMP JUMPDEST PUSH0 DUP3 DUP2 MSTORE PUSH1 0x20 SWAP1 KECCAK256 DUP2 ADD PUSH0 NOT SWAP1 DUP2 ADD DUP1 SLOAD PUSH1 0x1 PUSH1 0x1 PUSH1 0xA0 SHL SUB NOT AND SWAP1 SSTORE ADD SWAP1 SSTORE POP POP JUMP JUMPDEST PUSH1 0x1 ADD PUSH2 0xB06 JUMP JUMPDEST POP POP JUMP JUMPDEST CALLER PUSH0 DUP2 DUP2 MSTORE PUSH1 0x4 PUSH1 0x20 SWAP1 DUP2 MSTORE PUSH1 0x40 DUP1 DUP4 KECCAK256 PUSH1 0x1 PUSH1 0x1 PUSH1 0xA0 SHL SUB DUP8 AND DUP5 MSTORE SWAP1 SWAP2 MSTORE DUP2 KECCAK256 SLOAD SWAP1 SWAP2 PUSH2 0x8B6 SWAP2 DUP6 SWAP1 PUSH2 0x901 SWAP1 DUP7 SWAP1 PUSH2 0x2F12 JUMP JUMPDEST CALLER PUSH0 DUP2 DUP2 MSTORE PUSH1 0x7 PUSH1 0x20 MSTORE PUSH1 0x40 SWAP1 KECCAK256 SLOAD PUSH1 0xFF AND ISZERO PUSH2 0xCC2 JUMPI PUSH1 0x40 MLOAD PUSH3 0x461BCD PUSH1 0xE5 SHL DUP2 MSTORE PUSH1 0x20 PUSH1 0x4 DUP3 ADD MSTORE PUSH1 0x2C PUSH1 0x24 DUP3 ADD MSTORE PUSH32 0x4578636C75646564206164647265737365732063616E6E6F742063616C6C2074 PUSH1 0x44 DUP3 ADD MSTORE PUSH12 0x3434B990333AB731BA34B7B7 PUSH1 0xA1 SHL PUSH1 0x64 DUP3 ADD MSTORE PUSH1 0x84 ADD PUSH2 0x939 JUMP JUMPDEST PUSH0 PUSH2 0xCCC DUP4 PUSH2 0x1E98 JUMP JUMPDEST POP PUSH1 0x1 PUSH1 0x1 PUSH1 0xA0 SHL SUB DUP4 AND PUSH0 SWAP1 DUP2 MSTORE PUSH1 0x2 PUSH1 0x20 MSTORE PUSH1 0x40 SWAP1 KECCAK256 SLOAD SWAP1 SWAP2 POP PUSH2 0xCF3 SWAP1 DUP3 SWAP1 PUSH2 0x2E83 JUMP JUMPDEST PUSH1 0x1 PUSH1 0x1 PUSH1 0xA0 SHL SUB DUP4 AND PUSH0 SWAP1 DUP2 MSTORE PUSH1 0x2 PUSH1 0x20 MSTORE PUSH1 0x40 SWAP1 KECCAK256 SSTORE PUSH1 0xA SLOAD PUSH2 0xD19 SWAP1 DUP3 SWAP1 PUSH2 0x2E83 JUMP JUMPDEST PUSH1 0xA SSTORE PUSH1 0xB SLOAD PUSH2 0xD2A SWAP1 DUP5 SWAP1 PUSH2 0x2F12 JUMP JUMPDEST PUSH1 0xB SSTORE POP POP POP JUMP JUMPDEST PUSH0 SLOAD PUSH1 0x1 PUSH1 0x1 PUSH1 0xA0 SHL SUB AND CALLER EQ PUSH2 0xD5B JUMPI PUSH1 0x40 MLOAD PUSH3 0x461BCD PUSH1 0xE5 SHL DUP2 MSTORE PUSH1 0x4 ADD PUSH2 0x939 SWAP1 PUSH2 0x2E96 JUMP JUMPDEST PUSH1 0x1 PUSH1 0x1 PUSH1 0xA0 SHL SUB DUP2 AND PUSH0 SWAP1 DUP2 MSTORE PUSH1 0x6 PUSH1 0x20 MSTORE PUSH1 0x40 SWAP1 KECCAK256 SLOAD PUSH1 0xFF AND ISZERO PUSH2 0xDC3 JUMPI PUSH1 0x40 MLOAD PUSH3 0x461BCD PUSH1 0xE5 SHL DUP2 MSTORE PUSH1 0x20 PUSH1 0x4 DUP3 ADD MSTORE PUSH1 0x18 PUSH1 0x24 DUP3 ADD MSTORE PUSH32 0x416C72656179206578636C756465642066726F6D206665650000000000000000 PUSH1 0x44 DUP3 ADD MSTORE PUSH1 0x64 ADD PUSH2 0x939 JUMP JUMPDEST PUSH1 0x1 PUSH1 0x1 PUSH1 0xA0 SHL SUB AND PUSH0 SWAP1 DUP2 MSTORE PUSH1 0x6 PUSH1 0x20 MSTORE PUSH1 0x40 SWAP1 KECCAK256 DUP1 SLOAD PUSH1 0xFF NOT AND PUSH1 0x1 OR SWAP1 SSTORE JUMP JUMPDEST PUSH0 PUSH1 0x9 SLOAD DUP4 GT ISZERO PUSH2 0xE39 JUMPI PUSH1 0x40 MLOAD PUSH3 0x461BCD PUSH1 0xE5 SHL DUP2 MSTORE PUSH1 0x20 PUSH1 0x4 DUP3 ADD MSTORE PUSH1 0x1F PUSH1 0x24 DUP3 ADD MSTORE PUSH32 0x416D6F756E74206D757374206265206C657373207468616E20737570706C7900 PUSH1 0x44 DUP3 ADD MSTORE PUSH1 0x64 ADD PUSH2 0x939 JUMP JUMPDEST DUP2 PUSH2 0xE52 JUMPI PUSH0 PUSH2 0xE48 DUP5 PUSH2 0x1E98 JUMP JUMPDEST POP SWAP2 POP PUSH2 0x8BA SWAP1 POP JUMP JUMPDEST PUSH0 PUSH2 0xE5C DUP5 PUSH2 0x1E98 JUMP JUMPDEST SWAP3 POP PUSH2 0x8BA SWAP2 POP POP JUMP JUMPDEST PUSH0 SLOAD PUSH1 0x1 PUSH1 0x1 PUSH1 0xA0 SHL SUB AND CALLER EQ PUSH2 0xE8F JUMPI PUSH1 0x40 MLOAD PUSH3 0x461BCD PUSH1 0xE5 SHL DUP2 MSTORE PUSH1 0x4 ADD PUSH2 0x939 SWAP1 PUSH2 0x2E96 JUMP JUMPDEST PUSH1 0x1 PUSH1 0x1 PUSH1 0xA0 SHL SUB DUP2 AND PUSH0 SWAP1 DUP2 MSTORE PUSH1 0x7 PUSH1 0x20 MSTORE PUSH1 0x40 SWAP1 KECCAK256 SLOAD PUSH1 0xFF AND ISZERO PUSH2 0xEF7 JUMPI PUSH1 0x40 MLOAD PUSH3 0x461BCD PUSH1 0xE5 SHL DUP2 MSTORE PUSH1 0x20 PUSH1 0x4 DUP3 ADD MSTORE PUSH1 0x1B PUSH1 0x24 DUP3 ADD MSTORE PUSH32 0x4163636F756E7420697320616C7265616479206578636C756465640000000000 PUSH1 0x44 DUP3 ADD MSTORE PUSH1 0x64 ADD PUSH2 0x939 JUMP JUMPDEST PUSH1 0x1 PUSH1 0x1 PUSH1 0xA0 SHL SUB DUP2 AND PUSH0 SWAP1 DUP2 MSTORE PUSH1 0x2 PUSH1 0x20 MSTORE PUSH1 0x40 SWAP1 KECCAK256 SLOAD ISZERO PUSH2 0xF4E JUMPI PUSH1 0x1 PUSH1 0x1 PUSH1 0xA0 SHL SUB DUP2 AND PUSH0 SWAP1 DUP2 MSTORE PUSH1 0x2 PUSH1 0x20 MSTORE PUSH1 0x40 SWAP1 KECCAK256 SLOAD PUSH2 0xF35 SWAP1 PUSH2 0x9F2 JUMP JUMPDEST PUSH1 0x1 PUSH1 0x1 PUSH1 0xA0 SHL SUB DUP3 AND PUSH0 SWAP1 DUP2 MSTORE PUSH1 0x3 PUSH1 0x20 MSTORE PUSH1 0x40 SWAP1 KECCAK256 SSTORE JUMPDEST PUSH1 0x1 PUSH1 0x1 PUSH1 0xA0 SHL SUB AND PUSH0 DUP2 DUP2 MSTORE PUSH1 0x7 PUSH1 0x20 MSTORE PUSH1 0x40 DUP2 KECCAK256 DUP1 SLOAD PUSH1 0xFF NOT AND PUSH1 0x1 SWAP1 DUP2 OR SWAP1 SWAP2 SSTORE PUSH1 0x8 DUP1 SLOAD SWAP2 DUP3 ADD DUP2 SSTORE SWAP1 SWAP2 MSTORE PUSH32 0xF3F7A9FE364FAAB93B216DA50A3214154F22A0A2B415B23A84C8169E8B636EE3 ADD DUP1 SLOAD PUSH1 0x1 PUSH1 0x1 PUSH1 0xA0 SHL SUB NOT AND SWAP1 SWAP2 OR SWAP1 SSTORE JUMP JUMPDEST PUSH0 SLOAD PUSH1 0x1 PUSH1 0x1 PUSH1 0xA0 SHL SUB AND CALLER EQ PUSH2 0xFDC JUMPI PUSH1 0x40 MLOAD PUSH3 0x461BCD PUSH1 0xE5 SHL DUP2 MSTORE PUSH1 0x4 ADD PUSH2 0x939 SWAP1 PUSH2 0x2E96 JUMP JUMPDEST PUSH1 0x1 PUSH1 0x1 PUSH1 0xA0 SHL SUB DUP2 AND PUSH2 0x1032 JUMPI PUSH1 0x40 MLOAD PUSH3 0x461BCD PUSH1 0xE5 SHL DUP2 MSTORE PUSH1 0x20 PUSH1 0x4 DUP3 ADD MSTORE PUSH1 0x1B PUSH1 0x24 DUP3 ADD MSTORE PUSH32 0x46756E642077616C6C65742063616E206E6F74206265207A65726F0000000000 PUSH1 0x44 DUP3 ADD MSTORE PUSH1 0x64 ADD PUSH2 0x939 JUMP JUMPDEST PUSH1 0x1A DUP1 SLOAD PUSH1 0x1 PUSH1 0x1 PUSH1 0xA0 SHL SUB NOT AND PUSH1 0x1 PUSH1 0x1 PUSH1 0xA0 SHL SUB DUP4 AND SWAP1 DUP2 OR SWAP1 SWAP2 SSTORE PUSH1 0x40 MLOAD SWAP1 DUP2 MSTORE PUSH32 0x4CB53CDEE53F2D4E4E60769ADD356F6CBD911505806FD6C1EEE38F5A6B8A2574 SWAP1 PUSH1 0x20 ADD JUMPDEST PUSH1 0x40 MLOAD DUP1 SWAP2 SUB SWAP1 LOG1 POP JUMP JUMPDEST PUSH0 SLOAD PUSH1 0x1 PUSH1 0x1 PUSH1 0xA0 SHL SUB AND CALLER EQ PUSH2 0x10B0 JUMPI PUSH1 0x40 MLOAD PUSH3 0x461BCD PUSH1 0xE5 SHL DUP2 MSTORE PUSH1 0x4 ADD PUSH2 0x939 SWAP1 PUSH2 0x2E96 JUMP JUMPDEST PUSH0 DUP4 DUP3 EQ PUSH2 0x1111 JUMPI PUSH1 0x40 MLOAD PUSH3 0x461BCD PUSH1 0xE5 SHL DUP2 MSTORE PUSH1 0x20 PUSH1 0x4 DUP3 ADD MSTORE PUSH1 0x28 PUSH1 0x24 DUP3 ADD MSTORE PUSH32 0x4D69736D61746368206265747765656E204164647265737320616E6420746F6B PUSH1 0x44 DUP3 ADD MSTORE PUSH8 0x195B8818DBDD5B9D PUSH1 0xC2 SHL PUSH1 0x64 DUP3 ADD MSTORE PUSH1 0x84 ADD PUSH2 0x939 JUMP JUMPDEST PUSH0 JUMPDEST DUP5 DUP2 LT ISZERO PUSH2 0x114E JUMPI PUSH0 DUP5 DUP5 DUP4 DUP2 DUP2 LT PUSH2 0x112E JUMPI PUSH2 0x112E PUSH2 0x2EEA JUMP JUMPDEST SWAP1 POP PUSH1 0x20 MUL ADD CALLDATALOAD SWAP1 POP DUP1 DUP4 PUSH2 0x1143 SWAP2 SWAP1 PUSH2 0x2F12 JUMP JUMPDEST SWAP3 POP POP PUSH1 0x1 ADD PUSH2 0x1113 JUMP JUMPDEST POP DUP1 PUSH2 0x1159 CALLER PUSH2 0x1210 JUMP JUMPDEST LT ISZERO PUSH2 0x11A7 JUMPI PUSH1 0x40 MLOAD PUSH3 0x461BCD PUSH1 0xE5 SHL DUP2 MSTORE PUSH1 0x20 PUSH1 0x4 DUP3 ADD MSTORE PUSH1 0x1C PUSH1 0x24 DUP3 ADD MSTORE PUSH32 0x4E6F7420656E6F75676820746F6B656E7320746F2061697264726F7000000000 PUSH1 0x44 DUP3 ADD MSTORE PUSH1 0x64 ADD PUSH2 0x939 JUMP JUMPDEST PUSH0 JUMPDEST DUP5 DUP2 LT ISZERO PUSH2 0x1208 JUMPI PUSH0 DUP5 DUP5 DUP4 DUP2 DUP2 LT PUSH2 0x11C4 JUMPI PUSH2 0x11C4 PUSH2 0x2EEA JUMP JUMPDEST SWAP1 POP PUSH1 0x20 MUL ADD CALLDATALOAD SWAP1 POP PUSH2 0x11FF CALLER DUP9 DUP9 DUP6 DUP2 DUP2 LT PUSH2 0x11E3 JUMPI PUSH2 0x11E3 PUSH2 0x2EEA JUMP JUMPDEST SWAP1 POP PUSH1 0x20 MUL ADD PUSH1 0x20 DUP2 ADD SWAP1 PUSH2 0x11F8 SWAP2 SWAP1 PUSH2 0x2CE8 JUMP JUMPDEST DUP4 PUSH0 PUSH2 0x1ED0 JUMP JUMPDEST POP PUSH1 0x1 ADD PUSH2 0x11A9 JUMP JUMPDEST POP POP POP POP POP POP JUMP JUMPDEST PUSH1 0x1 PUSH1 0x1 PUSH1 0xA0 SHL SUB DUP2 AND PUSH0 SWAP1 DUP2 MSTORE PUSH1 0x7 PUSH1 0x20 MSTORE PUSH1 0x40 DUP2 KECCAK256 SLOAD PUSH1 0xFF AND ISZERO PUSH2 0x124B JUMPI POP PUSH1 0x1 PUSH1 0x1 PUSH1 0xA0 SHL SUB AND PUSH0 SWAP1 DUP2 MSTORE PUSH1 0x3 PUSH1 0x20 MSTORE PUSH1 0x40 SWAP1 KECCAK256 SLOAD SWAP1 JUMP JUMPDEST PUSH1 0x1 PUSH1 0x1 PUSH1 0xA0 SHL SUB DUP3 AND PUSH0 SWAP1 DUP2 MSTORE PUSH1 0x2 PUSH1 0x20 MSTORE PUSH1 0x40 SWAP1 KECCAK256 SLOAD PUSH2 0x8BA SWAP1 PUSH2 0x9F2 JUMP JUMPDEST PUSH0 SLOAD PUSH1 0x1 PUSH1 0x1 PUSH1 0xA0 SHL SUB AND CALLER EQ PUSH2 0x1295 JUMPI PUSH1 0x40 MLOAD PUSH3 0x461BCD PUSH1 0xE5 SHL DUP2 MSTORE PUSH1 0x4 ADD PUSH2 0x939 SWAP1 PUSH2 0x2E96 JUMP JUMPDEST PUSH0 DUP1 SLOAD PUSH1 0x40 MLOAD PUSH1 0x1 PUSH1 0x1 PUSH1 0xA0 SHL SUB SWAP1 SWAP2 AND SWAP1 PUSH32 0x8BE0079C531659141344CD1FD0A4F28419497F9722A3DAAFE3B4186F6B6457E0 SWAP1 DUP4 SWAP1 LOG3 PUSH0 DUP1 SLOAD PUSH1 0x1 PUSH1 0x1 PUSH1 0xA0 SHL SUB NOT AND SWAP1 SSTORE JUMP JUMPDEST PUSH0 SLOAD PUSH1 0x1 PUSH1 0x1 PUSH1 0xA0 SHL SUB AND CALLER EQ PUSH2 0x1306 JUMPI PUSH1 0x40 MLOAD PUSH3 0x461BCD PUSH1 0xE5 SHL DUP2 MSTORE PUSH1 0x4 ADD PUSH2 0x939 SWAP1 PUSH2 0x2E96 JUMP JUMPDEST PUSH1 0x1 PUSH1 0x1 PUSH1 0xA0 SHL SUB DUP2 AND PUSH0 SWAP1 DUP2 MSTORE PUSH1 0x5 PUSH1 0x20 MSTORE PUSH1 0x40 SWAP1 KECCAK256 SLOAD PUSH1 0xFF AND ISZERO PUSH2 0x136E JUMPI PUSH1 0x40 MLOAD PUSH3 0x461BCD PUSH1 0xE5 SHL DUP2 MSTORE PUSH1 0x20 PUSH1 0x4 DUP3 ADD MSTORE PUSH1 0x1B PUSH1 0x24 DUP3 ADD MSTORE PUSH32 0x4163636F756E7420616C726561647920626C61636B6C69737465640000000000 PUSH1 0x44 DUP3 ADD MSTORE PUSH1 0x64 ADD PUSH2 0x939 JUMP JUMPDEST PUSH1 0x1 PUSH1 0x1 PUSH1 0xA0 SHL SUB DUP2 AND PUSH0 DUP2 DUP2 MSTORE PUSH1 0x5 PUSH1 0x20 SWAP1 DUP2 MSTORE PUSH1 0x40 SWAP2 DUP3 SWAP1 KECCAK256 DUP1 SLOAD PUSH1 0xFF NOT AND PUSH1 0x1 OR SWAP1 SSTORE SWAP1 MLOAD SWAP2 DUP3 MSTORE PUSH32 0x4E63251189D11DE41CFF7396332E25ED3C84D6C08EF82ED74BA63A95EDF8E3EF SWAP2 ADD PUSH2 0x107C JUMP JUMPDEST CALLER PUSH0 DUP2 DUP2 MSTORE PUSH1 0x4 PUSH1 0x20 SWAP1 DUP2 MSTORE PUSH1 0x40 DUP1 DUP4 KECCAK256 PUSH1 0x1 PUSH1 0x1 PUSH1 0xA0 SHL SUB DUP8 AND DUP5 MSTORE SWAP1 SWAP2 MSTORE DUP2 KECCAK256 SLOAD SWAP1 SWAP2 PUSH2 0x8B6 SWAP2 DUP6 SWAP1 PUSH2 0x901 SWAP1 DUP7 SWAP1 PUSH2 0x2E83 JUMP JUMPDEST PUSH0 PUSH2 0x8B6 CALLER DUP5 DUP5 PUSH2 0x1B07 JUMP JUMPDEST PUSH0 SLOAD PUSH1 0x1 PUSH1 0x1 PUSH1 0xA0 SHL SUB AND CALLER EQ PUSH2 0x142C JUMPI PUSH1 0x40 MLOAD PUSH3 0x461BCD PUSH1 0xE5 SHL DUP2 MSTORE PUSH1 0x4 ADD PUSH2 0x939 SWAP1 PUSH2 0x2E96 JUMP JUMPDEST PUSH0 DUP2 DUP4 PUSH2 0x1439 DUP7 DUP9 PUSH2 0x2F12 JUMP JUMPDEST PUSH2 0x1443 SWAP2 SWAP1 PUSH2 0x2F12 JUMP JUMPDEST PUSH2 0x144D SWAP2 SWAP1 PUSH2 0x2F12 JUMP JUMPDEST SWAP1 POP PUSH1 0x64 DUP2 GT ISZERO PUSH2 0x14B0 JUMPI PUSH1 0x40 MLOAD PUSH3 0x461BCD PUSH1 0xE5 SHL DUP2 MSTORE PUSH1 0x20 PUSH1 0x4 DUP3 ADD MSTORE PUSH1 0x27 PUSH1 0x24 DUP3 ADD MSTORE PUSH32 0x596F752063616E206E6F74207365742073656C6C20746178206D6F7265207468 PUSH1 0x44 DUP3 ADD MSTORE PUSH7 0x656E2031303025 PUSH1 0xC8 SHL PUSH1 0x64 DUP3 ADD MSTORE PUSH1 0x84 ADD PUSH2 0x939 JUMP JUMPDEST PUSH1 0x16 DUP6 SWAP1 SSTORE PUSH1 0x17 DUP5 SWAP1 SSTORE PUSH1 0x18 DUP4 SWAP1 SSTORE PUSH1 0x19 DUP3 SWAP1 SSTORE PUSH1 0x40 DUP1 MLOAD DUP7 DUP2 MSTORE PUSH1 0x20 DUP2 ADD DUP7 SWAP1 MSTORE SWAP1 DUP2 ADD DUP5 SWAP1 MSTORE PUSH1 0x60 DUP2 ADD DUP4 SWAP1 MSTORE PUSH32 0xA987DB89F31DF6351BB1AD3D58F4E5EF54E52C1E3389622F2B38ADCF43A086AE SWAP1 PUSH1 0x80 ADD JUMPDEST PUSH1 0x40 MLOAD DUP1 SWAP2 SUB SWAP1 LOG1 POP POP POP POP POP JUMP JUMPDEST PUSH0 SLOAD PUSH1 0x1 PUSH1 0x1 PUSH1 0xA0 SHL SUB AND CALLER EQ PUSH2 0x153D JUMPI PUSH1 0x40 MLOAD PUSH3 0x461BCD PUSH1 0xE5 SHL DUP2 MSTORE PUSH1 0x4 ADD PUSH2 0x939 SWAP1 PUSH2 0x2E96 JUMP JUMPDEST PUSH1 0xC DUP1 SLOAD DUP3 ISZERO ISZERO PUSH2 0x100 MUL PUSH2 0xFF00 NOT SWAP1 SWAP2 AND OR SWAP1 SSTORE PUSH1 0x40 MLOAD PUSH32 0x53726DFCAF90650AA7EB35524F4D3220F07413C8D6CB404CC8C18BF5591BC159 SWAP1 PUSH2 0x107C SWAP1 DUP4 ISZERO ISZERO DUP2 MSTORE PUSH1 0x20 ADD SWAP1 JUMP JUMPDEST PUSH0 SLOAD PUSH1 0x1 PUSH1 0x1 PUSH1 0xA0 SHL SUB AND CALLER EQ PUSH2 0x15AF JUMPI PUSH1 0x40 MLOAD PUSH3 0x461BCD PUSH1 0xE5 SHL DUP2 MSTORE PUSH1 0x4 ADD PUSH2 0x939 SWAP1 PUSH2 0x2E96 JUMP JUMPDEST PUSH0 DUP2 GT DUP1 ISZERO PUSH2 0x15C8 JUMPI POP PUSH10 0x69E10DE76676D0800000 DUP2 GT ISZERO JUMPDEST PUSH2 0x163A JUMPI PUSH1 0x40 MLOAD PUSH3 0x461BCD PUSH1 0xE5 SHL DUP2 MSTORE PUSH1 0x20 PUSH1 0x4 DUP3 ADD MSTORE PUSH1 0x39 PUSH1 0x24 DUP3 ADD MSTORE PUSH32 0x416D6F756E742073686F756C64206265206D6F7265207468616E207A65726F20 PUSH1 0x44 DUP3 ADD MSTORE PUSH32 0x616E64206C657373207468616E203530306B20746F6B656E7300000000000000 PUSH1 0x64 DUP3 ADD MSTORE PUSH1 0x84 ADD PUSH2 0x939 JUMP JUMPDEST PUSH1 0xD DUP2 SWAP1 SSTORE PUSH1 0x40 MLOAD DUP2 DUP2 MSTORE PUSH32 0xADFA8ECB21B6962EBCD0ADBD9AB985B7B4C5B5EB3B0DEAD683171565C7BFE171 SWAP1 PUSH1 0x20 ADD PUSH2 0x107C JUMP JUMPDEST PUSH0 SLOAD PUSH1 0x1 PUSH1 0x1 PUSH1 0xA0 SHL SUB AND CALLER EQ PUSH2 0x1698 JUMPI PUSH1 0x40 MLOAD PUSH3 0x461BCD PUSH1 0xE5 SHL DUP2 MSTORE PUSH1 0x4 ADD PUSH2 0x939 SWAP1 PUSH2 0x2E96 JUMP JUMPDEST PUSH1 0x1 PUSH1 0x1 PUSH1 0xA0 SHL SUB DUP2 AND PUSH0 SWAP1 DUP2 MSTORE PUSH1 0x6 PUSH1 0x20 MSTORE PUSH1 0x40 SWAP1 KECCAK256 SLOAD PUSH1 0xFF AND PUSH2 0x16F8 JUMPI PUSH1 0x40 MLOAD PUSH3 0x461BCD PUSH1 0xE5 SHL DUP2 MSTORE PUSH1 0x20 PUSH1 0x4 DUP3 ADD MSTORE PUSH1 0x16 PUSH1 0x24 DUP3 ADD MSTORE PUSH22 0x416C7265617920696E636C7564656420696E20666565 PUSH1 0x50 SHL PUSH1 0x44 DUP3 ADD MSTORE PUSH1 0x64 ADD PUSH2 0x939 JUMP JUMPDEST PUSH1 0x1 PUSH1 0x1 PUSH1 0xA0 SHL SUB AND PUSH0 SWAP1 DUP2 MSTORE PUSH1 0x6 PUSH1 0x20 MSTORE PUSH1 0x40 SWAP1 KECCAK256 DUP1 SLOAD PUSH1 0xFF NOT AND SWAP1 SSTORE JUMP JUMPDEST PUSH0 SLOAD PUSH1 0x1 PUSH1 0x1 PUSH1 0xA0 SHL SUB AND CALLER EQ PUSH2 0x1741 JUMPI PUSH1 0x40 MLOAD PUSH3 0x461BCD PUSH1 0xE5 SHL DUP2 MSTORE PUSH1 0x4 ADD PUSH2 0x939 SWAP1 PUSH2 0x2E96 JUMP JUMPDEST PUSH0 DUP2 DUP4 PUSH2 0x174E DUP7 DUP9 PUSH2 0x2F12 JUMP JUMPDEST PUSH2 0x1758 SWAP2 SWAP1 PUSH2 0x2F12 JUMP JUMPDEST PUSH2 0x1762 SWAP2 SWAP1 PUSH2 0x2F12 JUMP JUMPDEST SWAP1 POP PUSH1 0x64 DUP2 GT ISZERO PUSH2 0x17C4 JUMPI PUSH1 0x40 MLOAD PUSH3 0x461BCD PUSH1 0xE5 SHL DUP2 MSTORE PUSH1 0x20 PUSH1 0x4 DUP3 ADD MSTORE PUSH1 0x26 PUSH1 0x24 DUP3 ADD MSTORE PUSH32 0x596F752063616E206E6F74207365742062757920746178206D6F726520746865 PUSH1 0x44 DUP3 ADD MSTORE PUSH6 0x6E2031303025 PUSH1 0xD0 SHL PUSH1 0x64 DUP3 ADD MSTORE PUSH1 0x84 ADD PUSH2 0x939 JUMP JUMPDEST PUSH1 0x12 DUP6 SWAP1 SSTORE PUSH1 0x13 DUP5 SWAP1 SSTORE PUSH1 0x14 DUP4 SWAP1 SSTORE PUSH1 0x15 DUP3 SWAP1 SSTORE PUSH1 0x40 DUP1 MLOAD DUP7 DUP2 MSTORE PUSH1 0x20 DUP2 ADD DUP7 SWAP1 MSTORE SWAP1 DUP2 ADD DUP5 SWAP1 MSTORE PUSH1 0x60 DUP2 ADD DUP4 SWAP1 MSTORE PUSH32 0x39DD28EC6CA271C82451A8EF3E1422D281FEBC1D63701DD827A8573ED55BD485 SWAP1 PUSH1 0x80 ADD PUSH2 0x1505 JUMP JUMPDEST PUSH0 SLOAD PUSH1 0x1 PUSH1 0x1 PUSH1 0xA0 SHL SUB AND CALLER EQ PUSH2 0x1846 JUMPI PUSH1 0x40 MLOAD PUSH3 0x461BCD PUSH1 0xE5 SHL DUP2 MSTORE PUSH1 0x4 ADD PUSH2 0x939 SWAP1 PUSH2 0x2E96 JUMP JUMPDEST PUSH1 0x1 PUSH1 0x1 PUSH1 0xA0 SHL SUB DUP2 AND PUSH0 SWAP1 DUP2 MSTORE PUSH1 0x5 PUSH1 0x20 MSTORE PUSH1 0x40 SWAP1 KECCAK256 SLOAD PUSH1 0xFF AND PUSH2 0x18AD JUMPI PUSH1 0x40 MLOAD PUSH3 0x461BCD PUSH1 0xE5 SHL DUP2 MSTORE PUSH1 0x20 PUSH1 0x4 DUP3 ADD MSTORE PUSH1 0x17 PUSH1 0x24 DUP3 ADD MSTORE PUSH32 0x4163636F756E74206E6F7420626C61636B6C6973746564000000000000000000 PUSH1 0x44 DUP3 ADD MSTORE PUSH1 0x64 ADD PUSH2 0x939 JUMP JUMPDEST PUSH1 0x1 PUSH1 0x1 PUSH1 0xA0 SHL SUB DUP2 AND PUSH0 DUP2 DUP2 MSTORE PUSH1 0x5 PUSH1 0x20 SWAP1 DUP2 MSTORE PUSH1 0x40 SWAP2 DUP3 SWAP1 KECCAK256 DUP1 SLOAD PUSH1 0xFF NOT AND SWAP1 SSTORE SWAP1 MLOAD SWAP2 DUP3 MSTORE PUSH32 0x2B6BF71B58B3583ADD364B3D9060EBF8019650F65F5BE35F5464B9CB3E4BA2D4 SWAP2 ADD PUSH2 0x107C JUMP JUMPDEST PUSH0 SLOAD PUSH1 0x1 PUSH1 0x1 PUSH1 0xA0 SHL SUB AND CALLER EQ PUSH2 0x1926 JUMPI PUSH1 0x40 MLOAD PUSH3 0x461BCD PUSH1 0xE5 SHL DUP2 MSTORE PUSH1 0x4 ADD PUSH2 0x939 SWAP1 PUSH2 0x2E96 JUMP JUMPDEST PUSH1 0x1 PUSH1 0x1 PUSH1 0xA0 SHL SUB DUP2 AND PUSH2 0x198B JUMPI PUSH1 0x40 MLOAD PUSH3 0x461BCD PUSH1 0xE5 SHL DUP2 MSTORE PUSH1 0x20 PUSH1 0x4 DUP3 ADD MSTORE PUSH1 0x26 PUSH1 0x24 DUP3 ADD MSTORE PUSH32 0x4F776E61626C653A206E6577206F776E657220697320746865207A65726F2061 PUSH1 0x44 DUP3 ADD MSTORE PUSH6 0x646472657373 PUSH1 0xD0 SHL PUSH1 0x64 DUP3 ADD MSTORE PUSH1 0x84 ADD PUSH2 0x939 JUMP JUMPDEST PUSH0 DUP1 SLOAD PUSH1 0x40 MLOAD PUSH1 0x1 PUSH1 0x1 PUSH1 0xA0 SHL SUB DUP1 DUP6 AND SWAP4 SWAP3 AND SWAP2 PUSH32 0x8BE0079C531659141344CD1FD0A4F28419497F9722A3DAAFE3B4186F6B6457E0 SWAP2 LOG3 PUSH0 DUP1 SLOAD PUSH1 0x1 PUSH1 0x1 PUSH1 0xA0 SHL SUB NOT AND PUSH1 0x1 PUSH1 0x1 PUSH1 0xA0 SHL SUB SWAP3 SWAP1 SWAP3 AND SWAP2 SWAP1 SWAP2 OR SWAP1 SSTORE JUMP JUMPDEST PUSH1 0x1 PUSH1 0x1 PUSH1 0xA0 SHL SUB DUP4 AND PUSH2 0x1A46 JUMPI PUSH1 0x40 MLOAD PUSH3 0x461BCD PUSH1 0xE5 SHL DUP2 MSTORE PUSH1 0x20 PUSH1 0x4 DUP3 ADD MSTORE PUSH1 0x24 DUP1 DUP3 ADD MSTORE PUSH32 0x45524332303A20617070726F76652066726F6D20746865207A65726F20616464 PUSH1 0x44 DUP3 ADD MSTORE PUSH4 0x72657373 PUSH1 0xE0 SHL PUSH1 0x64 DUP3 ADD MSTORE PUSH1 0x84 ADD PUSH2 0x939 JUMP JUMPDEST PUSH1 0x1 PUSH1 0x1 PUSH1 0xA0 SHL SUB DUP3 AND PUSH2 0x1AA7 JUMPI PUSH1 0x40 MLOAD PUSH3 0x461BCD PUSH1 0xE5 SHL DUP2 MSTORE PUSH1 0x20 PUSH1 0x4 DUP3 ADD MSTORE PUSH1 0x22 PUSH1 0x24 DUP3 ADD MSTORE PUSH32 0x45524332303A20617070726F766520746F20746865207A65726F206164647265 PUSH1 0x44 DUP3 ADD MSTORE PUSH2 0x7373 PUSH1 0xF0 SHL PUSH1 0x64 DUP3 ADD MSTORE PUSH1 0x84 ADD PUSH2 0x939 JUMP JUMPDEST PUSH1 0x1 PUSH1 0x1 PUSH1 0xA0 SHL SUB DUP4 DUP2 AND PUSH0 DUP2 DUP2 MSTORE PUSH1 0x4 PUSH1 0x20 SWAP1 DUP2 MSTORE PUSH1 0x40 DUP1 DUP4 KECCAK256 SWAP5 DUP8 AND DUP1 DUP5 MSTORE SWAP5 DUP3 MSTORE SWAP2 DUP3 SWAP1 KECCAK256 DUP6 SWAP1 SSTORE SWAP1 MLOAD DUP5 DUP2 MSTORE PUSH32 0x8C5BE1E5EBEC7D5BD14F71427D1E84F3DD0314C0F7B2291E5B200AC8C7C3B925 SWAP2 ADD PUSH1 0x40 MLOAD DUP1 SWAP2 SUB SWAP1 LOG3 POP POP POP JUMP JUMPDEST PUSH1 0x1 PUSH1 0x1 PUSH1 0xA0 SHL SUB DUP4 AND PUSH2 0x1B6B JUMPI PUSH1 0x40 MLOAD PUSH3 0x461BCD PUSH1 0xE5 SHL DUP2 MSTORE PUSH1 0x20 PUSH1 0x4 DUP3 ADD MSTORE PUSH1 0x25 PUSH1 0x24 DUP3 ADD MSTORE PUSH32 0x45524332303A207472616E736665722066726F6D20746865207A65726F206164 PUSH1 0x44 DUP3 ADD MSTORE PUSH5 0x6472657373 PUSH1 0xD8 SHL PUSH1 0x64 DUP3 ADD MSTORE PUSH1 0x84 ADD PUSH2 0x939 JUMP JUMPDEST PUSH1 0x1 PUSH1 0x1 PUSH1 0xA0 SHL SUB DUP3 AND PUSH2 0x1BCD JUMPI PUSH1 0x40 MLOAD PUSH3 0x461BCD PUSH1 0xE5 SHL DUP2 MSTORE PUSH1 0x20 PUSH1 0x4 DUP3 ADD MSTORE PUSH1 0x23 PUSH1 0x24 DUP3 ADD MSTORE PUSH32 0x45524332303A207472616E7366657220746F20746865207A65726F2061646472 PUSH1 0x44 DUP3 ADD MSTORE PUSH3 0x657373 PUSH1 0xE8 SHL PUSH1 0x64 DUP3 ADD MSTORE PUSH1 0x84 ADD PUSH2 0x939 JUMP JUMPDEST PUSH0 DUP2 GT PUSH2 0x1C2E JUMPI PUSH1 0x40 MLOAD PUSH3 0x461BCD PUSH1 0xE5 SHL DUP2 MSTORE PUSH1 0x20 PUSH1 0x4 DUP3 ADD MSTORE PUSH1 0x29 PUSH1 0x24 DUP3 ADD MSTORE PUSH32 0x5472616E7366657220616D6F756E74206D757374206265206772656174657220 PUSH1 0x44 DUP3 ADD MSTORE PUSH9 0x7468616E207A65726F PUSH1 0xB8 SHL PUSH1 0x64 DUP3 ADD MSTORE PUSH1 0x84 ADD PUSH2 0x939 JUMP JUMPDEST PUSH1 0x1 PUSH1 0x1 PUSH1 0xA0 SHL SUB DUP4 AND PUSH0 SWAP1 DUP2 MSTORE PUSH1 0x5 PUSH1 0x20 MSTORE PUSH1 0x40 SWAP1 KECCAK256 SLOAD PUSH1 0xFF AND ISZERO PUSH2 0x1C8E JUMPI PUSH1 0x40 MLOAD PUSH3 0x461BCD PUSH1 0xE5 SHL DUP2 MSTORE PUSH1 0x20 PUSH1 0x4 DUP3 ADD MSTORE PUSH1 0x15 PUSH1 0x24 DUP3 ADD MSTORE PUSH21 0x14D95B99195C881A5CC8189B1858DADB1A5CDD1959 PUSH1 0x5A SHL PUSH1 0x44 DUP3 ADD MSTORE PUSH1 0x64 ADD PUSH2 0x939 JUMP JUMPDEST PUSH1 0x1 PUSH1 0x1 PUSH1 0xA0 SHL SUB DUP3 AND PUSH0 SWAP1 DUP2 MSTORE PUSH1 0x5 PUSH1 0x20 MSTORE PUSH1 0x40 SWAP1 KECCAK256 SLOAD PUSH1 0xFF AND ISZERO PUSH2 0x1CF6 JUMPI PUSH1 0x40 MLOAD PUSH3 0x461BCD PUSH1 0xE5 SHL DUP2 MSTORE PUSH1 0x20 PUSH1 0x4 DUP3 ADD MSTORE PUSH1 0x18 PUSH1 0x24 DUP3 ADD MSTORE PUSH32 0x526563697069656E7420697320626C61636B6C69737465640000000000000000 PUSH1 0x44 DUP3 ADD MSTORE PUSH1 0x64 ADD PUSH2 0x939 JUMP JUMPDEST PUSH0 SLOAD PUSH1 0x1 PUSH1 0x1 PUSH1 0xA0 SHL SUB DUP5 DUP2 AND SWAP2 AND EQ DUP1 PUSH2 0x1D1D JUMPI POP PUSH0 SLOAD PUSH1 0x1 PUSH1 0x1 PUSH1 0xA0 SHL SUB DUP4 DUP2 AND SWAP2 AND EQ JUMPDEST ISZERO PUSH2 0x1D33 JUMPI PUSH2 0x1D2E DUP4 DUP4 DUP4 PUSH0 PUSH2 0x1ED0 JUMP JUMPDEST POP POP POP JUMP JUMPDEST PUSH1 0xC SLOAD PUSH3 0x10000 SWAP1 DIV PUSH1 0xFF AND PUSH2 0x1D8B JUMPI PUSH1 0x40 MLOAD PUSH3 0x461BCD PUSH1 0xE5 SHL DUP2 MSTORE PUSH1 0x20 PUSH1 0x4 DUP3 ADD MSTORE PUSH1 0x17 PUSH1 0x24 DUP3 ADD MSTORE PUSH32 0x54726164696E67206E6F74207374617274656420796574000000000000000000 PUSH1 0x44 DUP3 ADD MSTORE PUSH1 0x64 ADD PUSH2 0x939 JUMP JUMPDEST PUSH0 PUSH2 0x1D95 ADDRESS PUSH2 0x1210 JUMP JUMPDEST PUSH1 0xD SLOAD SWAP1 SWAP2 POP DUP2 LT DUP1 ISZERO SWAP1 DUP2 SWAP1 PUSH2 0x1DAF JUMPI POP PUSH1 0xC SLOAD PUSH1 0xFF AND ISZERO JUMPDEST DUP1 ISZERO PUSH2 0x1DED JUMPI POP PUSH32 0x0 PUSH1 0x1 PUSH1 0x1 PUSH1 0xA0 SHL SUB AND DUP6 PUSH1 0x1 PUSH1 0x1 PUSH1 0xA0 SHL SUB AND EQ ISZERO JUMPDEST DUP1 ISZERO PUSH2 0x1E00 JUMPI POP PUSH1 0xC SLOAD PUSH2 0x100 SWAP1 DIV PUSH1 0xFF AND JUMPDEST ISZERO PUSH2 0x1E13 JUMPI PUSH1 0xD SLOAD SWAP2 POP PUSH2 0x1E13 DUP3 PUSH2 0x203F JUMP JUMPDEST PUSH1 0x1 PUSH1 0x1 PUSH1 0xA0 SHL SUB DUP6 AND PUSH0 SWAP1 DUP2 MSTORE PUSH1 0x6 PUSH1 0x20 MSTORE PUSH1 0x40 SWAP1 KECCAK256 SLOAD PUSH1 0x1 SWAP1 PUSH1 0xFF AND DUP1 PUSH2 0x1E53 JUMPI POP PUSH1 0x1 PUSH1 0x1 PUSH1 0xA0 SHL SUB DUP6 AND PUSH0 SWAP1 DUP2 MSTORE PUSH1 0x6 PUSH1 0x20 MSTORE PUSH1 0x40 SWAP1 KECCAK256 SLOAD PUSH1 0xFF AND JUMPDEST ISZERO PUSH2 0x1E5B JUMPI POP PUSH0 JUMPDEST DUP1 ISZERO PUSH2 0x1E6B JUMPI PUSH2 0x1E6B DUP7 DUP7 PUSH2 0x20DA JUMP JUMPDEST PUSH2 0x1208 DUP7 DUP7 DUP7 DUP5 PUSH2 0x1ED0 JUMP JUMPDEST PUSH0 DUP1 PUSH0 PUSH2 0x1E82 PUSH2 0x216D JUMP JUMPDEST SWAP1 SWAP3 POP SWAP1 POP PUSH2 0x1E91 DUP2 DUP4 PUSH2 0x2ECB JUMP JUMPDEST SWAP3 POP POP POP SWAP1 JUMP JUMPDEST PUSH0 DUP1 PUSH0 DUP1 PUSH0 DUP1 PUSH2 0x1EA7 DUP8 PUSH2 0x22DD JUMP JUMPDEST SWAP5 POP SWAP5 POP SWAP5 POP SWAP5 POP POP PUSH0 DUP1 PUSH2 0x1EBF DUP10 DUP8 DUP8 DUP8 DUP8 PUSH2 0x2354 JUMP JUMPDEST POP SWAP1 SWAP11 SWAP1 SWAP10 POP SWAP8 POP POP POP POP POP POP POP POP JUMP JUMPDEST DUP1 PUSH2 0x1EED JUMPI PUSH2 0x1EED PUSH0 PUSH1 0xE DUP2 SWAP1 SSTORE PUSH1 0xF DUP2 SWAP1 SSTORE PUSH1 0x10 DUP2 SWAP1 SSTORE PUSH1 0x11 SSTORE JUMP JUMPDEST PUSH1 0x1 PUSH1 0x1 PUSH1 0xA0 SHL SUB DUP5 AND PUSH0 SWAP1 DUP2 MSTORE PUSH1 0x7 PUSH1 0x20 MSTORE PUSH1 0x40 SWAP1 KECCAK256 SLOAD PUSH1 0xFF AND DUP1 ISZERO PUSH2 0x1F2C JUMPI POP PUSH1 0x1 PUSH1 0x1 PUSH1 0xA0 SHL SUB DUP4 AND PUSH0 SWAP1 DUP2 MSTORE PUSH1 0x7 PUSH1 0x20 MSTORE PUSH1 0x40 SWAP1 KECCAK256 SLOAD PUSH1 0xFF AND ISZERO JUMPDEST ISZERO PUSH2 0x1F41 JUMPI PUSH2 0x1F3C DUP5 DUP5 DUP5 PUSH2 0x23EB JUMP JUMPDEST PUSH2 0x2039 JUMP JUMPDEST PUSH1 0x1 PUSH1 0x1 PUSH1 0xA0 SHL SUB DUP5 AND PUSH0 SWAP1 DUP2 MSTORE PUSH1 0x7 PUSH1 0x20 MSTORE PUSH1 0x40 SWAP1 KECCAK256 SLOAD PUSH1 0xFF AND ISZERO DUP1 ISZERO PUSH2 0x1F80 JUMPI POP PUSH1 0x1 PUSH1 0x1 PUSH1 0xA0 SHL SUB DUP4 AND PUSH0 SWAP1 DUP2 MSTORE PUSH1 0x7 PUSH1 0x20 MSTORE PUSH1 0x40 SWAP1 KECCAK256 SLOAD PUSH1 0xFF AND JUMPDEST ISZERO PUSH2 0x1F90 JUMPI PUSH2 0x1F3C DUP5 DUP5 DUP5 PUSH2 0x252B JUMP JUMPDEST PUSH1 0x1 PUSH1 0x1 PUSH1 0xA0 SHL SUB DUP5 AND PUSH0 SWAP1 DUP2 MSTORE PUSH1 0x7 PUSH1 0x20 MSTORE PUSH1 0x40 SWAP1 KECCAK256 SLOAD PUSH1 0xFF AND ISZERO DUP1 ISZERO PUSH2 0x1FD0 JUMPI POP PUSH1 0x1 PUSH1 0x1 PUSH1 0xA0 SHL SUB DUP4 AND PUSH0 SWAP1 DUP2 MSTORE PUSH1 0x7 PUSH1 0x20 MSTORE PUSH1 0x40 SWAP1 KECCAK256 SLOAD PUSH1 0xFF AND ISZERO JUMPDEST ISZERO PUSH2 0x1FE0 JUMPI PUSH2 0x1F3C DUP5 DUP5 DUP5 PUSH2 0x25E3 JUMP JUMPDEST PUSH1 0x1 PUSH1 0x1 PUSH1 0xA0 SHL SUB DUP5 AND PUSH0 SWAP1 DUP2 MSTORE PUSH1 0x7 PUSH1 0x20 MSTORE PUSH1 0x40 SWAP1 KECCAK256 SLOAD PUSH1 0xFF AND DUP1 ISZERO PUSH2 0x201E JUMPI POP PUSH1 0x1 PUSH1 0x1 PUSH1 0xA0 SHL SUB DUP4 AND PUSH0 SWAP1 DUP2 MSTORE PUSH1 0x7 PUSH1 0x20 MSTORE PUSH1 0x40 SWAP1 KECCAK256 SLOAD PUSH1 0xFF AND JUMPDEST ISZERO PUSH2 0x202E JUMPI PUSH2 0x1F3C DUP5 DUP5 DUP5 PUSH2 0x2636 JUMP JUMPDEST PUSH2 0x2039 DUP5 DUP5 DUP5 PUSH2 0x25E3 JUMP JUMPDEST POP POP POP POP JUMP JUMPDEST PUSH1 0xC DUP1 SLOAD PUSH1 0xFF NOT AND PUSH1 0x1 OR SWAP1 SSTORE PUSH0 PUSH2 0x2058 PUSH1 0x2 DUP4 PUSH2 0x2ECB JUMP JUMPDEST SWAP1 POP PUSH0 PUSH2 0x2065 DUP3 DUP5 PUSH2 0x2E83 JUMP JUMPDEST SWAP1 POP SELFBALANCE PUSH2 0x2071 DUP4 PUSH2 0x26B8 JUMP JUMPDEST PUSH0 PUSH2 0x207C DUP3 SELFBALANCE PUSH2 0x2E83 JUMP JUMPDEST SWAP1 POP PUSH2 0x2088 DUP4 DUP3 PUSH2 0x2866 JUMP JUMPDEST PUSH1 0x40 DUP1 MLOAD DUP6 DUP2 MSTORE PUSH1 0x20 DUP2 ADD DUP4 SWAP1 MSTORE SWAP1 DUP2 ADD DUP5 SWAP1 MSTORE PUSH32 0x17BBFB9A6069321B6DED73BD96327C9E6B7212A5CD51FF219CD61370ACAFB561 SWAP1 PUSH1 0x60 ADD PUSH1 0x40 MLOAD DUP1 SWAP2 SUB SWAP1 LOG1 POP POP PUSH1 0xC DUP1 SLOAD PUSH1 0xFF NOT AND SWAP1 SSTORE POP POP POP JUMP JUMPDEST PUSH1 0x1 PUSH1 0x1 PUSH1 0xA0 SHL SUB DUP3 DUP2 AND PUSH32 0x0 DUP3 AND SWAP1 DUP2 EQ SWAP2 DUP4 AND EQ DUP2 ISZERO PUSH2 0x2132 JUMPI PUSH1 0x12 SLOAD PUSH1 0xE SSTORE PUSH1 0x13 SLOAD PUSH1 0xF SSTORE PUSH1 0x14 SLOAD PUSH1 0x10 SSTORE PUSH1 0x15 SLOAD PUSH1 0x11 SSTORE PUSH2 0x2039 JUMP JUMPDEST DUP1 ISZERO PUSH2 0x2155 JUMPI PUSH1 0x16 SLOAD PUSH1 0xE SSTORE PUSH1 0x17 SLOAD PUSH1 0xF SSTORE PUSH1 0x18 SLOAD PUSH1 0x10 SSTORE PUSH1 0x19 SLOAD PUSH1 0x11 SSTORE PUSH2 0x2039 JUMP JUMPDEST PUSH2 0x2039 PUSH0 PUSH1 0xE DUP2 SWAP1 SSTORE PUSH1 0xF DUP2 SWAP1 SSTORE PUSH1 0x10 DUP2 SWAP1 SSTORE PUSH1 0x11 SSTORE JUMP JUMPDEST PUSH1 0xA SLOAD PUSH1 0x9 SLOAD PUSH0 SWAP2 DUP3 SWAP2 DUP3 JUMPDEST PUSH1 0x8 SLOAD DUP2 LT ISZERO PUSH2 0x22AC JUMPI DUP3 PUSH1 0x2 PUSH0 PUSH1 0x8 DUP5 DUP2 SLOAD DUP2 LT PUSH2 0x219A JUMPI PUSH2 0x219A PUSH2 0x2EEA JUMP JUMPDEST PUSH0 SWAP2 DUP3 MSTORE PUSH1 0x20 DUP1 DUP4 KECCAK256 SWAP1 SWAP2 ADD SLOAD PUSH1 0x1 PUSH1 0x1 PUSH1 0xA0 SHL SUB AND DUP4 MSTORE DUP3 ADD SWAP3 SWAP1 SWAP3 MSTORE PUSH1 0x40 ADD SWAP1 KECCAK256 SLOAD GT DUP1 PUSH2 0x2202 JUMPI POP DUP2 PUSH1 0x3 PUSH0 PUSH1 0x8 DUP5 DUP2 SLOAD DUP2 LT PUSH2 0x21DC JUMPI PUSH2 0x21DC PUSH2 0x2EEA JUMP JUMPDEST PUSH0 SWAP2 DUP3 MSTORE PUSH1 0x20 DUP1 DUP4 KECCAK256 SWAP1 SWAP2 ADD SLOAD PUSH1 0x1 PUSH1 0x1 PUSH1 0xA0 SHL SUB AND DUP4 MSTORE DUP3 ADD SWAP3 SWAP1 SWAP3 MSTORE PUSH1 0x40 ADD SWAP1 KECCAK256 SLOAD GT JUMPDEST ISZERO PUSH2 0x2218 JUMPI PUSH1 0xA SLOAD PUSH1 0x9 SLOAD SWAP5 POP SWAP5 POP POP POP POP SWAP1 SWAP2 JUMP JUMPDEST PUSH1 0x2 PUSH0 PUSH1 0x8 DUP4 DUP2 SLOAD DUP2 LT PUSH2 0x222E JUMPI PUSH2 0x222E PUSH2 0x2EEA JUMP JUMPDEST PUSH0 SWAP2 DUP3 MSTORE PUSH1 0x20 DUP1 DUP4 KECCAK256 SWAP1 SWAP2 ADD SLOAD PUSH1 0x1 PUSH1 0x1 PUSH1 0xA0 SHL SUB AND DUP4 MSTORE DUP3 ADD SWAP3 SWAP1 SWAP3 MSTORE PUSH1 0x40 ADD SWAP1 KECCAK256 SLOAD PUSH2 0x225C SWAP1 DUP5 PUSH2 0x2E83 JUMP JUMPDEST SWAP3 POP PUSH1 0x3 PUSH0 PUSH1 0x8 DUP4 DUP2 SLOAD DUP2 LT PUSH2 0x2274 JUMPI PUSH2 0x2274 PUSH2 0x2EEA JUMP JUMPDEST PUSH0 SWAP2 DUP3 MSTORE PUSH1 0x20 DUP1 DUP4 KECCAK256 SWAP1 SWAP2 ADD SLOAD PUSH1 0x1 PUSH1 0x1 PUSH1 0xA0 SHL SUB AND DUP4 MSTORE DUP3 ADD SWAP3 SWAP1 SWAP3 MSTORE PUSH1 0x40 ADD SWAP1 KECCAK256 SLOAD PUSH2 0x22A2 SWAP1 DUP4 PUSH2 0x2E83 JUMP JUMPDEST SWAP2 POP PUSH1 0x1 ADD PUSH2 0x2179 JUMP JUMPDEST POP PUSH1 0x9 SLOAD PUSH1 0xA SLOAD PUSH2 0x22BD SWAP2 SWAP1 PUSH2 0x2ECB JUMP JUMPDEST DUP3 LT ISZERO PUSH2 0x22D4 JUMPI PUSH1 0xA SLOAD PUSH1 0x9 SLOAD SWAP4 POP SWAP4 POP POP POP SWAP1 SWAP2 JUMP JUMPDEST SWAP1 SWAP4 SWAP1 SWAP3 POP SWAP1 POP JUMP JUMPDEST PUSH0 DUP1 PUSH0 DUP1 PUSH0 DUP1 PUSH2 0x22EC DUP8 PUSH2 0x2968 JUMP JUMPDEST SWAP1 POP PUSH0 PUSH2 0x22F8 DUP9 PUSH2 0x2983 JUMP JUMPDEST SWAP1 POP PUSH0 PUSH2 0x2304 DUP10 PUSH2 0x2994 JUMP JUMPDEST SWAP1 POP PUSH0 PUSH2 0x2310 DUP11 PUSH2 0x29A5 JUMP JUMPDEST SWAP1 POP PUSH0 DUP2 DUP4 PUSH2 0x231F DUP7 DUP9 PUSH2 0x2F12 JUMP JUMPDEST PUSH2 0x2329 SWAP2 SWAP1 PUSH2 0x2F12 JUMP JUMPDEST PUSH2 0x2333 SWAP2 SWAP1 PUSH2 0x2F12 JUMP JUMPDEST SWAP1 POP PUSH0 PUSH2 0x2340 DUP3 DUP14 PUSH2 0x2E83 JUMP JUMPDEST SWAP13 SWAP6 SWAP12 POP SWAP4 SWAP10 POP SWAP2 SWAP8 POP SWAP6 POP SWAP2 SWAP4 POP POP POP POP JUMP JUMPDEST PUSH0 DUP1 PUSH0 DUP1 PUSH2 0x2360 PUSH2 0x1E77 JUMP JUMPDEST SWAP1 POP PUSH0 PUSH2 0x236D DUP3 DUP12 PUSH2 0x2F25 JUMP JUMPDEST SWAP1 POP PUSH0 PUSH2 0x237A DUP4 DUP12 PUSH2 0x2F25 JUMP JUMPDEST SWAP1 POP PUSH0 PUSH2 0x2387 DUP5 DUP11 PUSH2 0x2F25 JUMP JUMPDEST SWAP1 POP PUSH0 PUSH2 0x2394 DUP6 DUP11 PUSH2 0x2F25 JUMP JUMPDEST SWAP1 POP PUSH0 PUSH2 0x23A1 DUP7 DUP14 PUSH2 0x2F25 JUMP JUMPDEST SWAP1 POP PUSH0 DUP2 DUP4 PUSH2 0x23B0 DUP7 DUP9 PUSH2 0x2F12 JUMP JUMPDEST PUSH2 0x23BA SWAP2 SWAP1 PUSH2 0x2F12 JUMP JUMPDEST PUSH2 0x23C4 SWAP2 SWAP1 PUSH2 0x2F12 JUMP JUMPDEST SWAP1 POP PUSH0 PUSH2 0x23D1 DUP3 DUP9 PUSH2 0x2E83 JUMP JUMPDEST SWAP7 SWAP11 POP SWAP6 SWAP9 POP SWAP4 SWAP7 POP POP POP POP POP POP POP SWAP6 POP SWAP6 POP SWAP6 SWAP3 POP POP POP JUMP JUMPDEST PUSH0 DUP1 PUSH0 DUP1 PUSH0 PUSH2 0x23F9 DUP7 PUSH2 0x29B6 JUMP JUMPDEST SWAP5 POP SWAP5 POP SWAP5 POP SWAP5 POP SWAP5 POP PUSH0 DUP1 PUSH0 PUSH2 0x2413 DUP10 DUP9 DUP9 DUP9 DUP9 PUSH2 0x2354 JUMP JUMPDEST PUSH1 0x1 PUSH1 0x1 PUSH1 0xA0 SHL SUB DUP15 AND PUSH0 SWAP1 DUP2 MSTORE PUSH1 0x3 PUSH1 0x20 MSTORE PUSH1 0x40 SWAP1 KECCAK256 SLOAD SWAP3 SWAP6 POP SWAP1 SWAP4 POP SWAP2 POP PUSH2 0x243E SWAP1 DUP11 SWAP1 PUSH2 0x2E83 JUMP JUMPDEST PUSH1 0x1 PUSH1 0x1 PUSH1 0xA0 SHL SUB DUP13 AND PUSH0 SWAP1 DUP2 MSTORE PUSH1 0x3 PUSH1 0x20 SWAP1 DUP2 MSTORE PUSH1 0x40 DUP1 DUP4 KECCAK256 SWAP4 SWAP1 SWAP4 SSTORE PUSH1 0x2 SWAP1 MSTORE KECCAK256 SLOAD PUSH2 0x246D SWAP1 DUP5 SWAP1 PUSH2 0x2E83 JUMP JUMPDEST PUSH1 0x1 PUSH1 0x1 PUSH1 0xA0 SHL SUB DUP1 DUP14 AND PUSH0 SWAP1 DUP2 MSTORE PUSH1 0x2 PUSH1 0x20 MSTORE PUSH1 0x40 DUP1 DUP3 KECCAK256 SWAP4 SWAP1 SWAP4 SSTORE SWAP1 DUP13 AND DUP2 MSTORE KECCAK256 SLOAD PUSH2 0x249C SWAP1 DUP4 SWAP1 PUSH2 0x2F12 JUMP JUMPDEST PUSH1 0x1 PUSH1 0x1 PUSH1 0xA0 SHL SUB DUP12 AND PUSH0 SWAP1 DUP2 MSTORE PUSH1 0x2 PUSH1 0x20 MSTORE PUSH1 0x40 SWAP1 KECCAK256 SSTORE PUSH2 0x24BD DUP7 PUSH2 0x29E0 JUMP JUMPDEST PUSH2 0x24C8 DUP2 DUP9 DUP7 PUSH2 0x2A99 JUMP JUMPDEST PUSH2 0x24D1 DUP6 PUSH2 0x2B1F JUMP JUMPDEST DUP10 PUSH1 0x1 PUSH1 0x1 PUSH1 0xA0 SHL SUB AND DUP12 PUSH1 0x1 PUSH1 0x1 PUSH1 0xA0 SHL SUB AND PUSH32 0xDDF252AD1BE2C89B69C2B068FC378DAA952BA7F163C4A11628F55A4DF523B3EF DUP11 PUSH1 0x40 MLOAD PUSH2 0x2516 SWAP2 DUP2 MSTORE PUSH1 0x20 ADD SWAP1 JUMP JUMPDEST PUSH1 0x40 MLOAD DUP1 SWAP2 SUB SWAP1 LOG3 POP POP POP POP POP POP POP POP POP POP POP JUMP JUMPDEST PUSH0 DUP1 PUSH0 DUP1 PUSH0 PUSH2 0x2539 DUP7 PUSH2 0x29B6 JUMP JUMPDEST SWAP5 POP SWAP5 POP SWAP5 POP SWAP5 POP SWAP5 POP PUSH0 DUP1 PUSH0 PUSH2 0x2553 DUP10 DUP9 DUP9 DUP9 DUP9 PUSH2 0x2354 JUMP JUMPDEST PUSH1 0x1 PUSH1 0x1 PUSH1 0xA0 SHL SUB DUP15 AND PUSH0 SWAP1 DUP2 MSTORE PUSH1 0x2 PUSH1 0x20 MSTORE PUSH1 0x40 SWAP1 KECCAK256 SLOAD SWAP3 SWAP6 POP SWAP1 SWAP4 POP SWAP2 POP PUSH2 0x257E SWAP1 DUP5 SWAP1 PUSH2 0x2E83 JUMP JUMPDEST PUSH1 0x1 PUSH1 0x1 PUSH1 0xA0 SHL SUB DUP1 DUP14 AND PUSH0 SWAP1 DUP2 MSTORE PUSH1 0x2 PUSH1 0x20 SWAP1 DUP2 MSTORE PUSH1 0x40 DUP1 DUP4 KECCAK256 SWAP5 SWAP1 SWAP5 SSTORE SWAP2 DUP14 AND DUP2 MSTORE PUSH1 0x3 SWAP1 SWAP2 MSTORE KECCAK256 SLOAD PUSH2 0x25B4 SWAP1 DUP10 SWAP1 PUSH2 0x2F12 JUMP JUMPDEST PUSH1 0x1 PUSH1 0x1 PUSH1 0xA0 SHL SUB DUP12 AND PUSH0 SWAP1 DUP2 MSTORE PUSH1 0x3 PUSH1 0x20 SWAP1 DUP2 MSTORE PUSH1 0x40 DUP1 DUP4 KECCAK256 SWAP4 SWAP1 SWAP4 SSTORE PUSH1 0x2 SWAP1 MSTORE KECCAK256 SLOAD PUSH2 0x249C SWAP1 DUP4 SWAP1 PUSH2 0x2F12 JUMP JUMPDEST PUSH0 DUP1 PUSH0 DUP1 PUSH0 PUSH2 0x25F1 DUP7 PUSH2 0x29B6 JUMP JUMPDEST SWAP5 POP SWAP5 POP SWAP5 POP SWAP5 POP SWAP5 POP PUSH0 DUP1 PUSH0 PUSH2 0x260B DUP10 DUP9 DUP9 DUP9 DUP9 PUSH2 0x2354 JUMP JUMPDEST PUSH1 0x1 PUSH1 0x1 PUSH1 0xA0 SHL SUB DUP15 AND PUSH0 SWAP1 DUP2 MSTORE PUSH1 0x2 PUSH1 0x20 MSTORE PUSH1 0x40 SWAP1 KECCAK256 SLOAD SWAP3 SWAP6 POP SWAP1 SWAP4 POP SWAP2 POP PUSH2 0x246D SWAP1 DUP5 SWAP1 PUSH2 0x2E83 JUMP JUMPDEST PUSH0 DUP1 PUSH0 DUP1 PUSH0 PUSH2 0x2644 DUP7 PUSH2 0x29B6 JUMP JUMPDEST SWAP5 POP SWAP5 POP SWAP5 POP SWAP5 POP SWAP5 POP PUSH0 DUP1 PUSH0 PUSH2 0x265E DUP10 DUP9 DUP9 DUP9 DUP9 PUSH2 0x2354 JUMP JUMPDEST PUSH1 0x1 PUSH1 0x1 PUSH1 0xA0 SHL SUB DUP15 AND PUSH0 SWAP1 DUP2 MSTORE PUSH1 0x3 PUSH1 0x20 MSTORE PUSH1 0x40 SWAP1 KECCAK256 SLOAD SWAP3 SWAP6 POP SWAP1 SWAP4 POP SWAP2 POP PUSH2 0x2689 SWAP1 DUP11 SWAP1 PUSH2 0x2E83 JUMP JUMPDEST PUSH1 0x1 PUSH1 0x1 PUSH1 0xA0 SHL SUB DUP13 AND PUSH0 SWAP1 DUP2 MSTORE PUSH1 0x3 PUSH1 0x20 SWAP1 DUP2 MSTORE PUSH1 0x40 DUP1 DUP4 KECCAK256 SWAP4 SWAP1 SWAP4 SSTORE PUSH1 0x2 SWAP1 MSTORE KECCAK256 SLOAD PUSH2 0x257E SWAP1 DUP5 SWAP1 PUSH2 0x2E83 JUMP JUMPDEST PUSH1 0x40 DUP1 MLOAD PUSH1 0x2 DUP1 DUP3 MSTORE PUSH1 0x60 DUP3 ADD DUP4 MSTORE PUSH0 SWAP3 PUSH1 0x20 DUP4 ADD SWAP1 DUP1 CALLDATASIZE DUP4 CALLDATACOPY ADD SWAP1 POP POP SWAP1 POP ADDRESS DUP2 PUSH0 DUP2 MLOAD DUP2 LT PUSH2 0x26EB JUMPI PUSH2 0x26EB PUSH2 0x2EEA JUMP JUMPDEST PUSH1 0x20 MUL PUSH1 0x20 ADD ADD SWAP1 PUSH1 0x1 PUSH1 0x1 PUSH1 0xA0 SHL SUB AND SWAP1 DUP2 PUSH1 0x1 PUSH1 0x1 PUSH1 0xA0 SHL SUB AND DUP2 MSTORE POP POP PUSH32 0x0 PUSH1 0x1 PUSH1 0x1 PUSH1 0xA0 SHL SUB AND PUSH4 0xAD5C4648 PUSH1 0x40 MLOAD DUP2 PUSH4 0xFFFFFFFF AND PUSH1 0xE0 SHL DUP2 MSTORE PUSH1 0x4 ADD PUSH1 0x20 PUSH1 0x40 MLOAD DUP1 DUP4 SUB DUP2 DUP7 GAS STATICCALL ISZERO DUP1 ISZERO PUSH2 0x2767 JUMPI RETURNDATASIZE PUSH0 DUP1 RETURNDATACOPY RETURNDATASIZE PUSH0 REVERT JUMPDEST POP POP POP POP PUSH1 0x40 MLOAD RETURNDATASIZE PUSH1 0x1F NOT PUSH1 0x1F DUP3 ADD AND DUP3 ADD DUP1 PUSH1 0x40 MSTORE POP DUP2 ADD SWAP1 PUSH2 0x278B SWAP2 SWAP1 PUSH2 0x2F3C JUMP JUMPDEST DUP2 PUSH1 0x1 DUP2 MLOAD DUP2 LT PUSH2 0x279E JUMPI PUSH2 0x279E PUSH2 0x2EEA JUMP JUMPDEST PUSH1 0x20 MUL PUSH1 0x20 ADD ADD SWAP1 PUSH1 0x1 PUSH1 0x1 PUSH1 0xA0 SHL SUB AND SWAP1 DUP2 PUSH1 0x1 PUSH1 0x1 PUSH1 0xA0 SHL SUB AND DUP2 MSTORE POP POP PUSH2 0x27E9 ADDRESS PUSH32 0x0 DUP5 PUSH2 0x19E4 JUMP JUMPDEST PUSH1 0x40 MLOAD PUSH4 0x791AC947 PUSH1 0xE0 SHL DUP2 MSTORE PUSH1 0x1 PUSH1 0x1 PUSH1 0xA0 SHL SUB PUSH32 0x0 AND SWAP1 PUSH4 0x791AC947 SWAP1 PUSH2 0x283D SWAP1 DUP6 SWAP1 PUSH0 SWAP1 DUP7 SWAP1 ADDRESS SWAP1 TIMESTAMP SWAP1 PUSH1 0x4 ADD PUSH2 0x2F57 JUMP JUMPDEST PUSH0 PUSH1 0x40 MLOAD DUP1 DUP4 SUB DUP2 PUSH0 DUP8 DUP1 EXTCODESIZE ISZERO DUP1 ISZERO PUSH2 0x2854 JUMPI PUSH0 DUP1 REVERT JUMPDEST POP GAS CALL ISZERO DUP1 ISZERO PUSH2 0x1208 JUMPI RETURNDATASIZE PUSH0 DUP1 RETURNDATACOPY RETURNDATASIZE PUSH0 REVERT JUMPDEST PUSH2 0x2891 ADDRESS PUSH32 0x0 DUP5 PUSH2 0x19E4 JUMP JUMPDEST PUSH32 0x0 PUSH1 0x1 PUSH1 0x1 PUSH1 0xA0 SHL SUB AND PUSH4 0xF305D719 DUP3 ADDRESS DUP6 PUSH0 DUP1 PUSH2 0x28D6 PUSH0 SLOAD PUSH1 0x1 PUSH1 0x1 PUSH1 0xA0 SHL SUB AND SWAP1 JUMP JUMPDEST PUSH1 0x40 MLOAD PUSH1 0xE0 DUP9 SWAP1 SHL PUSH1 0x1 PUSH1 0x1 PUSH1 0xE0 SHL SUB NOT AND DUP2 MSTORE PUSH1 0x1 PUSH1 0x1 PUSH1 0xA0 SHL SUB SWAP6 DUP7 AND PUSH1 0x4 DUP3 ADD MSTORE PUSH1 0x24 DUP2 ADD SWAP5 SWAP1 SWAP5 MSTORE PUSH1 0x44 DUP5 ADD SWAP3 SWAP1 SWAP3 MSTORE PUSH1 0x64 DUP4 ADD MSTORE SWAP1 SWAP2 AND PUSH1 0x84 DUP3 ADD MSTORE TIMESTAMP PUSH1 0xA4 DUP3 ADD MSTORE PUSH1 0xC4 ADD PUSH1 0x60 PUSH1 0x40 MLOAD DUP1 DUP4 SUB DUP2 DUP6 DUP9 GAS CALL ISZERO DUP1 ISZERO PUSH2 0x293C JUMPI RETURNDATASIZE PUSH0 DUP1 RETURNDATACOPY RETURNDATASIZE PUSH0 REVERT JUMPDEST POP POP POP POP POP PUSH1 0x40 MLOAD RETURNDATASIZE PUSH1 0x1F NOT PUSH1 0x1F DUP3 ADD AND DUP3 ADD DUP1 PUSH1 0x40 MSTORE POP DUP2 ADD SWAP1 PUSH2 0x2961 SWAP2 SWAP1 PUSH2 0x2FC8 JUMP JUMPDEST POP POP POP POP POP JUMP JUMPDEST PUSH0 PUSH1 0x64 PUSH1 0xE SLOAD DUP4 PUSH2 0x2979 SWAP2 SWAP1 PUSH2 0x2F25 JUMP JUMPDEST PUSH2 0x8BA SWAP2 SWAP1 PUSH2 0x2ECB JUMP JUMPDEST PUSH0 PUSH1 0x64 PUSH1 0x10 SLOAD DUP4 PUSH2 0x2979 SWAP2 SWAP1 PUSH2 0x2F25 JUMP JUMPDEST PUSH0 PUSH1 0x64 PUSH1 0xF SLOAD DUP4 PUSH2 0x2979 SWAP2 SWAP1 PUSH2 0x2F25 JUMP JUMPDEST PUSH0 PUSH1 0x64 PUSH1 0x11 SLOAD DUP4 PUSH2 0x2979 SWAP2 SWAP1 PUSH2 0x2F25 JUMP JUMPDEST PUSH0 DUP1 PUSH0 DUP1 PUSH0 DUP1 PUSH0 DUP1 PUSH0 DUP1 PUSH2 0x29C9 DUP12 PUSH2 0x22DD JUMP JUMPDEST SWAP4 SWAP16 SWAP3 SWAP15 POP SWAP1 SWAP13 POP SWAP11 POP SWAP1 SWAP9 POP SWAP7 POP POP POP POP POP POP POP JUMP JUMPDEST PUSH0 PUSH2 0x29E9 PUSH2 0x1E77 JUMP JUMPDEST SWAP1 POP PUSH0 PUSH2 0x29F6 DUP3 DUP5 PUSH2 0x2F25 JUMP JUMPDEST ADDRESS PUSH0 SWAP1 DUP2 MSTORE PUSH1 0x2 PUSH1 0x20 MSTORE PUSH1 0x40 SWAP1 KECCAK256 SLOAD SWAP1 SWAP2 POP PUSH2 0x2A13 SWAP1 DUP3 SWAP1 PUSH2 0x2F12 JUMP JUMPDEST ADDRESS PUSH0 SWAP1 DUP2 MSTORE PUSH1 0x2 PUSH1 0x20 SWAP1 DUP2 MSTORE PUSH1 0x40 DUP1 DUP4 KECCAK256 SWAP4 SWAP1 SWAP4 SSTORE PUSH1 0x7 SWAP1 MSTORE KECCAK256 SLOAD PUSH1 0xFF AND ISZERO PUSH2 0x2A60 JUMPI ADDRESS PUSH0 SWAP1 DUP2 MSTORE PUSH1 0x3 PUSH1 0x20 MSTORE PUSH1 0x40 SWAP1 KECCAK256 SLOAD PUSH2 0x2A50 SWAP1 DUP5 SWAP1 PUSH2 0x2F12 JUMP JUMPDEST ADDRESS PUSH0 SWAP1 DUP2 MSTORE PUSH1 0x3 PUSH1 0x20 MSTORE PUSH1 0x40 SWAP1 KECCAK256 SSTORE JUMPDEST PUSH1 0x40 MLOAD DUP4 DUP2 MSTORE PUSH32 0x3A8AB79F6D1537E459A1A8379F48A77E1FFD07DDA4B16EA97074FDAB5DD8BF34 SWAP1 PUSH1 0x20 ADD JUMPDEST PUSH1 0x40 MLOAD DUP1 SWAP2 SUB SWAP1 LOG1 POP POP POP JUMP JUMPDEST PUSH0 PUSH2 0x2AA2 PUSH2 0x1E77 JUMP JUMPDEST SWAP1 POP PUSH0 PUSH2 0x2AAF DUP3 DUP5 PUSH2 0x2F25 JUMP JUMPDEST SWAP1 POP DUP1 DUP6 PUSH1 0xA SLOAD PUSH2 0x2AC0 SWAP2 SWAP1 PUSH2 0x2E83 JUMP JUMPDEST PUSH2 0x2ACA SWAP2 SWAP1 PUSH2 0x2E83 JUMP JUMPDEST PUSH1 0xA SSTORE PUSH1 0xB SLOAD PUSH2 0x2ADB SWAP1 DUP6 SWAP1 PUSH2 0x2F12 JUMP JUMPDEST PUSH1 0xB SSTORE PUSH1 0x9 SLOAD PUSH2 0x2AEC SWAP1 DUP5 SWAP1 PUSH2 0x2E83 JUMP JUMPDEST PUSH1 0x9 SSTORE PUSH1 0x40 MLOAD DUP5 DUP2 MSTORE PUSH32 0x56B5DF500587465B57D8CE799CC562A294F136B75A13718C574D9D36BD828058 SWAP1 PUSH1 0x20 ADD PUSH2 0x1505 JUMP JUMPDEST PUSH0 PUSH2 0x2B28 PUSH2 0x1E77 JUMP JUMPDEST SWAP1 POP PUSH0 PUSH2 0x2B35 DUP3 DUP5 PUSH2 0x2F25 JUMP JUMPDEST PUSH1 0x1A SLOAD PUSH1 0x1 PUSH1 0x1 PUSH1 0xA0 SHL SUB AND PUSH0 SWAP1 DUP2 MSTORE PUSH1 0x2 PUSH1 0x20 MSTORE PUSH1 0x40 SWAP1 KECCAK256 SLOAD SWAP1 SWAP2 POP PUSH2 0x2B5D SWAP1 DUP3 SWAP1 PUSH2 0x2F12 JUMP JUMPDEST PUSH1 0x1A DUP1 SLOAD PUSH1 0x1 PUSH1 0x1 PUSH1 0xA0 SHL SUB SWAP1 DUP2 AND PUSH0 SWAP1 DUP2 MSTORE PUSH1 0x2 PUSH1 0x20 SWAP1 DUP2 MSTORE PUSH1 0x40 DUP1 DUP4 KECCAK256 SWAP6 SWAP1 SWAP6 SSTORE SWAP3 SLOAD SWAP1 SWAP2 AND DUP2 MSTORE PUSH1 0x7 SWAP1 SWAP2 MSTORE KECCAK256 SLOAD PUSH1 0xFF AND ISZERO PUSH2 0x2BD6 JUMPI PUSH1 0x1A SLOAD PUSH1 0x1 PUSH1 0x1 PUSH1 0xA0 SHL SUB AND PUSH0 SWAP1 DUP2 MSTORE PUSH1 0x3 PUSH1 0x20 MSTORE PUSH1 0x40 SWAP1 KECCAK256 SLOAD PUSH2 0x2BBB SWAP1 DUP5 SWAP1 PUSH2 0x2F12 JUMP JUMPDEST PUSH1 0x1A SLOAD PUSH1 0x1 PUSH1 0x1 PUSH1 0xA0 SHL SUB AND PUSH0 SWAP1 DUP2 MSTORE PUSH1 0x3 PUSH1 0x20 MSTORE PUSH1 0x40 SWAP1 KECCAK256 SSTORE JUMPDEST PUSH1 0x40 MLOAD DUP4 DUP2 MSTORE PUSH32 0x7A934C407238277F8CF36DF7A2F4B5EF2EB3AA6190EEB615E32C02075A5730B0 SWAP1 PUSH1 0x20 ADD PUSH2 0x2A8C JUMP JUMPDEST PUSH0 PUSH1 0x20 DUP1 DUP4 MSTORE DUP4 MLOAD DUP1 PUSH1 0x20 DUP6 ADD MSTORE PUSH0 JUMPDEST DUP2 DUP2 LT ISZERO PUSH2 0x2C32 JUMPI DUP6 DUP2 ADD DUP4 ADD MLOAD DUP6 DUP3 ADD PUSH1 0x40 ADD MSTORE DUP3 ADD PUSH2 0x2C16 JUMP JUMPDEST POP PUSH0 PUSH1 0x40 DUP3 DUP7 ADD ADD MSTORE PUSH1 0x40 PUSH1 0x1F NOT PUSH1 0x1F DUP4 ADD AND DUP6 ADD ADD SWAP3 POP POP POP SWAP3 SWAP2 POP POP JUMP JUMPDEST PUSH1 0x1 PUSH1 0x1 PUSH1 0xA0 SHL SUB DUP2 AND DUP2 EQ PUSH2 0x2C66 JUMPI PUSH0 DUP1 REVERT JUMPDEST POP JUMP JUMPDEST PUSH0 DUP1 PUSH1 0x40 DUP4 DUP6 SUB SLT ISZERO PUSH2 0x2C7A JUMPI PUSH0 DUP1 REVERT JUMPDEST DUP3 CALLDATALOAD PUSH2 0x2C85 DUP2 PUSH2 0x2C52 JUMP JUMPDEST SWAP5 PUSH1 0x20 SWAP4 SWAP1 SWAP4 ADD CALLDATALOAD SWAP4 POP POP POP JUMP JUMPDEST PUSH0 DUP1 PUSH0 PUSH1 0x60 DUP5 DUP7 SUB SLT ISZERO PUSH2 0x2CA5 JUMPI PUSH0 DUP1 REVERT JUMPDEST DUP4 CALLDATALOAD PUSH2 0x2CB0 DUP2 PUSH2 0x2C52 JUMP JUMPDEST SWAP3 POP PUSH1 0x20 DUP5 ADD CALLDATALOAD PUSH2 0x2CC0 DUP2 PUSH2 0x2C52 JUMP JUMPDEST SWAP3 SWAP6 SWAP3 SWAP5 POP POP POP PUSH1 0x40 SWAP2 SWAP1 SWAP2 ADD CALLDATALOAD SWAP1 JUMP JUMPDEST PUSH0 PUSH1 0x20 DUP3 DUP5 SUB SLT ISZERO PUSH2 0x2CE1 JUMPI PUSH0 DUP1 REVERT JUMPDEST POP CALLDATALOAD SWAP2 SWAP1 POP JUMP JUMPDEST PUSH0 PUSH1 0x20 DUP3 DUP5 SUB SLT ISZERO PUSH2 0x2CF8 JUMPI PUSH0 DUP1 REVERT JUMPDEST DUP2 CALLDATALOAD PUSH2 0xA6D DUP2 PUSH2 0x2C52 JUMP JUMPDEST DUP1 CALLDATALOAD DUP1 ISZERO ISZERO DUP2 EQ PUSH2 0x2D12 JUMPI PUSH0 DUP1 REVERT JUMPDEST SWAP2 SWAP1 POP JUMP JUMPDEST PUSH0 DUP1 PUSH1 0x40 DUP4 DUP6 SUB SLT ISZERO PUSH2 0x2D28 JUMPI PUSH0 DUP1 REVERT JUMPDEST DUP3 CALLDATALOAD SWAP2 POP PUSH2 0x2D38 PUSH1 0x20 DUP5 ADD PUSH2 0x2D03 JUMP JUMPDEST SWAP1 POP SWAP3 POP SWAP3 SWAP1 POP JUMP JUMPDEST PUSH0 DUP1 DUP4 PUSH1 0x1F DUP5 ADD SLT PUSH2 0x2D51 JUMPI PUSH0 DUP1 REVERT JUMPDEST POP DUP2 CALLDATALOAD PUSH8 0xFFFFFFFFFFFFFFFF DUP2 GT ISZERO PUSH2 0x2D68 JUMPI PUSH0 DUP1 REVERT JUMPDEST PUSH1 0x20 DUP4 ADD SWAP2 POP DUP4 PUSH1 0x20 DUP3 PUSH1 0x5 SHL DUP6 ADD ADD GT ISZERO PUSH2 0x2D82 JUMPI PUSH0 DUP1 REVERT JUMPDEST SWAP3 POP SWAP3 SWAP1 POP JUMP JUMPDEST PUSH0 DUP1 PUSH0 DUP1 PUSH1 0x40 DUP6 DUP8 SUB SLT ISZERO PUSH2 0x2D9C JUMPI PUSH0 DUP1 REVERT JUMPDEST DUP5 CALLDATALOAD PUSH8 0xFFFFFFFFFFFFFFFF DUP1 DUP3 GT ISZERO PUSH2 0x2DB3 JUMPI PUSH0 DUP1 REVERT JUMPDEST PUSH2 0x2DBF DUP9 DUP4 DUP10 ADD PUSH2 0x2D41 JUMP JUMPDEST SWAP1 SWAP7 POP SWAP5 POP PUSH1 0x20 DUP8 ADD CALLDATALOAD SWAP2 POP DUP1 DUP3 GT ISZERO PUSH2 0x2DD7 JUMPI PUSH0 DUP1 REVERT JUMPDEST POP PUSH2 0x2DE4 DUP8 DUP3 DUP9 ADD PUSH2 0x2D41 JUMP JUMPDEST SWAP6 SWAP9 SWAP5 SWAP8 POP SWAP6 POP POP POP POP JUMP JUMPDEST PUSH0 DUP1 PUSH0 DUP1 PUSH1 0x80 DUP6 DUP8 SUB SLT ISZERO PUSH2 0x2E03 JUMPI PUSH0 DUP1 REVERT JUMPDEST POP POP DUP3 CALLDATALOAD SWAP5 PUSH1 0x20 DUP5 ADD CALLDATALOAD SWAP5 POP PUSH1 0x40 DUP5 ADD CALLDATALOAD SWAP4 PUSH1 0x60 ADD CALLDATALOAD SWAP3 POP SWAP1 POP JUMP JUMPDEST PUSH0 PUSH1 0x20 DUP3 DUP5 SUB SLT ISZERO PUSH2 0x2E2F JUMPI PUSH0 DUP1 REVERT JUMPDEST PUSH2 0xA6D DUP3 PUSH2 0x2D03 JUMP JUMPDEST PUSH0 DUP1 PUSH1 0x40 DUP4 DUP6 SUB SLT ISZERO PUSH2 0x2E49 JUMPI PUSH0 DUP1 REVERT JUMPDEST DUP3 CALLDATALOAD PUSH2 0x2E54 DUP2 PUSH2 0x2C52 JUMP JUMPDEST SWAP2 POP PUSH1 0x20 DUP4 ADD CALLDATALOAD PUSH2 0x2E64 DUP2 PUSH2 0x2C52 JUMP JUMPDEST DUP1 SWAP2 POP POP SWAP3 POP SWAP3 SWAP1 POP JUMP JUMPDEST PUSH4 0x4E487B71 PUSH1 0xE0 SHL PUSH0 MSTORE PUSH1 0x11 PUSH1 0x4 MSTORE PUSH1 0x24 PUSH0 REVERT JUMPDEST DUP2 DUP2 SUB DUP2 DUP2 GT ISZERO PUSH2 0x8BA JUMPI PUSH2 0x8BA PUSH2 0x2E6F JUMP JUMPDEST PUSH1 0x20 DUP1 DUP3 MSTORE DUP2 DUP2 ADD MSTORE PUSH32 0x4F776E61626C653A2063616C6C6572206973206E6F7420746865206F776E6572 PUSH1 0x40 DUP3 ADD MSTORE PUSH1 0x60 ADD SWAP1 JUMP JUMPDEST PUSH0 DUP3 PUSH2 0x2EE5 JUMPI PUSH4 0x4E487B71 PUSH1 0xE0 SHL PUSH0 MSTORE PUSH1 0x12 PUSH1 0x4 MSTORE PUSH1 0x24 PUSH0 REVERT JUMPDEST POP DIV SWAP1 JUMP JUMPDEST PUSH4 0x4E487B71 PUSH1 0xE0 SHL PUSH0 MSTORE PUSH1 0x32 PUSH1 0x4 MSTORE PUSH1 0x24 PUSH0 REVERT JUMPDEST PUSH4 0x4E487B71 PUSH1 0xE0 SHL PUSH0 MSTORE PUSH1 0x31 PUSH1 0x4 MSTORE PUSH1 0x24 PUSH0 REVERT JUMPDEST DUP1 DUP3 ADD DUP1 DUP3 GT ISZERO PUSH2 0x8BA JUMPI PUSH2 0x8BA PUSH2 0x2E6F JUMP JUMPDEST DUP1 DUP3 MUL DUP2 ISZERO DUP3 DUP3 DIV DUP5 EQ OR PUSH2 0x8BA JUMPI PUSH2 0x8BA PUSH2 0x2E6F JUMP JUMPDEST PUSH0 PUSH1 0x20 DUP3 DUP5 SUB SLT ISZERO PUSH2 0x2F4C JUMPI PUSH0 DUP1 REVERT JUMPDEST DUP2 MLOAD PUSH2 0xA6D DUP2 PUSH2 0x2C52 JUMP JUMPDEST PUSH0 PUSH1 0xA0 DUP3 ADD DUP8 DUP4 MSTORE PUSH1 0x20 DUP8 PUSH1 0x20 DUP6 ADD MSTORE PUSH1 0xA0 PUSH1 0x40 DUP6 ADD MSTORE DUP2 DUP8 MLOAD DUP1 DUP5 MSTORE PUSH1 0xC0 DUP7 ADD SWAP2 POP PUSH1 0x20 DUP10 ADD SWAP4 POP PUSH0 JUMPDEST DUP2 DUP2 LT ISZERO PUSH2 0x2FA7 JUMPI DUP5 MLOAD PUSH1 0x1 PUSH1 0x1 PUSH1 0xA0 SHL SUB AND DUP4 MSTORE SWAP4 DUP4 ADD SWAP4 SWAP2 DUP4 ADD SWAP2 PUSH1 0x1 ADD PUSH2 0x2F82 JUMP JUMPDEST POP POP PUSH1 0x1 PUSH1 0x1 PUSH1 0xA0 SHL SUB SWAP7 SWAP1 SWAP7 AND PUSH1 0x60 DUP6 ADD MSTORE POP POP POP PUSH1 0x80 ADD MSTORE SWAP4 SWAP3 POP POP POP JUMP JUMPDEST PUSH0 DUP1 PUSH0 PUSH1 0x60 DUP5 DUP7 SUB SLT ISZERO PUSH2 0x2FDA JUMPI PUSH0 DUP1 REVERT JUMPDEST DUP4 MLOAD SWAP3 POP PUSH1 0x20 DUP5 ADD MLOAD SWAP2 POP PUSH1 0x40 DUP5 ADD MLOAD SWAP1 POP SWAP3 POP SWAP3 POP SWAP3 JUMP INVALID LOG2 PUSH5 0x6970667358 0x22 SLT KECCAK256 0x28 LOG3 SGT GAS DUP12 AND 0x4C 0x24 0xBE MSTORE8 EXTCODEHASH PUSH32 0xA2064290132EFB365D20BC8C5E8BF0A1BECE40A364736F6C6343000818003300 "
		},
		"gasEstimates": {
			"creation": {
				"codeDepositCost": "2465800",
				"executionCost": "infinite",
				"totalCost": "infinite"
			},
			"external": {
				"addBlacklist(address)": "30102",
				"airdrop(address[],uint256[])": "infinite",
				"allowance(address,address)": "infinite",
				"approve(address,uint256)": "24656",
				"balanceOf(address)": "infinite",
				"blacklisted(address)": "2633",
				"buyBurnTaxPer()": "2362",
				"buyCoinWalletTaxPer()": "2338",
				"buyLiquidityTaxPer()": "2360",
				"buyReflectionTax()": "2405",
				"decimals()": "332",
				"decreaseAllowance(address,uint256)": "infinite",
				"deliver(uint256)": "infinite",
				"excludeFromFee(address)": "29064",
				"excludeFromReward(address)": "infinite",
				"fundWallet()": "2382",
				"includeInFee(address)": "29031",
				"includeInReward(address)": "infinite",
				"increaseAllowance(address,uint256)": "infinite",
				"isExcludedFromFee(address)": "2673",
				"isExcludedFromReward(address)": "2674",
				"name()": "infinite",
				"owner()": "2485",
				"reflectionFromToken(uint256,bool)": "infinite",
				"removeBlacklist(address)": "30158",
				"renounceOwnership()": "30273",
				"sellBurnTaxPer()": "2406",
				"sellCoinWalletTaxPer()": "2450",
				"sellLiquidityTaxPer()": "2449",
				"sellReflectionTax()": "2449",
				"setFundWallet(address)": "27946",
				"setSwapAndLiquifyEnabled(bool)": "27799",
				"startTrading()": "29837",
				"swapAndLiquifyEnabled()": "2387",
				"symbol()": "infinite",
				"tokenFromReflection(uint256)": "infinite",
				"totalFees()": "2371",
				"totalSupply()": "2426",
				"tradeEnabled()": "2387",
				"transfer(address,uint256)": "infinite",
				"transferFrom(address,address,uint256)": "infinite",
				"transferOwnership(address)": "30543",
				"uniswapV2Pair()": "infinite",
				"uniswapV2Router()": "infinite",
				"updateBuyTaxPer(uint256,uint256,uint256,uint256)": "infinite",
				"updateSellTaxPer(uint256,uint256,uint256,uint256)": "infinite",
				"updateThreshold(uint256)": "25683"
			},
			"internal": {
				"_approve(address,address,uint256)": "infinite",
				"_getCurrentSupply()": "infinite",
				"_getRValues(uint256,uint256,uint256,uint256,uint256)": "infinite",
				"_getRate()": "infinite",
				"_getTValues(uint256)": "infinite",
				"_getValue(uint256)": "infinite",
				"_getValues(uint256)": "infinite",
				"_reflectFee(uint256,uint256,uint256)": "infinite",
				"_sellBuyTax(address,address)": "infinite",
				"_takeCoinFund(uint256)": "infinite",
				"_takeLiquidity(uint256)": "infinite",
				"_tokenTransfer(address,address,uint256,bool)": "infinite",
				"_transfer(address,address,uint256)": "infinite",
				"_transferBothExcluded(address,address,uint256)": "infinite",
				"_transferFromExcluded(address,address,uint256)": "infinite",
				"_transferStandard(address,address,uint256)": "infinite",
				"_transferToExcluded(address,address,uint256)": "infinite",
				"addLiquidity(uint256,uint256)": "infinite",
				"calculateBurnTax(uint256)": "infinite",
				"calculateCoinOperartionTax(uint256)": "infinite",
				"calculateLiquidityFee(uint256)": "infinite",
				"calculateTaxFee(uint256)": "infinite",
				"removeAllFee()": "infinite",
				"swapAndLiquify(uint256)": "infinite",
				"swapTokensForEth(uint256)": "infinite"
			}
		},
		"methodIdentifiers": {
			"addBlacklist(address)": "9cfe42da",
			"airdrop(address[],uint256[])": "67243482",
			"allowance(address,address)": "dd62ed3e",
			"approve(address,uint256)": "095ea7b3",
			"balanceOf(address)": "70a08231",
			"blacklisted(address)": "dbac26e9",
			"buyBurnTaxPer()": "281d9a7a",
			"buyCoinWalletTaxPer()": "e1eaf3bb",
			"buyLiquidityTaxPer()": "ea204636",
			"buyReflectionTax()": "5252a228",
			"decimals()": "313ce567",
			"decreaseAllowance(address,uint256)": "a457c2d7",
			"deliver(uint256)": "3bd5d173",
			"excludeFromFee(address)": "437823ec",
			"excludeFromReward(address)": "52390c02",
			"fundWallet()": "664a1ad6",
			"includeInFee(address)": "ea2f0b37",
			"includeInReward(address)": "3685d419",
			"increaseAllowance(address,uint256)": "39509351",
			"isExcludedFromFee(address)": "5342acb4",
			"isExcludedFromReward(address)": "88f82020",
			"name()": "06fdde03",
			"owner()": "8da5cb5b",
			"reflectionFromToken(uint256,bool)": "4549b039",
			"removeBlacklist(address)": "eb91e651",
			"renounceOwnership()": "715018a6",
			"sellBurnTaxPer()": "2d5624ed",
			"sellCoinWalletTaxPer()": "463db7dd",
			"sellLiquidityTaxPer()": "bdf024ec",
			"sellReflectionTax()": "e1662ed3",
			"setFundWallet(address)": "55ce3b9a",
			"setSwapAndLiquifyEnabled(bool)": "c49b9a80",
			"startTrading()": "293230b8",
			"swapAndLiquifyEnabled()": "4a74bb02",
			"symbol()": "95d89b41",
			"tokenFromReflection(uint256)": "2d838119",
			"totalFees()": "13114a9d",
			"totalSupply()": "18160ddd",
			"tradeEnabled()": "d621e813",
			"transfer(address,uint256)": "a9059cbb",
			"transferFrom(address,address,uint256)": "23b872dd",
			"transferOwnership(address)": "f2fde38b",
			"uniswapV2Pair()": "49bd5a5e",
			"uniswapV2Router()": "1694505e",
			"updateBuyTaxPer(uint256,uint256,uint256,uint256)": "ea7db9e5",
			"updateSellTaxPer(uint256,uint256,uint256,uint256)": "b618a70d",
			"updateThreshold(uint256)": "d7d7442f"
		}
	},
	"abi": [
		{
			"inputs": [
				{
					"internalType": "address",
					"name": "wallet",
					"type": "address"
				}
			],
			"stateMutability": "nonpayable",
			"type": "constructor"
		},
		{
			"anonymous": false,
			"inputs": [
				{
					"indexed": false,
					"internalType": "address",
					"name": "account",
					"type": "address"
				}
			],
			"name": "AddedInBlacklist",
			"type": "event"
		},
		{
			"anonymous": false,
			"inputs": [
				{
					"indexed": false,
					"internalType": "uint256",
					"name": "totalLiquidity",
					"type": "uint256"
				}
			],
			"name": "AddedLiquidity",
			"type": "event"
		},
		{
			"anonymous": false,
			"inputs": [
				{
					"indexed": true,
					"internalType": "address",
					"name": "owner",
					"type": "address"
				},
				{
					"indexed": true,
					"internalType": "address",
					"name": "spender",
					"type": "address"
				},
				{
					"indexed": false,
					"internalType": "uint256",
					"name": "value",
					"type": "uint256"
				}
			],
			"name": "Approval",
			"type": "event"
		},
		{
			"anonymous": false,
			"inputs": [
				{
					"indexed": false,
					"internalType": "uint256",
					"name": "buyReflectionTax",
					"type": "uint256"
				},
				{
					"indexed": false,
					"internalType": "uint256",
					"name": "buyCoinWalletTaxPer",
					"type": "uint256"
				},
				{
					"indexed": false,
					"internalType": "uint256",
					"name": "buyLiquidityTaxPer",
					"type": "uint256"
				},
				{
					"indexed": false,
					"internalType": "uint256",
					"name": "buyBurnTaxPer",
					"type": "uint256"
				}
			],
			"name": "BuyTaxUpdated",
			"type": "event"
		},
		{
			"anonymous": false,
			"inputs": [
				{
					"indexed": false,
					"internalType": "uint256",
					"name": "totalCoinFund",
					"type": "uint256"
				}
			],
			"name": "CoinFund",
			"type": "event"
		},
		{
			"anonymous": false,
			"inputs": [
				{
					"indexed": false,
					"internalType": "address",
					"name": "wallet",
					"type": "address"
				}
			],
			"name": "FundWalletChange",
			"type": "event"
		},
		{
			"anonymous": false,
			"inputs": [
				{
					"indexed": false,
					"internalType": "address",
					"name": "owner",
					"type": "address"
				},
				{
					"indexed": false,
					"internalType": "address",
					"name": "newOwner",
					"type": "address"
				},
				{
					"indexed": false,
					"internalType": "uint256",
					"name": "lockTime",
					"type": "uint256"
				}
			],
			"name": "Locked",
			"type": "event"
		},
		{
			"anonymous": false,
			"inputs": [
				{
					"indexed": true,
					"internalType": "address",
					"name": "previousOwner",
					"type": "address"
				},
				{
					"indexed": true,
					"internalType": "address",
					"name": "newOwner",
					"type": "address"
				}
			],
			"name": "OwnershipTransferred",
			"type": "event"
		},
		{
			"anonymous": false,
			"inputs": [
				{
					"indexed": false,
					"internalType": "uint256",
					"name": "totalReflectFee",
					"type": "uint256"
				}
			],
			"name": "ReflectedFee",
			"type": "event"
		},
		{
			"anonymous": false,
			"inputs": [
				{
					"indexed": false,
					"internalType": "address",
					"name": "account",
					"type": "address"
				}
			],
			"name": "RemovedFromBlacklist",
			"type": "event"
		},
		{
			"anonymous": false,
			"inputs": [
				{
					"indexed": false,
					"internalType": "uint256",
					"name": "sellReflectionTax",
					"type": "uint256"
				},
				{
					"indexed": false,
					"internalType": "uint256",
					"name": "sellCoinWalletTaxPer",
					"type": "uint256"
				},
				{
					"indexed": false,
					"internalType": "uint256",
					"name": "sellLiquidityTaxPer",
					"type": "uint256"
				},
				{
					"indexed": false,
					"internalType": "uint256",
					"name": "sellBurnTaxPer",
					"type": "uint256"
				}
			],
			"name": "SellTaxUpdated",
			"type": "event"
		},
		{
			"anonymous": false,
			"inputs": [
				{
					"indexed": false,
					"internalType": "uint256",
					"name": "tokensSwapped",
					"type": "uint256"
				},
				{
					"indexed": false,
					"internalType": "uint256",
					"name": "ethReceived",
					"type": "uint256"
				},
				{
					"indexed": false,
					"internalType": "uint256",
					"name": "tokensIntoLiqudity",
					"type": "uint256"
				}
			],
			"name": "SwapAndLiquify",
			"type": "event"
		},
		{
			"anonymous": false,
			"inputs": [
				{
					"indexed": false,
					"internalType": "bool",
					"name": "enabled",
					"type": "bool"
				}
			],
			"name": "SwapAndLiquifyEnabledUpdated",
			"type": "event"
		},
		{
			"anonymous": false,
			"inputs": [
				{
					"indexed": false,
					"internalType": "uint256",
					"name": "amount",
					"type": "uint256"
				}
			],
			"name": "ThresholdUpdated",
			"type": "event"
		},
		{
			"anonymous": false,
			"inputs": [
				{
					"indexed": false,
					"internalType": "bool",
					"name": "enabled",
					"type": "bool"
				}
			],
			"name": "TradeEnabled",
			"type": "event"
		},
		{
			"anonymous": false,
			"inputs": [
				{
					"indexed": true,
					"internalType": "address",
					"name": "from",
					"type": "address"
				},
				{
					"indexed": true,
					"internalType": "address",
					"name": "to",
					"type": "address"
				},
				{
					"indexed": false,
					"internalType": "uint256",
					"name": "value",
					"type": "uint256"
				}
			],
			"name": "Transfer",
			"type": "event"
		},
		{
			"inputs": [
				{
					"internalType": "address",
					"name": "account",
					"type": "address"
				}
			],
			"name": "addBlacklist",
			"outputs": [],
			"stateMutability": "nonpayable",
			"type": "function"
		},
		{
			"inputs": [
				{
					"internalType": "address[]",
					"name": "addresses",
					"type": "address[]"
				},
				{
					"internalType": "uint256[]",
					"name": "tokens",
					"type": "uint256[]"
				}
			],
			"name": "airdrop",
			"outputs": [],
			"stateMutability": "nonpayable",
			"type": "function"
		},
		{
			"inputs": [
				{
					"internalType": "address",
					"name": "owner",
					"type": "address"
				},
				{
					"internalType": "address",
					"name": "spender",
					"type": "address"
				}
			],
			"name": "allowance",
			"outputs": [
				{
					"internalType": "uint256",
					"name": "",
					"type": "uint256"
				}
			],
			"stateMutability": "view",
			"type": "function"
		},
		{
			"inputs": [
				{
					"internalType": "address",
					"name": "spender",
					"type": "address"
				},
				{
					"internalType": "uint256",
					"name": "amount",
					"type": "uint256"
				}
			],
			"name": "approve",
			"outputs": [
				{
					"internalType": "bool",
					"name": "",
					"type": "bool"
				}
			],
			"stateMutability": "nonpayable",
			"type": "function"
		},
		{
			"inputs": [
				{
					"internalType": "address",
					"name": "account",
					"type": "address"
				}
			],
			"name": "balanceOf",
			"outputs": [
				{
					"internalType": "uint256",
					"name": "",
					"type": "uint256"
				}
			],
			"stateMutability": "view",
			"type": "function"
		},
		{
			"inputs": [
				{
					"internalType": "address",
					"name": "",
					"type": "address"
				}
			],
			"name": "blacklisted",
			"outputs": [
				{
					"internalType": "bool",
					"name": "",
					"type": "bool"
				}
			],
			"stateMutability": "view",
			"type": "function"
		},
		{
			"inputs": [],
			"name": "buyBurnTaxPer",
			"outputs": [
				{
					"internalType": "uint256",
					"name": "",
					"type": "uint256"
				}
			],
			"stateMutability": "view",
			"type": "function"
		},
		{
			"inputs": [],
			"name": "buyCoinWalletTaxPer",
			"outputs": [
				{
					"internalType": "uint256",
					"name": "",
					"type": "uint256"
				}
			],
			"stateMutability": "view",
			"type": "function"
		},
		{
			"inputs": [],
			"name": "buyLiquidityTaxPer",
			"outputs": [
				{
					"internalType": "uint256",
					"name": "",
					"type": "uint256"
				}
			],
			"stateMutability": "view",
			"type": "function"
		},
		{
			"inputs": [],
			"name": "buyReflectionTax",
			"outputs": [
				{
					"internalType": "uint256",
					"name": "",
					"type": "uint256"
				}
			],
			"stateMutability": "view",
			"type": "function"
		},
		{
			"inputs": [],
			"name": "decimals",
			"outputs": [
				{
					"internalType": "uint8",
					"name": "",
					"type": "uint8"
				}
			],
			"stateMutability": "pure",
			"type": "function"
		},
		{
			"inputs": [
				{
					"internalType": "address",
					"name": "spender",
					"type": "address"
				},
				{
					"internalType": "uint256",
					"name": "subtractedValue",
					"type": "uint256"
				}
			],
			"name": "decreaseAllowance",
			"outputs": [
				{
					"internalType": "bool",
					"name": "",
					"type": "bool"
				}
			],
			"stateMutability": "nonpayable",
			"type": "function"
		},
		{
			"inputs": [
				{
					"internalType": "uint256",
					"name": "tAmount",
					"type": "uint256"
				}
			],
			"name": "deliver",
			"outputs": [],
			"stateMutability": "nonpayable",
			"type": "function"
		},
		{
			"inputs": [
				{
					"internalType": "address",
					"name": "account",
					"type": "address"
				}
			],
			"name": "excludeFromFee",
			"outputs": [],
			"stateMutability": "nonpayable",
			"type": "function"
		},
		{
			"inputs": [
				{
					"internalType": "address",
					"name": "account",
					"type": "address"
				}
			],
			"name": "excludeFromReward",
			"outputs": [],
			"stateMutability": "nonpayable",
			"type": "function"
		},
		{
			"inputs": [],
			"name": "fundWallet",
			"outputs": [
				{
					"internalType": "address",
					"name": "",
					"type": "address"
				}
			],
			"stateMutability": "view",
			"type": "function"
		},
		{
			"inputs": [
				{
					"internalType": "address",
					"name": "account",
					"type": "address"
				}
			],
			"name": "includeInFee",
			"outputs": [],
			"stateMutability": "nonpayable",
			"type": "function"
		},
		{
			"inputs": [
				{
					"internalType": "address",
					"name": "account",
					"type": "address"
				}
			],
			"name": "includeInReward",
			"outputs": [],
			"stateMutability": "nonpayable",
			"type": "function"
		},
		{
			"inputs": [
				{
					"internalType": "address",
					"name": "spender",
					"type": "address"
				},
				{
					"internalType": "uint256",
					"name": "addedValue",
					"type": "uint256"
				}
			],
			"name": "increaseAllowance",
			"outputs": [
				{
					"internalType": "bool",
					"name": "",
					"type": "bool"
				}
			],
			"stateMutability": "nonpayable",
			"type": "function"
		},
		{
			"inputs": [
				{
					"internalType": "address",
					"name": "account",
					"type": "address"
				}
			],
			"name": "isExcludedFromFee",
			"outputs": [
				{
					"internalType": "bool",
					"name": "",
					"type": "bool"
				}
			],
			"stateMutability": "view",
			"type": "function"
		},
		{
			"inputs": [
				{
					"internalType": "address",
					"name": "account",
					"type": "address"
				}
			],
			"name": "isExcludedFromReward",
			"outputs": [
				{
					"internalType": "bool",
					"name": "",
					"type": "bool"
				}
			],
			"stateMutability": "view",
			"type": "function"
		},
		{
			"inputs": [],
			"name": "name",
			"outputs": [
				{
					"internalType": "string",
					"name": "",
					"type": "string"
				}
			],
			"stateMutability": "pure",
			"type": "function"
		},
		{
			"inputs": [],
			"name": "owner",
			"outputs": [
				{
					"internalType": "address",
					"name": "",
					"type": "address"
				}
			],
			"stateMutability": "view",
			"type": "function"
		},
		{
			"inputs": [
				{
					"internalType": "uint256",
					"name": "tAmount",
					"type": "uint256"
				},
				{
					"internalType": "bool",
					"name": "deductTransferFee",
					"type": "bool"
				}
			],
			"name": "reflectionFromToken",
			"outputs": [
				{
					"internalType": "uint256",
					"name": "",
					"type": "uint256"
				}
			],
			"stateMutability": "view",
			"type": "function"
		},
		{
			"inputs": [
				{
					"internalType": "address",
					"name": "account",
					"type": "address"
				}
			],
			"name": "removeBlacklist",
			"outputs": [],
			"stateMutability": "nonpayable",
			"type": "function"
		},
		{
			"inputs": [],
			"name": "renounceOwnership",
			"outputs": [],
			"stateMutability": "nonpayable",
			"type": "function"
		},
		{
			"inputs": [],
			"name": "sellBurnTaxPer",
			"outputs": [
				{
					"internalType": "uint256",
					"name": "",
					"type": "uint256"
				}
			],
			"stateMutability": "view",
			"type": "function"
		},
		{
			"inputs": [],
			"name": "sellCoinWalletTaxPer",
			"outputs": [
				{
					"internalType": "uint256",
					"name": "",
					"type": "uint256"
				}
			],
			"stateMutability": "view",
			"type": "function"
		},
		{
			"inputs": [],
			"name": "sellLiquidityTaxPer",
			"outputs": [
				{
					"internalType": "uint256",
					"name": "",
					"type": "uint256"
				}
			],
			"stateMutability": "view",
			"type": "function"
		},
		{
			"inputs": [],
			"name": "sellReflectionTax",
			"outputs": [
				{
					"internalType": "uint256",
					"name": "",
					"type": "uint256"
				}
			],
			"stateMutability": "view",
			"type": "function"
		},
		{
			"inputs": [
				{
					"internalType": "address",
					"name": "_fundWallet",
					"type": "address"
				}
			],
			"name": "setFundWallet",
			"outputs": [],
			"stateMutability": "nonpayable",
			"type": "function"
		},
		{
			"inputs": [
				{
					"internalType": "bool",
					"name": "enabled",
					"type": "bool"
				}
			],
			"name": "setSwapAndLiquifyEnabled",
			"outputs": [],
			"stateMutability": "nonpayable",
			"type": "function"
		},
		{
			"inputs": [],
			"name": "startTrading",
			"outputs": [],
			"stateMutability": "nonpayable",
			"type": "function"
		},
		{
			"inputs": [],
			"name": "swapAndLiquifyEnabled",
			"outputs": [
				{
					"internalType": "bool",
					"name": "",
					"type": "bool"
				}
			],
			"stateMutability": "view",
			"type": "function"
		},
		{
			"inputs": [],
			"name": "symbol",
			"outputs": [
				{
					"internalType": "string",
					"name": "",
					"type": "string"
				}
			],
			"stateMutability": "pure",
			"type": "function"
		},
		{
			"inputs": [
				{
					"internalType": "uint256",
					"name": "rAmount",
					"type": "uint256"
				}
			],
			"name": "tokenFromReflection",
			"outputs": [
				{
					"internalType": "uint256",
					"name": "",
					"type": "uint256"
				}
			],
			"stateMutability": "view",
			"type": "function"
		},
		{
			"inputs": [],
			"name": "totalFees",
			"outputs": [
				{
					"internalType": "uint256",
					"name": "",
					"type": "uint256"
				}
			],
			"stateMutability": "view",
			"type": "function"
		},
		{
			"inputs": [],
			"name": "totalSupply",
			"outputs": [
				{
					"internalType": "uint256",
					"name": "",
					"type": "uint256"
				}
			],
			"stateMutability": "view",
			"type": "function"
		},
		{
			"inputs": [],
			"name": "tradeEnabled",
			"outputs": [
				{
					"internalType": "bool",
					"name": "",
					"type": "bool"
				}
			],
			"stateMutability": "view",
			"type": "function"
		},
		{
			"inputs": [
				{
					"internalType": "address",
					"name": "recipient",
					"type": "address"
				},
				{
					"internalType": "uint256",
					"name": "amount",
					"type": "uint256"
				}
			],
			"name": "transfer",
			"outputs": [
				{
					"internalType": "bool",
					"name": "",
					"type": "bool"
				}
			],
			"stateMutability": "nonpayable",
			"type": "function"
		},
		{
			"inputs": [
				{
					"internalType": "address",
					"name": "sender",
					"type": "address"
				},
				{
					"internalType": "address",
					"name": "recipient",
					"type": "address"
				},
				{
					"internalType": "uint256",
					"name": "amount",
					"type": "uint256"
				}
			],
			"name": "transferFrom",
			"outputs": [
				{
					"internalType": "bool",
					"name": "",
					"type": "bool"
				}
			],
			"stateMutability": "nonpayable",
			"type": "function"
		},
		{
			"inputs": [
				{
					"internalType": "address",
					"name": "newOwner",
					"type": "address"
				}
			],
			"name": "transferOwnership",
			"outputs": [],
			"stateMutability": "nonpayable",
			"type": "function"
		},
		{
			"inputs": [],
			"name": "uniswapV2Pair",
			"outputs": [
				{
					"internalType": "address",
					"name": "",
					"type": "address"
				}
			],
			"stateMutability": "view",
			"type": "function"
		},
		{
			"inputs": [],
			"name": "uniswapV2Router",
			"outputs": [
				{
					"internalType": "contract IUniswapV2Router02",
					"name": "",
					"type": "address"
				}
			],
			"stateMutability": "view",
			"type": "function"
		},
		{
			"inputs": [
				{
					"internalType": "uint256",
					"name": "reflectionPercent",
					"type": "uint256"
				},
				{
					"internalType": "uint256",
					"name": "coinOperartionPer",
					"type": "uint256"
				},
				{
					"internalType": "uint256",
					"name": "liquidityTaxPer",
					"type": "uint256"
				},
				{
					"internalType": "uint256",
					"name": "burnTaxPer",
					"type": "uint256"
				}
			],
			"name": "updateBuyTaxPer",
			"outputs": [],
			"stateMutability": "nonpayable",
			"type": "function"
		},
		{
			"inputs": [
				{
					"internalType": "uint256",
					"name": "reflectionPercent",
					"type": "uint256"
				},
				{
					"internalType": "uint256",
					"name": "coinOperartionPer",
					"type": "uint256"
				},
				{
					"internalType": "uint256",
					"name": "liquidityTaxPer",
					"type": "uint256"
				},
				{
					"internalType": "uint256",
					"name": "burnTaxPer",
					"type": "uint256"
				}
			],
			"name": "updateSellTaxPer",
			"outputs": [],
			"stateMutability": "nonpayable",
			"type": "function"
		},
		{
			"inputs": [
				{
					"internalType": "uint256",
					"name": "_amount",
					"type": "uint256"
				}
			],
			"name": "updateThreshold",
			"outputs": [],
			"stateMutability": "nonpayable",
			"type": "function"
		},
		{
			"stateMutability": "payable",
			"type": "receive"
		}
	]
}