{"contracts/NFTERC721A.sol":{"NFTERC721A":{"abi":[{"inputs":[{"internalType":"string","name":"name","type":"string"},{"internalType":"string","name":"symbol","type":"string"},{"internalType":"uint256","name":"_mintPrice","type":"uint256"}],"stateMutability":"nonpayable","type":"constructor"},{"inputs":[],"name":"ApprovalCallerNotOwnerNorApproved","type":"error"},{"inputs":[],"name":"ApprovalQueryForNonexistentToken","type":"error"},{"inputs":[],"name":"BalanceQueryForZeroAddress","type":"error"},{"inputs":[],"name":"MintERC2309QuantityExceedsLimit","type":"error"},{"inputs":[],"name":"MintToZeroAddress","type":"error"},{"inputs":[],"name":"MintZeroQuantity","type":"error"},{"inputs":[],"name":"NotCompatibleWithSpotMints","type":"error"},{"inputs":[],"name":"OwnerQueryForNonexistentToken","type":"error"},{"inputs":[],"name":"OwnershipNotInitializedForExtraData","type":"error"},{"inputs":[],"name":"SequentialMintExceedsLimit","type":"error"},{"inputs":[],"name":"SequentialUpToTooSmall","type":"error"},{"inputs":[],"name":"SpotMintTokenIdTooSmall","type":"error"},{"inputs":[],"name":"TokenAlreadyExists","type":"error"},{"inputs":[],"name":"TransferCallerNotOwnerNorApproved","type":"error"},{"inputs":[],"name":"TransferFromIncorrectOwner","type":"error"},{"inputs":[],"name":"TransferToNonERC721ReceiverImplementer","type":"error"},{"inputs":[],"name":"TransferToZeroAddress","type":"error"},{"inputs":[],"name":"URIQueryForNonexistentToken","type":"error"},{"anonymous":false,"inputs":[{"indexed":true,"internalType":"address","name":"owner","type":"address"},{"indexed":true,"internalType":"address","name":"approved","type":"address"},{"indexed":true,"internalType":"uint256","name":"tokenId","type":"uint256"}],"name":"Approval","type":"event"},{"anonymous":false,"inputs":[{"indexed":true,"internalType":"address","name":"owner","type":"address"},{"indexed":true,"internalType":"address","name":"operator","type":"address"},{"indexed":false,"internalType":"bool","name":"approved","type":"bool"}],"name":"ApprovalForAll","type":"event"},{"anonymous":false,"inputs":[{"indexed":true,"internalType":"uint256","name":"fromTokenId","type":"uint256"},{"indexed":false,"internalType":"uint256","name":"toTokenId","type":"uint256"},{"indexed":true,"internalType":"address","name":"from","type":"address"},{"indexed":true,"internalType":"address","name":"to","type":"address"}],"name":"ConsecutiveTransfer","type":"event"},{"anonymous":false,"inputs":[{"indexed":true,"internalType":"address","name":"previousOwner","type":"address"},{"indexed":true,"internalType":"address","name":"newOwner","type":"address"}],"name":"OwnershipTransferred","type":"event"},{"anonymous":false,"inputs":[{"indexed":true,"internalType":"address","name":"from","type":"address"},{"indexed":true,"internalType":"address","name":"to","type":"address"},{"indexed":true,"internalType":"uint256","name":"tokenId","type":"uint256"}],"name":"Transfer","type":"event"},{"inputs":[{"internalType":"address","name":"to","type":"address"},{"internalType":"uint256","name":"tokenId","type":"uint256"}],"name":"approve","outputs":[],"stateMutability":"payable","type":"function"},{"inputs":[{"internalType":"address","name":"owner","type":"address"}],"name":"balanceOf","outputs":[{"internalType":"uint256","name":"","type":"uint256"}],"stateMutability":"view","type":"function"},{"inputs":[{"internalType":"uint256","name":"tokenId","type":"uint256"}],"name":"burn","outputs":[],"stateMutability":"nonpayable","type":"function"},{"inputs":[{"internalType":"uint256","name":"tokenId","type":"uint256"}],"name":"getApproved","outputs":[{"internalType":"address","name":"","type":"address"}],"stateMutability":"view","type":"function"},{"inputs":[{"internalType":"address","name":"owner","type":"address"},{"internalType":"address","name":"operator","type":"address"}],"name":"isApprovedForAll","outputs":[{"internalType":"bool","name":"","type":"bool"}],"stateMutability":"view","type":"function"},{"inputs":[],"name":"maxPerTx","outputs":[{"internalType":"uint256","name":"","type":"uint256"}],"stateMutability":"view","type":"function"},{"inputs":[],"name":"maxPerWallet","outputs":[{"internalType":"uint256","name":"","type":"uint256"}],"stateMutability":"view","type":"function"},{"inputs":[],"name":"maxSupply","outputs":[{"internalType":"uint256","name":"","type":"uint256"}],"stateMutability":"view","type":"function"},{"inputs":[],"name":"mintPrice","outputs":[{"internalType":"uint256","name":"","type":"uint256"}],"stateMutability":"view","type":"function"},{"inputs":[{"internalType":"address","name":"","type":"address"}],"name":"mintedPerWallet","outputs":[{"internalType":"uint256","name":"","type":"uint256"}],"stateMutability":"view","type":"function"},{"inputs":[],"name":"name","outputs":[{"internalType":"string","name":"","type":"string"}],"stateMutability":"view","type":"function"},{"inputs":[],"name":"owner","outputs":[{"internalType":"address","name":"","type":"address"}],"stateMutability":"view","type":"function"},{"inputs":[{"internalType":"address","name":"to","type":"address"},{"internalType":"uint256","name":"quantity","type":"uint256"}],"name":"ownerMint","outputs":[],"stateMutability":"nonpayable","type":"function"},{"inputs":[{"internalType":"uint256","name":"tokenId","type":"uint256"}],"name":"ownerOf","outputs":[{"internalType":"address","name":"","type":"address"}],"stateMutability":"view","type":"function"},{"inputs":[{"internalType":"uint256","name":"quantity","type":"uint256"}],"name":"publicMint","outputs":[],"stateMutability":"payable","type":"function"},{"inputs":[],"name":"publicMintEnabled","outputs":[{"internalType":"bool","name":"","type":"bool"}],"stateMutability":"view","type":"function"},{"inputs":[],"name":"renounceOwnership","outputs":[],"stateMutability":"nonpayable","type":"function"},{"inputs":[{"internalType":"address","name":"from","type":"address"},{"internalType":"address","name":"to","type":"address"},{"internalType":"uint256","name":"tokenId","type":"uint256"}],"name":"safeTransferFrom","outputs":[],"stateMutability":"payable","type":"function"},{"inputs":[{"internalType":"address","name":"from","type":"address"},{"internalType":"address","name":"to","type":"address"},{"internalType":"uint256","name":"tokenId","type":"uint256"},{"internalType":"bytes","name":"_data","type":"bytes"}],"name":"safeTransferFrom","outputs":[],"stateMutability":"payable","type":"function"},{"inputs":[{"internalType":"address","name":"operator","type":"address"},{"internalType":"bool","name":"approved","type":"bool"}],"name":"setApprovalForAll","outputs":[],"stateMutability":"nonpayable","type":"function"},{"inputs":[{"internalType":"uint256","name":"_maxSupply","type":"uint256"}],"name":"setMaxSupply","outputs":[],"stateMutability":"nonpayable","type":"function"},{"inputs":[{"internalType":"uint256","name":"_maxPerTx","type":"uint256"},{"internalType":"uint256","name":"_maxPerWallet","type":"uint256"}],"name":"setMintLimits","outputs":[],"stateMutability":"nonpayable","type":"function"},{"inputs":[{"internalType":"uint256","name":"_price","type":"uint256"}],"name":"setMintPrice","outputs":[],"stateMutability":"nonpayable","type":"function"},{"inputs":[{"internalType":"address","name":"user","type":"address"},{"internalType":"bool","name":"status","type":"bool"}],"name":"setWhitelistStatus","outputs":[],"stateMutability":"nonpayable","type":"function"},{"inputs":[{"internalType":"bytes4","name":"interfaceId","type":"bytes4"}],"name":"supportsInterface","outputs":[{"internalType":"bool","name":"","type":"bool"}],"stateMutability":"view","type":"function"},{"inputs":[],"name":"symbol","outputs":[{"internalType":"string","name":"","type":"string"}],"stateMutability":"view","type":"function"},{"inputs":[{"internalType":"bool","name":"enabled","type":"bool"}],"name":"togglePublicMint","outputs":[],"stateMutability":"nonpayable","type":"function"},{"inputs":[{"internalType":"bool","name":"enabled","type":"bool"}],"name":"toggleWhitelistMint","outputs":[],"stateMutability":"nonpayable","type":"function"},{"inputs":[{"internalType":"uint256","name":"tokenId","type":"uint256"}],"name":"tokenURI","outputs":[{"internalType":"string","name":"","type":"string"}],"stateMutability":"view","type":"function"},{"inputs":[],"name":"totalSupply","outputs":[{"internalType":"uint256","name":"result","type":"uint256"}],"stateMutability":"view","type":"function"},{"inputs":[{"internalType":"address","name":"from","type":"address"},{"internalType":"address","name":"to","type":"address"},{"internalType":"uint256","name":"tokenId","type":"uint256"}],"name":"transferFrom","outputs":[],"stateMutability":"payable","type":"function"},{"inputs":[{"internalType":"address","name":"newOwner","type":"address"}],"name":"transferOwnership","outputs":[],"stateMutability":"nonpayable","type":"function"},{"inputs":[{"internalType":"uint256","name":"quantity","type":"uint256"}],"name":"whitelistMint","outputs":[],"stateMutability":"payable","type":"function"},{"inputs":[],"name":"whitelistMintEnabled","outputs":[{"internalType":"bool","name":"","type":"bool"}],"stateMutability":"view","type":"function"},{"inputs":[{"internalType":"address","name":"","type":"address"}],"name":"whitelisted","outputs":[{"internalType":"bool","name":"","type":"bool"}],"stateMutability":"view","type":"function"},{"inputs":[],"name":"withdraw","outputs":[],"stateMutability":"nonpayable","type":"function"}],"evm":{"bytecode":{"linkReferences":{},"object":"6080604052620f4240600b556005600c55600a600d553480156200002257600080fd5b5060405162001d1c38038062001d1c83398101604081905262000045916200019c565b82826002620000558382620002a0565b506003620000648282620002a0565b50506000805550620000763362000082565b600a55506200036c9050565b600980546001600160a01b038381166001600160a01b0319831681179093556040519116919082907f8be0079c531659141344cd1fd0a4f28419497f9722a3daafe3b4186f6b6457e090600090a35050565b634e487b7160e01b600052604160045260246000fd5b600082601f830112620000fc57600080fd5b81516001600160401b0380821115620001195762000119620000d4565b604051601f8301601f19908116603f01168101908282118183101715620001445762000144620000d4565b81604052838152602092508660208588010111156200016257600080fd5b600091505b8382101562000186578582018301518183018401529082019062000167565b6000602085830101528094505050505092915050565b600080600060608486031215620001b257600080fd5b83516001600160401b0380821115620001ca57600080fd5b620001d887838801620000ea565b94506020860151915080821115620001ef57600080fd5b50620001fe86828701620000ea565b925050604084015190509250925092565b600181811c908216806200022457607f821691505b6020821081036200024557634e487b7160e01b600052602260045260246000fd5b50919050565b601f8211156200029b576000816000526020600020601f850160051c81016020861015620002765750805b601f850160051c820191505b81811015620002975782815560010162000282565b5050505b505050565b81516001600160401b03811115620002bc57620002bc620000d4565b620002d481620002cd84546200020f565b846200024b565b602080601f8311600181146200030c5760008415620002f35750858301515b600019600386901b1c1916600185901b17855562000297565b600085815260208120601f198616915b828110156200033d578886015182559484019460019091019084016200031c565b50858210156200035c5787850151600019600388901b60f8161c191681555b5050505050600190811b01905550565b6119a0806200037c6000396000f3fe60806040526004361061020f5760003560e01c80636f8b44b011610118578063b88d4fde116100a0578063d936547e1161006f578063d936547e1461059f578063e985e9c5146105cf578063f2fde38b146105ef578063f4a0a5281461060f578063f968adbe1461062f57600080fd5b8063b88d4fde14610536578063c87b56dd14610549578063d2f902cf14610569578063d5abeb011461058957600080fd5b8063868ff4a2116100e7578063868ff4a2146104b05780638da5cb5b146104c357806395d89b41146104e15780639b7c1c83146104f6578063a22cb4651461051657600080fd5b80636f8b44b01461043b57806370a082311461045b578063715018a61461047b5780637a91bd341461049057600080fd5b80633a602b4d1161019b578063453c23101161016a578063453c2310146103b0578063484b973c146103c65780636352211e146103e65780636817c76c146104065780636caede3d1461041c57600080fd5b80633a602b4d1461033b5780633ccfd60b1461036857806342842e0e1461037d57806342966c681461039057600080fd5b80630c424284116101e25780630c424284146102b85780630f4161aa146102d857806318160ddd146102f257806323b872dd146103155780632db115441461032857600080fd5b806301ffc9a71461021457806306fdde0314610249578063081812fc1461026b578063095ea7b3146102a3575b600080fd5b34801561022057600080fd5b5061023461022f366004611583565b610645565b60405190151581526020015b60405180910390f35b34801561025557600080fd5b5061025e610697565b60405161024091906115f0565b34801561027757600080fd5b5061028b610286366004611603565b610729565b6040516001600160a01b039091168152602001610240565b6102b66102b1366004611633565b610764565b005b3480156102c457600080fd5b506102b66102d336600461166d565b610774565b3480156102e457600080fd5b50600e546102349060ff1681565b3480156102fe57600080fd5b50600154600054035b604051908152602001610240565b6102b66103233660046116a0565b6107a7565b6102b6610336366004611603565b610916565b34801561034757600080fd5b506103076103563660046116dc565b60106020526000908152604090205481565b34801561037457600080fd5b506102b6610b01565b6102b661038b3660046116a0565b610b42565b34801561039c57600080fd5b506102b66103ab366004611603565b610b62565b3480156103bc57600080fd5b50610307600d5481565b3480156103d257600080fd5b506102b66103e1366004611633565b610bbb565b3480156103f257600080fd5b5061028b610401366004611603565b610c2b565b34801561041257600080fd5b50610307600a5481565b34801561042857600080fd5b50600e5461023490610100900460ff1681565b34801561044757600080fd5b506102b6610456366004611603565b610c36565b34801561046757600080fd5b506103076104763660046116dc565b610c43565b34801561048757600080fd5b506102b6610c89565b34801561049c57600080fd5b506102b66104ab3660046116f7565b610c9d565b6102b66104be366004611603565b610cb0565b3480156104cf57600080fd5b506009546001600160a01b031661028b565b3480156104ed57600080fd5b5061025e610d58565b34801561050257600080fd5b506102b6610511366004611719565b610d67565b34801561052257600080fd5b506102b661053136600461166d565b610d82565b6102b661054436600461174a565b610dee565b34801561055557600080fd5b5061025e610564366004611603565b610e2f565b34801561057557600080fd5b506102b6610584366004611719565b610eb7565b34801561059557600080fd5b50610307600b5481565b3480156105ab57600080fd5b506102346105ba3660046116dc565b600f6020526000908152604090205460ff1681565b3480156105db57600080fd5b506102346105ea366004611826565b610ed9565b3480156105fb57600080fd5b506102b661060a3660046116dc565b610f07565b34801561061b57600080fd5b506102b661062a366004611603565b610f7d565b34801561063b57600080fd5b50610307600c5481565b60006301ffc9a760e01b6001600160e01b03198316148061067657506380ac58cd60e01b6001600160e01b03198316145b806106915750635b5e139f60e01b6001600160e01b03198316145b92915050565b6060600280546106a690611850565b80601f01602080910402602001604051908101604052809291908181526020018280546106d290611850565b801561071f5780601f106106f45761010080835404028352916020019161071f565b820191906000526020600020905b81548152906001019060200180831161070257829003601f168201915b5050505050905090565b600061073482610f8a565b610748576107486333d1c03960e21b610fcf565b506000908152600660205260409020546001600160a01b031690565b61077082826001610fd9565b5050565b61077c61107c565b6001600160a01b03919091166000908152600f60205260409020805460ff1916911515919091179055565b60006107b2826110d6565b6001600160a01b0394851694909150811684146107d8576107d862a1148160e81b610fcf565b600082815260066020526040902080546108048187335b6001600160a01b039081169116811491141790565b610826576108128633610ed9565b61082657610826632ce44b5f60e11b610fcf565b801561083157600082555b6001600160a01b038681166000908152600560205260408082208054600019019055918716808252919020805460010190554260a01b17600160e11b17600085815260046020526040812091909155600160e11b841690036108c3576001840160008181526004602052604081205490036108c15760005481146108c15760008181526004602052604090208490555b505b6001600160a01b0385168481887fddf252ad1be2c89b69c2b068fc378daa952ba7f163c4a11628f55a4df523b3ef600080a48060000361090d5761090d633a954ecd60e21b610fcf565b50505050505050565b600e5460ff1661096d5760405162461bcd60e51b815260206004820152601760248201527f5075626c6963206d696e74206e6f7420656e61626c656400000000000000000060448201526064015b60405180910390fd5b60008111801561097f5750600c548111155b6109be5760405162461bcd60e51b815260206004820152601060248201526f496e76616c6964207175616e7469747960801b6044820152606401610964565b600b54816109cf6001546000540390565b6109d991906118a0565b1115610a1c5760405162461bcd60e51b815260206004820152601260248201527113585e081cdd5c1c1b1e481c995858da195960721b6044820152606401610964565b600d5433600090815260106020526040902054610a3a9083906118a0565b1115610a7f5760405162461bcd60e51b815260206004820152601460248201527315d85b1b195d081b1a5b5a5d081c995858da195960621b6044820152606401610964565b80600a54610a8d91906118b3565b341015610acf5760405162461bcd60e51b815260206004820152601060248201526f092dce6eaccccd2c6d2cadce8408aa8960831b6044820152606401610964565b3360009081526010602052604081208054839290610aee9084906118a0565b90915550610afe9050338261116c565b50565b610b0961107c565b6009546040516001600160a01b03909116904780156108fc02916000818181858888f19350505050158015610afe573d6000803e3d6000fd5b610b5d83838360405180602001604052806000815250610dee565b505050565b33610b6c82610c2b565b6001600160a01b031614610bb25760405162461bcd60e51b815260206004820152600d60248201526c2737ba103a34329037bbb732b960991b6044820152606401610964565b610afe81611186565b610bc361107c565b600b5481610bd46001546000540390565b610bde91906118a0565b1115610c215760405162461bcd60e51b815260206004820152601260248201527113585e081cdd5c1c1b1e481c995858da195960721b6044820152606401610964565b610770828261116c565b6000610691826110d6565b610c3e61107c565b600b55565b60006001600160a01b038216610c6357610c636323d3ad8160e21b610fcf565b506001600160a01b031660009081526005602052604090205467ffffffffffffffff1690565b610c9161107c565b610c9b6000611191565b565b610ca561107c565b600c91909155600d55565b600e54610100900460ff16610d075760405162461bcd60e51b815260206004820152601a60248201527f57686974656c697374206d696e74206e6f7420656e61626c65640000000000006044820152606401610964565b336000908152600f602052604090205460ff1661096d5760405162461bcd60e51b815260206004820152600f60248201526e139bdd081dda1a5d195b1a5cdd1959608a1b6044820152606401610964565b6060600380546106a690611850565b610d6f61107c565b600e805460ff1916911515919091179055565b3360008181526007602090815260408083206001600160a01b03871680855290835292819020805460ff191686151590811790915590519081529192917f17307eab39ab6107e8899845ad3d59bd9653f200f220920489ca2b5937696c31910160405180910390a35050565b610df98484846107a7565b6001600160a01b0383163b15610e2957610e15848484846111e3565b610e2957610e296368d2bf6b60e11b610fcf565b50505050565b6060610e3a82610f8a565b610e4e57610e4e630a14c4b560e41b610fcf565b6000610e6560408051602081019091526000815290565b90508051600003610e855760405180602001604052806000815250610eb0565b80610e8f846112c5565b604051602001610ea09291906118ca565b6040516020818303038152906040525b9392505050565b610ebf61107c565b600e80549115156101000261ff0019909216919091179055565b6001600160a01b03918216600090815260076020908152604080832093909416825291909152205460ff1690565b610f0f61107c565b6001600160a01b038116610f745760405162461bcd60e51b815260206004820152602660248201527f4f776e61626c653a206e6577206f776e657220697320746865207a65726f206160448201526564647265737360d01b6064820152608401610964565b610afe81611191565b610f8561107c565b600a55565b60008054821015610fca5760005b5060008281526004602052604081205490819003610fc057610fb9836118f9565b9250610f98565b600160e01b161590505b919050565b8060005260046000fd5b6000610fe483610c2b565b9050818015610ffc5750336001600160a01b03821614155b1561101f5761100b8133610ed9565b61101f5761101f6367d9dca160e11b610fcf565b60008381526006602052604080822080546001600160a01b0319166001600160a01b0388811691821790925591518693918516917f8c5be1e5ebec7d5bd14f71427d1e84f3dd0314c0f7b2291e5b200ac8c7c3b92591a450505050565b6009546001600160a01b03163314610c9b5760405162461bcd60e51b815260206004820181905260248201527f4f776e61626c653a2063616c6c6572206973206e6f7420746865206f776e65726044820152606401610964565b6000818152600460205260409020548060000361114957600054821061110657611106636f96cda160e11b610fcf565b5b5060001901600081815260046020526040902054801561110757600160e01b811660000361113457919050565b611144636f96cda160e11b610fcf565b611107565b600160e01b811660000361115c57919050565b610fca636f96cda160e11b610fcf565b610770828260405180602001604052806000815250611309565b610afe81600061136d565b600980546001600160a01b038381166001600160a01b0319831681179093556040519116919082907f8be0079c531659141344cd1fd0a4f28419497f9722a3daafe3b4186f6b6457e090600090a35050565b604051630a85bd0160e11b81526000906001600160a01b0385169063150b7a0290611218903390899088908890600401611910565b6020604051808303816000875af1925050508015611253575060408051601f3d908101601f191682019092526112509181019061194d565b60015b6112a8573d808015611281576040519150601f19603f3d011682016040523d82523d6000602084013e611286565b606091505b5080516000036112a0576112a06368d2bf6b60e11b610fcf565b805181602001fd5b6001600160e01b031916630a85bd0160e11b149050949350505050565b606060a06040510180604052602081039150506000815280825b600183039250600a81066030018353600a9004806112df5750819003601f19909101908152919050565b61131383836114ae565b6001600160a01b0383163b15610b5d576000548281035b61133d60008683806001019450866111e3565b611351576113516368d2bf6b60e11b610fcf565b81811061132a57816000541461136657600080fd5b5050505050565b6000611378836110d6565b90508060008061139686600090815260066020526040902080549091565b9150915084156113cd576113ab8184336107ef565b6113cd576113b98333610ed9565b6113cd576113cd632ce44b5f60e11b610fcf565b80156113d857600082555b6001600160a01b038316600081815260056020526040902080546fffffffffffffffffffffffffffffffff0190554260a01b17600360e01b17600087815260046020526040812091909155600160e11b85169003611466576001860160008181526004602052604081205490036114645760005481146114645760008181526004602052604090208590555b505b60405186906000906001600160a01b038616907fddf252ad1be2c89b69c2b068fc378daa952ba7f163c4a11628f55a4df523b3ef908390a45050600180548101905550505050565b60008054908290036114ca576114ca63b562e8dd60e01b610fcf565b60008181526004602090815260408083206001600160a01b0387164260a01b6001881460e11b1781179091558084526005909252822080546801000000000000000186020190559081900361152857611528622e076360e81b610fcf565b818301825b808360007fddf252ad1be2c89b69c2b068fc378daa952ba7f163c4a11628f55a4df523b3ef600080a481816001019150810361152d575060005550505050565b6001600160e01b031981168114610afe57600080fd5b60006020828403121561159557600080fd5b8135610eb08161156d565b60005b838110156115bb5781810151838201526020016115a3565b50506000910152565b600081518084526115dc8160208601602086016115a0565b601f01601f19169290920160200192915050565b602081526000610eb060208301846115c4565b60006020828403121561161557600080fd5b5035919050565b80356001600160a01b0381168114610fca57600080fd5b6000806040838503121561164657600080fd5b61164f8361161c565b946020939093013593505050565b80358015158114610fca57600080fd5b6000806040838503121561168057600080fd5b6116898361161c565b91506116976020840161165d565b90509250929050565b6000806000606084860312156116b557600080fd5b6116be8461161c565b92506116cc6020850161161c565b9150604084013590509250925092565b6000602082840312156116ee57600080fd5b610eb08261161c565b6000806040838503121561170a57600080fd5b50508035926020909101359150565b60006020828403121561172b57600080fd5b610eb08261165d565b634e487b7160e01b600052604160045260246000fd5b6000806000806080858703121561176057600080fd5b6117698561161c565b93506117776020860161161c565b925060408501359150606085013567ffffffffffffffff8082111561179b57600080fd5b818701915087601f8301126117af57600080fd5b8135818111156117c1576117c1611734565b604051601f8201601f19908116603f011681019083821181831017156117e9576117e9611734565b816040528281528a602084870101111561180257600080fd5b82602086016020830137600060208483010152809550505050505092959194509250565b6000806040838503121561183957600080fd5b6118428361161c565b91506116976020840161161c565b600181811c9082168061186457607f821691505b60208210810361188457634e487b7160e01b600052602260045260246000fd5b50919050565b634e487b7160e01b600052601160045260246000fd5b808201808211156106915761069161188a565b80820281158282048414176106915761069161188a565b600083516118dc8184602088016115a0565b8351908301906118f08183602088016115a0565b01949350505050565b6000816119085761190861188a565b506000190190565b6001600160a01b0385811682528416602082015260408101839052608060608201819052600090611943908301846115c4565b9695505050505050565b60006020828403121561195f57600080fd5b8151610eb08161156d56fea264697066735822122040d6f9b059331b2c7c262f0d63498cff6a22ddc4e68610f3b1af4d0d5c37e7b064736f6c63430008180033","opcodes":"PUSH1 0x80 PUSH1 0x40 MSTORE PUSH3 0xF4240 PUSH1 0xB SSTORE PUSH1 0x5 PUSH1 0xC SSTORE PUSH1 0xA PUSH1 0xD SSTORE CALLVALUE DUP1 ISZERO PUSH3 0x22 JUMPI PUSH1 0x0 DUP1 REVERT JUMPDEST POP PUSH1 0x40 MLOAD PUSH3 0x1D1C CODESIZE SUB DUP1 PUSH3 0x1D1C DUP4 CODECOPY DUP2 ADD PUSH1 0x40 DUP2 SWAP1 MSTORE PUSH3 0x45 SWAP2 PUSH3 0x19C JUMP JUMPDEST DUP3 DUP3 PUSH1 0x2 PUSH3 0x55 DUP4 DUP3 PUSH3 0x2A0 JUMP JUMPDEST POP PUSH1 0x3 PUSH3 0x64 DUP3 DUP3 PUSH3 0x2A0 JUMP JUMPDEST POP POP PUSH1 0x0 DUP1 SSTORE POP PUSH3 0x76 CALLER PUSH3 0x82 JUMP JUMPDEST PUSH1 0xA SSTORE POP PUSH3 0x36C SWAP1 POP JUMP JUMPDEST PUSH1 0x9 DUP1 SLOAD PUSH1 0x1 PUSH1 0x1 PUSH1 0xA0 SHL SUB DUP4 DUP2 AND PUSH1 0x1 PUSH1 0x1 PUSH1 0xA0 SHL SUB NOT DUP4 AND DUP2 OR SWAP1 SWAP4 SSTORE PUSH1 0x40 MLOAD SWAP2 AND SWAP2 SWAP1 DUP3 SWAP1 PUSH32 0x8BE0079C531659141344CD1FD0A4F28419497F9722A3DAAFE3B4186F6B6457E0 SWAP1 PUSH1 0x0 SWAP1 LOG3 POP POP JUMP JUMPDEST PUSH4 0x4E487B71 PUSH1 0xE0 SHL PUSH1 0x0 MSTORE PUSH1 0x41 PUSH1 0x4 MSTORE PUSH1 0x24 PUSH1 0x0 REVERT JUMPDEST PUSH1 0x0 DUP3 PUSH1 0x1F DUP4 ADD SLT PUSH3 0xFC JUMPI PUSH1 0x0 DUP1 REVERT JUMPDEST DUP2 MLOAD PUSH1 0x1 PUSH1 0x1 PUSH1 0x40 SHL SUB DUP1 DUP3 GT ISZERO PUSH3 0x119 JUMPI PUSH3 0x119 PUSH3 0xD4 JUMP JUMPDEST PUSH1 0x40 MLOAD PUSH1 0x1F DUP4 ADD PUSH1 0x1F NOT SWAP1 DUP2 AND PUSH1 0x3F ADD AND DUP2 ADD SWAP1 DUP3 DUP3 GT DUP2 DUP4 LT OR ISZERO PUSH3 0x144 JUMPI PUSH3 0x144 PUSH3 0xD4 JUMP JUMPDEST DUP2 PUSH1 0x40 MSTORE DUP4 DUP2 MSTORE PUSH1 0x20 SWAP3 POP DUP7 PUSH1 0x20 DUP6 DUP9 ADD ADD GT ISZERO PUSH3 0x162 JUMPI PUSH1 0x0 DUP1 REVERT JUMPDEST PUSH1 0x0 SWAP2 POP JUMPDEST DUP4 DUP3 LT ISZERO PUSH3 0x186 JUMPI DUP6 DUP3 ADD DUP4 ADD MLOAD DUP2 DUP4 ADD DUP5 ADD MSTORE SWAP1 DUP3 ADD SWAP1 PUSH3 0x167 JUMP JUMPDEST PUSH1 0x0 PUSH1 0x20 DUP6 DUP4 ADD ADD MSTORE DUP1 SWAP5 POP POP POP POP POP SWAP3 SWAP2 POP POP JUMP JUMPDEST PUSH1 0x0 DUP1 PUSH1 0x0 PUSH1 0x60 DUP5 DUP7 SUB SLT ISZERO PUSH3 0x1B2 JUMPI PUSH1 0x0 DUP1 REVERT JUMPDEST DUP4 MLOAD PUSH1 0x1 PUSH1 0x1 PUSH1 0x40 SHL SUB DUP1 DUP3 GT ISZERO PUSH3 0x1CA JUMPI PUSH1 0x0 DUP1 REVERT JUMPDEST PUSH3 0x1D8 DUP8 DUP4 DUP9 ADD PUSH3 0xEA JUMP JUMPDEST SWAP5 POP PUSH1 0x20 DUP7 ADD MLOAD SWAP2 POP DUP1 DUP3 GT ISZERO PUSH3 0x1EF JUMPI PUSH1 0x0 DUP1 REVERT JUMPDEST POP PUSH3 0x1FE DUP7 DUP3 DUP8 ADD PUSH3 0xEA JUMP JUMPDEST SWAP3 POP POP PUSH1 0x40 DUP5 ADD MLOAD SWAP1 POP SWAP3 POP SWAP3 POP SWAP3 JUMP JUMPDEST PUSH1 0x1 DUP2 DUP2 SHR SWAP1 DUP3 AND DUP1 PUSH3 0x224 JUMPI PUSH1 0x7F DUP3 AND SWAP2 POP JUMPDEST PUSH1 0x20 DUP3 LT DUP2 SUB PUSH3 0x245 JUMPI PUSH4 0x4E487B71 PUSH1 0xE0 SHL PUSH1 0x0 MSTORE PUSH1 0x22 PUSH1 0x4 MSTORE PUSH1 0x24 PUSH1 0x0 REVERT JUMPDEST POP SWAP2 SWAP1 POP JUMP JUMPDEST PUSH1 0x1F DUP3 GT ISZERO PUSH3 0x29B JUMPI PUSH1 0x0 DUP2 PUSH1 0x0 MSTORE PUSH1 0x20 PUSH1 0x0 KECCAK256 PUSH1 0x1F DUP6 ADD PUSH1 0x5 SHR DUP2 ADD PUSH1 0x20 DUP7 LT ISZERO PUSH3 0x276 JUMPI POP DUP1 JUMPDEST PUSH1 0x1F DUP6 ADD PUSH1 0x5 SHR DUP3 ADD SWAP2 POP JUMPDEST DUP2 DUP2 LT ISZERO PUSH3 0x297 JUMPI DUP3 DUP2 SSTORE PUSH1 0x1 ADD PUSH3 0x282 JUMP JUMPDEST POP POP POP JUMPDEST POP POP POP JUMP JUMPDEST DUP2 MLOAD PUSH1 0x1 PUSH1 0x1 PUSH1 0x40 SHL SUB DUP2 GT ISZERO PUSH3 0x2BC JUMPI PUSH3 0x2BC PUSH3 0xD4 JUMP JUMPDEST PUSH3 0x2D4 DUP2 PUSH3 0x2CD DUP5 SLOAD PUSH3 0x20F JUMP JUMPDEST DUP5 PUSH3 0x24B JUMP JUMPDEST PUSH1 0x20 DUP1 PUSH1 0x1F DUP4 GT PUSH1 0x1 DUP2 EQ PUSH3 0x30C JUMPI PUSH1 0x0 DUP5 ISZERO PUSH3 0x2F3 JUMPI POP DUP6 DUP4 ADD MLOAD JUMPDEST PUSH1 0x0 NOT PUSH1 0x3 DUP7 SWAP1 SHL SHR NOT AND PUSH1 0x1 DUP6 SWAP1 SHL OR DUP6 SSTORE PUSH3 0x297 JUMP JUMPDEST PUSH1 0x0 DUP6 DUP2 MSTORE PUSH1 0x20 DUP2 KECCAK256 PUSH1 0x1F NOT DUP7 AND SWAP2 JUMPDEST DUP3 DUP2 LT ISZERO PUSH3 0x33D JUMPI DUP9 DUP7 ADD MLOAD DUP3 SSTORE SWAP5 DUP5 ADD SWAP5 PUSH1 0x1 SWAP1 SWAP2 ADD SWAP1 DUP5 ADD PUSH3 0x31C JUMP JUMPDEST POP DUP6 DUP3 LT ISZERO PUSH3 0x35C JUMPI DUP8 DUP6 ADD MLOAD PUSH1 0x0 NOT PUSH1 0x3 DUP9 SWAP1 SHL PUSH1 0xF8 AND SHR NOT AND DUP2 SSTORE JUMPDEST POP POP POP POP POP PUSH1 0x1 SWAP1 DUP2 SHL ADD SWAP1 SSTORE POP JUMP JUMPDEST PUSH2 0x19A0 DUP1 PUSH3 0x37C PUSH1 0x0 CODECOPY PUSH1 0x0 RETURN INVALID PUSH1 0x80 PUSH1 0x40 MSTORE PUSH1 0x4 CALLDATASIZE LT PUSH2 0x20F JUMPI PUSH1 0x0 CALLDATALOAD PUSH1 0xE0 SHR DUP1 PUSH4 0x6F8B44B0 GT PUSH2 0x118 JUMPI DUP1 PUSH4 0xB88D4FDE GT PUSH2 0xA0 JUMPI DUP1 PUSH4 0xD936547E GT PUSH2 0x6F JUMPI DUP1 PUSH4 0xD936547E EQ PUSH2 0x59F JUMPI DUP1 PUSH4 0xE985E9C5 EQ PUSH2 0x5CF JUMPI DUP1 PUSH4 0xF2FDE38B EQ PUSH2 0x5EF JUMPI DUP1 PUSH4 0xF4A0A528 EQ PUSH2 0x60F JUMPI DUP1 PUSH4 0xF968ADBE EQ PUSH2 0x62F JUMPI PUSH1 0x0 DUP1 REVERT JUMPDEST DUP1 PUSH4 0xB88D4FDE EQ PUSH2 0x536 JUMPI DUP1 PUSH4 0xC87B56DD EQ PUSH2 0x549 JUMPI DUP1 PUSH4 0xD2F902CF EQ PUSH2 0x569 JUMPI DUP1 PUSH4 0xD5ABEB01 EQ PUSH2 0x589 JUMPI PUSH1 0x0 DUP1 REVERT JUMPDEST DUP1 PUSH4 0x868FF4A2 GT PUSH2 0xE7 JUMPI DUP1 PUSH4 0x868FF4A2 EQ PUSH2 0x4B0 JUMPI DUP1 PUSH4 0x8DA5CB5B EQ PUSH2 0x4C3 JUMPI DUP1 PUSH4 0x95D89B41 EQ PUSH2 0x4E1 JUMPI DUP1 PUSH4 0x9B7C1C83 EQ PUSH2 0x4F6 JUMPI DUP1 PUSH4 0xA22CB465 EQ PUSH2 0x516 JUMPI PUSH1 0x0 DUP1 REVERT JUMPDEST DUP1 PUSH4 0x6F8B44B0 EQ PUSH2 0x43B JUMPI DUP1 PUSH4 0x70A08231 EQ PUSH2 0x45B JUMPI DUP1 PUSH4 0x715018A6 EQ PUSH2 0x47B JUMPI DUP1 PUSH4 0x7A91BD34 EQ PUSH2 0x490 JUMPI PUSH1 0x0 DUP1 REVERT JUMPDEST DUP1 PUSH4 0x3A602B4D GT PUSH2 0x19B JUMPI DUP1 PUSH4 0x453C2310 GT PUSH2 0x16A JUMPI DUP1 PUSH4 0x453C2310 EQ PUSH2 0x3B0 JUMPI DUP1 PUSH4 0x484B973C EQ PUSH2 0x3C6 JUMPI DUP1 PUSH4 0x6352211E EQ PUSH2 0x3E6 JUMPI DUP1 PUSH4 0x6817C76C EQ PUSH2 0x406 JUMPI DUP1 PUSH4 0x6CAEDE3D EQ PUSH2 0x41C JUMPI PUSH1 0x0 DUP1 REVERT JUMPDEST DUP1 PUSH4 0x3A602B4D EQ PUSH2 0x33B JUMPI DUP1 PUSH4 0x3CCFD60B EQ PUSH2 0x368 JUMPI DUP1 PUSH4 0x42842E0E EQ PUSH2 0x37D JUMPI DUP1 PUSH4 0x42966C68 EQ PUSH2 0x390 JUMPI PUSH1 0x0 DUP1 REVERT JUMPDEST DUP1 PUSH4 0xC424284 GT PUSH2 0x1E2 JUMPI DUP1 PUSH4 0xC424284 EQ PUSH2 0x2B8 JUMPI DUP1 PUSH4 0xF4161AA EQ PUSH2 0x2D8 JUMPI DUP1 PUSH4 0x18160DDD EQ PUSH2 0x2F2 JUMPI DUP1 PUSH4 0x23B872DD EQ PUSH2 0x315 JUMPI DUP1 PUSH4 0x2DB11544 EQ PUSH2 0x328 JUMPI PUSH1 0x0 DUP1 REVERT JUMPDEST DUP1 PUSH4 0x1FFC9A7 EQ PUSH2 0x214 JUMPI DUP1 PUSH4 0x6FDDE03 EQ PUSH2 0x249 JUMPI DUP1 PUSH4 0x81812FC EQ PUSH2 0x26B JUMPI DUP1 PUSH4 0x95EA7B3 EQ PUSH2 0x2A3 JUMPI JUMPDEST PUSH1 0x0 DUP1 REVERT JUMPDEST CALLVALUE DUP1 ISZERO PUSH2 0x220 JUMPI PUSH1 0x0 DUP1 REVERT JUMPDEST POP PUSH2 0x234 PUSH2 0x22F CALLDATASIZE PUSH1 0x4 PUSH2 0x1583 JUMP JUMPDEST PUSH2 0x645 JUMP JUMPDEST PUSH1 0x40 MLOAD SWAP1 ISZERO ISZERO DUP2 MSTORE PUSH1 0x20 ADD JUMPDEST PUSH1 0x40 MLOAD DUP1 SWAP2 SUB SWAP1 RETURN JUMPDEST CALLVALUE DUP1 ISZERO PUSH2 0x255 JUMPI PUSH1 0x0 DUP1 REVERT JUMPDEST POP PUSH2 0x25E PUSH2 0x697 JUMP JUMPDEST PUSH1 0x40 MLOAD PUSH2 0x240 SWAP2 SWAP1 PUSH2 0x15F0 JUMP JUMPDEST CALLVALUE DUP1 ISZERO PUSH2 0x277 JUMPI PUSH1 0x0 DUP1 REVERT JUMPDEST POP PUSH2 0x28B PUSH2 0x286 CALLDATASIZE PUSH1 0x4 PUSH2 0x1603 JUMP JUMPDEST PUSH2 0x729 JUMP JUMPDEST PUSH1 0x40 MLOAD PUSH1 0x1 PUSH1 0x1 PUSH1 0xA0 SHL SUB SWAP1 SWAP2 AND DUP2 MSTORE PUSH1 0x20 ADD PUSH2 0x240 JUMP JUMPDEST PUSH2 0x2B6 PUSH2 0x2B1 CALLDATASIZE PUSH1 0x4 PUSH2 0x1633 JUMP JUMPDEST PUSH2 0x764 JUMP JUMPDEST STOP JUMPDEST CALLVALUE DUP1 ISZERO PUSH2 0x2C4 JUMPI PUSH1 0x0 DUP1 REVERT JUMPDEST POP PUSH2 0x2B6 PUSH2 0x2D3 CALLDATASIZE PUSH1 0x4 PUSH2 0x166D JUMP JUMPDEST PUSH2 0x774 JUMP JUMPDEST CALLVALUE DUP1 ISZERO PUSH2 0x2E4 JUMPI PUSH1 0x0 DUP1 REVERT JUMPDEST POP PUSH1 0xE SLOAD PUSH2 0x234 SWAP1 PUSH1 0xFF AND DUP2 JUMP JUMPDEST CALLVALUE DUP1 ISZERO PUSH2 0x2FE JUMPI PUSH1 0x0 DUP1 REVERT JUMPDEST POP PUSH1 0x1 SLOAD PUSH1 0x0 SLOAD SUB JUMPDEST PUSH1 0x40 MLOAD SWAP1 DUP2 MSTORE PUSH1 0x20 ADD PUSH2 0x240 JUMP JUMPDEST PUSH2 0x2B6 PUSH2 0x323 CALLDATASIZE PUSH1 0x4 PUSH2 0x16A0 JUMP JUMPDEST PUSH2 0x7A7 JUMP JUMPDEST PUSH2 0x2B6 PUSH2 0x336 CALLDATASIZE PUSH1 0x4 PUSH2 0x1603 JUMP JUMPDEST PUSH2 0x916 JUMP JUMPDEST CALLVALUE DUP1 ISZERO PUSH2 0x347 JUMPI PUSH1 0x0 DUP1 REVERT JUMPDEST POP PUSH2 0x307 PUSH2 0x356 CALLDATASIZE PUSH1 0x4 PUSH2 0x16DC JUMP JUMPDEST PUSH1 0x10 PUSH1 0x20 MSTORE PUSH1 0x0 SWAP1 DUP2 MSTORE PUSH1 0x40 SWAP1 KECCAK256 SLOAD DUP2 JUMP JUMPDEST CALLVALUE DUP1 ISZERO PUSH2 0x374 JUMPI PUSH1 0x0 DUP1 REVERT JUMPDEST POP PUSH2 0x2B6 PUSH2 0xB01 JUMP JUMPDEST PUSH2 0x2B6 PUSH2 0x38B CALLDATASIZE PUSH1 0x4 PUSH2 0x16A0 JUMP JUMPDEST PUSH2 0xB42 JUMP JUMPDEST CALLVALUE DUP1 ISZERO PUSH2 0x39C JUMPI PUSH1 0x0 DUP1 REVERT JUMPDEST POP PUSH2 0x2B6 PUSH2 0x3AB CALLDATASIZE PUSH1 0x4 PUSH2 0x1603 JUMP JUMPDEST PUSH2 0xB62 JUMP JUMPDEST CALLVALUE DUP1 ISZERO PUSH2 0x3BC JUMPI PUSH1 0x0 DUP1 REVERT JUMPDEST POP PUSH2 0x307 PUSH1 0xD SLOAD DUP2 JUMP JUMPDEST CALLVALUE DUP1 ISZERO PUSH2 0x3D2 JUMPI PUSH1 0x0 DUP1 REVERT JUMPDEST POP PUSH2 0x2B6 PUSH2 0x3E1 CALLDATASIZE PUSH1 0x4 PUSH2 0x1633 JUMP JUMPDEST PUSH2 0xBBB JUMP JUMPDEST CALLVALUE DUP1 ISZERO PUSH2 0x3F2 JUMPI PUSH1 0x0 DUP1 REVERT JUMPDEST POP PUSH2 0x28B PUSH2 0x401 CALLDATASIZE PUSH1 0x4 PUSH2 0x1603 JUMP JUMPDEST PUSH2 0xC2B JUMP JUMPDEST CALLVALUE DUP1 ISZERO PUSH2 0x412 JUMPI PUSH1 0x0 DUP1 REVERT JUMPDEST POP PUSH2 0x307 PUSH1 0xA SLOAD DUP2 JUMP JUMPDEST CALLVALUE DUP1 ISZERO PUSH2 0x428 JUMPI PUSH1 0x0 DUP1 REVERT JUMPDEST POP PUSH1 0xE SLOAD PUSH2 0x234 SWAP1 PUSH2 0x100 SWAP1 DIV PUSH1 0xFF AND DUP2 JUMP JUMPDEST CALLVALUE DUP1 ISZERO PUSH2 0x447 JUMPI PUSH1 0x0 DUP1 REVERT JUMPDEST POP PUSH2 0x2B6 PUSH2 0x456 CALLDATASIZE PUSH1 0x4 PUSH2 0x1603 JUMP JUMPDEST PUSH2 0xC36 JUMP JUMPDEST CALLVALUE DUP1 ISZERO PUSH2 0x467 JUMPI PUSH1 0x0 DUP1 REVERT JUMPDEST POP PUSH2 0x307 PUSH2 0x476 CALLDATASIZE PUSH1 0x4 PUSH2 0x16DC JUMP JUMPDEST PUSH2 0xC43 JUMP JUMPDEST CALLVALUE DUP1 ISZERO PUSH2 0x487 JUMPI PUSH1 0x0 DUP1 REVERT JUMPDEST POP PUSH2 0x2B6 PUSH2 0xC89 JUMP JUMPDEST CALLVALUE DUP1 ISZERO PUSH2 0x49C JUMPI PUSH1 0x0 DUP1 REVERT JUMPDEST POP PUSH2 0x2B6 PUSH2 0x4AB CALLDATASIZE PUSH1 0x4 PUSH2 0x16F7 JUMP JUMPDEST PUSH2 0xC9D JUMP JUMPDEST PUSH2 0x2B6 PUSH2 0x4BE CALLDATASIZE PUSH1 0x4 PUSH2 0x1603 JUMP JUMPDEST PUSH2 0xCB0 JUMP JUMPDEST CALLVALUE DUP1 ISZERO PUSH2 0x4CF JUMPI PUSH1 0x0 DUP1 REVERT JUMPDEST POP PUSH1 0x9 SLOAD PUSH1 0x1 PUSH1 0x1 PUSH1 0xA0 SHL SUB AND PUSH2 0x28B JUMP JUMPDEST CALLVALUE DUP1 ISZERO PUSH2 0x4ED JUMPI PUSH1 0x0 DUP1 REVERT JUMPDEST POP PUSH2 0x25E PUSH2 0xD58 JUMP JUMPDEST CALLVALUE DUP1 ISZERO PUSH2 0x502 JUMPI PUSH1 0x0 DUP1 REVERT JUMPDEST POP PUSH2 0x2B6 PUSH2 0x511 CALLDATASIZE PUSH1 0x4 PUSH2 0x1719 JUMP JUMPDEST PUSH2 0xD67 JUMP JUMPDEST CALLVALUE DUP1 ISZERO PUSH2 0x522 JUMPI PUSH1 0x0 DUP1 REVERT JUMPDEST POP PUSH2 0x2B6 PUSH2 0x531 CALLDATASIZE PUSH1 0x4 PUSH2 0x166D JUMP JUMPDEST PUSH2 0xD82 JUMP JUMPDEST PUSH2 0x2B6 PUSH2 0x544 CALLDATASIZE PUSH1 0x4 PUSH2 0x174A JUMP JUMPDEST PUSH2 0xDEE JUMP JUMPDEST CALLVALUE DUP1 ISZERO PUSH2 0x555 JUMPI PUSH1 0x0 DUP1 REVERT JUMPDEST POP PUSH2 0x25E PUSH2 0x564 CALLDATASIZE PUSH1 0x4 PUSH2 0x1603 JUMP JUMPDEST PUSH2 0xE2F JUMP JUMPDEST CALLVALUE DUP1 ISZERO PUSH2 0x575 JUMPI PUSH1 0x0 DUP1 REVERT JUMPDEST POP PUSH2 0x2B6 PUSH2 0x584 CALLDATASIZE PUSH1 0x4 PUSH2 0x1719 JUMP JUMPDEST PUSH2 0xEB7 JUMP JUMPDEST CALLVALUE DUP1 ISZERO PUSH2 0x595 JUMPI PUSH1 0x0 DUP1 REVERT JUMPDEST POP PUSH2 0x307 PUSH1 0xB SLOAD DUP2 JUMP JUMPDEST CALLVALUE DUP1 ISZERO PUSH2 0x5AB JUMPI PUSH1 0x0 DUP1 REVERT JUMPDEST POP PUSH2 0x234 PUSH2 0x5BA CALLDATASIZE PUSH1 0x4 PUSH2 0x16DC JUMP JUMPDEST PUSH1 0xF PUSH1 0x20 MSTORE PUSH1 0x0 SWAP1 DUP2 MSTORE PUSH1 0x40 SWAP1 KECCAK256 SLOAD PUSH1 0xFF AND DUP2 JUMP JUMPDEST CALLVALUE DUP1 ISZERO PUSH2 0x5DB JUMPI PUSH1 0x0 DUP1 REVERT JUMPDEST POP PUSH2 0x234 PUSH2 0x5EA CALLDATASIZE PUSH1 0x4 PUSH2 0x1826 JUMP JUMPDEST PUSH2 0xED9 JUMP JUMPDEST CALLVALUE DUP1 ISZERO PUSH2 0x5FB JUMPI PUSH1 0x0 DUP1 REVERT JUMPDEST POP PUSH2 0x2B6 PUSH2 0x60A CALLDATASIZE PUSH1 0x4 PUSH2 0x16DC JUMP JUMPDEST PUSH2 0xF07 JUMP JUMPDEST CALLVALUE DUP1 ISZERO PUSH2 0x61B JUMPI PUSH1 0x0 DUP1 REVERT JUMPDEST POP PUSH2 0x2B6 PUSH2 0x62A CALLDATASIZE PUSH1 0x4 PUSH2 0x1603 JUMP JUMPDEST PUSH2 0xF7D JUMP JUMPDEST CALLVALUE DUP1 ISZERO PUSH2 0x63B JUMPI PUSH1 0x0 DUP1 REVERT JUMPDEST POP PUSH2 0x307 PUSH1 0xC SLOAD DUP2 JUMP JUMPDEST PUSH1 0x0 PUSH4 0x1FFC9A7 PUSH1 0xE0 SHL PUSH1 0x1 PUSH1 0x1 PUSH1 0xE0 SHL SUB NOT DUP4 AND EQ DUP1 PUSH2 0x676 JUMPI POP PUSH4 0x80AC58CD PUSH1 0xE0 SHL PUSH1 0x1 PUSH1 0x1 PUSH1 0xE0 SHL SUB NOT DUP4 AND EQ JUMPDEST DUP1 PUSH2 0x691 JUMPI POP PUSH4 0x5B5E139F PUSH1 0xE0 SHL PUSH1 0x1 PUSH1 0x1 PUSH1 0xE0 SHL SUB NOT DUP4 AND EQ JUMPDEST SWAP3 SWAP2 POP POP JUMP JUMPDEST PUSH1 0x60 PUSH1 0x2 DUP1 SLOAD PUSH2 0x6A6 SWAP1 PUSH2 0x1850 JUMP JUMPDEST DUP1 PUSH1 0x1F ADD PUSH1 0x20 DUP1 SWAP2 DIV MUL PUSH1 0x20 ADD PUSH1 0x40 MLOAD SWAP1 DUP2 ADD PUSH1 0x40 MSTORE DUP1 SWAP3 SWAP2 SWAP1 DUP2 DUP2 MSTORE PUSH1 0x20 ADD DUP3 DUP1 SLOAD PUSH2 0x6D2 SWAP1 PUSH2 0x1850 JUMP JUMPDEST DUP1 ISZERO PUSH2 0x71F JUMPI DUP1 PUSH1 0x1F LT PUSH2 0x6F4 JUMPI PUSH2 0x100 DUP1 DUP4 SLOAD DIV MUL DUP4 MSTORE SWAP2 PUSH1 0x20 ADD SWAP2 PUSH2 0x71F JUMP JUMPDEST DUP3 ADD SWAP2 SWAP1 PUSH1 0x0 MSTORE PUSH1 0x20 PUSH1 0x0 KECCAK256 SWAP1 JUMPDEST DUP2 SLOAD DUP2 MSTORE SWAP1 PUSH1 0x1 ADD SWAP1 PUSH1 0x20 ADD DUP1 DUP4 GT PUSH2 0x702 JUMPI DUP3 SWAP1 SUB PUSH1 0x1F AND DUP3 ADD SWAP2 JUMPDEST POP POP POP POP POP SWAP1 POP SWAP1 JUMP JUMPDEST PUSH1 0x0 PUSH2 0x734 DUP3 PUSH2 0xF8A JUMP JUMPDEST PUSH2 0x748 JUMPI PUSH2 0x748 PUSH4 0x33D1C039 PUSH1 0xE2 SHL PUSH2 0xFCF JUMP JUMPDEST POP PUSH1 0x0 SWAP1 DUP2 MSTORE PUSH1 0x6 PUSH1 0x20 MSTORE PUSH1 0x40 SWAP1 KECCAK256 SLOAD PUSH1 0x1 PUSH1 0x1 PUSH1 0xA0 SHL SUB AND SWAP1 JUMP JUMPDEST PUSH2 0x770 DUP3 DUP3 PUSH1 0x1 PUSH2 0xFD9 JUMP JUMPDEST POP POP JUMP JUMPDEST PUSH2 0x77C PUSH2 0x107C JUMP JUMPDEST PUSH1 0x1 PUSH1 0x1 PUSH1 0xA0 SHL SUB SWAP2 SWAP1 SWAP2 AND PUSH1 0x0 SWAP1 DUP2 MSTORE PUSH1 0xF PUSH1 0x20 MSTORE PUSH1 0x40 SWAP1 KECCAK256 DUP1 SLOAD PUSH1 0xFF NOT AND SWAP2 ISZERO ISZERO SWAP2 SWAP1 SWAP2 OR SWAP1 SSTORE JUMP JUMPDEST PUSH1 0x0 PUSH2 0x7B2 DUP3 PUSH2 0x10D6 JUMP JUMPDEST PUSH1 0x1 PUSH1 0x1 PUSH1 0xA0 SHL SUB SWAP5 DUP6 AND SWAP5 SWAP1 SWAP2 POP DUP2 AND DUP5 EQ PUSH2 0x7D8 JUMPI PUSH2 0x7D8 PUSH3 0xA11481 PUSH1 0xE8 SHL PUSH2 0xFCF JUMP JUMPDEST PUSH1 0x0 DUP3 DUP2 MSTORE PUSH1 0x6 PUSH1 0x20 MSTORE PUSH1 0x40 SWAP1 KECCAK256 DUP1 SLOAD PUSH2 0x804 DUP2 DUP8 CALLER JUMPDEST PUSH1 0x1 PUSH1 0x1 PUSH1 0xA0 SHL SUB SWAP1 DUP2 AND SWAP2 AND DUP2 EQ SWAP2 EQ OR SWAP1 JUMP JUMPDEST PUSH2 0x826 JUMPI PUSH2 0x812 DUP7 CALLER PUSH2 0xED9 JUMP JUMPDEST PUSH2 0x826 JUMPI PUSH2 0x826 PUSH4 0x2CE44B5F PUSH1 0xE1 SHL PUSH2 0xFCF JUMP JUMPDEST DUP1 ISZERO PUSH2 0x831 JUMPI PUSH1 0x0 DUP3 SSTORE JUMPDEST PUSH1 0x1 PUSH1 0x1 PUSH1 0xA0 SHL SUB DUP7 DUP2 AND PUSH1 0x0 SWAP1 DUP2 MSTORE PUSH1 0x5 PUSH1 0x20 MSTORE PUSH1 0x40 DUP1 DUP3 KECCAK256 DUP1 SLOAD PUSH1 0x0 NOT ADD SWAP1 SSTORE SWAP2 DUP8 AND DUP1 DUP3 MSTORE SWAP2 SWAP1 KECCAK256 DUP1 SLOAD PUSH1 0x1 ADD SWAP1 SSTORE TIMESTAMP PUSH1 0xA0 SHL OR PUSH1 0x1 PUSH1 0xE1 SHL OR PUSH1 0x0 DUP6 DUP2 MSTORE PUSH1 0x4 PUSH1 0x20 MSTORE PUSH1 0x40 DUP2 KECCAK256 SWAP2 SWAP1 SWAP2 SSTORE PUSH1 0x1 PUSH1 0xE1 SHL DUP5 AND SWAP1 SUB PUSH2 0x8C3 JUMPI PUSH1 0x1 DUP5 ADD PUSH1 0x0 DUP2 DUP2 MSTORE PUSH1 0x4 PUSH1 0x20 MSTORE PUSH1 0x40 DUP2 KECCAK256 SLOAD SWAP1 SUB PUSH2 0x8C1 JUMPI PUSH1 0x0 SLOAD DUP2 EQ PUSH2 0x8C1 JUMPI PUSH1 0x0 DUP2 DUP2 MSTORE PUSH1 0x4 PUSH1 0x20 MSTORE PUSH1 0x40 SWAP1 KECCAK256 DUP5 SWAP1 SSTORE JUMPDEST POP JUMPDEST PUSH1 0x1 PUSH1 0x1 PUSH1 0xA0 SHL SUB DUP6 AND DUP5 DUP2 DUP9 PUSH32 0xDDF252AD1BE2C89B69C2B068FC378DAA952BA7F163C4A11628F55A4DF523B3EF PUSH1 0x0 DUP1 LOG4 DUP1 PUSH1 0x0 SUB PUSH2 0x90D JUMPI PUSH2 0x90D PUSH4 0x3A954ECD PUSH1 0xE2 SHL PUSH2 0xFCF JUMP JUMPDEST POP POP POP POP POP POP POP JUMP JUMPDEST PUSH1 0xE SLOAD PUSH1 0xFF AND PUSH2 0x96D JUMPI PUSH1 0x40 MLOAD PUSH3 0x461BCD PUSH1 0xE5 SHL DUP2 MSTORE PUSH1 0x20 PUSH1 0x4 DUP3 ADD MSTORE PUSH1 0x17 PUSH1 0x24 DUP3 ADD MSTORE PUSH32 0x5075626C6963206D696E74206E6F7420656E61626C6564000000000000000000 PUSH1 0x44 DUP3 ADD MSTORE PUSH1 0x64 ADD JUMPDEST PUSH1 0x40 MLOAD DUP1 SWAP2 SUB SWAP1 REVERT JUMPDEST PUSH1 0x0 DUP2 GT DUP1 ISZERO PUSH2 0x97F JUMPI POP PUSH1 0xC SLOAD DUP2 GT ISZERO JUMPDEST PUSH2 0x9BE JUMPI PUSH1 0x40 MLOAD PUSH3 0x461BCD PUSH1 0xE5 SHL DUP2 MSTORE PUSH1 0x20 PUSH1 0x4 DUP3 ADD MSTORE PUSH1 0x10 PUSH1 0x24 DUP3 ADD MSTORE PUSH16 0x496E76616C6964207175616E74697479 PUSH1 0x80 SHL PUSH1 0x44 DUP3 ADD MSTORE PUSH1 0x64 ADD PUSH2 0x964 JUMP JUMPDEST PUSH1 0xB SLOAD DUP2 PUSH2 0x9CF PUSH1 0x1 SLOAD PUSH1 0x0 SLOAD SUB SWAP1 JUMP JUMPDEST PUSH2 0x9D9 SWAP2 SWAP1 PUSH2 0x18A0 JUMP JUMPDEST GT ISZERO PUSH2 0xA1C JUMPI PUSH1 0x40 MLOAD PUSH3 0x461BCD PUSH1 0xE5 SHL DUP2 MSTORE PUSH1 0x20 PUSH1 0x4 DUP3 ADD MSTORE PUSH1 0x12 PUSH1 0x24 DUP3 ADD MSTORE PUSH18 0x13585E081CDD5C1C1B1E481C995858DA1959 PUSH1 0x72 SHL PUSH1 0x44 DUP3 ADD MSTORE PUSH1 0x64 ADD PUSH2 0x964 JUMP JUMPDEST PUSH1 0xD SLOAD CALLER PUSH1 0x0 SWAP1 DUP2 MSTORE PUSH1 0x10 PUSH1 0x20 MSTORE PUSH1 0x40 SWAP1 KECCAK256 SLOAD PUSH2 0xA3A SWAP1 DUP4 SWAP1 PUSH2 0x18A0 JUMP JUMPDEST GT ISZERO PUSH2 0xA7F JUMPI PUSH1 0x40 MLOAD PUSH3 0x461BCD PUSH1 0xE5 SHL DUP2 MSTORE PUSH1 0x20 PUSH1 0x4 DUP3 ADD MSTORE PUSH1 0x14 PUSH1 0x24 DUP3 ADD MSTORE PUSH20 0x15D85B1B195D081B1A5B5A5D081C995858DA1959 PUSH1 0x62 SHL PUSH1 0x44 DUP3 ADD MSTORE PUSH1 0x64 ADD PUSH2 0x964 JUMP JUMPDEST DUP1 PUSH1 0xA SLOAD PUSH2 0xA8D SWAP2 SWAP1 PUSH2 0x18B3 JUMP JUMPDEST CALLVALUE LT ISZERO PUSH2 0xACF JUMPI PUSH1 0x40 MLOAD PUSH3 0x461BCD PUSH1 0xE5 SHL DUP2 MSTORE PUSH1 0x20 PUSH1 0x4 DUP3 ADD MSTORE PUSH1 0x10 PUSH1 0x24 DUP3 ADD MSTORE PUSH16 0x92DCE6EACCCCD2C6D2CADCE8408AA89 PUSH1 0x83 SHL PUSH1 0x44 DUP3 ADD MSTORE PUSH1 0x64 ADD PUSH2 0x964 JUMP JUMPDEST CALLER PUSH1 0x0 SWAP1 DUP2 MSTORE PUSH1 0x10 PUSH1 0x20 MSTORE PUSH1 0x40 DUP2 KECCAK256 DUP1 SLOAD DUP4 SWAP3 SWAP1 PUSH2 0xAEE SWAP1 DUP5 SWAP1 PUSH2 0x18A0 JUMP JUMPDEST SWAP1 SWAP2 SSTORE POP PUSH2 0xAFE SWAP1 POP CALLER DUP3 PUSH2 0x116C JUMP JUMPDEST POP JUMP JUMPDEST PUSH2 0xB09 PUSH2 0x107C JUMP JUMPDEST PUSH1 0x9 SLOAD PUSH1 0x40 MLOAD PUSH1 0x1 PUSH1 0x1 PUSH1 0xA0 SHL SUB SWAP1 SWAP2 AND SWAP1 SELFBALANCE DUP1 ISZERO PUSH2 0x8FC MUL SWAP2 PUSH1 0x0 DUP2 DUP2 DUP2 DUP6 DUP9 DUP9 CALL SWAP4 POP POP POP POP ISZERO DUP1 ISZERO PUSH2 0xAFE JUMPI RETURNDATASIZE PUSH1 0x0 DUP1 RETURNDATACOPY RETURNDATASIZE PUSH1 0x0 REVERT JUMPDEST PUSH2 0xB5D DUP4 DUP4 DUP4 PUSH1 0x40 MLOAD DUP1 PUSH1 0x20 ADD PUSH1 0x40 MSTORE DUP1 PUSH1 0x0 DUP2 MSTORE POP PUSH2 0xDEE JUMP JUMPDEST POP POP POP JUMP JUMPDEST CALLER PUSH2 0xB6C DUP3 PUSH2 0xC2B JUMP JUMPDEST PUSH1 0x1 PUSH1 0x1 PUSH1 0xA0 SHL SUB AND EQ PUSH2 0xBB2 JUMPI PUSH1 0x40 MLOAD PUSH3 0x461BCD PUSH1 0xE5 SHL DUP2 MSTORE PUSH1 0x20 PUSH1 0x4 DUP3 ADD MSTORE PUSH1 0xD PUSH1 0x24 DUP3 ADD MSTORE PUSH13 0x2737BA103A34329037BBB732B9 PUSH1 0x99 SHL PUSH1 0x44 DUP3 ADD MSTORE PUSH1 0x64 ADD PUSH2 0x964 JUMP JUMPDEST PUSH2 0xAFE DUP2 PUSH2 0x1186 JUMP JUMPDEST PUSH2 0xBC3 PUSH2 0x107C JUMP JUMPDEST PUSH1 0xB SLOAD DUP2 PUSH2 0xBD4 PUSH1 0x1 SLOAD PUSH1 0x0 SLOAD SUB SWAP1 JUMP JUMPDEST PUSH2 0xBDE SWAP2 SWAP1 PUSH2 0x18A0 JUMP JUMPDEST GT ISZERO PUSH2 0xC21 JUMPI PUSH1 0x40 MLOAD PUSH3 0x461BCD PUSH1 0xE5 SHL DUP2 MSTORE PUSH1 0x20 PUSH1 0x4 DUP3 ADD MSTORE PUSH1 0x12 PUSH1 0x24 DUP3 ADD MSTORE PUSH18 0x13585E081CDD5C1C1B1E481C995858DA1959 PUSH1 0x72 SHL PUSH1 0x44 DUP3 ADD MSTORE PUSH1 0x64 ADD PUSH2 0x964 JUMP JUMPDEST PUSH2 0x770 DUP3 DUP3 PUSH2 0x116C JUMP JUMPDEST PUSH1 0x0 PUSH2 0x691 DUP3 PUSH2 0x10D6 JUMP JUMPDEST PUSH2 0xC3E PUSH2 0x107C JUMP JUMPDEST PUSH1 0xB SSTORE JUMP JUMPDEST PUSH1 0x0 PUSH1 0x1 PUSH1 0x1 PUSH1 0xA0 SHL SUB DUP3 AND PUSH2 0xC63 JUMPI PUSH2 0xC63 PUSH4 0x23D3AD81 PUSH1 0xE2 SHL PUSH2 0xFCF JUMP JUMPDEST POP PUSH1 0x1 PUSH1 0x1 PUSH1 0xA0 SHL SUB AND PUSH1 0x0 SWAP1 DUP2 MSTORE PUSH1 0x5 PUSH1 0x20 MSTORE PUSH1 0x40 SWAP1 KECCAK256 SLOAD PUSH8 0xFFFFFFFFFFFFFFFF AND SWAP1 JUMP JUMPDEST PUSH2 0xC91 PUSH2 0x107C JUMP JUMPDEST PUSH2 0xC9B PUSH1 0x0 PUSH2 0x1191 JUMP JUMPDEST JUMP JUMPDEST PUSH2 0xCA5 PUSH2 0x107C JUMP JUMPDEST PUSH1 0xC SWAP2 SWAP1 SWAP2 SSTORE PUSH1 0xD SSTORE JUMP JUMPDEST PUSH1 0xE SLOAD PUSH2 0x100 SWAP1 DIV PUSH1 0xFF AND PUSH2 0xD07 JUMPI PUSH1 0x40 MLOAD PUSH3 0x461BCD PUSH1 0xE5 SHL DUP2 MSTORE PUSH1 0x20 PUSH1 0x4 DUP3 ADD MSTORE PUSH1 0x1A PUSH1 0x24 DUP3 ADD MSTORE PUSH32 0x57686974656C697374206D696E74206E6F7420656E61626C6564000000000000 PUSH1 0x44 DUP3 ADD MSTORE PUSH1 0x64 ADD PUSH2 0x964 JUMP JUMPDEST CALLER PUSH1 0x0 SWAP1 DUP2 MSTORE PUSH1 0xF PUSH1 0x20 MSTORE PUSH1 0x40 SWAP1 KECCAK256 SLOAD PUSH1 0xFF AND PUSH2 0x96D JUMPI PUSH1 0x40 MLOAD PUSH3 0x461BCD PUSH1 0xE5 SHL DUP2 MSTORE PUSH1 0x20 PUSH1 0x4 DUP3 ADD MSTORE PUSH1 0xF PUSH1 0x24 DUP3 ADD MSTORE PUSH15 0x139BDD081DDA1A5D195B1A5CDD1959 PUSH1 0x8A SHL PUSH1 0x44 DUP3 ADD MSTORE PUSH1 0x64 ADD PUSH2 0x964 JUMP JUMPDEST PUSH1 0x60 PUSH1 0x3 DUP1 SLOAD PUSH2 0x6A6 SWAP1 PUSH2 0x1850 JUMP JUMPDEST PUSH2 0xD6F PUSH2 0x107C JUMP JUMPDEST PUSH1 0xE DUP1 SLOAD PUSH1 0xFF NOT AND SWAP2 ISZERO ISZERO SWAP2 SWAP1 SWAP2 OR SWAP1 SSTORE JUMP JUMPDEST CALLER PUSH1 0x0 DUP2 DUP2 MSTORE PUSH1 0x7 PUSH1 0x20 SWAP1 DUP2 MSTORE PUSH1 0x40 DUP1 DUP4 KECCAK256 PUSH1 0x1 PUSH1 0x1 PUSH1 0xA0 SHL SUB DUP8 AND DUP1 DUP6 MSTORE SWAP1 DUP4 MSTORE SWAP3 DUP2 SWAP1 KECCAK256 DUP1 SLOAD PUSH1 0xFF NOT AND DUP7 ISZERO ISZERO SWAP1 DUP2 OR SWAP1 SWAP2 SSTORE SWAP1 MLOAD SWAP1 DUP2 MSTORE SWAP2 SWAP3 SWAP2 PUSH32 0x17307EAB39AB6107E8899845AD3D59BD9653F200F220920489CA2B5937696C31 SWAP2 ADD PUSH1 0x40 MLOAD DUP1 SWAP2 SUB SWAP1 LOG3 POP POP JUMP JUMPDEST PUSH2 0xDF9 DUP5 DUP5 DUP5 PUSH2 0x7A7 JUMP JUMPDEST PUSH1 0x1 PUSH1 0x1 PUSH1 0xA0 SHL SUB DUP4 AND EXTCODESIZE ISZERO PUSH2 0xE29 JUMPI PUSH2 0xE15 DUP5 DUP5 DUP5 DUP5 PUSH2 0x11E3 JUMP JUMPDEST PUSH2 0xE29 JUMPI PUSH2 0xE29 PUSH4 0x68D2BF6B PUSH1 0xE1 SHL PUSH2 0xFCF JUMP JUMPDEST POP POP POP POP JUMP JUMPDEST PUSH1 0x60 PUSH2 0xE3A DUP3 PUSH2 0xF8A JUMP JUMPDEST PUSH2 0xE4E JUMPI PUSH2 0xE4E PUSH4 0xA14C4B5 PUSH1 0xE4 SHL PUSH2 0xFCF JUMP JUMPDEST PUSH1 0x0 PUSH2 0xE65 PUSH1 0x40 DUP1 MLOAD PUSH1 0x20 DUP2 ADD SWAP1 SWAP2 MSTORE PUSH1 0x0 DUP2 MSTORE SWAP1 JUMP JUMPDEST SWAP1 POP DUP1 MLOAD PUSH1 0x0 SUB PUSH2 0xE85 JUMPI PUSH1 0x40 MLOAD DUP1 PUSH1 0x20 ADD PUSH1 0x40 MSTORE DUP1 PUSH1 0x0 DUP2 MSTORE POP PUSH2 0xEB0 JUMP JUMPDEST DUP1 PUSH2 0xE8F DUP5 PUSH2 0x12C5 JUMP JUMPDEST PUSH1 0x40 MLOAD PUSH1 0x20 ADD PUSH2 0xEA0 SWAP3 SWAP2 SWAP1 PUSH2 0x18CA JUMP JUMPDEST PUSH1 0x40 MLOAD PUSH1 0x20 DUP2 DUP4 SUB SUB DUP2 MSTORE SWAP1 PUSH1 0x40 MSTORE JUMPDEST SWAP4 SWAP3 POP POP POP JUMP JUMPDEST PUSH2 0xEBF PUSH2 0x107C JUMP JUMPDEST PUSH1 0xE DUP1 SLOAD SWAP2 ISZERO ISZERO PUSH2 0x100 MUL PUSH2 0xFF00 NOT SWAP1 SWAP3 AND SWAP2 SWAP1 SWAP2 OR SWAP1 SSTORE JUMP JUMPDEST PUSH1 0x1 PUSH1 0x1 PUSH1 0xA0 SHL SUB SWAP2 DUP3 AND PUSH1 0x0 SWAP1 DUP2 MSTORE PUSH1 0x7 PUSH1 0x20 SWAP1 DUP2 MSTORE PUSH1 0x40 DUP1 DUP4 KECCAK256 SWAP4 SWAP1 SWAP5 AND DUP3 MSTORE SWAP2 SWAP1 SWAP2 MSTORE KECCAK256 SLOAD PUSH1 0xFF AND SWAP1 JUMP JUMPDEST PUSH2 0xF0F PUSH2 0x107C JUMP JUMPDEST PUSH1 0x1 PUSH1 0x1 PUSH1 0xA0 SHL SUB DUP2 AND PUSH2 0xF74 JUMPI PUSH1 0x40 MLOAD PUSH3 0x461BCD PUSH1 0xE5 SHL DUP2 MSTORE PUSH1 0x20 PUSH1 0x4 DUP3 ADD MSTORE PUSH1 0x26 PUSH1 0x24 DUP3 ADD MSTORE PUSH32 0x4F776E61626C653A206E6577206F776E657220697320746865207A65726F2061 PUSH1 0x44 DUP3 ADD MSTORE PUSH6 0x646472657373 PUSH1 0xD0 SHL PUSH1 0x64 DUP3 ADD MSTORE PUSH1 0x84 ADD PUSH2 0x964 JUMP JUMPDEST PUSH2 0xAFE DUP2 PUSH2 0x1191 JUMP JUMPDEST PUSH2 0xF85 PUSH2 0x107C JUMP JUMPDEST PUSH1 0xA SSTORE JUMP JUMPDEST PUSH1 0x0 DUP1 SLOAD DUP3 LT ISZERO PUSH2 0xFCA JUMPI PUSH1 0x0 JUMPDEST POP PUSH1 0x0 DUP3 DUP2 MSTORE PUSH1 0x4 PUSH1 0x20 MSTORE PUSH1 0x40 DUP2 KECCAK256 SLOAD SWAP1 DUP2 SWAP1 SUB PUSH2 0xFC0 JUMPI PUSH2 0xFB9 DUP4 PUSH2 0x18F9 JUMP JUMPDEST SWAP3 POP PUSH2 0xF98 JUMP JUMPDEST PUSH1 0x1 PUSH1 0xE0 SHL AND ISZERO SWAP1 POP JUMPDEST SWAP2 SWAP1 POP JUMP JUMPDEST DUP1 PUSH1 0x0 MSTORE PUSH1 0x4 PUSH1 0x0 REVERT JUMPDEST PUSH1 0x0 PUSH2 0xFE4 DUP4 PUSH2 0xC2B JUMP JUMPDEST SWAP1 POP DUP2 DUP1 ISZERO PUSH2 0xFFC JUMPI POP CALLER PUSH1 0x1 PUSH1 0x1 PUSH1 0xA0 SHL SUB DUP3 AND EQ ISZERO JUMPDEST ISZERO PUSH2 0x101F JUMPI PUSH2 0x100B DUP2 CALLER PUSH2 0xED9 JUMP JUMPDEST PUSH2 0x101F JUMPI PUSH2 0x101F PUSH4 0x67D9DCA1 PUSH1 0xE1 SHL PUSH2 0xFCF JUMP JUMPDEST PUSH1 0x0 DUP4 DUP2 MSTORE PUSH1 0x6 PUSH1 0x20 MSTORE PUSH1 0x40 DUP1 DUP3 KECCAK256 DUP1 SLOAD PUSH1 0x1 PUSH1 0x1 PUSH1 0xA0 SHL SUB NOT AND PUSH1 0x1 PUSH1 0x1 PUSH1 0xA0 SHL SUB DUP9 DUP2 AND SWAP2 DUP3 OR SWAP1 SWAP3 SSTORE SWAP2 MLOAD DUP7 SWAP4 SWAP2 DUP6 AND SWAP2 PUSH32 0x8C5BE1E5EBEC7D5BD14F71427D1E84F3DD0314C0F7B2291E5B200AC8C7C3B925 SWAP2 LOG4 POP POP POP POP JUMP JUMPDEST PUSH1 0x9 SLOAD PUSH1 0x1 PUSH1 0x1 PUSH1 0xA0 SHL SUB AND CALLER EQ PUSH2 0xC9B JUMPI PUSH1 0x40 MLOAD PUSH3 0x461BCD PUSH1 0xE5 SHL DUP2 MSTORE PUSH1 0x20 PUSH1 0x4 DUP3 ADD DUP2 SWAP1 MSTORE PUSH1 0x24 DUP3 ADD MSTORE PUSH32 0x4F776E61626C653A2063616C6C6572206973206E6F7420746865206F776E6572 PUSH1 0x44 DUP3 ADD MSTORE PUSH1 0x64 ADD PUSH2 0x964 JUMP JUMPDEST PUSH1 0x0 DUP2 DUP2 MSTORE PUSH1 0x4 PUSH1 0x20 MSTORE PUSH1 0x40 SWAP1 KECCAK256 SLOAD DUP1 PUSH1 0x0 SUB PUSH2 0x1149 JUMPI PUSH1 0x0 SLOAD DUP3 LT PUSH2 0x1106 JUMPI PUSH2 0x1106 PUSH4 0x6F96CDA1 PUSH1 0xE1 SHL PUSH2 0xFCF JUMP JUMPDEST JUMPDEST POP PUSH1 0x0 NOT ADD PUSH1 0x0 DUP2 DUP2 MSTORE PUSH1 0x4 PUSH1 0x20 MSTORE PUSH1 0x40 SWAP1 KECCAK256 SLOAD DUP1 ISZERO PUSH2 0x1107 JUMPI PUSH1 0x1 PUSH1 0xE0 SHL DUP2 AND PUSH1 0x0 SUB PUSH2 0x1134 JUMPI SWAP2 SWAP1 POP JUMP JUMPDEST PUSH2 0x1144 PUSH4 0x6F96CDA1 PUSH1 0xE1 SHL PUSH2 0xFCF JUMP JUMPDEST PUSH2 0x1107 JUMP JUMPDEST PUSH1 0x1 PUSH1 0xE0 SHL DUP2 AND PUSH1 0x0 SUB PUSH2 0x115C JUMPI SWAP2 SWAP1 POP JUMP JUMPDEST PUSH2 0xFCA PUSH4 0x6F96CDA1 PUSH1 0xE1 SHL PUSH2 0xFCF JUMP JUMPDEST PUSH2 0x770 DUP3 DUP3 PUSH1 0x40 MLOAD DUP1 PUSH1 0x20 ADD PUSH1 0x40 MSTORE DUP1 PUSH1 0x0 DUP2 MSTORE POP PUSH2 0x1309 JUMP JUMPDEST PUSH2 0xAFE DUP2 PUSH1 0x0 PUSH2 0x136D JUMP JUMPDEST PUSH1 0x9 DUP1 SLOAD PUSH1 0x1 PUSH1 0x1 PUSH1 0xA0 SHL SUB DUP4 DUP2 AND PUSH1 0x1 PUSH1 0x1 PUSH1 0xA0 SHL SUB NOT DUP4 AND DUP2 OR SWAP1 SWAP4 SSTORE PUSH1 0x40 MLOAD SWAP2 AND SWAP2 SWAP1 DUP3 SWAP1 PUSH32 0x8BE0079C531659141344CD1FD0A4F28419497F9722A3DAAFE3B4186F6B6457E0 SWAP1 PUSH1 0x0 SWAP1 LOG3 POP POP JUMP JUMPDEST PUSH1 0x40 MLOAD PUSH4 0xA85BD01 PUSH1 0xE1 SHL DUP2 MSTORE PUSH1 0x0 SWAP1 PUSH1 0x1 PUSH1 0x1 PUSH1 0xA0 SHL SUB DUP6 AND SWAP1 PUSH4 0x150B7A02 SWAP1 PUSH2 0x1218 SWAP1 CALLER SWAP1 DUP10 SWAP1 DUP9 SWAP1 DUP9 SWAP1 PUSH1 0x4 ADD PUSH2 0x1910 JUMP JUMPDEST PUSH1 0x20 PUSH1 0x40 MLOAD DUP1 DUP4 SUB DUP2 PUSH1 0x0 DUP8 GAS CALL SWAP3 POP POP POP DUP1 ISZERO PUSH2 0x1253 JUMPI POP PUSH1 0x40 DUP1 MLOAD PUSH1 0x1F RETURNDATASIZE SWAP1 DUP2 ADD PUSH1 0x1F NOT AND DUP3 ADD SWAP1 SWAP3 MSTORE PUSH2 0x1250 SWAP2 DUP2 ADD SWAP1 PUSH2 0x194D JUMP JUMPDEST PUSH1 0x1 JUMPDEST PUSH2 0x12A8 JUMPI RETURNDATASIZE DUP1 DUP1 ISZERO PUSH2 0x1281 JUMPI PUSH1 0x40 MLOAD SWAP2 POP PUSH1 0x1F NOT PUSH1 0x3F RETURNDATASIZE ADD AND DUP3 ADD PUSH1 0x40 MSTORE RETURNDATASIZE DUP3 MSTORE RETURNDATASIZE PUSH1 0x0 PUSH1 0x20 DUP5 ADD RETURNDATACOPY PUSH2 0x1286 JUMP JUMPDEST PUSH1 0x60 SWAP2 POP JUMPDEST POP DUP1 MLOAD PUSH1 0x0 SUB PUSH2 0x12A0 JUMPI PUSH2 0x12A0 PUSH4 0x68D2BF6B PUSH1 0xE1 SHL PUSH2 0xFCF JUMP JUMPDEST DUP1 MLOAD DUP2 PUSH1 0x20 ADD REVERT JUMPDEST PUSH1 0x1 PUSH1 0x1 PUSH1 0xE0 SHL SUB NOT AND PUSH4 0xA85BD01 PUSH1 0xE1 SHL EQ SWAP1 POP SWAP5 SWAP4 POP POP POP POP JUMP JUMPDEST PUSH1 0x60 PUSH1 0xA0 PUSH1 0x40 MLOAD ADD DUP1 PUSH1 0x40 MSTORE PUSH1 0x20 DUP2 SUB SWAP2 POP POP PUSH1 0x0 DUP2 MSTORE DUP1 DUP3 JUMPDEST PUSH1 0x1 DUP4 SUB SWAP3 POP PUSH1 0xA DUP2 MOD PUSH1 0x30 ADD DUP4 MSTORE8 PUSH1 0xA SWAP1 DIV DUP1 PUSH2 0x12DF JUMPI POP DUP2 SWAP1 SUB PUSH1 0x1F NOT SWAP1 SWAP2 ADD SWAP1 DUP2 MSTORE SWAP2 SWAP1 POP JUMP JUMPDEST PUSH2 0x1313 DUP4 DUP4 PUSH2 0x14AE JUMP JUMPDEST PUSH1 0x1 PUSH1 0x1 PUSH1 0xA0 SHL SUB DUP4 AND EXTCODESIZE ISZERO PUSH2 0xB5D JUMPI PUSH1 0x0 SLOAD DUP3 DUP2 SUB JUMPDEST PUSH2 0x133D PUSH1 0x0 DUP7 DUP4 DUP1 PUSH1 0x1 ADD SWAP5 POP DUP7 PUSH2 0x11E3 JUMP JUMPDEST PUSH2 0x1351 JUMPI PUSH2 0x1351 PUSH4 0x68D2BF6B PUSH1 0xE1 SHL PUSH2 0xFCF JUMP JUMPDEST DUP2 DUP2 LT PUSH2 0x132A JUMPI DUP2 PUSH1 0x0 SLOAD EQ PUSH2 0x1366 JUMPI PUSH1 0x0 DUP1 REVERT JUMPDEST POP POP POP POP POP JUMP JUMPDEST PUSH1 0x0 PUSH2 0x1378 DUP4 PUSH2 0x10D6 JUMP JUMPDEST SWAP1 POP DUP1 PUSH1 0x0 DUP1 PUSH2 0x1396 DUP7 PUSH1 0x0 SWAP1 DUP2 MSTORE PUSH1 0x6 PUSH1 0x20 MSTORE PUSH1 0x40 SWAP1 KECCAK256 DUP1 SLOAD SWAP1 SWAP2 JUMP JUMPDEST SWAP2 POP SWAP2 POP DUP5 ISZERO PUSH2 0x13CD JUMPI PUSH2 0x13AB DUP2 DUP5 CALLER PUSH2 0x7EF JUMP JUMPDEST PUSH2 0x13CD JUMPI PUSH2 0x13B9 DUP4 CALLER PUSH2 0xED9 JUMP JUMPDEST PUSH2 0x13CD JUMPI PUSH2 0x13CD PUSH4 0x2CE44B5F PUSH1 0xE1 SHL PUSH2 0xFCF JUMP JUMPDEST DUP1 ISZERO PUSH2 0x13D8 JUMPI PUSH1 0x0 DUP3 SSTORE JUMPDEST PUSH1 0x1 PUSH1 0x1 PUSH1 0xA0 SHL SUB DUP4 AND PUSH1 0x0 DUP2 DUP2 MSTORE PUSH1 0x5 PUSH1 0x20 MSTORE PUSH1 0x40 SWAP1 KECCAK256 DUP1 SLOAD PUSH16 0xFFFFFFFFFFFFFFFFFFFFFFFFFFFFFFFF ADD SWAP1 SSTORE TIMESTAMP PUSH1 0xA0 SHL OR PUSH1 0x3 PUSH1 0xE0 SHL OR PUSH1 0x0 DUP8 DUP2 MSTORE PUSH1 0x4 PUSH1 0x20 MSTORE PUSH1 0x40 DUP2 KECCAK256 SWAP2 SWAP1 SWAP2 SSTORE PUSH1 0x1 PUSH1 0xE1 SHL DUP6 AND SWAP1 SUB PUSH2 0x1466 JUMPI PUSH1 0x1 DUP7 ADD PUSH1 0x0 DUP2 DUP2 MSTORE PUSH1 0x4 PUSH1 0x20 MSTORE PUSH1 0x40 DUP2 KECCAK256 SLOAD SWAP1 SUB PUSH2 0x1464 JUMPI PUSH1 0x0 SLOAD DUP2 EQ PUSH2 0x1464 JUMPI PUSH1 0x0 DUP2 DUP2 MSTORE PUSH1 0x4 PUSH1 0x20 MSTORE PUSH1 0x40 SWAP1 KECCAK256 DUP6 SWAP1 SSTORE JUMPDEST POP JUMPDEST PUSH1 0x40 MLOAD DUP7 SWAP1 PUSH1 0x0 SWAP1 PUSH1 0x1 PUSH1 0x1 PUSH1 0xA0 SHL SUB DUP7 AND SWAP1 PUSH32 0xDDF252AD1BE2C89B69C2B068FC378DAA952BA7F163C4A11628F55A4DF523B3EF SWAP1 DUP4 SWAP1 LOG4 POP POP PUSH1 0x1 DUP1 SLOAD DUP2 ADD SWAP1 SSTORE POP POP POP POP JUMP JUMPDEST PUSH1 0x0 DUP1 SLOAD SWAP1 DUP3 SWAP1 SUB PUSH2 0x14CA JUMPI PUSH2 0x14CA PUSH4 0xB562E8DD PUSH1 0xE0 SHL PUSH2 0xFCF JUMP JUMPDEST PUSH1 0x0 DUP2 DUP2 MSTORE PUSH1 0x4 PUSH1 0x20 SWAP1 DUP2 MSTORE PUSH1 0x40 DUP1 DUP4 KECCAK256 PUSH1 0x1 PUSH1 0x1 PUSH1 0xA0 SHL SUB DUP8 AND TIMESTAMP PUSH1 0xA0 SHL PUSH1 0x1 DUP9 EQ PUSH1 0xE1 SHL OR DUP2 OR SWAP1 SWAP2 SSTORE DUP1 DUP5 MSTORE PUSH1 0x5 SWAP1 SWAP3 MSTORE DUP3 KECCAK256 DUP1 SLOAD PUSH9 0x10000000000000001 DUP7 MUL ADD SWAP1 SSTORE SWAP1 DUP2 SWAP1 SUB PUSH2 0x1528 JUMPI PUSH2 0x1528 PUSH3 0x2E0763 PUSH1 0xE8 SHL PUSH2 0xFCF JUMP JUMPDEST DUP2 DUP4 ADD DUP3 JUMPDEST DUP1 DUP4 PUSH1 0x0 PUSH32 0xDDF252AD1BE2C89B69C2B068FC378DAA952BA7F163C4A11628F55A4DF523B3EF PUSH1 0x0 DUP1 LOG4 DUP2 DUP2 PUSH1 0x1 ADD SWAP2 POP DUP2 SUB PUSH2 0x152D JUMPI POP PUSH1 0x0 SSTORE POP POP POP POP JUMP JUMPDEST PUSH1 0x1 PUSH1 0x1 PUSH1 0xE0 SHL SUB NOT DUP2 AND DUP2 EQ PUSH2 0xAFE JUMPI PUSH1 0x0 DUP1 REVERT JUMPDEST PUSH1 0x0 PUSH1 0x20 DUP3 DUP5 SUB SLT ISZERO PUSH2 0x1595 JUMPI PUSH1 0x0 DUP1 REVERT JUMPDEST DUP2 CALLDATALOAD PUSH2 0xEB0 DUP2 PUSH2 0x156D JUMP JUMPDEST PUSH1 0x0 JUMPDEST DUP4 DUP2 LT ISZERO PUSH2 0x15BB JUMPI DUP2 DUP2 ADD MLOAD DUP4 DUP3 ADD MSTORE PUSH1 0x20 ADD PUSH2 0x15A3 JUMP JUMPDEST POP POP PUSH1 0x0 SWAP2 ADD MSTORE JUMP JUMPDEST PUSH1 0x0 DUP2 MLOAD DUP1 DUP5 MSTORE PUSH2 0x15DC DUP2 PUSH1 0x20 DUP7 ADD PUSH1 0x20 DUP7 ADD PUSH2 0x15A0 JUMP JUMPDEST PUSH1 0x1F ADD PUSH1 0x1F NOT AND SWAP3 SWAP1 SWAP3 ADD PUSH1 0x20 ADD SWAP3 SWAP2 POP POP JUMP JUMPDEST PUSH1 0x20 DUP2 MSTORE PUSH1 0x0 PUSH2 0xEB0 PUSH1 0x20 DUP4 ADD DUP5 PUSH2 0x15C4 JUMP JUMPDEST PUSH1 0x0 PUSH1 0x20 DUP3 DUP5 SUB SLT ISZERO PUSH2 0x1615 JUMPI PUSH1 0x0 DUP1 REVERT JUMPDEST POP CALLDATALOAD SWAP2 SWAP1 POP JUMP JUMPDEST DUP1 CALLDATALOAD PUSH1 0x1 PUSH1 0x1 PUSH1 0xA0 SHL SUB DUP2 AND DUP2 EQ PUSH2 0xFCA JUMPI PUSH1 0x0 DUP1 REVERT JUMPDEST PUSH1 0x0 DUP1 PUSH1 0x40 DUP4 DUP6 SUB SLT ISZERO PUSH2 0x1646 JUMPI PUSH1 0x0 DUP1 REVERT JUMPDEST PUSH2 0x164F DUP4 PUSH2 0x161C JUMP JUMPDEST SWAP5 PUSH1 0x20 SWAP4 SWAP1 SWAP4 ADD CALLDATALOAD SWAP4 POP POP POP JUMP JUMPDEST DUP1 CALLDATALOAD DUP1 ISZERO ISZERO DUP2 EQ PUSH2 0xFCA JUMPI PUSH1 0x0 DUP1 REVERT JUMPDEST PUSH1 0x0 DUP1 PUSH1 0x40 DUP4 DUP6 SUB SLT ISZERO PUSH2 0x1680 JUMPI PUSH1 0x0 DUP1 REVERT JUMPDEST PUSH2 0x1689 DUP4 PUSH2 0x161C JUMP JUMPDEST SWAP2 POP PUSH2 0x1697 PUSH1 0x20 DUP5 ADD PUSH2 0x165D JUMP JUMPDEST SWAP1 POP SWAP3 POP SWAP3 SWAP1 POP JUMP JUMPDEST PUSH1 0x0 DUP1 PUSH1 0x0 PUSH1 0x60 DUP5 DUP7 SUB SLT ISZERO PUSH2 0x16B5 JUMPI PUSH1 0x0 DUP1 REVERT JUMPDEST PUSH2 0x16BE DUP5 PUSH2 0x161C JUMP JUMPDEST SWAP3 POP PUSH2 0x16CC PUSH1 0x20 DUP6 ADD PUSH2 0x161C JUMP JUMPDEST SWAP2 POP PUSH1 0x40 DUP5 ADD CALLDATALOAD SWAP1 POP SWAP3 POP SWAP3 POP SWAP3 JUMP JUMPDEST PUSH1 0x0 PUSH1 0x20 DUP3 DUP5 SUB SLT ISZERO PUSH2 0x16EE JUMPI PUSH1 0x0 DUP1 REVERT JUMPDEST PUSH2 0xEB0 DUP3 PUSH2 0x161C JUMP JUMPDEST PUSH1 0x0 DUP1 PUSH1 0x40 DUP4 DUP6 SUB SLT ISZERO PUSH2 0x170A JUMPI PUSH1 0x0 DUP1 REVERT JUMPDEST POP POP DUP1 CALLDATALOAD SWAP3 PUSH1 0x20 SWAP1 SWAP2 ADD CALLDATALOAD SWAP2 POP JUMP JUMPDEST PUSH1 0x0 PUSH1 0x20 DUP3 DUP5 SUB SLT ISZERO PUSH2 0x172B JUMPI PUSH1 0x0 DUP1 REVERT JUMPDEST PUSH2 0xEB0 DUP3 PUSH2 0x165D JUMP JUMPDEST PUSH4 0x4E487B71 PUSH1 0xE0 SHL PUSH1 0x0 MSTORE PUSH1 0x41 PUSH1 0x4 MSTORE PUSH1 0x24 PUSH1 0x0 REVERT JUMPDEST PUSH1 0x0 DUP1 PUSH1 0x0 DUP1 PUSH1 0x80 DUP6 DUP8 SUB SLT ISZERO PUSH2 0x1760 JUMPI PUSH1 0x0 DUP1 REVERT JUMPDEST PUSH2 0x1769 DUP6 PUSH2 0x161C JUMP JUMPDEST SWAP4 POP PUSH2 0x1777 PUSH1 0x20 DUP7 ADD PUSH2 0x161C JUMP JUMPDEST SWAP3 POP PUSH1 0x40 DUP6 ADD CALLDATALOAD SWAP2 POP PUSH1 0x60 DUP6 ADD CALLDATALOAD PUSH8 0xFFFFFFFFFFFFFFFF DUP1 DUP3 GT ISZERO PUSH2 0x179B JUMPI PUSH1 0x0 DUP1 REVERT JUMPDEST DUP2 DUP8 ADD SWAP2 POP DUP8 PUSH1 0x1F DUP4 ADD SLT PUSH2 0x17AF JUMPI PUSH1 0x0 DUP1 REVERT JUMPDEST DUP2 CALLDATALOAD DUP2 DUP2 GT ISZERO PUSH2 0x17C1 JUMPI PUSH2 0x17C1 PUSH2 0x1734 JUMP JUMPDEST PUSH1 0x40 MLOAD PUSH1 0x1F DUP3 ADD PUSH1 0x1F NOT SWAP1 DUP2 AND PUSH1 0x3F ADD AND DUP2 ADD SWAP1 DUP4 DUP3 GT DUP2 DUP4 LT OR ISZERO PUSH2 0x17E9 JUMPI PUSH2 0x17E9 PUSH2 0x1734 JUMP JUMPDEST DUP2 PUSH1 0x40 MSTORE DUP3 DUP2 MSTORE DUP11 PUSH1 0x20 DUP5 DUP8 ADD ADD GT ISZERO PUSH2 0x1802 JUMPI PUSH1 0x0 DUP1 REVERT JUMPDEST DUP3 PUSH1 0x20 DUP7 ADD PUSH1 0x20 DUP4 ADD CALLDATACOPY PUSH1 0x0 PUSH1 0x20 DUP5 DUP4 ADD ADD MSTORE DUP1 SWAP6 POP POP POP POP POP POP SWAP3 SWAP6 SWAP2 SWAP5 POP SWAP3 POP JUMP JUMPDEST PUSH1 0x0 DUP1 PUSH1 0x40 DUP4 DUP6 SUB SLT ISZERO PUSH2 0x1839 JUMPI PUSH1 0x0 DUP1 REVERT JUMPDEST PUSH2 0x1842 DUP4 PUSH2 0x161C JUMP JUMPDEST SWAP2 POP PUSH2 0x1697 PUSH1 0x20 DUP5 ADD PUSH2 0x161C JUMP JUMPDEST PUSH1 0x1 DUP2 DUP2 SHR SWAP1 DUP3 AND DUP1 PUSH2 0x1864 JUMPI PUSH1 0x7F DUP3 AND SWAP2 POP JUMPDEST PUSH1 0x20 DUP3 LT DUP2 SUB PUSH2 0x1884 JUMPI PUSH4 0x4E487B71 PUSH1 0xE0 SHL PUSH1 0x0 MSTORE PUSH1 0x22 PUSH1 0x4 MSTORE PUSH1 0x24 PUSH1 0x0 REVERT JUMPDEST POP SWAP2 SWAP1 POP JUMP JUMPDEST PUSH4 0x4E487B71 PUSH1 0xE0 SHL PUSH1 0x0 MSTORE PUSH1 0x11 PUSH1 0x4 MSTORE PUSH1 0x24 PUSH1 0x0 REVERT JUMPDEST DUP1 DUP3 ADD DUP1 DUP3 GT ISZERO PUSH2 0x691 JUMPI PUSH2 0x691 PUSH2 0x188A JUMP JUMPDEST DUP1 DUP3 MUL DUP2 ISZERO DUP3 DUP3 DIV DUP5 EQ OR PUSH2 0x691 JUMPI PUSH2 0x691 PUSH2 0x188A JUMP JUMPDEST PUSH1 0x0 DUP4 MLOAD PUSH2 0x18DC DUP2 DUP5 PUSH1 0x20 DUP9 ADD PUSH2 0x15A0 JUMP JUMPDEST DUP4 MLOAD SWAP1 DUP4 ADD SWAP1 PUSH2 0x18F0 DUP2 DUP4 PUSH1 0x20 DUP9 ADD PUSH2 0x15A0 JUMP JUMPDEST ADD SWAP5 SWAP4 POP POP POP POP JUMP JUMPDEST PUSH1 0x0 DUP2 PUSH2 0x1908 JUMPI PUSH2 0x1908 PUSH2 0x188A JUMP JUMPDEST POP PUSH1 0x0 NOT ADD SWAP1 JUMP JUMPDEST PUSH1 0x1 PUSH1 0x1 PUSH1 0xA0 SHL SUB DUP6 DUP2 AND DUP3 MSTORE DUP5 AND PUSH1 0x20 DUP3 ADD MSTORE PUSH1 0x40 DUP2 ADD DUP4 SWAP1 MSTORE PUSH1 0x80 PUSH1 0x60 DUP3 ADD DUP2 SWAP1 MSTORE PUSH1 0x0 SWAP1 PUSH2 0x1943 SWAP1 DUP4 ADD DUP5 PUSH2 0x15C4 JUMP JUMPDEST SWAP7 SWAP6 POP POP POP POP POP POP JUMP JUMPDEST PUSH1 0x0 PUSH1 0x20 DUP3 DUP5 SUB SLT ISZERO PUSH2 0x195F JUMPI PUSH1 0x0 DUP1 REVERT JUMPDEST DUP2 MLOAD PUSH2 0xEB0 DUP2 PUSH2 0x156D JUMP INVALID LOG2 PUSH5 0x6970667358 0x22 SLT KECCAK256 BLOCKHASH 0xD6 0xF9 0xB0 MSIZE CALLER SHL 0x2C PUSH29 0x262F0D63498CFF6A22DDC4E68610F3B1AF4D0D5C37E7B064736F6C6343 STOP ADDMOD XOR STOP CALLER "},"methodIdentifiers":{"approve(address,uint256)":"095ea7b3","balanceOf(address)":"70a08231","burn(uint256)":"42966c68","getApproved(uint256)":"081812fc","isApprovedForAll(address,address)":"e985e9c5","maxPerTx()":"f968adbe","maxPerWallet()":"453c2310","maxSupply()":"d5abeb01","mintPrice()":"6817c76c","mintedPerWallet(address)":"3a602b4d","name()":"06fdde03","owner()":"8da5cb5b","ownerMint(address,uint256)":"484b973c","ownerOf(uint256)":"6352211e","publicMint(uint256)":"2db11544","publicMintEnabled()":"0f4161aa","renounceOwnership()":"715018a6","safeTransferFrom(address,address,uint256)":"42842e0e","safeTransferFrom(address,address,uint256,bytes)":"b88d4fde","setApprovalForAll(address,bool)":"a22cb465","setMaxSupply(uint256)":"6f8b44b0","setMintLimits(uint256,uint256)":"7a91bd34","setMintPrice(uint256)":"f4a0a528","setWhitelistStatus(address,bool)":"0c424284","supportsInterface(bytes4)":"01ffc9a7","symbol()":"95d89b41","togglePublicMint(bool)":"9b7c1c83","toggleWhitelistMint(bool)":"d2f902cf","tokenURI(uint256)":"c87b56dd","totalSupply()":"18160ddd","transferFrom(address,address,uint256)":"23b872dd","transferOwnership(address)":"f2fde38b","whitelistMint(uint256)":"868ff4a2","whitelistMintEnabled()":"6caede3d","whitelisted(address)":"d936547e","withdraw()":"3ccfd60b"}}}}}