{
	"EAGLEAI/EagleAI.sol": {
		"EAGLEAI": {
			"abi": [
				{
					"inputs": [
						{
							"internalType": "address",
							"name": "wallet",
							"type": "address"
						}
					],
					"stateMutability": "nonpayable",
					"type": "constructor"
				},
				{
					"anonymous": false,
					"inputs": [
						{
							"indexed": false,
							"internalType": "address",
							"name": "account",
							"type": "address"
						}
					],
					"name": "AddedInBlacklist",
					"type": "event"
				},
				{
					"anonymous": false,
					"inputs": [
						{
							"indexed": false,
							"internalType": "uint256",
							"name": "totalLiquidity",
							"type": "uint256"
						}
					],
					"name": "AddedLiquidity",
					"type": "event"
				},
				{
					"anonymous": false,
					"inputs": [
						{
							"indexed": true,
							"internalType": "address",
							"name": "owner",
							"type": "address"
						},
						{
							"indexed": true,
							"internalType": "address",
							"name": "spender",
							"type": "address"
						},
						{
							"indexed": false,
							"internalType": "uint256",
							"name": "value",
							"type": "uint256"
						}
					],
					"name": "Approval",
					"type": "event"
				},
				{
					"anonymous": false,
					"inputs": [
						{
							"indexed": false,
							"internalType": "uint256",
							"name": "buyReflectionTax",
							"type": "uint256"
						},
						{
							"indexed": false,
							"internalType": "uint256",
							"name": "buyCoinWalletTaxPer",
							"type": "uint256"
						},
						{
							"indexed": false,
							"internalType": "uint256",
							"name": "buyLiquidityTaxPer",
							"type": "uint256"
						},
						{
							"indexed": false,
							"internalType": "uint256",
							"name": "buyBurnTaxPer",
							"type": "uint256"
						}
					],
					"name": "BuyTaxUpdated",
					"type": "event"
				},
				{
					"anonymous": false,
					"inputs": [
						{
							"indexed": false,
							"internalType": "uint256",
							"name": "totalCoinFund",
							"type": "uint256"
						}
					],
					"name": "CoinFund",
					"type": "event"
				},
				{
					"anonymous": false,
					"inputs": [
						{
							"indexed": false,
							"internalType": "address",
							"name": "account",
							"type": "address"
						}
					],
					"name": "ExcludedFromFee",
					"type": "event"
				},
				{
					"anonymous": false,
					"inputs": [
						{
							"indexed": false,
							"internalType": "address",
							"name": "account",
							"type": "address"
						}
					],
					"name": "ExcludedFromReward",
					"type": "event"
				},
				{
					"anonymous": false,
					"inputs": [
						{
							"indexed": false,
							"internalType": "address",
							"name": "wallet",
							"type": "address"
						}
					],
					"name": "FundWalletChange",
					"type": "event"
				},
				{
					"anonymous": false,
					"inputs": [
						{
							"indexed": false,
							"internalType": "address",
							"name": "account",
							"type": "address"
						}
					],
					"name": "IncludedInFee",
					"type": "event"
				},
				{
					"anonymous": false,
					"inputs": [
						{
							"indexed": false,
							"internalType": "address",
							"name": "account",
							"type": "address"
						}
					],
					"name": "IncludedInReward",
					"type": "event"
				},
				{
					"anonymous": false,
					"inputs": [
						{
							"indexed": false,
							"internalType": "address",
							"name": "owner",
							"type": "address"
						},
						{
							"indexed": false,
							"internalType": "address",
							"name": "newOwner",
							"type": "address"
						},
						{
							"indexed": false,
							"internalType": "uint256",
							"name": "lockTime",
							"type": "uint256"
						}
					],
					"name": "Locked",
					"type": "event"
				},
				{
					"anonymous": false,
					"inputs": [
						{
							"indexed": true,
							"internalType": "address",
							"name": "previousOwner",
							"type": "address"
						},
						{
							"indexed": true,
							"internalType": "address",
							"name": "newOwner",
							"type": "address"
						}
					],
					"name": "OwnershipTransferred",
					"type": "event"
				},
				{
					"anonymous": false,
					"inputs": [
						{
							"indexed": false,
							"internalType": "uint256",
							"name": "totalReflectFee",
							"type": "uint256"
						}
					],
					"name": "ReflectedFee",
					"type": "event"
				},
				{
					"anonymous": false,
					"inputs": [
						{
							"indexed": false,
							"internalType": "address",
							"name": "account",
							"type": "address"
						}
					],
					"name": "RemovedFromBlacklist",
					"type": "event"
				},
				{
					"anonymous": false,
					"inputs": [
						{
							"indexed": false,
							"internalType": "uint256",
							"name": "sellReflectionTax",
							"type": "uint256"
						},
						{
							"indexed": false,
							"internalType": "uint256",
							"name": "sellCoinWalletTaxPer",
							"type": "uint256"
						},
						{
							"indexed": false,
							"internalType": "uint256",
							"name": "sellLiquidityTaxPer",
							"type": "uint256"
						},
						{
							"indexed": false,
							"internalType": "uint256",
							"name": "sellBurnTaxPer",
							"type": "uint256"
						}
					],
					"name": "SellTaxUpdated",
					"type": "event"
				},
				{
					"anonymous": false,
					"inputs": [
						{
							"indexed": false,
							"internalType": "uint256",
							"name": "tokensSwapped",
							"type": "uint256"
						},
						{
							"indexed": false,
							"internalType": "uint256",
							"name": "ethReceived",
							"type": "uint256"
						},
						{
							"indexed": false,
							"internalType": "uint256",
							"name": "tokensIntoLiqudity",
							"type": "uint256"
						}
					],
					"name": "SwapAndLiquify",
					"type": "event"
				},
				{
					"anonymous": false,
					"inputs": [
						{
							"indexed": false,
							"internalType": "bool",
							"name": "enabled",
							"type": "bool"
						}
					],
					"name": "SwapAndLiquifyEnabledUpdated",
					"type": "event"
				},
				{
					"anonymous": false,
					"inputs": [
						{
							"indexed": false,
							"internalType": "uint256",
							"name": "amount",
							"type": "uint256"
						}
					],
					"name": "ThresholdUpdated",
					"type": "event"
				},
				{
					"anonymous": false,
					"inputs": [
						{
							"indexed": false,
							"internalType": "bool",
							"name": "enabled",
							"type": "bool"
						}
					],
					"name": "TradeEnabled",
					"type": "event"
				},
				{
					"anonymous": false,
					"inputs": [
						{
							"indexed": true,
							"internalType": "address",
							"name": "from",
							"type": "address"
						},
						{
							"indexed": true,
							"internalType": "address",
							"name": "to",
							"type": "address"
						},
						{
							"indexed": false,
							"internalType": "uint256",
							"name": "value",
							"type": "uint256"
						}
					],
					"name": "Transfer",
					"type": "event"
				},
				{
					"inputs": [
						{
							"internalType": "address",
							"name": "account",
							"type": "address"
						}
					],
					"name": "addBlacklist",
					"outputs": [],
					"stateMutability": "nonpayable",
					"type": "function"
				},
				{
					"inputs": [
						{
							"internalType": "address[]",
							"name": "addresses",
							"type": "address[]"
						},
						{
							"internalType": "uint256[]",
							"name": "tokens",
							"type": "uint256[]"
						}
					],
					"name": "airdrop",
					"outputs": [],
					"stateMutability": "nonpayable",
					"type": "function"
				},
				{
					"inputs": [
						{
							"internalType": "address",
							"name": "owner",
							"type": "address"
						},
						{
							"internalType": "address",
							"name": "spender",
							"type": "address"
						}
					],
					"name": "allowance",
					"outputs": [
						{
							"internalType": "uint256",
							"name": "",
							"type": "uint256"
						}
					],
					"stateMutability": "view",
					"type": "function"
				},
				{
					"inputs": [
						{
							"internalType": "address",
							"name": "spender",
							"type": "address"
						},
						{
							"internalType": "uint256",
							"name": "amount",
							"type": "uint256"
						}
					],
					"name": "approve",
					"outputs": [
						{
							"internalType": "bool",
							"name": "",
							"type": "bool"
						}
					],
					"stateMutability": "nonpayable",
					"type": "function"
				},
				{
					"inputs": [
						{
							"internalType": "address",
							"name": "account",
							"type": "address"
						}
					],
					"name": "balanceOf",
					"outputs": [
						{
							"internalType": "uint256",
							"name": "",
							"type": "uint256"
						}
					],
					"stateMutability": "view",
					"type": "function"
				},
				{
					"inputs": [
						{
							"internalType": "address",
							"name": "",
							"type": "address"
						}
					],
					"name": "blacklisted",
					"outputs": [
						{
							"internalType": "bool",
							"name": "",
							"type": "bool"
						}
					],
					"stateMutability": "view",
					"type": "function"
				},
				{
					"inputs": [],
					"name": "buyBurnTaxPer",
					"outputs": [
						{
							"internalType": "uint256",
							"name": "",
							"type": "uint256"
						}
					],
					"stateMutability": "view",
					"type": "function"
				},
				{
					"inputs": [],
					"name": "buyCoinWalletTaxPer",
					"outputs": [
						{
							"internalType": "uint256",
							"name": "",
							"type": "uint256"
						}
					],
					"stateMutability": "view",
					"type": "function"
				},
				{
					"inputs": [],
					"name": "buyLiquidityTaxPer",
					"outputs": [
						{
							"internalType": "uint256",
							"name": "",
							"type": "uint256"
						}
					],
					"stateMutability": "view",
					"type": "function"
				},
				{
					"inputs": [],
					"name": "buyReflectionTax",
					"outputs": [
						{
							"internalType": "uint256",
							"name": "",
							"type": "uint256"
						}
					],
					"stateMutability": "view",
					"type": "function"
				},
				{
					"inputs": [],
					"name": "decimals",
					"outputs": [
						{
							"internalType": "uint8",
							"name": "",
							"type": "uint8"
						}
					],
					"stateMutability": "pure",
					"type": "function"
				},
				{
					"inputs": [
						{
							"internalType": "address",
							"name": "spender",
							"type": "address"
						},
						{
							"internalType": "uint256",
							"name": "subtractedValue",
							"type": "uint256"
						}
					],
					"name": "decreaseAllowance",
					"outputs": [
						{
							"internalType": "bool",
							"name": "",
							"type": "bool"
						}
					],
					"stateMutability": "nonpayable",
					"type": "function"
				},
				{
					"inputs": [
						{
							"internalType": "uint256",
							"name": "tAmount",
							"type": "uint256"
						}
					],
					"name": "deliver",
					"outputs": [],
					"stateMutability": "nonpayable",
					"type": "function"
				},
				{
					"inputs": [
						{
							"internalType": "address",
							"name": "account",
							"type": "address"
						}
					],
					"name": "excludeFromFee",
					"outputs": [],
					"stateMutability": "nonpayable",
					"type": "function"
				},
				{
					"inputs": [
						{
							"internalType": "address",
							"name": "account",
							"type": "address"
						}
					],
					"name": "excludeFromReward",
					"outputs": [],
					"stateMutability": "nonpayable",
					"type": "function"
				},
				{
					"inputs": [],
					"name": "fundWallet",
					"outputs": [
						{
							"internalType": "address",
							"name": "",
							"type": "address"
						}
					],
					"stateMutability": "view",
					"type": "function"
				},
				{
					"inputs": [
						{
							"internalType": "address",
							"name": "account",
							"type": "address"
						}
					],
					"name": "includeInFee",
					"outputs": [],
					"stateMutability": "nonpayable",
					"type": "function"
				},
				{
					"inputs": [
						{
							"internalType": "address",
							"name": "account",
							"type": "address"
						}
					],
					"name": "includeInReward",
					"outputs": [],
					"stateMutability": "nonpayable",
					"type": "function"
				},
				{
					"inputs": [
						{
							"internalType": "address",
							"name": "spender",
							"type": "address"
						},
						{
							"internalType": "uint256",
							"name": "addedValue",
							"type": "uint256"
						}
					],
					"name": "increaseAllowance",
					"outputs": [
						{
							"internalType": "bool",
							"name": "",
							"type": "bool"
						}
					],
					"stateMutability": "nonpayable",
					"type": "function"
				},
				{
					"inputs": [
						{
							"internalType": "address",
							"name": "account",
							"type": "address"
						}
					],
					"name": "isExcludedFromFee",
					"outputs": [
						{
							"internalType": "bool",
							"name": "",
							"type": "bool"
						}
					],
					"stateMutability": "view",
					"type": "function"
				},
				{
					"inputs": [
						{
							"internalType": "address",
							"name": "account",
							"type": "address"
						}
					],
					"name": "isExcludedFromReward",
					"outputs": [
						{
							"internalType": "bool",
							"name": "",
							"type": "bool"
						}
					],
					"stateMutability": "view",
					"type": "function"
				},
				{
					"inputs": [],
					"name": "name",
					"outputs": [
						{
							"internalType": "string",
							"name": "",
							"type": "string"
						}
					],
					"stateMutability": "pure",
					"type": "function"
				},
				{
					"inputs": [],
					"name": "owner",
					"outputs": [
						{
							"internalType": "address",
							"name": "",
							"type": "address"
						}
					],
					"stateMutability": "view",
					"type": "function"
				},
				{
					"inputs": [
						{
							"internalType": "uint256",
							"name": "tAmount",
							"type": "uint256"
						},
						{
							"internalType": "bool",
							"name": "deductTransferFee",
							"type": "bool"
						}
					],
					"name": "reflectionFromToken",
					"outputs": [
						{
							"internalType": "uint256",
							"name": "",
							"type": "uint256"
						}
					],
					"stateMutability": "view",
					"type": "function"
				},
				{
					"inputs": [
						{
							"internalType": "address",
							"name": "account",
							"type": "address"
						}
					],
					"name": "removeBlacklist",
					"outputs": [],
					"stateMutability": "nonpayable",
					"type": "function"
				},
				{
					"inputs": [],
					"name": "renounceOwnership",
					"outputs": [],
					"stateMutability": "nonpayable",
					"type": "function"
				},
				{
					"inputs": [],
					"name": "sellBurnTaxPer",
					"outputs": [
						{
							"internalType": "uint256",
							"name": "",
							"type": "uint256"
						}
					],
					"stateMutability": "view",
					"type": "function"
				},
				{
					"inputs": [],
					"name": "sellCoinWalletTaxPer",
					"outputs": [
						{
							"internalType": "uint256",
							"name": "",
							"type": "uint256"
						}
					],
					"stateMutability": "view",
					"type": "function"
				},
				{
					"inputs": [],
					"name": "sellLiquidityTaxPer",
					"outputs": [
						{
							"internalType": "uint256",
							"name": "",
							"type": "uint256"
						}
					],
					"stateMutability": "view",
					"type": "function"
				},
				{
					"inputs": [],
					"name": "sellReflectionTax",
					"outputs": [
						{
							"internalType": "uint256",
							"name": "",
							"type": "uint256"
						}
					],
					"stateMutability": "view",
					"type": "function"
				},
				{
					"inputs": [
						{
							"internalType": "address",
							"name": "wallet",
							"type": "address"
						}
					],
					"name": "setFundWallet",
					"outputs": [],
					"stateMutability": "nonpayable",
					"type": "function"
				},
				{
					"inputs": [
						{
							"internalType": "bool",
							"name": "enabled",
							"type": "bool"
						}
					],
					"name": "setSwapAndLiquifyEnabled",
					"outputs": [],
					"stateMutability": "nonpayable",
					"type": "function"
				},
				{
					"inputs": [],
					"name": "startTrading",
					"outputs": [],
					"stateMutability": "nonpayable",
					"type": "function"
				},
				{
					"inputs": [],
					"name": "swapAndLiquifyEnabled",
					"outputs": [
						{
							"internalType": "bool",
							"name": "",
							"type": "bool"
						}
					],
					"stateMutability": "view",
					"type": "function"
				},
				{
					"inputs": [],
					"name": "symbol",
					"outputs": [
						{
							"internalType": "string",
							"name": "",
							"type": "string"
						}
					],
					"stateMutability": "pure",
					"type": "function"
				},
				{
					"inputs": [
						{
							"internalType": "uint256",
							"name": "rAmount",
							"type": "uint256"
						}
					],
					"name": "tokenFromReflection",
					"outputs": [
						{
							"internalType": "uint256",
							"name": "",
							"type": "uint256"
						}
					],
					"stateMutability": "view",
					"type": "function"
				},
				{
					"inputs": [],
					"name": "totalFees",
					"outputs": [
						{
							"internalType": "uint256",
							"name": "",
							"type": "uint256"
						}
					],
					"stateMutability": "view",
					"type": "function"
				},
				{
					"inputs": [],
					"name": "totalSupply",
					"outputs": [
						{
							"internalType": "uint256",
							"name": "",
							"type": "uint256"
						}
					],
					"stateMutability": "view",
					"type": "function"
				},
				{
					"inputs": [],
					"name": "tradeEnabled",
					"outputs": [
						{
							"internalType": "bool",
							"name": "",
							"type": "bool"
						}
					],
					"stateMutability": "view",
					"type": "function"
				},
				{
					"inputs": [
						{
							"internalType": "address",
							"name": "recipient",
							"type": "address"
						},
						{
							"internalType": "uint256",
							"name": "amount",
							"type": "uint256"
						}
					],
					"name": "transfer",
					"outputs": [
						{
							"internalType": "bool",
							"name": "",
							"type": "bool"
						}
					],
					"stateMutability": "nonpayable",
					"type": "function"
				},
				{
					"inputs": [
						{
							"internalType": "address",
							"name": "sender",
							"type": "address"
						},
						{
							"internalType": "address",
							"name": "recipient",
							"type": "address"
						},
						{
							"internalType": "uint256",
							"name": "amount",
							"type": "uint256"
						}
					],
					"name": "transferFrom",
					"outputs": [
						{
							"internalType": "bool",
							"name": "",
							"type": "bool"
						}
					],
					"stateMutability": "nonpayable",
					"type": "function"
				},
				{
					"inputs": [
						{
							"internalType": "address",
							"name": "newOwner",
							"type": "address"
						}
					],
					"name": "transferOwnership",
					"outputs": [],
					"stateMutability": "nonpayable",
					"type": "function"
				},
				{
					"inputs": [],
					"name": "uniswapV2Pair",
					"outputs": [
						{
							"internalType": "address",
							"name": "",
							"type": "address"
						}
					],
					"stateMutability": "view",
					"type": "function"
				},
				{
					"inputs": [],
					"name": "uniswapV2Router",
					"outputs": [
						{
							"internalType": "contract IUniswapV2Router02",
							"name": "",
							"type": "address"
						}
					],
					"stateMutability": "view",
					"type": "function"
				},
				{
					"inputs": [
						{
							"internalType": "uint256",
							"name": "reflectionPercent",
							"type": "uint256"
						},
						{
							"internalType": "uint256",
							"name": "coinOperartionPer",
							"type": "uint256"
						},
						{
							"internalType": "uint256",
							"name": "liquidityTaxPer",
							"type": "uint256"
						},
						{
							"internalType": "uint256",
							"name": "burnTaxPer",
							"type": "uint256"
						}
					],
					"name": "updateBuyTaxPer",
					"outputs": [],
					"stateMutability": "nonpayable",
					"type": "function"
				},
				{
					"inputs": [
						{
							"internalType": "uint256",
							"name": "reflectionPercent",
							"type": "uint256"
						},
						{
							"internalType": "uint256",
							"name": "coinOperartionPer",
							"type": "uint256"
						},
						{
							"internalType": "uint256",
							"name": "liquidityTaxPer",
							"type": "uint256"
						},
						{
							"internalType": "uint256",
							"name": "burnTaxPer",
							"type": "uint256"
						}
					],
					"name": "updateSellTaxPer",
					"outputs": [],
					"stateMutability": "nonpayable",
					"type": "function"
				},
				{
					"inputs": [
						{
							"internalType": "uint256",
							"name": "amount",
							"type": "uint256"
						}
					],
					"name": "updateThreshold",
					"outputs": [],
					"stateMutability": "nonpayable",
					"type": "function"
				},
				{
					"stateMutability": "payable",
					"type": "receive"
				}
			],
			"devdoc": {
				"events": {
					"Approval(address,address,uint256)": {
						"details": "Emitted when the allowance of a `spender` for an `owner` is set by a call to {approve}. `value` is the new allowance."
					},
					"Transfer(address,address,uint256)": {
						"details": "Emitted when `value` tokens are moved from one account (`from`) to another (`to`). Note that `value` may be zero."
					}
				},
				"kind": "dev",
				"methods": {
					"addBlacklist(address)": {
						"details": "Only callable by the owner of the contract.",
						"params": {
							"account": "The address to be blacklisted."
						}
					},
					"allowance(address,address)": {
						"details": "This function returns the current allowance set for the specified spender to spend tokens from the specified owner's account.",
						"params": {
							"owner": "The address of the owner whose allowance is being queried.",
							"spender": "The address of the spender for whom the allowance is queried."
						},
						"returns": {
							"_0": "The remaining allowance for the specified spender to spend tokens on behalf of the owner."
						}
					},
					"approve(address,uint256)": {
						"details": "This function sets or updates the allowance for a spender to spend tokens from the owner's account. If successful, it returns true.",
						"params": {
							"amount": "The amount of tokens to approve for spending.",
							"spender": "The address of the spender to be approved."
						},
						"returns": {
							"_0": "A boolean indicating the success of the approval operation."
						}
					},
					"balanceOf(address)": {
						"details": "This function returns the token balance of the specified account. If the account is excluded, it directly returns the token balance. If the account is not excluded, it converts the reflection balance to token balance using the current rate.",
						"params": {
							"account": "The address of the account whose token balance is being queried."
						},
						"returns": {
							"_0": "The token balance of the specified account."
						}
					},
					"constructor": {
						"details": "This constructor sets initial values and configures the contract.",
						"params": {
							"wallet": "The address where funds will be sent."
						}
					},
					"decimals()": {
						"details": "This function returns the number of decimal places used to represent the token balances. It is commonly used to interpret the token amounts correctly in user interfaces.",
						"returns": {
							"_0": "The number of decimal places used in the token representation."
						}
					},
					"decreaseAllowance(address,uint256)": {
						"details": "This function decreases the allowance for the specified spender by the given value. It ensures that the allowance does not go below zero. If successful, it returns true.",
						"params": {
							"spender": "The address of the spender whose allowance is being reduced.",
							"subtractedValue": "The amount by which to reduce the allowance."
						},
						"returns": {
							"_0": "A boolean indicating the success of the operation."
						}
					},
					"deliver(uint256)": {
						"details": "This function is typically used to convert a portion of tokens into reflections and add them to a reward pool. Excluded addresses cannot call this function.",
						"params": {
							"tAmount": "The amount of tokens to be converted and added to reflections."
						}
					},
					"excludeFromFee(address)": {
						"details": "Transaction fees are often applied in decentralized finance (DeFi) projects to support various mechanisms like liquidity provision, rewards, or token burns.",
						"params": {
							"account": "The address to exclude from transaction fees."
						}
					},
					"excludeFromReward(address)": {
						"details": "Reflections are often used in tokenomics to distribute rewards to holders. This function excludes the specified address from receiving reflections.",
						"params": {
							"account": "The address to be excluded from earning reflections."
						}
					},
					"includeInFee(address)": {
						"details": "Transaction fees are often applied in decentralized finance (DeFi) projects to support various mechanisms like liquidity provision, rewards, or token burns.",
						"params": {
							"account": "The address to include in transaction fees."
						}
					},
					"includeInReward(address)": {
						"details": "External function for including an account in the reward distribution.",
						"params": {
							"account": "The address to be included in the reward distribution.  The function can only be called by the owner of the contract. Requires that the specified account is currently excluded. Iterates through the list of excluded accounts, finds the specified account, and removes it from the exclusion list. Resets the token balance of the specified account to 0 and updates the exclusion status. "
						}
					},
					"increaseAllowance(address,uint256)": {
						"details": "This function increases the allowance for the specified spender by the given value. It ensures that the updated allowance is correctly set. If successful, it returns true.",
						"params": {
							"addedValue": "The amount by which to increase the allowance.",
							"spender": "The address of the spender whose allowance is being increased."
						},
						"returns": {
							"_0": "A boolean indicating the success of the operation."
						}
					},
					"isExcludedFromReward(address)": {
						"details": "Excluded addresses do not receive reflections in certain tokenomics designs. This function returns true if the address is excluded, and false otherwise.",
						"params": {
							"account": "The address to check for exclusion from reflections."
						},
						"returns": {
							"_0": "A boolean indicating whether the address is excluded from earning reflections."
						}
					},
					"name()": {
						"details": "This function returns the name of the token, which is often used for identification. It is commonly displayed in user interfaces and provides a human-readable name for the token.",
						"returns": {
							"_0": "The name of the token."
						}
					},
					"owner()": {
						"details": "Returns the address of the current owner."
					},
					"reflectionFromToken(uint256,bool)": {
						"details": "Reflections are often used in tokenomics to calculate rewards or balances. This function converts a token amount to its corresponding reflection amount based on the current rate. Optionally, it deducts the transfer fee from the calculation.",
						"params": {
							"deductTransferFee": "A boolean indicating whether to deduct the transfer fee from the calculation.",
							"tAmount": "The token amount to be converted to reflections."
						},
						"returns": {
							"_0": "The equivalent reflection amount corresponding to the given token amount."
						}
					},
					"removeBlacklist(address)": {
						"details": "Only callable by the owner of the contract.",
						"params": {
							"account": "The address to be removed from the blacklist."
						}
					},
					"renounceOwnership()": {
						"details": "Leaves the contract without owner. It will not be possible to call `onlyOwner` functions anymore. Can only be called by the current owner. NOTE: Renouncing ownership will leave the contract without an owner, thereby removing any functionality that is only available to the owner."
					},
					"setFundWallet(address)": {
						"details": "Sets the address of the fund wallet.",
						"params": {
							"wallet": "The new address to be set as the fund wallet. Requirements: - Only the contract owner can call this function. Emits a {FundWalletChange} event with the updated fund wallet address on successful execution."
						}
					},
					"setSwapAndLiquifyEnabled(bool)": {
						"details": "The swap and liquify feature is a mechanism often used in decentralized finance (DeFi) projects to automatically swap a portion of tokens for liquidity and add them to a liquidity pool.",
						"params": {
							"enabled": "A boolean indicating whether to enable (true) or disable (false) the feature."
						}
					},
					"startTrading()": {
						"details": "Only callable by the owner of the contract."
					},
					"symbol()": {
						"details": "This function returns the symbol or ticker that represents the token. It is commonly used for identifying the token in user interfaces and exchanges.",
						"returns": {
							"_0": "The symbol or ticker of the token."
						}
					},
					"tokenFromReflection(uint256)": {
						"details": "Reflections are often used in tokenomics to calculate rewards or balances. This function converts a reflection amount to its corresponding token amount based on the current rate.",
						"params": {
							"rAmount": "The reflection amount to be converted to tokens."
						},
						"returns": {
							"_0": "The equivalent token amount corresponding to the given reflection amount."
						}
					},
					"totalFees()": {
						"details": "This function returns the cumulative sum of fees collected during transactions. The fees are often used for various purposes like liquidity provision, rewards, or burns.",
						"returns": {
							"_0": "The total amount of fees collected in tokens."
						}
					},
					"totalSupply()": {
						"details": "This function returns the total supply of tokens in circulation.",
						"returns": {
							"_0": "The total supply of tokens."
						}
					},
					"transfer(address,uint256)": {
						"details": "This function transfers tokens from the sender's account to the specified recipient. If successful, it returns true.",
						"params": {
							"amount": "The amount of tokens to be transferred.",
							"recipient": "The address of the recipient to whom tokens are being transferred."
						},
						"returns": {
							"_0": "A boolean indicating the success of the transfer operation."
						}
					},
					"transferFrom(address,address,uint256)": {
						"details": "This function allows a designated spender to transfer tokens from the sender's account to the recipient's account. It also ensures that the allowance is updated correctly. If successful, it returns true.",
						"params": {
							"amount": "The amount of tokens to be transferred.",
							"recipient": "The address to which tokens are being transferred.",
							"sender": "The address from which tokens are being transferred."
						},
						"returns": {
							"_0": "A boolean indicating the success of the transfer operation."
						}
					},
					"transferOwnership(address)": {
						"details": "Transfers ownership of the contract to a new account (`newOwner`). Can only be called by the current owner."
					},
					"updateBuyTaxPer(uint256,uint256,uint256,uint256)": {
						"details": "This function can only be called by the contract owner.The individual of all tax percentages cannot exceed 6%. Note: Only whole numbers are accepted for each tax percentage, not fractions.",
						"params": {
							"burnTaxPer": "Percentage of tax allocated to burning on buy transactions.",
							"coinOperartionPer": "Percentage of tax allocated to coin operation on buy transactions.",
							"liquidityTaxPer": "Percentage of tax allocated to liquidity on buy transactions.",
							"reflectionPercent": "Percentage of reflection tax on buy transactions."
						}
					},
					"updateSellTaxPer(uint256,uint256,uint256,uint256)": {
						"details": "This function can only be called by the contract owner.The individual of all tax percentages cannot exceed 6%. Note: Only whole numbers are accepted for each tax percentage, not fractions.",
						"params": {
							"burnTaxPer": "Percentage of tax allocated to burning on sell transactions.",
							"coinOperartionPer": "Percentage of tax allocated to coin operation on sell transactions.",
							"liquidityTaxPer": "Percentage of tax allocated to liquidity on sell transactions.",
							"reflectionPercent": "Percentage of reflection tax on sell transactions."
						}
					},
					"updateThreshold(uint256)": {
						"details": "External function for updating the threshold amount required for triggering liquidity addition.",
						"params": {
							"amount": "The new threshold amount.  The function can only be called by the owner of the contract. Requires that the provided threshold amount (amount) is greater than 0. Updates the numTokensSellToAddToLiquidity with the new threshold amount."
						}
					}
				},
				"version": 1
			},
			"evm": {
				"assembly": "    /* \"EAGLEAI/EagleAI.sol\":12999:64439  contract EAGLEAI is Context, IERC20, Ownable {... */\n  mstore(0x40, 0xc0)\n    /* \"EAGLEAI/EagleAI.sol\":13508:13527  10 * 10**7 * 10**18 */\n  0x52b7d2dcc80cd2e4000000\n    /* \"EAGLEAI/EagleAI.sol\":13482:13527  uint256 private _tTotal = 10 * 10**7 * 10**18 */\n  0x09\n  dup2\n  swap1\n  sstore\n    /* \"EAGLEAI/EagleAI.sol\":13568:13581  MAX % _tTotal */\n  tag_1\n  swap1\n  not(0x00)\n  tag_2\n  jump\t// in\ntag_1:\n    /* \"EAGLEAI/EagleAI.sol\":13561:13582  MAX - (MAX % _tTotal) */\n  tag_3\n  swap1\n  not(0x00)\n  tag_4\n  jump\t// in\ntag_3:\n    /* \"EAGLEAI/EagleAI.sol\":13534:13583  uint256 private _rTotal = (MAX - (MAX % _tTotal)) */\n  0x0a\n  sstore\n    /* \"EAGLEAI/EagleAI.sol\":13907:13947  bool public swapAndLiquifyEnabled = true */\n  0x0c\n  dup1\n  sload\n  not(0xff00)\n  and\n  0x0100\n  or\n  swap1\n  sstore\n    /* \"EAGLEAI/EagleAI.sol\":14039:14057  1 * 10**2 * 10**18 */\n  0x056bc75e2d63100000\n    /* \"EAGLEAI/EagleAI.sol\":13991:14057  uint256 private numTokensSellToAddToLiquidity = 1 * 10**2 * 10**18 */\n  0x0d\n  sstore\n    /* \"EAGLEAI/EagleAI.sol\":13943:13947  true */\n  0x01\n    /* \"EAGLEAI/EagleAI.sol\":14202:14235  uint256 public buyReflectionTax=1 */\n  0x12\n  dup2\n  swap1\n  sstore\n    /* \"EAGLEAI/EagleAI.sol\":14242:14278  uint256 public buyCoinWalletTaxPer=1 */\n  0x13\n  dup2\n  swap1\n  sstore\n    /* \"EAGLEAI/EagleAI.sol\":14285:14320  uint256 public buyLiquidityTaxPer=1 */\n  0x14\n  dup2\n  swap1\n  sstore\n    /* \"EAGLEAI/EagleAI.sol\":13907:13947  bool public swapAndLiquifyEnabled = true */\n  0x00\n    /* \"EAGLEAI/EagleAI.sol\":14327:14358  uint256 public buyBurnTaxPer= 0 */\n  0x15\n  sstore\n    /* \"EAGLEAI/EagleAI.sol\":14425:14426  2 */\n  0x02\n    /* \"EAGLEAI/EagleAI.sol\":14392:14426  uint256 public sellReflectionTax=2 */\n  0x16\n  dup2\n  swap1\n  sstore\n    /* \"EAGLEAI/EagleAI.sol\":14433:14470  uint256 public sellCoinWalletTaxPer=1 */\n  0x17\n  dup3\n  swap1\n  sstore\n    /* \"EAGLEAI/EagleAI.sol\":14477:14513  uint256 public sellLiquidityTaxPer=2 */\n  0x18\n  sstore\n    /* \"EAGLEAI/EagleAI.sol\":14520:14552  uint256 public sellBurnTaxPer= 1 */\n  0x19\n  sstore\n    /* \"EAGLEAI/EagleAI.sol\":15977:16945  constructor (address wallet)  {... */\n  callvalue\n  dup1\n  iszero\n  tag_5\n  jumpi\n  0x00\n  dup1\n  revert\ntag_5:\n  pop\n  mload(0x40)\n  sub(codesize, bytecodeSize)\n  dup1\n  bytecodeSize\n  dup4\n  codecopy\n  dup2\n  add\n  0x40\n  dup2\n  swap1\n  mstore\n  tag_6\n  swap2\n  tag_7\n  jump\t// in\ntag_6:\n    /* \"EAGLEAI/EagleAI.sol\":5771:5788  address msgSender */\n  0x00\n    /* \"EAGLEAI/EagleAI.sol\":5814:5832  _owner = msgSender */\n  dup1\n  sload\n  not(sub(shl(0xa0, 0x01), 0x01))\n  and\n    /* \"EAGLEAI/EagleAI.sol\":4607:4617  msg.sender */\n  caller\n    /* \"EAGLEAI/EagleAI.sol\":5814:5832  _owner = msgSender */\n  swap1\n  dup2\n  or\n  dup3\n  sstore\n    /* \"EAGLEAI/EagleAI.sol\":5848:5891  OwnershipTransferred(address(0), msgSender) */\n  mload(0x40)\n    /* \"EAGLEAI/EagleAI.sol\":4607:4617  msg.sender */\n  swap1\n  swap2\n  dup3\n  swap2\n    /* \"EAGLEAI/EagleAI.sol\":5848:5891  OwnershipTransferred(address(0), msgSender) */\n  0x8be0079c531659141344cd1fd0a4f28419497f9722a3daafe3b4186f6b6457e0\n  swap1\n    /* \"EAGLEAI/EagleAI.sol\":5771:5788  address msgSender */\n  dup3\n  swap1\n    /* \"EAGLEAI/EagleAI.sol\":5848:5891  OwnershipTransferred(address(0), msgSender) */\n  log3\n  pop\n  sub(shl(0xa0, 0x01), 0x01)\n    /* \"EAGLEAI/EagleAI.sol\":16026:16046  wallet != address(0) */\n  dup2\n  and\n    /* \"EAGLEAI/EagleAI.sol\":16018:16077  require(wallet != address(0),\"Fund wallet can not be zero\") */\n  tag_14\n  jumpi\n  mload(0x40)\n  shl(0xe5, 0x461bcd)\n  dup2\n  mstore\n    /* \"#utility.yul\":955:957   */\n  0x20\n    /* \"EAGLEAI/EagleAI.sol\":16018:16077  require(wallet != address(0),\"Fund wallet can not be zero\") */\n  0x04\n  dup3\n  add\n    /* \"#utility.yul\":937:958   */\n  mstore\n    /* \"#utility.yul\":994:996   */\n  0x1b\n    /* \"#utility.yul\":974:992   */\n  0x24\n  dup3\n  add\n    /* \"#utility.yul\":967:997   */\n  mstore\n    /* \"#utility.yul\":1033:1062   */\n  0x46756e642077616c6c65742063616e206e6f74206265207a65726f0000000000\n    /* \"#utility.yul\":1013:1031   */\n  0x44\n  dup3\n  add\n    /* \"#utility.yul\":1006:1063   */\n  mstore\n    /* \"#utility.yul\":1080:1098   */\n  0x64\n  add\n    /* \"EAGLEAI/EagleAI.sol\":16018:16077  require(wallet != address(0),\"Fund wallet can not be zero\") */\n  mload(0x40)\n  dup1\n  swap2\n  sub\n  swap1\n  revert\ntag_14:\n    /* \"EAGLEAI/EagleAI.sol\":16112:16119  _rTotal */\n  sload(0x0a)\n    /* \"EAGLEAI/EagleAI.sol\":4607:4617  msg.sender */\n  caller\n    /* \"EAGLEAI/EagleAI.sol\":16088:16109  _rOwned[_msgSender()] */\n  0x00\n  swap1\n  dup2\n  mstore\n    /* \"EAGLEAI/EagleAI.sol\":16088:16095  _rOwned */\n  0x02\n    /* \"EAGLEAI/EagleAI.sol\":16088:16109  _rOwned[_msgSender()] */\n  0x20\n  swap1\n  dup2\n  mstore\n  0x40\n  swap2\n  dup3\n  swap1\n  keccak256\n    /* \"EAGLEAI/EagleAI.sol\":16088:16119  _rOwned[_msgSender()] = _rTotal */\n  swap3\n  swap1\n  swap3\n  sstore\n    /* \"EAGLEAI/EagleAI.sol\":16130:16140  fundWallet */\n  0x1a\n    /* \"EAGLEAI/EagleAI.sol\":16130:16149  fundWallet = wallet */\n  dup1\n  sload\n  not(sub(shl(0xa0, 0x01), 0x01))\n  and\n  sub(shl(0xa0, 0x01), 0x01)\n  dup6\n  and\n  or\n  swap1\n  sstore\n    /* \"EAGLEAI/EagleAI.sol\":16520:16546  _uniswapV2Router.factory() */\n  dup1\n  mload\n  shl(0xe0, 0xc45a0155)\n  dup2\n  mstore\n  swap1\n  mload\n    /* \"EAGLEAI/EagleAI.sol\":16360:16402  0xD99D1c33F9fC3444f8101754aBC46c52416550D1 */\n  0xd99d1c33f9fc3444f8101754abc46c52416550d1\n  swap3\n  dup4\n  swap3\n    /* \"EAGLEAI/EagleAI.sol\":16520:16544  _uniswapV2Router.factory */\n  0xc45a0155\n  swap3\n    /* \"EAGLEAI/EagleAI.sol\":16520:16546  _uniswapV2Router.factory() */\n  0x04\n  dup1\n  dup4\n  add\n  swap4\n    /* \"EAGLEAI/EagleAI.sol\":16088:16109  _rOwned[_msgSender()] */\n  swap3\n    /* \"EAGLEAI/EagleAI.sol\":16520:16546  _uniswapV2Router.factory() */\n  dup3\n  swap1\n  sub\n  add\n  dup2\n    /* \"EAGLEAI/EagleAI.sol\":16360:16402  0xD99D1c33F9fC3444f8101754aBC46c52416550D1 */\n  dup7\n    /* \"EAGLEAI/EagleAI.sol\":16520:16546  _uniswapV2Router.factory() */\n  gas\n  staticcall\n  iszero\n  dup1\n  iszero\n  tag_19\n  jumpi\n  returndatasize\n  0x00\n  dup1\n  returndatacopy\n  revert(0x00, returndatasize)\ntag_19:\n  pop\n  pop\n  pop\n  pop\n  mload(0x40)\n  returndatasize\n  not(0x1f)\n  0x1f\n  dup3\n  add\n  and\n  dup3\n  add\n  dup1\n  0x40\n  mstore\n  pop\n  dup2\n  add\n  swap1\n  tag_20\n  swap2\n  swap1\n  tag_7\n  jump\t// in\ntag_20:\n  sub(shl(0xa0, 0x01), 0x01)\n    /* \"EAGLEAI/EagleAI.sol\":16502:16572  IUniswapV2Factory(_uniswapV2Router.factory())... */\n  and\n  0xc9c65396\n    /* \"EAGLEAI/EagleAI.sol\":16581:16585  this */\n  address\n    /* \"EAGLEAI/EagleAI.sol\":16588:16604  _uniswapV2Router */\n  dup4\n  sub(shl(0xa0, 0x01), 0x01)\n    /* \"EAGLEAI/EagleAI.sol\":16588:16609  _uniswapV2Router.WETH */\n  and\n  0xad5c4648\n    /* \"EAGLEAI/EagleAI.sol\":16588:16611  _uniswapV2Router.WETH() */\n  mload(0x40)\n  dup2\n  0xffffffff\n  and\n  0xe0\n  shl\n  dup2\n  mstore\n  0x04\n  add\n  0x20\n  mload(0x40)\n  dup1\n  dup4\n  sub\n  dup2\n  dup7\n  gas\n  staticcall\n  iszero\n  dup1\n  iszero\n  tag_22\n  jumpi\n  returndatasize\n  0x00\n  dup1\n  returndatacopy\n  revert(0x00, returndatasize)\ntag_22:\n  pop\n  pop\n  pop\n  pop\n  mload(0x40)\n  returndatasize\n  not(0x1f)\n  0x1f\n  dup3\n  add\n  and\n  dup3\n  add\n  dup1\n  0x40\n  mstore\n  pop\n  dup2\n  add\n  swap1\n  tag_23\n  swap2\n  swap1\n  tag_7\n  jump\t// in\ntag_23:\n    /* \"EAGLEAI/EagleAI.sol\":16502:16612  IUniswapV2Factory(_uniswapV2Router.factory())... */\n  mload(0x40)\n  not(sub(shl(0xe0, 0x01), 0x01))\n  0xe0\n  dup6\n  swap1\n  shl\n  and\n  dup2\n  mstore\n  sub(shl(0xa0, 0x01), 0x01)\n    /* \"#utility.yul\":1339:1354   */\n  swap3\n  dup4\n  and\n    /* \"EAGLEAI/EagleAI.sol\":16502:16612  IUniswapV2Factory(_uniswapV2Router.factory())... */\n  0x04\n  dup3\n  add\n    /* \"#utility.yul\":1321:1355   */\n  mstore\n    /* \"#utility.yul\":1391:1406   */\n  swap2\n  and\n    /* \"#utility.yul\":1371:1389   */\n  0x24\n  dup3\n  add\n    /* \"#utility.yul\":1364:1407   */\n  mstore\n    /* \"#utility.yul\":1256:1274   */\n  0x44\n  add\n    /* \"EAGLEAI/EagleAI.sol\":16502:16612  IUniswapV2Factory(_uniswapV2Router.factory())... */\n  0x20\n  mload(0x40)\n  dup1\n  dup4\n  sub\n  dup2\n  0x00\n  dup8\n  gas\n  call\n  iszero\n  dup1\n  iszero\n  tag_27\n  jumpi\n  returndatasize\n  0x00\n  dup1\n  returndatacopy\n  revert(0x00, returndatasize)\ntag_27:\n  pop\n  pop\n  pop\n  pop\n  mload(0x40)\n  returndatasize\n  not(0x1f)\n  0x1f\n  dup3\n  add\n  and\n  dup3\n  add\n  dup1\n  0x40\n  mstore\n  pop\n  dup2\n  add\n  swap1\n  tag_28\n  swap2\n  swap1\n  tag_7\n  jump\t// in\ntag_28:\n  sub(shl(0xa0, 0x01), 0x01)\n    /* \"EAGLEAI/EagleAI.sol\":16486:16612  uniswapV2Pair = IUniswapV2Factory(_uniswapV2Router.factory())... */\n  swap1\n  dup2\n  and\n  0xa0\n  mstore\n    /* \"EAGLEAI/EagleAI.sol\":16676:16710  uniswapV2Router = _uniswapV2Router */\n  dup2\n  and\n  0x80\n  mstore\n    /* \"EAGLEAI/EagleAI.sol\":16813:16817  true */\n  0x01\n    /* \"EAGLEAI/EagleAI.sol\":16783:16801  _isExcludedFromFee */\n  0x06\n    /* \"EAGLEAI/EagleAI.sol\":16783:16810  _isExcludedFromFee[owner()] */\n  0x00\n    /* \"EAGLEAI/EagleAI.sol\":16802:16809  owner() */\n  tag_29\n    /* \"EAGLEAI/EagleAI.sol\":6018:6025  address */\n  0x00\n    /* \"EAGLEAI/EagleAI.sol\":6045:6051  _owner */\n  sload\n  sub(shl(0xa0, 0x01), 0x01)\n  and\n  swap1\n    /* \"EAGLEAI/EagleAI.sol\":5980:6059  function owner() public view returns (address) {... */\n  jump\n    /* \"EAGLEAI/EagleAI.sol\":16802:16809  owner() */\ntag_29:\n  sub(shl(0xa0, 0x01), 0x01)\n    /* \"EAGLEAI/EagleAI.sol\":16783:16810  _isExcludedFromFee[owner()] */\n  and\n  dup2\n  mstore\n  0x20\n  dup1\n  dup3\n  add\n  swap3\n  swap1\n  swap3\n  mstore\n  0x40\n  swap1\n  dup2\n  add\n  0x00\n  swap1\n  dup2\n  keccak256\n    /* \"EAGLEAI/EagleAI.sol\":16783:16817  _isExcludedFromFee[owner()] = true */\n  dup1\n  sload\n  swap5\n  iszero\n  iszero\n  not(0xff)\n  swap6\n  dup7\n  and\n  or\n  swap1\n  sstore\n    /* \"EAGLEAI/EagleAI.sol\":16855:16859  this */\n  address\n    /* \"EAGLEAI/EagleAI.sol\":16828:16861  _isExcludedFromFee[address(this)] */\n  dup2\n  mstore\n    /* \"EAGLEAI/EagleAI.sol\":16828:16846  _isExcludedFromFee */\n  0x06\n    /* \"EAGLEAI/EagleAI.sol\":16828:16861  _isExcludedFromFee[address(this)] */\n  swap1\n  swap3\n  mstore\n  swap1\n  keccak256\n    /* \"EAGLEAI/EagleAI.sol\":16828:16868  _isExcludedFromFee[address(this)] = true */\n  dup1\n  sload\n  swap1\n  swap2\n  and\n    /* \"EAGLEAI/EagleAI.sol\":16783:16817  _isExcludedFromFee[owner()] = true */\n  0x01\n    /* \"EAGLEAI/EagleAI.sol\":16828:16868  _isExcludedFromFee[address(this)] = true */\n  or\n  swap1\n  sstore\n    /* \"EAGLEAI/EagleAI.sol\":16915:16927  _msgSender() */\n  tag_31\n    /* \"EAGLEAI/EagleAI.sol\":4607:4617  msg.sender */\n  caller\n  swap1\n    /* \"EAGLEAI/EagleAI.sol\":4511:4626  function _msgSender() internal view virtual returns (address payable) {... */\n  jump\n    /* \"EAGLEAI/EagleAI.sol\":16915:16927  _msgSender() */\ntag_31:\n  sub(shl(0xa0, 0x01), 0x01)\n    /* \"EAGLEAI/EagleAI.sol\":16894:16937  Transfer(address(0), _msgSender(), _tTotal) */\n  and\n    /* \"EAGLEAI/EagleAI.sol\":16911:16912  0 */\n  0x00\n  sub(shl(0xa0, 0x01), 0x01)\n    /* \"EAGLEAI/EagleAI.sol\":16894:16937  Transfer(address(0), _msgSender(), _tTotal) */\n  and\n  0xddf252ad1be2c89b69c2b068fc378daa952ba7f163c4a11628f55a4df523b3ef\n    /* \"EAGLEAI/EagleAI.sol\":16929:16936  _tTotal */\n  sload(0x09)\n    /* \"EAGLEAI/EagleAI.sol\":16894:16937  Transfer(address(0), _msgSender(), _tTotal) */\n  mload(0x40)\n  tag_32\n  swap2\n    /* \"#utility.yul\":1564:1589   */\n  dup2\n  mstore\n    /* \"#utility.yul\":1552:1554   */\n  0x20\n    /* \"#utility.yul\":1537:1555   */\n  add\n  swap1\n    /* \"#utility.yul\":1418:1595   */\n  jump\n    /* \"EAGLEAI/EagleAI.sol\":16894:16937  Transfer(address(0), _msgSender(), _tTotal) */\ntag_32:\n  mload(0x40)\n  dup1\n  swap2\n  sub\n  swap1\n  log3\n    /* \"EAGLEAI/EagleAI.sol\":16007:16945  {... */\n  pop\n    /* \"EAGLEAI/EagleAI.sol\":15977:16945  constructor (address wallet)  {... */\n  pop\n    /* \"EAGLEAI/EagleAI.sol\":12999:64439  contract EAGLEAI is Context, IERC20, Ownable {... */\n  jump(tag_37)\n    /* \"#utility.yul\":14:223   */\ntag_2:\n    /* \"#utility.yul\":46:47   */\n  0x00\n    /* \"#utility.yul\":72:73   */\n  dup3\n    /* \"#utility.yul\":62:194   */\n  tag_39\n  jumpi\n    /* \"#utility.yul\":116:126   */\n  0x4e487b71\n    /* \"#utility.yul\":111:114   */\n  0xe0\n    /* \"#utility.yul\":107:127   */\n  shl\n    /* \"#utility.yul\":104:105   */\n  0x00\n    /* \"#utility.yul\":97:128   */\n  mstore\n    /* \"#utility.yul\":151:155   */\n  0x12\n    /* \"#utility.yul\":148:149   */\n  0x04\n    /* \"#utility.yul\":141:156   */\n  mstore\n    /* \"#utility.yul\":179:183   */\n  0x24\n    /* \"#utility.yul\":176:177   */\n  0x00\n    /* \"#utility.yul\":169:184   */\n  revert\n    /* \"#utility.yul\":62:194   */\ntag_39:\n  pop\n    /* \"#utility.yul\":208:217   */\n  mod\n  swap1\n    /* \"#utility.yul\":14:223   */\n  jump\t// out\n    /* \"#utility.yul\":228:453   */\ntag_4:\n    /* \"#utility.yul\":295:304   */\n  dup2\n  dup2\n  sub\n    /* \"#utility.yul\":316:327   */\n  dup2\n  dup2\n  gt\n    /* \"#utility.yul\":313:447   */\n  iszero\n  tag_41\n  jumpi\n    /* \"#utility.yul\":369:379   */\n  0x4e487b71\n    /* \"#utility.yul\":364:367   */\n  0xe0\n    /* \"#utility.yul\":360:380   */\n  shl\n    /* \"#utility.yul\":357:358   */\n  0x00\n    /* \"#utility.yul\":350:381   */\n  mstore\n    /* \"#utility.yul\":404:408   */\n  0x11\n    /* \"#utility.yul\":401:402   */\n  0x04\n    /* \"#utility.yul\":394:409   */\n  mstore\n    /* \"#utility.yul\":432:436   */\n  0x24\n    /* \"#utility.yul\":429:430   */\n  0x00\n    /* \"#utility.yul\":422:437   */\n  revert\n    /* \"#utility.yul\":313:447   */\ntag_41:\n    /* \"#utility.yul\":228:453   */\n  swap3\n  swap2\n  pop\n  pop\n  jump\t// out\n    /* \"#utility.yul\":458:748   */\ntag_7:\n    /* \"#utility.yul\":528:534   */\n  0x00\n    /* \"#utility.yul\":581:583   */\n  0x20\n    /* \"#utility.yul\":569:578   */\n  dup3\n    /* \"#utility.yul\":560:567   */\n  dup5\n    /* \"#utility.yul\":556:579   */\n  sub\n    /* \"#utility.yul\":552:584   */\n  slt\n    /* \"#utility.yul\":549:601   */\n  iszero\n  tag_43\n  jumpi\n    /* \"#utility.yul\":597:598   */\n  0x00\n    /* \"#utility.yul\":594:595   */\n  dup1\n    /* \"#utility.yul\":587:599   */\n  revert\n    /* \"#utility.yul\":549:601   */\ntag_43:\n    /* \"#utility.yul\":623:639   */\n  dup2\n  mload\n  sub(shl(0xa0, 0x01), 0x01)\n    /* \"#utility.yul\":668:699   */\n  dup2\n  and\n    /* \"#utility.yul\":658:700   */\n  dup2\n  eq\n    /* \"#utility.yul\":648:718   */\n  tag_44\n  jumpi\n    /* \"#utility.yul\":714:715   */\n  0x00\n    /* \"#utility.yul\":711:712   */\n  dup1\n    /* \"#utility.yul\":704:716   */\n  revert\n    /* \"#utility.yul\":648:718   */\ntag_44:\n    /* \"#utility.yul\":737:742   */\n  swap4\n    /* \"#utility.yul\":458:748   */\n  swap3\n  pop\n  pop\n  pop\n  jump\t// out\n    /* \"#utility.yul\":1418:1595   */\ntag_37:\n    /* \"EAGLEAI/EagleAI.sol\":12999:64439  contract EAGLEAI is Context, IERC20, Ownable {... */\n  mload(0x80)\n  mload(0xa0)\n  codecopy(0x00, dataOffset(sub_0), dataSize(sub_0))\n  0x00\n  assignImmutable(\"0x5d067998675a77797d9e4eec202a19ba43752dfad25ff4a095c1eece7914d0a3\")\n  0x00\n  assignImmutable(\"0xd1bfb39175379108a717b7ef0f82b6e824d30ad965caf5d88e1c0f8ae725e4a0\")\n  return(0x00, dataSize(sub_0))\nstop\n\nsub_0: assembly {\n        /* \"EAGLEAI/EagleAI.sol\":12999:64439  contract EAGLEAI is Context, IERC20, Ownable {... */\n      mstore(0x40, 0x80)\n      jumpi(tag_1, lt(calldatasize, 0x04))\n      shr(0xe0, calldataload(0x00))\n      dup1\n      0x664a1ad6\n      gt\n      tag_50\n      jumpi\n      dup1\n      0xc49b9a80\n      gt\n      tag_51\n      jumpi\n      dup1\n      0xe1eaf3bb\n      gt\n      tag_52\n      jumpi\n      dup1\n      0xe1eaf3bb\n      eq\n      tag_44\n      jumpi\n      dup1\n      0xea204636\n      eq\n      tag_45\n      jumpi\n      dup1\n      0xea2f0b37\n      eq\n      tag_46\n      jumpi\n      dup1\n      0xea7db9e5\n      eq\n      tag_47\n      jumpi\n      dup1\n      0xeb91e651\n      eq\n      tag_48\n      jumpi\n      dup1\n      0xf2fde38b\n      eq\n      tag_49\n      jumpi\n      0x00\n      dup1\n      revert\n    tag_52:\n      dup1\n      0xc49b9a80\n      eq\n      tag_38\n      jumpi\n      dup1\n      0xd621e813\n      eq\n      tag_39\n      jumpi\n      dup1\n      0xd7d7442f\n      eq\n      tag_40\n      jumpi\n      dup1\n      0xdbac26e9\n      eq\n      tag_41\n      jumpi\n      dup1\n      0xdd62ed3e\n      eq\n      tag_42\n      jumpi\n      dup1\n      0xe1662ed3\n      eq\n      tag_43\n      jumpi\n      0x00\n      dup1\n      revert\n    tag_51:\n      dup1\n      0x95d89b41\n      gt\n      tag_53\n      jumpi\n      dup1\n      0x95d89b41\n      eq\n      tag_32\n      jumpi\n      dup1\n      0x9cfe42da\n      eq\n      tag_33\n      jumpi\n      dup1\n      0xa457c2d7\n      eq\n      tag_34\n      jumpi\n      dup1\n      0xa9059cbb\n      eq\n      tag_35\n      jumpi\n      dup1\n      0xb618a70d\n      eq\n      tag_36\n      jumpi\n      dup1\n      0xbdf024ec\n      eq\n      tag_37\n      jumpi\n      0x00\n      dup1\n      revert\n    tag_53:\n      dup1\n      0x664a1ad6\n      eq\n      tag_26\n      jumpi\n      dup1\n      0x67243482\n      eq\n      tag_27\n      jumpi\n      dup1\n      0x70a08231\n      eq\n      tag_28\n      jumpi\n      dup1\n      0x715018a6\n      eq\n      tag_29\n      jumpi\n      dup1\n      0x88f82020\n      eq\n      tag_30\n      jumpi\n      dup1\n      0x8da5cb5b\n      eq\n      tag_31\n      jumpi\n      0x00\n      dup1\n      revert\n    tag_50:\n      dup1\n      0x3685d419\n      gt\n      tag_54\n      jumpi\n      dup1\n      0x49bd5a5e\n      gt\n      tag_55\n      jumpi\n      dup1\n      0x49bd5a5e\n      eq\n      tag_20\n      jumpi\n      dup1\n      0x4a74bb02\n      eq\n      tag_21\n      jumpi\n      dup1\n      0x52390c02\n      eq\n      tag_22\n      jumpi\n      dup1\n      0x5252a228\n      eq\n      tag_23\n      jumpi\n      dup1\n      0x5342acb4\n      eq\n      tag_24\n      jumpi\n      dup1\n      0x55ce3b9a\n      eq\n      tag_25\n      jumpi\n      0x00\n      dup1\n      revert\n    tag_55:\n      dup1\n      0x3685d419\n      eq\n      tag_14\n      jumpi\n      dup1\n      0x39509351\n      eq\n      tag_15\n      jumpi\n      dup1\n      0x3bd5d173\n      eq\n      tag_16\n      jumpi\n      dup1\n      0x437823ec\n      eq\n      tag_17\n      jumpi\n      dup1\n      0x4549b039\n      eq\n      tag_18\n      jumpi\n      dup1\n      0x463db7dd\n      eq\n      tag_19\n      jumpi\n      0x00\n      dup1\n      revert\n    tag_54:\n      dup1\n      0x23b872dd\n      gt\n      tag_56\n      jumpi\n      dup1\n      0x23b872dd\n      eq\n      tag_8\n      jumpi\n      dup1\n      0x281d9a7a\n      eq\n      tag_9\n      jumpi\n      dup1\n      0x293230b8\n      eq\n      tag_10\n      jumpi\n      dup1\n      0x2d5624ed\n      eq\n      tag_11\n      jumpi\n      dup1\n      0x2d838119\n      eq\n      tag_12\n      jumpi\n      dup1\n      0x313ce567\n      eq\n      tag_13\n      jumpi\n      0x00\n      dup1\n      revert\n    tag_56:\n      dup1\n      0x06fdde03\n      eq\n      tag_3\n      jumpi\n      dup1\n      0x095ea7b3\n      eq\n      tag_4\n      jumpi\n      dup1\n      0x13114a9d\n      eq\n      tag_5\n      jumpi\n      dup1\n      0x1694505e\n      eq\n      tag_6\n      jumpi\n      dup1\n      0x18160ddd\n      eq\n      tag_7\n      jumpi\n      0x00\n      dup1\n      revert\n    tag_1:\n      jumpi(tag_2, calldatasize)\n      stop\n    tag_2:\n      0x00\n      dup1\n      revert\n        /* \"EAGLEAI/EagleAI.sol\":17254:17338  function name() external pure returns (string memory) {... */\n    tag_3:\n      callvalue\n      dup1\n      iszero\n      tag_59\n      jumpi\n      0x00\n      dup1\n      revert\n    tag_59:\n      pop\n        /* \"EAGLEAI/EagleAI.sol\":17326:17330  NAME */\n      0x40\n      dup1\n      mload\n      dup1\n      dup3\n      add\n      swap1\n      swap2\n      mstore\n      0x08\n      dup2\n      mstore\n      shl(0xc0, 0x4561676c65204149)\n      0x20\n      dup3\n      add\n      mstore\n        /* \"EAGLEAI/EagleAI.sol\":17254:17338  function name() external pure returns (string memory) {... */\n    tag_60:\n      mload(0x40)\n      tag_62\n      swap2\n      swap1\n      tag_63\n      jump\t// in\n    tag_62:\n      mload(0x40)\n      dup1\n      swap2\n      sub\n      swap1\n      return\n        /* \"EAGLEAI/EagleAI.sol\":21008:21169  function approve(address spender, uint256 amount) public override returns (bool) {... */\n    tag_4:\n      callvalue\n      dup1\n      iszero\n      tag_64\n      jumpi\n      0x00\n      dup1\n      revert\n    tag_64:\n      pop\n      tag_65\n      tag_66\n      calldatasize\n      0x04\n      tag_67\n      jump\t// in\n    tag_66:\n      tag_68\n      jump\t// in\n    tag_65:\n      mload(0x40)\n        /* \"#utility.yul\":1188:1202   */\n      swap1\n      iszero\n        /* \"#utility.yul\":1181:1203   */\n      iszero\n        /* \"#utility.yul\":1163:1204   */\n      dup2\n      mstore\n        /* \"#utility.yul\":1151:1153   */\n      0x20\n        /* \"#utility.yul\":1136:1154   */\n      add\n        /* \"EAGLEAI/EagleAI.sol\":21008:21169  function approve(address spender, uint256 amount) public override returns (bool) {... */\n      tag_62\n        /* \"#utility.yul\":1023:1210   */\n      jump\n        /* \"EAGLEAI/EagleAI.sol\":24463:24552  function totalFees() external view returns (uint256) {... */\n    tag_5:\n      callvalue\n      dup1\n      iszero\n      tag_71\n      jumpi\n      0x00\n      dup1\n      revert\n    tag_71:\n      pop\n        /* \"EAGLEAI/EagleAI.sol\":24534:24544  _tFeeTotal */\n      sload(0x0b)\n        /* \"EAGLEAI/EagleAI.sol\":24463:24552  function totalFees() external view returns (uint256) {... */\n    tag_72:\n      mload(0x40)\n        /* \"#utility.yul\":1361:1386   */\n      swap1\n      dup2\n      mstore\n        /* \"#utility.yul\":1349:1351   */\n      0x20\n        /* \"#utility.yul\":1334:1352   */\n      add\n        /* \"EAGLEAI/EagleAI.sol\":24463:24552  function totalFees() external view returns (uint256) {... */\n      tag_62\n        /* \"#utility.yul\":1215:1392   */\n      jump\n        /* \"EAGLEAI/EagleAI.sol\":13770:13821  IUniswapV2Router02 public immutable uniswapV2Router */\n    tag_6:\n      callvalue\n      dup1\n      iszero\n      tag_76\n      jumpi\n      0x00\n      dup1\n      revert\n    tag_76:\n      pop\n      tag_77\n      immutable(\"0xd1bfb39175379108a717b7ef0f82b6e824d30ad965caf5d88e1c0f8ae725e4a0\")\n      dup2\n      jump\n    tag_77:\n      mload(0x40)\n      sub(shl(0xa0, 0x01), 0x01)\n        /* \"#utility.yul\":1587:1619   */\n      swap1\n      swap2\n      and\n        /* \"#utility.yul\":1569:1620   */\n      dup2\n      mstore\n        /* \"#utility.yul\":1557:1559   */\n      0x20\n        /* \"#utility.yul\":1542:1560   */\n      add\n        /* \"EAGLEAI/EagleAI.sol\":13770:13821  IUniswapV2Router02 public immutable uniswapV2Router */\n      tag_62\n        /* \"#utility.yul\":1397:1626   */\n      jump\n        /* \"EAGLEAI/EagleAI.sol\":18392:18489  function totalSupply() external view override returns (uint256) {... */\n    tag_7:\n      callvalue\n      dup1\n      iszero\n      tag_81\n      jumpi\n      0x00\n      dup1\n      revert\n    tag_81:\n      pop\n        /* \"EAGLEAI/EagleAI.sol\":18474:18481  _tTotal */\n      sload(0x09)\n        /* \"EAGLEAI/EagleAI.sol\":18392:18489  function totalSupply() external view override returns (uint256) {... */\n      jump(tag_72)\n        /* \"EAGLEAI/EagleAI.sol\":21797:22063  function transferFrom(address sender, address recipient, uint256 amount) external override returns (bool) {... */\n    tag_8:\n      callvalue\n      dup1\n      iszero\n      tag_85\n      jumpi\n      0x00\n      dup1\n      revert\n    tag_85:\n      pop\n      tag_65\n      tag_87\n      calldatasize\n      0x04\n      tag_88\n      jump\t// in\n    tag_87:\n      tag_89\n      jump\t// in\n        /* \"EAGLEAI/EagleAI.sol\":14327:14358  uint256 public buyBurnTaxPer= 0 */\n    tag_9:\n      callvalue\n      dup1\n      iszero\n      tag_91\n      jumpi\n      0x00\n      dup1\n      revert\n    tag_91:\n      pop\n      tag_72\n      sload(0x15)\n      dup2\n      jump\n        /* \"EAGLEAI/EagleAI.sol\":46392:46575  function startTrading() external onlyOwner(){... */\n    tag_10:\n      callvalue\n      dup1\n      iszero\n      tag_95\n      jumpi\n      0x00\n      dup1\n      revert\n    tag_95:\n      pop\n      tag_96\n      tag_97\n      jump\t// in\n    tag_96:\n      stop\n        /* \"EAGLEAI/EagleAI.sol\":14520:14552  uint256 public sellBurnTaxPer= 1 */\n    tag_11:\n      callvalue\n      dup1\n      iszero\n      tag_98\n      jumpi\n      0x00\n      dup1\n      revert\n    tag_98:\n      pop\n      tag_72\n      sload(0x19)\n      dup2\n      jump\n        /* \"EAGLEAI/EagleAI.sol\":26844:27094  function tokenFromReflection(uint256 rAmount) public view returns(uint256) {... */\n    tag_12:\n      callvalue\n      dup1\n      iszero\n      tag_102\n      jumpi\n      0x00\n      dup1\n      revert\n    tag_102:\n      pop\n      tag_72\n      tag_104\n      calldatasize\n      0x04\n      tag_105\n      jump\t// in\n    tag_104:\n      tag_106\n      jump\t// in\n        /* \"EAGLEAI/EagleAI.sol\":18110:18194  function decimals() external pure returns (uint8) {... */\n    tag_13:\n      callvalue\n      dup1\n      iszero\n      tag_108\n      jumpi\n      0x00\n      dup1\n      revert\n    tag_108:\n      pop\n      mload(0x40)\n        /* \"EAGLEAI/EagleAI.sol\":13759:13761  18 */\n      0x12\n        /* \"#utility.yul\":2419:2455   */\n      dup2\n      mstore\n        /* \"#utility.yul\":2407:2409   */\n      0x20\n        /* \"#utility.yul\":2392:2410   */\n      add\n        /* \"EAGLEAI/EagleAI.sol\":18110:18194  function decimals() external pure returns (uint8) {... */\n      tag_62\n        /* \"#utility.yul\":2277:2461   */\n      jump\n        /* \"EAGLEAI/EagleAI.sol\":28531:29051  function includeInReward(address account) external onlyOwner() {... */\n    tag_14:\n      callvalue\n      dup1\n      iszero\n      tag_113\n      jumpi\n      0x00\n      dup1\n      revert\n    tag_113:\n      pop\n      tag_96\n      tag_115\n      calldatasize\n      0x04\n      tag_116\n      jump\t// in\n    tag_115:\n      tag_117\n      jump\t// in\n        /* \"EAGLEAI/EagleAI.sol\":22585:22800  function increaseAllowance(address spender, uint256 addedValue) external virtual returns (bool) {... */\n    tag_15:\n      callvalue\n      dup1\n      iszero\n      tag_118\n      jumpi\n      0x00\n      dup1\n      revert\n    tag_118:\n      pop\n      tag_65\n      tag_120\n      calldatasize\n      0x04\n      tag_67\n      jump\t// in\n    tag_120:\n      tag_121\n      jump\t// in\n        /* \"EAGLEAI/EagleAI.sol\":24931:25290  function deliver(uint256 tAmount) external {... */\n    tag_16:\n      callvalue\n      dup1\n      iszero\n      tag_123\n      jumpi\n      0x00\n      dup1\n      revert\n    tag_123:\n      pop\n      tag_96\n      tag_125\n      calldatasize\n      0x04\n      tag_105\n      jump\t// in\n    tag_125:\n      tag_126\n      jump\t// in\n        /* \"EAGLEAI/EagleAI.sol\":31026:31254  function excludeFromFee(address account) external onlyOwner {... */\n    tag_17:\n      callvalue\n      dup1\n      iszero\n      tag_127\n      jumpi\n      0x00\n      dup1\n      revert\n    tag_127:\n      pop\n      tag_96\n      tag_129\n      calldatasize\n      0x04\n      tag_116\n      jump\t// in\n    tag_129:\n      tag_130\n      jump\t// in\n        /* \"EAGLEAI/EagleAI.sol\":25938:26368  function reflectionFromToken(uint256 tAmount, bool deductTransferFee) external view returns(uint256) {... */\n    tag_18:\n      callvalue\n      dup1\n      iszero\n      tag_131\n      jumpi\n      0x00\n      dup1\n      revert\n    tag_131:\n      pop\n      tag_72\n      tag_133\n      calldatasize\n      0x04\n      tag_134\n      jump\t// in\n    tag_133:\n      tag_135\n      jump\t// in\n        /* \"EAGLEAI/EagleAI.sol\":14433:14470  uint256 public sellCoinWalletTaxPer=1 */\n    tag_19:\n      callvalue\n      dup1\n      iszero\n      tag_137\n      jumpi\n      0x00\n      dup1\n      revert\n    tag_137:\n      pop\n      tag_72\n      sload(0x17)\n      dup2\n      jump\n        /* \"EAGLEAI/EagleAI.sol\":13828:13866  address public immutable uniswapV2Pair */\n    tag_20:\n      callvalue\n      dup1\n      iszero\n      tag_141\n      jumpi\n      0x00\n      dup1\n      revert\n    tag_141:\n      pop\n      tag_77\n      immutable(\"0x5d067998675a77797d9e4eec202a19ba43752dfad25ff4a095c1eece7914d0a3\")\n      dup2\n      jump\n        /* \"EAGLEAI/EagleAI.sol\":13907:13947  bool public swapAndLiquifyEnabled = true */\n    tag_21:\n      callvalue\n      dup1\n      iszero\n      tag_146\n      jumpi\n      0x00\n      dup1\n      revert\n    tag_146:\n      pop\n      sload(0x0c)\n      tag_65\n      swap1\n      0x0100\n      swap1\n      div\n      0xff\n      and\n      dup2\n      jump\n        /* \"EAGLEAI/EagleAI.sol\":27453:27831  function excludeFromReward(address account) external onlyOwner() {... */\n    tag_22:\n      callvalue\n      dup1\n      iszero\n      tag_150\n      jumpi\n      0x00\n      dup1\n      revert\n    tag_150:\n      pop\n      tag_96\n      tag_152\n      calldatasize\n      0x04\n      tag_116\n      jump\t// in\n    tag_152:\n      tag_153\n      jump\t// in\n        /* \"EAGLEAI/EagleAI.sol\":14202:14235  uint256 public buyReflectionTax=1 */\n    tag_23:\n      callvalue\n      dup1\n      iszero\n      tag_154\n      jumpi\n      0x00\n      dup1\n      revert\n    tag_154:\n      pop\n      tag_72\n      sload(0x12)\n      dup2\n      jump\n        /* \"EAGLEAI/EagleAI.sol\":45125:45250  function isExcludedFromFee(address account) external view returns(bool) {... */\n    tag_24:\n      callvalue\n      dup1\n      iszero\n      tag_158\n      jumpi\n      0x00\n      dup1\n      revert\n    tag_158:\n      pop\n      tag_65\n      tag_160\n      calldatasize\n      0x04\n      tag_116\n      jump\t// in\n    tag_160:\n      sub(shl(0xa0, 0x01), 0x01)\n        /* \"EAGLEAI/EagleAI.sol\":45215:45242  _isExcludedFromFee[account] */\n      and\n        /* \"EAGLEAI/EagleAI.sol\":45191:45195  bool */\n      0x00\n        /* \"EAGLEAI/EagleAI.sol\":45215:45242  _isExcludedFromFee[account] */\n      swap1\n      dup2\n      mstore\n        /* \"EAGLEAI/EagleAI.sol\":45215:45233  _isExcludedFromFee */\n      0x06\n        /* \"EAGLEAI/EagleAI.sol\":45215:45242  _isExcludedFromFee[account] */\n      0x20\n      mstore\n      0x40\n      swap1\n      keccak256\n      sload\n      0xff\n      and\n      swap1\n        /* \"EAGLEAI/EagleAI.sol\":45125:45250  function isExcludedFromFee(address account) external view returns(bool) {... */\n      jump\n        /* \"EAGLEAI/EagleAI.sol\":32178:32374  function setFundWallet(address wallet) external onlyOwner{... */\n    tag_25:\n      callvalue\n      dup1\n      iszero\n      tag_163\n      jumpi\n      0x00\n      dup1\n      revert\n    tag_163:\n      pop\n      tag_96\n      tag_165\n      calldatasize\n      0x04\n      tag_116\n      jump\t// in\n    tag_165:\n      tag_166\n      jump\t// in\n        /* \"EAGLEAI/EagleAI.sol\":14588:14613  address public fundWallet */\n    tag_26:\n      callvalue\n      dup1\n      iszero\n      tag_167\n      jumpi\n      0x00\n      dup1\n      revert\n    tag_167:\n      pop\n      sload(0x1a)\n      tag_77\n      swap1\n      sub(shl(0xa0, 0x01), 0x01)\n      and\n      dup2\n      jump\n        /* \"EAGLEAI/EagleAI.sol\":52796:53428  function airdrop(address[] calldata addresses, uint[] calldata tokens) external onlyOwner {... */\n    tag_27:\n      callvalue\n      dup1\n      iszero\n      tag_171\n      jumpi\n      0x00\n      dup1\n      revert\n    tag_171:\n      pop\n      tag_96\n      tag_173\n      calldatasize\n      0x04\n      tag_174\n      jump\t// in\n    tag_173:\n      tag_175\n      jump\t// in\n        /* \"EAGLEAI/EagleAI.sol\":18994:19216  function balanceOf(address account) public view override returns (uint256) {... */\n    tag_28:\n      callvalue\n      dup1\n      iszero\n      tag_176\n      jumpi\n      0x00\n      dup1\n      revert\n    tag_176:\n      pop\n      tag_72\n      tag_178\n      calldatasize\n      0x04\n      tag_116\n      jump\t// in\n    tag_178:\n      tag_179\n      jump\t// in\n        /* \"EAGLEAI/EagleAI.sol\":6623:6771  function renounceOwnership() public virtual onlyOwner {... */\n    tag_29:\n      callvalue\n      dup1\n      iszero\n      tag_181\n      jumpi\n      0x00\n      dup1\n      revert\n    tag_181:\n      pop\n      tag_96\n      tag_183\n      jump\t// in\n        /* \"EAGLEAI/EagleAI.sol\":23995:24117  function isExcludedFromReward(address account) external view returns (bool) {... */\n    tag_30:\n      callvalue\n      dup1\n      iszero\n      tag_184\n      jumpi\n      0x00\n      dup1\n      revert\n    tag_184:\n      pop\n      tag_65\n      tag_186\n      calldatasize\n      0x04\n      tag_116\n      jump\t// in\n    tag_186:\n      sub(shl(0xa0, 0x01), 0x01)\n        /* \"EAGLEAI/EagleAI.sol\":24089:24109  _isExcluded[account] */\n      and\n        /* \"EAGLEAI/EagleAI.sol\":24065:24069  bool */\n      0x00\n        /* \"EAGLEAI/EagleAI.sol\":24089:24109  _isExcluded[account] */\n      swap1\n      dup2\n      mstore\n        /* \"EAGLEAI/EagleAI.sol\":24089:24100  _isExcluded */\n      0x07\n        /* \"EAGLEAI/EagleAI.sol\":24089:24109  _isExcluded[account] */\n      0x20\n      mstore\n      0x40\n      swap1\n      keccak256\n      sload\n      0xff\n      and\n      swap1\n        /* \"EAGLEAI/EagleAI.sol\":23995:24117  function isExcludedFromReward(address account) external view returns (bool) {... */\n      jump\n        /* \"EAGLEAI/EagleAI.sol\":5980:6059  function owner() public view returns (address) {... */\n    tag_31:\n      callvalue\n      dup1\n      iszero\n      tag_189\n      jumpi\n      0x00\n      dup1\n      revert\n    tag_189:\n      pop\n        /* \"EAGLEAI/EagleAI.sol\":6018:6025  address */\n      0x00\n        /* \"EAGLEAI/EagleAI.sol\":6045:6051  _owner */\n      sload\n      sub(shl(0xa0, 0x01), 0x01)\n      and\n        /* \"EAGLEAI/EagleAI.sol\":5980:6059  function owner() public view returns (address) {... */\n      jump(tag_77)\n        /* \"EAGLEAI/EagleAI.sol\":17642:17730  function symbol() external pure returns (string memory) {... */\n    tag_32:\n      callvalue\n      dup1\n      iszero\n      tag_193\n      jumpi\n      0x00\n      dup1\n      revert\n    tag_193:\n      pop\n        /* \"EAGLEAI/EagleAI.sol\":17716:17722  SYMBOL */\n      0x40\n      dup1\n      mload\n      dup1\n      dup3\n      add\n      swap1\n      swap2\n      mstore\n      0x03\n      dup2\n      mstore\n      shl(0xe8, 0x454149)\n      0x20\n      dup3\n      add\n      mstore\n        /* \"EAGLEAI/EagleAI.sol\":17642:17730  function symbol() external pure returns (string memory) {... */\n      jump(tag_60)\n        /* \"EAGLEAI/EagleAI.sol\":46762:46979  function addBlacklist(address account) external  onlyOwner {... */\n    tag_33:\n      callvalue\n      dup1\n      iszero\n      tag_197\n      jumpi\n      0x00\n      dup1\n      revert\n    tag_197:\n      pop\n      tag_96\n      tag_199\n      calldatasize\n      0x04\n      tag_116\n      jump\t// in\n    tag_199:\n      tag_200\n      jump\t// in\n        /* \"EAGLEAI/EagleAI.sol\":23319:23544  function decreaseAllowance(address spender, uint256 subtractedValue) external virtual returns (bool) {... */\n    tag_34:\n      callvalue\n      dup1\n      iszero\n      tag_201\n      jumpi\n      0x00\n      dup1\n      revert\n    tag_201:\n      pop\n      tag_65\n      tag_203\n      calldatasize\n      0x04\n      tag_67\n      jump\t// in\n    tag_203:\n      tag_204\n      jump\t// in\n        /* \"EAGLEAI/EagleAI.sol\":19675:19844  function transfer(address recipient, uint256 amount) external override returns (bool) {... */\n    tag_35:\n      callvalue\n      dup1\n      iszero\n      tag_206\n      jumpi\n      0x00\n      dup1\n      revert\n    tag_206:\n      pop\n      tag_65\n      tag_208\n      calldatasize\n      0x04\n      tag_67\n      jump\t// in\n    tag_208:\n      tag_209\n      jump\t// in\n        /* \"EAGLEAI/EagleAI.sol\":49537:50318  function updateSellTaxPer(uint256 reflectionPercent,uint256 coinOperartionPer,uint256 liquidityTaxPer,uint256 burnTaxPer) external onlyOwner {... */\n    tag_36:\n      callvalue\n      dup1\n      iszero\n      tag_211\n      jumpi\n      0x00\n      dup1\n      revert\n    tag_211:\n      pop\n      tag_96\n      tag_213\n      calldatasize\n      0x04\n      tag_214\n      jump\t// in\n    tag_213:\n      tag_215\n      jump\t// in\n        /* \"EAGLEAI/EagleAI.sol\":14477:14513  uint256 public sellLiquidityTaxPer=2 */\n    tag_37:\n      callvalue\n      dup1\n      iszero\n      tag_216\n      jumpi\n      0x00\n      dup1\n      revert\n    tag_216:\n      pop\n      tag_72\n      sload(0x18)\n      dup2\n      jump\n        /* \"EAGLEAI/EagleAI.sol\":32901:33071  function setSwapAndLiquifyEnabled(bool enabled) external onlyOwner {... */\n    tag_38:\n      callvalue\n      dup1\n      iszero\n      tag_220\n      jumpi\n      0x00\n      dup1\n      revert\n    tag_220:\n      pop\n      tag_96\n      tag_222\n      calldatasize\n      0x04\n      tag_223\n      jump\t// in\n    tag_222:\n      tag_224\n      jump\t// in\n        /* \"EAGLEAI/EagleAI.sol\":13954:13978  bool public tradeEnabled */\n    tag_39:\n      callvalue\n      dup1\n      iszero\n      tag_225\n      jumpi\n      0x00\n      dup1\n      revert\n    tag_225:\n      pop\n      sload(0x0c)\n      tag_65\n      swap1\n      0x010000\n      swap1\n      div\n      0xff\n      and\n      dup2\n      jump\n        /* \"EAGLEAI/EagleAI.sol\":33672:33951  function updateThreshold(uint256 amount) external onlyOwner {... */\n    tag_40:\n      callvalue\n      dup1\n      iszero\n      tag_229\n      jumpi\n      0x00\n      dup1\n      revert\n    tag_229:\n      pop\n      tag_96\n      tag_231\n      calldatasize\n      0x04\n      tag_105\n      jump\t// in\n    tag_231:\n      tag_232\n      jump\t// in\n        /* \"EAGLEAI/EagleAI.sol\":13231:13274  mapping(address => bool) public blacklisted */\n    tag_41:\n      callvalue\n      dup1\n      iszero\n      tag_233\n      jumpi\n      0x00\n      dup1\n      revert\n    tag_233:\n      pop\n      tag_65\n      tag_235\n      calldatasize\n      0x04\n      tag_116\n      jump\t// in\n    tag_235:\n      mstore(0x20, 0x05)\n      0x00\n      swap1\n      dup2\n      mstore\n      0x40\n      swap1\n      keccak256\n      sload\n      0xff\n      and\n      dup2\n      jump\n        /* \"EAGLEAI/EagleAI.sol\":20384:20529  function allowance(address owner, address spender) external view override returns (uint256) {... */\n    tag_42:\n      callvalue\n      dup1\n      iszero\n      tag_238\n      jumpi\n      0x00\n      dup1\n      revert\n    tag_238:\n      pop\n      tag_72\n      tag_240\n      calldatasize\n      0x04\n      tag_241\n      jump\t// in\n    tag_240:\n      sub(shl(0xa0, 0x01), 0x01)\n        /* \"EAGLEAI/EagleAI.sol\":20494:20512  _allowances[owner] */\n      swap2\n      dup3\n      and\n        /* \"EAGLEAI/EagleAI.sol\":20467:20474  uint256 */\n      0x00\n        /* \"EAGLEAI/EagleAI.sol\":20494:20512  _allowances[owner] */\n      swap1\n      dup2\n      mstore\n        /* \"EAGLEAI/EagleAI.sol\":20494:20505  _allowances */\n      0x04\n        /* \"EAGLEAI/EagleAI.sol\":20494:20512  _allowances[owner] */\n      0x20\n      swap1\n      dup2\n      mstore\n      0x40\n      dup1\n      dup4\n      keccak256\n        /* \"EAGLEAI/EagleAI.sol\":20494:20521  _allowances[owner][spender] */\n      swap4\n      swap1\n      swap5\n      and\n      dup3\n      mstore\n      swap2\n      swap1\n      swap2\n      mstore\n      keccak256\n      sload\n      swap1\n        /* \"EAGLEAI/EagleAI.sol\":20384:20529  function allowance(address owner, address spender) external view override returns (uint256) {... */\n      jump\n        /* \"EAGLEAI/EagleAI.sol\":14392:14426  uint256 public sellReflectionTax=2 */\n    tag_43:\n      callvalue\n      dup1\n      iszero\n      tag_244\n      jumpi\n      0x00\n      dup1\n      revert\n    tag_244:\n      pop\n      tag_72\n      sload(0x16)\n      dup2\n      jump\n        /* \"EAGLEAI/EagleAI.sol\":14242:14278  uint256 public buyCoinWalletTaxPer=1 */\n    tag_44:\n      callvalue\n      dup1\n      iszero\n      tag_248\n      jumpi\n      0x00\n      dup1\n      revert\n    tag_248:\n      pop\n      tag_72\n      sload(0x13)\n      dup2\n      jump\n        /* \"EAGLEAI/EagleAI.sol\":14285:14320  uint256 public buyLiquidityTaxPer=1 */\n    tag_45:\n      callvalue\n      dup1\n      iszero\n      tag_252\n      jumpi\n      0x00\n      dup1\n      revert\n    tag_252:\n      pop\n      tag_72\n      sload(0x14)\n      dup2\n      jump\n        /* \"EAGLEAI/EagleAI.sol\":31615:31837  function includeInFee(address account) external onlyOwner {... */\n    tag_46:\n      callvalue\n      dup1\n      iszero\n      tag_256\n      jumpi\n      0x00\n      dup1\n      revert\n    tag_256:\n      pop\n      tag_96\n      tag_258\n      calldatasize\n      0x04\n      tag_116\n      jump\t// in\n    tag_258:\n      tag_259\n      jump\t// in\n        /* \"EAGLEAI/EagleAI.sol\":48081:48859  function updateBuyTaxPer(uint256 reflectionPercent,uint256 coinOperartionPer,uint256 liquidityTaxPer,uint256 burnTaxPer) external onlyOwner {... */\n    tag_47:\n      callvalue\n      dup1\n      iszero\n      tag_260\n      jumpi\n      0x00\n      dup1\n      revert\n    tag_260:\n      pop\n      tag_96\n      tag_262\n      calldatasize\n      0x04\n      tag_214\n      jump\t// in\n    tag_262:\n      tag_263\n      jump\t// in\n        /* \"EAGLEAI/EagleAI.sol\":47186:47406  function removeBlacklist(address account) external  onlyOwner {... */\n    tag_48:\n      callvalue\n      dup1\n      iszero\n      tag_264\n      jumpi\n      0x00\n      dup1\n      revert\n    tag_264:\n      pop\n      tag_96\n      tag_266\n      calldatasize\n      0x04\n      tag_116\n      jump\t// in\n    tag_266:\n      tag_267\n      jump\t// in\n        /* \"EAGLEAI/EagleAI.sol\":6926:7170  function transferOwnership(address newOwner) public virtual onlyOwner {... */\n    tag_49:\n      callvalue\n      dup1\n      iszero\n      tag_268\n      jumpi\n      0x00\n      dup1\n      revert\n    tag_268:\n      pop\n      tag_96\n      tag_270\n      calldatasize\n      0x04\n      tag_116\n      jump\t// in\n    tag_270:\n      tag_271\n      jump\t// in\n        /* \"EAGLEAI/EagleAI.sol\":21008:21169  function approve(address spender, uint256 amount) public override returns (bool) {... */\n    tag_68:\n        /* \"EAGLEAI/EagleAI.sol\":21083:21087  bool */\n      0x00\n        /* \"EAGLEAI/EagleAI.sol\":21100:21139  _approve(_msgSender(), spender, amount) */\n      tag_274\n        /* \"EAGLEAI/EagleAI.sol\":4607:4617  msg.sender */\n      caller\n        /* \"EAGLEAI/EagleAI.sol\":21123:21130  spender */\n      dup5\n        /* \"EAGLEAI/EagleAI.sol\":21132:21138  amount */\n      dup5\n        /* \"EAGLEAI/EagleAI.sol\":21100:21108  _approve */\n      tag_277\n        /* \"EAGLEAI/EagleAI.sol\":21100:21139  _approve(_msgSender(), spender, amount) */\n      jump\t// in\n    tag_274:\n      pop\n        /* \"EAGLEAI/EagleAI.sol\":21157:21161  true */\n      0x01\n        /* \"EAGLEAI/EagleAI.sol\":21008:21169  function approve(address spender, uint256 amount) public override returns (bool) {... */\n    tag_273:\n      swap3\n      swap2\n      pop\n      pop\n      jump\t// out\n        /* \"EAGLEAI/EagleAI.sol\":21797:22063  function transferFrom(address sender, address recipient, uint256 amount) external override returns (bool) {... */\n    tag_89:\n        /* \"EAGLEAI/EagleAI.sol\":21897:21901  bool */\n      0x00\n        /* \"EAGLEAI/EagleAI.sol\":21914:21950  _transfer(sender, recipient, amount) */\n      tag_281\n        /* \"EAGLEAI/EagleAI.sol\":21924:21930  sender */\n      dup5\n        /* \"EAGLEAI/EagleAI.sol\":21932:21941  recipient */\n      dup5\n        /* \"EAGLEAI/EagleAI.sol\":21943:21949  amount */\n      dup5\n        /* \"EAGLEAI/EagleAI.sol\":21914:21923  _transfer */\n      tag_282\n        /* \"EAGLEAI/EagleAI.sol\":21914:21950  _transfer(sender, recipient, amount) */\n      jump\t// in\n    tag_281:\n      sub(shl(0xa0, 0x01), 0x01)\n        /* \"EAGLEAI/EagleAI.sol\":21992:22011  _allowances[sender] */\n      dup5\n      and\n      0x00\n      swap1\n      dup2\n      mstore\n        /* \"EAGLEAI/EagleAI.sol\":21992:22003  _allowances */\n      0x04\n        /* \"EAGLEAI/EagleAI.sol\":21992:22011  _allowances[sender] */\n      0x20\n      swap1\n      dup2\n      mstore\n      0x40\n      dup1\n      dup4\n      keccak256\n        /* \"EAGLEAI/EagleAI.sol\":4607:4617  msg.sender */\n      caller\n        /* \"EAGLEAI/EagleAI.sol\":21992:22025  _allowances[sender][_msgSender()] */\n      dup1\n      dup6\n      mstore\n      swap3\n      mstore\n      swap1\n      swap2\n      keccak256\n      sload\n        /* \"EAGLEAI/EagleAI.sol\":21961:22033  _approve(sender, _msgSender(), _allowances[sender][_msgSender()]-amount) */\n      tag_283\n      swap2\n        /* \"EAGLEAI/EagleAI.sol\":21970:21976  sender */\n      dup7\n      swap2\n        /* \"EAGLEAI/EagleAI.sol\":21992:22032  _allowances[sender][_msgSender()]-amount */\n      tag_286\n      swap1\n        /* \"EAGLEAI/EagleAI.sol\":22026:22032  amount */\n      dup7\n      swap1\n        /* \"EAGLEAI/EagleAI.sol\":21992:22032  _allowances[sender][_msgSender()]-amount */\n      tag_287\n      jump\t// in\n    tag_286:\n        /* \"EAGLEAI/EagleAI.sol\":21961:21969  _approve */\n      tag_277\n        /* \"EAGLEAI/EagleAI.sol\":21961:22033  _approve(sender, _msgSender(), _allowances[sender][_msgSender()]-amount) */\n      jump\t// in\n    tag_283:\n      pop\n        /* \"EAGLEAI/EagleAI.sol\":22051:22055  true */\n      0x01\n        /* \"EAGLEAI/EagleAI.sol\":21797:22063  function transferFrom(address sender, address recipient, uint256 amount) external override returns (bool) {... */\n      swap4\n      swap3\n      pop\n      pop\n      pop\n      jump\t// out\n        /* \"EAGLEAI/EagleAI.sol\":46392:46575  function startTrading() external onlyOwner(){... */\n    tag_97:\n        /* \"EAGLEAI/EagleAI.sol\":6192:6198  _owner */\n      and(sub(shl(0xa0, 0x01), 0x01), sload(0x00))\n        /* \"EAGLEAI/EagleAI.sol\":4607:4617  msg.sender */\n      caller\n        /* \"EAGLEAI/EagleAI.sol\":6192:6214  _owner == _msgSender() */\n      eq\n        /* \"EAGLEAI/EagleAI.sol\":6184:6251  require(_owner == _msgSender(), \"Ownable: caller is not the owner\") */\n      tag_290\n      jumpi\n      mload(0x40)\n      shl(0xe5, 0x461bcd)\n      dup2\n      mstore\n      0x04\n      add\n      tag_291\n      swap1\n      tag_292\n      jump\t// in\n    tag_291:\n      mload(0x40)\n      dup1\n      swap2\n      sub\n      swap1\n      revert\n    tag_290:\n        /* \"EAGLEAI/EagleAI.sol\":46456:46468  tradeEnabled */\n      sload(0x0c)\n      0x010000\n      swap1\n      div\n      0xff\n      and\n        /* \"EAGLEAI/EagleAI.sol\":46455:46468  !tradeEnabled */\n      iszero\n        /* \"EAGLEAI/EagleAI.sol\":46447:46495  require(!tradeEnabled,\"Trading already started\") */\n      tag_294\n      jumpi\n      mload(0x40)\n      shl(0xe5, 0x461bcd)\n      dup2\n      mstore\n        /* \"#utility.yul\":6290:6292   */\n      0x20\n        /* \"EAGLEAI/EagleAI.sol\":46447:46495  require(!tradeEnabled,\"Trading already started\") */\n      0x04\n      dup3\n      add\n        /* \"#utility.yul\":6272:6293   */\n      mstore\n        /* \"#utility.yul\":6329:6331   */\n      0x17\n        /* \"#utility.yul\":6309:6327   */\n      0x24\n      dup3\n      add\n        /* \"#utility.yul\":6302:6332   */\n      mstore\n        /* \"#utility.yul\":6368:6393   */\n      0x54726164696e6720616c72656164792073746172746564000000000000000000\n        /* \"#utility.yul\":6348:6366   */\n      0x44\n      dup3\n      add\n        /* \"#utility.yul\":6341:6394   */\n      mstore\n        /* \"#utility.yul\":6411:6429   */\n      0x64\n      add\n        /* \"EAGLEAI/EagleAI.sol\":46447:46495  require(!tradeEnabled,\"Trading already started\") */\n      tag_291\n        /* \"#utility.yul\":6088:6435   */\n      jump\n        /* \"EAGLEAI/EagleAI.sol\":46447:46495  require(!tradeEnabled,\"Trading already started\") */\n    tag_294:\n        /* \"EAGLEAI/EagleAI.sol\":46506:46518  tradeEnabled */\n      0x0c\n        /* \"EAGLEAI/EagleAI.sol\":46506:46525  tradeEnabled = true */\n      dup1\n      sload\n      not(0xff0000)\n      and\n      0x010000\n      swap1\n      dup2\n      or\n      swap2\n      dup3\n      swap1\n      sstore\n        /* \"EAGLEAI/EagleAI.sol\":46541:46567  TradeEnabled(tradeEnabled) */\n      mload(0x40)\n      0x7d7f00509dd73ac4449f698ae75ccc797895eff5fa9d446d3df387598a26e735\n      swap3\n      tag_297\n      swap3\n        /* \"EAGLEAI/EagleAI.sol\":46554:46566  tradeEnabled */\n      swap1\n      div\n        /* \"EAGLEAI/EagleAI.sol\":46506:46525  tradeEnabled = true */\n      0xff\n        /* \"EAGLEAI/EagleAI.sol\":46554:46566  tradeEnabled */\n      and\n        /* \"#utility.yul\":1188:1202   */\n      iszero\n        /* \"#utility.yul\":1181:1203   */\n      iszero\n        /* \"#utility.yul\":1163:1204   */\n      dup2\n      mstore\n        /* \"#utility.yul\":1151:1153   */\n      0x20\n        /* \"#utility.yul\":1136:1154   */\n      add\n      swap1\n        /* \"#utility.yul\":1023:1210   */\n      jump\n        /* \"EAGLEAI/EagleAI.sol\":46541:46567  TradeEnabled(tradeEnabled) */\n    tag_297:\n      mload(0x40)\n      dup1\n      swap2\n      sub\n      swap1\n      log1\n        /* \"EAGLEAI/EagleAI.sol\":46392:46575  function startTrading() external onlyOwner(){... */\n      jump\t// out\n        /* \"EAGLEAI/EagleAI.sol\":26844:27094  function tokenFromReflection(uint256 rAmount) public view returns(uint256) {... */\n    tag_106:\n        /* \"EAGLEAI/EagleAI.sol\":26910:26917  uint256 */\n      0x00\n        /* \"EAGLEAI/EagleAI.sol\":26949:26956  _rTotal */\n      sload(0x0a)\n        /* \"EAGLEAI/EagleAI.sol\":26938:26945  rAmount */\n      dup3\n        /* \"EAGLEAI/EagleAI.sol\":26938:26956  rAmount <= _rTotal */\n      gt\n      iszero\n        /* \"EAGLEAI/EagleAI.sol\":26930:27003  require(rAmount <= _rTotal, \"Amount must be less than total reflections\") */\n      tag_299\n      jumpi\n      mload(0x40)\n      shl(0xe5, 0x461bcd)\n      dup2\n      mstore\n        /* \"#utility.yul\":6642:6644   */\n      0x20\n        /* \"EAGLEAI/EagleAI.sol\":26930:27003  require(rAmount <= _rTotal, \"Amount must be less than total reflections\") */\n      0x04\n      dup3\n      add\n        /* \"#utility.yul\":6624:6645   */\n      mstore\n        /* \"#utility.yul\":6681:6683   */\n      0x2a\n        /* \"#utility.yul\":6661:6679   */\n      0x24\n      dup3\n      add\n        /* \"#utility.yul\":6654:6684   */\n      mstore\n        /* \"#utility.yul\":6720:6754   */\n      0x416d6f756e74206d757374206265206c657373207468616e20746f74616c2072\n        /* \"#utility.yul\":6700:6718   */\n      0x44\n      dup3\n      add\n        /* \"#utility.yul\":6693:6755   */\n      mstore\n      shl(0xb0, 0x65666c656374696f6e73)\n        /* \"#utility.yul\":6771:6789   */\n      0x64\n      dup3\n      add\n        /* \"#utility.yul\":6764:6804   */\n      mstore\n        /* \"#utility.yul\":6821:6840   */\n      0x84\n      add\n        /* \"EAGLEAI/EagleAI.sol\":26930:27003  require(rAmount <= _rTotal, \"Amount must be less than total reflections\") */\n      tag_291\n        /* \"#utility.yul\":6440:6846   */\n      jump\n        /* \"EAGLEAI/EagleAI.sol\":26930:27003  require(rAmount <= _rTotal, \"Amount must be less than total reflections\") */\n    tag_299:\n        /* \"EAGLEAI/EagleAI.sol\":27014:27033  uint256 currentRate */\n      0x00\n        /* \"EAGLEAI/EagleAI.sol\":27037:27047  _getRate() */\n      tag_302\n        /* \"EAGLEAI/EagleAI.sol\":27037:27045  _getRate */\n      tag_303\n        /* \"EAGLEAI/EagleAI.sol\":27037:27047  _getRate() */\n      jump\t// in\n    tag_302:\n        /* \"EAGLEAI/EagleAI.sol\":27014:27047  uint256 currentRate =  _getRate() */\n      swap1\n      pop\n        /* \"EAGLEAI/EagleAI.sol\":27065:27086  rAmount / currentRate */\n      tag_304\n        /* \"EAGLEAI/EagleAI.sol\":27014:27047  uint256 currentRate =  _getRate() */\n      dup2\n        /* \"EAGLEAI/EagleAI.sol\":27065:27072  rAmount */\n      dup5\n        /* \"EAGLEAI/EagleAI.sol\":27065:27086  rAmount / currentRate */\n      tag_305\n      jump\t// in\n    tag_304:\n        /* \"EAGLEAI/EagleAI.sol\":27058:27086  return rAmount / currentRate */\n      swap4\n        /* \"EAGLEAI/EagleAI.sol\":26844:27094  function tokenFromReflection(uint256 rAmount) public view returns(uint256) {... */\n      swap3\n      pop\n      pop\n      pop\n      jump\t// out\n        /* \"EAGLEAI/EagleAI.sol\":28531:29051  function includeInReward(address account) external onlyOwner() {... */\n    tag_117:\n        /* \"EAGLEAI/EagleAI.sol\":6192:6198  _owner */\n      and(sub(shl(0xa0, 0x01), 0x01), sload(0x00))\n        /* \"EAGLEAI/EagleAI.sol\":4607:4617  msg.sender */\n      caller\n        /* \"EAGLEAI/EagleAI.sol\":6192:6214  _owner == _msgSender() */\n      eq\n        /* \"EAGLEAI/EagleAI.sol\":6184:6251  require(_owner == _msgSender(), \"Ownable: caller is not the owner\") */\n      tag_309\n      jumpi\n      mload(0x40)\n      shl(0xe5, 0x461bcd)\n      dup2\n      mstore\n      0x04\n      add\n      tag_291\n      swap1\n      tag_292\n      jump\t// in\n    tag_309:\n      sub(shl(0xa0, 0x01), 0x01)\n        /* \"EAGLEAI/EagleAI.sol\":28613:28633  _isExcluded[account] */\n      dup2\n      and\n      0x00\n      swap1\n      dup2\n      mstore\n        /* \"EAGLEAI/EagleAI.sol\":28613:28624  _isExcluded */\n      0x07\n        /* \"EAGLEAI/EagleAI.sol\":28613:28633  _isExcluded[account] */\n      0x20\n      mstore\n      0x40\n      swap1\n      keccak256\n      sload\n      0xff\n      and\n        /* \"EAGLEAI/EagleAI.sol\":28605:28665  require(_isExcluded[account], \"Account is already Included\") */\n      tag_312\n      jumpi\n      mload(0x40)\n      shl(0xe5, 0x461bcd)\n      dup2\n      mstore\n        /* \"#utility.yul\":7275:7277   */\n      0x20\n        /* \"EAGLEAI/EagleAI.sol\":28605:28665  require(_isExcluded[account], \"Account is already Included\") */\n      0x04\n      dup3\n      add\n        /* \"#utility.yul\":7257:7278   */\n      mstore\n        /* \"#utility.yul\":7314:7316   */\n      0x1b\n        /* \"#utility.yul\":7294:7312   */\n      0x24\n      dup3\n      add\n        /* \"#utility.yul\":7287:7317   */\n      mstore\n        /* \"#utility.yul\":7353:7382   */\n      0x4163636f756e7420697320616c726561647920496e636c756465640000000000\n        /* \"#utility.yul\":7333:7351   */\n      0x44\n      dup3\n      add\n        /* \"#utility.yul\":7326:7383   */\n      mstore\n        /* \"#utility.yul\":7400:7418   */\n      0x64\n      add\n        /* \"EAGLEAI/EagleAI.sol\":28605:28665  require(_isExcluded[account], \"Account is already Included\") */\n      tag_291\n        /* \"#utility.yul\":7073:7424   */\n      jump\n        /* \"EAGLEAI/EagleAI.sol\":28605:28665  require(_isExcluded[account], \"Account is already Included\") */\n    tag_312:\n        /* \"EAGLEAI/EagleAI.sol\":28681:28690  uint256 i */\n      0x00\n        /* \"EAGLEAI/EagleAI.sol\":28676:29003  for (uint256 i = 0; i < _excluded.length; i++) {... */\n    tag_315:\n        /* \"EAGLEAI/EagleAI.sol\":28700:28709  _excluded */\n      0x08\n        /* \"EAGLEAI/EagleAI.sol\":28700:28716  _excluded.length */\n      sload\n        /* \"EAGLEAI/EagleAI.sol\":28696:28716  i < _excluded.length */\n      dup2\n      lt\n        /* \"EAGLEAI/EagleAI.sol\":28676:29003  for (uint256 i = 0; i < _excluded.length; i++) {... */\n      iszero\n      tag_316\n      jumpi\n        /* \"EAGLEAI/EagleAI.sol\":28758:28765  account */\n      dup2\n      sub(shl(0xa0, 0x01), 0x01)\n        /* \"EAGLEAI/EagleAI.sol\":28742:28765  _excluded[i] == account */\n      and\n        /* \"EAGLEAI/EagleAI.sol\":28742:28751  _excluded */\n      0x08\n        /* \"EAGLEAI/EagleAI.sol\":28752:28753  i */\n      dup3\n        /* \"EAGLEAI/EagleAI.sol\":28742:28754  _excluded[i] */\n      dup2\n      sload\n      dup2\n      lt\n      tag_319\n      jumpi\n      tag_319\n      tag_320\n      jump\t// in\n    tag_319:\n      0x00\n      swap2\n      dup3\n      mstore\n      0x20\n      swap1\n      swap2\n      keccak256\n      add\n      sload\n      sub(shl(0xa0, 0x01), 0x01)\n      and\n        /* \"EAGLEAI/EagleAI.sol\":28742:28765  _excluded[i] == account */\n      sub\n        /* \"EAGLEAI/EagleAI.sol\":28738:28992  if (_excluded[i] == account) {... */\n      tag_322\n      jumpi\n        /* \"EAGLEAI/EagleAI.sol\":28801:28810  _excluded */\n      0x08\n        /* \"EAGLEAI/EagleAI.sol\":28811:28827  _excluded.length */\n      dup1\n      sload\n        /* \"EAGLEAI/EagleAI.sol\":28811:28831  _excluded.length - 1 */\n      tag_323\n      swap1\n        /* \"EAGLEAI/EagleAI.sol\":28830:28831  1 */\n      0x01\n      swap1\n        /* \"EAGLEAI/EagleAI.sol\":28811:28831  _excluded.length - 1 */\n      tag_287\n      jump\t// in\n    tag_323:\n        /* \"EAGLEAI/EagleAI.sol\":28801:28832  _excluded[_excluded.length - 1] */\n      dup2\n      sload\n      dup2\n      lt\n      tag_325\n      jumpi\n      tag_325\n      tag_320\n      jump\t// in\n    tag_325:\n      0x00\n      swap2\n      dup3\n      mstore\n      0x20\n      swap1\n      swap2\n      keccak256\n      add\n      sload\n        /* \"EAGLEAI/EagleAI.sol\":28786:28795  _excluded */\n      0x08\n        /* \"EAGLEAI/EagleAI.sol\":28786:28798  _excluded[i] */\n      dup1\n      sload\n      sub(shl(0xa0, 0x01), 0x01)\n        /* \"EAGLEAI/EagleAI.sol\":28801:28832  _excluded[_excluded.length - 1] */\n      swap1\n      swap3\n      and\n      swap2\n        /* \"EAGLEAI/EagleAI.sol\":28796:28797  i */\n      dup4\n      swap1\n        /* \"EAGLEAI/EagleAI.sol\":28786:28798  _excluded[i] */\n      dup2\n      lt\n      tag_328\n      jumpi\n      tag_328\n      tag_320\n      jump\t// in\n    tag_328:\n      0x00\n      swap2\n      dup3\n      mstore\n      0x20\n      dup1\n      dup4\n      keccak256\n      swap2\n      swap1\n      swap2\n      add\n        /* \"EAGLEAI/EagleAI.sol\":28786:28832  _excluded[i] = _excluded[_excluded.length - 1] */\n      dup1\n      sload\n      not(sub(shl(0xa0, 0x01), 0x01))\n      and\n      sub(shl(0xa0, 0x01), 0x01)\n      swap5\n      dup6\n      and\n      or\n      swap1\n      sstore\n        /* \"EAGLEAI/EagleAI.sol\":28851:28867  _tOwned[account] */\n      swap2\n      dup5\n      and\n      dup2\n      mstore\n        /* \"EAGLEAI/EagleAI.sol\":28851:28858  _tOwned */\n      0x03\n        /* \"EAGLEAI/EagleAI.sol\":28851:28867  _tOwned[account] */\n      dup3\n      mstore\n      0x40\n      dup1\n      dup3\n      keccak256\n        /* \"EAGLEAI/EagleAI.sol\":28851:28871  _tOwned[account] = 0 */\n      dup3\n      swap1\n      sstore\n        /* \"EAGLEAI/EagleAI.sol\":28890:28901  _isExcluded */\n      0x07\n        /* \"EAGLEAI/EagleAI.sol\":28890:28910  _isExcluded[account] */\n      swap1\n      swap3\n      mstore\n      keccak256\n        /* \"EAGLEAI/EagleAI.sol\":28890:28918  _isExcluded[account] = false */\n      dup1\n      sload\n      not(0xff)\n      and\n      swap1\n      sstore\n        /* \"EAGLEAI/EagleAI.sol\":28937:28946  _excluded */\n      0x08\n        /* \"EAGLEAI/EagleAI.sol\":28937:28952  _excluded.pop() */\n      dup1\n      sload\n      dup1\n      tag_331\n      jumpi\n      tag_331\n      tag_332\n      jump\t// in\n    tag_331:\n      0x00\n      dup3\n      dup2\n      mstore\n      0x20\n      swap1\n      keccak256\n      dup2\n      add\n      not(0x00)\n      swap1\n      dup2\n      add\n      dup1\n      sload\n      not(sub(shl(0xa0, 0x01), 0x01))\n      and\n      swap1\n      sstore\n      add\n      swap1\n      sstore\n        /* \"EAGLEAI/EagleAI.sol\":28971:28976  break */\n      jump(tag_316)\n        /* \"EAGLEAI/EagleAI.sol\":28738:28992  if (_excluded[i] == account) {... */\n    tag_322:\n        /* \"EAGLEAI/EagleAI.sol\":28718:28721  i++ */\n      0x01\n      add\n        /* \"EAGLEAI/EagleAI.sol\":28676:29003  for (uint256 i = 0; i < _excluded.length; i++) {... */\n      jump(tag_315)\n    tag_316:\n      pop\n        /* \"EAGLEAI/EagleAI.sol\":29018:29043  IncludedInReward(account) */\n      mload(0x40)\n      sub(shl(0xa0, 0x01), 0x01)\n        /* \"#utility.yul\":1587:1619   */\n      dup3\n      and\n        /* \"#utility.yul\":1569:1620   */\n      dup2\n      mstore\n        /* \"EAGLEAI/EagleAI.sol\":29018:29043  IncludedInReward(account) */\n      0x47ab6b2d1f416edec684889dc42cd04ed7cc6c6244edaa04c4215e1077548614\n      swap1\n        /* \"#utility.yul\":1557:1559   */\n      0x20\n        /* \"#utility.yul\":1542:1560   */\n      add\n        /* \"EAGLEAI/EagleAI.sol\":29018:29043  IncludedInReward(account) */\n    tag_334:\n      mload(0x40)\n      dup1\n      swap2\n      sub\n      swap1\n      log1\n        /* \"EAGLEAI/EagleAI.sol\":28531:29051  function includeInReward(address account) external onlyOwner() {... */\n      pop\n      jump\t// out\n        /* \"EAGLEAI/EagleAI.sol\":22585:22800  function increaseAllowance(address spender, uint256 addedValue) external virtual returns (bool) {... */\n    tag_121:\n        /* \"EAGLEAI/EagleAI.sol\":4607:4617  msg.sender */\n      caller\n        /* \"EAGLEAI/EagleAI.sol\":22675:22679  bool */\n      0x00\n        /* \"EAGLEAI/EagleAI.sol\":22724:22749  _allowances[_msgSender()] */\n      dup2\n      dup2\n      mstore\n        /* \"EAGLEAI/EagleAI.sol\":22724:22735  _allowances */\n      0x04\n        /* \"EAGLEAI/EagleAI.sol\":22724:22749  _allowances[_msgSender()] */\n      0x20\n      swap1\n      dup2\n      mstore\n      0x40\n      dup1\n      dup4\n      keccak256\n      sub(shl(0xa0, 0x01), 0x01)\n        /* \"EAGLEAI/EagleAI.sol\":22724:22758  _allowances[_msgSender()][spender] */\n      dup8\n      and\n      dup5\n      mstore\n      swap1\n      swap2\n      mstore\n      dup2\n      keccak256\n      sload\n        /* \"EAGLEAI/EagleAI.sol\":22675:22679  bool */\n      swap1\n      swap2\n        /* \"EAGLEAI/EagleAI.sol\":22692:22770  _approve(_msgSender(), spender, _allowances[_msgSender()][spender]+addedValue) */\n      tag_274\n      swap2\n        /* \"EAGLEAI/EagleAI.sol\":22715:22722  spender */\n      dup6\n      swap1\n        /* \"EAGLEAI/EagleAI.sol\":22724:22769  _allowances[_msgSender()][spender]+addedValue */\n      tag_286\n      swap1\n        /* \"EAGLEAI/EagleAI.sol\":22759:22769  addedValue */\n      dup7\n      swap1\n        /* \"EAGLEAI/EagleAI.sol\":22724:22769  _allowances[_msgSender()][spender]+addedValue */\n      tag_340\n      jump\t// in\n        /* \"EAGLEAI/EagleAI.sol\":24931:25290  function deliver(uint256 tAmount) external {... */\n    tag_126:\n        /* \"EAGLEAI/EagleAI.sol\":4607:4617  msg.sender */\n      caller\n        /* \"EAGLEAI/EagleAI.sol\":24985:24999  address sender */\n      0x00\n        /* \"EAGLEAI/EagleAI.sol\":25034:25053  _isExcluded[sender] */\n      dup2\n      dup2\n      mstore\n        /* \"EAGLEAI/EagleAI.sol\":25034:25045  _isExcluded */\n      0x07\n        /* \"EAGLEAI/EagleAI.sol\":25034:25053  _isExcluded[sender] */\n      0x20\n      mstore\n      0x40\n      swap1\n      keccak256\n      sload\n      0xff\n      and\n        /* \"EAGLEAI/EagleAI.sol\":25033:25053  !_isExcluded[sender] */\n      iszero\n        /* \"EAGLEAI/EagleAI.sol\":25025:25102  require(!_isExcluded[sender], \"Excluded addresses cannot call this function\") */\n      tag_343\n      jumpi\n      mload(0x40)\n      shl(0xe5, 0x461bcd)\n      dup2\n      mstore\n        /* \"#utility.yul\":8025:8027   */\n      0x20\n        /* \"EAGLEAI/EagleAI.sol\":25025:25102  require(!_isExcluded[sender], \"Excluded addresses cannot call this function\") */\n      0x04\n      dup3\n      add\n        /* \"#utility.yul\":8007:8028   */\n      mstore\n        /* \"#utility.yul\":8064:8066   */\n      0x2c\n        /* \"#utility.yul\":8044:8062   */\n      0x24\n      dup3\n      add\n        /* \"#utility.yul\":8037:8067   */\n      mstore\n        /* \"#utility.yul\":8103:8137   */\n      0x4578636c75646564206164647265737365732063616e6e6f742063616c6c2074\n        /* \"#utility.yul\":8083:8101   */\n      0x44\n      dup3\n      add\n        /* \"#utility.yul\":8076:8138   */\n      mstore\n      shl(0xa1, 0x3434b990333ab731ba34b7b7)\n        /* \"#utility.yul\":8154:8172   */\n      0x64\n      dup3\n      add\n        /* \"#utility.yul\":8147:8189   */\n      mstore\n        /* \"#utility.yul\":8206:8225   */\n      0x84\n      add\n        /* \"EAGLEAI/EagleAI.sol\":25025:25102  require(!_isExcluded[sender], \"Excluded addresses cannot call this function\") */\n      tag_291\n        /* \"#utility.yul\":7823:8231   */\n      jump\n        /* \"EAGLEAI/EagleAI.sol\":25025:25102  require(!_isExcluded[sender], \"Excluded addresses cannot call this function\") */\n    tag_343:\n        /* \"EAGLEAI/EagleAI.sol\":25114:25129  uint256 rAmount */\n      0x00\n        /* \"EAGLEAI/EagleAI.sol\":25134:25152  _getValue(tAmount) */\n      tag_346\n        /* \"EAGLEAI/EagleAI.sol\":25144:25151  tAmount */\n      dup4\n        /* \"EAGLEAI/EagleAI.sol\":25134:25143  _getValue */\n      tag_347\n        /* \"EAGLEAI/EagleAI.sol\":25134:25152  _getValue(tAmount) */\n      jump\t// in\n    tag_346:\n      pop\n      sub(shl(0xa0, 0x01), 0x01)\n        /* \"EAGLEAI/EagleAI.sol\":25181:25196  _rOwned[sender] */\n      dup4\n      and\n      0x00\n      swap1\n      dup2\n      mstore\n        /* \"EAGLEAI/EagleAI.sol\":25181:25188  _rOwned */\n      0x02\n        /* \"EAGLEAI/EagleAI.sol\":25181:25196  _rOwned[sender] */\n      0x20\n      mstore\n      0x40\n      swap1\n      keccak256\n      sload\n        /* \"EAGLEAI/EagleAI.sol\":25113:25152  (uint256 rAmount,) = _getValue(tAmount) */\n      swap1\n      swap2\n      pop\n        /* \"EAGLEAI/EagleAI.sol\":25181:25204  _rOwned[sender]-rAmount */\n      tag_348\n      swap1\n        /* \"EAGLEAI/EagleAI.sol\":25113:25152  (uint256 rAmount,) = _getValue(tAmount) */\n      dup3\n      swap1\n        /* \"EAGLEAI/EagleAI.sol\":25181:25204  _rOwned[sender]-rAmount */\n      tag_287\n      jump\t// in\n    tag_348:\n      sub(shl(0xa0, 0x01), 0x01)\n        /* \"EAGLEAI/EagleAI.sol\":25163:25178  _rOwned[sender] */\n      dup4\n      and\n      0x00\n      swap1\n      dup2\n      mstore\n        /* \"EAGLEAI/EagleAI.sol\":25163:25170  _rOwned */\n      0x02\n        /* \"EAGLEAI/EagleAI.sol\":25163:25178  _rOwned[sender] */\n      0x20\n      mstore\n      0x40\n      swap1\n      keccak256\n        /* \"EAGLEAI/EagleAI.sol\":25163:25204  _rOwned[sender] = _rOwned[sender]-rAmount */\n      sstore\n        /* \"EAGLEAI/EagleAI.sol\":25225:25232  _rTotal */\n      sload(0x0a)\n        /* \"EAGLEAI/EagleAI.sol\":25225:25240  _rTotal-rAmount */\n      tag_349\n      swap1\n        /* \"EAGLEAI/EagleAI.sol\":25233:25240  rAmount */\n      dup3\n      swap1\n        /* \"EAGLEAI/EagleAI.sol\":25225:25240  _rTotal-rAmount */\n      tag_287\n      jump\t// in\n    tag_349:\n        /* \"EAGLEAI/EagleAI.sol\":25215:25222  _rTotal */\n      0x0a\n        /* \"EAGLEAI/EagleAI.sol\":25215:25240  _rTotal = _rTotal-rAmount */\n      sstore\n        /* \"EAGLEAI/EagleAI.sol\":25264:25274  _tFeeTotal */\n      sload(0x0b)\n        /* \"EAGLEAI/EagleAI.sol\":25264:25282  _tFeeTotal+tAmount */\n      tag_350\n      swap1\n        /* \"EAGLEAI/EagleAI.sol\":25275:25282  tAmount */\n      dup5\n      swap1\n        /* \"EAGLEAI/EagleAI.sol\":25264:25282  _tFeeTotal+tAmount */\n      tag_340\n      jump\t// in\n    tag_350:\n        /* \"EAGLEAI/EagleAI.sol\":25251:25261  _tFeeTotal */\n      0x0b\n        /* \"EAGLEAI/EagleAI.sol\":25251:25282  _tFeeTotal = _tFeeTotal+tAmount */\n      sstore\n      pop\n      pop\n      pop\n        /* \"EAGLEAI/EagleAI.sol\":24931:25290  function deliver(uint256 tAmount) external {... */\n      jump\t// out\n        /* \"EAGLEAI/EagleAI.sol\":31026:31254  function excludeFromFee(address account) external onlyOwner {... */\n    tag_130:\n        /* \"EAGLEAI/EagleAI.sol\":6192:6198  _owner */\n      and(sub(shl(0xa0, 0x01), 0x01), sload(0x00))\n        /* \"EAGLEAI/EagleAI.sol\":4607:4617  msg.sender */\n      caller\n        /* \"EAGLEAI/EagleAI.sol\":6192:6214  _owner == _msgSender() */\n      eq\n        /* \"EAGLEAI/EagleAI.sol\":6184:6251  require(_owner == _msgSender(), \"Ownable: caller is not the owner\") */\n      tag_353\n      jumpi\n      mload(0x40)\n      shl(0xe5, 0x461bcd)\n      dup2\n      mstore\n      0x04\n      add\n      tag_291\n      swap1\n      tag_292\n      jump\t// in\n    tag_353:\n      sub(shl(0xa0, 0x01), 0x01)\n        /* \"EAGLEAI/EagleAI.sol\":31106:31133  _isExcludedFromFee[account] */\n      dup2\n      and\n      0x00\n      swap1\n      dup2\n      mstore\n        /* \"EAGLEAI/EagleAI.sol\":31106:31124  _isExcludedFromFee */\n      0x06\n        /* \"EAGLEAI/EagleAI.sol\":31106:31133  _isExcludedFromFee[account] */\n      0x20\n      mstore\n      0x40\n      swap1\n      keccak256\n      sload\n      0xff\n      and\n        /* \"EAGLEAI/EagleAI.sol\":31105:31133  !_isExcludedFromFee[account] */\n      iszero\n        /* \"EAGLEAI/EagleAI.sol\":31097:31161  require(!_isExcludedFromFee[account],\"Alreay excluded from fee\") */\n      tag_356\n      jumpi\n      mload(0x40)\n      shl(0xe5, 0x461bcd)\n      dup2\n      mstore\n        /* \"#utility.yul\":8438:8440   */\n      0x20\n        /* \"EAGLEAI/EagleAI.sol\":31097:31161  require(!_isExcludedFromFee[account],\"Alreay excluded from fee\") */\n      0x04\n      dup3\n      add\n        /* \"#utility.yul\":8420:8441   */\n      mstore\n        /* \"#utility.yul\":8477:8479   */\n      0x18\n        /* \"#utility.yul\":8457:8475   */\n      0x24\n      dup3\n      add\n        /* \"#utility.yul\":8450:8480   */\n      mstore\n        /* \"#utility.yul\":8516:8542   */\n      0x416c72656179206578636c756465642066726f6d206665650000000000000000\n        /* \"#utility.yul\":8496:8514   */\n      0x44\n      dup3\n      add\n        /* \"#utility.yul\":8489:8543   */\n      mstore\n        /* \"#utility.yul\":8560:8578   */\n      0x64\n      add\n        /* \"EAGLEAI/EagleAI.sol\":31097:31161  require(!_isExcludedFromFee[account],\"Alreay excluded from fee\") */\n      tag_291\n        /* \"#utility.yul\":8236:8584   */\n      jump\n        /* \"EAGLEAI/EagleAI.sol\":31097:31161  require(!_isExcludedFromFee[account],\"Alreay excluded from fee\") */\n    tag_356:\n      sub(shl(0xa0, 0x01), 0x01)\n        /* \"EAGLEAI/EagleAI.sol\":31172:31199  _isExcludedFromFee[account] */\n      dup2\n      and\n      0x00\n      dup2\n      dup2\n      mstore\n        /* \"EAGLEAI/EagleAI.sol\":31172:31190  _isExcludedFromFee */\n      0x06\n        /* \"EAGLEAI/EagleAI.sol\":31172:31199  _isExcludedFromFee[account] */\n      0x20\n      swap1\n      dup2\n      mstore\n      0x40\n      swap2\n      dup3\n      swap1\n      keccak256\n        /* \"EAGLEAI/EagleAI.sol\":31172:31206  _isExcludedFromFee[account] = true */\n      dup1\n      sload\n      not(0xff)\n      and\n        /* \"EAGLEAI/EagleAI.sol\":31202:31206  true */\n      0x01\n        /* \"EAGLEAI/EagleAI.sol\":31172:31206  _isExcludedFromFee[account] = true */\n      or\n      swap1\n      sstore\n        /* \"EAGLEAI/EagleAI.sol\":31222:31246  ExcludedFromFee(account) */\n      swap1\n      mload\n        /* \"#utility.yul\":1569:1620   */\n      swap2\n      dup3\n      mstore\n        /* \"EAGLEAI/EagleAI.sol\":31222:31246  ExcludedFromFee(account) */\n      0xf1d6512ec7550bf605a5a38910e48fb6a57938ed74a5afa01753fa023001005c\n      swap2\n        /* \"#utility.yul\":1542:1560   */\n      add\n        /* \"EAGLEAI/EagleAI.sol\":31222:31246  ExcludedFromFee(account) */\n      tag_334\n        /* \"#utility.yul\":1397:1626   */\n      jump\n        /* \"EAGLEAI/EagleAI.sol\":25938:26368  function reflectionFromToken(uint256 tAmount, bool deductTransferFee) external view returns(uint256) {... */\n    tag_135:\n        /* \"EAGLEAI/EagleAI.sol\":26030:26037  uint256 */\n      0x00\n        /* \"EAGLEAI/EagleAI.sol\":26069:26076  _tTotal */\n      sload(0x09)\n        /* \"EAGLEAI/EagleAI.sol\":26058:26065  tAmount */\n      dup4\n        /* \"EAGLEAI/EagleAI.sol\":26058:26076  tAmount <= _tTotal */\n      gt\n      iszero\n        /* \"EAGLEAI/EagleAI.sol\":26050:26112  require(tAmount <= _tTotal, \"Amount must be less than supply\") */\n      tag_361\n      jumpi\n      mload(0x40)\n      shl(0xe5, 0x461bcd)\n      dup2\n      mstore\n        /* \"#utility.yul\":8791:8793   */\n      0x20\n        /* \"EAGLEAI/EagleAI.sol\":26050:26112  require(tAmount <= _tTotal, \"Amount must be less than supply\") */\n      0x04\n      dup3\n      add\n        /* \"#utility.yul\":8773:8794   */\n      mstore\n        /* \"#utility.yul\":8830:8832   */\n      0x1f\n        /* \"#utility.yul\":8810:8828   */\n      0x24\n      dup3\n      add\n        /* \"#utility.yul\":8803:8833   */\n      mstore\n        /* \"#utility.yul\":8869:8902   */\n      0x416d6f756e74206d757374206265206c657373207468616e20737570706c7900\n        /* \"#utility.yul\":8849:8867   */\n      0x44\n      dup3\n      add\n        /* \"#utility.yul\":8842:8903   */\n      mstore\n        /* \"#utility.yul\":8920:8938   */\n      0x64\n      add\n        /* \"EAGLEAI/EagleAI.sol\":26050:26112  require(tAmount <= _tTotal, \"Amount must be less than supply\") */\n      tag_291\n        /* \"#utility.yul\":8589:8944   */\n      jump\n        /* \"EAGLEAI/EagleAI.sol\":26050:26112  require(tAmount <= _tTotal, \"Amount must be less than supply\") */\n    tag_361:\n        /* \"EAGLEAI/EagleAI.sol\":26128:26145  deductTransferFee */\n      dup2\n        /* \"EAGLEAI/EagleAI.sol\":26123:26361  if (!deductTransferFee) {... */\n      tag_364\n      jumpi\n        /* \"EAGLEAI/EagleAI.sol\":26163:26178  uint256 rAmount */\n      0x00\n        /* \"EAGLEAI/EagleAI.sol\":26183:26201  _getValue(tAmount) */\n      tag_365\n        /* \"EAGLEAI/EagleAI.sol\":26193:26200  tAmount */\n      dup5\n        /* \"EAGLEAI/EagleAI.sol\":26183:26192  _getValue */\n      tag_347\n        /* \"EAGLEAI/EagleAI.sol\":26183:26201  _getValue(tAmount) */\n      jump\t// in\n    tag_365:\n      pop\n        /* \"EAGLEAI/EagleAI.sol\":26162:26201  (uint256 rAmount,) = _getValue(tAmount) */\n      swap2\n      pop\n        /* \"EAGLEAI/EagleAI.sol\":26217:26231  return rAmount */\n      tag_273\n      swap1\n      pop\n      jump\n        /* \"EAGLEAI/EagleAI.sol\":26123:26361  if (!deductTransferFee) {... */\n    tag_364:\n        /* \"EAGLEAI/EagleAI.sol\":26266:26289  uint256 rTransferAmount */\n      0x00\n        /* \"EAGLEAI/EagleAI.sol\":26293:26311  _getValue(tAmount) */\n      tag_367\n        /* \"EAGLEAI/EagleAI.sol\":26303:26310  tAmount */\n      dup5\n        /* \"EAGLEAI/EagleAI.sol\":26293:26302  _getValue */\n      tag_347\n        /* \"EAGLEAI/EagleAI.sol\":26293:26311  _getValue(tAmount) */\n      jump\t// in\n    tag_367:\n        /* \"EAGLEAI/EagleAI.sol\":26264:26311  (,uint256 rTransferAmount) = _getValue(tAmount) */\n      swap3\n      pop\n        /* \"EAGLEAI/EagleAI.sol\":26327:26349  return rTransferAmount */\n      tag_273\n      swap2\n      pop\n      pop\n      jump\n        /* \"EAGLEAI/EagleAI.sol\":27453:27831  function excludeFromReward(address account) external onlyOwner() {... */\n    tag_153:\n        /* \"EAGLEAI/EagleAI.sol\":6192:6198  _owner */\n      and(sub(shl(0xa0, 0x01), 0x01), sload(0x00))\n        /* \"EAGLEAI/EagleAI.sol\":4607:4617  msg.sender */\n      caller\n        /* \"EAGLEAI/EagleAI.sol\":6192:6214  _owner == _msgSender() */\n      eq\n        /* \"EAGLEAI/EagleAI.sol\":6184:6251  require(_owner == _msgSender(), \"Ownable: caller is not the owner\") */\n      tag_370\n      jumpi\n      mload(0x40)\n      shl(0xe5, 0x461bcd)\n      dup2\n      mstore\n      0x04\n      add\n      tag_291\n      swap1\n      tag_292\n      jump\t// in\n    tag_370:\n      sub(shl(0xa0, 0x01), 0x01)\n        /* \"EAGLEAI/EagleAI.sol\":27538:27558  _isExcluded[account] */\n      dup2\n      and\n      0x00\n      swap1\n      dup2\n      mstore\n        /* \"EAGLEAI/EagleAI.sol\":27538:27549  _isExcluded */\n      0x07\n        /* \"EAGLEAI/EagleAI.sol\":27538:27558  _isExcluded[account] */\n      0x20\n      mstore\n      0x40\n      swap1\n      keccak256\n      sload\n      0xff\n      and\n        /* \"EAGLEAI/EagleAI.sol\":27537:27558  !_isExcluded[account] */\n      iszero\n        /* \"EAGLEAI/EagleAI.sol\":27529:27590  require(!_isExcluded[account], \"Account is already excluded\") */\n      tag_373\n      jumpi\n      mload(0x40)\n      shl(0xe5, 0x461bcd)\n      dup2\n      mstore\n        /* \"#utility.yul\":9151:9153   */\n      0x20\n        /* \"EAGLEAI/EagleAI.sol\":27529:27590  require(!_isExcluded[account], \"Account is already excluded\") */\n      0x04\n      dup3\n      add\n        /* \"#utility.yul\":9133:9154   */\n      mstore\n        /* \"#utility.yul\":9190:9192   */\n      0x1b\n        /* \"#utility.yul\":9170:9188   */\n      0x24\n      dup3\n      add\n        /* \"#utility.yul\":9163:9193   */\n      mstore\n        /* \"#utility.yul\":9229:9258   */\n      0x4163636f756e7420697320616c7265616479206578636c756465640000000000\n        /* \"#utility.yul\":9209:9227   */\n      0x44\n      dup3\n      add\n        /* \"#utility.yul\":9202:9259   */\n      mstore\n        /* \"#utility.yul\":9276:9294   */\n      0x64\n      add\n        /* \"EAGLEAI/EagleAI.sol\":27529:27590  require(!_isExcluded[account], \"Account is already excluded\") */\n      tag_291\n        /* \"#utility.yul\":8949:9300   */\n      jump\n        /* \"EAGLEAI/EagleAI.sol\":27529:27590  require(!_isExcluded[account], \"Account is already excluded\") */\n    tag_373:\n      sub(shl(0xa0, 0x01), 0x01)\n        /* \"EAGLEAI/EagleAI.sol\":27604:27620  _rOwned[account] */\n      dup2\n      and\n        /* \"EAGLEAI/EagleAI.sol\":27623:27624  0 */\n      0x00\n        /* \"EAGLEAI/EagleAI.sol\":27604:27620  _rOwned[account] */\n      swap1\n      dup2\n      mstore\n        /* \"EAGLEAI/EagleAI.sol\":27604:27611  _rOwned */\n      0x02\n        /* \"EAGLEAI/EagleAI.sol\":27604:27620  _rOwned[account] */\n      0x20\n      mstore\n      0x40\n      swap1\n      keccak256\n      sload\n        /* \"EAGLEAI/EagleAI.sol\":27604:27624  _rOwned[account] > 0 */\n      iszero\n        /* \"EAGLEAI/EagleAI.sol\":27601:27709  if(_rOwned[account] > 0) {... */\n      tag_376\n      jumpi\n      sub(shl(0xa0, 0x01), 0x01)\n        /* \"EAGLEAI/EagleAI.sol\":27680:27696  _rOwned[account] */\n      dup2\n      and\n      0x00\n      swap1\n      dup2\n      mstore\n        /* \"EAGLEAI/EagleAI.sol\":27680:27687  _rOwned */\n      0x02\n        /* \"EAGLEAI/EagleAI.sol\":27680:27696  _rOwned[account] */\n      0x20\n      mstore\n      0x40\n      swap1\n      keccak256\n      sload\n        /* \"EAGLEAI/EagleAI.sol\":27660:27697  tokenFromReflection(_rOwned[account]) */\n      tag_377\n      swap1\n        /* \"EAGLEAI/EagleAI.sol\":27660:27679  tokenFromReflection */\n      tag_106\n        /* \"EAGLEAI/EagleAI.sol\":27660:27697  tokenFromReflection(_rOwned[account]) */\n      jump\t// in\n    tag_377:\n      sub(shl(0xa0, 0x01), 0x01)\n        /* \"EAGLEAI/EagleAI.sol\":27641:27657  _tOwned[account] */\n      dup3\n      and\n      0x00\n      swap1\n      dup2\n      mstore\n        /* \"EAGLEAI/EagleAI.sol\":27641:27648  _tOwned */\n      0x03\n        /* \"EAGLEAI/EagleAI.sol\":27641:27657  _tOwned[account] */\n      0x20\n      mstore\n      0x40\n      swap1\n      keccak256\n        /* \"EAGLEAI/EagleAI.sol\":27641:27697  _tOwned[account] = tokenFromReflection(_rOwned[account]) */\n      sstore\n        /* \"EAGLEAI/EagleAI.sol\":27601:27709  if(_rOwned[account] > 0) {... */\n    tag_376:\n      sub(shl(0xa0, 0x01), 0x01)\n        /* \"EAGLEAI/EagleAI.sol\":27719:27739  _isExcluded[account] */\n      dup2\n      and\n      0x00\n      dup2\n      dup2\n      mstore\n        /* \"EAGLEAI/EagleAI.sol\":27719:27730  _isExcluded */\n      0x07\n        /* \"EAGLEAI/EagleAI.sol\":27719:27739  _isExcluded[account] */\n      0x20\n      swap1\n      dup2\n      mstore\n      0x40\n      dup1\n      dup4\n      keccak256\n        /* \"EAGLEAI/EagleAI.sol\":27719:27746  _isExcluded[account] = true */\n      dup1\n      sload\n      not(0xff)\n      and\n        /* \"EAGLEAI/EagleAI.sol\":27742:27746  true */\n      0x01\n        /* \"EAGLEAI/EagleAI.sol\":27719:27746  _isExcluded[account] = true */\n      swap1\n      dup2\n      or\n      swap1\n      swap2\n      sstore\n        /* \"EAGLEAI/EagleAI.sol\":27757:27766  _excluded */\n      0x08\n        /* \"EAGLEAI/EagleAI.sol\":27757:27780  _excluded.push(account) */\n      dup1\n      sload\n      swap2\n      dup3\n      add\n      dup2\n      sstore\n      swap1\n      swap4\n      mstore\n      0xf3f7a9fe364faab93b216da50a3214154f22a0a2b415b23a84c8169e8b636ee3\n      swap1\n      swap3\n      add\n      dup1\n      sload\n      not(sub(shl(0xa0, 0x01), 0x01))\n      and\n      dup5\n      or\n      swap1\n      sstore\n        /* \"EAGLEAI/EagleAI.sol\":27796:27823  ExcludedFromReward(account) */\n      swap1\n      mload\n        /* \"#utility.yul\":1569:1620   */\n      swap2\n      dup3\n      mstore\n        /* \"EAGLEAI/EagleAI.sol\":27796:27823  ExcludedFromReward(account) */\n      0x110b1fbed46dec7bc9019c3fba97541a3d64821a824872bb7b2ad678490855bf\n      swap2\n        /* \"#utility.yul\":1542:1560   */\n      add\n        /* \"EAGLEAI/EagleAI.sol\":27796:27823  ExcludedFromReward(account) */\n      tag_334\n        /* \"#utility.yul\":1397:1626   */\n      jump\n        /* \"EAGLEAI/EagleAI.sol\":32178:32374  function setFundWallet(address wallet) external onlyOwner{... */\n    tag_166:\n        /* \"EAGLEAI/EagleAI.sol\":6192:6198  _owner */\n      and(sub(shl(0xa0, 0x01), 0x01), sload(0x00))\n        /* \"EAGLEAI/EagleAI.sol\":4607:4617  msg.sender */\n      caller\n        /* \"EAGLEAI/EagleAI.sol\":6192:6214  _owner == _msgSender() */\n      eq\n        /* \"EAGLEAI/EagleAI.sol\":6184:6251  require(_owner == _msgSender(), \"Ownable: caller is not the owner\") */\n      tag_383\n      jumpi\n      mload(0x40)\n      shl(0xe5, 0x461bcd)\n      dup2\n      mstore\n      0x04\n      add\n      tag_291\n      swap1\n      tag_292\n      jump\t// in\n    tag_383:\n      sub(shl(0xa0, 0x01), 0x01)\n        /* \"EAGLEAI/EagleAI.sol\":32251:32271  wallet != address(0) */\n      dup2\n      and\n        /* \"EAGLEAI/EagleAI.sol\":32243:32302  require(wallet != address(0),\"Fund wallet can not be zero\") */\n      tag_386\n      jumpi\n      mload(0x40)\n      shl(0xe5, 0x461bcd)\n      dup2\n      mstore\n        /* \"#utility.yul\":9507:9509   */\n      0x20\n        /* \"EAGLEAI/EagleAI.sol\":32243:32302  require(wallet != address(0),\"Fund wallet can not be zero\") */\n      0x04\n      dup3\n      add\n        /* \"#utility.yul\":9489:9510   */\n      mstore\n        /* \"#utility.yul\":9546:9548   */\n      0x1b\n        /* \"#utility.yul\":9526:9544   */\n      0x24\n      dup3\n      add\n        /* \"#utility.yul\":9519:9549   */\n      mstore\n        /* \"#utility.yul\":9585:9614   */\n      0x46756e642077616c6c65742063616e206e6f74206265207a65726f0000000000\n        /* \"#utility.yul\":9565:9583   */\n      0x44\n      dup3\n      add\n        /* \"#utility.yul\":9558:9615   */\n      mstore\n        /* \"#utility.yul\":9632:9650   */\n      0x64\n      add\n        /* \"EAGLEAI/EagleAI.sol\":32243:32302  require(wallet != address(0),\"Fund wallet can not be zero\") */\n      tag_291\n        /* \"#utility.yul\":9305:9656   */\n      jump\n        /* \"EAGLEAI/EagleAI.sol\":32243:32302  require(wallet != address(0),\"Fund wallet can not be zero\") */\n    tag_386:\n        /* \"EAGLEAI/EagleAI.sol\":32310:32320  fundWallet */\n      0x1a\n        /* \"EAGLEAI/EagleAI.sol\":32310:32329  fundWallet = wallet */\n      dup1\n      sload\n      not(sub(shl(0xa0, 0x01), 0x01))\n      and\n      sub(shl(0xa0, 0x01), 0x01)\n      dup4\n      and\n      swap1\n      dup2\n      or\n      swap1\n      swap2\n      sstore\n        /* \"EAGLEAI/EagleAI.sol\":32342:32366  FundWalletChange(wallet) */\n      mload(0x40)\n        /* \"#utility.yul\":1569:1620   */\n      swap1\n      dup2\n      mstore\n        /* \"EAGLEAI/EagleAI.sol\":32342:32366  FundWalletChange(wallet) */\n      0x4cb53cdee53f2d4e4e60769add356f6cbd911505806fd6c1eee38f5a6b8a2574\n      swap1\n        /* \"#utility.yul\":1557:1559   */\n      0x20\n        /* \"#utility.yul\":1542:1560   */\n      add\n        /* \"EAGLEAI/EagleAI.sol\":32342:32366  FundWalletChange(wallet) */\n      tag_334\n        /* \"#utility.yul\":1397:1626   */\n      jump\n        /* \"EAGLEAI/EagleAI.sol\":52796:53428  function airdrop(address[] calldata addresses, uint[] calldata tokens) external onlyOwner {... */\n    tag_175:\n        /* \"EAGLEAI/EagleAI.sol\":6192:6198  _owner */\n      and(sub(shl(0xa0, 0x01), 0x01), sload(0x00))\n        /* \"EAGLEAI/EagleAI.sol\":4607:4617  msg.sender */\n      caller\n        /* \"EAGLEAI/EagleAI.sol\":6192:6214  _owner == _msgSender() */\n      eq\n        /* \"EAGLEAI/EagleAI.sol\":6184:6251  require(_owner == _msgSender(), \"Ownable: caller is not the owner\") */\n      tag_392\n      jumpi\n      mload(0x40)\n      shl(0xe5, 0x461bcd)\n      dup2\n      mstore\n      0x04\n      add\n      tag_291\n      swap1\n      tag_292\n      jump\t// in\n    tag_392:\n        /* \"EAGLEAI/EagleAI.sol\":52897:52916  uint256 airCapacity */\n      0x00\n        /* \"EAGLEAI/EagleAI.sol\":52939:52972  addresses.length == tokens.length */\n      dup4\n      dup3\n      eq\n        /* \"EAGLEAI/EagleAI.sol\":52931:53016  require(addresses.length == tokens.length,\"Mismatch between Address and token count\") */\n      tag_395\n      jumpi\n      mload(0x40)\n      shl(0xe5, 0x461bcd)\n      dup2\n      mstore\n        /* \"#utility.yul\":9863:9865   */\n      0x20\n        /* \"EAGLEAI/EagleAI.sol\":52931:53016  require(addresses.length == tokens.length,\"Mismatch between Address and token count\") */\n      0x04\n      dup3\n      add\n        /* \"#utility.yul\":9845:9866   */\n      mstore\n        /* \"#utility.yul\":9902:9904   */\n      0x28\n        /* \"#utility.yul\":9882:9900   */\n      0x24\n      dup3\n      add\n        /* \"#utility.yul\":9875:9905   */\n      mstore\n        /* \"#utility.yul\":9941:9975   */\n      0x4d69736d61746368206265747765656e204164647265737320616e6420746f6b\n        /* \"#utility.yul\":9921:9939   */\n      0x44\n      dup3\n      add\n        /* \"#utility.yul\":9914:9976   */\n      mstore\n      shl(0xc2, 0x195b8818dbdd5b9d)\n        /* \"#utility.yul\":9992:10010   */\n      0x64\n      dup3\n      add\n        /* \"#utility.yul\":9985:10023   */\n      mstore\n        /* \"#utility.yul\":10040:10059   */\n      0x84\n      add\n        /* \"EAGLEAI/EagleAI.sol\":52931:53016  require(addresses.length == tokens.length,\"Mismatch between Address and token count\") */\n      tag_291\n        /* \"#utility.yul\":9661:10065   */\n      jump\n        /* \"EAGLEAI/EagleAI.sol\":52931:53016  require(addresses.length == tokens.length,\"Mismatch between Address and token count\") */\n    tag_395:\n        /* \"EAGLEAI/EagleAI.sol\":53031:53037  uint i */\n      0x00\n        /* \"EAGLEAI/EagleAI.sol\":53027:53166  for(uint i=0; i < addresses.length; i++){... */\n    tag_398:\n        /* \"EAGLEAI/EagleAI.sol\":53041:53061  i < addresses.length */\n      dup5\n      dup2\n      lt\n        /* \"EAGLEAI/EagleAI.sol\":53027:53166  for(uint i=0; i < addresses.length; i++){... */\n      iszero\n      tag_399\n      jumpi\n        /* \"EAGLEAI/EagleAI.sol\":53082:53093  uint amount */\n      0x00\n        /* \"EAGLEAI/EagleAI.sol\":53096:53102  tokens */\n      dup5\n      dup5\n        /* \"EAGLEAI/EagleAI.sol\":53103:53104  i */\n      dup4\n        /* \"EAGLEAI/EagleAI.sol\":53096:53105  tokens[i] */\n      dup2\n      dup2\n      lt\n      tag_402\n      jumpi\n      tag_402\n      tag_320\n      jump\t// in\n    tag_402:\n      swap1\n      pop\n      0x20\n      mul\n      add\n      calldataload\n        /* \"EAGLEAI/EagleAI.sol\":53082:53105  uint amount = tokens[i] */\n      swap1\n      pop\n        /* \"EAGLEAI/EagleAI.sol\":53148:53154  amount */\n      dup1\n        /* \"EAGLEAI/EagleAI.sol\":53134:53145  airCapacity */\n      dup4\n        /* \"EAGLEAI/EagleAI.sol\":53134:53154  airCapacity + amount */\n      tag_403\n      swap2\n      swap1\n      tag_340\n      jump\t// in\n    tag_403:\n        /* \"EAGLEAI/EagleAI.sol\":53120:53154  airCapacity = airCapacity + amount */\n      swap3\n      pop\n      pop\n        /* \"EAGLEAI/EagleAI.sol\":53063:53066  i++ */\n      0x01\n      add\n        /* \"EAGLEAI/EagleAI.sol\":53027:53166  for(uint i=0; i < addresses.length; i++){... */\n      jump(tag_398)\n    tag_399:\n      pop\n        /* \"EAGLEAI/EagleAI.sol\":53209:53220  airCapacity */\n      dup1\n        /* \"EAGLEAI/EagleAI.sol\":53184:53205  balanceOf(msg.sender) */\n      tag_404\n        /* \"EAGLEAI/EagleAI.sol\":53194:53204  msg.sender */\n      caller\n        /* \"EAGLEAI/EagleAI.sol\":53184:53193  balanceOf */\n      tag_179\n        /* \"EAGLEAI/EagleAI.sol\":53184:53205  balanceOf(msg.sender) */\n      jump\t// in\n    tag_404:\n        /* \"EAGLEAI/EagleAI.sol\":53184:53220  balanceOf(msg.sender) >= airCapacity */\n      lt\n      iszero\n        /* \"EAGLEAI/EagleAI.sol\":53176:53253  require(balanceOf(msg.sender) >= airCapacity, \"Not enough tokens to airdrop\") */\n      tag_405\n      jumpi\n      mload(0x40)\n      shl(0xe5, 0x461bcd)\n      dup2\n      mstore\n        /* \"#utility.yul\":10272:10274   */\n      0x20\n        /* \"EAGLEAI/EagleAI.sol\":53176:53253  require(balanceOf(msg.sender) >= airCapacity, \"Not enough tokens to airdrop\") */\n      0x04\n      dup3\n      add\n        /* \"#utility.yul\":10254:10275   */\n      mstore\n        /* \"#utility.yul\":10311:10313   */\n      0x1c\n        /* \"#utility.yul\":10291:10309   */\n      0x24\n      dup3\n      add\n        /* \"#utility.yul\":10284:10314   */\n      mstore\n        /* \"#utility.yul\":10350:10380   */\n      0x4e6f7420656e6f75676820746f6b656e7320746f2061697264726f7000000000\n        /* \"#utility.yul\":10330:10348   */\n      0x44\n      dup3\n      add\n        /* \"#utility.yul\":10323:10381   */\n      mstore\n        /* \"#utility.yul\":10398:10416   */\n      0x64\n      add\n        /* \"EAGLEAI/EagleAI.sol\":53176:53253  require(balanceOf(msg.sender) >= airCapacity, \"Not enough tokens to airdrop\") */\n      tag_291\n        /* \"#utility.yul\":10070:10422   */\n      jump\n        /* \"EAGLEAI/EagleAI.sol\":53176:53253  require(balanceOf(msg.sender) >= airCapacity, \"Not enough tokens to airdrop\") */\n    tag_405:\n        /* \"EAGLEAI/EagleAI.sol\":53268:53274  uint i */\n      0x00\n        /* \"EAGLEAI/EagleAI.sol\":53264:53421  for(uint i=0; i < addresses.length; i++){... */\n    tag_408:\n        /* \"EAGLEAI/EagleAI.sol\":53278:53298  i < addresses.length */\n      dup5\n      dup2\n      lt\n        /* \"EAGLEAI/EagleAI.sol\":53264:53421  for(uint i=0; i < addresses.length; i++){... */\n      iszero\n      tag_409\n      jumpi\n        /* \"EAGLEAI/EagleAI.sol\":53319:53330  uint amount */\n      0x00\n        /* \"EAGLEAI/EagleAI.sol\":53333:53339  tokens */\n      dup5\n      dup5\n        /* \"EAGLEAI/EagleAI.sol\":53340:53341  i */\n      dup4\n        /* \"EAGLEAI/EagleAI.sol\":53333:53342  tokens[i] */\n      dup2\n      dup2\n      lt\n      tag_412\n      jumpi\n      tag_412\n      tag_320\n      jump\t// in\n    tag_412:\n      swap1\n      pop\n      0x20\n      mul\n      add\n      calldataload\n        /* \"EAGLEAI/EagleAI.sol\":53319:53342  uint amount = tokens[i] */\n      swap1\n      pop\n        /* \"EAGLEAI/EagleAI.sol\":53357:53409  _tokenTransfer(msg.sender,addresses[i],amount,false) */\n      tag_413\n        /* \"EAGLEAI/EagleAI.sol\":53372:53382  msg.sender */\n      caller\n        /* \"EAGLEAI/EagleAI.sol\":53383:53392  addresses */\n      dup9\n      dup9\n        /* \"EAGLEAI/EagleAI.sol\":53393:53394  i */\n      dup6\n        /* \"EAGLEAI/EagleAI.sol\":53383:53395  addresses[i] */\n      dup2\n      dup2\n      lt\n      tag_415\n      jumpi\n      tag_415\n      tag_320\n      jump\t// in\n    tag_415:\n      swap1\n      pop\n      0x20\n      mul\n      add\n      0x20\n      dup2\n      add\n      swap1\n      tag_416\n      swap2\n      swap1\n      tag_116\n      jump\t// in\n    tag_416:\n        /* \"EAGLEAI/EagleAI.sol\":53396:53402  amount */\n      dup4\n        /* \"EAGLEAI/EagleAI.sol\":53403:53408  false */\n      0x00\n        /* \"EAGLEAI/EagleAI.sol\":53357:53371  _tokenTransfer */\n      tag_417\n        /* \"EAGLEAI/EagleAI.sol\":53357:53409  _tokenTransfer(msg.sender,addresses[i],amount,false) */\n      jump\t// in\n    tag_413:\n      pop\n        /* \"EAGLEAI/EagleAI.sol\":53300:53303  i++ */\n      0x01\n      add\n        /* \"EAGLEAI/EagleAI.sol\":53264:53421  for(uint i=0; i < addresses.length; i++){... */\n      jump(tag_408)\n    tag_409:\n      pop\n        /* \"EAGLEAI/EagleAI.sol\":52886:53428  {... */\n      pop\n        /* \"EAGLEAI/EagleAI.sol\":52796:53428  function airdrop(address[] calldata addresses, uint[] calldata tokens) external onlyOwner {... */\n      pop\n      pop\n      pop\n      pop\n      jump\t// out\n        /* \"EAGLEAI/EagleAI.sol\":18994:19216  function balanceOf(address account) public view override returns (uint256) {... */\n    tag_179:\n      sub(shl(0xa0, 0x01), 0x01)\n        /* \"EAGLEAI/EagleAI.sol\":19084:19104  _isExcluded[account] */\n      dup2\n      and\n        /* \"EAGLEAI/EagleAI.sol\":19060:19067  uint256 */\n      0x00\n        /* \"EAGLEAI/EagleAI.sol\":19084:19104  _isExcluded[account] */\n      swap1\n      dup2\n      mstore\n        /* \"EAGLEAI/EagleAI.sol\":19084:19095  _isExcluded */\n      0x07\n        /* \"EAGLEAI/EagleAI.sol\":19084:19104  _isExcluded[account] */\n      0x20\n      mstore\n      0x40\n      dup2\n      keccak256\n      sload\n      0xff\n      and\n        /* \"EAGLEAI/EagleAI.sol\":19080:19129  if (_isExcluded[account]) return _tOwned[account] */\n      iszero\n      tag_419\n      jumpi\n      pop\n      sub(shl(0xa0, 0x01), 0x01)\n        /* \"EAGLEAI/EagleAI.sol\":19113:19129  _tOwned[account] */\n      and\n      0x00\n      swap1\n      dup2\n      mstore\n        /* \"EAGLEAI/EagleAI.sol\":19113:19120  _tOwned */\n      0x03\n        /* \"EAGLEAI/EagleAI.sol\":19113:19129  _tOwned[account] */\n      0x20\n      mstore\n      0x40\n      swap1\n      keccak256\n      sload\n      swap1\n        /* \"EAGLEAI/EagleAI.sol\":18994:19216  function balanceOf(address account) public view override returns (uint256) {... */\n      jump\t// out\n        /* \"EAGLEAI/EagleAI.sol\":19080:19129  if (_isExcluded[account]) return _tOwned[account] */\n    tag_419:\n      sub(shl(0xa0, 0x01), 0x01)\n        /* \"EAGLEAI/EagleAI.sol\":19177:19193  _rOwned[account] */\n      dup3\n      and\n      0x00\n      swap1\n      dup2\n      mstore\n        /* \"EAGLEAI/EagleAI.sol\":19177:19184  _rOwned */\n      0x02\n        /* \"EAGLEAI/EagleAI.sol\":19177:19193  _rOwned[account] */\n      0x20\n      mstore\n      0x40\n      swap1\n      keccak256\n      sload\n        /* \"EAGLEAI/EagleAI.sol\":19157:19194  tokenFromReflection(_rOwned[account]) */\n      tag_273\n      swap1\n        /* \"EAGLEAI/EagleAI.sol\":19157:19176  tokenFromReflection */\n      tag_106\n        /* \"EAGLEAI/EagleAI.sol\":19157:19194  tokenFromReflection(_rOwned[account]) */\n      jump\t// in\n        /* \"EAGLEAI/EagleAI.sol\":6623:6771  function renounceOwnership() public virtual onlyOwner {... */\n    tag_183:\n        /* \"EAGLEAI/EagleAI.sol\":6192:6198  _owner */\n      and(sub(shl(0xa0, 0x01), 0x01), sload(0x00))\n        /* \"EAGLEAI/EagleAI.sol\":4607:4617  msg.sender */\n      caller\n        /* \"EAGLEAI/EagleAI.sol\":6192:6214  _owner == _msgSender() */\n      eq\n        /* \"EAGLEAI/EagleAI.sol\":6184:6251  require(_owner == _msgSender(), \"Ownable: caller is not the owner\") */\n      tag_423\n      jumpi\n      mload(0x40)\n      shl(0xe5, 0x461bcd)\n      dup2\n      mstore\n      0x04\n      add\n      tag_291\n      swap1\n      tag_292\n      jump\t// in\n    tag_423:\n        /* \"EAGLEAI/EagleAI.sol\":6730:6731  0 */\n      0x00\n        /* \"EAGLEAI/EagleAI.sol\":6714:6720  _owner */\n      dup1\n      sload\n        /* \"EAGLEAI/EagleAI.sol\":6693:6733  OwnershipTransferred(_owner, address(0)) */\n      mload(0x40)\n      sub(shl(0xa0, 0x01), 0x01)\n        /* \"EAGLEAI/EagleAI.sol\":6714:6720  _owner */\n      swap1\n      swap2\n      and\n      swap1\n        /* \"EAGLEAI/EagleAI.sol\":6693:6733  OwnershipTransferred(_owner, address(0)) */\n      0x8be0079c531659141344cd1fd0a4f28419497f9722a3daafe3b4186f6b6457e0\n      swap1\n        /* \"EAGLEAI/EagleAI.sol\":6730:6731  0 */\n      dup4\n      swap1\n        /* \"EAGLEAI/EagleAI.sol\":6693:6733  OwnershipTransferred(_owner, address(0)) */\n      log3\n        /* \"EAGLEAI/EagleAI.sol\":6761:6762  0 */\n      0x00\n        /* \"EAGLEAI/EagleAI.sol\":6744:6763  _owner = address(0) */\n      dup1\n      sload\n      not(sub(shl(0xa0, 0x01), 0x01))\n      and\n      swap1\n      sstore\n        /* \"EAGLEAI/EagleAI.sol\":6623:6771  function renounceOwnership() public virtual onlyOwner {... */\n      jump\t// out\n        /* \"EAGLEAI/EagleAI.sol\":46762:46979  function addBlacklist(address account) external  onlyOwner {... */\n    tag_200:\n        /* \"EAGLEAI/EagleAI.sol\":6192:6198  _owner */\n      and(sub(shl(0xa0, 0x01), 0x01), sload(0x00))\n        /* \"EAGLEAI/EagleAI.sol\":4607:4617  msg.sender */\n      caller\n        /* \"EAGLEAI/EagleAI.sol\":6192:6214  _owner == _msgSender() */\n      eq\n        /* \"EAGLEAI/EagleAI.sol\":6184:6251  require(_owner == _msgSender(), \"Ownable: caller is not the owner\") */\n      tag_431\n      jumpi\n      mload(0x40)\n      shl(0xe5, 0x461bcd)\n      dup2\n      mstore\n      0x04\n      add\n      tag_291\n      swap1\n      tag_292\n      jump\t// in\n    tag_431:\n      sub(shl(0xa0, 0x01), 0x01)\n        /* \"EAGLEAI/EagleAI.sol\":46841:46861  blacklisted[account] */\n      dup2\n      and\n      0x00\n      swap1\n      dup2\n      mstore\n        /* \"EAGLEAI/EagleAI.sol\":46841:46852  blacklisted */\n      0x05\n        /* \"EAGLEAI/EagleAI.sol\":46841:46861  blacklisted[account] */\n      0x20\n      mstore\n      0x40\n      swap1\n      keccak256\n      sload\n      0xff\n      and\n        /* \"EAGLEAI/EagleAI.sol\":46840:46861  !blacklisted[account] */\n      iszero\n        /* \"EAGLEAI/EagleAI.sol\":46832:46892  require(!blacklisted[account],\"Account already blacklisted\") */\n      tag_434\n      jumpi\n      mload(0x40)\n      shl(0xe5, 0x461bcd)\n      dup2\n      mstore\n        /* \"#utility.yul\":10629:10631   */\n      0x20\n        /* \"EAGLEAI/EagleAI.sol\":46832:46892  require(!blacklisted[account],\"Account already blacklisted\") */\n      0x04\n      dup3\n      add\n        /* \"#utility.yul\":10611:10632   */\n      mstore\n        /* \"#utility.yul\":10668:10670   */\n      0x1b\n        /* \"#utility.yul\":10648:10666   */\n      0x24\n      dup3\n      add\n        /* \"#utility.yul\":10641:10671   */\n      mstore\n        /* \"#utility.yul\":10707:10736   */\n      0x4163636f756e7420616c726561647920626c61636b6c69737465640000000000\n        /* \"#utility.yul\":10687:10705   */\n      0x44\n      dup3\n      add\n        /* \"#utility.yul\":10680:10737   */\n      mstore\n        /* \"#utility.yul\":10754:10772   */\n      0x64\n      add\n        /* \"EAGLEAI/EagleAI.sol\":46832:46892  require(!blacklisted[account],\"Account already blacklisted\") */\n      tag_291\n        /* \"#utility.yul\":10427:10778   */\n      jump\n        /* \"EAGLEAI/EagleAI.sol\":46832:46892  require(!blacklisted[account],\"Account already blacklisted\") */\n    tag_434:\n      sub(shl(0xa0, 0x01), 0x01)\n        /* \"EAGLEAI/EagleAI.sol\":46903:46923  blacklisted[account] */\n      dup2\n      and\n      0x00\n      dup2\n      dup2\n      mstore\n        /* \"EAGLEAI/EagleAI.sol\":46903:46914  blacklisted */\n      0x05\n        /* \"EAGLEAI/EagleAI.sol\":46903:46923  blacklisted[account] */\n      0x20\n      swap1\n      dup2\n      mstore\n      0x40\n      swap2\n      dup3\n      swap1\n      keccak256\n        /* \"EAGLEAI/EagleAI.sol\":46903:46930  blacklisted[account] = true */\n      dup1\n      sload\n      not(0xff)\n      and\n        /* \"EAGLEAI/EagleAI.sol\":46926:46930  true */\n      0x01\n        /* \"EAGLEAI/EagleAI.sol\":46903:46930  blacklisted[account] = true */\n      or\n      swap1\n      sstore\n        /* \"EAGLEAI/EagleAI.sol\":46946:46971  AddedInBlacklist(account) */\n      swap1\n      mload\n        /* \"#utility.yul\":1569:1620   */\n      swap2\n      dup3\n      mstore\n        /* \"EAGLEAI/EagleAI.sol\":46946:46971  AddedInBlacklist(account) */\n      0x4e63251189d11de41cff7396332e25ed3c84d6c08ef82ed74ba63a95edf8e3ef\n      swap2\n        /* \"#utility.yul\":1542:1560   */\n      add\n        /* \"EAGLEAI/EagleAI.sol\":46946:46971  AddedInBlacklist(account) */\n      tag_334\n        /* \"#utility.yul\":1397:1626   */\n      jump\n        /* \"EAGLEAI/EagleAI.sol\":23319:23544  function decreaseAllowance(address spender, uint256 subtractedValue) external virtual returns (bool) {... */\n    tag_204:\n        /* \"EAGLEAI/EagleAI.sol\":4607:4617  msg.sender */\n      caller\n        /* \"EAGLEAI/EagleAI.sol\":23414:23418  bool */\n      0x00\n        /* \"EAGLEAI/EagleAI.sol\":23463:23488  _allowances[_msgSender()] */\n      dup2\n      dup2\n      mstore\n        /* \"EAGLEAI/EagleAI.sol\":23463:23474  _allowances */\n      0x04\n        /* \"EAGLEAI/EagleAI.sol\":23463:23488  _allowances[_msgSender()] */\n      0x20\n      swap1\n      dup2\n      mstore\n      0x40\n      dup1\n      dup4\n      keccak256\n      sub(shl(0xa0, 0x01), 0x01)\n        /* \"EAGLEAI/EagleAI.sol\":23463:23497  _allowances[_msgSender()][spender] */\n      dup8\n      and\n      dup5\n      mstore\n      swap1\n      swap2\n      mstore\n      dup2\n      keccak256\n      sload\n        /* \"EAGLEAI/EagleAI.sol\":23414:23418  bool */\n      swap1\n      swap2\n        /* \"EAGLEAI/EagleAI.sol\":23431:23514  _approve(_msgSender(), spender, _allowances[_msgSender()][spender]-subtractedValue) */\n      tag_274\n      swap2\n        /* \"EAGLEAI/EagleAI.sol\":23454:23461  spender */\n      dup6\n      swap1\n        /* \"EAGLEAI/EagleAI.sol\":23463:23513  _allowances[_msgSender()][spender]-subtractedValue */\n      tag_286\n      swap1\n        /* \"EAGLEAI/EagleAI.sol\":23498:23513  subtractedValue */\n      dup7\n      swap1\n        /* \"EAGLEAI/EagleAI.sol\":23463:23513  _allowances[_msgSender()][spender]-subtractedValue */\n      tag_287\n      jump\t// in\n        /* \"EAGLEAI/EagleAI.sol\":19675:19844  function transfer(address recipient, uint256 amount) external override returns (bool) {... */\n    tag_209:\n        /* \"EAGLEAI/EagleAI.sol\":19755:19759  bool */\n      0x00\n        /* \"EAGLEAI/EagleAI.sol\":19772:19814  _transfer(_msgSender(), recipient, amount) */\n      tag_274\n        /* \"EAGLEAI/EagleAI.sol\":4607:4617  msg.sender */\n      caller\n        /* \"EAGLEAI/EagleAI.sol\":19796:19805  recipient */\n      dup5\n        /* \"EAGLEAI/EagleAI.sol\":19807:19813  amount */\n      dup5\n        /* \"EAGLEAI/EagleAI.sol\":19772:19781  _transfer */\n      tag_282\n        /* \"EAGLEAI/EagleAI.sol\":19772:19814  _transfer(_msgSender(), recipient, amount) */\n      jump\t// in\n        /* \"EAGLEAI/EagleAI.sol\":49537:50318  function updateSellTaxPer(uint256 reflectionPercent,uint256 coinOperartionPer,uint256 liquidityTaxPer,uint256 burnTaxPer) external onlyOwner {... */\n    tag_215:\n        /* \"EAGLEAI/EagleAI.sol\":6192:6198  _owner */\n      and(sub(shl(0xa0, 0x01), 0x01), sload(0x00))\n        /* \"EAGLEAI/EagleAI.sol\":4607:4617  msg.sender */\n      caller\n        /* \"EAGLEAI/EagleAI.sol\":6192:6214  _owner == _msgSender() */\n      eq\n        /* \"EAGLEAI/EagleAI.sol\":6184:6251  require(_owner == _msgSender(), \"Ownable: caller is not the owner\") */\n      tag_448\n      jumpi\n      mload(0x40)\n      shl(0xe5, 0x461bcd)\n      dup2\n      mstore\n      0x04\n      add\n      tag_291\n      swap1\n      tag_292\n      jump\t// in\n    tag_448:\n        /* \"EAGLEAI/EagleAI.sol\":49718:49719  6 */\n      0x06\n        /* \"EAGLEAI/EagleAI.sol\":49697:49714  reflectionPercent */\n      dup5\n        /* \"EAGLEAI/EagleAI.sol\":49697:49719  reflectionPercent <= 6 */\n      gt\n      iszero\n        /* \"EAGLEAI/EagleAI.sol\":49689:49766  require(reflectionPercent <= 6,\"You can not set reflection tax more then 6%\") */\n      tag_451\n      jumpi\n      mload(0x40)\n      shl(0xe5, 0x461bcd)\n      dup2\n      mstore\n      0x04\n      add\n      tag_291\n      swap1\n      tag_453\n      jump\t// in\n    tag_451:\n        /* \"EAGLEAI/EagleAI.sol\":49806:49807  6 */\n      0x06\n        /* \"EAGLEAI/EagleAI.sol\":49785:49802  coinOperartionPer */\n      dup4\n        /* \"EAGLEAI/EagleAI.sol\":49785:49807  coinOperartionPer <= 6 */\n      gt\n      iszero\n        /* \"EAGLEAI/EagleAI.sol\":49777:49859  require(coinOperartionPer <= 6,\"You can not set coin operation  tax more then 6%\") */\n      tag_454\n      jumpi\n      mload(0x40)\n      shl(0xe5, 0x461bcd)\n      dup2\n      mstore\n      0x04\n      add\n      tag_291\n      swap1\n      tag_456\n      jump\t// in\n    tag_454:\n        /* \"EAGLEAI/EagleAI.sol\":49897:49898  6 */\n      0x06\n        /* \"EAGLEAI/EagleAI.sol\":49878:49893  liquidityTaxPer */\n      dup3\n        /* \"EAGLEAI/EagleAI.sol\":49878:49898  liquidityTaxPer <= 6 */\n      gt\n      iszero\n        /* \"EAGLEAI/EagleAI.sol\":49870:49944  require(liquidityTaxPer <= 6,\"You can not set liquidity tax more then 6%\") */\n      tag_457\n      jumpi\n      mload(0x40)\n      shl(0xe5, 0x461bcd)\n      dup2\n      mstore\n      0x04\n      add\n      tag_291\n      swap1\n      tag_459\n      jump\t// in\n    tag_457:\n        /* \"EAGLEAI/EagleAI.sol\":49977:49978  6 */\n      0x06\n        /* \"EAGLEAI/EagleAI.sol\":49963:49973  burnTaxPer */\n      dup2\n        /* \"EAGLEAI/EagleAI.sol\":49963:49978  burnTaxPer <= 6 */\n      gt\n      iszero\n        /* \"EAGLEAI/EagleAI.sol\":49955:50020  require(burnTaxPer <= 6,\"You can not set burn  tax more then 6%\") */\n      tag_460\n      jumpi\n      mload(0x40)\n      shl(0xe5, 0x461bcd)\n      dup2\n      mstore\n      0x04\n      add\n      tag_291\n      swap1\n      tag_462\n      jump\t// in\n    tag_460:\n        /* \"EAGLEAI/EagleAI.sol\":50031:50048  sellReflectionTax */\n      0x16\n        /* \"EAGLEAI/EagleAI.sol\":50031:50068  sellReflectionTax = reflectionPercent */\n      dup5\n      swap1\n      sstore\n        /* \"EAGLEAI/EagleAI.sol\":50079:50099  sellCoinWalletTaxPer */\n      0x17\n        /* \"EAGLEAI/EagleAI.sol\":50079:50119  sellCoinWalletTaxPer = coinOperartionPer */\n      dup4\n      swap1\n      sstore\n        /* \"EAGLEAI/EagleAI.sol\":50130:50149  sellLiquidityTaxPer */\n      0x18\n        /* \"EAGLEAI/EagleAI.sol\":50130:50167  sellLiquidityTaxPer = liquidityTaxPer */\n      dup3\n      swap1\n      sstore\n        /* \"EAGLEAI/EagleAI.sol\":50178:50192  sellBurnTaxPer */\n      0x19\n        /* \"EAGLEAI/EagleAI.sol\":50178:50205  sellBurnTaxPer = burnTaxPer */\n      dup2\n      swap1\n      sstore\n        /* \"EAGLEAI/EagleAI.sol\":50221:50310  SellTaxUpdated(sellReflectionTax,sellCoinWalletTaxPer,sellLiquidityTaxPer,sellBurnTaxPer) */\n      0x40\n      dup1\n      mload\n        /* \"#utility.yul\":12661:12686   */\n      dup6\n      dup2\n      mstore\n        /* \"#utility.yul\":12717:12719   */\n      0x20\n        /* \"#utility.yul\":12702:12720   */\n      dup2\n      add\n        /* \"#utility.yul\":12695:12729   */\n      dup6\n      swap1\n      mstore\n        /* \"#utility.yul\":12745:12763   */\n      swap1\n      dup2\n      add\n        /* \"#utility.yul\":12738:12772   */\n      dup4\n      swap1\n      mstore\n        /* \"#utility.yul\":12803:12805   */\n      0x60\n        /* \"#utility.yul\":12788:12806   */\n      dup2\n      add\n        /* \"#utility.yul\":12781:12815   */\n      dup3\n      swap1\n      mstore\n        /* \"EAGLEAI/EagleAI.sol\":50221:50310  SellTaxUpdated(sellReflectionTax,sellCoinWalletTaxPer,sellLiquidityTaxPer,sellBurnTaxPer) */\n      0xa987db89f31df6351bb1ad3d58f4e5ef54e52c1e3389622f2b38adcf43a086ae\n      swap1\n        /* \"#utility.yul\":12648:12651   */\n      0x80\n        /* \"#utility.yul\":12633:12652   */\n      add\n        /* \"EAGLEAI/EagleAI.sol\":50221:50310  SellTaxUpdated(sellReflectionTax,sellCoinWalletTaxPer,sellLiquidityTaxPer,sellBurnTaxPer) */\n    tag_463:\n      mload(0x40)\n      dup1\n      swap2\n      sub\n      swap1\n      log1\n        /* \"EAGLEAI/EagleAI.sol\":49537:50318  function updateSellTaxPer(uint256 reflectionPercent,uint256 coinOperartionPer,uint256 liquidityTaxPer,uint256 burnTaxPer) external onlyOwner {... */\n      pop\n      pop\n      pop\n      pop\n      jump\t// out\n        /* \"EAGLEAI/EagleAI.sol\":32901:33071  function setSwapAndLiquifyEnabled(bool enabled) external onlyOwner {... */\n    tag_224:\n        /* \"EAGLEAI/EagleAI.sol\":6192:6198  _owner */\n      and(sub(shl(0xa0, 0x01), 0x01), sload(0x00))\n        /* \"EAGLEAI/EagleAI.sol\":4607:4617  msg.sender */\n      caller\n        /* \"EAGLEAI/EagleAI.sol\":6192:6214  _owner == _msgSender() */\n      eq\n        /* \"EAGLEAI/EagleAI.sol\":6184:6251  require(_owner == _msgSender(), \"Ownable: caller is not the owner\") */\n      tag_467\n      jumpi\n      mload(0x40)\n      shl(0xe5, 0x461bcd)\n      dup2\n      mstore\n      0x04\n      add\n      tag_291\n      swap1\n      tag_292\n      jump\t// in\n    tag_467:\n        /* \"EAGLEAI/EagleAI.sol\":32979:33000  swapAndLiquifyEnabled */\n      0x0c\n        /* \"EAGLEAI/EagleAI.sol\":32979:33010  swapAndLiquifyEnabled = enabled */\n      dup1\n      sload\n      dup3\n      iszero\n      iszero\n      0x0100\n      mul\n      not(0xff00)\n      swap1\n      swap2\n      and\n      or\n      swap1\n      sstore\n        /* \"EAGLEAI/EagleAI.sol\":33026:33063  SwapAndLiquifyEnabledUpdated(enabled) */\n      mload(0x40)\n      0x53726dfcaf90650aa7eb35524f4d3220f07413c8d6cb404cc8c18bf5591bc159\n      swap1\n      tag_334\n      swap1\n        /* \"EAGLEAI/EagleAI.sol\":33003:33010  enabled */\n      dup4\n        /* \"#utility.yul\":1188:1202   */\n      iszero\n        /* \"#utility.yul\":1181:1203   */\n      iszero\n        /* \"#utility.yul\":1163:1204   */\n      dup2\n      mstore\n        /* \"#utility.yul\":1151:1153   */\n      0x20\n        /* \"#utility.yul\":1136:1154   */\n      add\n      swap1\n        /* \"#utility.yul\":1023:1210   */\n      jump\n        /* \"EAGLEAI/EagleAI.sol\":33672:33951  function updateThreshold(uint256 amount) external onlyOwner {... */\n    tag_232:\n        /* \"EAGLEAI/EagleAI.sol\":6192:6198  _owner */\n      and(sub(shl(0xa0, 0x01), 0x01), sload(0x00))\n        /* \"EAGLEAI/EagleAI.sol\":4607:4617  msg.sender */\n      caller\n        /* \"EAGLEAI/EagleAI.sol\":6192:6214  _owner == _msgSender() */\n      eq\n        /* \"EAGLEAI/EagleAI.sol\":6184:6251  require(_owner == _msgSender(), \"Ownable: caller is not the owner\") */\n      tag_473\n      jumpi\n      mload(0x40)\n      shl(0xe5, 0x461bcd)\n      dup2\n      mstore\n      0x04\n      add\n      tag_291\n      swap1\n      tag_292\n      jump\t// in\n    tag_473:\n        /* \"EAGLEAI/EagleAI.sol\":33760:33761  0 */\n      0x00\n        /* \"EAGLEAI/EagleAI.sol\":33751:33757  amount */\n      dup2\n        /* \"EAGLEAI/EagleAI.sol\":33751:33761  amount > 0 */\n      gt\n        /* \"EAGLEAI/EagleAI.sol\":33751:33793  amount > 0 && amount <= 5 * 10**5 * 10**18 */\n      dup1\n      iszero\n      tag_476\n      jumpi\n      pop\n        /* \"EAGLEAI/EagleAI.sol\":33775:33793  5 * 10**5 * 10**18 */\n      0x69e10de76676d0800000\n        /* \"EAGLEAI/EagleAI.sol\":33765:33771  amount */\n      dup2\n        /* \"EAGLEAI/EagleAI.sol\":33765:33793  amount <= 5 * 10**5 * 10**18 */\n      gt\n      iszero\n        /* \"EAGLEAI/EagleAI.sol\":33751:33793  amount > 0 && amount <= 5 * 10**5 * 10**18 */\n    tag_476:\n        /* \"EAGLEAI/EagleAI.sol\":33743:33854  require(amount > 0 && amount <= 5 * 10**5 * 10**18,\"Amount should be more than zero and less than 500k tokens\") */\n      tag_477\n      jumpi\n      mload(0x40)\n      shl(0xe5, 0x461bcd)\n      dup2\n      mstore\n        /* \"#utility.yul\":13028:13030   */\n      0x20\n        /* \"EAGLEAI/EagleAI.sol\":33743:33854  require(amount > 0 && amount <= 5 * 10**5 * 10**18,\"Amount should be more than zero and less than 500k tokens\") */\n      0x04\n      dup3\n      add\n        /* \"#utility.yul\":13010:13031   */\n      mstore\n        /* \"#utility.yul\":13067:13069   */\n      0x39\n        /* \"#utility.yul\":13047:13065   */\n      0x24\n      dup3\n      add\n        /* \"#utility.yul\":13040:13070   */\n      mstore\n        /* \"#utility.yul\":13106:13140   */\n      0x416d6f756e742073686f756c64206265206d6f7265207468616e207a65726f20\n        /* \"#utility.yul\":13086:13104   */\n      0x44\n      dup3\n      add\n        /* \"#utility.yul\":13079:13141   */\n      mstore\n        /* \"#utility.yul\":13177:13204   */\n      0x616e64206c657373207468616e203530306b20746f6b656e7300000000000000\n        /* \"#utility.yul\":13157:13175   */\n      0x64\n      dup3\n      add\n        /* \"#utility.yul\":13150:13205   */\n      mstore\n        /* \"#utility.yul\":13222:13241   */\n      0x84\n      add\n        /* \"EAGLEAI/EagleAI.sol\":33743:33854  require(amount > 0 && amount <= 5 * 10**5 * 10**18,\"Amount should be more than zero and less than 500k tokens\") */\n      tag_291\n        /* \"#utility.yul\":12826:13247   */\n      jump\n        /* \"EAGLEAI/EagleAI.sol\":33743:33854  require(amount > 0 && amount <= 5 * 10**5 * 10**18,\"Amount should be more than zero and less than 500k tokens\") */\n    tag_477:\n        /* \"EAGLEAI/EagleAI.sol\":33865:33894  numTokensSellToAddToLiquidity */\n      0x0d\n        /* \"EAGLEAI/EagleAI.sol\":33865:33903  numTokensSellToAddToLiquidity = amount */\n      dup2\n      swap1\n      sstore\n        /* \"EAGLEAI/EagleAI.sol\":33919:33943  ThresholdUpdated(amount) */\n      mload(0x40)\n        /* \"#utility.yul\":1361:1386   */\n      dup2\n      dup2\n      mstore\n        /* \"EAGLEAI/EagleAI.sol\":33919:33943  ThresholdUpdated(amount) */\n      0xadfa8ecb21b6962ebcd0adbd9ab985b7b4c5b5eb3b0dead683171565c7bfe171\n      swap1\n        /* \"#utility.yul\":1349:1351   */\n      0x20\n        /* \"#utility.yul\":1334:1352   */\n      add\n        /* \"EAGLEAI/EagleAI.sol\":33919:33943  ThresholdUpdated(amount) */\n      tag_334\n        /* \"#utility.yul\":1215:1392   */\n      jump\n        /* \"EAGLEAI/EagleAI.sol\":31615:31837  function includeInFee(address account) external onlyOwner {... */\n    tag_259:\n        /* \"EAGLEAI/EagleAI.sol\":6192:6198  _owner */\n      and(sub(shl(0xa0, 0x01), 0x01), sload(0x00))\n        /* \"EAGLEAI/EagleAI.sol\":4607:4617  msg.sender */\n      caller\n        /* \"EAGLEAI/EagleAI.sol\":6192:6214  _owner == _msgSender() */\n      eq\n        /* \"EAGLEAI/EagleAI.sol\":6184:6251  require(_owner == _msgSender(), \"Ownable: caller is not the owner\") */\n      tag_484\n      jumpi\n      mload(0x40)\n      shl(0xe5, 0x461bcd)\n      dup2\n      mstore\n      0x04\n      add\n      tag_291\n      swap1\n      tag_292\n      jump\t// in\n    tag_484:\n      sub(shl(0xa0, 0x01), 0x01)\n        /* \"EAGLEAI/EagleAI.sol\":31692:31719  _isExcludedFromFee[account] */\n      dup2\n      and\n      0x00\n      swap1\n      dup2\n      mstore\n        /* \"EAGLEAI/EagleAI.sol\":31692:31710  _isExcludedFromFee */\n      0x06\n        /* \"EAGLEAI/EagleAI.sol\":31692:31719  _isExcludedFromFee[account] */\n      0x20\n      mstore\n      0x40\n      swap1\n      keccak256\n      sload\n      0xff\n      and\n        /* \"EAGLEAI/EagleAI.sol\":31684:31745  require(_isExcludedFromFee[account],\"Alreay included in fee\") */\n      tag_487\n      jumpi\n      mload(0x40)\n      shl(0xe5, 0x461bcd)\n      dup2\n      mstore\n        /* \"#utility.yul\":13454:13456   */\n      0x20\n        /* \"EAGLEAI/EagleAI.sol\":31684:31745  require(_isExcludedFromFee[account],\"Alreay included in fee\") */\n      0x04\n      dup3\n      add\n        /* \"#utility.yul\":13436:13457   */\n      mstore\n        /* \"#utility.yul\":13493:13495   */\n      0x16\n        /* \"#utility.yul\":13473:13491   */\n      0x24\n      dup3\n      add\n        /* \"#utility.yul\":13466:13496   */\n      mstore\n      shl(0x50, 0x416c7265617920696e636c7564656420696e20666565)\n        /* \"#utility.yul\":13512:13530   */\n      0x44\n      dup3\n      add\n        /* \"#utility.yul\":13505:13557   */\n      mstore\n        /* \"#utility.yul\":13574:13592   */\n      0x64\n      add\n        /* \"EAGLEAI/EagleAI.sol\":31684:31745  require(_isExcludedFromFee[account],\"Alreay included in fee\") */\n      tag_291\n        /* \"#utility.yul\":13252:13598   */\n      jump\n        /* \"EAGLEAI/EagleAI.sol\":31684:31745  require(_isExcludedFromFee[account],\"Alreay included in fee\") */\n    tag_487:\n      sub(shl(0xa0, 0x01), 0x01)\n        /* \"EAGLEAI/EagleAI.sol\":31756:31783  _isExcludedFromFee[account] */\n      dup2\n      and\n        /* \"EAGLEAI/EagleAI.sol\":31786:31791  false */\n      0x00\n        /* \"EAGLEAI/EagleAI.sol\":31756:31783  _isExcludedFromFee[account] */\n      dup2\n      dup2\n      mstore\n        /* \"EAGLEAI/EagleAI.sol\":31756:31774  _isExcludedFromFee */\n      0x06\n        /* \"EAGLEAI/EagleAI.sol\":31756:31783  _isExcludedFromFee[account] */\n      0x20\n      swap1\n      dup2\n      mstore\n      0x40\n      swap2\n      dup3\n      swap1\n      keccak256\n        /* \"EAGLEAI/EagleAI.sol\":31756:31791  _isExcludedFromFee[account] = false */\n      dup1\n      sload\n      not(0xff)\n      and\n      swap1\n      sstore\n        /* \"EAGLEAI/EagleAI.sol\":31807:31829  IncludedInFee(account) */\n      swap1\n      mload\n        /* \"#utility.yul\":1569:1620   */\n      swap2\n      dup3\n      mstore\n        /* \"EAGLEAI/EagleAI.sol\":31807:31829  IncludedInFee(account) */\n      0x78ce087db51d01d3e32355f2d83455d5a39f99194c8d3d1c2614893695cee442\n      swap2\n        /* \"#utility.yul\":1542:1560   */\n      add\n        /* \"EAGLEAI/EagleAI.sol\":31807:31829  IncludedInFee(account) */\n      tag_334\n        /* \"#utility.yul\":1397:1626   */\n      jump\n        /* \"EAGLEAI/EagleAI.sol\":48081:48859  function updateBuyTaxPer(uint256 reflectionPercent,uint256 coinOperartionPer,uint256 liquidityTaxPer,uint256 burnTaxPer) external onlyOwner {... */\n    tag_263:\n        /* \"EAGLEAI/EagleAI.sol\":6192:6198  _owner */\n      and(sub(shl(0xa0, 0x01), 0x01), sload(0x00))\n        /* \"EAGLEAI/EagleAI.sol\":4607:4617  msg.sender */\n      caller\n        /* \"EAGLEAI/EagleAI.sol\":6192:6214  _owner == _msgSender() */\n      eq\n        /* \"EAGLEAI/EagleAI.sol\":6184:6251  require(_owner == _msgSender(), \"Ownable: caller is not the owner\") */\n      tag_493\n      jumpi\n      mload(0x40)\n      shl(0xe5, 0x461bcd)\n      dup2\n      mstore\n      0x04\n      add\n      tag_291\n      swap1\n      tag_292\n      jump\t// in\n    tag_493:\n        /* \"EAGLEAI/EagleAI.sol\":48261:48262  6 */\n      0x06\n        /* \"EAGLEAI/EagleAI.sol\":48240:48257  reflectionPercent */\n      dup5\n        /* \"EAGLEAI/EagleAI.sol\":48240:48262  reflectionPercent <= 6 */\n      gt\n      iszero\n        /* \"EAGLEAI/EagleAI.sol\":48232:48309  require(reflectionPercent <= 6,\"You can not set reflection tax more then 6%\") */\n      tag_496\n      jumpi\n      mload(0x40)\n      shl(0xe5, 0x461bcd)\n      dup2\n      mstore\n      0x04\n      add\n      tag_291\n      swap1\n      tag_453\n      jump\t// in\n    tag_496:\n        /* \"EAGLEAI/EagleAI.sol\":48349:48350  6 */\n      0x06\n        /* \"EAGLEAI/EagleAI.sol\":48328:48345  coinOperartionPer */\n      dup4\n        /* \"EAGLEAI/EagleAI.sol\":48328:48350  coinOperartionPer <= 6 */\n      gt\n      iszero\n        /* \"EAGLEAI/EagleAI.sol\":48320:48402  require(coinOperartionPer <= 6,\"You can not set coin operation  tax more then 6%\") */\n      tag_498\n      jumpi\n      mload(0x40)\n      shl(0xe5, 0x461bcd)\n      dup2\n      mstore\n      0x04\n      add\n      tag_291\n      swap1\n      tag_456\n      jump\t// in\n    tag_498:\n        /* \"EAGLEAI/EagleAI.sol\":48440:48441  6 */\n      0x06\n        /* \"EAGLEAI/EagleAI.sol\":48421:48436  liquidityTaxPer */\n      dup3\n        /* \"EAGLEAI/EagleAI.sol\":48421:48441  liquidityTaxPer <= 6 */\n      gt\n      iszero\n        /* \"EAGLEAI/EagleAI.sol\":48413:48487  require(liquidityTaxPer <= 6,\"You can not set liquidity tax more then 6%\") */\n      tag_500\n      jumpi\n      mload(0x40)\n      shl(0xe5, 0x461bcd)\n      dup2\n      mstore\n      0x04\n      add\n      tag_291\n      swap1\n      tag_459\n      jump\t// in\n    tag_500:\n        /* \"EAGLEAI/EagleAI.sol\":48520:48521  6 */\n      0x06\n        /* \"EAGLEAI/EagleAI.sol\":48506:48516  burnTaxPer */\n      dup2\n        /* \"EAGLEAI/EagleAI.sol\":48506:48521  burnTaxPer <= 6 */\n      gt\n      iszero\n        /* \"EAGLEAI/EagleAI.sol\":48498:48563  require(burnTaxPer <= 6,\"You can not set burn  tax more then 6%\") */\n      tag_502\n      jumpi\n      mload(0x40)\n      shl(0xe5, 0x461bcd)\n      dup2\n      mstore\n      0x04\n      add\n      tag_291\n      swap1\n      tag_462\n      jump\t// in\n    tag_502:\n        /* \"EAGLEAI/EagleAI.sol\":48581:48597  buyReflectionTax */\n      0x12\n        /* \"EAGLEAI/EagleAI.sol\":48581:48617  buyReflectionTax = reflectionPercent */\n      dup5\n      swap1\n      sstore\n        /* \"EAGLEAI/EagleAI.sol\":48628:48647  buyCoinWalletTaxPer */\n      0x13\n        /* \"EAGLEAI/EagleAI.sol\":48628:48667  buyCoinWalletTaxPer = coinOperartionPer */\n      dup4\n      swap1\n      sstore\n        /* \"EAGLEAI/EagleAI.sol\":48678:48696  buyLiquidityTaxPer */\n      0x14\n        /* \"EAGLEAI/EagleAI.sol\":48678:48714  buyLiquidityTaxPer = liquidityTaxPer */\n      dup3\n      swap1\n      sstore\n        /* \"EAGLEAI/EagleAI.sol\":48725:48738  buyBurnTaxPer */\n      0x15\n        /* \"EAGLEAI/EagleAI.sol\":48725:48751  buyBurnTaxPer = burnTaxPer */\n      dup2\n      swap1\n      sstore\n        /* \"EAGLEAI/EagleAI.sol\":48767:48851  BuyTaxUpdated(buyReflectionTax,buyCoinWalletTaxPer,buyLiquidityTaxPer,buyBurnTaxPer) */\n      0x40\n      dup1\n      mload\n        /* \"#utility.yul\":12661:12686   */\n      dup6\n      dup2\n      mstore\n        /* \"#utility.yul\":12717:12719   */\n      0x20\n        /* \"#utility.yul\":12702:12720   */\n      dup2\n      add\n        /* \"#utility.yul\":12695:12729   */\n      dup6\n      swap1\n      mstore\n        /* \"#utility.yul\":12745:12763   */\n      swap1\n      dup2\n      add\n        /* \"#utility.yul\":12738:12772   */\n      dup4\n      swap1\n      mstore\n        /* \"#utility.yul\":12803:12805   */\n      0x60\n        /* \"#utility.yul\":12788:12806   */\n      dup2\n      add\n        /* \"#utility.yul\":12781:12815   */\n      dup3\n      swap1\n      mstore\n        /* \"EAGLEAI/EagleAI.sol\":48767:48851  BuyTaxUpdated(buyReflectionTax,buyCoinWalletTaxPer,buyLiquidityTaxPer,buyBurnTaxPer) */\n      0x39dd28ec6ca271c82451a8ef3e1422d281febc1d63701dd827a8573ed55bd485\n      swap1\n        /* \"#utility.yul\":12648:12651   */\n      0x80\n        /* \"#utility.yul\":12633:12652   */\n      add\n        /* \"EAGLEAI/EagleAI.sol\":48767:48851  BuyTaxUpdated(buyReflectionTax,buyCoinWalletTaxPer,buyLiquidityTaxPer,buyBurnTaxPer) */\n      tag_463\n        /* \"#utility.yul\":12430:12821   */\n      jump\n        /* \"EAGLEAI/EagleAI.sol\":47186:47406  function removeBlacklist(address account) external  onlyOwner {... */\n    tag_267:\n        /* \"EAGLEAI/EagleAI.sol\":6192:6198  _owner */\n      and(sub(shl(0xa0, 0x01), 0x01), sload(0x00))\n        /* \"EAGLEAI/EagleAI.sol\":4607:4617  msg.sender */\n      caller\n        /* \"EAGLEAI/EagleAI.sol\":6192:6214  _owner == _msgSender() */\n      eq\n        /* \"EAGLEAI/EagleAI.sol\":6184:6251  require(_owner == _msgSender(), \"Ownable: caller is not the owner\") */\n      tag_507\n      jumpi\n      mload(0x40)\n      shl(0xe5, 0x461bcd)\n      dup2\n      mstore\n      0x04\n      add\n      tag_291\n      swap1\n      tag_292\n      jump\t// in\n    tag_507:\n      sub(shl(0xa0, 0x01), 0x01)\n        /* \"EAGLEAI/EagleAI.sol\":47267:47287  blacklisted[account] */\n      dup2\n      and\n      0x00\n      swap1\n      dup2\n      mstore\n        /* \"EAGLEAI/EagleAI.sol\":47267:47278  blacklisted */\n      0x05\n        /* \"EAGLEAI/EagleAI.sol\":47267:47287  blacklisted[account] */\n      0x20\n      mstore\n      0x40\n      swap1\n      keccak256\n      sload\n      0xff\n      and\n        /* \"EAGLEAI/EagleAI.sol\":47259:47314  require(blacklisted[account],\"Account not blacklisted\") */\n      tag_510\n      jumpi\n      mload(0x40)\n      shl(0xe5, 0x461bcd)\n      dup2\n      mstore\n        /* \"#utility.yul\":13805:13807   */\n      0x20\n        /* \"EAGLEAI/EagleAI.sol\":47259:47314  require(blacklisted[account],\"Account not blacklisted\") */\n      0x04\n      dup3\n      add\n        /* \"#utility.yul\":13787:13808   */\n      mstore\n        /* \"#utility.yul\":13844:13846   */\n      0x17\n        /* \"#utility.yul\":13824:13842   */\n      0x24\n      dup3\n      add\n        /* \"#utility.yul\":13817:13847   */\n      mstore\n        /* \"#utility.yul\":13883:13908   */\n      0x4163636f756e74206e6f7420626c61636b6c6973746564000000000000000000\n        /* \"#utility.yul\":13863:13881   */\n      0x44\n      dup3\n      add\n        /* \"#utility.yul\":13856:13909   */\n      mstore\n        /* \"#utility.yul\":13926:13944   */\n      0x64\n      add\n        /* \"EAGLEAI/EagleAI.sol\":47259:47314  require(blacklisted[account],\"Account not blacklisted\") */\n      tag_291\n        /* \"#utility.yul\":13603:13950   */\n      jump\n        /* \"EAGLEAI/EagleAI.sol\":47259:47314  require(blacklisted[account],\"Account not blacklisted\") */\n    tag_510:\n      sub(shl(0xa0, 0x01), 0x01)\n        /* \"EAGLEAI/EagleAI.sol\":47325:47345  blacklisted[account] */\n      dup2\n      and\n        /* \"EAGLEAI/EagleAI.sol\":47348:47353  false */\n      0x00\n        /* \"EAGLEAI/EagleAI.sol\":47325:47345  blacklisted[account] */\n      dup2\n      dup2\n      mstore\n        /* \"EAGLEAI/EagleAI.sol\":47325:47336  blacklisted */\n      0x05\n        /* \"EAGLEAI/EagleAI.sol\":47325:47345  blacklisted[account] */\n      0x20\n      swap1\n      dup2\n      mstore\n      0x40\n      swap2\n      dup3\n      swap1\n      keccak256\n        /* \"EAGLEAI/EagleAI.sol\":47325:47353  blacklisted[account] = false */\n      dup1\n      sload\n      not(0xff)\n      and\n      swap1\n      sstore\n        /* \"EAGLEAI/EagleAI.sol\":47369:47398  RemovedFromBlacklist(account) */\n      swap1\n      mload\n        /* \"#utility.yul\":1569:1620   */\n      swap2\n      dup3\n      mstore\n        /* \"EAGLEAI/EagleAI.sol\":47369:47398  RemovedFromBlacklist(account) */\n      0x2b6bf71b58b3583add364b3d9060ebf8019650f65f5be35f5464b9cb3e4ba2d4\n      swap2\n        /* \"#utility.yul\":1542:1560   */\n      add\n        /* \"EAGLEAI/EagleAI.sol\":47369:47398  RemovedFromBlacklist(account) */\n      tag_334\n        /* \"#utility.yul\":1397:1626   */\n      jump\n        /* \"EAGLEAI/EagleAI.sol\":6926:7170  function transferOwnership(address newOwner) public virtual onlyOwner {... */\n    tag_271:\n        /* \"EAGLEAI/EagleAI.sol\":6192:6198  _owner */\n      and(sub(shl(0xa0, 0x01), 0x01), sload(0x00))\n        /* \"EAGLEAI/EagleAI.sol\":4607:4617  msg.sender */\n      caller\n        /* \"EAGLEAI/EagleAI.sol\":6192:6214  _owner == _msgSender() */\n      eq\n        /* \"EAGLEAI/EagleAI.sol\":6184:6251  require(_owner == _msgSender(), \"Ownable: caller is not the owner\") */\n      tag_516\n      jumpi\n      mload(0x40)\n      shl(0xe5, 0x461bcd)\n      dup2\n      mstore\n      0x04\n      add\n      tag_291\n      swap1\n      tag_292\n      jump\t// in\n    tag_516:\n      sub(shl(0xa0, 0x01), 0x01)\n        /* \"EAGLEAI/EagleAI.sol\":7015:7037  newOwner != address(0) */\n      dup2\n      and\n        /* \"EAGLEAI/EagleAI.sol\":7007:7080  require(newOwner != address(0), \"Ownable: new owner is the zero address\") */\n      tag_519\n      jumpi\n      mload(0x40)\n      shl(0xe5, 0x461bcd)\n      dup2\n      mstore\n        /* \"#utility.yul\":14157:14159   */\n      0x20\n        /* \"EAGLEAI/EagleAI.sol\":7007:7080  require(newOwner != address(0), \"Ownable: new owner is the zero address\") */\n      0x04\n      dup3\n      add\n        /* \"#utility.yul\":14139:14160   */\n      mstore\n        /* \"#utility.yul\":14196:14198   */\n      0x26\n        /* \"#utility.yul\":14176:14194   */\n      0x24\n      dup3\n      add\n        /* \"#utility.yul\":14169:14199   */\n      mstore\n        /* \"#utility.yul\":14235:14269   */\n      0x4f776e61626c653a206e6577206f776e657220697320746865207a65726f2061\n        /* \"#utility.yul\":14215:14233   */\n      0x44\n      dup3\n      add\n        /* \"#utility.yul\":14208:14270   */\n      mstore\n      shl(0xd0, 0x646472657373)\n        /* \"#utility.yul\":14286:14304   */\n      0x64\n      dup3\n      add\n        /* \"#utility.yul\":14279:14315   */\n      mstore\n        /* \"#utility.yul\":14332:14351   */\n      0x84\n      add\n        /* \"EAGLEAI/EagleAI.sol\":7007:7080  require(newOwner != address(0), \"Ownable: new owner is the zero address\") */\n      tag_291\n        /* \"#utility.yul\":13955:14357   */\n      jump\n        /* \"EAGLEAI/EagleAI.sol\":7007:7080  require(newOwner != address(0), \"Ownable: new owner is the zero address\") */\n    tag_519:\n        /* \"EAGLEAI/EagleAI.sol\":7117:7123  _owner */\n      0x00\n      dup1\n      sload\n        /* \"EAGLEAI/EagleAI.sol\":7096:7134  OwnershipTransferred(_owner, newOwner) */\n      mload(0x40)\n      sub(shl(0xa0, 0x01), 0x01)\n      dup1\n      dup6\n      and\n      swap4\n        /* \"EAGLEAI/EagleAI.sol\":7117:7123  _owner */\n      swap3\n      and\n      swap2\n        /* \"EAGLEAI/EagleAI.sol\":7096:7134  OwnershipTransferred(_owner, newOwner) */\n      0x8be0079c531659141344cd1fd0a4f28419497f9722a3daafe3b4186f6b6457e0\n      swap2\n      log3\n        /* \"EAGLEAI/EagleAI.sol\":7145:7151  _owner */\n      0x00\n        /* \"EAGLEAI/EagleAI.sol\":7145:7162  _owner = newOwner */\n      dup1\n      sload\n      not(sub(shl(0xa0, 0x01), 0x01))\n      and\n      sub(shl(0xa0, 0x01), 0x01)\n      swap3\n      swap1\n      swap3\n      and\n      swap2\n      swap1\n      swap2\n      or\n      swap1\n      sstore\n        /* \"EAGLEAI/EagleAI.sol\":6926:7170  function transferOwnership(address newOwner) public virtual onlyOwner {... */\n      jump\t// out\n        /* \"EAGLEAI/EagleAI.sol\":45926:46263  function _approve(address owner, address spender, uint256 amount) private {... */\n    tag_277:\n      sub(shl(0xa0, 0x01), 0x01)\n        /* \"EAGLEAI/EagleAI.sol\":46019:46038  owner != address(0) */\n      dup4\n      and\n        /* \"EAGLEAI/EagleAI.sol\":46011:46079  require(owner != address(0), \"ERC20: approve from the zero address\") */\n      tag_524\n      jumpi\n      mload(0x40)\n      shl(0xe5, 0x461bcd)\n      dup2\n      mstore\n        /* \"#utility.yul\":14564:14566   */\n      0x20\n        /* \"EAGLEAI/EagleAI.sol\":46011:46079  require(owner != address(0), \"ERC20: approve from the zero address\") */\n      0x04\n      dup3\n      add\n        /* \"#utility.yul\":14546:14567   */\n      mstore\n        /* \"#utility.yul\":14603:14605   */\n      0x24\n        /* \"#utility.yul\":14583:14601   */\n      dup1\n      dup3\n      add\n        /* \"#utility.yul\":14576:14606   */\n      mstore\n        /* \"#utility.yul\":14642:14676   */\n      0x45524332303a20617070726f76652066726f6d20746865207a65726f20616464\n        /* \"#utility.yul\":14622:14640   */\n      0x44\n      dup3\n      add\n        /* \"#utility.yul\":14615:14677   */\n      mstore\n      shl(0xe0, 0x72657373)\n        /* \"#utility.yul\":14693:14711   */\n      0x64\n      dup3\n      add\n        /* \"#utility.yul\":14686:14720   */\n      mstore\n        /* \"#utility.yul\":14737:14756   */\n      0x84\n      add\n        /* \"EAGLEAI/EagleAI.sol\":46011:46079  require(owner != address(0), \"ERC20: approve from the zero address\") */\n      tag_291\n        /* \"#utility.yul\":14362:14762   */\n      jump\n        /* \"EAGLEAI/EagleAI.sol\":46011:46079  require(owner != address(0), \"ERC20: approve from the zero address\") */\n    tag_524:\n      sub(shl(0xa0, 0x01), 0x01)\n        /* \"EAGLEAI/EagleAI.sol\":46098:46119  spender != address(0) */\n      dup3\n      and\n        /* \"EAGLEAI/EagleAI.sol\":46090:46158  require(spender != address(0), \"ERC20: approve to the zero address\") */\n      tag_527\n      jumpi\n      mload(0x40)\n      shl(0xe5, 0x461bcd)\n      dup2\n      mstore\n        /* \"#utility.yul\":14969:14971   */\n      0x20\n        /* \"EAGLEAI/EagleAI.sol\":46090:46158  require(spender != address(0), \"ERC20: approve to the zero address\") */\n      0x04\n      dup3\n      add\n        /* \"#utility.yul\":14951:14972   */\n      mstore\n        /* \"#utility.yul\":15008:15010   */\n      0x22\n        /* \"#utility.yul\":14988:15006   */\n      0x24\n      dup3\n      add\n        /* \"#utility.yul\":14981:15011   */\n      mstore\n        /* \"#utility.yul\":15047:15081   */\n      0x45524332303a20617070726f766520746f20746865207a65726f206164647265\n        /* \"#utility.yul\":15027:15045   */\n      0x44\n      dup3\n      add\n        /* \"#utility.yul\":15020:15082   */\n      mstore\n      shl(0xf0, 0x7373)\n        /* \"#utility.yul\":15098:15116   */\n      0x64\n      dup3\n      add\n        /* \"#utility.yul\":15091:15123   */\n      mstore\n        /* \"#utility.yul\":15140:15159   */\n      0x84\n      add\n        /* \"EAGLEAI/EagleAI.sol\":46090:46158  require(spender != address(0), \"ERC20: approve to the zero address\") */\n      tag_291\n        /* \"#utility.yul\":14767:15165   */\n      jump\n        /* \"EAGLEAI/EagleAI.sol\":46090:46158  require(spender != address(0), \"ERC20: approve to the zero address\") */\n    tag_527:\n      sub(shl(0xa0, 0x01), 0x01)\n        /* \"EAGLEAI/EagleAI.sol\":46171:46189  _allowances[owner] */\n      dup4\n      dup2\n      and\n      0x00\n      dup2\n      dup2\n      mstore\n        /* \"EAGLEAI/EagleAI.sol\":46171:46182  _allowances */\n      0x04\n        /* \"EAGLEAI/EagleAI.sol\":46171:46189  _allowances[owner] */\n      0x20\n      swap1\n      dup2\n      mstore\n      0x40\n      dup1\n      dup4\n      keccak256\n        /* \"EAGLEAI/EagleAI.sol\":46171:46198  _allowances[owner][spender] */\n      swap5\n      dup8\n      and\n      dup1\n      dup5\n      mstore\n      swap5\n      dup3\n      mstore\n      swap2\n      dup3\n      swap1\n      keccak256\n        /* \"EAGLEAI/EagleAI.sol\":46171:46207  _allowances[owner][spender] = amount */\n      dup6\n      swap1\n      sstore\n        /* \"EAGLEAI/EagleAI.sol\":46223:46255  Approval(owner, spender, amount) */\n      swap1\n      mload\n        /* \"#utility.yul\":1361:1386   */\n      dup5\n      dup2\n      mstore\n        /* \"EAGLEAI/EagleAI.sol\":46223:46255  Approval(owner, spender, amount) */\n      0x8c5be1e5ebec7d5bd14f71427d1e84f3dd0314c0f7b2291e5b200ac8c7c3b925\n      swap2\n        /* \"#utility.yul\":1334:1352   */\n      add\n        /* \"EAGLEAI/EagleAI.sol\":46223:46255  Approval(owner, spender, amount) */\n      mload(0x40)\n      dup1\n      swap2\n      sub\n      swap1\n      log3\n        /* \"EAGLEAI/EagleAI.sol\":45926:46263  function _approve(address owner, address spender, uint256 amount) private {... */\n      pop\n      pop\n      pop\n      jump\t// out\n        /* \"EAGLEAI/EagleAI.sol\":51176:52788  function _transfer( address from, address to, uint256 amount ) private {... */\n    tag_282:\n      sub(shl(0xa0, 0x01), 0x01)\n        /* \"EAGLEAI/EagleAI.sol\":51266:51284  from != address(0) */\n      dup4\n      and\n        /* \"EAGLEAI/EagleAI.sol\":51258:51326  require(from != address(0), \"ERC20: transfer from the zero address\") */\n      tag_532\n      jumpi\n      mload(0x40)\n      shl(0xe5, 0x461bcd)\n      dup2\n      mstore\n        /* \"#utility.yul\":15372:15374   */\n      0x20\n        /* \"EAGLEAI/EagleAI.sol\":51258:51326  require(from != address(0), \"ERC20: transfer from the zero address\") */\n      0x04\n      dup3\n      add\n        /* \"#utility.yul\":15354:15375   */\n      mstore\n        /* \"#utility.yul\":15411:15413   */\n      0x25\n        /* \"#utility.yul\":15391:15409   */\n      0x24\n      dup3\n      add\n        /* \"#utility.yul\":15384:15414   */\n      mstore\n        /* \"#utility.yul\":15450:15484   */\n      0x45524332303a207472616e736665722066726f6d20746865207a65726f206164\n        /* \"#utility.yul\":15430:15448   */\n      0x44\n      dup3\n      add\n        /* \"#utility.yul\":15423:15485   */\n      mstore\n      shl(0xd8, 0x6472657373)\n        /* \"#utility.yul\":15501:15519   */\n      0x64\n      dup3\n      add\n        /* \"#utility.yul\":15494:15529   */\n      mstore\n        /* \"#utility.yul\":15546:15565   */\n      0x84\n      add\n        /* \"EAGLEAI/EagleAI.sol\":51258:51326  require(from != address(0), \"ERC20: transfer from the zero address\") */\n      tag_291\n        /* \"#utility.yul\":15170:15571   */\n      jump\n        /* \"EAGLEAI/EagleAI.sol\":51258:51326  require(from != address(0), \"ERC20: transfer from the zero address\") */\n    tag_532:\n      sub(shl(0xa0, 0x01), 0x01)\n        /* \"EAGLEAI/EagleAI.sol\":51345:51361  to != address(0) */\n      dup3\n      and\n        /* \"EAGLEAI/EagleAI.sol\":51337:51401  require(to != address(0), \"ERC20: transfer to the zero address\") */\n      tag_535\n      jumpi\n      mload(0x40)\n      shl(0xe5, 0x461bcd)\n      dup2\n      mstore\n        /* \"#utility.yul\":15778:15780   */\n      0x20\n        /* \"EAGLEAI/EagleAI.sol\":51337:51401  require(to != address(0), \"ERC20: transfer to the zero address\") */\n      0x04\n      dup3\n      add\n        /* \"#utility.yul\":15760:15781   */\n      mstore\n        /* \"#utility.yul\":15817:15819   */\n      0x23\n        /* \"#utility.yul\":15797:15815   */\n      0x24\n      dup3\n      add\n        /* \"#utility.yul\":15790:15820   */\n      mstore\n        /* \"#utility.yul\":15856:15890   */\n      0x45524332303a207472616e7366657220746f20746865207a65726f2061646472\n        /* \"#utility.yul\":15836:15854   */\n      0x44\n      dup3\n      add\n        /* \"#utility.yul\":15829:15891   */\n      mstore\n      shl(0xe8, 0x657373)\n        /* \"#utility.yul\":15907:15925   */\n      0x64\n      dup3\n      add\n        /* \"#utility.yul\":15900:15933   */\n      mstore\n        /* \"#utility.yul\":15950:15969   */\n      0x84\n      add\n        /* \"EAGLEAI/EagleAI.sol\":51337:51401  require(to != address(0), \"ERC20: transfer to the zero address\") */\n      tag_291\n        /* \"#utility.yul\":15576:15975   */\n      jump\n        /* \"EAGLEAI/EagleAI.sol\":51337:51401  require(to != address(0), \"ERC20: transfer to the zero address\") */\n    tag_535:\n        /* \"EAGLEAI/EagleAI.sol\":51429:51430  0 */\n      0x00\n        /* \"EAGLEAI/EagleAI.sol\":51420:51426  amount */\n      dup2\n        /* \"EAGLEAI/EagleAI.sol\":51420:51430  amount > 0 */\n      gt\n        /* \"EAGLEAI/EagleAI.sol\":51412:51476  require(amount > 0, \"Transfer amount must be greater than zero\") */\n      tag_538\n      jumpi\n      mload(0x40)\n      shl(0xe5, 0x461bcd)\n      dup2\n      mstore\n        /* \"#utility.yul\":16182:16184   */\n      0x20\n        /* \"EAGLEAI/EagleAI.sol\":51412:51476  require(amount > 0, \"Transfer amount must be greater than zero\") */\n      0x04\n      dup3\n      add\n        /* \"#utility.yul\":16164:16185   */\n      mstore\n        /* \"#utility.yul\":16221:16223   */\n      0x29\n        /* \"#utility.yul\":16201:16219   */\n      0x24\n      dup3\n      add\n        /* \"#utility.yul\":16194:16224   */\n      mstore\n        /* \"#utility.yul\":16260:16294   */\n      0x5472616e7366657220616d6f756e74206d757374206265206772656174657220\n        /* \"#utility.yul\":16240:16258   */\n      0x44\n      dup3\n      add\n        /* \"#utility.yul\":16233:16295   */\n      mstore\n      shl(0xb8, 0x7468616e207a65726f)\n        /* \"#utility.yul\":16311:16329   */\n      0x64\n      dup3\n      add\n        /* \"#utility.yul\":16304:16343   */\n      mstore\n        /* \"#utility.yul\":16360:16379   */\n      0x84\n      add\n        /* \"EAGLEAI/EagleAI.sol\":51412:51476  require(amount > 0, \"Transfer amount must be greater than zero\") */\n      tag_291\n        /* \"#utility.yul\":15980:16385   */\n      jump\n        /* \"EAGLEAI/EagleAI.sol\":51412:51476  require(amount > 0, \"Transfer amount must be greater than zero\") */\n    tag_538:\n      sub(shl(0xa0, 0x01), 0x01)\n        /* \"EAGLEAI/EagleAI.sol\":51496:51513  blacklisted[from] */\n      dup4\n      and\n      0x00\n      swap1\n      dup2\n      mstore\n        /* \"EAGLEAI/EagleAI.sol\":51496:51507  blacklisted */\n      0x05\n        /* \"EAGLEAI/EagleAI.sol\":51496:51513  blacklisted[from] */\n      0x20\n      mstore\n      0x40\n      swap1\n      keccak256\n      sload\n      0xff\n      and\n        /* \"EAGLEAI/EagleAI.sol\":51495:51513  !blacklisted[from] */\n      iszero\n        /* \"EAGLEAI/EagleAI.sol\":51487:51539  require(!blacklisted[from], \"Sender is blacklisted\") */\n      tag_541\n      jumpi\n      mload(0x40)\n      shl(0xe5, 0x461bcd)\n      dup2\n      mstore\n        /* \"#utility.yul\":16592:16594   */\n      0x20\n        /* \"EAGLEAI/EagleAI.sol\":51487:51539  require(!blacklisted[from], \"Sender is blacklisted\") */\n      0x04\n      dup3\n      add\n        /* \"#utility.yul\":16574:16595   */\n      mstore\n        /* \"#utility.yul\":16631:16633   */\n      0x15\n        /* \"#utility.yul\":16611:16629   */\n      0x24\n      dup3\n      add\n        /* \"#utility.yul\":16604:16634   */\n      mstore\n      shl(0x5a, 0x14d95b99195c881a5cc8189b1858dadb1a5cdd1959)\n        /* \"#utility.yul\":16650:16668   */\n      0x44\n      dup3\n      add\n        /* \"#utility.yul\":16643:16694   */\n      mstore\n        /* \"#utility.yul\":16711:16729   */\n      0x64\n      add\n        /* \"EAGLEAI/EagleAI.sol\":51487:51539  require(!blacklisted[from], \"Sender is blacklisted\") */\n      tag_291\n        /* \"#utility.yul\":16390:16735   */\n      jump\n        /* \"EAGLEAI/EagleAI.sol\":51487:51539  require(!blacklisted[from], \"Sender is blacklisted\") */\n    tag_541:\n      sub(shl(0xa0, 0x01), 0x01)\n        /* \"EAGLEAI/EagleAI.sol\":51559:51574  blacklisted[to] */\n      dup3\n      and\n      0x00\n      swap1\n      dup2\n      mstore\n        /* \"EAGLEAI/EagleAI.sol\":51559:51570  blacklisted */\n      0x05\n        /* \"EAGLEAI/EagleAI.sol\":51559:51574  blacklisted[to] */\n      0x20\n      mstore\n      0x40\n      swap1\n      keccak256\n      sload\n      0xff\n      and\n        /* \"EAGLEAI/EagleAI.sol\":51558:51574  !blacklisted[to] */\n      iszero\n        /* \"EAGLEAI/EagleAI.sol\":51550:51603  require(!blacklisted[to], \"Recipient is blacklisted\") */\n      tag_544\n      jumpi\n      mload(0x40)\n      shl(0xe5, 0x461bcd)\n      dup2\n      mstore\n        /* \"#utility.yul\":16942:16944   */\n      0x20\n        /* \"EAGLEAI/EagleAI.sol\":51550:51603  require(!blacklisted[to], \"Recipient is blacklisted\") */\n      0x04\n      dup3\n      add\n        /* \"#utility.yul\":16924:16945   */\n      mstore\n        /* \"#utility.yul\":16981:16983   */\n      0x18\n        /* \"#utility.yul\":16961:16979   */\n      0x24\n      dup3\n      add\n        /* \"#utility.yul\":16954:16984   */\n      mstore\n        /* \"#utility.yul\":17020:17046   */\n      0x526563697069656e7420697320626c61636b6c69737465640000000000000000\n        /* \"#utility.yul\":17000:17018   */\n      0x44\n      dup3\n      add\n        /* \"#utility.yul\":16993:17047   */\n      mstore\n        /* \"#utility.yul\":17064:17082   */\n      0x64\n      add\n        /* \"EAGLEAI/EagleAI.sol\":51550:51603  require(!blacklisted[to], \"Recipient is blacklisted\") */\n      tag_291\n        /* \"#utility.yul\":16740:17088   */\n      jump\n        /* \"EAGLEAI/EagleAI.sol\":51550:51603  require(!blacklisted[to], \"Recipient is blacklisted\") */\n    tag_544:\n        /* \"EAGLEAI/EagleAI.sol\":6018:6025  address */\n      0x00\n        /* \"EAGLEAI/EagleAI.sol\":6045:6051  _owner */\n      sload\n      sub(shl(0xa0, 0x01), 0x01)\n        /* \"EAGLEAI/EagleAI.sol\":51620:51635  from == owner() */\n      dup5\n      dup2\n      and\n        /* \"EAGLEAI/EagleAI.sol\":6045:6051  _owner */\n      swap2\n      and\n        /* \"EAGLEAI/EagleAI.sol\":51620:51635  from == owner() */\n      eq\n      dup1\n        /* \"EAGLEAI/EagleAI.sol\":51620:51652  from == owner() || to == owner() */\n      tag_548\n      jumpi\n      pop\n        /* \"EAGLEAI/EagleAI.sol\":6018:6025  address */\n      0x00\n        /* \"EAGLEAI/EagleAI.sol\":6045:6051  _owner */\n      sload\n      sub(shl(0xa0, 0x01), 0x01)\n        /* \"EAGLEAI/EagleAI.sol\":51639:51652  to == owner() */\n      dup4\n      dup2\n      and\n        /* \"EAGLEAI/EagleAI.sol\":6045:6051  _owner */\n      swap2\n      and\n        /* \"EAGLEAI/EagleAI.sol\":51639:51652  to == owner() */\n      eq\n        /* \"EAGLEAI/EagleAI.sol\":51620:51652  from == owner() || to == owner() */\n    tag_548:\n        /* \"EAGLEAI/EagleAI.sol\":51616:51737  if (from == owner() || to == owner()){... */\n      iszero\n      tag_550\n      jumpi\n        /* \"EAGLEAI/EagleAI.sol\":51668:51704  _tokenTransfer(from,to,amount,false) */\n      tag_551\n        /* \"EAGLEAI/EagleAI.sol\":51683:51687  from */\n      dup4\n        /* \"EAGLEAI/EagleAI.sol\":51688:51690  to */\n      dup4\n        /* \"EAGLEAI/EagleAI.sol\":51691:51697  amount */\n      dup4\n        /* \"EAGLEAI/EagleAI.sol\":51698:51703  false */\n      0x00\n        /* \"EAGLEAI/EagleAI.sol\":51668:51682  _tokenTransfer */\n      tag_417\n        /* \"EAGLEAI/EagleAI.sol\":51668:51704  _tokenTransfer(from,to,amount,false) */\n      jump\t// in\n    tag_551:\n        /* \"EAGLEAI/EagleAI.sol\":51176:52788  function _transfer( address from, address to, uint256 amount ) private {... */\n      pop\n      pop\n      pop\n      jump\t// out\n        /* \"EAGLEAI/EagleAI.sol\":51616:51737  if (from == owner() || to == owner()){... */\n    tag_550:\n        /* \"EAGLEAI/EagleAI.sol\":51757:51769  tradeEnabled */\n      sload(0x0c)\n      0x010000\n      swap1\n      div\n      0xff\n      and\n        /* \"EAGLEAI/EagleAI.sol\":51749:51796  require(tradeEnabled,\"Trading not started yet\") */\n      tag_552\n      jumpi\n      mload(0x40)\n      shl(0xe5, 0x461bcd)\n      dup2\n      mstore\n        /* \"#utility.yul\":17295:17297   */\n      0x20\n        /* \"EAGLEAI/EagleAI.sol\":51749:51796  require(tradeEnabled,\"Trading not started yet\") */\n      0x04\n      dup3\n      add\n        /* \"#utility.yul\":17277:17298   */\n      mstore\n        /* \"#utility.yul\":17334:17336   */\n      0x17\n        /* \"#utility.yul\":17314:17332   */\n      0x24\n      dup3\n      add\n        /* \"#utility.yul\":17307:17337   */\n      mstore\n        /* \"#utility.yul\":17373:17398   */\n      0x54726164696e67206e6f74207374617274656420796574000000000000000000\n        /* \"#utility.yul\":17353:17371   */\n      0x44\n      dup3\n      add\n        /* \"#utility.yul\":17346:17399   */\n      mstore\n        /* \"#utility.yul\":17416:17434   */\n      0x64\n      add\n        /* \"EAGLEAI/EagleAI.sol\":51749:51796  require(tradeEnabled,\"Trading not started yet\") */\n      tag_291\n        /* \"#utility.yul\":17093:17440   */\n      jump\n        /* \"EAGLEAI/EagleAI.sol\":51749:51796  require(tradeEnabled,\"Trading not started yet\") */\n    tag_552:\n        /* \"EAGLEAI/EagleAI.sol\":51819:51847  uint256 contractTokenBalance */\n      0x00\n        /* \"EAGLEAI/EagleAI.sol\":51850:51874  balanceOf(address(this)) */\n      tag_555\n        /* \"EAGLEAI/EagleAI.sol\":51868:51872  this */\n      address\n        /* \"EAGLEAI/EagleAI.sol\":51850:51859  balanceOf */\n      tag_179\n        /* \"EAGLEAI/EagleAI.sol\":51850:51874  balanceOf(address(this)) */\n      jump\t// in\n    tag_555:\n        /* \"EAGLEAI/EagleAI.sol\":51946:51975  numTokensSellToAddToLiquidity */\n      sload(0x0d)\n        /* \"EAGLEAI/EagleAI.sol\":51819:51874  uint256 contractTokenBalance = balanceOf(address(this)) */\n      swap1\n      swap2\n      pop\n        /* \"EAGLEAI/EagleAI.sol\":51922:51975  contractTokenBalance >= numTokensSellToAddToLiquidity */\n      dup2\n      lt\n      dup1\n      iszero\n      swap1\n      dup2\n      swap1\n        /* \"EAGLEAI/EagleAI.sol\":52004:52057  overMinTokenBalance &&... */\n      tag_556\n      jumpi\n      pop\n        /* \"EAGLEAI/EagleAI.sol\":52041:52057  inSwapAndLiquify */\n      and(0xff, sload(0x0c))\n        /* \"EAGLEAI/EagleAI.sol\":52040:52057  !inSwapAndLiquify */\n      iszero\n        /* \"EAGLEAI/EagleAI.sol\":52004:52057  overMinTokenBalance &&... */\n    tag_556:\n        /* \"EAGLEAI/EagleAI.sol\":52004:52095  overMinTokenBalance &&... */\n      dup1\n      iszero\n      tag_557\n      jumpi\n      pop\n        /* \"EAGLEAI/EagleAI.sol\":52082:52095  uniswapV2Pair */\n      immutable(\"0x5d067998675a77797d9e4eec202a19ba43752dfad25ff4a095c1eece7914d0a3\")\n      sub(shl(0xa0, 0x01), 0x01)\n        /* \"EAGLEAI/EagleAI.sol\":52074:52095  from != uniswapV2Pair */\n      and\n        /* \"EAGLEAI/EagleAI.sol\":52074:52078  from */\n      dup6\n      sub(shl(0xa0, 0x01), 0x01)\n        /* \"EAGLEAI/EagleAI.sol\":52074:52095  from != uniswapV2Pair */\n      and\n      eq\n      iszero\n        /* \"EAGLEAI/EagleAI.sol\":52004:52095  overMinTokenBalance &&... */\n    tag_557:\n        /* \"EAGLEAI/EagleAI.sol\":52004:52133  overMinTokenBalance &&... */\n      dup1\n      iszero\n      tag_558\n      jumpi\n      pop\n        /* \"EAGLEAI/EagleAI.sol\":52112:52133  swapAndLiquifyEnabled */\n      sload(0x0c)\n      0x0100\n      swap1\n      div\n      0xff\n      and\n        /* \"EAGLEAI/EagleAI.sol\":52004:52133  overMinTokenBalance &&... */\n    tag_558:\n        /* \"EAGLEAI/EagleAI.sol\":51986:52304  if (... */\n      iszero\n      tag_560\n      jumpi\n        /* \"EAGLEAI/EagleAI.sol\":52183:52212  numTokensSellToAddToLiquidity */\n      sload(0x0d)\n        /* \"EAGLEAI/EagleAI.sol\":52160:52212  contractTokenBalance = numTokensSellToAddToLiquidity */\n      swap2\n      pop\n        /* \"EAGLEAI/EagleAI.sol\":52256:52292  swapAndLiquify(contractTokenBalance) */\n      tag_560\n        /* \"EAGLEAI/EagleAI.sol\":52271:52291  contractTokenBalance */\n      dup3\n        /* \"EAGLEAI/EagleAI.sol\":52256:52270  swapAndLiquify */\n      tag_561\n        /* \"EAGLEAI/EagleAI.sol\":52256:52292  swapAndLiquify(contractTokenBalance) */\n      jump\t// in\n    tag_560:\n      sub(shl(0xa0, 0x01), 0x01)\n        /* \"EAGLEAI/EagleAI.sol\":52512:52536  _isExcludedFromFee[from] */\n      dup6\n      and\n        /* \"EAGLEAI/EagleAI.sol\":52385:52397  bool takeFee */\n      0x00\n        /* \"EAGLEAI/EagleAI.sol\":52512:52536  _isExcludedFromFee[from] */\n      swap1\n      dup2\n      mstore\n        /* \"EAGLEAI/EagleAI.sol\":52512:52530  _isExcludedFromFee */\n      0x06\n        /* \"EAGLEAI/EagleAI.sol\":52512:52536  _isExcludedFromFee[from] */\n      0x20\n      mstore\n      0x40\n      swap1\n      keccak256\n      sload\n        /* \"EAGLEAI/EagleAI.sol\":52400:52404  true */\n      0x01\n      swap1\n        /* \"EAGLEAI/EagleAI.sol\":52512:52536  _isExcludedFromFee[from] */\n      0xff\n      and\n      dup1\n        /* \"EAGLEAI/EagleAI.sol\":52512:52562  _isExcludedFromFee[from] || _isExcludedFromFee[to] */\n      tag_562\n      jumpi\n      pop\n      sub(shl(0xa0, 0x01), 0x01)\n        /* \"EAGLEAI/EagleAI.sol\":52540:52562  _isExcludedFromFee[to] */\n      dup6\n      and\n      0x00\n      swap1\n      dup2\n      mstore\n        /* \"EAGLEAI/EagleAI.sol\":52540:52558  _isExcludedFromFee */\n      0x06\n        /* \"EAGLEAI/EagleAI.sol\":52540:52562  _isExcludedFromFee[to] */\n      0x20\n      mstore\n      0x40\n      swap1\n      keccak256\n      sload\n      0xff\n      and\n        /* \"EAGLEAI/EagleAI.sol\":52512:52562  _isExcludedFromFee[from] || _isExcludedFromFee[to] */\n    tag_562:\n        /* \"EAGLEAI/EagleAI.sol\":52509:52605  if(_isExcludedFromFee[from] || _isExcludedFromFee[to]){... */\n      iszero\n      tag_563\n      jumpi\n      pop\n        /* \"EAGLEAI/EagleAI.sol\":52588:52593  false */\n      0x00\n        /* \"EAGLEAI/EagleAI.sol\":52509:52605  if(_isExcludedFromFee[from] || _isExcludedFromFee[to]){... */\n    tag_563:\n        /* \"EAGLEAI/EagleAI.sol\":52694:52701  takeFee */\n      dup1\n        /* \"EAGLEAI/EagleAI.sol\":52691:52732  if(takeFee)... */\n      iszero\n      tag_565\n      jumpi\n        /* \"EAGLEAI/EagleAI.sol\":52712:52732  _sellBuyTax(from,to) */\n      tag_565\n        /* \"EAGLEAI/EagleAI.sol\":52724:52728  from */\n      dup7\n        /* \"EAGLEAI/EagleAI.sol\":52729:52731  to */\n      dup7\n        /* \"EAGLEAI/EagleAI.sol\":52712:52723  _sellBuyTax */\n      tag_566\n        /* \"EAGLEAI/EagleAI.sol\":52712:52732  _sellBuyTax(from,to) */\n      jump\t// in\n    tag_565:\n        /* \"EAGLEAI/EagleAI.sol\":52742:52780  _tokenTransfer(from,to,amount,takeFee) */\n      tag_409\n        /* \"EAGLEAI/EagleAI.sol\":52757:52761  from */\n      dup7\n        /* \"EAGLEAI/EagleAI.sol\":52762:52764  to */\n      dup7\n        /* \"EAGLEAI/EagleAI.sol\":52765:52771  amount */\n      dup7\n        /* \"EAGLEAI/EagleAI.sol\":52772:52779  takeFee */\n      dup5\n        /* \"EAGLEAI/EagleAI.sol\":52742:52756  _tokenTransfer */\n      tag_417\n        /* \"EAGLEAI/EagleAI.sol\":52742:52780  _tokenTransfer(from,to,amount,takeFee) */\n      jump\t// in\n        /* \"EAGLEAI/EagleAI.sol\":41426:41586  function _getRate() private view returns(uint256) {... */\n    tag_303:\n        /* \"EAGLEAI/EagleAI.sol\":41467:41474  uint256 */\n      0x00\n        /* \"EAGLEAI/EagleAI.sol\":41488:41503  uint256 rSupply */\n      dup1\n        /* \"EAGLEAI/EagleAI.sol\":41505:41520  uint256 tSupply */\n      0x00\n        /* \"EAGLEAI/EagleAI.sol\":41524:41543  _getCurrentSupply() */\n      tag_569\n        /* \"EAGLEAI/EagleAI.sol\":41524:41541  _getCurrentSupply */\n      tag_570\n        /* \"EAGLEAI/EagleAI.sol\":41524:41543  _getCurrentSupply() */\n      jump\t// in\n    tag_569:\n        /* \"EAGLEAI/EagleAI.sol\":41487:41543  (uint256 rSupply, uint256 tSupply) = _getCurrentSupply() */\n      swap1\n      swap3\n      pop\n      swap1\n      pop\n        /* \"EAGLEAI/EagleAI.sol\":41561:41578  rSupply / tSupply */\n      tag_571\n        /* \"EAGLEAI/EagleAI.sol\":41487:41543  (uint256 rSupply, uint256 tSupply) = _getCurrentSupply() */\n      dup2\n      dup4\n        /* \"EAGLEAI/EagleAI.sol\":41561:41578  rSupply / tSupply */\n      tag_305\n      jump\t// in\n    tag_571:\n        /* \"EAGLEAI/EagleAI.sol\":41554:41578  return rSupply / tSupply */\n      swap3\n      pop\n      pop\n      pop\n        /* \"EAGLEAI/EagleAI.sol\":41426:41586  function _getRate() private view returns(uint256) {... */\n      swap1\n      jump\t// out\n        /* \"EAGLEAI/EagleAI.sol\":37882:38238  function _getValue(uint256 tAmount) private view returns(uint256, uint256){... */\n    tag_347:\n        /* \"EAGLEAI/EagleAI.sol\":37939:37946  uint256 */\n      0x00\n        /* \"EAGLEAI/EagleAI.sol\":37948:37955  uint256 */\n      dup1\n        /* \"EAGLEAI/EagleAI.sol\":37970:37982  uint256 tFee */\n      0x00\n        /* \"EAGLEAI/EagleAI.sol\":37984:38002  uint256 tLiquidity */\n      dup1\n        /* \"EAGLEAI/EagleAI.sol\":38004:38026  uint256 tCoinOperation */\n      0x00\n        /* \"EAGLEAI/EagleAI.sol\":38028:38041  uint256 tBurn */\n      dup1\n        /* \"EAGLEAI/EagleAI.sol\":38045:38065  _getTValues(tAmount) */\n      tag_573\n        /* \"EAGLEAI/EagleAI.sol\":38057:38064  tAmount */\n      dup8\n        /* \"EAGLEAI/EagleAI.sol\":38045:38056  _getTValues */\n      tag_574\n        /* \"EAGLEAI/EagleAI.sol\":38045:38065  _getTValues(tAmount) */\n      jump\t// in\n    tag_573:\n        /* \"EAGLEAI/EagleAI.sol\":37967:38065  (, uint256 tFee, uint256 tLiquidity, uint256 tCoinOperation, uint256 tBurn) = _getTValues(tAmount) */\n      swap5\n      pop\n      swap5\n      pop\n      swap5\n      pop\n      swap5\n      pop\n      pop\n        /* \"EAGLEAI/EagleAI.sol\":38077:38092  uint256 rAmount */\n      0x00\n        /* \"EAGLEAI/EagleAI.sol\":38094:38117  uint256 rTransferAmount */\n      dup1\n        /* \"EAGLEAI/EagleAI.sol\":38122:38183  _getRValues(tAmount, tFee, tLiquidity, tCoinOperation, tBurn) */\n      tag_575\n        /* \"EAGLEAI/EagleAI.sol\":38134:38141  tAmount */\n      dup10\n        /* \"EAGLEAI/EagleAI.sol\":38143:38147  tFee */\n      dup8\n        /* \"EAGLEAI/EagleAI.sol\":38149:38159  tLiquidity */\n      dup8\n        /* \"EAGLEAI/EagleAI.sol\":38161:38175  tCoinOperation */\n      dup8\n        /* \"EAGLEAI/EagleAI.sol\":38177:38182  tBurn */\n      dup8\n        /* \"EAGLEAI/EagleAI.sol\":38122:38133  _getRValues */\n      tag_576\n        /* \"EAGLEAI/EagleAI.sol\":38122:38183  _getRValues(tAmount, tFee, tLiquidity, tCoinOperation, tBurn) */\n      jump\t// in\n    tag_575:\n      pop\n        /* \"EAGLEAI/EagleAI.sol\":38076:38183  (uint256 rAmount, uint256 rTransferAmount,) = _getRValues(tAmount, tFee, tLiquidity, tCoinOperation, tBurn) */\n      swap1\n      swap11\n      swap1\n      swap10\n      pop\n        /* \"EAGLEAI/EagleAI.sol\":37882:38238  function _getValue(uint256 tAmount) private view returns(uint256, uint256){... */\n      swap8\n      pop\n      pop\n      pop\n      pop\n      pop\n      pop\n      pop\n      pop\n      jump\t// out\n        /* \"EAGLEAI/EagleAI.sol\":59457:60249  function _tokenTransfer(address sender, address recipient, uint256 amount,bool takeFee) private {... */\n    tag_417:\n        /* \"EAGLEAI/EagleAI.sol\":59568:59575  takeFee */\n      dup1\n        /* \"EAGLEAI/EagleAI.sol\":59564:59604  if(!takeFee)... */\n      tag_579\n      jumpi\n        /* \"EAGLEAI/EagleAI.sol\":59590:59604  removeAllFee() */\n      tag_579\n        /* \"EAGLEAI/EagleAI.sol\":45016:45017  0 */\n      0x00\n        /* \"EAGLEAI/EagleAI.sol\":45005:45011  refAmt */\n      0x0e\n        /* \"EAGLEAI/EagleAI.sol\":45005:45017  refAmt =   0 */\n      dup2\n      swap1\n      sstore\n        /* \"EAGLEAI/EagleAI.sol\":45032:45045  coinOperation */\n      0x0f\n        /* \"EAGLEAI/EagleAI.sol\":45032:45049  coinOperation = 0 */\n      dup2\n      swap1\n      sstore\n        /* \"EAGLEAI/EagleAI.sol\":45064:45072  liquidty */\n      0x10\n        /* \"EAGLEAI/EagleAI.sol\":45064:45076  liquidty = 0 */\n      dup2\n      swap1\n      sstore\n        /* \"EAGLEAI/EagleAI.sol\":45091:45095  burn */\n      0x11\n        /* \"EAGLEAI/EagleAI.sol\":45091:45099  burn = 0 */\n      sstore\n        /* \"EAGLEAI/EagleAI.sol\":44961:45109  function removeAllFee() private {... */\n      jump\n        /* \"EAGLEAI/EagleAI.sol\":59590:59604  removeAllFee() */\n    tag_579:\n      sub(shl(0xa0, 0x01), 0x01)\n        /* \"EAGLEAI/EagleAI.sol\":59631:59650  _isExcluded[sender] */\n      dup5\n      and\n      0x00\n      swap1\n      dup2\n      mstore\n        /* \"EAGLEAI/EagleAI.sol\":59631:59642  _isExcluded */\n      0x07\n        /* \"EAGLEAI/EagleAI.sol\":59631:59650  _isExcluded[sender] */\n      0x20\n      mstore\n      0x40\n      swap1\n      keccak256\n      sload\n      0xff\n      and\n        /* \"EAGLEAI/EagleAI.sol\":59631:59677  _isExcluded[sender] && !_isExcluded[recipient] */\n      dup1\n      iszero\n      tag_581\n      jumpi\n      pop\n      sub(shl(0xa0, 0x01), 0x01)\n        /* \"EAGLEAI/EagleAI.sol\":59655:59677  _isExcluded[recipient] */\n      dup4\n      and\n      0x00\n      swap1\n      dup2\n      mstore\n        /* \"EAGLEAI/EagleAI.sol\":59655:59666  _isExcluded */\n      0x07\n        /* \"EAGLEAI/EagleAI.sol\":59655:59677  _isExcluded[recipient] */\n      0x20\n      mstore\n      0x40\n      swap1\n      keccak256\n      sload\n      0xff\n      and\n        /* \"EAGLEAI/EagleAI.sol\":59654:59677  !_isExcluded[recipient] */\n      iszero\n        /* \"EAGLEAI/EagleAI.sol\":59631:59677  _isExcluded[sender] && !_isExcluded[recipient] */\n    tag_581:\n        /* \"EAGLEAI/EagleAI.sol\":59627:60224  if (_isExcluded[sender] && !_isExcluded[recipient]) {... */\n      iszero\n      tag_582\n      jumpi\n        /* \"EAGLEAI/EagleAI.sol\":59694:59742  _transferFromExcluded(sender, recipient, amount) */\n      tag_583\n        /* \"EAGLEAI/EagleAI.sol\":59716:59722  sender */\n      dup5\n        /* \"EAGLEAI/EagleAI.sol\":59724:59733  recipient */\n      dup5\n        /* \"EAGLEAI/EagleAI.sol\":59735:59741  amount */\n      dup5\n        /* \"EAGLEAI/EagleAI.sol\":59694:59715  _transferFromExcluded */\n      tag_584\n        /* \"EAGLEAI/EagleAI.sol\":59694:59742  _transferFromExcluded(sender, recipient, amount) */\n      jump\t// in\n    tag_583:\n        /* \"EAGLEAI/EagleAI.sol\":59627:60224  if (_isExcluded[sender] && !_isExcluded[recipient]) {... */\n      jump(tag_601)\n    tag_582:\n      sub(shl(0xa0, 0x01), 0x01)\n        /* \"EAGLEAI/EagleAI.sol\":59765:59784  _isExcluded[sender] */\n      dup5\n      and\n      0x00\n      swap1\n      dup2\n      mstore\n        /* \"EAGLEAI/EagleAI.sol\":59765:59776  _isExcluded */\n      0x07\n        /* \"EAGLEAI/EagleAI.sol\":59765:59784  _isExcluded[sender] */\n      0x20\n      mstore\n      0x40\n      swap1\n      keccak256\n      sload\n      0xff\n      and\n        /* \"EAGLEAI/EagleAI.sol\":59764:59784  !_isExcluded[sender] */\n      iszero\n        /* \"EAGLEAI/EagleAI.sol\":59764:59810  !_isExcluded[sender] && _isExcluded[recipient] */\n      dup1\n      iszero\n      tag_586\n      jumpi\n      pop\n      sub(shl(0xa0, 0x01), 0x01)\n        /* \"EAGLEAI/EagleAI.sol\":59788:59810  _isExcluded[recipient] */\n      dup4\n      and\n      0x00\n      swap1\n      dup2\n      mstore\n        /* \"EAGLEAI/EagleAI.sol\":59788:59799  _isExcluded */\n      0x07\n        /* \"EAGLEAI/EagleAI.sol\":59788:59810  _isExcluded[recipient] */\n      0x20\n      mstore\n      0x40\n      swap1\n      keccak256\n      sload\n      0xff\n      and\n        /* \"EAGLEAI/EagleAI.sol\":59764:59810  !_isExcluded[sender] && _isExcluded[recipient] */\n    tag_586:\n        /* \"EAGLEAI/EagleAI.sol\":59760:60224  if (!_isExcluded[sender] && _isExcluded[recipient]) {... */\n      iszero\n      tag_587\n      jumpi\n        /* \"EAGLEAI/EagleAI.sol\":59827:59873  _transferToExcluded(sender, recipient, amount) */\n      tag_583\n        /* \"EAGLEAI/EagleAI.sol\":59847:59853  sender */\n      dup5\n        /* \"EAGLEAI/EagleAI.sol\":59855:59864  recipient */\n      dup5\n        /* \"EAGLEAI/EagleAI.sol\":59866:59872  amount */\n      dup5\n        /* \"EAGLEAI/EagleAI.sol\":59827:59846  _transferToExcluded */\n      tag_589\n        /* \"EAGLEAI/EagleAI.sol\":59827:59873  _transferToExcluded(sender, recipient, amount) */\n      jump\t// in\n        /* \"EAGLEAI/EagleAI.sol\":59760:60224  if (!_isExcluded[sender] && _isExcluded[recipient]) {... */\n    tag_587:\n      sub(shl(0xa0, 0x01), 0x01)\n        /* \"EAGLEAI/EagleAI.sol\":59896:59915  _isExcluded[sender] */\n      dup5\n      and\n      0x00\n      swap1\n      dup2\n      mstore\n        /* \"EAGLEAI/EagleAI.sol\":59896:59907  _isExcluded */\n      0x07\n        /* \"EAGLEAI/EagleAI.sol\":59896:59915  _isExcluded[sender] */\n      0x20\n      mstore\n      0x40\n      swap1\n      keccak256\n      sload\n      0xff\n      and\n        /* \"EAGLEAI/EagleAI.sol\":59895:59915  !_isExcluded[sender] */\n      iszero\n        /* \"EAGLEAI/EagleAI.sol\":59895:59942  !_isExcluded[sender] && !_isExcluded[recipient] */\n      dup1\n      iszero\n      tag_591\n      jumpi\n      pop\n      sub(shl(0xa0, 0x01), 0x01)\n        /* \"EAGLEAI/EagleAI.sol\":59920:59942  _isExcluded[recipient] */\n      dup4\n      and\n      0x00\n      swap1\n      dup2\n      mstore\n        /* \"EAGLEAI/EagleAI.sol\":59920:59931  _isExcluded */\n      0x07\n        /* \"EAGLEAI/EagleAI.sol\":59920:59942  _isExcluded[recipient] */\n      0x20\n      mstore\n      0x40\n      swap1\n      keccak256\n      sload\n      0xff\n      and\n        /* \"EAGLEAI/EagleAI.sol\":59919:59942  !_isExcluded[recipient] */\n      iszero\n        /* \"EAGLEAI/EagleAI.sol\":59895:59942  !_isExcluded[sender] && !_isExcluded[recipient] */\n    tag_591:\n        /* \"EAGLEAI/EagleAI.sol\":59891:60224  if (!_isExcluded[sender] && !_isExcluded[recipient]) {... */\n      iszero\n      tag_592\n      jumpi\n        /* \"EAGLEAI/EagleAI.sol\":59959:60003  _transferStandard(sender, recipient, amount) */\n      tag_583\n        /* \"EAGLEAI/EagleAI.sol\":59977:59983  sender */\n      dup5\n        /* \"EAGLEAI/EagleAI.sol\":59985:59994  recipient */\n      dup5\n        /* \"EAGLEAI/EagleAI.sol\":59996:60002  amount */\n      dup5\n        /* \"EAGLEAI/EagleAI.sol\":59959:59976  _transferStandard */\n      tag_594\n        /* \"EAGLEAI/EagleAI.sol\":59959:60003  _transferStandard(sender, recipient, amount) */\n      jump\t// in\n        /* \"EAGLEAI/EagleAI.sol\":59891:60224  if (!_isExcluded[sender] && !_isExcluded[recipient]) {... */\n    tag_592:\n      sub(shl(0xa0, 0x01), 0x01)\n        /* \"EAGLEAI/EagleAI.sol\":60025:60044  _isExcluded[sender] */\n      dup5\n      and\n      0x00\n      swap1\n      dup2\n      mstore\n        /* \"EAGLEAI/EagleAI.sol\":60025:60036  _isExcluded */\n      0x07\n        /* \"EAGLEAI/EagleAI.sol\":60025:60044  _isExcluded[sender] */\n      0x20\n      mstore\n      0x40\n      swap1\n      keccak256\n      sload\n      0xff\n      and\n        /* \"EAGLEAI/EagleAI.sol\":60025:60070  _isExcluded[sender] && _isExcluded[recipient] */\n      dup1\n      iszero\n      tag_596\n      jumpi\n      pop\n      sub(shl(0xa0, 0x01), 0x01)\n        /* \"EAGLEAI/EagleAI.sol\":60048:60070  _isExcluded[recipient] */\n      dup4\n      and\n      0x00\n      swap1\n      dup2\n      mstore\n        /* \"EAGLEAI/EagleAI.sol\":60048:60059  _isExcluded */\n      0x07\n        /* \"EAGLEAI/EagleAI.sol\":60048:60070  _isExcluded[recipient] */\n      0x20\n      mstore\n      0x40\n      swap1\n      keccak256\n      sload\n      0xff\n      and\n        /* \"EAGLEAI/EagleAI.sol\":60025:60070  _isExcluded[sender] && _isExcluded[recipient] */\n    tag_596:\n        /* \"EAGLEAI/EagleAI.sol\":60021:60224  if (_isExcluded[sender] && _isExcluded[recipient]) {... */\n      iszero\n      tag_597\n      jumpi\n        /* \"EAGLEAI/EagleAI.sol\":60087:60135  _transferBothExcluded(sender, recipient, amount) */\n      tag_583\n        /* \"EAGLEAI/EagleAI.sol\":60109:60115  sender */\n      dup5\n        /* \"EAGLEAI/EagleAI.sol\":60117:60126  recipient */\n      dup5\n        /* \"EAGLEAI/EagleAI.sol\":60128:60134  amount */\n      dup5\n        /* \"EAGLEAI/EagleAI.sol\":60087:60108  _transferBothExcluded */\n      tag_599\n        /* \"EAGLEAI/EagleAI.sol\":60087:60135  _transferBothExcluded(sender, recipient, amount) */\n      jump\t// in\n        /* \"EAGLEAI/EagleAI.sol\":60021:60224  if (_isExcluded[sender] && _isExcluded[recipient]) {... */\n    tag_597:\n        /* \"EAGLEAI/EagleAI.sol\":60168:60212  _transferStandard(sender, recipient, amount) */\n      tag_601\n        /* \"EAGLEAI/EagleAI.sol\":60186:60192  sender */\n      dup5\n        /* \"EAGLEAI/EagleAI.sol\":60194:60203  recipient */\n      dup5\n        /* \"EAGLEAI/EagleAI.sol\":60205:60211  amount */\n      dup5\n        /* \"EAGLEAI/EagleAI.sol\":60168:60185  _transferStandard */\n      tag_594\n        /* \"EAGLEAI/EagleAI.sol\":60168:60212  _transferStandard(sender, recipient, amount) */\n      jump\t// in\n    tag_601:\n        /* \"EAGLEAI/EagleAI.sol\":59457:60249  function _tokenTransfer(address sender, address recipient, uint256 amount,bool takeFee) private {... */\n      pop\n      pop\n      pop\n      pop\n      jump\t// out\n        /* \"EAGLEAI/EagleAI.sol\":55499:56470  function swapAndLiquify(uint256 contractTokenBalance) private lockTheSwap {... */\n    tag_561:\n        /* \"EAGLEAI/EagleAI.sol\":15667:15683  inSwapAndLiquify */\n      0x0c\n        /* \"EAGLEAI/EagleAI.sol\":15667:15690  inSwapAndLiquify = true */\n      dup1\n      sload\n      not(0xff)\n      and\n        /* \"EAGLEAI/EagleAI.sol\":15686:15690  true */\n      0x01\n        /* \"EAGLEAI/EagleAI.sol\":15667:15690  inSwapAndLiquify = true */\n      or\n      swap1\n      sstore\n        /* \"EAGLEAI/EagleAI.sol\":15667:15683  inSwapAndLiquify */\n      0x00\n        /* \"EAGLEAI/EagleAI.sol\":55650:55674  contractTokenBalance / 2 */\n      tag_604\n        /* \"EAGLEAI/EagleAI.sol\":55673:55674  2 */\n      0x02\n        /* \"EAGLEAI/EagleAI.sol\":55650:55670  contractTokenBalance */\n      dup4\n        /* \"EAGLEAI/EagleAI.sol\":55650:55674  contractTokenBalance / 2 */\n      tag_305\n      jump\t// in\n    tag_604:\n        /* \"EAGLEAI/EagleAI.sol\":55635:55674  uint256 half = contractTokenBalance / 2 */\n      swap1\n      pop\n        /* \"EAGLEAI/EagleAI.sol\":55685:55702  uint256 otherHalf */\n      0x00\n        /* \"EAGLEAI/EagleAI.sol\":55705:55732  contractTokenBalance - half */\n      tag_605\n        /* \"EAGLEAI/EagleAI.sol\":55635:55674  uint256 half = contractTokenBalance / 2 */\n      dup3\n        /* \"EAGLEAI/EagleAI.sol\":55705:55725  contractTokenBalance */\n      dup5\n        /* \"EAGLEAI/EagleAI.sol\":55705:55732  contractTokenBalance - half */\n      tag_287\n      jump\t// in\n    tag_605:\n        /* \"EAGLEAI/EagleAI.sol\":55685:55732  uint256 otherHalf = contractTokenBalance - half */\n      swap1\n      pop\n        /* \"EAGLEAI/EagleAI.sol\":56035:56056  address(this).balance */\n      selfbalance\n        /* \"EAGLEAI/EagleAI.sol\":56101:56123  swapTokensForEth(half) */\n      tag_606\n        /* \"EAGLEAI/EagleAI.sol\":56118:56122  half */\n      dup4\n        /* \"EAGLEAI/EagleAI.sol\":56101:56117  swapTokensForEth */\n      tag_607\n        /* \"EAGLEAI/EagleAI.sol\":56101:56123  swapTokensForEth(half) */\n      jump\t// in\n    tag_606:\n        /* \"EAGLEAI/EagleAI.sol\":56249:56267  uint256 newBalance */\n      0x00\n        /* \"EAGLEAI/EagleAI.sol\":56270:56308  address(this).balance - initialBalance */\n      tag_608\n        /* \"EAGLEAI/EagleAI.sol\":56294:56308  initialBalance */\n      dup3\n        /* \"EAGLEAI/EagleAI.sol\":56270:56291  address(this).balance */\n      selfbalance\n        /* \"EAGLEAI/EagleAI.sol\":56270:56308  address(this).balance - initialBalance */\n      tag_287\n      jump\t// in\n    tag_608:\n        /* \"EAGLEAI/EagleAI.sol\":56249:56308  uint256 newBalance = address(this).balance - initialBalance */\n      swap1\n      pop\n        /* \"EAGLEAI/EagleAI.sol\":56358:56393  addLiquidity(otherHalf, newBalance) */\n      tag_609\n        /* \"EAGLEAI/EagleAI.sol\":56371:56380  otherHalf */\n      dup4\n        /* \"EAGLEAI/EagleAI.sol\":56382:56392  newBalance */\n      dup3\n        /* \"EAGLEAI/EagleAI.sol\":56358:56370  addLiquidity */\n      tag_610\n        /* \"EAGLEAI/EagleAI.sol\":56358:56393  addLiquidity(otherHalf, newBalance) */\n      jump\t// in\n    tag_609:\n        /* \"EAGLEAI/EagleAI.sol\":56419:56462  SwapAndLiquify(half, newBalance, otherHalf) */\n      0x40\n      dup1\n      mload\n        /* \"#utility.yul\":17647:17672   */\n      dup6\n      dup2\n      mstore\n        /* \"#utility.yul\":17703:17705   */\n      0x20\n        /* \"#utility.yul\":17688:17706   */\n      dup2\n      add\n        /* \"#utility.yul\":17681:17715   */\n      dup4\n      swap1\n      mstore\n        /* \"#utility.yul\":17731:17749   */\n      swap1\n      dup2\n      add\n        /* \"#utility.yul\":17724:17758   */\n      dup5\n      swap1\n      mstore\n        /* \"EAGLEAI/EagleAI.sol\":56419:56462  SwapAndLiquify(half, newBalance, otherHalf) */\n      0x17bbfb9a6069321b6ded73bd96327c9e6b7212a5cd51ff219cd61370acafb561\n      swap1\n        /* \"#utility.yul\":17635:17637   */\n      0x60\n        /* \"#utility.yul\":17620:17638   */\n      add\n        /* \"EAGLEAI/EagleAI.sol\":56419:56462  SwapAndLiquify(half, newBalance, otherHalf) */\n      mload(0x40)\n      dup1\n      swap2\n      sub\n      swap1\n      log1\n      pop\n      pop\n        /* \"EAGLEAI/EagleAI.sol\":15713:15729  inSwapAndLiquify */\n      0x0c\n        /* \"EAGLEAI/EagleAI.sol\":15713:15737  inSwapAndLiquify = false */\n      dup1\n      sload\n      not(0xff)\n      and\n      swap1\n      sstore\n      pop\n      pop\n      pop\n        /* \"EAGLEAI/EagleAI.sol\":55499:56470  function swapAndLiquify(uint256 contractTokenBalance) private lockTheSwap {... */\n      jump\t// out\n        /* \"EAGLEAI/EagleAI.sol\":54157:54908  function _sellBuyTax(address from, address to) private {... */\n    tag_566:\n      sub(shl(0xa0, 0x01), 0x01)\n        /* \"EAGLEAI/EagleAI.sol\":54269:54290  from == uniswapV2Pair */\n      dup3\n      dup2\n      and\n        /* \"EAGLEAI/EagleAI.sol\":54277:54290  uniswapV2Pair */\n      immutable(\"0x5d067998675a77797d9e4eec202a19ba43752dfad25ff4a095c1eece7914d0a3\")\n        /* \"EAGLEAI/EagleAI.sol\":54269:54290  from == uniswapV2Pair */\n      dup3\n      and\n      swap1\n      dup2\n      eq\n      swap2\n        /* \"EAGLEAI/EagleAI.sol\":54315:54334  to == uniswapV2Pair */\n      dup4\n      and\n      eq\n        /* \"EAGLEAI/EagleAI.sol\":54351:54901  if (isBuy) {    ... */\n      dup2\n      iszero\n      tag_614\n      jumpi\n        /* \"EAGLEAI/EagleAI.sol\":54392:54408  buyReflectionTax */\n      sload(0x12)\n        /* \"EAGLEAI/EagleAI.sol\":54381:54387  refAmt */\n      0x0e\n        /* \"EAGLEAI/EagleAI.sol\":54381:54408  refAmt =   buyReflectionTax */\n      sstore\n        /* \"EAGLEAI/EagleAI.sol\":54445:54464  buyCoinWalletTaxPer */\n      sload(0x13)\n        /* \"EAGLEAI/EagleAI.sol\":54429:54442  coinOperation */\n      0x0f\n        /* \"EAGLEAI/EagleAI.sol\":54429:54464  coinOperation = buyCoinWalletTaxPer */\n      sstore\n        /* \"EAGLEAI/EagleAI.sol\":54496:54514  buyLiquidityTaxPer */\n      sload(0x14)\n        /* \"EAGLEAI/EagleAI.sol\":54485:54493  liquidty */\n      0x10\n        /* \"EAGLEAI/EagleAI.sol\":54485:54514  liquidty = buyLiquidityTaxPer */\n      sstore\n        /* \"EAGLEAI/EagleAI.sol\":54542:54555  buyBurnTaxPer */\n      sload(0x15)\n        /* \"EAGLEAI/EagleAI.sol\":54535:54539  burn */\n      0x11\n        /* \"EAGLEAI/EagleAI.sol\":54535:54555  burn = buyBurnTaxPer */\n      sstore\n        /* \"EAGLEAI/EagleAI.sol\":54351:54901  if (isBuy) {    ... */\n      jump(tag_601)\n    tag_614:\n        /* \"EAGLEAI/EagleAI.sol\":54603:54609  isSell */\n      dup1\n        /* \"EAGLEAI/EagleAI.sol\":54599:54901  if (isSell) {... */\n      iszero\n      tag_616\n      jumpi\n        /* \"EAGLEAI/EagleAI.sol\":54635:54652  sellReflectionTax */\n      sload(0x16)\n        /* \"EAGLEAI/EagleAI.sol\":54626:54632  refAmt */\n      0x0e\n        /* \"EAGLEAI/EagleAI.sol\":54626:54652  refAmt = sellReflectionTax */\n      sstore\n        /* \"EAGLEAI/EagleAI.sol\":54688:54708  sellCoinWalletTaxPer */\n      sload(0x17)\n        /* \"EAGLEAI/EagleAI.sol\":54672:54685  coinOperation */\n      0x0f\n        /* \"EAGLEAI/EagleAI.sol\":54672:54708  coinOperation = sellCoinWalletTaxPer */\n      sstore\n        /* \"EAGLEAI/EagleAI.sol\":54739:54758  sellLiquidityTaxPer */\n      sload(0x18)\n        /* \"EAGLEAI/EagleAI.sol\":54728:54736  liquidty */\n      0x10\n        /* \"EAGLEAI/EagleAI.sol\":54728:54758  liquidty = sellLiquidityTaxPer */\n      sstore\n        /* \"EAGLEAI/EagleAI.sol\":54785:54799  sellBurnTaxPer */\n      sload(0x19)\n        /* \"EAGLEAI/EagleAI.sol\":54778:54782  burn */\n      0x11\n        /* \"EAGLEAI/EagleAI.sol\":54778:54799  burn = sellBurnTaxPer */\n      sstore\n        /* \"EAGLEAI/EagleAI.sol\":54599:54901  if (isSell) {... */\n      jump(tag_601)\n    tag_616:\n        /* \"EAGLEAI/EagleAI.sol\":54871:54885  removeAllFee() */\n      tag_601\n        /* \"EAGLEAI/EagleAI.sol\":45016:45017  0 */\n      0x00\n        /* \"EAGLEAI/EagleAI.sol\":45005:45011  refAmt */\n      0x0e\n        /* \"EAGLEAI/EagleAI.sol\":45005:45017  refAmt =   0 */\n      dup2\n      swap1\n      sstore\n        /* \"EAGLEAI/EagleAI.sol\":45032:45045  coinOperation */\n      0x0f\n        /* \"EAGLEAI/EagleAI.sol\":45032:45049  coinOperation = 0 */\n      dup2\n      swap1\n      sstore\n        /* \"EAGLEAI/EagleAI.sol\":45064:45072  liquidty */\n      0x10\n        /* \"EAGLEAI/EagleAI.sol\":45064:45076  liquidty = 0 */\n      dup2\n      swap1\n      sstore\n        /* \"EAGLEAI/EagleAI.sol\":45091:45095  burn */\n      0x11\n        /* \"EAGLEAI/EagleAI.sol\":45091:45099  burn = 0 */\n      sstore\n        /* \"EAGLEAI/EagleAI.sol\":44961:45109  function removeAllFee() private {... */\n      jump\n        /* \"EAGLEAI/EagleAI.sol\":41850:42402  function _getCurrentSupply() private view returns(uint256, uint256) {... */\n    tag_570:\n        /* \"EAGLEAI/EagleAI.sol\":41947:41954  _rTotal */\n      sload(0x0a)\n        /* \"EAGLEAI/EagleAI.sol\":41983:41990  _tTotal */\n      sload(0x09)\n        /* \"EAGLEAI/EagleAI.sol\":41900:41907  uint256 */\n      0x00\n      swap2\n      dup3\n      swap2\n      dup3\n        /* \"EAGLEAI/EagleAI.sol\":42007:42290  for (uint256 i = 0; i < _excluded.length; i++) {... */\n    tag_620:\n        /* \"EAGLEAI/EagleAI.sol\":42031:42040  _excluded */\n      0x08\n        /* \"EAGLEAI/EagleAI.sol\":42031:42047  _excluded.length */\n      sload\n        /* \"EAGLEAI/EagleAI.sol\":42027:42047  i < _excluded.length */\n      dup2\n      lt\n        /* \"EAGLEAI/EagleAI.sol\":42007:42290  for (uint256 i = 0; i < _excluded.length; i++) {... */\n      iszero\n      tag_621\n      jumpi\n        /* \"EAGLEAI/EagleAI.sol\":42097:42104  rSupply */\n      dup3\n        /* \"EAGLEAI/EagleAI.sol\":42073:42080  _rOwned */\n      0x02\n        /* \"EAGLEAI/EagleAI.sol\":42073:42094  _rOwned[_excluded[i]] */\n      0x00\n        /* \"EAGLEAI/EagleAI.sol\":42081:42090  _excluded */\n      0x08\n        /* \"EAGLEAI/EagleAI.sol\":42091:42092  i */\n      dup5\n        /* \"EAGLEAI/EagleAI.sol\":42081:42093  _excluded[i] */\n      dup2\n      sload\n      dup2\n      lt\n      tag_624\n      jumpi\n      tag_624\n      tag_320\n      jump\t// in\n    tag_624:\n      0x00\n      swap2\n      dup3\n      mstore\n      0x20\n      dup1\n      dup4\n      keccak256\n      swap1\n      swap2\n      add\n      sload\n      sub(shl(0xa0, 0x01), 0x01)\n      and\n        /* \"EAGLEAI/EagleAI.sol\":42073:42094  _rOwned[_excluded[i]] */\n      dup4\n      mstore\n      dup3\n      add\n      swap3\n      swap1\n      swap3\n      mstore\n      0x40\n      add\n      swap1\n      keccak256\n      sload\n        /* \"EAGLEAI/EagleAI.sol\":42073:42104  _rOwned[_excluded[i]] > rSupply */\n      gt\n      dup1\n        /* \"EAGLEAI/EagleAI.sol\":42073:42139  _rOwned[_excluded[i]] > rSupply || _tOwned[_excluded[i]] > tSupply */\n      tag_626\n      jumpi\n      pop\n        /* \"EAGLEAI/EagleAI.sol\":42132:42139  tSupply */\n      dup2\n        /* \"EAGLEAI/EagleAI.sol\":42108:42115  _tOwned */\n      0x03\n        /* \"EAGLEAI/EagleAI.sol\":42108:42129  _tOwned[_excluded[i]] */\n      0x00\n        /* \"EAGLEAI/EagleAI.sol\":42116:42125  _excluded */\n      0x08\n        /* \"EAGLEAI/EagleAI.sol\":42126:42127  i */\n      dup5\n        /* \"EAGLEAI/EagleAI.sol\":42116:42128  _excluded[i] */\n      dup2\n      sload\n      dup2\n      lt\n      tag_628\n      jumpi\n      tag_628\n      tag_320\n      jump\t// in\n    tag_628:\n      0x00\n      swap2\n      dup3\n      mstore\n      0x20\n      dup1\n      dup4\n      keccak256\n      swap1\n      swap2\n      add\n      sload\n      sub(shl(0xa0, 0x01), 0x01)\n      and\n        /* \"EAGLEAI/EagleAI.sol\":42108:42129  _tOwned[_excluded[i]] */\n      dup4\n      mstore\n      dup3\n      add\n      swap3\n      swap1\n      swap3\n      mstore\n      0x40\n      add\n      swap1\n      keccak256\n      sload\n        /* \"EAGLEAI/EagleAI.sol\":42108:42139  _tOwned[_excluded[i]] > tSupply */\n      gt\n        /* \"EAGLEAI/EagleAI.sol\":42073:42139  _rOwned[_excluded[i]] > rSupply || _tOwned[_excluded[i]] > tSupply */\n    tag_626:\n        /* \"EAGLEAI/EagleAI.sol\":42069:42166  if (_rOwned[_excluded[i]] > rSupply || _tOwned[_excluded[i]] > tSupply) return (_rTotal, _tTotal) */\n      iszero\n      tag_630\n      jumpi\n        /* \"EAGLEAI/EagleAI.sol\":42149:42156  _rTotal */\n      sload(0x0a)\n        /* \"EAGLEAI/EagleAI.sol\":42158:42165  _tTotal */\n      sload(0x09)\n        /* \"EAGLEAI/EagleAI.sol\":42141:42166  return (_rTotal, _tTotal) */\n      swap5\n      pop\n      swap5\n      pop\n      pop\n      pop\n      pop\n        /* \"EAGLEAI/EagleAI.sol\":41850:42402  function _getCurrentSupply() private view returns(uint256, uint256) {... */\n      swap1\n      swap2\n      jump\t// out\n        /* \"EAGLEAI/EagleAI.sol\":42069:42166  if (_rOwned[_excluded[i]] > rSupply || _tOwned[_excluded[i]] > tSupply) return (_rTotal, _tTotal) */\n    tag_630:\n        /* \"EAGLEAI/EagleAI.sol\":42201:42208  _rOwned */\n      0x02\n        /* \"EAGLEAI/EagleAI.sol\":42201:42222  _rOwned[_excluded[i]] */\n      0x00\n        /* \"EAGLEAI/EagleAI.sol\":42209:42218  _excluded */\n      0x08\n        /* \"EAGLEAI/EagleAI.sol\":42219:42220  i */\n      dup4\n        /* \"EAGLEAI/EagleAI.sol\":42209:42221  _excluded[i] */\n      dup2\n      sload\n      dup2\n      lt\n      tag_632\n      jumpi\n      tag_632\n      tag_320\n      jump\t// in\n    tag_632:\n      0x00\n      swap2\n      dup3\n      mstore\n      0x20\n      dup1\n      dup4\n      keccak256\n      swap1\n      swap2\n      add\n      sload\n      sub(shl(0xa0, 0x01), 0x01)\n      and\n        /* \"EAGLEAI/EagleAI.sol\":42201:42222  _rOwned[_excluded[i]] */\n      dup4\n      mstore\n      dup3\n      add\n      swap3\n      swap1\n      swap3\n      mstore\n      0x40\n      add\n      swap1\n      keccak256\n      sload\n        /* \"EAGLEAI/EagleAI.sol\":42191:42222  rSupply - _rOwned[_excluded[i]] */\n      tag_634\n      swap1\n        /* \"EAGLEAI/EagleAI.sol\":42191:42198  rSupply */\n      dup5\n        /* \"EAGLEAI/EagleAI.sol\":42191:42222  rSupply - _rOwned[_excluded[i]] */\n      tag_287\n      jump\t// in\n    tag_634:\n        /* \"EAGLEAI/EagleAI.sol\":42181:42222  rSupply = rSupply - _rOwned[_excluded[i]] */\n      swap3\n      pop\n        /* \"EAGLEAI/EagleAI.sol\":42257:42264  _tOwned */\n      0x03\n        /* \"EAGLEAI/EagleAI.sol\":42257:42278  _tOwned[_excluded[i]] */\n      0x00\n        /* \"EAGLEAI/EagleAI.sol\":42265:42274  _excluded */\n      0x08\n        /* \"EAGLEAI/EagleAI.sol\":42275:42276  i */\n      dup4\n        /* \"EAGLEAI/EagleAI.sol\":42265:42277  _excluded[i] */\n      dup2\n      sload\n      dup2\n      lt\n      tag_636\n      jumpi\n      tag_636\n      tag_320\n      jump\t// in\n    tag_636:\n      0x00\n      swap2\n      dup3\n      mstore\n      0x20\n      dup1\n      dup4\n      keccak256\n      swap1\n      swap2\n      add\n      sload\n      sub(shl(0xa0, 0x01), 0x01)\n      and\n        /* \"EAGLEAI/EagleAI.sol\":42257:42278  _tOwned[_excluded[i]] */\n      dup4\n      mstore\n      dup3\n      add\n      swap3\n      swap1\n      swap3\n      mstore\n      0x40\n      add\n      swap1\n      keccak256\n      sload\n        /* \"EAGLEAI/EagleAI.sol\":42247:42278  tSupply - _tOwned[_excluded[i]] */\n      tag_638\n      swap1\n        /* \"EAGLEAI/EagleAI.sol\":42247:42254  tSupply */\n      dup4\n        /* \"EAGLEAI/EagleAI.sol\":42247:42278  tSupply - _tOwned[_excluded[i]] */\n      tag_287\n      jump\t// in\n    tag_638:\n        /* \"EAGLEAI/EagleAI.sol\":42237:42278  tSupply = tSupply - _tOwned[_excluded[i]] */\n      swap2\n      pop\n        /* \"EAGLEAI/EagleAI.sol\":42049:42052  i++ */\n      0x01\n      add\n        /* \"EAGLEAI/EagleAI.sol\":42007:42290  for (uint256 i = 0; i < _excluded.length; i++) {... */\n      jump(tag_620)\n    tag_621:\n      pop\n        /* \"EAGLEAI/EagleAI.sol\":42324:42331  _tTotal */\n      sload(0x09)\n        /* \"EAGLEAI/EagleAI.sol\":42314:42321  _rTotal */\n      sload(0x0a)\n        /* \"EAGLEAI/EagleAI.sol\":42314:42331  _rTotal / _tTotal */\n      tag_639\n      swap2\n      swap1\n      tag_305\n      jump\t// in\n    tag_639:\n        /* \"EAGLEAI/EagleAI.sol\":42304:42311  rSupply */\n      dup3\n        /* \"EAGLEAI/EagleAI.sol\":42304:42331  rSupply < _rTotal / _tTotal */\n      lt\n        /* \"EAGLEAI/EagleAI.sol\":42300:42358  if (rSupply < _rTotal / _tTotal) return (_rTotal, _tTotal) */\n      iszero\n      tag_640\n      jumpi\n        /* \"EAGLEAI/EagleAI.sol\":42341:42348  _rTotal */\n      sload(0x0a)\n        /* \"EAGLEAI/EagleAI.sol\":42350:42357  _tTotal */\n      sload(0x09)\n        /* \"EAGLEAI/EagleAI.sol\":42333:42358  return (_rTotal, _tTotal) */\n      swap4\n      pop\n      swap4\n      pop\n      pop\n      pop\n        /* \"EAGLEAI/EagleAI.sol\":41850:42402  function _getCurrentSupply() private view returns(uint256, uint256) {... */\n      swap1\n      swap2\n      jump\t// out\n        /* \"EAGLEAI/EagleAI.sol\":42300:42358  if (rSupply < _rTotal / _tTotal) return (_rTotal, _tTotal) */\n    tag_640:\n        /* \"EAGLEAI/EagleAI.sol\":42377:42384  rSupply */\n      swap1\n      swap4\n        /* \"EAGLEAI/EagleAI.sol\":42386:42393  tSupply */\n      swap1\n      swap3\n      pop\n        /* \"EAGLEAI/EagleAI.sol\":41850:42402  function _getCurrentSupply() private view returns(uint256, uint256) {... */\n      swap1\n      pop\n      jump\t// out\n        /* \"EAGLEAI/EagleAI.sol\":39048:39595  function _getTValues(uint256 tAmount) private view returns (uint256, uint256, uint256, uint256, uint256) {... */\n    tag_574:\n        /* \"EAGLEAI/EagleAI.sol\":39108:39115  uint256 */\n      0x00\n        /* \"EAGLEAI/EagleAI.sol\":39117:39124  uint256 */\n      dup1\n        /* \"EAGLEAI/EagleAI.sol\":39126:39133  uint256 */\n      0x00\n        /* \"EAGLEAI/EagleAI.sol\":39135:39142  uint256 */\n      dup1\n        /* \"EAGLEAI/EagleAI.sol\":39144:39151  uint256 */\n      0x00\n        /* \"EAGLEAI/EagleAI.sol\":39164:39176  uint256 tFee */\n      dup1\n        /* \"EAGLEAI/EagleAI.sol\":39179:39203  calculateTaxFee(tAmount) */\n      tag_642\n        /* \"EAGLEAI/EagleAI.sol\":39195:39202  tAmount */\n      dup8\n        /* \"EAGLEAI/EagleAI.sol\":39179:39194  calculateTaxFee */\n      tag_643\n        /* \"EAGLEAI/EagleAI.sol\":39179:39203  calculateTaxFee(tAmount) */\n      jump\t// in\n    tag_642:\n        /* \"EAGLEAI/EagleAI.sol\":39164:39203  uint256 tFee = calculateTaxFee(tAmount) */\n      swap1\n      pop\n        /* \"EAGLEAI/EagleAI.sol\":39214:39232  uint256 tLiquidity */\n      0x00\n        /* \"EAGLEAI/EagleAI.sol\":39235:39265  calculateLiquidityFee(tAmount) */\n      tag_644\n        /* \"EAGLEAI/EagleAI.sol\":39257:39264  tAmount */\n      dup9\n        /* \"EAGLEAI/EagleAI.sol\":39235:39256  calculateLiquidityFee */\n      tag_645\n        /* \"EAGLEAI/EagleAI.sol\":39235:39265  calculateLiquidityFee(tAmount) */\n      jump\t// in\n    tag_644:\n        /* \"EAGLEAI/EagleAI.sol\":39214:39265  uint256 tLiquidity = calculateLiquidityFee(tAmount) */\n      swap1\n      pop\n        /* \"EAGLEAI/EagleAI.sol\":39276:39298  uint256 tCoinOperation */\n      0x00\n        /* \"EAGLEAI/EagleAI.sol\":39301:39336  calculateCoinOperartionTax(tAmount) */\n      tag_646\n        /* \"EAGLEAI/EagleAI.sol\":39328:39335  tAmount */\n      dup10\n        /* \"EAGLEAI/EagleAI.sol\":39301:39327  calculateCoinOperartionTax */\n      tag_647\n        /* \"EAGLEAI/EagleAI.sol\":39301:39336  calculateCoinOperartionTax(tAmount) */\n      jump\t// in\n    tag_646:\n        /* \"EAGLEAI/EagleAI.sol\":39276:39336  uint256 tCoinOperation = calculateCoinOperartionTax(tAmount) */\n      swap1\n      pop\n        /* \"EAGLEAI/EagleAI.sol\":39347:39360  uint256 tBurn */\n      0x00\n        /* \"EAGLEAI/EagleAI.sol\":39363:39388  calculateBurnTax(tAmount) */\n      tag_648\n        /* \"EAGLEAI/EagleAI.sol\":39380:39387  tAmount */\n      dup11\n        /* \"EAGLEAI/EagleAI.sol\":39363:39379  calculateBurnTax */\n      tag_649\n        /* \"EAGLEAI/EagleAI.sol\":39363:39388  calculateBurnTax(tAmount) */\n      jump\t// in\n    tag_648:\n        /* \"EAGLEAI/EagleAI.sol\":39347:39388  uint256 tBurn = calculateBurnTax(tAmount) */\n      swap1\n      pop\n        /* \"EAGLEAI/EagleAI.sol\":39399:39413  uint256 allTax */\n      0x00\n        /* \"EAGLEAI/EagleAI.sol\":39347:39388  uint256 tBurn = calculateBurnTax(tAmount) */\n      dup2\n        /* \"EAGLEAI/EagleAI.sol\":39436:39450  tCoinOperation */\n      dup4\n        /* \"EAGLEAI/EagleAI.sol\":39416:39433  tFee + tLiquidity */\n      tag_650\n        /* \"EAGLEAI/EagleAI.sol\":39423:39433  tLiquidity */\n      dup7\n        /* \"EAGLEAI/EagleAI.sol\":39416:39420  tFee */\n      dup9\n        /* \"EAGLEAI/EagleAI.sol\":39416:39433  tFee + tLiquidity */\n      tag_340\n      jump\t// in\n    tag_650:\n        /* \"EAGLEAI/EagleAI.sol\":39416:39450  tFee + tLiquidity + tCoinOperation */\n      tag_651\n      swap2\n      swap1\n      tag_340\n      jump\t// in\n    tag_651:\n        /* \"EAGLEAI/EagleAI.sol\":39416:39458  tFee + tLiquidity + tCoinOperation + tBurn */\n      tag_652\n      swap2\n      swap1\n      tag_340\n      jump\t// in\n    tag_652:\n        /* \"EAGLEAI/EagleAI.sol\":39399:39458  uint256 allTax = tFee + tLiquidity + tCoinOperation + tBurn */\n      swap1\n      pop\n        /* \"EAGLEAI/EagleAI.sol\":39469:39492  uint256 tTransferAmount */\n      0x00\n        /* \"EAGLEAI/EagleAI.sol\":39495:39511  tAmount - allTax */\n      tag_653\n        /* \"EAGLEAI/EagleAI.sol\":39399:39458  uint256 allTax = tFee + tLiquidity + tCoinOperation + tBurn */\n      dup3\n        /* \"EAGLEAI/EagleAI.sol\":39495:39502  tAmount */\n      dup14\n        /* \"EAGLEAI/EagleAI.sol\":39495:39511  tAmount - allTax */\n      tag_287\n      jump\t// in\n    tag_653:\n        /* \"EAGLEAI/EagleAI.sol\":39469:39511  uint256 tTransferAmount = tAmount - allTax */\n      swap13\n        /* \"EAGLEAI/EagleAI.sol\":39547:39551  tFee */\n      swap6\n      swap12\n      pop\n        /* \"EAGLEAI/EagleAI.sol\":39553:39563  tLiquidity */\n      swap4\n      swap10\n      pop\n        /* \"EAGLEAI/EagleAI.sol\":39565:39579  tCoinOperation */\n      swap2\n      swap8\n      pop\n      swap6\n      pop\n        /* \"EAGLEAI/EagleAI.sol\":39048:39595  function _getTValues(uint256 tAmount) private view returns (uint256, uint256, uint256, uint256, uint256) {... */\n      swap2\n      swap4\n      pop\n      pop\n      pop\n      pop\n      jump\t// out\n        /* \"EAGLEAI/EagleAI.sol\":40559:41203  function _getRValues(uint256 tAmount, uint256 tFee, uint256 tLiquidity, uint256 tCoinOperation, uint256 tBurn) private view returns (uint256, uint256, uint256) {... */\n    tag_576:\n        /* \"EAGLEAI/EagleAI.sol\":40692:40699  uint256 */\n      0x00\n        /* \"EAGLEAI/EagleAI.sol\":40701:40708  uint256 */\n      dup1\n        /* \"EAGLEAI/EagleAI.sol\":40710:40717  uint256 */\n      0x00\n        /* \"EAGLEAI/EagleAI.sol\":40730:40749  uint256 currentRate */\n      dup1\n        /* \"EAGLEAI/EagleAI.sol\":40752:40762  _getRate() */\n      tag_655\n        /* \"EAGLEAI/EagleAI.sol\":40752:40760  _getRate */\n      tag_303\n        /* \"EAGLEAI/EagleAI.sol\":40752:40762  _getRate() */\n      jump\t// in\n    tag_655:\n        /* \"EAGLEAI/EagleAI.sol\":40730:40762  uint256 currentRate = _getRate() */\n      swap1\n      pop\n        /* \"EAGLEAI/EagleAI.sol\":40773:40788  uint256 rAmount */\n      0x00\n        /* \"EAGLEAI/EagleAI.sol\":40791:40812  tAmount * currentRate */\n      tag_656\n        /* \"EAGLEAI/EagleAI.sol\":40730:40762  uint256 currentRate = _getRate() */\n      dup3\n        /* \"EAGLEAI/EagleAI.sol\":40791:40798  tAmount */\n      dup12\n        /* \"EAGLEAI/EagleAI.sol\":40791:40812  tAmount * currentRate */\n      tag_657\n      jump\t// in\n    tag_656:\n        /* \"EAGLEAI/EagleAI.sol\":40773:40812  uint256 rAmount = tAmount * currentRate */\n      swap1\n      pop\n        /* \"EAGLEAI/EagleAI.sol\":40823:40835  uint256 rFee */\n      0x00\n        /* \"EAGLEAI/EagleAI.sol\":40838:40856  tFee * currentRate */\n      tag_658\n        /* \"EAGLEAI/EagleAI.sol\":40845:40856  currentRate */\n      dup4\n        /* \"EAGLEAI/EagleAI.sol\":40838:40842  tFee */\n      dup12\n        /* \"EAGLEAI/EagleAI.sol\":40838:40856  tFee * currentRate */\n      tag_657\n      jump\t// in\n    tag_658:\n        /* \"EAGLEAI/EagleAI.sol\":40823:40856  uint256 rFee = tFee * currentRate */\n      swap1\n      pop\n        /* \"EAGLEAI/EagleAI.sol\":40867:40889  uint256 rCoinOperation */\n      0x00\n        /* \"EAGLEAI/EagleAI.sol\":40892:40920  tCoinOperation * currentRate */\n      tag_659\n        /* \"EAGLEAI/EagleAI.sol\":40909:40920  currentRate */\n      dup5\n        /* \"EAGLEAI/EagleAI.sol\":40892:40906  tCoinOperation */\n      dup11\n        /* \"EAGLEAI/EagleAI.sol\":40892:40920  tCoinOperation * currentRate */\n      tag_657\n      jump\t// in\n    tag_659:\n        /* \"EAGLEAI/EagleAI.sol\":40867:40920  uint256 rCoinOperation = tCoinOperation * currentRate */\n      swap1\n      pop\n        /* \"EAGLEAI/EagleAI.sol\":40931:40944  uint256 rBurn */\n      0x00\n        /* \"EAGLEAI/EagleAI.sol\":40947:40966  tBurn * currentRate */\n      tag_660\n        /* \"EAGLEAI/EagleAI.sol\":40955:40966  currentRate */\n      dup6\n        /* \"EAGLEAI/EagleAI.sol\":40947:40952  tBurn */\n      dup11\n        /* \"EAGLEAI/EagleAI.sol\":40947:40966  tBurn * currentRate */\n      tag_657\n      jump\t// in\n    tag_660:\n        /* \"EAGLEAI/EagleAI.sol\":40931:40966  uint256 rBurn = tBurn * currentRate */\n      swap1\n      pop\n        /* \"EAGLEAI/EagleAI.sol\":40977:40995  uint256 rLiquidity */\n      0x00\n        /* \"EAGLEAI/EagleAI.sol\":40998:41022  tLiquidity * currentRate */\n      tag_661\n        /* \"EAGLEAI/EagleAI.sol\":41011:41022  currentRate */\n      dup7\n        /* \"EAGLEAI/EagleAI.sol\":40998:41008  tLiquidity */\n      dup14\n        /* \"EAGLEAI/EagleAI.sol\":40998:41022  tLiquidity * currentRate */\n      tag_657\n      jump\t// in\n    tag_661:\n        /* \"EAGLEAI/EagleAI.sol\":40977:41022  uint256 rLiquidity = tLiquidity * currentRate */\n      swap1\n      pop\n        /* \"EAGLEAI/EagleAI.sol\":41033:41047  uint256 allTax */\n      0x00\n        /* \"EAGLEAI/EagleAI.sol\":40977:41022  uint256 rLiquidity = tLiquidity * currentRate */\n      dup2\n        /* \"EAGLEAI/EagleAI.sol\":41074:41079  rBurn */\n      dup4\n        /* \"EAGLEAI/EagleAI.sol\":41050:41071  rFee + rCoinOperation */\n      tag_662\n        /* \"EAGLEAI/EagleAI.sol\":41057:41071  rCoinOperation */\n      dup7\n        /* \"EAGLEAI/EagleAI.sol\":41050:41054  rFee */\n      dup9\n        /* \"EAGLEAI/EagleAI.sol\":41050:41071  rFee + rCoinOperation */\n      tag_340\n      jump\t// in\n    tag_662:\n        /* \"EAGLEAI/EagleAI.sol\":41050:41079  rFee + rCoinOperation + rBurn */\n      tag_663\n      swap2\n      swap1\n      tag_340\n      jump\t// in\n    tag_663:\n        /* \"EAGLEAI/EagleAI.sol\":41050:41092  rFee + rCoinOperation + rBurn + rLiquidity */\n      tag_664\n      swap2\n      swap1\n      tag_340\n      jump\t// in\n    tag_664:\n        /* \"EAGLEAI/EagleAI.sol\":41033:41092  uint256 allTax = rFee + rCoinOperation + rBurn + rLiquidity */\n      swap1\n      pop\n        /* \"EAGLEAI/EagleAI.sol\":41103:41126  uint256 rTransferAmount */\n      0x00\n        /* \"EAGLEAI/EagleAI.sol\":41129:41145  rAmount - allTax */\n      tag_665\n        /* \"EAGLEAI/EagleAI.sol\":41033:41092  uint256 allTax = rFee + rCoinOperation + rBurn + rLiquidity */\n      dup3\n        /* \"EAGLEAI/EagleAI.sol\":41129:41136  rAmount */\n      dup9\n        /* \"EAGLEAI/EagleAI.sol\":41129:41145  rAmount - allTax */\n      tag_287\n      jump\t// in\n    tag_665:\n        /* \"EAGLEAI/EagleAI.sol\":41164:41171  rAmount */\n      swap7\n      swap11\n      pop\n        /* \"EAGLEAI/EagleAI.sol\":41103:41145  uint256 rTransferAmount = rAmount - allTax */\n      swap6\n      swap9\n      pop\n        /* \"EAGLEAI/EagleAI.sol\":41190:41194  rFee */\n      swap4\n      swap7\n      pop\n      pop\n      pop\n      pop\n      pop\n      pop\n      pop\n        /* \"EAGLEAI/EagleAI.sol\":40559:41203  function _getRValues(uint256 tAmount, uint256 tFee, uint256 tLiquidity, uint256 tCoinOperation, uint256 tBurn) private view returns (uint256, uint256, uint256) {... */\n      swap6\n      pop\n      swap6\n      pop\n      swap6\n      swap3\n      pop\n      pop\n      pop\n      jump\t// out\n        /* \"EAGLEAI/EagleAI.sol\":63724:64436  function _transferFromExcluded(address sender, address recipient, uint256 tAmount) private {... */\n    tag_584:\n        /* \"EAGLEAI/EagleAI.sol\":63827:63850  uint256 tTransferAmount */\n      0x00\n        /* \"EAGLEAI/EagleAI.sol\":63852:63864  uint256 tFee */\n      dup1\n        /* \"EAGLEAI/EagleAI.sol\":63866:63884  uint256 tLiquidity */\n      0x00\n        /* \"EAGLEAI/EagleAI.sol\":63886:63908  uint256 tCoinOperation */\n      dup1\n        /* \"EAGLEAI/EagleAI.sol\":63910:63923  uint256 tBurn */\n      0x00\n        /* \"EAGLEAI/EagleAI.sol\":63927:63946  _getValues(tAmount) */\n      tag_668\n        /* \"EAGLEAI/EagleAI.sol\":63938:63945  tAmount */\n      dup7\n        /* \"EAGLEAI/EagleAI.sol\":63927:63937  _getValues */\n      tag_669\n        /* \"EAGLEAI/EagleAI.sol\":63927:63946  _getValues(tAmount) */\n      jump\t// in\n    tag_668:\n        /* \"EAGLEAI/EagleAI.sol\":63826:63946  (uint256 tTransferAmount, uint256 tFee, uint256 tLiquidity, uint256 tCoinOperation, uint256 tBurn) = _getValues(tAmount) */\n      swap5\n      pop\n      swap5\n      pop\n      swap5\n      pop\n      swap5\n      pop\n      swap5\n      pop\n        /* \"EAGLEAI/EagleAI.sol\":63958:63973  uint256 rAmount */\n      0x00\n        /* \"EAGLEAI/EagleAI.sol\":63975:63998  uint256 rTransferAmount */\n      dup1\n        /* \"EAGLEAI/EagleAI.sol\":64000:64012  uint256 rFee */\n      0x00\n        /* \"EAGLEAI/EagleAI.sol\":64016:64077  _getRValues(tAmount, tFee, tLiquidity, tCoinOperation, tBurn) */\n      tag_670\n        /* \"EAGLEAI/EagleAI.sol\":64028:64035  tAmount */\n      dup10\n        /* \"EAGLEAI/EagleAI.sol\":64037:64041  tFee */\n      dup9\n        /* \"EAGLEAI/EagleAI.sol\":64043:64053  tLiquidity */\n      dup9\n        /* \"EAGLEAI/EagleAI.sol\":64055:64069  tCoinOperation */\n      dup9\n        /* \"EAGLEAI/EagleAI.sol\":64071:64076  tBurn */\n      dup9\n        /* \"EAGLEAI/EagleAI.sol\":64016:64027  _getRValues */\n      tag_576\n        /* \"EAGLEAI/EagleAI.sol\":64016:64077  _getRValues(tAmount, tFee, tLiquidity, tCoinOperation, tBurn) */\n      jump\t// in\n    tag_670:\n      sub(shl(0xa0, 0x01), 0x01)\n        /* \"EAGLEAI/EagleAI.sol\":64106:64121  _tOwned[sender] */\n      dup15\n      and\n      0x00\n      swap1\n      dup2\n      mstore\n        /* \"EAGLEAI/EagleAI.sol\":64106:64113  _tOwned */\n      0x03\n        /* \"EAGLEAI/EagleAI.sol\":64106:64121  _tOwned[sender] */\n      0x20\n      mstore\n      0x40\n      swap1\n      keccak256\n      sload\n        /* \"EAGLEAI/EagleAI.sol\":63957:64077  (uint256 rAmount, uint256 rTransferAmount, uint256 rFee) = _getRValues(tAmount, tFee, tLiquidity, tCoinOperation, tBurn) */\n      swap3\n      swap6\n      pop\n      swap1\n      swap4\n      pop\n      swap2\n      pop\n        /* \"EAGLEAI/EagleAI.sol\":64106:64129  _tOwned[sender]-tAmount */\n      tag_671\n      swap1\n        /* \"EAGLEAI/EagleAI.sol\":64122:64129  tAmount */\n      dup11\n      swap1\n        /* \"EAGLEAI/EagleAI.sol\":64106:64129  _tOwned[sender]-tAmount */\n      tag_287\n      jump\t// in\n    tag_671:\n      sub(shl(0xa0, 0x01), 0x01)\n        /* \"EAGLEAI/EagleAI.sol\":64088:64103  _tOwned[sender] */\n      dup13\n      and\n      0x00\n      swap1\n      dup2\n      mstore\n        /* \"EAGLEAI/EagleAI.sol\":64088:64095  _tOwned */\n      0x03\n        /* \"EAGLEAI/EagleAI.sol\":64088:64103  _tOwned[sender] */\n      0x20\n      swap1\n      dup2\n      mstore\n      0x40\n      dup1\n      dup4\n      keccak256\n        /* \"EAGLEAI/EagleAI.sol\":64088:64129  _tOwned[sender] = _tOwned[sender]-tAmount */\n      swap4\n      swap1\n      swap4\n      sstore\n        /* \"EAGLEAI/EagleAI.sol\":64158:64165  _rOwned */\n      0x02\n        /* \"EAGLEAI/EagleAI.sol\":64158:64173  _rOwned[sender] */\n      swap1\n      mstore\n      keccak256\n      sload\n        /* \"EAGLEAI/EagleAI.sol\":64158:64181  _rOwned[sender]-rAmount */\n      tag_672\n      swap1\n        /* \"EAGLEAI/EagleAI.sol\":64174:64181  rAmount */\n      dup5\n      swap1\n        /* \"EAGLEAI/EagleAI.sol\":64158:64181  _rOwned[sender]-rAmount */\n      tag_287\n      jump\t// in\n    tag_672:\n      sub(shl(0xa0, 0x01), 0x01)\n        /* \"EAGLEAI/EagleAI.sol\":64140:64155  _rOwned[sender] */\n      dup1\n      dup14\n      and\n      0x00\n      swap1\n      dup2\n      mstore\n        /* \"EAGLEAI/EagleAI.sol\":64140:64147  _rOwned */\n      0x02\n        /* \"EAGLEAI/EagleAI.sol\":64140:64155  _rOwned[sender] */\n      0x20\n      mstore\n      0x40\n      dup1\n      dup3\n      keccak256\n        /* \"EAGLEAI/EagleAI.sol\":64140:64181  _rOwned[sender] = _rOwned[sender]-rAmount */\n      swap4\n      swap1\n      swap4\n      sstore\n        /* \"EAGLEAI/EagleAI.sol\":64213:64231  _rOwned[recipient] */\n      swap1\n      dup13\n      and\n      dup2\n      mstore\n      keccak256\n      sload\n        /* \"EAGLEAI/EagleAI.sol\":64213:64247  _rOwned[recipient]+rTransferAmount */\n      tag_673\n      swap1\n        /* \"EAGLEAI/EagleAI.sol\":64232:64247  rTransferAmount */\n      dup4\n      swap1\n        /* \"EAGLEAI/EagleAI.sol\":64213:64247  _rOwned[recipient]+rTransferAmount */\n      tag_340\n      jump\t// in\n    tag_673:\n      sub(shl(0xa0, 0x01), 0x01)\n        /* \"EAGLEAI/EagleAI.sol\":64192:64210  _rOwned[recipient] */\n      dup12\n      and\n      0x00\n      swap1\n      dup2\n      mstore\n        /* \"EAGLEAI/EagleAI.sol\":64192:64199  _rOwned */\n      0x02\n        /* \"EAGLEAI/EagleAI.sol\":64192:64210  _rOwned[recipient] */\n      0x20\n      mstore\n      0x40\n      swap1\n      keccak256\n        /* \"EAGLEAI/EagleAI.sol\":64192:64247  _rOwned[recipient] = _rOwned[recipient]+rTransferAmount */\n      sstore\n        /* \"EAGLEAI/EagleAI.sol\":64261:64287  _takeLiquidity(tLiquidity) */\n      tag_674\n        /* \"EAGLEAI/EagleAI.sol\":64276:64286  tLiquidity */\n      dup7\n        /* \"EAGLEAI/EagleAI.sol\":64261:64275  _takeLiquidity */\n      tag_675\n        /* \"EAGLEAI/EagleAI.sol\":64261:64287  _takeLiquidity(tLiquidity) */\n      jump\t// in\n    tag_674:\n        /* \"EAGLEAI/EagleAI.sol\":64298:64328  _reflectFee(rFee, tFee, tBurn) */\n      tag_676\n        /* \"EAGLEAI/EagleAI.sol\":64310:64314  rFee */\n      dup2\n        /* \"EAGLEAI/EagleAI.sol\":64316:64320  tFee */\n      dup9\n        /* \"EAGLEAI/EagleAI.sol\":64322:64327  tBurn */\n      dup7\n        /* \"EAGLEAI/EagleAI.sol\":64298:64309  _reflectFee */\n      tag_677\n        /* \"EAGLEAI/EagleAI.sol\":64298:64328  _reflectFee(rFee, tFee, tBurn) */\n      jump\t// in\n    tag_676:\n        /* \"EAGLEAI/EagleAI.sol\":64339:64368  _takeCoinFund(tCoinOperation) */\n      tag_678\n        /* \"EAGLEAI/EagleAI.sol\":64353:64367  tCoinOperation */\n      dup6\n        /* \"EAGLEAI/EagleAI.sol\":64339:64352  _takeCoinFund */\n      tag_679\n        /* \"EAGLEAI/EagleAI.sol\":64339:64368  _takeCoinFund(tCoinOperation) */\n      jump\t// in\n    tag_678:\n        /* \"EAGLEAI/EagleAI.sol\":64401:64410  recipient */\n      dup10\n      sub(shl(0xa0, 0x01), 0x01)\n        /* \"EAGLEAI/EagleAI.sol\":64384:64428  Transfer(sender, recipient, tTransferAmount) */\n      and\n        /* \"EAGLEAI/EagleAI.sol\":64393:64399  sender */\n      dup12\n      sub(shl(0xa0, 0x01), 0x01)\n        /* \"EAGLEAI/EagleAI.sol\":64384:64428  Transfer(sender, recipient, tTransferAmount) */\n      and\n      0xddf252ad1be2c89b69c2b068fc378daa952ba7f163c4a11628f55a4df523b3ef\n        /* \"EAGLEAI/EagleAI.sol\":64412:64427  tTransferAmount */\n      dup11\n        /* \"EAGLEAI/EagleAI.sol\":64384:64428  Transfer(sender, recipient, tTransferAmount) */\n      mload(0x40)\n      tag_680\n      swap2\n        /* \"#utility.yul\":1361:1386   */\n      dup2\n      mstore\n        /* \"#utility.yul\":1349:1351   */\n      0x20\n        /* \"#utility.yul\":1334:1352   */\n      add\n      swap1\n        /* \"#utility.yul\":1215:1392   */\n      jump\n        /* \"EAGLEAI/EagleAI.sol\":64384:64428  Transfer(sender, recipient, tTransferAmount) */\n    tag_680:\n      mload(0x40)\n      dup1\n      swap2\n      sub\n      swap1\n      log3\n        /* \"EAGLEAI/EagleAI.sol\":63815:64436  {... */\n      pop\n      pop\n      pop\n      pop\n      pop\n      pop\n      pop\n      pop\n        /* \"EAGLEAI/EagleAI.sol\":63724:64436  function _transferFromExcluded(address sender, address recipient, uint256 tAmount) private {... */\n      pop\n      pop\n      pop\n      jump\t// out\n        /* \"EAGLEAI/EagleAI.sol\":62285:63017  function _transferToExcluded(address sender, address recipient, uint256 tAmount) private {... */\n    tag_589:\n        /* \"EAGLEAI/EagleAI.sol\":62386:62409  uint256 tTransferAmount */\n      0x00\n        /* \"EAGLEAI/EagleAI.sol\":62411:62423  uint256 tFee */\n      dup1\n        /* \"EAGLEAI/EagleAI.sol\":62425:62443  uint256 tLiquidity */\n      0x00\n        /* \"EAGLEAI/EagleAI.sol\":62445:62467  uint256 tCoinOperation */\n      dup1\n        /* \"EAGLEAI/EagleAI.sol\":62469:62482  uint256 tBurn */\n      0x00\n        /* \"EAGLEAI/EagleAI.sol\":62486:62505  _getValues(tAmount) */\n      tag_682\n        /* \"EAGLEAI/EagleAI.sol\":62497:62504  tAmount */\n      dup7\n        /* \"EAGLEAI/EagleAI.sol\":62486:62496  _getValues */\n      tag_669\n        /* \"EAGLEAI/EagleAI.sol\":62486:62505  _getValues(tAmount) */\n      jump\t// in\n    tag_682:\n        /* \"EAGLEAI/EagleAI.sol\":62385:62505  (uint256 tTransferAmount, uint256 tFee, uint256 tLiquidity, uint256 tCoinOperation, uint256 tBurn) = _getValues(tAmount) */\n      swap5\n      pop\n      swap5\n      pop\n      swap5\n      pop\n      swap5\n      pop\n      swap5\n      pop\n        /* \"EAGLEAI/EagleAI.sol\":62517:62532  uint256 rAmount */\n      0x00\n        /* \"EAGLEAI/EagleAI.sol\":62534:62557  uint256 rTransferAmount */\n      dup1\n        /* \"EAGLEAI/EagleAI.sol\":62559:62571  uint256 rFee */\n      0x00\n        /* \"EAGLEAI/EagleAI.sol\":62575:62636  _getRValues(tAmount, tFee, tLiquidity, tCoinOperation, tBurn) */\n      tag_683\n        /* \"EAGLEAI/EagleAI.sol\":62587:62594  tAmount */\n      dup10\n        /* \"EAGLEAI/EagleAI.sol\":62596:62600  tFee */\n      dup9\n        /* \"EAGLEAI/EagleAI.sol\":62602:62612  tLiquidity */\n      dup9\n        /* \"EAGLEAI/EagleAI.sol\":62614:62628  tCoinOperation */\n      dup9\n        /* \"EAGLEAI/EagleAI.sol\":62630:62635  tBurn */\n      dup9\n        /* \"EAGLEAI/EagleAI.sol\":62575:62586  _getRValues */\n      tag_576\n        /* \"EAGLEAI/EagleAI.sol\":62575:62636  _getRValues(tAmount, tFee, tLiquidity, tCoinOperation, tBurn) */\n      jump\t// in\n    tag_683:\n      sub(shl(0xa0, 0x01), 0x01)\n        /* \"EAGLEAI/EagleAI.sol\":62665:62680  _rOwned[sender] */\n      dup15\n      and\n      0x00\n      swap1\n      dup2\n      mstore\n        /* \"EAGLEAI/EagleAI.sol\":62665:62672  _rOwned */\n      0x02\n        /* \"EAGLEAI/EagleAI.sol\":62665:62680  _rOwned[sender] */\n      0x20\n      mstore\n      0x40\n      swap1\n      keccak256\n      sload\n        /* \"EAGLEAI/EagleAI.sol\":62516:62636  (uint256 rAmount, uint256 rTransferAmount, uint256 rFee) = _getRValues(tAmount, tFee, tLiquidity, tCoinOperation, tBurn) */\n      swap3\n      swap6\n      pop\n      swap1\n      swap4\n      pop\n      swap2\n      pop\n        /* \"EAGLEAI/EagleAI.sol\":62665:62688  _rOwned[sender]-rAmount */\n      tag_684\n      swap1\n        /* \"EAGLEAI/EagleAI.sol\":62516:62636  (uint256 rAmount, uint256 rTransferAmount, uint256 rFee) = _getRValues(tAmount, tFee, tLiquidity, tCoinOperation, tBurn) */\n      dup5\n      swap1\n        /* \"EAGLEAI/EagleAI.sol\":62665:62688  _rOwned[sender]-rAmount */\n      tag_287\n      jump\t// in\n    tag_684:\n      sub(shl(0xa0, 0x01), 0x01)\n        /* \"EAGLEAI/EagleAI.sol\":62647:62662  _rOwned[sender] */\n      dup1\n      dup14\n      and\n      0x00\n      swap1\n      dup2\n      mstore\n        /* \"EAGLEAI/EagleAI.sol\":62647:62654  _rOwned */\n      0x02\n        /* \"EAGLEAI/EagleAI.sol\":62647:62662  _rOwned[sender] */\n      0x20\n      swap1\n      dup2\n      mstore\n      0x40\n      dup1\n      dup4\n      keccak256\n        /* \"EAGLEAI/EagleAI.sol\":62647:62688  _rOwned[sender] = _rOwned[sender]-rAmount */\n      swap5\n      swap1\n      swap5\n      sstore\n        /* \"EAGLEAI/EagleAI.sol\":62720:62738  _tOwned[recipient] */\n      swap2\n      dup14\n      and\n      dup2\n      mstore\n        /* \"EAGLEAI/EagleAI.sol\":62720:62727  _tOwned */\n      0x03\n        /* \"EAGLEAI/EagleAI.sol\":62720:62738  _tOwned[recipient] */\n      swap1\n      swap2\n      mstore\n      keccak256\n      sload\n        /* \"EAGLEAI/EagleAI.sol\":62720:62754  _tOwned[recipient]+tTransferAmount */\n      tag_685\n      swap1\n        /* \"EAGLEAI/EagleAI.sol\":62739:62754  tTransferAmount */\n      dup10\n      swap1\n        /* \"EAGLEAI/EagleAI.sol\":62720:62754  _tOwned[recipient]+tTransferAmount */\n      tag_340\n      jump\t// in\n    tag_685:\n      sub(shl(0xa0, 0x01), 0x01)\n        /* \"EAGLEAI/EagleAI.sol\":62699:62717  _tOwned[recipient] */\n      dup12\n      and\n      0x00\n      swap1\n      dup2\n      mstore\n        /* \"EAGLEAI/EagleAI.sol\":62699:62706  _tOwned */\n      0x03\n        /* \"EAGLEAI/EagleAI.sol\":62699:62717  _tOwned[recipient] */\n      0x20\n      swap1\n      dup2\n      mstore\n      0x40\n      dup1\n      dup4\n      keccak256\n        /* \"EAGLEAI/EagleAI.sol\":62699:62754  _tOwned[recipient] = _tOwned[recipient]+tTransferAmount */\n      swap4\n      swap1\n      swap4\n      sstore\n        /* \"EAGLEAI/EagleAI.sol\":62786:62793  _rOwned */\n      0x02\n        /* \"EAGLEAI/EagleAI.sol\":62786:62804  _rOwned[recipient] */\n      swap1\n      mstore\n      keccak256\n      sload\n        /* \"EAGLEAI/EagleAI.sol\":62786:62820  _rOwned[recipient]+rTransferAmount */\n      tag_673\n      swap1\n        /* \"EAGLEAI/EagleAI.sol\":62805:62820  rTransferAmount */\n      dup4\n      swap1\n        /* \"EAGLEAI/EagleAI.sol\":62786:62820  _rOwned[recipient]+rTransferAmount */\n      tag_340\n      jump\t// in\n        /* \"EAGLEAI/EagleAI.sol\":60926:61579  function _transferStandard(address sender, address recipient, uint256 tAmount) private {... */\n    tag_594:\n        /* \"EAGLEAI/EagleAI.sol\":61025:61048  uint256 tTransferAmount */\n      0x00\n        /* \"EAGLEAI/EagleAI.sol\":61050:61062  uint256 tFee */\n      dup1\n        /* \"EAGLEAI/EagleAI.sol\":61064:61082  uint256 tLiquidity */\n      0x00\n        /* \"EAGLEAI/EagleAI.sol\":61084:61106  uint256 tCoinOperation */\n      dup1\n        /* \"EAGLEAI/EagleAI.sol\":61108:61121  uint256 tBurn */\n      0x00\n        /* \"EAGLEAI/EagleAI.sol\":61125:61144  _getValues(tAmount) */\n      tag_692\n        /* \"EAGLEAI/EagleAI.sol\":61136:61143  tAmount */\n      dup7\n        /* \"EAGLEAI/EagleAI.sol\":61125:61135  _getValues */\n      tag_669\n        /* \"EAGLEAI/EagleAI.sol\":61125:61144  _getValues(tAmount) */\n      jump\t// in\n    tag_692:\n        /* \"EAGLEAI/EagleAI.sol\":61024:61144  (uint256 tTransferAmount, uint256 tFee, uint256 tLiquidity, uint256 tCoinOperation, uint256 tBurn) = _getValues(tAmount) */\n      swap5\n      pop\n      swap5\n      pop\n      swap5\n      pop\n      swap5\n      pop\n      swap5\n      pop\n        /* \"EAGLEAI/EagleAI.sol\":61156:61171  uint256 rAmount */\n      0x00\n        /* \"EAGLEAI/EagleAI.sol\":61173:61196  uint256 rTransferAmount */\n      dup1\n        /* \"EAGLEAI/EagleAI.sol\":61198:61210  uint256 rFee */\n      0x00\n        /* \"EAGLEAI/EagleAI.sol\":61214:61275  _getRValues(tAmount, tFee, tLiquidity, tCoinOperation, tBurn) */\n      tag_693\n        /* \"EAGLEAI/EagleAI.sol\":61226:61233  tAmount */\n      dup10\n        /* \"EAGLEAI/EagleAI.sol\":61235:61239  tFee */\n      dup9\n        /* \"EAGLEAI/EagleAI.sol\":61241:61251  tLiquidity */\n      dup9\n        /* \"EAGLEAI/EagleAI.sol\":61253:61267  tCoinOperation */\n      dup9\n        /* \"EAGLEAI/EagleAI.sol\":61269:61274  tBurn */\n      dup9\n        /* \"EAGLEAI/EagleAI.sol\":61214:61225  _getRValues */\n      tag_576\n        /* \"EAGLEAI/EagleAI.sol\":61214:61275  _getRValues(tAmount, tFee, tLiquidity, tCoinOperation, tBurn) */\n      jump\t// in\n    tag_693:\n      sub(shl(0xa0, 0x01), 0x01)\n        /* \"EAGLEAI/EagleAI.sol\":61304:61319  _rOwned[sender] */\n      dup15\n      and\n      0x00\n      swap1\n      dup2\n      mstore\n        /* \"EAGLEAI/EagleAI.sol\":61304:61311  _rOwned */\n      0x02\n        /* \"EAGLEAI/EagleAI.sol\":61304:61319  _rOwned[sender] */\n      0x20\n      mstore\n      0x40\n      swap1\n      keccak256\n      sload\n        /* \"EAGLEAI/EagleAI.sol\":61155:61275  (uint256 rAmount, uint256 rTransferAmount, uint256 rFee) = _getRValues(tAmount, tFee, tLiquidity, tCoinOperation, tBurn) */\n      swap3\n      swap6\n      pop\n      swap1\n      swap4\n      pop\n      swap2\n      pop\n        /* \"EAGLEAI/EagleAI.sol\":61304:61327  _rOwned[sender]-rAmount */\n      tag_672\n      swap1\n        /* \"EAGLEAI/EagleAI.sol\":61155:61275  (uint256 rAmount, uint256 rTransferAmount, uint256 rFee) = _getRValues(tAmount, tFee, tLiquidity, tCoinOperation, tBurn) */\n      dup5\n      swap1\n        /* \"EAGLEAI/EagleAI.sol\":61304:61327  _rOwned[sender]-rAmount */\n      tag_287\n      jump\t// in\n        /* \"EAGLEAI/EagleAI.sol\":29884:30667  function _transferBothExcluded(address sender, address recipient, uint256 tAmount) private {... */\n    tag_599:\n        /* \"EAGLEAI/EagleAI.sol\":29987:30010  uint256 tTransferAmount */\n      0x00\n        /* \"EAGLEAI/EagleAI.sol\":30012:30024  uint256 tFee */\n      dup1\n        /* \"EAGLEAI/EagleAI.sol\":30026:30044  uint256 tLiquidity */\n      0x00\n        /* \"EAGLEAI/EagleAI.sol\":30046:30068  uint256 tCoinOperation */\n      dup1\n        /* \"EAGLEAI/EagleAI.sol\":30070:30083  uint256 tBurn */\n      0x00\n        /* \"EAGLEAI/EagleAI.sol\":30087:30106  _getValues(tAmount) */\n      tag_701\n        /* \"EAGLEAI/EagleAI.sol\":30098:30105  tAmount */\n      dup7\n        /* \"EAGLEAI/EagleAI.sol\":30087:30097  _getValues */\n      tag_669\n        /* \"EAGLEAI/EagleAI.sol\":30087:30106  _getValues(tAmount) */\n      jump\t// in\n    tag_701:\n        /* \"EAGLEAI/EagleAI.sol\":29986:30106  (uint256 tTransferAmount, uint256 tFee, uint256 tLiquidity, uint256 tCoinOperation, uint256 tBurn) = _getValues(tAmount) */\n      swap5\n      pop\n      swap5\n      pop\n      swap5\n      pop\n      swap5\n      pop\n      swap5\n      pop\n        /* \"EAGLEAI/EagleAI.sol\":30118:30133  uint256 rAmount */\n      0x00\n        /* \"EAGLEAI/EagleAI.sol\":30135:30158  uint256 rTransferAmount */\n      dup1\n        /* \"EAGLEAI/EagleAI.sol\":30160:30172  uint256 rFee */\n      0x00\n        /* \"EAGLEAI/EagleAI.sol\":30176:30237  _getRValues(tAmount, tFee, tLiquidity, tCoinOperation, tBurn) */\n      tag_702\n        /* \"EAGLEAI/EagleAI.sol\":30188:30195  tAmount */\n      dup10\n        /* \"EAGLEAI/EagleAI.sol\":30197:30201  tFee */\n      dup9\n        /* \"EAGLEAI/EagleAI.sol\":30203:30213  tLiquidity */\n      dup9\n        /* \"EAGLEAI/EagleAI.sol\":30215:30229  tCoinOperation */\n      dup9\n        /* \"EAGLEAI/EagleAI.sol\":30231:30236  tBurn */\n      dup9\n        /* \"EAGLEAI/EagleAI.sol\":30176:30187  _getRValues */\n      tag_576\n        /* \"EAGLEAI/EagleAI.sol\":30176:30237  _getRValues(tAmount, tFee, tLiquidity, tCoinOperation, tBurn) */\n      jump\t// in\n    tag_702:\n      sub(shl(0xa0, 0x01), 0x01)\n        /* \"EAGLEAI/EagleAI.sol\":30266:30281  _tOwned[sender] */\n      dup15\n      and\n      0x00\n      swap1\n      dup2\n      mstore\n        /* \"EAGLEAI/EagleAI.sol\":30266:30273  _tOwned */\n      0x03\n        /* \"EAGLEAI/EagleAI.sol\":30266:30281  _tOwned[sender] */\n      0x20\n      mstore\n      0x40\n      swap1\n      keccak256\n      sload\n        /* \"EAGLEAI/EagleAI.sol\":30117:30237  (uint256 rAmount, uint256 rTransferAmount, uint256 rFee) = _getRValues(tAmount, tFee, tLiquidity, tCoinOperation, tBurn) */\n      swap3\n      swap6\n      pop\n      swap1\n      swap4\n      pop\n      swap2\n      pop\n        /* \"EAGLEAI/EagleAI.sol\":30266:30289  _tOwned[sender]-tAmount */\n      tag_703\n      swap1\n        /* \"EAGLEAI/EagleAI.sol\":30282:30289  tAmount */\n      dup11\n      swap1\n        /* \"EAGLEAI/EagleAI.sol\":30266:30289  _tOwned[sender]-tAmount */\n      tag_287\n      jump\t// in\n    tag_703:\n      sub(shl(0xa0, 0x01), 0x01)\n        /* \"EAGLEAI/EagleAI.sol\":30248:30263  _tOwned[sender] */\n      dup13\n      and\n      0x00\n      swap1\n      dup2\n      mstore\n        /* \"EAGLEAI/EagleAI.sol\":30248:30255  _tOwned */\n      0x03\n        /* \"EAGLEAI/EagleAI.sol\":30248:30263  _tOwned[sender] */\n      0x20\n      swap1\n      dup2\n      mstore\n      0x40\n      dup1\n      dup4\n      keccak256\n        /* \"EAGLEAI/EagleAI.sol\":30248:30289  _tOwned[sender] = _tOwned[sender]-tAmount */\n      swap4\n      swap1\n      swap4\n      sstore\n        /* \"EAGLEAI/EagleAI.sol\":30318:30325  _rOwned */\n      0x02\n        /* \"EAGLEAI/EagleAI.sol\":30318:30333  _rOwned[sender] */\n      swap1\n      mstore\n      keccak256\n      sload\n        /* \"EAGLEAI/EagleAI.sol\":30318:30341  _rOwned[sender]-rAmount */\n      tag_684\n      swap1\n        /* \"EAGLEAI/EagleAI.sol\":30334:30341  rAmount */\n      dup5\n      swap1\n        /* \"EAGLEAI/EagleAI.sol\":30318:30341  _rOwned[sender]-rAmount */\n      tag_287\n      jump\t// in\n        /* \"EAGLEAI/EagleAI.sol\":56995:57584  function swapTokensForEth(uint256 tokenAmount) private {... */\n    tag_607:\n        /* \"EAGLEAI/EagleAI.sol\":57145:57161  new address[](2) */\n      0x40\n      dup1\n      mload\n        /* \"EAGLEAI/EagleAI.sol\":57159:57160  2 */\n      0x02\n        /* \"EAGLEAI/EagleAI.sol\":57145:57161  new address[](2) */\n      dup1\n      dup3\n      mstore\n      0x60\n      dup3\n      add\n      dup4\n      mstore\n        /* \"EAGLEAI/EagleAI.sol\":57121:57142  address[] memory path */\n      0x00\n      swap3\n        /* \"EAGLEAI/EagleAI.sol\":57145:57161  new address[](2) */\n      0x20\n      dup4\n      add\n      swap1\n      dup1\n      calldatasize\n      dup4\n      calldatacopy\n      add\n      swap1\n      pop\n      pop\n        /* \"EAGLEAI/EagleAI.sol\":57121:57161  address[] memory path = new address[](2) */\n      swap1\n      pop\n        /* \"EAGLEAI/EagleAI.sol\":57190:57194  this */\n      address\n        /* \"EAGLEAI/EagleAI.sol\":57172:57176  path */\n      dup2\n        /* \"EAGLEAI/EagleAI.sol\":57177:57178  0 */\n      0x00\n        /* \"EAGLEAI/EagleAI.sol\":57172:57179  path[0] */\n      dup2\n      mload\n      dup2\n      lt\n      tag_717\n      jumpi\n      tag_717\n      tag_320\n      jump\t// in\n    tag_717:\n      0x20\n      mul\n      0x20\n      add\n      add\n        /* \"EAGLEAI/EagleAI.sol\":57172:57195  path[0] = address(this) */\n      swap1\n      sub(shl(0xa0, 0x01), 0x01)\n      and\n      swap1\n      dup2\n      sub(shl(0xa0, 0x01), 0x01)\n      and\n      dup2\n      mstore\n      pop\n      pop\n        /* \"EAGLEAI/EagleAI.sol\":57216:57231  uniswapV2Router */\n      immutable(\"0xd1bfb39175379108a717b7ef0f82b6e824d30ad965caf5d88e1c0f8ae725e4a0\")\n      sub(shl(0xa0, 0x01), 0x01)\n        /* \"EAGLEAI/EagleAI.sol\":57216:57236  uniswapV2Router.WETH */\n      and\n      0xad5c4648\n        /* \"EAGLEAI/EagleAI.sol\":57216:57238  uniswapV2Router.WETH() */\n      mload(0x40)\n      dup2\n      0xffffffff\n      and\n      0xe0\n      shl\n      dup2\n      mstore\n      0x04\n      add\n      0x20\n      mload(0x40)\n      dup1\n      dup4\n      sub\n      dup2\n      dup7\n      gas\n      staticcall\n      iszero\n      dup1\n      iszero\n      tag_719\n      jumpi\n      returndatasize\n      0x00\n      dup1\n      returndatacopy\n      revert(0x00, returndatasize)\n    tag_719:\n      pop\n      pop\n      pop\n      pop\n      mload(0x40)\n      returndatasize\n      not(0x1f)\n      0x1f\n      dup3\n      add\n      and\n      dup3\n      add\n      dup1\n      0x40\n      mstore\n      pop\n      dup2\n      add\n      swap1\n      tag_720\n      swap2\n      swap1\n      tag_721\n      jump\t// in\n    tag_720:\n        /* \"EAGLEAI/EagleAI.sol\":57206:57210  path */\n      dup2\n        /* \"EAGLEAI/EagleAI.sol\":57211:57212  1 */\n      0x01\n        /* \"EAGLEAI/EagleAI.sol\":57206:57213  path[1] */\n      dup2\n      mload\n      dup2\n      lt\n      tag_723\n      jumpi\n      tag_723\n      tag_320\n      jump\t// in\n    tag_723:\n      0x20\n      mul\n      0x20\n      add\n      add\n        /* \"EAGLEAI/EagleAI.sol\":57206:57238  path[1] = uniswapV2Router.WETH() */\n      swap1\n      sub(shl(0xa0, 0x01), 0x01)\n      and\n      swap1\n      dup2\n      sub(shl(0xa0, 0x01), 0x01)\n      and\n      dup2\n      mstore\n      pop\n      pop\n        /* \"EAGLEAI/EagleAI.sol\":57251:57313  _approve(address(this), address(uniswapV2Router), tokenAmount) */\n      tag_724\n        /* \"EAGLEAI/EagleAI.sol\":57268:57272  this */\n      address\n        /* \"EAGLEAI/EagleAI.sol\":57283:57298  uniswapV2Router */\n      immutable(\"0xd1bfb39175379108a717b7ef0f82b6e824d30ad965caf5d88e1c0f8ae725e4a0\")\n        /* \"EAGLEAI/EagleAI.sol\":57301:57312  tokenAmount */\n      dup5\n        /* \"EAGLEAI/EagleAI.sol\":57251:57259  _approve */\n      tag_277\n        /* \"EAGLEAI/EagleAI.sol\":57251:57313  _approve(address(this), address(uniswapV2Router), tokenAmount) */\n      jump\t// in\n    tag_724:\n        /* \"EAGLEAI/EagleAI.sol\":57352:57576  uniswapV2Router.swapExactTokensForETHSupportingFeeOnTransferTokens(... */\n      mload(0x40)\n      shl(0xe0, 0x791ac947)\n      dup2\n      mstore\n      sub(shl(0xa0, 0x01), 0x01)\n        /* \"EAGLEAI/EagleAI.sol\":57352:57367  uniswapV2Router */\n      immutable(\"0xd1bfb39175379108a717b7ef0f82b6e824d30ad965caf5d88e1c0f8ae725e4a0\")\n        /* \"EAGLEAI/EagleAI.sol\":57352:57418  uniswapV2Router.swapExactTokensForETHSupportingFeeOnTransferTokens */\n      and\n      swap1\n      0x791ac947\n      swap1\n        /* \"EAGLEAI/EagleAI.sol\":57352:57576  uniswapV2Router.swapExactTokensForETHSupportingFeeOnTransferTokens(... */\n      tag_725\n      swap1\n        /* \"EAGLEAI/EagleAI.sol\":57433:57444  tokenAmount */\n      dup6\n      swap1\n        /* \"EAGLEAI/EagleAI.sol\":57459:57460  0 */\n      0x00\n      swap1\n        /* \"EAGLEAI/EagleAI.sol\":57503:57507  path */\n      dup7\n      swap1\n        /* \"EAGLEAI/EagleAI.sol\":57530:57534  this */\n      address\n      swap1\n        /* \"EAGLEAI/EagleAI.sol\":57550:57565  block.timestamp */\n      timestamp\n      swap1\n        /* \"EAGLEAI/EagleAI.sol\":57352:57576  uniswapV2Router.swapExactTokensForETHSupportingFeeOnTransferTokens(... */\n      0x04\n      add\n      tag_726\n      jump\t// in\n    tag_725:\n      0x00\n      mload(0x40)\n      dup1\n      dup4\n      sub\n      dup2\n      0x00\n      dup8\n      dup1\n      extcodesize\n      iszero\n      dup1\n      iszero\n      tag_727\n      jumpi\n      0x00\n      dup1\n      revert\n    tag_727:\n      pop\n      gas\n      call\n      iszero\n      dup1\n      iszero\n      tag_409\n      jumpi\n      returndatasize\n      0x00\n      dup1\n      returndatacopy\n      revert(0x00, returndatasize)\n        /* \"EAGLEAI/EagleAI.sol\":58215:58728  function addLiquidity(uint256 tokenAmount, uint256 ethAmount) private {... */\n    tag_610:\n        /* \"EAGLEAI/EagleAI.sol\":58363:58425  _approve(address(this), address(uniswapV2Router), tokenAmount) */\n      tag_731\n        /* \"EAGLEAI/EagleAI.sol\":58380:58384  this */\n      address\n        /* \"EAGLEAI/EagleAI.sol\":58395:58410  uniswapV2Router */\n      immutable(\"0xd1bfb39175379108a717b7ef0f82b6e824d30ad965caf5d88e1c0f8ae725e4a0\")\n        /* \"EAGLEAI/EagleAI.sol\":58413:58424  tokenAmount */\n      dup5\n        /* \"EAGLEAI/EagleAI.sol\":58363:58371  _approve */\n      tag_277\n        /* \"EAGLEAI/EagleAI.sol\":58363:58425  _approve(address(this), address(uniswapV2Router), tokenAmount) */\n      jump\t// in\n    tag_731:\n        /* \"EAGLEAI/EagleAI.sol\":58468:58483  uniswapV2Router */\n      immutable(\"0xd1bfb39175379108a717b7ef0f82b6e824d30ad965caf5d88e1c0f8ae725e4a0\")\n      sub(shl(0xa0, 0x01), 0x01)\n        /* \"EAGLEAI/EagleAI.sol\":58468:58499  uniswapV2Router.addLiquidityETH */\n      and\n      0xf305d719\n        /* \"EAGLEAI/EagleAI.sol\":58507:58516  ethAmount */\n      dup3\n        /* \"EAGLEAI/EagleAI.sol\":58540:58544  this */\n      address\n        /* \"EAGLEAI/EagleAI.sol\":58560:58571  tokenAmount */\n      dup6\n        /* \"EAGLEAI/EagleAI.sol\":58586:58587  0 */\n      0x00\n        /* \"EAGLEAI/EagleAI.sol\":58629:58630  0 */\n      dup1\n        /* \"EAGLEAI/EagleAI.sol\":58672:58679  owner() */\n      tag_732\n        /* \"EAGLEAI/EagleAI.sol\":6018:6025  address */\n      0x00\n        /* \"EAGLEAI/EagleAI.sol\":6045:6051  _owner */\n      sload\n      sub(shl(0xa0, 0x01), 0x01)\n      and\n      swap1\n        /* \"EAGLEAI/EagleAI.sol\":5980:6059  function owner() public view returns (address) {... */\n      jump\n        /* \"EAGLEAI/EagleAI.sol\":58672:58679  owner() */\n    tag_732:\n        /* \"EAGLEAI/EagleAI.sol\":58468:58720  uniswapV2Router.addLiquidityETH{value: ethAmount}(... */\n      mload(0x40)\n      0xe0\n      dup9\n      swap1\n      shl\n      not(sub(shl(0xe0, 0x01), 0x01))\n      and\n      dup2\n      mstore\n      sub(shl(0xa0, 0x01), 0x01)\n        /* \"#utility.yul\":19674:19689   */\n      swap6\n      dup7\n      and\n        /* \"EAGLEAI/EagleAI.sol\":58468:58720  uniswapV2Router.addLiquidityETH{value: ethAmount}(... */\n      0x04\n      dup3\n      add\n        /* \"#utility.yul\":19656:19690   */\n      mstore\n        /* \"#utility.yul\":19706:19724   */\n      0x24\n      dup2\n      add\n        /* \"#utility.yul\":19699:19733   */\n      swap5\n      swap1\n      swap5\n      mstore\n        /* \"#utility.yul\":19749:19767   */\n      0x44\n      dup5\n      add\n        /* \"#utility.yul\":19742:19776   */\n      swap3\n      swap1\n      swap3\n      mstore\n        /* \"#utility.yul\":19792:19810   */\n      0x64\n      dup4\n      add\n        /* \"#utility.yul\":19785:19819   */\n      mstore\n        /* \"#utility.yul\":19856:19871   */\n      swap1\n      swap2\n      and\n        /* \"#utility.yul\":19835:19854   */\n      0x84\n      dup3\n      add\n        /* \"#utility.yul\":19828:19872   */\n      mstore\n        /* \"EAGLEAI/EagleAI.sol\":58694:58709  block.timestamp */\n      timestamp\n        /* \"#utility.yul\":19888:19907   */\n      0xa4\n      dup3\n      add\n        /* \"#utility.yul\":19881:19916   */\n      mstore\n        /* \"#utility.yul\":19590:19609   */\n      0xc4\n      add\n        /* \"EAGLEAI/EagleAI.sol\":58468:58720  uniswapV2Router.addLiquidityETH{value: ethAmount}(... */\n      0x60\n      mload(0x40)\n      dup1\n      dup4\n      sub\n      dup2\n      dup6\n      dup9\n      gas\n      call\n      iszero\n      dup1\n      iszero\n      tag_736\n      jumpi\n      returndatasize\n      0x00\n      dup1\n      returndatacopy\n      revert(0x00, returndatasize)\n    tag_736:\n      pop\n      pop\n      pop\n      pop\n      pop\n      mload(0x40)\n      returndatasize\n      not(0x1f)\n      0x1f\n      dup3\n      add\n      and\n      dup3\n      add\n      dup1\n      0x40\n      mstore\n      pop\n      dup2\n      add\n      swap1\n      tag_737\n      swap2\n      swap1\n      tag_738\n      jump\t// in\n    tag_737:\n      pop\n      pop\n      pop\n        /* \"EAGLEAI/EagleAI.sol\":58215:58728  function addLiquidity(uint256 tokenAmount, uint256 ethAmount) private {... */\n      pop\n      pop\n      jump\t// out\n        /* \"EAGLEAI/EagleAI.sol\":43265:43386  function calculateTaxFee(uint256 amount) private view returns (uint256) {... */\n    tag_643:\n        /* \"EAGLEAI/EagleAI.sol\":43328:43335  uint256 */\n      0x00\n        /* \"EAGLEAI/EagleAI.sol\":43373:43378  10**2 */\n      0x64\n        /* \"EAGLEAI/EagleAI.sol\":43364:43370  refAmt */\n      sload(0x0e)\n        /* \"EAGLEAI/EagleAI.sol\":43355:43361  amount */\n      dup4\n        /* \"EAGLEAI/EagleAI.sol\":43355:43370  amount * refAmt */\n      tag_740\n      swap2\n      swap1\n      tag_657\n      jump\t// in\n    tag_740:\n        /* \"EAGLEAI/EagleAI.sol\":43355:43378  amount * refAmt / 10**2 */\n      tag_273\n      swap2\n      swap1\n      tag_305\n      jump\t// in\n        /* \"EAGLEAI/EagleAI.sol\":43630:43759  function calculateLiquidityFee(uint256 amount) private view returns (uint256) {... */\n    tag_645:\n        /* \"EAGLEAI/EagleAI.sol\":43699:43706  uint256 */\n      0x00\n        /* \"EAGLEAI/EagleAI.sol\":43746:43751  10**2 */\n      0x64\n        /* \"EAGLEAI/EagleAI.sol\":43735:43743  liquidty */\n      sload(0x10)\n        /* \"EAGLEAI/EagleAI.sol\":43726:43732  amount */\n      dup4\n        /* \"EAGLEAI/EagleAI.sol\":43726:43743  amount * liquidty */\n      tag_740\n      swap2\n      swap1\n      tag_657\n      jump\t// in\n        /* \"EAGLEAI/EagleAI.sol\":44024:44163  function calculateCoinOperartionTax(uint256 amount) private view returns (uint256) {... */\n    tag_647:\n        /* \"EAGLEAI/EagleAI.sol\":44098:44105  uint256 */\n      0x00\n        /* \"EAGLEAI/EagleAI.sol\":44150:44155  10**2 */\n      0x64\n        /* \"EAGLEAI/EagleAI.sol\":44134:44147  coinOperation */\n      sload(0x0f)\n        /* \"EAGLEAI/EagleAI.sol\":44125:44131  amount */\n      dup4\n        /* \"EAGLEAI/EagleAI.sol\":44125:44147  amount * coinOperation */\n      tag_740\n      swap2\n      swap1\n      tag_657\n      jump\t// in\n        /* \"EAGLEAI/EagleAI.sol\":44471:44591  function calculateBurnTax(uint256 amount) private view returns (uint256) {... */\n    tag_649:\n        /* \"EAGLEAI/EagleAI.sol\":44535:44542  uint256 */\n      0x00\n        /* \"EAGLEAI/EagleAI.sol\":44578:44583  10**2 */\n      0x64\n        /* \"EAGLEAI/EagleAI.sol\":44571:44575  burn */\n      sload(0x11)\n        /* \"EAGLEAI/EagleAI.sol\":44562:44568  amount */\n      dup4\n        /* \"EAGLEAI/EagleAI.sol\":44562:44575  amount * burn */\n      tag_740\n      swap2\n      swap1\n      tag_657\n      jump\t// in\n        /* \"EAGLEAI/EagleAI.sol\":36926:37248  function _getValues(uint256 tAmount) private view returns (uint256, uint256, uint256, uint256, uint256) {... */\n    tag_669:\n        /* \"EAGLEAI/EagleAI.sol\":36985:36992  uint256 */\n      0x00\n        /* \"EAGLEAI/EagleAI.sol\":36994:37001  uint256 */\n      dup1\n        /* \"EAGLEAI/EagleAI.sol\":37003:37010  uint256 */\n      0x00\n        /* \"EAGLEAI/EagleAI.sol\":37012:37019  uint256 */\n      dup1\n        /* \"EAGLEAI/EagleAI.sol\":37021:37028  uint256 */\n      0x00\n        /* \"EAGLEAI/EagleAI.sol\":37042:37065  uint256 tTransferAmount */\n      dup1\n        /* \"EAGLEAI/EagleAI.sol\":37067:37079  uint256 tFee */\n      0x00\n        /* \"EAGLEAI/EagleAI.sol\":37081:37099  uint256 tLiquidity */\n      dup1\n        /* \"EAGLEAI/EagleAI.sol\":37101:37123  uint256 tCoinOperation */\n      0x00\n        /* \"EAGLEAI/EagleAI.sol\":37125:37138  uint256 tBurn */\n      dup1\n        /* \"EAGLEAI/EagleAI.sol\":37142:37162  _getTValues(tAmount) */\n      tag_752\n        /* \"EAGLEAI/EagleAI.sol\":37154:37161  tAmount */\n      dup12\n        /* \"EAGLEAI/EagleAI.sol\":37142:37153  _getTValues */\n      tag_574\n        /* \"EAGLEAI/EagleAI.sol\":37142:37162  _getTValues(tAmount) */\n      jump\t// in\n    tag_752:\n        /* \"EAGLEAI/EagleAI.sol\":37041:37162  (uint256 tTransferAmount, uint256 tFee, uint256 tLiquidity, uint256 tCoinOperation, uint256 tBurn) = _getTValues(tAmount) */\n      swap4\n      swap16\n      swap3\n      swap15\n      pop\n      swap1\n      swap13\n      pop\n      swap11\n      pop\n      swap1\n      swap9\n      pop\n        /* \"EAGLEAI/EagleAI.sol\":36926:37248  function _getValues(uint256 tAmount) private view returns (uint256, uint256, uint256, uint256, uint256) {... */\n      swap7\n      pop\n      pop\n      pop\n      pop\n      pop\n      pop\n      pop\n      jump\t// out\n        /* \"EAGLEAI/EagleAI.sol\":42627:43018  function _takeLiquidity(uint256 tLiquidity) private {... */\n    tag_675:\n        /* \"EAGLEAI/EagleAI.sol\":42693:42712  uint256 currentRate */\n      0x00\n        /* \"EAGLEAI/EagleAI.sol\":42716:42726  _getRate() */\n      tag_754\n        /* \"EAGLEAI/EagleAI.sol\":42716:42724  _getRate */\n      tag_303\n        /* \"EAGLEAI/EagleAI.sol\":42716:42726  _getRate() */\n      jump\t// in\n    tag_754:\n        /* \"EAGLEAI/EagleAI.sol\":42693:42726  uint256 currentRate =  _getRate() */\n      swap1\n      pop\n        /* \"EAGLEAI/EagleAI.sol\":42737:42755  uint256 rLiquidity */\n      0x00\n        /* \"EAGLEAI/EagleAI.sol\":42758:42782  tLiquidity * currentRate */\n      tag_755\n        /* \"EAGLEAI/EagleAI.sol\":42693:42726  uint256 currentRate =  _getRate() */\n      dup3\n        /* \"EAGLEAI/EagleAI.sol\":42758:42768  tLiquidity */\n      dup5\n        /* \"EAGLEAI/EagleAI.sol\":42758:42782  tLiquidity * currentRate */\n      tag_657\n      jump\t// in\n    tag_755:\n        /* \"EAGLEAI/EagleAI.sol\":42834:42838  this */\n      address\n        /* \"EAGLEAI/EagleAI.sol\":42818:42840  _rOwned[address(this)] */\n      0x00\n      swap1\n      dup2\n      mstore\n        /* \"EAGLEAI/EagleAI.sol\":42818:42825  _rOwned */\n      0x02\n        /* \"EAGLEAI/EagleAI.sol\":42818:42840  _rOwned[address(this)] */\n      0x20\n      mstore\n      0x40\n      swap1\n      keccak256\n      sload\n        /* \"EAGLEAI/EagleAI.sol\":42737:42782  uint256 rLiquidity = tLiquidity * currentRate */\n      swap1\n      swap2\n      pop\n        /* \"EAGLEAI/EagleAI.sol\":42818:42853  _rOwned[address(this)] + rLiquidity */\n      tag_756\n      swap1\n        /* \"EAGLEAI/EagleAI.sol\":42737:42782  uint256 rLiquidity = tLiquidity * currentRate */\n      dup3\n      swap1\n        /* \"EAGLEAI/EagleAI.sol\":42818:42853  _rOwned[address(this)] + rLiquidity */\n      tag_340\n      jump\t// in\n    tag_756:\n        /* \"EAGLEAI/EagleAI.sol\":42809:42813  this */\n      address\n        /* \"EAGLEAI/EagleAI.sol\":42793:42815  _rOwned[address(this)] */\n      0x00\n      swap1\n      dup2\n      mstore\n        /* \"EAGLEAI/EagleAI.sol\":42793:42800  _rOwned */\n      0x02\n        /* \"EAGLEAI/EagleAI.sol\":42793:42815  _rOwned[address(this)] */\n      0x20\n      swap1\n      dup2\n      mstore\n      0x40\n      dup1\n      dup4\n      keccak256\n        /* \"EAGLEAI/EagleAI.sol\":42793:42853  _rOwned[address(this)] = _rOwned[address(this)] + rLiquidity */\n      swap4\n      swap1\n      swap4\n      sstore\n        /* \"EAGLEAI/EagleAI.sol\":42867:42878  _isExcluded */\n      0x07\n        /* \"EAGLEAI/EagleAI.sol\":42867:42893  _isExcluded[address(this)] */\n      swap1\n      mstore\n      keccak256\n      sload\n      0xff\n      and\n        /* \"EAGLEAI/EagleAI.sol\":42864:42968  if(_isExcluded[address(this)])... */\n      iszero\n      tag_757\n      jumpi\n        /* \"EAGLEAI/EagleAI.sol\":42949:42953  this */\n      address\n        /* \"EAGLEAI/EagleAI.sol\":42933:42955  _tOwned[address(this)] */\n      0x00\n      swap1\n      dup2\n      mstore\n        /* \"EAGLEAI/EagleAI.sol\":42933:42940  _tOwned */\n      0x03\n        /* \"EAGLEAI/EagleAI.sol\":42933:42955  _tOwned[address(this)] */\n      0x20\n      mstore\n      0x40\n      swap1\n      keccak256\n      sload\n        /* \"EAGLEAI/EagleAI.sol\":42933:42968  _tOwned[address(this)] + tLiquidity */\n      tag_758\n      swap1\n        /* \"EAGLEAI/EagleAI.sol\":42958:42968  tLiquidity */\n      dup5\n      swap1\n        /* \"EAGLEAI/EagleAI.sol\":42933:42968  _tOwned[address(this)] + tLiquidity */\n      tag_340\n      jump\t// in\n    tag_758:\n        /* \"EAGLEAI/EagleAI.sol\":42924:42928  this */\n      address\n        /* \"EAGLEAI/EagleAI.sol\":42908:42930  _tOwned[address(this)] */\n      0x00\n      swap1\n      dup2\n      mstore\n        /* \"EAGLEAI/EagleAI.sol\":42908:42915  _tOwned */\n      0x03\n        /* \"EAGLEAI/EagleAI.sol\":42908:42930  _tOwned[address(this)] */\n      0x20\n      mstore\n      0x40\n      swap1\n      keccak256\n        /* \"EAGLEAI/EagleAI.sol\":42908:42968  _tOwned[address(this)] = _tOwned[address(this)] + tLiquidity */\n      sstore\n        /* \"EAGLEAI/EagleAI.sol\":42864:42968  if(_isExcluded[address(this)])... */\n    tag_757:\n        /* \"EAGLEAI/EagleAI.sol\":42984:43010  AddedLiquidity(tLiquidity) */\n      mload(0x40)\n        /* \"#utility.yul\":1361:1386   */\n      dup4\n      dup2\n      mstore\n        /* \"EAGLEAI/EagleAI.sol\":42984:43010  AddedLiquidity(tLiquidity) */\n      0x3a8ab79f6d1537e459a1a8379f48a77e1ffd07dda4b16ea97074fdab5dd8bf34\n      swap1\n        /* \"#utility.yul\":1349:1351   */\n      0x20\n        /* \"#utility.yul\":1334:1352   */\n      add\n        /* \"EAGLEAI/EagleAI.sol\":42984:43010  AddedLiquidity(tLiquidity) */\n    tag_759:\n      mload(0x40)\n      dup1\n      swap2\n      sub\n      swap1\n      log1\n        /* \"EAGLEAI/EagleAI.sol\":42679:43018  {... */\n      pop\n      pop\n        /* \"EAGLEAI/EagleAI.sol\":42627:43018  function _takeLiquidity(uint256 tLiquidity) private {... */\n      pop\n      jump\t// out\n        /* \"EAGLEAI/EagleAI.sol\":34820:35164  function _reflectFee(uint256 rFee, uint256 tFee, uint256 tBurn) private {... */\n    tag_677:\n        /* \"EAGLEAI/EagleAI.sol\":34904:34923  uint256 currentRate */\n      0x00\n        /* \"EAGLEAI/EagleAI.sol\":34926:34936  _getRate() */\n      tag_761\n        /* \"EAGLEAI/EagleAI.sol\":34926:34934  _getRate */\n      tag_303\n        /* \"EAGLEAI/EagleAI.sol\":34926:34936  _getRate() */\n      jump\t// in\n    tag_761:\n        /* \"EAGLEAI/EagleAI.sol\":34904:34936  uint256 currentRate = _getRate() */\n      swap1\n      pop\n        /* \"EAGLEAI/EagleAI.sol\":34948:34961  uint256 rBurn */\n      0x00\n        /* \"EAGLEAI/EagleAI.sol\":34964:34983  tBurn * currentRate */\n      tag_762\n        /* \"EAGLEAI/EagleAI.sol\":34904:34936  uint256 currentRate = _getRate() */\n      dup3\n        /* \"EAGLEAI/EagleAI.sol\":34964:34969  tBurn */\n      dup5\n        /* \"EAGLEAI/EagleAI.sol\":34964:34983  tBurn * currentRate */\n      tag_657\n      jump\t// in\n    tag_762:\n        /* \"EAGLEAI/EagleAI.sol\":34948:34983  uint256 rBurn = tBurn * currentRate */\n      swap1\n      pop\n        /* \"EAGLEAI/EagleAI.sol\":35028:35033  rBurn */\n      dup1\n        /* \"EAGLEAI/EagleAI.sol\":35021:35025  rFee */\n      dup6\n        /* \"EAGLEAI/EagleAI.sol\":35011:35018  _rTotal */\n      sload(0x0a)\n        /* \"EAGLEAI/EagleAI.sol\":35011:35025  _rTotal - rFee */\n      tag_763\n      swap2\n      swap1\n      tag_287\n      jump\t// in\n    tag_763:\n        /* \"EAGLEAI/EagleAI.sol\":35011:35033  _rTotal - rFee - rBurn */\n      tag_764\n      swap2\n      swap1\n      tag_287\n      jump\t// in\n    tag_764:\n        /* \"EAGLEAI/EagleAI.sol\":35001:35008  _rTotal */\n      0x0a\n        /* \"EAGLEAI/EagleAI.sol\":35001:35033  _rTotal = _rTotal - rFee - rBurn */\n      sstore\n        /* \"EAGLEAI/EagleAI.sol\":35057:35067  _tFeeTotal */\n      sload(0x0b)\n        /* \"EAGLEAI/EagleAI.sol\":35057:35074  _tFeeTotal + tFee */\n      tag_765\n      swap1\n        /* \"EAGLEAI/EagleAI.sol\":35070:35074  tFee */\n      dup6\n      swap1\n        /* \"EAGLEAI/EagleAI.sol\":35057:35074  _tFeeTotal + tFee */\n      tag_340\n      jump\t// in\n    tag_765:\n        /* \"EAGLEAI/EagleAI.sol\":35044:35054  _tFeeTotal */\n      0x0b\n        /* \"EAGLEAI/EagleAI.sol\":35044:35074  _tFeeTotal = _tFeeTotal + tFee */\n      sstore\n        /* \"EAGLEAI/EagleAI.sol\":35097:35104  _tTotal */\n      sload(0x09)\n        /* \"EAGLEAI/EagleAI.sol\":35097:35112  _tTotal - tBurn */\n      tag_766\n      swap1\n        /* \"EAGLEAI/EagleAI.sol\":35107:35112  tBurn */\n      dup5\n      swap1\n        /* \"EAGLEAI/EagleAI.sol\":35097:35112  _tTotal - tBurn */\n      tag_287\n      jump\t// in\n    tag_766:\n        /* \"EAGLEAI/EagleAI.sol\":35087:35094  _tTotal */\n      0x09\n        /* \"EAGLEAI/EagleAI.sol\":35087:35112  _tTotal = _tTotal - tBurn */\n      sstore\n        /* \"EAGLEAI/EagleAI.sol\":35128:35146  ReflectedFee(tFee) */\n      mload(0x40)\n        /* \"#utility.yul\":1361:1386   */\n      dup5\n      dup2\n      mstore\n        /* \"EAGLEAI/EagleAI.sol\":35128:35146  ReflectedFee(tFee) */\n      0x56b5df500587465b57d8ce799cc562a294f136b75a13718c574d9d36bd828058\n      swap1\n        /* \"#utility.yul\":1349:1351   */\n      0x20\n        /* \"#utility.yul\":1334:1352   */\n      add\n        /* \"EAGLEAI/EagleAI.sol\":35128:35146  ReflectedFee(tFee) */\n      mload(0x40)\n      dup1\n      swap2\n      sub\n      swap1\n      log1\n        /* \"EAGLEAI/EagleAI.sol\":34892:35164  {... */\n      pop\n      pop\n        /* \"EAGLEAI/EagleAI.sol\":34820:35164  function _reflectFee(uint256 rFee, uint256 tFee, uint256 tBurn) private {... */\n      pop\n      pop\n      pop\n      jump\t// out\n        /* \"EAGLEAI/EagleAI.sol\":35801:36194  function _takeCoinFund(uint256 tCoinOperation) private {... */\n    tag_679:\n        /* \"EAGLEAI/EagleAI.sol\":35870:35889  uint256 currentRate */\n      0x00\n        /* \"EAGLEAI/EagleAI.sol\":35893:35903  _getRate() */\n      tag_769\n        /* \"EAGLEAI/EagleAI.sol\":35893:35901  _getRate */\n      tag_303\n        /* \"EAGLEAI/EagleAI.sol\":35893:35903  _getRate() */\n      jump\t// in\n    tag_769:\n        /* \"EAGLEAI/EagleAI.sol\":35870:35903  uint256 currentRate =  _getRate() */\n      swap1\n      pop\n        /* \"EAGLEAI/EagleAI.sol\":35914:35936  uint256 rCoinOperation */\n      0x00\n        /* \"EAGLEAI/EagleAI.sol\":35939:35967  tCoinOperation * currentRate */\n      tag_770\n        /* \"EAGLEAI/EagleAI.sol\":35870:35903  uint256 currentRate =  _getRate() */\n      dup3\n        /* \"EAGLEAI/EagleAI.sol\":35939:35953  tCoinOperation */\n      dup5\n        /* \"EAGLEAI/EagleAI.sol\":35939:35967  tCoinOperation * currentRate */\n      tag_657\n      jump\t// in\n    tag_770:\n        /* \"EAGLEAI/EagleAI.sol\":36008:36018  fundWallet */\n      and(sub(shl(0xa0, 0x01), 0x01), sload(0x1a))\n        /* \"EAGLEAI/EagleAI.sol\":36000:36019  _rOwned[fundWallet] */\n      0x00\n      swap1\n      dup2\n      mstore\n        /* \"EAGLEAI/EagleAI.sol\":36000:36007  _rOwned */\n      0x02\n        /* \"EAGLEAI/EagleAI.sol\":36000:36019  _rOwned[fundWallet] */\n      0x20\n      mstore\n      0x40\n      swap1\n      keccak256\n      sload\n        /* \"EAGLEAI/EagleAI.sol\":35914:35967  uint256 rCoinOperation = tCoinOperation * currentRate */\n      swap1\n      swap2\n      pop\n        /* \"EAGLEAI/EagleAI.sol\":36000:36036  _rOwned[fundWallet] + rCoinOperation */\n      tag_771\n      swap1\n        /* \"EAGLEAI/EagleAI.sol\":35914:35967  uint256 rCoinOperation = tCoinOperation * currentRate */\n      dup3\n      swap1\n        /* \"EAGLEAI/EagleAI.sol\":36000:36036  _rOwned[fundWallet] + rCoinOperation */\n      tag_340\n      jump\t// in\n    tag_771:\n        /* \"EAGLEAI/EagleAI.sol\":35986:35996  fundWallet */\n      0x1a\n      dup1\n      sload\n      sub(shl(0xa0, 0x01), 0x01)\n      swap1\n      dup2\n      and\n        /* \"EAGLEAI/EagleAI.sol\":35978:35997  _rOwned[fundWallet] */\n      0x00\n      swap1\n      dup2\n      mstore\n        /* \"EAGLEAI/EagleAI.sol\":35978:35985  _rOwned */\n      0x02\n        /* \"EAGLEAI/EagleAI.sol\":35978:35997  _rOwned[fundWallet] */\n      0x20\n      swap1\n      dup2\n      mstore\n      0x40\n      dup1\n      dup4\n      keccak256\n        /* \"EAGLEAI/EagleAI.sol\":35978:36036  _rOwned[fundWallet] = _rOwned[fundWallet] + rCoinOperation */\n      swap6\n      swap1\n      swap6\n      sstore\n        /* \"EAGLEAI/EagleAI.sol\":36062:36072  fundWallet */\n      swap3\n      sload\n      swap1\n      swap2\n      and\n        /* \"EAGLEAI/EagleAI.sol\":36050:36073  _isExcluded[fundWallet] */\n      dup2\n      mstore\n        /* \"EAGLEAI/EagleAI.sol\":36050:36061  _isExcluded */\n      0x07\n        /* \"EAGLEAI/EagleAI.sol\":36050:36073  _isExcluded[fundWallet] */\n      swap1\n      swap2\n      mstore\n      keccak256\n      sload\n      0xff\n      and\n        /* \"EAGLEAI/EagleAI.sol\":36047:36146  if(_isExcluded[fundWallet])... */\n      iszero\n      tag_772\n      jumpi\n        /* \"EAGLEAI/EagleAI.sol\":36118:36128  fundWallet */\n      and(sub(shl(0xa0, 0x01), 0x01), sload(0x1a))\n        /* \"EAGLEAI/EagleAI.sol\":36110:36129  _tOwned[fundWallet] */\n      0x00\n      swap1\n      dup2\n      mstore\n        /* \"EAGLEAI/EagleAI.sol\":36110:36117  _tOwned */\n      0x03\n        /* \"EAGLEAI/EagleAI.sol\":36110:36129  _tOwned[fundWallet] */\n      0x20\n      mstore\n      0x40\n      swap1\n      keccak256\n      sload\n        /* \"EAGLEAI/EagleAI.sol\":36110:36146  _tOwned[fundWallet] + tCoinOperation */\n      tag_773\n      swap1\n        /* \"EAGLEAI/EagleAI.sol\":36132:36146  tCoinOperation */\n      dup5\n      swap1\n        /* \"EAGLEAI/EagleAI.sol\":36110:36146  _tOwned[fundWallet] + tCoinOperation */\n      tag_340\n      jump\t// in\n    tag_773:\n        /* \"EAGLEAI/EagleAI.sol\":36096:36106  fundWallet */\n      and(sub(shl(0xa0, 0x01), 0x01), sload(0x1a))\n        /* \"EAGLEAI/EagleAI.sol\":36088:36107  _tOwned[fundWallet] */\n      0x00\n      swap1\n      dup2\n      mstore\n        /* \"EAGLEAI/EagleAI.sol\":36088:36095  _tOwned */\n      0x03\n        /* \"EAGLEAI/EagleAI.sol\":36088:36107  _tOwned[fundWallet] */\n      0x20\n      mstore\n      0x40\n      swap1\n      keccak256\n        /* \"EAGLEAI/EagleAI.sol\":36088:36146  _tOwned[fundWallet] = _tOwned[fundWallet] + tCoinOperation */\n      sstore\n        /* \"EAGLEAI/EagleAI.sol\":36047:36146  if(_isExcluded[fundWallet])... */\n    tag_772:\n        /* \"EAGLEAI/EagleAI.sol\":36162:36186  CoinFund(tCoinOperation) */\n      mload(0x40)\n        /* \"#utility.yul\":1361:1386   */\n      dup4\n      dup2\n      mstore\n        /* \"EAGLEAI/EagleAI.sol\":36162:36186  CoinFund(tCoinOperation) */\n      0x7a934c407238277f8cf36df7a2f4b5ef2eb3aa6190eeb615e32c02075a5730b0\n      swap1\n        /* \"#utility.yul\":1349:1351   */\n      0x20\n        /* \"#utility.yul\":1334:1352   */\n      add\n        /* \"EAGLEAI/EagleAI.sol\":36162:36186  CoinFund(tCoinOperation) */\n      tag_759\n        /* \"#utility.yul\":1215:1392   */\n      jump\n        /* \"#utility.yul\":14:562   */\n    tag_63:\n        /* \"#utility.yul\":126:130   */\n      0x00\n        /* \"#utility.yul\":155:157   */\n      0x20\n        /* \"#utility.yul\":184:186   */\n      dup1\n        /* \"#utility.yul\":173:182   */\n      dup4\n        /* \"#utility.yul\":166:187   */\n      mstore\n        /* \"#utility.yul\":216:222   */\n      dup4\n        /* \"#utility.yul\":210:223   */\n      mload\n        /* \"#utility.yul\":259:265   */\n      dup1\n        /* \"#utility.yul\":254:256   */\n      0x20\n        /* \"#utility.yul\":243:252   */\n      dup6\n        /* \"#utility.yul\":239:257   */\n      add\n        /* \"#utility.yul\":232:266   */\n      mstore\n        /* \"#utility.yul\":284:285   */\n      0x00\n        /* \"#utility.yul\":294:434   */\n    tag_781:\n        /* \"#utility.yul\":308:314   */\n      dup2\n        /* \"#utility.yul\":305:306   */\n      dup2\n        /* \"#utility.yul\":302:315   */\n      lt\n        /* \"#utility.yul\":294:434   */\n      iszero\n      tag_783\n      jumpi\n        /* \"#utility.yul\":403:417   */\n      dup6\n      dup2\n      add\n        /* \"#utility.yul\":399:422   */\n      dup4\n      add\n        /* \"#utility.yul\":393:423   */\n      mload\n        /* \"#utility.yul\":369:386   */\n      dup6\n      dup3\n      add\n        /* \"#utility.yul\":388:390   */\n      0x40\n        /* \"#utility.yul\":365:391   */\n      add\n        /* \"#utility.yul\":358:424   */\n      mstore\n        /* \"#utility.yul\":323:333   */\n      dup3\n      add\n        /* \"#utility.yul\":294:434   */\n      jump(tag_781)\n    tag_783:\n        /* \"#utility.yul\":298:301   */\n      pop\n        /* \"#utility.yul\":483:484   */\n      0x00\n        /* \"#utility.yul\":478:480   */\n      0x40\n        /* \"#utility.yul\":469:475   */\n      dup3\n        /* \"#utility.yul\":458:467   */\n      dup7\n        /* \"#utility.yul\":454:476   */\n      add\n        /* \"#utility.yul\":450:481   */\n      add\n        /* \"#utility.yul\":443:485   */\n      mstore\n        /* \"#utility.yul\":553:555   */\n      0x40\n        /* \"#utility.yul\":546:548   */\n      0x1f\n        /* \"#utility.yul\":542:549   */\n      not\n        /* \"#utility.yul\":537:539   */\n      0x1f\n        /* \"#utility.yul\":529:535   */\n      dup4\n        /* \"#utility.yul\":525:540   */\n      add\n        /* \"#utility.yul\":521:550   */\n      and\n        /* \"#utility.yul\":510:519   */\n      dup6\n        /* \"#utility.yul\":506:551   */\n      add\n        /* \"#utility.yul\":502:556   */\n      add\n        /* \"#utility.yul\":494:556   */\n      swap3\n      pop\n      pop\n      pop\n        /* \"#utility.yul\":14:562   */\n      swap3\n      swap2\n      pop\n      pop\n      jump\t// out\n        /* \"#utility.yul\":567:698   */\n    tag_775:\n      sub(shl(0xa0, 0x01), 0x01)\n        /* \"#utility.yul\":642:673   */\n      dup2\n      and\n        /* \"#utility.yul\":632:674   */\n      dup2\n      eq\n        /* \"#utility.yul\":622:692   */\n      tag_785\n      jumpi\n        /* \"#utility.yul\":688:689   */\n      0x00\n        /* \"#utility.yul\":685:686   */\n      dup1\n        /* \"#utility.yul\":678:690   */\n      revert\n        /* \"#utility.yul\":622:692   */\n    tag_785:\n        /* \"#utility.yul\":567:698   */\n      pop\n      jump\t// out\n        /* \"#utility.yul\":703:1018   */\n    tag_67:\n        /* \"#utility.yul\":771:777   */\n      0x00\n        /* \"#utility.yul\":779:785   */\n      dup1\n        /* \"#utility.yul\":832:834   */\n      0x40\n        /* \"#utility.yul\":820:829   */\n      dup4\n        /* \"#utility.yul\":811:818   */\n      dup6\n        /* \"#utility.yul\":807:830   */\n      sub\n        /* \"#utility.yul\":803:835   */\n      slt\n        /* \"#utility.yul\":800:852   */\n      iszero\n      tag_787\n      jumpi\n        /* \"#utility.yul\":848:849   */\n      0x00\n        /* \"#utility.yul\":845:846   */\n      dup1\n        /* \"#utility.yul\":838:850   */\n      revert\n        /* \"#utility.yul\":800:852   */\n    tag_787:\n        /* \"#utility.yul\":887:896   */\n      dup3\n        /* \"#utility.yul\":874:897   */\n      calldataload\n        /* \"#utility.yul\":906:937   */\n      tag_788\n        /* \"#utility.yul\":931:936   */\n      dup2\n        /* \"#utility.yul\":906:937   */\n      tag_775\n      jump\t// in\n    tag_788:\n        /* \"#utility.yul\":956:961   */\n      swap5\n        /* \"#utility.yul\":1008:1010   */\n      0x20\n        /* \"#utility.yul\":993:1011   */\n      swap4\n      swap1\n      swap4\n      add\n        /* \"#utility.yul\":980:1012   */\n      calldataload\n      swap4\n      pop\n      pop\n      pop\n        /* \"#utility.yul\":703:1018   */\n      jump\t// out\n        /* \"#utility.yul\":1631:2087   */\n    tag_88:\n        /* \"#utility.yul\":1708:1714   */\n      0x00\n        /* \"#utility.yul\":1716:1722   */\n      dup1\n        /* \"#utility.yul\":1724:1730   */\n      0x00\n        /* \"#utility.yul\":1777:1779   */\n      0x60\n        /* \"#utility.yul\":1765:1774   */\n      dup5\n        /* \"#utility.yul\":1756:1763   */\n      dup7\n        /* \"#utility.yul\":1752:1775   */\n      sub\n        /* \"#utility.yul\":1748:1780   */\n      slt\n        /* \"#utility.yul\":1745:1797   */\n      iszero\n      tag_793\n      jumpi\n        /* \"#utility.yul\":1793:1794   */\n      0x00\n        /* \"#utility.yul\":1790:1791   */\n      dup1\n        /* \"#utility.yul\":1783:1795   */\n      revert\n        /* \"#utility.yul\":1745:1797   */\n    tag_793:\n        /* \"#utility.yul\":1832:1841   */\n      dup4\n        /* \"#utility.yul\":1819:1842   */\n      calldataload\n        /* \"#utility.yul\":1851:1882   */\n      tag_794\n        /* \"#utility.yul\":1876:1881   */\n      dup2\n        /* \"#utility.yul\":1851:1882   */\n      tag_775\n      jump\t// in\n    tag_794:\n        /* \"#utility.yul\":1901:1906   */\n      swap3\n      pop\n        /* \"#utility.yul\":1958:1960   */\n      0x20\n        /* \"#utility.yul\":1943:1961   */\n      dup5\n      add\n        /* \"#utility.yul\":1930:1962   */\n      calldataload\n        /* \"#utility.yul\":1971:2004   */\n      tag_795\n        /* \"#utility.yul\":1930:1962   */\n      dup2\n        /* \"#utility.yul\":1971:2004   */\n      tag_775\n      jump\t// in\n    tag_795:\n        /* \"#utility.yul\":1631:2087   */\n      swap3\n      swap6\n        /* \"#utility.yul\":2023:2030   */\n      swap3\n      swap5\n      pop\n      pop\n      pop\n        /* \"#utility.yul\":2077:2079   */\n      0x40\n        /* \"#utility.yul\":2062:2080   */\n      swap2\n      swap1\n      swap2\n      add\n        /* \"#utility.yul\":2049:2081   */\n      calldataload\n      swap1\n        /* \"#utility.yul\":1631:2087   */\n      jump\t// out\n        /* \"#utility.yul\":2092:2272   */\n    tag_105:\n        /* \"#utility.yul\":2151:2157   */\n      0x00\n        /* \"#utility.yul\":2204:2206   */\n      0x20\n        /* \"#utility.yul\":2192:2201   */\n      dup3\n        /* \"#utility.yul\":2183:2190   */\n      dup5\n        /* \"#utility.yul\":2179:2202   */\n      sub\n        /* \"#utility.yul\":2175:2207   */\n      slt\n        /* \"#utility.yul\":2172:2224   */\n      iszero\n      tag_797\n      jumpi\n        /* \"#utility.yul\":2220:2221   */\n      0x00\n        /* \"#utility.yul\":2217:2218   */\n      dup1\n        /* \"#utility.yul\":2210:2222   */\n      revert\n        /* \"#utility.yul\":2172:2224   */\n    tag_797:\n      pop\n        /* \"#utility.yul\":2243:2266   */\n      calldataload\n      swap2\n        /* \"#utility.yul\":2092:2272   */\n      swap1\n      pop\n      jump\t// out\n        /* \"#utility.yul\":2466:2713   */\n    tag_116:\n        /* \"#utility.yul\":2525:2531   */\n      0x00\n        /* \"#utility.yul\":2578:2580   */\n      0x20\n        /* \"#utility.yul\":2566:2575   */\n      dup3\n        /* \"#utility.yul\":2557:2564   */\n      dup5\n        /* \"#utility.yul\":2553:2576   */\n      sub\n        /* \"#utility.yul\":2549:2581   */\n      slt\n        /* \"#utility.yul\":2546:2598   */\n      iszero\n      tag_800\n      jumpi\n        /* \"#utility.yul\":2594:2595   */\n      0x00\n        /* \"#utility.yul\":2591:2592   */\n      dup1\n        /* \"#utility.yul\":2584:2596   */\n      revert\n        /* \"#utility.yul\":2546:2598   */\n    tag_800:\n        /* \"#utility.yul\":2633:2642   */\n      dup2\n        /* \"#utility.yul\":2620:2643   */\n      calldataload\n        /* \"#utility.yul\":2652:2683   */\n      tag_304\n        /* \"#utility.yul\":2677:2682   */\n      dup2\n        /* \"#utility.yul\":2652:2683   */\n      tag_775\n      jump\t// in\n        /* \"#utility.yul\":2718:2878   */\n    tag_776:\n        /* \"#utility.yul\":2783:2803   */\n      dup1\n      calldataload\n        /* \"#utility.yul\":2839:2852   */\n      dup1\n      iszero\n        /* \"#utility.yul\":2832:2853   */\n      iszero\n        /* \"#utility.yul\":2822:2854   */\n      dup2\n      eq\n        /* \"#utility.yul\":2812:2872   */\n      tag_803\n      jumpi\n        /* \"#utility.yul\":2868:2869   */\n      0x00\n        /* \"#utility.yul\":2865:2866   */\n      dup1\n        /* \"#utility.yul\":2858:2870   */\n      revert\n        /* \"#utility.yul\":2812:2872   */\n    tag_803:\n        /* \"#utility.yul\":2718:2878   */\n      swap2\n      swap1\n      pop\n      jump\t// out\n        /* \"#utility.yul\":2883:3131   */\n    tag_134:\n        /* \"#utility.yul\":2948:2954   */\n      0x00\n        /* \"#utility.yul\":2956:2962   */\n      dup1\n        /* \"#utility.yul\":3009:3011   */\n      0x40\n        /* \"#utility.yul\":2997:3006   */\n      dup4\n        /* \"#utility.yul\":2988:2995   */\n      dup6\n        /* \"#utility.yul\":2984:3007   */\n      sub\n        /* \"#utility.yul\":2980:3012   */\n      slt\n        /* \"#utility.yul\":2977:3029   */\n      iszero\n      tag_805\n      jumpi\n        /* \"#utility.yul\":3025:3026   */\n      0x00\n        /* \"#utility.yul\":3022:3023   */\n      dup1\n        /* \"#utility.yul\":3015:3027   */\n      revert\n        /* \"#utility.yul\":2977:3029   */\n    tag_805:\n        /* \"#utility.yul\":3061:3070   */\n      dup3\n        /* \"#utility.yul\":3048:3071   */\n      calldataload\n        /* \"#utility.yul\":3038:3071   */\n      swap2\n      pop\n        /* \"#utility.yul\":3090:3125   */\n      tag_806\n        /* \"#utility.yul\":3121:3123   */\n      0x20\n        /* \"#utility.yul\":3110:3119   */\n      dup5\n        /* \"#utility.yul\":3106:3124   */\n      add\n        /* \"#utility.yul\":3090:3125   */\n      tag_776\n      jump\t// in\n    tag_806:\n        /* \"#utility.yul\":3080:3125   */\n      swap1\n      pop\n        /* \"#utility.yul\":2883:3131   */\n      swap3\n      pop\n      swap3\n      swap1\n      pop\n      jump\t// out\n        /* \"#utility.yul\":3344:3711   */\n    tag_777:\n        /* \"#utility.yul\":3407:3415   */\n      0x00\n        /* \"#utility.yul\":3417:3423   */\n      dup1\n        /* \"#utility.yul\":3471:3474   */\n      dup4\n        /* \"#utility.yul\":3464:3468   */\n      0x1f\n        /* \"#utility.yul\":3456:3462   */\n      dup5\n        /* \"#utility.yul\":3452:3469   */\n      add\n        /* \"#utility.yul\":3448:3475   */\n      slt\n        /* \"#utility.yul\":3438:3493   */\n      tag_809\n      jumpi\n        /* \"#utility.yul\":3489:3490   */\n      0x00\n        /* \"#utility.yul\":3486:3487   */\n      dup1\n        /* \"#utility.yul\":3479:3491   */\n      revert\n        /* \"#utility.yul\":3438:3493   */\n    tag_809:\n      pop\n        /* \"#utility.yul\":3512:3532   */\n      dup2\n      calldataload\n        /* \"#utility.yul\":3555:3573   */\n      0xffffffffffffffff\n        /* \"#utility.yul\":3544:3574   */\n      dup2\n      gt\n        /* \"#utility.yul\":3541:3591   */\n      iszero\n      tag_810\n      jumpi\n        /* \"#utility.yul\":3587:3588   */\n      0x00\n        /* \"#utility.yul\":3584:3585   */\n      dup1\n        /* \"#utility.yul\":3577:3589   */\n      revert\n        /* \"#utility.yul\":3541:3591   */\n    tag_810:\n        /* \"#utility.yul\":3624:3628   */\n      0x20\n        /* \"#utility.yul\":3616:3622   */\n      dup4\n        /* \"#utility.yul\":3612:3629   */\n      add\n        /* \"#utility.yul\":3600:3629   */\n      swap2\n      pop\n        /* \"#utility.yul\":3684:3687   */\n      dup4\n        /* \"#utility.yul\":3677:3681   */\n      0x20\n        /* \"#utility.yul\":3667:3673   */\n      dup3\n        /* \"#utility.yul\":3664:3665   */\n      0x05\n        /* \"#utility.yul\":3660:3674   */\n      shl\n        /* \"#utility.yul\":3652:3658   */\n      dup6\n        /* \"#utility.yul\":3648:3675   */\n      add\n        /* \"#utility.yul\":3644:3682   */\n      add\n        /* \"#utility.yul\":3641:3688   */\n      gt\n        /* \"#utility.yul\":3638:3705   */\n      iszero\n      tag_811\n      jumpi\n        /* \"#utility.yul\":3701:3702   */\n      0x00\n        /* \"#utility.yul\":3698:3699   */\n      dup1\n        /* \"#utility.yul\":3691:3703   */\n      revert\n        /* \"#utility.yul\":3638:3705   */\n    tag_811:\n        /* \"#utility.yul\":3344:3711   */\n      swap3\n      pop\n      swap3\n      swap1\n      pop\n      jump\t// out\n        /* \"#utility.yul\":3716:4489   */\n    tag_174:\n        /* \"#utility.yul\":3838:3844   */\n      0x00\n        /* \"#utility.yul\":3846:3852   */\n      dup1\n        /* \"#utility.yul\":3854:3860   */\n      0x00\n        /* \"#utility.yul\":3862:3868   */\n      dup1\n        /* \"#utility.yul\":3915:3917   */\n      0x40\n        /* \"#utility.yul\":3903:3912   */\n      dup6\n        /* \"#utility.yul\":3894:3901   */\n      dup8\n        /* \"#utility.yul\":3890:3913   */\n      sub\n        /* \"#utility.yul\":3886:3918   */\n      slt\n        /* \"#utility.yul\":3883:3935   */\n      iszero\n      tag_813\n      jumpi\n        /* \"#utility.yul\":3931:3932   */\n      0x00\n        /* \"#utility.yul\":3928:3929   */\n      dup1\n        /* \"#utility.yul\":3921:3933   */\n      revert\n        /* \"#utility.yul\":3883:3935   */\n    tag_813:\n        /* \"#utility.yul\":3971:3980   */\n      dup5\n        /* \"#utility.yul\":3958:3981   */\n      calldataload\n        /* \"#utility.yul\":4000:4018   */\n      0xffffffffffffffff\n        /* \"#utility.yul\":4041:4043   */\n      dup1\n        /* \"#utility.yul\":4033:4039   */\n      dup3\n        /* \"#utility.yul\":4030:4044   */\n      gt\n        /* \"#utility.yul\":4027:4061   */\n      iszero\n      tag_814\n      jumpi\n        /* \"#utility.yul\":4057:4058   */\n      0x00\n        /* \"#utility.yul\":4054:4055   */\n      dup1\n        /* \"#utility.yul\":4047:4059   */\n      revert\n        /* \"#utility.yul\":4027:4061   */\n    tag_814:\n        /* \"#utility.yul\":4096:4166   */\n      tag_815\n        /* \"#utility.yul\":4158:4165   */\n      dup9\n        /* \"#utility.yul\":4149:4155   */\n      dup4\n        /* \"#utility.yul\":4138:4147   */\n      dup10\n        /* \"#utility.yul\":4134:4156   */\n      add\n        /* \"#utility.yul\":4096:4166   */\n      tag_777\n      jump\t// in\n    tag_815:\n        /* \"#utility.yul\":4185:4193   */\n      swap1\n      swap7\n      pop\n        /* \"#utility.yul\":4070:4166   */\n      swap5\n      pop\n        /* \"#utility.yul\":4273:4275   */\n      0x20\n        /* \"#utility.yul\":4258:4276   */\n      dup8\n      add\n        /* \"#utility.yul\":4245:4277   */\n      calldataload\n      swap2\n      pop\n        /* \"#utility.yul\":4289:4305   */\n      dup1\n      dup3\n      gt\n        /* \"#utility.yul\":4286:4322   */\n      iszero\n      tag_816\n      jumpi\n        /* \"#utility.yul\":4318:4319   */\n      0x00\n        /* \"#utility.yul\":4315:4316   */\n      dup1\n        /* \"#utility.yul\":4308:4320   */\n      revert\n        /* \"#utility.yul\":4286:4322   */\n    tag_816:\n      pop\n        /* \"#utility.yul\":4357:4429   */\n      tag_817\n        /* \"#utility.yul\":4421:4428   */\n      dup8\n        /* \"#utility.yul\":4410:4418   */\n      dup3\n        /* \"#utility.yul\":4399:4408   */\n      dup9\n        /* \"#utility.yul\":4395:4419   */\n      add\n        /* \"#utility.yul\":4357:4429   */\n      tag_777\n      jump\t// in\n    tag_817:\n        /* \"#utility.yul\":3716:4489   */\n      swap6\n      swap9\n      swap5\n      swap8\n      pop\n        /* \"#utility.yul\":4448:4456   */\n      swap6\n      pop\n      pop\n      pop\n      pop\n        /* \"#utility.yul\":3716:4489   */\n      jump\t// out\n        /* \"#utility.yul\":4494:4879   */\n    tag_214:\n        /* \"#utility.yul\":4580:4586   */\n      0x00\n        /* \"#utility.yul\":4588:4594   */\n      dup1\n        /* \"#utility.yul\":4596:4602   */\n      0x00\n        /* \"#utility.yul\":4604:4610   */\n      dup1\n        /* \"#utility.yul\":4657:4660   */\n      0x80\n        /* \"#utility.yul\":4645:4654   */\n      dup6\n        /* \"#utility.yul\":4636:4643   */\n      dup8\n        /* \"#utility.yul\":4632:4655   */\n      sub\n        /* \"#utility.yul\":4628:4661   */\n      slt\n        /* \"#utility.yul\":4625:4678   */\n      iszero\n      tag_819\n      jumpi\n        /* \"#utility.yul\":4674:4675   */\n      0x00\n        /* \"#utility.yul\":4671:4672   */\n      dup1\n        /* \"#utility.yul\":4664:4676   */\n      revert\n        /* \"#utility.yul\":4625:4678   */\n    tag_819:\n      pop\n      pop\n        /* \"#utility.yul\":4697:4720   */\n      dup3\n      calldataload\n      swap5\n        /* \"#utility.yul\":4767:4769   */\n      0x20\n        /* \"#utility.yul\":4752:4770   */\n      dup5\n      add\n        /* \"#utility.yul\":4739:4771   */\n      calldataload\n      swap5\n      pop\n        /* \"#utility.yul\":4818:4820   */\n      0x40\n        /* \"#utility.yul\":4803:4821   */\n      dup5\n      add\n        /* \"#utility.yul\":4790:4822   */\n      calldataload\n      swap4\n        /* \"#utility.yul\":4869:4871   */\n      0x60\n        /* \"#utility.yul\":4854:4872   */\n      add\n        /* \"#utility.yul\":4841:4873   */\n      calldataload\n      swap3\n      pop\n        /* \"#utility.yul\":4494:4879   */\n      swap1\n      pop\n      jump\t// out\n        /* \"#utility.yul\":4884:5064   */\n    tag_223:\n        /* \"#utility.yul\":4940:4946   */\n      0x00\n        /* \"#utility.yul\":4993:4995   */\n      0x20\n        /* \"#utility.yul\":4981:4990   */\n      dup3\n        /* \"#utility.yul\":4972:4979   */\n      dup5\n        /* \"#utility.yul\":4968:4991   */\n      sub\n        /* \"#utility.yul\":4964:4996   */\n      slt\n        /* \"#utility.yul\":4961:5013   */\n      iszero\n      tag_821\n      jumpi\n        /* \"#utility.yul\":5009:5010   */\n      0x00\n        /* \"#utility.yul\":5006:5007   */\n      dup1\n        /* \"#utility.yul\":4999:5011   */\n      revert\n        /* \"#utility.yul\":4961:5013   */\n    tag_821:\n        /* \"#utility.yul\":5032:5058   */\n      tag_304\n        /* \"#utility.yul\":5048:5057   */\n      dup3\n        /* \"#utility.yul\":5032:5058   */\n      tag_776\n      jump\t// in\n        /* \"#utility.yul\":5069:5457   */\n    tag_241:\n        /* \"#utility.yul\":5137:5143   */\n      0x00\n        /* \"#utility.yul\":5145:5151   */\n      dup1\n        /* \"#utility.yul\":5198:5200   */\n      0x40\n        /* \"#utility.yul\":5186:5195   */\n      dup4\n        /* \"#utility.yul\":5177:5184   */\n      dup6\n        /* \"#utility.yul\":5173:5196   */\n      sub\n        /* \"#utility.yul\":5169:5201   */\n      slt\n        /* \"#utility.yul\":5166:5218   */\n      iszero\n      tag_824\n      jumpi\n        /* \"#utility.yul\":5214:5215   */\n      0x00\n        /* \"#utility.yul\":5211:5212   */\n      dup1\n        /* \"#utility.yul\":5204:5216   */\n      revert\n        /* \"#utility.yul\":5166:5218   */\n    tag_824:\n        /* \"#utility.yul\":5253:5262   */\n      dup3\n        /* \"#utility.yul\":5240:5263   */\n      calldataload\n        /* \"#utility.yul\":5272:5303   */\n      tag_825\n        /* \"#utility.yul\":5297:5302   */\n      dup2\n        /* \"#utility.yul\":5272:5303   */\n      tag_775\n      jump\t// in\n    tag_825:\n        /* \"#utility.yul\":5322:5327   */\n      swap2\n      pop\n        /* \"#utility.yul\":5379:5381   */\n      0x20\n        /* \"#utility.yul\":5364:5382   */\n      dup4\n      add\n        /* \"#utility.yul\":5351:5383   */\n      calldataload\n        /* \"#utility.yul\":5392:5425   */\n      tag_826\n        /* \"#utility.yul\":5351:5383   */\n      dup2\n        /* \"#utility.yul\":5392:5425   */\n      tag_775\n      jump\t// in\n    tag_826:\n        /* \"#utility.yul\":5444:5451   */\n      dup1\n        /* \"#utility.yul\":5434:5451   */\n      swap2\n      pop\n      pop\n        /* \"#utility.yul\":5069:5457   */\n      swap3\n      pop\n      swap3\n      swap1\n      pop\n      jump\t// out\n        /* \"#utility.yul\":5462:5589   */\n    tag_778:\n        /* \"#utility.yul\":5523:5533   */\n      0x4e487b71\n        /* \"#utility.yul\":5518:5521   */\n      0xe0\n        /* \"#utility.yul\":5514:5534   */\n      shl\n        /* \"#utility.yul\":5511:5512   */\n      0x00\n        /* \"#utility.yul\":5504:5535   */\n      mstore\n        /* \"#utility.yul\":5554:5558   */\n      0x11\n        /* \"#utility.yul\":5551:5552   */\n      0x04\n        /* \"#utility.yul\":5544:5559   */\n      mstore\n        /* \"#utility.yul\":5578:5582   */\n      0x24\n        /* \"#utility.yul\":5575:5576   */\n      0x00\n        /* \"#utility.yul\":5568:5583   */\n      revert\n        /* \"#utility.yul\":5594:5722   */\n    tag_287:\n        /* \"#utility.yul\":5661:5670   */\n      dup2\n      dup2\n      sub\n        /* \"#utility.yul\":5682:5693   */\n      dup2\n      dup2\n      gt\n        /* \"#utility.yul\":5679:5716   */\n      iszero\n      tag_273\n      jumpi\n        /* \"#utility.yul\":5696:5714   */\n      tag_273\n      tag_778\n      jump\t// in\n        /* \"#utility.yul\":5727:6083   */\n    tag_292:\n        /* \"#utility.yul\":5929:5931   */\n      0x20\n        /* \"#utility.yul\":5911:5932   */\n      dup1\n      dup3\n      mstore\n        /* \"#utility.yul\":5948:5966   */\n      dup2\n      dup2\n      add\n        /* \"#utility.yul\":5941:5971   */\n      mstore\n        /* \"#utility.yul\":6007:6041   */\n      0x4f776e61626c653a2063616c6c6572206973206e6f7420746865206f776e6572\n        /* \"#utility.yul\":6002:6004   */\n      0x40\n        /* \"#utility.yul\":5987:6005   */\n      dup3\n      add\n        /* \"#utility.yul\":5980:6042   */\n      mstore\n        /* \"#utility.yul\":6074:6076   */\n      0x60\n        /* \"#utility.yul\":6059:6077   */\n      add\n      swap1\n        /* \"#utility.yul\":5727:6083   */\n      jump\t// out\n        /* \"#utility.yul\":6851:7068   */\n    tag_305:\n        /* \"#utility.yul\":6891:6892   */\n      0x00\n        /* \"#utility.yul\":6917:6918   */\n      dup3\n        /* \"#utility.yul\":6907:7039   */\n      tag_835\n      jumpi\n        /* \"#utility.yul\":6961:6971   */\n      0x4e487b71\n        /* \"#utility.yul\":6956:6959   */\n      0xe0\n        /* \"#utility.yul\":6952:6972   */\n      shl\n        /* \"#utility.yul\":6949:6950   */\n      0x00\n        /* \"#utility.yul\":6942:6973   */\n      mstore\n        /* \"#utility.yul\":6996:7000   */\n      0x12\n        /* \"#utility.yul\":6993:6994   */\n      0x04\n        /* \"#utility.yul\":6986:7001   */\n      mstore\n        /* \"#utility.yul\":7024:7028   */\n      0x24\n        /* \"#utility.yul\":7021:7022   */\n      0x00\n        /* \"#utility.yul\":7014:7029   */\n      revert\n        /* \"#utility.yul\":6907:7039   */\n    tag_835:\n      pop\n        /* \"#utility.yul\":7053:7062   */\n      div\n      swap1\n        /* \"#utility.yul\":6851:7068   */\n      jump\t// out\n        /* \"#utility.yul\":7429:7556   */\n    tag_320:\n        /* \"#utility.yul\":7490:7500   */\n      0x4e487b71\n        /* \"#utility.yul\":7485:7488   */\n      0xe0\n        /* \"#utility.yul\":7481:7501   */\n      shl\n        /* \"#utility.yul\":7478:7479   */\n      0x00\n        /* \"#utility.yul\":7471:7502   */\n      mstore\n        /* \"#utility.yul\":7521:7525   */\n      0x32\n        /* \"#utility.yul\":7518:7519   */\n      0x04\n        /* \"#utility.yul\":7511:7526   */\n      mstore\n        /* \"#utility.yul\":7545:7549   */\n      0x24\n        /* \"#utility.yul\":7542:7543   */\n      0x00\n        /* \"#utility.yul\":7535:7550   */\n      revert\n        /* \"#utility.yul\":7561:7688   */\n    tag_332:\n        /* \"#utility.yul\":7622:7632   */\n      0x4e487b71\n        /* \"#utility.yul\":7617:7620   */\n      0xe0\n        /* \"#utility.yul\":7613:7633   */\n      shl\n        /* \"#utility.yul\":7610:7611   */\n      0x00\n        /* \"#utility.yul\":7603:7634   */\n      mstore\n        /* \"#utility.yul\":7653:7657   */\n      0x31\n        /* \"#utility.yul\":7650:7651   */\n      0x04\n        /* \"#utility.yul\":7643:7658   */\n      mstore\n        /* \"#utility.yul\":7677:7681   */\n      0x24\n        /* \"#utility.yul\":7674:7675   */\n      0x00\n        /* \"#utility.yul\":7667:7682   */\n      revert\n        /* \"#utility.yul\":7693:7818   */\n    tag_340:\n        /* \"#utility.yul\":7758:7767   */\n      dup1\n      dup3\n      add\n        /* \"#utility.yul\":7779:7789   */\n      dup1\n      dup3\n      gt\n        /* \"#utility.yul\":7776:7812   */\n      iszero\n      tag_273\n      jumpi\n        /* \"#utility.yul\":7792:7810   */\n      tag_273\n      tag_778\n      jump\t// in\n        /* \"#utility.yul\":10783:11190   */\n    tag_453:\n        /* \"#utility.yul\":10985:10987   */\n      0x20\n        /* \"#utility.yul\":10967:10988   */\n      dup1\n      dup3\n      mstore\n        /* \"#utility.yul\":11024:11026   */\n      0x2b\n        /* \"#utility.yul\":11004:11022   */\n      swap1\n      dup3\n      add\n        /* \"#utility.yul\":10997:11027   */\n      mstore\n        /* \"#utility.yul\":11063:11097   */\n      0x596f752063616e206e6f7420736574207265666c656374696f6e20746178206d\n        /* \"#utility.yul\":11058:11060   */\n      0x40\n        /* \"#utility.yul\":11043:11061   */\n      dup3\n      add\n        /* \"#utility.yul\":11036:11098   */\n      mstore\n      shl(0xa8, 0x6f7265207468656e203625)\n        /* \"#utility.yul\":11129:11131   */\n      0x60\n        /* \"#utility.yul\":11114:11132   */\n      dup3\n      add\n        /* \"#utility.yul\":11107:11148   */\n      mstore\n        /* \"#utility.yul\":11180:11183   */\n      0x80\n        /* \"#utility.yul\":11165:11184   */\n      add\n      swap1\n        /* \"#utility.yul\":10783:11190   */\n      jump\t// out\n        /* \"#utility.yul\":11195:11607   */\n    tag_456:\n        /* \"#utility.yul\":11397:11399   */\n      0x20\n        /* \"#utility.yul\":11379:11400   */\n      dup1\n      dup3\n      mstore\n        /* \"#utility.yul\":11436:11438   */\n      0x30\n        /* \"#utility.yul\":11416:11434   */\n      swap1\n      dup3\n      add\n        /* \"#utility.yul\":11409:11439   */\n      mstore\n        /* \"#utility.yul\":11475:11509   */\n      0x596f752063616e206e6f742073657420636f696e206f7065726174696f6e2020\n        /* \"#utility.yul\":11470:11472   */\n      0x40\n        /* \"#utility.yul\":11455:11473   */\n      dup3\n      add\n        /* \"#utility.yul\":11448:11510   */\n      mstore\n      shl(0x80, 0x746178206d6f7265207468656e203625)\n        /* \"#utility.yul\":11541:11543   */\n      0x60\n        /* \"#utility.yul\":11526:11544   */\n      dup3\n      add\n        /* \"#utility.yul\":11519:11565   */\n      mstore\n        /* \"#utility.yul\":11597:11600   */\n      0x80\n        /* \"#utility.yul\":11582:11601   */\n      add\n      swap1\n        /* \"#utility.yul\":11195:11607   */\n      jump\t// out\n        /* \"#utility.yul\":11612:12018   */\n    tag_459:\n        /* \"#utility.yul\":11814:11816   */\n      0x20\n        /* \"#utility.yul\":11796:11817   */\n      dup1\n      dup3\n      mstore\n        /* \"#utility.yul\":11853:11855   */\n      0x2a\n        /* \"#utility.yul\":11833:11851   */\n      swap1\n      dup3\n      add\n        /* \"#utility.yul\":11826:11856   */\n      mstore\n        /* \"#utility.yul\":11892:11926   */\n      0x596f752063616e206e6f7420736574206c697175696469747920746178206d6f\n        /* \"#utility.yul\":11887:11889   */\n      0x40\n        /* \"#utility.yul\":11872:11890   */\n      dup3\n      add\n        /* \"#utility.yul\":11865:11927   */\n      mstore\n      shl(0xb0, 0x7265207468656e203625)\n        /* \"#utility.yul\":11958:11960   */\n      0x60\n        /* \"#utility.yul\":11943:11961   */\n      dup3\n      add\n        /* \"#utility.yul\":11936:11976   */\n      mstore\n        /* \"#utility.yul\":12008:12011   */\n      0x80\n        /* \"#utility.yul\":11993:12012   */\n      add\n      swap1\n        /* \"#utility.yul\":11612:12018   */\n      jump\t// out\n        /* \"#utility.yul\":12023:12425   */\n    tag_462:\n        /* \"#utility.yul\":12225:12227   */\n      0x20\n        /* \"#utility.yul\":12207:12228   */\n      dup1\n      dup3\n      mstore\n        /* \"#utility.yul\":12264:12266   */\n      0x26\n        /* \"#utility.yul\":12244:12262   */\n      swap1\n      dup3\n      add\n        /* \"#utility.yul\":12237:12267   */\n      mstore\n        /* \"#utility.yul\":12303:12337   */\n      0x596f752063616e206e6f7420736574206275726e2020746178206d6f72652074\n        /* \"#utility.yul\":12298:12300   */\n      0x40\n        /* \"#utility.yul\":12283:12301   */\n      dup3\n      add\n        /* \"#utility.yul\":12276:12338   */\n      mstore\n      shl(0xd0, 0x68656e203625)\n        /* \"#utility.yul\":12369:12371   */\n      0x60\n        /* \"#utility.yul\":12354:12372   */\n      dup3\n      add\n        /* \"#utility.yul\":12347:12383   */\n      mstore\n        /* \"#utility.yul\":12415:12418   */\n      0x80\n        /* \"#utility.yul\":12400:12419   */\n      add\n      swap1\n        /* \"#utility.yul\":12023:12425   */\n      jump\t// out\n        /* \"#utility.yul\":17769:17937   */\n    tag_657:\n        /* \"#utility.yul\":17842:17851   */\n      dup1\n      dup3\n      mul\n        /* \"#utility.yul\":17873:17882   */\n      dup2\n      iszero\n        /* \"#utility.yul\":17890:17905   */\n      dup3\n      dup3\n      div\n        /* \"#utility.yul\":17884:17906   */\n      dup5\n      eq\n        /* \"#utility.yul\":17870:17907   */\n      or\n        /* \"#utility.yul\":17860:17931   */\n      tag_273\n      jumpi\n        /* \"#utility.yul\":17911:17929   */\n      tag_273\n      tag_778\n      jump\t// in\n        /* \"#utility.yul\":18074:18325   */\n    tag_721:\n        /* \"#utility.yul\":18144:18150   */\n      0x00\n        /* \"#utility.yul\":18197:18199   */\n      0x20\n        /* \"#utility.yul\":18185:18194   */\n      dup3\n        /* \"#utility.yul\":18176:18183   */\n      dup5\n        /* \"#utility.yul\":18172:18195   */\n      sub\n        /* \"#utility.yul\":18168:18200   */\n      slt\n        /* \"#utility.yul\":18165:18217   */\n      iszero\n      tag_873\n      jumpi\n        /* \"#utility.yul\":18213:18214   */\n      0x00\n        /* \"#utility.yul\":18210:18211   */\n      dup1\n        /* \"#utility.yul\":18203:18215   */\n      revert\n        /* \"#utility.yul\":18165:18217   */\n    tag_873:\n        /* \"#utility.yul\":18245:18254   */\n      dup2\n        /* \"#utility.yul\":18239:18255   */\n      mload\n        /* \"#utility.yul\":18264:18295   */\n      tag_304\n        /* \"#utility.yul\":18289:18294   */\n      dup2\n        /* \"#utility.yul\":18264:18295   */\n      tag_775\n      jump\t// in\n        /* \"#utility.yul\":18330:19310   */\n    tag_726:\n        /* \"#utility.yul\":18592:18596   */\n      0x00\n        /* \"#utility.yul\":18640:18643   */\n      0xa0\n        /* \"#utility.yul\":18629:18638   */\n      dup3\n        /* \"#utility.yul\":18625:18644   */\n      add\n        /* \"#utility.yul\":18671:18677   */\n      dup8\n        /* \"#utility.yul\":18660:18669   */\n      dup4\n        /* \"#utility.yul\":18653:18678   */\n      mstore\n        /* \"#utility.yul\":18697:18699   */\n      0x20\n        /* \"#utility.yul\":18735:18741   */\n      dup8\n        /* \"#utility.yul\":18730:18732   */\n      0x20\n        /* \"#utility.yul\":18719:18728   */\n      dup6\n        /* \"#utility.yul\":18715:18733   */\n      add\n        /* \"#utility.yul\":18708:18742   */\n      mstore\n        /* \"#utility.yul\":18778:18781   */\n      0xa0\n        /* \"#utility.yul\":18773:18775   */\n      0x40\n        /* \"#utility.yul\":18762:18771   */\n      dup6\n        /* \"#utility.yul\":18758:18776   */\n      add\n        /* \"#utility.yul\":18751:18782   */\n      mstore\n        /* \"#utility.yul\":18802:18808   */\n      dup2\n        /* \"#utility.yul\":18837:18843   */\n      dup8\n        /* \"#utility.yul\":18831:18844   */\n      mload\n        /* \"#utility.yul\":18868:18874   */\n      dup1\n        /* \"#utility.yul\":18860:18866   */\n      dup5\n        /* \"#utility.yul\":18853:18875   */\n      mstore\n        /* \"#utility.yul\":18906:18909   */\n      0xc0\n        /* \"#utility.yul\":18895:18904   */\n      dup7\n        /* \"#utility.yul\":18891:18910   */\n      add\n        /* \"#utility.yul\":18884:18910   */\n      swap2\n      pop\n        /* \"#utility.yul\":18945:18947   */\n      0x20\n        /* \"#utility.yul\":18937:18943   */\n      dup10\n        /* \"#utility.yul\":18933:18948   */\n      add\n        /* \"#utility.yul\":18919:18948   */\n      swap4\n      pop\n        /* \"#utility.yul\":18966:18967   */\n      0x00\n        /* \"#utility.yul\":18976:19171   */\n    tag_876:\n        /* \"#utility.yul\":18990:18996   */\n      dup2\n        /* \"#utility.yul\":18987:18988   */\n      dup2\n        /* \"#utility.yul\":18984:18997   */\n      lt\n        /* \"#utility.yul\":18976:19171   */\n      iszero\n      tag_878\n      jumpi\n        /* \"#utility.yul\":19055:19068   */\n      dup5\n      mload\n      sub(shl(0xa0, 0x01), 0x01)\n        /* \"#utility.yul\":19051:19090   */\n      and\n        /* \"#utility.yul\":19039:19091   */\n      dup4\n      mstore\n        /* \"#utility.yul\":19146:19161   */\n      swap4\n      dup4\n      add\n      swap4\n        /* \"#utility.yul\":19111:19123   */\n      swap2\n      dup4\n      add\n      swap2\n        /* \"#utility.yul\":19087:19088   */\n      0x01\n        /* \"#utility.yul\":19005:19014   */\n      add\n        /* \"#utility.yul\":18976:19171   */\n      jump(tag_876)\n    tag_878:\n      pop\n      pop\n      sub(shl(0xa0, 0x01), 0x01)\n        /* \"#utility.yul\":19227:19259   */\n      swap7\n      swap1\n      swap7\n      and\n        /* \"#utility.yul\":19222:19224   */\n      0x60\n        /* \"#utility.yul\":19207:19225   */\n      dup6\n      add\n        /* \"#utility.yul\":19200:19260   */\n      mstore\n      pop\n      pop\n      pop\n        /* \"#utility.yul\":19291:19294   */\n      0x80\n        /* \"#utility.yul\":19276:19295   */\n      add\n        /* \"#utility.yul\":19269:19304   */\n      mstore\n        /* \"#utility.yul\":19188:19191   */\n      swap4\n        /* \"#utility.yul\":18330:19310   */\n      swap3\n      pop\n      pop\n      pop\n      jump\t// out\n        /* \"#utility.yul\":19927:20233   */\n    tag_738:\n        /* \"#utility.yul\":20015:20021   */\n      0x00\n        /* \"#utility.yul\":20023:20029   */\n      dup1\n        /* \"#utility.yul\":20031:20037   */\n      0x00\n        /* \"#utility.yul\":20084:20086   */\n      0x60\n        /* \"#utility.yul\":20072:20081   */\n      dup5\n        /* \"#utility.yul\":20063:20070   */\n      dup7\n        /* \"#utility.yul\":20059:20082   */\n      sub\n        /* \"#utility.yul\":20055:20087   */\n      slt\n        /* \"#utility.yul\":20052:20104   */\n      iszero\n      tag_881\n      jumpi\n        /* \"#utility.yul\":20100:20101   */\n      0x00\n        /* \"#utility.yul\":20097:20098   */\n      dup1\n        /* \"#utility.yul\":20090:20102   */\n      revert\n        /* \"#utility.yul\":20052:20104   */\n    tag_881:\n        /* \"#utility.yul\":20129:20138   */\n      dup4\n        /* \"#utility.yul\":20123:20139   */\n      mload\n        /* \"#utility.yul\":20113:20139   */\n      swap3\n      pop\n        /* \"#utility.yul\":20179:20181   */\n      0x20\n        /* \"#utility.yul\":20168:20177   */\n      dup5\n        /* \"#utility.yul\":20164:20182   */\n      add\n        /* \"#utility.yul\":20158:20183   */\n      mload\n        /* \"#utility.yul\":20148:20183   */\n      swap2\n      pop\n        /* \"#utility.yul\":20223:20225   */\n      0x40\n        /* \"#utility.yul\":20212:20221   */\n      dup5\n        /* \"#utility.yul\":20208:20226   */\n      add\n        /* \"#utility.yul\":20202:20227   */\n      mload\n        /* \"#utility.yul\":20192:20227   */\n      swap1\n      pop\n        /* \"#utility.yul\":19927:20233   */\n      swap3\n      pop\n      swap3\n      pop\n      swap3\n      jump\t// out\n\n    auxdata: 0xa2646970667358221220875a7ef38cf86955adbed3d10af340f84565144a7b99f735a9d0786f7660d1c664736f6c63430008180033\n}\n",
				"bytecode": {
					"linkReferences": {},
					"object": "60c06040526a52b7d2dcc80cd2e4000000600981905562000022905f196200038f565b6200002f905f19620003af565b600a55600c805461ff00191661010017905568056bc75e2d63100000600d5560016012819055601381905560148190555f60155560026016819055601782905560185560195534801562000081575f80fd5b506040516200367c3803806200367c833981016040819052620000a491620003d5565b5f80546001600160a01b031916339081178255604051909182917f8be0079c531659141344cd1fd0a4f28419497f9722a3daafe3b4186f6b6457e0908290a3506001600160a01b0381166200013f5760405162461bcd60e51b815260206004820152601b60248201527f46756e642077616c6c65742063616e206e6f74206265207a65726f0000000000604482015260640160405180910390fd5b600a54335f9081526002602090815260409182902092909255601a80546001600160a01b0319166001600160a01b038516179055805163c45a015560e01b8152905173d99d1c33f9fc3444f8101754abc46c52416550d192839263c45a015592600480830193928290030181865afa158015620001be573d5f803e3d5ffd5b505050506040513d601f19601f82011682018060405250810190620001e49190620003d5565b6001600160a01b031663c9c6539630836001600160a01b031663ad5c46486040518163ffffffff1660e01b8152600401602060405180830381865afa15801562000230573d5f803e3d5ffd5b505050506040513d601f19601f82011682018060405250810190620002569190620003d5565b6040516001600160e01b031960e085901b1681526001600160a01b039283166004820152911660248201526044016020604051808303815f875af1158015620002a1573d5f803e3d5ffd5b505050506040513d601f19601f82011682018060405250810190620002c79190620003d5565b6001600160a01b0390811660a0528116608052600160065f620002f15f546001600160a01b031690565b6001600160a01b0316815260208082019290925260409081015f908120805494151560ff199586161790553081526006909252902080549091166001179055620003383390565b6001600160a01b03165f6001600160a01b03167fddf252ad1be2c89b69c2b068fc378daa952ba7f163c4a11628f55a4df523b3ef6009546040516200037f91815260200190565b60405180910390a3505062000404565b5f82620003aa57634e487b7160e01b5f52601260045260245ffd5b500690565b81810381811115620003cf57634e487b7160e01b5f52601160045260245ffd5b92915050565b5f60208284031215620003e6575f80fd5b81516001600160a01b0381168114620003fd575f80fd5b9392505050565b60805160a051613225620004575f395f81816104d601528181611e7f01526121ae01525f818161032e015281816127d40152818161288b015281816128c701528181612933015261295a01526132255ff3fe608060405260043610610283575f3560e01c8063664a1ad611610155578063c49b9a80116100be578063e1eaf3bb11610078578063e1eaf3bb14610804578063ea20463614610819578063ea2f0b371461082e578063ea7db9e51461084d578063eb91e6511461086c578063f2fde38b1461088b575f80fd5b8063c49b9a8014610720578063d621e8131461073f578063d7d7442f1461075e578063dbac26e91461077d578063dd62ed3e146107ab578063e1662ed3146107ef575f80fd5b806395d89b411161010f57806395d89b41146106645780639cfe42da1461068f578063a457c2d7146106ae578063a9059cbb146106cd578063b618a70d146106ec578063bdf024ec1461070b575f80fd5b8063664a1ad6146105a057806367243482146105bf57806370a08231146105de578063715018a6146105fd57806388f82020146106115780638da5cb5b14610648575f80fd5b80633685d419116101f757806349bd5a5e116101b157806349bd5a5e146104c55780634a74bb02146104f857806352390c02146105165780635252a228146105355780635342acb41461054a57806355ce3b9a14610581575f80fd5b80633685d4191461041557806339509351146104345780633bd5d17314610453578063437823ec146104725780634549b03914610491578063463db7dd146104b0575f80fd5b806323b872dd1161024857806323b872dd1461037c578063281d9a7a1461039b578063293230b8146103b05780632d5624ed146103c65780632d838119146103db578063313ce567146103fa575f80fd5b806306fdde031461028e578063095ea7b3146102d057806313114a9d146102ff5780631694505e1461031d57806318160ddd14610368575f80fd5b3661028a57005b5f80fd5b348015610299575f80fd5b506040805180820190915260088152674561676c6520414960c01b60208201525b6040516102c79190612cd7565b60405180910390f35b3480156102db575f80fd5b506102ef6102ea366004612d3a565b6108aa565b60405190151581526020016102c7565b34801561030a575f80fd5b50600b545b6040519081526020016102c7565b348015610328575f80fd5b506103507f000000000000000000000000000000000000000000000000000000000000000081565b6040516001600160a01b0390911681526020016102c7565b348015610373575f80fd5b5060095461030f565b348015610387575f80fd5b506102ef610396366004612d64565b6108c0565b3480156103a6575f80fd5b5061030f60155481565b3480156103bb575f80fd5b506103c4610910565b005b3480156103d1575f80fd5b5061030f60195481565b3480156103e6575f80fd5b5061030f6103f5366004612da2565b6109f2565b348015610405575f80fd5b50604051601281526020016102c7565b348015610420575f80fd5b506103c461042f366004612db9565b610a74565b34801561043f575f80fd5b506102ef61044e366004612d3a565b610c56565b34801561045e575f80fd5b506103c461046d366004612da2565b610c8c565b34801561047d575f80fd5b506103c461048c366004612db9565b610d70565b34801561049c575f80fd5b5061030f6104ab366004612de8565b610e54565b3480156104bb575f80fd5b5061030f60175481565b3480156104d0575f80fd5b506103507f000000000000000000000000000000000000000000000000000000000000000081565b348015610503575f80fd5b50600c546102ef90610100900460ff1681565b348015610521575f80fd5b506103c4610530366004612db9565b610ed4565b348015610540575f80fd5b5061030f60125481565b348015610555575f80fd5b506102ef610564366004612db9565b6001600160a01b03165f9081526006602052604090205460ff1690565b34801561058c575f80fd5b506103c461059b366004612db9565b611051565b3480156105ab575f80fd5b50601a54610350906001600160a01b031681565b3480156105ca575f80fd5b506103c46105d9366004612e5a565b61111e565b3480156105e9575f80fd5b5061030f6105f8366004612db9565b6112a7565b348015610608575f80fd5b506103c4611303565b34801561061c575f80fd5b506102ef61062b366004612db9565b6001600160a01b03165f9081526007602052604090205460ff1690565b348015610653575f80fd5b505f546001600160a01b0316610350565b34801561066f575f80fd5b5060408051808201909152600381526245414960e81b60208201526102ba565b34801561069a575f80fd5b506103c46106a9366004612db9565b611374565b3480156106b9575f80fd5b506102ef6106c8366004612d3a565b611458565b3480156106d8575f80fd5b506102ef6106e7366004612d3a565b61148e565b3480156106f7575f80fd5b506103c4610706366004612ec1565b61149a565b348015610716575f80fd5b5061030f60185481565b34801561072b575f80fd5b506103c461073a366004612ef0565b6115aa565b34801561074a575f80fd5b50600c546102ef9062010000900460ff1681565b348015610769575f80fd5b506103c4610778366004612da2565b61161c565b348015610788575f80fd5b506102ef610797366004612db9565b60056020525f908152604090205460ff1681565b3480156107b6575f80fd5b5061030f6107c5366004612f09565b6001600160a01b039182165f90815260046020908152604080832093909416825291909152205490565b3480156107fa575f80fd5b5061030f60165481565b34801561080f575f80fd5b5061030f60135481565b348015610824575f80fd5b5061030f60145481565b348015610839575f80fd5b506103c4610848366004612db9565b611705565b348015610858575f80fd5b506103c4610867366004612ec1565b6117de565b348015610877575f80fd5b506103c4610886366004612db9565b6118e4565b348015610896575f80fd5b506103c46108a5366004612db9565b6119c4565b5f6108b6338484611aab565b5060015b92915050565b5f6108cc848484611bce565b6001600160a01b0384165f90815260046020908152604080832033808552925290912054610906918691610901908690612f54565b611aab565b5060019392505050565b5f546001600160a01b031633146109425760405162461bcd60e51b815260040161093990612f67565b60405180910390fd5b600c5462010000900460ff161561099b5760405162461bcd60e51b815260206004820152601760248201527f54726164696e6720616c726561647920737461727465640000000000000000006044820152606401610939565b600c805462ff0000191662010000908117918290556040517f7d7f00509dd73ac4449f698ae75ccc797895eff5fa9d446d3df387598a26e735926109e892900460ff161515815260200190565b60405180910390a1565b5f600a54821115610a585760405162461bcd60e51b815260206004820152602a60248201527f416d6f756e74206d757374206265206c657373207468616e20746f74616c207260448201526965666c656374696f6e7360b01b6064820152608401610939565b5f610a61611f3e565b9050610a6d8184612f9c565b9392505050565b5f546001600160a01b03163314610a9d5760405162461bcd60e51b815260040161093990612f67565b6001600160a01b0381165f9081526007602052604090205460ff16610b045760405162461bcd60e51b815260206004820152601b60248201527f4163636f756e7420697320616c726561647920496e636c7564656400000000006044820152606401610939565b5f5b600854811015610c1557816001600160a01b031660088281548110610b2d57610b2d612fbb565b5f918252602090912001546001600160a01b031603610c0d5760088054610b5690600190612f54565b81548110610b6657610b66612fbb565b5f91825260209091200154600880546001600160a01b039092169183908110610b9157610b91612fbb565b5f91825260208083209190910180546001600160a01b0319166001600160a01b039485161790559184168152600382526040808220829055600790925220805460ff191690556008805480610be857610be8612fcf565b5f8281526020902081015f1990810180546001600160a01b0319169055019055610c15565b600101610b06565b506040516001600160a01b03821681527f47ab6b2d1f416edec684889dc42cd04ed7cc6c6244edaa04c4215e1077548614906020015b60405180910390a150565b335f8181526004602090815260408083206001600160a01b038716845290915281205490916108b6918590610901908690612fe3565b335f8181526007602052604090205460ff1615610d005760405162461bcd60e51b815260206004820152602c60248201527f4578636c75646564206164647265737365732063616e6e6f742063616c6c207460448201526b3434b990333ab731ba34b7b760a11b6064820152608401610939565b5f610d0a83611f5f565b506001600160a01b0383165f90815260026020526040902054909150610d31908290612f54565b6001600160a01b0383165f90815260026020526040902055600a54610d57908290612f54565b600a55600b54610d68908490612fe3565b600b55505050565b5f546001600160a01b03163314610d995760405162461bcd60e51b815260040161093990612f67565b6001600160a01b0381165f9081526006602052604090205460ff1615610e015760405162461bcd60e51b815260206004820152601860248201527f416c72656179206578636c756465642066726f6d2066656500000000000000006044820152606401610939565b6001600160a01b0381165f81815260066020908152604091829020805460ff1916600117905590519182527ff1d6512ec7550bf605a5a38910e48fb6a57938ed74a5afa01753fa023001005c9101610c4b565b5f600954831115610ea75760405162461bcd60e51b815260206004820152601f60248201527f416d6f756e74206d757374206265206c657373207468616e20737570706c79006044820152606401610939565b81610ec0575f610eb684611f5f565b5091506108ba9050565b5f610eca84611f5f565b92506108ba915050565b5f546001600160a01b03163314610efd5760405162461bcd60e51b815260040161093990612f67565b6001600160a01b0381165f9081526007602052604090205460ff1615610f655760405162461bcd60e51b815260206004820152601b60248201527f4163636f756e7420697320616c7265616479206578636c7564656400000000006044820152606401610939565b6001600160a01b0381165f9081526002602052604090205415610fbc576001600160a01b0381165f90815260026020526040902054610fa3906109f2565b6001600160a01b0382165f908152600360205260409020555b6001600160a01b0381165f818152600760209081526040808320805460ff191660019081179091556008805491820181559093527ff3f7a9fe364faab93b216da50a3214154f22a0a2b415b23a84c8169e8b636ee390920180546001600160a01b0319168417905590519182527f110b1fbed46dec7bc9019c3fba97541a3d64821a824872bb7b2ad678490855bf9101610c4b565b5f546001600160a01b0316331461107a5760405162461bcd60e51b815260040161093990612f67565b6001600160a01b0381166110d05760405162461bcd60e51b815260206004820152601b60248201527f46756e642077616c6c65742063616e206e6f74206265207a65726f00000000006044820152606401610939565b601a80546001600160a01b0319166001600160a01b0383169081179091556040519081527f4cb53cdee53f2d4e4e60769add356f6cbd911505806fd6c1eee38f5a6b8a257490602001610c4b565b5f546001600160a01b031633146111475760405162461bcd60e51b815260040161093990612f67565b5f8382146111a85760405162461bcd60e51b815260206004820152602860248201527f4d69736d61746368206265747765656e204164647265737320616e6420746f6b604482015267195b8818dbdd5b9d60c21b6064820152608401610939565b5f5b848110156111e5575f8484838181106111c5576111c5612fbb565b90506020020135905080836111da9190612fe3565b9250506001016111aa565b50806111f0336112a7565b101561123e5760405162461bcd60e51b815260206004820152601c60248201527f4e6f7420656e6f75676820746f6b656e7320746f2061697264726f70000000006044820152606401610939565b5f5b8481101561129f575f84848381811061125b5761125b612fbb565b9050602002013590506112963388888581811061127a5761127a612fbb565b905060200201602081019061128f9190612db9565b835f611f97565b50600101611240565b505050505050565b6001600160a01b0381165f9081526007602052604081205460ff16156112e257506001600160a01b03165f9081526003602052604090205490565b6001600160a01b0382165f908152600260205260409020546108ba906109f2565b5f546001600160a01b0316331461132c5760405162461bcd60e51b815260040161093990612f67565b5f80546040516001600160a01b03909116907f8be0079c531659141344cd1fd0a4f28419497f9722a3daafe3b4186f6b6457e0908390a35f80546001600160a01b0319169055565b5f546001600160a01b0316331461139d5760405162461bcd60e51b815260040161093990612f67565b6001600160a01b0381165f9081526005602052604090205460ff16156114055760405162461bcd60e51b815260206004820152601b60248201527f4163636f756e7420616c726561647920626c61636b6c697374656400000000006044820152606401610939565b6001600160a01b0381165f81815260056020908152604091829020805460ff1916600117905590519182527f4e63251189d11de41cff7396332e25ed3c84d6c08ef82ed74ba63a95edf8e3ef9101610c4b565b335f8181526004602090815260408083206001600160a01b038716845290915281205490916108b6918590610901908690612f54565b5f6108b6338484611bce565b5f546001600160a01b031633146114c35760405162461bcd60e51b815260040161093990612f67565b60068411156114e45760405162461bcd60e51b815260040161093990612ff6565b60068311156115055760405162461bcd60e51b815260040161093990613041565b60068211156115265760405162461bcd60e51b815260040161093990613091565b60068111156115475760405162461bcd60e51b8152600401610939906130db565b60168490556017839055601882905560198190556040805185815260208101859052908101839052606081018290527fa987db89f31df6351bb1ad3d58f4e5ef54e52c1e3389622f2b38adcf43a086ae906080015b60405180910390a150505050565b5f546001600160a01b031633146115d35760405162461bcd60e51b815260040161093990612f67565b600c80548215156101000261ff00199091161790556040517f53726dfcaf90650aa7eb35524f4d3220f07413c8d6cb404cc8c18bf5591bc15990610c4b90831515815260200190565b5f546001600160a01b031633146116455760405162461bcd60e51b815260040161093990612f67565b5f8111801561165e57506969e10de76676d08000008111155b6116d05760405162461bcd60e51b815260206004820152603960248201527f416d6f756e742073686f756c64206265206d6f7265207468616e207a65726f2060448201527f616e64206c657373207468616e203530306b20746f6b656e73000000000000006064820152608401610939565b600d8190556040518181527fadfa8ecb21b6962ebcd0adbd9ab985b7b4c5b5eb3b0dead683171565c7bfe17190602001610c4b565b5f546001600160a01b0316331461172e5760405162461bcd60e51b815260040161093990612f67565b6001600160a01b0381165f9081526006602052604090205460ff1661178e5760405162461bcd60e51b8152602060048201526016602482015275416c7265617920696e636c7564656420696e2066656560501b6044820152606401610939565b6001600160a01b0381165f81815260066020908152604091829020805460ff1916905590519182527f78ce087db51d01d3e32355f2d83455d5a39f99194c8d3d1c2614893695cee4429101610c4b565b5f546001600160a01b031633146118075760405162461bcd60e51b815260040161093990612f67565b60068411156118285760405162461bcd60e51b815260040161093990612ff6565b60068311156118495760405162461bcd60e51b815260040161093990613041565b600682111561186a5760405162461bcd60e51b815260040161093990613091565b600681111561188b5760405162461bcd60e51b8152600401610939906130db565b60128490556013839055601482905560158190556040805185815260208101859052908101839052606081018290527f39dd28ec6ca271c82451a8ef3e1422d281febc1d63701dd827a8573ed55bd4859060800161159c565b5f546001600160a01b0316331461190d5760405162461bcd60e51b815260040161093990612f67565b6001600160a01b0381165f9081526005602052604090205460ff166119745760405162461bcd60e51b815260206004820152601760248201527f4163636f756e74206e6f7420626c61636b6c69737465640000000000000000006044820152606401610939565b6001600160a01b0381165f81815260056020908152604091829020805460ff1916905590519182527f2b6bf71b58b3583add364b3d9060ebf8019650f65f5be35f5464b9cb3e4ba2d49101610c4b565b5f546001600160a01b031633146119ed5760405162461bcd60e51b815260040161093990612f67565b6001600160a01b038116611a525760405162461bcd60e51b815260206004820152602660248201527f4f776e61626c653a206e6577206f776e657220697320746865207a65726f206160448201526564647265737360d01b6064820152608401610939565b5f80546040516001600160a01b03808516939216917f8be0079c531659141344cd1fd0a4f28419497f9722a3daafe3b4186f6b6457e091a35f80546001600160a01b0319166001600160a01b0392909216919091179055565b6001600160a01b038316611b0d5760405162461bcd60e51b8152602060048201526024808201527f45524332303a20617070726f76652066726f6d20746865207a65726f206164646044820152637265737360e01b6064820152608401610939565b6001600160a01b038216611b6e5760405162461bcd60e51b815260206004820152602260248201527f45524332303a20617070726f766520746f20746865207a65726f206164647265604482015261737360f01b6064820152608401610939565b6001600160a01b038381165f8181526004602090815260408083209487168084529482529182902085905590518481527f8c5be1e5ebec7d5bd14f71427d1e84f3dd0314c0f7b2291e5b200ac8c7c3b925910160405180910390a3505050565b6001600160a01b038316611c325760405162461bcd60e51b815260206004820152602560248201527f45524332303a207472616e736665722066726f6d20746865207a65726f206164604482015264647265737360d81b6064820152608401610939565b6001600160a01b038216611c945760405162461bcd60e51b815260206004820152602360248201527f45524332303a207472616e7366657220746f20746865207a65726f206164647260448201526265737360e81b6064820152608401610939565b5f8111611cf55760405162461bcd60e51b815260206004820152602960248201527f5472616e7366657220616d6f756e74206d7573742062652067726561746572206044820152687468616e207a65726f60b81b6064820152608401610939565b6001600160a01b0383165f9081526005602052604090205460ff1615611d555760405162461bcd60e51b815260206004820152601560248201527414d95b99195c881a5cc8189b1858dadb1a5cdd1959605a1b6044820152606401610939565b6001600160a01b0382165f9081526005602052604090205460ff1615611dbd5760405162461bcd60e51b815260206004820152601860248201527f526563697069656e7420697320626c61636b6c697374656400000000000000006044820152606401610939565b5f546001600160a01b0384811691161480611de457505f546001600160a01b038381169116145b15611dfa57611df58383835f611f97565b505050565b600c5462010000900460ff16611e525760405162461bcd60e51b815260206004820152601760248201527f54726164696e67206e6f742073746172746564207965740000000000000000006044820152606401610939565b5f611e5c306112a7565b600d5490915081108015908190611e765750600c5460ff16155b8015611eb457507f00000000000000000000000000000000000000000000000000000000000000006001600160a01b0316856001600160a01b031614155b8015611ec75750600c54610100900460ff165b15611eda57600d549150611eda82612106565b6001600160a01b0385165f9081526006602052604090205460019060ff1680611f1a57506001600160a01b0385165f9081526006602052604090205460ff165b15611f2257505f5b8015611f3257611f3286866121a1565b61129f86868684611f97565b5f805f611f49612234565b9092509050611f588183612f9c565b9250505090565b5f805f805f80611f6e876123a4565b9450945094509450505f80611f86898787878761241b565b50909a909950975050505050505050565b80611fb457611fb45f600e819055600f8190556010819055601155565b6001600160a01b0384165f9081526007602052604090205460ff168015611ff357506001600160a01b0383165f9081526007602052604090205460ff16155b15612008576120038484846124b2565b612100565b6001600160a01b0384165f9081526007602052604090205460ff1615801561204757506001600160a01b0383165f9081526007602052604090205460ff165b15612057576120038484846125f2565b6001600160a01b0384165f9081526007602052604090205460ff1615801561209757506001600160a01b0383165f9081526007602052604090205460ff16155b156120a7576120038484846126aa565b6001600160a01b0384165f9081526007602052604090205460ff1680156120e557506001600160a01b0383165f9081526007602052604090205460ff165b156120f5576120038484846126fd565b6121008484846126aa565b50505050565b600c805460ff191660011790555f61211f600283612f9c565b90505f61212c8284612f54565b9050476121388361277f565b5f6121438247612f54565b905061214f838261292d565b60408051858152602081018390529081018490527f17bbfb9a6069321b6ded73bd96327c9e6b7212a5cd51ff219cd61370acafb5619060600160405180910390a15050600c805460ff19169055505050565b6001600160a01b038281167f000000000000000000000000000000000000000000000000000000000000000082169081149183161481156121f957601254600e55601354600f55601454601055601554601155612100565b801561221c57601654600e55601754600f55601854601055601954601155612100565b6121005f600e819055600f8190556010819055601155565b600a546009545f918291825b600854811015612373578260025f6008848154811061226157612261612fbb565b5f9182526020808320909101546001600160a01b0316835282019290925260400190205411806122c957508160035f600884815481106122a3576122a3612fbb565b5f9182526020808320909101546001600160a01b03168352820192909252604001902054115b156122df57600a54600954945094505050509091565b60025f600883815481106122f5576122f5612fbb565b5f9182526020808320909101546001600160a01b031683528201929092526040019020546123239084612f54565b925060035f6008838154811061233b5761233b612fbb565b5f9182526020808320909101546001600160a01b031683528201929092526040019020546123699083612f54565b9150600101612240565b50600954600a546123849190612f9c565b82101561239b57600a546009549350935050509091565b90939092509050565b5f805f805f806123b387612a2f565b90505f6123bf88612a4a565b90505f6123cb89612a5b565b90505f6123d78a612a6c565b90505f81836123e68688612fe3565b6123f09190612fe3565b6123fa9190612fe3565b90505f612407828d612f54565b9c959b509399509197509550919350505050565b5f805f80612427611f3e565b90505f612434828b613121565b90505f612441838b613121565b90505f61244e848a613121565b90505f61245b858a613121565b90505f612468868d613121565b90505f81836124778688612fe3565b6124819190612fe3565b61248b9190612fe3565b90505f6124988288612f54565b969a50959850939650505050505050955095509592505050565b5f805f805f6124c086612a7d565b945094509450945094505f805f6124da898888888861241b565b6001600160a01b038e165f908152600360205260409020549295509093509150612505908a90612f54565b6001600160a01b038c165f90815260036020908152604080832093909355600290522054612534908490612f54565b6001600160a01b03808d165f9081526002602052604080822093909355908c1681522054612563908390612fe3565b6001600160a01b038b165f9081526002602052604090205561258486612aa7565b61258f818886612b60565b61259885612bf0565b896001600160a01b03168b6001600160a01b03167fddf252ad1be2c89b69c2b068fc378daa952ba7f163c4a11628f55a4df523b3ef8a6040516125dd91815260200190565b60405180910390a35050505050505050505050565b5f805f805f61260086612a7d565b945094509450945094505f805f61261a898888888861241b565b6001600160a01b038e165f908152600260205260409020549295509093509150612645908490612f54565b6001600160a01b03808d165f90815260026020908152604080832094909455918d1681526003909152205461267b908990612fe3565b6001600160a01b038b165f90815260036020908152604080832093909355600290522054612563908390612fe3565b5f805f805f6126b886612a7d565b945094509450945094505f805f6126d2898888888861241b565b6001600160a01b038e165f908152600260205260409020549295509093509150612534908490612f54565b5f805f805f61270b86612a7d565b945094509450945094505f805f612725898888888861241b565b6001600160a01b038e165f908152600360205260409020549295509093509150612750908a90612f54565b6001600160a01b038c165f90815260036020908152604080832093909355600290522054612645908490612f54565b6040805160028082526060820183525f9260208301908036833701905050905030815f815181106127b2576127b2612fbb565b60200260200101906001600160a01b031690816001600160a01b0316815250507f00000000000000000000000000000000000000000000000000000000000000006001600160a01b031663ad5c46486040518163ffffffff1660e01b8152600401602060405180830381865afa15801561282e573d5f803e3d5ffd5b505050506040513d601f19601f820116820180604052508101906128529190613138565b8160018151811061286557612865612fbb565b60200260200101906001600160a01b031690816001600160a01b0316815250506128b0307f000000000000000000000000000000000000000000000000000000000000000084611aab565b60405163791ac94760e01b81526001600160a01b037f0000000000000000000000000000000000000000000000000000000000000000169063791ac947906129049085905f90869030904290600401613153565b5f604051808303815f87803b15801561291b575f80fd5b505af115801561129f573d5f803e3d5ffd5b612958307f000000000000000000000000000000000000000000000000000000000000000084611aab565b7f00000000000000000000000000000000000000000000000000000000000000006001600160a01b031663f305d7198230855f8061299d5f546001600160a01b031690565b60405160e088901b6001600160e01b03191681526001600160a01b03958616600482015260248101949094526044840192909252606483015290911660848201524260a482015260c40160606040518083038185885af1158015612a03573d5f803e3d5ffd5b50505050506040513d601f19601f82011682018060405250810190612a2891906131c4565b5050505050565b5f6064600e5483612a409190613121565b6108ba9190612f9c565b5f606460105483612a409190613121565b5f6064600f5483612a409190613121565b5f606460115483612a409190613121565b5f805f805f805f805f80612a908b6123a4565b939f929e50909c509a509098509650505050505050565b5f612ab0611f3e565b90505f612abd8284613121565b305f90815260026020526040902054909150612ada908290612fe3565b305f9081526002602090815260408083209390935560079052205460ff1615612b2757305f90815260036020526040902054612b17908490612fe3565b305f908152600360205260409020555b6040518381527f3a8ab79f6d1537e459a1a8379f48a77e1ffd07dda4b16ea97074fdab5dd8bf34906020015b60405180910390a1505050565b5f612b69611f3e565b90505f612b768284613121565b90508085600a54612b879190612f54565b612b919190612f54565b600a55600b54612ba2908590612fe3565b600b55600954612bb3908490612f54565b6009556040518481527f56b5df500587465b57d8ce799cc562a294f136b75a13718c574d9d36bd8280589060200160405180910390a15050505050565b5f612bf9611f3e565b90505f612c068284613121565b601a546001600160a01b03165f90815260026020526040902054909150612c2e908290612fe3565b601a80546001600160a01b039081165f90815260026020908152604080832095909555925490911681526007909152205460ff1615612ca757601a546001600160a01b03165f90815260036020526040902054612c8c908490612fe3565b601a546001600160a01b03165f908152600360205260409020555b6040518381527f7a934c407238277f8cf36df7a2f4b5ef2eb3aa6190eeb615e32c02075a5730b090602001612b53565b5f602080835283518060208501525f5b81811015612d0357858101830151858201604001528201612ce7565b505f604082860101526040601f19601f8301168501019250505092915050565b6001600160a01b0381168114612d37575f80fd5b50565b5f8060408385031215612d4b575f80fd5b8235612d5681612d23565b946020939093013593505050565b5f805f60608486031215612d76575f80fd5b8335612d8181612d23565b92506020840135612d9181612d23565b929592945050506040919091013590565b5f60208284031215612db2575f80fd5b5035919050565b5f60208284031215612dc9575f80fd5b8135610a6d81612d23565b80358015158114612de3575f80fd5b919050565b5f8060408385031215612df9575f80fd5b82359150612e0960208401612dd4565b90509250929050565b5f8083601f840112612e22575f80fd5b50813567ffffffffffffffff811115612e39575f80fd5b6020830191508360208260051b8501011115612e53575f80fd5b9250929050565b5f805f8060408587031215612e6d575f80fd5b843567ffffffffffffffff80821115612e84575f80fd5b612e9088838901612e12565b90965094506020870135915080821115612ea8575f80fd5b50612eb587828801612e12565b95989497509550505050565b5f805f8060808587031215612ed4575f80fd5b5050823594602084013594506040840135936060013592509050565b5f60208284031215612f00575f80fd5b610a6d82612dd4565b5f8060408385031215612f1a575f80fd5b8235612f2581612d23565b91506020830135612f3581612d23565b809150509250929050565b634e487b7160e01b5f52601160045260245ffd5b818103818111156108ba576108ba612f40565b6020808252818101527f4f776e61626c653a2063616c6c6572206973206e6f7420746865206f776e6572604082015260600190565b5f82612fb657634e487b7160e01b5f52601260045260245ffd5b500490565b634e487b7160e01b5f52603260045260245ffd5b634e487b7160e01b5f52603160045260245ffd5b808201808211156108ba576108ba612f40565b6020808252602b908201527f596f752063616e206e6f7420736574207265666c656374696f6e20746178206d60408201526a6f7265207468656e20362560a81b606082015260800190565b60208082526030908201527f596f752063616e206e6f742073657420636f696e206f7065726174696f6e202060408201526f746178206d6f7265207468656e20362560801b606082015260800190565b6020808252602a908201527f596f752063616e206e6f7420736574206c697175696469747920746178206d6f6040820152697265207468656e20362560b01b606082015260800190565b60208082526026908201527f596f752063616e206e6f7420736574206275726e2020746178206d6f7265207460408201526568656e20362560d01b606082015260800190565b80820281158282048414176108ba576108ba612f40565b5f60208284031215613148575f80fd5b8151610a6d81612d23565b5f60a08201878352602087602085015260a0604085015281875180845260c0860191506020890193505f5b818110156131a35784516001600160a01b03168352938301939183019160010161317e565b50506001600160a01b03969096166060850152505050608001529392505050565b5f805f606084860312156131d6575f80fd5b835192506020840151915060408401519050925092509256fea2646970667358221220875a7ef38cf86955adbed3d10af340f84565144a7b99f735a9d0786f7660d1c664736f6c63430008180033",
					"opcodes": "PUSH1 0xC0 PUSH1 0x40 MSTORE PUSH11 0x52B7D2DCC80CD2E4000000 PUSH1 0x9 DUP2 SWAP1 SSTORE PUSH3 0x22 SWAP1 PUSH0 NOT PUSH3 0x38F JUMP JUMPDEST PUSH3 0x2F SWAP1 PUSH0 NOT PUSH3 0x3AF JUMP JUMPDEST PUSH1 0xA SSTORE PUSH1 0xC DUP1 SLOAD PUSH2 0xFF00 NOT AND PUSH2 0x100 OR SWAP1 SSTORE PUSH9 0x56BC75E2D63100000 PUSH1 0xD SSTORE PUSH1 0x1 PUSH1 0x12 DUP2 SWAP1 SSTORE PUSH1 0x13 DUP2 SWAP1 SSTORE PUSH1 0x14 DUP2 SWAP1 SSTORE PUSH0 PUSH1 0x15 SSTORE PUSH1 0x2 PUSH1 0x16 DUP2 SWAP1 SSTORE PUSH1 0x17 DUP3 SWAP1 SSTORE PUSH1 0x18 SSTORE PUSH1 0x19 SSTORE CALLVALUE DUP1 ISZERO PUSH3 0x81 JUMPI PUSH0 DUP1 REVERT JUMPDEST POP PUSH1 0x40 MLOAD PUSH3 0x367C CODESIZE SUB DUP1 PUSH3 0x367C DUP4 CODECOPY DUP2 ADD PUSH1 0x40 DUP2 SWAP1 MSTORE PUSH3 0xA4 SWAP2 PUSH3 0x3D5 JUMP JUMPDEST PUSH0 DUP1 SLOAD PUSH1 0x1 PUSH1 0x1 PUSH1 0xA0 SHL SUB NOT AND CALLER SWAP1 DUP2 OR DUP3 SSTORE PUSH1 0x40 MLOAD SWAP1 SWAP2 DUP3 SWAP2 PUSH32 0x8BE0079C531659141344CD1FD0A4F28419497F9722A3DAAFE3B4186F6B6457E0 SWAP1 DUP3 SWAP1 LOG3 POP PUSH1 0x1 PUSH1 0x1 PUSH1 0xA0 SHL SUB DUP2 AND PUSH3 0x13F JUMPI PUSH1 0x40 MLOAD PUSH3 0x461BCD PUSH1 0xE5 SHL DUP2 MSTORE PUSH1 0x20 PUSH1 0x4 DUP3 ADD MSTORE PUSH1 0x1B PUSH1 0x24 DUP3 ADD MSTORE PUSH32 0x46756E642077616C6C65742063616E206E6F74206265207A65726F0000000000 PUSH1 0x44 DUP3 ADD MSTORE PUSH1 0x64 ADD PUSH1 0x40 MLOAD DUP1 SWAP2 SUB SWAP1 REVERT JUMPDEST PUSH1 0xA SLOAD CALLER PUSH0 SWAP1 DUP2 MSTORE PUSH1 0x2 PUSH1 0x20 SWAP1 DUP2 MSTORE PUSH1 0x40 SWAP2 DUP3 SWAP1 KECCAK256 SWAP3 SWAP1 SWAP3 SSTORE PUSH1 0x1A DUP1 SLOAD PUSH1 0x1 PUSH1 0x1 PUSH1 0xA0 SHL SUB NOT AND PUSH1 0x1 PUSH1 0x1 PUSH1 0xA0 SHL SUB DUP6 AND OR SWAP1 SSTORE DUP1 MLOAD PUSH4 0xC45A0155 PUSH1 0xE0 SHL DUP2 MSTORE SWAP1 MLOAD PUSH20 0xD99D1C33F9FC3444F8101754ABC46C52416550D1 SWAP3 DUP4 SWAP3 PUSH4 0xC45A0155 SWAP3 PUSH1 0x4 DUP1 DUP4 ADD SWAP4 SWAP3 DUP3 SWAP1 SUB ADD DUP2 DUP7 GAS STATICCALL ISZERO DUP1 ISZERO PUSH3 0x1BE JUMPI RETURNDATASIZE PUSH0 DUP1 RETURNDATACOPY RETURNDATASIZE PUSH0 REVERT JUMPDEST POP POP POP POP PUSH1 0x40 MLOAD RETURNDATASIZE PUSH1 0x1F NOT PUSH1 0x1F DUP3 ADD AND DUP3 ADD DUP1 PUSH1 0x40 MSTORE POP DUP2 ADD SWAP1 PUSH3 0x1E4 SWAP2 SWAP1 PUSH3 0x3D5 JUMP JUMPDEST PUSH1 0x1 PUSH1 0x1 PUSH1 0xA0 SHL SUB AND PUSH4 0xC9C65396 ADDRESS DUP4 PUSH1 0x1 PUSH1 0x1 PUSH1 0xA0 SHL SUB AND PUSH4 0xAD5C4648 PUSH1 0x40 MLOAD DUP2 PUSH4 0xFFFFFFFF AND PUSH1 0xE0 SHL DUP2 MSTORE PUSH1 0x4 ADD PUSH1 0x20 PUSH1 0x40 MLOAD DUP1 DUP4 SUB DUP2 DUP7 GAS STATICCALL ISZERO DUP1 ISZERO PUSH3 0x230 JUMPI RETURNDATASIZE PUSH0 DUP1 RETURNDATACOPY RETURNDATASIZE PUSH0 REVERT JUMPDEST POP POP POP POP PUSH1 0x40 MLOAD RETURNDATASIZE PUSH1 0x1F NOT PUSH1 0x1F DUP3 ADD AND DUP3 ADD DUP1 PUSH1 0x40 MSTORE POP DUP2 ADD SWAP1 PUSH3 0x256 SWAP2 SWAP1 PUSH3 0x3D5 JUMP JUMPDEST PUSH1 0x40 MLOAD PUSH1 0x1 PUSH1 0x1 PUSH1 0xE0 SHL SUB NOT PUSH1 0xE0 DUP6 SWAP1 SHL AND DUP2 MSTORE PUSH1 0x1 PUSH1 0x1 PUSH1 0xA0 SHL SUB SWAP3 DUP4 AND PUSH1 0x4 DUP3 ADD MSTORE SWAP2 AND PUSH1 0x24 DUP3 ADD MSTORE PUSH1 0x44 ADD PUSH1 0x20 PUSH1 0x40 MLOAD DUP1 DUP4 SUB DUP2 PUSH0 DUP8 GAS CALL ISZERO DUP1 ISZERO PUSH3 0x2A1 JUMPI RETURNDATASIZE PUSH0 DUP1 RETURNDATACOPY RETURNDATASIZE PUSH0 REVERT JUMPDEST POP POP POP POP PUSH1 0x40 MLOAD RETURNDATASIZE PUSH1 0x1F NOT PUSH1 0x1F DUP3 ADD AND DUP3 ADD DUP1 PUSH1 0x40 MSTORE POP DUP2 ADD SWAP1 PUSH3 0x2C7 SWAP2 SWAP1 PUSH3 0x3D5 JUMP JUMPDEST PUSH1 0x1 PUSH1 0x1 PUSH1 0xA0 SHL SUB SWAP1 DUP2 AND PUSH1 0xA0 MSTORE DUP2 AND PUSH1 0x80 MSTORE PUSH1 0x1 PUSH1 0x6 PUSH0 PUSH3 0x2F1 PUSH0 SLOAD PUSH1 0x1 PUSH1 0x1 PUSH1 0xA0 SHL SUB AND SWAP1 JUMP JUMPDEST PUSH1 0x1 PUSH1 0x1 PUSH1 0xA0 SHL SUB AND DUP2 MSTORE PUSH1 0x20 DUP1 DUP3 ADD SWAP3 SWAP1 SWAP3 MSTORE PUSH1 0x40 SWAP1 DUP2 ADD PUSH0 SWAP1 DUP2 KECCAK256 DUP1 SLOAD SWAP5 ISZERO ISZERO PUSH1 0xFF NOT SWAP6 DUP7 AND OR SWAP1 SSTORE ADDRESS DUP2 MSTORE PUSH1 0x6 SWAP1 SWAP3 MSTORE SWAP1 KECCAK256 DUP1 SLOAD SWAP1 SWAP2 AND PUSH1 0x1 OR SWAP1 SSTORE PUSH3 0x338 CALLER SWAP1 JUMP JUMPDEST PUSH1 0x1 PUSH1 0x1 PUSH1 0xA0 SHL SUB AND PUSH0 PUSH1 0x1 PUSH1 0x1 PUSH1 0xA0 SHL SUB AND PUSH32 0xDDF252AD1BE2C89B69C2B068FC378DAA952BA7F163C4A11628F55A4DF523B3EF PUSH1 0x9 SLOAD PUSH1 0x40 MLOAD PUSH3 0x37F SWAP2 DUP2 MSTORE PUSH1 0x20 ADD SWAP1 JUMP JUMPDEST PUSH1 0x40 MLOAD DUP1 SWAP2 SUB SWAP1 LOG3 POP POP PUSH3 0x404 JUMP JUMPDEST PUSH0 DUP3 PUSH3 0x3AA JUMPI PUSH4 0x4E487B71 PUSH1 0xE0 SHL PUSH0 MSTORE PUSH1 0x12 PUSH1 0x4 MSTORE PUSH1 0x24 PUSH0 REVERT JUMPDEST POP MOD SWAP1 JUMP JUMPDEST DUP2 DUP2 SUB DUP2 DUP2 GT ISZERO PUSH3 0x3CF JUMPI PUSH4 0x4E487B71 PUSH1 0xE0 SHL PUSH0 MSTORE PUSH1 0x11 PUSH1 0x4 MSTORE PUSH1 0x24 PUSH0 REVERT JUMPDEST SWAP3 SWAP2 POP POP JUMP JUMPDEST PUSH0 PUSH1 0x20 DUP3 DUP5 SUB SLT ISZERO PUSH3 0x3E6 JUMPI PUSH0 DUP1 REVERT JUMPDEST DUP2 MLOAD PUSH1 0x1 PUSH1 0x1 PUSH1 0xA0 SHL SUB DUP2 AND DUP2 EQ PUSH3 0x3FD JUMPI PUSH0 DUP1 REVERT JUMPDEST SWAP4 SWAP3 POP POP POP JUMP JUMPDEST PUSH1 0x80 MLOAD PUSH1 0xA0 MLOAD PUSH2 0x3225 PUSH3 0x457 PUSH0 CODECOPY PUSH0 DUP2 DUP2 PUSH2 0x4D6 ADD MSTORE DUP2 DUP2 PUSH2 0x1E7F ADD MSTORE PUSH2 0x21AE ADD MSTORE PUSH0 DUP2 DUP2 PUSH2 0x32E ADD MSTORE DUP2 DUP2 PUSH2 0x27D4 ADD MSTORE DUP2 DUP2 PUSH2 0x288B ADD MSTORE DUP2 DUP2 PUSH2 0x28C7 ADD MSTORE DUP2 DUP2 PUSH2 0x2933 ADD MSTORE PUSH2 0x295A ADD MSTORE PUSH2 0x3225 PUSH0 RETURN INVALID PUSH1 0x80 PUSH1 0x40 MSTORE PUSH1 0x4 CALLDATASIZE LT PUSH2 0x283 JUMPI PUSH0 CALLDATALOAD PUSH1 0xE0 SHR DUP1 PUSH4 0x664A1AD6 GT PUSH2 0x155 JUMPI DUP1 PUSH4 0xC49B9A80 GT PUSH2 0xBE JUMPI DUP1 PUSH4 0xE1EAF3BB GT PUSH2 0x78 JUMPI DUP1 PUSH4 0xE1EAF3BB EQ PUSH2 0x804 JUMPI DUP1 PUSH4 0xEA204636 EQ PUSH2 0x819 JUMPI DUP1 PUSH4 0xEA2F0B37 EQ PUSH2 0x82E JUMPI DUP1 PUSH4 0xEA7DB9E5 EQ PUSH2 0x84D JUMPI DUP1 PUSH4 0xEB91E651 EQ PUSH2 0x86C JUMPI DUP1 PUSH4 0xF2FDE38B EQ PUSH2 0x88B JUMPI PUSH0 DUP1 REVERT JUMPDEST DUP1 PUSH4 0xC49B9A80 EQ PUSH2 0x720 JUMPI DUP1 PUSH4 0xD621E813 EQ PUSH2 0x73F JUMPI DUP1 PUSH4 0xD7D7442F EQ PUSH2 0x75E JUMPI DUP1 PUSH4 0xDBAC26E9 EQ PUSH2 0x77D JUMPI DUP1 PUSH4 0xDD62ED3E EQ PUSH2 0x7AB JUMPI DUP1 PUSH4 0xE1662ED3 EQ PUSH2 0x7EF JUMPI PUSH0 DUP1 REVERT JUMPDEST DUP1 PUSH4 0x95D89B41 GT PUSH2 0x10F JUMPI DUP1 PUSH4 0x95D89B41 EQ PUSH2 0x664 JUMPI DUP1 PUSH4 0x9CFE42DA EQ PUSH2 0x68F JUMPI DUP1 PUSH4 0xA457C2D7 EQ PUSH2 0x6AE JUMPI DUP1 PUSH4 0xA9059CBB EQ PUSH2 0x6CD JUMPI DUP1 PUSH4 0xB618A70D EQ PUSH2 0x6EC JUMPI DUP1 PUSH4 0xBDF024EC EQ PUSH2 0x70B JUMPI PUSH0 DUP1 REVERT JUMPDEST DUP1 PUSH4 0x664A1AD6 EQ PUSH2 0x5A0 JUMPI DUP1 PUSH4 0x67243482 EQ PUSH2 0x5BF JUMPI DUP1 PUSH4 0x70A08231 EQ PUSH2 0x5DE JUMPI DUP1 PUSH4 0x715018A6 EQ PUSH2 0x5FD JUMPI DUP1 PUSH4 0x88F82020 EQ PUSH2 0x611 JUMPI DUP1 PUSH4 0x8DA5CB5B EQ PUSH2 0x648 JUMPI PUSH0 DUP1 REVERT JUMPDEST DUP1 PUSH4 0x3685D419 GT PUSH2 0x1F7 JUMPI DUP1 PUSH4 0x49BD5A5E GT PUSH2 0x1B1 JUMPI DUP1 PUSH4 0x49BD5A5E EQ PUSH2 0x4C5 JUMPI DUP1 PUSH4 0x4A74BB02 EQ PUSH2 0x4F8 JUMPI DUP1 PUSH4 0x52390C02 EQ PUSH2 0x516 JUMPI DUP1 PUSH4 0x5252A228 EQ PUSH2 0x535 JUMPI DUP1 PUSH4 0x5342ACB4 EQ PUSH2 0x54A JUMPI DUP1 PUSH4 0x55CE3B9A EQ PUSH2 0x581 JUMPI PUSH0 DUP1 REVERT JUMPDEST DUP1 PUSH4 0x3685D419 EQ PUSH2 0x415 JUMPI DUP1 PUSH4 0x39509351 EQ PUSH2 0x434 JUMPI DUP1 PUSH4 0x3BD5D173 EQ PUSH2 0x453 JUMPI DUP1 PUSH4 0x437823EC EQ PUSH2 0x472 JUMPI DUP1 PUSH4 0x4549B039 EQ PUSH2 0x491 JUMPI DUP1 PUSH4 0x463DB7DD EQ PUSH2 0x4B0 JUMPI PUSH0 DUP1 REVERT JUMPDEST DUP1 PUSH4 0x23B872DD GT PUSH2 0x248 JUMPI DUP1 PUSH4 0x23B872DD EQ PUSH2 0x37C JUMPI DUP1 PUSH4 0x281D9A7A EQ PUSH2 0x39B JUMPI DUP1 PUSH4 0x293230B8 EQ PUSH2 0x3B0 JUMPI DUP1 PUSH4 0x2D5624ED EQ PUSH2 0x3C6 JUMPI DUP1 PUSH4 0x2D838119 EQ PUSH2 0x3DB JUMPI DUP1 PUSH4 0x313CE567 EQ PUSH2 0x3FA JUMPI PUSH0 DUP1 REVERT JUMPDEST DUP1 PUSH4 0x6FDDE03 EQ PUSH2 0x28E JUMPI DUP1 PUSH4 0x95EA7B3 EQ PUSH2 0x2D0 JUMPI DUP1 PUSH4 0x13114A9D EQ PUSH2 0x2FF JUMPI DUP1 PUSH4 0x1694505E EQ PUSH2 0x31D JUMPI DUP1 PUSH4 0x18160DDD EQ PUSH2 0x368 JUMPI PUSH0 DUP1 REVERT JUMPDEST CALLDATASIZE PUSH2 0x28A JUMPI STOP JUMPDEST PUSH0 DUP1 REVERT JUMPDEST CALLVALUE DUP1 ISZERO PUSH2 0x299 JUMPI PUSH0 DUP1 REVERT JUMPDEST POP PUSH1 0x40 DUP1 MLOAD DUP1 DUP3 ADD SWAP1 SWAP2 MSTORE PUSH1 0x8 DUP2 MSTORE PUSH8 0x4561676C65204149 PUSH1 0xC0 SHL PUSH1 0x20 DUP3 ADD MSTORE JUMPDEST PUSH1 0x40 MLOAD PUSH2 0x2C7 SWAP2 SWAP1 PUSH2 0x2CD7 JUMP JUMPDEST PUSH1 0x40 MLOAD DUP1 SWAP2 SUB SWAP1 RETURN JUMPDEST CALLVALUE DUP1 ISZERO PUSH2 0x2DB JUMPI PUSH0 DUP1 REVERT JUMPDEST POP PUSH2 0x2EF PUSH2 0x2EA CALLDATASIZE PUSH1 0x4 PUSH2 0x2D3A JUMP JUMPDEST PUSH2 0x8AA JUMP JUMPDEST PUSH1 0x40 MLOAD SWAP1 ISZERO ISZERO DUP2 MSTORE PUSH1 0x20 ADD PUSH2 0x2C7 JUMP JUMPDEST CALLVALUE DUP1 ISZERO PUSH2 0x30A JUMPI PUSH0 DUP1 REVERT JUMPDEST POP PUSH1 0xB SLOAD JUMPDEST PUSH1 0x40 MLOAD SWAP1 DUP2 MSTORE PUSH1 0x20 ADD PUSH2 0x2C7 JUMP JUMPDEST CALLVALUE DUP1 ISZERO PUSH2 0x328 JUMPI PUSH0 DUP1 REVERT JUMPDEST POP PUSH2 0x350 PUSH32 0x0 DUP2 JUMP JUMPDEST PUSH1 0x40 MLOAD PUSH1 0x1 PUSH1 0x1 PUSH1 0xA0 SHL SUB SWAP1 SWAP2 AND DUP2 MSTORE PUSH1 0x20 ADD PUSH2 0x2C7 JUMP JUMPDEST CALLVALUE DUP1 ISZERO PUSH2 0x373 JUMPI PUSH0 DUP1 REVERT JUMPDEST POP PUSH1 0x9 SLOAD PUSH2 0x30F JUMP JUMPDEST CALLVALUE DUP1 ISZERO PUSH2 0x387 JUMPI PUSH0 DUP1 REVERT JUMPDEST POP PUSH2 0x2EF PUSH2 0x396 CALLDATASIZE PUSH1 0x4 PUSH2 0x2D64 JUMP JUMPDEST PUSH2 0x8C0 JUMP JUMPDEST CALLVALUE DUP1 ISZERO PUSH2 0x3A6 JUMPI PUSH0 DUP1 REVERT JUMPDEST POP PUSH2 0x30F PUSH1 0x15 SLOAD DUP2 JUMP JUMPDEST CALLVALUE DUP1 ISZERO PUSH2 0x3BB JUMPI PUSH0 DUP1 REVERT JUMPDEST POP PUSH2 0x3C4 PUSH2 0x910 JUMP JUMPDEST STOP JUMPDEST CALLVALUE DUP1 ISZERO PUSH2 0x3D1 JUMPI PUSH0 DUP1 REVERT JUMPDEST POP PUSH2 0x30F PUSH1 0x19 SLOAD DUP2 JUMP JUMPDEST CALLVALUE DUP1 ISZERO PUSH2 0x3E6 JUMPI PUSH0 DUP1 REVERT JUMPDEST POP PUSH2 0x30F PUSH2 0x3F5 CALLDATASIZE PUSH1 0x4 PUSH2 0x2DA2 JUMP JUMPDEST PUSH2 0x9F2 JUMP JUMPDEST CALLVALUE DUP1 ISZERO PUSH2 0x405 JUMPI PUSH0 DUP1 REVERT JUMPDEST POP PUSH1 0x40 MLOAD PUSH1 0x12 DUP2 MSTORE PUSH1 0x20 ADD PUSH2 0x2C7 JUMP JUMPDEST CALLVALUE DUP1 ISZERO PUSH2 0x420 JUMPI PUSH0 DUP1 REVERT JUMPDEST POP PUSH2 0x3C4 PUSH2 0x42F CALLDATASIZE PUSH1 0x4 PUSH2 0x2DB9 JUMP JUMPDEST PUSH2 0xA74 JUMP JUMPDEST CALLVALUE DUP1 ISZERO PUSH2 0x43F JUMPI PUSH0 DUP1 REVERT JUMPDEST POP PUSH2 0x2EF PUSH2 0x44E CALLDATASIZE PUSH1 0x4 PUSH2 0x2D3A JUMP JUMPDEST PUSH2 0xC56 JUMP JUMPDEST CALLVALUE DUP1 ISZERO PUSH2 0x45E JUMPI PUSH0 DUP1 REVERT JUMPDEST POP PUSH2 0x3C4 PUSH2 0x46D CALLDATASIZE PUSH1 0x4 PUSH2 0x2DA2 JUMP JUMPDEST PUSH2 0xC8C JUMP JUMPDEST CALLVALUE DUP1 ISZERO PUSH2 0x47D JUMPI PUSH0 DUP1 REVERT JUMPDEST POP PUSH2 0x3C4 PUSH2 0x48C CALLDATASIZE PUSH1 0x4 PUSH2 0x2DB9 JUMP JUMPDEST PUSH2 0xD70 JUMP JUMPDEST CALLVALUE DUP1 ISZERO PUSH2 0x49C JUMPI PUSH0 DUP1 REVERT JUMPDEST POP PUSH2 0x30F PUSH2 0x4AB CALLDATASIZE PUSH1 0x4 PUSH2 0x2DE8 JUMP JUMPDEST PUSH2 0xE54 JUMP JUMPDEST CALLVALUE DUP1 ISZERO PUSH2 0x4BB JUMPI PUSH0 DUP1 REVERT JUMPDEST POP PUSH2 0x30F PUSH1 0x17 SLOAD DUP2 JUMP JUMPDEST CALLVALUE DUP1 ISZERO PUSH2 0x4D0 JUMPI PUSH0 DUP1 REVERT JUMPDEST POP PUSH2 0x350 PUSH32 0x0 DUP2 JUMP JUMPDEST CALLVALUE DUP1 ISZERO PUSH2 0x503 JUMPI PUSH0 DUP1 REVERT JUMPDEST POP PUSH1 0xC SLOAD PUSH2 0x2EF SWAP1 PUSH2 0x100 SWAP1 DIV PUSH1 0xFF AND DUP2 JUMP JUMPDEST CALLVALUE DUP1 ISZERO PUSH2 0x521 JUMPI PUSH0 DUP1 REVERT JUMPDEST POP PUSH2 0x3C4 PUSH2 0x530 CALLDATASIZE PUSH1 0x4 PUSH2 0x2DB9 JUMP JUMPDEST PUSH2 0xED4 JUMP JUMPDEST CALLVALUE DUP1 ISZERO PUSH2 0x540 JUMPI PUSH0 DUP1 REVERT JUMPDEST POP PUSH2 0x30F PUSH1 0x12 SLOAD DUP2 JUMP JUMPDEST CALLVALUE DUP1 ISZERO PUSH2 0x555 JUMPI PUSH0 DUP1 REVERT JUMPDEST POP PUSH2 0x2EF PUSH2 0x564 CALLDATASIZE PUSH1 0x4 PUSH2 0x2DB9 JUMP JUMPDEST PUSH1 0x1 PUSH1 0x1 PUSH1 0xA0 SHL SUB AND PUSH0 SWAP1 DUP2 MSTORE PUSH1 0x6 PUSH1 0x20 MSTORE PUSH1 0x40 SWAP1 KECCAK256 SLOAD PUSH1 0xFF AND SWAP1 JUMP JUMPDEST CALLVALUE DUP1 ISZERO PUSH2 0x58C JUMPI PUSH0 DUP1 REVERT JUMPDEST POP PUSH2 0x3C4 PUSH2 0x59B CALLDATASIZE PUSH1 0x4 PUSH2 0x2DB9 JUMP JUMPDEST PUSH2 0x1051 JUMP JUMPDEST CALLVALUE DUP1 ISZERO PUSH2 0x5AB JUMPI PUSH0 DUP1 REVERT JUMPDEST POP PUSH1 0x1A SLOAD PUSH2 0x350 SWAP1 PUSH1 0x1 PUSH1 0x1 PUSH1 0xA0 SHL SUB AND DUP2 JUMP JUMPDEST CALLVALUE DUP1 ISZERO PUSH2 0x5CA JUMPI PUSH0 DUP1 REVERT JUMPDEST POP PUSH2 0x3C4 PUSH2 0x5D9 CALLDATASIZE PUSH1 0x4 PUSH2 0x2E5A JUMP JUMPDEST PUSH2 0x111E JUMP JUMPDEST CALLVALUE DUP1 ISZERO PUSH2 0x5E9 JUMPI PUSH0 DUP1 REVERT JUMPDEST POP PUSH2 0x30F PUSH2 0x5F8 CALLDATASIZE PUSH1 0x4 PUSH2 0x2DB9 JUMP JUMPDEST PUSH2 0x12A7 JUMP JUMPDEST CALLVALUE DUP1 ISZERO PUSH2 0x608 JUMPI PUSH0 DUP1 REVERT JUMPDEST POP PUSH2 0x3C4 PUSH2 0x1303 JUMP JUMPDEST CALLVALUE DUP1 ISZERO PUSH2 0x61C JUMPI PUSH0 DUP1 REVERT JUMPDEST POP PUSH2 0x2EF PUSH2 0x62B CALLDATASIZE PUSH1 0x4 PUSH2 0x2DB9 JUMP JUMPDEST PUSH1 0x1 PUSH1 0x1 PUSH1 0xA0 SHL SUB AND PUSH0 SWAP1 DUP2 MSTORE PUSH1 0x7 PUSH1 0x20 MSTORE PUSH1 0x40 SWAP1 KECCAK256 SLOAD PUSH1 0xFF AND SWAP1 JUMP JUMPDEST CALLVALUE DUP1 ISZERO PUSH2 0x653 JUMPI PUSH0 DUP1 REVERT JUMPDEST POP PUSH0 SLOAD PUSH1 0x1 PUSH1 0x1 PUSH1 0xA0 SHL SUB AND PUSH2 0x350 JUMP JUMPDEST CALLVALUE DUP1 ISZERO PUSH2 0x66F JUMPI PUSH0 DUP1 REVERT JUMPDEST POP PUSH1 0x40 DUP1 MLOAD DUP1 DUP3 ADD SWAP1 SWAP2 MSTORE PUSH1 0x3 DUP2 MSTORE PUSH3 0x454149 PUSH1 0xE8 SHL PUSH1 0x20 DUP3 ADD MSTORE PUSH2 0x2BA JUMP JUMPDEST CALLVALUE DUP1 ISZERO PUSH2 0x69A JUMPI PUSH0 DUP1 REVERT JUMPDEST POP PUSH2 0x3C4 PUSH2 0x6A9 CALLDATASIZE PUSH1 0x4 PUSH2 0x2DB9 JUMP JUMPDEST PUSH2 0x1374 JUMP JUMPDEST CALLVALUE DUP1 ISZERO PUSH2 0x6B9 JUMPI PUSH0 DUP1 REVERT JUMPDEST POP PUSH2 0x2EF PUSH2 0x6C8 CALLDATASIZE PUSH1 0x4 PUSH2 0x2D3A JUMP JUMPDEST PUSH2 0x1458 JUMP JUMPDEST CALLVALUE DUP1 ISZERO PUSH2 0x6D8 JUMPI PUSH0 DUP1 REVERT JUMPDEST POP PUSH2 0x2EF PUSH2 0x6E7 CALLDATASIZE PUSH1 0x4 PUSH2 0x2D3A JUMP JUMPDEST PUSH2 0x148E JUMP JUMPDEST CALLVALUE DUP1 ISZERO PUSH2 0x6F7 JUMPI PUSH0 DUP1 REVERT JUMPDEST POP PUSH2 0x3C4 PUSH2 0x706 CALLDATASIZE PUSH1 0x4 PUSH2 0x2EC1 JUMP JUMPDEST PUSH2 0x149A JUMP JUMPDEST CALLVALUE DUP1 ISZERO PUSH2 0x716 JUMPI PUSH0 DUP1 REVERT JUMPDEST POP PUSH2 0x30F PUSH1 0x18 SLOAD DUP2 JUMP JUMPDEST CALLVALUE DUP1 ISZERO PUSH2 0x72B JUMPI PUSH0 DUP1 REVERT JUMPDEST POP PUSH2 0x3C4 PUSH2 0x73A CALLDATASIZE PUSH1 0x4 PUSH2 0x2EF0 JUMP JUMPDEST PUSH2 0x15AA JUMP JUMPDEST CALLVALUE DUP1 ISZERO PUSH2 0x74A JUMPI PUSH0 DUP1 REVERT JUMPDEST POP PUSH1 0xC SLOAD PUSH2 0x2EF SWAP1 PUSH3 0x10000 SWAP1 DIV PUSH1 0xFF AND DUP2 JUMP JUMPDEST CALLVALUE DUP1 ISZERO PUSH2 0x769 JUMPI PUSH0 DUP1 REVERT JUMPDEST POP PUSH2 0x3C4 PUSH2 0x778 CALLDATASIZE PUSH1 0x4 PUSH2 0x2DA2 JUMP JUMPDEST PUSH2 0x161C JUMP JUMPDEST CALLVALUE DUP1 ISZERO PUSH2 0x788 JUMPI PUSH0 DUP1 REVERT JUMPDEST POP PUSH2 0x2EF PUSH2 0x797 CALLDATASIZE PUSH1 0x4 PUSH2 0x2DB9 JUMP JUMPDEST PUSH1 0x5 PUSH1 0x20 MSTORE PUSH0 SWAP1 DUP2 MSTORE PUSH1 0x40 SWAP1 KECCAK256 SLOAD PUSH1 0xFF AND DUP2 JUMP JUMPDEST CALLVALUE DUP1 ISZERO PUSH2 0x7B6 JUMPI PUSH0 DUP1 REVERT JUMPDEST POP PUSH2 0x30F PUSH2 0x7C5 CALLDATASIZE PUSH1 0x4 PUSH2 0x2F09 JUMP JUMPDEST PUSH1 0x1 PUSH1 0x1 PUSH1 0xA0 SHL SUB SWAP2 DUP3 AND PUSH0 SWAP1 DUP2 MSTORE PUSH1 0x4 PUSH1 0x20 SWAP1 DUP2 MSTORE PUSH1 0x40 DUP1 DUP4 KECCAK256 SWAP4 SWAP1 SWAP5 AND DUP3 MSTORE SWAP2 SWAP1 SWAP2 MSTORE KECCAK256 SLOAD SWAP1 JUMP JUMPDEST CALLVALUE DUP1 ISZERO PUSH2 0x7FA JUMPI PUSH0 DUP1 REVERT JUMPDEST POP PUSH2 0x30F PUSH1 0x16 SLOAD DUP2 JUMP JUMPDEST CALLVALUE DUP1 ISZERO PUSH2 0x80F JUMPI PUSH0 DUP1 REVERT JUMPDEST POP PUSH2 0x30F PUSH1 0x13 SLOAD DUP2 JUMP JUMPDEST CALLVALUE DUP1 ISZERO PUSH2 0x824 JUMPI PUSH0 DUP1 REVERT JUMPDEST POP PUSH2 0x30F PUSH1 0x14 SLOAD DUP2 JUMP JUMPDEST CALLVALUE DUP1 ISZERO PUSH2 0x839 JUMPI PUSH0 DUP1 REVERT JUMPDEST POP PUSH2 0x3C4 PUSH2 0x848 CALLDATASIZE PUSH1 0x4 PUSH2 0x2DB9 JUMP JUMPDEST PUSH2 0x1705 JUMP JUMPDEST CALLVALUE DUP1 ISZERO PUSH2 0x858 JUMPI PUSH0 DUP1 REVERT JUMPDEST POP PUSH2 0x3C4 PUSH2 0x867 CALLDATASIZE PUSH1 0x4 PUSH2 0x2EC1 JUMP JUMPDEST PUSH2 0x17DE JUMP JUMPDEST CALLVALUE DUP1 ISZERO PUSH2 0x877 JUMPI PUSH0 DUP1 REVERT JUMPDEST POP PUSH2 0x3C4 PUSH2 0x886 CALLDATASIZE PUSH1 0x4 PUSH2 0x2DB9 JUMP JUMPDEST PUSH2 0x18E4 JUMP JUMPDEST CALLVALUE DUP1 ISZERO PUSH2 0x896 JUMPI PUSH0 DUP1 REVERT JUMPDEST POP PUSH2 0x3C4 PUSH2 0x8A5 CALLDATASIZE PUSH1 0x4 PUSH2 0x2DB9 JUMP JUMPDEST PUSH2 0x19C4 JUMP JUMPDEST PUSH0 PUSH2 0x8B6 CALLER DUP5 DUP5 PUSH2 0x1AAB JUMP JUMPDEST POP PUSH1 0x1 JUMPDEST SWAP3 SWAP2 POP POP JUMP JUMPDEST PUSH0 PUSH2 0x8CC DUP5 DUP5 DUP5 PUSH2 0x1BCE JUMP JUMPDEST PUSH1 0x1 PUSH1 0x1 PUSH1 0xA0 SHL SUB DUP5 AND PUSH0 SWAP1 DUP2 MSTORE PUSH1 0x4 PUSH1 0x20 SWAP1 DUP2 MSTORE PUSH1 0x40 DUP1 DUP4 KECCAK256 CALLER DUP1 DUP6 MSTORE SWAP3 MSTORE SWAP1 SWAP2 KECCAK256 SLOAD PUSH2 0x906 SWAP2 DUP7 SWAP2 PUSH2 0x901 SWAP1 DUP7 SWAP1 PUSH2 0x2F54 JUMP JUMPDEST PUSH2 0x1AAB JUMP JUMPDEST POP PUSH1 0x1 SWAP4 SWAP3 POP POP POP JUMP JUMPDEST PUSH0 SLOAD PUSH1 0x1 PUSH1 0x1 PUSH1 0xA0 SHL SUB AND CALLER EQ PUSH2 0x942 JUMPI PUSH1 0x40 MLOAD PUSH3 0x461BCD PUSH1 0xE5 SHL DUP2 MSTORE PUSH1 0x4 ADD PUSH2 0x939 SWAP1 PUSH2 0x2F67 JUMP JUMPDEST PUSH1 0x40 MLOAD DUP1 SWAP2 SUB SWAP1 REVERT JUMPDEST PUSH1 0xC SLOAD PUSH3 0x10000 SWAP1 DIV PUSH1 0xFF AND ISZERO PUSH2 0x99B JUMPI PUSH1 0x40 MLOAD PUSH3 0x461BCD PUSH1 0xE5 SHL DUP2 MSTORE PUSH1 0x20 PUSH1 0x4 DUP3 ADD MSTORE PUSH1 0x17 PUSH1 0x24 DUP3 ADD MSTORE PUSH32 0x54726164696E6720616C72656164792073746172746564000000000000000000 PUSH1 0x44 DUP3 ADD MSTORE PUSH1 0x64 ADD PUSH2 0x939 JUMP JUMPDEST PUSH1 0xC DUP1 SLOAD PUSH3 0xFF0000 NOT AND PUSH3 0x10000 SWAP1 DUP2 OR SWAP2 DUP3 SWAP1 SSTORE PUSH1 0x40 MLOAD PUSH32 0x7D7F00509DD73AC4449F698AE75CCC797895EFF5FA9D446D3DF387598A26E735 SWAP3 PUSH2 0x9E8 SWAP3 SWAP1 DIV PUSH1 0xFF AND ISZERO ISZERO DUP2 MSTORE PUSH1 0x20 ADD SWAP1 JUMP JUMPDEST PUSH1 0x40 MLOAD DUP1 SWAP2 SUB SWAP1 LOG1 JUMP JUMPDEST PUSH0 PUSH1 0xA SLOAD DUP3 GT ISZERO PUSH2 0xA58 JUMPI PUSH1 0x40 MLOAD PUSH3 0x461BCD PUSH1 0xE5 SHL DUP2 MSTORE PUSH1 0x20 PUSH1 0x4 DUP3 ADD MSTORE PUSH1 0x2A PUSH1 0x24 DUP3 ADD MSTORE PUSH32 0x416D6F756E74206D757374206265206C657373207468616E20746F74616C2072 PUSH1 0x44 DUP3 ADD MSTORE PUSH10 0x65666C656374696F6E73 PUSH1 0xB0 SHL PUSH1 0x64 DUP3 ADD MSTORE PUSH1 0x84 ADD PUSH2 0x939 JUMP JUMPDEST PUSH0 PUSH2 0xA61 PUSH2 0x1F3E JUMP JUMPDEST SWAP1 POP PUSH2 0xA6D DUP2 DUP5 PUSH2 0x2F9C JUMP JUMPDEST SWAP4 SWAP3 POP POP POP JUMP JUMPDEST PUSH0 SLOAD PUSH1 0x1 PUSH1 0x1 PUSH1 0xA0 SHL SUB AND CALLER EQ PUSH2 0xA9D JUMPI PUSH1 0x40 MLOAD PUSH3 0x461BCD PUSH1 0xE5 SHL DUP2 MSTORE PUSH1 0x4 ADD PUSH2 0x939 SWAP1 PUSH2 0x2F67 JUMP JUMPDEST PUSH1 0x1 PUSH1 0x1 PUSH1 0xA0 SHL SUB DUP2 AND PUSH0 SWAP1 DUP2 MSTORE PUSH1 0x7 PUSH1 0x20 MSTORE PUSH1 0x40 SWAP1 KECCAK256 SLOAD PUSH1 0xFF AND PUSH2 0xB04 JUMPI PUSH1 0x40 MLOAD PUSH3 0x461BCD PUSH1 0xE5 SHL DUP2 MSTORE PUSH1 0x20 PUSH1 0x4 DUP3 ADD MSTORE PUSH1 0x1B PUSH1 0x24 DUP3 ADD MSTORE PUSH32 0x4163636F756E7420697320616C726561647920496E636C756465640000000000 PUSH1 0x44 DUP3 ADD MSTORE PUSH1 0x64 ADD PUSH2 0x939 JUMP JUMPDEST PUSH0 JUMPDEST PUSH1 0x8 SLOAD DUP2 LT ISZERO PUSH2 0xC15 JUMPI DUP2 PUSH1 0x1 PUSH1 0x1 PUSH1 0xA0 SHL SUB AND PUSH1 0x8 DUP3 DUP2 SLOAD DUP2 LT PUSH2 0xB2D JUMPI PUSH2 0xB2D PUSH2 0x2FBB JUMP JUMPDEST PUSH0 SWAP2 DUP3 MSTORE PUSH1 0x20 SWAP1 SWAP2 KECCAK256 ADD SLOAD PUSH1 0x1 PUSH1 0x1 PUSH1 0xA0 SHL SUB AND SUB PUSH2 0xC0D JUMPI PUSH1 0x8 DUP1 SLOAD PUSH2 0xB56 SWAP1 PUSH1 0x1 SWAP1 PUSH2 0x2F54 JUMP JUMPDEST DUP2 SLOAD DUP2 LT PUSH2 0xB66 JUMPI PUSH2 0xB66 PUSH2 0x2FBB JUMP JUMPDEST PUSH0 SWAP2 DUP3 MSTORE PUSH1 0x20 SWAP1 SWAP2 KECCAK256 ADD SLOAD PUSH1 0x8 DUP1 SLOAD PUSH1 0x1 PUSH1 0x1 PUSH1 0xA0 SHL SUB SWAP1 SWAP3 AND SWAP2 DUP4 SWAP1 DUP2 LT PUSH2 0xB91 JUMPI PUSH2 0xB91 PUSH2 0x2FBB JUMP JUMPDEST PUSH0 SWAP2 DUP3 MSTORE PUSH1 0x20 DUP1 DUP4 KECCAK256 SWAP2 SWAP1 SWAP2 ADD DUP1 SLOAD PUSH1 0x1 PUSH1 0x1 PUSH1 0xA0 SHL SUB NOT AND PUSH1 0x1 PUSH1 0x1 PUSH1 0xA0 SHL SUB SWAP5 DUP6 AND OR SWAP1 SSTORE SWAP2 DUP5 AND DUP2 MSTORE PUSH1 0x3 DUP3 MSTORE PUSH1 0x40 DUP1 DUP3 KECCAK256 DUP3 SWAP1 SSTORE PUSH1 0x7 SWAP1 SWAP3 MSTORE KECCAK256 DUP1 SLOAD PUSH1 0xFF NOT AND SWAP1 SSTORE PUSH1 0x8 DUP1 SLOAD DUP1 PUSH2 0xBE8 JUMPI PUSH2 0xBE8 PUSH2 0x2FCF JUMP JUMPDEST PUSH0 DUP3 DUP2 MSTORE PUSH1 0x20 SWAP1 KECCAK256 DUP2 ADD PUSH0 NOT SWAP1 DUP2 ADD DUP1 SLOAD PUSH1 0x1 PUSH1 0x1 PUSH1 0xA0 SHL SUB NOT AND SWAP1 SSTORE ADD SWAP1 SSTORE PUSH2 0xC15 JUMP JUMPDEST PUSH1 0x1 ADD PUSH2 0xB06 JUMP JUMPDEST POP PUSH1 0x40 MLOAD PUSH1 0x1 PUSH1 0x1 PUSH1 0xA0 SHL SUB DUP3 AND DUP2 MSTORE PUSH32 0x47AB6B2D1F416EDEC684889DC42CD04ED7CC6C6244EDAA04C4215E1077548614 SWAP1 PUSH1 0x20 ADD JUMPDEST PUSH1 0x40 MLOAD DUP1 SWAP2 SUB SWAP1 LOG1 POP JUMP JUMPDEST CALLER PUSH0 DUP2 DUP2 MSTORE PUSH1 0x4 PUSH1 0x20 SWAP1 DUP2 MSTORE PUSH1 0x40 DUP1 DUP4 KECCAK256 PUSH1 0x1 PUSH1 0x1 PUSH1 0xA0 SHL SUB DUP8 AND DUP5 MSTORE SWAP1 SWAP2 MSTORE DUP2 KECCAK256 SLOAD SWAP1 SWAP2 PUSH2 0x8B6 SWAP2 DUP6 SWAP1 PUSH2 0x901 SWAP1 DUP7 SWAP1 PUSH2 0x2FE3 JUMP JUMPDEST CALLER PUSH0 DUP2 DUP2 MSTORE PUSH1 0x7 PUSH1 0x20 MSTORE PUSH1 0x40 SWAP1 KECCAK256 SLOAD PUSH1 0xFF AND ISZERO PUSH2 0xD00 JUMPI PUSH1 0x40 MLOAD PUSH3 0x461BCD PUSH1 0xE5 SHL DUP2 MSTORE PUSH1 0x20 PUSH1 0x4 DUP3 ADD MSTORE PUSH1 0x2C PUSH1 0x24 DUP3 ADD MSTORE PUSH32 0x4578636C75646564206164647265737365732063616E6E6F742063616C6C2074 PUSH1 0x44 DUP3 ADD MSTORE PUSH12 0x3434B990333AB731BA34B7B7 PUSH1 0xA1 SHL PUSH1 0x64 DUP3 ADD MSTORE PUSH1 0x84 ADD PUSH2 0x939 JUMP JUMPDEST PUSH0 PUSH2 0xD0A DUP4 PUSH2 0x1F5F JUMP JUMPDEST POP PUSH1 0x1 PUSH1 0x1 PUSH1 0xA0 SHL SUB DUP4 AND PUSH0 SWAP1 DUP2 MSTORE PUSH1 0x2 PUSH1 0x20 MSTORE PUSH1 0x40 SWAP1 KECCAK256 SLOAD SWAP1 SWAP2 POP PUSH2 0xD31 SWAP1 DUP3 SWAP1 PUSH2 0x2F54 JUMP JUMPDEST PUSH1 0x1 PUSH1 0x1 PUSH1 0xA0 SHL SUB DUP4 AND PUSH0 SWAP1 DUP2 MSTORE PUSH1 0x2 PUSH1 0x20 MSTORE PUSH1 0x40 SWAP1 KECCAK256 SSTORE PUSH1 0xA SLOAD PUSH2 0xD57 SWAP1 DUP3 SWAP1 PUSH2 0x2F54 JUMP JUMPDEST PUSH1 0xA SSTORE PUSH1 0xB SLOAD PUSH2 0xD68 SWAP1 DUP5 SWAP1 PUSH2 0x2FE3 JUMP JUMPDEST PUSH1 0xB SSTORE POP POP POP JUMP JUMPDEST PUSH0 SLOAD PUSH1 0x1 PUSH1 0x1 PUSH1 0xA0 SHL SUB AND CALLER EQ PUSH2 0xD99 JUMPI PUSH1 0x40 MLOAD PUSH3 0x461BCD PUSH1 0xE5 SHL DUP2 MSTORE PUSH1 0x4 ADD PUSH2 0x939 SWAP1 PUSH2 0x2F67 JUMP JUMPDEST PUSH1 0x1 PUSH1 0x1 PUSH1 0xA0 SHL SUB DUP2 AND PUSH0 SWAP1 DUP2 MSTORE PUSH1 0x6 PUSH1 0x20 MSTORE PUSH1 0x40 SWAP1 KECCAK256 SLOAD PUSH1 0xFF AND ISZERO PUSH2 0xE01 JUMPI PUSH1 0x40 MLOAD PUSH3 0x461BCD PUSH1 0xE5 SHL DUP2 MSTORE PUSH1 0x20 PUSH1 0x4 DUP3 ADD MSTORE PUSH1 0x18 PUSH1 0x24 DUP3 ADD MSTORE PUSH32 0x416C72656179206578636C756465642066726F6D206665650000000000000000 PUSH1 0x44 DUP3 ADD MSTORE PUSH1 0x64 ADD PUSH2 0x939 JUMP JUMPDEST PUSH1 0x1 PUSH1 0x1 PUSH1 0xA0 SHL SUB DUP2 AND PUSH0 DUP2 DUP2 MSTORE PUSH1 0x6 PUSH1 0x20 SWAP1 DUP2 MSTORE PUSH1 0x40 SWAP2 DUP3 SWAP1 KECCAK256 DUP1 SLOAD PUSH1 0xFF NOT AND PUSH1 0x1 OR SWAP1 SSTORE SWAP1 MLOAD SWAP2 DUP3 MSTORE PUSH32 0xF1D6512EC7550BF605A5A38910E48FB6A57938ED74A5AFA01753FA023001005C SWAP2 ADD PUSH2 0xC4B JUMP JUMPDEST PUSH0 PUSH1 0x9 SLOAD DUP4 GT ISZERO PUSH2 0xEA7 JUMPI PUSH1 0x40 MLOAD PUSH3 0x461BCD PUSH1 0xE5 SHL DUP2 MSTORE PUSH1 0x20 PUSH1 0x4 DUP3 ADD MSTORE PUSH1 0x1F PUSH1 0x24 DUP3 ADD MSTORE PUSH32 0x416D6F756E74206D757374206265206C657373207468616E20737570706C7900 PUSH1 0x44 DUP3 ADD MSTORE PUSH1 0x64 ADD PUSH2 0x939 JUMP JUMPDEST DUP2 PUSH2 0xEC0 JUMPI PUSH0 PUSH2 0xEB6 DUP5 PUSH2 0x1F5F JUMP JUMPDEST POP SWAP2 POP PUSH2 0x8BA SWAP1 POP JUMP JUMPDEST PUSH0 PUSH2 0xECA DUP5 PUSH2 0x1F5F JUMP JUMPDEST SWAP3 POP PUSH2 0x8BA SWAP2 POP POP JUMP JUMPDEST PUSH0 SLOAD PUSH1 0x1 PUSH1 0x1 PUSH1 0xA0 SHL SUB AND CALLER EQ PUSH2 0xEFD JUMPI PUSH1 0x40 MLOAD PUSH3 0x461BCD PUSH1 0xE5 SHL DUP2 MSTORE PUSH1 0x4 ADD PUSH2 0x939 SWAP1 PUSH2 0x2F67 JUMP JUMPDEST PUSH1 0x1 PUSH1 0x1 PUSH1 0xA0 SHL SUB DUP2 AND PUSH0 SWAP1 DUP2 MSTORE PUSH1 0x7 PUSH1 0x20 MSTORE PUSH1 0x40 SWAP1 KECCAK256 SLOAD PUSH1 0xFF AND ISZERO PUSH2 0xF65 JUMPI PUSH1 0x40 MLOAD PUSH3 0x461BCD PUSH1 0xE5 SHL DUP2 MSTORE PUSH1 0x20 PUSH1 0x4 DUP3 ADD MSTORE PUSH1 0x1B PUSH1 0x24 DUP3 ADD MSTORE PUSH32 0x4163636F756E7420697320616C7265616479206578636C756465640000000000 PUSH1 0x44 DUP3 ADD MSTORE PUSH1 0x64 ADD PUSH2 0x939 JUMP JUMPDEST PUSH1 0x1 PUSH1 0x1 PUSH1 0xA0 SHL SUB DUP2 AND PUSH0 SWAP1 DUP2 MSTORE PUSH1 0x2 PUSH1 0x20 MSTORE PUSH1 0x40 SWAP1 KECCAK256 SLOAD ISZERO PUSH2 0xFBC JUMPI PUSH1 0x1 PUSH1 0x1 PUSH1 0xA0 SHL SUB DUP2 AND PUSH0 SWAP1 DUP2 MSTORE PUSH1 0x2 PUSH1 0x20 MSTORE PUSH1 0x40 SWAP1 KECCAK256 SLOAD PUSH2 0xFA3 SWAP1 PUSH2 0x9F2 JUMP JUMPDEST PUSH1 0x1 PUSH1 0x1 PUSH1 0xA0 SHL SUB DUP3 AND PUSH0 SWAP1 DUP2 MSTORE PUSH1 0x3 PUSH1 0x20 MSTORE PUSH1 0x40 SWAP1 KECCAK256 SSTORE JUMPDEST PUSH1 0x1 PUSH1 0x1 PUSH1 0xA0 SHL SUB DUP2 AND PUSH0 DUP2 DUP2 MSTORE PUSH1 0x7 PUSH1 0x20 SWAP1 DUP2 MSTORE PUSH1 0x40 DUP1 DUP4 KECCAK256 DUP1 SLOAD PUSH1 0xFF NOT AND PUSH1 0x1 SWAP1 DUP2 OR SWAP1 SWAP2 SSTORE PUSH1 0x8 DUP1 SLOAD SWAP2 DUP3 ADD DUP2 SSTORE SWAP1 SWAP4 MSTORE PUSH32 0xF3F7A9FE364FAAB93B216DA50A3214154F22A0A2B415B23A84C8169E8B636EE3 SWAP1 SWAP3 ADD DUP1 SLOAD PUSH1 0x1 PUSH1 0x1 PUSH1 0xA0 SHL SUB NOT AND DUP5 OR SWAP1 SSTORE SWAP1 MLOAD SWAP2 DUP3 MSTORE PUSH32 0x110B1FBED46DEC7BC9019C3FBA97541A3D64821A824872BB7B2AD678490855BF SWAP2 ADD PUSH2 0xC4B JUMP JUMPDEST PUSH0 SLOAD PUSH1 0x1 PUSH1 0x1 PUSH1 0xA0 SHL SUB AND CALLER EQ PUSH2 0x107A JUMPI PUSH1 0x40 MLOAD PUSH3 0x461BCD PUSH1 0xE5 SHL DUP2 MSTORE PUSH1 0x4 ADD PUSH2 0x939 SWAP1 PUSH2 0x2F67 JUMP JUMPDEST PUSH1 0x1 PUSH1 0x1 PUSH1 0xA0 SHL SUB DUP2 AND PUSH2 0x10D0 JUMPI PUSH1 0x40 MLOAD PUSH3 0x461BCD PUSH1 0xE5 SHL DUP2 MSTORE PUSH1 0x20 PUSH1 0x4 DUP3 ADD MSTORE PUSH1 0x1B PUSH1 0x24 DUP3 ADD MSTORE PUSH32 0x46756E642077616C6C65742063616E206E6F74206265207A65726F0000000000 PUSH1 0x44 DUP3 ADD MSTORE PUSH1 0x64 ADD PUSH2 0x939 JUMP JUMPDEST PUSH1 0x1A DUP1 SLOAD PUSH1 0x1 PUSH1 0x1 PUSH1 0xA0 SHL SUB NOT AND PUSH1 0x1 PUSH1 0x1 PUSH1 0xA0 SHL SUB DUP4 AND SWAP1 DUP2 OR SWAP1 SWAP2 SSTORE PUSH1 0x40 MLOAD SWAP1 DUP2 MSTORE PUSH32 0x4CB53CDEE53F2D4E4E60769ADD356F6CBD911505806FD6C1EEE38F5A6B8A2574 SWAP1 PUSH1 0x20 ADD PUSH2 0xC4B JUMP JUMPDEST PUSH0 SLOAD PUSH1 0x1 PUSH1 0x1 PUSH1 0xA0 SHL SUB AND CALLER EQ PUSH2 0x1147 JUMPI PUSH1 0x40 MLOAD PUSH3 0x461BCD PUSH1 0xE5 SHL DUP2 MSTORE PUSH1 0x4 ADD PUSH2 0x939 SWAP1 PUSH2 0x2F67 JUMP JUMPDEST PUSH0 DUP4 DUP3 EQ PUSH2 0x11A8 JUMPI PUSH1 0x40 MLOAD PUSH3 0x461BCD PUSH1 0xE5 SHL DUP2 MSTORE PUSH1 0x20 PUSH1 0x4 DUP3 ADD MSTORE PUSH1 0x28 PUSH1 0x24 DUP3 ADD MSTORE PUSH32 0x4D69736D61746368206265747765656E204164647265737320616E6420746F6B PUSH1 0x44 DUP3 ADD MSTORE PUSH8 0x195B8818DBDD5B9D PUSH1 0xC2 SHL PUSH1 0x64 DUP3 ADD MSTORE PUSH1 0x84 ADD PUSH2 0x939 JUMP JUMPDEST PUSH0 JUMPDEST DUP5 DUP2 LT ISZERO PUSH2 0x11E5 JUMPI PUSH0 DUP5 DUP5 DUP4 DUP2 DUP2 LT PUSH2 0x11C5 JUMPI PUSH2 0x11C5 PUSH2 0x2FBB JUMP JUMPDEST SWAP1 POP PUSH1 0x20 MUL ADD CALLDATALOAD SWAP1 POP DUP1 DUP4 PUSH2 0x11DA SWAP2 SWAP1 PUSH2 0x2FE3 JUMP JUMPDEST SWAP3 POP POP PUSH1 0x1 ADD PUSH2 0x11AA JUMP JUMPDEST POP DUP1 PUSH2 0x11F0 CALLER PUSH2 0x12A7 JUMP JUMPDEST LT ISZERO PUSH2 0x123E JUMPI PUSH1 0x40 MLOAD PUSH3 0x461BCD PUSH1 0xE5 SHL DUP2 MSTORE PUSH1 0x20 PUSH1 0x4 DUP3 ADD MSTORE PUSH1 0x1C PUSH1 0x24 DUP3 ADD MSTORE PUSH32 0x4E6F7420656E6F75676820746F6B656E7320746F2061697264726F7000000000 PUSH1 0x44 DUP3 ADD MSTORE PUSH1 0x64 ADD PUSH2 0x939 JUMP JUMPDEST PUSH0 JUMPDEST DUP5 DUP2 LT ISZERO PUSH2 0x129F JUMPI PUSH0 DUP5 DUP5 DUP4 DUP2 DUP2 LT PUSH2 0x125B JUMPI PUSH2 0x125B PUSH2 0x2FBB JUMP JUMPDEST SWAP1 POP PUSH1 0x20 MUL ADD CALLDATALOAD SWAP1 POP PUSH2 0x1296 CALLER DUP9 DUP9 DUP6 DUP2 DUP2 LT PUSH2 0x127A JUMPI PUSH2 0x127A PUSH2 0x2FBB JUMP JUMPDEST SWAP1 POP PUSH1 0x20 MUL ADD PUSH1 0x20 DUP2 ADD SWAP1 PUSH2 0x128F SWAP2 SWAP1 PUSH2 0x2DB9 JUMP JUMPDEST DUP4 PUSH0 PUSH2 0x1F97 JUMP JUMPDEST POP PUSH1 0x1 ADD PUSH2 0x1240 JUMP JUMPDEST POP POP POP POP POP POP JUMP JUMPDEST PUSH1 0x1 PUSH1 0x1 PUSH1 0xA0 SHL SUB DUP2 AND PUSH0 SWAP1 DUP2 MSTORE PUSH1 0x7 PUSH1 0x20 MSTORE PUSH1 0x40 DUP2 KECCAK256 SLOAD PUSH1 0xFF AND ISZERO PUSH2 0x12E2 JUMPI POP PUSH1 0x1 PUSH1 0x1 PUSH1 0xA0 SHL SUB AND PUSH0 SWAP1 DUP2 MSTORE PUSH1 0x3 PUSH1 0x20 MSTORE PUSH1 0x40 SWAP1 KECCAK256 SLOAD SWAP1 JUMP JUMPDEST PUSH1 0x1 PUSH1 0x1 PUSH1 0xA0 SHL SUB DUP3 AND PUSH0 SWAP1 DUP2 MSTORE PUSH1 0x2 PUSH1 0x20 MSTORE PUSH1 0x40 SWAP1 KECCAK256 SLOAD PUSH2 0x8BA SWAP1 PUSH2 0x9F2 JUMP JUMPDEST PUSH0 SLOAD PUSH1 0x1 PUSH1 0x1 PUSH1 0xA0 SHL SUB AND CALLER EQ PUSH2 0x132C JUMPI PUSH1 0x40 MLOAD PUSH3 0x461BCD PUSH1 0xE5 SHL DUP2 MSTORE PUSH1 0x4 ADD PUSH2 0x939 SWAP1 PUSH2 0x2F67 JUMP JUMPDEST PUSH0 DUP1 SLOAD PUSH1 0x40 MLOAD PUSH1 0x1 PUSH1 0x1 PUSH1 0xA0 SHL SUB SWAP1 SWAP2 AND SWAP1 PUSH32 0x8BE0079C531659141344CD1FD0A4F28419497F9722A3DAAFE3B4186F6B6457E0 SWAP1 DUP4 SWAP1 LOG3 PUSH0 DUP1 SLOAD PUSH1 0x1 PUSH1 0x1 PUSH1 0xA0 SHL SUB NOT AND SWAP1 SSTORE JUMP JUMPDEST PUSH0 SLOAD PUSH1 0x1 PUSH1 0x1 PUSH1 0xA0 SHL SUB AND CALLER EQ PUSH2 0x139D JUMPI PUSH1 0x40 MLOAD PUSH3 0x461BCD PUSH1 0xE5 SHL DUP2 MSTORE PUSH1 0x4 ADD PUSH2 0x939 SWAP1 PUSH2 0x2F67 JUMP JUMPDEST PUSH1 0x1 PUSH1 0x1 PUSH1 0xA0 SHL SUB DUP2 AND PUSH0 SWAP1 DUP2 MSTORE PUSH1 0x5 PUSH1 0x20 MSTORE PUSH1 0x40 SWAP1 KECCAK256 SLOAD PUSH1 0xFF AND ISZERO PUSH2 0x1405 JUMPI PUSH1 0x40 MLOAD PUSH3 0x461BCD PUSH1 0xE5 SHL DUP2 MSTORE PUSH1 0x20 PUSH1 0x4 DUP3 ADD MSTORE PUSH1 0x1B PUSH1 0x24 DUP3 ADD MSTORE PUSH32 0x4163636F756E7420616C726561647920626C61636B6C69737465640000000000 PUSH1 0x44 DUP3 ADD MSTORE PUSH1 0x64 ADD PUSH2 0x939 JUMP JUMPDEST PUSH1 0x1 PUSH1 0x1 PUSH1 0xA0 SHL SUB DUP2 AND PUSH0 DUP2 DUP2 MSTORE PUSH1 0x5 PUSH1 0x20 SWAP1 DUP2 MSTORE PUSH1 0x40 SWAP2 DUP3 SWAP1 KECCAK256 DUP1 SLOAD PUSH1 0xFF NOT AND PUSH1 0x1 OR SWAP1 SSTORE SWAP1 MLOAD SWAP2 DUP3 MSTORE PUSH32 0x4E63251189D11DE41CFF7396332E25ED3C84D6C08EF82ED74BA63A95EDF8E3EF SWAP2 ADD PUSH2 0xC4B JUMP JUMPDEST CALLER PUSH0 DUP2 DUP2 MSTORE PUSH1 0x4 PUSH1 0x20 SWAP1 DUP2 MSTORE PUSH1 0x40 DUP1 DUP4 KECCAK256 PUSH1 0x1 PUSH1 0x1 PUSH1 0xA0 SHL SUB DUP8 AND DUP5 MSTORE SWAP1 SWAP2 MSTORE DUP2 KECCAK256 SLOAD SWAP1 SWAP2 PUSH2 0x8B6 SWAP2 DUP6 SWAP1 PUSH2 0x901 SWAP1 DUP7 SWAP1 PUSH2 0x2F54 JUMP JUMPDEST PUSH0 PUSH2 0x8B6 CALLER DUP5 DUP5 PUSH2 0x1BCE JUMP JUMPDEST PUSH0 SLOAD PUSH1 0x1 PUSH1 0x1 PUSH1 0xA0 SHL SUB AND CALLER EQ PUSH2 0x14C3 JUMPI PUSH1 0x40 MLOAD PUSH3 0x461BCD PUSH1 0xE5 SHL DUP2 MSTORE PUSH1 0x4 ADD PUSH2 0x939 SWAP1 PUSH2 0x2F67 JUMP JUMPDEST PUSH1 0x6 DUP5 GT ISZERO PUSH2 0x14E4 JUMPI PUSH1 0x40 MLOAD PUSH3 0x461BCD PUSH1 0xE5 SHL DUP2 MSTORE PUSH1 0x4 ADD PUSH2 0x939 SWAP1 PUSH2 0x2FF6 JUMP JUMPDEST PUSH1 0x6 DUP4 GT ISZERO PUSH2 0x1505 JUMPI PUSH1 0x40 MLOAD PUSH3 0x461BCD PUSH1 0xE5 SHL DUP2 MSTORE PUSH1 0x4 ADD PUSH2 0x939 SWAP1 PUSH2 0x3041 JUMP JUMPDEST PUSH1 0x6 DUP3 GT ISZERO PUSH2 0x1526 JUMPI PUSH1 0x40 MLOAD PUSH3 0x461BCD PUSH1 0xE5 SHL DUP2 MSTORE PUSH1 0x4 ADD PUSH2 0x939 SWAP1 PUSH2 0x3091 JUMP JUMPDEST PUSH1 0x6 DUP2 GT ISZERO PUSH2 0x1547 JUMPI PUSH1 0x40 MLOAD PUSH3 0x461BCD PUSH1 0xE5 SHL DUP2 MSTORE PUSH1 0x4 ADD PUSH2 0x939 SWAP1 PUSH2 0x30DB JUMP JUMPDEST PUSH1 0x16 DUP5 SWAP1 SSTORE PUSH1 0x17 DUP4 SWAP1 SSTORE PUSH1 0x18 DUP3 SWAP1 SSTORE PUSH1 0x19 DUP2 SWAP1 SSTORE PUSH1 0x40 DUP1 MLOAD DUP6 DUP2 MSTORE PUSH1 0x20 DUP2 ADD DUP6 SWAP1 MSTORE SWAP1 DUP2 ADD DUP4 SWAP1 MSTORE PUSH1 0x60 DUP2 ADD DUP3 SWAP1 MSTORE PUSH32 0xA987DB89F31DF6351BB1AD3D58F4E5EF54E52C1E3389622F2B38ADCF43A086AE SWAP1 PUSH1 0x80 ADD JUMPDEST PUSH1 0x40 MLOAD DUP1 SWAP2 SUB SWAP1 LOG1 POP POP POP POP JUMP JUMPDEST PUSH0 SLOAD PUSH1 0x1 PUSH1 0x1 PUSH1 0xA0 SHL SUB AND CALLER EQ PUSH2 0x15D3 JUMPI PUSH1 0x40 MLOAD PUSH3 0x461BCD PUSH1 0xE5 SHL DUP2 MSTORE PUSH1 0x4 ADD PUSH2 0x939 SWAP1 PUSH2 0x2F67 JUMP JUMPDEST PUSH1 0xC DUP1 SLOAD DUP3 ISZERO ISZERO PUSH2 0x100 MUL PUSH2 0xFF00 NOT SWAP1 SWAP2 AND OR SWAP1 SSTORE PUSH1 0x40 MLOAD PUSH32 0x53726DFCAF90650AA7EB35524F4D3220F07413C8D6CB404CC8C18BF5591BC159 SWAP1 PUSH2 0xC4B SWAP1 DUP4 ISZERO ISZERO DUP2 MSTORE PUSH1 0x20 ADD SWAP1 JUMP JUMPDEST PUSH0 SLOAD PUSH1 0x1 PUSH1 0x1 PUSH1 0xA0 SHL SUB AND CALLER EQ PUSH2 0x1645 JUMPI PUSH1 0x40 MLOAD PUSH3 0x461BCD PUSH1 0xE5 SHL DUP2 MSTORE PUSH1 0x4 ADD PUSH2 0x939 SWAP1 PUSH2 0x2F67 JUMP JUMPDEST PUSH0 DUP2 GT DUP1 ISZERO PUSH2 0x165E JUMPI POP PUSH10 0x69E10DE76676D0800000 DUP2 GT ISZERO JUMPDEST PUSH2 0x16D0 JUMPI PUSH1 0x40 MLOAD PUSH3 0x461BCD PUSH1 0xE5 SHL DUP2 MSTORE PUSH1 0x20 PUSH1 0x4 DUP3 ADD MSTORE PUSH1 0x39 PUSH1 0x24 DUP3 ADD MSTORE PUSH32 0x416D6F756E742073686F756C64206265206D6F7265207468616E207A65726F20 PUSH1 0x44 DUP3 ADD MSTORE PUSH32 0x616E64206C657373207468616E203530306B20746F6B656E7300000000000000 PUSH1 0x64 DUP3 ADD MSTORE PUSH1 0x84 ADD PUSH2 0x939 JUMP JUMPDEST PUSH1 0xD DUP2 SWAP1 SSTORE PUSH1 0x40 MLOAD DUP2 DUP2 MSTORE PUSH32 0xADFA8ECB21B6962EBCD0ADBD9AB985B7B4C5B5EB3B0DEAD683171565C7BFE171 SWAP1 PUSH1 0x20 ADD PUSH2 0xC4B JUMP JUMPDEST PUSH0 SLOAD PUSH1 0x1 PUSH1 0x1 PUSH1 0xA0 SHL SUB AND CALLER EQ PUSH2 0x172E JUMPI PUSH1 0x40 MLOAD PUSH3 0x461BCD PUSH1 0xE5 SHL DUP2 MSTORE PUSH1 0x4 ADD PUSH2 0x939 SWAP1 PUSH2 0x2F67 JUMP JUMPDEST PUSH1 0x1 PUSH1 0x1 PUSH1 0xA0 SHL SUB DUP2 AND PUSH0 SWAP1 DUP2 MSTORE PUSH1 0x6 PUSH1 0x20 MSTORE PUSH1 0x40 SWAP1 KECCAK256 SLOAD PUSH1 0xFF AND PUSH2 0x178E JUMPI PUSH1 0x40 MLOAD PUSH3 0x461BCD PUSH1 0xE5 SHL DUP2 MSTORE PUSH1 0x20 PUSH1 0x4 DUP3 ADD MSTORE PUSH1 0x16 PUSH1 0x24 DUP3 ADD MSTORE PUSH22 0x416C7265617920696E636C7564656420696E20666565 PUSH1 0x50 SHL PUSH1 0x44 DUP3 ADD MSTORE PUSH1 0x64 ADD PUSH2 0x939 JUMP JUMPDEST PUSH1 0x1 PUSH1 0x1 PUSH1 0xA0 SHL SUB DUP2 AND PUSH0 DUP2 DUP2 MSTORE PUSH1 0x6 PUSH1 0x20 SWAP1 DUP2 MSTORE PUSH1 0x40 SWAP2 DUP3 SWAP1 KECCAK256 DUP1 SLOAD PUSH1 0xFF NOT AND SWAP1 SSTORE SWAP1 MLOAD SWAP2 DUP3 MSTORE PUSH32 0x78CE087DB51D01D3E32355F2D83455D5A39F99194C8D3D1C2614893695CEE442 SWAP2 ADD PUSH2 0xC4B JUMP JUMPDEST PUSH0 SLOAD PUSH1 0x1 PUSH1 0x1 PUSH1 0xA0 SHL SUB AND CALLER EQ PUSH2 0x1807 JUMPI PUSH1 0x40 MLOAD PUSH3 0x461BCD PUSH1 0xE5 SHL DUP2 MSTORE PUSH1 0x4 ADD PUSH2 0x939 SWAP1 PUSH2 0x2F67 JUMP JUMPDEST PUSH1 0x6 DUP5 GT ISZERO PUSH2 0x1828 JUMPI PUSH1 0x40 MLOAD PUSH3 0x461BCD PUSH1 0xE5 SHL DUP2 MSTORE PUSH1 0x4 ADD PUSH2 0x939 SWAP1 PUSH2 0x2FF6 JUMP JUMPDEST PUSH1 0x6 DUP4 GT ISZERO PUSH2 0x1849 JUMPI PUSH1 0x40 MLOAD PUSH3 0x461BCD PUSH1 0xE5 SHL DUP2 MSTORE PUSH1 0x4 ADD PUSH2 0x939 SWAP1 PUSH2 0x3041 JUMP JUMPDEST PUSH1 0x6 DUP3 GT ISZERO PUSH2 0x186A JUMPI PUSH1 0x40 MLOAD PUSH3 0x461BCD PUSH1 0xE5 SHL DUP2 MSTORE PUSH1 0x4 ADD PUSH2 0x939 SWAP1 PUSH2 0x3091 JUMP JUMPDEST PUSH1 0x6 DUP2 GT ISZERO PUSH2 0x188B JUMPI PUSH1 0x40 MLOAD PUSH3 0x461BCD PUSH1 0xE5 SHL DUP2 MSTORE PUSH1 0x4 ADD PUSH2 0x939 SWAP1 PUSH2 0x30DB JUMP JUMPDEST PUSH1 0x12 DUP5 SWAP1 SSTORE PUSH1 0x13 DUP4 SWAP1 SSTORE PUSH1 0x14 DUP3 SWAP1 SSTORE PUSH1 0x15 DUP2 SWAP1 SSTORE PUSH1 0x40 DUP1 MLOAD DUP6 DUP2 MSTORE PUSH1 0x20 DUP2 ADD DUP6 SWAP1 MSTORE SWAP1 DUP2 ADD DUP4 SWAP1 MSTORE PUSH1 0x60 DUP2 ADD DUP3 SWAP1 MSTORE PUSH32 0x39DD28EC6CA271C82451A8EF3E1422D281FEBC1D63701DD827A8573ED55BD485 SWAP1 PUSH1 0x80 ADD PUSH2 0x159C JUMP JUMPDEST PUSH0 SLOAD PUSH1 0x1 PUSH1 0x1 PUSH1 0xA0 SHL SUB AND CALLER EQ PUSH2 0x190D JUMPI PUSH1 0x40 MLOAD PUSH3 0x461BCD PUSH1 0xE5 SHL DUP2 MSTORE PUSH1 0x4 ADD PUSH2 0x939 SWAP1 PUSH2 0x2F67 JUMP JUMPDEST PUSH1 0x1 PUSH1 0x1 PUSH1 0xA0 SHL SUB DUP2 AND PUSH0 SWAP1 DUP2 MSTORE PUSH1 0x5 PUSH1 0x20 MSTORE PUSH1 0x40 SWAP1 KECCAK256 SLOAD PUSH1 0xFF AND PUSH2 0x1974 JUMPI PUSH1 0x40 MLOAD PUSH3 0x461BCD PUSH1 0xE5 SHL DUP2 MSTORE PUSH1 0x20 PUSH1 0x4 DUP3 ADD MSTORE PUSH1 0x17 PUSH1 0x24 DUP3 ADD MSTORE PUSH32 0x4163636F756E74206E6F7420626C61636B6C6973746564000000000000000000 PUSH1 0x44 DUP3 ADD MSTORE PUSH1 0x64 ADD PUSH2 0x939 JUMP JUMPDEST PUSH1 0x1 PUSH1 0x1 PUSH1 0xA0 SHL SUB DUP2 AND PUSH0 DUP2 DUP2 MSTORE PUSH1 0x5 PUSH1 0x20 SWAP1 DUP2 MSTORE PUSH1 0x40 SWAP2 DUP3 SWAP1 KECCAK256 DUP1 SLOAD PUSH1 0xFF NOT AND SWAP1 SSTORE SWAP1 MLOAD SWAP2 DUP3 MSTORE PUSH32 0x2B6BF71B58B3583ADD364B3D9060EBF8019650F65F5BE35F5464B9CB3E4BA2D4 SWAP2 ADD PUSH2 0xC4B JUMP JUMPDEST PUSH0 SLOAD PUSH1 0x1 PUSH1 0x1 PUSH1 0xA0 SHL SUB AND CALLER EQ PUSH2 0x19ED JUMPI PUSH1 0x40 MLOAD PUSH3 0x461BCD PUSH1 0xE5 SHL DUP2 MSTORE PUSH1 0x4 ADD PUSH2 0x939 SWAP1 PUSH2 0x2F67 JUMP JUMPDEST PUSH1 0x1 PUSH1 0x1 PUSH1 0xA0 SHL SUB DUP2 AND PUSH2 0x1A52 JUMPI PUSH1 0x40 MLOAD PUSH3 0x461BCD PUSH1 0xE5 SHL DUP2 MSTORE PUSH1 0x20 PUSH1 0x4 DUP3 ADD MSTORE PUSH1 0x26 PUSH1 0x24 DUP3 ADD MSTORE PUSH32 0x4F776E61626C653A206E6577206F776E657220697320746865207A65726F2061 PUSH1 0x44 DUP3 ADD MSTORE PUSH6 0x646472657373 PUSH1 0xD0 SHL PUSH1 0x64 DUP3 ADD MSTORE PUSH1 0x84 ADD PUSH2 0x939 JUMP JUMPDEST PUSH0 DUP1 SLOAD PUSH1 0x40 MLOAD PUSH1 0x1 PUSH1 0x1 PUSH1 0xA0 SHL SUB DUP1 DUP6 AND SWAP4 SWAP3 AND SWAP2 PUSH32 0x8BE0079C531659141344CD1FD0A4F28419497F9722A3DAAFE3B4186F6B6457E0 SWAP2 LOG3 PUSH0 DUP1 SLOAD PUSH1 0x1 PUSH1 0x1 PUSH1 0xA0 SHL SUB NOT AND PUSH1 0x1 PUSH1 0x1 PUSH1 0xA0 SHL SUB SWAP3 SWAP1 SWAP3 AND SWAP2 SWAP1 SWAP2 OR SWAP1 SSTORE JUMP JUMPDEST PUSH1 0x1 PUSH1 0x1 PUSH1 0xA0 SHL SUB DUP4 AND PUSH2 0x1B0D JUMPI PUSH1 0x40 MLOAD PUSH3 0x461BCD PUSH1 0xE5 SHL DUP2 MSTORE PUSH1 0x20 PUSH1 0x4 DUP3 ADD MSTORE PUSH1 0x24 DUP1 DUP3 ADD MSTORE PUSH32 0x45524332303A20617070726F76652066726F6D20746865207A65726F20616464 PUSH1 0x44 DUP3 ADD MSTORE PUSH4 0x72657373 PUSH1 0xE0 SHL PUSH1 0x64 DUP3 ADD MSTORE PUSH1 0x84 ADD PUSH2 0x939 JUMP JUMPDEST PUSH1 0x1 PUSH1 0x1 PUSH1 0xA0 SHL SUB DUP3 AND PUSH2 0x1B6E JUMPI PUSH1 0x40 MLOAD PUSH3 0x461BCD PUSH1 0xE5 SHL DUP2 MSTORE PUSH1 0x20 PUSH1 0x4 DUP3 ADD MSTORE PUSH1 0x22 PUSH1 0x24 DUP3 ADD MSTORE PUSH32 0x45524332303A20617070726F766520746F20746865207A65726F206164647265 PUSH1 0x44 DUP3 ADD MSTORE PUSH2 0x7373 PUSH1 0xF0 SHL PUSH1 0x64 DUP3 ADD MSTORE PUSH1 0x84 ADD PUSH2 0x939 JUMP JUMPDEST PUSH1 0x1 PUSH1 0x1 PUSH1 0xA0 SHL SUB DUP4 DUP2 AND PUSH0 DUP2 DUP2 MSTORE PUSH1 0x4 PUSH1 0x20 SWAP1 DUP2 MSTORE PUSH1 0x40 DUP1 DUP4 KECCAK256 SWAP5 DUP8 AND DUP1 DUP5 MSTORE SWAP5 DUP3 MSTORE SWAP2 DUP3 SWAP1 KECCAK256 DUP6 SWAP1 SSTORE SWAP1 MLOAD DUP5 DUP2 MSTORE PUSH32 0x8C5BE1E5EBEC7D5BD14F71427D1E84F3DD0314C0F7B2291E5B200AC8C7C3B925 SWAP2 ADD PUSH1 0x40 MLOAD DUP1 SWAP2 SUB SWAP1 LOG3 POP POP POP JUMP JUMPDEST PUSH1 0x1 PUSH1 0x1 PUSH1 0xA0 SHL SUB DUP4 AND PUSH2 0x1C32 JUMPI PUSH1 0x40 MLOAD PUSH3 0x461BCD PUSH1 0xE5 SHL DUP2 MSTORE PUSH1 0x20 PUSH1 0x4 DUP3 ADD MSTORE PUSH1 0x25 PUSH1 0x24 DUP3 ADD MSTORE PUSH32 0x45524332303A207472616E736665722066726F6D20746865207A65726F206164 PUSH1 0x44 DUP3 ADD MSTORE PUSH5 0x6472657373 PUSH1 0xD8 SHL PUSH1 0x64 DUP3 ADD MSTORE PUSH1 0x84 ADD PUSH2 0x939 JUMP JUMPDEST PUSH1 0x1 PUSH1 0x1 PUSH1 0xA0 SHL SUB DUP3 AND PUSH2 0x1C94 JUMPI PUSH1 0x40 MLOAD PUSH3 0x461BCD PUSH1 0xE5 SHL DUP2 MSTORE PUSH1 0x20 PUSH1 0x4 DUP3 ADD MSTORE PUSH1 0x23 PUSH1 0x24 DUP3 ADD MSTORE PUSH32 0x45524332303A207472616E7366657220746F20746865207A65726F2061646472 PUSH1 0x44 DUP3 ADD MSTORE PUSH3 0x657373 PUSH1 0xE8 SHL PUSH1 0x64 DUP3 ADD MSTORE PUSH1 0x84 ADD PUSH2 0x939 JUMP JUMPDEST PUSH0 DUP2 GT PUSH2 0x1CF5 JUMPI PUSH1 0x40 MLOAD PUSH3 0x461BCD PUSH1 0xE5 SHL DUP2 MSTORE PUSH1 0x20 PUSH1 0x4 DUP3 ADD MSTORE PUSH1 0x29 PUSH1 0x24 DUP3 ADD MSTORE PUSH32 0x5472616E7366657220616D6F756E74206D757374206265206772656174657220 PUSH1 0x44 DUP3 ADD MSTORE PUSH9 0x7468616E207A65726F PUSH1 0xB8 SHL PUSH1 0x64 DUP3 ADD MSTORE PUSH1 0x84 ADD PUSH2 0x939 JUMP JUMPDEST PUSH1 0x1 PUSH1 0x1 PUSH1 0xA0 SHL SUB DUP4 AND PUSH0 SWAP1 DUP2 MSTORE PUSH1 0x5 PUSH1 0x20 MSTORE PUSH1 0x40 SWAP1 KECCAK256 SLOAD PUSH1 0xFF AND ISZERO PUSH2 0x1D55 JUMPI PUSH1 0x40 MLOAD PUSH3 0x461BCD PUSH1 0xE5 SHL DUP2 MSTORE PUSH1 0x20 PUSH1 0x4 DUP3 ADD MSTORE PUSH1 0x15 PUSH1 0x24 DUP3 ADD MSTORE PUSH21 0x14D95B99195C881A5CC8189B1858DADB1A5CDD1959 PUSH1 0x5A SHL PUSH1 0x44 DUP3 ADD MSTORE PUSH1 0x64 ADD PUSH2 0x939 JUMP JUMPDEST PUSH1 0x1 PUSH1 0x1 PUSH1 0xA0 SHL SUB DUP3 AND PUSH0 SWAP1 DUP2 MSTORE PUSH1 0x5 PUSH1 0x20 MSTORE PUSH1 0x40 SWAP1 KECCAK256 SLOAD PUSH1 0xFF AND ISZERO PUSH2 0x1DBD JUMPI PUSH1 0x40 MLOAD PUSH3 0x461BCD PUSH1 0xE5 SHL DUP2 MSTORE PUSH1 0x20 PUSH1 0x4 DUP3 ADD MSTORE PUSH1 0x18 PUSH1 0x24 DUP3 ADD MSTORE PUSH32 0x526563697069656E7420697320626C61636B6C69737465640000000000000000 PUSH1 0x44 DUP3 ADD MSTORE PUSH1 0x64 ADD PUSH2 0x939 JUMP JUMPDEST PUSH0 SLOAD PUSH1 0x1 PUSH1 0x1 PUSH1 0xA0 SHL SUB DUP5 DUP2 AND SWAP2 AND EQ DUP1 PUSH2 0x1DE4 JUMPI POP PUSH0 SLOAD PUSH1 0x1 PUSH1 0x1 PUSH1 0xA0 SHL SUB DUP4 DUP2 AND SWAP2 AND EQ JUMPDEST ISZERO PUSH2 0x1DFA JUMPI PUSH2 0x1DF5 DUP4 DUP4 DUP4 PUSH0 PUSH2 0x1F97 JUMP JUMPDEST POP POP POP JUMP JUMPDEST PUSH1 0xC SLOAD PUSH3 0x10000 SWAP1 DIV PUSH1 0xFF AND PUSH2 0x1E52 JUMPI PUSH1 0x40 MLOAD PUSH3 0x461BCD PUSH1 0xE5 SHL DUP2 MSTORE PUSH1 0x20 PUSH1 0x4 DUP3 ADD MSTORE PUSH1 0x17 PUSH1 0x24 DUP3 ADD MSTORE PUSH32 0x54726164696E67206E6F74207374617274656420796574000000000000000000 PUSH1 0x44 DUP3 ADD MSTORE PUSH1 0x64 ADD PUSH2 0x939 JUMP JUMPDEST PUSH0 PUSH2 0x1E5C ADDRESS PUSH2 0x12A7 JUMP JUMPDEST PUSH1 0xD SLOAD SWAP1 SWAP2 POP DUP2 LT DUP1 ISZERO SWAP1 DUP2 SWAP1 PUSH2 0x1E76 JUMPI POP PUSH1 0xC SLOAD PUSH1 0xFF AND ISZERO JUMPDEST DUP1 ISZERO PUSH2 0x1EB4 JUMPI POP PUSH32 0x0 PUSH1 0x1 PUSH1 0x1 PUSH1 0xA0 SHL SUB AND DUP6 PUSH1 0x1 PUSH1 0x1 PUSH1 0xA0 SHL SUB AND EQ ISZERO JUMPDEST DUP1 ISZERO PUSH2 0x1EC7 JUMPI POP PUSH1 0xC SLOAD PUSH2 0x100 SWAP1 DIV PUSH1 0xFF AND JUMPDEST ISZERO PUSH2 0x1EDA JUMPI PUSH1 0xD SLOAD SWAP2 POP PUSH2 0x1EDA DUP3 PUSH2 0x2106 JUMP JUMPDEST PUSH1 0x1 PUSH1 0x1 PUSH1 0xA0 SHL SUB DUP6 AND PUSH0 SWAP1 DUP2 MSTORE PUSH1 0x6 PUSH1 0x20 MSTORE PUSH1 0x40 SWAP1 KECCAK256 SLOAD PUSH1 0x1 SWAP1 PUSH1 0xFF AND DUP1 PUSH2 0x1F1A JUMPI POP PUSH1 0x1 PUSH1 0x1 PUSH1 0xA0 SHL SUB DUP6 AND PUSH0 SWAP1 DUP2 MSTORE PUSH1 0x6 PUSH1 0x20 MSTORE PUSH1 0x40 SWAP1 KECCAK256 SLOAD PUSH1 0xFF AND JUMPDEST ISZERO PUSH2 0x1F22 JUMPI POP PUSH0 JUMPDEST DUP1 ISZERO PUSH2 0x1F32 JUMPI PUSH2 0x1F32 DUP7 DUP7 PUSH2 0x21A1 JUMP JUMPDEST PUSH2 0x129F DUP7 DUP7 DUP7 DUP5 PUSH2 0x1F97 JUMP JUMPDEST PUSH0 DUP1 PUSH0 PUSH2 0x1F49 PUSH2 0x2234 JUMP JUMPDEST SWAP1 SWAP3 POP SWAP1 POP PUSH2 0x1F58 DUP2 DUP4 PUSH2 0x2F9C JUMP JUMPDEST SWAP3 POP POP POP SWAP1 JUMP JUMPDEST PUSH0 DUP1 PUSH0 DUP1 PUSH0 DUP1 PUSH2 0x1F6E DUP8 PUSH2 0x23A4 JUMP JUMPDEST SWAP5 POP SWAP5 POP SWAP5 POP SWAP5 POP POP PUSH0 DUP1 PUSH2 0x1F86 DUP10 DUP8 DUP8 DUP8 DUP8 PUSH2 0x241B JUMP JUMPDEST POP SWAP1 SWAP11 SWAP1 SWAP10 POP SWAP8 POP POP POP POP POP POP POP POP JUMP JUMPDEST DUP1 PUSH2 0x1FB4 JUMPI PUSH2 0x1FB4 PUSH0 PUSH1 0xE DUP2 SWAP1 SSTORE PUSH1 0xF DUP2 SWAP1 SSTORE PUSH1 0x10 DUP2 SWAP1 SSTORE PUSH1 0x11 SSTORE JUMP JUMPDEST PUSH1 0x1 PUSH1 0x1 PUSH1 0xA0 SHL SUB DUP5 AND PUSH0 SWAP1 DUP2 MSTORE PUSH1 0x7 PUSH1 0x20 MSTORE PUSH1 0x40 SWAP1 KECCAK256 SLOAD PUSH1 0xFF AND DUP1 ISZERO PUSH2 0x1FF3 JUMPI POP PUSH1 0x1 PUSH1 0x1 PUSH1 0xA0 SHL SUB DUP4 AND PUSH0 SWAP1 DUP2 MSTORE PUSH1 0x7 PUSH1 0x20 MSTORE PUSH1 0x40 SWAP1 KECCAK256 SLOAD PUSH1 0xFF AND ISZERO JUMPDEST ISZERO PUSH2 0x2008 JUMPI PUSH2 0x2003 DUP5 DUP5 DUP5 PUSH2 0x24B2 JUMP JUMPDEST PUSH2 0x2100 JUMP JUMPDEST PUSH1 0x1 PUSH1 0x1 PUSH1 0xA0 SHL SUB DUP5 AND PUSH0 SWAP1 DUP2 MSTORE PUSH1 0x7 PUSH1 0x20 MSTORE PUSH1 0x40 SWAP1 KECCAK256 SLOAD PUSH1 0xFF AND ISZERO DUP1 ISZERO PUSH2 0x2047 JUMPI POP PUSH1 0x1 PUSH1 0x1 PUSH1 0xA0 SHL SUB DUP4 AND PUSH0 SWAP1 DUP2 MSTORE PUSH1 0x7 PUSH1 0x20 MSTORE PUSH1 0x40 SWAP1 KECCAK256 SLOAD PUSH1 0xFF AND JUMPDEST ISZERO PUSH2 0x2057 JUMPI PUSH2 0x2003 DUP5 DUP5 DUP5 PUSH2 0x25F2 JUMP JUMPDEST PUSH1 0x1 PUSH1 0x1 PUSH1 0xA0 SHL SUB DUP5 AND PUSH0 SWAP1 DUP2 MSTORE PUSH1 0x7 PUSH1 0x20 MSTORE PUSH1 0x40 SWAP1 KECCAK256 SLOAD PUSH1 0xFF AND ISZERO DUP1 ISZERO PUSH2 0x2097 JUMPI POP PUSH1 0x1 PUSH1 0x1 PUSH1 0xA0 SHL SUB DUP4 AND PUSH0 SWAP1 DUP2 MSTORE PUSH1 0x7 PUSH1 0x20 MSTORE PUSH1 0x40 SWAP1 KECCAK256 SLOAD PUSH1 0xFF AND ISZERO JUMPDEST ISZERO PUSH2 0x20A7 JUMPI PUSH2 0x2003 DUP5 DUP5 DUP5 PUSH2 0x26AA JUMP JUMPDEST PUSH1 0x1 PUSH1 0x1 PUSH1 0xA0 SHL SUB DUP5 AND PUSH0 SWAP1 DUP2 MSTORE PUSH1 0x7 PUSH1 0x20 MSTORE PUSH1 0x40 SWAP1 KECCAK256 SLOAD PUSH1 0xFF AND DUP1 ISZERO PUSH2 0x20E5 JUMPI POP PUSH1 0x1 PUSH1 0x1 PUSH1 0xA0 SHL SUB DUP4 AND PUSH0 SWAP1 DUP2 MSTORE PUSH1 0x7 PUSH1 0x20 MSTORE PUSH1 0x40 SWAP1 KECCAK256 SLOAD PUSH1 0xFF AND JUMPDEST ISZERO PUSH2 0x20F5 JUMPI PUSH2 0x2003 DUP5 DUP5 DUP5 PUSH2 0x26FD JUMP JUMPDEST PUSH2 0x2100 DUP5 DUP5 DUP5 PUSH2 0x26AA JUMP JUMPDEST POP POP POP POP JUMP JUMPDEST PUSH1 0xC DUP1 SLOAD PUSH1 0xFF NOT AND PUSH1 0x1 OR SWAP1 SSTORE PUSH0 PUSH2 0x211F PUSH1 0x2 DUP4 PUSH2 0x2F9C JUMP JUMPDEST SWAP1 POP PUSH0 PUSH2 0x212C DUP3 DUP5 PUSH2 0x2F54 JUMP JUMPDEST SWAP1 POP SELFBALANCE PUSH2 0x2138 DUP4 PUSH2 0x277F JUMP JUMPDEST PUSH0 PUSH2 0x2143 DUP3 SELFBALANCE PUSH2 0x2F54 JUMP JUMPDEST SWAP1 POP PUSH2 0x214F DUP4 DUP3 PUSH2 0x292D JUMP JUMPDEST PUSH1 0x40 DUP1 MLOAD DUP6 DUP2 MSTORE PUSH1 0x20 DUP2 ADD DUP4 SWAP1 MSTORE SWAP1 DUP2 ADD DUP5 SWAP1 MSTORE PUSH32 0x17BBFB9A6069321B6DED73BD96327C9E6B7212A5CD51FF219CD61370ACAFB561 SWAP1 PUSH1 0x60 ADD PUSH1 0x40 MLOAD DUP1 SWAP2 SUB SWAP1 LOG1 POP POP PUSH1 0xC DUP1 SLOAD PUSH1 0xFF NOT AND SWAP1 SSTORE POP POP POP JUMP JUMPDEST PUSH1 0x1 PUSH1 0x1 PUSH1 0xA0 SHL SUB DUP3 DUP2 AND PUSH32 0x0 DUP3 AND SWAP1 DUP2 EQ SWAP2 DUP4 AND EQ DUP2 ISZERO PUSH2 0x21F9 JUMPI PUSH1 0x12 SLOAD PUSH1 0xE SSTORE PUSH1 0x13 SLOAD PUSH1 0xF SSTORE PUSH1 0x14 SLOAD PUSH1 0x10 SSTORE PUSH1 0x15 SLOAD PUSH1 0x11 SSTORE PUSH2 0x2100 JUMP JUMPDEST DUP1 ISZERO PUSH2 0x221C JUMPI PUSH1 0x16 SLOAD PUSH1 0xE SSTORE PUSH1 0x17 SLOAD PUSH1 0xF SSTORE PUSH1 0x18 SLOAD PUSH1 0x10 SSTORE PUSH1 0x19 SLOAD PUSH1 0x11 SSTORE PUSH2 0x2100 JUMP JUMPDEST PUSH2 0x2100 PUSH0 PUSH1 0xE DUP2 SWAP1 SSTORE PUSH1 0xF DUP2 SWAP1 SSTORE PUSH1 0x10 DUP2 SWAP1 SSTORE PUSH1 0x11 SSTORE JUMP JUMPDEST PUSH1 0xA SLOAD PUSH1 0x9 SLOAD PUSH0 SWAP2 DUP3 SWAP2 DUP3 JUMPDEST PUSH1 0x8 SLOAD DUP2 LT ISZERO PUSH2 0x2373 JUMPI DUP3 PUSH1 0x2 PUSH0 PUSH1 0x8 DUP5 DUP2 SLOAD DUP2 LT PUSH2 0x2261 JUMPI PUSH2 0x2261 PUSH2 0x2FBB JUMP JUMPDEST PUSH0 SWAP2 DUP3 MSTORE PUSH1 0x20 DUP1 DUP4 KECCAK256 SWAP1 SWAP2 ADD SLOAD PUSH1 0x1 PUSH1 0x1 PUSH1 0xA0 SHL SUB AND DUP4 MSTORE DUP3 ADD SWAP3 SWAP1 SWAP3 MSTORE PUSH1 0x40 ADD SWAP1 KECCAK256 SLOAD GT DUP1 PUSH2 0x22C9 JUMPI POP DUP2 PUSH1 0x3 PUSH0 PUSH1 0x8 DUP5 DUP2 SLOAD DUP2 LT PUSH2 0x22A3 JUMPI PUSH2 0x22A3 PUSH2 0x2FBB JUMP JUMPDEST PUSH0 SWAP2 DUP3 MSTORE PUSH1 0x20 DUP1 DUP4 KECCAK256 SWAP1 SWAP2 ADD SLOAD PUSH1 0x1 PUSH1 0x1 PUSH1 0xA0 SHL SUB AND DUP4 MSTORE DUP3 ADD SWAP3 SWAP1 SWAP3 MSTORE PUSH1 0x40 ADD SWAP1 KECCAK256 SLOAD GT JUMPDEST ISZERO PUSH2 0x22DF JUMPI PUSH1 0xA SLOAD PUSH1 0x9 SLOAD SWAP5 POP SWAP5 POP POP POP POP SWAP1 SWAP2 JUMP JUMPDEST PUSH1 0x2 PUSH0 PUSH1 0x8 DUP4 DUP2 SLOAD DUP2 LT PUSH2 0x22F5 JUMPI PUSH2 0x22F5 PUSH2 0x2FBB JUMP JUMPDEST PUSH0 SWAP2 DUP3 MSTORE PUSH1 0x20 DUP1 DUP4 KECCAK256 SWAP1 SWAP2 ADD SLOAD PUSH1 0x1 PUSH1 0x1 PUSH1 0xA0 SHL SUB AND DUP4 MSTORE DUP3 ADD SWAP3 SWAP1 SWAP3 MSTORE PUSH1 0x40 ADD SWAP1 KECCAK256 SLOAD PUSH2 0x2323 SWAP1 DUP5 PUSH2 0x2F54 JUMP JUMPDEST SWAP3 POP PUSH1 0x3 PUSH0 PUSH1 0x8 DUP4 DUP2 SLOAD DUP2 LT PUSH2 0x233B JUMPI PUSH2 0x233B PUSH2 0x2FBB JUMP JUMPDEST PUSH0 SWAP2 DUP3 MSTORE PUSH1 0x20 DUP1 DUP4 KECCAK256 SWAP1 SWAP2 ADD SLOAD PUSH1 0x1 PUSH1 0x1 PUSH1 0xA0 SHL SUB AND DUP4 MSTORE DUP3 ADD SWAP3 SWAP1 SWAP3 MSTORE PUSH1 0x40 ADD SWAP1 KECCAK256 SLOAD PUSH2 0x2369 SWAP1 DUP4 PUSH2 0x2F54 JUMP JUMPDEST SWAP2 POP PUSH1 0x1 ADD PUSH2 0x2240 JUMP JUMPDEST POP PUSH1 0x9 SLOAD PUSH1 0xA SLOAD PUSH2 0x2384 SWAP2 SWAP1 PUSH2 0x2F9C JUMP JUMPDEST DUP3 LT ISZERO PUSH2 0x239B JUMPI PUSH1 0xA SLOAD PUSH1 0x9 SLOAD SWAP4 POP SWAP4 POP POP POP SWAP1 SWAP2 JUMP JUMPDEST SWAP1 SWAP4 SWAP1 SWAP3 POP SWAP1 POP JUMP JUMPDEST PUSH0 DUP1 PUSH0 DUP1 PUSH0 DUP1 PUSH2 0x23B3 DUP8 PUSH2 0x2A2F JUMP JUMPDEST SWAP1 POP PUSH0 PUSH2 0x23BF DUP9 PUSH2 0x2A4A JUMP JUMPDEST SWAP1 POP PUSH0 PUSH2 0x23CB DUP10 PUSH2 0x2A5B JUMP JUMPDEST SWAP1 POP PUSH0 PUSH2 0x23D7 DUP11 PUSH2 0x2A6C JUMP JUMPDEST SWAP1 POP PUSH0 DUP2 DUP4 PUSH2 0x23E6 DUP7 DUP9 PUSH2 0x2FE3 JUMP JUMPDEST PUSH2 0x23F0 SWAP2 SWAP1 PUSH2 0x2FE3 JUMP JUMPDEST PUSH2 0x23FA SWAP2 SWAP1 PUSH2 0x2FE3 JUMP JUMPDEST SWAP1 POP PUSH0 PUSH2 0x2407 DUP3 DUP14 PUSH2 0x2F54 JUMP JUMPDEST SWAP13 SWAP6 SWAP12 POP SWAP4 SWAP10 POP SWAP2 SWAP8 POP SWAP6 POP SWAP2 SWAP4 POP POP POP POP JUMP JUMPDEST PUSH0 DUP1 PUSH0 DUP1 PUSH2 0x2427 PUSH2 0x1F3E JUMP JUMPDEST SWAP1 POP PUSH0 PUSH2 0x2434 DUP3 DUP12 PUSH2 0x3121 JUMP JUMPDEST SWAP1 POP PUSH0 PUSH2 0x2441 DUP4 DUP12 PUSH2 0x3121 JUMP JUMPDEST SWAP1 POP PUSH0 PUSH2 0x244E DUP5 DUP11 PUSH2 0x3121 JUMP JUMPDEST SWAP1 POP PUSH0 PUSH2 0x245B DUP6 DUP11 PUSH2 0x3121 JUMP JUMPDEST SWAP1 POP PUSH0 PUSH2 0x2468 DUP7 DUP14 PUSH2 0x3121 JUMP JUMPDEST SWAP1 POP PUSH0 DUP2 DUP4 PUSH2 0x2477 DUP7 DUP9 PUSH2 0x2FE3 JUMP JUMPDEST PUSH2 0x2481 SWAP2 SWAP1 PUSH2 0x2FE3 JUMP JUMPDEST PUSH2 0x248B SWAP2 SWAP1 PUSH2 0x2FE3 JUMP JUMPDEST SWAP1 POP PUSH0 PUSH2 0x2498 DUP3 DUP9 PUSH2 0x2F54 JUMP JUMPDEST SWAP7 SWAP11 POP SWAP6 SWAP9 POP SWAP4 SWAP7 POP POP POP POP POP POP POP SWAP6 POP SWAP6 POP SWAP6 SWAP3 POP POP POP JUMP JUMPDEST PUSH0 DUP1 PUSH0 DUP1 PUSH0 PUSH2 0x24C0 DUP7 PUSH2 0x2A7D JUMP JUMPDEST SWAP5 POP SWAP5 POP SWAP5 POP SWAP5 POP SWAP5 POP PUSH0 DUP1 PUSH0 PUSH2 0x24DA DUP10 DUP9 DUP9 DUP9 DUP9 PUSH2 0x241B JUMP JUMPDEST PUSH1 0x1 PUSH1 0x1 PUSH1 0xA0 SHL SUB DUP15 AND PUSH0 SWAP1 DUP2 MSTORE PUSH1 0x3 PUSH1 0x20 MSTORE PUSH1 0x40 SWAP1 KECCAK256 SLOAD SWAP3 SWAP6 POP SWAP1 SWAP4 POP SWAP2 POP PUSH2 0x2505 SWAP1 DUP11 SWAP1 PUSH2 0x2F54 JUMP JUMPDEST PUSH1 0x1 PUSH1 0x1 PUSH1 0xA0 SHL SUB DUP13 AND PUSH0 SWAP1 DUP2 MSTORE PUSH1 0x3 PUSH1 0x20 SWAP1 DUP2 MSTORE PUSH1 0x40 DUP1 DUP4 KECCAK256 SWAP4 SWAP1 SWAP4 SSTORE PUSH1 0x2 SWAP1 MSTORE KECCAK256 SLOAD PUSH2 0x2534 SWAP1 DUP5 SWAP1 PUSH2 0x2F54 JUMP JUMPDEST PUSH1 0x1 PUSH1 0x1 PUSH1 0xA0 SHL SUB DUP1 DUP14 AND PUSH0 SWAP1 DUP2 MSTORE PUSH1 0x2 PUSH1 0x20 MSTORE PUSH1 0x40 DUP1 DUP3 KECCAK256 SWAP4 SWAP1 SWAP4 SSTORE SWAP1 DUP13 AND DUP2 MSTORE KECCAK256 SLOAD PUSH2 0x2563 SWAP1 DUP4 SWAP1 PUSH2 0x2FE3 JUMP JUMPDEST PUSH1 0x1 PUSH1 0x1 PUSH1 0xA0 SHL SUB DUP12 AND PUSH0 SWAP1 DUP2 MSTORE PUSH1 0x2 PUSH1 0x20 MSTORE PUSH1 0x40 SWAP1 KECCAK256 SSTORE PUSH2 0x2584 DUP7 PUSH2 0x2AA7 JUMP JUMPDEST PUSH2 0x258F DUP2 DUP9 DUP7 PUSH2 0x2B60 JUMP JUMPDEST PUSH2 0x2598 DUP6 PUSH2 0x2BF0 JUMP JUMPDEST DUP10 PUSH1 0x1 PUSH1 0x1 PUSH1 0xA0 SHL SUB AND DUP12 PUSH1 0x1 PUSH1 0x1 PUSH1 0xA0 SHL SUB AND PUSH32 0xDDF252AD1BE2C89B69C2B068FC378DAA952BA7F163C4A11628F55A4DF523B3EF DUP11 PUSH1 0x40 MLOAD PUSH2 0x25DD SWAP2 DUP2 MSTORE PUSH1 0x20 ADD SWAP1 JUMP JUMPDEST PUSH1 0x40 MLOAD DUP1 SWAP2 SUB SWAP1 LOG3 POP POP POP POP POP POP POP POP POP POP POP JUMP JUMPDEST PUSH0 DUP1 PUSH0 DUP1 PUSH0 PUSH2 0x2600 DUP7 PUSH2 0x2A7D JUMP JUMPDEST SWAP5 POP SWAP5 POP SWAP5 POP SWAP5 POP SWAP5 POP PUSH0 DUP1 PUSH0 PUSH2 0x261A DUP10 DUP9 DUP9 DUP9 DUP9 PUSH2 0x241B JUMP JUMPDEST PUSH1 0x1 PUSH1 0x1 PUSH1 0xA0 SHL SUB DUP15 AND PUSH0 SWAP1 DUP2 MSTORE PUSH1 0x2 PUSH1 0x20 MSTORE PUSH1 0x40 SWAP1 KECCAK256 SLOAD SWAP3 SWAP6 POP SWAP1 SWAP4 POP SWAP2 POP PUSH2 0x2645 SWAP1 DUP5 SWAP1 PUSH2 0x2F54 JUMP JUMPDEST PUSH1 0x1 PUSH1 0x1 PUSH1 0xA0 SHL SUB DUP1 DUP14 AND PUSH0 SWAP1 DUP2 MSTORE PUSH1 0x2 PUSH1 0x20 SWAP1 DUP2 MSTORE PUSH1 0x40 DUP1 DUP4 KECCAK256 SWAP5 SWAP1 SWAP5 SSTORE SWAP2 DUP14 AND DUP2 MSTORE PUSH1 0x3 SWAP1 SWAP2 MSTORE KECCAK256 SLOAD PUSH2 0x267B SWAP1 DUP10 SWAP1 PUSH2 0x2FE3 JUMP JUMPDEST PUSH1 0x1 PUSH1 0x1 PUSH1 0xA0 SHL SUB DUP12 AND PUSH0 SWAP1 DUP2 MSTORE PUSH1 0x3 PUSH1 0x20 SWAP1 DUP2 MSTORE PUSH1 0x40 DUP1 DUP4 KECCAK256 SWAP4 SWAP1 SWAP4 SSTORE PUSH1 0x2 SWAP1 MSTORE KECCAK256 SLOAD PUSH2 0x2563 SWAP1 DUP4 SWAP1 PUSH2 0x2FE3 JUMP JUMPDEST PUSH0 DUP1 PUSH0 DUP1 PUSH0 PUSH2 0x26B8 DUP7 PUSH2 0x2A7D JUMP JUMPDEST SWAP5 POP SWAP5 POP SWAP5 POP SWAP5 POP SWAP5 POP PUSH0 DUP1 PUSH0 PUSH2 0x26D2 DUP10 DUP9 DUP9 DUP9 DUP9 PUSH2 0x241B JUMP JUMPDEST PUSH1 0x1 PUSH1 0x1 PUSH1 0xA0 SHL SUB DUP15 AND PUSH0 SWAP1 DUP2 MSTORE PUSH1 0x2 PUSH1 0x20 MSTORE PUSH1 0x40 SWAP1 KECCAK256 SLOAD SWAP3 SWAP6 POP SWAP1 SWAP4 POP SWAP2 POP PUSH2 0x2534 SWAP1 DUP5 SWAP1 PUSH2 0x2F54 JUMP JUMPDEST PUSH0 DUP1 PUSH0 DUP1 PUSH0 PUSH2 0x270B DUP7 PUSH2 0x2A7D JUMP JUMPDEST SWAP5 POP SWAP5 POP SWAP5 POP SWAP5 POP SWAP5 POP PUSH0 DUP1 PUSH0 PUSH2 0x2725 DUP10 DUP9 DUP9 DUP9 DUP9 PUSH2 0x241B JUMP JUMPDEST PUSH1 0x1 PUSH1 0x1 PUSH1 0xA0 SHL SUB DUP15 AND PUSH0 SWAP1 DUP2 MSTORE PUSH1 0x3 PUSH1 0x20 MSTORE PUSH1 0x40 SWAP1 KECCAK256 SLOAD SWAP3 SWAP6 POP SWAP1 SWAP4 POP SWAP2 POP PUSH2 0x2750 SWAP1 DUP11 SWAP1 PUSH2 0x2F54 JUMP JUMPDEST PUSH1 0x1 PUSH1 0x1 PUSH1 0xA0 SHL SUB DUP13 AND PUSH0 SWAP1 DUP2 MSTORE PUSH1 0x3 PUSH1 0x20 SWAP1 DUP2 MSTORE PUSH1 0x40 DUP1 DUP4 KECCAK256 SWAP4 SWAP1 SWAP4 SSTORE PUSH1 0x2 SWAP1 MSTORE KECCAK256 SLOAD PUSH2 0x2645 SWAP1 DUP5 SWAP1 PUSH2 0x2F54 JUMP JUMPDEST PUSH1 0x40 DUP1 MLOAD PUSH1 0x2 DUP1 DUP3 MSTORE PUSH1 0x60 DUP3 ADD DUP4 MSTORE PUSH0 SWAP3 PUSH1 0x20 DUP4 ADD SWAP1 DUP1 CALLDATASIZE DUP4 CALLDATACOPY ADD SWAP1 POP POP SWAP1 POP ADDRESS DUP2 PUSH0 DUP2 MLOAD DUP2 LT PUSH2 0x27B2 JUMPI PUSH2 0x27B2 PUSH2 0x2FBB JUMP JUMPDEST PUSH1 0x20 MUL PUSH1 0x20 ADD ADD SWAP1 PUSH1 0x1 PUSH1 0x1 PUSH1 0xA0 SHL SUB AND SWAP1 DUP2 PUSH1 0x1 PUSH1 0x1 PUSH1 0xA0 SHL SUB AND DUP2 MSTORE POP POP PUSH32 0x0 PUSH1 0x1 PUSH1 0x1 PUSH1 0xA0 SHL SUB AND PUSH4 0xAD5C4648 PUSH1 0x40 MLOAD DUP2 PUSH4 0xFFFFFFFF AND PUSH1 0xE0 SHL DUP2 MSTORE PUSH1 0x4 ADD PUSH1 0x20 PUSH1 0x40 MLOAD DUP1 DUP4 SUB DUP2 DUP7 GAS STATICCALL ISZERO DUP1 ISZERO PUSH2 0x282E JUMPI RETURNDATASIZE PUSH0 DUP1 RETURNDATACOPY RETURNDATASIZE PUSH0 REVERT JUMPDEST POP POP POP POP PUSH1 0x40 MLOAD RETURNDATASIZE PUSH1 0x1F NOT PUSH1 0x1F DUP3 ADD AND DUP3 ADD DUP1 PUSH1 0x40 MSTORE POP DUP2 ADD SWAP1 PUSH2 0x2852 SWAP2 SWAP1 PUSH2 0x3138 JUMP JUMPDEST DUP2 PUSH1 0x1 DUP2 MLOAD DUP2 LT PUSH2 0x2865 JUMPI PUSH2 0x2865 PUSH2 0x2FBB JUMP JUMPDEST PUSH1 0x20 MUL PUSH1 0x20 ADD ADD SWAP1 PUSH1 0x1 PUSH1 0x1 PUSH1 0xA0 SHL SUB AND SWAP1 DUP2 PUSH1 0x1 PUSH1 0x1 PUSH1 0xA0 SHL SUB AND DUP2 MSTORE POP POP PUSH2 0x28B0 ADDRESS PUSH32 0x0 DUP5 PUSH2 0x1AAB JUMP JUMPDEST PUSH1 0x40 MLOAD PUSH4 0x791AC947 PUSH1 0xE0 SHL DUP2 MSTORE PUSH1 0x1 PUSH1 0x1 PUSH1 0xA0 SHL SUB PUSH32 0x0 AND SWAP1 PUSH4 0x791AC947 SWAP1 PUSH2 0x2904 SWAP1 DUP6 SWAP1 PUSH0 SWAP1 DUP7 SWAP1 ADDRESS SWAP1 TIMESTAMP SWAP1 PUSH1 0x4 ADD PUSH2 0x3153 JUMP JUMPDEST PUSH0 PUSH1 0x40 MLOAD DUP1 DUP4 SUB DUP2 PUSH0 DUP8 DUP1 EXTCODESIZE ISZERO DUP1 ISZERO PUSH2 0x291B JUMPI PUSH0 DUP1 REVERT JUMPDEST POP GAS CALL ISZERO DUP1 ISZERO PUSH2 0x129F JUMPI RETURNDATASIZE PUSH0 DUP1 RETURNDATACOPY RETURNDATASIZE PUSH0 REVERT JUMPDEST PUSH2 0x2958 ADDRESS PUSH32 0x0 DUP5 PUSH2 0x1AAB JUMP JUMPDEST PUSH32 0x0 PUSH1 0x1 PUSH1 0x1 PUSH1 0xA0 SHL SUB AND PUSH4 0xF305D719 DUP3 ADDRESS DUP6 PUSH0 DUP1 PUSH2 0x299D PUSH0 SLOAD PUSH1 0x1 PUSH1 0x1 PUSH1 0xA0 SHL SUB AND SWAP1 JUMP JUMPDEST PUSH1 0x40 MLOAD PUSH1 0xE0 DUP9 SWAP1 SHL PUSH1 0x1 PUSH1 0x1 PUSH1 0xE0 SHL SUB NOT AND DUP2 MSTORE PUSH1 0x1 PUSH1 0x1 PUSH1 0xA0 SHL SUB SWAP6 DUP7 AND PUSH1 0x4 DUP3 ADD MSTORE PUSH1 0x24 DUP2 ADD SWAP5 SWAP1 SWAP5 MSTORE PUSH1 0x44 DUP5 ADD SWAP3 SWAP1 SWAP3 MSTORE PUSH1 0x64 DUP4 ADD MSTORE SWAP1 SWAP2 AND PUSH1 0x84 DUP3 ADD MSTORE TIMESTAMP PUSH1 0xA4 DUP3 ADD MSTORE PUSH1 0xC4 ADD PUSH1 0x60 PUSH1 0x40 MLOAD DUP1 DUP4 SUB DUP2 DUP6 DUP9 GAS CALL ISZERO DUP1 ISZERO PUSH2 0x2A03 JUMPI RETURNDATASIZE PUSH0 DUP1 RETURNDATACOPY RETURNDATASIZE PUSH0 REVERT JUMPDEST POP POP POP POP POP PUSH1 0x40 MLOAD RETURNDATASIZE PUSH1 0x1F NOT PUSH1 0x1F DUP3 ADD AND DUP3 ADD DUP1 PUSH1 0x40 MSTORE POP DUP2 ADD SWAP1 PUSH2 0x2A28 SWAP2 SWAP1 PUSH2 0x31C4 JUMP JUMPDEST POP POP POP POP POP JUMP JUMPDEST PUSH0 PUSH1 0x64 PUSH1 0xE SLOAD DUP4 PUSH2 0x2A40 SWAP2 SWAP1 PUSH2 0x3121 JUMP JUMPDEST PUSH2 0x8BA SWAP2 SWAP1 PUSH2 0x2F9C JUMP JUMPDEST PUSH0 PUSH1 0x64 PUSH1 0x10 SLOAD DUP4 PUSH2 0x2A40 SWAP2 SWAP1 PUSH2 0x3121 JUMP JUMPDEST PUSH0 PUSH1 0x64 PUSH1 0xF SLOAD DUP4 PUSH2 0x2A40 SWAP2 SWAP1 PUSH2 0x3121 JUMP JUMPDEST PUSH0 PUSH1 0x64 PUSH1 0x11 SLOAD DUP4 PUSH2 0x2A40 SWAP2 SWAP1 PUSH2 0x3121 JUMP JUMPDEST PUSH0 DUP1 PUSH0 DUP1 PUSH0 DUP1 PUSH0 DUP1 PUSH0 DUP1 PUSH2 0x2A90 DUP12 PUSH2 0x23A4 JUMP JUMPDEST SWAP4 SWAP16 SWAP3 SWAP15 POP SWAP1 SWAP13 POP SWAP11 POP SWAP1 SWAP9 POP SWAP7 POP POP POP POP POP POP POP JUMP JUMPDEST PUSH0 PUSH2 0x2AB0 PUSH2 0x1F3E JUMP JUMPDEST SWAP1 POP PUSH0 PUSH2 0x2ABD DUP3 DUP5 PUSH2 0x3121 JUMP JUMPDEST ADDRESS PUSH0 SWAP1 DUP2 MSTORE PUSH1 0x2 PUSH1 0x20 MSTORE PUSH1 0x40 SWAP1 KECCAK256 SLOAD SWAP1 SWAP2 POP PUSH2 0x2ADA SWAP1 DUP3 SWAP1 PUSH2 0x2FE3 JUMP JUMPDEST ADDRESS PUSH0 SWAP1 DUP2 MSTORE PUSH1 0x2 PUSH1 0x20 SWAP1 DUP2 MSTORE PUSH1 0x40 DUP1 DUP4 KECCAK256 SWAP4 SWAP1 SWAP4 SSTORE PUSH1 0x7 SWAP1 MSTORE KECCAK256 SLOAD PUSH1 0xFF AND ISZERO PUSH2 0x2B27 JUMPI ADDRESS PUSH0 SWAP1 DUP2 MSTORE PUSH1 0x3 PUSH1 0x20 MSTORE PUSH1 0x40 SWAP1 KECCAK256 SLOAD PUSH2 0x2B17 SWAP1 DUP5 SWAP1 PUSH2 0x2FE3 JUMP JUMPDEST ADDRESS PUSH0 SWAP1 DUP2 MSTORE PUSH1 0x3 PUSH1 0x20 MSTORE PUSH1 0x40 SWAP1 KECCAK256 SSTORE JUMPDEST PUSH1 0x40 MLOAD DUP4 DUP2 MSTORE PUSH32 0x3A8AB79F6D1537E459A1A8379F48A77E1FFD07DDA4B16EA97074FDAB5DD8BF34 SWAP1 PUSH1 0x20 ADD JUMPDEST PUSH1 0x40 MLOAD DUP1 SWAP2 SUB SWAP1 LOG1 POP POP POP JUMP JUMPDEST PUSH0 PUSH2 0x2B69 PUSH2 0x1F3E JUMP JUMPDEST SWAP1 POP PUSH0 PUSH2 0x2B76 DUP3 DUP5 PUSH2 0x3121 JUMP JUMPDEST SWAP1 POP DUP1 DUP6 PUSH1 0xA SLOAD PUSH2 0x2B87 SWAP2 SWAP1 PUSH2 0x2F54 JUMP JUMPDEST PUSH2 0x2B91 SWAP2 SWAP1 PUSH2 0x2F54 JUMP JUMPDEST PUSH1 0xA SSTORE PUSH1 0xB SLOAD PUSH2 0x2BA2 SWAP1 DUP6 SWAP1 PUSH2 0x2FE3 JUMP JUMPDEST PUSH1 0xB SSTORE PUSH1 0x9 SLOAD PUSH2 0x2BB3 SWAP1 DUP5 SWAP1 PUSH2 0x2F54 JUMP JUMPDEST PUSH1 0x9 SSTORE PUSH1 0x40 MLOAD DUP5 DUP2 MSTORE PUSH32 0x56B5DF500587465B57D8CE799CC562A294F136B75A13718C574D9D36BD828058 SWAP1 PUSH1 0x20 ADD PUSH1 0x40 MLOAD DUP1 SWAP2 SUB SWAP1 LOG1 POP POP POP POP POP JUMP JUMPDEST PUSH0 PUSH2 0x2BF9 PUSH2 0x1F3E JUMP JUMPDEST SWAP1 POP PUSH0 PUSH2 0x2C06 DUP3 DUP5 PUSH2 0x3121 JUMP JUMPDEST PUSH1 0x1A SLOAD PUSH1 0x1 PUSH1 0x1 PUSH1 0xA0 SHL SUB AND PUSH0 SWAP1 DUP2 MSTORE PUSH1 0x2 PUSH1 0x20 MSTORE PUSH1 0x40 SWAP1 KECCAK256 SLOAD SWAP1 SWAP2 POP PUSH2 0x2C2E SWAP1 DUP3 SWAP1 PUSH2 0x2FE3 JUMP JUMPDEST PUSH1 0x1A DUP1 SLOAD PUSH1 0x1 PUSH1 0x1 PUSH1 0xA0 SHL SUB SWAP1 DUP2 AND PUSH0 SWAP1 DUP2 MSTORE PUSH1 0x2 PUSH1 0x20 SWAP1 DUP2 MSTORE PUSH1 0x40 DUP1 DUP4 KECCAK256 SWAP6 SWAP1 SWAP6 SSTORE SWAP3 SLOAD SWAP1 SWAP2 AND DUP2 MSTORE PUSH1 0x7 SWAP1 SWAP2 MSTORE KECCAK256 SLOAD PUSH1 0xFF AND ISZERO PUSH2 0x2CA7 JUMPI PUSH1 0x1A SLOAD PUSH1 0x1 PUSH1 0x1 PUSH1 0xA0 SHL SUB AND PUSH0 SWAP1 DUP2 MSTORE PUSH1 0x3 PUSH1 0x20 MSTORE PUSH1 0x40 SWAP1 KECCAK256 SLOAD PUSH2 0x2C8C SWAP1 DUP5 SWAP1 PUSH2 0x2FE3 JUMP JUMPDEST PUSH1 0x1A SLOAD PUSH1 0x1 PUSH1 0x1 PUSH1 0xA0 SHL SUB AND PUSH0 SWAP1 DUP2 MSTORE PUSH1 0x3 PUSH1 0x20 MSTORE PUSH1 0x40 SWAP1 KECCAK256 SSTORE JUMPDEST PUSH1 0x40 MLOAD DUP4 DUP2 MSTORE PUSH32 0x7A934C407238277F8CF36DF7A2F4B5EF2EB3AA6190EEB615E32C02075A5730B0 SWAP1 PUSH1 0x20 ADD PUSH2 0x2B53 JUMP JUMPDEST PUSH0 PUSH1 0x20 DUP1 DUP4 MSTORE DUP4 MLOAD DUP1 PUSH1 0x20 DUP6 ADD MSTORE PUSH0 JUMPDEST DUP2 DUP2 LT ISZERO PUSH2 0x2D03 JUMPI DUP6 DUP2 ADD DUP4 ADD MLOAD DUP6 DUP3 ADD PUSH1 0x40 ADD MSTORE DUP3 ADD PUSH2 0x2CE7 JUMP JUMPDEST POP PUSH0 PUSH1 0x40 DUP3 DUP7 ADD ADD MSTORE PUSH1 0x40 PUSH1 0x1F NOT PUSH1 0x1F DUP4 ADD AND DUP6 ADD ADD SWAP3 POP POP POP SWAP3 SWAP2 POP POP JUMP JUMPDEST PUSH1 0x1 PUSH1 0x1 PUSH1 0xA0 SHL SUB DUP2 AND DUP2 EQ PUSH2 0x2D37 JUMPI PUSH0 DUP1 REVERT JUMPDEST POP JUMP JUMPDEST PUSH0 DUP1 PUSH1 0x40 DUP4 DUP6 SUB SLT ISZERO PUSH2 0x2D4B JUMPI PUSH0 DUP1 REVERT JUMPDEST DUP3 CALLDATALOAD PUSH2 0x2D56 DUP2 PUSH2 0x2D23 JUMP JUMPDEST SWAP5 PUSH1 0x20 SWAP4 SWAP1 SWAP4 ADD CALLDATALOAD SWAP4 POP POP POP JUMP JUMPDEST PUSH0 DUP1 PUSH0 PUSH1 0x60 DUP5 DUP7 SUB SLT ISZERO PUSH2 0x2D76 JUMPI PUSH0 DUP1 REVERT JUMPDEST DUP4 CALLDATALOAD PUSH2 0x2D81 DUP2 PUSH2 0x2D23 JUMP JUMPDEST SWAP3 POP PUSH1 0x20 DUP5 ADD CALLDATALOAD PUSH2 0x2D91 DUP2 PUSH2 0x2D23 JUMP JUMPDEST SWAP3 SWAP6 SWAP3 SWAP5 POP POP POP PUSH1 0x40 SWAP2 SWAP1 SWAP2 ADD CALLDATALOAD SWAP1 JUMP JUMPDEST PUSH0 PUSH1 0x20 DUP3 DUP5 SUB SLT ISZERO PUSH2 0x2DB2 JUMPI PUSH0 DUP1 REVERT JUMPDEST POP CALLDATALOAD SWAP2 SWAP1 POP JUMP JUMPDEST PUSH0 PUSH1 0x20 DUP3 DUP5 SUB SLT ISZERO PUSH2 0x2DC9 JUMPI PUSH0 DUP1 REVERT JUMPDEST DUP2 CALLDATALOAD PUSH2 0xA6D DUP2 PUSH2 0x2D23 JUMP JUMPDEST DUP1 CALLDATALOAD DUP1 ISZERO ISZERO DUP2 EQ PUSH2 0x2DE3 JUMPI PUSH0 DUP1 REVERT JUMPDEST SWAP2 SWAP1 POP JUMP JUMPDEST PUSH0 DUP1 PUSH1 0x40 DUP4 DUP6 SUB SLT ISZERO PUSH2 0x2DF9 JUMPI PUSH0 DUP1 REVERT JUMPDEST DUP3 CALLDATALOAD SWAP2 POP PUSH2 0x2E09 PUSH1 0x20 DUP5 ADD PUSH2 0x2DD4 JUMP JUMPDEST SWAP1 POP SWAP3 POP SWAP3 SWAP1 POP JUMP JUMPDEST PUSH0 DUP1 DUP4 PUSH1 0x1F DUP5 ADD SLT PUSH2 0x2E22 JUMPI PUSH0 DUP1 REVERT JUMPDEST POP DUP2 CALLDATALOAD PUSH8 0xFFFFFFFFFFFFFFFF DUP2 GT ISZERO PUSH2 0x2E39 JUMPI PUSH0 DUP1 REVERT JUMPDEST PUSH1 0x20 DUP4 ADD SWAP2 POP DUP4 PUSH1 0x20 DUP3 PUSH1 0x5 SHL DUP6 ADD ADD GT ISZERO PUSH2 0x2E53 JUMPI PUSH0 DUP1 REVERT JUMPDEST SWAP3 POP SWAP3 SWAP1 POP JUMP JUMPDEST PUSH0 DUP1 PUSH0 DUP1 PUSH1 0x40 DUP6 DUP8 SUB SLT ISZERO PUSH2 0x2E6D JUMPI PUSH0 DUP1 REVERT JUMPDEST DUP5 CALLDATALOAD PUSH8 0xFFFFFFFFFFFFFFFF DUP1 DUP3 GT ISZERO PUSH2 0x2E84 JUMPI PUSH0 DUP1 REVERT JUMPDEST PUSH2 0x2E90 DUP9 DUP4 DUP10 ADD PUSH2 0x2E12 JUMP JUMPDEST SWAP1 SWAP7 POP SWAP5 POP PUSH1 0x20 DUP8 ADD CALLDATALOAD SWAP2 POP DUP1 DUP3 GT ISZERO PUSH2 0x2EA8 JUMPI PUSH0 DUP1 REVERT JUMPDEST POP PUSH2 0x2EB5 DUP8 DUP3 DUP9 ADD PUSH2 0x2E12 JUMP JUMPDEST SWAP6 SWAP9 SWAP5 SWAP8 POP SWAP6 POP POP POP POP JUMP JUMPDEST PUSH0 DUP1 PUSH0 DUP1 PUSH1 0x80 DUP6 DUP8 SUB SLT ISZERO PUSH2 0x2ED4 JUMPI PUSH0 DUP1 REVERT JUMPDEST POP POP DUP3 CALLDATALOAD SWAP5 PUSH1 0x20 DUP5 ADD CALLDATALOAD SWAP5 POP PUSH1 0x40 DUP5 ADD CALLDATALOAD SWAP4 PUSH1 0x60 ADD CALLDATALOAD SWAP3 POP SWAP1 POP JUMP JUMPDEST PUSH0 PUSH1 0x20 DUP3 DUP5 SUB SLT ISZERO PUSH2 0x2F00 JUMPI PUSH0 DUP1 REVERT JUMPDEST PUSH2 0xA6D DUP3 PUSH2 0x2DD4 JUMP JUMPDEST PUSH0 DUP1 PUSH1 0x40 DUP4 DUP6 SUB SLT ISZERO PUSH2 0x2F1A JUMPI PUSH0 DUP1 REVERT JUMPDEST DUP3 CALLDATALOAD PUSH2 0x2F25 DUP2 PUSH2 0x2D23 JUMP JUMPDEST SWAP2 POP PUSH1 0x20 DUP4 ADD CALLDATALOAD PUSH2 0x2F35 DUP2 PUSH2 0x2D23 JUMP JUMPDEST DUP1 SWAP2 POP POP SWAP3 POP SWAP3 SWAP1 POP JUMP JUMPDEST PUSH4 0x4E487B71 PUSH1 0xE0 SHL PUSH0 MSTORE PUSH1 0x11 PUSH1 0x4 MSTORE PUSH1 0x24 PUSH0 REVERT JUMPDEST DUP2 DUP2 SUB DUP2 DUP2 GT ISZERO PUSH2 0x8BA JUMPI PUSH2 0x8BA PUSH2 0x2F40 JUMP JUMPDEST PUSH1 0x20 DUP1 DUP3 MSTORE DUP2 DUP2 ADD MSTORE PUSH32 0x4F776E61626C653A2063616C6C6572206973206E6F7420746865206F776E6572 PUSH1 0x40 DUP3 ADD MSTORE PUSH1 0x60 ADD SWAP1 JUMP JUMPDEST PUSH0 DUP3 PUSH2 0x2FB6 JUMPI PUSH4 0x4E487B71 PUSH1 0xE0 SHL PUSH0 MSTORE PUSH1 0x12 PUSH1 0x4 MSTORE PUSH1 0x24 PUSH0 REVERT JUMPDEST POP DIV SWAP1 JUMP JUMPDEST PUSH4 0x4E487B71 PUSH1 0xE0 SHL PUSH0 MSTORE PUSH1 0x32 PUSH1 0x4 MSTORE PUSH1 0x24 PUSH0 REVERT JUMPDEST PUSH4 0x4E487B71 PUSH1 0xE0 SHL PUSH0 MSTORE PUSH1 0x31 PUSH1 0x4 MSTORE PUSH1 0x24 PUSH0 REVERT JUMPDEST DUP1 DUP3 ADD DUP1 DUP3 GT ISZERO PUSH2 0x8BA JUMPI PUSH2 0x8BA PUSH2 0x2F40 JUMP JUMPDEST PUSH1 0x20 DUP1 DUP3 MSTORE PUSH1 0x2B SWAP1 DUP3 ADD MSTORE PUSH32 0x596F752063616E206E6F7420736574207265666C656374696F6E20746178206D PUSH1 0x40 DUP3 ADD MSTORE PUSH11 0x6F7265207468656E203625 PUSH1 0xA8 SHL PUSH1 0x60 DUP3 ADD MSTORE PUSH1 0x80 ADD SWAP1 JUMP JUMPDEST PUSH1 0x20 DUP1 DUP3 MSTORE PUSH1 0x30 SWAP1 DUP3 ADD MSTORE PUSH32 0x596F752063616E206E6F742073657420636F696E206F7065726174696F6E2020 PUSH1 0x40 DUP3 ADD MSTORE PUSH16 0x746178206D6F7265207468656E203625 PUSH1 0x80 SHL PUSH1 0x60 DUP3 ADD MSTORE PUSH1 0x80 ADD SWAP1 JUMP JUMPDEST PUSH1 0x20 DUP1 DUP3 MSTORE PUSH1 0x2A SWAP1 DUP3 ADD MSTORE PUSH32 0x596F752063616E206E6F7420736574206C697175696469747920746178206D6F PUSH1 0x40 DUP3 ADD MSTORE PUSH10 0x7265207468656E203625 PUSH1 0xB0 SHL PUSH1 0x60 DUP3 ADD MSTORE PUSH1 0x80 ADD SWAP1 JUMP JUMPDEST PUSH1 0x20 DUP1 DUP3 MSTORE PUSH1 0x26 SWAP1 DUP3 ADD MSTORE PUSH32 0x596F752063616E206E6F7420736574206275726E2020746178206D6F72652074 PUSH1 0x40 DUP3 ADD MSTORE PUSH6 0x68656E203625 PUSH1 0xD0 SHL PUSH1 0x60 DUP3 ADD MSTORE PUSH1 0x80 ADD SWAP1 JUMP JUMPDEST DUP1 DUP3 MUL DUP2 ISZERO DUP3 DUP3 DIV DUP5 EQ OR PUSH2 0x8BA JUMPI PUSH2 0x8BA PUSH2 0x2F40 JUMP JUMPDEST PUSH0 PUSH1 0x20 DUP3 DUP5 SUB SLT ISZERO PUSH2 0x3148 JUMPI PUSH0 DUP1 REVERT JUMPDEST DUP2 MLOAD PUSH2 0xA6D DUP2 PUSH2 0x2D23 JUMP JUMPDEST PUSH0 PUSH1 0xA0 DUP3 ADD DUP8 DUP4 MSTORE PUSH1 0x20 DUP8 PUSH1 0x20 DUP6 ADD MSTORE PUSH1 0xA0 PUSH1 0x40 DUP6 ADD MSTORE DUP2 DUP8 MLOAD DUP1 DUP5 MSTORE PUSH1 0xC0 DUP7 ADD SWAP2 POP PUSH1 0x20 DUP10 ADD SWAP4 POP PUSH0 JUMPDEST DUP2 DUP2 LT ISZERO PUSH2 0x31A3 JUMPI DUP5 MLOAD PUSH1 0x1 PUSH1 0x1 PUSH1 0xA0 SHL SUB AND DUP4 MSTORE SWAP4 DUP4 ADD SWAP4 SWAP2 DUP4 ADD SWAP2 PUSH1 0x1 ADD PUSH2 0x317E JUMP JUMPDEST POP POP PUSH1 0x1 PUSH1 0x1 PUSH1 0xA0 SHL SUB SWAP7 SWAP1 SWAP7 AND PUSH1 0x60 DUP6 ADD MSTORE POP POP POP PUSH1 0x80 ADD MSTORE SWAP4 SWAP3 POP POP POP JUMP JUMPDEST PUSH0 DUP1 PUSH0 PUSH1 0x60 DUP5 DUP7 SUB SLT ISZERO PUSH2 0x31D6 JUMPI PUSH0 DUP1 REVERT JUMPDEST DUP4 MLOAD SWAP3 POP PUSH1 0x20 DUP5 ADD MLOAD SWAP2 POP PUSH1 0x40 DUP5 ADD MLOAD SWAP1 POP SWAP3 POP SWAP3 POP SWAP3 JUMP INVALID LOG2 PUSH5 0x6970667358 0x22 SLT KECCAK256 DUP8 GAS PUSH31 0xF38CF86955ADBED3D10AF340F84565144A7B99F735A9D0786F7660D1C66473 PUSH16 0x6C634300081800330000000000000000 "
				},
				"gasEstimates": {
					"creation": {
						"codeDepositCost": "2567400",
						"executionCost": "infinite",
						"totalCost": "infinite"
					},
					"external": {
						"addBlacklist(address)": "30102",
						"airdrop(address[],uint256[])": "infinite",
						"allowance(address,address)": "infinite",
						"approve(address,uint256)": "24656",
						"balanceOf(address)": "infinite",
						"blacklisted(address)": "2633",
						"buyBurnTaxPer()": "2362",
						"buyCoinWalletTaxPer()": "2338",
						"buyLiquidityTaxPer()": "2360",
						"buyReflectionTax()": "2405",
						"decimals()": "332",
						"decreaseAllowance(address,uint256)": "infinite",
						"deliver(uint256)": "infinite",
						"excludeFromFee(address)": "30147",
						"excludeFromReward(address)": "infinite",
						"fundWallet()": "2382",
						"includeInFee(address)": "30114",
						"includeInReward(address)": "infinite",
						"increaseAllowance(address,uint256)": "infinite",
						"isExcludedFromFee(address)": "2673",
						"isExcludedFromReward(address)": "2674",
						"name()": "infinite",
						"owner()": "2485",
						"reflectionFromToken(uint256,bool)": "infinite",
						"removeBlacklist(address)": "30158",
						"renounceOwnership()": "30273",
						"sellBurnTaxPer()": "2406",
						"sellCoinWalletTaxPer()": "2450",
						"sellLiquidityTaxPer()": "2449",
						"sellReflectionTax()": "2449",
						"setFundWallet(address)": "27957",
						"setSwapAndLiquifyEnabled(bool)": "27799",
						"startTrading()": "29837",
						"swapAndLiquifyEnabled()": "2387",
						"symbol()": "infinite",
						"tokenFromReflection(uint256)": "infinite",
						"totalFees()": "2371",
						"totalSupply()": "2426",
						"tradeEnabled()": "2387",
						"transfer(address,uint256)": "infinite",
						"transferFrom(address,address,uint256)": "infinite",
						"transferOwnership(address)": "30543",
						"uniswapV2Pair()": "infinite",
						"uniswapV2Router()": "infinite",
						"updateBuyTaxPer(uint256,uint256,uint256,uint256)": "92978",
						"updateSellTaxPer(uint256,uint256,uint256,uint256)": "92990",
						"updateThreshold(uint256)": "25683"
					},
					"internal": {
						"_approve(address,address,uint256)": "infinite",
						"_getCurrentSupply()": "infinite",
						"_getRValues(uint256,uint256,uint256,uint256,uint256)": "infinite",
						"_getRate()": "infinite",
						"_getTValues(uint256)": "infinite",
						"_getValue(uint256)": "infinite",
						"_getValues(uint256)": "infinite",
						"_reflectFee(uint256,uint256,uint256)": "infinite",
						"_sellBuyTax(address,address)": "infinite",
						"_takeCoinFund(uint256)": "infinite",
						"_takeLiquidity(uint256)": "infinite",
						"_tokenTransfer(address,address,uint256,bool)": "infinite",
						"_transfer(address,address,uint256)": "infinite",
						"_transferBothExcluded(address,address,uint256)": "infinite",
						"_transferFromExcluded(address,address,uint256)": "infinite",
						"_transferStandard(address,address,uint256)": "infinite",
						"_transferToExcluded(address,address,uint256)": "infinite",
						"addLiquidity(uint256,uint256)": "infinite",
						"calculateBurnTax(uint256)": "infinite",
						"calculateCoinOperartionTax(uint256)": "infinite",
						"calculateLiquidityFee(uint256)": "infinite",
						"calculateTaxFee(uint256)": "infinite",
						"removeAllFee()": "infinite",
						"swapAndLiquify(uint256)": "infinite",
						"swapTokensForEth(uint256)": "infinite"
					}
				},
				"methodIdentifiers": {
					"addBlacklist(address)": "9cfe42da",
					"airdrop(address[],uint256[])": "67243482",
					"allowance(address,address)": "dd62ed3e",
					"approve(address,uint256)": "095ea7b3",
					"balanceOf(address)": "70a08231",
					"blacklisted(address)": "dbac26e9",
					"buyBurnTaxPer()": "281d9a7a",
					"buyCoinWalletTaxPer()": "e1eaf3bb",
					"buyLiquidityTaxPer()": "ea204636",
					"buyReflectionTax()": "5252a228",
					"decimals()": "313ce567",
					"decreaseAllowance(address,uint256)": "a457c2d7",
					"deliver(uint256)": "3bd5d173",
					"excludeFromFee(address)": "437823ec",
					"excludeFromReward(address)": "52390c02",
					"fundWallet()": "664a1ad6",
					"includeInFee(address)": "ea2f0b37",
					"includeInReward(address)": "3685d419",
					"increaseAllowance(address,uint256)": "39509351",
					"isExcludedFromFee(address)": "5342acb4",
					"isExcludedFromReward(address)": "88f82020",
					"name()": "06fdde03",
					"owner()": "8da5cb5b",
					"reflectionFromToken(uint256,bool)": "4549b039",
					"removeBlacklist(address)": "eb91e651",
					"renounceOwnership()": "715018a6",
					"sellBurnTaxPer()": "2d5624ed",
					"sellCoinWalletTaxPer()": "463db7dd",
					"sellLiquidityTaxPer()": "bdf024ec",
					"sellReflectionTax()": "e1662ed3",
					"setFundWallet(address)": "55ce3b9a",
					"setSwapAndLiquifyEnabled(bool)": "c49b9a80",
					"startTrading()": "293230b8",
					"swapAndLiquifyEnabled()": "4a74bb02",
					"symbol()": "95d89b41",
					"tokenFromReflection(uint256)": "2d838119",
					"totalFees()": "13114a9d",
					"totalSupply()": "18160ddd",
					"tradeEnabled()": "d621e813",
					"transfer(address,uint256)": "a9059cbb",
					"transferFrom(address,address,uint256)": "23b872dd",
					"transferOwnership(address)": "f2fde38b",
					"uniswapV2Pair()": "49bd5a5e",
					"uniswapV2Router()": "1694505e",
					"updateBuyTaxPer(uint256,uint256,uint256,uint256)": "ea7db9e5",
					"updateSellTaxPer(uint256,uint256,uint256,uint256)": "b618a70d",
					"updateThreshold(uint256)": "d7d7442f"
				}
			},
			"storageLayout": {
				"storage": [
					{
						"astId": 105,
						"contract": "EAGLEAI/EagleAI.sol:EAGLEAI",
						"label": "_owner",
						"offset": 0,
						"slot": "0",
						"type": "t_address"
					},
					{
						"astId": 107,
						"contract": "EAGLEAI/EagleAI.sol:EAGLEAI",
						"label": "_previousOwner",
						"offset": 0,
						"slot": "1",
						"type": "t_address"
					},
					{
						"astId": 680,
						"contract": "EAGLEAI/EagleAI.sol:EAGLEAI",
						"label": "_rOwned",
						"offset": 0,
						"slot": "2",
						"type": "t_mapping(t_address,t_uint256)"
					},
					{
						"astId": 684,
						"contract": "EAGLEAI/EagleAI.sol:EAGLEAI",
						"label": "_tOwned",
						"offset": 0,
						"slot": "3",
						"type": "t_mapping(t_address,t_uint256)"
					},
					{
						"astId": 690,
						"contract": "EAGLEAI/EagleAI.sol:EAGLEAI",
						"label": "_allowances",
						"offset": 0,
						"slot": "4",
						"type": "t_mapping(t_address,t_mapping(t_address,t_uint256))"
					},
					{
						"astId": 694,
						"contract": "EAGLEAI/EagleAI.sol:EAGLEAI",
						"label": "blacklisted",
						"offset": 0,
						"slot": "5",
						"type": "t_mapping(t_address,t_bool)"
					},
					{
						"astId": 698,
						"contract": "EAGLEAI/EagleAI.sol:EAGLEAI",
						"label": "_isExcludedFromFee",
						"offset": 0,
						"slot": "6",
						"type": "t_mapping(t_address,t_bool)"
					},
					{
						"astId": 702,
						"contract": "EAGLEAI/EagleAI.sol:EAGLEAI",
						"label": "_isExcluded",
						"offset": 0,
						"slot": "7",
						"type": "t_mapping(t_address,t_bool)"
					},
					{
						"astId": 705,
						"contract": "EAGLEAI/EagleAI.sol:EAGLEAI",
						"label": "_excluded",
						"offset": 0,
						"slot": "8",
						"type": "t_array(t_address)dyn_storage"
					},
					{
						"astId": 723,
						"contract": "EAGLEAI/EagleAI.sol:EAGLEAI",
						"label": "_tTotal",
						"offset": 0,
						"slot": "9",
						"type": "t_uint256"
					},
					{
						"astId": 732,
						"contract": "EAGLEAI/EagleAI.sol:EAGLEAI",
						"label": "_rTotal",
						"offset": 0,
						"slot": "10",
						"type": "t_uint256"
					},
					{
						"astId": 734,
						"contract": "EAGLEAI/EagleAI.sol:EAGLEAI",
						"label": "_tFeeTotal",
						"offset": 0,
						"slot": "11",
						"type": "t_uint256"
					},
					{
						"astId": 750,
						"contract": "EAGLEAI/EagleAI.sol:EAGLEAI",
						"label": "inSwapAndLiquify",
						"offset": 0,
						"slot": "12",
						"type": "t_bool"
					},
					{
						"astId": 753,
						"contract": "EAGLEAI/EagleAI.sol:EAGLEAI",
						"label": "swapAndLiquifyEnabled",
						"offset": 1,
						"slot": "12",
						"type": "t_bool"
					},
					{
						"astId": 755,
						"contract": "EAGLEAI/EagleAI.sol:EAGLEAI",
						"label": "tradeEnabled",
						"offset": 2,
						"slot": "12",
						"type": "t_bool"
					},
					{
						"astId": 766,
						"contract": "EAGLEAI/EagleAI.sol:EAGLEAI",
						"label": "numTokensSellToAddToLiquidity",
						"offset": 0,
						"slot": "13",
						"type": "t_uint256"
					},
					{
						"astId": 768,
						"contract": "EAGLEAI/EagleAI.sol:EAGLEAI",
						"label": "refAmt",
						"offset": 0,
						"slot": "14",
						"type": "t_uint256"
					},
					{
						"astId": 770,
						"contract": "EAGLEAI/EagleAI.sol:EAGLEAI",
						"label": "coinOperation",
						"offset": 0,
						"slot": "15",
						"type": "t_uint256"
					},
					{
						"astId": 772,
						"contract": "EAGLEAI/EagleAI.sol:EAGLEAI",
						"label": "liquidty",
						"offset": 0,
						"slot": "16",
						"type": "t_uint256"
					},
					{
						"astId": 774,
						"contract": "EAGLEAI/EagleAI.sol:EAGLEAI",
						"label": "burn",
						"offset": 0,
						"slot": "17",
						"type": "t_uint256"
					},
					{
						"astId": 777,
						"contract": "EAGLEAI/EagleAI.sol:EAGLEAI",
						"label": "buyReflectionTax",
						"offset": 0,
						"slot": "18",
						"type": "t_uint256"
					},
					{
						"astId": 780,
						"contract": "EAGLEAI/EagleAI.sol:EAGLEAI",
						"label": "buyCoinWalletTaxPer",
						"offset": 0,
						"slot": "19",
						"type": "t_uint256"
					},
					{
						"astId": 783,
						"contract": "EAGLEAI/EagleAI.sol:EAGLEAI",
						"label": "buyLiquidityTaxPer",
						"offset": 0,
						"slot": "20",
						"type": "t_uint256"
					},
					{
						"astId": 786,
						"contract": "EAGLEAI/EagleAI.sol:EAGLEAI",
						"label": "buyBurnTaxPer",
						"offset": 0,
						"slot": "21",
						"type": "t_uint256"
					},
					{
						"astId": 789,
						"contract": "EAGLEAI/EagleAI.sol:EAGLEAI",
						"label": "sellReflectionTax",
						"offset": 0,
						"slot": "22",
						"type": "t_uint256"
					},
					{
						"astId": 792,
						"contract": "EAGLEAI/EagleAI.sol:EAGLEAI",
						"label": "sellCoinWalletTaxPer",
						"offset": 0,
						"slot": "23",
						"type": "t_uint256"
					},
					{
						"astId": 795,
						"contract": "EAGLEAI/EagleAI.sol:EAGLEAI",
						"label": "sellLiquidityTaxPer",
						"offset": 0,
						"slot": "24",
						"type": "t_uint256"
					},
					{
						"astId": 798,
						"contract": "EAGLEAI/EagleAI.sol:EAGLEAI",
						"label": "sellBurnTaxPer",
						"offset": 0,
						"slot": "25",
						"type": "t_uint256"
					},
					{
						"astId": 800,
						"contract": "EAGLEAI/EagleAI.sol:EAGLEAI",
						"label": "fundWallet",
						"offset": 0,
						"slot": "26",
						"type": "t_address"
					}
				],
				"types": {
					"t_address": {
						"encoding": "inplace",
						"label": "address",
						"numberOfBytes": "20"
					},
					"t_array(t_address)dyn_storage": {
						"base": "t_address",
						"encoding": "dynamic_array",
						"label": "address[]",
						"numberOfBytes": "32"
					},
					"t_bool": {
						"encoding": "inplace",
						"label": "bool",
						"numberOfBytes": "1"
					},
					"t_mapping(t_address,t_bool)": {
						"encoding": "mapping",
						"key": "t_address",
						"label": "mapping(address => bool)",
						"numberOfBytes": "32",
						"value": "t_bool"
					},
					"t_mapping(t_address,t_mapping(t_address,t_uint256))": {
						"encoding": "mapping",
						"key": "t_address",
						"label": "mapping(address => mapping(address => uint256))",
						"numberOfBytes": "32",
						"value": "t_mapping(t_address,t_uint256)"
					},
					"t_mapping(t_address,t_uint256)": {
						"encoding": "mapping",
						"key": "t_address",
						"label": "mapping(address => uint256)",
						"numberOfBytes": "32",
						"value": "t_uint256"
					},
					"t_uint256": {
						"encoding": "inplace",
						"label": "uint256",
						"numberOfBytes": "32"
					}
				}
			},
			"userdoc": {
				"kind": "user",
				"methods": {
					"addBlacklist(address)": {
						"notice": "Adds an address to the blacklist."
					},
					"allowance(address,address)": {
						"notice": "Retrieves the remaining allowance for a spender to spend tokens on behalf of an owner."
					},
					"approve(address,uint256)": {
						"notice": "Approves a spender to spend a specified amount of tokens on behalf of the owner."
					},
					"balanceOf(address)": {
						"notice": "Retrieves the token balance of a specified account."
					},
					"constructor": {
						"notice": "Contract constructor to initialize the token."
					},
					"decimals()": {
						"notice": "Retrieves the number of decimal places used in the token representation."
					},
					"decreaseAllowance(address,uint256)": {
						"notice": "Reduces the allowance granted to a spender by a specified amount."
					},
					"deliver(uint256)": {
						"notice": "Distributes the specified amount of tokens as reflections to the reward pool."
					},
					"excludeFromFee(address)": {
						"notice": "Grants the owner the ability to exclude an address from transaction fees."
					},
					"excludeFromReward(address)": {
						"notice": "Grants the owner the ability to exclude an address from earning reflections."
					},
					"includeInFee(address)": {
						"notice": "Grants the owner the ability to include an address in transaction fees."
					},
					"includeInReward(address)": {
						"notice": "Only the owner of the contract can call this function.Requires that the specified account is currently excluded."
					},
					"increaseAllowance(address,uint256)": {
						"notice": "Increases the allowance granted to a spender by a specified amount."
					},
					"isExcludedFromReward(address)": {
						"notice": "Checks if the specified address is excluded from earning reflections."
					},
					"name()": {
						"notice": "Retrieves the name of the token."
					},
					"reflectionFromToken(uint256,bool)": {
						"notice": "Converts the given token amount to its equivalent reflection amount."
					},
					"removeBlacklist(address)": {
						"notice": "Removes an address from the blacklist."
					},
					"setSwapAndLiquifyEnabled(bool)": {
						"notice": "Allows the owner to enable or disable the swap and liquify feature."
					},
					"startTrading()": {
						"notice": "Enables trading functionality."
					},
					"symbol()": {
						"notice": "Retrieves the symbol or ticker of the token."
					},
					"tokenFromReflection(uint256)": {
						"notice": "Converts the given reflection amount to its equivalent token amount."
					},
					"totalFees()": {
						"notice": "Retrieves the total amount of fees collected in tokens."
					},
					"totalSupply()": {
						"notice": "Retrieves the total supply of tokens."
					},
					"transfer(address,uint256)": {
						"notice": "Transfers a specified amount of tokens to a recipient."
					},
					"transferFrom(address,address,uint256)": {
						"notice": "Transfers tokens from one address to another on behalf of a third-party."
					},
					"updateBuyTaxPer(uint256,uint256,uint256,uint256)": {
						"notice": "Updates the buy taxes percentages."
					},
					"updateSellTaxPer(uint256,uint256,uint256,uint256)": {
						"notice": "Updates the sell taxes percentages."
					},
					"updateThreshold(uint256)": {
						"notice": "Only the owner of the contract can call this function.Requires a positive amount for successful execution."
					}
				},
				"version": 1
			}
		}
	}
}