{
	"EAGLEAI/EagleAI.sol": {
		"EAGLEAI": {
			"abi": [
				{
					"inputs": [
						{
							"internalType": "address",
							"name": "wallet",
							"type": "address"
						}
					],
					"stateMutability": "nonpayable",
					"type": "constructor"
				},
				{
					"anonymous": false,
					"inputs": [
						{
							"indexed": false,
							"internalType": "address",
							"name": "account",
							"type": "address"
						}
					],
					"name": "AddedInBlacklist",
					"type": "event"
				},
				{
					"anonymous": false,
					"inputs": [
						{
							"indexed": false,
							"internalType": "uint256",
							"name": "totalLiquidity",
							"type": "uint256"
						}
					],
					"name": "AddedLiquidity",
					"type": "event"
				},
				{
					"anonymous": false,
					"inputs": [
						{
							"indexed": true,
							"internalType": "address",
							"name": "owner",
							"type": "address"
						},
						{
							"indexed": true,
							"internalType": "address",
							"name": "spender",
							"type": "address"
						},
						{
							"indexed": false,
							"internalType": "uint256",
							"name": "value",
							"type": "uint256"
						}
					],
					"name": "Approval",
					"type": "event"
				},
				{
					"anonymous": false,
					"inputs": [
						{
							"indexed": false,
							"internalType": "uint256",
							"name": "buyReflectionTax",
							"type": "uint256"
						},
						{
							"indexed": false,
							"internalType": "uint256",
							"name": "buyCoinWalletTaxPer",
							"type": "uint256"
						},
						{
							"indexed": false,
							"internalType": "uint256",
							"name": "buyLiquidityTaxPer",
							"type": "uint256"
						},
						{
							"indexed": false,
							"internalType": "uint256",
							"name": "buyBurnTaxPer",
							"type": "uint256"
						}
					],
					"name": "BuyTaxUpdated",
					"type": "event"
				},
				{
					"anonymous": false,
					"inputs": [
						{
							"indexed": false,
							"internalType": "uint256",
							"name": "totalCoinFund",
							"type": "uint256"
						}
					],
					"name": "CoinFund",
					"type": "event"
				},
				{
					"anonymous": false,
					"inputs": [
						{
							"indexed": false,
							"internalType": "address",
							"name": "wallet",
							"type": "address"
						}
					],
					"name": "FundWalletChange",
					"type": "event"
				},
				{
					"anonymous": false,
					"inputs": [
						{
							"indexed": false,
							"internalType": "address",
							"name": "owner",
							"type": "address"
						},
						{
							"indexed": false,
							"internalType": "address",
							"name": "newOwner",
							"type": "address"
						},
						{
							"indexed": false,
							"internalType": "uint256",
							"name": "lockTime",
							"type": "uint256"
						}
					],
					"name": "Locked",
					"type": "event"
				},
				{
					"anonymous": false,
					"inputs": [
						{
							"indexed": true,
							"internalType": "address",
							"name": "previousOwner",
							"type": "address"
						},
						{
							"indexed": true,
							"internalType": "address",
							"name": "newOwner",
							"type": "address"
						}
					],
					"name": "OwnershipTransferred",
					"type": "event"
				},
				{
					"anonymous": false,
					"inputs": [
						{
							"indexed": false,
							"internalType": "uint256",
							"name": "totalReflectFee",
							"type": "uint256"
						}
					],
					"name": "ReflectedFee",
					"type": "event"
				},
				{
					"anonymous": false,
					"inputs": [
						{
							"indexed": false,
							"internalType": "address",
							"name": "account",
							"type": "address"
						}
					],
					"name": "RemovedFromBlacklist",
					"type": "event"
				},
				{
					"anonymous": false,
					"inputs": [
						{
							"indexed": false,
							"internalType": "uint256",
							"name": "sellReflectionTax",
							"type": "uint256"
						},
						{
							"indexed": false,
							"internalType": "uint256",
							"name": "sellCoinWalletTaxPer",
							"type": "uint256"
						},
						{
							"indexed": false,
							"internalType": "uint256",
							"name": "sellLiquidityTaxPer",
							"type": "uint256"
						},
						{
							"indexed": false,
							"internalType": "uint256",
							"name": "sellBurnTaxPer",
							"type": "uint256"
						}
					],
					"name": "SellTaxUpdated",
					"type": "event"
				},
				{
					"anonymous": false,
					"inputs": [
						{
							"indexed": false,
							"internalType": "uint256",
							"name": "tokensSwapped",
							"type": "uint256"
						},
						{
							"indexed": false,
							"internalType": "uint256",
							"name": "ethReceived",
							"type": "uint256"
						},
						{
							"indexed": false,
							"internalType": "uint256",
							"name": "tokensIntoLiqudity",
							"type": "uint256"
						}
					],
					"name": "SwapAndLiquify",
					"type": "event"
				},
				{
					"anonymous": false,
					"inputs": [
						{
							"indexed": false,
							"internalType": "bool",
							"name": "enabled",
							"type": "bool"
						}
					],
					"name": "SwapAndLiquifyEnabledUpdated",
					"type": "event"
				},
				{
					"anonymous": false,
					"inputs": [
						{
							"indexed": false,
							"internalType": "uint256",
							"name": "amount",
							"type": "uint256"
						}
					],
					"name": "ThresholdUpdated",
					"type": "event"
				},
				{
					"anonymous": false,
					"inputs": [
						{
							"indexed": false,
							"internalType": "bool",
							"name": "enabled",
							"type": "bool"
						}
					],
					"name": "TradeEnabled",
					"type": "event"
				},
				{
					"anonymous": false,
					"inputs": [
						{
							"indexed": true,
							"internalType": "address",
							"name": "from",
							"type": "address"
						},
						{
							"indexed": true,
							"internalType": "address",
							"name": "to",
							"type": "address"
						},
						{
							"indexed": false,
							"internalType": "uint256",
							"name": "value",
							"type": "uint256"
						}
					],
					"name": "Transfer",
					"type": "event"
				},
				{
					"inputs": [
						{
							"internalType": "address",
							"name": "account",
							"type": "address"
						}
					],
					"name": "addBlacklist",
					"outputs": [],
					"stateMutability": "nonpayable",
					"type": "function"
				},
				{
					"inputs": [
						{
							"internalType": "address[]",
							"name": "addresses",
							"type": "address[]"
						},
						{
							"internalType": "uint256[]",
							"name": "tokens",
							"type": "uint256[]"
						}
					],
					"name": "airdrop",
					"outputs": [],
					"stateMutability": "nonpayable",
					"type": "function"
				},
				{
					"inputs": [
						{
							"internalType": "address",
							"name": "owner",
							"type": "address"
						},
						{
							"internalType": "address",
							"name": "spender",
							"type": "address"
						}
					],
					"name": "allowance",
					"outputs": [
						{
							"internalType": "uint256",
							"name": "",
							"type": "uint256"
						}
					],
					"stateMutability": "view",
					"type": "function"
				},
				{
					"inputs": [
						{
							"internalType": "address",
							"name": "spender",
							"type": "address"
						},
						{
							"internalType": "uint256",
							"name": "amount",
							"type": "uint256"
						}
					],
					"name": "approve",
					"outputs": [
						{
							"internalType": "bool",
							"name": "",
							"type": "bool"
						}
					],
					"stateMutability": "nonpayable",
					"type": "function"
				},
				{
					"inputs": [
						{
							"internalType": "address",
							"name": "account",
							"type": "address"
						}
					],
					"name": "balanceOf",
					"outputs": [
						{
							"internalType": "uint256",
							"name": "",
							"type": "uint256"
						}
					],
					"stateMutability": "view",
					"type": "function"
				},
				{
					"inputs": [
						{
							"internalType": "address",
							"name": "",
							"type": "address"
						}
					],
					"name": "blacklisted",
					"outputs": [
						{
							"internalType": "bool",
							"name": "",
							"type": "bool"
						}
					],
					"stateMutability": "view",
					"type": "function"
				},
				{
					"inputs": [],
					"name": "buyBurnTaxPer",
					"outputs": [
						{
							"internalType": "uint256",
							"name": "",
							"type": "uint256"
						}
					],
					"stateMutability": "view",
					"type": "function"
				},
				{
					"inputs": [],
					"name": "buyCoinWalletTaxPer",
					"outputs": [
						{
							"internalType": "uint256",
							"name": "",
							"type": "uint256"
						}
					],
					"stateMutability": "view",
					"type": "function"
				},
				{
					"inputs": [],
					"name": "buyLiquidityTaxPer",
					"outputs": [
						{
							"internalType": "uint256",
							"name": "",
							"type": "uint256"
						}
					],
					"stateMutability": "view",
					"type": "function"
				},
				{
					"inputs": [],
					"name": "buyReflectionTax",
					"outputs": [
						{
							"internalType": "uint256",
							"name": "",
							"type": "uint256"
						}
					],
					"stateMutability": "view",
					"type": "function"
				},
				{
					"inputs": [],
					"name": "decimals",
					"outputs": [
						{
							"internalType": "uint8",
							"name": "",
							"type": "uint8"
						}
					],
					"stateMutability": "pure",
					"type": "function"
				},
				{
					"inputs": [
						{
							"internalType": "address",
							"name": "spender",
							"type": "address"
						},
						{
							"internalType": "uint256",
							"name": "subtractedValue",
							"type": "uint256"
						}
					],
					"name": "decreaseAllowance",
					"outputs": [
						{
							"internalType": "bool",
							"name": "",
							"type": "bool"
						}
					],
					"stateMutability": "nonpayable",
					"type": "function"
				},
				{
					"inputs": [
						{
							"internalType": "uint256",
							"name": "tAmount",
							"type": "uint256"
						}
					],
					"name": "deliver",
					"outputs": [],
					"stateMutability": "nonpayable",
					"type": "function"
				},
				{
					"inputs": [
						{
							"internalType": "address",
							"name": "account",
							"type": "address"
						}
					],
					"name": "excludeFromFee",
					"outputs": [],
					"stateMutability": "nonpayable",
					"type": "function"
				},
				{
					"inputs": [
						{
							"internalType": "address",
							"name": "account",
							"type": "address"
						}
					],
					"name": "excludeFromReward",
					"outputs": [],
					"stateMutability": "nonpayable",
					"type": "function"
				},
				{
					"inputs": [],
					"name": "fundWallet",
					"outputs": [
						{
							"internalType": "address",
							"name": "",
							"type": "address"
						}
					],
					"stateMutability": "view",
					"type": "function"
				},
				{
					"inputs": [
						{
							"internalType": "address",
							"name": "account",
							"type": "address"
						}
					],
					"name": "includeInFee",
					"outputs": [],
					"stateMutability": "nonpayable",
					"type": "function"
				},
				{
					"inputs": [
						{
							"internalType": "address",
							"name": "account",
							"type": "address"
						}
					],
					"name": "includeInReward",
					"outputs": [],
					"stateMutability": "nonpayable",
					"type": "function"
				},
				{
					"inputs": [
						{
							"internalType": "address",
							"name": "spender",
							"type": "address"
						},
						{
							"internalType": "uint256",
							"name": "addedValue",
							"type": "uint256"
						}
					],
					"name": "increaseAllowance",
					"outputs": [
						{
							"internalType": "bool",
							"name": "",
							"type": "bool"
						}
					],
					"stateMutability": "nonpayable",
					"type": "function"
				},
				{
					"inputs": [
						{
							"internalType": "address",
							"name": "account",
							"type": "address"
						}
					],
					"name": "isExcludedFromFee",
					"outputs": [
						{
							"internalType": "bool",
							"name": "",
							"type": "bool"
						}
					],
					"stateMutability": "view",
					"type": "function"
				},
				{
					"inputs": [
						{
							"internalType": "address",
							"name": "account",
							"type": "address"
						}
					],
					"name": "isExcludedFromReward",
					"outputs": [
						{
							"internalType": "bool",
							"name": "",
							"type": "bool"
						}
					],
					"stateMutability": "view",
					"type": "function"
				},
				{
					"inputs": [],
					"name": "name",
					"outputs": [
						{
							"internalType": "string",
							"name": "",
							"type": "string"
						}
					],
					"stateMutability": "pure",
					"type": "function"
				},
				{
					"inputs": [],
					"name": "owner",
					"outputs": [
						{
							"internalType": "address",
							"name": "",
							"type": "address"
						}
					],
					"stateMutability": "view",
					"type": "function"
				},
				{
					"inputs": [
						{
							"internalType": "uint256",
							"name": "tAmount",
							"type": "uint256"
						},
						{
							"internalType": "bool",
							"name": "deductTransferFee",
							"type": "bool"
						}
					],
					"name": "reflectionFromToken",
					"outputs": [
						{
							"internalType": "uint256",
							"name": "",
							"type": "uint256"
						}
					],
					"stateMutability": "view",
					"type": "function"
				},
				{
					"inputs": [
						{
							"internalType": "address",
							"name": "account",
							"type": "address"
						}
					],
					"name": "removeBlacklist",
					"outputs": [],
					"stateMutability": "nonpayable",
					"type": "function"
				},
				{
					"inputs": [],
					"name": "renounceOwnership",
					"outputs": [],
					"stateMutability": "nonpayable",
					"type": "function"
				},
				{
					"inputs": [],
					"name": "sellBurnTaxPer",
					"outputs": [
						{
							"internalType": "uint256",
							"name": "",
							"type": "uint256"
						}
					],
					"stateMutability": "view",
					"type": "function"
				},
				{
					"inputs": [],
					"name": "sellCoinWalletTaxPer",
					"outputs": [
						{
							"internalType": "uint256",
							"name": "",
							"type": "uint256"
						}
					],
					"stateMutability": "view",
					"type": "function"
				},
				{
					"inputs": [],
					"name": "sellLiquidityTaxPer",
					"outputs": [
						{
							"internalType": "uint256",
							"name": "",
							"type": "uint256"
						}
					],
					"stateMutability": "view",
					"type": "function"
				},
				{
					"inputs": [],
					"name": "sellReflectionTax",
					"outputs": [
						{
							"internalType": "uint256",
							"name": "",
							"type": "uint256"
						}
					],
					"stateMutability": "view",
					"type": "function"
				},
				{
					"inputs": [
						{
							"internalType": "address",
							"name": "_fundWallet",
							"type": "address"
						}
					],
					"name": "setFundWallet",
					"outputs": [],
					"stateMutability": "nonpayable",
					"type": "function"
				},
				{
					"inputs": [
						{
							"internalType": "bool",
							"name": "enabled",
							"type": "bool"
						}
					],
					"name": "setSwapAndLiquifyEnabled",
					"outputs": [],
					"stateMutability": "nonpayable",
					"type": "function"
				},
				{
					"inputs": [],
					"name": "startTrading",
					"outputs": [],
					"stateMutability": "nonpayable",
					"type": "function"
				},
				{
					"inputs": [],
					"name": "swapAndLiquifyEnabled",
					"outputs": [
						{
							"internalType": "bool",
							"name": "",
							"type": "bool"
						}
					],
					"stateMutability": "view",
					"type": "function"
				},
				{
					"inputs": [],
					"name": "symbol",
					"outputs": [
						{
							"internalType": "string",
							"name": "",
							"type": "string"
						}
					],
					"stateMutability": "pure",
					"type": "function"
				},
				{
					"inputs": [
						{
							"internalType": "uint256",
							"name": "rAmount",
							"type": "uint256"
						}
					],
					"name": "tokenFromReflection",
					"outputs": [
						{
							"internalType": "uint256",
							"name": "",
							"type": "uint256"
						}
					],
					"stateMutability": "view",
					"type": "function"
				},
				{
					"inputs": [],
					"name": "totalFees",
					"outputs": [
						{
							"internalType": "uint256",
							"name": "",
							"type": "uint256"
						}
					],
					"stateMutability": "view",
					"type": "function"
				},
				{
					"inputs": [],
					"name": "totalSupply",
					"outputs": [
						{
							"internalType": "uint256",
							"name": "",
							"type": "uint256"
						}
					],
					"stateMutability": "view",
					"type": "function"
				},
				{
					"inputs": [],
					"name": "tradeEnabled",
					"outputs": [
						{
							"internalType": "bool",
							"name": "",
							"type": "bool"
						}
					],
					"stateMutability": "view",
					"type": "function"
				},
				{
					"inputs": [
						{
							"internalType": "address",
							"name": "recipient",
							"type": "address"
						},
						{
							"internalType": "uint256",
							"name": "amount",
							"type": "uint256"
						}
					],
					"name": "transfer",
					"outputs": [
						{
							"internalType": "bool",
							"name": "",
							"type": "bool"
						}
					],
					"stateMutability": "nonpayable",
					"type": "function"
				},
				{
					"inputs": [
						{
							"internalType": "address",
							"name": "sender",
							"type": "address"
						},
						{
							"internalType": "address",
							"name": "recipient",
							"type": "address"
						},
						{
							"internalType": "uint256",
							"name": "amount",
							"type": "uint256"
						}
					],
					"name": "transferFrom",
					"outputs": [
						{
							"internalType": "bool",
							"name": "",
							"type": "bool"
						}
					],
					"stateMutability": "nonpayable",
					"type": "function"
				},
				{
					"inputs": [
						{
							"internalType": "address",
							"name": "newOwner",
							"type": "address"
						}
					],
					"name": "transferOwnership",
					"outputs": [],
					"stateMutability": "nonpayable",
					"type": "function"
				},
				{
					"inputs": [],
					"name": "uniswapV2Pair",
					"outputs": [
						{
							"internalType": "address",
							"name": "",
							"type": "address"
						}
					],
					"stateMutability": "view",
					"type": "function"
				},
				{
					"inputs": [],
					"name": "uniswapV2Router",
					"outputs": [
						{
							"internalType": "contract IUniswapV2Router02",
							"name": "",
							"type": "address"
						}
					],
					"stateMutability": "view",
					"type": "function"
				},
				{
					"inputs": [
						{
							"internalType": "uint256",
							"name": "reflectionPercent",
							"type": "uint256"
						},
						{
							"internalType": "uint256",
							"name": "coinOperartionPer",
							"type": "uint256"
						},
						{
							"internalType": "uint256",
							"name": "liquidityTaxPer",
							"type": "uint256"
						},
						{
							"internalType": "uint256",
							"name": "burnTaxPer",
							"type": "uint256"
						}
					],
					"name": "updateBuyTaxPer",
					"outputs": [],
					"stateMutability": "nonpayable",
					"type": "function"
				},
				{
					"inputs": [
						{
							"internalType": "uint256",
							"name": "reflectionPercent",
							"type": "uint256"
						},
						{
							"internalType": "uint256",
							"name": "coinOperartionPer",
							"type": "uint256"
						},
						{
							"internalType": "uint256",
							"name": "liquidityTaxPer",
							"type": "uint256"
						},
						{
							"internalType": "uint256",
							"name": "burnTaxPer",
							"type": "uint256"
						}
					],
					"name": "updateSellTaxPer",
					"outputs": [],
					"stateMutability": "nonpayable",
					"type": "function"
				},
				{
					"inputs": [
						{
							"internalType": "uint256",
							"name": "_amount",
							"type": "uint256"
						}
					],
					"name": "updateThreshold",
					"outputs": [],
					"stateMutability": "nonpayable",
					"type": "function"
				},
				{
					"stateMutability": "payable",
					"type": "receive"
				}
			],
			"devdoc": {
				"events": {
					"Approval(address,address,uint256)": {
						"details": "Emitted when the allowance of a `spender` for an `owner` is set by a call to {approve}. `value` is the new allowance."
					},
					"Transfer(address,address,uint256)": {
						"details": "Emitted when `value` tokens are moved from one account (`from`) to another (`to`). Note that `value` may be zero."
					}
				},
				"kind": "dev",
				"methods": {
					"addBlacklist(address)": {
						"details": "Only callable by the owner of the contract.",
						"params": {
							"account": "The address to be blacklisted."
						}
					},
					"allowance(address,address)": {
						"details": "This function returns the current allowance set for the specified spender to spend tokens from the specified owner's account.",
						"params": {
							"owner": "The address of the owner whose allowance is being queried.",
							"spender": "The address of the spender for whom the allowance is queried."
						},
						"returns": {
							"_0": "The remaining allowance for the specified spender to spend tokens on behalf of the owner."
						}
					},
					"approve(address,uint256)": {
						"details": "This function sets or updates the allowance for a spender to spend tokens from the owner's account. If successful, it returns true.",
						"params": {
							"amount": "The amount of tokens to approve for spending.",
							"spender": "The address of the spender to be approved."
						},
						"returns": {
							"_0": "A boolean indicating the success of the approval operation."
						}
					},
					"balanceOf(address)": {
						"details": "This function returns the token balance of the specified account. If the account is excluded, it directly returns the token balance. If the account is not excluded, it converts the reflection balance to token balance using the current rate.",
						"params": {
							"account": "The address of the account whose token balance is being queried."
						},
						"returns": {
							"_0": "The token balance of the specified account."
						}
					},
					"constructor": {
						"details": "This constructor sets initial values and configures the contract.",
						"params": {
							"wallet": "The address where funds will be sent."
						}
					},
					"decimals()": {
						"details": "This function returns the number of decimal places used to represent the token balances. It is commonly used to interpret the token amounts correctly in user interfaces.",
						"returns": {
							"_0": "The number of decimal places used in the token representation."
						}
					},
					"decreaseAllowance(address,uint256)": {
						"details": "This function decreases the allowance for the specified spender by the given value. It ensures that the allowance does not go below zero. If successful, it returns true.",
						"params": {
							"spender": "The address of the spender whose allowance is being reduced.",
							"subtractedValue": "The amount by which to reduce the allowance."
						},
						"returns": {
							"_0": "A boolean indicating the success of the operation."
						}
					},
					"deliver(uint256)": {
						"details": "This function is typically used to convert a portion of tokens into reflections and add them to a reward pool. Excluded addresses cannot call this function.",
						"params": {
							"tAmount": "The amount of tokens to be converted and added to reflections."
						}
					},
					"excludeFromFee(address)": {
						"details": "Transaction fees are often applied in decentralized finance (DeFi) projects to support various mechanisms like liquidity provision, rewards, or token burns.",
						"params": {
							"account": "The address to exclude from transaction fees."
						}
					},
					"excludeFromReward(address)": {
						"details": "Reflections are often used in tokenomics to distribute rewards to holders. This function excludes the specified address from receiving reflections.",
						"params": {
							"account": "The address to be excluded from earning reflections."
						}
					},
					"includeInFee(address)": {
						"details": "Transaction fees are often applied in decentralized finance (DeFi) projects to support various mechanisms like liquidity provision, rewards, or token burns.",
						"params": {
							"account": "The address to include in transaction fees."
						}
					},
					"includeInReward(address)": {
						"details": "External function for including an account in the reward distribution.",
						"params": {
							"account": "The address to be included in the reward distribution.  The function can only be called by the owner of the contract. Requires that the specified account is currently excluded. Iterates through the list of excluded accounts, finds the specified account, and removes it from the exclusion list. Resets the token balance of the specified account to 0 and updates the exclusion status. "
						}
					},
					"increaseAllowance(address,uint256)": {
						"details": "This function increases the allowance for the specified spender by the given value. It ensures that the updated allowance is correctly set. If successful, it returns true.",
						"params": {
							"addedValue": "The amount by which to increase the allowance.",
							"spender": "The address of the spender whose allowance is being increased."
						},
						"returns": {
							"_0": "A boolean indicating the success of the operation."
						}
					},
					"isExcludedFromReward(address)": {
						"details": "Excluded addresses do not receive reflections in certain tokenomics designs. This function returns true if the address is excluded, and false otherwise.",
						"params": {
							"account": "The address to check for exclusion from reflections."
						},
						"returns": {
							"_0": "A boolean indicating whether the address is excluded from earning reflections."
						}
					},
					"name()": {
						"details": "This function returns the name of the token, which is often used for identification. It is commonly displayed in user interfaces and provides a human-readable name for the token.",
						"returns": {
							"_0": "The name of the token."
						}
					},
					"owner()": {
						"details": "Returns the address of the current owner."
					},
					"reflectionFromToken(uint256,bool)": {
						"details": "Reflections are often used in tokenomics to calculate rewards or balances. This function converts a token amount to its corresponding reflection amount based on the current rate. Optionally, it deducts the transfer fee from the calculation.",
						"params": {
							"deductTransferFee": "A boolean indicating whether to deduct the transfer fee from the calculation.",
							"tAmount": "The token amount to be converted to reflections."
						},
						"returns": {
							"_0": "The equivalent reflection amount corresponding to the given token amount."
						}
					},
					"removeBlacklist(address)": {
						"details": "Only callable by the owner of the contract.",
						"params": {
							"account": "The address to be removed from the blacklist."
						}
					},
					"renounceOwnership()": {
						"details": "Leaves the contract without owner. It will not be possible to call `onlyOwner` functions anymore. Can only be called by the current owner. NOTE: Renouncing ownership will leave the contract without an owner, thereby removing any functionality that is only available to the owner."
					},
					"setFundWallet(address)": {
						"details": "Sets the address of the fund wallet.",
						"params": {
							"_fundWallet": "The new address to be set as the fund wallet. Requirements: - Only the contract owner can call this function. Emits a {FundWalletChange} event with the updated fund wallet address on successful execution."
						}
					},
					"setSwapAndLiquifyEnabled(bool)": {
						"details": "The swap and liquify feature is a mechanism often used in decentralized finance (DeFi) projects to automatically swap a portion of tokens for liquidity and add them to a liquidity pool.",
						"params": {
							"enabled": "A boolean indicating whether to enable (true) or disable (false) the feature."
						}
					},
					"startTrading()": {
						"details": "Only callable by the owner of the contract."
					},
					"symbol()": {
						"details": "This function returns the symbol or ticker that represents the token. It is commonly used for identifying the token in user interfaces and exchanges.",
						"returns": {
							"_0": "The symbol or ticker of the token."
						}
					},
					"tokenFromReflection(uint256)": {
						"details": "Reflections are often used in tokenomics to calculate rewards or balances. This function converts a reflection amount to its corresponding token amount based on the current rate.",
						"params": {
							"rAmount": "The reflection amount to be converted to tokens."
						},
						"returns": {
							"_0": "The equivalent token amount corresponding to the given reflection amount."
						}
					},
					"totalFees()": {
						"details": "This function returns the cumulative sum of fees collected during transactions. The fees are often used for various purposes like liquidity provision, rewards, or burns.",
						"returns": {
							"_0": "The total amount of fees collected in tokens."
						}
					},
					"totalSupply()": {
						"details": "This function returns the total supply of tokens in circulation.",
						"returns": {
							"_0": "The total supply of tokens."
						}
					},
					"transfer(address,uint256)": {
						"details": "This function transfers tokens from the sender's account to the specified recipient. If successful, it returns true.",
						"params": {
							"amount": "The amount of tokens to be transferred.",
							"recipient": "The address of the recipient to whom tokens are being transferred."
						},
						"returns": {
							"_0": "A boolean indicating the success of the transfer operation."
						}
					},
					"transferFrom(address,address,uint256)": {
						"details": "This function allows a designated spender to transfer tokens from the sender's account to the recipient's account. It also ensures that the allowance is updated correctly. If successful, it returns true.",
						"params": {
							"amount": "The amount of tokens to be transferred.",
							"recipient": "The address to which tokens are being transferred.",
							"sender": "The address from which tokens are being transferred."
						},
						"returns": {
							"_0": "A boolean indicating the success of the transfer operation."
						}
					},
					"transferOwnership(address)": {
						"details": "Transfers ownership of the contract to a new account (`newOwner`). Can only be called by the current owner."
					},
					"updateBuyTaxPer(uint256,uint256,uint256,uint256)": {
						"details": "This function can only be called by the contract owner.The sum of all tax percentages cannot exceed 100%. Note: Only whole numbers are accepted for each tax percentage, not fractions.",
						"params": {
							"burnTaxPer": "Percentage of tax allocated to burning on buy transactions.",
							"coinOperartionPer": "Percentage of tax allocated to coin operation on buy transactions.",
							"liquidityTaxPer": "Percentage of tax allocated to liquidity on buy transactions.",
							"reflectionPercent": "Percentage of reflection tax on buy transactions."
						}
					},
					"updateSellTaxPer(uint256,uint256,uint256,uint256)": {
						"details": "This function can only be called by the contract owner.The sum of all tax percentages cannot exceed 100%. Note: Only whole numbers are accepted for each tax percentage, not fractions.",
						"params": {
							"burnTaxPer": "Percentage of tax allocated to burning on sell transactions.",
							"coinOperartionPer": "Percentage of tax allocated to coin operation on sell transactions.",
							"liquidityTaxPer": "Percentage of tax allocated to liquidity on sell transactions.",
							"reflectionPercent": "Percentage of reflection tax on sell transactions."
						}
					},
					"updateThreshold(uint256)": {
						"details": "External function for updating the threshold amount required for triggering liquidity addition.",
						"params": {
							"_amount": "The new threshold amount.  The function can only be called by the owner of the contract. Requires that the provided threshold amount (_amount) is greater than 0. Updates the numTokensSellToAddToLiquidity with the new threshold amount."
						}
					}
				},
				"version": 1
			},
			"evm": {
				"assembly": "    /* \"EAGLEAI/EagleAI.sol\":12999:63802  contract EAGLEAI is Context, IERC20, Ownable {... */\n  mstore(0x40, 0xc0)\n    /* \"EAGLEAI/EagleAI.sol\":13508:13527  10 * 10**7 * 10**18 */\n  0x52b7d2dcc80cd2e4000000\n    /* \"EAGLEAI/EagleAI.sol\":13482:13527  uint256 private _tTotal = 10 * 10**7 * 10**18 */\n  0x09\n  dup2\n  swap1\n  sstore\n    /* \"EAGLEAI/EagleAI.sol\":13568:13581  MAX % _tTotal */\n  tag_1\n  swap1\n  not(0x00)\n  tag_2\n  jump\t// in\ntag_1:\n    /* \"EAGLEAI/EagleAI.sol\":13561:13582  MAX - (MAX % _tTotal) */\n  tag_3\n  swap1\n  not(0x00)\n  tag_4\n  jump\t// in\ntag_3:\n    /* \"EAGLEAI/EagleAI.sol\":13534:13583  uint256 private _rTotal = (MAX - (MAX % _tTotal)) */\n  0x0a\n  sstore\n    /* \"EAGLEAI/EagleAI.sol\":13907:13947  bool public swapAndLiquifyEnabled = true */\n  0x0c\n  dup1\n  sload\n  not(0xff00)\n  and\n  0x0100\n  or\n  swap1\n  sstore\n    /* \"EAGLEAI/EagleAI.sol\":14039:14057  1 * 10**2 * 10**18 */\n  0x056bc75e2d63100000\n    /* \"EAGLEAI/EagleAI.sol\":13991:14057  uint256 private numTokensSellToAddToLiquidity = 1 * 10**2 * 10**18 */\n  0x0d\n  sstore\n    /* \"EAGLEAI/EagleAI.sol\":13943:13947  true */\n  0x01\n    /* \"EAGLEAI/EagleAI.sol\":14202:14235  uint256 public buyReflectionTax=1 */\n  0x12\n  dup2\n  swap1\n  sstore\n    /* \"EAGLEAI/EagleAI.sol\":14242:14278  uint256 public buyCoinWalletTaxPer=1 */\n  0x13\n  dup2\n  swap1\n  sstore\n    /* \"EAGLEAI/EagleAI.sol\":14285:14320  uint256 public buyLiquidityTaxPer=1 */\n  0x14\n  dup2\n  swap1\n  sstore\n    /* \"EAGLEAI/EagleAI.sol\":13907:13947  bool public swapAndLiquifyEnabled = true */\n  0x00\n    /* \"EAGLEAI/EagleAI.sol\":14327:14358  uint256 public buyBurnTaxPer= 0 */\n  0x15\n  sstore\n    /* \"EAGLEAI/EagleAI.sol\":14425:14426  2 */\n  0x02\n    /* \"EAGLEAI/EagleAI.sol\":14392:14426  uint256 public sellReflectionTax=2 */\n  0x16\n  dup2\n  swap1\n  sstore\n    /* \"EAGLEAI/EagleAI.sol\":14433:14470  uint256 public sellCoinWalletTaxPer=1 */\n  0x17\n  dup3\n  swap1\n  sstore\n    /* \"EAGLEAI/EagleAI.sol\":14477:14513  uint256 public sellLiquidityTaxPer=2 */\n  0x18\n  sstore\n    /* \"EAGLEAI/EagleAI.sol\":14520:14552  uint256 public sellBurnTaxPer= 1 */\n  0x19\n  sstore\n    /* \"EAGLEAI/EagleAI.sol\":15801:16769  constructor (address wallet)  {... */\n  callvalue\n  dup1\n  iszero\n  tag_5\n  jumpi\n  0x00\n  dup1\n  revert\ntag_5:\n  pop\n  mload(0x40)\n  sub(codesize, bytecodeSize)\n  dup1\n  bytecodeSize\n  dup4\n  codecopy\n  dup2\n  add\n  0x40\n  dup2\n  swap1\n  mstore\n  tag_6\n  swap2\n  tag_7\n  jump\t// in\ntag_6:\n    /* \"EAGLEAI/EagleAI.sol\":5771:5788  address msgSender */\n  0x00\n    /* \"EAGLEAI/EagleAI.sol\":5814:5832  _owner = msgSender */\n  dup1\n  sload\n  not(sub(shl(0xa0, 0x01), 0x01))\n  and\n    /* \"EAGLEAI/EagleAI.sol\":4607:4617  msg.sender */\n  caller\n    /* \"EAGLEAI/EagleAI.sol\":5814:5832  _owner = msgSender */\n  swap1\n  dup2\n  or\n  dup3\n  sstore\n    /* \"EAGLEAI/EagleAI.sol\":5848:5891  OwnershipTransferred(address(0), msgSender) */\n  mload(0x40)\n    /* \"EAGLEAI/EagleAI.sol\":4607:4617  msg.sender */\n  swap1\n  swap2\n  dup3\n  swap2\n    /* \"EAGLEAI/EagleAI.sol\":5848:5891  OwnershipTransferred(address(0), msgSender) */\n  0x8be0079c531659141344cd1fd0a4f28419497f9722a3daafe3b4186f6b6457e0\n  swap1\n    /* \"EAGLEAI/EagleAI.sol\":5771:5788  address msgSender */\n  dup3\n  swap1\n    /* \"EAGLEAI/EagleAI.sol\":5848:5891  OwnershipTransferred(address(0), msgSender) */\n  log3\n  pop\n  sub(shl(0xa0, 0x01), 0x01)\n    /* \"EAGLEAI/EagleAI.sol\":15850:15870  wallet != address(0) */\n  dup2\n  and\n    /* \"EAGLEAI/EagleAI.sol\":15842:15901  require(wallet != address(0),\"Fund wallet can not be zero\") */\n  tag_14\n  jumpi\n  mload(0x40)\n  shl(0xe5, 0x461bcd)\n  dup2\n  mstore\n    /* \"#utility.yul\":955:957   */\n  0x20\n    /* \"EAGLEAI/EagleAI.sol\":15842:15901  require(wallet != address(0),\"Fund wallet can not be zero\") */\n  0x04\n  dup3\n  add\n    /* \"#utility.yul\":937:958   */\n  mstore\n    /* \"#utility.yul\":994:996   */\n  0x1b\n    /* \"#utility.yul\":974:992   */\n  0x24\n  dup3\n  add\n    /* \"#utility.yul\":967:997   */\n  mstore\n    /* \"#utility.yul\":1033:1062   */\n  0x46756e642077616c6c65742063616e206e6f74206265207a65726f0000000000\n    /* \"#utility.yul\":1013:1031   */\n  0x44\n  dup3\n  add\n    /* \"#utility.yul\":1006:1063   */\n  mstore\n    /* \"#utility.yul\":1080:1098   */\n  0x64\n  add\n    /* \"EAGLEAI/EagleAI.sol\":15842:15901  require(wallet != address(0),\"Fund wallet can not be zero\") */\n  mload(0x40)\n  dup1\n  swap2\n  sub\n  swap1\n  revert\ntag_14:\n    /* \"EAGLEAI/EagleAI.sol\":15936:15943  _rTotal */\n  sload(0x0a)\n    /* \"EAGLEAI/EagleAI.sol\":4607:4617  msg.sender */\n  caller\n    /* \"EAGLEAI/EagleAI.sol\":15912:15933  _rOwned[_msgSender()] */\n  0x00\n  swap1\n  dup2\n  mstore\n    /* \"EAGLEAI/EagleAI.sol\":15912:15919  _rOwned */\n  0x02\n    /* \"EAGLEAI/EagleAI.sol\":15912:15933  _rOwned[_msgSender()] */\n  0x20\n  swap1\n  dup2\n  mstore\n  0x40\n  swap2\n  dup3\n  swap1\n  keccak256\n    /* \"EAGLEAI/EagleAI.sol\":15912:15943  _rOwned[_msgSender()] = _rTotal */\n  swap3\n  swap1\n  swap3\n  sstore\n    /* \"EAGLEAI/EagleAI.sol\":15954:15964  fundWallet */\n  0x1a\n    /* \"EAGLEAI/EagleAI.sol\":15954:15973  fundWallet = wallet */\n  dup1\n  sload\n  not(sub(shl(0xa0, 0x01), 0x01))\n  and\n  sub(shl(0xa0, 0x01), 0x01)\n  dup6\n  and\n  or\n  swap1\n  sstore\n    /* \"EAGLEAI/EagleAI.sol\":16344:16370  _uniswapV2Router.factory() */\n  dup1\n  mload\n  shl(0xe0, 0xc45a0155)\n  dup2\n  mstore\n  swap1\n  mload\n    /* \"EAGLEAI/EagleAI.sol\":16184:16226  0xD99D1c33F9fC3444f8101754aBC46c52416550D1 */\n  0xd99d1c33f9fc3444f8101754abc46c52416550d1\n  swap3\n  dup4\n  swap3\n    /* \"EAGLEAI/EagleAI.sol\":16344:16368  _uniswapV2Router.factory */\n  0xc45a0155\n  swap3\n    /* \"EAGLEAI/EagleAI.sol\":16344:16370  _uniswapV2Router.factory() */\n  0x04\n  dup1\n  dup4\n  add\n  swap4\n    /* \"EAGLEAI/EagleAI.sol\":15912:15933  _rOwned[_msgSender()] */\n  swap3\n    /* \"EAGLEAI/EagleAI.sol\":16344:16370  _uniswapV2Router.factory() */\n  dup3\n  swap1\n  sub\n  add\n  dup2\n    /* \"EAGLEAI/EagleAI.sol\":16184:16226  0xD99D1c33F9fC3444f8101754aBC46c52416550D1 */\n  dup7\n    /* \"EAGLEAI/EagleAI.sol\":16344:16370  _uniswapV2Router.factory() */\n  gas\n  staticcall\n  iszero\n  dup1\n  iszero\n  tag_19\n  jumpi\n  returndatasize\n  0x00\n  dup1\n  returndatacopy\n  revert(0x00, returndatasize)\ntag_19:\n  pop\n  pop\n  pop\n  pop\n  mload(0x40)\n  returndatasize\n  not(0x1f)\n  0x1f\n  dup3\n  add\n  and\n  dup3\n  add\n  dup1\n  0x40\n  mstore\n  pop\n  dup2\n  add\n  swap1\n  tag_20\n  swap2\n  swap1\n  tag_7\n  jump\t// in\ntag_20:\n  sub(shl(0xa0, 0x01), 0x01)\n    /* \"EAGLEAI/EagleAI.sol\":16326:16396  IUniswapV2Factory(_uniswapV2Router.factory())... */\n  and\n  0xc9c65396\n    /* \"EAGLEAI/EagleAI.sol\":16405:16409  this */\n  address\n    /* \"EAGLEAI/EagleAI.sol\":16412:16428  _uniswapV2Router */\n  dup4\n  sub(shl(0xa0, 0x01), 0x01)\n    /* \"EAGLEAI/EagleAI.sol\":16412:16433  _uniswapV2Router.WETH */\n  and\n  0xad5c4648\n    /* \"EAGLEAI/EagleAI.sol\":16412:16435  _uniswapV2Router.WETH() */\n  mload(0x40)\n  dup2\n  0xffffffff\n  and\n  0xe0\n  shl\n  dup2\n  mstore\n  0x04\n  add\n  0x20\n  mload(0x40)\n  dup1\n  dup4\n  sub\n  dup2\n  dup7\n  gas\n  staticcall\n  iszero\n  dup1\n  iszero\n  tag_22\n  jumpi\n  returndatasize\n  0x00\n  dup1\n  returndatacopy\n  revert(0x00, returndatasize)\ntag_22:\n  pop\n  pop\n  pop\n  pop\n  mload(0x40)\n  returndatasize\n  not(0x1f)\n  0x1f\n  dup3\n  add\n  and\n  dup3\n  add\n  dup1\n  0x40\n  mstore\n  pop\n  dup2\n  add\n  swap1\n  tag_23\n  swap2\n  swap1\n  tag_7\n  jump\t// in\ntag_23:\n    /* \"EAGLEAI/EagleAI.sol\":16326:16436  IUniswapV2Factory(_uniswapV2Router.factory())... */\n  mload(0x40)\n  not(sub(shl(0xe0, 0x01), 0x01))\n  0xe0\n  dup6\n  swap1\n  shl\n  and\n  dup2\n  mstore\n  sub(shl(0xa0, 0x01), 0x01)\n    /* \"#utility.yul\":1339:1354   */\n  swap3\n  dup4\n  and\n    /* \"EAGLEAI/EagleAI.sol\":16326:16436  IUniswapV2Factory(_uniswapV2Router.factory())... */\n  0x04\n  dup3\n  add\n    /* \"#utility.yul\":1321:1355   */\n  mstore\n    /* \"#utility.yul\":1391:1406   */\n  swap2\n  and\n    /* \"#utility.yul\":1371:1389   */\n  0x24\n  dup3\n  add\n    /* \"#utility.yul\":1364:1407   */\n  mstore\n    /* \"#utility.yul\":1256:1274   */\n  0x44\n  add\n    /* \"EAGLEAI/EagleAI.sol\":16326:16436  IUniswapV2Factory(_uniswapV2Router.factory())... */\n  0x20\n  mload(0x40)\n  dup1\n  dup4\n  sub\n  dup2\n  0x00\n  dup8\n  gas\n  call\n  iszero\n  dup1\n  iszero\n  tag_27\n  jumpi\n  returndatasize\n  0x00\n  dup1\n  returndatacopy\n  revert(0x00, returndatasize)\ntag_27:\n  pop\n  pop\n  pop\n  pop\n  mload(0x40)\n  returndatasize\n  not(0x1f)\n  0x1f\n  dup3\n  add\n  and\n  dup3\n  add\n  dup1\n  0x40\n  mstore\n  pop\n  dup2\n  add\n  swap1\n  tag_28\n  swap2\n  swap1\n  tag_7\n  jump\t// in\ntag_28:\n  sub(shl(0xa0, 0x01), 0x01)\n    /* \"EAGLEAI/EagleAI.sol\":16310:16436  uniswapV2Pair = IUniswapV2Factory(_uniswapV2Router.factory())... */\n  swap1\n  dup2\n  and\n  0xa0\n  mstore\n    /* \"EAGLEAI/EagleAI.sol\":16500:16534  uniswapV2Router = _uniswapV2Router */\n  dup2\n  and\n  0x80\n  mstore\n    /* \"EAGLEAI/EagleAI.sol\":16637:16641  true */\n  0x01\n    /* \"EAGLEAI/EagleAI.sol\":16607:16625  _isExcludedFromFee */\n  0x06\n    /* \"EAGLEAI/EagleAI.sol\":16607:16634  _isExcludedFromFee[owner()] */\n  0x00\n    /* \"EAGLEAI/EagleAI.sol\":16626:16633  owner() */\n  tag_29\n    /* \"EAGLEAI/EagleAI.sol\":6018:6025  address */\n  0x00\n    /* \"EAGLEAI/EagleAI.sol\":6045:6051  _owner */\n  sload\n  sub(shl(0xa0, 0x01), 0x01)\n  and\n  swap1\n    /* \"EAGLEAI/EagleAI.sol\":5980:6059  function owner() public view returns (address) {... */\n  jump\n    /* \"EAGLEAI/EagleAI.sol\":16626:16633  owner() */\ntag_29:\n  sub(shl(0xa0, 0x01), 0x01)\n    /* \"EAGLEAI/EagleAI.sol\":16607:16634  _isExcludedFromFee[owner()] */\n  and\n  dup2\n  mstore\n  0x20\n  dup1\n  dup3\n  add\n  swap3\n  swap1\n  swap3\n  mstore\n  0x40\n  swap1\n  dup2\n  add\n  0x00\n  swap1\n  dup2\n  keccak256\n    /* \"EAGLEAI/EagleAI.sol\":16607:16641  _isExcludedFromFee[owner()] = true */\n  dup1\n  sload\n  swap5\n  iszero\n  iszero\n  not(0xff)\n  swap6\n  dup7\n  and\n  or\n  swap1\n  sstore\n    /* \"EAGLEAI/EagleAI.sol\":16679:16683  this */\n  address\n    /* \"EAGLEAI/EagleAI.sol\":16652:16685  _isExcludedFromFee[address(this)] */\n  dup2\n  mstore\n    /* \"EAGLEAI/EagleAI.sol\":16652:16670  _isExcludedFromFee */\n  0x06\n    /* \"EAGLEAI/EagleAI.sol\":16652:16685  _isExcludedFromFee[address(this)] */\n  swap1\n  swap3\n  mstore\n  swap1\n  keccak256\n    /* \"EAGLEAI/EagleAI.sol\":16652:16692  _isExcludedFromFee[address(this)] = true */\n  dup1\n  sload\n  swap1\n  swap2\n  and\n    /* \"EAGLEAI/EagleAI.sol\":16607:16641  _isExcludedFromFee[owner()] = true */\n  0x01\n    /* \"EAGLEAI/EagleAI.sol\":16652:16692  _isExcludedFromFee[address(this)] = true */\n  or\n  swap1\n  sstore\n    /* \"EAGLEAI/EagleAI.sol\":16739:16751  _msgSender() */\n  tag_31\n    /* \"EAGLEAI/EagleAI.sol\":4607:4617  msg.sender */\n  caller\n  swap1\n    /* \"EAGLEAI/EagleAI.sol\":4511:4626  function _msgSender() internal view virtual returns (address payable) {... */\n  jump\n    /* \"EAGLEAI/EagleAI.sol\":16739:16751  _msgSender() */\ntag_31:\n  sub(shl(0xa0, 0x01), 0x01)\n    /* \"EAGLEAI/EagleAI.sol\":16718:16761  Transfer(address(0), _msgSender(), _tTotal) */\n  and\n    /* \"EAGLEAI/EagleAI.sol\":16735:16736  0 */\n  0x00\n  sub(shl(0xa0, 0x01), 0x01)\n    /* \"EAGLEAI/EagleAI.sol\":16718:16761  Transfer(address(0), _msgSender(), _tTotal) */\n  and\n  0xddf252ad1be2c89b69c2b068fc378daa952ba7f163c4a11628f55a4df523b3ef\n    /* \"EAGLEAI/EagleAI.sol\":16753:16760  _tTotal */\n  sload(0x09)\n    /* \"EAGLEAI/EagleAI.sol\":16718:16761  Transfer(address(0), _msgSender(), _tTotal) */\n  mload(0x40)\n  tag_32\n  swap2\n    /* \"#utility.yul\":1564:1589   */\n  dup2\n  mstore\n    /* \"#utility.yul\":1552:1554   */\n  0x20\n    /* \"#utility.yul\":1537:1555   */\n  add\n  swap1\n    /* \"#utility.yul\":1418:1595   */\n  jump\n    /* \"EAGLEAI/EagleAI.sol\":16718:16761  Transfer(address(0), _msgSender(), _tTotal) */\ntag_32:\n  mload(0x40)\n  dup1\n  swap2\n  sub\n  swap1\n  log3\n    /* \"EAGLEAI/EagleAI.sol\":15831:16769  {... */\n  pop\n    /* \"EAGLEAI/EagleAI.sol\":15801:16769  constructor (address wallet)  {... */\n  pop\n    /* \"EAGLEAI/EagleAI.sol\":12999:63802  contract EAGLEAI is Context, IERC20, Ownable {... */\n  jump(tag_37)\n    /* \"#utility.yul\":14:223   */\ntag_2:\n    /* \"#utility.yul\":46:47   */\n  0x00\n    /* \"#utility.yul\":72:73   */\n  dup3\n    /* \"#utility.yul\":62:194   */\n  tag_39\n  jumpi\n    /* \"#utility.yul\":116:126   */\n  0x4e487b71\n    /* \"#utility.yul\":111:114   */\n  0xe0\n    /* \"#utility.yul\":107:127   */\n  shl\n    /* \"#utility.yul\":104:105   */\n  0x00\n    /* \"#utility.yul\":97:128   */\n  mstore\n    /* \"#utility.yul\":151:155   */\n  0x12\n    /* \"#utility.yul\":148:149   */\n  0x04\n    /* \"#utility.yul\":141:156   */\n  mstore\n    /* \"#utility.yul\":179:183   */\n  0x24\n    /* \"#utility.yul\":176:177   */\n  0x00\n    /* \"#utility.yul\":169:184   */\n  revert\n    /* \"#utility.yul\":62:194   */\ntag_39:\n  pop\n    /* \"#utility.yul\":208:217   */\n  mod\n  swap1\n    /* \"#utility.yul\":14:223   */\n  jump\t// out\n    /* \"#utility.yul\":228:453   */\ntag_4:\n    /* \"#utility.yul\":295:304   */\n  dup2\n  dup2\n  sub\n    /* \"#utility.yul\":316:327   */\n  dup2\n  dup2\n  gt\n    /* \"#utility.yul\":313:447   */\n  iszero\n  tag_41\n  jumpi\n    /* \"#utility.yul\":369:379   */\n  0x4e487b71\n    /* \"#utility.yul\":364:367   */\n  0xe0\n    /* \"#utility.yul\":360:380   */\n  shl\n    /* \"#utility.yul\":357:358   */\n  0x00\n    /* \"#utility.yul\":350:381   */\n  mstore\n    /* \"#utility.yul\":404:408   */\n  0x11\n    /* \"#utility.yul\":401:402   */\n  0x04\n    /* \"#utility.yul\":394:409   */\n  mstore\n    /* \"#utility.yul\":432:436   */\n  0x24\n    /* \"#utility.yul\":429:430   */\n  0x00\n    /* \"#utility.yul\":422:437   */\n  revert\n    /* \"#utility.yul\":313:447   */\ntag_41:\n    /* \"#utility.yul\":228:453   */\n  swap3\n  swap2\n  pop\n  pop\n  jump\t// out\n    /* \"#utility.yul\":458:748   */\ntag_7:\n    /* \"#utility.yul\":528:534   */\n  0x00\n    /* \"#utility.yul\":581:583   */\n  0x20\n    /* \"#utility.yul\":569:578   */\n  dup3\n    /* \"#utility.yul\":560:567   */\n  dup5\n    /* \"#utility.yul\":556:579   */\n  sub\n    /* \"#utility.yul\":552:584   */\n  slt\n    /* \"#utility.yul\":549:601   */\n  iszero\n  tag_43\n  jumpi\n    /* \"#utility.yul\":597:598   */\n  0x00\n    /* \"#utility.yul\":594:595   */\n  dup1\n    /* \"#utility.yul\":587:599   */\n  revert\n    /* \"#utility.yul\":549:601   */\ntag_43:\n    /* \"#utility.yul\":623:639   */\n  dup2\n  mload\n  sub(shl(0xa0, 0x01), 0x01)\n    /* \"#utility.yul\":668:699   */\n  dup2\n  and\n    /* \"#utility.yul\":658:700   */\n  dup2\n  eq\n    /* \"#utility.yul\":648:718   */\n  tag_44\n  jumpi\n    /* \"#utility.yul\":714:715   */\n  0x00\n    /* \"#utility.yul\":711:712   */\n  dup1\n    /* \"#utility.yul\":704:716   */\n  revert\n    /* \"#utility.yul\":648:718   */\ntag_44:\n    /* \"#utility.yul\":737:742   */\n  swap4\n    /* \"#utility.yul\":458:748   */\n  swap3\n  pop\n  pop\n  pop\n  jump\t// out\n    /* \"#utility.yul\":1418:1595   */\ntag_37:\n    /* \"EAGLEAI/EagleAI.sol\":12999:63802  contract EAGLEAI is Context, IERC20, Ownable {... */\n  mload(0x80)\n  mload(0xa0)\n  codecopy(0x00, dataOffset(sub_0), dataSize(sub_0))\n  0x00\n  assignImmutable(\"0x5d067998675a77797d9e4eec202a19ba43752dfad25ff4a095c1eece7914d0a3\")\n  0x00\n  assignImmutable(\"0xd1bfb39175379108a717b7ef0f82b6e824d30ad965caf5d88e1c0f8ae725e4a0\")\n  return(0x00, dataSize(sub_0))\nstop\n\nsub_0: assembly {\n        /* \"EAGLEAI/EagleAI.sol\":12999:63802  contract EAGLEAI is Context, IERC20, Ownable {... */\n      mstore(0x40, 0x80)\n      jumpi(tag_1, lt(calldatasize, 0x04))\n      shr(0xe0, calldataload(0x00))\n      dup1\n      0x664a1ad6\n      gt\n      tag_50\n      jumpi\n      dup1\n      0xc49b9a80\n      gt\n      tag_51\n      jumpi\n      dup1\n      0xe1eaf3bb\n      gt\n      tag_52\n      jumpi\n      dup1\n      0xe1eaf3bb\n      eq\n      tag_44\n      jumpi\n      dup1\n      0xea204636\n      eq\n      tag_45\n      jumpi\n      dup1\n      0xea2f0b37\n      eq\n      tag_46\n      jumpi\n      dup1\n      0xea7db9e5\n      eq\n      tag_47\n      jumpi\n      dup1\n      0xeb91e651\n      eq\n      tag_48\n      jumpi\n      dup1\n      0xf2fde38b\n      eq\n      tag_49\n      jumpi\n      0x00\n      dup1\n      revert\n    tag_52:\n      dup1\n      0xc49b9a80\n      eq\n      tag_38\n      jumpi\n      dup1\n      0xd621e813\n      eq\n      tag_39\n      jumpi\n      dup1\n      0xd7d7442f\n      eq\n      tag_40\n      jumpi\n      dup1\n      0xdbac26e9\n      eq\n      tag_41\n      jumpi\n      dup1\n      0xdd62ed3e\n      eq\n      tag_42\n      jumpi\n      dup1\n      0xe1662ed3\n      eq\n      tag_43\n      jumpi\n      0x00\n      dup1\n      revert\n    tag_51:\n      dup1\n      0x95d89b41\n      gt\n      tag_53\n      jumpi\n      dup1\n      0x95d89b41\n      eq\n      tag_32\n      jumpi\n      dup1\n      0x9cfe42da\n      eq\n      tag_33\n      jumpi\n      dup1\n      0xa457c2d7\n      eq\n      tag_34\n      jumpi\n      dup1\n      0xa9059cbb\n      eq\n      tag_35\n      jumpi\n      dup1\n      0xb618a70d\n      eq\n      tag_36\n      jumpi\n      dup1\n      0xbdf024ec\n      eq\n      tag_37\n      jumpi\n      0x00\n      dup1\n      revert\n    tag_53:\n      dup1\n      0x664a1ad6\n      eq\n      tag_26\n      jumpi\n      dup1\n      0x67243482\n      eq\n      tag_27\n      jumpi\n      dup1\n      0x70a08231\n      eq\n      tag_28\n      jumpi\n      dup1\n      0x715018a6\n      eq\n      tag_29\n      jumpi\n      dup1\n      0x88f82020\n      eq\n      tag_30\n      jumpi\n      dup1\n      0x8da5cb5b\n      eq\n      tag_31\n      jumpi\n      0x00\n      dup1\n      revert\n    tag_50:\n      dup1\n      0x3685d419\n      gt\n      tag_54\n      jumpi\n      dup1\n      0x49bd5a5e\n      gt\n      tag_55\n      jumpi\n      dup1\n      0x49bd5a5e\n      eq\n      tag_20\n      jumpi\n      dup1\n      0x4a74bb02\n      eq\n      tag_21\n      jumpi\n      dup1\n      0x52390c02\n      eq\n      tag_22\n      jumpi\n      dup1\n      0x5252a228\n      eq\n      tag_23\n      jumpi\n      dup1\n      0x5342acb4\n      eq\n      tag_24\n      jumpi\n      dup1\n      0x55ce3b9a\n      eq\n      tag_25\n      jumpi\n      0x00\n      dup1\n      revert\n    tag_55:\n      dup1\n      0x3685d419\n      eq\n      tag_14\n      jumpi\n      dup1\n      0x39509351\n      eq\n      tag_15\n      jumpi\n      dup1\n      0x3bd5d173\n      eq\n      tag_16\n      jumpi\n      dup1\n      0x437823ec\n      eq\n      tag_17\n      jumpi\n      dup1\n      0x4549b039\n      eq\n      tag_18\n      jumpi\n      dup1\n      0x463db7dd\n      eq\n      tag_19\n      jumpi\n      0x00\n      dup1\n      revert\n    tag_54:\n      dup1\n      0x23b872dd\n      gt\n      tag_56\n      jumpi\n      dup1\n      0x23b872dd\n      eq\n      tag_8\n      jumpi\n      dup1\n      0x281d9a7a\n      eq\n      tag_9\n      jumpi\n      dup1\n      0x293230b8\n      eq\n      tag_10\n      jumpi\n      dup1\n      0x2d5624ed\n      eq\n      tag_11\n      jumpi\n      dup1\n      0x2d838119\n      eq\n      tag_12\n      jumpi\n      dup1\n      0x313ce567\n      eq\n      tag_13\n      jumpi\n      0x00\n      dup1\n      revert\n    tag_56:\n      dup1\n      0x06fdde03\n      eq\n      tag_3\n      jumpi\n      dup1\n      0x095ea7b3\n      eq\n      tag_4\n      jumpi\n      dup1\n      0x13114a9d\n      eq\n      tag_5\n      jumpi\n      dup1\n      0x1694505e\n      eq\n      tag_6\n      jumpi\n      dup1\n      0x18160ddd\n      eq\n      tag_7\n      jumpi\n      0x00\n      dup1\n      revert\n    tag_1:\n      jumpi(tag_2, calldatasize)\n      stop\n    tag_2:\n      0x00\n      dup1\n      revert\n        /* \"EAGLEAI/EagleAI.sol\":17078:17162  function name() external pure returns (string memory) {... */\n    tag_3:\n      callvalue\n      dup1\n      iszero\n      tag_59\n      jumpi\n      0x00\n      dup1\n      revert\n    tag_59:\n      pop\n        /* \"EAGLEAI/EagleAI.sol\":17150:17154  NAME */\n      0x40\n      dup1\n      mload\n      dup1\n      dup3\n      add\n      swap1\n      swap2\n      mstore\n      0x08\n      dup2\n      mstore\n      shl(0xc0, 0x4561676c65204149)\n      0x20\n      dup3\n      add\n      mstore\n        /* \"EAGLEAI/EagleAI.sol\":17078:17162  function name() external pure returns (string memory) {... */\n    tag_60:\n      mload(0x40)\n      tag_62\n      swap2\n      swap1\n      tag_63\n      jump\t// in\n    tag_62:\n      mload(0x40)\n      dup1\n      swap2\n      sub\n      swap1\n      return\n        /* \"EAGLEAI/EagleAI.sol\":20832:20993  function approve(address spender, uint256 amount) public override returns (bool) {... */\n    tag_4:\n      callvalue\n      dup1\n      iszero\n      tag_64\n      jumpi\n      0x00\n      dup1\n      revert\n    tag_64:\n      pop\n      tag_65\n      tag_66\n      calldatasize\n      0x04\n      tag_67\n      jump\t// in\n    tag_66:\n      tag_68\n      jump\t// in\n    tag_65:\n      mload(0x40)\n        /* \"#utility.yul\":1188:1202   */\n      swap1\n      iszero\n        /* \"#utility.yul\":1181:1203   */\n      iszero\n        /* \"#utility.yul\":1163:1204   */\n      dup2\n      mstore\n        /* \"#utility.yul\":1151:1153   */\n      0x20\n        /* \"#utility.yul\":1136:1154   */\n      add\n        /* \"EAGLEAI/EagleAI.sol\":20832:20993  function approve(address spender, uint256 amount) public override returns (bool) {... */\n      tag_62\n        /* \"#utility.yul\":1023:1210   */\n      jump\n        /* \"EAGLEAI/EagleAI.sol\":24287:24376  function totalFees() external view returns (uint256) {... */\n    tag_5:\n      callvalue\n      dup1\n      iszero\n      tag_71\n      jumpi\n      0x00\n      dup1\n      revert\n    tag_71:\n      pop\n        /* \"EAGLEAI/EagleAI.sol\":24358:24368  _tFeeTotal */\n      sload(0x0b)\n        /* \"EAGLEAI/EagleAI.sol\":24287:24376  function totalFees() external view returns (uint256) {... */\n    tag_72:\n      mload(0x40)\n        /* \"#utility.yul\":1361:1386   */\n      swap1\n      dup2\n      mstore\n        /* \"#utility.yul\":1349:1351   */\n      0x20\n        /* \"#utility.yul\":1334:1352   */\n      add\n        /* \"EAGLEAI/EagleAI.sol\":24287:24376  function totalFees() external view returns (uint256) {... */\n      tag_62\n        /* \"#utility.yul\":1215:1392   */\n      jump\n        /* \"EAGLEAI/EagleAI.sol\":13770:13821  IUniswapV2Router02 public immutable uniswapV2Router */\n    tag_6:\n      callvalue\n      dup1\n      iszero\n      tag_76\n      jumpi\n      0x00\n      dup1\n      revert\n    tag_76:\n      pop\n      tag_77\n      immutable(\"0xd1bfb39175379108a717b7ef0f82b6e824d30ad965caf5d88e1c0f8ae725e4a0\")\n      dup2\n      jump\n    tag_77:\n      mload(0x40)\n      sub(shl(0xa0, 0x01), 0x01)\n        /* \"#utility.yul\":1587:1619   */\n      swap1\n      swap2\n      and\n        /* \"#utility.yul\":1569:1620   */\n      dup2\n      mstore\n        /* \"#utility.yul\":1557:1559   */\n      0x20\n        /* \"#utility.yul\":1542:1560   */\n      add\n        /* \"EAGLEAI/EagleAI.sol\":13770:13821  IUniswapV2Router02 public immutable uniswapV2Router */\n      tag_62\n        /* \"#utility.yul\":1397:1626   */\n      jump\n        /* \"EAGLEAI/EagleAI.sol\":18216:18313  function totalSupply() external view override returns (uint256) {... */\n    tag_7:\n      callvalue\n      dup1\n      iszero\n      tag_81\n      jumpi\n      0x00\n      dup1\n      revert\n    tag_81:\n      pop\n        /* \"EAGLEAI/EagleAI.sol\":18298:18305  _tTotal */\n      sload(0x09)\n        /* \"EAGLEAI/EagleAI.sol\":18216:18313  function totalSupply() external view override returns (uint256) {... */\n      jump(tag_72)\n        /* \"EAGLEAI/EagleAI.sol\":21621:21887  function transferFrom(address sender, address recipient, uint256 amount) external override returns (bool) {... */\n    tag_8:\n      callvalue\n      dup1\n      iszero\n      tag_85\n      jumpi\n      0x00\n      dup1\n      revert\n    tag_85:\n      pop\n      tag_65\n      tag_87\n      calldatasize\n      0x04\n      tag_88\n      jump\t// in\n    tag_87:\n      tag_89\n      jump\t// in\n        /* \"EAGLEAI/EagleAI.sol\":14327:14358  uint256 public buyBurnTaxPer= 0 */\n    tag_9:\n      callvalue\n      dup1\n      iszero\n      tag_91\n      jumpi\n      0x00\n      dup1\n      revert\n    tag_91:\n      pop\n      tag_72\n      sload(0x15)\n      dup2\n      jump\n        /* \"EAGLEAI/EagleAI.sol\":46099:46282  function startTrading() external onlyOwner(){... */\n    tag_10:\n      callvalue\n      dup1\n      iszero\n      tag_95\n      jumpi\n      0x00\n      dup1\n      revert\n    tag_95:\n      pop\n      tag_96\n      tag_97\n      jump\t// in\n    tag_96:\n      stop\n        /* \"EAGLEAI/EagleAI.sol\":14520:14552  uint256 public sellBurnTaxPer= 1 */\n    tag_11:\n      callvalue\n      dup1\n      iszero\n      tag_98\n      jumpi\n      0x00\n      dup1\n      revert\n    tag_98:\n      pop\n      tag_72\n      sload(0x19)\n      dup2\n      jump\n        /* \"EAGLEAI/EagleAI.sol\":26668:26918  function tokenFromReflection(uint256 rAmount) public view returns(uint256) {... */\n    tag_12:\n      callvalue\n      dup1\n      iszero\n      tag_102\n      jumpi\n      0x00\n      dup1\n      revert\n    tag_102:\n      pop\n      tag_72\n      tag_104\n      calldatasize\n      0x04\n      tag_105\n      jump\t// in\n    tag_104:\n      tag_106\n      jump\t// in\n        /* \"EAGLEAI/EagleAI.sol\":17934:18018  function decimals() external pure returns (uint8) {... */\n    tag_13:\n      callvalue\n      dup1\n      iszero\n      tag_108\n      jumpi\n      0x00\n      dup1\n      revert\n    tag_108:\n      pop\n      mload(0x40)\n        /* \"EAGLEAI/EagleAI.sol\":13759:13761  18 */\n      0x12\n        /* \"#utility.yul\":2419:2455   */\n      dup2\n      mstore\n        /* \"#utility.yul\":2407:2409   */\n      0x20\n        /* \"#utility.yul\":2392:2410   */\n      add\n        /* \"EAGLEAI/EagleAI.sol\":17934:18018  function decimals() external pure returns (uint8) {... */\n      tag_62\n        /* \"#utility.yul\":2277:2461   */\n      jump\n        /* \"EAGLEAI/EagleAI.sol\":28312:28791  function includeInReward(address account) external onlyOwner() {... */\n    tag_14:\n      callvalue\n      dup1\n      iszero\n      tag_113\n      jumpi\n      0x00\n      dup1\n      revert\n    tag_113:\n      pop\n      tag_96\n      tag_115\n      calldatasize\n      0x04\n      tag_116\n      jump\t// in\n    tag_115:\n      tag_117\n      jump\t// in\n        /* \"EAGLEAI/EagleAI.sol\":22409:22624  function increaseAllowance(address spender, uint256 addedValue) external virtual returns (bool) {... */\n    tag_15:\n      callvalue\n      dup1\n      iszero\n      tag_118\n      jumpi\n      0x00\n      dup1\n      revert\n    tag_118:\n      pop\n      tag_65\n      tag_120\n      calldatasize\n      0x04\n      tag_67\n      jump\t// in\n    tag_120:\n      tag_121\n      jump\t// in\n        /* \"EAGLEAI/EagleAI.sol\":24755:25114  function deliver(uint256 tAmount) external {... */\n    tag_16:\n      callvalue\n      dup1\n      iszero\n      tag_123\n      jumpi\n      0x00\n      dup1\n      revert\n    tag_123:\n      pop\n      tag_96\n      tag_125\n      calldatasize\n      0x04\n      tag_105\n      jump\t// in\n    tag_125:\n      tag_126\n      jump\t// in\n        /* \"EAGLEAI/EagleAI.sol\":30766:30954  function excludeFromFee(address account) external onlyOwner {... */\n    tag_17:\n      callvalue\n      dup1\n      iszero\n      tag_127\n      jumpi\n      0x00\n      dup1\n      revert\n    tag_127:\n      pop\n      tag_96\n      tag_129\n      calldatasize\n      0x04\n      tag_116\n      jump\t// in\n    tag_129:\n      tag_130\n      jump\t// in\n        /* \"EAGLEAI/EagleAI.sol\":25762:26192  function reflectionFromToken(uint256 tAmount, bool deductTransferFee) external view returns(uint256) {... */\n    tag_18:\n      callvalue\n      dup1\n      iszero\n      tag_131\n      jumpi\n      0x00\n      dup1\n      revert\n    tag_131:\n      pop\n      tag_72\n      tag_133\n      calldatasize\n      0x04\n      tag_134\n      jump\t// in\n    tag_133:\n      tag_135\n      jump\t// in\n        /* \"EAGLEAI/EagleAI.sol\":14433:14470  uint256 public sellCoinWalletTaxPer=1 */\n    tag_19:\n      callvalue\n      dup1\n      iszero\n      tag_137\n      jumpi\n      0x00\n      dup1\n      revert\n    tag_137:\n      pop\n      tag_72\n      sload(0x17)\n      dup2\n      jump\n        /* \"EAGLEAI/EagleAI.sol\":13828:13866  address public immutable uniswapV2Pair */\n    tag_20:\n      callvalue\n      dup1\n      iszero\n      tag_141\n      jumpi\n      0x00\n      dup1\n      revert\n    tag_141:\n      pop\n      tag_77\n      immutable(\"0x5d067998675a77797d9e4eec202a19ba43752dfad25ff4a095c1eece7914d0a3\")\n      dup2\n      jump\n        /* \"EAGLEAI/EagleAI.sol\":13907:13947  bool public swapAndLiquifyEnabled = true */\n    tag_21:\n      callvalue\n      dup1\n      iszero\n      tag_146\n      jumpi\n      0x00\n      dup1\n      revert\n    tag_146:\n      pop\n      sload(0x0c)\n      tag_65\n      swap1\n      0x0100\n      swap1\n      div\n      0xff\n      and\n      dup2\n      jump\n        /* \"EAGLEAI/EagleAI.sol\":27277:27612  function excludeFromReward(address account) external onlyOwner() {... */\n    tag_22:\n      callvalue\n      dup1\n      iszero\n      tag_150\n      jumpi\n      0x00\n      dup1\n      revert\n    tag_150:\n      pop\n      tag_96\n      tag_152\n      calldatasize\n      0x04\n      tag_116\n      jump\t// in\n    tag_152:\n      tag_153\n      jump\t// in\n        /* \"EAGLEAI/EagleAI.sol\":14202:14235  uint256 public buyReflectionTax=1 */\n    tag_23:\n      callvalue\n      dup1\n      iszero\n      tag_154\n      jumpi\n      0x00\n      dup1\n      revert\n    tag_154:\n      pop\n      tag_72\n      sload(0x12)\n      dup2\n      jump\n        /* \"EAGLEAI/EagleAI.sol\":44832:44957  function isExcludedFromFee(address account) external view returns(bool) {... */\n    tag_24:\n      callvalue\n      dup1\n      iszero\n      tag_158\n      jumpi\n      0x00\n      dup1\n      revert\n    tag_158:\n      pop\n      tag_65\n      tag_160\n      calldatasize\n      0x04\n      tag_116\n      jump\t// in\n    tag_160:\n      sub(shl(0xa0, 0x01), 0x01)\n        /* \"EAGLEAI/EagleAI.sol\":44922:44949  _isExcludedFromFee[account] */\n      and\n        /* \"EAGLEAI/EagleAI.sol\":44898:44902  bool */\n      0x00\n        /* \"EAGLEAI/EagleAI.sol\":44922:44949  _isExcludedFromFee[account] */\n      swap1\n      dup2\n      mstore\n        /* \"EAGLEAI/EagleAI.sol\":44922:44940  _isExcludedFromFee */\n      0x06\n        /* \"EAGLEAI/EagleAI.sol\":44922:44949  _isExcludedFromFee[account] */\n      0x20\n      mstore\n      0x40\n      swap1\n      keccak256\n      sload\n      0xff\n      and\n      swap1\n        /* \"EAGLEAI/EagleAI.sol\":44832:44957  function isExcludedFromFee(address account) external view returns(bool) {... */\n      jump\n        /* \"EAGLEAI/EagleAI.sol\":31845:32061  function setFundWallet(address _fundWallet) external onlyOwner{... */\n    tag_25:\n      callvalue\n      dup1\n      iszero\n      tag_163\n      jumpi\n      0x00\n      dup1\n      revert\n    tag_163:\n      pop\n      tag_96\n      tag_165\n      calldatasize\n      0x04\n      tag_116\n      jump\t// in\n    tag_165:\n      tag_166\n      jump\t// in\n        /* \"EAGLEAI/EagleAI.sol\":14588:14613  address public fundWallet */\n    tag_26:\n      callvalue\n      dup1\n      iszero\n      tag_167\n      jumpi\n      0x00\n      dup1\n      revert\n    tag_167:\n      pop\n      sload(0x1a)\n      tag_77\n      swap1\n      sub(shl(0xa0, 0x01), 0x01)\n      and\n      dup2\n      jump\n        /* \"EAGLEAI/EagleAI.sol\":52159:52791  function airdrop(address[] calldata addresses, uint[] calldata tokens) external onlyOwner {... */\n    tag_27:\n      callvalue\n      dup1\n      iszero\n      tag_171\n      jumpi\n      0x00\n      dup1\n      revert\n    tag_171:\n      pop\n      tag_96\n      tag_173\n      calldatasize\n      0x04\n      tag_174\n      jump\t// in\n    tag_173:\n      tag_175\n      jump\t// in\n        /* \"EAGLEAI/EagleAI.sol\":18818:19040  function balanceOf(address account) public view override returns (uint256) {... */\n    tag_28:\n      callvalue\n      dup1\n      iszero\n      tag_176\n      jumpi\n      0x00\n      dup1\n      revert\n    tag_176:\n      pop\n      tag_72\n      tag_178\n      calldatasize\n      0x04\n      tag_116\n      jump\t// in\n    tag_178:\n      tag_179\n      jump\t// in\n        /* \"EAGLEAI/EagleAI.sol\":6623:6771  function renounceOwnership() public virtual onlyOwner {... */\n    tag_29:\n      callvalue\n      dup1\n      iszero\n      tag_181\n      jumpi\n      0x00\n      dup1\n      revert\n    tag_181:\n      pop\n      tag_96\n      tag_183\n      jump\t// in\n        /* \"EAGLEAI/EagleAI.sol\":23819:23941  function isExcludedFromReward(address account) external view returns (bool) {... */\n    tag_30:\n      callvalue\n      dup1\n      iszero\n      tag_184\n      jumpi\n      0x00\n      dup1\n      revert\n    tag_184:\n      pop\n      tag_65\n      tag_186\n      calldatasize\n      0x04\n      tag_116\n      jump\t// in\n    tag_186:\n      sub(shl(0xa0, 0x01), 0x01)\n        /* \"EAGLEAI/EagleAI.sol\":23913:23933  _isExcluded[account] */\n      and\n        /* \"EAGLEAI/EagleAI.sol\":23889:23893  bool */\n      0x00\n        /* \"EAGLEAI/EagleAI.sol\":23913:23933  _isExcluded[account] */\n      swap1\n      dup2\n      mstore\n        /* \"EAGLEAI/EagleAI.sol\":23913:23924  _isExcluded */\n      0x07\n        /* \"EAGLEAI/EagleAI.sol\":23913:23933  _isExcluded[account] */\n      0x20\n      mstore\n      0x40\n      swap1\n      keccak256\n      sload\n      0xff\n      and\n      swap1\n        /* \"EAGLEAI/EagleAI.sol\":23819:23941  function isExcludedFromReward(address account) external view returns (bool) {... */\n      jump\n        /* \"EAGLEAI/EagleAI.sol\":5980:6059  function owner() public view returns (address) {... */\n    tag_31:\n      callvalue\n      dup1\n      iszero\n      tag_189\n      jumpi\n      0x00\n      dup1\n      revert\n    tag_189:\n      pop\n        /* \"EAGLEAI/EagleAI.sol\":6018:6025  address */\n      0x00\n        /* \"EAGLEAI/EagleAI.sol\":6045:6051  _owner */\n      sload\n      sub(shl(0xa0, 0x01), 0x01)\n      and\n        /* \"EAGLEAI/EagleAI.sol\":5980:6059  function owner() public view returns (address) {... */\n      jump(tag_77)\n        /* \"EAGLEAI/EagleAI.sol\":17466:17554  function symbol() external pure returns (string memory) {... */\n    tag_32:\n      callvalue\n      dup1\n      iszero\n      tag_193\n      jumpi\n      0x00\n      dup1\n      revert\n    tag_193:\n      pop\n        /* \"EAGLEAI/EagleAI.sol\":17540:17546  SYMBOL */\n      0x40\n      dup1\n      mload\n      dup1\n      dup3\n      add\n      swap1\n      swap2\n      mstore\n      0x03\n      dup2\n      mstore\n      shl(0xe8, 0x454149)\n      0x20\n      dup3\n      add\n      mstore\n        /* \"EAGLEAI/EagleAI.sol\":17466:17554  function symbol() external pure returns (string memory) {... */\n      jump(tag_60)\n        /* \"EAGLEAI/EagleAI.sol\":46469:46686  function addBlacklist(address account) external  onlyOwner {... */\n    tag_33:\n      callvalue\n      dup1\n      iszero\n      tag_197\n      jumpi\n      0x00\n      dup1\n      revert\n    tag_197:\n      pop\n      tag_96\n      tag_199\n      calldatasize\n      0x04\n      tag_116\n      jump\t// in\n    tag_199:\n      tag_200\n      jump\t// in\n        /* \"EAGLEAI/EagleAI.sol\":23143:23368  function decreaseAllowance(address spender, uint256 subtractedValue) external virtual returns (bool) {... */\n    tag_34:\n      callvalue\n      dup1\n      iszero\n      tag_201\n      jumpi\n      0x00\n      dup1\n      revert\n    tag_201:\n      pop\n      tag_65\n      tag_203\n      calldatasize\n      0x04\n      tag_67\n      jump\t// in\n    tag_203:\n      tag_204\n      jump\t// in\n        /* \"EAGLEAI/EagleAI.sol\":19499:19668  function transfer(address recipient, uint256 amount) external override returns (bool) {... */\n    tag_35:\n      callvalue\n      dup1\n      iszero\n      tag_206\n      jumpi\n      0x00\n      dup1\n      revert\n    tag_206:\n      pop\n      tag_65\n      tag_208\n      calldatasize\n      0x04\n      tag_67\n      jump\t// in\n    tag_208:\n      tag_209\n      jump\t// in\n        /* \"EAGLEAI/EagleAI.sol\":49067:49681  function updateSellTaxPer(uint256 reflectionPercent,uint256 coinOperartionPer,uint256 liquidityTaxPer,uint256 burnTaxPer) external onlyOwner {... */\n    tag_36:\n      callvalue\n      dup1\n      iszero\n      tag_211\n      jumpi\n      0x00\n      dup1\n      revert\n    tag_211:\n      pop\n      tag_96\n      tag_213\n      calldatasize\n      0x04\n      tag_214\n      jump\t// in\n    tag_213:\n      tag_215\n      jump\t// in\n        /* \"EAGLEAI/EagleAI.sol\":14477:14513  uint256 public sellLiquidityTaxPer=2 */\n    tag_37:\n      callvalue\n      dup1\n      iszero\n      tag_216\n      jumpi\n      0x00\n      dup1\n      revert\n    tag_216:\n      pop\n      tag_72\n      sload(0x18)\n      dup2\n      jump\n        /* \"EAGLEAI/EagleAI.sol\":32588:32758  function setSwapAndLiquifyEnabled(bool enabled) external onlyOwner {... */\n    tag_38:\n      callvalue\n      dup1\n      iszero\n      tag_220\n      jumpi\n      0x00\n      dup1\n      revert\n    tag_220:\n      pop\n      tag_96\n      tag_222\n      calldatasize\n      0x04\n      tag_223\n      jump\t// in\n    tag_222:\n      tag_224\n      jump\t// in\n        /* \"EAGLEAI/EagleAI.sol\":13954:13978  bool public tradeEnabled */\n    tag_39:\n      callvalue\n      dup1\n      iszero\n      tag_225\n      jumpi\n      0x00\n      dup1\n      revert\n    tag_225:\n      pop\n      sload(0x0c)\n      tag_65\n      swap1\n      0x010000\n      swap1\n      div\n      0xff\n      and\n      dup2\n      jump\n        /* \"EAGLEAI/EagleAI.sol\":33362:33646  function updateThreshold(uint256 _amount) external onlyOwner {... */\n    tag_40:\n      callvalue\n      dup1\n      iszero\n      tag_229\n      jumpi\n      0x00\n      dup1\n      revert\n    tag_229:\n      pop\n      tag_96\n      tag_231\n      calldatasize\n      0x04\n      tag_105\n      jump\t// in\n    tag_231:\n      tag_232\n      jump\t// in\n        /* \"EAGLEAI/EagleAI.sol\":13231:13274  mapping(address => bool) public blacklisted */\n    tag_41:\n      callvalue\n      dup1\n      iszero\n      tag_233\n      jumpi\n      0x00\n      dup1\n      revert\n    tag_233:\n      pop\n      tag_65\n      tag_235\n      calldatasize\n      0x04\n      tag_116\n      jump\t// in\n    tag_235:\n      mstore(0x20, 0x05)\n      0x00\n      swap1\n      dup2\n      mstore\n      0x40\n      swap1\n      keccak256\n      sload\n      0xff\n      and\n      dup2\n      jump\n        /* \"EAGLEAI/EagleAI.sol\":20208:20353  function allowance(address owner, address spender) external view override returns (uint256) {... */\n    tag_42:\n      callvalue\n      dup1\n      iszero\n      tag_238\n      jumpi\n      0x00\n      dup1\n      revert\n    tag_238:\n      pop\n      tag_72\n      tag_240\n      calldatasize\n      0x04\n      tag_241\n      jump\t// in\n    tag_240:\n      sub(shl(0xa0, 0x01), 0x01)\n        /* \"EAGLEAI/EagleAI.sol\":20318:20336  _allowances[owner] */\n      swap2\n      dup3\n      and\n        /* \"EAGLEAI/EagleAI.sol\":20291:20298  uint256 */\n      0x00\n        /* \"EAGLEAI/EagleAI.sol\":20318:20336  _allowances[owner] */\n      swap1\n      dup2\n      mstore\n        /* \"EAGLEAI/EagleAI.sol\":20318:20329  _allowances */\n      0x04\n        /* \"EAGLEAI/EagleAI.sol\":20318:20336  _allowances[owner] */\n      0x20\n      swap1\n      dup2\n      mstore\n      0x40\n      dup1\n      dup4\n      keccak256\n        /* \"EAGLEAI/EagleAI.sol\":20318:20345  _allowances[owner][spender] */\n      swap4\n      swap1\n      swap5\n      and\n      dup3\n      mstore\n      swap2\n      swap1\n      swap2\n      mstore\n      keccak256\n      sload\n      swap1\n        /* \"EAGLEAI/EagleAI.sol\":20208:20353  function allowance(address owner, address spender) external view override returns (uint256) {... */\n      jump\n        /* \"EAGLEAI/EagleAI.sol\":14392:14426  uint256 public sellReflectionTax=2 */\n    tag_43:\n      callvalue\n      dup1\n      iszero\n      tag_244\n      jumpi\n      0x00\n      dup1\n      revert\n    tag_244:\n      pop\n      tag_72\n      sload(0x16)\n      dup2\n      jump\n        /* \"EAGLEAI/EagleAI.sol\":14242:14278  uint256 public buyCoinWalletTaxPer=1 */\n    tag_44:\n      callvalue\n      dup1\n      iszero\n      tag_248\n      jumpi\n      0x00\n      dup1\n      revert\n    tag_248:\n      pop\n      tag_72\n      sload(0x13)\n      dup2\n      jump\n        /* \"EAGLEAI/EagleAI.sol\":14285:14320  uint256 public buyLiquidityTaxPer=1 */\n    tag_45:\n      callvalue\n      dup1\n      iszero\n      tag_252\n      jumpi\n      0x00\n      dup1\n      revert\n    tag_252:\n      pop\n      tag_72\n      sload(0x14)\n      dup2\n      jump\n        /* \"EAGLEAI/EagleAI.sol\":31315:31499  function includeInFee(address account) external onlyOwner {... */\n    tag_46:\n      callvalue\n      dup1\n      iszero\n      tag_256\n      jumpi\n      0x00\n      dup1\n      revert\n    tag_256:\n      pop\n      tag_96\n      tag_258\n      calldatasize\n      0x04\n      tag_116\n      jump\t// in\n    tag_258:\n      tag_259\n      jump\t// in\n        /* \"EAGLEAI/EagleAI.sol\":47783:48394  function updateBuyTaxPer(uint256 reflectionPercent,uint256 coinOperartionPer,uint256 liquidityTaxPer,uint256 burnTaxPer) external onlyOwner {... */\n    tag_47:\n      callvalue\n      dup1\n      iszero\n      tag_260\n      jumpi\n      0x00\n      dup1\n      revert\n    tag_260:\n      pop\n      tag_96\n      tag_262\n      calldatasize\n      0x04\n      tag_214\n      jump\t// in\n    tag_262:\n      tag_263\n      jump\t// in\n        /* \"EAGLEAI/EagleAI.sol\":46893:47113  function removeBlacklist(address account) external  onlyOwner {... */\n    tag_48:\n      callvalue\n      dup1\n      iszero\n      tag_264\n      jumpi\n      0x00\n      dup1\n      revert\n    tag_264:\n      pop\n      tag_96\n      tag_266\n      calldatasize\n      0x04\n      tag_116\n      jump\t// in\n    tag_266:\n      tag_267\n      jump\t// in\n        /* \"EAGLEAI/EagleAI.sol\":6926:7170  function transferOwnership(address newOwner) public virtual onlyOwner {... */\n    tag_49:\n      callvalue\n      dup1\n      iszero\n      tag_268\n      jumpi\n      0x00\n      dup1\n      revert\n    tag_268:\n      pop\n      tag_96\n      tag_270\n      calldatasize\n      0x04\n      tag_116\n      jump\t// in\n    tag_270:\n      tag_271\n      jump\t// in\n        /* \"EAGLEAI/EagleAI.sol\":20832:20993  function approve(address spender, uint256 amount) public override returns (bool) {... */\n    tag_68:\n        /* \"EAGLEAI/EagleAI.sol\":20907:20911  bool */\n      0x00\n        /* \"EAGLEAI/EagleAI.sol\":20924:20963  _approve(_msgSender(), spender, amount) */\n      tag_274\n        /* \"EAGLEAI/EagleAI.sol\":4607:4617  msg.sender */\n      caller\n        /* \"EAGLEAI/EagleAI.sol\":20947:20954  spender */\n      dup5\n        /* \"EAGLEAI/EagleAI.sol\":20956:20962  amount */\n      dup5\n        /* \"EAGLEAI/EagleAI.sol\":20924:20932  _approve */\n      tag_277\n        /* \"EAGLEAI/EagleAI.sol\":20924:20963  _approve(_msgSender(), spender, amount) */\n      jump\t// in\n    tag_274:\n      pop\n        /* \"EAGLEAI/EagleAI.sol\":20981:20985  true */\n      0x01\n        /* \"EAGLEAI/EagleAI.sol\":20832:20993  function approve(address spender, uint256 amount) public override returns (bool) {... */\n    tag_273:\n      swap3\n      swap2\n      pop\n      pop\n      jump\t// out\n        /* \"EAGLEAI/EagleAI.sol\":21621:21887  function transferFrom(address sender, address recipient, uint256 amount) external override returns (bool) {... */\n    tag_89:\n        /* \"EAGLEAI/EagleAI.sol\":21721:21725  bool */\n      0x00\n        /* \"EAGLEAI/EagleAI.sol\":21738:21774  _transfer(sender, recipient, amount) */\n      tag_281\n        /* \"EAGLEAI/EagleAI.sol\":21748:21754  sender */\n      dup5\n        /* \"EAGLEAI/EagleAI.sol\":21756:21765  recipient */\n      dup5\n        /* \"EAGLEAI/EagleAI.sol\":21767:21773  amount */\n      dup5\n        /* \"EAGLEAI/EagleAI.sol\":21738:21747  _transfer */\n      tag_282\n        /* \"EAGLEAI/EagleAI.sol\":21738:21774  _transfer(sender, recipient, amount) */\n      jump\t// in\n    tag_281:\n      sub(shl(0xa0, 0x01), 0x01)\n        /* \"EAGLEAI/EagleAI.sol\":21816:21835  _allowances[sender] */\n      dup5\n      and\n      0x00\n      swap1\n      dup2\n      mstore\n        /* \"EAGLEAI/EagleAI.sol\":21816:21827  _allowances */\n      0x04\n        /* \"EAGLEAI/EagleAI.sol\":21816:21835  _allowances[sender] */\n      0x20\n      swap1\n      dup2\n      mstore\n      0x40\n      dup1\n      dup4\n      keccak256\n        /* \"EAGLEAI/EagleAI.sol\":4607:4617  msg.sender */\n      caller\n        /* \"EAGLEAI/EagleAI.sol\":21816:21849  _allowances[sender][_msgSender()] */\n      dup1\n      dup6\n      mstore\n      swap3\n      mstore\n      swap1\n      swap2\n      keccak256\n      sload\n        /* \"EAGLEAI/EagleAI.sol\":21785:21857  _approve(sender, _msgSender(), _allowances[sender][_msgSender()]-amount) */\n      tag_283\n      swap2\n        /* \"EAGLEAI/EagleAI.sol\":21794:21800  sender */\n      dup7\n      swap2\n        /* \"EAGLEAI/EagleAI.sol\":21816:21856  _allowances[sender][_msgSender()]-amount */\n      tag_286\n      swap1\n        /* \"EAGLEAI/EagleAI.sol\":21850:21856  amount */\n      dup7\n      swap1\n        /* \"EAGLEAI/EagleAI.sol\":21816:21856  _allowances[sender][_msgSender()]-amount */\n      tag_287\n      jump\t// in\n    tag_286:\n        /* \"EAGLEAI/EagleAI.sol\":21785:21793  _approve */\n      tag_277\n        /* \"EAGLEAI/EagleAI.sol\":21785:21857  _approve(sender, _msgSender(), _allowances[sender][_msgSender()]-amount) */\n      jump\t// in\n    tag_283:\n      pop\n        /* \"EAGLEAI/EagleAI.sol\":21875:21879  true */\n      0x01\n        /* \"EAGLEAI/EagleAI.sol\":21621:21887  function transferFrom(address sender, address recipient, uint256 amount) external override returns (bool) {... */\n      swap4\n      swap3\n      pop\n      pop\n      pop\n      jump\t// out\n        /* \"EAGLEAI/EagleAI.sol\":46099:46282  function startTrading() external onlyOwner(){... */\n    tag_97:\n        /* \"EAGLEAI/EagleAI.sol\":6192:6198  _owner */\n      and(sub(shl(0xa0, 0x01), 0x01), sload(0x00))\n        /* \"EAGLEAI/EagleAI.sol\":4607:4617  msg.sender */\n      caller\n        /* \"EAGLEAI/EagleAI.sol\":6192:6214  _owner == _msgSender() */\n      eq\n        /* \"EAGLEAI/EagleAI.sol\":6184:6251  require(_owner == _msgSender(), \"Ownable: caller is not the owner\") */\n      tag_290\n      jumpi\n      mload(0x40)\n      shl(0xe5, 0x461bcd)\n      dup2\n      mstore\n      0x04\n      add\n      tag_291\n      swap1\n      tag_292\n      jump\t// in\n    tag_291:\n      mload(0x40)\n      dup1\n      swap2\n      sub\n      swap1\n      revert\n    tag_290:\n        /* \"EAGLEAI/EagleAI.sol\":46163:46175  tradeEnabled */\n      sload(0x0c)\n      0x010000\n      swap1\n      div\n      0xff\n      and\n        /* \"EAGLEAI/EagleAI.sol\":46162:46175  !tradeEnabled */\n      iszero\n        /* \"EAGLEAI/EagleAI.sol\":46154:46202  require(!tradeEnabled,\"Trading already started\") */\n      tag_294\n      jumpi\n      mload(0x40)\n      shl(0xe5, 0x461bcd)\n      dup2\n      mstore\n        /* \"#utility.yul\":6290:6292   */\n      0x20\n        /* \"EAGLEAI/EagleAI.sol\":46154:46202  require(!tradeEnabled,\"Trading already started\") */\n      0x04\n      dup3\n      add\n        /* \"#utility.yul\":6272:6293   */\n      mstore\n        /* \"#utility.yul\":6329:6331   */\n      0x17\n        /* \"#utility.yul\":6309:6327   */\n      0x24\n      dup3\n      add\n        /* \"#utility.yul\":6302:6332   */\n      mstore\n        /* \"#utility.yul\":6368:6393   */\n      0x54726164696e6720616c72656164792073746172746564000000000000000000\n        /* \"#utility.yul\":6348:6366   */\n      0x44\n      dup3\n      add\n        /* \"#utility.yul\":6341:6394   */\n      mstore\n        /* \"#utility.yul\":6411:6429   */\n      0x64\n      add\n        /* \"EAGLEAI/EagleAI.sol\":46154:46202  require(!tradeEnabled,\"Trading already started\") */\n      tag_291\n        /* \"#utility.yul\":6088:6435   */\n      jump\n        /* \"EAGLEAI/EagleAI.sol\":46154:46202  require(!tradeEnabled,\"Trading already started\") */\n    tag_294:\n        /* \"EAGLEAI/EagleAI.sol\":46213:46225  tradeEnabled */\n      0x0c\n        /* \"EAGLEAI/EagleAI.sol\":46213:46232  tradeEnabled = true */\n      dup1\n      sload\n      not(0xff0000)\n      and\n      0x010000\n      swap1\n      dup2\n      or\n      swap2\n      dup3\n      swap1\n      sstore\n        /* \"EAGLEAI/EagleAI.sol\":46248:46274  TradeEnabled(tradeEnabled) */\n      mload(0x40)\n      0x7d7f00509dd73ac4449f698ae75ccc797895eff5fa9d446d3df387598a26e735\n      swap3\n      tag_297\n      swap3\n        /* \"EAGLEAI/EagleAI.sol\":46261:46273  tradeEnabled */\n      swap1\n      div\n        /* \"EAGLEAI/EagleAI.sol\":46213:46232  tradeEnabled = true */\n      0xff\n        /* \"EAGLEAI/EagleAI.sol\":46261:46273  tradeEnabled */\n      and\n        /* \"#utility.yul\":1188:1202   */\n      iszero\n        /* \"#utility.yul\":1181:1203   */\n      iszero\n        /* \"#utility.yul\":1163:1204   */\n      dup2\n      mstore\n        /* \"#utility.yul\":1151:1153   */\n      0x20\n        /* \"#utility.yul\":1136:1154   */\n      add\n      swap1\n        /* \"#utility.yul\":1023:1210   */\n      jump\n        /* \"EAGLEAI/EagleAI.sol\":46248:46274  TradeEnabled(tradeEnabled) */\n    tag_297:\n      mload(0x40)\n      dup1\n      swap2\n      sub\n      swap1\n      log1\n        /* \"EAGLEAI/EagleAI.sol\":46099:46282  function startTrading() external onlyOwner(){... */\n      jump\t// out\n        /* \"EAGLEAI/EagleAI.sol\":26668:26918  function tokenFromReflection(uint256 rAmount) public view returns(uint256) {... */\n    tag_106:\n        /* \"EAGLEAI/EagleAI.sol\":26734:26741  uint256 */\n      0x00\n        /* \"EAGLEAI/EagleAI.sol\":26773:26780  _rTotal */\n      sload(0x0a)\n        /* \"EAGLEAI/EagleAI.sol\":26762:26769  rAmount */\n      dup3\n        /* \"EAGLEAI/EagleAI.sol\":26762:26780  rAmount <= _rTotal */\n      gt\n      iszero\n        /* \"EAGLEAI/EagleAI.sol\":26754:26827  require(rAmount <= _rTotal, \"Amount must be less than total reflections\") */\n      tag_299\n      jumpi\n      mload(0x40)\n      shl(0xe5, 0x461bcd)\n      dup2\n      mstore\n        /* \"#utility.yul\":6642:6644   */\n      0x20\n        /* \"EAGLEAI/EagleAI.sol\":26754:26827  require(rAmount <= _rTotal, \"Amount must be less than total reflections\") */\n      0x04\n      dup3\n      add\n        /* \"#utility.yul\":6624:6645   */\n      mstore\n        /* \"#utility.yul\":6681:6683   */\n      0x2a\n        /* \"#utility.yul\":6661:6679   */\n      0x24\n      dup3\n      add\n        /* \"#utility.yul\":6654:6684   */\n      mstore\n        /* \"#utility.yul\":6720:6754   */\n      0x416d6f756e74206d757374206265206c657373207468616e20746f74616c2072\n        /* \"#utility.yul\":6700:6718   */\n      0x44\n      dup3\n      add\n        /* \"#utility.yul\":6693:6755   */\n      mstore\n      shl(0xb0, 0x65666c656374696f6e73)\n        /* \"#utility.yul\":6771:6789   */\n      0x64\n      dup3\n      add\n        /* \"#utility.yul\":6764:6804   */\n      mstore\n        /* \"#utility.yul\":6821:6840   */\n      0x84\n      add\n        /* \"EAGLEAI/EagleAI.sol\":26754:26827  require(rAmount <= _rTotal, \"Amount must be less than total reflections\") */\n      tag_291\n        /* \"#utility.yul\":6440:6846   */\n      jump\n        /* \"EAGLEAI/EagleAI.sol\":26754:26827  require(rAmount <= _rTotal, \"Amount must be less than total reflections\") */\n    tag_299:\n        /* \"EAGLEAI/EagleAI.sol\":26838:26857  uint256 currentRate */\n      0x00\n        /* \"EAGLEAI/EagleAI.sol\":26861:26871  _getRate() */\n      tag_302\n        /* \"EAGLEAI/EagleAI.sol\":26861:26869  _getRate */\n      tag_303\n        /* \"EAGLEAI/EagleAI.sol\":26861:26871  _getRate() */\n      jump\t// in\n    tag_302:\n        /* \"EAGLEAI/EagleAI.sol\":26838:26871  uint256 currentRate =  _getRate() */\n      swap1\n      pop\n        /* \"EAGLEAI/EagleAI.sol\":26889:26910  rAmount / currentRate */\n      tag_304\n        /* \"EAGLEAI/EagleAI.sol\":26838:26871  uint256 currentRate =  _getRate() */\n      dup2\n        /* \"EAGLEAI/EagleAI.sol\":26889:26896  rAmount */\n      dup5\n        /* \"EAGLEAI/EagleAI.sol\":26889:26910  rAmount / currentRate */\n      tag_305\n      jump\t// in\n    tag_304:\n        /* \"EAGLEAI/EagleAI.sol\":26882:26910  return rAmount / currentRate */\n      swap4\n        /* \"EAGLEAI/EagleAI.sol\":26668:26918  function tokenFromReflection(uint256 rAmount) public view returns(uint256) {... */\n      swap3\n      pop\n      pop\n      pop\n      jump\t// out\n        /* \"EAGLEAI/EagleAI.sol\":28312:28791  function includeInReward(address account) external onlyOwner() {... */\n    tag_117:\n        /* \"EAGLEAI/EagleAI.sol\":6192:6198  _owner */\n      and(sub(shl(0xa0, 0x01), 0x01), sload(0x00))\n        /* \"EAGLEAI/EagleAI.sol\":4607:4617  msg.sender */\n      caller\n        /* \"EAGLEAI/EagleAI.sol\":6192:6214  _owner == _msgSender() */\n      eq\n        /* \"EAGLEAI/EagleAI.sol\":6184:6251  require(_owner == _msgSender(), \"Ownable: caller is not the owner\") */\n      tag_309\n      jumpi\n      mload(0x40)\n      shl(0xe5, 0x461bcd)\n      dup2\n      mstore\n      0x04\n      add\n      tag_291\n      swap1\n      tag_292\n      jump\t// in\n    tag_309:\n      sub(shl(0xa0, 0x01), 0x01)\n        /* \"EAGLEAI/EagleAI.sol\":28394:28414  _isExcluded[account] */\n      dup2\n      and\n      0x00\n      swap1\n      dup2\n      mstore\n        /* \"EAGLEAI/EagleAI.sol\":28394:28405  _isExcluded */\n      0x07\n        /* \"EAGLEAI/EagleAI.sol\":28394:28414  _isExcluded[account] */\n      0x20\n      mstore\n      0x40\n      swap1\n      keccak256\n      sload\n      0xff\n      and\n        /* \"EAGLEAI/EagleAI.sol\":28386:28446  require(_isExcluded[account], \"Account is already Included\") */\n      tag_312\n      jumpi\n      mload(0x40)\n      shl(0xe5, 0x461bcd)\n      dup2\n      mstore\n        /* \"#utility.yul\":7275:7277   */\n      0x20\n        /* \"EAGLEAI/EagleAI.sol\":28386:28446  require(_isExcluded[account], \"Account is already Included\") */\n      0x04\n      dup3\n      add\n        /* \"#utility.yul\":7257:7278   */\n      mstore\n        /* \"#utility.yul\":7314:7316   */\n      0x1b\n        /* \"#utility.yul\":7294:7312   */\n      0x24\n      dup3\n      add\n        /* \"#utility.yul\":7287:7317   */\n      mstore\n        /* \"#utility.yul\":7353:7382   */\n      0x4163636f756e7420697320616c726561647920496e636c756465640000000000\n        /* \"#utility.yul\":7333:7351   */\n      0x44\n      dup3\n      add\n        /* \"#utility.yul\":7326:7383   */\n      mstore\n        /* \"#utility.yul\":7400:7418   */\n      0x64\n      add\n        /* \"EAGLEAI/EagleAI.sol\":28386:28446  require(_isExcluded[account], \"Account is already Included\") */\n      tag_291\n        /* \"#utility.yul\":7073:7424   */\n      jump\n        /* \"EAGLEAI/EagleAI.sol\":28386:28446  require(_isExcluded[account], \"Account is already Included\") */\n    tag_312:\n        /* \"EAGLEAI/EagleAI.sol\":28462:28471  uint256 i */\n      0x00\n        /* \"EAGLEAI/EagleAI.sol\":28457:28784  for (uint256 i = 0; i < _excluded.length; i++) {... */\n    tag_315:\n        /* \"EAGLEAI/EagleAI.sol\":28481:28490  _excluded */\n      0x08\n        /* \"EAGLEAI/EagleAI.sol\":28481:28497  _excluded.length */\n      sload\n        /* \"EAGLEAI/EagleAI.sol\":28477:28497  i < _excluded.length */\n      dup2\n      lt\n        /* \"EAGLEAI/EagleAI.sol\":28457:28784  for (uint256 i = 0; i < _excluded.length; i++) {... */\n      iszero\n      tag_316\n      jumpi\n        /* \"EAGLEAI/EagleAI.sol\":28539:28546  account */\n      dup2\n      sub(shl(0xa0, 0x01), 0x01)\n        /* \"EAGLEAI/EagleAI.sol\":28523:28546  _excluded[i] == account */\n      and\n        /* \"EAGLEAI/EagleAI.sol\":28523:28532  _excluded */\n      0x08\n        /* \"EAGLEAI/EagleAI.sol\":28533:28534  i */\n      dup3\n        /* \"EAGLEAI/EagleAI.sol\":28523:28535  _excluded[i] */\n      dup2\n      sload\n      dup2\n      lt\n      tag_319\n      jumpi\n      tag_319\n      tag_320\n      jump\t// in\n    tag_319:\n      0x00\n      swap2\n      dup3\n      mstore\n      0x20\n      swap1\n      swap2\n      keccak256\n      add\n      sload\n      sub(shl(0xa0, 0x01), 0x01)\n      and\n        /* \"EAGLEAI/EagleAI.sol\":28523:28546  _excluded[i] == account */\n      sub\n        /* \"EAGLEAI/EagleAI.sol\":28519:28773  if (_excluded[i] == account) {... */\n      tag_322\n      jumpi\n        /* \"EAGLEAI/EagleAI.sol\":28582:28591  _excluded */\n      0x08\n        /* \"EAGLEAI/EagleAI.sol\":28592:28608  _excluded.length */\n      dup1\n      sload\n        /* \"EAGLEAI/EagleAI.sol\":28592:28612  _excluded.length - 1 */\n      tag_323\n      swap1\n        /* \"EAGLEAI/EagleAI.sol\":28611:28612  1 */\n      0x01\n      swap1\n        /* \"EAGLEAI/EagleAI.sol\":28592:28612  _excluded.length - 1 */\n      tag_287\n      jump\t// in\n    tag_323:\n        /* \"EAGLEAI/EagleAI.sol\":28582:28613  _excluded[_excluded.length - 1] */\n      dup2\n      sload\n      dup2\n      lt\n      tag_325\n      jumpi\n      tag_325\n      tag_320\n      jump\t// in\n    tag_325:\n      0x00\n      swap2\n      dup3\n      mstore\n      0x20\n      swap1\n      swap2\n      keccak256\n      add\n      sload\n        /* \"EAGLEAI/EagleAI.sol\":28567:28576  _excluded */\n      0x08\n        /* \"EAGLEAI/EagleAI.sol\":28567:28579  _excluded[i] */\n      dup1\n      sload\n      sub(shl(0xa0, 0x01), 0x01)\n        /* \"EAGLEAI/EagleAI.sol\":28582:28613  _excluded[_excluded.length - 1] */\n      swap1\n      swap3\n      and\n      swap2\n        /* \"EAGLEAI/EagleAI.sol\":28577:28578  i */\n      dup4\n      swap1\n        /* \"EAGLEAI/EagleAI.sol\":28567:28579  _excluded[i] */\n      dup2\n      lt\n      tag_328\n      jumpi\n      tag_328\n      tag_320\n      jump\t// in\n    tag_328:\n      0x00\n      swap2\n      dup3\n      mstore\n      0x20\n      dup1\n      dup4\n      keccak256\n      swap2\n      swap1\n      swap2\n      add\n        /* \"EAGLEAI/EagleAI.sol\":28567:28613  _excluded[i] = _excluded[_excluded.length - 1] */\n      dup1\n      sload\n      not(sub(shl(0xa0, 0x01), 0x01))\n      and\n      sub(shl(0xa0, 0x01), 0x01)\n      swap5\n      dup6\n      and\n      or\n      swap1\n      sstore\n        /* \"EAGLEAI/EagleAI.sol\":28632:28648  _tOwned[account] */\n      swap2\n      dup5\n      and\n      dup2\n      mstore\n        /* \"EAGLEAI/EagleAI.sol\":28632:28639  _tOwned */\n      0x03\n        /* \"EAGLEAI/EagleAI.sol\":28632:28648  _tOwned[account] */\n      dup3\n      mstore\n      0x40\n      dup1\n      dup3\n      keccak256\n        /* \"EAGLEAI/EagleAI.sol\":28632:28652  _tOwned[account] = 0 */\n      dup3\n      swap1\n      sstore\n        /* \"EAGLEAI/EagleAI.sol\":28671:28682  _isExcluded */\n      0x07\n        /* \"EAGLEAI/EagleAI.sol\":28671:28691  _isExcluded[account] */\n      swap1\n      swap3\n      mstore\n      keccak256\n        /* \"EAGLEAI/EagleAI.sol\":28671:28699  _isExcluded[account] = false */\n      dup1\n      sload\n      not(0xff)\n      and\n      swap1\n      sstore\n        /* \"EAGLEAI/EagleAI.sol\":28718:28727  _excluded */\n      0x08\n        /* \"EAGLEAI/EagleAI.sol\":28718:28733  _excluded.pop() */\n      dup1\n      sload\n      dup1\n      tag_331\n      jumpi\n      tag_331\n      tag_332\n      jump\t// in\n    tag_331:\n      0x00\n      dup3\n      dup2\n      mstore\n      0x20\n      swap1\n      keccak256\n      dup2\n      add\n      not(0x00)\n      swap1\n      dup2\n      add\n      dup1\n      sload\n      not(sub(shl(0xa0, 0x01), 0x01))\n      and\n      swap1\n      sstore\n      add\n      swap1\n      sstore\n        /* \"EAGLEAI/EagleAI.sol\":28457:28784  for (uint256 i = 0; i < _excluded.length; i++) {... */\n      pop\n        /* \"EAGLEAI/EagleAI.sol\":28312:28791  function includeInReward(address account) external onlyOwner() {... */\n      pop\n      jump\t// out\n        /* \"EAGLEAI/EagleAI.sol\":28519:28773  if (_excluded[i] == account) {... */\n    tag_322:\n        /* \"EAGLEAI/EagleAI.sol\":28499:28502  i++ */\n      0x01\n      add\n        /* \"EAGLEAI/EagleAI.sol\":28457:28784  for (uint256 i = 0; i < _excluded.length; i++) {... */\n      jump(tag_315)\n    tag_316:\n      pop\n        /* \"EAGLEAI/EagleAI.sol\":28312:28791  function includeInReward(address account) external onlyOwner() {... */\n      pop\n      jump\t// out\n        /* \"EAGLEAI/EagleAI.sol\":22409:22624  function increaseAllowance(address spender, uint256 addedValue) external virtual returns (bool) {... */\n    tag_121:\n        /* \"EAGLEAI/EagleAI.sol\":4607:4617  msg.sender */\n      caller\n        /* \"EAGLEAI/EagleAI.sol\":22499:22503  bool */\n      0x00\n        /* \"EAGLEAI/EagleAI.sol\":22548:22573  _allowances[_msgSender()] */\n      dup2\n      dup2\n      mstore\n        /* \"EAGLEAI/EagleAI.sol\":22548:22559  _allowances */\n      0x04\n        /* \"EAGLEAI/EagleAI.sol\":22548:22573  _allowances[_msgSender()] */\n      0x20\n      swap1\n      dup2\n      mstore\n      0x40\n      dup1\n      dup4\n      keccak256\n      sub(shl(0xa0, 0x01), 0x01)\n        /* \"EAGLEAI/EagleAI.sol\":22548:22582  _allowances[_msgSender()][spender] */\n      dup8\n      and\n      dup5\n      mstore\n      swap1\n      swap2\n      mstore\n      dup2\n      keccak256\n      sload\n        /* \"EAGLEAI/EagleAI.sol\":22499:22503  bool */\n      swap1\n      swap2\n        /* \"EAGLEAI/EagleAI.sol\":22516:22594  _approve(_msgSender(), spender, _allowances[_msgSender()][spender]+addedValue) */\n      tag_274\n      swap2\n        /* \"EAGLEAI/EagleAI.sol\":22539:22546  spender */\n      dup6\n      swap1\n        /* \"EAGLEAI/EagleAI.sol\":22548:22593  _allowances[_msgSender()][spender]+addedValue */\n      tag_286\n      swap1\n        /* \"EAGLEAI/EagleAI.sol\":22583:22593  addedValue */\n      dup7\n      swap1\n        /* \"EAGLEAI/EagleAI.sol\":22548:22593  _allowances[_msgSender()][spender]+addedValue */\n      tag_339\n      jump\t// in\n        /* \"EAGLEAI/EagleAI.sol\":24755:25114  function deliver(uint256 tAmount) external {... */\n    tag_126:\n        /* \"EAGLEAI/EagleAI.sol\":4607:4617  msg.sender */\n      caller\n        /* \"EAGLEAI/EagleAI.sol\":24809:24823  address sender */\n      0x00\n        /* \"EAGLEAI/EagleAI.sol\":24858:24877  _isExcluded[sender] */\n      dup2\n      dup2\n      mstore\n        /* \"EAGLEAI/EagleAI.sol\":24858:24869  _isExcluded */\n      0x07\n        /* \"EAGLEAI/EagleAI.sol\":24858:24877  _isExcluded[sender] */\n      0x20\n      mstore\n      0x40\n      swap1\n      keccak256\n      sload\n      0xff\n      and\n        /* \"EAGLEAI/EagleAI.sol\":24857:24877  !_isExcluded[sender] */\n      iszero\n        /* \"EAGLEAI/EagleAI.sol\":24849:24926  require(!_isExcluded[sender], \"Excluded addresses cannot call this function\") */\n      tag_342\n      jumpi\n      mload(0x40)\n      shl(0xe5, 0x461bcd)\n      dup2\n      mstore\n        /* \"#utility.yul\":8025:8027   */\n      0x20\n        /* \"EAGLEAI/EagleAI.sol\":24849:24926  require(!_isExcluded[sender], \"Excluded addresses cannot call this function\") */\n      0x04\n      dup3\n      add\n        /* \"#utility.yul\":8007:8028   */\n      mstore\n        /* \"#utility.yul\":8064:8066   */\n      0x2c\n        /* \"#utility.yul\":8044:8062   */\n      0x24\n      dup3\n      add\n        /* \"#utility.yul\":8037:8067   */\n      mstore\n        /* \"#utility.yul\":8103:8137   */\n      0x4578636c75646564206164647265737365732063616e6e6f742063616c6c2074\n        /* \"#utility.yul\":8083:8101   */\n      0x44\n      dup3\n      add\n        /* \"#utility.yul\":8076:8138   */\n      mstore\n      shl(0xa1, 0x3434b990333ab731ba34b7b7)\n        /* \"#utility.yul\":8154:8172   */\n      0x64\n      dup3\n      add\n        /* \"#utility.yul\":8147:8189   */\n      mstore\n        /* \"#utility.yul\":8206:8225   */\n      0x84\n      add\n        /* \"EAGLEAI/EagleAI.sol\":24849:24926  require(!_isExcluded[sender], \"Excluded addresses cannot call this function\") */\n      tag_291\n        /* \"#utility.yul\":7823:8231   */\n      jump\n        /* \"EAGLEAI/EagleAI.sol\":24849:24926  require(!_isExcluded[sender], \"Excluded addresses cannot call this function\") */\n    tag_342:\n        /* \"EAGLEAI/EagleAI.sol\":24938:24953  uint256 rAmount */\n      0x00\n        /* \"EAGLEAI/EagleAI.sol\":24958:24976  _getValue(tAmount) */\n      tag_345\n        /* \"EAGLEAI/EagleAI.sol\":24968:24975  tAmount */\n      dup4\n        /* \"EAGLEAI/EagleAI.sol\":24958:24967  _getValue */\n      tag_346\n        /* \"EAGLEAI/EagleAI.sol\":24958:24976  _getValue(tAmount) */\n      jump\t// in\n    tag_345:\n      pop\n      sub(shl(0xa0, 0x01), 0x01)\n        /* \"EAGLEAI/EagleAI.sol\":25005:25020  _rOwned[sender] */\n      dup4\n      and\n      0x00\n      swap1\n      dup2\n      mstore\n        /* \"EAGLEAI/EagleAI.sol\":25005:25012  _rOwned */\n      0x02\n        /* \"EAGLEAI/EagleAI.sol\":25005:25020  _rOwned[sender] */\n      0x20\n      mstore\n      0x40\n      swap1\n      keccak256\n      sload\n        /* \"EAGLEAI/EagleAI.sol\":24937:24976  (uint256 rAmount,) = _getValue(tAmount) */\n      swap1\n      swap2\n      pop\n        /* \"EAGLEAI/EagleAI.sol\":25005:25028  _rOwned[sender]-rAmount */\n      tag_347\n      swap1\n        /* \"EAGLEAI/EagleAI.sol\":24937:24976  (uint256 rAmount,) = _getValue(tAmount) */\n      dup3\n      swap1\n        /* \"EAGLEAI/EagleAI.sol\":25005:25028  _rOwned[sender]-rAmount */\n      tag_287\n      jump\t// in\n    tag_347:\n      sub(shl(0xa0, 0x01), 0x01)\n        /* \"EAGLEAI/EagleAI.sol\":24987:25002  _rOwned[sender] */\n      dup4\n      and\n      0x00\n      swap1\n      dup2\n      mstore\n        /* \"EAGLEAI/EagleAI.sol\":24987:24994  _rOwned */\n      0x02\n        /* \"EAGLEAI/EagleAI.sol\":24987:25002  _rOwned[sender] */\n      0x20\n      mstore\n      0x40\n      swap1\n      keccak256\n        /* \"EAGLEAI/EagleAI.sol\":24987:25028  _rOwned[sender] = _rOwned[sender]-rAmount */\n      sstore\n        /* \"EAGLEAI/EagleAI.sol\":25049:25056  _rTotal */\n      sload(0x0a)\n        /* \"EAGLEAI/EagleAI.sol\":25049:25064  _rTotal-rAmount */\n      tag_348\n      swap1\n        /* \"EAGLEAI/EagleAI.sol\":25057:25064  rAmount */\n      dup3\n      swap1\n        /* \"EAGLEAI/EagleAI.sol\":25049:25064  _rTotal-rAmount */\n      tag_287\n      jump\t// in\n    tag_348:\n        /* \"EAGLEAI/EagleAI.sol\":25039:25046  _rTotal */\n      0x0a\n        /* \"EAGLEAI/EagleAI.sol\":25039:25064  _rTotal = _rTotal-rAmount */\n      sstore\n        /* \"EAGLEAI/EagleAI.sol\":25088:25098  _tFeeTotal */\n      sload(0x0b)\n        /* \"EAGLEAI/EagleAI.sol\":25088:25106  _tFeeTotal+tAmount */\n      tag_349\n      swap1\n        /* \"EAGLEAI/EagleAI.sol\":25099:25106  tAmount */\n      dup5\n      swap1\n        /* \"EAGLEAI/EagleAI.sol\":25088:25106  _tFeeTotal+tAmount */\n      tag_339\n      jump\t// in\n    tag_349:\n        /* \"EAGLEAI/EagleAI.sol\":25075:25085  _tFeeTotal */\n      0x0b\n        /* \"EAGLEAI/EagleAI.sol\":25075:25106  _tFeeTotal = _tFeeTotal+tAmount */\n      sstore\n      pop\n      pop\n      pop\n        /* \"EAGLEAI/EagleAI.sol\":24755:25114  function deliver(uint256 tAmount) external {... */\n      jump\t// out\n        /* \"EAGLEAI/EagleAI.sol\":30766:30954  function excludeFromFee(address account) external onlyOwner {... */\n    tag_130:\n        /* \"EAGLEAI/EagleAI.sol\":6192:6198  _owner */\n      and(sub(shl(0xa0, 0x01), 0x01), sload(0x00))\n        /* \"EAGLEAI/EagleAI.sol\":4607:4617  msg.sender */\n      caller\n        /* \"EAGLEAI/EagleAI.sol\":6192:6214  _owner == _msgSender() */\n      eq\n        /* \"EAGLEAI/EagleAI.sol\":6184:6251  require(_owner == _msgSender(), \"Ownable: caller is not the owner\") */\n      tag_352\n      jumpi\n      mload(0x40)\n      shl(0xe5, 0x461bcd)\n      dup2\n      mstore\n      0x04\n      add\n      tag_291\n      swap1\n      tag_292\n      jump\t// in\n    tag_352:\n      sub(shl(0xa0, 0x01), 0x01)\n        /* \"EAGLEAI/EagleAI.sol\":30846:30873  _isExcludedFromFee[account] */\n      dup2\n      and\n      0x00\n      swap1\n      dup2\n      mstore\n        /* \"EAGLEAI/EagleAI.sol\":30846:30864  _isExcludedFromFee */\n      0x06\n        /* \"EAGLEAI/EagleAI.sol\":30846:30873  _isExcludedFromFee[account] */\n      0x20\n      mstore\n      0x40\n      swap1\n      keccak256\n      sload\n      0xff\n      and\n        /* \"EAGLEAI/EagleAI.sol\":30845:30873  !_isExcludedFromFee[account] */\n      iszero\n        /* \"EAGLEAI/EagleAI.sol\":30837:30901  require(!_isExcludedFromFee[account],\"Alreay excluded from fee\") */\n      tag_355\n      jumpi\n      mload(0x40)\n      shl(0xe5, 0x461bcd)\n      dup2\n      mstore\n        /* \"#utility.yul\":8438:8440   */\n      0x20\n        /* \"EAGLEAI/EagleAI.sol\":30837:30901  require(!_isExcludedFromFee[account],\"Alreay excluded from fee\") */\n      0x04\n      dup3\n      add\n        /* \"#utility.yul\":8420:8441   */\n      mstore\n        /* \"#utility.yul\":8477:8479   */\n      0x18\n        /* \"#utility.yul\":8457:8475   */\n      0x24\n      dup3\n      add\n        /* \"#utility.yul\":8450:8480   */\n      mstore\n        /* \"#utility.yul\":8516:8542   */\n      0x416c72656179206578636c756465642066726f6d206665650000000000000000\n        /* \"#utility.yul\":8496:8514   */\n      0x44\n      dup3\n      add\n        /* \"#utility.yul\":8489:8543   */\n      mstore\n        /* \"#utility.yul\":8560:8578   */\n      0x64\n      add\n        /* \"EAGLEAI/EagleAI.sol\":30837:30901  require(!_isExcludedFromFee[account],\"Alreay excluded from fee\") */\n      tag_291\n        /* \"#utility.yul\":8236:8584   */\n      jump\n        /* \"EAGLEAI/EagleAI.sol\":30837:30901  require(!_isExcludedFromFee[account],\"Alreay excluded from fee\") */\n    tag_355:\n      sub(shl(0xa0, 0x01), 0x01)\n        /* \"EAGLEAI/EagleAI.sol\":30912:30939  _isExcludedFromFee[account] */\n      and\n      0x00\n      swap1\n      dup2\n      mstore\n        /* \"EAGLEAI/EagleAI.sol\":30912:30930  _isExcludedFromFee */\n      0x06\n        /* \"EAGLEAI/EagleAI.sol\":30912:30939  _isExcludedFromFee[account] */\n      0x20\n      mstore\n      0x40\n      swap1\n      keccak256\n        /* \"EAGLEAI/EagleAI.sol\":30912:30946  _isExcludedFromFee[account] = true */\n      dup1\n      sload\n      not(0xff)\n      and\n        /* \"EAGLEAI/EagleAI.sol\":30942:30946  true */\n      0x01\n        /* \"EAGLEAI/EagleAI.sol\":30912:30946  _isExcludedFromFee[account] = true */\n      or\n      swap1\n      sstore\n        /* \"EAGLEAI/EagleAI.sol\":30766:30954  function excludeFromFee(address account) external onlyOwner {... */\n      jump\t// out\n        /* \"EAGLEAI/EagleAI.sol\":25762:26192  function reflectionFromToken(uint256 tAmount, bool deductTransferFee) external view returns(uint256) {... */\n    tag_135:\n        /* \"EAGLEAI/EagleAI.sol\":25854:25861  uint256 */\n      0x00\n        /* \"EAGLEAI/EagleAI.sol\":25893:25900  _tTotal */\n      sload(0x09)\n        /* \"EAGLEAI/EagleAI.sol\":25882:25889  tAmount */\n      dup4\n        /* \"EAGLEAI/EagleAI.sol\":25882:25900  tAmount <= _tTotal */\n      gt\n      iszero\n        /* \"EAGLEAI/EagleAI.sol\":25874:25936  require(tAmount <= _tTotal, \"Amount must be less than supply\") */\n      tag_359\n      jumpi\n      mload(0x40)\n      shl(0xe5, 0x461bcd)\n      dup2\n      mstore\n        /* \"#utility.yul\":8791:8793   */\n      0x20\n        /* \"EAGLEAI/EagleAI.sol\":25874:25936  require(tAmount <= _tTotal, \"Amount must be less than supply\") */\n      0x04\n      dup3\n      add\n        /* \"#utility.yul\":8773:8794   */\n      mstore\n        /* \"#utility.yul\":8830:8832   */\n      0x1f\n        /* \"#utility.yul\":8810:8828   */\n      0x24\n      dup3\n      add\n        /* \"#utility.yul\":8803:8833   */\n      mstore\n        /* \"#utility.yul\":8869:8902   */\n      0x416d6f756e74206d757374206265206c657373207468616e20737570706c7900\n        /* \"#utility.yul\":8849:8867   */\n      0x44\n      dup3\n      add\n        /* \"#utility.yul\":8842:8903   */\n      mstore\n        /* \"#utility.yul\":8920:8938   */\n      0x64\n      add\n        /* \"EAGLEAI/EagleAI.sol\":25874:25936  require(tAmount <= _tTotal, \"Amount must be less than supply\") */\n      tag_291\n        /* \"#utility.yul\":8589:8944   */\n      jump\n        /* \"EAGLEAI/EagleAI.sol\":25874:25936  require(tAmount <= _tTotal, \"Amount must be less than supply\") */\n    tag_359:\n        /* \"EAGLEAI/EagleAI.sol\":25952:25969  deductTransferFee */\n      dup2\n        /* \"EAGLEAI/EagleAI.sol\":25947:26185  if (!deductTransferFee) {... */\n      tag_362\n      jumpi\n        /* \"EAGLEAI/EagleAI.sol\":25987:26002  uint256 rAmount */\n      0x00\n        /* \"EAGLEAI/EagleAI.sol\":26007:26025  _getValue(tAmount) */\n      tag_363\n        /* \"EAGLEAI/EagleAI.sol\":26017:26024  tAmount */\n      dup5\n        /* \"EAGLEAI/EagleAI.sol\":26007:26016  _getValue */\n      tag_346\n        /* \"EAGLEAI/EagleAI.sol\":26007:26025  _getValue(tAmount) */\n      jump\t// in\n    tag_363:\n      pop\n        /* \"EAGLEAI/EagleAI.sol\":25986:26025  (uint256 rAmount,) = _getValue(tAmount) */\n      swap2\n      pop\n        /* \"EAGLEAI/EagleAI.sol\":26041:26055  return rAmount */\n      tag_273\n      swap1\n      pop\n      jump\n        /* \"EAGLEAI/EagleAI.sol\":25947:26185  if (!deductTransferFee) {... */\n    tag_362:\n        /* \"EAGLEAI/EagleAI.sol\":26090:26113  uint256 rTransferAmount */\n      0x00\n        /* \"EAGLEAI/EagleAI.sol\":26117:26135  _getValue(tAmount) */\n      tag_365\n        /* \"EAGLEAI/EagleAI.sol\":26127:26134  tAmount */\n      dup5\n        /* \"EAGLEAI/EagleAI.sol\":26117:26126  _getValue */\n      tag_346\n        /* \"EAGLEAI/EagleAI.sol\":26117:26135  _getValue(tAmount) */\n      jump\t// in\n    tag_365:\n        /* \"EAGLEAI/EagleAI.sol\":26088:26135  (,uint256 rTransferAmount) = _getValue(tAmount) */\n      swap3\n      pop\n        /* \"EAGLEAI/EagleAI.sol\":26151:26173  return rTransferAmount */\n      tag_273\n      swap2\n      pop\n      pop\n      jump\n        /* \"EAGLEAI/EagleAI.sol\":27277:27612  function excludeFromReward(address account) external onlyOwner() {... */\n    tag_153:\n        /* \"EAGLEAI/EagleAI.sol\":6192:6198  _owner */\n      and(sub(shl(0xa0, 0x01), 0x01), sload(0x00))\n        /* \"EAGLEAI/EagleAI.sol\":4607:4617  msg.sender */\n      caller\n        /* \"EAGLEAI/EagleAI.sol\":6192:6214  _owner == _msgSender() */\n      eq\n        /* \"EAGLEAI/EagleAI.sol\":6184:6251  require(_owner == _msgSender(), \"Ownable: caller is not the owner\") */\n      tag_368\n      jumpi\n      mload(0x40)\n      shl(0xe5, 0x461bcd)\n      dup2\n      mstore\n      0x04\n      add\n      tag_291\n      swap1\n      tag_292\n      jump\t// in\n    tag_368:\n      sub(shl(0xa0, 0x01), 0x01)\n        /* \"EAGLEAI/EagleAI.sol\":27362:27382  _isExcluded[account] */\n      dup2\n      and\n      0x00\n      swap1\n      dup2\n      mstore\n        /* \"EAGLEAI/EagleAI.sol\":27362:27373  _isExcluded */\n      0x07\n        /* \"EAGLEAI/EagleAI.sol\":27362:27382  _isExcluded[account] */\n      0x20\n      mstore\n      0x40\n      swap1\n      keccak256\n      sload\n      0xff\n      and\n        /* \"EAGLEAI/EagleAI.sol\":27361:27382  !_isExcluded[account] */\n      iszero\n        /* \"EAGLEAI/EagleAI.sol\":27353:27414  require(!_isExcluded[account], \"Account is already excluded\") */\n      tag_371\n      jumpi\n      mload(0x40)\n      shl(0xe5, 0x461bcd)\n      dup2\n      mstore\n        /* \"#utility.yul\":9151:9153   */\n      0x20\n        /* \"EAGLEAI/EagleAI.sol\":27353:27414  require(!_isExcluded[account], \"Account is already excluded\") */\n      0x04\n      dup3\n      add\n        /* \"#utility.yul\":9133:9154   */\n      mstore\n        /* \"#utility.yul\":9190:9192   */\n      0x1b\n        /* \"#utility.yul\":9170:9188   */\n      0x24\n      dup3\n      add\n        /* \"#utility.yul\":9163:9193   */\n      mstore\n        /* \"#utility.yul\":9229:9258   */\n      0x4163636f756e7420697320616c7265616479206578636c756465640000000000\n        /* \"#utility.yul\":9209:9227   */\n      0x44\n      dup3\n      add\n        /* \"#utility.yul\":9202:9259   */\n      mstore\n        /* \"#utility.yul\":9276:9294   */\n      0x64\n      add\n        /* \"EAGLEAI/EagleAI.sol\":27353:27414  require(!_isExcluded[account], \"Account is already excluded\") */\n      tag_291\n        /* \"#utility.yul\":8949:9300   */\n      jump\n        /* \"EAGLEAI/EagleAI.sol\":27353:27414  require(!_isExcluded[account], \"Account is already excluded\") */\n    tag_371:\n      sub(shl(0xa0, 0x01), 0x01)\n        /* \"EAGLEAI/EagleAI.sol\":27428:27444  _rOwned[account] */\n      dup2\n      and\n        /* \"EAGLEAI/EagleAI.sol\":27447:27448  0 */\n      0x00\n        /* \"EAGLEAI/EagleAI.sol\":27428:27444  _rOwned[account] */\n      swap1\n      dup2\n      mstore\n        /* \"EAGLEAI/EagleAI.sol\":27428:27435  _rOwned */\n      0x02\n        /* \"EAGLEAI/EagleAI.sol\":27428:27444  _rOwned[account] */\n      0x20\n      mstore\n      0x40\n      swap1\n      keccak256\n      sload\n        /* \"EAGLEAI/EagleAI.sol\":27428:27448  _rOwned[account] > 0 */\n      iszero\n        /* \"EAGLEAI/EagleAI.sol\":27425:27533  if(_rOwned[account] > 0) {... */\n      tag_374\n      jumpi\n      sub(shl(0xa0, 0x01), 0x01)\n        /* \"EAGLEAI/EagleAI.sol\":27504:27520  _rOwned[account] */\n      dup2\n      and\n      0x00\n      swap1\n      dup2\n      mstore\n        /* \"EAGLEAI/EagleAI.sol\":27504:27511  _rOwned */\n      0x02\n        /* \"EAGLEAI/EagleAI.sol\":27504:27520  _rOwned[account] */\n      0x20\n      mstore\n      0x40\n      swap1\n      keccak256\n      sload\n        /* \"EAGLEAI/EagleAI.sol\":27484:27521  tokenFromReflection(_rOwned[account]) */\n      tag_375\n      swap1\n        /* \"EAGLEAI/EagleAI.sol\":27484:27503  tokenFromReflection */\n      tag_106\n        /* \"EAGLEAI/EagleAI.sol\":27484:27521  tokenFromReflection(_rOwned[account]) */\n      jump\t// in\n    tag_375:\n      sub(shl(0xa0, 0x01), 0x01)\n        /* \"EAGLEAI/EagleAI.sol\":27465:27481  _tOwned[account] */\n      dup3\n      and\n      0x00\n      swap1\n      dup2\n      mstore\n        /* \"EAGLEAI/EagleAI.sol\":27465:27472  _tOwned */\n      0x03\n        /* \"EAGLEAI/EagleAI.sol\":27465:27481  _tOwned[account] */\n      0x20\n      mstore\n      0x40\n      swap1\n      keccak256\n        /* \"EAGLEAI/EagleAI.sol\":27465:27521  _tOwned[account] = tokenFromReflection(_rOwned[account]) */\n      sstore\n        /* \"EAGLEAI/EagleAI.sol\":27425:27533  if(_rOwned[account] > 0) {... */\n    tag_374:\n      sub(shl(0xa0, 0x01), 0x01)\n        /* \"EAGLEAI/EagleAI.sol\":27543:27563  _isExcluded[account] */\n      and\n      0x00\n      dup2\n      dup2\n      mstore\n        /* \"EAGLEAI/EagleAI.sol\":27543:27554  _isExcluded */\n      0x07\n        /* \"EAGLEAI/EagleAI.sol\":27543:27563  _isExcluded[account] */\n      0x20\n      mstore\n      0x40\n      dup2\n      keccak256\n        /* \"EAGLEAI/EagleAI.sol\":27543:27570  _isExcluded[account] = true */\n      dup1\n      sload\n      not(0xff)\n      and\n        /* \"EAGLEAI/EagleAI.sol\":27566:27570  true */\n      0x01\n        /* \"EAGLEAI/EagleAI.sol\":27543:27570  _isExcluded[account] = true */\n      swap1\n      dup2\n      or\n      swap1\n      swap2\n      sstore\n        /* \"EAGLEAI/EagleAI.sol\":27581:27590  _excluded */\n      0x08\n        /* \"EAGLEAI/EagleAI.sol\":27581:27604  _excluded.push(account) */\n      dup1\n      sload\n      swap2\n      dup3\n      add\n      dup2\n      sstore\n      swap1\n      swap2\n      mstore\n      0xf3f7a9fe364faab93b216da50a3214154f22a0a2b415b23a84c8169e8b636ee3\n      add\n      dup1\n      sload\n      not(sub(shl(0xa0, 0x01), 0x01))\n      and\n      swap1\n      swap2\n      or\n      swap1\n      sstore\n        /* \"EAGLEAI/EagleAI.sol\":27277:27612  function excludeFromReward(address account) external onlyOwner() {... */\n      jump\t// out\n        /* \"EAGLEAI/EagleAI.sol\":31845:32061  function setFundWallet(address _fundWallet) external onlyOwner{... */\n    tag_166:\n        /* \"EAGLEAI/EagleAI.sol\":6192:6198  _owner */\n      and(sub(shl(0xa0, 0x01), 0x01), sload(0x00))\n        /* \"EAGLEAI/EagleAI.sol\":4607:4617  msg.sender */\n      caller\n        /* \"EAGLEAI/EagleAI.sol\":6192:6214  _owner == _msgSender() */\n      eq\n        /* \"EAGLEAI/EagleAI.sol\":6184:6251  require(_owner == _msgSender(), \"Ownable: caller is not the owner\") */\n      tag_380\n      jumpi\n      mload(0x40)\n      shl(0xe5, 0x461bcd)\n      dup2\n      mstore\n      0x04\n      add\n      tag_291\n      swap1\n      tag_292\n      jump\t// in\n    tag_380:\n      sub(shl(0xa0, 0x01), 0x01)\n        /* \"EAGLEAI/EagleAI.sol\":31923:31948  _fundWallet != address(0) */\n      dup2\n      and\n        /* \"EAGLEAI/EagleAI.sol\":31915:31979  require(_fundWallet != address(0),\"Fund wallet can not be zero\") */\n      tag_383\n      jumpi\n      mload(0x40)\n      shl(0xe5, 0x461bcd)\n      dup2\n      mstore\n        /* \"#utility.yul\":9507:9509   */\n      0x20\n        /* \"EAGLEAI/EagleAI.sol\":31915:31979  require(_fundWallet != address(0),\"Fund wallet can not be zero\") */\n      0x04\n      dup3\n      add\n        /* \"#utility.yul\":9489:9510   */\n      mstore\n        /* \"#utility.yul\":9546:9548   */\n      0x1b\n        /* \"#utility.yul\":9526:9544   */\n      0x24\n      dup3\n      add\n        /* \"#utility.yul\":9519:9549   */\n      mstore\n        /* \"#utility.yul\":9585:9614   */\n      0x46756e642077616c6c65742063616e206e6f74206265207a65726f0000000000\n        /* \"#utility.yul\":9565:9583   */\n      0x44\n      dup3\n      add\n        /* \"#utility.yul\":9558:9615   */\n      mstore\n        /* \"#utility.yul\":9632:9650   */\n      0x64\n      add\n        /* \"EAGLEAI/EagleAI.sol\":31915:31979  require(_fundWallet != address(0),\"Fund wallet can not be zero\") */\n      tag_291\n        /* \"#utility.yul\":9305:9656   */\n      jump\n        /* \"EAGLEAI/EagleAI.sol\":31915:31979  require(_fundWallet != address(0),\"Fund wallet can not be zero\") */\n    tag_383:\n        /* \"EAGLEAI/EagleAI.sol\":31987:31997  fundWallet */\n      0x1a\n        /* \"EAGLEAI/EagleAI.sol\":31987:32011  fundWallet = _fundWallet */\n      dup1\n      sload\n      not(sub(shl(0xa0, 0x01), 0x01))\n      and\n      sub(shl(0xa0, 0x01), 0x01)\n      dup4\n      and\n      swap1\n      dup2\n      or\n      swap1\n      swap2\n      sstore\n        /* \"EAGLEAI/EagleAI.sol\":32024:32053  FundWalletChange(_fundWallet) */\n      mload(0x40)\n        /* \"#utility.yul\":1569:1620   */\n      swap1\n      dup2\n      mstore\n        /* \"EAGLEAI/EagleAI.sol\":32024:32053  FundWalletChange(_fundWallet) */\n      0x4cb53cdee53f2d4e4e60769add356f6cbd911505806fd6c1eee38f5a6b8a2574\n      swap1\n        /* \"#utility.yul\":1557:1559   */\n      0x20\n        /* \"#utility.yul\":1542:1560   */\n      add\n        /* \"EAGLEAI/EagleAI.sol\":32024:32053  FundWalletChange(_fundWallet) */\n    tag_386:\n      mload(0x40)\n      dup1\n      swap2\n      sub\n      swap1\n      log1\n        /* \"EAGLEAI/EagleAI.sol\":31845:32061  function setFundWallet(address _fundWallet) external onlyOwner{... */\n      pop\n      jump\t// out\n        /* \"EAGLEAI/EagleAI.sol\":52159:52791  function airdrop(address[] calldata addresses, uint[] calldata tokens) external onlyOwner {... */\n    tag_175:\n        /* \"EAGLEAI/EagleAI.sol\":6192:6198  _owner */\n      and(sub(shl(0xa0, 0x01), 0x01), sload(0x00))\n        /* \"EAGLEAI/EagleAI.sol\":4607:4617  msg.sender */\n      caller\n        /* \"EAGLEAI/EagleAI.sol\":6192:6214  _owner == _msgSender() */\n      eq\n        /* \"EAGLEAI/EagleAI.sol\":6184:6251  require(_owner == _msgSender(), \"Ownable: caller is not the owner\") */\n      tag_389\n      jumpi\n      mload(0x40)\n      shl(0xe5, 0x461bcd)\n      dup2\n      mstore\n      0x04\n      add\n      tag_291\n      swap1\n      tag_292\n      jump\t// in\n    tag_389:\n        /* \"EAGLEAI/EagleAI.sol\":52260:52279  uint256 airCapacity */\n      0x00\n        /* \"EAGLEAI/EagleAI.sol\":52302:52335  addresses.length == tokens.length */\n      dup4\n      dup3\n      eq\n        /* \"EAGLEAI/EagleAI.sol\":52294:52379  require(addresses.length == tokens.length,\"Mismatch between Address and token count\") */\n      tag_392\n      jumpi\n      mload(0x40)\n      shl(0xe5, 0x461bcd)\n      dup2\n      mstore\n        /* \"#utility.yul\":9863:9865   */\n      0x20\n        /* \"EAGLEAI/EagleAI.sol\":52294:52379  require(addresses.length == tokens.length,\"Mismatch between Address and token count\") */\n      0x04\n      dup3\n      add\n        /* \"#utility.yul\":9845:9866   */\n      mstore\n        /* \"#utility.yul\":9902:9904   */\n      0x28\n        /* \"#utility.yul\":9882:9900   */\n      0x24\n      dup3\n      add\n        /* \"#utility.yul\":9875:9905   */\n      mstore\n        /* \"#utility.yul\":9941:9975   */\n      0x4d69736d61746368206265747765656e204164647265737320616e6420746f6b\n        /* \"#utility.yul\":9921:9939   */\n      0x44\n      dup3\n      add\n        /* \"#utility.yul\":9914:9976   */\n      mstore\n      shl(0xc2, 0x195b8818dbdd5b9d)\n        /* \"#utility.yul\":9992:10010   */\n      0x64\n      dup3\n      add\n        /* \"#utility.yul\":9985:10023   */\n      mstore\n        /* \"#utility.yul\":10040:10059   */\n      0x84\n      add\n        /* \"EAGLEAI/EagleAI.sol\":52294:52379  require(addresses.length == tokens.length,\"Mismatch between Address and token count\") */\n      tag_291\n        /* \"#utility.yul\":9661:10065   */\n      jump\n        /* \"EAGLEAI/EagleAI.sol\":52294:52379  require(addresses.length == tokens.length,\"Mismatch between Address and token count\") */\n    tag_392:\n        /* \"EAGLEAI/EagleAI.sol\":52394:52400  uint i */\n      0x00\n        /* \"EAGLEAI/EagleAI.sol\":52390:52529  for(uint i=0; i < addresses.length; i++){... */\n    tag_395:\n        /* \"EAGLEAI/EagleAI.sol\":52404:52424  i < addresses.length */\n      dup5\n      dup2\n      lt\n        /* \"EAGLEAI/EagleAI.sol\":52390:52529  for(uint i=0; i < addresses.length; i++){... */\n      iszero\n      tag_396\n      jumpi\n        /* \"EAGLEAI/EagleAI.sol\":52445:52456  uint amount */\n      0x00\n        /* \"EAGLEAI/EagleAI.sol\":52459:52465  tokens */\n      dup5\n      dup5\n        /* \"EAGLEAI/EagleAI.sol\":52466:52467  i */\n      dup4\n        /* \"EAGLEAI/EagleAI.sol\":52459:52468  tokens[i] */\n      dup2\n      dup2\n      lt\n      tag_399\n      jumpi\n      tag_399\n      tag_320\n      jump\t// in\n    tag_399:\n      swap1\n      pop\n      0x20\n      mul\n      add\n      calldataload\n        /* \"EAGLEAI/EagleAI.sol\":52445:52468  uint amount = tokens[i] */\n      swap1\n      pop\n        /* \"EAGLEAI/EagleAI.sol\":52511:52517  amount */\n      dup1\n        /* \"EAGLEAI/EagleAI.sol\":52497:52508  airCapacity */\n      dup4\n        /* \"EAGLEAI/EagleAI.sol\":52497:52517  airCapacity + amount */\n      tag_400\n      swap2\n      swap1\n      tag_339\n      jump\t// in\n    tag_400:\n        /* \"EAGLEAI/EagleAI.sol\":52483:52517  airCapacity = airCapacity + amount */\n      swap3\n      pop\n      pop\n        /* \"EAGLEAI/EagleAI.sol\":52426:52429  i++ */\n      0x01\n      add\n        /* \"EAGLEAI/EagleAI.sol\":52390:52529  for(uint i=0; i < addresses.length; i++){... */\n      jump(tag_395)\n    tag_396:\n      pop\n        /* \"EAGLEAI/EagleAI.sol\":52572:52583  airCapacity */\n      dup1\n        /* \"EAGLEAI/EagleAI.sol\":52547:52568  balanceOf(msg.sender) */\n      tag_401\n        /* \"EAGLEAI/EagleAI.sol\":52557:52567  msg.sender */\n      caller\n        /* \"EAGLEAI/EagleAI.sol\":52547:52556  balanceOf */\n      tag_179\n        /* \"EAGLEAI/EagleAI.sol\":52547:52568  balanceOf(msg.sender) */\n      jump\t// in\n    tag_401:\n        /* \"EAGLEAI/EagleAI.sol\":52547:52583  balanceOf(msg.sender) >= airCapacity */\n      lt\n      iszero\n        /* \"EAGLEAI/EagleAI.sol\":52539:52616  require(balanceOf(msg.sender) >= airCapacity, \"Not enough tokens to airdrop\") */\n      tag_402\n      jumpi\n      mload(0x40)\n      shl(0xe5, 0x461bcd)\n      dup2\n      mstore\n        /* \"#utility.yul\":10272:10274   */\n      0x20\n        /* \"EAGLEAI/EagleAI.sol\":52539:52616  require(balanceOf(msg.sender) >= airCapacity, \"Not enough tokens to airdrop\") */\n      0x04\n      dup3\n      add\n        /* \"#utility.yul\":10254:10275   */\n      mstore\n        /* \"#utility.yul\":10311:10313   */\n      0x1c\n        /* \"#utility.yul\":10291:10309   */\n      0x24\n      dup3\n      add\n        /* \"#utility.yul\":10284:10314   */\n      mstore\n        /* \"#utility.yul\":10350:10380   */\n      0x4e6f7420656e6f75676820746f6b656e7320746f2061697264726f7000000000\n        /* \"#utility.yul\":10330:10348   */\n      0x44\n      dup3\n      add\n        /* \"#utility.yul\":10323:10381   */\n      mstore\n        /* \"#utility.yul\":10398:10416   */\n      0x64\n      add\n        /* \"EAGLEAI/EagleAI.sol\":52539:52616  require(balanceOf(msg.sender) >= airCapacity, \"Not enough tokens to airdrop\") */\n      tag_291\n        /* \"#utility.yul\":10070:10422   */\n      jump\n        /* \"EAGLEAI/EagleAI.sol\":52539:52616  require(balanceOf(msg.sender) >= airCapacity, \"Not enough tokens to airdrop\") */\n    tag_402:\n        /* \"EAGLEAI/EagleAI.sol\":52631:52637  uint i */\n      0x00\n        /* \"EAGLEAI/EagleAI.sol\":52627:52784  for(uint i=0; i < addresses.length; i++){... */\n    tag_405:\n        /* \"EAGLEAI/EagleAI.sol\":52641:52661  i < addresses.length */\n      dup5\n      dup2\n      lt\n        /* \"EAGLEAI/EagleAI.sol\":52627:52784  for(uint i=0; i < addresses.length; i++){... */\n      iszero\n      tag_406\n      jumpi\n        /* \"EAGLEAI/EagleAI.sol\":52682:52693  uint amount */\n      0x00\n        /* \"EAGLEAI/EagleAI.sol\":52696:52702  tokens */\n      dup5\n      dup5\n        /* \"EAGLEAI/EagleAI.sol\":52703:52704  i */\n      dup4\n        /* \"EAGLEAI/EagleAI.sol\":52696:52705  tokens[i] */\n      dup2\n      dup2\n      lt\n      tag_409\n      jumpi\n      tag_409\n      tag_320\n      jump\t// in\n    tag_409:\n      swap1\n      pop\n      0x20\n      mul\n      add\n      calldataload\n        /* \"EAGLEAI/EagleAI.sol\":52682:52705  uint amount = tokens[i] */\n      swap1\n      pop\n        /* \"EAGLEAI/EagleAI.sol\":52720:52772  _tokenTransfer(msg.sender,addresses[i],amount,false) */\n      tag_410\n        /* \"EAGLEAI/EagleAI.sol\":52735:52745  msg.sender */\n      caller\n        /* \"EAGLEAI/EagleAI.sol\":52746:52755  addresses */\n      dup9\n      dup9\n        /* \"EAGLEAI/EagleAI.sol\":52756:52757  i */\n      dup6\n        /* \"EAGLEAI/EagleAI.sol\":52746:52758  addresses[i] */\n      dup2\n      dup2\n      lt\n      tag_412\n      jumpi\n      tag_412\n      tag_320\n      jump\t// in\n    tag_412:\n      swap1\n      pop\n      0x20\n      mul\n      add\n      0x20\n      dup2\n      add\n      swap1\n      tag_413\n      swap2\n      swap1\n      tag_116\n      jump\t// in\n    tag_413:\n        /* \"EAGLEAI/EagleAI.sol\":52759:52765  amount */\n      dup4\n        /* \"EAGLEAI/EagleAI.sol\":52766:52771  false */\n      0x00\n        /* \"EAGLEAI/EagleAI.sol\":52720:52734  _tokenTransfer */\n      tag_414\n        /* \"EAGLEAI/EagleAI.sol\":52720:52772  _tokenTransfer(msg.sender,addresses[i],amount,false) */\n      jump\t// in\n    tag_410:\n      pop\n        /* \"EAGLEAI/EagleAI.sol\":52663:52666  i++ */\n      0x01\n      add\n        /* \"EAGLEAI/EagleAI.sol\":52627:52784  for(uint i=0; i < addresses.length; i++){... */\n      jump(tag_405)\n    tag_406:\n      pop\n        /* \"EAGLEAI/EagleAI.sol\":52249:52791  {... */\n      pop\n        /* \"EAGLEAI/EagleAI.sol\":52159:52791  function airdrop(address[] calldata addresses, uint[] calldata tokens) external onlyOwner {... */\n      pop\n      pop\n      pop\n      pop\n      jump\t// out\n        /* \"EAGLEAI/EagleAI.sol\":18818:19040  function balanceOf(address account) public view override returns (uint256) {... */\n    tag_179:\n      sub(shl(0xa0, 0x01), 0x01)\n        /* \"EAGLEAI/EagleAI.sol\":18908:18928  _isExcluded[account] */\n      dup2\n      and\n        /* \"EAGLEAI/EagleAI.sol\":18884:18891  uint256 */\n      0x00\n        /* \"EAGLEAI/EagleAI.sol\":18908:18928  _isExcluded[account] */\n      swap1\n      dup2\n      mstore\n        /* \"EAGLEAI/EagleAI.sol\":18908:18919  _isExcluded */\n      0x07\n        /* \"EAGLEAI/EagleAI.sol\":18908:18928  _isExcluded[account] */\n      0x20\n      mstore\n      0x40\n      dup2\n      keccak256\n      sload\n      0xff\n      and\n        /* \"EAGLEAI/EagleAI.sol\":18904:18953  if (_isExcluded[account]) return _tOwned[account] */\n      iszero\n      tag_416\n      jumpi\n      pop\n      sub(shl(0xa0, 0x01), 0x01)\n        /* \"EAGLEAI/EagleAI.sol\":18937:18953  _tOwned[account] */\n      and\n      0x00\n      swap1\n      dup2\n      mstore\n        /* \"EAGLEAI/EagleAI.sol\":18937:18944  _tOwned */\n      0x03\n        /* \"EAGLEAI/EagleAI.sol\":18937:18953  _tOwned[account] */\n      0x20\n      mstore\n      0x40\n      swap1\n      keccak256\n      sload\n      swap1\n        /* \"EAGLEAI/EagleAI.sol\":18818:19040  function balanceOf(address account) public view override returns (uint256) {... */\n      jump\t// out\n        /* \"EAGLEAI/EagleAI.sol\":18904:18953  if (_isExcluded[account]) return _tOwned[account] */\n    tag_416:\n      sub(shl(0xa0, 0x01), 0x01)\n        /* \"EAGLEAI/EagleAI.sol\":19001:19017  _rOwned[account] */\n      dup3\n      and\n      0x00\n      swap1\n      dup2\n      mstore\n        /* \"EAGLEAI/EagleAI.sol\":19001:19008  _rOwned */\n      0x02\n        /* \"EAGLEAI/EagleAI.sol\":19001:19017  _rOwned[account] */\n      0x20\n      mstore\n      0x40\n      swap1\n      keccak256\n      sload\n        /* \"EAGLEAI/EagleAI.sol\":18981:19018  tokenFromReflection(_rOwned[account]) */\n      tag_273\n      swap1\n        /* \"EAGLEAI/EagleAI.sol\":18981:19000  tokenFromReflection */\n      tag_106\n        /* \"EAGLEAI/EagleAI.sol\":18981:19018  tokenFromReflection(_rOwned[account]) */\n      jump\t// in\n        /* \"EAGLEAI/EagleAI.sol\":6623:6771  function renounceOwnership() public virtual onlyOwner {... */\n    tag_183:\n        /* \"EAGLEAI/EagleAI.sol\":6192:6198  _owner */\n      and(sub(shl(0xa0, 0x01), 0x01), sload(0x00))\n        /* \"EAGLEAI/EagleAI.sol\":4607:4617  msg.sender */\n      caller\n        /* \"EAGLEAI/EagleAI.sol\":6192:6214  _owner == _msgSender() */\n      eq\n        /* \"EAGLEAI/EagleAI.sol\":6184:6251  require(_owner == _msgSender(), \"Ownable: caller is not the owner\") */\n      tag_420\n      jumpi\n      mload(0x40)\n      shl(0xe5, 0x461bcd)\n      dup2\n      mstore\n      0x04\n      add\n      tag_291\n      swap1\n      tag_292\n      jump\t// in\n    tag_420:\n        /* \"EAGLEAI/EagleAI.sol\":6730:6731  0 */\n      0x00\n        /* \"EAGLEAI/EagleAI.sol\":6714:6720  _owner */\n      dup1\n      sload\n        /* \"EAGLEAI/EagleAI.sol\":6693:6733  OwnershipTransferred(_owner, address(0)) */\n      mload(0x40)\n      sub(shl(0xa0, 0x01), 0x01)\n        /* \"EAGLEAI/EagleAI.sol\":6714:6720  _owner */\n      swap1\n      swap2\n      and\n      swap1\n        /* \"EAGLEAI/EagleAI.sol\":6693:6733  OwnershipTransferred(_owner, address(0)) */\n      0x8be0079c531659141344cd1fd0a4f28419497f9722a3daafe3b4186f6b6457e0\n      swap1\n        /* \"EAGLEAI/EagleAI.sol\":6730:6731  0 */\n      dup4\n      swap1\n        /* \"EAGLEAI/EagleAI.sol\":6693:6733  OwnershipTransferred(_owner, address(0)) */\n      log3\n        /* \"EAGLEAI/EagleAI.sol\":6761:6762  0 */\n      0x00\n        /* \"EAGLEAI/EagleAI.sol\":6744:6763  _owner = address(0) */\n      dup1\n      sload\n      not(sub(shl(0xa0, 0x01), 0x01))\n      and\n      swap1\n      sstore\n        /* \"EAGLEAI/EagleAI.sol\":6623:6771  function renounceOwnership() public virtual onlyOwner {... */\n      jump\t// out\n        /* \"EAGLEAI/EagleAI.sol\":46469:46686  function addBlacklist(address account) external  onlyOwner {... */\n    tag_200:\n        /* \"EAGLEAI/EagleAI.sol\":6192:6198  _owner */\n      and(sub(shl(0xa0, 0x01), 0x01), sload(0x00))\n        /* \"EAGLEAI/EagleAI.sol\":4607:4617  msg.sender */\n      caller\n        /* \"EAGLEAI/EagleAI.sol\":6192:6214  _owner == _msgSender() */\n      eq\n        /* \"EAGLEAI/EagleAI.sol\":6184:6251  require(_owner == _msgSender(), \"Ownable: caller is not the owner\") */\n      tag_428\n      jumpi\n      mload(0x40)\n      shl(0xe5, 0x461bcd)\n      dup2\n      mstore\n      0x04\n      add\n      tag_291\n      swap1\n      tag_292\n      jump\t// in\n    tag_428:\n      sub(shl(0xa0, 0x01), 0x01)\n        /* \"EAGLEAI/EagleAI.sol\":46548:46568  blacklisted[account] */\n      dup2\n      and\n      0x00\n      swap1\n      dup2\n      mstore\n        /* \"EAGLEAI/EagleAI.sol\":46548:46559  blacklisted */\n      0x05\n        /* \"EAGLEAI/EagleAI.sol\":46548:46568  blacklisted[account] */\n      0x20\n      mstore\n      0x40\n      swap1\n      keccak256\n      sload\n      0xff\n      and\n        /* \"EAGLEAI/EagleAI.sol\":46547:46568  !blacklisted[account] */\n      iszero\n        /* \"EAGLEAI/EagleAI.sol\":46539:46599  require(!blacklisted[account],\"Account already blacklisted\") */\n      tag_431\n      jumpi\n      mload(0x40)\n      shl(0xe5, 0x461bcd)\n      dup2\n      mstore\n        /* \"#utility.yul\":10629:10631   */\n      0x20\n        /* \"EAGLEAI/EagleAI.sol\":46539:46599  require(!blacklisted[account],\"Account already blacklisted\") */\n      0x04\n      dup3\n      add\n        /* \"#utility.yul\":10611:10632   */\n      mstore\n        /* \"#utility.yul\":10668:10670   */\n      0x1b\n        /* \"#utility.yul\":10648:10666   */\n      0x24\n      dup3\n      add\n        /* \"#utility.yul\":10641:10671   */\n      mstore\n        /* \"#utility.yul\":10707:10736   */\n      0x4163636f756e7420616c726561647920626c61636b6c69737465640000000000\n        /* \"#utility.yul\":10687:10705   */\n      0x44\n      dup3\n      add\n        /* \"#utility.yul\":10680:10737   */\n      mstore\n        /* \"#utility.yul\":10754:10772   */\n      0x64\n      add\n        /* \"EAGLEAI/EagleAI.sol\":46539:46599  require(!blacklisted[account],\"Account already blacklisted\") */\n      tag_291\n        /* \"#utility.yul\":10427:10778   */\n      jump\n        /* \"EAGLEAI/EagleAI.sol\":46539:46599  require(!blacklisted[account],\"Account already blacklisted\") */\n    tag_431:\n      sub(shl(0xa0, 0x01), 0x01)\n        /* \"EAGLEAI/EagleAI.sol\":46610:46630  blacklisted[account] */\n      dup2\n      and\n      0x00\n      dup2\n      dup2\n      mstore\n        /* \"EAGLEAI/EagleAI.sol\":46610:46621  blacklisted */\n      0x05\n        /* \"EAGLEAI/EagleAI.sol\":46610:46630  blacklisted[account] */\n      0x20\n      swap1\n      dup2\n      mstore\n      0x40\n      swap2\n      dup3\n      swap1\n      keccak256\n        /* \"EAGLEAI/EagleAI.sol\":46610:46637  blacklisted[account] = true */\n      dup1\n      sload\n      not(0xff)\n      and\n        /* \"EAGLEAI/EagleAI.sol\":46633:46637  true */\n      0x01\n        /* \"EAGLEAI/EagleAI.sol\":46610:46637  blacklisted[account] = true */\n      or\n      swap1\n      sstore\n        /* \"EAGLEAI/EagleAI.sol\":46653:46678  AddedInBlacklist(account) */\n      swap1\n      mload\n        /* \"#utility.yul\":1569:1620   */\n      swap2\n      dup3\n      mstore\n        /* \"EAGLEAI/EagleAI.sol\":46653:46678  AddedInBlacklist(account) */\n      0x4e63251189d11de41cff7396332e25ed3c84d6c08ef82ed74ba63a95edf8e3ef\n      swap2\n        /* \"#utility.yul\":1542:1560   */\n      add\n        /* \"EAGLEAI/EagleAI.sol\":46653:46678  AddedInBlacklist(account) */\n      tag_386\n        /* \"#utility.yul\":1397:1626   */\n      jump\n        /* \"EAGLEAI/EagleAI.sol\":23143:23368  function decreaseAllowance(address spender, uint256 subtractedValue) external virtual returns (bool) {... */\n    tag_204:\n        /* \"EAGLEAI/EagleAI.sol\":4607:4617  msg.sender */\n      caller\n        /* \"EAGLEAI/EagleAI.sol\":23238:23242  bool */\n      0x00\n        /* \"EAGLEAI/EagleAI.sol\":23287:23312  _allowances[_msgSender()] */\n      dup2\n      dup2\n      mstore\n        /* \"EAGLEAI/EagleAI.sol\":23287:23298  _allowances */\n      0x04\n        /* \"EAGLEAI/EagleAI.sol\":23287:23312  _allowances[_msgSender()] */\n      0x20\n      swap1\n      dup2\n      mstore\n      0x40\n      dup1\n      dup4\n      keccak256\n      sub(shl(0xa0, 0x01), 0x01)\n        /* \"EAGLEAI/EagleAI.sol\":23287:23321  _allowances[_msgSender()][spender] */\n      dup8\n      and\n      dup5\n      mstore\n      swap1\n      swap2\n      mstore\n      dup2\n      keccak256\n      sload\n        /* \"EAGLEAI/EagleAI.sol\":23238:23242  bool */\n      swap1\n      swap2\n        /* \"EAGLEAI/EagleAI.sol\":23255:23338  _approve(_msgSender(), spender, _allowances[_msgSender()][spender]-subtractedValue) */\n      tag_274\n      swap2\n        /* \"EAGLEAI/EagleAI.sol\":23278:23285  spender */\n      dup6\n      swap1\n        /* \"EAGLEAI/EagleAI.sol\":23287:23337  _allowances[_msgSender()][spender]-subtractedValue */\n      tag_286\n      swap1\n        /* \"EAGLEAI/EagleAI.sol\":23322:23337  subtractedValue */\n      dup7\n      swap1\n        /* \"EAGLEAI/EagleAI.sol\":23287:23337  _allowances[_msgSender()][spender]-subtractedValue */\n      tag_287\n      jump\t// in\n        /* \"EAGLEAI/EagleAI.sol\":19499:19668  function transfer(address recipient, uint256 amount) external override returns (bool) {... */\n    tag_209:\n        /* \"EAGLEAI/EagleAI.sol\":19579:19583  bool */\n      0x00\n        /* \"EAGLEAI/EagleAI.sol\":19596:19638  _transfer(_msgSender(), recipient, amount) */\n      tag_274\n        /* \"EAGLEAI/EagleAI.sol\":4607:4617  msg.sender */\n      caller\n        /* \"EAGLEAI/EagleAI.sol\":19620:19629  recipient */\n      dup5\n        /* \"EAGLEAI/EagleAI.sol\":19631:19637  amount */\n      dup5\n        /* \"EAGLEAI/EagleAI.sol\":19596:19605  _transfer */\n      tag_282\n        /* \"EAGLEAI/EagleAI.sol\":19596:19638  _transfer(_msgSender(), recipient, amount) */\n      jump\t// in\n        /* \"EAGLEAI/EagleAI.sol\":49067:49681  function updateSellTaxPer(uint256 reflectionPercent,uint256 coinOperartionPer,uint256 liquidityTaxPer,uint256 burnTaxPer) external onlyOwner {... */\n    tag_215:\n        /* \"EAGLEAI/EagleAI.sol\":6192:6198  _owner */\n      and(sub(shl(0xa0, 0x01), 0x01), sload(0x00))\n        /* \"EAGLEAI/EagleAI.sol\":4607:4617  msg.sender */\n      caller\n        /* \"EAGLEAI/EagleAI.sol\":6192:6214  _owner == _msgSender() */\n      eq\n        /* \"EAGLEAI/EagleAI.sol\":6184:6251  require(_owner == _msgSender(), \"Ownable: caller is not the owner\") */\n      tag_445\n      jumpi\n      mload(0x40)\n      shl(0xe5, 0x461bcd)\n      dup2\n      mstore\n      0x04\n      add\n      tag_291\n      swap1\n      tag_292\n      jump\t// in\n    tag_445:\n        /* \"EAGLEAI/EagleAI.sol\":49219:49235  uint256 totalTax */\n      0x00\n        /* \"EAGLEAI/EagleAI.sol\":49296:49306  burnTaxPer */\n      dup2\n        /* \"EAGLEAI/EagleAI.sol\":49278:49293  liquidityTaxPer */\n      dup4\n        /* \"EAGLEAI/EagleAI.sol\":49238:49275  reflectionPercent + coinOperartionPer */\n      tag_448\n        /* \"EAGLEAI/EagleAI.sol\":49258:49275  coinOperartionPer */\n      dup7\n        /* \"EAGLEAI/EagleAI.sol\":49238:49255  reflectionPercent */\n      dup9\n        /* \"EAGLEAI/EagleAI.sol\":49238:49275  reflectionPercent + coinOperartionPer */\n      tag_339\n      jump\t// in\n    tag_448:\n        /* \"EAGLEAI/EagleAI.sol\":49238:49293  reflectionPercent + coinOperartionPer + liquidityTaxPer */\n      tag_449\n      swap2\n      swap1\n      tag_339\n      jump\t// in\n    tag_449:\n        /* \"EAGLEAI/EagleAI.sol\":49238:49306  reflectionPercent + coinOperartionPer + liquidityTaxPer + burnTaxPer */\n      tag_450\n      swap2\n      swap1\n      tag_339\n      jump\t// in\n    tag_450:\n        /* \"EAGLEAI/EagleAI.sol\":49219:49306  uint256 totalTax = reflectionPercent + coinOperartionPer + liquidityTaxPer + burnTaxPer */\n      swap1\n      pop\n        /* \"EAGLEAI/EagleAI.sol\":49337:49340  100 */\n      0x64\n        /* \"EAGLEAI/EagleAI.sol\":49325:49333  totalTax */\n      dup2\n        /* \"EAGLEAI/EagleAI.sol\":49325:49340  totalTax <= 100 */\n      gt\n      iszero\n        /* \"EAGLEAI/EagleAI.sol\":49317:49383  require(totalTax <= 100,\"You can not set sell tax more then 100%\") */\n      tag_451\n      jumpi\n      mload(0x40)\n      shl(0xe5, 0x461bcd)\n      dup2\n      mstore\n        /* \"#utility.yul\":10985:10987   */\n      0x20\n        /* \"EAGLEAI/EagleAI.sol\":49317:49383  require(totalTax <= 100,\"You can not set sell tax more then 100%\") */\n      0x04\n      dup3\n      add\n        /* \"#utility.yul\":10967:10988   */\n      mstore\n        /* \"#utility.yul\":11024:11026   */\n      0x27\n        /* \"#utility.yul\":11004:11022   */\n      0x24\n      dup3\n      add\n        /* \"#utility.yul\":10997:11027   */\n      mstore\n        /* \"#utility.yul\":11063:11097   */\n      0x596f752063616e206e6f74207365742073656c6c20746178206d6f7265207468\n        /* \"#utility.yul\":11043:11061   */\n      0x44\n      dup3\n      add\n        /* \"#utility.yul\":11036:11098   */\n      mstore\n      shl(0xc8, 0x656e2031303025)\n        /* \"#utility.yul\":11114:11132   */\n      0x64\n      dup3\n      add\n        /* \"#utility.yul\":11107:11144   */\n      mstore\n        /* \"#utility.yul\":11161:11180   */\n      0x84\n      add\n        /* \"EAGLEAI/EagleAI.sol\":49317:49383  require(totalTax <= 100,\"You can not set sell tax more then 100%\") */\n      tag_291\n        /* \"#utility.yul\":10783:11186   */\n      jump\n        /* \"EAGLEAI/EagleAI.sol\":49317:49383  require(totalTax <= 100,\"You can not set sell tax more then 100%\") */\n    tag_451:\n        /* \"EAGLEAI/EagleAI.sol\":49394:49411  sellReflectionTax */\n      0x16\n        /* \"EAGLEAI/EagleAI.sol\":49394:49431  sellReflectionTax = reflectionPercent */\n      dup6\n      swap1\n      sstore\n        /* \"EAGLEAI/EagleAI.sol\":49442:49462  sellCoinWalletTaxPer */\n      0x17\n        /* \"EAGLEAI/EagleAI.sol\":49442:49482  sellCoinWalletTaxPer = coinOperartionPer */\n      dup5\n      swap1\n      sstore\n        /* \"EAGLEAI/EagleAI.sol\":49493:49512  sellLiquidityTaxPer */\n      0x18\n        /* \"EAGLEAI/EagleAI.sol\":49493:49530  sellLiquidityTaxPer = liquidityTaxPer */\n      dup4\n      swap1\n      sstore\n        /* \"EAGLEAI/EagleAI.sol\":49541:49555  sellBurnTaxPer */\n      0x19\n        /* \"EAGLEAI/EagleAI.sol\":49541:49568  sellBurnTaxPer = burnTaxPer */\n      dup3\n      swap1\n      sstore\n        /* \"EAGLEAI/EagleAI.sol\":49584:49673  SellTaxUpdated(sellReflectionTax,sellCoinWalletTaxPer,sellLiquidityTaxPer,sellBurnTaxPer) */\n      0x40\n      dup1\n      mload\n        /* \"#utility.yul\":11422:11447   */\n      dup7\n      dup2\n      mstore\n        /* \"#utility.yul\":11478:11480   */\n      0x20\n        /* \"#utility.yul\":11463:11481   */\n      dup2\n      add\n        /* \"#utility.yul\":11456:11490   */\n      dup7\n      swap1\n      mstore\n        /* \"#utility.yul\":11506:11524   */\n      swap1\n      dup2\n      add\n        /* \"#utility.yul\":11499:11533   */\n      dup5\n      swap1\n      mstore\n        /* \"#utility.yul\":11564:11566   */\n      0x60\n        /* \"#utility.yul\":11549:11567   */\n      dup2\n      add\n        /* \"#utility.yul\":11542:11576   */\n      dup4\n      swap1\n      mstore\n        /* \"EAGLEAI/EagleAI.sol\":49584:49673  SellTaxUpdated(sellReflectionTax,sellCoinWalletTaxPer,sellLiquidityTaxPer,sellBurnTaxPer) */\n      0xa987db89f31df6351bb1ad3d58f4e5ef54e52c1e3389622f2b38adcf43a086ae\n      swap1\n        /* \"#utility.yul\":11409:11412   */\n      0x80\n        /* \"#utility.yul\":11394:11413   */\n      add\n        /* \"EAGLEAI/EagleAI.sol\":49584:49673  SellTaxUpdated(sellReflectionTax,sellCoinWalletTaxPer,sellLiquidityTaxPer,sellBurnTaxPer) */\n    tag_454:\n      mload(0x40)\n      dup1\n      swap2\n      sub\n      swap1\n      log1\n        /* \"EAGLEAI/EagleAI.sol\":49208:49681  {... */\n      pop\n        /* \"EAGLEAI/EagleAI.sol\":49067:49681  function updateSellTaxPer(uint256 reflectionPercent,uint256 coinOperartionPer,uint256 liquidityTaxPer,uint256 burnTaxPer) external onlyOwner {... */\n      pop\n      pop\n      pop\n      pop\n      jump\t// out\n        /* \"EAGLEAI/EagleAI.sol\":32588:32758  function setSwapAndLiquifyEnabled(bool enabled) external onlyOwner {... */\n    tag_224:\n        /* \"EAGLEAI/EagleAI.sol\":6192:6198  _owner */\n      and(sub(shl(0xa0, 0x01), 0x01), sload(0x00))\n        /* \"EAGLEAI/EagleAI.sol\":4607:4617  msg.sender */\n      caller\n        /* \"EAGLEAI/EagleAI.sol\":6192:6214  _owner == _msgSender() */\n      eq\n        /* \"EAGLEAI/EagleAI.sol\":6184:6251  require(_owner == _msgSender(), \"Ownable: caller is not the owner\") */\n      tag_458\n      jumpi\n      mload(0x40)\n      shl(0xe5, 0x461bcd)\n      dup2\n      mstore\n      0x04\n      add\n      tag_291\n      swap1\n      tag_292\n      jump\t// in\n    tag_458:\n        /* \"EAGLEAI/EagleAI.sol\":32666:32687  swapAndLiquifyEnabled */\n      0x0c\n        /* \"EAGLEAI/EagleAI.sol\":32666:32697  swapAndLiquifyEnabled = enabled */\n      dup1\n      sload\n      dup3\n      iszero\n      iszero\n      0x0100\n      mul\n      not(0xff00)\n      swap1\n      swap2\n      and\n      or\n      swap1\n      sstore\n        /* \"EAGLEAI/EagleAI.sol\":32713:32750  SwapAndLiquifyEnabledUpdated(enabled) */\n      mload(0x40)\n      0x53726dfcaf90650aa7eb35524f4d3220f07413c8d6cb404cc8c18bf5591bc159\n      swap1\n      tag_386\n      swap1\n        /* \"EAGLEAI/EagleAI.sol\":32690:32697  enabled */\n      dup4\n        /* \"#utility.yul\":1188:1202   */\n      iszero\n        /* \"#utility.yul\":1181:1203   */\n      iszero\n        /* \"#utility.yul\":1163:1204   */\n      dup2\n      mstore\n        /* \"#utility.yul\":1151:1153   */\n      0x20\n        /* \"#utility.yul\":1136:1154   */\n      add\n      swap1\n        /* \"#utility.yul\":1023:1210   */\n      jump\n        /* \"EAGLEAI/EagleAI.sol\":33362:33646  function updateThreshold(uint256 _amount) external onlyOwner {... */\n    tag_232:\n        /* \"EAGLEAI/EagleAI.sol\":6192:6198  _owner */\n      and(sub(shl(0xa0, 0x01), 0x01), sload(0x00))\n        /* \"EAGLEAI/EagleAI.sol\":4607:4617  msg.sender */\n      caller\n        /* \"EAGLEAI/EagleAI.sol\":6192:6214  _owner == _msgSender() */\n      eq\n        /* \"EAGLEAI/EagleAI.sol\":6184:6251  require(_owner == _msgSender(), \"Ownable: caller is not the owner\") */\n      tag_464\n      jumpi\n      mload(0x40)\n      shl(0xe5, 0x461bcd)\n      dup2\n      mstore\n      0x04\n      add\n      tag_291\n      swap1\n      tag_292\n      jump\t// in\n    tag_464:\n        /* \"EAGLEAI/EagleAI.sol\":33452:33453  0 */\n      0x00\n        /* \"EAGLEAI/EagleAI.sol\":33442:33449  _amount */\n      dup2\n        /* \"EAGLEAI/EagleAI.sol\":33442:33453  _amount > 0 */\n      gt\n        /* \"EAGLEAI/EagleAI.sol\":33442:33486  _amount > 0 && _amount <= 5 * 10**5 * 10**18 */\n      dup1\n      iszero\n      tag_467\n      jumpi\n      pop\n        /* \"EAGLEAI/EagleAI.sol\":33468:33486  5 * 10**5 * 10**18 */\n      0x69e10de76676d0800000\n        /* \"EAGLEAI/EagleAI.sol\":33457:33464  _amount */\n      dup2\n        /* \"EAGLEAI/EagleAI.sol\":33457:33486  _amount <= 5 * 10**5 * 10**18 */\n      gt\n      iszero\n        /* \"EAGLEAI/EagleAI.sol\":33442:33486  _amount > 0 && _amount <= 5 * 10**5 * 10**18 */\n    tag_467:\n        /* \"EAGLEAI/EagleAI.sol\":33434:33547  require(_amount > 0 && _amount <= 5 * 10**5 * 10**18,\"Amount should be more than zero and less than 500k tokens\") */\n      tag_468\n      jumpi\n      mload(0x40)\n      shl(0xe5, 0x461bcd)\n      dup2\n      mstore\n        /* \"#utility.yul\":11789:11791   */\n      0x20\n        /* \"EAGLEAI/EagleAI.sol\":33434:33547  require(_amount > 0 && _amount <= 5 * 10**5 * 10**18,\"Amount should be more than zero and less than 500k tokens\") */\n      0x04\n      dup3\n      add\n        /* \"#utility.yul\":11771:11792   */\n      mstore\n        /* \"#utility.yul\":11828:11830   */\n      0x39\n        /* \"#utility.yul\":11808:11826   */\n      0x24\n      dup3\n      add\n        /* \"#utility.yul\":11801:11831   */\n      mstore\n        /* \"#utility.yul\":11867:11901   */\n      0x416d6f756e742073686f756c64206265206d6f7265207468616e207a65726f20\n        /* \"#utility.yul\":11847:11865   */\n      0x44\n      dup3\n      add\n        /* \"#utility.yul\":11840:11902   */\n      mstore\n        /* \"#utility.yul\":11938:11965   */\n      0x616e64206c657373207468616e203530306b20746f6b656e7300000000000000\n        /* \"#utility.yul\":11918:11936   */\n      0x64\n      dup3\n      add\n        /* \"#utility.yul\":11911:11966   */\n      mstore\n        /* \"#utility.yul\":11983:12002   */\n      0x84\n      add\n        /* \"EAGLEAI/EagleAI.sol\":33434:33547  require(_amount > 0 && _amount <= 5 * 10**5 * 10**18,\"Amount should be more than zero and less than 500k tokens\") */\n      tag_291\n        /* \"#utility.yul\":11587:12008   */\n      jump\n        /* \"EAGLEAI/EagleAI.sol\":33434:33547  require(_amount > 0 && _amount <= 5 * 10**5 * 10**18,\"Amount should be more than zero and less than 500k tokens\") */\n    tag_468:\n        /* \"EAGLEAI/EagleAI.sol\":33558:33587  numTokensSellToAddToLiquidity */\n      0x0d\n        /* \"EAGLEAI/EagleAI.sol\":33558:33597  numTokensSellToAddToLiquidity = _amount */\n      dup2\n      swap1\n      sstore\n        /* \"EAGLEAI/EagleAI.sol\":33613:33638  ThresholdUpdated(_amount) */\n      mload(0x40)\n        /* \"#utility.yul\":1361:1386   */\n      dup2\n      dup2\n      mstore\n        /* \"EAGLEAI/EagleAI.sol\":33613:33638  ThresholdUpdated(_amount) */\n      0xadfa8ecb21b6962ebcd0adbd9ab985b7b4c5b5eb3b0dead683171565c7bfe171\n      swap1\n        /* \"#utility.yul\":1349:1351   */\n      0x20\n        /* \"#utility.yul\":1334:1352   */\n      add\n        /* \"EAGLEAI/EagleAI.sol\":33613:33638  ThresholdUpdated(_amount) */\n      tag_386\n        /* \"#utility.yul\":1215:1392   */\n      jump\n        /* \"EAGLEAI/EagleAI.sol\":31315:31499  function includeInFee(address account) external onlyOwner {... */\n    tag_259:\n        /* \"EAGLEAI/EagleAI.sol\":6192:6198  _owner */\n      and(sub(shl(0xa0, 0x01), 0x01), sload(0x00))\n        /* \"EAGLEAI/EagleAI.sol\":4607:4617  msg.sender */\n      caller\n        /* \"EAGLEAI/EagleAI.sol\":6192:6214  _owner == _msgSender() */\n      eq\n        /* \"EAGLEAI/EagleAI.sol\":6184:6251  require(_owner == _msgSender(), \"Ownable: caller is not the owner\") */\n      tag_475\n      jumpi\n      mload(0x40)\n      shl(0xe5, 0x461bcd)\n      dup2\n      mstore\n      0x04\n      add\n      tag_291\n      swap1\n      tag_292\n      jump\t// in\n    tag_475:\n      sub(shl(0xa0, 0x01), 0x01)\n        /* \"EAGLEAI/EagleAI.sol\":31392:31419  _isExcludedFromFee[account] */\n      dup2\n      and\n      0x00\n      swap1\n      dup2\n      mstore\n        /* \"EAGLEAI/EagleAI.sol\":31392:31410  _isExcludedFromFee */\n      0x06\n        /* \"EAGLEAI/EagleAI.sol\":31392:31419  _isExcludedFromFee[account] */\n      0x20\n      mstore\n      0x40\n      swap1\n      keccak256\n      sload\n      0xff\n      and\n        /* \"EAGLEAI/EagleAI.sol\":31384:31445  require(_isExcludedFromFee[account],\"Alreay included in fee\") */\n      tag_478\n      jumpi\n      mload(0x40)\n      shl(0xe5, 0x461bcd)\n      dup2\n      mstore\n        /* \"#utility.yul\":12215:12217   */\n      0x20\n        /* \"EAGLEAI/EagleAI.sol\":31384:31445  require(_isExcludedFromFee[account],\"Alreay included in fee\") */\n      0x04\n      dup3\n      add\n        /* \"#utility.yul\":12197:12218   */\n      mstore\n        /* \"#utility.yul\":12254:12256   */\n      0x16\n        /* \"#utility.yul\":12234:12252   */\n      0x24\n      dup3\n      add\n        /* \"#utility.yul\":12227:12257   */\n      mstore\n      shl(0x50, 0x416c7265617920696e636c7564656420696e20666565)\n        /* \"#utility.yul\":12273:12291   */\n      0x44\n      dup3\n      add\n        /* \"#utility.yul\":12266:12318   */\n      mstore\n        /* \"#utility.yul\":12335:12353   */\n      0x64\n      add\n        /* \"EAGLEAI/EagleAI.sol\":31384:31445  require(_isExcludedFromFee[account],\"Alreay included in fee\") */\n      tag_291\n        /* \"#utility.yul\":12013:12359   */\n      jump\n        /* \"EAGLEAI/EagleAI.sol\":31384:31445  require(_isExcludedFromFee[account],\"Alreay included in fee\") */\n    tag_478:\n      sub(shl(0xa0, 0x01), 0x01)\n        /* \"EAGLEAI/EagleAI.sol\":31456:31483  _isExcludedFromFee[account] */\n      and\n        /* \"EAGLEAI/EagleAI.sol\":31486:31491  false */\n      0x00\n        /* \"EAGLEAI/EagleAI.sol\":31456:31483  _isExcludedFromFee[account] */\n      swap1\n      dup2\n      mstore\n        /* \"EAGLEAI/EagleAI.sol\":31456:31474  _isExcludedFromFee */\n      0x06\n        /* \"EAGLEAI/EagleAI.sol\":31456:31483  _isExcludedFromFee[account] */\n      0x20\n      mstore\n      0x40\n      swap1\n      keccak256\n        /* \"EAGLEAI/EagleAI.sol\":31456:31491  _isExcludedFromFee[account] = false */\n      dup1\n      sload\n      not(0xff)\n      and\n      swap1\n      sstore\n        /* \"EAGLEAI/EagleAI.sol\":31315:31499  function includeInFee(address account) external onlyOwner {... */\n      jump\t// out\n        /* \"EAGLEAI/EagleAI.sol\":47783:48394  function updateBuyTaxPer(uint256 reflectionPercent,uint256 coinOperartionPer,uint256 liquidityTaxPer,uint256 burnTaxPer) external onlyOwner {... */\n    tag_263:\n        /* \"EAGLEAI/EagleAI.sol\":6192:6198  _owner */\n      and(sub(shl(0xa0, 0x01), 0x01), sload(0x00))\n        /* \"EAGLEAI/EagleAI.sol\":4607:4617  msg.sender */\n      caller\n        /* \"EAGLEAI/EagleAI.sol\":6192:6214  _owner == _msgSender() */\n      eq\n        /* \"EAGLEAI/EagleAI.sol\":6184:6251  require(_owner == _msgSender(), \"Ownable: caller is not the owner\") */\n      tag_483\n      jumpi\n      mload(0x40)\n      shl(0xe5, 0x461bcd)\n      dup2\n      mstore\n      0x04\n      add\n      tag_291\n      swap1\n      tag_292\n      jump\t// in\n    tag_483:\n        /* \"EAGLEAI/EagleAI.sol\":47934:47950  uint256 totalTax */\n      0x00\n        /* \"EAGLEAI/EagleAI.sol\":48011:48021  burnTaxPer */\n      dup2\n        /* \"EAGLEAI/EagleAI.sol\":47993:48008  liquidityTaxPer */\n      dup4\n        /* \"EAGLEAI/EagleAI.sol\":47953:47990  reflectionPercent + coinOperartionPer */\n      tag_486\n        /* \"EAGLEAI/EagleAI.sol\":47973:47990  coinOperartionPer */\n      dup7\n        /* \"EAGLEAI/EagleAI.sol\":47953:47970  reflectionPercent */\n      dup9\n        /* \"EAGLEAI/EagleAI.sol\":47953:47990  reflectionPercent + coinOperartionPer */\n      tag_339\n      jump\t// in\n    tag_486:\n        /* \"EAGLEAI/EagleAI.sol\":47953:48008  reflectionPercent + coinOperartionPer + liquidityTaxPer */\n      tag_487\n      swap2\n      swap1\n      tag_339\n      jump\t// in\n    tag_487:\n        /* \"EAGLEAI/EagleAI.sol\":47953:48021  reflectionPercent + coinOperartionPer + liquidityTaxPer + burnTaxPer */\n      tag_488\n      swap2\n      swap1\n      tag_339\n      jump\t// in\n    tag_488:\n        /* \"EAGLEAI/EagleAI.sol\":47934:48021  uint256 totalTax = reflectionPercent + coinOperartionPer + liquidityTaxPer + burnTaxPer */\n      swap1\n      pop\n        /* \"EAGLEAI/EagleAI.sol\":48052:48055  100 */\n      0x64\n        /* \"EAGLEAI/EagleAI.sol\":48040:48048  totalTax */\n      dup2\n        /* \"EAGLEAI/EagleAI.sol\":48040:48055  totalTax <= 100 */\n      gt\n      iszero\n        /* \"EAGLEAI/EagleAI.sol\":48032:48097  require(totalTax <= 100,\"You can not set buy tax more then 100%\") */\n      tag_489\n      jumpi\n      mload(0x40)\n      shl(0xe5, 0x461bcd)\n      dup2\n      mstore\n        /* \"#utility.yul\":12566:12568   */\n      0x20\n        /* \"EAGLEAI/EagleAI.sol\":48032:48097  require(totalTax <= 100,\"You can not set buy tax more then 100%\") */\n      0x04\n      dup3\n      add\n        /* \"#utility.yul\":12548:12569   */\n      mstore\n        /* \"#utility.yul\":12605:12607   */\n      0x26\n        /* \"#utility.yul\":12585:12603   */\n      0x24\n      dup3\n      add\n        /* \"#utility.yul\":12578:12608   */\n      mstore\n        /* \"#utility.yul\":12644:12678   */\n      0x596f752063616e206e6f74207365742062757920746178206d6f726520746865\n        /* \"#utility.yul\":12624:12642   */\n      0x44\n      dup3\n      add\n        /* \"#utility.yul\":12617:12679   */\n      mstore\n      shl(0xd0, 0x6e2031303025)\n        /* \"#utility.yul\":12695:12713   */\n      0x64\n      dup3\n      add\n        /* \"#utility.yul\":12688:12724   */\n      mstore\n        /* \"#utility.yul\":12741:12760   */\n      0x84\n      add\n        /* \"EAGLEAI/EagleAI.sol\":48032:48097  require(totalTax <= 100,\"You can not set buy tax more then 100%\") */\n      tag_291\n        /* \"#utility.yul\":12364:12766   */\n      jump\n        /* \"EAGLEAI/EagleAI.sol\":48032:48097  require(totalTax <= 100,\"You can not set buy tax more then 100%\") */\n    tag_489:\n        /* \"EAGLEAI/EagleAI.sol\":48116:48132  buyReflectionTax */\n      0x12\n        /* \"EAGLEAI/EagleAI.sol\":48116:48152  buyReflectionTax = reflectionPercent */\n      dup6\n      swap1\n      sstore\n        /* \"EAGLEAI/EagleAI.sol\":48163:48182  buyCoinWalletTaxPer */\n      0x13\n        /* \"EAGLEAI/EagleAI.sol\":48163:48202  buyCoinWalletTaxPer = coinOperartionPer */\n      dup5\n      swap1\n      sstore\n        /* \"EAGLEAI/EagleAI.sol\":48213:48231  buyLiquidityTaxPer */\n      0x14\n        /* \"EAGLEAI/EagleAI.sol\":48213:48249  buyLiquidityTaxPer = liquidityTaxPer */\n      dup4\n      swap1\n      sstore\n        /* \"EAGLEAI/EagleAI.sol\":48260:48273  buyBurnTaxPer */\n      0x15\n        /* \"EAGLEAI/EagleAI.sol\":48260:48286  buyBurnTaxPer = burnTaxPer */\n      dup3\n      swap1\n      sstore\n        /* \"EAGLEAI/EagleAI.sol\":48302:48386  BuyTaxUpdated(buyReflectionTax,buyCoinWalletTaxPer,buyLiquidityTaxPer,buyBurnTaxPer) */\n      0x40\n      dup1\n      mload\n        /* \"#utility.yul\":11422:11447   */\n      dup7\n      dup2\n      mstore\n        /* \"#utility.yul\":11478:11480   */\n      0x20\n        /* \"#utility.yul\":11463:11481   */\n      dup2\n      add\n        /* \"#utility.yul\":11456:11490   */\n      dup7\n      swap1\n      mstore\n        /* \"#utility.yul\":11506:11524   */\n      swap1\n      dup2\n      add\n        /* \"#utility.yul\":11499:11533   */\n      dup5\n      swap1\n      mstore\n        /* \"#utility.yul\":11564:11566   */\n      0x60\n        /* \"#utility.yul\":11549:11567   */\n      dup2\n      add\n        /* \"#utility.yul\":11542:11576   */\n      dup4\n      swap1\n      mstore\n        /* \"EAGLEAI/EagleAI.sol\":48302:48386  BuyTaxUpdated(buyReflectionTax,buyCoinWalletTaxPer,buyLiquidityTaxPer,buyBurnTaxPer) */\n      0x39dd28ec6ca271c82451a8ef3e1422d281febc1d63701dd827a8573ed55bd485\n      swap1\n        /* \"#utility.yul\":11409:11412   */\n      0x80\n        /* \"#utility.yul\":11394:11413   */\n      add\n        /* \"EAGLEAI/EagleAI.sol\":48302:48386  BuyTaxUpdated(buyReflectionTax,buyCoinWalletTaxPer,buyLiquidityTaxPer,buyBurnTaxPer) */\n      tag_454\n        /* \"#utility.yul\":11191:11582   */\n      jump\n        /* \"EAGLEAI/EagleAI.sol\":46893:47113  function removeBlacklist(address account) external  onlyOwner {... */\n    tag_267:\n        /* \"EAGLEAI/EagleAI.sol\":6192:6198  _owner */\n      and(sub(shl(0xa0, 0x01), 0x01), sload(0x00))\n        /* \"EAGLEAI/EagleAI.sol\":4607:4617  msg.sender */\n      caller\n        /* \"EAGLEAI/EagleAI.sol\":6192:6214  _owner == _msgSender() */\n      eq\n        /* \"EAGLEAI/EagleAI.sol\":6184:6251  require(_owner == _msgSender(), \"Ownable: caller is not the owner\") */\n      tag_495\n      jumpi\n      mload(0x40)\n      shl(0xe5, 0x461bcd)\n      dup2\n      mstore\n      0x04\n      add\n      tag_291\n      swap1\n      tag_292\n      jump\t// in\n    tag_495:\n      sub(shl(0xa0, 0x01), 0x01)\n        /* \"EAGLEAI/EagleAI.sol\":46974:46994  blacklisted[account] */\n      dup2\n      and\n      0x00\n      swap1\n      dup2\n      mstore\n        /* \"EAGLEAI/EagleAI.sol\":46974:46985  blacklisted */\n      0x05\n        /* \"EAGLEAI/EagleAI.sol\":46974:46994  blacklisted[account] */\n      0x20\n      mstore\n      0x40\n      swap1\n      keccak256\n      sload\n      0xff\n      and\n        /* \"EAGLEAI/EagleAI.sol\":46966:47021  require(blacklisted[account],\"Account not blacklisted\") */\n      tag_498\n      jumpi\n      mload(0x40)\n      shl(0xe5, 0x461bcd)\n      dup2\n      mstore\n        /* \"#utility.yul\":12973:12975   */\n      0x20\n        /* \"EAGLEAI/EagleAI.sol\":46966:47021  require(blacklisted[account],\"Account not blacklisted\") */\n      0x04\n      dup3\n      add\n        /* \"#utility.yul\":12955:12976   */\n      mstore\n        /* \"#utility.yul\":13012:13014   */\n      0x17\n        /* \"#utility.yul\":12992:13010   */\n      0x24\n      dup3\n      add\n        /* \"#utility.yul\":12985:13015   */\n      mstore\n        /* \"#utility.yul\":13051:13076   */\n      0x4163636f756e74206e6f7420626c61636b6c6973746564000000000000000000\n        /* \"#utility.yul\":13031:13049   */\n      0x44\n      dup3\n      add\n        /* \"#utility.yul\":13024:13077   */\n      mstore\n        /* \"#utility.yul\":13094:13112   */\n      0x64\n      add\n        /* \"EAGLEAI/EagleAI.sol\":46966:47021  require(blacklisted[account],\"Account not blacklisted\") */\n      tag_291\n        /* \"#utility.yul\":12771:13118   */\n      jump\n        /* \"EAGLEAI/EagleAI.sol\":46966:47021  require(blacklisted[account],\"Account not blacklisted\") */\n    tag_498:\n      sub(shl(0xa0, 0x01), 0x01)\n        /* \"EAGLEAI/EagleAI.sol\":47032:47052  blacklisted[account] */\n      dup2\n      and\n        /* \"EAGLEAI/EagleAI.sol\":47055:47060  false */\n      0x00\n        /* \"EAGLEAI/EagleAI.sol\":47032:47052  blacklisted[account] */\n      dup2\n      dup2\n      mstore\n        /* \"EAGLEAI/EagleAI.sol\":47032:47043  blacklisted */\n      0x05\n        /* \"EAGLEAI/EagleAI.sol\":47032:47052  blacklisted[account] */\n      0x20\n      swap1\n      dup2\n      mstore\n      0x40\n      swap2\n      dup3\n      swap1\n      keccak256\n        /* \"EAGLEAI/EagleAI.sol\":47032:47060  blacklisted[account] = false */\n      dup1\n      sload\n      not(0xff)\n      and\n      swap1\n      sstore\n        /* \"EAGLEAI/EagleAI.sol\":47076:47105  RemovedFromBlacklist(account) */\n      swap1\n      mload\n        /* \"#utility.yul\":1569:1620   */\n      swap2\n      dup3\n      mstore\n        /* \"EAGLEAI/EagleAI.sol\":47076:47105  RemovedFromBlacklist(account) */\n      0x2b6bf71b58b3583add364b3d9060ebf8019650f65f5be35f5464b9cb3e4ba2d4\n      swap2\n        /* \"#utility.yul\":1542:1560   */\n      add\n        /* \"EAGLEAI/EagleAI.sol\":47076:47105  RemovedFromBlacklist(account) */\n      tag_386\n        /* \"#utility.yul\":1397:1626   */\n      jump\n        /* \"EAGLEAI/EagleAI.sol\":6926:7170  function transferOwnership(address newOwner) public virtual onlyOwner {... */\n    tag_271:\n        /* \"EAGLEAI/EagleAI.sol\":6192:6198  _owner */\n      and(sub(shl(0xa0, 0x01), 0x01), sload(0x00))\n        /* \"EAGLEAI/EagleAI.sol\":4607:4617  msg.sender */\n      caller\n        /* \"EAGLEAI/EagleAI.sol\":6192:6214  _owner == _msgSender() */\n      eq\n        /* \"EAGLEAI/EagleAI.sol\":6184:6251  require(_owner == _msgSender(), \"Ownable: caller is not the owner\") */\n      tag_504\n      jumpi\n      mload(0x40)\n      shl(0xe5, 0x461bcd)\n      dup2\n      mstore\n      0x04\n      add\n      tag_291\n      swap1\n      tag_292\n      jump\t// in\n    tag_504:\n      sub(shl(0xa0, 0x01), 0x01)\n        /* \"EAGLEAI/EagleAI.sol\":7015:7037  newOwner != address(0) */\n      dup2\n      and\n        /* \"EAGLEAI/EagleAI.sol\":7007:7080  require(newOwner != address(0), \"Ownable: new owner is the zero address\") */\n      tag_507\n      jumpi\n      mload(0x40)\n      shl(0xe5, 0x461bcd)\n      dup2\n      mstore\n        /* \"#utility.yul\":13325:13327   */\n      0x20\n        /* \"EAGLEAI/EagleAI.sol\":7007:7080  require(newOwner != address(0), \"Ownable: new owner is the zero address\") */\n      0x04\n      dup3\n      add\n        /* \"#utility.yul\":13307:13328   */\n      mstore\n        /* \"#utility.yul\":13364:13366   */\n      0x26\n        /* \"#utility.yul\":13344:13362   */\n      0x24\n      dup3\n      add\n        /* \"#utility.yul\":13337:13367   */\n      mstore\n        /* \"#utility.yul\":13403:13437   */\n      0x4f776e61626c653a206e6577206f776e657220697320746865207a65726f2061\n        /* \"#utility.yul\":13383:13401   */\n      0x44\n      dup3\n      add\n        /* \"#utility.yul\":13376:13438   */\n      mstore\n      shl(0xd0, 0x646472657373)\n        /* \"#utility.yul\":13454:13472   */\n      0x64\n      dup3\n      add\n        /* \"#utility.yul\":13447:13483   */\n      mstore\n        /* \"#utility.yul\":13500:13519   */\n      0x84\n      add\n        /* \"EAGLEAI/EagleAI.sol\":7007:7080  require(newOwner != address(0), \"Ownable: new owner is the zero address\") */\n      tag_291\n        /* \"#utility.yul\":13123:13525   */\n      jump\n        /* \"EAGLEAI/EagleAI.sol\":7007:7080  require(newOwner != address(0), \"Ownable: new owner is the zero address\") */\n    tag_507:\n        /* \"EAGLEAI/EagleAI.sol\":7117:7123  _owner */\n      0x00\n      dup1\n      sload\n        /* \"EAGLEAI/EagleAI.sol\":7096:7134  OwnershipTransferred(_owner, newOwner) */\n      mload(0x40)\n      sub(shl(0xa0, 0x01), 0x01)\n      dup1\n      dup6\n      and\n      swap4\n        /* \"EAGLEAI/EagleAI.sol\":7117:7123  _owner */\n      swap3\n      and\n      swap2\n        /* \"EAGLEAI/EagleAI.sol\":7096:7134  OwnershipTransferred(_owner, newOwner) */\n      0x8be0079c531659141344cd1fd0a4f28419497f9722a3daafe3b4186f6b6457e0\n      swap2\n      log3\n        /* \"EAGLEAI/EagleAI.sol\":7145:7151  _owner */\n      0x00\n        /* \"EAGLEAI/EagleAI.sol\":7145:7162  _owner = newOwner */\n      dup1\n      sload\n      not(sub(shl(0xa0, 0x01), 0x01))\n      and\n      sub(shl(0xa0, 0x01), 0x01)\n      swap3\n      swap1\n      swap3\n      and\n      swap2\n      swap1\n      swap2\n      or\n      swap1\n      sstore\n        /* \"EAGLEAI/EagleAI.sol\":6926:7170  function transferOwnership(address newOwner) public virtual onlyOwner {... */\n      jump\t// out\n        /* \"EAGLEAI/EagleAI.sol\":45633:45970  function _approve(address owner, address spender, uint256 amount) private {... */\n    tag_277:\n      sub(shl(0xa0, 0x01), 0x01)\n        /* \"EAGLEAI/EagleAI.sol\":45726:45745  owner != address(0) */\n      dup4\n      and\n        /* \"EAGLEAI/EagleAI.sol\":45718:45786  require(owner != address(0), \"ERC20: approve from the zero address\") */\n      tag_512\n      jumpi\n      mload(0x40)\n      shl(0xe5, 0x461bcd)\n      dup2\n      mstore\n        /* \"#utility.yul\":13732:13734   */\n      0x20\n        /* \"EAGLEAI/EagleAI.sol\":45718:45786  require(owner != address(0), \"ERC20: approve from the zero address\") */\n      0x04\n      dup3\n      add\n        /* \"#utility.yul\":13714:13735   */\n      mstore\n        /* \"#utility.yul\":13771:13773   */\n      0x24\n        /* \"#utility.yul\":13751:13769   */\n      dup1\n      dup3\n      add\n        /* \"#utility.yul\":13744:13774   */\n      mstore\n        /* \"#utility.yul\":13810:13844   */\n      0x45524332303a20617070726f76652066726f6d20746865207a65726f20616464\n        /* \"#utility.yul\":13790:13808   */\n      0x44\n      dup3\n      add\n        /* \"#utility.yul\":13783:13845   */\n      mstore\n      shl(0xe0, 0x72657373)\n        /* \"#utility.yul\":13861:13879   */\n      0x64\n      dup3\n      add\n        /* \"#utility.yul\":13854:13888   */\n      mstore\n        /* \"#utility.yul\":13905:13924   */\n      0x84\n      add\n        /* \"EAGLEAI/EagleAI.sol\":45718:45786  require(owner != address(0), \"ERC20: approve from the zero address\") */\n      tag_291\n        /* \"#utility.yul\":13530:13930   */\n      jump\n        /* \"EAGLEAI/EagleAI.sol\":45718:45786  require(owner != address(0), \"ERC20: approve from the zero address\") */\n    tag_512:\n      sub(shl(0xa0, 0x01), 0x01)\n        /* \"EAGLEAI/EagleAI.sol\":45805:45826  spender != address(0) */\n      dup3\n      and\n        /* \"EAGLEAI/EagleAI.sol\":45797:45865  require(spender != address(0), \"ERC20: approve to the zero address\") */\n      tag_515\n      jumpi\n      mload(0x40)\n      shl(0xe5, 0x461bcd)\n      dup2\n      mstore\n        /* \"#utility.yul\":14137:14139   */\n      0x20\n        /* \"EAGLEAI/EagleAI.sol\":45797:45865  require(spender != address(0), \"ERC20: approve to the zero address\") */\n      0x04\n      dup3\n      add\n        /* \"#utility.yul\":14119:14140   */\n      mstore\n        /* \"#utility.yul\":14176:14178   */\n      0x22\n        /* \"#utility.yul\":14156:14174   */\n      0x24\n      dup3\n      add\n        /* \"#utility.yul\":14149:14179   */\n      mstore\n        /* \"#utility.yul\":14215:14249   */\n      0x45524332303a20617070726f766520746f20746865207a65726f206164647265\n        /* \"#utility.yul\":14195:14213   */\n      0x44\n      dup3\n      add\n        /* \"#utility.yul\":14188:14250   */\n      mstore\n      shl(0xf0, 0x7373)\n        /* \"#utility.yul\":14266:14284   */\n      0x64\n      dup3\n      add\n        /* \"#utility.yul\":14259:14291   */\n      mstore\n        /* \"#utility.yul\":14308:14327   */\n      0x84\n      add\n        /* \"EAGLEAI/EagleAI.sol\":45797:45865  require(spender != address(0), \"ERC20: approve to the zero address\") */\n      tag_291\n        /* \"#utility.yul\":13935:14333   */\n      jump\n        /* \"EAGLEAI/EagleAI.sol\":45797:45865  require(spender != address(0), \"ERC20: approve to the zero address\") */\n    tag_515:\n      sub(shl(0xa0, 0x01), 0x01)\n        /* \"EAGLEAI/EagleAI.sol\":45878:45896  _allowances[owner] */\n      dup4\n      dup2\n      and\n      0x00\n      dup2\n      dup2\n      mstore\n        /* \"EAGLEAI/EagleAI.sol\":45878:45889  _allowances */\n      0x04\n        /* \"EAGLEAI/EagleAI.sol\":45878:45896  _allowances[owner] */\n      0x20\n      swap1\n      dup2\n      mstore\n      0x40\n      dup1\n      dup4\n      keccak256\n        /* \"EAGLEAI/EagleAI.sol\":45878:45905  _allowances[owner][spender] */\n      swap5\n      dup8\n      and\n      dup1\n      dup5\n      mstore\n      swap5\n      dup3\n      mstore\n      swap2\n      dup3\n      swap1\n      keccak256\n        /* \"EAGLEAI/EagleAI.sol\":45878:45914  _allowances[owner][spender] = amount */\n      dup6\n      swap1\n      sstore\n        /* \"EAGLEAI/EagleAI.sol\":45930:45962  Approval(owner, spender, amount) */\n      swap1\n      mload\n        /* \"#utility.yul\":1361:1386   */\n      dup5\n      dup2\n      mstore\n        /* \"EAGLEAI/EagleAI.sol\":45930:45962  Approval(owner, spender, amount) */\n      0x8c5be1e5ebec7d5bd14f71427d1e84f3dd0314c0f7b2291e5b200ac8c7c3b925\n      swap2\n        /* \"#utility.yul\":1334:1352   */\n      add\n        /* \"EAGLEAI/EagleAI.sol\":45930:45962  Approval(owner, spender, amount) */\n      mload(0x40)\n      dup1\n      swap2\n      sub\n      swap1\n      log3\n        /* \"EAGLEAI/EagleAI.sol\":45633:45970  function _approve(address owner, address spender, uint256 amount) private {... */\n      pop\n      pop\n      pop\n      jump\t// out\n        /* \"EAGLEAI/EagleAI.sol\":50539:52151  function _transfer( address from, address to, uint256 amount ) private {... */\n    tag_282:\n      sub(shl(0xa0, 0x01), 0x01)\n        /* \"EAGLEAI/EagleAI.sol\":50629:50647  from != address(0) */\n      dup4\n      and\n        /* \"EAGLEAI/EagleAI.sol\":50621:50689  require(from != address(0), \"ERC20: transfer from the zero address\") */\n      tag_520\n      jumpi\n      mload(0x40)\n      shl(0xe5, 0x461bcd)\n      dup2\n      mstore\n        /* \"#utility.yul\":14540:14542   */\n      0x20\n        /* \"EAGLEAI/EagleAI.sol\":50621:50689  require(from != address(0), \"ERC20: transfer from the zero address\") */\n      0x04\n      dup3\n      add\n        /* \"#utility.yul\":14522:14543   */\n      mstore\n        /* \"#utility.yul\":14579:14581   */\n      0x25\n        /* \"#utility.yul\":14559:14577   */\n      0x24\n      dup3\n      add\n        /* \"#utility.yul\":14552:14582   */\n      mstore\n        /* \"#utility.yul\":14618:14652   */\n      0x45524332303a207472616e736665722066726f6d20746865207a65726f206164\n        /* \"#utility.yul\":14598:14616   */\n      0x44\n      dup3\n      add\n        /* \"#utility.yul\":14591:14653   */\n      mstore\n      shl(0xd8, 0x6472657373)\n        /* \"#utility.yul\":14669:14687   */\n      0x64\n      dup3\n      add\n        /* \"#utility.yul\":14662:14697   */\n      mstore\n        /* \"#utility.yul\":14714:14733   */\n      0x84\n      add\n        /* \"EAGLEAI/EagleAI.sol\":50621:50689  require(from != address(0), \"ERC20: transfer from the zero address\") */\n      tag_291\n        /* \"#utility.yul\":14338:14739   */\n      jump\n        /* \"EAGLEAI/EagleAI.sol\":50621:50689  require(from != address(0), \"ERC20: transfer from the zero address\") */\n    tag_520:\n      sub(shl(0xa0, 0x01), 0x01)\n        /* \"EAGLEAI/EagleAI.sol\":50708:50724  to != address(0) */\n      dup3\n      and\n        /* \"EAGLEAI/EagleAI.sol\":50700:50764  require(to != address(0), \"ERC20: transfer to the zero address\") */\n      tag_523\n      jumpi\n      mload(0x40)\n      shl(0xe5, 0x461bcd)\n      dup2\n      mstore\n        /* \"#utility.yul\":14946:14948   */\n      0x20\n        /* \"EAGLEAI/EagleAI.sol\":50700:50764  require(to != address(0), \"ERC20: transfer to the zero address\") */\n      0x04\n      dup3\n      add\n        /* \"#utility.yul\":14928:14949   */\n      mstore\n        /* \"#utility.yul\":14985:14987   */\n      0x23\n        /* \"#utility.yul\":14965:14983   */\n      0x24\n      dup3\n      add\n        /* \"#utility.yul\":14958:14988   */\n      mstore\n        /* \"#utility.yul\":15024:15058   */\n      0x45524332303a207472616e7366657220746f20746865207a65726f2061646472\n        /* \"#utility.yul\":15004:15022   */\n      0x44\n      dup3\n      add\n        /* \"#utility.yul\":14997:15059   */\n      mstore\n      shl(0xe8, 0x657373)\n        /* \"#utility.yul\":15075:15093   */\n      0x64\n      dup3\n      add\n        /* \"#utility.yul\":15068:15101   */\n      mstore\n        /* \"#utility.yul\":15118:15137   */\n      0x84\n      add\n        /* \"EAGLEAI/EagleAI.sol\":50700:50764  require(to != address(0), \"ERC20: transfer to the zero address\") */\n      tag_291\n        /* \"#utility.yul\":14744:15143   */\n      jump\n        /* \"EAGLEAI/EagleAI.sol\":50700:50764  require(to != address(0), \"ERC20: transfer to the zero address\") */\n    tag_523:\n        /* \"EAGLEAI/EagleAI.sol\":50792:50793  0 */\n      0x00\n        /* \"EAGLEAI/EagleAI.sol\":50783:50789  amount */\n      dup2\n        /* \"EAGLEAI/EagleAI.sol\":50783:50793  amount > 0 */\n      gt\n        /* \"EAGLEAI/EagleAI.sol\":50775:50839  require(amount > 0, \"Transfer amount must be greater than zero\") */\n      tag_526\n      jumpi\n      mload(0x40)\n      shl(0xe5, 0x461bcd)\n      dup2\n      mstore\n        /* \"#utility.yul\":15350:15352   */\n      0x20\n        /* \"EAGLEAI/EagleAI.sol\":50775:50839  require(amount > 0, \"Transfer amount must be greater than zero\") */\n      0x04\n      dup3\n      add\n        /* \"#utility.yul\":15332:15353   */\n      mstore\n        /* \"#utility.yul\":15389:15391   */\n      0x29\n        /* \"#utility.yul\":15369:15387   */\n      0x24\n      dup3\n      add\n        /* \"#utility.yul\":15362:15392   */\n      mstore\n        /* \"#utility.yul\":15428:15462   */\n      0x5472616e7366657220616d6f756e74206d757374206265206772656174657220\n        /* \"#utility.yul\":15408:15426   */\n      0x44\n      dup3\n      add\n        /* \"#utility.yul\":15401:15463   */\n      mstore\n      shl(0xb8, 0x7468616e207a65726f)\n        /* \"#utility.yul\":15479:15497   */\n      0x64\n      dup3\n      add\n        /* \"#utility.yul\":15472:15511   */\n      mstore\n        /* \"#utility.yul\":15528:15547   */\n      0x84\n      add\n        /* \"EAGLEAI/EagleAI.sol\":50775:50839  require(amount > 0, \"Transfer amount must be greater than zero\") */\n      tag_291\n        /* \"#utility.yul\":15148:15553   */\n      jump\n        /* \"EAGLEAI/EagleAI.sol\":50775:50839  require(amount > 0, \"Transfer amount must be greater than zero\") */\n    tag_526:\n      sub(shl(0xa0, 0x01), 0x01)\n        /* \"EAGLEAI/EagleAI.sol\":50859:50876  blacklisted[from] */\n      dup4\n      and\n      0x00\n      swap1\n      dup2\n      mstore\n        /* \"EAGLEAI/EagleAI.sol\":50859:50870  blacklisted */\n      0x05\n        /* \"EAGLEAI/EagleAI.sol\":50859:50876  blacklisted[from] */\n      0x20\n      mstore\n      0x40\n      swap1\n      keccak256\n      sload\n      0xff\n      and\n        /* \"EAGLEAI/EagleAI.sol\":50858:50876  !blacklisted[from] */\n      iszero\n        /* \"EAGLEAI/EagleAI.sol\":50850:50902  require(!blacklisted[from], \"Sender is blacklisted\") */\n      tag_529\n      jumpi\n      mload(0x40)\n      shl(0xe5, 0x461bcd)\n      dup2\n      mstore\n        /* \"#utility.yul\":15760:15762   */\n      0x20\n        /* \"EAGLEAI/EagleAI.sol\":50850:50902  require(!blacklisted[from], \"Sender is blacklisted\") */\n      0x04\n      dup3\n      add\n        /* \"#utility.yul\":15742:15763   */\n      mstore\n        /* \"#utility.yul\":15799:15801   */\n      0x15\n        /* \"#utility.yul\":15779:15797   */\n      0x24\n      dup3\n      add\n        /* \"#utility.yul\":15772:15802   */\n      mstore\n      shl(0x5a, 0x14d95b99195c881a5cc8189b1858dadb1a5cdd1959)\n        /* \"#utility.yul\":15818:15836   */\n      0x44\n      dup3\n      add\n        /* \"#utility.yul\":15811:15862   */\n      mstore\n        /* \"#utility.yul\":15879:15897   */\n      0x64\n      add\n        /* \"EAGLEAI/EagleAI.sol\":50850:50902  require(!blacklisted[from], \"Sender is blacklisted\") */\n      tag_291\n        /* \"#utility.yul\":15558:15903   */\n      jump\n        /* \"EAGLEAI/EagleAI.sol\":50850:50902  require(!blacklisted[from], \"Sender is blacklisted\") */\n    tag_529:\n      sub(shl(0xa0, 0x01), 0x01)\n        /* \"EAGLEAI/EagleAI.sol\":50922:50937  blacklisted[to] */\n      dup3\n      and\n      0x00\n      swap1\n      dup2\n      mstore\n        /* \"EAGLEAI/EagleAI.sol\":50922:50933  blacklisted */\n      0x05\n        /* \"EAGLEAI/EagleAI.sol\":50922:50937  blacklisted[to] */\n      0x20\n      mstore\n      0x40\n      swap1\n      keccak256\n      sload\n      0xff\n      and\n        /* \"EAGLEAI/EagleAI.sol\":50921:50937  !blacklisted[to] */\n      iszero\n        /* \"EAGLEAI/EagleAI.sol\":50913:50966  require(!blacklisted[to], \"Recipient is blacklisted\") */\n      tag_532\n      jumpi\n      mload(0x40)\n      shl(0xe5, 0x461bcd)\n      dup2\n      mstore\n        /* \"#utility.yul\":16110:16112   */\n      0x20\n        /* \"EAGLEAI/EagleAI.sol\":50913:50966  require(!blacklisted[to], \"Recipient is blacklisted\") */\n      0x04\n      dup3\n      add\n        /* \"#utility.yul\":16092:16113   */\n      mstore\n        /* \"#utility.yul\":16149:16151   */\n      0x18\n        /* \"#utility.yul\":16129:16147   */\n      0x24\n      dup3\n      add\n        /* \"#utility.yul\":16122:16152   */\n      mstore\n        /* \"#utility.yul\":16188:16214   */\n      0x526563697069656e7420697320626c61636b6c69737465640000000000000000\n        /* \"#utility.yul\":16168:16186   */\n      0x44\n      dup3\n      add\n        /* \"#utility.yul\":16161:16215   */\n      mstore\n        /* \"#utility.yul\":16232:16250   */\n      0x64\n      add\n        /* \"EAGLEAI/EagleAI.sol\":50913:50966  require(!blacklisted[to], \"Recipient is blacklisted\") */\n      tag_291\n        /* \"#utility.yul\":15908:16256   */\n      jump\n        /* \"EAGLEAI/EagleAI.sol\":50913:50966  require(!blacklisted[to], \"Recipient is blacklisted\") */\n    tag_532:\n        /* \"EAGLEAI/EagleAI.sol\":6018:6025  address */\n      0x00\n        /* \"EAGLEAI/EagleAI.sol\":6045:6051  _owner */\n      sload\n      sub(shl(0xa0, 0x01), 0x01)\n        /* \"EAGLEAI/EagleAI.sol\":50983:50998  from == owner() */\n      dup5\n      dup2\n      and\n        /* \"EAGLEAI/EagleAI.sol\":6045:6051  _owner */\n      swap2\n      and\n        /* \"EAGLEAI/EagleAI.sol\":50983:50998  from == owner() */\n      eq\n      dup1\n        /* \"EAGLEAI/EagleAI.sol\":50983:51015  from == owner() || to == owner() */\n      tag_536\n      jumpi\n      pop\n        /* \"EAGLEAI/EagleAI.sol\":6018:6025  address */\n      0x00\n        /* \"EAGLEAI/EagleAI.sol\":6045:6051  _owner */\n      sload\n      sub(shl(0xa0, 0x01), 0x01)\n        /* \"EAGLEAI/EagleAI.sol\":51002:51015  to == owner() */\n      dup4\n      dup2\n      and\n        /* \"EAGLEAI/EagleAI.sol\":6045:6051  _owner */\n      swap2\n      and\n        /* \"EAGLEAI/EagleAI.sol\":51002:51015  to == owner() */\n      eq\n        /* \"EAGLEAI/EagleAI.sol\":50983:51015  from == owner() || to == owner() */\n    tag_536:\n        /* \"EAGLEAI/EagleAI.sol\":50979:51100  if (from == owner() || to == owner()){... */\n      iszero\n      tag_538\n      jumpi\n        /* \"EAGLEAI/EagleAI.sol\":51031:51067  _tokenTransfer(from,to,amount,false) */\n      tag_539\n        /* \"EAGLEAI/EagleAI.sol\":51046:51050  from */\n      dup4\n        /* \"EAGLEAI/EagleAI.sol\":51051:51053  to */\n      dup4\n        /* \"EAGLEAI/EagleAI.sol\":51054:51060  amount */\n      dup4\n        /* \"EAGLEAI/EagleAI.sol\":51061:51066  false */\n      0x00\n        /* \"EAGLEAI/EagleAI.sol\":51031:51045  _tokenTransfer */\n      tag_414\n        /* \"EAGLEAI/EagleAI.sol\":51031:51067  _tokenTransfer(from,to,amount,false) */\n      jump\t// in\n    tag_539:\n        /* \"EAGLEAI/EagleAI.sol\":50539:52151  function _transfer( address from, address to, uint256 amount ) private {... */\n      pop\n      pop\n      pop\n      jump\t// out\n        /* \"EAGLEAI/EagleAI.sol\":50979:51100  if (from == owner() || to == owner()){... */\n    tag_538:\n        /* \"EAGLEAI/EagleAI.sol\":51120:51132  tradeEnabled */\n      sload(0x0c)\n      0x010000\n      swap1\n      div\n      0xff\n      and\n        /* \"EAGLEAI/EagleAI.sol\":51112:51159  require(tradeEnabled,\"Trading not started yet\") */\n      tag_540\n      jumpi\n      mload(0x40)\n      shl(0xe5, 0x461bcd)\n      dup2\n      mstore\n        /* \"#utility.yul\":16463:16465   */\n      0x20\n        /* \"EAGLEAI/EagleAI.sol\":51112:51159  require(tradeEnabled,\"Trading not started yet\") */\n      0x04\n      dup3\n      add\n        /* \"#utility.yul\":16445:16466   */\n      mstore\n        /* \"#utility.yul\":16502:16504   */\n      0x17\n        /* \"#utility.yul\":16482:16500   */\n      0x24\n      dup3\n      add\n        /* \"#utility.yul\":16475:16505   */\n      mstore\n        /* \"#utility.yul\":16541:16566   */\n      0x54726164696e67206e6f74207374617274656420796574000000000000000000\n        /* \"#utility.yul\":16521:16539   */\n      0x44\n      dup3\n      add\n        /* \"#utility.yul\":16514:16567   */\n      mstore\n        /* \"#utility.yul\":16584:16602   */\n      0x64\n      add\n        /* \"EAGLEAI/EagleAI.sol\":51112:51159  require(tradeEnabled,\"Trading not started yet\") */\n      tag_291\n        /* \"#utility.yul\":16261:16608   */\n      jump\n        /* \"EAGLEAI/EagleAI.sol\":51112:51159  require(tradeEnabled,\"Trading not started yet\") */\n    tag_540:\n        /* \"EAGLEAI/EagleAI.sol\":51182:51210  uint256 contractTokenBalance */\n      0x00\n        /* \"EAGLEAI/EagleAI.sol\":51213:51237  balanceOf(address(this)) */\n      tag_543\n        /* \"EAGLEAI/EagleAI.sol\":51231:51235  this */\n      address\n        /* \"EAGLEAI/EagleAI.sol\":51213:51222  balanceOf */\n      tag_179\n        /* \"EAGLEAI/EagleAI.sol\":51213:51237  balanceOf(address(this)) */\n      jump\t// in\n    tag_543:\n        /* \"EAGLEAI/EagleAI.sol\":51309:51338  numTokensSellToAddToLiquidity */\n      sload(0x0d)\n        /* \"EAGLEAI/EagleAI.sol\":51182:51237  uint256 contractTokenBalance = balanceOf(address(this)) */\n      swap1\n      swap2\n      pop\n        /* \"EAGLEAI/EagleAI.sol\":51285:51338  contractTokenBalance >= numTokensSellToAddToLiquidity */\n      dup2\n      lt\n      dup1\n      iszero\n      swap1\n      dup2\n      swap1\n        /* \"EAGLEAI/EagleAI.sol\":51367:51420  overMinTokenBalance &&... */\n      tag_544\n      jumpi\n      pop\n        /* \"EAGLEAI/EagleAI.sol\":51404:51420  inSwapAndLiquify */\n      and(0xff, sload(0x0c))\n        /* \"EAGLEAI/EagleAI.sol\":51403:51420  !inSwapAndLiquify */\n      iszero\n        /* \"EAGLEAI/EagleAI.sol\":51367:51420  overMinTokenBalance &&... */\n    tag_544:\n        /* \"EAGLEAI/EagleAI.sol\":51367:51458  overMinTokenBalance &&... */\n      dup1\n      iszero\n      tag_545\n      jumpi\n      pop\n        /* \"EAGLEAI/EagleAI.sol\":51445:51458  uniswapV2Pair */\n      immutable(\"0x5d067998675a77797d9e4eec202a19ba43752dfad25ff4a095c1eece7914d0a3\")\n      sub(shl(0xa0, 0x01), 0x01)\n        /* \"EAGLEAI/EagleAI.sol\":51437:51458  from != uniswapV2Pair */\n      and\n        /* \"EAGLEAI/EagleAI.sol\":51437:51441  from */\n      dup6\n      sub(shl(0xa0, 0x01), 0x01)\n        /* \"EAGLEAI/EagleAI.sol\":51437:51458  from != uniswapV2Pair */\n      and\n      eq\n      iszero\n        /* \"EAGLEAI/EagleAI.sol\":51367:51458  overMinTokenBalance &&... */\n    tag_545:\n        /* \"EAGLEAI/EagleAI.sol\":51367:51496  overMinTokenBalance &&... */\n      dup1\n      iszero\n      tag_546\n      jumpi\n      pop\n        /* \"EAGLEAI/EagleAI.sol\":51475:51496  swapAndLiquifyEnabled */\n      sload(0x0c)\n      0x0100\n      swap1\n      div\n      0xff\n      and\n        /* \"EAGLEAI/EagleAI.sol\":51367:51496  overMinTokenBalance &&... */\n    tag_546:\n        /* \"EAGLEAI/EagleAI.sol\":51349:51667  if (... */\n      iszero\n      tag_548\n      jumpi\n        /* \"EAGLEAI/EagleAI.sol\":51546:51575  numTokensSellToAddToLiquidity */\n      sload(0x0d)\n        /* \"EAGLEAI/EagleAI.sol\":51523:51575  contractTokenBalance = numTokensSellToAddToLiquidity */\n      swap2\n      pop\n        /* \"EAGLEAI/EagleAI.sol\":51619:51655  swapAndLiquify(contractTokenBalance) */\n      tag_548\n        /* \"EAGLEAI/EagleAI.sol\":51634:51654  contractTokenBalance */\n      dup3\n        /* \"EAGLEAI/EagleAI.sol\":51619:51633  swapAndLiquify */\n      tag_549\n        /* \"EAGLEAI/EagleAI.sol\":51619:51655  swapAndLiquify(contractTokenBalance) */\n      jump\t// in\n    tag_548:\n      sub(shl(0xa0, 0x01), 0x01)\n        /* \"EAGLEAI/EagleAI.sol\":51875:51899  _isExcludedFromFee[from] */\n      dup6\n      and\n        /* \"EAGLEAI/EagleAI.sol\":51748:51760  bool takeFee */\n      0x00\n        /* \"EAGLEAI/EagleAI.sol\":51875:51899  _isExcludedFromFee[from] */\n      swap1\n      dup2\n      mstore\n        /* \"EAGLEAI/EagleAI.sol\":51875:51893  _isExcludedFromFee */\n      0x06\n        /* \"EAGLEAI/EagleAI.sol\":51875:51899  _isExcludedFromFee[from] */\n      0x20\n      mstore\n      0x40\n      swap1\n      keccak256\n      sload\n        /* \"EAGLEAI/EagleAI.sol\":51763:51767  true */\n      0x01\n      swap1\n        /* \"EAGLEAI/EagleAI.sol\":51875:51899  _isExcludedFromFee[from] */\n      0xff\n      and\n      dup1\n        /* \"EAGLEAI/EagleAI.sol\":51875:51925  _isExcludedFromFee[from] || _isExcludedFromFee[to] */\n      tag_550\n      jumpi\n      pop\n      sub(shl(0xa0, 0x01), 0x01)\n        /* \"EAGLEAI/EagleAI.sol\":51903:51925  _isExcludedFromFee[to] */\n      dup6\n      and\n      0x00\n      swap1\n      dup2\n      mstore\n        /* \"EAGLEAI/EagleAI.sol\":51903:51921  _isExcludedFromFee */\n      0x06\n        /* \"EAGLEAI/EagleAI.sol\":51903:51925  _isExcludedFromFee[to] */\n      0x20\n      mstore\n      0x40\n      swap1\n      keccak256\n      sload\n      0xff\n      and\n        /* \"EAGLEAI/EagleAI.sol\":51875:51925  _isExcludedFromFee[from] || _isExcludedFromFee[to] */\n    tag_550:\n        /* \"EAGLEAI/EagleAI.sol\":51872:51968  if(_isExcludedFromFee[from] || _isExcludedFromFee[to]){... */\n      iszero\n      tag_551\n      jumpi\n      pop\n        /* \"EAGLEAI/EagleAI.sol\":51951:51956  false */\n      0x00\n        /* \"EAGLEAI/EagleAI.sol\":51872:51968  if(_isExcludedFromFee[from] || _isExcludedFromFee[to]){... */\n    tag_551:\n        /* \"EAGLEAI/EagleAI.sol\":52057:52064  takeFee */\n      dup1\n        /* \"EAGLEAI/EagleAI.sol\":52054:52095  if(takeFee)... */\n      iszero\n      tag_553\n      jumpi\n        /* \"EAGLEAI/EagleAI.sol\":52075:52095  _sellBuyTax(from,to) */\n      tag_553\n        /* \"EAGLEAI/EagleAI.sol\":52087:52091  from */\n      dup7\n        /* \"EAGLEAI/EagleAI.sol\":52092:52094  to */\n      dup7\n        /* \"EAGLEAI/EagleAI.sol\":52075:52086  _sellBuyTax */\n      tag_554\n        /* \"EAGLEAI/EagleAI.sol\":52075:52095  _sellBuyTax(from,to) */\n      jump\t// in\n    tag_553:\n        /* \"EAGLEAI/EagleAI.sol\":52105:52143  _tokenTransfer(from,to,amount,takeFee) */\n      tag_406\n        /* \"EAGLEAI/EagleAI.sol\":52120:52124  from */\n      dup7\n        /* \"EAGLEAI/EagleAI.sol\":52125:52127  to */\n      dup7\n        /* \"EAGLEAI/EagleAI.sol\":52128:52134  amount */\n      dup7\n        /* \"EAGLEAI/EagleAI.sol\":52135:52142  takeFee */\n      dup5\n        /* \"EAGLEAI/EagleAI.sol\":52105:52119  _tokenTransfer */\n      tag_414\n        /* \"EAGLEAI/EagleAI.sol\":52105:52143  _tokenTransfer(from,to,amount,takeFee) */\n      jump\t// in\n        /* \"EAGLEAI/EagleAI.sol\":41121:41281  function _getRate() private view returns(uint256) {... */\n    tag_303:\n        /* \"EAGLEAI/EagleAI.sol\":41162:41169  uint256 */\n      0x00\n        /* \"EAGLEAI/EagleAI.sol\":41183:41198  uint256 rSupply */\n      dup1\n        /* \"EAGLEAI/EagleAI.sol\":41200:41215  uint256 tSupply */\n      0x00\n        /* \"EAGLEAI/EagleAI.sol\":41219:41238  _getCurrentSupply() */\n      tag_557\n        /* \"EAGLEAI/EagleAI.sol\":41219:41236  _getCurrentSupply */\n      tag_558\n        /* \"EAGLEAI/EagleAI.sol\":41219:41238  _getCurrentSupply() */\n      jump\t// in\n    tag_557:\n        /* \"EAGLEAI/EagleAI.sol\":41182:41238  (uint256 rSupply, uint256 tSupply) = _getCurrentSupply() */\n      swap1\n      swap3\n      pop\n      swap1\n      pop\n        /* \"EAGLEAI/EagleAI.sol\":41256:41273  rSupply / tSupply */\n      tag_559\n        /* \"EAGLEAI/EagleAI.sol\":41182:41238  (uint256 rSupply, uint256 tSupply) = _getCurrentSupply() */\n      dup2\n      dup4\n        /* \"EAGLEAI/EagleAI.sol\":41256:41273  rSupply / tSupply */\n      tag_305\n      jump\t// in\n    tag_559:\n        /* \"EAGLEAI/EagleAI.sol\":41249:41273  return rSupply / tSupply */\n      swap3\n      pop\n      pop\n      pop\n        /* \"EAGLEAI/EagleAI.sol\":41121:41281  function _getRate() private view returns(uint256) {... */\n      swap1\n      jump\t// out\n        /* \"EAGLEAI/EagleAI.sol\":37577:37933  function _getValue(uint256 tAmount) private view returns(uint256, uint256){... */\n    tag_346:\n        /* \"EAGLEAI/EagleAI.sol\":37634:37641  uint256 */\n      0x00\n        /* \"EAGLEAI/EagleAI.sol\":37643:37650  uint256 */\n      dup1\n        /* \"EAGLEAI/EagleAI.sol\":37665:37677  uint256 tFee */\n      0x00\n        /* \"EAGLEAI/EagleAI.sol\":37679:37697  uint256 tLiquidity */\n      dup1\n        /* \"EAGLEAI/EagleAI.sol\":37699:37721  uint256 tCoinOperation */\n      0x00\n        /* \"EAGLEAI/EagleAI.sol\":37723:37736  uint256 tBurn */\n      dup1\n        /* \"EAGLEAI/EagleAI.sol\":37740:37760  _getTValues(tAmount) */\n      tag_561\n        /* \"EAGLEAI/EagleAI.sol\":37752:37759  tAmount */\n      dup8\n        /* \"EAGLEAI/EagleAI.sol\":37740:37751  _getTValues */\n      tag_562\n        /* \"EAGLEAI/EagleAI.sol\":37740:37760  _getTValues(tAmount) */\n      jump\t// in\n    tag_561:\n        /* \"EAGLEAI/EagleAI.sol\":37662:37760  (, uint256 tFee, uint256 tLiquidity, uint256 tCoinOperation, uint256 tBurn) = _getTValues(tAmount) */\n      swap5\n      pop\n      swap5\n      pop\n      swap5\n      pop\n      swap5\n      pop\n      pop\n        /* \"EAGLEAI/EagleAI.sol\":37772:37787  uint256 rAmount */\n      0x00\n        /* \"EAGLEAI/EagleAI.sol\":37789:37812  uint256 rTransferAmount */\n      dup1\n        /* \"EAGLEAI/EagleAI.sol\":37817:37878  _getRValues(tAmount, tFee, tLiquidity, tCoinOperation, tBurn) */\n      tag_563\n        /* \"EAGLEAI/EagleAI.sol\":37829:37836  tAmount */\n      dup10\n        /* \"EAGLEAI/EagleAI.sol\":37838:37842  tFee */\n      dup8\n        /* \"EAGLEAI/EagleAI.sol\":37844:37854  tLiquidity */\n      dup8\n        /* \"EAGLEAI/EagleAI.sol\":37856:37870  tCoinOperation */\n      dup8\n        /* \"EAGLEAI/EagleAI.sol\":37872:37877  tBurn */\n      dup8\n        /* \"EAGLEAI/EagleAI.sol\":37817:37828  _getRValues */\n      tag_564\n        /* \"EAGLEAI/EagleAI.sol\":37817:37878  _getRValues(tAmount, tFee, tLiquidity, tCoinOperation, tBurn) */\n      jump\t// in\n    tag_563:\n      pop\n        /* \"EAGLEAI/EagleAI.sol\":37771:37878  (uint256 rAmount, uint256 rTransferAmount,) = _getRValues(tAmount, tFee, tLiquidity, tCoinOperation, tBurn) */\n      swap1\n      swap11\n      swap1\n      swap10\n      pop\n        /* \"EAGLEAI/EagleAI.sol\":37577:37933  function _getValue(uint256 tAmount) private view returns(uint256, uint256){... */\n      swap8\n      pop\n      pop\n      pop\n      pop\n      pop\n      pop\n      pop\n      pop\n      jump\t// out\n        /* \"EAGLEAI/EagleAI.sol\":58820:59612  function _tokenTransfer(address sender, address recipient, uint256 amount,bool takeFee) private {... */\n    tag_414:\n        /* \"EAGLEAI/EagleAI.sol\":58931:58938  takeFee */\n      dup1\n        /* \"EAGLEAI/EagleAI.sol\":58927:58967  if(!takeFee)... */\n      tag_567\n      jumpi\n        /* \"EAGLEAI/EagleAI.sol\":58953:58967  removeAllFee() */\n      tag_567\n        /* \"EAGLEAI/EagleAI.sol\":44723:44724  0 */\n      0x00\n        /* \"EAGLEAI/EagleAI.sol\":44712:44718  refAmt */\n      0x0e\n        /* \"EAGLEAI/EagleAI.sol\":44712:44724  refAmt =   0 */\n      dup2\n      swap1\n      sstore\n        /* \"EAGLEAI/EagleAI.sol\":44739:44752  coinOperation */\n      0x0f\n        /* \"EAGLEAI/EagleAI.sol\":44739:44756  coinOperation = 0 */\n      dup2\n      swap1\n      sstore\n        /* \"EAGLEAI/EagleAI.sol\":44771:44779  liquidty */\n      0x10\n        /* \"EAGLEAI/EagleAI.sol\":44771:44783  liquidty = 0 */\n      dup2\n      swap1\n      sstore\n        /* \"EAGLEAI/EagleAI.sol\":44798:44802  burn */\n      0x11\n        /* \"EAGLEAI/EagleAI.sol\":44798:44806  burn = 0 */\n      sstore\n        /* \"EAGLEAI/EagleAI.sol\":44668:44816  function removeAllFee() private {... */\n      jump\n        /* \"EAGLEAI/EagleAI.sol\":58953:58967  removeAllFee() */\n    tag_567:\n      sub(shl(0xa0, 0x01), 0x01)\n        /* \"EAGLEAI/EagleAI.sol\":58994:59013  _isExcluded[sender] */\n      dup5\n      and\n      0x00\n      swap1\n      dup2\n      mstore\n        /* \"EAGLEAI/EagleAI.sol\":58994:59005  _isExcluded */\n      0x07\n        /* \"EAGLEAI/EagleAI.sol\":58994:59013  _isExcluded[sender] */\n      0x20\n      mstore\n      0x40\n      swap1\n      keccak256\n      sload\n      0xff\n      and\n        /* \"EAGLEAI/EagleAI.sol\":58994:59040  _isExcluded[sender] && !_isExcluded[recipient] */\n      dup1\n      iszero\n      tag_569\n      jumpi\n      pop\n      sub(shl(0xa0, 0x01), 0x01)\n        /* \"EAGLEAI/EagleAI.sol\":59018:59040  _isExcluded[recipient] */\n      dup4\n      and\n      0x00\n      swap1\n      dup2\n      mstore\n        /* \"EAGLEAI/EagleAI.sol\":59018:59029  _isExcluded */\n      0x07\n        /* \"EAGLEAI/EagleAI.sol\":59018:59040  _isExcluded[recipient] */\n      0x20\n      mstore\n      0x40\n      swap1\n      keccak256\n      sload\n      0xff\n      and\n        /* \"EAGLEAI/EagleAI.sol\":59017:59040  !_isExcluded[recipient] */\n      iszero\n        /* \"EAGLEAI/EagleAI.sol\":58994:59040  _isExcluded[sender] && !_isExcluded[recipient] */\n    tag_569:\n        /* \"EAGLEAI/EagleAI.sol\":58990:59587  if (_isExcluded[sender] && !_isExcluded[recipient]) {... */\n      iszero\n      tag_570\n      jumpi\n        /* \"EAGLEAI/EagleAI.sol\":59057:59105  _transferFromExcluded(sender, recipient, amount) */\n      tag_571\n        /* \"EAGLEAI/EagleAI.sol\":59079:59085  sender */\n      dup5\n        /* \"EAGLEAI/EagleAI.sol\":59087:59096  recipient */\n      dup5\n        /* \"EAGLEAI/EagleAI.sol\":59098:59104  amount */\n      dup5\n        /* \"EAGLEAI/EagleAI.sol\":59057:59078  _transferFromExcluded */\n      tag_572\n        /* \"EAGLEAI/EagleAI.sol\":59057:59105  _transferFromExcluded(sender, recipient, amount) */\n      jump\t// in\n    tag_571:\n        /* \"EAGLEAI/EagleAI.sol\":58990:59587  if (_isExcluded[sender] && !_isExcluded[recipient]) {... */\n      jump(tag_589)\n    tag_570:\n      sub(shl(0xa0, 0x01), 0x01)\n        /* \"EAGLEAI/EagleAI.sol\":59128:59147  _isExcluded[sender] */\n      dup5\n      and\n      0x00\n      swap1\n      dup2\n      mstore\n        /* \"EAGLEAI/EagleAI.sol\":59128:59139  _isExcluded */\n      0x07\n        /* \"EAGLEAI/EagleAI.sol\":59128:59147  _isExcluded[sender] */\n      0x20\n      mstore\n      0x40\n      swap1\n      keccak256\n      sload\n      0xff\n      and\n        /* \"EAGLEAI/EagleAI.sol\":59127:59147  !_isExcluded[sender] */\n      iszero\n        /* \"EAGLEAI/EagleAI.sol\":59127:59173  !_isExcluded[sender] && _isExcluded[recipient] */\n      dup1\n      iszero\n      tag_574\n      jumpi\n      pop\n      sub(shl(0xa0, 0x01), 0x01)\n        /* \"EAGLEAI/EagleAI.sol\":59151:59173  _isExcluded[recipient] */\n      dup4\n      and\n      0x00\n      swap1\n      dup2\n      mstore\n        /* \"EAGLEAI/EagleAI.sol\":59151:59162  _isExcluded */\n      0x07\n        /* \"EAGLEAI/EagleAI.sol\":59151:59173  _isExcluded[recipient] */\n      0x20\n      mstore\n      0x40\n      swap1\n      keccak256\n      sload\n      0xff\n      and\n        /* \"EAGLEAI/EagleAI.sol\":59127:59173  !_isExcluded[sender] && _isExcluded[recipient] */\n    tag_574:\n        /* \"EAGLEAI/EagleAI.sol\":59123:59587  if (!_isExcluded[sender] && _isExcluded[recipient]) {... */\n      iszero\n      tag_575\n      jumpi\n        /* \"EAGLEAI/EagleAI.sol\":59190:59236  _transferToExcluded(sender, recipient, amount) */\n      tag_571\n        /* \"EAGLEAI/EagleAI.sol\":59210:59216  sender */\n      dup5\n        /* \"EAGLEAI/EagleAI.sol\":59218:59227  recipient */\n      dup5\n        /* \"EAGLEAI/EagleAI.sol\":59229:59235  amount */\n      dup5\n        /* \"EAGLEAI/EagleAI.sol\":59190:59209  _transferToExcluded */\n      tag_577\n        /* \"EAGLEAI/EagleAI.sol\":59190:59236  _transferToExcluded(sender, recipient, amount) */\n      jump\t// in\n        /* \"EAGLEAI/EagleAI.sol\":59123:59587  if (!_isExcluded[sender] && _isExcluded[recipient]) {... */\n    tag_575:\n      sub(shl(0xa0, 0x01), 0x01)\n        /* \"EAGLEAI/EagleAI.sol\":59259:59278  _isExcluded[sender] */\n      dup5\n      and\n      0x00\n      swap1\n      dup2\n      mstore\n        /* \"EAGLEAI/EagleAI.sol\":59259:59270  _isExcluded */\n      0x07\n        /* \"EAGLEAI/EagleAI.sol\":59259:59278  _isExcluded[sender] */\n      0x20\n      mstore\n      0x40\n      swap1\n      keccak256\n      sload\n      0xff\n      and\n        /* \"EAGLEAI/EagleAI.sol\":59258:59278  !_isExcluded[sender] */\n      iszero\n        /* \"EAGLEAI/EagleAI.sol\":59258:59305  !_isExcluded[sender] && !_isExcluded[recipient] */\n      dup1\n      iszero\n      tag_579\n      jumpi\n      pop\n      sub(shl(0xa0, 0x01), 0x01)\n        /* \"EAGLEAI/EagleAI.sol\":59283:59305  _isExcluded[recipient] */\n      dup4\n      and\n      0x00\n      swap1\n      dup2\n      mstore\n        /* \"EAGLEAI/EagleAI.sol\":59283:59294  _isExcluded */\n      0x07\n        /* \"EAGLEAI/EagleAI.sol\":59283:59305  _isExcluded[recipient] */\n      0x20\n      mstore\n      0x40\n      swap1\n      keccak256\n      sload\n      0xff\n      and\n        /* \"EAGLEAI/EagleAI.sol\":59282:59305  !_isExcluded[recipient] */\n      iszero\n        /* \"EAGLEAI/EagleAI.sol\":59258:59305  !_isExcluded[sender] && !_isExcluded[recipient] */\n    tag_579:\n        /* \"EAGLEAI/EagleAI.sol\":59254:59587  if (!_isExcluded[sender] && !_isExcluded[recipient]) {... */\n      iszero\n      tag_580\n      jumpi\n        /* \"EAGLEAI/EagleAI.sol\":59322:59366  _transferStandard(sender, recipient, amount) */\n      tag_571\n        /* \"EAGLEAI/EagleAI.sol\":59340:59346  sender */\n      dup5\n        /* \"EAGLEAI/EagleAI.sol\":59348:59357  recipient */\n      dup5\n        /* \"EAGLEAI/EagleAI.sol\":59359:59365  amount */\n      dup5\n        /* \"EAGLEAI/EagleAI.sol\":59322:59339  _transferStandard */\n      tag_582\n        /* \"EAGLEAI/EagleAI.sol\":59322:59366  _transferStandard(sender, recipient, amount) */\n      jump\t// in\n        /* \"EAGLEAI/EagleAI.sol\":59254:59587  if (!_isExcluded[sender] && !_isExcluded[recipient]) {... */\n    tag_580:\n      sub(shl(0xa0, 0x01), 0x01)\n        /* \"EAGLEAI/EagleAI.sol\":59388:59407  _isExcluded[sender] */\n      dup5\n      and\n      0x00\n      swap1\n      dup2\n      mstore\n        /* \"EAGLEAI/EagleAI.sol\":59388:59399  _isExcluded */\n      0x07\n        /* \"EAGLEAI/EagleAI.sol\":59388:59407  _isExcluded[sender] */\n      0x20\n      mstore\n      0x40\n      swap1\n      keccak256\n      sload\n      0xff\n      and\n        /* \"EAGLEAI/EagleAI.sol\":59388:59433  _isExcluded[sender] && _isExcluded[recipient] */\n      dup1\n      iszero\n      tag_584\n      jumpi\n      pop\n      sub(shl(0xa0, 0x01), 0x01)\n        /* \"EAGLEAI/EagleAI.sol\":59411:59433  _isExcluded[recipient] */\n      dup4\n      and\n      0x00\n      swap1\n      dup2\n      mstore\n        /* \"EAGLEAI/EagleAI.sol\":59411:59422  _isExcluded */\n      0x07\n        /* \"EAGLEAI/EagleAI.sol\":59411:59433  _isExcluded[recipient] */\n      0x20\n      mstore\n      0x40\n      swap1\n      keccak256\n      sload\n      0xff\n      and\n        /* \"EAGLEAI/EagleAI.sol\":59388:59433  _isExcluded[sender] && _isExcluded[recipient] */\n    tag_584:\n        /* \"EAGLEAI/EagleAI.sol\":59384:59587  if (_isExcluded[sender] && _isExcluded[recipient]) {... */\n      iszero\n      tag_585\n      jumpi\n        /* \"EAGLEAI/EagleAI.sol\":59450:59498  _transferBothExcluded(sender, recipient, amount) */\n      tag_571\n        /* \"EAGLEAI/EagleAI.sol\":59472:59478  sender */\n      dup5\n        /* \"EAGLEAI/EagleAI.sol\":59480:59489  recipient */\n      dup5\n        /* \"EAGLEAI/EagleAI.sol\":59491:59497  amount */\n      dup5\n        /* \"EAGLEAI/EagleAI.sol\":59450:59471  _transferBothExcluded */\n      tag_587\n        /* \"EAGLEAI/EagleAI.sol\":59450:59498  _transferBothExcluded(sender, recipient, amount) */\n      jump\t// in\n        /* \"EAGLEAI/EagleAI.sol\":59384:59587  if (_isExcluded[sender] && _isExcluded[recipient]) {... */\n    tag_585:\n        /* \"EAGLEAI/EagleAI.sol\":59531:59575  _transferStandard(sender, recipient, amount) */\n      tag_589\n        /* \"EAGLEAI/EagleAI.sol\":59549:59555  sender */\n      dup5\n        /* \"EAGLEAI/EagleAI.sol\":59557:59566  recipient */\n      dup5\n        /* \"EAGLEAI/EagleAI.sol\":59568:59574  amount */\n      dup5\n        /* \"EAGLEAI/EagleAI.sol\":59531:59548  _transferStandard */\n      tag_582\n        /* \"EAGLEAI/EagleAI.sol\":59531:59575  _transferStandard(sender, recipient, amount) */\n      jump\t// in\n    tag_589:\n        /* \"EAGLEAI/EagleAI.sol\":58820:59612  function _tokenTransfer(address sender, address recipient, uint256 amount,bool takeFee) private {... */\n      pop\n      pop\n      pop\n      pop\n      jump\t// out\n        /* \"EAGLEAI/EagleAI.sol\":54862:55833  function swapAndLiquify(uint256 contractTokenBalance) private lockTheSwap {... */\n    tag_549:\n        /* \"EAGLEAI/EagleAI.sol\":15491:15507  inSwapAndLiquify */\n      0x0c\n        /* \"EAGLEAI/EagleAI.sol\":15491:15514  inSwapAndLiquify = true */\n      dup1\n      sload\n      not(0xff)\n      and\n        /* \"EAGLEAI/EagleAI.sol\":15510:15514  true */\n      0x01\n        /* \"EAGLEAI/EagleAI.sol\":15491:15514  inSwapAndLiquify = true */\n      or\n      swap1\n      sstore\n        /* \"EAGLEAI/EagleAI.sol\":15491:15507  inSwapAndLiquify */\n      0x00\n        /* \"EAGLEAI/EagleAI.sol\":55013:55037  contractTokenBalance / 2 */\n      tag_592\n        /* \"EAGLEAI/EagleAI.sol\":55036:55037  2 */\n      0x02\n        /* \"EAGLEAI/EagleAI.sol\":55013:55033  contractTokenBalance */\n      dup4\n        /* \"EAGLEAI/EagleAI.sol\":55013:55037  contractTokenBalance / 2 */\n      tag_305\n      jump\t// in\n    tag_592:\n        /* \"EAGLEAI/EagleAI.sol\":54998:55037  uint256 half = contractTokenBalance / 2 */\n      swap1\n      pop\n        /* \"EAGLEAI/EagleAI.sol\":55048:55065  uint256 otherHalf */\n      0x00\n        /* \"EAGLEAI/EagleAI.sol\":55068:55095  contractTokenBalance - half */\n      tag_593\n        /* \"EAGLEAI/EagleAI.sol\":54998:55037  uint256 half = contractTokenBalance / 2 */\n      dup3\n        /* \"EAGLEAI/EagleAI.sol\":55068:55088  contractTokenBalance */\n      dup5\n        /* \"EAGLEAI/EagleAI.sol\":55068:55095  contractTokenBalance - half */\n      tag_287\n      jump\t// in\n    tag_593:\n        /* \"EAGLEAI/EagleAI.sol\":55048:55095  uint256 otherHalf = contractTokenBalance - half */\n      swap1\n      pop\n        /* \"EAGLEAI/EagleAI.sol\":55398:55419  address(this).balance */\n      selfbalance\n        /* \"EAGLEAI/EagleAI.sol\":55464:55486  swapTokensForEth(half) */\n      tag_594\n        /* \"EAGLEAI/EagleAI.sol\":55481:55485  half */\n      dup4\n        /* \"EAGLEAI/EagleAI.sol\":55464:55480  swapTokensForEth */\n      tag_595\n        /* \"EAGLEAI/EagleAI.sol\":55464:55486  swapTokensForEth(half) */\n      jump\t// in\n    tag_594:\n        /* \"EAGLEAI/EagleAI.sol\":55612:55630  uint256 newBalance */\n      0x00\n        /* \"EAGLEAI/EagleAI.sol\":55633:55671  address(this).balance - initialBalance */\n      tag_596\n        /* \"EAGLEAI/EagleAI.sol\":55657:55671  initialBalance */\n      dup3\n        /* \"EAGLEAI/EagleAI.sol\":55633:55654  address(this).balance */\n      selfbalance\n        /* \"EAGLEAI/EagleAI.sol\":55633:55671  address(this).balance - initialBalance */\n      tag_287\n      jump\t// in\n    tag_596:\n        /* \"EAGLEAI/EagleAI.sol\":55612:55671  uint256 newBalance = address(this).balance - initialBalance */\n      swap1\n      pop\n        /* \"EAGLEAI/EagleAI.sol\":55721:55756  addLiquidity(otherHalf, newBalance) */\n      tag_597\n        /* \"EAGLEAI/EagleAI.sol\":55734:55743  otherHalf */\n      dup4\n        /* \"EAGLEAI/EagleAI.sol\":55745:55755  newBalance */\n      dup3\n        /* \"EAGLEAI/EagleAI.sol\":55721:55733  addLiquidity */\n      tag_598\n        /* \"EAGLEAI/EagleAI.sol\":55721:55756  addLiquidity(otherHalf, newBalance) */\n      jump\t// in\n    tag_597:\n        /* \"EAGLEAI/EagleAI.sol\":55782:55825  SwapAndLiquify(half, newBalance, otherHalf) */\n      0x40\n      dup1\n      mload\n        /* \"#utility.yul\":16815:16840   */\n      dup6\n      dup2\n      mstore\n        /* \"#utility.yul\":16871:16873   */\n      0x20\n        /* \"#utility.yul\":16856:16874   */\n      dup2\n      add\n        /* \"#utility.yul\":16849:16883   */\n      dup4\n      swap1\n      mstore\n        /* \"#utility.yul\":16899:16917   */\n      swap1\n      dup2\n      add\n        /* \"#utility.yul\":16892:16926   */\n      dup5\n      swap1\n      mstore\n        /* \"EAGLEAI/EagleAI.sol\":55782:55825  SwapAndLiquify(half, newBalance, otherHalf) */\n      0x17bbfb9a6069321b6ded73bd96327c9e6b7212a5cd51ff219cd61370acafb561\n      swap1\n        /* \"#utility.yul\":16803:16805   */\n      0x60\n        /* \"#utility.yul\":16788:16806   */\n      add\n        /* \"EAGLEAI/EagleAI.sol\":55782:55825  SwapAndLiquify(half, newBalance, otherHalf) */\n      mload(0x40)\n      dup1\n      swap2\n      sub\n      swap1\n      log1\n      pop\n      pop\n        /* \"EAGLEAI/EagleAI.sol\":15537:15553  inSwapAndLiquify */\n      0x0c\n        /* \"EAGLEAI/EagleAI.sol\":15537:15561  inSwapAndLiquify = false */\n      dup1\n      sload\n      not(0xff)\n      and\n      swap1\n      sstore\n      pop\n      pop\n      pop\n        /* \"EAGLEAI/EagleAI.sol\":54862:55833  function swapAndLiquify(uint256 contractTokenBalance) private lockTheSwap {... */\n      jump\t// out\n        /* \"EAGLEAI/EagleAI.sol\":53520:54271  function _sellBuyTax(address from, address to) private {... */\n    tag_554:\n      sub(shl(0xa0, 0x01), 0x01)\n        /* \"EAGLEAI/EagleAI.sol\":53632:53653  from == uniswapV2Pair */\n      dup3\n      dup2\n      and\n        /* \"EAGLEAI/EagleAI.sol\":53640:53653  uniswapV2Pair */\n      immutable(\"0x5d067998675a77797d9e4eec202a19ba43752dfad25ff4a095c1eece7914d0a3\")\n        /* \"EAGLEAI/EagleAI.sol\":53632:53653  from == uniswapV2Pair */\n      dup3\n      and\n      swap1\n      dup2\n      eq\n      swap2\n        /* \"EAGLEAI/EagleAI.sol\":53678:53697  to == uniswapV2Pair */\n      dup4\n      and\n      eq\n        /* \"EAGLEAI/EagleAI.sol\":53714:54264  if (isBuy) {    ... */\n      dup2\n      iszero\n      tag_602\n      jumpi\n        /* \"EAGLEAI/EagleAI.sol\":53755:53771  buyReflectionTax */\n      sload(0x12)\n        /* \"EAGLEAI/EagleAI.sol\":53744:53750  refAmt */\n      0x0e\n        /* \"EAGLEAI/EagleAI.sol\":53744:53771  refAmt =   buyReflectionTax */\n      sstore\n        /* \"EAGLEAI/EagleAI.sol\":53808:53827  buyCoinWalletTaxPer */\n      sload(0x13)\n        /* \"EAGLEAI/EagleAI.sol\":53792:53805  coinOperation */\n      0x0f\n        /* \"EAGLEAI/EagleAI.sol\":53792:53827  coinOperation = buyCoinWalletTaxPer */\n      sstore\n        /* \"EAGLEAI/EagleAI.sol\":53859:53877  buyLiquidityTaxPer */\n      sload(0x14)\n        /* \"EAGLEAI/EagleAI.sol\":53848:53856  liquidty */\n      0x10\n        /* \"EAGLEAI/EagleAI.sol\":53848:53877  liquidty = buyLiquidityTaxPer */\n      sstore\n        /* \"EAGLEAI/EagleAI.sol\":53905:53918  buyBurnTaxPer */\n      sload(0x15)\n        /* \"EAGLEAI/EagleAI.sol\":53898:53902  burn */\n      0x11\n        /* \"EAGLEAI/EagleAI.sol\":53898:53918  burn = buyBurnTaxPer */\n      sstore\n        /* \"EAGLEAI/EagleAI.sol\":53714:54264  if (isBuy) {    ... */\n      jump(tag_589)\n    tag_602:\n        /* \"EAGLEAI/EagleAI.sol\":53966:53972  isSell */\n      dup1\n        /* \"EAGLEAI/EagleAI.sol\":53962:54264  if (isSell) {... */\n      iszero\n      tag_604\n      jumpi\n        /* \"EAGLEAI/EagleAI.sol\":53998:54015  sellReflectionTax */\n      sload(0x16)\n        /* \"EAGLEAI/EagleAI.sol\":53989:53995  refAmt */\n      0x0e\n        /* \"EAGLEAI/EagleAI.sol\":53989:54015  refAmt = sellReflectionTax */\n      sstore\n        /* \"EAGLEAI/EagleAI.sol\":54051:54071  sellCoinWalletTaxPer */\n      sload(0x17)\n        /* \"EAGLEAI/EagleAI.sol\":54035:54048  coinOperation */\n      0x0f\n        /* \"EAGLEAI/EagleAI.sol\":54035:54071  coinOperation = sellCoinWalletTaxPer */\n      sstore\n        /* \"EAGLEAI/EagleAI.sol\":54102:54121  sellLiquidityTaxPer */\n      sload(0x18)\n        /* \"EAGLEAI/EagleAI.sol\":54091:54099  liquidty */\n      0x10\n        /* \"EAGLEAI/EagleAI.sol\":54091:54121  liquidty = sellLiquidityTaxPer */\n      sstore\n        /* \"EAGLEAI/EagleAI.sol\":54148:54162  sellBurnTaxPer */\n      sload(0x19)\n        /* \"EAGLEAI/EagleAI.sol\":54141:54145  burn */\n      0x11\n        /* \"EAGLEAI/EagleAI.sol\":54141:54162  burn = sellBurnTaxPer */\n      sstore\n        /* \"EAGLEAI/EagleAI.sol\":53962:54264  if (isSell) {... */\n      jump(tag_589)\n    tag_604:\n        /* \"EAGLEAI/EagleAI.sol\":54234:54248  removeAllFee() */\n      tag_589\n        /* \"EAGLEAI/EagleAI.sol\":44723:44724  0 */\n      0x00\n        /* \"EAGLEAI/EagleAI.sol\":44712:44718  refAmt */\n      0x0e\n        /* \"EAGLEAI/EagleAI.sol\":44712:44724  refAmt =   0 */\n      dup2\n      swap1\n      sstore\n        /* \"EAGLEAI/EagleAI.sol\":44739:44752  coinOperation */\n      0x0f\n        /* \"EAGLEAI/EagleAI.sol\":44739:44756  coinOperation = 0 */\n      dup2\n      swap1\n      sstore\n        /* \"EAGLEAI/EagleAI.sol\":44771:44779  liquidty */\n      0x10\n        /* \"EAGLEAI/EagleAI.sol\":44771:44783  liquidty = 0 */\n      dup2\n      swap1\n      sstore\n        /* \"EAGLEAI/EagleAI.sol\":44798:44802  burn */\n      0x11\n        /* \"EAGLEAI/EagleAI.sol\":44798:44806  burn = 0 */\n      sstore\n        /* \"EAGLEAI/EagleAI.sol\":44668:44816  function removeAllFee() private {... */\n      jump\n        /* \"EAGLEAI/EagleAI.sol\":41545:42097  function _getCurrentSupply() private view returns(uint256, uint256) {... */\n    tag_558:\n        /* \"EAGLEAI/EagleAI.sol\":41642:41649  _rTotal */\n      sload(0x0a)\n        /* \"EAGLEAI/EagleAI.sol\":41678:41685  _tTotal */\n      sload(0x09)\n        /* \"EAGLEAI/EagleAI.sol\":41595:41602  uint256 */\n      0x00\n      swap2\n      dup3\n      swap2\n      dup3\n        /* \"EAGLEAI/EagleAI.sol\":41702:41985  for (uint256 i = 0; i < _excluded.length; i++) {... */\n    tag_608:\n        /* \"EAGLEAI/EagleAI.sol\":41726:41735  _excluded */\n      0x08\n        /* \"EAGLEAI/EagleAI.sol\":41726:41742  _excluded.length */\n      sload\n        /* \"EAGLEAI/EagleAI.sol\":41722:41742  i < _excluded.length */\n      dup2\n      lt\n        /* \"EAGLEAI/EagleAI.sol\":41702:41985  for (uint256 i = 0; i < _excluded.length; i++) {... */\n      iszero\n      tag_609\n      jumpi\n        /* \"EAGLEAI/EagleAI.sol\":41792:41799  rSupply */\n      dup3\n        /* \"EAGLEAI/EagleAI.sol\":41768:41775  _rOwned */\n      0x02\n        /* \"EAGLEAI/EagleAI.sol\":41768:41789  _rOwned[_excluded[i]] */\n      0x00\n        /* \"EAGLEAI/EagleAI.sol\":41776:41785  _excluded */\n      0x08\n        /* \"EAGLEAI/EagleAI.sol\":41786:41787  i */\n      dup5\n        /* \"EAGLEAI/EagleAI.sol\":41776:41788  _excluded[i] */\n      dup2\n      sload\n      dup2\n      lt\n      tag_612\n      jumpi\n      tag_612\n      tag_320\n      jump\t// in\n    tag_612:\n      0x00\n      swap2\n      dup3\n      mstore\n      0x20\n      dup1\n      dup4\n      keccak256\n      swap1\n      swap2\n      add\n      sload\n      sub(shl(0xa0, 0x01), 0x01)\n      and\n        /* \"EAGLEAI/EagleAI.sol\":41768:41789  _rOwned[_excluded[i]] */\n      dup4\n      mstore\n      dup3\n      add\n      swap3\n      swap1\n      swap3\n      mstore\n      0x40\n      add\n      swap1\n      keccak256\n      sload\n        /* \"EAGLEAI/EagleAI.sol\":41768:41799  _rOwned[_excluded[i]] > rSupply */\n      gt\n      dup1\n        /* \"EAGLEAI/EagleAI.sol\":41768:41834  _rOwned[_excluded[i]] > rSupply || _tOwned[_excluded[i]] > tSupply */\n      tag_614\n      jumpi\n      pop\n        /* \"EAGLEAI/EagleAI.sol\":41827:41834  tSupply */\n      dup2\n        /* \"EAGLEAI/EagleAI.sol\":41803:41810  _tOwned */\n      0x03\n        /* \"EAGLEAI/EagleAI.sol\":41803:41824  _tOwned[_excluded[i]] */\n      0x00\n        /* \"EAGLEAI/EagleAI.sol\":41811:41820  _excluded */\n      0x08\n        /* \"EAGLEAI/EagleAI.sol\":41821:41822  i */\n      dup5\n        /* \"EAGLEAI/EagleAI.sol\":41811:41823  _excluded[i] */\n      dup2\n      sload\n      dup2\n      lt\n      tag_616\n      jumpi\n      tag_616\n      tag_320\n      jump\t// in\n    tag_616:\n      0x00\n      swap2\n      dup3\n      mstore\n      0x20\n      dup1\n      dup4\n      keccak256\n      swap1\n      swap2\n      add\n      sload\n      sub(shl(0xa0, 0x01), 0x01)\n      and\n        /* \"EAGLEAI/EagleAI.sol\":41803:41824  _tOwned[_excluded[i]] */\n      dup4\n      mstore\n      dup3\n      add\n      swap3\n      swap1\n      swap3\n      mstore\n      0x40\n      add\n      swap1\n      keccak256\n      sload\n        /* \"EAGLEAI/EagleAI.sol\":41803:41834  _tOwned[_excluded[i]] > tSupply */\n      gt\n        /* \"EAGLEAI/EagleAI.sol\":41768:41834  _rOwned[_excluded[i]] > rSupply || _tOwned[_excluded[i]] > tSupply */\n    tag_614:\n        /* \"EAGLEAI/EagleAI.sol\":41764:41861  if (_rOwned[_excluded[i]] > rSupply || _tOwned[_excluded[i]] > tSupply) return (_rTotal, _tTotal) */\n      iszero\n      tag_618\n      jumpi\n        /* \"EAGLEAI/EagleAI.sol\":41844:41851  _rTotal */\n      sload(0x0a)\n        /* \"EAGLEAI/EagleAI.sol\":41853:41860  _tTotal */\n      sload(0x09)\n        /* \"EAGLEAI/EagleAI.sol\":41836:41861  return (_rTotal, _tTotal) */\n      swap5\n      pop\n      swap5\n      pop\n      pop\n      pop\n      pop\n        /* \"EAGLEAI/EagleAI.sol\":41545:42097  function _getCurrentSupply() private view returns(uint256, uint256) {... */\n      swap1\n      swap2\n      jump\t// out\n        /* \"EAGLEAI/EagleAI.sol\":41764:41861  if (_rOwned[_excluded[i]] > rSupply || _tOwned[_excluded[i]] > tSupply) return (_rTotal, _tTotal) */\n    tag_618:\n        /* \"EAGLEAI/EagleAI.sol\":41896:41903  _rOwned */\n      0x02\n        /* \"EAGLEAI/EagleAI.sol\":41896:41917  _rOwned[_excluded[i]] */\n      0x00\n        /* \"EAGLEAI/EagleAI.sol\":41904:41913  _excluded */\n      0x08\n        /* \"EAGLEAI/EagleAI.sol\":41914:41915  i */\n      dup4\n        /* \"EAGLEAI/EagleAI.sol\":41904:41916  _excluded[i] */\n      dup2\n      sload\n      dup2\n      lt\n      tag_620\n      jumpi\n      tag_620\n      tag_320\n      jump\t// in\n    tag_620:\n      0x00\n      swap2\n      dup3\n      mstore\n      0x20\n      dup1\n      dup4\n      keccak256\n      swap1\n      swap2\n      add\n      sload\n      sub(shl(0xa0, 0x01), 0x01)\n      and\n        /* \"EAGLEAI/EagleAI.sol\":41896:41917  _rOwned[_excluded[i]] */\n      dup4\n      mstore\n      dup3\n      add\n      swap3\n      swap1\n      swap3\n      mstore\n      0x40\n      add\n      swap1\n      keccak256\n      sload\n        /* \"EAGLEAI/EagleAI.sol\":41886:41917  rSupply - _rOwned[_excluded[i]] */\n      tag_622\n      swap1\n        /* \"EAGLEAI/EagleAI.sol\":41886:41893  rSupply */\n      dup5\n        /* \"EAGLEAI/EagleAI.sol\":41886:41917  rSupply - _rOwned[_excluded[i]] */\n      tag_287\n      jump\t// in\n    tag_622:\n        /* \"EAGLEAI/EagleAI.sol\":41876:41917  rSupply = rSupply - _rOwned[_excluded[i]] */\n      swap3\n      pop\n        /* \"EAGLEAI/EagleAI.sol\":41952:41959  _tOwned */\n      0x03\n        /* \"EAGLEAI/EagleAI.sol\":41952:41973  _tOwned[_excluded[i]] */\n      0x00\n        /* \"EAGLEAI/EagleAI.sol\":41960:41969  _excluded */\n      0x08\n        /* \"EAGLEAI/EagleAI.sol\":41970:41971  i */\n      dup4\n        /* \"EAGLEAI/EagleAI.sol\":41960:41972  _excluded[i] */\n      dup2\n      sload\n      dup2\n      lt\n      tag_624\n      jumpi\n      tag_624\n      tag_320\n      jump\t// in\n    tag_624:\n      0x00\n      swap2\n      dup3\n      mstore\n      0x20\n      dup1\n      dup4\n      keccak256\n      swap1\n      swap2\n      add\n      sload\n      sub(shl(0xa0, 0x01), 0x01)\n      and\n        /* \"EAGLEAI/EagleAI.sol\":41952:41973  _tOwned[_excluded[i]] */\n      dup4\n      mstore\n      dup3\n      add\n      swap3\n      swap1\n      swap3\n      mstore\n      0x40\n      add\n      swap1\n      keccak256\n      sload\n        /* \"EAGLEAI/EagleAI.sol\":41942:41973  tSupply - _tOwned[_excluded[i]] */\n      tag_626\n      swap1\n        /* \"EAGLEAI/EagleAI.sol\":41942:41949  tSupply */\n      dup4\n        /* \"EAGLEAI/EagleAI.sol\":41942:41973  tSupply - _tOwned[_excluded[i]] */\n      tag_287\n      jump\t// in\n    tag_626:\n        /* \"EAGLEAI/EagleAI.sol\":41932:41973  tSupply = tSupply - _tOwned[_excluded[i]] */\n      swap2\n      pop\n        /* \"EAGLEAI/EagleAI.sol\":41744:41747  i++ */\n      0x01\n      add\n        /* \"EAGLEAI/EagleAI.sol\":41702:41985  for (uint256 i = 0; i < _excluded.length; i++) {... */\n      jump(tag_608)\n    tag_609:\n      pop\n        /* \"EAGLEAI/EagleAI.sol\":42019:42026  _tTotal */\n      sload(0x09)\n        /* \"EAGLEAI/EagleAI.sol\":42009:42016  _rTotal */\n      sload(0x0a)\n        /* \"EAGLEAI/EagleAI.sol\":42009:42026  _rTotal / _tTotal */\n      tag_627\n      swap2\n      swap1\n      tag_305\n      jump\t// in\n    tag_627:\n        /* \"EAGLEAI/EagleAI.sol\":41999:42006  rSupply */\n      dup3\n        /* \"EAGLEAI/EagleAI.sol\":41999:42026  rSupply < _rTotal / _tTotal */\n      lt\n        /* \"EAGLEAI/EagleAI.sol\":41995:42053  if (rSupply < _rTotal / _tTotal) return (_rTotal, _tTotal) */\n      iszero\n      tag_628\n      jumpi\n        /* \"EAGLEAI/EagleAI.sol\":42036:42043  _rTotal */\n      sload(0x0a)\n        /* \"EAGLEAI/EagleAI.sol\":42045:42052  _tTotal */\n      sload(0x09)\n        /* \"EAGLEAI/EagleAI.sol\":42028:42053  return (_rTotal, _tTotal) */\n      swap4\n      pop\n      swap4\n      pop\n      pop\n      pop\n        /* \"EAGLEAI/EagleAI.sol\":41545:42097  function _getCurrentSupply() private view returns(uint256, uint256) {... */\n      swap1\n      swap2\n      jump\t// out\n        /* \"EAGLEAI/EagleAI.sol\":41995:42053  if (rSupply < _rTotal / _tTotal) return (_rTotal, _tTotal) */\n    tag_628:\n        /* \"EAGLEAI/EagleAI.sol\":42072:42079  rSupply */\n      swap1\n      swap4\n        /* \"EAGLEAI/EagleAI.sol\":42081:42088  tSupply */\n      swap1\n      swap3\n      pop\n        /* \"EAGLEAI/EagleAI.sol\":41545:42097  function _getCurrentSupply() private view returns(uint256, uint256) {... */\n      swap1\n      pop\n      jump\t// out\n        /* \"EAGLEAI/EagleAI.sol\":38743:39290  function _getTValues(uint256 tAmount) private view returns (uint256, uint256, uint256, uint256, uint256) {... */\n    tag_562:\n        /* \"EAGLEAI/EagleAI.sol\":38803:38810  uint256 */\n      0x00\n        /* \"EAGLEAI/EagleAI.sol\":38812:38819  uint256 */\n      dup1\n        /* \"EAGLEAI/EagleAI.sol\":38821:38828  uint256 */\n      0x00\n        /* \"EAGLEAI/EagleAI.sol\":38830:38837  uint256 */\n      dup1\n        /* \"EAGLEAI/EagleAI.sol\":38839:38846  uint256 */\n      0x00\n        /* \"EAGLEAI/EagleAI.sol\":38859:38871  uint256 tFee */\n      dup1\n        /* \"EAGLEAI/EagleAI.sol\":38874:38898  calculateTaxFee(tAmount) */\n      tag_630\n        /* \"EAGLEAI/EagleAI.sol\":38890:38897  tAmount */\n      dup8\n        /* \"EAGLEAI/EagleAI.sol\":38874:38889  calculateTaxFee */\n      tag_631\n        /* \"EAGLEAI/EagleAI.sol\":38874:38898  calculateTaxFee(tAmount) */\n      jump\t// in\n    tag_630:\n        /* \"EAGLEAI/EagleAI.sol\":38859:38898  uint256 tFee = calculateTaxFee(tAmount) */\n      swap1\n      pop\n        /* \"EAGLEAI/EagleAI.sol\":38909:38927  uint256 tLiquidity */\n      0x00\n        /* \"EAGLEAI/EagleAI.sol\":38930:38960  calculateLiquidityFee(tAmount) */\n      tag_632\n        /* \"EAGLEAI/EagleAI.sol\":38952:38959  tAmount */\n      dup9\n        /* \"EAGLEAI/EagleAI.sol\":38930:38951  calculateLiquidityFee */\n      tag_633\n        /* \"EAGLEAI/EagleAI.sol\":38930:38960  calculateLiquidityFee(tAmount) */\n      jump\t// in\n    tag_632:\n        /* \"EAGLEAI/EagleAI.sol\":38909:38960  uint256 tLiquidity = calculateLiquidityFee(tAmount) */\n      swap1\n      pop\n        /* \"EAGLEAI/EagleAI.sol\":38971:38993  uint256 tCoinOperation */\n      0x00\n        /* \"EAGLEAI/EagleAI.sol\":38996:39031  calculateCoinOperartionTax(tAmount) */\n      tag_634\n        /* \"EAGLEAI/EagleAI.sol\":39023:39030  tAmount */\n      dup10\n        /* \"EAGLEAI/EagleAI.sol\":38996:39022  calculateCoinOperartionTax */\n      tag_635\n        /* \"EAGLEAI/EagleAI.sol\":38996:39031  calculateCoinOperartionTax(tAmount) */\n      jump\t// in\n    tag_634:\n        /* \"EAGLEAI/EagleAI.sol\":38971:39031  uint256 tCoinOperation = calculateCoinOperartionTax(tAmount) */\n      swap1\n      pop\n        /* \"EAGLEAI/EagleAI.sol\":39042:39055  uint256 tBurn */\n      0x00\n        /* \"EAGLEAI/EagleAI.sol\":39058:39083  calculateBurnTax(tAmount) */\n      tag_636\n        /* \"EAGLEAI/EagleAI.sol\":39075:39082  tAmount */\n      dup11\n        /* \"EAGLEAI/EagleAI.sol\":39058:39074  calculateBurnTax */\n      tag_637\n        /* \"EAGLEAI/EagleAI.sol\":39058:39083  calculateBurnTax(tAmount) */\n      jump\t// in\n    tag_636:\n        /* \"EAGLEAI/EagleAI.sol\":39042:39083  uint256 tBurn = calculateBurnTax(tAmount) */\n      swap1\n      pop\n        /* \"EAGLEAI/EagleAI.sol\":39094:39108  uint256 allTax */\n      0x00\n        /* \"EAGLEAI/EagleAI.sol\":39042:39083  uint256 tBurn = calculateBurnTax(tAmount) */\n      dup2\n        /* \"EAGLEAI/EagleAI.sol\":39131:39145  tCoinOperation */\n      dup4\n        /* \"EAGLEAI/EagleAI.sol\":39111:39128  tFee + tLiquidity */\n      tag_638\n        /* \"EAGLEAI/EagleAI.sol\":39118:39128  tLiquidity */\n      dup7\n        /* \"EAGLEAI/EagleAI.sol\":39111:39115  tFee */\n      dup9\n        /* \"EAGLEAI/EagleAI.sol\":39111:39128  tFee + tLiquidity */\n      tag_339\n      jump\t// in\n    tag_638:\n        /* \"EAGLEAI/EagleAI.sol\":39111:39145  tFee + tLiquidity + tCoinOperation */\n      tag_639\n      swap2\n      swap1\n      tag_339\n      jump\t// in\n    tag_639:\n        /* \"EAGLEAI/EagleAI.sol\":39111:39153  tFee + tLiquidity + tCoinOperation + tBurn */\n      tag_640\n      swap2\n      swap1\n      tag_339\n      jump\t// in\n    tag_640:\n        /* \"EAGLEAI/EagleAI.sol\":39094:39153  uint256 allTax = tFee + tLiquidity + tCoinOperation + tBurn */\n      swap1\n      pop\n        /* \"EAGLEAI/EagleAI.sol\":39164:39187  uint256 tTransferAmount */\n      0x00\n        /* \"EAGLEAI/EagleAI.sol\":39190:39206  tAmount - allTax */\n      tag_641\n        /* \"EAGLEAI/EagleAI.sol\":39094:39153  uint256 allTax = tFee + tLiquidity + tCoinOperation + tBurn */\n      dup3\n        /* \"EAGLEAI/EagleAI.sol\":39190:39197  tAmount */\n      dup14\n        /* \"EAGLEAI/EagleAI.sol\":39190:39206  tAmount - allTax */\n      tag_287\n      jump\t// in\n    tag_641:\n        /* \"EAGLEAI/EagleAI.sol\":39164:39206  uint256 tTransferAmount = tAmount - allTax */\n      swap13\n        /* \"EAGLEAI/EagleAI.sol\":39242:39246  tFee */\n      swap6\n      swap12\n      pop\n        /* \"EAGLEAI/EagleAI.sol\":39248:39258  tLiquidity */\n      swap4\n      swap10\n      pop\n        /* \"EAGLEAI/EagleAI.sol\":39260:39274  tCoinOperation */\n      swap2\n      swap8\n      pop\n      swap6\n      pop\n        /* \"EAGLEAI/EagleAI.sol\":38743:39290  function _getTValues(uint256 tAmount) private view returns (uint256, uint256, uint256, uint256, uint256) {... */\n      swap2\n      swap4\n      pop\n      pop\n      pop\n      pop\n      jump\t// out\n        /* \"EAGLEAI/EagleAI.sol\":40254:40898  function _getRValues(uint256 tAmount, uint256 tFee, uint256 tLiquidity, uint256 tCoinOperation, uint256 tBurn) private view returns (uint256, uint256, uint256) {... */\n    tag_564:\n        /* \"EAGLEAI/EagleAI.sol\":40387:40394  uint256 */\n      0x00\n        /* \"EAGLEAI/EagleAI.sol\":40396:40403  uint256 */\n      dup1\n        /* \"EAGLEAI/EagleAI.sol\":40405:40412  uint256 */\n      0x00\n        /* \"EAGLEAI/EagleAI.sol\":40425:40444  uint256 currentRate */\n      dup1\n        /* \"EAGLEAI/EagleAI.sol\":40447:40457  _getRate() */\n      tag_643\n        /* \"EAGLEAI/EagleAI.sol\":40447:40455  _getRate */\n      tag_303\n        /* \"EAGLEAI/EagleAI.sol\":40447:40457  _getRate() */\n      jump\t// in\n    tag_643:\n        /* \"EAGLEAI/EagleAI.sol\":40425:40457  uint256 currentRate = _getRate() */\n      swap1\n      pop\n        /* \"EAGLEAI/EagleAI.sol\":40468:40483  uint256 rAmount */\n      0x00\n        /* \"EAGLEAI/EagleAI.sol\":40486:40507  tAmount * currentRate */\n      tag_644\n        /* \"EAGLEAI/EagleAI.sol\":40425:40457  uint256 currentRate = _getRate() */\n      dup3\n        /* \"EAGLEAI/EagleAI.sol\":40486:40493  tAmount */\n      dup12\n        /* \"EAGLEAI/EagleAI.sol\":40486:40507  tAmount * currentRate */\n      tag_645\n      jump\t// in\n    tag_644:\n        /* \"EAGLEAI/EagleAI.sol\":40468:40507  uint256 rAmount = tAmount * currentRate */\n      swap1\n      pop\n        /* \"EAGLEAI/EagleAI.sol\":40518:40530  uint256 rFee */\n      0x00\n        /* \"EAGLEAI/EagleAI.sol\":40533:40551  tFee * currentRate */\n      tag_646\n        /* \"EAGLEAI/EagleAI.sol\":40540:40551  currentRate */\n      dup4\n        /* \"EAGLEAI/EagleAI.sol\":40533:40537  tFee */\n      dup12\n        /* \"EAGLEAI/EagleAI.sol\":40533:40551  tFee * currentRate */\n      tag_645\n      jump\t// in\n    tag_646:\n        /* \"EAGLEAI/EagleAI.sol\":40518:40551  uint256 rFee = tFee * currentRate */\n      swap1\n      pop\n        /* \"EAGLEAI/EagleAI.sol\":40562:40584  uint256 rCoinOperation */\n      0x00\n        /* \"EAGLEAI/EagleAI.sol\":40587:40615  tCoinOperation * currentRate */\n      tag_647\n        /* \"EAGLEAI/EagleAI.sol\":40604:40615  currentRate */\n      dup5\n        /* \"EAGLEAI/EagleAI.sol\":40587:40601  tCoinOperation */\n      dup11\n        /* \"EAGLEAI/EagleAI.sol\":40587:40615  tCoinOperation * currentRate */\n      tag_645\n      jump\t// in\n    tag_647:\n        /* \"EAGLEAI/EagleAI.sol\":40562:40615  uint256 rCoinOperation = tCoinOperation * currentRate */\n      swap1\n      pop\n        /* \"EAGLEAI/EagleAI.sol\":40626:40639  uint256 rBurn */\n      0x00\n        /* \"EAGLEAI/EagleAI.sol\":40642:40661  tBurn * currentRate */\n      tag_648\n        /* \"EAGLEAI/EagleAI.sol\":40650:40661  currentRate */\n      dup6\n        /* \"EAGLEAI/EagleAI.sol\":40642:40647  tBurn */\n      dup11\n        /* \"EAGLEAI/EagleAI.sol\":40642:40661  tBurn * currentRate */\n      tag_645\n      jump\t// in\n    tag_648:\n        /* \"EAGLEAI/EagleAI.sol\":40626:40661  uint256 rBurn = tBurn * currentRate */\n      swap1\n      pop\n        /* \"EAGLEAI/EagleAI.sol\":40672:40690  uint256 rLiquidity */\n      0x00\n        /* \"EAGLEAI/EagleAI.sol\":40693:40717  tLiquidity * currentRate */\n      tag_649\n        /* \"EAGLEAI/EagleAI.sol\":40706:40717  currentRate */\n      dup7\n        /* \"EAGLEAI/EagleAI.sol\":40693:40703  tLiquidity */\n      dup14\n        /* \"EAGLEAI/EagleAI.sol\":40693:40717  tLiquidity * currentRate */\n      tag_645\n      jump\t// in\n    tag_649:\n        /* \"EAGLEAI/EagleAI.sol\":40672:40717  uint256 rLiquidity = tLiquidity * currentRate */\n      swap1\n      pop\n        /* \"EAGLEAI/EagleAI.sol\":40728:40742  uint256 allTax */\n      0x00\n        /* \"EAGLEAI/EagleAI.sol\":40672:40717  uint256 rLiquidity = tLiquidity * currentRate */\n      dup2\n        /* \"EAGLEAI/EagleAI.sol\":40769:40774  rBurn */\n      dup4\n        /* \"EAGLEAI/EagleAI.sol\":40745:40766  rFee + rCoinOperation */\n      tag_650\n        /* \"EAGLEAI/EagleAI.sol\":40752:40766  rCoinOperation */\n      dup7\n        /* \"EAGLEAI/EagleAI.sol\":40745:40749  rFee */\n      dup9\n        /* \"EAGLEAI/EagleAI.sol\":40745:40766  rFee + rCoinOperation */\n      tag_339\n      jump\t// in\n    tag_650:\n        /* \"EAGLEAI/EagleAI.sol\":40745:40774  rFee + rCoinOperation + rBurn */\n      tag_651\n      swap2\n      swap1\n      tag_339\n      jump\t// in\n    tag_651:\n        /* \"EAGLEAI/EagleAI.sol\":40745:40787  rFee + rCoinOperation + rBurn + rLiquidity */\n      tag_652\n      swap2\n      swap1\n      tag_339\n      jump\t// in\n    tag_652:\n        /* \"EAGLEAI/EagleAI.sol\":40728:40787  uint256 allTax = rFee + rCoinOperation + rBurn + rLiquidity */\n      swap1\n      pop\n        /* \"EAGLEAI/EagleAI.sol\":40798:40821  uint256 rTransferAmount */\n      0x00\n        /* \"EAGLEAI/EagleAI.sol\":40824:40840  rAmount - allTax */\n      tag_653\n        /* \"EAGLEAI/EagleAI.sol\":40728:40787  uint256 allTax = rFee + rCoinOperation + rBurn + rLiquidity */\n      dup3\n        /* \"EAGLEAI/EagleAI.sol\":40824:40831  rAmount */\n      dup9\n        /* \"EAGLEAI/EagleAI.sol\":40824:40840  rAmount - allTax */\n      tag_287\n      jump\t// in\n    tag_653:\n        /* \"EAGLEAI/EagleAI.sol\":40859:40866  rAmount */\n      swap7\n      swap11\n      pop\n        /* \"EAGLEAI/EagleAI.sol\":40798:40840  uint256 rTransferAmount = rAmount - allTax */\n      swap6\n      swap9\n      pop\n        /* \"EAGLEAI/EagleAI.sol\":40885:40889  rFee */\n      swap4\n      swap7\n      pop\n      pop\n      pop\n      pop\n      pop\n      pop\n      pop\n        /* \"EAGLEAI/EagleAI.sol\":40254:40898  function _getRValues(uint256 tAmount, uint256 tFee, uint256 tLiquidity, uint256 tCoinOperation, uint256 tBurn) private view returns (uint256, uint256, uint256) {... */\n      swap6\n      pop\n      swap6\n      pop\n      swap6\n      swap3\n      pop\n      pop\n      pop\n      jump\t// out\n        /* \"EAGLEAI/EagleAI.sol\":63087:63799  function _transferFromExcluded(address sender, address recipient, uint256 tAmount) private {... */\n    tag_572:\n        /* \"EAGLEAI/EagleAI.sol\":63190:63213  uint256 tTransferAmount */\n      0x00\n        /* \"EAGLEAI/EagleAI.sol\":63215:63227  uint256 tFee */\n      dup1\n        /* \"EAGLEAI/EagleAI.sol\":63229:63247  uint256 tLiquidity */\n      0x00\n        /* \"EAGLEAI/EagleAI.sol\":63249:63271  uint256 tCoinOperation */\n      dup1\n        /* \"EAGLEAI/EagleAI.sol\":63273:63286  uint256 tBurn */\n      0x00\n        /* \"EAGLEAI/EagleAI.sol\":63290:63309  _getValues(tAmount) */\n      tag_656\n        /* \"EAGLEAI/EagleAI.sol\":63301:63308  tAmount */\n      dup7\n        /* \"EAGLEAI/EagleAI.sol\":63290:63300  _getValues */\n      tag_657\n        /* \"EAGLEAI/EagleAI.sol\":63290:63309  _getValues(tAmount) */\n      jump\t// in\n    tag_656:\n        /* \"EAGLEAI/EagleAI.sol\":63189:63309  (uint256 tTransferAmount, uint256 tFee, uint256 tLiquidity, uint256 tCoinOperation, uint256 tBurn) = _getValues(tAmount) */\n      swap5\n      pop\n      swap5\n      pop\n      swap5\n      pop\n      swap5\n      pop\n      swap5\n      pop\n        /* \"EAGLEAI/EagleAI.sol\":63321:63336  uint256 rAmount */\n      0x00\n        /* \"EAGLEAI/EagleAI.sol\":63338:63361  uint256 rTransferAmount */\n      dup1\n        /* \"EAGLEAI/EagleAI.sol\":63363:63375  uint256 rFee */\n      0x00\n        /* \"EAGLEAI/EagleAI.sol\":63379:63440  _getRValues(tAmount, tFee, tLiquidity, tCoinOperation, tBurn) */\n      tag_658\n        /* \"EAGLEAI/EagleAI.sol\":63391:63398  tAmount */\n      dup10\n        /* \"EAGLEAI/EagleAI.sol\":63400:63404  tFee */\n      dup9\n        /* \"EAGLEAI/EagleAI.sol\":63406:63416  tLiquidity */\n      dup9\n        /* \"EAGLEAI/EagleAI.sol\":63418:63432  tCoinOperation */\n      dup9\n        /* \"EAGLEAI/EagleAI.sol\":63434:63439  tBurn */\n      dup9\n        /* \"EAGLEAI/EagleAI.sol\":63379:63390  _getRValues */\n      tag_564\n        /* \"EAGLEAI/EagleAI.sol\":63379:63440  _getRValues(tAmount, tFee, tLiquidity, tCoinOperation, tBurn) */\n      jump\t// in\n    tag_658:\n      sub(shl(0xa0, 0x01), 0x01)\n        /* \"EAGLEAI/EagleAI.sol\":63469:63484  _tOwned[sender] */\n      dup15\n      and\n      0x00\n      swap1\n      dup2\n      mstore\n        /* \"EAGLEAI/EagleAI.sol\":63469:63476  _tOwned */\n      0x03\n        /* \"EAGLEAI/EagleAI.sol\":63469:63484  _tOwned[sender] */\n      0x20\n      mstore\n      0x40\n      swap1\n      keccak256\n      sload\n        /* \"EAGLEAI/EagleAI.sol\":63320:63440  (uint256 rAmount, uint256 rTransferAmount, uint256 rFee) = _getRValues(tAmount, tFee, tLiquidity, tCoinOperation, tBurn) */\n      swap3\n      swap6\n      pop\n      swap1\n      swap4\n      pop\n      swap2\n      pop\n        /* \"EAGLEAI/EagleAI.sol\":63469:63492  _tOwned[sender]-tAmount */\n      tag_659\n      swap1\n        /* \"EAGLEAI/EagleAI.sol\":63485:63492  tAmount */\n      dup11\n      swap1\n        /* \"EAGLEAI/EagleAI.sol\":63469:63492  _tOwned[sender]-tAmount */\n      tag_287\n      jump\t// in\n    tag_659:\n      sub(shl(0xa0, 0x01), 0x01)\n        /* \"EAGLEAI/EagleAI.sol\":63451:63466  _tOwned[sender] */\n      dup13\n      and\n      0x00\n      swap1\n      dup2\n      mstore\n        /* \"EAGLEAI/EagleAI.sol\":63451:63458  _tOwned */\n      0x03\n        /* \"EAGLEAI/EagleAI.sol\":63451:63466  _tOwned[sender] */\n      0x20\n      swap1\n      dup2\n      mstore\n      0x40\n      dup1\n      dup4\n      keccak256\n        /* \"EAGLEAI/EagleAI.sol\":63451:63492  _tOwned[sender] = _tOwned[sender]-tAmount */\n      swap4\n      swap1\n      swap4\n      sstore\n        /* \"EAGLEAI/EagleAI.sol\":63521:63528  _rOwned */\n      0x02\n        /* \"EAGLEAI/EagleAI.sol\":63521:63536  _rOwned[sender] */\n      swap1\n      mstore\n      keccak256\n      sload\n        /* \"EAGLEAI/EagleAI.sol\":63521:63544  _rOwned[sender]-rAmount */\n      tag_660\n      swap1\n        /* \"EAGLEAI/EagleAI.sol\":63537:63544  rAmount */\n      dup5\n      swap1\n        /* \"EAGLEAI/EagleAI.sol\":63521:63544  _rOwned[sender]-rAmount */\n      tag_287\n      jump\t// in\n    tag_660:\n      sub(shl(0xa0, 0x01), 0x01)\n        /* \"EAGLEAI/EagleAI.sol\":63503:63518  _rOwned[sender] */\n      dup1\n      dup14\n      and\n      0x00\n      swap1\n      dup2\n      mstore\n        /* \"EAGLEAI/EagleAI.sol\":63503:63510  _rOwned */\n      0x02\n        /* \"EAGLEAI/EagleAI.sol\":63503:63518  _rOwned[sender] */\n      0x20\n      mstore\n      0x40\n      dup1\n      dup3\n      keccak256\n        /* \"EAGLEAI/EagleAI.sol\":63503:63544  _rOwned[sender] = _rOwned[sender]-rAmount */\n      swap4\n      swap1\n      swap4\n      sstore\n        /* \"EAGLEAI/EagleAI.sol\":63576:63594  _rOwned[recipient] */\n      swap1\n      dup13\n      and\n      dup2\n      mstore\n      keccak256\n      sload\n        /* \"EAGLEAI/EagleAI.sol\":63576:63610  _rOwned[recipient]+rTransferAmount */\n      tag_661\n      swap1\n        /* \"EAGLEAI/EagleAI.sol\":63595:63610  rTransferAmount */\n      dup4\n      swap1\n        /* \"EAGLEAI/EagleAI.sol\":63576:63610  _rOwned[recipient]+rTransferAmount */\n      tag_339\n      jump\t// in\n    tag_661:\n      sub(shl(0xa0, 0x01), 0x01)\n        /* \"EAGLEAI/EagleAI.sol\":63555:63573  _rOwned[recipient] */\n      dup12\n      and\n      0x00\n      swap1\n      dup2\n      mstore\n        /* \"EAGLEAI/EagleAI.sol\":63555:63562  _rOwned */\n      0x02\n        /* \"EAGLEAI/EagleAI.sol\":63555:63573  _rOwned[recipient] */\n      0x20\n      mstore\n      0x40\n      swap1\n      keccak256\n        /* \"EAGLEAI/EagleAI.sol\":63555:63610  _rOwned[recipient] = _rOwned[recipient]+rTransferAmount */\n      sstore\n        /* \"EAGLEAI/EagleAI.sol\":63624:63650  _takeLiquidity(tLiquidity) */\n      tag_662\n        /* \"EAGLEAI/EagleAI.sol\":63639:63649  tLiquidity */\n      dup7\n        /* \"EAGLEAI/EagleAI.sol\":63624:63638  _takeLiquidity */\n      tag_663\n        /* \"EAGLEAI/EagleAI.sol\":63624:63650  _takeLiquidity(tLiquidity) */\n      jump\t// in\n    tag_662:\n        /* \"EAGLEAI/EagleAI.sol\":63661:63691  _reflectFee(rFee, tFee, tBurn) */\n      tag_664\n        /* \"EAGLEAI/EagleAI.sol\":63673:63677  rFee */\n      dup2\n        /* \"EAGLEAI/EagleAI.sol\":63679:63683  tFee */\n      dup9\n        /* \"EAGLEAI/EagleAI.sol\":63685:63690  tBurn */\n      dup7\n        /* \"EAGLEAI/EagleAI.sol\":63661:63672  _reflectFee */\n      tag_665\n        /* \"EAGLEAI/EagleAI.sol\":63661:63691  _reflectFee(rFee, tFee, tBurn) */\n      jump\t// in\n    tag_664:\n        /* \"EAGLEAI/EagleAI.sol\":63702:63731  _takeCoinFund(tCoinOperation) */\n      tag_666\n        /* \"EAGLEAI/EagleAI.sol\":63716:63730  tCoinOperation */\n      dup6\n        /* \"EAGLEAI/EagleAI.sol\":63702:63715  _takeCoinFund */\n      tag_667\n        /* \"EAGLEAI/EagleAI.sol\":63702:63731  _takeCoinFund(tCoinOperation) */\n      jump\t// in\n    tag_666:\n        /* \"EAGLEAI/EagleAI.sol\":63764:63773  recipient */\n      dup10\n      sub(shl(0xa0, 0x01), 0x01)\n        /* \"EAGLEAI/EagleAI.sol\":63747:63791  Transfer(sender, recipient, tTransferAmount) */\n      and\n        /* \"EAGLEAI/EagleAI.sol\":63756:63762  sender */\n      dup12\n      sub(shl(0xa0, 0x01), 0x01)\n        /* \"EAGLEAI/EagleAI.sol\":63747:63791  Transfer(sender, recipient, tTransferAmount) */\n      and\n      0xddf252ad1be2c89b69c2b068fc378daa952ba7f163c4a11628f55a4df523b3ef\n        /* \"EAGLEAI/EagleAI.sol\":63775:63790  tTransferAmount */\n      dup11\n        /* \"EAGLEAI/EagleAI.sol\":63747:63791  Transfer(sender, recipient, tTransferAmount) */\n      mload(0x40)\n      tag_668\n      swap2\n        /* \"#utility.yul\":1361:1386   */\n      dup2\n      mstore\n        /* \"#utility.yul\":1349:1351   */\n      0x20\n        /* \"#utility.yul\":1334:1352   */\n      add\n      swap1\n        /* \"#utility.yul\":1215:1392   */\n      jump\n        /* \"EAGLEAI/EagleAI.sol\":63747:63791  Transfer(sender, recipient, tTransferAmount) */\n    tag_668:\n      mload(0x40)\n      dup1\n      swap2\n      sub\n      swap1\n      log3\n        /* \"EAGLEAI/EagleAI.sol\":63178:63799  {... */\n      pop\n      pop\n      pop\n      pop\n      pop\n      pop\n      pop\n      pop\n        /* \"EAGLEAI/EagleAI.sol\":63087:63799  function _transferFromExcluded(address sender, address recipient, uint256 tAmount) private {... */\n      pop\n      pop\n      pop\n      jump\t// out\n        /* \"EAGLEAI/EagleAI.sol\":61648:62380  function _transferToExcluded(address sender, address recipient, uint256 tAmount) private {... */\n    tag_577:\n        /* \"EAGLEAI/EagleAI.sol\":61749:61772  uint256 tTransferAmount */\n      0x00\n        /* \"EAGLEAI/EagleAI.sol\":61774:61786  uint256 tFee */\n      dup1\n        /* \"EAGLEAI/EagleAI.sol\":61788:61806  uint256 tLiquidity */\n      0x00\n        /* \"EAGLEAI/EagleAI.sol\":61808:61830  uint256 tCoinOperation */\n      dup1\n        /* \"EAGLEAI/EagleAI.sol\":61832:61845  uint256 tBurn */\n      0x00\n        /* \"EAGLEAI/EagleAI.sol\":61849:61868  _getValues(tAmount) */\n      tag_670\n        /* \"EAGLEAI/EagleAI.sol\":61860:61867  tAmount */\n      dup7\n        /* \"EAGLEAI/EagleAI.sol\":61849:61859  _getValues */\n      tag_657\n        /* \"EAGLEAI/EagleAI.sol\":61849:61868  _getValues(tAmount) */\n      jump\t// in\n    tag_670:\n        /* \"EAGLEAI/EagleAI.sol\":61748:61868  (uint256 tTransferAmount, uint256 tFee, uint256 tLiquidity, uint256 tCoinOperation, uint256 tBurn) = _getValues(tAmount) */\n      swap5\n      pop\n      swap5\n      pop\n      swap5\n      pop\n      swap5\n      pop\n      swap5\n      pop\n        /* \"EAGLEAI/EagleAI.sol\":61880:61895  uint256 rAmount */\n      0x00\n        /* \"EAGLEAI/EagleAI.sol\":61897:61920  uint256 rTransferAmount */\n      dup1\n        /* \"EAGLEAI/EagleAI.sol\":61922:61934  uint256 rFee */\n      0x00\n        /* \"EAGLEAI/EagleAI.sol\":61938:61999  _getRValues(tAmount, tFee, tLiquidity, tCoinOperation, tBurn) */\n      tag_671\n        /* \"EAGLEAI/EagleAI.sol\":61950:61957  tAmount */\n      dup10\n        /* \"EAGLEAI/EagleAI.sol\":61959:61963  tFee */\n      dup9\n        /* \"EAGLEAI/EagleAI.sol\":61965:61975  tLiquidity */\n      dup9\n        /* \"EAGLEAI/EagleAI.sol\":61977:61991  tCoinOperation */\n      dup9\n        /* \"EAGLEAI/EagleAI.sol\":61993:61998  tBurn */\n      dup9\n        /* \"EAGLEAI/EagleAI.sol\":61938:61949  _getRValues */\n      tag_564\n        /* \"EAGLEAI/EagleAI.sol\":61938:61999  _getRValues(tAmount, tFee, tLiquidity, tCoinOperation, tBurn) */\n      jump\t// in\n    tag_671:\n      sub(shl(0xa0, 0x01), 0x01)\n        /* \"EAGLEAI/EagleAI.sol\":62028:62043  _rOwned[sender] */\n      dup15\n      and\n      0x00\n      swap1\n      dup2\n      mstore\n        /* \"EAGLEAI/EagleAI.sol\":62028:62035  _rOwned */\n      0x02\n        /* \"EAGLEAI/EagleAI.sol\":62028:62043  _rOwned[sender] */\n      0x20\n      mstore\n      0x40\n      swap1\n      keccak256\n      sload\n        /* \"EAGLEAI/EagleAI.sol\":61879:61999  (uint256 rAmount, uint256 rTransferAmount, uint256 rFee) = _getRValues(tAmount, tFee, tLiquidity, tCoinOperation, tBurn) */\n      swap3\n      swap6\n      pop\n      swap1\n      swap4\n      pop\n      swap2\n      pop\n        /* \"EAGLEAI/EagleAI.sol\":62028:62051  _rOwned[sender]-rAmount */\n      tag_672\n      swap1\n        /* \"EAGLEAI/EagleAI.sol\":61879:61999  (uint256 rAmount, uint256 rTransferAmount, uint256 rFee) = _getRValues(tAmount, tFee, tLiquidity, tCoinOperation, tBurn) */\n      dup5\n      swap1\n        /* \"EAGLEAI/EagleAI.sol\":62028:62051  _rOwned[sender]-rAmount */\n      tag_287\n      jump\t// in\n    tag_672:\n      sub(shl(0xa0, 0x01), 0x01)\n        /* \"EAGLEAI/EagleAI.sol\":62010:62025  _rOwned[sender] */\n      dup1\n      dup14\n      and\n      0x00\n      swap1\n      dup2\n      mstore\n        /* \"EAGLEAI/EagleAI.sol\":62010:62017  _rOwned */\n      0x02\n        /* \"EAGLEAI/EagleAI.sol\":62010:62025  _rOwned[sender] */\n      0x20\n      swap1\n      dup2\n      mstore\n      0x40\n      dup1\n      dup4\n      keccak256\n        /* \"EAGLEAI/EagleAI.sol\":62010:62051  _rOwned[sender] = _rOwned[sender]-rAmount */\n      swap5\n      swap1\n      swap5\n      sstore\n        /* \"EAGLEAI/EagleAI.sol\":62083:62101  _tOwned[recipient] */\n      swap2\n      dup14\n      and\n      dup2\n      mstore\n        /* \"EAGLEAI/EagleAI.sol\":62083:62090  _tOwned */\n      0x03\n        /* \"EAGLEAI/EagleAI.sol\":62083:62101  _tOwned[recipient] */\n      swap1\n      swap2\n      mstore\n      keccak256\n      sload\n        /* \"EAGLEAI/EagleAI.sol\":62083:62117  _tOwned[recipient]+tTransferAmount */\n      tag_673\n      swap1\n        /* \"EAGLEAI/EagleAI.sol\":62102:62117  tTransferAmount */\n      dup10\n      swap1\n        /* \"EAGLEAI/EagleAI.sol\":62083:62117  _tOwned[recipient]+tTransferAmount */\n      tag_339\n      jump\t// in\n    tag_673:\n      sub(shl(0xa0, 0x01), 0x01)\n        /* \"EAGLEAI/EagleAI.sol\":62062:62080  _tOwned[recipient] */\n      dup12\n      and\n      0x00\n      swap1\n      dup2\n      mstore\n        /* \"EAGLEAI/EagleAI.sol\":62062:62069  _tOwned */\n      0x03\n        /* \"EAGLEAI/EagleAI.sol\":62062:62080  _tOwned[recipient] */\n      0x20\n      swap1\n      dup2\n      mstore\n      0x40\n      dup1\n      dup4\n      keccak256\n        /* \"EAGLEAI/EagleAI.sol\":62062:62117  _tOwned[recipient] = _tOwned[recipient]+tTransferAmount */\n      swap4\n      swap1\n      swap4\n      sstore\n        /* \"EAGLEAI/EagleAI.sol\":62149:62156  _rOwned */\n      0x02\n        /* \"EAGLEAI/EagleAI.sol\":62149:62167  _rOwned[recipient] */\n      swap1\n      mstore\n      keccak256\n      sload\n        /* \"EAGLEAI/EagleAI.sol\":62149:62183  _rOwned[recipient]+rTransferAmount */\n      tag_661\n      swap1\n        /* \"EAGLEAI/EagleAI.sol\":62168:62183  rTransferAmount */\n      dup4\n      swap1\n        /* \"EAGLEAI/EagleAI.sol\":62149:62183  _rOwned[recipient]+rTransferAmount */\n      tag_339\n      jump\t// in\n        /* \"EAGLEAI/EagleAI.sol\":60289:60942  function _transferStandard(address sender, address recipient, uint256 tAmount) private {... */\n    tag_582:\n        /* \"EAGLEAI/EagleAI.sol\":60388:60411  uint256 tTransferAmount */\n      0x00\n        /* \"EAGLEAI/EagleAI.sol\":60413:60425  uint256 tFee */\n      dup1\n        /* \"EAGLEAI/EagleAI.sol\":60427:60445  uint256 tLiquidity */\n      0x00\n        /* \"EAGLEAI/EagleAI.sol\":60447:60469  uint256 tCoinOperation */\n      dup1\n        /* \"EAGLEAI/EagleAI.sol\":60471:60484  uint256 tBurn */\n      0x00\n        /* \"EAGLEAI/EagleAI.sol\":60488:60507  _getValues(tAmount) */\n      tag_680\n        /* \"EAGLEAI/EagleAI.sol\":60499:60506  tAmount */\n      dup7\n        /* \"EAGLEAI/EagleAI.sol\":60488:60498  _getValues */\n      tag_657\n        /* \"EAGLEAI/EagleAI.sol\":60488:60507  _getValues(tAmount) */\n      jump\t// in\n    tag_680:\n        /* \"EAGLEAI/EagleAI.sol\":60387:60507  (uint256 tTransferAmount, uint256 tFee, uint256 tLiquidity, uint256 tCoinOperation, uint256 tBurn) = _getValues(tAmount) */\n      swap5\n      pop\n      swap5\n      pop\n      swap5\n      pop\n      swap5\n      pop\n      swap5\n      pop\n        /* \"EAGLEAI/EagleAI.sol\":60519:60534  uint256 rAmount */\n      0x00\n        /* \"EAGLEAI/EagleAI.sol\":60536:60559  uint256 rTransferAmount */\n      dup1\n        /* \"EAGLEAI/EagleAI.sol\":60561:60573  uint256 rFee */\n      0x00\n        /* \"EAGLEAI/EagleAI.sol\":60577:60638  _getRValues(tAmount, tFee, tLiquidity, tCoinOperation, tBurn) */\n      tag_681\n        /* \"EAGLEAI/EagleAI.sol\":60589:60596  tAmount */\n      dup10\n        /* \"EAGLEAI/EagleAI.sol\":60598:60602  tFee */\n      dup9\n        /* \"EAGLEAI/EagleAI.sol\":60604:60614  tLiquidity */\n      dup9\n        /* \"EAGLEAI/EagleAI.sol\":60616:60630  tCoinOperation */\n      dup9\n        /* \"EAGLEAI/EagleAI.sol\":60632:60637  tBurn */\n      dup9\n        /* \"EAGLEAI/EagleAI.sol\":60577:60588  _getRValues */\n      tag_564\n        /* \"EAGLEAI/EagleAI.sol\":60577:60638  _getRValues(tAmount, tFee, tLiquidity, tCoinOperation, tBurn) */\n      jump\t// in\n    tag_681:\n      sub(shl(0xa0, 0x01), 0x01)\n        /* \"EAGLEAI/EagleAI.sol\":60667:60682  _rOwned[sender] */\n      dup15\n      and\n      0x00\n      swap1\n      dup2\n      mstore\n        /* \"EAGLEAI/EagleAI.sol\":60667:60674  _rOwned */\n      0x02\n        /* \"EAGLEAI/EagleAI.sol\":60667:60682  _rOwned[sender] */\n      0x20\n      mstore\n      0x40\n      swap1\n      keccak256\n      sload\n        /* \"EAGLEAI/EagleAI.sol\":60518:60638  (uint256 rAmount, uint256 rTransferAmount, uint256 rFee) = _getRValues(tAmount, tFee, tLiquidity, tCoinOperation, tBurn) */\n      swap3\n      swap6\n      pop\n      swap1\n      swap4\n      pop\n      swap2\n      pop\n        /* \"EAGLEAI/EagleAI.sol\":60667:60690  _rOwned[sender]-rAmount */\n      tag_660\n      swap1\n        /* \"EAGLEAI/EagleAI.sol\":60518:60638  (uint256 rAmount, uint256 rTransferAmount, uint256 rFee) = _getRValues(tAmount, tFee, tLiquidity, tCoinOperation, tBurn) */\n      dup5\n      swap1\n        /* \"EAGLEAI/EagleAI.sol\":60667:60690  _rOwned[sender]-rAmount */\n      tag_287\n      jump\t// in\n        /* \"EAGLEAI/EagleAI.sol\":29624:30407  function _transferBothExcluded(address sender, address recipient, uint256 tAmount) private {... */\n    tag_587:\n        /* \"EAGLEAI/EagleAI.sol\":29727:29750  uint256 tTransferAmount */\n      0x00\n        /* \"EAGLEAI/EagleAI.sol\":29752:29764  uint256 tFee */\n      dup1\n        /* \"EAGLEAI/EagleAI.sol\":29766:29784  uint256 tLiquidity */\n      0x00\n        /* \"EAGLEAI/EagleAI.sol\":29786:29808  uint256 tCoinOperation */\n      dup1\n        /* \"EAGLEAI/EagleAI.sol\":29810:29823  uint256 tBurn */\n      0x00\n        /* \"EAGLEAI/EagleAI.sol\":29827:29846  _getValues(tAmount) */\n      tag_689\n        /* \"EAGLEAI/EagleAI.sol\":29838:29845  tAmount */\n      dup7\n        /* \"EAGLEAI/EagleAI.sol\":29827:29837  _getValues */\n      tag_657\n        /* \"EAGLEAI/EagleAI.sol\":29827:29846  _getValues(tAmount) */\n      jump\t// in\n    tag_689:\n        /* \"EAGLEAI/EagleAI.sol\":29726:29846  (uint256 tTransferAmount, uint256 tFee, uint256 tLiquidity, uint256 tCoinOperation, uint256 tBurn) = _getValues(tAmount) */\n      swap5\n      pop\n      swap5\n      pop\n      swap5\n      pop\n      swap5\n      pop\n      swap5\n      pop\n        /* \"EAGLEAI/EagleAI.sol\":29858:29873  uint256 rAmount */\n      0x00\n        /* \"EAGLEAI/EagleAI.sol\":29875:29898  uint256 rTransferAmount */\n      dup1\n        /* \"EAGLEAI/EagleAI.sol\":29900:29912  uint256 rFee */\n      0x00\n        /* \"EAGLEAI/EagleAI.sol\":29916:29977  _getRValues(tAmount, tFee, tLiquidity, tCoinOperation, tBurn) */\n      tag_690\n        /* \"EAGLEAI/EagleAI.sol\":29928:29935  tAmount */\n      dup10\n        /* \"EAGLEAI/EagleAI.sol\":29937:29941  tFee */\n      dup9\n        /* \"EAGLEAI/EagleAI.sol\":29943:29953  tLiquidity */\n      dup9\n        /* \"EAGLEAI/EagleAI.sol\":29955:29969  tCoinOperation */\n      dup9\n        /* \"EAGLEAI/EagleAI.sol\":29971:29976  tBurn */\n      dup9\n        /* \"EAGLEAI/EagleAI.sol\":29916:29927  _getRValues */\n      tag_564\n        /* \"EAGLEAI/EagleAI.sol\":29916:29977  _getRValues(tAmount, tFee, tLiquidity, tCoinOperation, tBurn) */\n      jump\t// in\n    tag_690:\n      sub(shl(0xa0, 0x01), 0x01)\n        /* \"EAGLEAI/EagleAI.sol\":30006:30021  _tOwned[sender] */\n      dup15\n      and\n      0x00\n      swap1\n      dup2\n      mstore\n        /* \"EAGLEAI/EagleAI.sol\":30006:30013  _tOwned */\n      0x03\n        /* \"EAGLEAI/EagleAI.sol\":30006:30021  _tOwned[sender] */\n      0x20\n      mstore\n      0x40\n      swap1\n      keccak256\n      sload\n        /* \"EAGLEAI/EagleAI.sol\":29857:29977  (uint256 rAmount, uint256 rTransferAmount, uint256 rFee) = _getRValues(tAmount, tFee, tLiquidity, tCoinOperation, tBurn) */\n      swap3\n      swap6\n      pop\n      swap1\n      swap4\n      pop\n      swap2\n      pop\n        /* \"EAGLEAI/EagleAI.sol\":30006:30029  _tOwned[sender]-tAmount */\n      tag_691\n      swap1\n        /* \"EAGLEAI/EagleAI.sol\":30022:30029  tAmount */\n      dup11\n      swap1\n        /* \"EAGLEAI/EagleAI.sol\":30006:30029  _tOwned[sender]-tAmount */\n      tag_287\n      jump\t// in\n    tag_691:\n      sub(shl(0xa0, 0x01), 0x01)\n        /* \"EAGLEAI/EagleAI.sol\":29988:30003  _tOwned[sender] */\n      dup13\n      and\n      0x00\n      swap1\n      dup2\n      mstore\n        /* \"EAGLEAI/EagleAI.sol\":29988:29995  _tOwned */\n      0x03\n        /* \"EAGLEAI/EagleAI.sol\":29988:30003  _tOwned[sender] */\n      0x20\n      swap1\n      dup2\n      mstore\n      0x40\n      dup1\n      dup4\n      keccak256\n        /* \"EAGLEAI/EagleAI.sol\":29988:30029  _tOwned[sender] = _tOwned[sender]-tAmount */\n      swap4\n      swap1\n      swap4\n      sstore\n        /* \"EAGLEAI/EagleAI.sol\":30058:30065  _rOwned */\n      0x02\n        /* \"EAGLEAI/EagleAI.sol\":30058:30073  _rOwned[sender] */\n      swap1\n      mstore\n      keccak256\n      sload\n        /* \"EAGLEAI/EagleAI.sol\":30058:30081  _rOwned[sender]-rAmount */\n      tag_672\n      swap1\n        /* \"EAGLEAI/EagleAI.sol\":30074:30081  rAmount */\n      dup5\n      swap1\n        /* \"EAGLEAI/EagleAI.sol\":30058:30081  _rOwned[sender]-rAmount */\n      tag_287\n      jump\t// in\n        /* \"EAGLEAI/EagleAI.sol\":56358:56947  function swapTokensForEth(uint256 tokenAmount) private {... */\n    tag_595:\n        /* \"EAGLEAI/EagleAI.sol\":56508:56524  new address[](2) */\n      0x40\n      dup1\n      mload\n        /* \"EAGLEAI/EagleAI.sol\":56522:56523  2 */\n      0x02\n        /* \"EAGLEAI/EagleAI.sol\":56508:56524  new address[](2) */\n      dup1\n      dup3\n      mstore\n      0x60\n      dup3\n      add\n      dup4\n      mstore\n        /* \"EAGLEAI/EagleAI.sol\":56484:56505  address[] memory path */\n      0x00\n      swap3\n        /* \"EAGLEAI/EagleAI.sol\":56508:56524  new address[](2) */\n      0x20\n      dup4\n      add\n      swap1\n      dup1\n      calldatasize\n      dup4\n      calldatacopy\n      add\n      swap1\n      pop\n      pop\n        /* \"EAGLEAI/EagleAI.sol\":56484:56524  address[] memory path = new address[](2) */\n      swap1\n      pop\n        /* \"EAGLEAI/EagleAI.sol\":56553:56557  this */\n      address\n        /* \"EAGLEAI/EagleAI.sol\":56535:56539  path */\n      dup2\n        /* \"EAGLEAI/EagleAI.sol\":56540:56541  0 */\n      0x00\n        /* \"EAGLEAI/EagleAI.sol\":56535:56542  path[0] */\n      dup2\n      mload\n      dup2\n      lt\n      tag_705\n      jumpi\n      tag_705\n      tag_320\n      jump\t// in\n    tag_705:\n      0x20\n      mul\n      0x20\n      add\n      add\n        /* \"EAGLEAI/EagleAI.sol\":56535:56558  path[0] = address(this) */\n      swap1\n      sub(shl(0xa0, 0x01), 0x01)\n      and\n      swap1\n      dup2\n      sub(shl(0xa0, 0x01), 0x01)\n      and\n      dup2\n      mstore\n      pop\n      pop\n        /* \"EAGLEAI/EagleAI.sol\":56579:56594  uniswapV2Router */\n      immutable(\"0xd1bfb39175379108a717b7ef0f82b6e824d30ad965caf5d88e1c0f8ae725e4a0\")\n      sub(shl(0xa0, 0x01), 0x01)\n        /* \"EAGLEAI/EagleAI.sol\":56579:56599  uniswapV2Router.WETH */\n      and\n      0xad5c4648\n        /* \"EAGLEAI/EagleAI.sol\":56579:56601  uniswapV2Router.WETH() */\n      mload(0x40)\n      dup2\n      0xffffffff\n      and\n      0xe0\n      shl\n      dup2\n      mstore\n      0x04\n      add\n      0x20\n      mload(0x40)\n      dup1\n      dup4\n      sub\n      dup2\n      dup7\n      gas\n      staticcall\n      iszero\n      dup1\n      iszero\n      tag_707\n      jumpi\n      returndatasize\n      0x00\n      dup1\n      returndatacopy\n      revert(0x00, returndatasize)\n    tag_707:\n      pop\n      pop\n      pop\n      pop\n      mload(0x40)\n      returndatasize\n      not(0x1f)\n      0x1f\n      dup3\n      add\n      and\n      dup3\n      add\n      dup1\n      0x40\n      mstore\n      pop\n      dup2\n      add\n      swap1\n      tag_708\n      swap2\n      swap1\n      tag_709\n      jump\t// in\n    tag_708:\n        /* \"EAGLEAI/EagleAI.sol\":56569:56573  path */\n      dup2\n        /* \"EAGLEAI/EagleAI.sol\":56574:56575  1 */\n      0x01\n        /* \"EAGLEAI/EagleAI.sol\":56569:56576  path[1] */\n      dup2\n      mload\n      dup2\n      lt\n      tag_711\n      jumpi\n      tag_711\n      tag_320\n      jump\t// in\n    tag_711:\n      0x20\n      mul\n      0x20\n      add\n      add\n        /* \"EAGLEAI/EagleAI.sol\":56569:56601  path[1] = uniswapV2Router.WETH() */\n      swap1\n      sub(shl(0xa0, 0x01), 0x01)\n      and\n      swap1\n      dup2\n      sub(shl(0xa0, 0x01), 0x01)\n      and\n      dup2\n      mstore\n      pop\n      pop\n        /* \"EAGLEAI/EagleAI.sol\":56614:56676  _approve(address(this), address(uniswapV2Router), tokenAmount) */\n      tag_712\n        /* \"EAGLEAI/EagleAI.sol\":56631:56635  this */\n      address\n        /* \"EAGLEAI/EagleAI.sol\":56646:56661  uniswapV2Router */\n      immutable(\"0xd1bfb39175379108a717b7ef0f82b6e824d30ad965caf5d88e1c0f8ae725e4a0\")\n        /* \"EAGLEAI/EagleAI.sol\":56664:56675  tokenAmount */\n      dup5\n        /* \"EAGLEAI/EagleAI.sol\":56614:56622  _approve */\n      tag_277\n        /* \"EAGLEAI/EagleAI.sol\":56614:56676  _approve(address(this), address(uniswapV2Router), tokenAmount) */\n      jump\t// in\n    tag_712:\n        /* \"EAGLEAI/EagleAI.sol\":56715:56939  uniswapV2Router.swapExactTokensForETHSupportingFeeOnTransferTokens(... */\n      mload(0x40)\n      shl(0xe0, 0x791ac947)\n      dup2\n      mstore\n      sub(shl(0xa0, 0x01), 0x01)\n        /* \"EAGLEAI/EagleAI.sol\":56715:56730  uniswapV2Router */\n      immutable(\"0xd1bfb39175379108a717b7ef0f82b6e824d30ad965caf5d88e1c0f8ae725e4a0\")\n        /* \"EAGLEAI/EagleAI.sol\":56715:56781  uniswapV2Router.swapExactTokensForETHSupportingFeeOnTransferTokens */\n      and\n      swap1\n      0x791ac947\n      swap1\n        /* \"EAGLEAI/EagleAI.sol\":56715:56939  uniswapV2Router.swapExactTokensForETHSupportingFeeOnTransferTokens(... */\n      tag_713\n      swap1\n        /* \"EAGLEAI/EagleAI.sol\":56796:56807  tokenAmount */\n      dup6\n      swap1\n        /* \"EAGLEAI/EagleAI.sol\":56822:56823  0 */\n      0x00\n      swap1\n        /* \"EAGLEAI/EagleAI.sol\":56866:56870  path */\n      dup7\n      swap1\n        /* \"EAGLEAI/EagleAI.sol\":56893:56897  this */\n      address\n      swap1\n        /* \"EAGLEAI/EagleAI.sol\":56913:56928  block.timestamp */\n      timestamp\n      swap1\n        /* \"EAGLEAI/EagleAI.sol\":56715:56939  uniswapV2Router.swapExactTokensForETHSupportingFeeOnTransferTokens(... */\n      0x04\n      add\n      tag_714\n      jump\t// in\n    tag_713:\n      0x00\n      mload(0x40)\n      dup1\n      dup4\n      sub\n      dup2\n      0x00\n      dup8\n      dup1\n      extcodesize\n      iszero\n      dup1\n      iszero\n      tag_715\n      jumpi\n      0x00\n      dup1\n      revert\n    tag_715:\n      pop\n      gas\n      call\n      iszero\n      dup1\n      iszero\n      tag_406\n      jumpi\n      returndatasize\n      0x00\n      dup1\n      returndatacopy\n      revert(0x00, returndatasize)\n        /* \"EAGLEAI/EagleAI.sol\":57578:58091  function addLiquidity(uint256 tokenAmount, uint256 ethAmount) private {... */\n    tag_598:\n        /* \"EAGLEAI/EagleAI.sol\":57726:57788  _approve(address(this), address(uniswapV2Router), tokenAmount) */\n      tag_719\n        /* \"EAGLEAI/EagleAI.sol\":57743:57747  this */\n      address\n        /* \"EAGLEAI/EagleAI.sol\":57758:57773  uniswapV2Router */\n      immutable(\"0xd1bfb39175379108a717b7ef0f82b6e824d30ad965caf5d88e1c0f8ae725e4a0\")\n        /* \"EAGLEAI/EagleAI.sol\":57776:57787  tokenAmount */\n      dup5\n        /* \"EAGLEAI/EagleAI.sol\":57726:57734  _approve */\n      tag_277\n        /* \"EAGLEAI/EagleAI.sol\":57726:57788  _approve(address(this), address(uniswapV2Router), tokenAmount) */\n      jump\t// in\n    tag_719:\n        /* \"EAGLEAI/EagleAI.sol\":57831:57846  uniswapV2Router */\n      immutable(\"0xd1bfb39175379108a717b7ef0f82b6e824d30ad965caf5d88e1c0f8ae725e4a0\")\n      sub(shl(0xa0, 0x01), 0x01)\n        /* \"EAGLEAI/EagleAI.sol\":57831:57862  uniswapV2Router.addLiquidityETH */\n      and\n      0xf305d719\n        /* \"EAGLEAI/EagleAI.sol\":57870:57879  ethAmount */\n      dup3\n        /* \"EAGLEAI/EagleAI.sol\":57903:57907  this */\n      address\n        /* \"EAGLEAI/EagleAI.sol\":57923:57934  tokenAmount */\n      dup6\n        /* \"EAGLEAI/EagleAI.sol\":57949:57950  0 */\n      0x00\n        /* \"EAGLEAI/EagleAI.sol\":57992:57993  0 */\n      dup1\n        /* \"EAGLEAI/EagleAI.sol\":58035:58042  owner() */\n      tag_720\n        /* \"EAGLEAI/EagleAI.sol\":6018:6025  address */\n      0x00\n        /* \"EAGLEAI/EagleAI.sol\":6045:6051  _owner */\n      sload\n      sub(shl(0xa0, 0x01), 0x01)\n      and\n      swap1\n        /* \"EAGLEAI/EagleAI.sol\":5980:6059  function owner() public view returns (address) {... */\n      jump\n        /* \"EAGLEAI/EagleAI.sol\":58035:58042  owner() */\n    tag_720:\n        /* \"EAGLEAI/EagleAI.sol\":57831:58083  uniswapV2Router.addLiquidityETH{value: ethAmount}(... */\n      mload(0x40)\n      0xe0\n      dup9\n      swap1\n      shl\n      not(sub(shl(0xe0, 0x01), 0x01))\n      and\n      dup2\n      mstore\n      sub(shl(0xa0, 0x01), 0x01)\n        /* \"#utility.yul\":18842:18857   */\n      swap6\n      dup7\n      and\n        /* \"EAGLEAI/EagleAI.sol\":57831:58083  uniswapV2Router.addLiquidityETH{value: ethAmount}(... */\n      0x04\n      dup3\n      add\n        /* \"#utility.yul\":18824:18858   */\n      mstore\n        /* \"#utility.yul\":18874:18892   */\n      0x24\n      dup2\n      add\n        /* \"#utility.yul\":18867:18901   */\n      swap5\n      swap1\n      swap5\n      mstore\n        /* \"#utility.yul\":18917:18935   */\n      0x44\n      dup5\n      add\n        /* \"#utility.yul\":18910:18944   */\n      swap3\n      swap1\n      swap3\n      mstore\n        /* \"#utility.yul\":18960:18978   */\n      0x64\n      dup4\n      add\n        /* \"#utility.yul\":18953:18987   */\n      mstore\n        /* \"#utility.yul\":19024:19039   */\n      swap1\n      swap2\n      and\n        /* \"#utility.yul\":19003:19022   */\n      0x84\n      dup3\n      add\n        /* \"#utility.yul\":18996:19040   */\n      mstore\n        /* \"EAGLEAI/EagleAI.sol\":58057:58072  block.timestamp */\n      timestamp\n        /* \"#utility.yul\":19056:19075   */\n      0xa4\n      dup3\n      add\n        /* \"#utility.yul\":19049:19084   */\n      mstore\n        /* \"#utility.yul\":18758:18777   */\n      0xc4\n      add\n        /* \"EAGLEAI/EagleAI.sol\":57831:58083  uniswapV2Router.addLiquidityETH{value: ethAmount}(... */\n      0x60\n      mload(0x40)\n      dup1\n      dup4\n      sub\n      dup2\n      dup6\n      dup9\n      gas\n      call\n      iszero\n      dup1\n      iszero\n      tag_724\n      jumpi\n      returndatasize\n      0x00\n      dup1\n      returndatacopy\n      revert(0x00, returndatasize)\n    tag_724:\n      pop\n      pop\n      pop\n      pop\n      pop\n      mload(0x40)\n      returndatasize\n      not(0x1f)\n      0x1f\n      dup3\n      add\n      and\n      dup3\n      add\n      dup1\n      0x40\n      mstore\n      pop\n      dup2\n      add\n      swap1\n      tag_725\n      swap2\n      swap1\n      tag_726\n      jump\t// in\n    tag_725:\n      pop\n      pop\n      pop\n        /* \"EAGLEAI/EagleAI.sol\":57578:58091  function addLiquidity(uint256 tokenAmount, uint256 ethAmount) private {... */\n      pop\n      pop\n      jump\t// out\n        /* \"EAGLEAI/EagleAI.sol\":42961:43084  function calculateTaxFee(uint256 _amount) private view returns (uint256) {... */\n    tag_631:\n        /* \"EAGLEAI/EagleAI.sol\":43025:43032  uint256 */\n      0x00\n        /* \"EAGLEAI/EagleAI.sol\":43071:43076  10**2 */\n      0x64\n        /* \"EAGLEAI/EagleAI.sol\":43062:43068  refAmt */\n      sload(0x0e)\n        /* \"EAGLEAI/EagleAI.sol\":43052:43059  _amount */\n      dup4\n        /* \"EAGLEAI/EagleAI.sol\":43052:43068  _amount * refAmt */\n      tag_728\n      swap2\n      swap1\n      tag_645\n      jump\t// in\n    tag_728:\n        /* \"EAGLEAI/EagleAI.sol\":43052:43076  _amount * refAmt / 10**2 */\n      tag_273\n      swap2\n      swap1\n      tag_305\n      jump\t// in\n        /* \"EAGLEAI/EagleAI.sol\":43329:43460  function calculateLiquidityFee(uint256 _amount) private view returns (uint256) {... */\n    tag_633:\n        /* \"EAGLEAI/EagleAI.sol\":43399:43406  uint256 */\n      0x00\n        /* \"EAGLEAI/EagleAI.sol\":43447:43452  10**2 */\n      0x64\n        /* \"EAGLEAI/EagleAI.sol\":43436:43444  liquidty */\n      sload(0x10)\n        /* \"EAGLEAI/EagleAI.sol\":43426:43433  _amount */\n      dup4\n        /* \"EAGLEAI/EagleAI.sol\":43426:43444  _amount * liquidty */\n      tag_728\n      swap2\n      swap1\n      tag_645\n      jump\t// in\n        /* \"EAGLEAI/EagleAI.sol\":43726:43867  function calculateCoinOperartionTax(uint256 _amount) private view returns (uint256) {... */\n    tag_635:\n        /* \"EAGLEAI/EagleAI.sol\":43801:43808  uint256 */\n      0x00\n        /* \"EAGLEAI/EagleAI.sol\":43854:43859  10**2 */\n      0x64\n        /* \"EAGLEAI/EagleAI.sol\":43838:43851  coinOperation */\n      sload(0x0f)\n        /* \"EAGLEAI/EagleAI.sol\":43828:43835  _amount */\n      dup4\n        /* \"EAGLEAI/EagleAI.sol\":43828:43851  _amount * coinOperation */\n      tag_728\n      swap2\n      swap1\n      tag_645\n      jump\t// in\n        /* \"EAGLEAI/EagleAI.sol\":44176:44298  function calculateBurnTax(uint256 _amount) private view returns (uint256) {... */\n    tag_637:\n        /* \"EAGLEAI/EagleAI.sol\":44241:44248  uint256 */\n      0x00\n        /* \"EAGLEAI/EagleAI.sol\":44285:44290  10**2 */\n      0x64\n        /* \"EAGLEAI/EagleAI.sol\":44278:44282  burn */\n      sload(0x11)\n        /* \"EAGLEAI/EagleAI.sol\":44268:44275  _amount */\n      dup4\n        /* \"EAGLEAI/EagleAI.sol\":44268:44282  _amount * burn */\n      tag_728\n      swap2\n      swap1\n      tag_645\n      jump\t// in\n        /* \"EAGLEAI/EagleAI.sol\":36621:36943  function _getValues(uint256 tAmount) private view returns (uint256, uint256, uint256, uint256, uint256) {... */\n    tag_657:\n        /* \"EAGLEAI/EagleAI.sol\":36680:36687  uint256 */\n      0x00\n        /* \"EAGLEAI/EagleAI.sol\":36689:36696  uint256 */\n      dup1\n        /* \"EAGLEAI/EagleAI.sol\":36698:36705  uint256 */\n      0x00\n        /* \"EAGLEAI/EagleAI.sol\":36707:36714  uint256 */\n      dup1\n        /* \"EAGLEAI/EagleAI.sol\":36716:36723  uint256 */\n      0x00\n        /* \"EAGLEAI/EagleAI.sol\":36737:36760  uint256 tTransferAmount */\n      dup1\n        /* \"EAGLEAI/EagleAI.sol\":36762:36774  uint256 tFee */\n      0x00\n        /* \"EAGLEAI/EagleAI.sol\":36776:36794  uint256 tLiquidity */\n      dup1\n        /* \"EAGLEAI/EagleAI.sol\":36796:36818  uint256 tCoinOperation */\n      0x00\n        /* \"EAGLEAI/EagleAI.sol\":36820:36833  uint256 tBurn */\n      dup1\n        /* \"EAGLEAI/EagleAI.sol\":36837:36857  _getTValues(tAmount) */\n      tag_740\n        /* \"EAGLEAI/EagleAI.sol\":36849:36856  tAmount */\n      dup12\n        /* \"EAGLEAI/EagleAI.sol\":36837:36848  _getTValues */\n      tag_562\n        /* \"EAGLEAI/EagleAI.sol\":36837:36857  _getTValues(tAmount) */\n      jump\t// in\n    tag_740:\n        /* \"EAGLEAI/EagleAI.sol\":36736:36857  (uint256 tTransferAmount, uint256 tFee, uint256 tLiquidity, uint256 tCoinOperation, uint256 tBurn) = _getTValues(tAmount) */\n      swap4\n      swap16\n      swap3\n      swap15\n      pop\n      swap1\n      swap13\n      pop\n      swap11\n      pop\n      swap1\n      swap9\n      pop\n        /* \"EAGLEAI/EagleAI.sol\":36621:36943  function _getValues(uint256 tAmount) private view returns (uint256, uint256, uint256, uint256, uint256) {... */\n      swap7\n      pop\n      pop\n      pop\n      pop\n      pop\n      pop\n      pop\n      jump\t// out\n        /* \"EAGLEAI/EagleAI.sol\":42322:42713  function _takeLiquidity(uint256 tLiquidity) private {... */\n    tag_663:\n        /* \"EAGLEAI/EagleAI.sol\":42388:42407  uint256 currentRate */\n      0x00\n        /* \"EAGLEAI/EagleAI.sol\":42411:42421  _getRate() */\n      tag_742\n        /* \"EAGLEAI/EagleAI.sol\":42411:42419  _getRate */\n      tag_303\n        /* \"EAGLEAI/EagleAI.sol\":42411:42421  _getRate() */\n      jump\t// in\n    tag_742:\n        /* \"EAGLEAI/EagleAI.sol\":42388:42421  uint256 currentRate =  _getRate() */\n      swap1\n      pop\n        /* \"EAGLEAI/EagleAI.sol\":42432:42450  uint256 rLiquidity */\n      0x00\n        /* \"EAGLEAI/EagleAI.sol\":42453:42477  tLiquidity * currentRate */\n      tag_743\n        /* \"EAGLEAI/EagleAI.sol\":42388:42421  uint256 currentRate =  _getRate() */\n      dup3\n        /* \"EAGLEAI/EagleAI.sol\":42453:42463  tLiquidity */\n      dup5\n        /* \"EAGLEAI/EagleAI.sol\":42453:42477  tLiquidity * currentRate */\n      tag_645\n      jump\t// in\n    tag_743:\n        /* \"EAGLEAI/EagleAI.sol\":42529:42533  this */\n      address\n        /* \"EAGLEAI/EagleAI.sol\":42513:42535  _rOwned[address(this)] */\n      0x00\n      swap1\n      dup2\n      mstore\n        /* \"EAGLEAI/EagleAI.sol\":42513:42520  _rOwned */\n      0x02\n        /* \"EAGLEAI/EagleAI.sol\":42513:42535  _rOwned[address(this)] */\n      0x20\n      mstore\n      0x40\n      swap1\n      keccak256\n      sload\n        /* \"EAGLEAI/EagleAI.sol\":42432:42477  uint256 rLiquidity = tLiquidity * currentRate */\n      swap1\n      swap2\n      pop\n        /* \"EAGLEAI/EagleAI.sol\":42513:42548  _rOwned[address(this)] + rLiquidity */\n      tag_744\n      swap1\n        /* \"EAGLEAI/EagleAI.sol\":42432:42477  uint256 rLiquidity = tLiquidity * currentRate */\n      dup3\n      swap1\n        /* \"EAGLEAI/EagleAI.sol\":42513:42548  _rOwned[address(this)] + rLiquidity */\n      tag_339\n      jump\t// in\n    tag_744:\n        /* \"EAGLEAI/EagleAI.sol\":42504:42508  this */\n      address\n        /* \"EAGLEAI/EagleAI.sol\":42488:42510  _rOwned[address(this)] */\n      0x00\n      swap1\n      dup2\n      mstore\n        /* \"EAGLEAI/EagleAI.sol\":42488:42495  _rOwned */\n      0x02\n        /* \"EAGLEAI/EagleAI.sol\":42488:42510  _rOwned[address(this)] */\n      0x20\n      swap1\n      dup2\n      mstore\n      0x40\n      dup1\n      dup4\n      keccak256\n        /* \"EAGLEAI/EagleAI.sol\":42488:42548  _rOwned[address(this)] = _rOwned[address(this)] + rLiquidity */\n      swap4\n      swap1\n      swap4\n      sstore\n        /* \"EAGLEAI/EagleAI.sol\":42562:42573  _isExcluded */\n      0x07\n        /* \"EAGLEAI/EagleAI.sol\":42562:42588  _isExcluded[address(this)] */\n      swap1\n      mstore\n      keccak256\n      sload\n      0xff\n      and\n        /* \"EAGLEAI/EagleAI.sol\":42559:42663  if(_isExcluded[address(this)])... */\n      iszero\n      tag_745\n      jumpi\n        /* \"EAGLEAI/EagleAI.sol\":42644:42648  this */\n      address\n        /* \"EAGLEAI/EagleAI.sol\":42628:42650  _tOwned[address(this)] */\n      0x00\n      swap1\n      dup2\n      mstore\n        /* \"EAGLEAI/EagleAI.sol\":42628:42635  _tOwned */\n      0x03\n        /* \"EAGLEAI/EagleAI.sol\":42628:42650  _tOwned[address(this)] */\n      0x20\n      mstore\n      0x40\n      swap1\n      keccak256\n      sload\n        /* \"EAGLEAI/EagleAI.sol\":42628:42663  _tOwned[address(this)] + tLiquidity */\n      tag_746\n      swap1\n        /* \"EAGLEAI/EagleAI.sol\":42653:42663  tLiquidity */\n      dup5\n      swap1\n        /* \"EAGLEAI/EagleAI.sol\":42628:42663  _tOwned[address(this)] + tLiquidity */\n      tag_339\n      jump\t// in\n    tag_746:\n        /* \"EAGLEAI/EagleAI.sol\":42619:42623  this */\n      address\n        /* \"EAGLEAI/EagleAI.sol\":42603:42625  _tOwned[address(this)] */\n      0x00\n      swap1\n      dup2\n      mstore\n        /* \"EAGLEAI/EagleAI.sol\":42603:42610  _tOwned */\n      0x03\n        /* \"EAGLEAI/EagleAI.sol\":42603:42625  _tOwned[address(this)] */\n      0x20\n      mstore\n      0x40\n      swap1\n      keccak256\n        /* \"EAGLEAI/EagleAI.sol\":42603:42663  _tOwned[address(this)] = _tOwned[address(this)] + tLiquidity */\n      sstore\n        /* \"EAGLEAI/EagleAI.sol\":42559:42663  if(_isExcluded[address(this)])... */\n    tag_745:\n        /* \"EAGLEAI/EagleAI.sol\":42679:42705  AddedLiquidity(tLiquidity) */\n      mload(0x40)\n        /* \"#utility.yul\":1361:1386   */\n      dup4\n      dup2\n      mstore\n        /* \"EAGLEAI/EagleAI.sol\":42679:42705  AddedLiquidity(tLiquidity) */\n      0x3a8ab79f6d1537e459a1a8379f48a77e1ffd07dda4b16ea97074fdab5dd8bf34\n      swap1\n        /* \"#utility.yul\":1349:1351   */\n      0x20\n        /* \"#utility.yul\":1334:1352   */\n      add\n        /* \"EAGLEAI/EagleAI.sol\":42679:42705  AddedLiquidity(tLiquidity) */\n    tag_747:\n      mload(0x40)\n      dup1\n      swap2\n      sub\n      swap1\n      log1\n        /* \"EAGLEAI/EagleAI.sol\":42374:42713  {... */\n      pop\n      pop\n        /* \"EAGLEAI/EagleAI.sol\":42322:42713  function _takeLiquidity(uint256 tLiquidity) private {... */\n      pop\n      jump\t// out\n        /* \"EAGLEAI/EagleAI.sol\":34515:34859  function _reflectFee(uint256 rFee, uint256 tFee, uint256 tBurn) private {... */\n    tag_665:\n        /* \"EAGLEAI/EagleAI.sol\":34599:34618  uint256 currentRate */\n      0x00\n        /* \"EAGLEAI/EagleAI.sol\":34621:34631  _getRate() */\n      tag_749\n        /* \"EAGLEAI/EagleAI.sol\":34621:34629  _getRate */\n      tag_303\n        /* \"EAGLEAI/EagleAI.sol\":34621:34631  _getRate() */\n      jump\t// in\n    tag_749:\n        /* \"EAGLEAI/EagleAI.sol\":34599:34631  uint256 currentRate = _getRate() */\n      swap1\n      pop\n        /* \"EAGLEAI/EagleAI.sol\":34643:34656  uint256 rBurn */\n      0x00\n        /* \"EAGLEAI/EagleAI.sol\":34659:34678  tBurn * currentRate */\n      tag_750\n        /* \"EAGLEAI/EagleAI.sol\":34599:34631  uint256 currentRate = _getRate() */\n      dup3\n        /* \"EAGLEAI/EagleAI.sol\":34659:34664  tBurn */\n      dup5\n        /* \"EAGLEAI/EagleAI.sol\":34659:34678  tBurn * currentRate */\n      tag_645\n      jump\t// in\n    tag_750:\n        /* \"EAGLEAI/EagleAI.sol\":34643:34678  uint256 rBurn = tBurn * currentRate */\n      swap1\n      pop\n        /* \"EAGLEAI/EagleAI.sol\":34723:34728  rBurn */\n      dup1\n        /* \"EAGLEAI/EagleAI.sol\":34716:34720  rFee */\n      dup6\n        /* \"EAGLEAI/EagleAI.sol\":34706:34713  _rTotal */\n      sload(0x0a)\n        /* \"EAGLEAI/EagleAI.sol\":34706:34720  _rTotal - rFee */\n      tag_751\n      swap2\n      swap1\n      tag_287\n      jump\t// in\n    tag_751:\n        /* \"EAGLEAI/EagleAI.sol\":34706:34728  _rTotal - rFee - rBurn */\n      tag_752\n      swap2\n      swap1\n      tag_287\n      jump\t// in\n    tag_752:\n        /* \"EAGLEAI/EagleAI.sol\":34696:34703  _rTotal */\n      0x0a\n        /* \"EAGLEAI/EagleAI.sol\":34696:34728  _rTotal = _rTotal - rFee - rBurn */\n      sstore\n        /* \"EAGLEAI/EagleAI.sol\":34752:34762  _tFeeTotal */\n      sload(0x0b)\n        /* \"EAGLEAI/EagleAI.sol\":34752:34769  _tFeeTotal + tFee */\n      tag_753\n      swap1\n        /* \"EAGLEAI/EagleAI.sol\":34765:34769  tFee */\n      dup6\n      swap1\n        /* \"EAGLEAI/EagleAI.sol\":34752:34769  _tFeeTotal + tFee */\n      tag_339\n      jump\t// in\n    tag_753:\n        /* \"EAGLEAI/EagleAI.sol\":34739:34749  _tFeeTotal */\n      0x0b\n        /* \"EAGLEAI/EagleAI.sol\":34739:34769  _tFeeTotal = _tFeeTotal + tFee */\n      sstore\n        /* \"EAGLEAI/EagleAI.sol\":34792:34799  _tTotal */\n      sload(0x09)\n        /* \"EAGLEAI/EagleAI.sol\":34792:34807  _tTotal - tBurn */\n      tag_754\n      swap1\n        /* \"EAGLEAI/EagleAI.sol\":34802:34807  tBurn */\n      dup5\n      swap1\n        /* \"EAGLEAI/EagleAI.sol\":34792:34807  _tTotal - tBurn */\n      tag_287\n      jump\t// in\n    tag_754:\n        /* \"EAGLEAI/EagleAI.sol\":34782:34789  _tTotal */\n      0x09\n        /* \"EAGLEAI/EagleAI.sol\":34782:34807  _tTotal = _tTotal - tBurn */\n      sstore\n        /* \"EAGLEAI/EagleAI.sol\":34823:34841  ReflectedFee(tFee) */\n      mload(0x40)\n        /* \"#utility.yul\":1361:1386   */\n      dup5\n      dup2\n      mstore\n        /* \"EAGLEAI/EagleAI.sol\":34823:34841  ReflectedFee(tFee) */\n      0x56b5df500587465b57d8ce799cc562a294f136b75a13718c574d9d36bd828058\n      swap1\n        /* \"#utility.yul\":1349:1351   */\n      0x20\n        /* \"#utility.yul\":1334:1352   */\n      add\n        /* \"EAGLEAI/EagleAI.sol\":34823:34841  ReflectedFee(tFee) */\n      tag_454\n        /* \"#utility.yul\":1215:1392   */\n      jump\n        /* \"EAGLEAI/EagleAI.sol\":35496:35889  function _takeCoinFund(uint256 tCoinOperation) private {... */\n    tag_667:\n        /* \"EAGLEAI/EagleAI.sol\":35565:35584  uint256 currentRate */\n      0x00\n        /* \"EAGLEAI/EagleAI.sol\":35588:35598  _getRate() */\n      tag_757\n        /* \"EAGLEAI/EagleAI.sol\":35588:35596  _getRate */\n      tag_303\n        /* \"EAGLEAI/EagleAI.sol\":35588:35598  _getRate() */\n      jump\t// in\n    tag_757:\n        /* \"EAGLEAI/EagleAI.sol\":35565:35598  uint256 currentRate =  _getRate() */\n      swap1\n      pop\n        /* \"EAGLEAI/EagleAI.sol\":35609:35631  uint256 rCoinOperation */\n      0x00\n        /* \"EAGLEAI/EagleAI.sol\":35634:35662  tCoinOperation * currentRate */\n      tag_758\n        /* \"EAGLEAI/EagleAI.sol\":35565:35598  uint256 currentRate =  _getRate() */\n      dup3\n        /* \"EAGLEAI/EagleAI.sol\":35634:35648  tCoinOperation */\n      dup5\n        /* \"EAGLEAI/EagleAI.sol\":35634:35662  tCoinOperation * currentRate */\n      tag_645\n      jump\t// in\n    tag_758:\n        /* \"EAGLEAI/EagleAI.sol\":35703:35713  fundWallet */\n      and(sub(shl(0xa0, 0x01), 0x01), sload(0x1a))\n        /* \"EAGLEAI/EagleAI.sol\":35695:35714  _rOwned[fundWallet] */\n      0x00\n      swap1\n      dup2\n      mstore\n        /* \"EAGLEAI/EagleAI.sol\":35695:35702  _rOwned */\n      0x02\n        /* \"EAGLEAI/EagleAI.sol\":35695:35714  _rOwned[fundWallet] */\n      0x20\n      mstore\n      0x40\n      swap1\n      keccak256\n      sload\n        /* \"EAGLEAI/EagleAI.sol\":35609:35662  uint256 rCoinOperation = tCoinOperation * currentRate */\n      swap1\n      swap2\n      pop\n        /* \"EAGLEAI/EagleAI.sol\":35695:35731  _rOwned[fundWallet] + rCoinOperation */\n      tag_759\n      swap1\n        /* \"EAGLEAI/EagleAI.sol\":35609:35662  uint256 rCoinOperation = tCoinOperation * currentRate */\n      dup3\n      swap1\n        /* \"EAGLEAI/EagleAI.sol\":35695:35731  _rOwned[fundWallet] + rCoinOperation */\n      tag_339\n      jump\t// in\n    tag_759:\n        /* \"EAGLEAI/EagleAI.sol\":35681:35691  fundWallet */\n      0x1a\n      dup1\n      sload\n      sub(shl(0xa0, 0x01), 0x01)\n      swap1\n      dup2\n      and\n        /* \"EAGLEAI/EagleAI.sol\":35673:35692  _rOwned[fundWallet] */\n      0x00\n      swap1\n      dup2\n      mstore\n        /* \"EAGLEAI/EagleAI.sol\":35673:35680  _rOwned */\n      0x02\n        /* \"EAGLEAI/EagleAI.sol\":35673:35692  _rOwned[fundWallet] */\n      0x20\n      swap1\n      dup2\n      mstore\n      0x40\n      dup1\n      dup4\n      keccak256\n        /* \"EAGLEAI/EagleAI.sol\":35673:35731  _rOwned[fundWallet] = _rOwned[fundWallet] + rCoinOperation */\n      swap6\n      swap1\n      swap6\n      sstore\n        /* \"EAGLEAI/EagleAI.sol\":35757:35767  fundWallet */\n      swap3\n      sload\n      swap1\n      swap2\n      and\n        /* \"EAGLEAI/EagleAI.sol\":35745:35768  _isExcluded[fundWallet] */\n      dup2\n      mstore\n        /* \"EAGLEAI/EagleAI.sol\":35745:35756  _isExcluded */\n      0x07\n        /* \"EAGLEAI/EagleAI.sol\":35745:35768  _isExcluded[fundWallet] */\n      swap1\n      swap2\n      mstore\n      keccak256\n      sload\n      0xff\n      and\n        /* \"EAGLEAI/EagleAI.sol\":35742:35841  if(_isExcluded[fundWallet])... */\n      iszero\n      tag_760\n      jumpi\n        /* \"EAGLEAI/EagleAI.sol\":35813:35823  fundWallet */\n      and(sub(shl(0xa0, 0x01), 0x01), sload(0x1a))\n        /* \"EAGLEAI/EagleAI.sol\":35805:35824  _tOwned[fundWallet] */\n      0x00\n      swap1\n      dup2\n      mstore\n        /* \"EAGLEAI/EagleAI.sol\":35805:35812  _tOwned */\n      0x03\n        /* \"EAGLEAI/EagleAI.sol\":35805:35824  _tOwned[fundWallet] */\n      0x20\n      mstore\n      0x40\n      swap1\n      keccak256\n      sload\n        /* \"EAGLEAI/EagleAI.sol\":35805:35841  _tOwned[fundWallet] + tCoinOperation */\n      tag_761\n      swap1\n        /* \"EAGLEAI/EagleAI.sol\":35827:35841  tCoinOperation */\n      dup5\n      swap1\n        /* \"EAGLEAI/EagleAI.sol\":35805:35841  _tOwned[fundWallet] + tCoinOperation */\n      tag_339\n      jump\t// in\n    tag_761:\n        /* \"EAGLEAI/EagleAI.sol\":35791:35801  fundWallet */\n      and(sub(shl(0xa0, 0x01), 0x01), sload(0x1a))\n        /* \"EAGLEAI/EagleAI.sol\":35783:35802  _tOwned[fundWallet] */\n      0x00\n      swap1\n      dup2\n      mstore\n        /* \"EAGLEAI/EagleAI.sol\":35783:35790  _tOwned */\n      0x03\n        /* \"EAGLEAI/EagleAI.sol\":35783:35802  _tOwned[fundWallet] */\n      0x20\n      mstore\n      0x40\n      swap1\n      keccak256\n        /* \"EAGLEAI/EagleAI.sol\":35783:35841  _tOwned[fundWallet] = _tOwned[fundWallet] + tCoinOperation */\n      sstore\n        /* \"EAGLEAI/EagleAI.sol\":35742:35841  if(_isExcluded[fundWallet])... */\n    tag_760:\n        /* \"EAGLEAI/EagleAI.sol\":35857:35881  CoinFund(tCoinOperation) */\n      mload(0x40)\n        /* \"#utility.yul\":1361:1386   */\n      dup4\n      dup2\n      mstore\n        /* \"EAGLEAI/EagleAI.sol\":35857:35881  CoinFund(tCoinOperation) */\n      0x7a934c407238277f8cf36df7a2f4b5ef2eb3aa6190eeb615e32c02075a5730b0\n      swap1\n        /* \"#utility.yul\":1349:1351   */\n      0x20\n        /* \"#utility.yul\":1334:1352   */\n      add\n        /* \"EAGLEAI/EagleAI.sol\":35857:35881  CoinFund(tCoinOperation) */\n      tag_747\n        /* \"#utility.yul\":1215:1392   */\n      jump\n        /* \"#utility.yul\":14:562   */\n    tag_63:\n        /* \"#utility.yul\":126:130   */\n      0x00\n        /* \"#utility.yul\":155:157   */\n      0x20\n        /* \"#utility.yul\":184:186   */\n      dup1\n        /* \"#utility.yul\":173:182   */\n      dup4\n        /* \"#utility.yul\":166:187   */\n      mstore\n        /* \"#utility.yul\":216:222   */\n      dup4\n        /* \"#utility.yul\":210:223   */\n      mload\n        /* \"#utility.yul\":259:265   */\n      dup1\n        /* \"#utility.yul\":254:256   */\n      0x20\n        /* \"#utility.yul\":243:252   */\n      dup6\n        /* \"#utility.yul\":239:257   */\n      add\n        /* \"#utility.yul\":232:266   */\n      mstore\n        /* \"#utility.yul\":284:285   */\n      0x00\n        /* \"#utility.yul\":294:434   */\n    tag_769:\n        /* \"#utility.yul\":308:314   */\n      dup2\n        /* \"#utility.yul\":305:306   */\n      dup2\n        /* \"#utility.yul\":302:315   */\n      lt\n        /* \"#utility.yul\":294:434   */\n      iszero\n      tag_771\n      jumpi\n        /* \"#utility.yul\":403:417   */\n      dup6\n      dup2\n      add\n        /* \"#utility.yul\":399:422   */\n      dup4\n      add\n        /* \"#utility.yul\":393:423   */\n      mload\n        /* \"#utility.yul\":369:386   */\n      dup6\n      dup3\n      add\n        /* \"#utility.yul\":388:390   */\n      0x40\n        /* \"#utility.yul\":365:391   */\n      add\n        /* \"#utility.yul\":358:424   */\n      mstore\n        /* \"#utility.yul\":323:333   */\n      dup3\n      add\n        /* \"#utility.yul\":294:434   */\n      jump(tag_769)\n    tag_771:\n        /* \"#utility.yul\":298:301   */\n      pop\n        /* \"#utility.yul\":483:484   */\n      0x00\n        /* \"#utility.yul\":478:480   */\n      0x40\n        /* \"#utility.yul\":469:475   */\n      dup3\n        /* \"#utility.yul\":458:467   */\n      dup7\n        /* \"#utility.yul\":454:476   */\n      add\n        /* \"#utility.yul\":450:481   */\n      add\n        /* \"#utility.yul\":443:485   */\n      mstore\n        /* \"#utility.yul\":553:555   */\n      0x40\n        /* \"#utility.yul\":546:548   */\n      0x1f\n        /* \"#utility.yul\":542:549   */\n      not\n        /* \"#utility.yul\":537:539   */\n      0x1f\n        /* \"#utility.yul\":529:535   */\n      dup4\n        /* \"#utility.yul\":525:540   */\n      add\n        /* \"#utility.yul\":521:550   */\n      and\n        /* \"#utility.yul\":510:519   */\n      dup6\n        /* \"#utility.yul\":506:551   */\n      add\n        /* \"#utility.yul\":502:556   */\n      add\n        /* \"#utility.yul\":494:556   */\n      swap3\n      pop\n      pop\n      pop\n        /* \"#utility.yul\":14:562   */\n      swap3\n      swap2\n      pop\n      pop\n      jump\t// out\n        /* \"#utility.yul\":567:698   */\n    tag_763:\n      sub(shl(0xa0, 0x01), 0x01)\n        /* \"#utility.yul\":642:673   */\n      dup2\n      and\n        /* \"#utility.yul\":632:674   */\n      dup2\n      eq\n        /* \"#utility.yul\":622:692   */\n      tag_773\n      jumpi\n        /* \"#utility.yul\":688:689   */\n      0x00\n        /* \"#utility.yul\":685:686   */\n      dup1\n        /* \"#utility.yul\":678:690   */\n      revert\n        /* \"#utility.yul\":622:692   */\n    tag_773:\n        /* \"#utility.yul\":567:698   */\n      pop\n      jump\t// out\n        /* \"#utility.yul\":703:1018   */\n    tag_67:\n        /* \"#utility.yul\":771:777   */\n      0x00\n        /* \"#utility.yul\":779:785   */\n      dup1\n        /* \"#utility.yul\":832:834   */\n      0x40\n        /* \"#utility.yul\":820:829   */\n      dup4\n        /* \"#utility.yul\":811:818   */\n      dup6\n        /* \"#utility.yul\":807:830   */\n      sub\n        /* \"#utility.yul\":803:835   */\n      slt\n        /* \"#utility.yul\":800:852   */\n      iszero\n      tag_775\n      jumpi\n        /* \"#utility.yul\":848:849   */\n      0x00\n        /* \"#utility.yul\":845:846   */\n      dup1\n        /* \"#utility.yul\":838:850   */\n      revert\n        /* \"#utility.yul\":800:852   */\n    tag_775:\n        /* \"#utility.yul\":887:896   */\n      dup3\n        /* \"#utility.yul\":874:897   */\n      calldataload\n        /* \"#utility.yul\":906:937   */\n      tag_776\n        /* \"#utility.yul\":931:936   */\n      dup2\n        /* \"#utility.yul\":906:937   */\n      tag_763\n      jump\t// in\n    tag_776:\n        /* \"#utility.yul\":956:961   */\n      swap5\n        /* \"#utility.yul\":1008:1010   */\n      0x20\n        /* \"#utility.yul\":993:1011   */\n      swap4\n      swap1\n      swap4\n      add\n        /* \"#utility.yul\":980:1012   */\n      calldataload\n      swap4\n      pop\n      pop\n      pop\n        /* \"#utility.yul\":703:1018   */\n      jump\t// out\n        /* \"#utility.yul\":1631:2087   */\n    tag_88:\n        /* \"#utility.yul\":1708:1714   */\n      0x00\n        /* \"#utility.yul\":1716:1722   */\n      dup1\n        /* \"#utility.yul\":1724:1730   */\n      0x00\n        /* \"#utility.yul\":1777:1779   */\n      0x60\n        /* \"#utility.yul\":1765:1774   */\n      dup5\n        /* \"#utility.yul\":1756:1763   */\n      dup7\n        /* \"#utility.yul\":1752:1775   */\n      sub\n        /* \"#utility.yul\":1748:1780   */\n      slt\n        /* \"#utility.yul\":1745:1797   */\n      iszero\n      tag_781\n      jumpi\n        /* \"#utility.yul\":1793:1794   */\n      0x00\n        /* \"#utility.yul\":1790:1791   */\n      dup1\n        /* \"#utility.yul\":1783:1795   */\n      revert\n        /* \"#utility.yul\":1745:1797   */\n    tag_781:\n        /* \"#utility.yul\":1832:1841   */\n      dup4\n        /* \"#utility.yul\":1819:1842   */\n      calldataload\n        /* \"#utility.yul\":1851:1882   */\n      tag_782\n        /* \"#utility.yul\":1876:1881   */\n      dup2\n        /* \"#utility.yul\":1851:1882   */\n      tag_763\n      jump\t// in\n    tag_782:\n        /* \"#utility.yul\":1901:1906   */\n      swap3\n      pop\n        /* \"#utility.yul\":1958:1960   */\n      0x20\n        /* \"#utility.yul\":1943:1961   */\n      dup5\n      add\n        /* \"#utility.yul\":1930:1962   */\n      calldataload\n        /* \"#utility.yul\":1971:2004   */\n      tag_783\n        /* \"#utility.yul\":1930:1962   */\n      dup2\n        /* \"#utility.yul\":1971:2004   */\n      tag_763\n      jump\t// in\n    tag_783:\n        /* \"#utility.yul\":1631:2087   */\n      swap3\n      swap6\n        /* \"#utility.yul\":2023:2030   */\n      swap3\n      swap5\n      pop\n      pop\n      pop\n        /* \"#utility.yul\":2077:2079   */\n      0x40\n        /* \"#utility.yul\":2062:2080   */\n      swap2\n      swap1\n      swap2\n      add\n        /* \"#utility.yul\":2049:2081   */\n      calldataload\n      swap1\n        /* \"#utility.yul\":1631:2087   */\n      jump\t// out\n        /* \"#utility.yul\":2092:2272   */\n    tag_105:\n        /* \"#utility.yul\":2151:2157   */\n      0x00\n        /* \"#utility.yul\":2204:2206   */\n      0x20\n        /* \"#utility.yul\":2192:2201   */\n      dup3\n        /* \"#utility.yul\":2183:2190   */\n      dup5\n        /* \"#utility.yul\":2179:2202   */\n      sub\n        /* \"#utility.yul\":2175:2207   */\n      slt\n        /* \"#utility.yul\":2172:2224   */\n      iszero\n      tag_785\n      jumpi\n        /* \"#utility.yul\":2220:2221   */\n      0x00\n        /* \"#utility.yul\":2217:2218   */\n      dup1\n        /* \"#utility.yul\":2210:2222   */\n      revert\n        /* \"#utility.yul\":2172:2224   */\n    tag_785:\n      pop\n        /* \"#utility.yul\":2243:2266   */\n      calldataload\n      swap2\n        /* \"#utility.yul\":2092:2272   */\n      swap1\n      pop\n      jump\t// out\n        /* \"#utility.yul\":2466:2713   */\n    tag_116:\n        /* \"#utility.yul\":2525:2531   */\n      0x00\n        /* \"#utility.yul\":2578:2580   */\n      0x20\n        /* \"#utility.yul\":2566:2575   */\n      dup3\n        /* \"#utility.yul\":2557:2564   */\n      dup5\n        /* \"#utility.yul\":2553:2576   */\n      sub\n        /* \"#utility.yul\":2549:2581   */\n      slt\n        /* \"#utility.yul\":2546:2598   */\n      iszero\n      tag_788\n      jumpi\n        /* \"#utility.yul\":2594:2595   */\n      0x00\n        /* \"#utility.yul\":2591:2592   */\n      dup1\n        /* \"#utility.yul\":2584:2596   */\n      revert\n        /* \"#utility.yul\":2546:2598   */\n    tag_788:\n        /* \"#utility.yul\":2633:2642   */\n      dup2\n        /* \"#utility.yul\":2620:2643   */\n      calldataload\n        /* \"#utility.yul\":2652:2683   */\n      tag_304\n        /* \"#utility.yul\":2677:2682   */\n      dup2\n        /* \"#utility.yul\":2652:2683   */\n      tag_763\n      jump\t// in\n        /* \"#utility.yul\":2718:2878   */\n    tag_764:\n        /* \"#utility.yul\":2783:2803   */\n      dup1\n      calldataload\n        /* \"#utility.yul\":2839:2852   */\n      dup1\n      iszero\n        /* \"#utility.yul\":2832:2853   */\n      iszero\n        /* \"#utility.yul\":2822:2854   */\n      dup2\n      eq\n        /* \"#utility.yul\":2812:2872   */\n      tag_791\n      jumpi\n        /* \"#utility.yul\":2868:2869   */\n      0x00\n        /* \"#utility.yul\":2865:2866   */\n      dup1\n        /* \"#utility.yul\":2858:2870   */\n      revert\n        /* \"#utility.yul\":2812:2872   */\n    tag_791:\n        /* \"#utility.yul\":2718:2878   */\n      swap2\n      swap1\n      pop\n      jump\t// out\n        /* \"#utility.yul\":2883:3131   */\n    tag_134:\n        /* \"#utility.yul\":2948:2954   */\n      0x00\n        /* \"#utility.yul\":2956:2962   */\n      dup1\n        /* \"#utility.yul\":3009:3011   */\n      0x40\n        /* \"#utility.yul\":2997:3006   */\n      dup4\n        /* \"#utility.yul\":2988:2995   */\n      dup6\n        /* \"#utility.yul\":2984:3007   */\n      sub\n        /* \"#utility.yul\":2980:3012   */\n      slt\n        /* \"#utility.yul\":2977:3029   */\n      iszero\n      tag_793\n      jumpi\n        /* \"#utility.yul\":3025:3026   */\n      0x00\n        /* \"#utility.yul\":3022:3023   */\n      dup1\n        /* \"#utility.yul\":3015:3027   */\n      revert\n        /* \"#utility.yul\":2977:3029   */\n    tag_793:\n        /* \"#utility.yul\":3061:3070   */\n      dup3\n        /* \"#utility.yul\":3048:3071   */\n      calldataload\n        /* \"#utility.yul\":3038:3071   */\n      swap2\n      pop\n        /* \"#utility.yul\":3090:3125   */\n      tag_794\n        /* \"#utility.yul\":3121:3123   */\n      0x20\n        /* \"#utility.yul\":3110:3119   */\n      dup5\n        /* \"#utility.yul\":3106:3124   */\n      add\n        /* \"#utility.yul\":3090:3125   */\n      tag_764\n      jump\t// in\n    tag_794:\n        /* \"#utility.yul\":3080:3125   */\n      swap1\n      pop\n        /* \"#utility.yul\":2883:3131   */\n      swap3\n      pop\n      swap3\n      swap1\n      pop\n      jump\t// out\n        /* \"#utility.yul\":3344:3711   */\n    tag_765:\n        /* \"#utility.yul\":3407:3415   */\n      0x00\n        /* \"#utility.yul\":3417:3423   */\n      dup1\n        /* \"#utility.yul\":3471:3474   */\n      dup4\n        /* \"#utility.yul\":3464:3468   */\n      0x1f\n        /* \"#utility.yul\":3456:3462   */\n      dup5\n        /* \"#utility.yul\":3452:3469   */\n      add\n        /* \"#utility.yul\":3448:3475   */\n      slt\n        /* \"#utility.yul\":3438:3493   */\n      tag_797\n      jumpi\n        /* \"#utility.yul\":3489:3490   */\n      0x00\n        /* \"#utility.yul\":3486:3487   */\n      dup1\n        /* \"#utility.yul\":3479:3491   */\n      revert\n        /* \"#utility.yul\":3438:3493   */\n    tag_797:\n      pop\n        /* \"#utility.yul\":3512:3532   */\n      dup2\n      calldataload\n        /* \"#utility.yul\":3555:3573   */\n      0xffffffffffffffff\n        /* \"#utility.yul\":3544:3574   */\n      dup2\n      gt\n        /* \"#utility.yul\":3541:3591   */\n      iszero\n      tag_798\n      jumpi\n        /* \"#utility.yul\":3587:3588   */\n      0x00\n        /* \"#utility.yul\":3584:3585   */\n      dup1\n        /* \"#utility.yul\":3577:3589   */\n      revert\n        /* \"#utility.yul\":3541:3591   */\n    tag_798:\n        /* \"#utility.yul\":3624:3628   */\n      0x20\n        /* \"#utility.yul\":3616:3622   */\n      dup4\n        /* \"#utility.yul\":3612:3629   */\n      add\n        /* \"#utility.yul\":3600:3629   */\n      swap2\n      pop\n        /* \"#utility.yul\":3684:3687   */\n      dup4\n        /* \"#utility.yul\":3677:3681   */\n      0x20\n        /* \"#utility.yul\":3667:3673   */\n      dup3\n        /* \"#utility.yul\":3664:3665   */\n      0x05\n        /* \"#utility.yul\":3660:3674   */\n      shl\n        /* \"#utility.yul\":3652:3658   */\n      dup6\n        /* \"#utility.yul\":3648:3675   */\n      add\n        /* \"#utility.yul\":3644:3682   */\n      add\n        /* \"#utility.yul\":3641:3688   */\n      gt\n        /* \"#utility.yul\":3638:3705   */\n      iszero\n      tag_799\n      jumpi\n        /* \"#utility.yul\":3701:3702   */\n      0x00\n        /* \"#utility.yul\":3698:3699   */\n      dup1\n        /* \"#utility.yul\":3691:3703   */\n      revert\n        /* \"#utility.yul\":3638:3705   */\n    tag_799:\n        /* \"#utility.yul\":3344:3711   */\n      swap3\n      pop\n      swap3\n      swap1\n      pop\n      jump\t// out\n        /* \"#utility.yul\":3716:4489   */\n    tag_174:\n        /* \"#utility.yul\":3838:3844   */\n      0x00\n        /* \"#utility.yul\":3846:3852   */\n      dup1\n        /* \"#utility.yul\":3854:3860   */\n      0x00\n        /* \"#utility.yul\":3862:3868   */\n      dup1\n        /* \"#utility.yul\":3915:3917   */\n      0x40\n        /* \"#utility.yul\":3903:3912   */\n      dup6\n        /* \"#utility.yul\":3894:3901   */\n      dup8\n        /* \"#utility.yul\":3890:3913   */\n      sub\n        /* \"#utility.yul\":3886:3918   */\n      slt\n        /* \"#utility.yul\":3883:3935   */\n      iszero\n      tag_801\n      jumpi\n        /* \"#utility.yul\":3931:3932   */\n      0x00\n        /* \"#utility.yul\":3928:3929   */\n      dup1\n        /* \"#utility.yul\":3921:3933   */\n      revert\n        /* \"#utility.yul\":3883:3935   */\n    tag_801:\n        /* \"#utility.yul\":3971:3980   */\n      dup5\n        /* \"#utility.yul\":3958:3981   */\n      calldataload\n        /* \"#utility.yul\":4000:4018   */\n      0xffffffffffffffff\n        /* \"#utility.yul\":4041:4043   */\n      dup1\n        /* \"#utility.yul\":4033:4039   */\n      dup3\n        /* \"#utility.yul\":4030:4044   */\n      gt\n        /* \"#utility.yul\":4027:4061   */\n      iszero\n      tag_802\n      jumpi\n        /* \"#utility.yul\":4057:4058   */\n      0x00\n        /* \"#utility.yul\":4054:4055   */\n      dup1\n        /* \"#utility.yul\":4047:4059   */\n      revert\n        /* \"#utility.yul\":4027:4061   */\n    tag_802:\n        /* \"#utility.yul\":4096:4166   */\n      tag_803\n        /* \"#utility.yul\":4158:4165   */\n      dup9\n        /* \"#utility.yul\":4149:4155   */\n      dup4\n        /* \"#utility.yul\":4138:4147   */\n      dup10\n        /* \"#utility.yul\":4134:4156   */\n      add\n        /* \"#utility.yul\":4096:4166   */\n      tag_765\n      jump\t// in\n    tag_803:\n        /* \"#utility.yul\":4185:4193   */\n      swap1\n      swap7\n      pop\n        /* \"#utility.yul\":4070:4166   */\n      swap5\n      pop\n        /* \"#utility.yul\":4273:4275   */\n      0x20\n        /* \"#utility.yul\":4258:4276   */\n      dup8\n      add\n        /* \"#utility.yul\":4245:4277   */\n      calldataload\n      swap2\n      pop\n        /* \"#utility.yul\":4289:4305   */\n      dup1\n      dup3\n      gt\n        /* \"#utility.yul\":4286:4322   */\n      iszero\n      tag_804\n      jumpi\n        /* \"#utility.yul\":4318:4319   */\n      0x00\n        /* \"#utility.yul\":4315:4316   */\n      dup1\n        /* \"#utility.yul\":4308:4320   */\n      revert\n        /* \"#utility.yul\":4286:4322   */\n    tag_804:\n      pop\n        /* \"#utility.yul\":4357:4429   */\n      tag_805\n        /* \"#utility.yul\":4421:4428   */\n      dup8\n        /* \"#utility.yul\":4410:4418   */\n      dup3\n        /* \"#utility.yul\":4399:4408   */\n      dup9\n        /* \"#utility.yul\":4395:4419   */\n      add\n        /* \"#utility.yul\":4357:4429   */\n      tag_765\n      jump\t// in\n    tag_805:\n        /* \"#utility.yul\":3716:4489   */\n      swap6\n      swap9\n      swap5\n      swap8\n      pop\n        /* \"#utility.yul\":4448:4456   */\n      swap6\n      pop\n      pop\n      pop\n      pop\n        /* \"#utility.yul\":3716:4489   */\n      jump\t// out\n        /* \"#utility.yul\":4494:4879   */\n    tag_214:\n        /* \"#utility.yul\":4580:4586   */\n      0x00\n        /* \"#utility.yul\":4588:4594   */\n      dup1\n        /* \"#utility.yul\":4596:4602   */\n      0x00\n        /* \"#utility.yul\":4604:4610   */\n      dup1\n        /* \"#utility.yul\":4657:4660   */\n      0x80\n        /* \"#utility.yul\":4645:4654   */\n      dup6\n        /* \"#utility.yul\":4636:4643   */\n      dup8\n        /* \"#utility.yul\":4632:4655   */\n      sub\n        /* \"#utility.yul\":4628:4661   */\n      slt\n        /* \"#utility.yul\":4625:4678   */\n      iszero\n      tag_807\n      jumpi\n        /* \"#utility.yul\":4674:4675   */\n      0x00\n        /* \"#utility.yul\":4671:4672   */\n      dup1\n        /* \"#utility.yul\":4664:4676   */\n      revert\n        /* \"#utility.yul\":4625:4678   */\n    tag_807:\n      pop\n      pop\n        /* \"#utility.yul\":4697:4720   */\n      dup3\n      calldataload\n      swap5\n        /* \"#utility.yul\":4767:4769   */\n      0x20\n        /* \"#utility.yul\":4752:4770   */\n      dup5\n      add\n        /* \"#utility.yul\":4739:4771   */\n      calldataload\n      swap5\n      pop\n        /* \"#utility.yul\":4818:4820   */\n      0x40\n        /* \"#utility.yul\":4803:4821   */\n      dup5\n      add\n        /* \"#utility.yul\":4790:4822   */\n      calldataload\n      swap4\n        /* \"#utility.yul\":4869:4871   */\n      0x60\n        /* \"#utility.yul\":4854:4872   */\n      add\n        /* \"#utility.yul\":4841:4873   */\n      calldataload\n      swap3\n      pop\n        /* \"#utility.yul\":4494:4879   */\n      swap1\n      pop\n      jump\t// out\n        /* \"#utility.yul\":4884:5064   */\n    tag_223:\n        /* \"#utility.yul\":4940:4946   */\n      0x00\n        /* \"#utility.yul\":4993:4995   */\n      0x20\n        /* \"#utility.yul\":4981:4990   */\n      dup3\n        /* \"#utility.yul\":4972:4979   */\n      dup5\n        /* \"#utility.yul\":4968:4991   */\n      sub\n        /* \"#utility.yul\":4964:4996   */\n      slt\n        /* \"#utility.yul\":4961:5013   */\n      iszero\n      tag_809\n      jumpi\n        /* \"#utility.yul\":5009:5010   */\n      0x00\n        /* \"#utility.yul\":5006:5007   */\n      dup1\n        /* \"#utility.yul\":4999:5011   */\n      revert\n        /* \"#utility.yul\":4961:5013   */\n    tag_809:\n        /* \"#utility.yul\":5032:5058   */\n      tag_304\n        /* \"#utility.yul\":5048:5057   */\n      dup3\n        /* \"#utility.yul\":5032:5058   */\n      tag_764\n      jump\t// in\n        /* \"#utility.yul\":5069:5457   */\n    tag_241:\n        /* \"#utility.yul\":5137:5143   */\n      0x00\n        /* \"#utility.yul\":5145:5151   */\n      dup1\n        /* \"#utility.yul\":5198:5200   */\n      0x40\n        /* \"#utility.yul\":5186:5195   */\n      dup4\n        /* \"#utility.yul\":5177:5184   */\n      dup6\n        /* \"#utility.yul\":5173:5196   */\n      sub\n        /* \"#utility.yul\":5169:5201   */\n      slt\n        /* \"#utility.yul\":5166:5218   */\n      iszero\n      tag_812\n      jumpi\n        /* \"#utility.yul\":5214:5215   */\n      0x00\n        /* \"#utility.yul\":5211:5212   */\n      dup1\n        /* \"#utility.yul\":5204:5216   */\n      revert\n        /* \"#utility.yul\":5166:5218   */\n    tag_812:\n        /* \"#utility.yul\":5253:5262   */\n      dup3\n        /* \"#utility.yul\":5240:5263   */\n      calldataload\n        /* \"#utility.yul\":5272:5303   */\n      tag_813\n        /* \"#utility.yul\":5297:5302   */\n      dup2\n        /* \"#utility.yul\":5272:5303   */\n      tag_763\n      jump\t// in\n    tag_813:\n        /* \"#utility.yul\":5322:5327   */\n      swap2\n      pop\n        /* \"#utility.yul\":5379:5381   */\n      0x20\n        /* \"#utility.yul\":5364:5382   */\n      dup4\n      add\n        /* \"#utility.yul\":5351:5383   */\n      calldataload\n        /* \"#utility.yul\":5392:5425   */\n      tag_814\n        /* \"#utility.yul\":5351:5383   */\n      dup2\n        /* \"#utility.yul\":5392:5425   */\n      tag_763\n      jump\t// in\n    tag_814:\n        /* \"#utility.yul\":5444:5451   */\n      dup1\n        /* \"#utility.yul\":5434:5451   */\n      swap2\n      pop\n      pop\n        /* \"#utility.yul\":5069:5457   */\n      swap3\n      pop\n      swap3\n      swap1\n      pop\n      jump\t// out\n        /* \"#utility.yul\":5462:5589   */\n    tag_766:\n        /* \"#utility.yul\":5523:5533   */\n      0x4e487b71\n        /* \"#utility.yul\":5518:5521   */\n      0xe0\n        /* \"#utility.yul\":5514:5534   */\n      shl\n        /* \"#utility.yul\":5511:5512   */\n      0x00\n        /* \"#utility.yul\":5504:5535   */\n      mstore\n        /* \"#utility.yul\":5554:5558   */\n      0x11\n        /* \"#utility.yul\":5551:5552   */\n      0x04\n        /* \"#utility.yul\":5544:5559   */\n      mstore\n        /* \"#utility.yul\":5578:5582   */\n      0x24\n        /* \"#utility.yul\":5575:5576   */\n      0x00\n        /* \"#utility.yul\":5568:5583   */\n      revert\n        /* \"#utility.yul\":5594:5722   */\n    tag_287:\n        /* \"#utility.yul\":5661:5670   */\n      dup2\n      dup2\n      sub\n        /* \"#utility.yul\":5682:5693   */\n      dup2\n      dup2\n      gt\n        /* \"#utility.yul\":5679:5716   */\n      iszero\n      tag_273\n      jumpi\n        /* \"#utility.yul\":5696:5714   */\n      tag_273\n      tag_766\n      jump\t// in\n        /* \"#utility.yul\":5727:6083   */\n    tag_292:\n        /* \"#utility.yul\":5929:5931   */\n      0x20\n        /* \"#utility.yul\":5911:5932   */\n      dup1\n      dup3\n      mstore\n        /* \"#utility.yul\":5948:5966   */\n      dup2\n      dup2\n      add\n        /* \"#utility.yul\":5941:5971   */\n      mstore\n        /* \"#utility.yul\":6007:6041   */\n      0x4f776e61626c653a2063616c6c6572206973206e6f7420746865206f776e6572\n        /* \"#utility.yul\":6002:6004   */\n      0x40\n        /* \"#utility.yul\":5987:6005   */\n      dup3\n      add\n        /* \"#utility.yul\":5980:6042   */\n      mstore\n        /* \"#utility.yul\":6074:6076   */\n      0x60\n        /* \"#utility.yul\":6059:6077   */\n      add\n      swap1\n        /* \"#utility.yul\":5727:6083   */\n      jump\t// out\n        /* \"#utility.yul\":6851:7068   */\n    tag_305:\n        /* \"#utility.yul\":6891:6892   */\n      0x00\n        /* \"#utility.yul\":6917:6918   */\n      dup3\n        /* \"#utility.yul\":6907:7039   */\n      tag_823\n      jumpi\n        /* \"#utility.yul\":6961:6971   */\n      0x4e487b71\n        /* \"#utility.yul\":6956:6959   */\n      0xe0\n        /* \"#utility.yul\":6952:6972   */\n      shl\n        /* \"#utility.yul\":6949:6950   */\n      0x00\n        /* \"#utility.yul\":6942:6973   */\n      mstore\n        /* \"#utility.yul\":6996:7000   */\n      0x12\n        /* \"#utility.yul\":6993:6994   */\n      0x04\n        /* \"#utility.yul\":6986:7001   */\n      mstore\n        /* \"#utility.yul\":7024:7028   */\n      0x24\n        /* \"#utility.yul\":7021:7022   */\n      0x00\n        /* \"#utility.yul\":7014:7029   */\n      revert\n        /* \"#utility.yul\":6907:7039   */\n    tag_823:\n      pop\n        /* \"#utility.yul\":7053:7062   */\n      div\n      swap1\n        /* \"#utility.yul\":6851:7068   */\n      jump\t// out\n        /* \"#utility.yul\":7429:7556   */\n    tag_320:\n        /* \"#utility.yul\":7490:7500   */\n      0x4e487b71\n        /* \"#utility.yul\":7485:7488   */\n      0xe0\n        /* \"#utility.yul\":7481:7501   */\n      shl\n        /* \"#utility.yul\":7478:7479   */\n      0x00\n        /* \"#utility.yul\":7471:7502   */\n      mstore\n        /* \"#utility.yul\":7521:7525   */\n      0x32\n        /* \"#utility.yul\":7518:7519   */\n      0x04\n        /* \"#utility.yul\":7511:7526   */\n      mstore\n        /* \"#utility.yul\":7545:7549   */\n      0x24\n        /* \"#utility.yul\":7542:7543   */\n      0x00\n        /* \"#utility.yul\":7535:7550   */\n      revert\n        /* \"#utility.yul\":7561:7688   */\n    tag_332:\n        /* \"#utility.yul\":7622:7632   */\n      0x4e487b71\n        /* \"#utility.yul\":7617:7620   */\n      0xe0\n        /* \"#utility.yul\":7613:7633   */\n      shl\n        /* \"#utility.yul\":7610:7611   */\n      0x00\n        /* \"#utility.yul\":7603:7634   */\n      mstore\n        /* \"#utility.yul\":7653:7657   */\n      0x31\n        /* \"#utility.yul\":7650:7651   */\n      0x04\n        /* \"#utility.yul\":7643:7658   */\n      mstore\n        /* \"#utility.yul\":7677:7681   */\n      0x24\n        /* \"#utility.yul\":7674:7675   */\n      0x00\n        /* \"#utility.yul\":7667:7682   */\n      revert\n        /* \"#utility.yul\":7693:7818   */\n    tag_339:\n        /* \"#utility.yul\":7758:7767   */\n      dup1\n      dup3\n      add\n        /* \"#utility.yul\":7779:7789   */\n      dup1\n      dup3\n      gt\n        /* \"#utility.yul\":7776:7812   */\n      iszero\n      tag_273\n      jumpi\n        /* \"#utility.yul\":7792:7810   */\n      tag_273\n      tag_766\n      jump\t// in\n        /* \"#utility.yul\":16937:17105   */\n    tag_645:\n        /* \"#utility.yul\":17010:17019   */\n      dup1\n      dup3\n      mul\n        /* \"#utility.yul\":17041:17050   */\n      dup2\n      iszero\n        /* \"#utility.yul\":17058:17073   */\n      dup3\n      dup3\n      div\n        /* \"#utility.yul\":17052:17074   */\n      dup5\n      eq\n        /* \"#utility.yul\":17038:17075   */\n      or\n        /* \"#utility.yul\":17028:17099   */\n      tag_273\n      jumpi\n        /* \"#utility.yul\":17079:17097   */\n      tag_273\n      tag_766\n      jump\t// in\n        /* \"#utility.yul\":17242:17493   */\n    tag_709:\n        /* \"#utility.yul\":17312:17318   */\n      0x00\n        /* \"#utility.yul\":17365:17367   */\n      0x20\n        /* \"#utility.yul\":17353:17362   */\n      dup3\n        /* \"#utility.yul\":17344:17351   */\n      dup5\n        /* \"#utility.yul\":17340:17363   */\n      sub\n        /* \"#utility.yul\":17336:17368   */\n      slt\n        /* \"#utility.yul\":17333:17385   */\n      iszero\n      tag_859\n      jumpi\n        /* \"#utility.yul\":17381:17382   */\n      0x00\n        /* \"#utility.yul\":17378:17379   */\n      dup1\n        /* \"#utility.yul\":17371:17383   */\n      revert\n        /* \"#utility.yul\":17333:17385   */\n    tag_859:\n        /* \"#utility.yul\":17413:17422   */\n      dup2\n        /* \"#utility.yul\":17407:17423   */\n      mload\n        /* \"#utility.yul\":17432:17463   */\n      tag_304\n        /* \"#utility.yul\":17457:17462   */\n      dup2\n        /* \"#utility.yul\":17432:17463   */\n      tag_763\n      jump\t// in\n        /* \"#utility.yul\":17498:18478   */\n    tag_714:\n        /* \"#utility.yul\":17760:17764   */\n      0x00\n        /* \"#utility.yul\":17808:17811   */\n      0xa0\n        /* \"#utility.yul\":17797:17806   */\n      dup3\n        /* \"#utility.yul\":17793:17812   */\n      add\n        /* \"#utility.yul\":17839:17845   */\n      dup8\n        /* \"#utility.yul\":17828:17837   */\n      dup4\n        /* \"#utility.yul\":17821:17846   */\n      mstore\n        /* \"#utility.yul\":17865:17867   */\n      0x20\n        /* \"#utility.yul\":17903:17909   */\n      dup8\n        /* \"#utility.yul\":17898:17900   */\n      0x20\n        /* \"#utility.yul\":17887:17896   */\n      dup6\n        /* \"#utility.yul\":17883:17901   */\n      add\n        /* \"#utility.yul\":17876:17910   */\n      mstore\n        /* \"#utility.yul\":17946:17949   */\n      0xa0\n        /* \"#utility.yul\":17941:17943   */\n      0x40\n        /* \"#utility.yul\":17930:17939   */\n      dup6\n        /* \"#utility.yul\":17926:17944   */\n      add\n        /* \"#utility.yul\":17919:17950   */\n      mstore\n        /* \"#utility.yul\":17970:17976   */\n      dup2\n        /* \"#utility.yul\":18005:18011   */\n      dup8\n        /* \"#utility.yul\":17999:18012   */\n      mload\n        /* \"#utility.yul\":18036:18042   */\n      dup1\n        /* \"#utility.yul\":18028:18034   */\n      dup5\n        /* \"#utility.yul\":18021:18043   */\n      mstore\n        /* \"#utility.yul\":18074:18077   */\n      0xc0\n        /* \"#utility.yul\":18063:18072   */\n      dup7\n        /* \"#utility.yul\":18059:18078   */\n      add\n        /* \"#utility.yul\":18052:18078   */\n      swap2\n      pop\n        /* \"#utility.yul\":18113:18115   */\n      0x20\n        /* \"#utility.yul\":18105:18111   */\n      dup10\n        /* \"#utility.yul\":18101:18116   */\n      add\n        /* \"#utility.yul\":18087:18116   */\n      swap4\n      pop\n        /* \"#utility.yul\":18134:18135   */\n      0x00\n        /* \"#utility.yul\":18144:18339   */\n    tag_862:\n        /* \"#utility.yul\":18158:18164   */\n      dup2\n        /* \"#utility.yul\":18155:18156   */\n      dup2\n        /* \"#utility.yul\":18152:18165   */\n      lt\n        /* \"#utility.yul\":18144:18339   */\n      iszero\n      tag_864\n      jumpi\n        /* \"#utility.yul\":18223:18236   */\n      dup5\n      mload\n      sub(shl(0xa0, 0x01), 0x01)\n        /* \"#utility.yul\":18219:18258   */\n      and\n        /* \"#utility.yul\":18207:18259   */\n      dup4\n      mstore\n        /* \"#utility.yul\":18314:18329   */\n      swap4\n      dup4\n      add\n      swap4\n        /* \"#utility.yul\":18279:18291   */\n      swap2\n      dup4\n      add\n      swap2\n        /* \"#utility.yul\":18255:18256   */\n      0x01\n        /* \"#utility.yul\":18173:18182   */\n      add\n        /* \"#utility.yul\":18144:18339   */\n      jump(tag_862)\n    tag_864:\n      pop\n      pop\n      sub(shl(0xa0, 0x01), 0x01)\n        /* \"#utility.yul\":18395:18427   */\n      swap7\n      swap1\n      swap7\n      and\n        /* \"#utility.yul\":18390:18392   */\n      0x60\n        /* \"#utility.yul\":18375:18393   */\n      dup6\n      add\n        /* \"#utility.yul\":18368:18428   */\n      mstore\n      pop\n      pop\n      pop\n        /* \"#utility.yul\":18459:18462   */\n      0x80\n        /* \"#utility.yul\":18444:18463   */\n      add\n        /* \"#utility.yul\":18437:18472   */\n      mstore\n        /* \"#utility.yul\":18356:18359   */\n      swap4\n        /* \"#utility.yul\":17498:18478   */\n      swap3\n      pop\n      pop\n      pop\n      jump\t// out\n        /* \"#utility.yul\":19095:19401   */\n    tag_726:\n        /* \"#utility.yul\":19183:19189   */\n      0x00\n        /* \"#utility.yul\":19191:19197   */\n      dup1\n        /* \"#utility.yul\":19199:19205   */\n      0x00\n        /* \"#utility.yul\":19252:19254   */\n      0x60\n        /* \"#utility.yul\":19240:19249   */\n      dup5\n        /* \"#utility.yul\":19231:19238   */\n      dup7\n        /* \"#utility.yul\":19227:19250   */\n      sub\n        /* \"#utility.yul\":19223:19255   */\n      slt\n        /* \"#utility.yul\":19220:19272   */\n      iszero\n      tag_867\n      jumpi\n        /* \"#utility.yul\":19268:19269   */\n      0x00\n        /* \"#utility.yul\":19265:19266   */\n      dup1\n        /* \"#utility.yul\":19258:19270   */\n      revert\n        /* \"#utility.yul\":19220:19272   */\n    tag_867:\n        /* \"#utility.yul\":19297:19306   */\n      dup4\n        /* \"#utility.yul\":19291:19307   */\n      mload\n        /* \"#utility.yul\":19281:19307   */\n      swap3\n      pop\n        /* \"#utility.yul\":19347:19349   */\n      0x20\n        /* \"#utility.yul\":19336:19345   */\n      dup5\n        /* \"#utility.yul\":19332:19350   */\n      add\n        /* \"#utility.yul\":19326:19351   */\n      mload\n        /* \"#utility.yul\":19316:19351   */\n      swap2\n      pop\n        /* \"#utility.yul\":19391:19393   */\n      0x40\n        /* \"#utility.yul\":19380:19389   */\n      dup5\n        /* \"#utility.yul\":19376:19394   */\n      add\n        /* \"#utility.yul\":19370:19395   */\n      mload\n        /* \"#utility.yul\":19360:19395   */\n      swap1\n      pop\n        /* \"#utility.yul\":19095:19401   */\n      swap3\n      pop\n      swap3\n      pop\n      swap3\n      jump\t// out\n\n    auxdata: 0xa264697066735822122028a3135a8b164c24be533f7fa2064290132efb365d20bc8c5e8bf0a1bece40a364736f6c63430008180033\n}\n",
				"bytecode": {
					"linkReferences": {},
					"object": "60c06040526a52b7d2dcc80cd2e4000000600981905562000022905f196200038f565b6200002f905f19620003af565b600a55600c805461ff00191661010017905568056bc75e2d63100000600d5560016012819055601381905560148190555f60155560026016819055601782905560185560195534801562000081575f80fd5b506040516200348038038062003480833981016040819052620000a491620003d5565b5f80546001600160a01b031916339081178255604051909182917f8be0079c531659141344cd1fd0a4f28419497f9722a3daafe3b4186f6b6457e0908290a3506001600160a01b0381166200013f5760405162461bcd60e51b815260206004820152601b60248201527f46756e642077616c6c65742063616e206e6f74206265207a65726f0000000000604482015260640160405180910390fd5b600a54335f9081526002602090815260409182902092909255601a80546001600160a01b0319166001600160a01b038516179055805163c45a015560e01b8152905173d99d1c33f9fc3444f8101754abc46c52416550d192839263c45a015592600480830193928290030181865afa158015620001be573d5f803e3d5ffd5b505050506040513d601f19601f82011682018060405250810190620001e49190620003d5565b6001600160a01b031663c9c6539630836001600160a01b031663ad5c46486040518163ffffffff1660e01b8152600401602060405180830381865afa15801562000230573d5f803e3d5ffd5b505050506040513d601f19601f82011682018060405250810190620002569190620003d5565b6040516001600160e01b031960e085901b1681526001600160a01b039283166004820152911660248201526044016020604051808303815f875af1158015620002a1573d5f803e3d5ffd5b505050506040513d601f19601f82011682018060405250810190620002c79190620003d5565b6001600160a01b0390811660a0528116608052600160065f620002f15f546001600160a01b031690565b6001600160a01b0316815260208082019290925260409081015f908120805494151560ff199586161790553081526006909252902080549091166001179055620003383390565b6001600160a01b03165f6001600160a01b03167fddf252ad1be2c89b69c2b068fc378daa952ba7f163c4a11628f55a4df523b3ef6009546040516200037f91815260200190565b60405180910390a3505062000404565b5f82620003aa57634e487b7160e01b5f52601260045260245ffd5b500690565b81810381811115620003cf57634e487b7160e01b5f52601160045260245ffd5b92915050565b5f60208284031215620003e6575f80fd5b81516001600160a01b0381168114620003fd575f80fd5b9392505050565b60805160a051613029620004575f395f81816104d601528181611db801526120e701525f818161032e0152818161270d015281816127c4015281816128000152818161286c015261289301526130295ff3fe608060405260043610610283575f3560e01c8063664a1ad611610155578063c49b9a80116100be578063e1eaf3bb11610078578063e1eaf3bb14610804578063ea20463614610819578063ea2f0b371461082e578063ea7db9e51461084d578063eb91e6511461086c578063f2fde38b1461088b575f80fd5b8063c49b9a8014610720578063d621e8131461073f578063d7d7442f1461075e578063dbac26e91461077d578063dd62ed3e146107ab578063e1662ed3146107ef575f80fd5b806395d89b411161010f57806395d89b41146106645780639cfe42da1461068f578063a457c2d7146106ae578063a9059cbb146106cd578063b618a70d146106ec578063bdf024ec1461070b575f80fd5b8063664a1ad6146105a057806367243482146105bf57806370a08231146105de578063715018a6146105fd57806388f82020146106115780638da5cb5b14610648575f80fd5b80633685d419116101f757806349bd5a5e116101b157806349bd5a5e146104c55780634a74bb02146104f857806352390c02146105165780635252a228146105355780635342acb41461054a57806355ce3b9a14610581575f80fd5b80633685d4191461041557806339509351146104345780633bd5d17314610453578063437823ec146104725780634549b03914610491578063463db7dd146104b0575f80fd5b806323b872dd1161024857806323b872dd1461037c578063281d9a7a1461039b578063293230b8146103b05780632d5624ed146103c65780632d838119146103db578063313ce567146103fa575f80fd5b806306fdde031461028e578063095ea7b3146102d057806313114a9d146102ff5780631694505e1461031d57806318160ddd14610368575f80fd5b3661028a57005b5f80fd5b348015610299575f80fd5b506040805180820190915260088152674561676c6520414960c01b60208201525b6040516102c79190612c06565b60405180910390f35b3480156102db575f80fd5b506102ef6102ea366004612c69565b6108aa565b60405190151581526020016102c7565b34801561030a575f80fd5b50600b545b6040519081526020016102c7565b348015610328575f80fd5b506103507f000000000000000000000000000000000000000000000000000000000000000081565b6040516001600160a01b0390911681526020016102c7565b348015610373575f80fd5b5060095461030f565b348015610387575f80fd5b506102ef610396366004612c93565b6108c0565b3480156103a6575f80fd5b5061030f60155481565b3480156103bb575f80fd5b506103c4610910565b005b3480156103d1575f80fd5b5061030f60195481565b3480156103e6575f80fd5b5061030f6103f5366004612cd1565b6109f2565b348015610405575f80fd5b50604051601281526020016102c7565b348015610420575f80fd5b506103c461042f366004612ce8565b610a74565b34801561043f575f80fd5b506102ef61044e366004612c69565b610c18565b34801561045e575f80fd5b506103c461046d366004612cd1565b610c4e565b34801561047d575f80fd5b506103c461048c366004612ce8565b610d32565b34801561049c575f80fd5b5061030f6104ab366004612d17565b610de6565b3480156104bb575f80fd5b5061030f60175481565b3480156104d0575f80fd5b506103507f000000000000000000000000000000000000000000000000000000000000000081565b348015610503575f80fd5b50600c546102ef90610100900460ff1681565b348015610521575f80fd5b506103c4610530366004612ce8565b610e66565b348015610540575f80fd5b5061030f60125481565b348015610555575f80fd5b506102ef610564366004612ce8565b6001600160a01b03165f9081526006602052604090205460ff1690565b34801561058c575f80fd5b506103c461059b366004612ce8565b610fb3565b3480156105ab575f80fd5b50601a54610350906001600160a01b031681565b3480156105ca575f80fd5b506103c46105d9366004612d89565b611087565b3480156105e9575f80fd5b5061030f6105f8366004612ce8565b611210565b348015610608575f80fd5b506103c461126c565b34801561061c575f80fd5b506102ef61062b366004612ce8565b6001600160a01b03165f9081526007602052604090205460ff1690565b348015610653575f80fd5b505f546001600160a01b0316610350565b34801561066f575f80fd5b5060408051808201909152600381526245414960e81b60208201526102ba565b34801561069a575f80fd5b506103c46106a9366004612ce8565b6112dd565b3480156106b9575f80fd5b506102ef6106c8366004612c69565b6113c1565b3480156106d8575f80fd5b506102ef6106e7366004612c69565b6113f7565b3480156106f7575f80fd5b506103c4610706366004612df0565b611403565b348015610716575f80fd5b5061030f60185481565b34801561072b575f80fd5b506103c461073a366004612e1f565b611514565b34801561074a575f80fd5b50600c546102ef9062010000900460ff1681565b348015610769575f80fd5b506103c4610778366004612cd1565b611586565b348015610788575f80fd5b506102ef610797366004612ce8565b60056020525f908152604090205460ff1681565b3480156107b6575f80fd5b5061030f6107c5366004612e38565b6001600160a01b039182165f90815260046020908152604080832093909416825291909152205490565b3480156107fa575f80fd5b5061030f60165481565b34801561080f575f80fd5b5061030f60135481565b348015610824575f80fd5b5061030f60145481565b348015610839575f80fd5b506103c4610848366004612ce8565b61166f565b348015610858575f80fd5b506103c4610867366004612df0565b611718565b348015610877575f80fd5b506103c4610886366004612ce8565b61181d565b348015610896575f80fd5b506103c46108a5366004612ce8565b6118fd565b5f6108b63384846119e4565b5060015b92915050565b5f6108cc848484611b07565b6001600160a01b0384165f90815260046020908152604080832033808552925290912054610906918691610901908690612e83565b6119e4565b5060019392505050565b5f546001600160a01b031633146109425760405162461bcd60e51b815260040161093990612e96565b60405180910390fd5b600c5462010000900460ff161561099b5760405162461bcd60e51b815260206004820152601760248201527f54726164696e6720616c726561647920737461727465640000000000000000006044820152606401610939565b600c805462ff0000191662010000908117918290556040517f7d7f00509dd73ac4449f698ae75ccc797895eff5fa9d446d3df387598a26e735926109e892900460ff161515815260200190565b60405180910390a1565b5f600a54821115610a585760405162461bcd60e51b815260206004820152602a60248201527f416d6f756e74206d757374206265206c657373207468616e20746f74616c207260448201526965666c656374696f6e7360b01b6064820152608401610939565b5f610a61611e77565b9050610a6d8184612ecb565b9392505050565b5f546001600160a01b03163314610a9d5760405162461bcd60e51b815260040161093990612e96565b6001600160a01b0381165f9081526007602052604090205460ff16610b045760405162461bcd60e51b815260206004820152601b60248201527f4163636f756e7420697320616c726561647920496e636c7564656400000000006044820152606401610939565b5f5b600854811015610c1457816001600160a01b031660088281548110610b2d57610b2d612eea565b5f918252602090912001546001600160a01b031603610c0c5760088054610b5690600190612e83565b81548110610b6657610b66612eea565b5f91825260209091200154600880546001600160a01b039092169183908110610b9157610b91612eea565b5f91825260208083209190910180546001600160a01b0319166001600160a01b039485161790559184168152600382526040808220829055600790925220805460ff191690556008805480610be857610be8612efe565b5f8281526020902081015f1990810180546001600160a01b03191690550190555050565b600101610b06565b5050565b335f8181526004602090815260408083206001600160a01b038716845290915281205490916108b6918590610901908690612f12565b335f8181526007602052604090205460ff1615610cc25760405162461bcd60e51b815260206004820152602c60248201527f4578636c75646564206164647265737365732063616e6e6f742063616c6c207460448201526b3434b990333ab731ba34b7b760a11b6064820152608401610939565b5f610ccc83611e98565b506001600160a01b0383165f90815260026020526040902054909150610cf3908290612e83565b6001600160a01b0383165f90815260026020526040902055600a54610d19908290612e83565b600a55600b54610d2a908490612f12565b600b55505050565b5f546001600160a01b03163314610d5b5760405162461bcd60e51b815260040161093990612e96565b6001600160a01b0381165f9081526006602052604090205460ff1615610dc35760405162461bcd60e51b815260206004820152601860248201527f416c72656179206578636c756465642066726f6d2066656500000000000000006044820152606401610939565b6001600160a01b03165f908152600660205260409020805460ff19166001179055565b5f600954831115610e395760405162461bcd60e51b815260206004820152601f60248201527f416d6f756e74206d757374206265206c657373207468616e20737570706c79006044820152606401610939565b81610e52575f610e4884611e98565b5091506108ba9050565b5f610e5c84611e98565b92506108ba915050565b5f546001600160a01b03163314610e8f5760405162461bcd60e51b815260040161093990612e96565b6001600160a01b0381165f9081526007602052604090205460ff1615610ef75760405162461bcd60e51b815260206004820152601b60248201527f4163636f756e7420697320616c7265616479206578636c7564656400000000006044820152606401610939565b6001600160a01b0381165f9081526002602052604090205415610f4e576001600160a01b0381165f90815260026020526040902054610f35906109f2565b6001600160a01b0382165f908152600360205260409020555b6001600160a01b03165f818152600760205260408120805460ff191660019081179091556008805491820181559091527ff3f7a9fe364faab93b216da50a3214154f22a0a2b415b23a84c8169e8b636ee30180546001600160a01b0319169091179055565b5f546001600160a01b03163314610fdc5760405162461bcd60e51b815260040161093990612e96565b6001600160a01b0381166110325760405162461bcd60e51b815260206004820152601b60248201527f46756e642077616c6c65742063616e206e6f74206265207a65726f00000000006044820152606401610939565b601a80546001600160a01b0319166001600160a01b0383169081179091556040519081527f4cb53cdee53f2d4e4e60769add356f6cbd911505806fd6c1eee38f5a6b8a2574906020015b60405180910390a150565b5f546001600160a01b031633146110b05760405162461bcd60e51b815260040161093990612e96565b5f8382146111115760405162461bcd60e51b815260206004820152602860248201527f4d69736d61746368206265747765656e204164647265737320616e6420746f6b604482015267195b8818dbdd5b9d60c21b6064820152608401610939565b5f5b8481101561114e575f84848381811061112e5761112e612eea565b90506020020135905080836111439190612f12565b925050600101611113565b508061115933611210565b10156111a75760405162461bcd60e51b815260206004820152601c60248201527f4e6f7420656e6f75676820746f6b656e7320746f2061697264726f70000000006044820152606401610939565b5f5b84811015611208575f8484838181106111c4576111c4612eea565b9050602002013590506111ff338888858181106111e3576111e3612eea565b90506020020160208101906111f89190612ce8565b835f611ed0565b506001016111a9565b505050505050565b6001600160a01b0381165f9081526007602052604081205460ff161561124b57506001600160a01b03165f9081526003602052604090205490565b6001600160a01b0382165f908152600260205260409020546108ba906109f2565b5f546001600160a01b031633146112955760405162461bcd60e51b815260040161093990612e96565b5f80546040516001600160a01b03909116907f8be0079c531659141344cd1fd0a4f28419497f9722a3daafe3b4186f6b6457e0908390a35f80546001600160a01b0319169055565b5f546001600160a01b031633146113065760405162461bcd60e51b815260040161093990612e96565b6001600160a01b0381165f9081526005602052604090205460ff161561136e5760405162461bcd60e51b815260206004820152601b60248201527f4163636f756e7420616c726561647920626c61636b6c697374656400000000006044820152606401610939565b6001600160a01b0381165f81815260056020908152604091829020805460ff1916600117905590519182527f4e63251189d11de41cff7396332e25ed3c84d6c08ef82ed74ba63a95edf8e3ef910161107c565b335f8181526004602090815260408083206001600160a01b038716845290915281205490916108b6918590610901908690612e83565b5f6108b6338484611b07565b5f546001600160a01b0316331461142c5760405162461bcd60e51b815260040161093990612e96565b5f81836114398688612f12565b6114439190612f12565b61144d9190612f12565b905060648111156114b05760405162461bcd60e51b815260206004820152602760248201527f596f752063616e206e6f74207365742073656c6c20746178206d6f7265207468604482015266656e203130302560c81b6064820152608401610939565b60168590556017849055601883905560198290556040805186815260208101869052908101849052606081018390527fa987db89f31df6351bb1ad3d58f4e5ef54e52c1e3389622f2b38adcf43a086ae906080015b60405180910390a15050505050565b5f546001600160a01b0316331461153d5760405162461bcd60e51b815260040161093990612e96565b600c80548215156101000261ff00199091161790556040517f53726dfcaf90650aa7eb35524f4d3220f07413c8d6cb404cc8c18bf5591bc1599061107c90831515815260200190565b5f546001600160a01b031633146115af5760405162461bcd60e51b815260040161093990612e96565b5f811180156115c857506969e10de76676d08000008111155b61163a5760405162461bcd60e51b815260206004820152603960248201527f416d6f756e742073686f756c64206265206d6f7265207468616e207a65726f2060448201527f616e64206c657373207468616e203530306b20746f6b656e73000000000000006064820152608401610939565b600d8190556040518181527fadfa8ecb21b6962ebcd0adbd9ab985b7b4c5b5eb3b0dead683171565c7bfe1719060200161107c565b5f546001600160a01b031633146116985760405162461bcd60e51b815260040161093990612e96565b6001600160a01b0381165f9081526006602052604090205460ff166116f85760405162461bcd60e51b8152602060048201526016602482015275416c7265617920696e636c7564656420696e2066656560501b6044820152606401610939565b6001600160a01b03165f908152600660205260409020805460ff19169055565b5f546001600160a01b031633146117415760405162461bcd60e51b815260040161093990612e96565b5f818361174e8688612f12565b6117589190612f12565b6117629190612f12565b905060648111156117c45760405162461bcd60e51b815260206004820152602660248201527f596f752063616e206e6f74207365742062757920746178206d6f7265207468656044820152656e203130302560d01b6064820152608401610939565b60128590556013849055601483905560158290556040805186815260208101869052908101849052606081018390527f39dd28ec6ca271c82451a8ef3e1422d281febc1d63701dd827a8573ed55bd48590608001611505565b5f546001600160a01b031633146118465760405162461bcd60e51b815260040161093990612e96565b6001600160a01b0381165f9081526005602052604090205460ff166118ad5760405162461bcd60e51b815260206004820152601760248201527f4163636f756e74206e6f7420626c61636b6c69737465640000000000000000006044820152606401610939565b6001600160a01b0381165f81815260056020908152604091829020805460ff1916905590519182527f2b6bf71b58b3583add364b3d9060ebf8019650f65f5be35f5464b9cb3e4ba2d4910161107c565b5f546001600160a01b031633146119265760405162461bcd60e51b815260040161093990612e96565b6001600160a01b03811661198b5760405162461bcd60e51b815260206004820152602660248201527f4f776e61626c653a206e6577206f776e657220697320746865207a65726f206160448201526564647265737360d01b6064820152608401610939565b5f80546040516001600160a01b03808516939216917f8be0079c531659141344cd1fd0a4f28419497f9722a3daafe3b4186f6b6457e091a35f80546001600160a01b0319166001600160a01b0392909216919091179055565b6001600160a01b038316611a465760405162461bcd60e51b8152602060048201526024808201527f45524332303a20617070726f76652066726f6d20746865207a65726f206164646044820152637265737360e01b6064820152608401610939565b6001600160a01b038216611aa75760405162461bcd60e51b815260206004820152602260248201527f45524332303a20617070726f766520746f20746865207a65726f206164647265604482015261737360f01b6064820152608401610939565b6001600160a01b038381165f8181526004602090815260408083209487168084529482529182902085905590518481527f8c5be1e5ebec7d5bd14f71427d1e84f3dd0314c0f7b2291e5b200ac8c7c3b925910160405180910390a3505050565b6001600160a01b038316611b6b5760405162461bcd60e51b815260206004820152602560248201527f45524332303a207472616e736665722066726f6d20746865207a65726f206164604482015264647265737360d81b6064820152608401610939565b6001600160a01b038216611bcd5760405162461bcd60e51b815260206004820152602360248201527f45524332303a207472616e7366657220746f20746865207a65726f206164647260448201526265737360e81b6064820152608401610939565b5f8111611c2e5760405162461bcd60e51b815260206004820152602960248201527f5472616e7366657220616d6f756e74206d7573742062652067726561746572206044820152687468616e207a65726f60b81b6064820152608401610939565b6001600160a01b0383165f9081526005602052604090205460ff1615611c8e5760405162461bcd60e51b815260206004820152601560248201527414d95b99195c881a5cc8189b1858dadb1a5cdd1959605a1b6044820152606401610939565b6001600160a01b0382165f9081526005602052604090205460ff1615611cf65760405162461bcd60e51b815260206004820152601860248201527f526563697069656e7420697320626c61636b6c697374656400000000000000006044820152606401610939565b5f546001600160a01b0384811691161480611d1d57505f546001600160a01b038381169116145b15611d3357611d2e8383835f611ed0565b505050565b600c5462010000900460ff16611d8b5760405162461bcd60e51b815260206004820152601760248201527f54726164696e67206e6f742073746172746564207965740000000000000000006044820152606401610939565b5f611d9530611210565b600d5490915081108015908190611daf5750600c5460ff16155b8015611ded57507f00000000000000000000000000000000000000000000000000000000000000006001600160a01b0316856001600160a01b031614155b8015611e005750600c54610100900460ff165b15611e1357600d549150611e138261203f565b6001600160a01b0385165f9081526006602052604090205460019060ff1680611e5357506001600160a01b0385165f9081526006602052604090205460ff165b15611e5b57505f5b8015611e6b57611e6b86866120da565b61120886868684611ed0565b5f805f611e8261216d565b9092509050611e918183612ecb565b9250505090565b5f805f805f80611ea7876122dd565b9450945094509450505f80611ebf8987878787612354565b50909a909950975050505050505050565b80611eed57611eed5f600e819055600f8190556010819055601155565b6001600160a01b0384165f9081526007602052604090205460ff168015611f2c57506001600160a01b0383165f9081526007602052604090205460ff16155b15611f4157611f3c8484846123eb565b612039565b6001600160a01b0384165f9081526007602052604090205460ff16158015611f8057506001600160a01b0383165f9081526007602052604090205460ff165b15611f9057611f3c84848461252b565b6001600160a01b0384165f9081526007602052604090205460ff16158015611fd057506001600160a01b0383165f9081526007602052604090205460ff16155b15611fe057611f3c8484846125e3565b6001600160a01b0384165f9081526007602052604090205460ff16801561201e57506001600160a01b0383165f9081526007602052604090205460ff165b1561202e57611f3c848484612636565b6120398484846125e3565b50505050565b600c805460ff191660011790555f612058600283612ecb565b90505f6120658284612e83565b905047612071836126b8565b5f61207c8247612e83565b90506120888382612866565b60408051858152602081018390529081018490527f17bbfb9a6069321b6ded73bd96327c9e6b7212a5cd51ff219cd61370acafb5619060600160405180910390a15050600c805460ff19169055505050565b6001600160a01b038281167f0000000000000000000000000000000000000000000000000000000000000000821690811491831614811561213257601254600e55601354600f55601454601055601554601155612039565b801561215557601654600e55601754600f55601854601055601954601155612039565b6120395f600e819055600f8190556010819055601155565b600a546009545f918291825b6008548110156122ac578260025f6008848154811061219a5761219a612eea565b5f9182526020808320909101546001600160a01b03168352820192909252604001902054118061220257508160035f600884815481106121dc576121dc612eea565b5f9182526020808320909101546001600160a01b03168352820192909252604001902054115b1561221857600a54600954945094505050509091565b60025f6008838154811061222e5761222e612eea565b5f9182526020808320909101546001600160a01b0316835282019290925260400190205461225c9084612e83565b925060035f6008838154811061227457612274612eea565b5f9182526020808320909101546001600160a01b031683528201929092526040019020546122a29083612e83565b9150600101612179565b50600954600a546122bd9190612ecb565b8210156122d457600a546009549350935050509091565b90939092509050565b5f805f805f806122ec87612968565b90505f6122f888612983565b90505f61230489612994565b90505f6123108a6129a5565b90505f818361231f8688612f12565b6123299190612f12565b6123339190612f12565b90505f612340828d612e83565b9c959b509399509197509550919350505050565b5f805f80612360611e77565b90505f61236d828b612f25565b90505f61237a838b612f25565b90505f612387848a612f25565b90505f612394858a612f25565b90505f6123a1868d612f25565b90505f81836123b08688612f12565b6123ba9190612f12565b6123c49190612f12565b90505f6123d18288612e83565b969a50959850939650505050505050955095509592505050565b5f805f805f6123f9866129b6565b945094509450945094505f805f6124138988888888612354565b6001600160a01b038e165f90815260036020526040902054929550909350915061243e908a90612e83565b6001600160a01b038c165f9081526003602090815260408083209390935560029052205461246d908490612e83565b6001600160a01b03808d165f9081526002602052604080822093909355908c168152205461249c908390612f12565b6001600160a01b038b165f908152600260205260409020556124bd866129e0565b6124c8818886612a99565b6124d185612b1f565b896001600160a01b03168b6001600160a01b03167fddf252ad1be2c89b69c2b068fc378daa952ba7f163c4a11628f55a4df523b3ef8a60405161251691815260200190565b60405180910390a35050505050505050505050565b5f805f805f612539866129b6565b945094509450945094505f805f6125538988888888612354565b6001600160a01b038e165f90815260026020526040902054929550909350915061257e908490612e83565b6001600160a01b03808d165f90815260026020908152604080832094909455918d168152600390915220546125b4908990612f12565b6001600160a01b038b165f9081526003602090815260408083209390935560029052205461249c908390612f12565b5f805f805f6125f1866129b6565b945094509450945094505f805f61260b8988888888612354565b6001600160a01b038e165f90815260026020526040902054929550909350915061246d908490612e83565b5f805f805f612644866129b6565b945094509450945094505f805f61265e8988888888612354565b6001600160a01b038e165f908152600360205260409020549295509093509150612689908a90612e83565b6001600160a01b038c165f9081526003602090815260408083209390935560029052205461257e908490612e83565b6040805160028082526060820183525f9260208301908036833701905050905030815f815181106126eb576126eb612eea565b60200260200101906001600160a01b031690816001600160a01b0316815250507f00000000000000000000000000000000000000000000000000000000000000006001600160a01b031663ad5c46486040518163ffffffff1660e01b8152600401602060405180830381865afa158015612767573d5f803e3d5ffd5b505050506040513d601f19601f8201168201806040525081019061278b9190612f3c565b8160018151811061279e5761279e612eea565b60200260200101906001600160a01b031690816001600160a01b0316815250506127e9307f0000000000000000000000000000000000000000000000000000000000000000846119e4565b60405163791ac94760e01b81526001600160a01b037f0000000000000000000000000000000000000000000000000000000000000000169063791ac9479061283d9085905f90869030904290600401612f57565b5f604051808303815f87803b158015612854575f80fd5b505af1158015611208573d5f803e3d5ffd5b612891307f0000000000000000000000000000000000000000000000000000000000000000846119e4565b7f00000000000000000000000000000000000000000000000000000000000000006001600160a01b031663f305d7198230855f806128d65f546001600160a01b031690565b60405160e088901b6001600160e01b03191681526001600160a01b03958616600482015260248101949094526044840192909252606483015290911660848201524260a482015260c40160606040518083038185885af115801561293c573d5f803e3d5ffd5b50505050506040513d601f19601f820116820180604052508101906129619190612fc8565b5050505050565b5f6064600e54836129799190612f25565b6108ba9190612ecb565b5f6064601054836129799190612f25565b5f6064600f54836129799190612f25565b5f6064601154836129799190612f25565b5f805f805f805f805f806129c98b6122dd565b939f929e50909c509a509098509650505050505050565b5f6129e9611e77565b90505f6129f68284612f25565b305f90815260026020526040902054909150612a13908290612f12565b305f9081526002602090815260408083209390935560079052205460ff1615612a6057305f90815260036020526040902054612a50908490612f12565b305f908152600360205260409020555b6040518381527f3a8ab79f6d1537e459a1a8379f48a77e1ffd07dda4b16ea97074fdab5dd8bf34906020015b60405180910390a1505050565b5f612aa2611e77565b90505f612aaf8284612f25565b90508085600a54612ac09190612e83565b612aca9190612e83565b600a55600b54612adb908590612f12565b600b55600954612aec908490612e83565b6009556040518481527f56b5df500587465b57d8ce799cc562a294f136b75a13718c574d9d36bd82805890602001611505565b5f612b28611e77565b90505f612b358284612f25565b601a546001600160a01b03165f90815260026020526040902054909150612b5d908290612f12565b601a80546001600160a01b039081165f90815260026020908152604080832095909555925490911681526007909152205460ff1615612bd657601a546001600160a01b03165f90815260036020526040902054612bbb908490612f12565b601a546001600160a01b03165f908152600360205260409020555b6040518381527f7a934c407238277f8cf36df7a2f4b5ef2eb3aa6190eeb615e32c02075a5730b090602001612a8c565b5f602080835283518060208501525f5b81811015612c3257858101830151858201604001528201612c16565b505f604082860101526040601f19601f8301168501019250505092915050565b6001600160a01b0381168114612c66575f80fd5b50565b5f8060408385031215612c7a575f80fd5b8235612c8581612c52565b946020939093013593505050565b5f805f60608486031215612ca5575f80fd5b8335612cb081612c52565b92506020840135612cc081612c52565b929592945050506040919091013590565b5f60208284031215612ce1575f80fd5b5035919050565b5f60208284031215612cf8575f80fd5b8135610a6d81612c52565b80358015158114612d12575f80fd5b919050565b5f8060408385031215612d28575f80fd5b82359150612d3860208401612d03565b90509250929050565b5f8083601f840112612d51575f80fd5b50813567ffffffffffffffff811115612d68575f80fd5b6020830191508360208260051b8501011115612d82575f80fd5b9250929050565b5f805f8060408587031215612d9c575f80fd5b843567ffffffffffffffff80821115612db3575f80fd5b612dbf88838901612d41565b90965094506020870135915080821115612dd7575f80fd5b50612de487828801612d41565b95989497509550505050565b5f805f8060808587031215612e03575f80fd5b5050823594602084013594506040840135936060013592509050565b5f60208284031215612e2f575f80fd5b610a6d82612d03565b5f8060408385031215612e49575f80fd5b8235612e5481612c52565b91506020830135612e6481612c52565b809150509250929050565b634e487b7160e01b5f52601160045260245ffd5b818103818111156108ba576108ba612e6f565b6020808252818101527f4f776e61626c653a2063616c6c6572206973206e6f7420746865206f776e6572604082015260600190565b5f82612ee557634e487b7160e01b5f52601260045260245ffd5b500490565b634e487b7160e01b5f52603260045260245ffd5b634e487b7160e01b5f52603160045260245ffd5b808201808211156108ba576108ba612e6f565b80820281158282048414176108ba576108ba612e6f565b5f60208284031215612f4c575f80fd5b8151610a6d81612c52565b5f60a08201878352602087602085015260a0604085015281875180845260c0860191506020890193505f5b81811015612fa75784516001600160a01b031683529383019391830191600101612f82565b50506001600160a01b03969096166060850152505050608001529392505050565b5f805f60608486031215612fda575f80fd5b835192506020840151915060408401519050925092509256fea264697066735822122028a3135a8b164c24be533f7fa2064290132efb365d20bc8c5e8bf0a1bece40a364736f6c63430008180033",
					"opcodes": "PUSH1 0xC0 PUSH1 0x40 MSTORE PUSH11 0x52B7D2DCC80CD2E4000000 PUSH1 0x9 DUP2 SWAP1 SSTORE PUSH3 0x22 SWAP1 PUSH0 NOT PUSH3 0x38F JUMP JUMPDEST PUSH3 0x2F SWAP1 PUSH0 NOT PUSH3 0x3AF JUMP JUMPDEST PUSH1 0xA SSTORE PUSH1 0xC DUP1 SLOAD PUSH2 0xFF00 NOT AND PUSH2 0x100 OR SWAP1 SSTORE PUSH9 0x56BC75E2D63100000 PUSH1 0xD SSTORE PUSH1 0x1 PUSH1 0x12 DUP2 SWAP1 SSTORE PUSH1 0x13 DUP2 SWAP1 SSTORE PUSH1 0x14 DUP2 SWAP1 SSTORE PUSH0 PUSH1 0x15 SSTORE PUSH1 0x2 PUSH1 0x16 DUP2 SWAP1 SSTORE PUSH1 0x17 DUP3 SWAP1 SSTORE PUSH1 0x18 SSTORE PUSH1 0x19 SSTORE CALLVALUE DUP1 ISZERO PUSH3 0x81 JUMPI PUSH0 DUP1 REVERT JUMPDEST POP PUSH1 0x40 MLOAD PUSH3 0x3480 CODESIZE SUB DUP1 PUSH3 0x3480 DUP4 CODECOPY DUP2 ADD PUSH1 0x40 DUP2 SWAP1 MSTORE PUSH3 0xA4 SWAP2 PUSH3 0x3D5 JUMP JUMPDEST PUSH0 DUP1 SLOAD PUSH1 0x1 PUSH1 0x1 PUSH1 0xA0 SHL SUB NOT AND CALLER SWAP1 DUP2 OR DUP3 SSTORE PUSH1 0x40 MLOAD SWAP1 SWAP2 DUP3 SWAP2 PUSH32 0x8BE0079C531659141344CD1FD0A4F28419497F9722A3DAAFE3B4186F6B6457E0 SWAP1 DUP3 SWAP1 LOG3 POP PUSH1 0x1 PUSH1 0x1 PUSH1 0xA0 SHL SUB DUP2 AND PUSH3 0x13F JUMPI PUSH1 0x40 MLOAD PUSH3 0x461BCD PUSH1 0xE5 SHL DUP2 MSTORE PUSH1 0x20 PUSH1 0x4 DUP3 ADD MSTORE PUSH1 0x1B PUSH1 0x24 DUP3 ADD MSTORE PUSH32 0x46756E642077616C6C65742063616E206E6F74206265207A65726F0000000000 PUSH1 0x44 DUP3 ADD MSTORE PUSH1 0x64 ADD PUSH1 0x40 MLOAD DUP1 SWAP2 SUB SWAP1 REVERT JUMPDEST PUSH1 0xA SLOAD CALLER PUSH0 SWAP1 DUP2 MSTORE PUSH1 0x2 PUSH1 0x20 SWAP1 DUP2 MSTORE PUSH1 0x40 SWAP2 DUP3 SWAP1 KECCAK256 SWAP3 SWAP1 SWAP3 SSTORE PUSH1 0x1A DUP1 SLOAD PUSH1 0x1 PUSH1 0x1 PUSH1 0xA0 SHL SUB NOT AND PUSH1 0x1 PUSH1 0x1 PUSH1 0xA0 SHL SUB DUP6 AND OR SWAP1 SSTORE DUP1 MLOAD PUSH4 0xC45A0155 PUSH1 0xE0 SHL DUP2 MSTORE SWAP1 MLOAD PUSH20 0xD99D1C33F9FC3444F8101754ABC46C52416550D1 SWAP3 DUP4 SWAP3 PUSH4 0xC45A0155 SWAP3 PUSH1 0x4 DUP1 DUP4 ADD SWAP4 SWAP3 DUP3 SWAP1 SUB ADD DUP2 DUP7 GAS STATICCALL ISZERO DUP1 ISZERO PUSH3 0x1BE JUMPI RETURNDATASIZE PUSH0 DUP1 RETURNDATACOPY RETURNDATASIZE PUSH0 REVERT JUMPDEST POP POP POP POP PUSH1 0x40 MLOAD RETURNDATASIZE PUSH1 0x1F NOT PUSH1 0x1F DUP3 ADD AND DUP3 ADD DUP1 PUSH1 0x40 MSTORE POP DUP2 ADD SWAP1 PUSH3 0x1E4 SWAP2 SWAP1 PUSH3 0x3D5 JUMP JUMPDEST PUSH1 0x1 PUSH1 0x1 PUSH1 0xA0 SHL SUB AND PUSH4 0xC9C65396 ADDRESS DUP4 PUSH1 0x1 PUSH1 0x1 PUSH1 0xA0 SHL SUB AND PUSH4 0xAD5C4648 PUSH1 0x40 MLOAD DUP2 PUSH4 0xFFFFFFFF AND PUSH1 0xE0 SHL DUP2 MSTORE PUSH1 0x4 ADD PUSH1 0x20 PUSH1 0x40 MLOAD DUP1 DUP4 SUB DUP2 DUP7 GAS STATICCALL ISZERO DUP1 ISZERO PUSH3 0x230 JUMPI RETURNDATASIZE PUSH0 DUP1 RETURNDATACOPY RETURNDATASIZE PUSH0 REVERT JUMPDEST POP POP POP POP PUSH1 0x40 MLOAD RETURNDATASIZE PUSH1 0x1F NOT PUSH1 0x1F DUP3 ADD AND DUP3 ADD DUP1 PUSH1 0x40 MSTORE POP DUP2 ADD SWAP1 PUSH3 0x256 SWAP2 SWAP1 PUSH3 0x3D5 JUMP JUMPDEST PUSH1 0x40 MLOAD PUSH1 0x1 PUSH1 0x1 PUSH1 0xE0 SHL SUB NOT PUSH1 0xE0 DUP6 SWAP1 SHL AND DUP2 MSTORE PUSH1 0x1 PUSH1 0x1 PUSH1 0xA0 SHL SUB SWAP3 DUP4 AND PUSH1 0x4 DUP3 ADD MSTORE SWAP2 AND PUSH1 0x24 DUP3 ADD MSTORE PUSH1 0x44 ADD PUSH1 0x20 PUSH1 0x40 MLOAD DUP1 DUP4 SUB DUP2 PUSH0 DUP8 GAS CALL ISZERO DUP1 ISZERO PUSH3 0x2A1 JUMPI RETURNDATASIZE PUSH0 DUP1 RETURNDATACOPY RETURNDATASIZE PUSH0 REVERT JUMPDEST POP POP POP POP PUSH1 0x40 MLOAD RETURNDATASIZE PUSH1 0x1F NOT PUSH1 0x1F DUP3 ADD AND DUP3 ADD DUP1 PUSH1 0x40 MSTORE POP DUP2 ADD SWAP1 PUSH3 0x2C7 SWAP2 SWAP1 PUSH3 0x3D5 JUMP JUMPDEST PUSH1 0x1 PUSH1 0x1 PUSH1 0xA0 SHL SUB SWAP1 DUP2 AND PUSH1 0xA0 MSTORE DUP2 AND PUSH1 0x80 MSTORE PUSH1 0x1 PUSH1 0x6 PUSH0 PUSH3 0x2F1 PUSH0 SLOAD PUSH1 0x1 PUSH1 0x1 PUSH1 0xA0 SHL SUB AND SWAP1 JUMP JUMPDEST PUSH1 0x1 PUSH1 0x1 PUSH1 0xA0 SHL SUB AND DUP2 MSTORE PUSH1 0x20 DUP1 DUP3 ADD SWAP3 SWAP1 SWAP3 MSTORE PUSH1 0x40 SWAP1 DUP2 ADD PUSH0 SWAP1 DUP2 KECCAK256 DUP1 SLOAD SWAP5 ISZERO ISZERO PUSH1 0xFF NOT SWAP6 DUP7 AND OR SWAP1 SSTORE ADDRESS DUP2 MSTORE PUSH1 0x6 SWAP1 SWAP3 MSTORE SWAP1 KECCAK256 DUP1 SLOAD SWAP1 SWAP2 AND PUSH1 0x1 OR SWAP1 SSTORE PUSH3 0x338 CALLER SWAP1 JUMP JUMPDEST PUSH1 0x1 PUSH1 0x1 PUSH1 0xA0 SHL SUB AND PUSH0 PUSH1 0x1 PUSH1 0x1 PUSH1 0xA0 SHL SUB AND PUSH32 0xDDF252AD1BE2C89B69C2B068FC378DAA952BA7F163C4A11628F55A4DF523B3EF PUSH1 0x9 SLOAD PUSH1 0x40 MLOAD PUSH3 0x37F SWAP2 DUP2 MSTORE PUSH1 0x20 ADD SWAP1 JUMP JUMPDEST PUSH1 0x40 MLOAD DUP1 SWAP2 SUB SWAP1 LOG3 POP POP PUSH3 0x404 JUMP JUMPDEST PUSH0 DUP3 PUSH3 0x3AA JUMPI PUSH4 0x4E487B71 PUSH1 0xE0 SHL PUSH0 MSTORE PUSH1 0x12 PUSH1 0x4 MSTORE PUSH1 0x24 PUSH0 REVERT JUMPDEST POP MOD SWAP1 JUMP JUMPDEST DUP2 DUP2 SUB DUP2 DUP2 GT ISZERO PUSH3 0x3CF JUMPI PUSH4 0x4E487B71 PUSH1 0xE0 SHL PUSH0 MSTORE PUSH1 0x11 PUSH1 0x4 MSTORE PUSH1 0x24 PUSH0 REVERT JUMPDEST SWAP3 SWAP2 POP POP JUMP JUMPDEST PUSH0 PUSH1 0x20 DUP3 DUP5 SUB SLT ISZERO PUSH3 0x3E6 JUMPI PUSH0 DUP1 REVERT JUMPDEST DUP2 MLOAD PUSH1 0x1 PUSH1 0x1 PUSH1 0xA0 SHL SUB DUP2 AND DUP2 EQ PUSH3 0x3FD JUMPI PUSH0 DUP1 REVERT JUMPDEST SWAP4 SWAP3 POP POP POP JUMP JUMPDEST PUSH1 0x80 MLOAD PUSH1 0xA0 MLOAD PUSH2 0x3029 PUSH3 0x457 PUSH0 CODECOPY PUSH0 DUP2 DUP2 PUSH2 0x4D6 ADD MSTORE DUP2 DUP2 PUSH2 0x1DB8 ADD MSTORE PUSH2 0x20E7 ADD MSTORE PUSH0 DUP2 DUP2 PUSH2 0x32E ADD MSTORE DUP2 DUP2 PUSH2 0x270D ADD MSTORE DUP2 DUP2 PUSH2 0x27C4 ADD MSTORE DUP2 DUP2 PUSH2 0x2800 ADD MSTORE DUP2 DUP2 PUSH2 0x286C ADD MSTORE PUSH2 0x2893 ADD MSTORE PUSH2 0x3029 PUSH0 RETURN INVALID PUSH1 0x80 PUSH1 0x40 MSTORE PUSH1 0x4 CALLDATASIZE LT PUSH2 0x283 JUMPI PUSH0 CALLDATALOAD PUSH1 0xE0 SHR DUP1 PUSH4 0x664A1AD6 GT PUSH2 0x155 JUMPI DUP1 PUSH4 0xC49B9A80 GT PUSH2 0xBE JUMPI DUP1 PUSH4 0xE1EAF3BB GT PUSH2 0x78 JUMPI DUP1 PUSH4 0xE1EAF3BB EQ PUSH2 0x804 JUMPI DUP1 PUSH4 0xEA204636 EQ PUSH2 0x819 JUMPI DUP1 PUSH4 0xEA2F0B37 EQ PUSH2 0x82E JUMPI DUP1 PUSH4 0xEA7DB9E5 EQ PUSH2 0x84D JUMPI DUP1 PUSH4 0xEB91E651 EQ PUSH2 0x86C JUMPI DUP1 PUSH4 0xF2FDE38B EQ PUSH2 0x88B JUMPI PUSH0 DUP1 REVERT JUMPDEST DUP1 PUSH4 0xC49B9A80 EQ PUSH2 0x720 JUMPI DUP1 PUSH4 0xD621E813 EQ PUSH2 0x73F JUMPI DUP1 PUSH4 0xD7D7442F EQ PUSH2 0x75E JUMPI DUP1 PUSH4 0xDBAC26E9 EQ PUSH2 0x77D JUMPI DUP1 PUSH4 0xDD62ED3E EQ PUSH2 0x7AB JUMPI DUP1 PUSH4 0xE1662ED3 EQ PUSH2 0x7EF JUMPI PUSH0 DUP1 REVERT JUMPDEST DUP1 PUSH4 0x95D89B41 GT PUSH2 0x10F JUMPI DUP1 PUSH4 0x95D89B41 EQ PUSH2 0x664 JUMPI DUP1 PUSH4 0x9CFE42DA EQ PUSH2 0x68F JUMPI DUP1 PUSH4 0xA457C2D7 EQ PUSH2 0x6AE JUMPI DUP1 PUSH4 0xA9059CBB EQ PUSH2 0x6CD JUMPI DUP1 PUSH4 0xB618A70D EQ PUSH2 0x6EC JUMPI DUP1 PUSH4 0xBDF024EC EQ PUSH2 0x70B JUMPI PUSH0 DUP1 REVERT JUMPDEST DUP1 PUSH4 0x664A1AD6 EQ PUSH2 0x5A0 JUMPI DUP1 PUSH4 0x67243482 EQ PUSH2 0x5BF JUMPI DUP1 PUSH4 0x70A08231 EQ PUSH2 0x5DE JUMPI DUP1 PUSH4 0x715018A6 EQ PUSH2 0x5FD JUMPI DUP1 PUSH4 0x88F82020 EQ PUSH2 0x611 JUMPI DUP1 PUSH4 0x8DA5CB5B EQ PUSH2 0x648 JUMPI PUSH0 DUP1 REVERT JUMPDEST DUP1 PUSH4 0x3685D419 GT PUSH2 0x1F7 JUMPI DUP1 PUSH4 0x49BD5A5E GT PUSH2 0x1B1 JUMPI DUP1 PUSH4 0x49BD5A5E EQ PUSH2 0x4C5 JUMPI DUP1 PUSH4 0x4A74BB02 EQ PUSH2 0x4F8 JUMPI DUP1 PUSH4 0x52390C02 EQ PUSH2 0x516 JUMPI DUP1 PUSH4 0x5252A228 EQ PUSH2 0x535 JUMPI DUP1 PUSH4 0x5342ACB4 EQ PUSH2 0x54A JUMPI DUP1 PUSH4 0x55CE3B9A EQ PUSH2 0x581 JUMPI PUSH0 DUP1 REVERT JUMPDEST DUP1 PUSH4 0x3685D419 EQ PUSH2 0x415 JUMPI DUP1 PUSH4 0x39509351 EQ PUSH2 0x434 JUMPI DUP1 PUSH4 0x3BD5D173 EQ PUSH2 0x453 JUMPI DUP1 PUSH4 0x437823EC EQ PUSH2 0x472 JUMPI DUP1 PUSH4 0x4549B039 EQ PUSH2 0x491 JUMPI DUP1 PUSH4 0x463DB7DD EQ PUSH2 0x4B0 JUMPI PUSH0 DUP1 REVERT JUMPDEST DUP1 PUSH4 0x23B872DD GT PUSH2 0x248 JUMPI DUP1 PUSH4 0x23B872DD EQ PUSH2 0x37C JUMPI DUP1 PUSH4 0x281D9A7A EQ PUSH2 0x39B JUMPI DUP1 PUSH4 0x293230B8 EQ PUSH2 0x3B0 JUMPI DUP1 PUSH4 0x2D5624ED EQ PUSH2 0x3C6 JUMPI DUP1 PUSH4 0x2D838119 EQ PUSH2 0x3DB JUMPI DUP1 PUSH4 0x313CE567 EQ PUSH2 0x3FA JUMPI PUSH0 DUP1 REVERT JUMPDEST DUP1 PUSH4 0x6FDDE03 EQ PUSH2 0x28E JUMPI DUP1 PUSH4 0x95EA7B3 EQ PUSH2 0x2D0 JUMPI DUP1 PUSH4 0x13114A9D EQ PUSH2 0x2FF JUMPI DUP1 PUSH4 0x1694505E EQ PUSH2 0x31D JUMPI DUP1 PUSH4 0x18160DDD EQ PUSH2 0x368 JUMPI PUSH0 DUP1 REVERT JUMPDEST CALLDATASIZE PUSH2 0x28A JUMPI STOP JUMPDEST PUSH0 DUP1 REVERT JUMPDEST CALLVALUE DUP1 ISZERO PUSH2 0x299 JUMPI PUSH0 DUP1 REVERT JUMPDEST POP PUSH1 0x40 DUP1 MLOAD DUP1 DUP3 ADD SWAP1 SWAP2 MSTORE PUSH1 0x8 DUP2 MSTORE PUSH8 0x4561676C65204149 PUSH1 0xC0 SHL PUSH1 0x20 DUP3 ADD MSTORE JUMPDEST PUSH1 0x40 MLOAD PUSH2 0x2C7 SWAP2 SWAP1 PUSH2 0x2C06 JUMP JUMPDEST PUSH1 0x40 MLOAD DUP1 SWAP2 SUB SWAP1 RETURN JUMPDEST CALLVALUE DUP1 ISZERO PUSH2 0x2DB JUMPI PUSH0 DUP1 REVERT JUMPDEST POP PUSH2 0x2EF PUSH2 0x2EA CALLDATASIZE PUSH1 0x4 PUSH2 0x2C69 JUMP JUMPDEST PUSH2 0x8AA JUMP JUMPDEST PUSH1 0x40 MLOAD SWAP1 ISZERO ISZERO DUP2 MSTORE PUSH1 0x20 ADD PUSH2 0x2C7 JUMP JUMPDEST CALLVALUE DUP1 ISZERO PUSH2 0x30A JUMPI PUSH0 DUP1 REVERT JUMPDEST POP PUSH1 0xB SLOAD JUMPDEST PUSH1 0x40 MLOAD SWAP1 DUP2 MSTORE PUSH1 0x20 ADD PUSH2 0x2C7 JUMP JUMPDEST CALLVALUE DUP1 ISZERO PUSH2 0x328 JUMPI PUSH0 DUP1 REVERT JUMPDEST POP PUSH2 0x350 PUSH32 0x0 DUP2 JUMP JUMPDEST PUSH1 0x40 MLOAD PUSH1 0x1 PUSH1 0x1 PUSH1 0xA0 SHL SUB SWAP1 SWAP2 AND DUP2 MSTORE PUSH1 0x20 ADD PUSH2 0x2C7 JUMP JUMPDEST CALLVALUE DUP1 ISZERO PUSH2 0x373 JUMPI PUSH0 DUP1 REVERT JUMPDEST POP PUSH1 0x9 SLOAD PUSH2 0x30F JUMP JUMPDEST CALLVALUE DUP1 ISZERO PUSH2 0x387 JUMPI PUSH0 DUP1 REVERT JUMPDEST POP PUSH2 0x2EF PUSH2 0x396 CALLDATASIZE PUSH1 0x4 PUSH2 0x2C93 JUMP JUMPDEST PUSH2 0x8C0 JUMP JUMPDEST CALLVALUE DUP1 ISZERO PUSH2 0x3A6 JUMPI PUSH0 DUP1 REVERT JUMPDEST POP PUSH2 0x30F PUSH1 0x15 SLOAD DUP2 JUMP JUMPDEST CALLVALUE DUP1 ISZERO PUSH2 0x3BB JUMPI PUSH0 DUP1 REVERT JUMPDEST POP PUSH2 0x3C4 PUSH2 0x910 JUMP JUMPDEST STOP JUMPDEST CALLVALUE DUP1 ISZERO PUSH2 0x3D1 JUMPI PUSH0 DUP1 REVERT JUMPDEST POP PUSH2 0x30F PUSH1 0x19 SLOAD DUP2 JUMP JUMPDEST CALLVALUE DUP1 ISZERO PUSH2 0x3E6 JUMPI PUSH0 DUP1 REVERT JUMPDEST POP PUSH2 0x30F PUSH2 0x3F5 CALLDATASIZE PUSH1 0x4 PUSH2 0x2CD1 JUMP JUMPDEST PUSH2 0x9F2 JUMP JUMPDEST CALLVALUE DUP1 ISZERO PUSH2 0x405 JUMPI PUSH0 DUP1 REVERT JUMPDEST POP PUSH1 0x40 MLOAD PUSH1 0x12 DUP2 MSTORE PUSH1 0x20 ADD PUSH2 0x2C7 JUMP JUMPDEST CALLVALUE DUP1 ISZERO PUSH2 0x420 JUMPI PUSH0 DUP1 REVERT JUMPDEST POP PUSH2 0x3C4 PUSH2 0x42F CALLDATASIZE PUSH1 0x4 PUSH2 0x2CE8 JUMP JUMPDEST PUSH2 0xA74 JUMP JUMPDEST CALLVALUE DUP1 ISZERO PUSH2 0x43F JUMPI PUSH0 DUP1 REVERT JUMPDEST POP PUSH2 0x2EF PUSH2 0x44E CALLDATASIZE PUSH1 0x4 PUSH2 0x2C69 JUMP JUMPDEST PUSH2 0xC18 JUMP JUMPDEST CALLVALUE DUP1 ISZERO PUSH2 0x45E JUMPI PUSH0 DUP1 REVERT JUMPDEST POP PUSH2 0x3C4 PUSH2 0x46D CALLDATASIZE PUSH1 0x4 PUSH2 0x2CD1 JUMP JUMPDEST PUSH2 0xC4E JUMP JUMPDEST CALLVALUE DUP1 ISZERO PUSH2 0x47D JUMPI PUSH0 DUP1 REVERT JUMPDEST POP PUSH2 0x3C4 PUSH2 0x48C CALLDATASIZE PUSH1 0x4 PUSH2 0x2CE8 JUMP JUMPDEST PUSH2 0xD32 JUMP JUMPDEST CALLVALUE DUP1 ISZERO PUSH2 0x49C JUMPI PUSH0 DUP1 REVERT JUMPDEST POP PUSH2 0x30F PUSH2 0x4AB CALLDATASIZE PUSH1 0x4 PUSH2 0x2D17 JUMP JUMPDEST PUSH2 0xDE6 JUMP JUMPDEST CALLVALUE DUP1 ISZERO PUSH2 0x4BB JUMPI PUSH0 DUP1 REVERT JUMPDEST POP PUSH2 0x30F PUSH1 0x17 SLOAD DUP2 JUMP JUMPDEST CALLVALUE DUP1 ISZERO PUSH2 0x4D0 JUMPI PUSH0 DUP1 REVERT JUMPDEST POP PUSH2 0x350 PUSH32 0x0 DUP2 JUMP JUMPDEST CALLVALUE DUP1 ISZERO PUSH2 0x503 JUMPI PUSH0 DUP1 REVERT JUMPDEST POP PUSH1 0xC SLOAD PUSH2 0x2EF SWAP1 PUSH2 0x100 SWAP1 DIV PUSH1 0xFF AND DUP2 JUMP JUMPDEST CALLVALUE DUP1 ISZERO PUSH2 0x521 JUMPI PUSH0 DUP1 REVERT JUMPDEST POP PUSH2 0x3C4 PUSH2 0x530 CALLDATASIZE PUSH1 0x4 PUSH2 0x2CE8 JUMP JUMPDEST PUSH2 0xE66 JUMP JUMPDEST CALLVALUE DUP1 ISZERO PUSH2 0x540 JUMPI PUSH0 DUP1 REVERT JUMPDEST POP PUSH2 0x30F PUSH1 0x12 SLOAD DUP2 JUMP JUMPDEST CALLVALUE DUP1 ISZERO PUSH2 0x555 JUMPI PUSH0 DUP1 REVERT JUMPDEST POP PUSH2 0x2EF PUSH2 0x564 CALLDATASIZE PUSH1 0x4 PUSH2 0x2CE8 JUMP JUMPDEST PUSH1 0x1 PUSH1 0x1 PUSH1 0xA0 SHL SUB AND PUSH0 SWAP1 DUP2 MSTORE PUSH1 0x6 PUSH1 0x20 MSTORE PUSH1 0x40 SWAP1 KECCAK256 SLOAD PUSH1 0xFF AND SWAP1 JUMP JUMPDEST CALLVALUE DUP1 ISZERO PUSH2 0x58C JUMPI PUSH0 DUP1 REVERT JUMPDEST POP PUSH2 0x3C4 PUSH2 0x59B CALLDATASIZE PUSH1 0x4 PUSH2 0x2CE8 JUMP JUMPDEST PUSH2 0xFB3 JUMP JUMPDEST CALLVALUE DUP1 ISZERO PUSH2 0x5AB JUMPI PUSH0 DUP1 REVERT JUMPDEST POP PUSH1 0x1A SLOAD PUSH2 0x350 SWAP1 PUSH1 0x1 PUSH1 0x1 PUSH1 0xA0 SHL SUB AND DUP2 JUMP JUMPDEST CALLVALUE DUP1 ISZERO PUSH2 0x5CA JUMPI PUSH0 DUP1 REVERT JUMPDEST POP PUSH2 0x3C4 PUSH2 0x5D9 CALLDATASIZE PUSH1 0x4 PUSH2 0x2D89 JUMP JUMPDEST PUSH2 0x1087 JUMP JUMPDEST CALLVALUE DUP1 ISZERO PUSH2 0x5E9 JUMPI PUSH0 DUP1 REVERT JUMPDEST POP PUSH2 0x30F PUSH2 0x5F8 CALLDATASIZE PUSH1 0x4 PUSH2 0x2CE8 JUMP JUMPDEST PUSH2 0x1210 JUMP JUMPDEST CALLVALUE DUP1 ISZERO PUSH2 0x608 JUMPI PUSH0 DUP1 REVERT JUMPDEST POP PUSH2 0x3C4 PUSH2 0x126C JUMP JUMPDEST CALLVALUE DUP1 ISZERO PUSH2 0x61C JUMPI PUSH0 DUP1 REVERT JUMPDEST POP PUSH2 0x2EF PUSH2 0x62B CALLDATASIZE PUSH1 0x4 PUSH2 0x2CE8 JUMP JUMPDEST PUSH1 0x1 PUSH1 0x1 PUSH1 0xA0 SHL SUB AND PUSH0 SWAP1 DUP2 MSTORE PUSH1 0x7 PUSH1 0x20 MSTORE PUSH1 0x40 SWAP1 KECCAK256 SLOAD PUSH1 0xFF AND SWAP1 JUMP JUMPDEST CALLVALUE DUP1 ISZERO PUSH2 0x653 JUMPI PUSH0 DUP1 REVERT JUMPDEST POP PUSH0 SLOAD PUSH1 0x1 PUSH1 0x1 PUSH1 0xA0 SHL SUB AND PUSH2 0x350 JUMP JUMPDEST CALLVALUE DUP1 ISZERO PUSH2 0x66F JUMPI PUSH0 DUP1 REVERT JUMPDEST POP PUSH1 0x40 DUP1 MLOAD DUP1 DUP3 ADD SWAP1 SWAP2 MSTORE PUSH1 0x3 DUP2 MSTORE PUSH3 0x454149 PUSH1 0xE8 SHL PUSH1 0x20 DUP3 ADD MSTORE PUSH2 0x2BA JUMP JUMPDEST CALLVALUE DUP1 ISZERO PUSH2 0x69A JUMPI PUSH0 DUP1 REVERT JUMPDEST POP PUSH2 0x3C4 PUSH2 0x6A9 CALLDATASIZE PUSH1 0x4 PUSH2 0x2CE8 JUMP JUMPDEST PUSH2 0x12DD JUMP JUMPDEST CALLVALUE DUP1 ISZERO PUSH2 0x6B9 JUMPI PUSH0 DUP1 REVERT JUMPDEST POP PUSH2 0x2EF PUSH2 0x6C8 CALLDATASIZE PUSH1 0x4 PUSH2 0x2C69 JUMP JUMPDEST PUSH2 0x13C1 JUMP JUMPDEST CALLVALUE DUP1 ISZERO PUSH2 0x6D8 JUMPI PUSH0 DUP1 REVERT JUMPDEST POP PUSH2 0x2EF PUSH2 0x6E7 CALLDATASIZE PUSH1 0x4 PUSH2 0x2C69 JUMP JUMPDEST PUSH2 0x13F7 JUMP JUMPDEST CALLVALUE DUP1 ISZERO PUSH2 0x6F7 JUMPI PUSH0 DUP1 REVERT JUMPDEST POP PUSH2 0x3C4 PUSH2 0x706 CALLDATASIZE PUSH1 0x4 PUSH2 0x2DF0 JUMP JUMPDEST PUSH2 0x1403 JUMP JUMPDEST CALLVALUE DUP1 ISZERO PUSH2 0x716 JUMPI PUSH0 DUP1 REVERT JUMPDEST POP PUSH2 0x30F PUSH1 0x18 SLOAD DUP2 JUMP JUMPDEST CALLVALUE DUP1 ISZERO PUSH2 0x72B JUMPI PUSH0 DUP1 REVERT JUMPDEST POP PUSH2 0x3C4 PUSH2 0x73A CALLDATASIZE PUSH1 0x4 PUSH2 0x2E1F JUMP JUMPDEST PUSH2 0x1514 JUMP JUMPDEST CALLVALUE DUP1 ISZERO PUSH2 0x74A JUMPI PUSH0 DUP1 REVERT JUMPDEST POP PUSH1 0xC SLOAD PUSH2 0x2EF SWAP1 PUSH3 0x10000 SWAP1 DIV PUSH1 0xFF AND DUP2 JUMP JUMPDEST CALLVALUE DUP1 ISZERO PUSH2 0x769 JUMPI PUSH0 DUP1 REVERT JUMPDEST POP PUSH2 0x3C4 PUSH2 0x778 CALLDATASIZE PUSH1 0x4 PUSH2 0x2CD1 JUMP JUMPDEST PUSH2 0x1586 JUMP JUMPDEST CALLVALUE DUP1 ISZERO PUSH2 0x788 JUMPI PUSH0 DUP1 REVERT JUMPDEST POP PUSH2 0x2EF PUSH2 0x797 CALLDATASIZE PUSH1 0x4 PUSH2 0x2CE8 JUMP JUMPDEST PUSH1 0x5 PUSH1 0x20 MSTORE PUSH0 SWAP1 DUP2 MSTORE PUSH1 0x40 SWAP1 KECCAK256 SLOAD PUSH1 0xFF AND DUP2 JUMP JUMPDEST CALLVALUE DUP1 ISZERO PUSH2 0x7B6 JUMPI PUSH0 DUP1 REVERT JUMPDEST POP PUSH2 0x30F PUSH2 0x7C5 CALLDATASIZE PUSH1 0x4 PUSH2 0x2E38 JUMP JUMPDEST PUSH1 0x1 PUSH1 0x1 PUSH1 0xA0 SHL SUB SWAP2 DUP3 AND PUSH0 SWAP1 DUP2 MSTORE PUSH1 0x4 PUSH1 0x20 SWAP1 DUP2 MSTORE PUSH1 0x40 DUP1 DUP4 KECCAK256 SWAP4 SWAP1 SWAP5 AND DUP3 MSTORE SWAP2 SWAP1 SWAP2 MSTORE KECCAK256 SLOAD SWAP1 JUMP JUMPDEST CALLVALUE DUP1 ISZERO PUSH2 0x7FA JUMPI PUSH0 DUP1 REVERT JUMPDEST POP PUSH2 0x30F PUSH1 0x16 SLOAD DUP2 JUMP JUMPDEST CALLVALUE DUP1 ISZERO PUSH2 0x80F JUMPI PUSH0 DUP1 REVERT JUMPDEST POP PUSH2 0x30F PUSH1 0x13 SLOAD DUP2 JUMP JUMPDEST CALLVALUE DUP1 ISZERO PUSH2 0x824 JUMPI PUSH0 DUP1 REVERT JUMPDEST POP PUSH2 0x30F PUSH1 0x14 SLOAD DUP2 JUMP JUMPDEST CALLVALUE DUP1 ISZERO PUSH2 0x839 JUMPI PUSH0 DUP1 REVERT JUMPDEST POP PUSH2 0x3C4 PUSH2 0x848 CALLDATASIZE PUSH1 0x4 PUSH2 0x2CE8 JUMP JUMPDEST PUSH2 0x166F JUMP JUMPDEST CALLVALUE DUP1 ISZERO PUSH2 0x858 JUMPI PUSH0 DUP1 REVERT JUMPDEST POP PUSH2 0x3C4 PUSH2 0x867 CALLDATASIZE PUSH1 0x4 PUSH2 0x2DF0 JUMP JUMPDEST PUSH2 0x1718 JUMP JUMPDEST CALLVALUE DUP1 ISZERO PUSH2 0x877 JUMPI PUSH0 DUP1 REVERT JUMPDEST POP PUSH2 0x3C4 PUSH2 0x886 CALLDATASIZE PUSH1 0x4 PUSH2 0x2CE8 JUMP JUMPDEST PUSH2 0x181D JUMP JUMPDEST CALLVALUE DUP1 ISZERO PUSH2 0x896 JUMPI PUSH0 DUP1 REVERT JUMPDEST POP PUSH2 0x3C4 PUSH2 0x8A5 CALLDATASIZE PUSH1 0x4 PUSH2 0x2CE8 JUMP JUMPDEST PUSH2 0x18FD JUMP JUMPDEST PUSH0 PUSH2 0x8B6 CALLER DUP5 DUP5 PUSH2 0x19E4 JUMP JUMPDEST POP PUSH1 0x1 JUMPDEST SWAP3 SWAP2 POP POP JUMP JUMPDEST PUSH0 PUSH2 0x8CC DUP5 DUP5 DUP5 PUSH2 0x1B07 JUMP JUMPDEST PUSH1 0x1 PUSH1 0x1 PUSH1 0xA0 SHL SUB DUP5 AND PUSH0 SWAP1 DUP2 MSTORE PUSH1 0x4 PUSH1 0x20 SWAP1 DUP2 MSTORE PUSH1 0x40 DUP1 DUP4 KECCAK256 CALLER DUP1 DUP6 MSTORE SWAP3 MSTORE SWAP1 SWAP2 KECCAK256 SLOAD PUSH2 0x906 SWAP2 DUP7 SWAP2 PUSH2 0x901 SWAP1 DUP7 SWAP1 PUSH2 0x2E83 JUMP JUMPDEST PUSH2 0x19E4 JUMP JUMPDEST POP PUSH1 0x1 SWAP4 SWAP3 POP POP POP JUMP JUMPDEST PUSH0 SLOAD PUSH1 0x1 PUSH1 0x1 PUSH1 0xA0 SHL SUB AND CALLER EQ PUSH2 0x942 JUMPI PUSH1 0x40 MLOAD PUSH3 0x461BCD PUSH1 0xE5 SHL DUP2 MSTORE PUSH1 0x4 ADD PUSH2 0x939 SWAP1 PUSH2 0x2E96 JUMP JUMPDEST PUSH1 0x40 MLOAD DUP1 SWAP2 SUB SWAP1 REVERT JUMPDEST PUSH1 0xC SLOAD PUSH3 0x10000 SWAP1 DIV PUSH1 0xFF AND ISZERO PUSH2 0x99B JUMPI PUSH1 0x40 MLOAD PUSH3 0x461BCD PUSH1 0xE5 SHL DUP2 MSTORE PUSH1 0x20 PUSH1 0x4 DUP3 ADD MSTORE PUSH1 0x17 PUSH1 0x24 DUP3 ADD MSTORE PUSH32 0x54726164696E6720616C72656164792073746172746564000000000000000000 PUSH1 0x44 DUP3 ADD MSTORE PUSH1 0x64 ADD PUSH2 0x939 JUMP JUMPDEST PUSH1 0xC DUP1 SLOAD PUSH3 0xFF0000 NOT AND PUSH3 0x10000 SWAP1 DUP2 OR SWAP2 DUP3 SWAP1 SSTORE PUSH1 0x40 MLOAD PUSH32 0x7D7F00509DD73AC4449F698AE75CCC797895EFF5FA9D446D3DF387598A26E735 SWAP3 PUSH2 0x9E8 SWAP3 SWAP1 DIV PUSH1 0xFF AND ISZERO ISZERO DUP2 MSTORE PUSH1 0x20 ADD SWAP1 JUMP JUMPDEST PUSH1 0x40 MLOAD DUP1 SWAP2 SUB SWAP1 LOG1 JUMP JUMPDEST PUSH0 PUSH1 0xA SLOAD DUP3 GT ISZERO PUSH2 0xA58 JUMPI PUSH1 0x40 MLOAD PUSH3 0x461BCD PUSH1 0xE5 SHL DUP2 MSTORE PUSH1 0x20 PUSH1 0x4 DUP3 ADD MSTORE PUSH1 0x2A PUSH1 0x24 DUP3 ADD MSTORE PUSH32 0x416D6F756E74206D757374206265206C657373207468616E20746F74616C2072 PUSH1 0x44 DUP3 ADD MSTORE PUSH10 0x65666C656374696F6E73 PUSH1 0xB0 SHL PUSH1 0x64 DUP3 ADD MSTORE PUSH1 0x84 ADD PUSH2 0x939 JUMP JUMPDEST PUSH0 PUSH2 0xA61 PUSH2 0x1E77 JUMP JUMPDEST SWAP1 POP PUSH2 0xA6D DUP2 DUP5 PUSH2 0x2ECB JUMP JUMPDEST SWAP4 SWAP3 POP POP POP JUMP JUMPDEST PUSH0 SLOAD PUSH1 0x1 PUSH1 0x1 PUSH1 0xA0 SHL SUB AND CALLER EQ PUSH2 0xA9D JUMPI PUSH1 0x40 MLOAD PUSH3 0x461BCD PUSH1 0xE5 SHL DUP2 MSTORE PUSH1 0x4 ADD PUSH2 0x939 SWAP1 PUSH2 0x2E96 JUMP JUMPDEST PUSH1 0x1 PUSH1 0x1 PUSH1 0xA0 SHL SUB DUP2 AND PUSH0 SWAP1 DUP2 MSTORE PUSH1 0x7 PUSH1 0x20 MSTORE PUSH1 0x40 SWAP1 KECCAK256 SLOAD PUSH1 0xFF AND PUSH2 0xB04 JUMPI PUSH1 0x40 MLOAD PUSH3 0x461BCD PUSH1 0xE5 SHL DUP2 MSTORE PUSH1 0x20 PUSH1 0x4 DUP3 ADD MSTORE PUSH1 0x1B PUSH1 0x24 DUP3 ADD MSTORE PUSH32 0x4163636F756E7420697320616C726561647920496E636C756465640000000000 PUSH1 0x44 DUP3 ADD MSTORE PUSH1 0x64 ADD PUSH2 0x939 JUMP JUMPDEST PUSH0 JUMPDEST PUSH1 0x8 SLOAD DUP2 LT ISZERO PUSH2 0xC14 JUMPI DUP2 PUSH1 0x1 PUSH1 0x1 PUSH1 0xA0 SHL SUB AND PUSH1 0x8 DUP3 DUP2 SLOAD DUP2 LT PUSH2 0xB2D JUMPI PUSH2 0xB2D PUSH2 0x2EEA JUMP JUMPDEST PUSH0 SWAP2 DUP3 MSTORE PUSH1 0x20 SWAP1 SWAP2 KECCAK256 ADD SLOAD PUSH1 0x1 PUSH1 0x1 PUSH1 0xA0 SHL SUB AND SUB PUSH2 0xC0C JUMPI PUSH1 0x8 DUP1 SLOAD PUSH2 0xB56 SWAP1 PUSH1 0x1 SWAP1 PUSH2 0x2E83 JUMP JUMPDEST DUP2 SLOAD DUP2 LT PUSH2 0xB66 JUMPI PUSH2 0xB66 PUSH2 0x2EEA JUMP JUMPDEST PUSH0 SWAP2 DUP3 MSTORE PUSH1 0x20 SWAP1 SWAP2 KECCAK256 ADD SLOAD PUSH1 0x8 DUP1 SLOAD PUSH1 0x1 PUSH1 0x1 PUSH1 0xA0 SHL SUB SWAP1 SWAP3 AND SWAP2 DUP4 SWAP1 DUP2 LT PUSH2 0xB91 JUMPI PUSH2 0xB91 PUSH2 0x2EEA JUMP JUMPDEST PUSH0 SWAP2 DUP3 MSTORE PUSH1 0x20 DUP1 DUP4 KECCAK256 SWAP2 SWAP1 SWAP2 ADD DUP1 SLOAD PUSH1 0x1 PUSH1 0x1 PUSH1 0xA0 SHL SUB NOT AND PUSH1 0x1 PUSH1 0x1 PUSH1 0xA0 SHL SUB SWAP5 DUP6 AND OR SWAP1 SSTORE SWAP2 DUP5 AND DUP2 MSTORE PUSH1 0x3 DUP3 MSTORE PUSH1 0x40 DUP1 DUP3 KECCAK256 DUP3 SWAP1 SSTORE PUSH1 0x7 SWAP1 SWAP3 MSTORE KECCAK256 DUP1 SLOAD PUSH1 0xFF NOT AND SWAP1 SSTORE PUSH1 0x8 DUP1 SLOAD DUP1 PUSH2 0xBE8 JUMPI PUSH2 0xBE8 PUSH2 0x2EFE JUMP JUMPDEST PUSH0 DUP3 DUP2 MSTORE PUSH1 0x20 SWAP1 KECCAK256 DUP2 ADD PUSH0 NOT SWAP1 DUP2 ADD DUP1 SLOAD PUSH1 0x1 PUSH1 0x1 PUSH1 0xA0 SHL SUB NOT AND SWAP1 SSTORE ADD SWAP1 SSTORE POP POP JUMP JUMPDEST PUSH1 0x1 ADD PUSH2 0xB06 JUMP JUMPDEST POP POP JUMP JUMPDEST CALLER PUSH0 DUP2 DUP2 MSTORE PUSH1 0x4 PUSH1 0x20 SWAP1 DUP2 MSTORE PUSH1 0x40 DUP1 DUP4 KECCAK256 PUSH1 0x1 PUSH1 0x1 PUSH1 0xA0 SHL SUB DUP8 AND DUP5 MSTORE SWAP1 SWAP2 MSTORE DUP2 KECCAK256 SLOAD SWAP1 SWAP2 PUSH2 0x8B6 SWAP2 DUP6 SWAP1 PUSH2 0x901 SWAP1 DUP7 SWAP1 PUSH2 0x2F12 JUMP JUMPDEST CALLER PUSH0 DUP2 DUP2 MSTORE PUSH1 0x7 PUSH1 0x20 MSTORE PUSH1 0x40 SWAP1 KECCAK256 SLOAD PUSH1 0xFF AND ISZERO PUSH2 0xCC2 JUMPI PUSH1 0x40 MLOAD PUSH3 0x461BCD PUSH1 0xE5 SHL DUP2 MSTORE PUSH1 0x20 PUSH1 0x4 DUP3 ADD MSTORE PUSH1 0x2C PUSH1 0x24 DUP3 ADD MSTORE PUSH32 0x4578636C75646564206164647265737365732063616E6E6F742063616C6C2074 PUSH1 0x44 DUP3 ADD MSTORE PUSH12 0x3434B990333AB731BA34B7B7 PUSH1 0xA1 SHL PUSH1 0x64 DUP3 ADD MSTORE PUSH1 0x84 ADD PUSH2 0x939 JUMP JUMPDEST PUSH0 PUSH2 0xCCC DUP4 PUSH2 0x1E98 JUMP JUMPDEST POP PUSH1 0x1 PUSH1 0x1 PUSH1 0xA0 SHL SUB DUP4 AND PUSH0 SWAP1 DUP2 MSTORE PUSH1 0x2 PUSH1 0x20 MSTORE PUSH1 0x40 SWAP1 KECCAK256 SLOAD SWAP1 SWAP2 POP PUSH2 0xCF3 SWAP1 DUP3 SWAP1 PUSH2 0x2E83 JUMP JUMPDEST PUSH1 0x1 PUSH1 0x1 PUSH1 0xA0 SHL SUB DUP4 AND PUSH0 SWAP1 DUP2 MSTORE PUSH1 0x2 PUSH1 0x20 MSTORE PUSH1 0x40 SWAP1 KECCAK256 SSTORE PUSH1 0xA SLOAD PUSH2 0xD19 SWAP1 DUP3 SWAP1 PUSH2 0x2E83 JUMP JUMPDEST PUSH1 0xA SSTORE PUSH1 0xB SLOAD PUSH2 0xD2A SWAP1 DUP5 SWAP1 PUSH2 0x2F12 JUMP JUMPDEST PUSH1 0xB SSTORE POP POP POP JUMP JUMPDEST PUSH0 SLOAD PUSH1 0x1 PUSH1 0x1 PUSH1 0xA0 SHL SUB AND CALLER EQ PUSH2 0xD5B JUMPI PUSH1 0x40 MLOAD PUSH3 0x461BCD PUSH1 0xE5 SHL DUP2 MSTORE PUSH1 0x4 ADD PUSH2 0x939 SWAP1 PUSH2 0x2E96 JUMP JUMPDEST PUSH1 0x1 PUSH1 0x1 PUSH1 0xA0 SHL SUB DUP2 AND PUSH0 SWAP1 DUP2 MSTORE PUSH1 0x6 PUSH1 0x20 MSTORE PUSH1 0x40 SWAP1 KECCAK256 SLOAD PUSH1 0xFF AND ISZERO PUSH2 0xDC3 JUMPI PUSH1 0x40 MLOAD PUSH3 0x461BCD PUSH1 0xE5 SHL DUP2 MSTORE PUSH1 0x20 PUSH1 0x4 DUP3 ADD MSTORE PUSH1 0x18 PUSH1 0x24 DUP3 ADD MSTORE PUSH32 0x416C72656179206578636C756465642066726F6D206665650000000000000000 PUSH1 0x44 DUP3 ADD MSTORE PUSH1 0x64 ADD PUSH2 0x939 JUMP JUMPDEST PUSH1 0x1 PUSH1 0x1 PUSH1 0xA0 SHL SUB AND PUSH0 SWAP1 DUP2 MSTORE PUSH1 0x6 PUSH1 0x20 MSTORE PUSH1 0x40 SWAP1 KECCAK256 DUP1 SLOAD PUSH1 0xFF NOT AND PUSH1 0x1 OR SWAP1 SSTORE JUMP JUMPDEST PUSH0 PUSH1 0x9 SLOAD DUP4 GT ISZERO PUSH2 0xE39 JUMPI PUSH1 0x40 MLOAD PUSH3 0x461BCD PUSH1 0xE5 SHL DUP2 MSTORE PUSH1 0x20 PUSH1 0x4 DUP3 ADD MSTORE PUSH1 0x1F PUSH1 0x24 DUP3 ADD MSTORE PUSH32 0x416D6F756E74206D757374206265206C657373207468616E20737570706C7900 PUSH1 0x44 DUP3 ADD MSTORE PUSH1 0x64 ADD PUSH2 0x939 JUMP JUMPDEST DUP2 PUSH2 0xE52 JUMPI PUSH0 PUSH2 0xE48 DUP5 PUSH2 0x1E98 JUMP JUMPDEST POP SWAP2 POP PUSH2 0x8BA SWAP1 POP JUMP JUMPDEST PUSH0 PUSH2 0xE5C DUP5 PUSH2 0x1E98 JUMP JUMPDEST SWAP3 POP PUSH2 0x8BA SWAP2 POP POP JUMP JUMPDEST PUSH0 SLOAD PUSH1 0x1 PUSH1 0x1 PUSH1 0xA0 SHL SUB AND CALLER EQ PUSH2 0xE8F JUMPI PUSH1 0x40 MLOAD PUSH3 0x461BCD PUSH1 0xE5 SHL DUP2 MSTORE PUSH1 0x4 ADD PUSH2 0x939 SWAP1 PUSH2 0x2E96 JUMP JUMPDEST PUSH1 0x1 PUSH1 0x1 PUSH1 0xA0 SHL SUB DUP2 AND PUSH0 SWAP1 DUP2 MSTORE PUSH1 0x7 PUSH1 0x20 MSTORE PUSH1 0x40 SWAP1 KECCAK256 SLOAD PUSH1 0xFF AND ISZERO PUSH2 0xEF7 JUMPI PUSH1 0x40 MLOAD PUSH3 0x461BCD PUSH1 0xE5 SHL DUP2 MSTORE PUSH1 0x20 PUSH1 0x4 DUP3 ADD MSTORE PUSH1 0x1B PUSH1 0x24 DUP3 ADD MSTORE PUSH32 0x4163636F756E7420697320616C7265616479206578636C756465640000000000 PUSH1 0x44 DUP3 ADD MSTORE PUSH1 0x64 ADD PUSH2 0x939 JUMP JUMPDEST PUSH1 0x1 PUSH1 0x1 PUSH1 0xA0 SHL SUB DUP2 AND PUSH0 SWAP1 DUP2 MSTORE PUSH1 0x2 PUSH1 0x20 MSTORE PUSH1 0x40 SWAP1 KECCAK256 SLOAD ISZERO PUSH2 0xF4E JUMPI PUSH1 0x1 PUSH1 0x1 PUSH1 0xA0 SHL SUB DUP2 AND PUSH0 SWAP1 DUP2 MSTORE PUSH1 0x2 PUSH1 0x20 MSTORE PUSH1 0x40 SWAP1 KECCAK256 SLOAD PUSH2 0xF35 SWAP1 PUSH2 0x9F2 JUMP JUMPDEST PUSH1 0x1 PUSH1 0x1 PUSH1 0xA0 SHL SUB DUP3 AND PUSH0 SWAP1 DUP2 MSTORE PUSH1 0x3 PUSH1 0x20 MSTORE PUSH1 0x40 SWAP1 KECCAK256 SSTORE JUMPDEST PUSH1 0x1 PUSH1 0x1 PUSH1 0xA0 SHL SUB AND PUSH0 DUP2 DUP2 MSTORE PUSH1 0x7 PUSH1 0x20 MSTORE PUSH1 0x40 DUP2 KECCAK256 DUP1 SLOAD PUSH1 0xFF NOT AND PUSH1 0x1 SWAP1 DUP2 OR SWAP1 SWAP2 SSTORE PUSH1 0x8 DUP1 SLOAD SWAP2 DUP3 ADD DUP2 SSTORE SWAP1 SWAP2 MSTORE PUSH32 0xF3F7A9FE364FAAB93B216DA50A3214154F22A0A2B415B23A84C8169E8B636EE3 ADD DUP1 SLOAD PUSH1 0x1 PUSH1 0x1 PUSH1 0xA0 SHL SUB NOT AND SWAP1 SWAP2 OR SWAP1 SSTORE JUMP JUMPDEST PUSH0 SLOAD PUSH1 0x1 PUSH1 0x1 PUSH1 0xA0 SHL SUB AND CALLER EQ PUSH2 0xFDC JUMPI PUSH1 0x40 MLOAD PUSH3 0x461BCD PUSH1 0xE5 SHL DUP2 MSTORE PUSH1 0x4 ADD PUSH2 0x939 SWAP1 PUSH2 0x2E96 JUMP JUMPDEST PUSH1 0x1 PUSH1 0x1 PUSH1 0xA0 SHL SUB DUP2 AND PUSH2 0x1032 JUMPI PUSH1 0x40 MLOAD PUSH3 0x461BCD PUSH1 0xE5 SHL DUP2 MSTORE PUSH1 0x20 PUSH1 0x4 DUP3 ADD MSTORE PUSH1 0x1B PUSH1 0x24 DUP3 ADD MSTORE PUSH32 0x46756E642077616C6C65742063616E206E6F74206265207A65726F0000000000 PUSH1 0x44 DUP3 ADD MSTORE PUSH1 0x64 ADD PUSH2 0x939 JUMP JUMPDEST PUSH1 0x1A DUP1 SLOAD PUSH1 0x1 PUSH1 0x1 PUSH1 0xA0 SHL SUB NOT AND PUSH1 0x1 PUSH1 0x1 PUSH1 0xA0 SHL SUB DUP4 AND SWAP1 DUP2 OR SWAP1 SWAP2 SSTORE PUSH1 0x40 MLOAD SWAP1 DUP2 MSTORE PUSH32 0x4CB53CDEE53F2D4E4E60769ADD356F6CBD911505806FD6C1EEE38F5A6B8A2574 SWAP1 PUSH1 0x20 ADD JUMPDEST PUSH1 0x40 MLOAD DUP1 SWAP2 SUB SWAP1 LOG1 POP JUMP JUMPDEST PUSH0 SLOAD PUSH1 0x1 PUSH1 0x1 PUSH1 0xA0 SHL SUB AND CALLER EQ PUSH2 0x10B0 JUMPI PUSH1 0x40 MLOAD PUSH3 0x461BCD PUSH1 0xE5 SHL DUP2 MSTORE PUSH1 0x4 ADD PUSH2 0x939 SWAP1 PUSH2 0x2E96 JUMP JUMPDEST PUSH0 DUP4 DUP3 EQ PUSH2 0x1111 JUMPI PUSH1 0x40 MLOAD PUSH3 0x461BCD PUSH1 0xE5 SHL DUP2 MSTORE PUSH1 0x20 PUSH1 0x4 DUP3 ADD MSTORE PUSH1 0x28 PUSH1 0x24 DUP3 ADD MSTORE PUSH32 0x4D69736D61746368206265747765656E204164647265737320616E6420746F6B PUSH1 0x44 DUP3 ADD MSTORE PUSH8 0x195B8818DBDD5B9D PUSH1 0xC2 SHL PUSH1 0x64 DUP3 ADD MSTORE PUSH1 0x84 ADD PUSH2 0x939 JUMP JUMPDEST PUSH0 JUMPDEST DUP5 DUP2 LT ISZERO PUSH2 0x114E JUMPI PUSH0 DUP5 DUP5 DUP4 DUP2 DUP2 LT PUSH2 0x112E JUMPI PUSH2 0x112E PUSH2 0x2EEA JUMP JUMPDEST SWAP1 POP PUSH1 0x20 MUL ADD CALLDATALOAD SWAP1 POP DUP1 DUP4 PUSH2 0x1143 SWAP2 SWAP1 PUSH2 0x2F12 JUMP JUMPDEST SWAP3 POP POP PUSH1 0x1 ADD PUSH2 0x1113 JUMP JUMPDEST POP DUP1 PUSH2 0x1159 CALLER PUSH2 0x1210 JUMP JUMPDEST LT ISZERO PUSH2 0x11A7 JUMPI PUSH1 0x40 MLOAD PUSH3 0x461BCD PUSH1 0xE5 SHL DUP2 MSTORE PUSH1 0x20 PUSH1 0x4 DUP3 ADD MSTORE PUSH1 0x1C PUSH1 0x24 DUP3 ADD MSTORE PUSH32 0x4E6F7420656E6F75676820746F6B656E7320746F2061697264726F7000000000 PUSH1 0x44 DUP3 ADD MSTORE PUSH1 0x64 ADD PUSH2 0x939 JUMP JUMPDEST PUSH0 JUMPDEST DUP5 DUP2 LT ISZERO PUSH2 0x1208 JUMPI PUSH0 DUP5 DUP5 DUP4 DUP2 DUP2 LT PUSH2 0x11C4 JUMPI PUSH2 0x11C4 PUSH2 0x2EEA JUMP JUMPDEST SWAP1 POP PUSH1 0x20 MUL ADD CALLDATALOAD SWAP1 POP PUSH2 0x11FF CALLER DUP9 DUP9 DUP6 DUP2 DUP2 LT PUSH2 0x11E3 JUMPI PUSH2 0x11E3 PUSH2 0x2EEA JUMP JUMPDEST SWAP1 POP PUSH1 0x20 MUL ADD PUSH1 0x20 DUP2 ADD SWAP1 PUSH2 0x11F8 SWAP2 SWAP1 PUSH2 0x2CE8 JUMP JUMPDEST DUP4 PUSH0 PUSH2 0x1ED0 JUMP JUMPDEST POP PUSH1 0x1 ADD PUSH2 0x11A9 JUMP JUMPDEST POP POP POP POP POP POP JUMP JUMPDEST PUSH1 0x1 PUSH1 0x1 PUSH1 0xA0 SHL SUB DUP2 AND PUSH0 SWAP1 DUP2 MSTORE PUSH1 0x7 PUSH1 0x20 MSTORE PUSH1 0x40 DUP2 KECCAK256 SLOAD PUSH1 0xFF AND ISZERO PUSH2 0x124B JUMPI POP PUSH1 0x1 PUSH1 0x1 PUSH1 0xA0 SHL SUB AND PUSH0 SWAP1 DUP2 MSTORE PUSH1 0x3 PUSH1 0x20 MSTORE PUSH1 0x40 SWAP1 KECCAK256 SLOAD SWAP1 JUMP JUMPDEST PUSH1 0x1 PUSH1 0x1 PUSH1 0xA0 SHL SUB DUP3 AND PUSH0 SWAP1 DUP2 MSTORE PUSH1 0x2 PUSH1 0x20 MSTORE PUSH1 0x40 SWAP1 KECCAK256 SLOAD PUSH2 0x8BA SWAP1 PUSH2 0x9F2 JUMP JUMPDEST PUSH0 SLOAD PUSH1 0x1 PUSH1 0x1 PUSH1 0xA0 SHL SUB AND CALLER EQ PUSH2 0x1295 JUMPI PUSH1 0x40 MLOAD PUSH3 0x461BCD PUSH1 0xE5 SHL DUP2 MSTORE PUSH1 0x4 ADD PUSH2 0x939 SWAP1 PUSH2 0x2E96 JUMP JUMPDEST PUSH0 DUP1 SLOAD PUSH1 0x40 MLOAD PUSH1 0x1 PUSH1 0x1 PUSH1 0xA0 SHL SUB SWAP1 SWAP2 AND SWAP1 PUSH32 0x8BE0079C531659141344CD1FD0A4F28419497F9722A3DAAFE3B4186F6B6457E0 SWAP1 DUP4 SWAP1 LOG3 PUSH0 DUP1 SLOAD PUSH1 0x1 PUSH1 0x1 PUSH1 0xA0 SHL SUB NOT AND SWAP1 SSTORE JUMP JUMPDEST PUSH0 SLOAD PUSH1 0x1 PUSH1 0x1 PUSH1 0xA0 SHL SUB AND CALLER EQ PUSH2 0x1306 JUMPI PUSH1 0x40 MLOAD PUSH3 0x461BCD PUSH1 0xE5 SHL DUP2 MSTORE PUSH1 0x4 ADD PUSH2 0x939 SWAP1 PUSH2 0x2E96 JUMP JUMPDEST PUSH1 0x1 PUSH1 0x1 PUSH1 0xA0 SHL SUB DUP2 AND PUSH0 SWAP1 DUP2 MSTORE PUSH1 0x5 PUSH1 0x20 MSTORE PUSH1 0x40 SWAP1 KECCAK256 SLOAD PUSH1 0xFF AND ISZERO PUSH2 0x136E JUMPI PUSH1 0x40 MLOAD PUSH3 0x461BCD PUSH1 0xE5 SHL DUP2 MSTORE PUSH1 0x20 PUSH1 0x4 DUP3 ADD MSTORE PUSH1 0x1B PUSH1 0x24 DUP3 ADD MSTORE PUSH32 0x4163636F756E7420616C726561647920626C61636B6C69737465640000000000 PUSH1 0x44 DUP3 ADD MSTORE PUSH1 0x64 ADD PUSH2 0x939 JUMP JUMPDEST PUSH1 0x1 PUSH1 0x1 PUSH1 0xA0 SHL SUB DUP2 AND PUSH0 DUP2 DUP2 MSTORE PUSH1 0x5 PUSH1 0x20 SWAP1 DUP2 MSTORE PUSH1 0x40 SWAP2 DUP3 SWAP1 KECCAK256 DUP1 SLOAD PUSH1 0xFF NOT AND PUSH1 0x1 OR SWAP1 SSTORE SWAP1 MLOAD SWAP2 DUP3 MSTORE PUSH32 0x4E63251189D11DE41CFF7396332E25ED3C84D6C08EF82ED74BA63A95EDF8E3EF SWAP2 ADD PUSH2 0x107C JUMP JUMPDEST CALLER PUSH0 DUP2 DUP2 MSTORE PUSH1 0x4 PUSH1 0x20 SWAP1 DUP2 MSTORE PUSH1 0x40 DUP1 DUP4 KECCAK256 PUSH1 0x1 PUSH1 0x1 PUSH1 0xA0 SHL SUB DUP8 AND DUP5 MSTORE SWAP1 SWAP2 MSTORE DUP2 KECCAK256 SLOAD SWAP1 SWAP2 PUSH2 0x8B6 SWAP2 DUP6 SWAP1 PUSH2 0x901 SWAP1 DUP7 SWAP1 PUSH2 0x2E83 JUMP JUMPDEST PUSH0 PUSH2 0x8B6 CALLER DUP5 DUP5 PUSH2 0x1B07 JUMP JUMPDEST PUSH0 SLOAD PUSH1 0x1 PUSH1 0x1 PUSH1 0xA0 SHL SUB AND CALLER EQ PUSH2 0x142C JUMPI PUSH1 0x40 MLOAD PUSH3 0x461BCD PUSH1 0xE5 SHL DUP2 MSTORE PUSH1 0x4 ADD PUSH2 0x939 SWAP1 PUSH2 0x2E96 JUMP JUMPDEST PUSH0 DUP2 DUP4 PUSH2 0x1439 DUP7 DUP9 PUSH2 0x2F12 JUMP JUMPDEST PUSH2 0x1443 SWAP2 SWAP1 PUSH2 0x2F12 JUMP JUMPDEST PUSH2 0x144D SWAP2 SWAP1 PUSH2 0x2F12 JUMP JUMPDEST SWAP1 POP PUSH1 0x64 DUP2 GT ISZERO PUSH2 0x14B0 JUMPI PUSH1 0x40 MLOAD PUSH3 0x461BCD PUSH1 0xE5 SHL DUP2 MSTORE PUSH1 0x20 PUSH1 0x4 DUP3 ADD MSTORE PUSH1 0x27 PUSH1 0x24 DUP3 ADD MSTORE PUSH32 0x596F752063616E206E6F74207365742073656C6C20746178206D6F7265207468 PUSH1 0x44 DUP3 ADD MSTORE PUSH7 0x656E2031303025 PUSH1 0xC8 SHL PUSH1 0x64 DUP3 ADD MSTORE PUSH1 0x84 ADD PUSH2 0x939 JUMP JUMPDEST PUSH1 0x16 DUP6 SWAP1 SSTORE PUSH1 0x17 DUP5 SWAP1 SSTORE PUSH1 0x18 DUP4 SWAP1 SSTORE PUSH1 0x19 DUP3 SWAP1 SSTORE PUSH1 0x40 DUP1 MLOAD DUP7 DUP2 MSTORE PUSH1 0x20 DUP2 ADD DUP7 SWAP1 MSTORE SWAP1 DUP2 ADD DUP5 SWAP1 MSTORE PUSH1 0x60 DUP2 ADD DUP4 SWAP1 MSTORE PUSH32 0xA987DB89F31DF6351BB1AD3D58F4E5EF54E52C1E3389622F2B38ADCF43A086AE SWAP1 PUSH1 0x80 ADD JUMPDEST PUSH1 0x40 MLOAD DUP1 SWAP2 SUB SWAP1 LOG1 POP POP POP POP POP JUMP JUMPDEST PUSH0 SLOAD PUSH1 0x1 PUSH1 0x1 PUSH1 0xA0 SHL SUB AND CALLER EQ PUSH2 0x153D JUMPI PUSH1 0x40 MLOAD PUSH3 0x461BCD PUSH1 0xE5 SHL DUP2 MSTORE PUSH1 0x4 ADD PUSH2 0x939 SWAP1 PUSH2 0x2E96 JUMP JUMPDEST PUSH1 0xC DUP1 SLOAD DUP3 ISZERO ISZERO PUSH2 0x100 MUL PUSH2 0xFF00 NOT SWAP1 SWAP2 AND OR SWAP1 SSTORE PUSH1 0x40 MLOAD PUSH32 0x53726DFCAF90650AA7EB35524F4D3220F07413C8D6CB404CC8C18BF5591BC159 SWAP1 PUSH2 0x107C SWAP1 DUP4 ISZERO ISZERO DUP2 MSTORE PUSH1 0x20 ADD SWAP1 JUMP JUMPDEST PUSH0 SLOAD PUSH1 0x1 PUSH1 0x1 PUSH1 0xA0 SHL SUB AND CALLER EQ PUSH2 0x15AF JUMPI PUSH1 0x40 MLOAD PUSH3 0x461BCD PUSH1 0xE5 SHL DUP2 MSTORE PUSH1 0x4 ADD PUSH2 0x939 SWAP1 PUSH2 0x2E96 JUMP JUMPDEST PUSH0 DUP2 GT DUP1 ISZERO PUSH2 0x15C8 JUMPI POP PUSH10 0x69E10DE76676D0800000 DUP2 GT ISZERO JUMPDEST PUSH2 0x163A JUMPI PUSH1 0x40 MLOAD PUSH3 0x461BCD PUSH1 0xE5 SHL DUP2 MSTORE PUSH1 0x20 PUSH1 0x4 DUP3 ADD MSTORE PUSH1 0x39 PUSH1 0x24 DUP3 ADD MSTORE PUSH32 0x416D6F756E742073686F756C64206265206D6F7265207468616E207A65726F20 PUSH1 0x44 DUP3 ADD MSTORE PUSH32 0x616E64206C657373207468616E203530306B20746F6B656E7300000000000000 PUSH1 0x64 DUP3 ADD MSTORE PUSH1 0x84 ADD PUSH2 0x939 JUMP JUMPDEST PUSH1 0xD DUP2 SWAP1 SSTORE PUSH1 0x40 MLOAD DUP2 DUP2 MSTORE PUSH32 0xADFA8ECB21B6962EBCD0ADBD9AB985B7B4C5B5EB3B0DEAD683171565C7BFE171 SWAP1 PUSH1 0x20 ADD PUSH2 0x107C JUMP JUMPDEST PUSH0 SLOAD PUSH1 0x1 PUSH1 0x1 PUSH1 0xA0 SHL SUB AND CALLER EQ PUSH2 0x1698 JUMPI PUSH1 0x40 MLOAD PUSH3 0x461BCD PUSH1 0xE5 SHL DUP2 MSTORE PUSH1 0x4 ADD PUSH2 0x939 SWAP1 PUSH2 0x2E96 JUMP JUMPDEST PUSH1 0x1 PUSH1 0x1 PUSH1 0xA0 SHL SUB DUP2 AND PUSH0 SWAP1 DUP2 MSTORE PUSH1 0x6 PUSH1 0x20 MSTORE PUSH1 0x40 SWAP1 KECCAK256 SLOAD PUSH1 0xFF AND PUSH2 0x16F8 JUMPI PUSH1 0x40 MLOAD PUSH3 0x461BCD PUSH1 0xE5 SHL DUP2 MSTORE PUSH1 0x20 PUSH1 0x4 DUP3 ADD MSTORE PUSH1 0x16 PUSH1 0x24 DUP3 ADD MSTORE PUSH22 0x416C7265617920696E636C7564656420696E20666565 PUSH1 0x50 SHL PUSH1 0x44 DUP3 ADD MSTORE PUSH1 0x64 ADD PUSH2 0x939 JUMP JUMPDEST PUSH1 0x1 PUSH1 0x1 PUSH1 0xA0 SHL SUB AND PUSH0 SWAP1 DUP2 MSTORE PUSH1 0x6 PUSH1 0x20 MSTORE PUSH1 0x40 SWAP1 KECCAK256 DUP1 SLOAD PUSH1 0xFF NOT AND SWAP1 SSTORE JUMP JUMPDEST PUSH0 SLOAD PUSH1 0x1 PUSH1 0x1 PUSH1 0xA0 SHL SUB AND CALLER EQ PUSH2 0x1741 JUMPI PUSH1 0x40 MLOAD PUSH3 0x461BCD PUSH1 0xE5 SHL DUP2 MSTORE PUSH1 0x4 ADD PUSH2 0x939 SWAP1 PUSH2 0x2E96 JUMP JUMPDEST PUSH0 DUP2 DUP4 PUSH2 0x174E DUP7 DUP9 PUSH2 0x2F12 JUMP JUMPDEST PUSH2 0x1758 SWAP2 SWAP1 PUSH2 0x2F12 JUMP JUMPDEST PUSH2 0x1762 SWAP2 SWAP1 PUSH2 0x2F12 JUMP JUMPDEST SWAP1 POP PUSH1 0x64 DUP2 GT ISZERO PUSH2 0x17C4 JUMPI PUSH1 0x40 MLOAD PUSH3 0x461BCD PUSH1 0xE5 SHL DUP2 MSTORE PUSH1 0x20 PUSH1 0x4 DUP3 ADD MSTORE PUSH1 0x26 PUSH1 0x24 DUP3 ADD MSTORE PUSH32 0x596F752063616E206E6F74207365742062757920746178206D6F726520746865 PUSH1 0x44 DUP3 ADD MSTORE PUSH6 0x6E2031303025 PUSH1 0xD0 SHL PUSH1 0x64 DUP3 ADD MSTORE PUSH1 0x84 ADD PUSH2 0x939 JUMP JUMPDEST PUSH1 0x12 DUP6 SWAP1 SSTORE PUSH1 0x13 DUP5 SWAP1 SSTORE PUSH1 0x14 DUP4 SWAP1 SSTORE PUSH1 0x15 DUP3 SWAP1 SSTORE PUSH1 0x40 DUP1 MLOAD DUP7 DUP2 MSTORE PUSH1 0x20 DUP2 ADD DUP7 SWAP1 MSTORE SWAP1 DUP2 ADD DUP5 SWAP1 MSTORE PUSH1 0x60 DUP2 ADD DUP4 SWAP1 MSTORE PUSH32 0x39DD28EC6CA271C82451A8EF3E1422D281FEBC1D63701DD827A8573ED55BD485 SWAP1 PUSH1 0x80 ADD PUSH2 0x1505 JUMP JUMPDEST PUSH0 SLOAD PUSH1 0x1 PUSH1 0x1 PUSH1 0xA0 SHL SUB AND CALLER EQ PUSH2 0x1846 JUMPI PUSH1 0x40 MLOAD PUSH3 0x461BCD PUSH1 0xE5 SHL DUP2 MSTORE PUSH1 0x4 ADD PUSH2 0x939 SWAP1 PUSH2 0x2E96 JUMP JUMPDEST PUSH1 0x1 PUSH1 0x1 PUSH1 0xA0 SHL SUB DUP2 AND PUSH0 SWAP1 DUP2 MSTORE PUSH1 0x5 PUSH1 0x20 MSTORE PUSH1 0x40 SWAP1 KECCAK256 SLOAD PUSH1 0xFF AND PUSH2 0x18AD JUMPI PUSH1 0x40 MLOAD PUSH3 0x461BCD PUSH1 0xE5 SHL DUP2 MSTORE PUSH1 0x20 PUSH1 0x4 DUP3 ADD MSTORE PUSH1 0x17 PUSH1 0x24 DUP3 ADD MSTORE PUSH32 0x4163636F756E74206E6F7420626C61636B6C6973746564000000000000000000 PUSH1 0x44 DUP3 ADD MSTORE PUSH1 0x64 ADD PUSH2 0x939 JUMP JUMPDEST PUSH1 0x1 PUSH1 0x1 PUSH1 0xA0 SHL SUB DUP2 AND PUSH0 DUP2 DUP2 MSTORE PUSH1 0x5 PUSH1 0x20 SWAP1 DUP2 MSTORE PUSH1 0x40 SWAP2 DUP3 SWAP1 KECCAK256 DUP1 SLOAD PUSH1 0xFF NOT AND SWAP1 SSTORE SWAP1 MLOAD SWAP2 DUP3 MSTORE PUSH32 0x2B6BF71B58B3583ADD364B3D9060EBF8019650F65F5BE35F5464B9CB3E4BA2D4 SWAP2 ADD PUSH2 0x107C JUMP JUMPDEST PUSH0 SLOAD PUSH1 0x1 PUSH1 0x1 PUSH1 0xA0 SHL SUB AND CALLER EQ PUSH2 0x1926 JUMPI PUSH1 0x40 MLOAD PUSH3 0x461BCD PUSH1 0xE5 SHL DUP2 MSTORE PUSH1 0x4 ADD PUSH2 0x939 SWAP1 PUSH2 0x2E96 JUMP JUMPDEST PUSH1 0x1 PUSH1 0x1 PUSH1 0xA0 SHL SUB DUP2 AND PUSH2 0x198B JUMPI PUSH1 0x40 MLOAD PUSH3 0x461BCD PUSH1 0xE5 SHL DUP2 MSTORE PUSH1 0x20 PUSH1 0x4 DUP3 ADD MSTORE PUSH1 0x26 PUSH1 0x24 DUP3 ADD MSTORE PUSH32 0x4F776E61626C653A206E6577206F776E657220697320746865207A65726F2061 PUSH1 0x44 DUP3 ADD MSTORE PUSH6 0x646472657373 PUSH1 0xD0 SHL PUSH1 0x64 DUP3 ADD MSTORE PUSH1 0x84 ADD PUSH2 0x939 JUMP JUMPDEST PUSH0 DUP1 SLOAD PUSH1 0x40 MLOAD PUSH1 0x1 PUSH1 0x1 PUSH1 0xA0 SHL SUB DUP1 DUP6 AND SWAP4 SWAP3 AND SWAP2 PUSH32 0x8BE0079C531659141344CD1FD0A4F28419497F9722A3DAAFE3B4186F6B6457E0 SWAP2 LOG3 PUSH0 DUP1 SLOAD PUSH1 0x1 PUSH1 0x1 PUSH1 0xA0 SHL SUB NOT AND PUSH1 0x1 PUSH1 0x1 PUSH1 0xA0 SHL SUB SWAP3 SWAP1 SWAP3 AND SWAP2 SWAP1 SWAP2 OR SWAP1 SSTORE JUMP JUMPDEST PUSH1 0x1 PUSH1 0x1 PUSH1 0xA0 SHL SUB DUP4 AND PUSH2 0x1A46 JUMPI PUSH1 0x40 MLOAD PUSH3 0x461BCD PUSH1 0xE5 SHL DUP2 MSTORE PUSH1 0x20 PUSH1 0x4 DUP3 ADD MSTORE PUSH1 0x24 DUP1 DUP3 ADD MSTORE PUSH32 0x45524332303A20617070726F76652066726F6D20746865207A65726F20616464 PUSH1 0x44 DUP3 ADD MSTORE PUSH4 0x72657373 PUSH1 0xE0 SHL PUSH1 0x64 DUP3 ADD MSTORE PUSH1 0x84 ADD PUSH2 0x939 JUMP JUMPDEST PUSH1 0x1 PUSH1 0x1 PUSH1 0xA0 SHL SUB DUP3 AND PUSH2 0x1AA7 JUMPI PUSH1 0x40 MLOAD PUSH3 0x461BCD PUSH1 0xE5 SHL DUP2 MSTORE PUSH1 0x20 PUSH1 0x4 DUP3 ADD MSTORE PUSH1 0x22 PUSH1 0x24 DUP3 ADD MSTORE PUSH32 0x45524332303A20617070726F766520746F20746865207A65726F206164647265 PUSH1 0x44 DUP3 ADD MSTORE PUSH2 0x7373 PUSH1 0xF0 SHL PUSH1 0x64 DUP3 ADD MSTORE PUSH1 0x84 ADD PUSH2 0x939 JUMP JUMPDEST PUSH1 0x1 PUSH1 0x1 PUSH1 0xA0 SHL SUB DUP4 DUP2 AND PUSH0 DUP2 DUP2 MSTORE PUSH1 0x4 PUSH1 0x20 SWAP1 DUP2 MSTORE PUSH1 0x40 DUP1 DUP4 KECCAK256 SWAP5 DUP8 AND DUP1 DUP5 MSTORE SWAP5 DUP3 MSTORE SWAP2 DUP3 SWAP1 KECCAK256 DUP6 SWAP1 SSTORE SWAP1 MLOAD DUP5 DUP2 MSTORE PUSH32 0x8C5BE1E5EBEC7D5BD14F71427D1E84F3DD0314C0F7B2291E5B200AC8C7C3B925 SWAP2 ADD PUSH1 0x40 MLOAD DUP1 SWAP2 SUB SWAP1 LOG3 POP POP POP JUMP JUMPDEST PUSH1 0x1 PUSH1 0x1 PUSH1 0xA0 SHL SUB DUP4 AND PUSH2 0x1B6B JUMPI PUSH1 0x40 MLOAD PUSH3 0x461BCD PUSH1 0xE5 SHL DUP2 MSTORE PUSH1 0x20 PUSH1 0x4 DUP3 ADD MSTORE PUSH1 0x25 PUSH1 0x24 DUP3 ADD MSTORE PUSH32 0x45524332303A207472616E736665722066726F6D20746865207A65726F206164 PUSH1 0x44 DUP3 ADD MSTORE PUSH5 0x6472657373 PUSH1 0xD8 SHL PUSH1 0x64 DUP3 ADD MSTORE PUSH1 0x84 ADD PUSH2 0x939 JUMP JUMPDEST PUSH1 0x1 PUSH1 0x1 PUSH1 0xA0 SHL SUB DUP3 AND PUSH2 0x1BCD JUMPI PUSH1 0x40 MLOAD PUSH3 0x461BCD PUSH1 0xE5 SHL DUP2 MSTORE PUSH1 0x20 PUSH1 0x4 DUP3 ADD MSTORE PUSH1 0x23 PUSH1 0x24 DUP3 ADD MSTORE PUSH32 0x45524332303A207472616E7366657220746F20746865207A65726F2061646472 PUSH1 0x44 DUP3 ADD MSTORE PUSH3 0x657373 PUSH1 0xE8 SHL PUSH1 0x64 DUP3 ADD MSTORE PUSH1 0x84 ADD PUSH2 0x939 JUMP JUMPDEST PUSH0 DUP2 GT PUSH2 0x1C2E JUMPI PUSH1 0x40 MLOAD PUSH3 0x461BCD PUSH1 0xE5 SHL DUP2 MSTORE PUSH1 0x20 PUSH1 0x4 DUP3 ADD MSTORE PUSH1 0x29 PUSH1 0x24 DUP3 ADD MSTORE PUSH32 0x5472616E7366657220616D6F756E74206D757374206265206772656174657220 PUSH1 0x44 DUP3 ADD MSTORE PUSH9 0x7468616E207A65726F PUSH1 0xB8 SHL PUSH1 0x64 DUP3 ADD MSTORE PUSH1 0x84 ADD PUSH2 0x939 JUMP JUMPDEST PUSH1 0x1 PUSH1 0x1 PUSH1 0xA0 SHL SUB DUP4 AND PUSH0 SWAP1 DUP2 MSTORE PUSH1 0x5 PUSH1 0x20 MSTORE PUSH1 0x40 SWAP1 KECCAK256 SLOAD PUSH1 0xFF AND ISZERO PUSH2 0x1C8E JUMPI PUSH1 0x40 MLOAD PUSH3 0x461BCD PUSH1 0xE5 SHL DUP2 MSTORE PUSH1 0x20 PUSH1 0x4 DUP3 ADD MSTORE PUSH1 0x15 PUSH1 0x24 DUP3 ADD MSTORE PUSH21 0x14D95B99195C881A5CC8189B1858DADB1A5CDD1959 PUSH1 0x5A SHL PUSH1 0x44 DUP3 ADD MSTORE PUSH1 0x64 ADD PUSH2 0x939 JUMP JUMPDEST PUSH1 0x1 PUSH1 0x1 PUSH1 0xA0 SHL SUB DUP3 AND PUSH0 SWAP1 DUP2 MSTORE PUSH1 0x5 PUSH1 0x20 MSTORE PUSH1 0x40 SWAP1 KECCAK256 SLOAD PUSH1 0xFF AND ISZERO PUSH2 0x1CF6 JUMPI PUSH1 0x40 MLOAD PUSH3 0x461BCD PUSH1 0xE5 SHL DUP2 MSTORE PUSH1 0x20 PUSH1 0x4 DUP3 ADD MSTORE PUSH1 0x18 PUSH1 0x24 DUP3 ADD MSTORE PUSH32 0x526563697069656E7420697320626C61636B6C69737465640000000000000000 PUSH1 0x44 DUP3 ADD MSTORE PUSH1 0x64 ADD PUSH2 0x939 JUMP JUMPDEST PUSH0 SLOAD PUSH1 0x1 PUSH1 0x1 PUSH1 0xA0 SHL SUB DUP5 DUP2 AND SWAP2 AND EQ DUP1 PUSH2 0x1D1D JUMPI POP PUSH0 SLOAD PUSH1 0x1 PUSH1 0x1 PUSH1 0xA0 SHL SUB DUP4 DUP2 AND SWAP2 AND EQ JUMPDEST ISZERO PUSH2 0x1D33 JUMPI PUSH2 0x1D2E DUP4 DUP4 DUP4 PUSH0 PUSH2 0x1ED0 JUMP JUMPDEST POP POP POP JUMP JUMPDEST PUSH1 0xC SLOAD PUSH3 0x10000 SWAP1 DIV PUSH1 0xFF AND PUSH2 0x1D8B JUMPI PUSH1 0x40 MLOAD PUSH3 0x461BCD PUSH1 0xE5 SHL DUP2 MSTORE PUSH1 0x20 PUSH1 0x4 DUP3 ADD MSTORE PUSH1 0x17 PUSH1 0x24 DUP3 ADD MSTORE PUSH32 0x54726164696E67206E6F74207374617274656420796574000000000000000000 PUSH1 0x44 DUP3 ADD MSTORE PUSH1 0x64 ADD PUSH2 0x939 JUMP JUMPDEST PUSH0 PUSH2 0x1D95 ADDRESS PUSH2 0x1210 JUMP JUMPDEST PUSH1 0xD SLOAD SWAP1 SWAP2 POP DUP2 LT DUP1 ISZERO SWAP1 DUP2 SWAP1 PUSH2 0x1DAF JUMPI POP PUSH1 0xC SLOAD PUSH1 0xFF AND ISZERO JUMPDEST DUP1 ISZERO PUSH2 0x1DED JUMPI POP PUSH32 0x0 PUSH1 0x1 PUSH1 0x1 PUSH1 0xA0 SHL SUB AND DUP6 PUSH1 0x1 PUSH1 0x1 PUSH1 0xA0 SHL SUB AND EQ ISZERO JUMPDEST DUP1 ISZERO PUSH2 0x1E00 JUMPI POP PUSH1 0xC SLOAD PUSH2 0x100 SWAP1 DIV PUSH1 0xFF AND JUMPDEST ISZERO PUSH2 0x1E13 JUMPI PUSH1 0xD SLOAD SWAP2 POP PUSH2 0x1E13 DUP3 PUSH2 0x203F JUMP JUMPDEST PUSH1 0x1 PUSH1 0x1 PUSH1 0xA0 SHL SUB DUP6 AND PUSH0 SWAP1 DUP2 MSTORE PUSH1 0x6 PUSH1 0x20 MSTORE PUSH1 0x40 SWAP1 KECCAK256 SLOAD PUSH1 0x1 SWAP1 PUSH1 0xFF AND DUP1 PUSH2 0x1E53 JUMPI POP PUSH1 0x1 PUSH1 0x1 PUSH1 0xA0 SHL SUB DUP6 AND PUSH0 SWAP1 DUP2 MSTORE PUSH1 0x6 PUSH1 0x20 MSTORE PUSH1 0x40 SWAP1 KECCAK256 SLOAD PUSH1 0xFF AND JUMPDEST ISZERO PUSH2 0x1E5B JUMPI POP PUSH0 JUMPDEST DUP1 ISZERO PUSH2 0x1E6B JUMPI PUSH2 0x1E6B DUP7 DUP7 PUSH2 0x20DA JUMP JUMPDEST PUSH2 0x1208 DUP7 DUP7 DUP7 DUP5 PUSH2 0x1ED0 JUMP JUMPDEST PUSH0 DUP1 PUSH0 PUSH2 0x1E82 PUSH2 0x216D JUMP JUMPDEST SWAP1 SWAP3 POP SWAP1 POP PUSH2 0x1E91 DUP2 DUP4 PUSH2 0x2ECB JUMP JUMPDEST SWAP3 POP POP POP SWAP1 JUMP JUMPDEST PUSH0 DUP1 PUSH0 DUP1 PUSH0 DUP1 PUSH2 0x1EA7 DUP8 PUSH2 0x22DD JUMP JUMPDEST SWAP5 POP SWAP5 POP SWAP5 POP SWAP5 POP POP PUSH0 DUP1 PUSH2 0x1EBF DUP10 DUP8 DUP8 DUP8 DUP8 PUSH2 0x2354 JUMP JUMPDEST POP SWAP1 SWAP11 SWAP1 SWAP10 POP SWAP8 POP POP POP POP POP POP POP POP JUMP JUMPDEST DUP1 PUSH2 0x1EED JUMPI PUSH2 0x1EED PUSH0 PUSH1 0xE DUP2 SWAP1 SSTORE PUSH1 0xF DUP2 SWAP1 SSTORE PUSH1 0x10 DUP2 SWAP1 SSTORE PUSH1 0x11 SSTORE JUMP JUMPDEST PUSH1 0x1 PUSH1 0x1 PUSH1 0xA0 SHL SUB DUP5 AND PUSH0 SWAP1 DUP2 MSTORE PUSH1 0x7 PUSH1 0x20 MSTORE PUSH1 0x40 SWAP1 KECCAK256 SLOAD PUSH1 0xFF AND DUP1 ISZERO PUSH2 0x1F2C JUMPI POP PUSH1 0x1 PUSH1 0x1 PUSH1 0xA0 SHL SUB DUP4 AND PUSH0 SWAP1 DUP2 MSTORE PUSH1 0x7 PUSH1 0x20 MSTORE PUSH1 0x40 SWAP1 KECCAK256 SLOAD PUSH1 0xFF AND ISZERO JUMPDEST ISZERO PUSH2 0x1F41 JUMPI PUSH2 0x1F3C DUP5 DUP5 DUP5 PUSH2 0x23EB JUMP JUMPDEST PUSH2 0x2039 JUMP JUMPDEST PUSH1 0x1 PUSH1 0x1 PUSH1 0xA0 SHL SUB DUP5 AND PUSH0 SWAP1 DUP2 MSTORE PUSH1 0x7 PUSH1 0x20 MSTORE PUSH1 0x40 SWAP1 KECCAK256 SLOAD PUSH1 0xFF AND ISZERO DUP1 ISZERO PUSH2 0x1F80 JUMPI POP PUSH1 0x1 PUSH1 0x1 PUSH1 0xA0 SHL SUB DUP4 AND PUSH0 SWAP1 DUP2 MSTORE PUSH1 0x7 PUSH1 0x20 MSTORE PUSH1 0x40 SWAP1 KECCAK256 SLOAD PUSH1 0xFF AND JUMPDEST ISZERO PUSH2 0x1F90 JUMPI PUSH2 0x1F3C DUP5 DUP5 DUP5 PUSH2 0x252B JUMP JUMPDEST PUSH1 0x1 PUSH1 0x1 PUSH1 0xA0 SHL SUB DUP5 AND PUSH0 SWAP1 DUP2 MSTORE PUSH1 0x7 PUSH1 0x20 MSTORE PUSH1 0x40 SWAP1 KECCAK256 SLOAD PUSH1 0xFF AND ISZERO DUP1 ISZERO PUSH2 0x1FD0 JUMPI POP PUSH1 0x1 PUSH1 0x1 PUSH1 0xA0 SHL SUB DUP4 AND PUSH0 SWAP1 DUP2 MSTORE PUSH1 0x7 PUSH1 0x20 MSTORE PUSH1 0x40 SWAP1 KECCAK256 SLOAD PUSH1 0xFF AND ISZERO JUMPDEST ISZERO PUSH2 0x1FE0 JUMPI PUSH2 0x1F3C DUP5 DUP5 DUP5 PUSH2 0x25E3 JUMP JUMPDEST PUSH1 0x1 PUSH1 0x1 PUSH1 0xA0 SHL SUB DUP5 AND PUSH0 SWAP1 DUP2 MSTORE PUSH1 0x7 PUSH1 0x20 MSTORE PUSH1 0x40 SWAP1 KECCAK256 SLOAD PUSH1 0xFF AND DUP1 ISZERO PUSH2 0x201E JUMPI POP PUSH1 0x1 PUSH1 0x1 PUSH1 0xA0 SHL SUB DUP4 AND PUSH0 SWAP1 DUP2 MSTORE PUSH1 0x7 PUSH1 0x20 MSTORE PUSH1 0x40 SWAP1 KECCAK256 SLOAD PUSH1 0xFF AND JUMPDEST ISZERO PUSH2 0x202E JUMPI PUSH2 0x1F3C DUP5 DUP5 DUP5 PUSH2 0x2636 JUMP JUMPDEST PUSH2 0x2039 DUP5 DUP5 DUP5 PUSH2 0x25E3 JUMP JUMPDEST POP POP POP POP JUMP JUMPDEST PUSH1 0xC DUP1 SLOAD PUSH1 0xFF NOT AND PUSH1 0x1 OR SWAP1 SSTORE PUSH0 PUSH2 0x2058 PUSH1 0x2 DUP4 PUSH2 0x2ECB JUMP JUMPDEST SWAP1 POP PUSH0 PUSH2 0x2065 DUP3 DUP5 PUSH2 0x2E83 JUMP JUMPDEST SWAP1 POP SELFBALANCE PUSH2 0x2071 DUP4 PUSH2 0x26B8 JUMP JUMPDEST PUSH0 PUSH2 0x207C DUP3 SELFBALANCE PUSH2 0x2E83 JUMP JUMPDEST SWAP1 POP PUSH2 0x2088 DUP4 DUP3 PUSH2 0x2866 JUMP JUMPDEST PUSH1 0x40 DUP1 MLOAD DUP6 DUP2 MSTORE PUSH1 0x20 DUP2 ADD DUP4 SWAP1 MSTORE SWAP1 DUP2 ADD DUP5 SWAP1 MSTORE PUSH32 0x17BBFB9A6069321B6DED73BD96327C9E6B7212A5CD51FF219CD61370ACAFB561 SWAP1 PUSH1 0x60 ADD PUSH1 0x40 MLOAD DUP1 SWAP2 SUB SWAP1 LOG1 POP POP PUSH1 0xC DUP1 SLOAD PUSH1 0xFF NOT AND SWAP1 SSTORE POP POP POP JUMP JUMPDEST PUSH1 0x1 PUSH1 0x1 PUSH1 0xA0 SHL SUB DUP3 DUP2 AND PUSH32 0x0 DUP3 AND SWAP1 DUP2 EQ SWAP2 DUP4 AND EQ DUP2 ISZERO PUSH2 0x2132 JUMPI PUSH1 0x12 SLOAD PUSH1 0xE SSTORE PUSH1 0x13 SLOAD PUSH1 0xF SSTORE PUSH1 0x14 SLOAD PUSH1 0x10 SSTORE PUSH1 0x15 SLOAD PUSH1 0x11 SSTORE PUSH2 0x2039 JUMP JUMPDEST DUP1 ISZERO PUSH2 0x2155 JUMPI PUSH1 0x16 SLOAD PUSH1 0xE SSTORE PUSH1 0x17 SLOAD PUSH1 0xF SSTORE PUSH1 0x18 SLOAD PUSH1 0x10 SSTORE PUSH1 0x19 SLOAD PUSH1 0x11 SSTORE PUSH2 0x2039 JUMP JUMPDEST PUSH2 0x2039 PUSH0 PUSH1 0xE DUP2 SWAP1 SSTORE PUSH1 0xF DUP2 SWAP1 SSTORE PUSH1 0x10 DUP2 SWAP1 SSTORE PUSH1 0x11 SSTORE JUMP JUMPDEST PUSH1 0xA SLOAD PUSH1 0x9 SLOAD PUSH0 SWAP2 DUP3 SWAP2 DUP3 JUMPDEST PUSH1 0x8 SLOAD DUP2 LT ISZERO PUSH2 0x22AC JUMPI DUP3 PUSH1 0x2 PUSH0 PUSH1 0x8 DUP5 DUP2 SLOAD DUP2 LT PUSH2 0x219A JUMPI PUSH2 0x219A PUSH2 0x2EEA JUMP JUMPDEST PUSH0 SWAP2 DUP3 MSTORE PUSH1 0x20 DUP1 DUP4 KECCAK256 SWAP1 SWAP2 ADD SLOAD PUSH1 0x1 PUSH1 0x1 PUSH1 0xA0 SHL SUB AND DUP4 MSTORE DUP3 ADD SWAP3 SWAP1 SWAP3 MSTORE PUSH1 0x40 ADD SWAP1 KECCAK256 SLOAD GT DUP1 PUSH2 0x2202 JUMPI POP DUP2 PUSH1 0x3 PUSH0 PUSH1 0x8 DUP5 DUP2 SLOAD DUP2 LT PUSH2 0x21DC JUMPI PUSH2 0x21DC PUSH2 0x2EEA JUMP JUMPDEST PUSH0 SWAP2 DUP3 MSTORE PUSH1 0x20 DUP1 DUP4 KECCAK256 SWAP1 SWAP2 ADD SLOAD PUSH1 0x1 PUSH1 0x1 PUSH1 0xA0 SHL SUB AND DUP4 MSTORE DUP3 ADD SWAP3 SWAP1 SWAP3 MSTORE PUSH1 0x40 ADD SWAP1 KECCAK256 SLOAD GT JUMPDEST ISZERO PUSH2 0x2218 JUMPI PUSH1 0xA SLOAD PUSH1 0x9 SLOAD SWAP5 POP SWAP5 POP POP POP POP SWAP1 SWAP2 JUMP JUMPDEST PUSH1 0x2 PUSH0 PUSH1 0x8 DUP4 DUP2 SLOAD DUP2 LT PUSH2 0x222E JUMPI PUSH2 0x222E PUSH2 0x2EEA JUMP JUMPDEST PUSH0 SWAP2 DUP3 MSTORE PUSH1 0x20 DUP1 DUP4 KECCAK256 SWAP1 SWAP2 ADD SLOAD PUSH1 0x1 PUSH1 0x1 PUSH1 0xA0 SHL SUB AND DUP4 MSTORE DUP3 ADD SWAP3 SWAP1 SWAP3 MSTORE PUSH1 0x40 ADD SWAP1 KECCAK256 SLOAD PUSH2 0x225C SWAP1 DUP5 PUSH2 0x2E83 JUMP JUMPDEST SWAP3 POP PUSH1 0x3 PUSH0 PUSH1 0x8 DUP4 DUP2 SLOAD DUP2 LT PUSH2 0x2274 JUMPI PUSH2 0x2274 PUSH2 0x2EEA JUMP JUMPDEST PUSH0 SWAP2 DUP3 MSTORE PUSH1 0x20 DUP1 DUP4 KECCAK256 SWAP1 SWAP2 ADD SLOAD PUSH1 0x1 PUSH1 0x1 PUSH1 0xA0 SHL SUB AND DUP4 MSTORE DUP3 ADD SWAP3 SWAP1 SWAP3 MSTORE PUSH1 0x40 ADD SWAP1 KECCAK256 SLOAD PUSH2 0x22A2 SWAP1 DUP4 PUSH2 0x2E83 JUMP JUMPDEST SWAP2 POP PUSH1 0x1 ADD PUSH2 0x2179 JUMP JUMPDEST POP PUSH1 0x9 SLOAD PUSH1 0xA SLOAD PUSH2 0x22BD SWAP2 SWAP1 PUSH2 0x2ECB JUMP JUMPDEST DUP3 LT ISZERO PUSH2 0x22D4 JUMPI PUSH1 0xA SLOAD PUSH1 0x9 SLOAD SWAP4 POP SWAP4 POP POP POP SWAP1 SWAP2 JUMP JUMPDEST SWAP1 SWAP4 SWAP1 SWAP3 POP SWAP1 POP JUMP JUMPDEST PUSH0 DUP1 PUSH0 DUP1 PUSH0 DUP1 PUSH2 0x22EC DUP8 PUSH2 0x2968 JUMP JUMPDEST SWAP1 POP PUSH0 PUSH2 0x22F8 DUP9 PUSH2 0x2983 JUMP JUMPDEST SWAP1 POP PUSH0 PUSH2 0x2304 DUP10 PUSH2 0x2994 JUMP JUMPDEST SWAP1 POP PUSH0 PUSH2 0x2310 DUP11 PUSH2 0x29A5 JUMP JUMPDEST SWAP1 POP PUSH0 DUP2 DUP4 PUSH2 0x231F DUP7 DUP9 PUSH2 0x2F12 JUMP JUMPDEST PUSH2 0x2329 SWAP2 SWAP1 PUSH2 0x2F12 JUMP JUMPDEST PUSH2 0x2333 SWAP2 SWAP1 PUSH2 0x2F12 JUMP JUMPDEST SWAP1 POP PUSH0 PUSH2 0x2340 DUP3 DUP14 PUSH2 0x2E83 JUMP JUMPDEST SWAP13 SWAP6 SWAP12 POP SWAP4 SWAP10 POP SWAP2 SWAP8 POP SWAP6 POP SWAP2 SWAP4 POP POP POP POP JUMP JUMPDEST PUSH0 DUP1 PUSH0 DUP1 PUSH2 0x2360 PUSH2 0x1E77 JUMP JUMPDEST SWAP1 POP PUSH0 PUSH2 0x236D DUP3 DUP12 PUSH2 0x2F25 JUMP JUMPDEST SWAP1 POP PUSH0 PUSH2 0x237A DUP4 DUP12 PUSH2 0x2F25 JUMP JUMPDEST SWAP1 POP PUSH0 PUSH2 0x2387 DUP5 DUP11 PUSH2 0x2F25 JUMP JUMPDEST SWAP1 POP PUSH0 PUSH2 0x2394 DUP6 DUP11 PUSH2 0x2F25 JUMP JUMPDEST SWAP1 POP PUSH0 PUSH2 0x23A1 DUP7 DUP14 PUSH2 0x2F25 JUMP JUMPDEST SWAP1 POP PUSH0 DUP2 DUP4 PUSH2 0x23B0 DUP7 DUP9 PUSH2 0x2F12 JUMP JUMPDEST PUSH2 0x23BA SWAP2 SWAP1 PUSH2 0x2F12 JUMP JUMPDEST PUSH2 0x23C4 SWAP2 SWAP1 PUSH2 0x2F12 JUMP JUMPDEST SWAP1 POP PUSH0 PUSH2 0x23D1 DUP3 DUP9 PUSH2 0x2E83 JUMP JUMPDEST SWAP7 SWAP11 POP SWAP6 SWAP9 POP SWAP4 SWAP7 POP POP POP POP POP POP POP SWAP6 POP SWAP6 POP SWAP6 SWAP3 POP POP POP JUMP JUMPDEST PUSH0 DUP1 PUSH0 DUP1 PUSH0 PUSH2 0x23F9 DUP7 PUSH2 0x29B6 JUMP JUMPDEST SWAP5 POP SWAP5 POP SWAP5 POP SWAP5 POP SWAP5 POP PUSH0 DUP1 PUSH0 PUSH2 0x2413 DUP10 DUP9 DUP9 DUP9 DUP9 PUSH2 0x2354 JUMP JUMPDEST PUSH1 0x1 PUSH1 0x1 PUSH1 0xA0 SHL SUB DUP15 AND PUSH0 SWAP1 DUP2 MSTORE PUSH1 0x3 PUSH1 0x20 MSTORE PUSH1 0x40 SWAP1 KECCAK256 SLOAD SWAP3 SWAP6 POP SWAP1 SWAP4 POP SWAP2 POP PUSH2 0x243E SWAP1 DUP11 SWAP1 PUSH2 0x2E83 JUMP JUMPDEST PUSH1 0x1 PUSH1 0x1 PUSH1 0xA0 SHL SUB DUP13 AND PUSH0 SWAP1 DUP2 MSTORE PUSH1 0x3 PUSH1 0x20 SWAP1 DUP2 MSTORE PUSH1 0x40 DUP1 DUP4 KECCAK256 SWAP4 SWAP1 SWAP4 SSTORE PUSH1 0x2 SWAP1 MSTORE KECCAK256 SLOAD PUSH2 0x246D SWAP1 DUP5 SWAP1 PUSH2 0x2E83 JUMP JUMPDEST PUSH1 0x1 PUSH1 0x1 PUSH1 0xA0 SHL SUB DUP1 DUP14 AND PUSH0 SWAP1 DUP2 MSTORE PUSH1 0x2 PUSH1 0x20 MSTORE PUSH1 0x40 DUP1 DUP3 KECCAK256 SWAP4 SWAP1 SWAP4 SSTORE SWAP1 DUP13 AND DUP2 MSTORE KECCAK256 SLOAD PUSH2 0x249C SWAP1 DUP4 SWAP1 PUSH2 0x2F12 JUMP JUMPDEST PUSH1 0x1 PUSH1 0x1 PUSH1 0xA0 SHL SUB DUP12 AND PUSH0 SWAP1 DUP2 MSTORE PUSH1 0x2 PUSH1 0x20 MSTORE PUSH1 0x40 SWAP1 KECCAK256 SSTORE PUSH2 0x24BD DUP7 PUSH2 0x29E0 JUMP JUMPDEST PUSH2 0x24C8 DUP2 DUP9 DUP7 PUSH2 0x2A99 JUMP JUMPDEST PUSH2 0x24D1 DUP6 PUSH2 0x2B1F JUMP JUMPDEST DUP10 PUSH1 0x1 PUSH1 0x1 PUSH1 0xA0 SHL SUB AND DUP12 PUSH1 0x1 PUSH1 0x1 PUSH1 0xA0 SHL SUB AND PUSH32 0xDDF252AD1BE2C89B69C2B068FC378DAA952BA7F163C4A11628F55A4DF523B3EF DUP11 PUSH1 0x40 MLOAD PUSH2 0x2516 SWAP2 DUP2 MSTORE PUSH1 0x20 ADD SWAP1 JUMP JUMPDEST PUSH1 0x40 MLOAD DUP1 SWAP2 SUB SWAP1 LOG3 POP POP POP POP POP POP POP POP POP POP POP JUMP JUMPDEST PUSH0 DUP1 PUSH0 DUP1 PUSH0 PUSH2 0x2539 DUP7 PUSH2 0x29B6 JUMP JUMPDEST SWAP5 POP SWAP5 POP SWAP5 POP SWAP5 POP SWAP5 POP PUSH0 DUP1 PUSH0 PUSH2 0x2553 DUP10 DUP9 DUP9 DUP9 DUP9 PUSH2 0x2354 JUMP JUMPDEST PUSH1 0x1 PUSH1 0x1 PUSH1 0xA0 SHL SUB DUP15 AND PUSH0 SWAP1 DUP2 MSTORE PUSH1 0x2 PUSH1 0x20 MSTORE PUSH1 0x40 SWAP1 KECCAK256 SLOAD SWAP3 SWAP6 POP SWAP1 SWAP4 POP SWAP2 POP PUSH2 0x257E SWAP1 DUP5 SWAP1 PUSH2 0x2E83 JUMP JUMPDEST PUSH1 0x1 PUSH1 0x1 PUSH1 0xA0 SHL SUB DUP1 DUP14 AND PUSH0 SWAP1 DUP2 MSTORE PUSH1 0x2 PUSH1 0x20 SWAP1 DUP2 MSTORE PUSH1 0x40 DUP1 DUP4 KECCAK256 SWAP5 SWAP1 SWAP5 SSTORE SWAP2 DUP14 AND DUP2 MSTORE PUSH1 0x3 SWAP1 SWAP2 MSTORE KECCAK256 SLOAD PUSH2 0x25B4 SWAP1 DUP10 SWAP1 PUSH2 0x2F12 JUMP JUMPDEST PUSH1 0x1 PUSH1 0x1 PUSH1 0xA0 SHL SUB DUP12 AND PUSH0 SWAP1 DUP2 MSTORE PUSH1 0x3 PUSH1 0x20 SWAP1 DUP2 MSTORE PUSH1 0x40 DUP1 DUP4 KECCAK256 SWAP4 SWAP1 SWAP4 SSTORE PUSH1 0x2 SWAP1 MSTORE KECCAK256 SLOAD PUSH2 0x249C SWAP1 DUP4 SWAP1 PUSH2 0x2F12 JUMP JUMPDEST PUSH0 DUP1 PUSH0 DUP1 PUSH0 PUSH2 0x25F1 DUP7 PUSH2 0x29B6 JUMP JUMPDEST SWAP5 POP SWAP5 POP SWAP5 POP SWAP5 POP SWAP5 POP PUSH0 DUP1 PUSH0 PUSH2 0x260B DUP10 DUP9 DUP9 DUP9 DUP9 PUSH2 0x2354 JUMP JUMPDEST PUSH1 0x1 PUSH1 0x1 PUSH1 0xA0 SHL SUB DUP15 AND PUSH0 SWAP1 DUP2 MSTORE PUSH1 0x2 PUSH1 0x20 MSTORE PUSH1 0x40 SWAP1 KECCAK256 SLOAD SWAP3 SWAP6 POP SWAP1 SWAP4 POP SWAP2 POP PUSH2 0x246D SWAP1 DUP5 SWAP1 PUSH2 0x2E83 JUMP JUMPDEST PUSH0 DUP1 PUSH0 DUP1 PUSH0 PUSH2 0x2644 DUP7 PUSH2 0x29B6 JUMP JUMPDEST SWAP5 POP SWAP5 POP SWAP5 POP SWAP5 POP SWAP5 POP PUSH0 DUP1 PUSH0 PUSH2 0x265E DUP10 DUP9 DUP9 DUP9 DUP9 PUSH2 0x2354 JUMP JUMPDEST PUSH1 0x1 PUSH1 0x1 PUSH1 0xA0 SHL SUB DUP15 AND PUSH0 SWAP1 DUP2 MSTORE PUSH1 0x3 PUSH1 0x20 MSTORE PUSH1 0x40 SWAP1 KECCAK256 SLOAD SWAP3 SWAP6 POP SWAP1 SWAP4 POP SWAP2 POP PUSH2 0x2689 SWAP1 DUP11 SWAP1 PUSH2 0x2E83 JUMP JUMPDEST PUSH1 0x1 PUSH1 0x1 PUSH1 0xA0 SHL SUB DUP13 AND PUSH0 SWAP1 DUP2 MSTORE PUSH1 0x3 PUSH1 0x20 SWAP1 DUP2 MSTORE PUSH1 0x40 DUP1 DUP4 KECCAK256 SWAP4 SWAP1 SWAP4 SSTORE PUSH1 0x2 SWAP1 MSTORE KECCAK256 SLOAD PUSH2 0x257E SWAP1 DUP5 SWAP1 PUSH2 0x2E83 JUMP JUMPDEST PUSH1 0x40 DUP1 MLOAD PUSH1 0x2 DUP1 DUP3 MSTORE PUSH1 0x60 DUP3 ADD DUP4 MSTORE PUSH0 SWAP3 PUSH1 0x20 DUP4 ADD SWAP1 DUP1 CALLDATASIZE DUP4 CALLDATACOPY ADD SWAP1 POP POP SWAP1 POP ADDRESS DUP2 PUSH0 DUP2 MLOAD DUP2 LT PUSH2 0x26EB JUMPI PUSH2 0x26EB PUSH2 0x2EEA JUMP JUMPDEST PUSH1 0x20 MUL PUSH1 0x20 ADD ADD SWAP1 PUSH1 0x1 PUSH1 0x1 PUSH1 0xA0 SHL SUB AND SWAP1 DUP2 PUSH1 0x1 PUSH1 0x1 PUSH1 0xA0 SHL SUB AND DUP2 MSTORE POP POP PUSH32 0x0 PUSH1 0x1 PUSH1 0x1 PUSH1 0xA0 SHL SUB AND PUSH4 0xAD5C4648 PUSH1 0x40 MLOAD DUP2 PUSH4 0xFFFFFFFF AND PUSH1 0xE0 SHL DUP2 MSTORE PUSH1 0x4 ADD PUSH1 0x20 PUSH1 0x40 MLOAD DUP1 DUP4 SUB DUP2 DUP7 GAS STATICCALL ISZERO DUP1 ISZERO PUSH2 0x2767 JUMPI RETURNDATASIZE PUSH0 DUP1 RETURNDATACOPY RETURNDATASIZE PUSH0 REVERT JUMPDEST POP POP POP POP PUSH1 0x40 MLOAD RETURNDATASIZE PUSH1 0x1F NOT PUSH1 0x1F DUP3 ADD AND DUP3 ADD DUP1 PUSH1 0x40 MSTORE POP DUP2 ADD SWAP1 PUSH2 0x278B SWAP2 SWAP1 PUSH2 0x2F3C JUMP JUMPDEST DUP2 PUSH1 0x1 DUP2 MLOAD DUP2 LT PUSH2 0x279E JUMPI PUSH2 0x279E PUSH2 0x2EEA JUMP JUMPDEST PUSH1 0x20 MUL PUSH1 0x20 ADD ADD SWAP1 PUSH1 0x1 PUSH1 0x1 PUSH1 0xA0 SHL SUB AND SWAP1 DUP2 PUSH1 0x1 PUSH1 0x1 PUSH1 0xA0 SHL SUB AND DUP2 MSTORE POP POP PUSH2 0x27E9 ADDRESS PUSH32 0x0 DUP5 PUSH2 0x19E4 JUMP JUMPDEST PUSH1 0x40 MLOAD PUSH4 0x791AC947 PUSH1 0xE0 SHL DUP2 MSTORE PUSH1 0x1 PUSH1 0x1 PUSH1 0xA0 SHL SUB PUSH32 0x0 AND SWAP1 PUSH4 0x791AC947 SWAP1 PUSH2 0x283D SWAP1 DUP6 SWAP1 PUSH0 SWAP1 DUP7 SWAP1 ADDRESS SWAP1 TIMESTAMP SWAP1 PUSH1 0x4 ADD PUSH2 0x2F57 JUMP JUMPDEST PUSH0 PUSH1 0x40 MLOAD DUP1 DUP4 SUB DUP2 PUSH0 DUP8 DUP1 EXTCODESIZE ISZERO DUP1 ISZERO PUSH2 0x2854 JUMPI PUSH0 DUP1 REVERT JUMPDEST POP GAS CALL ISZERO DUP1 ISZERO PUSH2 0x1208 JUMPI RETURNDATASIZE PUSH0 DUP1 RETURNDATACOPY RETURNDATASIZE PUSH0 REVERT JUMPDEST PUSH2 0x2891 ADDRESS PUSH32 0x0 DUP5 PUSH2 0x19E4 JUMP JUMPDEST PUSH32 0x0 PUSH1 0x1 PUSH1 0x1 PUSH1 0xA0 SHL SUB AND PUSH4 0xF305D719 DUP3 ADDRESS DUP6 PUSH0 DUP1 PUSH2 0x28D6 PUSH0 SLOAD PUSH1 0x1 PUSH1 0x1 PUSH1 0xA0 SHL SUB AND SWAP1 JUMP JUMPDEST PUSH1 0x40 MLOAD PUSH1 0xE0 DUP9 SWAP1 SHL PUSH1 0x1 PUSH1 0x1 PUSH1 0xE0 SHL SUB NOT AND DUP2 MSTORE PUSH1 0x1 PUSH1 0x1 PUSH1 0xA0 SHL SUB SWAP6 DUP7 AND PUSH1 0x4 DUP3 ADD MSTORE PUSH1 0x24 DUP2 ADD SWAP5 SWAP1 SWAP5 MSTORE PUSH1 0x44 DUP5 ADD SWAP3 SWAP1 SWAP3 MSTORE PUSH1 0x64 DUP4 ADD MSTORE SWAP1 SWAP2 AND PUSH1 0x84 DUP3 ADD MSTORE TIMESTAMP PUSH1 0xA4 DUP3 ADD MSTORE PUSH1 0xC4 ADD PUSH1 0x60 PUSH1 0x40 MLOAD DUP1 DUP4 SUB DUP2 DUP6 DUP9 GAS CALL ISZERO DUP1 ISZERO PUSH2 0x293C JUMPI RETURNDATASIZE PUSH0 DUP1 RETURNDATACOPY RETURNDATASIZE PUSH0 REVERT JUMPDEST POP POP POP POP POP PUSH1 0x40 MLOAD RETURNDATASIZE PUSH1 0x1F NOT PUSH1 0x1F DUP3 ADD AND DUP3 ADD DUP1 PUSH1 0x40 MSTORE POP DUP2 ADD SWAP1 PUSH2 0x2961 SWAP2 SWAP1 PUSH2 0x2FC8 JUMP JUMPDEST POP POP POP POP POP JUMP JUMPDEST PUSH0 PUSH1 0x64 PUSH1 0xE SLOAD DUP4 PUSH2 0x2979 SWAP2 SWAP1 PUSH2 0x2F25 JUMP JUMPDEST PUSH2 0x8BA SWAP2 SWAP1 PUSH2 0x2ECB JUMP JUMPDEST PUSH0 PUSH1 0x64 PUSH1 0x10 SLOAD DUP4 PUSH2 0x2979 SWAP2 SWAP1 PUSH2 0x2F25 JUMP JUMPDEST PUSH0 PUSH1 0x64 PUSH1 0xF SLOAD DUP4 PUSH2 0x2979 SWAP2 SWAP1 PUSH2 0x2F25 JUMP JUMPDEST PUSH0 PUSH1 0x64 PUSH1 0x11 SLOAD DUP4 PUSH2 0x2979 SWAP2 SWAP1 PUSH2 0x2F25 JUMP JUMPDEST PUSH0 DUP1 PUSH0 DUP1 PUSH0 DUP1 PUSH0 DUP1 PUSH0 DUP1 PUSH2 0x29C9 DUP12 PUSH2 0x22DD JUMP JUMPDEST SWAP4 SWAP16 SWAP3 SWAP15 POP SWAP1 SWAP13 POP SWAP11 POP SWAP1 SWAP9 POP SWAP7 POP POP POP POP POP POP POP JUMP JUMPDEST PUSH0 PUSH2 0x29E9 PUSH2 0x1E77 JUMP JUMPDEST SWAP1 POP PUSH0 PUSH2 0x29F6 DUP3 DUP5 PUSH2 0x2F25 JUMP JUMPDEST ADDRESS PUSH0 SWAP1 DUP2 MSTORE PUSH1 0x2 PUSH1 0x20 MSTORE PUSH1 0x40 SWAP1 KECCAK256 SLOAD SWAP1 SWAP2 POP PUSH2 0x2A13 SWAP1 DUP3 SWAP1 PUSH2 0x2F12 JUMP JUMPDEST ADDRESS PUSH0 SWAP1 DUP2 MSTORE PUSH1 0x2 PUSH1 0x20 SWAP1 DUP2 MSTORE PUSH1 0x40 DUP1 DUP4 KECCAK256 SWAP4 SWAP1 SWAP4 SSTORE PUSH1 0x7 SWAP1 MSTORE KECCAK256 SLOAD PUSH1 0xFF AND ISZERO PUSH2 0x2A60 JUMPI ADDRESS PUSH0 SWAP1 DUP2 MSTORE PUSH1 0x3 PUSH1 0x20 MSTORE PUSH1 0x40 SWAP1 KECCAK256 SLOAD PUSH2 0x2A50 SWAP1 DUP5 SWAP1 PUSH2 0x2F12 JUMP JUMPDEST ADDRESS PUSH0 SWAP1 DUP2 MSTORE PUSH1 0x3 PUSH1 0x20 MSTORE PUSH1 0x40 SWAP1 KECCAK256 SSTORE JUMPDEST PUSH1 0x40 MLOAD DUP4 DUP2 MSTORE PUSH32 0x3A8AB79F6D1537E459A1A8379F48A77E1FFD07DDA4B16EA97074FDAB5DD8BF34 SWAP1 PUSH1 0x20 ADD JUMPDEST PUSH1 0x40 MLOAD DUP1 SWAP2 SUB SWAP1 LOG1 POP POP POP JUMP JUMPDEST PUSH0 PUSH2 0x2AA2 PUSH2 0x1E77 JUMP JUMPDEST SWAP1 POP PUSH0 PUSH2 0x2AAF DUP3 DUP5 PUSH2 0x2F25 JUMP JUMPDEST SWAP1 POP DUP1 DUP6 PUSH1 0xA SLOAD PUSH2 0x2AC0 SWAP2 SWAP1 PUSH2 0x2E83 JUMP JUMPDEST PUSH2 0x2ACA SWAP2 SWAP1 PUSH2 0x2E83 JUMP JUMPDEST PUSH1 0xA SSTORE PUSH1 0xB SLOAD PUSH2 0x2ADB SWAP1 DUP6 SWAP1 PUSH2 0x2F12 JUMP JUMPDEST PUSH1 0xB SSTORE PUSH1 0x9 SLOAD PUSH2 0x2AEC SWAP1 DUP5 SWAP1 PUSH2 0x2E83 JUMP JUMPDEST PUSH1 0x9 SSTORE PUSH1 0x40 MLOAD DUP5 DUP2 MSTORE PUSH32 0x56B5DF500587465B57D8CE799CC562A294F136B75A13718C574D9D36BD828058 SWAP1 PUSH1 0x20 ADD PUSH2 0x1505 JUMP JUMPDEST PUSH0 PUSH2 0x2B28 PUSH2 0x1E77 JUMP JUMPDEST SWAP1 POP PUSH0 PUSH2 0x2B35 DUP3 DUP5 PUSH2 0x2F25 JUMP JUMPDEST PUSH1 0x1A SLOAD PUSH1 0x1 PUSH1 0x1 PUSH1 0xA0 SHL SUB AND PUSH0 SWAP1 DUP2 MSTORE PUSH1 0x2 PUSH1 0x20 MSTORE PUSH1 0x40 SWAP1 KECCAK256 SLOAD SWAP1 SWAP2 POP PUSH2 0x2B5D SWAP1 DUP3 SWAP1 PUSH2 0x2F12 JUMP JUMPDEST PUSH1 0x1A DUP1 SLOAD PUSH1 0x1 PUSH1 0x1 PUSH1 0xA0 SHL SUB SWAP1 DUP2 AND PUSH0 SWAP1 DUP2 MSTORE PUSH1 0x2 PUSH1 0x20 SWAP1 DUP2 MSTORE PUSH1 0x40 DUP1 DUP4 KECCAK256 SWAP6 SWAP1 SWAP6 SSTORE SWAP3 SLOAD SWAP1 SWAP2 AND DUP2 MSTORE PUSH1 0x7 SWAP1 SWAP2 MSTORE KECCAK256 SLOAD PUSH1 0xFF AND ISZERO PUSH2 0x2BD6 JUMPI PUSH1 0x1A SLOAD PUSH1 0x1 PUSH1 0x1 PUSH1 0xA0 SHL SUB AND PUSH0 SWAP1 DUP2 MSTORE PUSH1 0x3 PUSH1 0x20 MSTORE PUSH1 0x40 SWAP1 KECCAK256 SLOAD PUSH2 0x2BBB SWAP1 DUP5 SWAP1 PUSH2 0x2F12 JUMP JUMPDEST PUSH1 0x1A SLOAD PUSH1 0x1 PUSH1 0x1 PUSH1 0xA0 SHL SUB AND PUSH0 SWAP1 DUP2 MSTORE PUSH1 0x3 PUSH1 0x20 MSTORE PUSH1 0x40 SWAP1 KECCAK256 SSTORE JUMPDEST PUSH1 0x40 MLOAD DUP4 DUP2 MSTORE PUSH32 0x7A934C407238277F8CF36DF7A2F4B5EF2EB3AA6190EEB615E32C02075A5730B0 SWAP1 PUSH1 0x20 ADD PUSH2 0x2A8C JUMP JUMPDEST PUSH0 PUSH1 0x20 DUP1 DUP4 MSTORE DUP4 MLOAD DUP1 PUSH1 0x20 DUP6 ADD MSTORE PUSH0 JUMPDEST DUP2 DUP2 LT ISZERO PUSH2 0x2C32 JUMPI DUP6 DUP2 ADD DUP4 ADD MLOAD DUP6 DUP3 ADD PUSH1 0x40 ADD MSTORE DUP3 ADD PUSH2 0x2C16 JUMP JUMPDEST POP PUSH0 PUSH1 0x40 DUP3 DUP7 ADD ADD MSTORE PUSH1 0x40 PUSH1 0x1F NOT PUSH1 0x1F DUP4 ADD AND DUP6 ADD ADD SWAP3 POP POP POP SWAP3 SWAP2 POP POP JUMP JUMPDEST PUSH1 0x1 PUSH1 0x1 PUSH1 0xA0 SHL SUB DUP2 AND DUP2 EQ PUSH2 0x2C66 JUMPI PUSH0 DUP1 REVERT JUMPDEST POP JUMP JUMPDEST PUSH0 DUP1 PUSH1 0x40 DUP4 DUP6 SUB SLT ISZERO PUSH2 0x2C7A JUMPI PUSH0 DUP1 REVERT JUMPDEST DUP3 CALLDATALOAD PUSH2 0x2C85 DUP2 PUSH2 0x2C52 JUMP JUMPDEST SWAP5 PUSH1 0x20 SWAP4 SWAP1 SWAP4 ADD CALLDATALOAD SWAP4 POP POP POP JUMP JUMPDEST PUSH0 DUP1 PUSH0 PUSH1 0x60 DUP5 DUP7 SUB SLT ISZERO PUSH2 0x2CA5 JUMPI PUSH0 DUP1 REVERT JUMPDEST DUP4 CALLDATALOAD PUSH2 0x2CB0 DUP2 PUSH2 0x2C52 JUMP JUMPDEST SWAP3 POP PUSH1 0x20 DUP5 ADD CALLDATALOAD PUSH2 0x2CC0 DUP2 PUSH2 0x2C52 JUMP JUMPDEST SWAP3 SWAP6 SWAP3 SWAP5 POP POP POP PUSH1 0x40 SWAP2 SWAP1 SWAP2 ADD CALLDATALOAD SWAP1 JUMP JUMPDEST PUSH0 PUSH1 0x20 DUP3 DUP5 SUB SLT ISZERO PUSH2 0x2CE1 JUMPI PUSH0 DUP1 REVERT JUMPDEST POP CALLDATALOAD SWAP2 SWAP1 POP JUMP JUMPDEST PUSH0 PUSH1 0x20 DUP3 DUP5 SUB SLT ISZERO PUSH2 0x2CF8 JUMPI PUSH0 DUP1 REVERT JUMPDEST DUP2 CALLDATALOAD PUSH2 0xA6D DUP2 PUSH2 0x2C52 JUMP JUMPDEST DUP1 CALLDATALOAD DUP1 ISZERO ISZERO DUP2 EQ PUSH2 0x2D12 JUMPI PUSH0 DUP1 REVERT JUMPDEST SWAP2 SWAP1 POP JUMP JUMPDEST PUSH0 DUP1 PUSH1 0x40 DUP4 DUP6 SUB SLT ISZERO PUSH2 0x2D28 JUMPI PUSH0 DUP1 REVERT JUMPDEST DUP3 CALLDATALOAD SWAP2 POP PUSH2 0x2D38 PUSH1 0x20 DUP5 ADD PUSH2 0x2D03 JUMP JUMPDEST SWAP1 POP SWAP3 POP SWAP3 SWAP1 POP JUMP JUMPDEST PUSH0 DUP1 DUP4 PUSH1 0x1F DUP5 ADD SLT PUSH2 0x2D51 JUMPI PUSH0 DUP1 REVERT JUMPDEST POP DUP2 CALLDATALOAD PUSH8 0xFFFFFFFFFFFFFFFF DUP2 GT ISZERO PUSH2 0x2D68 JUMPI PUSH0 DUP1 REVERT JUMPDEST PUSH1 0x20 DUP4 ADD SWAP2 POP DUP4 PUSH1 0x20 DUP3 PUSH1 0x5 SHL DUP6 ADD ADD GT ISZERO PUSH2 0x2D82 JUMPI PUSH0 DUP1 REVERT JUMPDEST SWAP3 POP SWAP3 SWAP1 POP JUMP JUMPDEST PUSH0 DUP1 PUSH0 DUP1 PUSH1 0x40 DUP6 DUP8 SUB SLT ISZERO PUSH2 0x2D9C JUMPI PUSH0 DUP1 REVERT JUMPDEST DUP5 CALLDATALOAD PUSH8 0xFFFFFFFFFFFFFFFF DUP1 DUP3 GT ISZERO PUSH2 0x2DB3 JUMPI PUSH0 DUP1 REVERT JUMPDEST PUSH2 0x2DBF DUP9 DUP4 DUP10 ADD PUSH2 0x2D41 JUMP JUMPDEST SWAP1 SWAP7 POP SWAP5 POP PUSH1 0x20 DUP8 ADD CALLDATALOAD SWAP2 POP DUP1 DUP3 GT ISZERO PUSH2 0x2DD7 JUMPI PUSH0 DUP1 REVERT JUMPDEST POP PUSH2 0x2DE4 DUP8 DUP3 DUP9 ADD PUSH2 0x2D41 JUMP JUMPDEST SWAP6 SWAP9 SWAP5 SWAP8 POP SWAP6 POP POP POP POP JUMP JUMPDEST PUSH0 DUP1 PUSH0 DUP1 PUSH1 0x80 DUP6 DUP8 SUB SLT ISZERO PUSH2 0x2E03 JUMPI PUSH0 DUP1 REVERT JUMPDEST POP POP DUP3 CALLDATALOAD SWAP5 PUSH1 0x20 DUP5 ADD CALLDATALOAD SWAP5 POP PUSH1 0x40 DUP5 ADD CALLDATALOAD SWAP4 PUSH1 0x60 ADD CALLDATALOAD SWAP3 POP SWAP1 POP JUMP JUMPDEST PUSH0 PUSH1 0x20 DUP3 DUP5 SUB SLT ISZERO PUSH2 0x2E2F JUMPI PUSH0 DUP1 REVERT JUMPDEST PUSH2 0xA6D DUP3 PUSH2 0x2D03 JUMP JUMPDEST PUSH0 DUP1 PUSH1 0x40 DUP4 DUP6 SUB SLT ISZERO PUSH2 0x2E49 JUMPI PUSH0 DUP1 REVERT JUMPDEST DUP3 CALLDATALOAD PUSH2 0x2E54 DUP2 PUSH2 0x2C52 JUMP JUMPDEST SWAP2 POP PUSH1 0x20 DUP4 ADD CALLDATALOAD PUSH2 0x2E64 DUP2 PUSH2 0x2C52 JUMP JUMPDEST DUP1 SWAP2 POP POP SWAP3 POP SWAP3 SWAP1 POP JUMP JUMPDEST PUSH4 0x4E487B71 PUSH1 0xE0 SHL PUSH0 MSTORE PUSH1 0x11 PUSH1 0x4 MSTORE PUSH1 0x24 PUSH0 REVERT JUMPDEST DUP2 DUP2 SUB DUP2 DUP2 GT ISZERO PUSH2 0x8BA JUMPI PUSH2 0x8BA PUSH2 0x2E6F JUMP JUMPDEST PUSH1 0x20 DUP1 DUP3 MSTORE DUP2 DUP2 ADD MSTORE PUSH32 0x4F776E61626C653A2063616C6C6572206973206E6F7420746865206F776E6572 PUSH1 0x40 DUP3 ADD MSTORE PUSH1 0x60 ADD SWAP1 JUMP JUMPDEST PUSH0 DUP3 PUSH2 0x2EE5 JUMPI PUSH4 0x4E487B71 PUSH1 0xE0 SHL PUSH0 MSTORE PUSH1 0x12 PUSH1 0x4 MSTORE PUSH1 0x24 PUSH0 REVERT JUMPDEST POP DIV SWAP1 JUMP JUMPDEST PUSH4 0x4E487B71 PUSH1 0xE0 SHL PUSH0 MSTORE PUSH1 0x32 PUSH1 0x4 MSTORE PUSH1 0x24 PUSH0 REVERT JUMPDEST PUSH4 0x4E487B71 PUSH1 0xE0 SHL PUSH0 MSTORE PUSH1 0x31 PUSH1 0x4 MSTORE PUSH1 0x24 PUSH0 REVERT JUMPDEST DUP1 DUP3 ADD DUP1 DUP3 GT ISZERO PUSH2 0x8BA JUMPI PUSH2 0x8BA PUSH2 0x2E6F JUMP JUMPDEST DUP1 DUP3 MUL DUP2 ISZERO DUP3 DUP3 DIV DUP5 EQ OR PUSH2 0x8BA JUMPI PUSH2 0x8BA PUSH2 0x2E6F JUMP JUMPDEST PUSH0 PUSH1 0x20 DUP3 DUP5 SUB SLT ISZERO PUSH2 0x2F4C JUMPI PUSH0 DUP1 REVERT JUMPDEST DUP2 MLOAD PUSH2 0xA6D DUP2 PUSH2 0x2C52 JUMP JUMPDEST PUSH0 PUSH1 0xA0 DUP3 ADD DUP8 DUP4 MSTORE PUSH1 0x20 DUP8 PUSH1 0x20 DUP6 ADD MSTORE PUSH1 0xA0 PUSH1 0x40 DUP6 ADD MSTORE DUP2 DUP8 MLOAD DUP1 DUP5 MSTORE PUSH1 0xC0 DUP7 ADD SWAP2 POP PUSH1 0x20 DUP10 ADD SWAP4 POP PUSH0 JUMPDEST DUP2 DUP2 LT ISZERO PUSH2 0x2FA7 JUMPI DUP5 MLOAD PUSH1 0x1 PUSH1 0x1 PUSH1 0xA0 SHL SUB AND DUP4 MSTORE SWAP4 DUP4 ADD SWAP4 SWAP2 DUP4 ADD SWAP2 PUSH1 0x1 ADD PUSH2 0x2F82 JUMP JUMPDEST POP POP PUSH1 0x1 PUSH1 0x1 PUSH1 0xA0 SHL SUB SWAP7 SWAP1 SWAP7 AND PUSH1 0x60 DUP6 ADD MSTORE POP POP POP PUSH1 0x80 ADD MSTORE SWAP4 SWAP3 POP POP POP JUMP JUMPDEST PUSH0 DUP1 PUSH0 PUSH1 0x60 DUP5 DUP7 SUB SLT ISZERO PUSH2 0x2FDA JUMPI PUSH0 DUP1 REVERT JUMPDEST DUP4 MLOAD SWAP3 POP PUSH1 0x20 DUP5 ADD MLOAD SWAP2 POP PUSH1 0x40 DUP5 ADD MLOAD SWAP1 POP SWAP3 POP SWAP3 POP SWAP3 JUMP INVALID LOG2 PUSH5 0x6970667358 0x22 SLT KECCAK256 0x28 LOG3 SGT GAS DUP12 AND 0x4C 0x24 0xBE MSTORE8 EXTCODEHASH PUSH32 0xA2064290132EFB365D20BC8C5E8BF0A1BECE40A364736F6C6343000818003300 "
				},
				"gasEstimates": {
					"creation": {
						"codeDepositCost": "2465800",
						"executionCost": "infinite",
						"totalCost": "infinite"
					},
					"external": {
						"addBlacklist(address)": "30102",
						"airdrop(address[],uint256[])": "infinite",
						"allowance(address,address)": "infinite",
						"approve(address,uint256)": "24656",
						"balanceOf(address)": "infinite",
						"blacklisted(address)": "2633",
						"buyBurnTaxPer()": "2362",
						"buyCoinWalletTaxPer()": "2338",
						"buyLiquidityTaxPer()": "2360",
						"buyReflectionTax()": "2405",
						"decimals()": "332",
						"decreaseAllowance(address,uint256)": "infinite",
						"deliver(uint256)": "infinite",
						"excludeFromFee(address)": "29064",
						"excludeFromReward(address)": "infinite",
						"fundWallet()": "2382",
						"includeInFee(address)": "29031",
						"includeInReward(address)": "infinite",
						"increaseAllowance(address,uint256)": "infinite",
						"isExcludedFromFee(address)": "2673",
						"isExcludedFromReward(address)": "2674",
						"name()": "infinite",
						"owner()": "2485",
						"reflectionFromToken(uint256,bool)": "infinite",
						"removeBlacklist(address)": "30158",
						"renounceOwnership()": "30273",
						"sellBurnTaxPer()": "2406",
						"sellCoinWalletTaxPer()": "2450",
						"sellLiquidityTaxPer()": "2449",
						"sellReflectionTax()": "2449",
						"setFundWallet(address)": "27946",
						"setSwapAndLiquifyEnabled(bool)": "27799",
						"startTrading()": "29837",
						"swapAndLiquifyEnabled()": "2387",
						"symbol()": "infinite",
						"tokenFromReflection(uint256)": "infinite",
						"totalFees()": "2371",
						"totalSupply()": "2426",
						"tradeEnabled()": "2387",
						"transfer(address,uint256)": "infinite",
						"transferFrom(address,address,uint256)": "infinite",
						"transferOwnership(address)": "30543",
						"uniswapV2Pair()": "infinite",
						"uniswapV2Router()": "infinite",
						"updateBuyTaxPer(uint256,uint256,uint256,uint256)": "infinite",
						"updateSellTaxPer(uint256,uint256,uint256,uint256)": "infinite",
						"updateThreshold(uint256)": "25683"
					},
					"internal": {
						"_approve(address,address,uint256)": "infinite",
						"_getCurrentSupply()": "infinite",
						"_getRValues(uint256,uint256,uint256,uint256,uint256)": "infinite",
						"_getRate()": "infinite",
						"_getTValues(uint256)": "infinite",
						"_getValue(uint256)": "infinite",
						"_getValues(uint256)": "infinite",
						"_reflectFee(uint256,uint256,uint256)": "infinite",
						"_sellBuyTax(address,address)": "infinite",
						"_takeCoinFund(uint256)": "infinite",
						"_takeLiquidity(uint256)": "infinite",
						"_tokenTransfer(address,address,uint256,bool)": "infinite",
						"_transfer(address,address,uint256)": "infinite",
						"_transferBothExcluded(address,address,uint256)": "infinite",
						"_transferFromExcluded(address,address,uint256)": "infinite",
						"_transferStandard(address,address,uint256)": "infinite",
						"_transferToExcluded(address,address,uint256)": "infinite",
						"addLiquidity(uint256,uint256)": "infinite",
						"calculateBurnTax(uint256)": "infinite",
						"calculateCoinOperartionTax(uint256)": "infinite",
						"calculateLiquidityFee(uint256)": "infinite",
						"calculateTaxFee(uint256)": "infinite",
						"removeAllFee()": "infinite",
						"swapAndLiquify(uint256)": "infinite",
						"swapTokensForEth(uint256)": "infinite"
					}
				},
				"methodIdentifiers": {
					"addBlacklist(address)": "9cfe42da",
					"airdrop(address[],uint256[])": "67243482",
					"allowance(address,address)": "dd62ed3e",
					"approve(address,uint256)": "095ea7b3",
					"balanceOf(address)": "70a08231",
					"blacklisted(address)": "dbac26e9",
					"buyBurnTaxPer()": "281d9a7a",
					"buyCoinWalletTaxPer()": "e1eaf3bb",
					"buyLiquidityTaxPer()": "ea204636",
					"buyReflectionTax()": "5252a228",
					"decimals()": "313ce567",
					"decreaseAllowance(address,uint256)": "a457c2d7",
					"deliver(uint256)": "3bd5d173",
					"excludeFromFee(address)": "437823ec",
					"excludeFromReward(address)": "52390c02",
					"fundWallet()": "664a1ad6",
					"includeInFee(address)": "ea2f0b37",
					"includeInReward(address)": "3685d419",
					"increaseAllowance(address,uint256)": "39509351",
					"isExcludedFromFee(address)": "5342acb4",
					"isExcludedFromReward(address)": "88f82020",
					"name()": "06fdde03",
					"owner()": "8da5cb5b",
					"reflectionFromToken(uint256,bool)": "4549b039",
					"removeBlacklist(address)": "eb91e651",
					"renounceOwnership()": "715018a6",
					"sellBurnTaxPer()": "2d5624ed",
					"sellCoinWalletTaxPer()": "463db7dd",
					"sellLiquidityTaxPer()": "bdf024ec",
					"sellReflectionTax()": "e1662ed3",
					"setFundWallet(address)": "55ce3b9a",
					"setSwapAndLiquifyEnabled(bool)": "c49b9a80",
					"startTrading()": "293230b8",
					"swapAndLiquifyEnabled()": "4a74bb02",
					"symbol()": "95d89b41",
					"tokenFromReflection(uint256)": "2d838119",
					"totalFees()": "13114a9d",
					"totalSupply()": "18160ddd",
					"tradeEnabled()": "d621e813",
					"transfer(address,uint256)": "a9059cbb",
					"transferFrom(address,address,uint256)": "23b872dd",
					"transferOwnership(address)": "f2fde38b",
					"uniswapV2Pair()": "49bd5a5e",
					"uniswapV2Router()": "1694505e",
					"updateBuyTaxPer(uint256,uint256,uint256,uint256)": "ea7db9e5",
					"updateSellTaxPer(uint256,uint256,uint256,uint256)": "b618a70d",
					"updateThreshold(uint256)": "d7d7442f"
				}
			},
			"storageLayout": {
				"storage": [
					{
						"astId": 105,
						"contract": "EAGLEAI/EagleAI.sol:EAGLEAI",
						"label": "_owner",
						"offset": 0,
						"slot": "0",
						"type": "t_address"
					},
					{
						"astId": 107,
						"contract": "EAGLEAI/EagleAI.sol:EAGLEAI",
						"label": "_previousOwner",
						"offset": 0,
						"slot": "1",
						"type": "t_address"
					},
					{
						"astId": 680,
						"contract": "EAGLEAI/EagleAI.sol:EAGLEAI",
						"label": "_rOwned",
						"offset": 0,
						"slot": "2",
						"type": "t_mapping(t_address,t_uint256)"
					},
					{
						"astId": 684,
						"contract": "EAGLEAI/EagleAI.sol:EAGLEAI",
						"label": "_tOwned",
						"offset": 0,
						"slot": "3",
						"type": "t_mapping(t_address,t_uint256)"
					},
					{
						"astId": 690,
						"contract": "EAGLEAI/EagleAI.sol:EAGLEAI",
						"label": "_allowances",
						"offset": 0,
						"slot": "4",
						"type": "t_mapping(t_address,t_mapping(t_address,t_uint256))"
					},
					{
						"astId": 694,
						"contract": "EAGLEAI/EagleAI.sol:EAGLEAI",
						"label": "blacklisted",
						"offset": 0,
						"slot": "5",
						"type": "t_mapping(t_address,t_bool)"
					},
					{
						"astId": 698,
						"contract": "EAGLEAI/EagleAI.sol:EAGLEAI",
						"label": "_isExcludedFromFee",
						"offset": 0,
						"slot": "6",
						"type": "t_mapping(t_address,t_bool)"
					},
					{
						"astId": 702,
						"contract": "EAGLEAI/EagleAI.sol:EAGLEAI",
						"label": "_isExcluded",
						"offset": 0,
						"slot": "7",
						"type": "t_mapping(t_address,t_bool)"
					},
					{
						"astId": 705,
						"contract": "EAGLEAI/EagleAI.sol:EAGLEAI",
						"label": "_excluded",
						"offset": 0,
						"slot": "8",
						"type": "t_array(t_address)dyn_storage"
					},
					{
						"astId": 723,
						"contract": "EAGLEAI/EagleAI.sol:EAGLEAI",
						"label": "_tTotal",
						"offset": 0,
						"slot": "9",
						"type": "t_uint256"
					},
					{
						"astId": 732,
						"contract": "EAGLEAI/EagleAI.sol:EAGLEAI",
						"label": "_rTotal",
						"offset": 0,
						"slot": "10",
						"type": "t_uint256"
					},
					{
						"astId": 734,
						"contract": "EAGLEAI/EagleAI.sol:EAGLEAI",
						"label": "_tFeeTotal",
						"offset": 0,
						"slot": "11",
						"type": "t_uint256"
					},
					{
						"astId": 750,
						"contract": "EAGLEAI/EagleAI.sol:EAGLEAI",
						"label": "inSwapAndLiquify",
						"offset": 0,
						"slot": "12",
						"type": "t_bool"
					},
					{
						"astId": 753,
						"contract": "EAGLEAI/EagleAI.sol:EAGLEAI",
						"label": "swapAndLiquifyEnabled",
						"offset": 1,
						"slot": "12",
						"type": "t_bool"
					},
					{
						"astId": 755,
						"contract": "EAGLEAI/EagleAI.sol:EAGLEAI",
						"label": "tradeEnabled",
						"offset": 2,
						"slot": "12",
						"type": "t_bool"
					},
					{
						"astId": 766,
						"contract": "EAGLEAI/EagleAI.sol:EAGLEAI",
						"label": "numTokensSellToAddToLiquidity",
						"offset": 0,
						"slot": "13",
						"type": "t_uint256"
					},
					{
						"astId": 768,
						"contract": "EAGLEAI/EagleAI.sol:EAGLEAI",
						"label": "refAmt",
						"offset": 0,
						"slot": "14",
						"type": "t_uint256"
					},
					{
						"astId": 770,
						"contract": "EAGLEAI/EagleAI.sol:EAGLEAI",
						"label": "coinOperation",
						"offset": 0,
						"slot": "15",
						"type": "t_uint256"
					},
					{
						"astId": 772,
						"contract": "EAGLEAI/EagleAI.sol:EAGLEAI",
						"label": "liquidty",
						"offset": 0,
						"slot": "16",
						"type": "t_uint256"
					},
					{
						"astId": 774,
						"contract": "EAGLEAI/EagleAI.sol:EAGLEAI",
						"label": "burn",
						"offset": 0,
						"slot": "17",
						"type": "t_uint256"
					},
					{
						"astId": 777,
						"contract": "EAGLEAI/EagleAI.sol:EAGLEAI",
						"label": "buyReflectionTax",
						"offset": 0,
						"slot": "18",
						"type": "t_uint256"
					},
					{
						"astId": 780,
						"contract": "EAGLEAI/EagleAI.sol:EAGLEAI",
						"label": "buyCoinWalletTaxPer",
						"offset": 0,
						"slot": "19",
						"type": "t_uint256"
					},
					{
						"astId": 783,
						"contract": "EAGLEAI/EagleAI.sol:EAGLEAI",
						"label": "buyLiquidityTaxPer",
						"offset": 0,
						"slot": "20",
						"type": "t_uint256"
					},
					{
						"astId": 786,
						"contract": "EAGLEAI/EagleAI.sol:EAGLEAI",
						"label": "buyBurnTaxPer",
						"offset": 0,
						"slot": "21",
						"type": "t_uint256"
					},
					{
						"astId": 789,
						"contract": "EAGLEAI/EagleAI.sol:EAGLEAI",
						"label": "sellReflectionTax",
						"offset": 0,
						"slot": "22",
						"type": "t_uint256"
					},
					{
						"astId": 792,
						"contract": "EAGLEAI/EagleAI.sol:EAGLEAI",
						"label": "sellCoinWalletTaxPer",
						"offset": 0,
						"slot": "23",
						"type": "t_uint256"
					},
					{
						"astId": 795,
						"contract": "EAGLEAI/EagleAI.sol:EAGLEAI",
						"label": "sellLiquidityTaxPer",
						"offset": 0,
						"slot": "24",
						"type": "t_uint256"
					},
					{
						"astId": 798,
						"contract": "EAGLEAI/EagleAI.sol:EAGLEAI",
						"label": "sellBurnTaxPer",
						"offset": 0,
						"slot": "25",
						"type": "t_uint256"
					},
					{
						"astId": 800,
						"contract": "EAGLEAI/EagleAI.sol:EAGLEAI",
						"label": "fundWallet",
						"offset": 0,
						"slot": "26",
						"type": "t_address"
					}
				],
				"types": {
					"t_address": {
						"encoding": "inplace",
						"label": "address",
						"numberOfBytes": "20"
					},
					"t_array(t_address)dyn_storage": {
						"base": "t_address",
						"encoding": "dynamic_array",
						"label": "address[]",
						"numberOfBytes": "32"
					},
					"t_bool": {
						"encoding": "inplace",
						"label": "bool",
						"numberOfBytes": "1"
					},
					"t_mapping(t_address,t_bool)": {
						"encoding": "mapping",
						"key": "t_address",
						"label": "mapping(address => bool)",
						"numberOfBytes": "32",
						"value": "t_bool"
					},
					"t_mapping(t_address,t_mapping(t_address,t_uint256))": {
						"encoding": "mapping",
						"key": "t_address",
						"label": "mapping(address => mapping(address => uint256))",
						"numberOfBytes": "32",
						"value": "t_mapping(t_address,t_uint256)"
					},
					"t_mapping(t_address,t_uint256)": {
						"encoding": "mapping",
						"key": "t_address",
						"label": "mapping(address => uint256)",
						"numberOfBytes": "32",
						"value": "t_uint256"
					},
					"t_uint256": {
						"encoding": "inplace",
						"label": "uint256",
						"numberOfBytes": "32"
					}
				}
			},
			"userdoc": {
				"kind": "user",
				"methods": {
					"addBlacklist(address)": {
						"notice": "Adds an address to the blacklist."
					},
					"allowance(address,address)": {
						"notice": "Retrieves the remaining allowance for a spender to spend tokens on behalf of an owner."
					},
					"approve(address,uint256)": {
						"notice": "Approves a spender to spend a specified amount of tokens on behalf of the owner."
					},
					"balanceOf(address)": {
						"notice": "Retrieves the token balance of a specified account."
					},
					"constructor": {
						"notice": "Contract constructor to initialize the token."
					},
					"decimals()": {
						"notice": "Retrieves the number of decimal places used in the token representation."
					},
					"decreaseAllowance(address,uint256)": {
						"notice": "Reduces the allowance granted to a spender by a specified amount."
					},
					"deliver(uint256)": {
						"notice": "Distributes the specified amount of tokens as reflections to the reward pool."
					},
					"excludeFromFee(address)": {
						"notice": "Grants the owner the ability to exclude an address from transaction fees."
					},
					"excludeFromReward(address)": {
						"notice": "Grants the owner the ability to exclude an address from earning reflections."
					},
					"includeInFee(address)": {
						"notice": "Grants the owner the ability to include an address in transaction fees."
					},
					"includeInReward(address)": {
						"notice": "Only the owner of the contract can call this function.Requires that the specified account is currently excluded."
					},
					"increaseAllowance(address,uint256)": {
						"notice": "Increases the allowance granted to a spender by a specified amount."
					},
					"isExcludedFromReward(address)": {
						"notice": "Checks if the specified address is excluded from earning reflections."
					},
					"name()": {
						"notice": "Retrieves the name of the token."
					},
					"reflectionFromToken(uint256,bool)": {
						"notice": "Converts the given token amount to its equivalent reflection amount."
					},
					"removeBlacklist(address)": {
						"notice": "Removes an address from the blacklist."
					},
					"setSwapAndLiquifyEnabled(bool)": {
						"notice": "Allows the owner to enable or disable the swap and liquify feature."
					},
					"startTrading()": {
						"notice": "Enables trading functionality."
					},
					"symbol()": {
						"notice": "Retrieves the symbol or ticker of the token."
					},
					"tokenFromReflection(uint256)": {
						"notice": "Converts the given reflection amount to its equivalent token amount."
					},
					"totalFees()": {
						"notice": "Retrieves the total amount of fees collected in tokens."
					},
					"totalSupply()": {
						"notice": "Retrieves the total supply of tokens."
					},
					"transfer(address,uint256)": {
						"notice": "Transfers a specified amount of tokens to a recipient."
					},
					"transferFrom(address,address,uint256)": {
						"notice": "Transfers tokens from one address to another on behalf of a third-party."
					},
					"updateBuyTaxPer(uint256,uint256,uint256,uint256)": {
						"notice": "Updates the buy taxes percentages."
					},
					"updateSellTaxPer(uint256,uint256,uint256,uint256)": {
						"notice": "Updates the sell taxes percentages."
					},
					"updateThreshold(uint256)": {
						"notice": "Only the owner of the contract can call this function.Requires a positive _amount for successful execution."
					}
				},
				"version": 1
			}
		}
	}
}